{"contracts/oracle/DataOracle.sol":{"DataOracle":{"abi":[{"anonymous":false,"inputs":[{"indexed":false,"internalType":"address","name":"callerAddress","type":"address"},{"indexed":false,"internalType":"uint256","name":"id","type":"uint256"}],"name":"GetLatestDataEvent","type":"event"},{"anonymous":false,"inputs":[{"indexed":true,"internalType":"address","name":"previousOwner","type":"address"},{"indexed":true,"internalType":"address","name":"newOwner","type":"address"}],"name":"OwnershipTransferred","type":"event"},{"anonymous":false,"inputs":[{"indexed":false,"internalType":"string","name":"data","type":"string"},{"indexed":false,"internalType":"address","name":"callerAddress","type":"address"}],"name":"SetLatestDataEvent","type":"event"},{"inputs":[],"name":"getLatestData","outputs":[{"internalType":"uint256","name":"","type":"uint256"}],"stateMutability":"nonpayable","type":"function"},{"inputs":[],"name":"owner","outputs":[{"internalType":"address","name":"","type":"address"}],"stateMutability":"view","type":"function"},{"inputs":[],"name":"renounceOwnership","outputs":[],"stateMutability":"nonpayable","type":"function"},{"inputs":[{"internalType":"string","name":"_data","type":"string"},{"internalType":"address","name":"_callerAddress","type":"address"},{"internalType":"uint256","name":"_id","type":"uint256"}],"name":"setLatestData","outputs":[],"stateMutability":"nonpayable","type":"function"},{"inputs":[{"internalType":"address","name":"newOwner","type":"address"}],"name":"transferOwnership","outputs":[],"stateMutability":"nonpayable","type":"function"}],"evm":{"bytecode":{"linkReferences":{},"object":"608060405260006001556103e860025534801561001b57600080fd5b5061003861002d61003d60201b60201c565b61004560201b60201c565b610109565b600033905090565b60008060009054906101000a900473ffffffffffffffffffffffffffffffffffffffff169050816000806101000a81548173ffffffffffffffffffffffffffffffffffffffff021916908373ffffffffffffffffffffffffffffffffffffffff1602179055508173ffffffffffffffffffffffffffffffffffffffff168173ffffffffffffffffffffffffffffffffffffffff167f8be0079c531659141344cd1fd0a4f28419497f9722a3daafe3b4186f6b6457e060405160405180910390a35050565b610bf3806101186000396000f3fe608060405234801561001057600080fd5b50600436106100575760003560e01c8063715018a61461005c5780638da5cb5b14610066578063ab757d6114610084578063ea2c8c5a146100a2578063f2fde38b146100be575b600080fd5b6100646100da565b005b61006e6100ee565b60405161007b9190610735565b60405180910390f35b61008c610117565b6040516100999190610809565b60405180910390f35b6100bc60048036038101906100b791906105a3565b6101de565b005b6100d860048036038101906100d3919061057a565b61031a565b005b6100e261039e565b6100ec600061041c565b565b60008060009054906101000a900473ffffffffffffffffffffffffffffffffffffffff16905090565b60006001600081548092919061012c90610975565b91905055506000600254423360015460405160200161014d939291906106f8565b6040516020818303038152906040528051906020012060001c61017091906109ec565b905060016003600083815260200190815260200160002060006101000a81548160ff0219169083151502179055507fd668582a8632d2c0ad89fda7deb1fab7070807ffa54eda70ce4dc69d685a2e6a33826040516101cf929190610750565b60405180910390a18091505090565b6101e661039e565b6003600082815260200190815260200160002060009054906101000a900460ff16610246576040517f08c379a000000000000000000000000000000000000000000000000000000000815260040161023d906107e9565b60405180910390fd5b6003600082815260200190815260200160002060006101000a81549060ff021916905560008290508073ffffffffffffffffffffffffffffffffffffffff1663b69a375d83866040518363ffffffff1660e01b81526004016102a9929190610824565b600060405180830381600087803b1580156102c357600080fd5b505af11580156102d7573d6000803e3d6000fd5b505050507f0f123bfeaa022703db11e76be0d8adb30a81c9d390d6673e64fc00bfa481d102848460405161030c929190610779565b60405180910390a150505050565b61032261039e565b600073ffffffffffffffffffffffffffffffffffffffff168173ffffffffffffffffffffffffffffffffffffffff161415610392576040517f08c379a0000000000000000000000000000000000000000000000000000000008152600401610389906107a9565b60405180910390fd5b61039b8161041c565b50565b6103a66104e0565b73ffffffffffffffffffffffffffffffffffffffff166103c46100ee565b73ffffffffffffffffffffffffffffffffffffffff161461041a576040517f08c379a0000000000000000000000000000000000000000000000000000000008152600401610411906107c9565b60405180910390fd5b565b60008060009054906101000a900473ffffffffffffffffffffffffffffffffffffffff169050816000806101000a81548173ffffffffffffffffffffffffffffffffffffffff021916908373ffffffffffffffffffffffffffffffffffffffff1602179055508173ffffffffffffffffffffffffffffffffffffffff168173ffffffffffffffffffffffffffffffffffffffff167f8be0079c531659141344cd1fd0a4f28419497f9722a3daafe3b4186f6b6457e060405160405180910390a35050565b600033905090565b60006104fb6104f684610879565b610854565b90508281526020810184848401111561051357600080fd5b61051e848285610902565b509392505050565b60008135905061053581610b8f565b92915050565b600082601f83011261054c57600080fd5b813561055c8482602086016104e8565b91505092915050565b60008135905061057481610ba6565b92915050565b60006020828403121561058c57600080fd5b600061059a84828501610526565b91505092915050565b6000806000606084860312156105b857600080fd5b600084013567ffffffffffffffff8111156105d257600080fd5b6105de8682870161053b565b93505060206105ef86828701610526565b925050604061060086828701610565565b9150509250925092565b610613816108c6565b82525050565b61062a610625826108c6565b6109be565b82525050565b600061063b826108aa565b61064581856108b5565b9350610655818560208601610911565b61065e81610aaa565b840191505092915050565b60006106766026836108b5565b915061068182610ac8565b604082019050919050565b60006106996020836108b5565b91506106a482610b17565b602082019050919050565b60006106bc6027836108b5565b91506106c782610b40565b604082019050919050565b6106db816108f8565b82525050565b6106f26106ed826108f8565b6109e2565b82525050565b600061070482866106e1565b6020820191506107148285610619565b60148201915061072482846106e1565b602082019150819050949350505050565b600060208201905061074a600083018461060a565b92915050565b6000604082019050610765600083018561060a565b61077260208301846106d2565b9392505050565b600060408201905081810360008301526107938185610630565b90506107a2602083018461060a565b9392505050565b600060208201905081810360008301526107c281610669565b9050919050565b600060208201905081810360008301526107e28161068c565b9050919050565b60006020820190508181036000830152610802816106af565b9050919050565b600060208201905061081e60008301846106d2565b92915050565b600060408201905061083960008301856106d2565b818103602083015261084b8184610630565b90509392505050565b600061085e61086f565b905061086a8282610944565b919050565b6000604051905090565b600067ffffffffffffffff82111561089457610893610a7b565b5b61089d82610aaa565b9050602081019050919050565b600081519050919050565b600082825260208201905092915050565b60006108d1826108d8565b9050919050565b600073ffffffffffffffffffffffffffffffffffffffff82169050919050565b6000819050919050565b82818337600083830152505050565b60005b8381101561092f578082015181840152602081019050610914565b8381111561093e576000848401525b50505050565b61094d82610aaa565b810181811067ffffffffffffffff8211171561096c5761096b610a7b565b5b80604052505050565b6000610980826108f8565b91507fffffffffffffffffffffffffffffffffffffffffffffffffffffffffffffffff8214156109b3576109b2610a1d565b5b600182019050919050565b60006109c9826109d0565b9050919050565b60006109db82610abb565b9050919050565b6000819050919050565b60006109f7826108f8565b9150610a02836108f8565b925082610a1257610a11610a4c565b5b828206905092915050565b7f4e487b7100000000000000000000000000000000000000000000000000000000600052601160045260246000fd5b7f4e487b7100000000000000000000000000000000000000000000000000000000600052601260045260246000fd5b7f4e487b7100000000000000000000000000000000000000000000000000000000600052604160045260246000fd5b6000601f19601f8301169050919050565b60008160601b9050919050565b7f4f776e61626c653a206e6577206f776e657220697320746865207a65726f206160008201527f6464726573730000000000000000000000000000000000000000000000000000602082015250565b7f4f776e61626c653a2063616c6c6572206973206e6f7420746865206f776e6572600082015250565b7f546869732072657175657374206973206e6f7420696e206d792070656e64696e60008201527f67206c6973742e00000000000000000000000000000000000000000000000000602082015250565b610b98816108c6565b8114610ba357600080fd5b50565b610baf816108f8565b8114610bba57600080fd5b5056fea2646970667358221220286c29f78047a68ffa40041ffb8f207cb8b646f4f4178de42f95010642f8246a64736f6c63430008040033","opcodes":"PUSH1 0x80 PUSH1 0x40 MSTORE PUSH1 0x0 PUSH1 0x1 SSTORE PUSH2 0x3E8 PUSH1 0x2 SSTORE CALLVALUE DUP1 ISZERO PUSH2 0x1B JUMPI PUSH1 0x0 DUP1 REVERT JUMPDEST POP PUSH2 0x38 PUSH2 0x2D PUSH2 0x3D PUSH1 0x20 SHL PUSH1 0x20 SHR JUMP JUMPDEST PUSH2 0x45 PUSH1 0x20 SHL PUSH1 0x20 SHR JUMP JUMPDEST PUSH2 0x109 JUMP JUMPDEST PUSH1 0x0 CALLER SWAP1 POP SWAP1 JUMP JUMPDEST PUSH1 0x0 DUP1 PUSH1 0x0 SWAP1 SLOAD SWAP1 PUSH2 0x100 EXP SWAP1 DIV PUSH20 0xFFFFFFFFFFFFFFFFFFFFFFFFFFFFFFFFFFFFFFFF AND SWAP1 POP DUP2 PUSH1 0x0 DUP1 PUSH2 0x100 EXP DUP2 SLOAD DUP2 PUSH20 0xFFFFFFFFFFFFFFFFFFFFFFFFFFFFFFFFFFFFFFFF MUL NOT AND SWAP1 DUP4 PUSH20 0xFFFFFFFFFFFFFFFFFFFFFFFFFFFFFFFFFFFFFFFF AND MUL OR SWAP1 SSTORE POP DUP2 PUSH20 0xFFFFFFFFFFFFFFFFFFFFFFFFFFFFFFFFFFFFFFFF AND DUP2 PUSH20 0xFFFFFFFFFFFFFFFFFFFFFFFFFFFFFFFFFFFFFFFF AND PUSH32 0x8BE0079C531659141344CD1FD0A4F28419497F9722A3DAAFE3B4186F6B6457E0 PUSH1 0x40 MLOAD PUSH1 0x40 MLOAD DUP1 SWAP2 SUB SWAP1 LOG3 POP POP JUMP JUMPDEST PUSH2 0xBF3 DUP1 PUSH2 0x118 PUSH1 0x0 CODECOPY PUSH1 0x0 RETURN INVALID PUSH1 0x80 PUSH1 0x40 MSTORE CALLVALUE DUP1 ISZERO PUSH2 0x10 JUMPI PUSH1 0x0 DUP1 REVERT JUMPDEST POP PUSH1 0x4 CALLDATASIZE LT PUSH2 0x57 JUMPI PUSH1 0x0 CALLDATALOAD PUSH1 0xE0 SHR DUP1 PUSH4 0x715018A6 EQ PUSH2 0x5C JUMPI DUP1 PUSH4 0x8DA5CB5B EQ PUSH2 0x66 JUMPI DUP1 PUSH4 0xAB757D61 EQ PUSH2 0x84 JUMPI DUP1 PUSH4 0xEA2C8C5A EQ PUSH2 0xA2 JUMPI DUP1 PUSH4 0xF2FDE38B EQ PUSH2 0xBE JUMPI JUMPDEST PUSH1 0x0 DUP1 REVERT JUMPDEST PUSH2 0x64 PUSH2 0xDA JUMP JUMPDEST STOP JUMPDEST PUSH2 0x6E PUSH2 0xEE JUMP JUMPDEST PUSH1 0x40 MLOAD PUSH2 0x7B SWAP2 SWAP1 PUSH2 0x735 JUMP JUMPDEST PUSH1 0x40 MLOAD DUP1 SWAP2 SUB SWAP1 RETURN JUMPDEST PUSH2 0x8C PUSH2 0x117 JUMP JUMPDEST PUSH1 0x40 MLOAD PUSH2 0x99 SWAP2 SWAP1 PUSH2 0x809 JUMP JUMPDEST PUSH1 0x40 MLOAD DUP1 SWAP2 SUB SWAP1 RETURN JUMPDEST PUSH2 0xBC PUSH1 0x4 DUP1 CALLDATASIZE SUB DUP2 ADD SWAP1 PUSH2 0xB7 SWAP2 SWAP1 PUSH2 0x5A3 JUMP JUMPDEST PUSH2 0x1DE JUMP JUMPDEST STOP JUMPDEST PUSH2 0xD8 PUSH1 0x4 DUP1 CALLDATASIZE SUB DUP2 ADD SWAP1 PUSH2 0xD3 SWAP2 SWAP1 PUSH2 0x57A JUMP JUMPDEST PUSH2 0x31A JUMP JUMPDEST STOP JUMPDEST PUSH2 0xE2 PUSH2 0x39E JUMP JUMPDEST PUSH2 0xEC PUSH1 0x0 PUSH2 0x41C JUMP JUMPDEST JUMP JUMPDEST PUSH1 0x0 DUP1 PUSH1 0x0 SWAP1 SLOAD SWAP1 PUSH2 0x100 EXP SWAP1 DIV PUSH20 0xFFFFFFFFFFFFFFFFFFFFFFFFFFFFFFFFFFFFFFFF AND SWAP1 POP SWAP1 JUMP JUMPDEST PUSH1 0x0 PUSH1 0x1 PUSH1 0x0 DUP2 SLOAD DUP1 SWAP3 SWAP2 SWAP1 PUSH2 0x12C SWAP1 PUSH2 0x975 JUMP JUMPDEST SWAP2 SWAP1 POP SSTORE POP PUSH1 0x0 PUSH1 0x2 SLOAD TIMESTAMP CALLER PUSH1 0x1 SLOAD PUSH1 0x40 MLOAD PUSH1 0x20 ADD PUSH2 0x14D SWAP4 SWAP3 SWAP2 SWAP1 PUSH2 0x6F8 JUMP JUMPDEST PUSH1 0x40 MLOAD PUSH1 0x20 DUP2 DUP4 SUB SUB DUP2 MSTORE SWAP1 PUSH1 0x40 MSTORE DUP1 MLOAD SWAP1 PUSH1 0x20 ADD KECCAK256 PUSH1 0x0 SHR PUSH2 0x170 SWAP2 SWAP1 PUSH2 0x9EC JUMP JUMPDEST SWAP1 POP PUSH1 0x1 PUSH1 0x3 PUSH1 0x0 DUP4 DUP2 MSTORE PUSH1 0x20 ADD SWAP1 DUP2 MSTORE PUSH1 0x20 ADD PUSH1 0x0 KECCAK256 PUSH1 0x0 PUSH2 0x100 EXP DUP2 SLOAD DUP2 PUSH1 0xFF MUL NOT AND SWAP1 DUP4 ISZERO ISZERO MUL OR SWAP1 SSTORE POP PUSH32 0xD668582A8632D2C0AD89FDA7DEB1FAB7070807FFA54EDA70CE4DC69D685A2E6A CALLER DUP3 PUSH1 0x40 MLOAD PUSH2 0x1CF SWAP3 SWAP2 SWAP1 PUSH2 0x750 JUMP JUMPDEST PUSH1 0x40 MLOAD DUP1 SWAP2 SUB SWAP1 LOG1 DUP1 SWAP2 POP POP SWAP1 JUMP JUMPDEST PUSH2 0x1E6 PUSH2 0x39E JUMP JUMPDEST PUSH1 0x3 PUSH1 0x0 DUP3 DUP2 MSTORE PUSH1 0x20 ADD SWAP1 DUP2 MSTORE PUSH1 0x20 ADD PUSH1 0x0 KECCAK256 PUSH1 0x0 SWAP1 SLOAD SWAP1 PUSH2 0x100 EXP SWAP1 DIV PUSH1 0xFF AND PUSH2 0x246 JUMPI PUSH1 0x40 MLOAD PUSH32 0x8C379A000000000000000000000000000000000000000000000000000000000 DUP2 MSTORE PUSH1 0x4 ADD PUSH2 0x23D SWAP1 PUSH2 0x7E9 JUMP JUMPDEST PUSH1 0x40 MLOAD DUP1 SWAP2 SUB SWAP1 REVERT JUMPDEST PUSH1 0x3 PUSH1 0x0 DUP3 DUP2 MSTORE PUSH1 0x20 ADD SWAP1 DUP2 MSTORE PUSH1 0x20 ADD PUSH1 0x0 KECCAK256 PUSH1 0x0 PUSH2 0x100 EXP DUP2 SLOAD SWAP1 PUSH1 0xFF MUL NOT AND SWAP1 SSTORE PUSH1 0x0 DUP3 SWAP1 POP DUP1 PUSH20 0xFFFFFFFFFFFFFFFFFFFFFFFFFFFFFFFFFFFFFFFF AND PUSH4 0xB69A375D DUP4 DUP7 PUSH1 0x40 MLOAD DUP4 PUSH4 0xFFFFFFFF AND PUSH1 0xE0 SHL DUP2 MSTORE PUSH1 0x4 ADD PUSH2 0x2A9 SWAP3 SWAP2 SWAP1 PUSH2 0x824 JUMP JUMPDEST PUSH1 0x0 PUSH1 0x40 MLOAD DUP1 DUP4 SUB DUP2 PUSH1 0x0 DUP8 DUP1 EXTCODESIZE ISZERO DUP1 ISZERO PUSH2 0x2C3 JUMPI PUSH1 0x0 DUP1 REVERT JUMPDEST POP GAS CALL ISZERO DUP1 ISZERO PUSH2 0x2D7 JUMPI RETURNDATASIZE PUSH1 0x0 DUP1 RETURNDATACOPY RETURNDATASIZE PUSH1 0x0 REVERT JUMPDEST POP POP POP POP PUSH32 0xF123BFEAA022703DB11E76BE0D8ADB30A81C9D390D6673E64FC00BFA481D102 DUP5 DUP5 PUSH1 0x40 MLOAD PUSH2 0x30C SWAP3 SWAP2 SWAP1 PUSH2 0x779 JUMP JUMPDEST PUSH1 0x40 MLOAD DUP1 SWAP2 SUB SWAP1 LOG1 POP POP POP POP JUMP JUMPDEST PUSH2 0x322 PUSH2 0x39E JUMP JUMPDEST PUSH1 0x0 PUSH20 0xFFFFFFFFFFFFFFFFFFFFFFFFFFFFFFFFFFFFFFFF AND DUP2 PUSH20 0xFFFFFFFFFFFFFFFFFFFFFFFFFFFFFFFFFFFFFFFF AND EQ ISZERO PUSH2 0x392 JUMPI PUSH1 0x40 MLOAD PUSH32 0x8C379A000000000000000000000000000000000000000000000000000000000 DUP2 MSTORE PUSH1 0x4 ADD PUSH2 0x389 SWAP1 PUSH2 0x7A9 JUMP JUMPDEST PUSH1 0x40 MLOAD DUP1 SWAP2 SUB SWAP1 REVERT JUMPDEST PUSH2 0x39B DUP2 PUSH2 0x41C JUMP JUMPDEST POP JUMP JUMPDEST PUSH2 0x3A6 PUSH2 0x4E0 JUMP JUMPDEST PUSH20 0xFFFFFFFFFFFFFFFFFFFFFFFFFFFFFFFFFFFFFFFF AND PUSH2 0x3C4 PUSH2 0xEE JUMP JUMPDEST PUSH20 0xFFFFFFFFFFFFFFFFFFFFFFFFFFFFFFFFFFFFFFFF AND EQ PUSH2 0x41A JUMPI PUSH1 0x40 MLOAD PUSH32 0x8C379A000000000000000000000000000000000000000000000000000000000 DUP2 MSTORE PUSH1 0x4 ADD PUSH2 0x411 SWAP1 PUSH2 0x7C9 JUMP JUMPDEST PUSH1 0x40 MLOAD DUP1 SWAP2 SUB SWAP1 REVERT JUMPDEST JUMP JUMPDEST PUSH1 0x0 DUP1 PUSH1 0x0 SWAP1 SLOAD SWAP1 PUSH2 0x100 EXP SWAP1 DIV PUSH20 0xFFFFFFFFFFFFFFFFFFFFFFFFFFFFFFFFFFFFFFFF AND SWAP1 POP DUP2 PUSH1 0x0 DUP1 PUSH2 0x100 EXP DUP2 SLOAD DUP2 PUSH20 0xFFFFFFFFFFFFFFFFFFFFFFFFFFFFFFFFFFFFFFFF MUL NOT AND SWAP1 DUP4 PUSH20 0xFFFFFFFFFFFFFFFFFFFFFFFFFFFFFFFFFFFFFFFF AND MUL OR SWAP1 SSTORE POP DUP2 PUSH20 0xFFFFFFFFFFFFFFFFFFFFFFFFFFFFFFFFFFFFFFFF AND DUP2 PUSH20 0xFFFFFFFFFFFFFFFFFFFFFFFFFFFFFFFFFFFFFFFF AND PUSH32 0x8BE0079C531659141344CD1FD0A4F28419497F9722A3DAAFE3B4186F6B6457E0 PUSH1 0x40 MLOAD PUSH1 0x40 MLOAD DUP1 SWAP2 SUB SWAP1 LOG3 POP POP JUMP JUMPDEST PUSH1 0x0 CALLER SWAP1 POP SWAP1 JUMP JUMPDEST PUSH1 0x0 PUSH2 0x4FB PUSH2 0x4F6 DUP5 PUSH2 0x879 JUMP JUMPDEST PUSH2 0x854 JUMP JUMPDEST SWAP1 POP DUP3 DUP2 MSTORE PUSH1 0x20 DUP2 ADD DUP5 DUP5 DUP5 ADD GT ISZERO PUSH2 0x513 JUMPI PUSH1 0x0 DUP1 REVERT JUMPDEST PUSH2 0x51E DUP5 DUP3 DUP6 PUSH2 0x902 JUMP JUMPDEST POP SWAP4 SWAP3 POP POP POP JUMP JUMPDEST PUSH1 0x0 DUP2 CALLDATALOAD SWAP1 POP PUSH2 0x535 DUP2 PUSH2 0xB8F JUMP JUMPDEST SWAP3 SWAP2 POP POP JUMP JUMPDEST PUSH1 0x0 DUP3 PUSH1 0x1F DUP4 ADD SLT PUSH2 0x54C JUMPI PUSH1 0x0 DUP1 REVERT JUMPDEST DUP2 CALLDATALOAD PUSH2 0x55C DUP5 DUP3 PUSH1 0x20 DUP7 ADD PUSH2 0x4E8 JUMP JUMPDEST SWAP2 POP POP SWAP3 SWAP2 POP POP JUMP JUMPDEST PUSH1 0x0 DUP2 CALLDATALOAD SWAP1 POP PUSH2 0x574 DUP2 PUSH2 0xBA6 JUMP JUMPDEST SWAP3 SWAP2 POP POP JUMP JUMPDEST PUSH1 0x0 PUSH1 0x20 DUP3 DUP5 SUB SLT ISZERO PUSH2 0x58C JUMPI PUSH1 0x0 DUP1 REVERT JUMPDEST PUSH1 0x0 PUSH2 0x59A DUP5 DUP3 DUP6 ADD PUSH2 0x526 JUMP JUMPDEST SWAP2 POP POP SWAP3 SWAP2 POP POP JUMP JUMPDEST PUSH1 0x0 DUP1 PUSH1 0x0 PUSH1 0x60 DUP5 DUP7 SUB SLT ISZERO PUSH2 0x5B8 JUMPI PUSH1 0x0 DUP1 REVERT JUMPDEST PUSH1 0x0 DUP5 ADD CALLDATALOAD PUSH8 0xFFFFFFFFFFFFFFFF DUP2 GT ISZERO PUSH2 0x5D2 JUMPI PUSH1 0x0 DUP1 REVERT JUMPDEST PUSH2 0x5DE DUP7 DUP3 DUP8 ADD PUSH2 0x53B JUMP JUMPDEST SWAP4 POP POP PUSH1 0x20 PUSH2 0x5EF DUP7 DUP3 DUP8 ADD PUSH2 0x526 JUMP JUMPDEST SWAP3 POP POP PUSH1 0x40 PUSH2 0x600 DUP7 DUP3 DUP8 ADD PUSH2 0x565 JUMP JUMPDEST SWAP2 POP POP SWAP3 POP SWAP3 POP SWAP3 JUMP JUMPDEST PUSH2 0x613 DUP2 PUSH2 0x8C6 JUMP JUMPDEST DUP3 MSTORE POP POP JUMP JUMPDEST PUSH2 0x62A PUSH2 0x625 DUP3 PUSH2 0x8C6 JUMP JUMPDEST PUSH2 0x9BE JUMP JUMPDEST DUP3 MSTORE POP POP JUMP JUMPDEST PUSH1 0x0 PUSH2 0x63B DUP3 PUSH2 0x8AA JUMP JUMPDEST PUSH2 0x645 DUP2 DUP6 PUSH2 0x8B5 JUMP JUMPDEST SWAP4 POP PUSH2 0x655 DUP2 DUP6 PUSH1 0x20 DUP7 ADD PUSH2 0x911 JUMP JUMPDEST PUSH2 0x65E DUP2 PUSH2 0xAAA JUMP JUMPDEST DUP5 ADD SWAP2 POP POP SWAP3 SWAP2 POP POP JUMP JUMPDEST PUSH1 0x0 PUSH2 0x676 PUSH1 0x26 DUP4 PUSH2 0x8B5 JUMP JUMPDEST SWAP2 POP PUSH2 0x681 DUP3 PUSH2 0xAC8 JUMP JUMPDEST PUSH1 0x40 DUP3 ADD SWAP1 POP SWAP2 SWAP1 POP JUMP JUMPDEST PUSH1 0x0 PUSH2 0x699 PUSH1 0x20 DUP4 PUSH2 0x8B5 JUMP JUMPDEST SWAP2 POP PUSH2 0x6A4 DUP3 PUSH2 0xB17 JUMP JUMPDEST PUSH1 0x20 DUP3 ADD SWAP1 POP SWAP2 SWAP1 POP JUMP JUMPDEST PUSH1 0x0 PUSH2 0x6BC PUSH1 0x27 DUP4 PUSH2 0x8B5 JUMP JUMPDEST SWAP2 POP PUSH2 0x6C7 DUP3 PUSH2 0xB40 JUMP JUMPDEST PUSH1 0x40 DUP3 ADD SWAP1 POP SWAP2 SWAP1 POP JUMP JUMPDEST PUSH2 0x6DB DUP2 PUSH2 0x8F8 JUMP JUMPDEST DUP3 MSTORE POP POP JUMP JUMPDEST PUSH2 0x6F2 PUSH2 0x6ED DUP3 PUSH2 0x8F8 JUMP JUMPDEST PUSH2 0x9E2 JUMP JUMPDEST DUP3 MSTORE POP POP JUMP JUMPDEST PUSH1 0x0 PUSH2 0x704 DUP3 DUP7 PUSH2 0x6E1 JUMP JUMPDEST PUSH1 0x20 DUP3 ADD SWAP2 POP PUSH2 0x714 DUP3 DUP6 PUSH2 0x619 JUMP JUMPDEST PUSH1 0x14 DUP3 ADD SWAP2 POP PUSH2 0x724 DUP3 DUP5 PUSH2 0x6E1 JUMP JUMPDEST PUSH1 0x20 DUP3 ADD SWAP2 POP DUP2 SWAP1 POP SWAP5 SWAP4 POP POP POP POP JUMP JUMPDEST PUSH1 0x0 PUSH1 0x20 DUP3 ADD SWAP1 POP PUSH2 0x74A PUSH1 0x0 DUP4 ADD DUP5 PUSH2 0x60A JUMP JUMPDEST SWAP3 SWAP2 POP POP JUMP JUMPDEST PUSH1 0x0 PUSH1 0x40 DUP3 ADD SWAP1 POP PUSH2 0x765 PUSH1 0x0 DUP4 ADD DUP6 PUSH2 0x60A JUMP JUMPDEST PUSH2 0x772 PUSH1 0x20 DUP4 ADD DUP5 PUSH2 0x6D2 JUMP JUMPDEST SWAP4 SWAP3 POP POP POP JUMP JUMPDEST PUSH1 0x0 PUSH1 0x40 DUP3 ADD SWAP1 POP DUP2 DUP2 SUB PUSH1 0x0 DUP4 ADD MSTORE PUSH2 0x793 DUP2 DUP6 PUSH2 0x630 JUMP JUMPDEST SWAP1 POP PUSH2 0x7A2 PUSH1 0x20 DUP4 ADD DUP5 PUSH2 0x60A JUMP JUMPDEST SWAP4 SWAP3 POP POP POP JUMP JUMPDEST PUSH1 0x0 PUSH1 0x20 DUP3 ADD SWAP1 POP DUP2 DUP2 SUB PUSH1 0x0 DUP4 ADD MSTORE PUSH2 0x7C2 DUP2 PUSH2 0x669 JUMP JUMPDEST SWAP1 POP SWAP2 SWAP1 POP JUMP JUMPDEST PUSH1 0x0 PUSH1 0x20 DUP3 ADD SWAP1 POP DUP2 DUP2 SUB PUSH1 0x0 DUP4 ADD MSTORE PUSH2 0x7E2 DUP2 PUSH2 0x68C JUMP JUMPDEST SWAP1 POP SWAP2 SWAP1 POP JUMP JUMPDEST PUSH1 0x0 PUSH1 0x20 DUP3 ADD SWAP1 POP DUP2 DUP2 SUB PUSH1 0x0 DUP4 ADD MSTORE PUSH2 0x802 DUP2 PUSH2 0x6AF JUMP JUMPDEST SWAP1 POP SWAP2 SWAP1 POP JUMP JUMPDEST PUSH1 0x0 PUSH1 0x20 DUP3 ADD SWAP1 POP PUSH2 0x81E PUSH1 0x0 DUP4 ADD DUP5 PUSH2 0x6D2 JUMP JUMPDEST SWAP3 SWAP2 POP POP JUMP JUMPDEST PUSH1 0x0 PUSH1 0x40 DUP3 ADD SWAP1 POP PUSH2 0x839 PUSH1 0x0 DUP4 ADD DUP6 PUSH2 0x6D2 JUMP JUMPDEST DUP2 DUP2 SUB PUSH1 0x20 DUP4 ADD MSTORE PUSH2 0x84B DUP2 DUP5 PUSH2 0x630 JUMP JUMPDEST SWAP1 POP SWAP4 SWAP3 POP POP POP JUMP JUMPDEST PUSH1 0x0 PUSH2 0x85E PUSH2 0x86F JUMP JUMPDEST SWAP1 POP PUSH2 0x86A DUP3 DUP3 PUSH2 0x944 JUMP JUMPDEST SWAP2 SWAP1 POP JUMP JUMPDEST PUSH1 0x0 PUSH1 0x40 MLOAD SWAP1 POP SWAP1 JUMP JUMPDEST PUSH1 0x0 PUSH8 0xFFFFFFFFFFFFFFFF DUP3 GT ISZERO PUSH2 0x894 JUMPI PUSH2 0x893 PUSH2 0xA7B JUMP JUMPDEST JUMPDEST PUSH2 0x89D DUP3 PUSH2 0xAAA JUMP JUMPDEST SWAP1 POP PUSH1 0x20 DUP2 ADD SWAP1 POP SWAP2 SWAP1 POP JUMP JUMPDEST PUSH1 0x0 DUP2 MLOAD SWAP1 POP SWAP2 SWAP1 POP JUMP JUMPDEST PUSH1 0x0 DUP3 DUP3 MSTORE PUSH1 0x20 DUP3 ADD SWAP1 POP SWAP3 SWAP2 POP POP JUMP JUMPDEST PUSH1 0x0 PUSH2 0x8D1 DUP3 PUSH2 0x8D8 JUMP JUMPDEST SWAP1 POP SWAP2 SWAP1 POP JUMP JUMPDEST PUSH1 0x0 PUSH20 0xFFFFFFFFFFFFFFFFFFFFFFFFFFFFFFFFFFFFFFFF DUP3 AND SWAP1 POP SWAP2 SWAP1 POP JUMP JUMPDEST PUSH1 0x0 DUP2 SWAP1 POP SWAP2 SWAP1 POP JUMP JUMPDEST DUP3 DUP2 DUP4 CALLDATACOPY PUSH1 0x0 DUP4 DUP4 ADD MSTORE POP POP POP JUMP JUMPDEST PUSH1 0x0 JUMPDEST DUP4 DUP2 LT ISZERO PUSH2 0x92F JUMPI DUP1 DUP3 ADD MLOAD DUP2 DUP5 ADD MSTORE PUSH1 0x20 DUP2 ADD SWAP1 POP PUSH2 0x914 JUMP JUMPDEST DUP4 DUP2 GT ISZERO PUSH2 0x93E JUMPI PUSH1 0x0 DUP5 DUP5 ADD MSTORE JUMPDEST POP POP POP POP JUMP JUMPDEST PUSH2 0x94D DUP3 PUSH2 0xAAA JUMP JUMPDEST DUP2 ADD DUP2 DUP2 LT PUSH8 0xFFFFFFFFFFFFFFFF DUP3 GT OR ISZERO PUSH2 0x96C JUMPI PUSH2 0x96B PUSH2 0xA7B JUMP JUMPDEST JUMPDEST DUP1 PUSH1 0x40 MSTORE POP POP POP JUMP JUMPDEST PUSH1 0x0 PUSH2 0x980 DUP3 PUSH2 0x8F8 JUMP JUMPDEST SWAP2 POP PUSH32 0xFFFFFFFFFFFFFFFFFFFFFFFFFFFFFFFFFFFFFFFFFFFFFFFFFFFFFFFFFFFFFFFF DUP3 EQ ISZERO PUSH2 0x9B3 JUMPI PUSH2 0x9B2 PUSH2 0xA1D JUMP JUMPDEST JUMPDEST PUSH1 0x1 DUP3 ADD SWAP1 POP SWAP2 SWAP1 POP JUMP JUMPDEST PUSH1 0x0 PUSH2 0x9C9 DUP3 PUSH2 0x9D0 JUMP JUMPDEST SWAP1 POP SWAP2 SWAP1 POP JUMP JUMPDEST PUSH1 0x0 PUSH2 0x9DB DUP3 PUSH2 0xABB JUMP JUMPDEST SWAP1 POP SWAP2 SWAP1 POP JUMP JUMPDEST PUSH1 0x0 DUP2 SWAP1 POP SWAP2 SWAP1 POP JUMP JUMPDEST PUSH1 0x0 PUSH2 0x9F7 DUP3 PUSH2 0x8F8 JUMP JUMPDEST SWAP2 POP PUSH2 0xA02 DUP4 PUSH2 0x8F8 JUMP JUMPDEST SWAP3 POP DUP3 PUSH2 0xA12 JUMPI PUSH2 0xA11 PUSH2 0xA4C JUMP JUMPDEST JUMPDEST DUP3 DUP3 MOD SWAP1 POP SWAP3 SWAP2 POP POP JUMP JUMPDEST PUSH32 0x4E487B7100000000000000000000000000000000000000000000000000000000 PUSH1 0x0 MSTORE PUSH1 0x11 PUSH1 0x4 MSTORE PUSH1 0x24 PUSH1 0x0 REVERT JUMPDEST PUSH32 0x4E487B7100000000000000000000000000000000000000000000000000000000 PUSH1 0x0 MSTORE PUSH1 0x12 PUSH1 0x4 MSTORE PUSH1 0x24 PUSH1 0x0 REVERT JUMPDEST PUSH32 0x4E487B7100000000000000000000000000000000000000000000000000000000 PUSH1 0x0 MSTORE PUSH1 0x41 PUSH1 0x4 MSTORE PUSH1 0x24 PUSH1 0x0 REVERT JUMPDEST PUSH1 0x0 PUSH1 0x1F NOT PUSH1 0x1F DUP4 ADD AND SWAP1 POP SWAP2 SWAP1 POP JUMP JUMPDEST PUSH1 0x0 DUP2 PUSH1 0x60 SHL SWAP1 POP SWAP2 SWAP1 POP JUMP JUMPDEST PUSH32 0x4F776E61626C653A206E6577206F776E657220697320746865207A65726F2061 PUSH1 0x0 DUP3 ADD MSTORE PUSH32 0x6464726573730000000000000000000000000000000000000000000000000000 PUSH1 0x20 DUP3 ADD MSTORE POP JUMP JUMPDEST PUSH32 0x4F776E61626C653A2063616C6C6572206973206E6F7420746865206F776E6572 PUSH1 0x0 DUP3 ADD MSTORE POP JUMP JUMPDEST PUSH32 0x546869732072657175657374206973206E6F7420696E206D792070656E64696E PUSH1 0x0 DUP3 ADD MSTORE PUSH32 0x67206C6973742E00000000000000000000000000000000000000000000000000 PUSH1 0x20 DUP3 ADD MSTORE POP JUMP JUMPDEST PUSH2 0xB98 DUP2 PUSH2 0x8C6 JUMP JUMPDEST DUP2 EQ PUSH2 0xBA3 JUMPI PUSH1 0x0 DUP1 REVERT JUMPDEST POP JUMP JUMPDEST PUSH2 0xBAF DUP2 PUSH2 0x8F8 JUMP JUMPDEST DUP2 EQ PUSH2 0xBBA JUMPI PUSH1 0x0 DUP1 REVERT JUMPDEST POP JUMP INVALID LOG2 PUSH5 0x6970667358 0x22 SLT KECCAK256 0x28 PUSH13 0x29F78047A68FFA40041FFB8F20 PUSH29 0xB8B646F4F4178DE42F95010642F8246A64736F6C634300080400330000 "},"methodIdentifiers":{"getLatestData()":"ab757d61","owner()":"8da5cb5b","renounceOwnership()":"715018a6","setLatestData(string,address,uint256)":"ea2c8c5a","transferOwnership(address)":"f2fde38b"}}}}}