{
  "_format": "hh-sol-artifact-1",
  "contractName": "MinterMock",
  "sourceName": "contracts/ERC1400/mocks/MinterRoleMock.sol",
  "abi": [
    {
      "inputs": [],
      "stateMutability": "nonpayable",
      "type": "constructor"
    },
    {
      "anonymous": false,
      "inputs": [
        {
          "indexed": true,
          "internalType": "address",
          "name": "account",
          "type": "address"
        }
      ],
      "name": "MinterAdded",
      "type": "event"
    },
    {
      "anonymous": false,
      "inputs": [
        {
          "indexed": true,
          "internalType": "address",
          "name": "account",
          "type": "address"
        }
      ],
      "name": "MinterRemoved",
      "type": "event"
    },
    {
      "inputs": [
        {
          "internalType": "address",
          "name": "account",
          "type": "address"
        }
      ],
      "name": "addMinter",
      "outputs": [],
      "stateMutability": "nonpayable",
      "type": "function"
    },
    {
      "inputs": [
        {
          "internalType": "address",
          "name": "account",
          "type": "address"
        }
      ],
      "name": "isMinter",
      "outputs": [
        {
          "internalType": "bool",
          "name": "",
          "type": "bool"
        }
      ],
      "stateMutability": "view",
      "type": "function"
    },
    {
      "inputs": [
        {
          "internalType": "address",
          "name": "account",
          "type": "address"
        }
      ],
      "name": "removeMinter",
      "outputs": [],
      "stateMutability": "nonpayable",
      "type": "function"
    },
    {
      "inputs": [],
      "name": "renounceMinter",
      "outputs": [],
      "stateMutability": "nonpayable",
      "type": "function"
    }
  ],
  "bytecode": "0x608060405234801561001057600080fd5b5061001a3361001f565b610184565b61003781600061006e60201b6101001790919060201c565b6040516001600160a01b038216907f6ae172837ea30b801fbfcdd4108aa1d5bf8ff775444fd70256b44e6bf3dfc3f690600090a250565b61007882826100c3565b1561009e5760405162461bcd60e51b81526004016100959061010b565b60405180910390fd5b6001600160a01b0316600090815260209190915260409020805460ff19166001179055565b60006001600160a01b0382166100eb5760405162461bcd60e51b815260040161009590610142565b506001600160a01b03166000908152602091909152604090205460ff1690565b6020808252601f908201527f526f6c65733a206163636f756e7420616c72656164792068617320726f6c6500604082015260600190565b60208082526022908201527f526f6c65733a206163636f756e7420697320746865207a65726f206164647265604082015261737360f01b606082015260800190565b610392806101936000396000f3fe608060405234801561001057600080fd5b506004361061004c5760003560e01c80633092afd514610051578063983b2d56146100665780639865027514610079578063aa271e1a14610081575b600080fd5b61006461005f366004610269565b6100aa565b005b610064610074366004610269565b6100c8565b6100646100e3565b61009461008f366004610269565b6100ee565b6040516100a19190610297565b60405180910390f35b6100b3336100ee565b6100bc57600080fd5b6100c581610155565b50565b6100d1336100ee565b6100da57600080fd5b6100c581610197565b6100ec33610155565b565b60006100fa81836101d9565b92915050565b61010a82826101d9565b156101305760405162461bcd60e51b8152600401610127906102a2565b60405180910390fd5b6001600160a01b0316600090815260209190915260409020805460ff19166001179055565b610160600082610221565b6040516001600160a01b038216907fe94479a9f7e1952cc78f2d6baab678adc1b772d936c6583def489e524cb6669290600090a250565b6101a2600082610100565b6040516001600160a01b038216907f6ae172837ea30b801fbfcdd4108aa1d5bf8ff775444fd70256b44e6bf3dfc3f690600090a250565b60006001600160a01b0382166102015760405162461bcd60e51b81526004016101279061031a565b506001600160a01b03166000908152602091909152604090205460ff1690565b61022b82826101d9565b6102475760405162461bcd60e51b8152600401610127906102d9565b6001600160a01b0316600090815260209190915260409020805460ff19169055565b60006020828403121561027a578081fd5b81356001600160a01b0381168114610290578182fd5b9392505050565b901515815260200190565b6020808252601f908201527f526f6c65733a206163636f756e7420616c72656164792068617320726f6c6500604082015260600190565b60208082526021908201527f526f6c65733a206163636f756e7420646f6573206e6f74206861766520726f6c6040820152606560f81b606082015260800190565b60208082526022908201527f526f6c65733a206163636f756e7420697320746865207a65726f206164647265604082015261737360f01b60608201526080019056fea2646970667358221220c54e5b9716cb46a9b361f244abd117eb3af5f5d5e6e4f5480c8f0aef9461a85964736f6c63430008000033",
  "linkReferences": {},
  "deployedLinkReferences": {}
}