{
  "_format": "hh-sol-artifact-1",
  "contractName": "ERC1820Implementer",
  "sourceName": "contracts/ERC1400/interface/ERC1820Implementer.sol",
  "abi": [
    {
      "inputs": [
        {
          "internalType": "bytes32",
          "name": "interfaceHash",
          "type": "bytes32"
        },
        {
          "internalType": "address",
          "name": "",
          "type": "address"
        }
      ],
      "name": "canImplementInterfaceForAddress",
      "outputs": [
        {
          "internalType": "bytes32",
          "name": "",
          "type": "bytes32"
        }
      ],
      "stateMutability": "view",
      "type": "function"
    }
  ],
  "bytecode": "0x608060405234801561001057600080fd5b50610130806100206000396000f3fe6080604052348015600f57600080fd5b506004361060285760003560e01c8063249cb3fa14602d575b600080fd5b603c60383660046099565b6050565b6040516047919060f1565b60405180910390f35b60008281526020819052604081205460ff1615608f5760405160200160739060d1565b6040516020818303038152906040528051906020012090506093565b5060005b92915050565b6000806040838503121560aa578182fd5b8235915060208301356001600160a01b038116811460c6578182fd5b809150509250929050565b73455243313832305f4143434550545f4d4147494360601b815260140190565b9081526020019056fea26469706673582212209d8ea51b6f187b112cb14f67f3edd4379e7ef915e47011ff3a3d5e0985c13d7e64736f6c63430008000033",
  "linkReferences": {},
  "deployedLinkReferences": {}
}