{
  "_format": "hh-sol-artifact-1",
  "contractName": "ERC1400TokensValidator",
  "sourceName": "contracts/ERC1400/extensions/tokenExtensions/ERC1400TokensValidator.sol",
  "abi": [
    {
      "inputs": [],
      "stateMutability": "nonpayable",
      "type": "constructor"
    },
    {
      "anonymous": false,
      "inputs": [
        {
          "indexed": true,
          "internalType": "address",
          "name": "token",
          "type": "address"
        },
        {
          "indexed": true,
          "internalType": "address",
          "name": "account",
          "type": "address"
        }
      ],
      "name": "AllowlistAdminAdded",
      "type": "event"
    },
    {
      "anonymous": false,
      "inputs": [
        {
          "indexed": true,
          "internalType": "address",
          "name": "token",
          "type": "address"
        },
        {
          "indexed": true,
          "internalType": "address",
          "name": "account",
          "type": "address"
        }
      ],
      "name": "AllowlistAdminRemoved",
      "type": "event"
    },
    {
      "anonymous": false,
      "inputs": [
        {
          "indexed": true,
          "internalType": "address",
          "name": "token",
          "type": "address"
        },
        {
          "indexed": true,
          "internalType": "address",
          "name": "account",
          "type": "address"
        }
      ],
      "name": "AllowlistedAdded",
      "type": "event"
    },
    {
      "anonymous": false,
      "inputs": [
        {
          "indexed": true,
          "internalType": "address",
          "name": "token",
          "type": "address"
        },
        {
          "indexed": true,
          "internalType": "address",
          "name": "account",
          "type": "address"
        }
      ],
      "name": "AllowlistedRemoved",
      "type": "event"
    },
    {
      "anonymous": false,
      "inputs": [
        {
          "indexed": true,
          "internalType": "address",
          "name": "token",
          "type": "address"
        },
        {
          "indexed": true,
          "internalType": "address",
          "name": "account",
          "type": "address"
        }
      ],
      "name": "BlocklistAdminAdded",
      "type": "event"
    },
    {
      "anonymous": false,
      "inputs": [
        {
          "indexed": true,
          "internalType": "address",
          "name": "token",
          "type": "address"
        },
        {
          "indexed": true,
          "internalType": "address",
          "name": "account",
          "type": "address"
        }
      ],
      "name": "BlocklistAdminRemoved",
      "type": "event"
    },
    {
      "anonymous": false,
      "inputs": [
        {
          "indexed": true,
          "internalType": "address",
          "name": "token",
          "type": "address"
        },
        {
          "indexed": true,
          "internalType": "address",
          "name": "account",
          "type": "address"
        }
      ],
      "name": "BlocklistedAdded",
      "type": "event"
    },
    {
      "anonymous": false,
      "inputs": [
        {
          "indexed": true,
          "internalType": "address",
          "name": "token",
          "type": "address"
        },
        {
          "indexed": true,
          "internalType": "address",
          "name": "account",
          "type": "address"
        }
      ],
      "name": "BlocklistedRemoved",
      "type": "event"
    },
    {
      "anonymous": false,
      "inputs": [
        {
          "indexed": true,
          "internalType": "address",
          "name": "token",
          "type": "address"
        },
        {
          "indexed": true,
          "internalType": "address",
          "name": "account",
          "type": "address"
        }
      ],
      "name": "CertificateSignerAdded",
      "type": "event"
    },
    {
      "anonymous": false,
      "inputs": [
        {
          "indexed": true,
          "internalType": "address",
          "name": "token",
          "type": "address"
        },
        {
          "indexed": true,
          "internalType": "address",
          "name": "account",
          "type": "address"
        }
      ],
      "name": "CertificateSignerRemoved",
      "type": "event"
    },
    {
      "anonymous": false,
      "inputs": [
        {
          "indexed": true,
          "internalType": "address",
          "name": "token",
          "type": "address"
        },
        {
          "indexed": true,
          "internalType": "bytes32",
          "name": "holdId",
          "type": "bytes32"
        },
        {
          "indexed": false,
          "internalType": "bytes32",
          "name": "partition",
          "type": "bytes32"
        },
        {
          "indexed": false,
          "internalType": "address",
          "name": "sender",
          "type": "address"
        },
        {
          "indexed": false,
          "internalType": "address",
          "name": "recipient",
          "type": "address"
        },
        {
          "indexed": true,
          "internalType": "address",
          "name": "notary",
          "type": "address"
        },
        {
          "indexed": false,
          "internalType": "uint256",
          "name": "value",
          "type": "uint256"
        },
        {
          "indexed": false,
          "internalType": "uint256",
          "name": "expiration",
          "type": "uint256"
        },
        {
          "indexed": false,
          "internalType": "bytes32",
          "name": "secretHash",
          "type": "bytes32"
        }
      ],
      "name": "HoldCreated",
      "type": "event"
    },
    {
      "anonymous": false,
      "inputs": [
        {
          "indexed": true,
          "internalType": "address",
          "name": "token",
          "type": "address"
        },
        {
          "indexed": false,
          "internalType": "bytes32",
          "name": "holdId",
          "type": "bytes32"
        },
        {
          "indexed": true,
          "internalType": "address",
          "name": "notary",
          "type": "address"
        },
        {
          "indexed": false,
          "internalType": "uint256",
          "name": "heldValue",
          "type": "uint256"
        },
        {
          "indexed": false,
          "internalType": "uint256",
          "name": "transferredValue",
          "type": "uint256"
        },
        {
          "indexed": false,
          "internalType": "bytes32",
          "name": "secret",
          "type": "bytes32"
        }
      ],
      "name": "HoldExecuted",
      "type": "event"
    },
    {
      "anonymous": false,
      "inputs": [
        {
          "indexed": true,
          "internalType": "address",
          "name": "token",
          "type": "address"
        },
        {
          "indexed": false,
          "internalType": "bytes32",
          "name": "holdId",
          "type": "bytes32"
        },
        {
          "indexed": true,
          "internalType": "address",
          "name": "notary",
          "type": "address"
        },
        {
          "indexed": false,
          "internalType": "uint256",
          "name": "heldValue",
          "type": "uint256"
        },
        {
          "indexed": false,
          "internalType": "uint256",
          "name": "transferredValue",
          "type": "uint256"
        },
        {
          "indexed": false,
          "internalType": "bytes32",
          "name": "secret",
          "type": "bytes32"
        }
      ],
      "name": "HoldExecutedAndKeptOpen",
      "type": "event"
    },
    {
      "anonymous": false,
      "inputs": [
        {
          "indexed": true,
          "internalType": "address",
          "name": "token",
          "type": "address"
        },
        {
          "indexed": false,
          "internalType": "bytes32",
          "name": "holdId",
          "type": "bytes32"
        },
        {
          "indexed": true,
          "internalType": "address",
          "name": "notary",
          "type": "address"
        },
        {
          "indexed": false,
          "internalType": "enum HoldStatusCode",
          "name": "status",
          "type": "uint8"
        }
      ],
      "name": "HoldReleased",
      "type": "event"
    },
    {
      "anonymous": false,
      "inputs": [
        {
          "indexed": true,
          "internalType": "address",
          "name": "token",
          "type": "address"
        },
        {
          "indexed": false,
          "internalType": "bytes32",
          "name": "holdId",
          "type": "bytes32"
        },
        {
          "indexed": true,
          "internalType": "address",
          "name": "notary",
          "type": "address"
        },
        {
          "indexed": false,
          "internalType": "uint256",
          "name": "oldExpiration",
          "type": "uint256"
        },
        {
          "indexed": false,
          "internalType": "uint256",
          "name": "newExpiration",
          "type": "uint256"
        }
      ],
      "name": "HoldRenewed",
      "type": "event"
    },
    {
      "anonymous": false,
      "inputs": [
        {
          "indexed": true,
          "internalType": "address",
          "name": "token",
          "type": "address"
        },
        {
          "indexed": false,
          "internalType": "address",
          "name": "account",
          "type": "address"
        }
      ],
      "name": "Paused",
      "type": "event"
    },
    {
      "anonymous": false,
      "inputs": [
        {
          "indexed": true,
          "internalType": "address",
          "name": "token",
          "type": "address"
        },
        {
          "indexed": true,
          "internalType": "address",
          "name": "account",
          "type": "address"
        }
      ],
      "name": "PauserAdded",
      "type": "event"
    },
    {
      "anonymous": false,
      "inputs": [
        {
          "indexed": true,
          "internalType": "address",
          "name": "token",
          "type": "address"
        },
        {
          "indexed": true,
          "internalType": "address",
          "name": "account",
          "type": "address"
        }
      ],
      "name": "PauserRemoved",
      "type": "event"
    },
    {
      "anonymous": false,
      "inputs": [
        {
          "indexed": true,
          "internalType": "address",
          "name": "token",
          "type": "address"
        },
        {
          "indexed": false,
          "internalType": "address",
          "name": "account",
          "type": "address"
        }
      ],
      "name": "Unpaused",
      "type": "event"
    },
    {
      "inputs": [
        {
          "internalType": "address",
          "name": "token",
          "type": "address"
        },
        {
          "internalType": "address",
          "name": "account",
          "type": "address"
        }
      ],
      "name": "addAllowlistAdmin",
      "outputs": [],
      "stateMutability": "nonpayable",
      "type": "function"
    },
    {
      "inputs": [
        {
          "internalType": "address",
          "name": "token",
          "type": "address"
        },
        {
          "internalType": "address",
          "name": "account",
          "type": "address"
        }
      ],
      "name": "addAllowlisted",
      "outputs": [],
      "stateMutability": "nonpayable",
      "type": "function"
    },
    {
      "inputs": [
        {
          "internalType": "address",
          "name": "token",
          "type": "address"
        },
        {
          "internalType": "address",
          "name": "account",
          "type": "address"
        }
      ],
      "name": "addBlocklistAdmin",
      "outputs": [],
      "stateMutability": "nonpayable",
      "type": "function"
    },
    {
      "inputs": [
        {
          "internalType": "address",
          "name": "token",
          "type": "address"
        },
        {
          "internalType": "address",
          "name": "account",
          "type": "address"
        }
      ],
      "name": "addBlocklisted",
      "outputs": [],
      "stateMutability": "nonpayable",
      "type": "function"
    },
    {
      "inputs": [
        {
          "internalType": "address",
          "name": "token",
          "type": "address"
        },
        {
          "internalType": "address",
          "name": "account",
          "type": "address"
        }
      ],
      "name": "addCertificateSigner",
      "outputs": [],
      "stateMutability": "nonpayable",
      "type": "function"
    },
    {
      "inputs": [
        {
          "internalType": "address",
          "name": "token",
          "type": "address"
        },
        {
          "internalType": "address",
          "name": "account",
          "type": "address"
        }
      ],
      "name": "addPauser",
      "outputs": [],
      "stateMutability": "nonpayable",
      "type": "function"
    },
    {
      "inputs": [
        {
          "internalType": "address",
          "name": "token",
          "type": "address"
        },
        {
          "internalType": "address",
          "name": "account",
          "type": "address"
        }
      ],
      "name": "balanceOnHold",
      "outputs": [
        {
          "internalType": "uint256",
          "name": "",
          "type": "uint256"
        }
      ],
      "stateMutability": "view",
      "type": "function"
    },
    {
      "inputs": [
        {
          "internalType": "address",
          "name": "token",
          "type": "address"
        },
        {
          "internalType": "bytes32",
          "name": "partition",
          "type": "bytes32"
        },
        {
          "internalType": "address",
          "name": "account",
          "type": "address"
        }
      ],
      "name": "balanceOnHoldByPartition",
      "outputs": [
        {
          "internalType": "uint256",
          "name": "",
          "type": "uint256"
        }
      ],
      "stateMutability": "view",
      "type": "function"
    },
    {
      "inputs": [
        {
          "internalType": "bytes32",
          "name": "interfaceHash",
          "type": "bytes32"
        },
        {
          "internalType": "address",
          "name": "",
          "type": "address"
        }
      ],
      "name": "canImplementInterfaceForAddress",
      "outputs": [
        {
          "internalType": "bytes32",
          "name": "",
          "type": "bytes32"
        }
      ],
      "stateMutability": "view",
      "type": "function"
    },
    {
      "inputs": [
        {
          "components": [
            {
              "internalType": "address",
              "name": "token",
              "type": "address"
            },
            {
              "internalType": "bytes",
              "name": "payload",
              "type": "bytes"
            },
            {
              "internalType": "bytes32",
              "name": "partition",
              "type": "bytes32"
            },
            {
              "internalType": "address",
              "name": "operator",
              "type": "address"
            },
            {
              "internalType": "address",
              "name": "from",
              "type": "address"
            },
            {
              "internalType": "address",
              "name": "to",
              "type": "address"
            },
            {
              "internalType": "uint256",
              "name": "value",
              "type": "uint256"
            },
            {
              "internalType": "bytes",
              "name": "data",
              "type": "bytes"
            },
            {
              "internalType": "bytes",
              "name": "operatorData",
              "type": "bytes"
            }
          ],
          "internalType": "struct IERC1400TokensValidator.ValidateData",
          "name": "data",
          "type": "tuple"
        }
      ],
      "name": "canValidate",
      "outputs": [
        {
          "internalType": "bool",
          "name": "",
          "type": "bool"
        }
      ],
      "stateMutability": "view",
      "type": "function"
    },
    {
      "inputs": [
        {
          "internalType": "address",
          "name": "token",
          "type": "address"
        },
        {
          "internalType": "bytes32",
          "name": "holdId",
          "type": "bytes32"
        },
        {
          "internalType": "uint256",
          "name": "value",
          "type": "uint256"
        },
        {
          "internalType": "bytes32",
          "name": "secret",
          "type": "bytes32"
        }
      ],
      "name": "executeHold",
      "outputs": [],
      "stateMutability": "nonpayable",
      "type": "function"
    },
    {
      "inputs": [
        {
          "internalType": "address",
          "name": "token",
          "type": "address"
        },
        {
          "internalType": "bytes32",
          "name": "holdId",
          "type": "bytes32"
        },
        {
          "internalType": "uint256",
          "name": "value",
          "type": "uint256"
        },
        {
          "internalType": "bytes32",
          "name": "secret",
          "type": "bytes32"
        }
      ],
      "name": "executeHoldAndKeepOpen",
      "outputs": [],
      "stateMutability": "nonpayable",
      "type": "function"
    },
    {
      "inputs": [
        {
          "internalType": "address",
          "name": "token",
          "type": "address"
        },
        {
          "internalType": "bytes32",
          "name": "partition",
          "type": "bytes32"
        }
      ],
      "name": "granularityByPartition",
      "outputs": [
        {
          "internalType": "uint256",
          "name": "",
          "type": "uint256"
        }
      ],
      "stateMutability": "view",
      "type": "function"
    },
    {
      "inputs": [
        {
          "internalType": "address",
          "name": "token",
          "type": "address"
        },
        {
          "internalType": "bytes32",
          "name": "holdId",
          "type": "bytes32"
        },
        {
          "internalType": "address",
          "name": "recipient",
          "type": "address"
        },
        {
          "internalType": "address",
          "name": "notary",
          "type": "address"
        },
        {
          "internalType": "bytes32",
          "name": "partition",
          "type": "bytes32"
        },
        {
          "internalType": "uint256",
          "name": "value",
          "type": "uint256"
        },
        {
          "internalType": "uint256",
          "name": "timeToExpiration",
          "type": "uint256"
        },
        {
          "internalType": "bytes32",
          "name": "secretHash",
          "type": "bytes32"
        },
        {
          "internalType": "bytes",
          "name": "certificate",
          "type": "bytes"
        }
      ],
      "name": "hold",
      "outputs": [
        {
          "internalType": "bool",
          "name": "",
          "type": "bool"
        }
      ],
      "stateMutability": "nonpayable",
      "type": "function"
    },
    {
      "inputs": [
        {
          "internalType": "address",
          "name": "token",
          "type": "address"
        },
        {
          "internalType": "bytes32",
          "name": "holdId",
          "type": "bytes32"
        },
        {
          "internalType": "address",
          "name": "sender",
          "type": "address"
        },
        {
          "internalType": "address",
          "name": "recipient",
          "type": "address"
        },
        {
          "internalType": "address",
          "name": "notary",
          "type": "address"
        },
        {
          "internalType": "bytes32",
          "name": "partition",
          "type": "bytes32"
        },
        {
          "internalType": "uint256",
          "name": "value",
          "type": "uint256"
        },
        {
          "internalType": "uint256",
          "name": "timeToExpiration",
          "type": "uint256"
        },
        {
          "internalType": "bytes32",
          "name": "secretHash",
          "type": "bytes32"
        },
        {
          "internalType": "bytes",
          "name": "certificate",
          "type": "bytes"
        }
      ],
      "name": "holdFrom",
      "outputs": [
        {
          "internalType": "bool",
          "name": "",
          "type": "bool"
        }
      ],
      "stateMutability": "nonpayable",
      "type": "function"
    },
    {
      "inputs": [
        {
          "internalType": "address",
          "name": "token",
          "type": "address"
        },
        {
          "internalType": "bytes32",
          "name": "holdId",
          "type": "bytes32"
        },
        {
          "internalType": "address",
          "name": "sender",
          "type": "address"
        },
        {
          "internalType": "address",
          "name": "recipient",
          "type": "address"
        },
        {
          "internalType": "address",
          "name": "notary",
          "type": "address"
        },
        {
          "internalType": "bytes32",
          "name": "partition",
          "type": "bytes32"
        },
        {
          "internalType": "uint256",
          "name": "value",
          "type": "uint256"
        },
        {
          "internalType": "uint256",
          "name": "expiration",
          "type": "uint256"
        },
        {
          "internalType": "bytes32",
          "name": "secretHash",
          "type": "bytes32"
        },
        {
          "internalType": "bytes",
          "name": "certificate",
          "type": "bytes"
        }
      ],
      "name": "holdFromWithExpirationDate",
      "outputs": [
        {
          "internalType": "bool",
          "name": "",
          "type": "bool"
        }
      ],
      "stateMutability": "nonpayable",
      "type": "function"
    },
    {
      "inputs": [
        {
          "internalType": "address",
          "name": "token",
          "type": "address"
        },
        {
          "internalType": "bytes32",
          "name": "holdId",
          "type": "bytes32"
        },
        {
          "internalType": "address",
          "name": "recipient",
          "type": "address"
        },
        {
          "internalType": "address",
          "name": "notary",
          "type": "address"
        },
        {
          "internalType": "bytes32",
          "name": "partition",
          "type": "bytes32"
        },
        {
          "internalType": "uint256",
          "name": "value",
          "type": "uint256"
        },
        {
          "internalType": "uint256",
          "name": "expiration",
          "type": "uint256"
        },
        {
          "internalType": "bytes32",
          "name": "secretHash",
          "type": "bytes32"
        },
        {
          "internalType": "bytes",
          "name": "certificate",
          "type": "bytes"
        }
      ],
      "name": "holdWithExpirationDate",
      "outputs": [
        {
          "internalType": "bool",
          "name": "",
          "type": "bool"
        }
      ],
      "stateMutability": "nonpayable",
      "type": "function"
    },
    {
      "inputs": [
        {
          "internalType": "address",
          "name": "token",
          "type": "address"
        },
        {
          "internalType": "address",
          "name": "account",
          "type": "address"
        }
      ],
      "name": "isAllowlistAdmin",
      "outputs": [
        {
          "internalType": "bool",
          "name": "",
          "type": "bool"
        }
      ],
      "stateMutability": "view",
      "type": "function"
    },
    {
      "inputs": [
        {
          "internalType": "address",
          "name": "token",
          "type": "address"
        },
        {
          "internalType": "address",
          "name": "account",
          "type": "address"
        }
      ],
      "name": "isAllowlisted",
      "outputs": [
        {
          "internalType": "bool",
          "name": "",
          "type": "bool"
        }
      ],
      "stateMutability": "view",
      "type": "function"
    },
    {
      "inputs": [
        {
          "internalType": "address",
          "name": "token",
          "type": "address"
        },
        {
          "internalType": "address",
          "name": "account",
          "type": "address"
        }
      ],
      "name": "isBlocklistAdmin",
      "outputs": [
        {
          "internalType": "bool",
          "name": "",
          "type": "bool"
        }
      ],
      "stateMutability": "view",
      "type": "function"
    },
    {
      "inputs": [
        {
          "internalType": "address",
          "name": "token",
          "type": "address"
        },
        {
          "internalType": "address",
          "name": "account",
          "type": "address"
        }
      ],
      "name": "isBlocklisted",
      "outputs": [
        {
          "internalType": "bool",
          "name": "",
          "type": "bool"
        }
      ],
      "stateMutability": "view",
      "type": "function"
    },
    {
      "inputs": [
        {
          "internalType": "address",
          "name": "token",
          "type": "address"
        },
        {
          "internalType": "address",
          "name": "account",
          "type": "address"
        }
      ],
      "name": "isCertificateSigner",
      "outputs": [
        {
          "internalType": "bool",
          "name": "",
          "type": "bool"
        }
      ],
      "stateMutability": "view",
      "type": "function"
    },
    {
      "inputs": [
        {
          "internalType": "address",
          "name": "token",
          "type": "address"
        },
        {
          "internalType": "address",
          "name": "account",
          "type": "address"
        }
      ],
      "name": "isPauser",
      "outputs": [
        {
          "internalType": "bool",
          "name": "",
          "type": "bool"
        }
      ],
      "stateMutability": "view",
      "type": "function"
    },
    {
      "inputs": [
        {
          "internalType": "address",
          "name": "token",
          "type": "address"
        }
      ],
      "name": "pause",
      "outputs": [],
      "stateMutability": "nonpayable",
      "type": "function"
    },
    {
      "inputs": [
        {
          "internalType": "address",
          "name": "token",
          "type": "address"
        }
      ],
      "name": "paused",
      "outputs": [
        {
          "internalType": "bool",
          "name": "",
          "type": "bool"
        }
      ],
      "stateMutability": "view",
      "type": "function"
    },
    {
      "inputs": [
        {
          "internalType": "address",
          "name": "token",
          "type": "address"
        },
        {
          "internalType": "bytes32",
          "name": "holdId",
          "type": "bytes32"
        },
        {
          "internalType": "address",
          "name": "recipient",
          "type": "address"
        },
        {
          "internalType": "address",
          "name": "notary",
          "type": "address"
        },
        {
          "internalType": "bytes32",
          "name": "partition",
          "type": "bytes32"
        },
        {
          "internalType": "uint256",
          "name": "value",
          "type": "uint256"
        },
        {
          "internalType": "uint256",
          "name": "timeToExpiration",
          "type": "uint256"
        },
        {
          "internalType": "bytes32",
          "name": "secretHash",
          "type": "bytes32"
        },
        {
          "internalType": "bytes",
          "name": "certificate",
          "type": "bytes"
        }
      ],
      "name": "preHoldFor",
      "outputs": [
        {
          "internalType": "bool",
          "name": "",
          "type": "bool"
        }
      ],
      "stateMutability": "nonpayable",
      "type": "function"
    },
    {
      "inputs": [
        {
          "internalType": "address",
          "name": "token",
          "type": "address"
        },
        {
          "internalType": "bytes32",
          "name": "holdId",
          "type": "bytes32"
        },
        {
          "internalType": "address",
          "name": "recipient",
          "type": "address"
        },
        {
          "internalType": "address",
          "name": "notary",
          "type": "address"
        },
        {
          "internalType": "bytes32",
          "name": "partition",
          "type": "bytes32"
        },
        {
          "internalType": "uint256",
          "name": "value",
          "type": "uint256"
        },
        {
          "internalType": "uint256",
          "name": "expiration",
          "type": "uint256"
        },
        {
          "internalType": "bytes32",
          "name": "secretHash",
          "type": "bytes32"
        },
        {
          "internalType": "bytes",
          "name": "certificate",
          "type": "bytes"
        }
      ],
      "name": "preHoldForWithExpirationDate",
      "outputs": [
        {
          "internalType": "bool",
          "name": "",
          "type": "bool"
        }
      ],
      "stateMutability": "nonpayable",
      "type": "function"
    },
    {
      "inputs": [
        {
          "internalType": "address",
          "name": "token",
          "type": "address"
        },
        {
          "internalType": "enum ERC1400TokensValidator.CertificateValidation",
          "name": "certificateActivated",
          "type": "uint8"
        },
        {
          "internalType": "bool",
          "name": "allowlistActivated",
          "type": "bool"
        },
        {
          "internalType": "bool",
          "name": "blocklistActivated",
          "type": "bool"
        },
        {
          "internalType": "bool",
          "name": "granularityByPartitionActivated",
          "type": "bool"
        },
        {
          "internalType": "bool",
          "name": "holdsActivated",
          "type": "bool"
        },
        {
          "internalType": "address[]",
          "name": "operators",
          "type": "address[]"
        }
      ],
      "name": "registerTokenSetup",
      "outputs": [],
      "stateMutability": "nonpayable",
      "type": "function"
    },
    {
      "inputs": [
        {
          "internalType": "address",
          "name": "token",
          "type": "address"
        },
        {
          "internalType": "bytes32",
          "name": "holdId",
          "type": "bytes32"
        }
      ],
      "name": "releaseHold",
      "outputs": [
        {
          "internalType": "bool",
          "name": "",
          "type": "bool"
        }
      ],
      "stateMutability": "nonpayable",
      "type": "function"
    },
    {
      "inputs": [
        {
          "internalType": "address",
          "name": "token",
          "type": "address"
        },
        {
          "internalType": "address",
          "name": "account",
          "type": "address"
        }
      ],
      "name": "removeAllowlistAdmin",
      "outputs": [],
      "stateMutability": "nonpayable",
      "type": "function"
    },
    {
      "inputs": [
        {
          "internalType": "address",
          "name": "token",
          "type": "address"
        },
        {
          "internalType": "address",
          "name": "account",
          "type": "address"
        }
      ],
      "name": "removeAllowlisted",
      "outputs": [],
      "stateMutability": "nonpayable",
      "type": "function"
    },
    {
      "inputs": [
        {
          "internalType": "address",
          "name": "token",
          "type": "address"
        },
        {
          "internalType": "address",
          "name": "account",
          "type": "address"
        }
      ],
      "name": "removeBlocklistAdmin",
      "outputs": [],
      "stateMutability": "nonpayable",
      "type": "function"
    },
    {
      "inputs": [
        {
          "internalType": "address",
          "name": "token",
          "type": "address"
        },
        {
          "internalType": "address",
          "name": "account",
          "type": "address"
        }
      ],
      "name": "removeBlocklisted",
      "outputs": [],
      "stateMutability": "nonpayable",
      "type": "function"
    },
    {
      "inputs": [
        {
          "internalType": "address",
          "name": "token",
          "type": "address"
        },
        {
          "internalType": "address",
          "name": "account",
          "type": "address"
        }
      ],
      "name": "removeCertificateSigner",
      "outputs": [],
      "stateMutability": "nonpayable",
      "type": "function"
    },
    {
      "inputs": [
        {
          "internalType": "address",
          "name": "token",
          "type": "address"
        },
        {
          "internalType": "address",
          "name": "account",
          "type": "address"
        }
      ],
      "name": "removePauser",
      "outputs": [],
      "stateMutability": "nonpayable",
      "type": "function"
    },
    {
      "inputs": [
        {
          "internalType": "address",
          "name": "token",
          "type": "address"
        },
        {
          "internalType": "bytes32",
          "name": "holdId",
          "type": "bytes32"
        },
        {
          "internalType": "uint256",
          "name": "timeToExpiration",
          "type": "uint256"
        },
        {
          "internalType": "bytes",
          "name": "certificate",
          "type": "bytes"
        }
      ],
      "name": "renewHold",
      "outputs": [
        {
          "internalType": "bool",
          "name": "",
          "type": "bool"
        }
      ],
      "stateMutability": "nonpayable",
      "type": "function"
    },
    {
      "inputs": [
        {
          "internalType": "address",
          "name": "token",
          "type": "address"
        },
        {
          "internalType": "bytes32",
          "name": "holdId",
          "type": "bytes32"
        },
        {
          "internalType": "uint256",
          "name": "expiration",
          "type": "uint256"
        },
        {
          "internalType": "bytes",
          "name": "certificate",
          "type": "bytes"
        }
      ],
      "name": "renewHoldWithExpirationDate",
      "outputs": [
        {
          "internalType": "bool",
          "name": "",
          "type": "bool"
        }
      ],
      "stateMutability": "nonpayable",
      "type": "function"
    },
    {
      "inputs": [
        {
          "internalType": "address",
          "name": "token",
          "type": "address"
        }
      ],
      "name": "renounceAllowlistAdmin",
      "outputs": [],
      "stateMutability": "nonpayable",
      "type": "function"
    },
    {
      "inputs": [
        {
          "internalType": "address",
          "name": "token",
          "type": "address"
        }
      ],
      "name": "renounceBlocklistAdmin",
      "outputs": [],
      "stateMutability": "nonpayable",
      "type": "function"
    },
    {
      "inputs": [
        {
          "internalType": "address",
          "name": "token",
          "type": "address"
        }
      ],
      "name": "renounceCertificateSigner",
      "outputs": [],
      "stateMutability": "nonpayable",
      "type": "function"
    },
    {
      "inputs": [
        {
          "internalType": "address",
          "name": "token",
          "type": "address"
        }
      ],
      "name": "renouncePauser",
      "outputs": [],
      "stateMutability": "nonpayable",
      "type": "function"
    },
    {
      "inputs": [
        {
          "internalType": "address",
          "name": "token",
          "type": "address"
        },
        {
          "internalType": "bytes32",
          "name": "holdId",
          "type": "bytes32"
        }
      ],
      "name": "retrieveHoldData",
      "outputs": [
        {
          "internalType": "bytes32",
          "name": "partition",
          "type": "bytes32"
        },
        {
          "internalType": "address",
          "name": "sender",
          "type": "address"
        },
        {
          "internalType": "address",
          "name": "recipient",
          "type": "address"
        },
        {
          "internalType": "address",
          "name": "notary",
          "type": "address"
        },
        {
          "internalType": "uint256",
          "name": "value",
          "type": "uint256"
        },
        {
          "internalType": "uint256",
          "name": "expiration",
          "type": "uint256"
        },
        {
          "internalType": "bytes32",
          "name": "secretHash",
          "type": "bytes32"
        },
        {
          "internalType": "bytes32",
          "name": "secret",
          "type": "bytes32"
        },
        {
          "internalType": "enum HoldStatusCode",
          "name": "status",
          "type": "uint8"
        }
      ],
      "stateMutability": "view",
      "type": "function"
    },
    {
      "inputs": [
        {
          "internalType": "address",
          "name": "token",
          "type": "address"
        }
      ],
      "name": "retrieveTokenSetup",
      "outputs": [
        {
          "internalType": "enum ERC1400TokensValidator.CertificateValidation",
          "name": "",
          "type": "uint8"
        },
        {
          "internalType": "bool",
          "name": "",
          "type": "bool"
        },
        {
          "internalType": "bool",
          "name": "",
          "type": "bool"
        },
        {
          "internalType": "bool",
          "name": "",
          "type": "bool"
        },
        {
          "internalType": "bool",
          "name": "",
          "type": "bool"
        },
        {
          "internalType": "address[]",
          "name": "",
          "type": "address[]"
        }
      ],
      "stateMutability": "view",
      "type": "function"
    },
    {
      "inputs": [
        {
          "internalType": "address",
          "name": "token",
          "type": "address"
        },
        {
          "internalType": "bytes32",
          "name": "partition",
          "type": "bytes32"
        },
        {
          "internalType": "uint256",
          "name": "granularity",
          "type": "uint256"
        }
      ],
      "name": "setGranularityByPartition",
      "outputs": [],
      "stateMutability": "nonpayable",
      "type": "function"
    },
    {
      "inputs": [
        {
          "internalType": "address",
          "name": "token",
          "type": "address"
        },
        {
          "internalType": "address",
          "name": "account",
          "type": "address"
        }
      ],
      "name": "spendableBalanceOf",
      "outputs": [
        {
          "internalType": "uint256",
          "name": "",
          "type": "uint256"
        }
      ],
      "stateMutability": "view",
      "type": "function"
    },
    {
      "inputs": [
        {
          "internalType": "address",
          "name": "token",
          "type": "address"
        },
        {
          "internalType": "bytes32",
          "name": "partition",
          "type": "bytes32"
        },
        {
          "internalType": "address",
          "name": "account",
          "type": "address"
        }
      ],
      "name": "spendableBalanceOfByPartition",
      "outputs": [
        {
          "internalType": "uint256",
          "name": "",
          "type": "uint256"
        }
      ],
      "stateMutability": "view",
      "type": "function"
    },
    {
      "inputs": [
        {
          "internalType": "bytes",
          "name": "payload",
          "type": "bytes"
        },
        {
          "internalType": "bytes32",
          "name": "partition",
          "type": "bytes32"
        },
        {
          "internalType": "address",
          "name": "operator",
          "type": "address"
        },
        {
          "internalType": "address",
          "name": "from",
          "type": "address"
        },
        {
          "internalType": "address",
          "name": "to",
          "type": "address"
        },
        {
          "internalType": "uint256",
          "name": "value",
          "type": "uint256"
        },
        {
          "internalType": "bytes",
          "name": "data",
          "type": "bytes"
        },
        {
          "internalType": "bytes",
          "name": "operatorData",
          "type": "bytes"
        }
      ],
      "name": "tokensToValidate",
      "outputs": [],
      "stateMutability": "nonpayable",
      "type": "function"
    },
    {
      "inputs": [
        {
          "internalType": "address",
          "name": "token",
          "type": "address"
        }
      ],
      "name": "totalSupplyOnHold",
      "outputs": [
        {
          "internalType": "uint256",
          "name": "",
          "type": "uint256"
        }
      ],
      "stateMutability": "view",
      "type": "function"
    },
    {
      "inputs": [
        {
          "internalType": "address",
          "name": "token",
          "type": "address"
        },
        {
          "internalType": "bytes32",
          "name": "partition",
          "type": "bytes32"
        }
      ],
      "name": "totalSupplyOnHoldByPartition",
      "outputs": [
        {
          "internalType": "uint256",
          "name": "",
          "type": "uint256"
        }
      ],
      "stateMutability": "view",
      "type": "function"
    },
    {
      "inputs": [
        {
          "internalType": "address",
          "name": "token",
          "type": "address"
        }
      ],
      "name": "unpause",
      "outputs": [],
      "stateMutability": "nonpayable",
      "type": "function"
    },
    {
      "inputs": [
        {
          "internalType": "address",
          "name": "token",
          "type": "address"
        },
        {
          "internalType": "address",
          "name": "sender",
          "type": "address"
        }
      ],
      "name": "usedCertificateNonce",
      "outputs": [
        {
          "internalType": "uint256",
          "name": "",
          "type": "uint256"
        }
      ],
      "stateMutability": "view",
      "type": "function"
    },
    {
      "inputs": [
        {
          "internalType": "address",
          "name": "token",
          "type": "address"
        },
        {
          "internalType": "bytes32",
          "name": "salt",
          "type": "bytes32"
        }
      ],
      "name": "usedCertificateSalt",
      "outputs": [
        {
          "internalType": "bool",
          "name": "",
          "type": "bool"
        }
      ],
      "stateMutability": "view",
      "type": "function"
    }
  ],
  "bytecode": "0x60806040523480156200001157600080fd5b506200005d6040518060400160405280601681526020017f45524331343030546f6b656e7356616c696461746f72000000000000000000008152506200006360201b6200235b1760201c565b620000ef565b600160076000836040516020016200007c9190620000b3565b60408051808303601f19018152918152815160209283012083529082019290925201600020805460ff191691151591909117905550565b60008251815b81811015620000d55760208186018101518583015201620000b9565b81811115620000e45782828501525b509190910192915050565b61588380620000ff6000396000f3fe608060405234801561001057600080fd5b506004361061030c5760003560e01c80636eb6ad8f1161019d578063b090bee7116100e9578063e323e671116100a2578063eb5314bd1161007c578063eb5314bd146106ed578063ebf42f7714610700578063ed2f909514610713578063fa061ca0146107265761030c565b8063e323e671146106b4578063e34a11ec146106c7578063e81ea541146106da5761030c565b8063b090bee714610642578063c1c60fe214610655578063c428b20214610668578063c69664bb1461067b578063d47ac02a1461068e578063dfe15da0146106a15761030c565b806398a53ef511610156578063a28e7c0211610130578063a28e7c02146105e4578063a4aa023f146105f7578063a54cdf6a1461060a578063accf61751461061d5761030c565b806398a53ef5146105ab5780639bd483ec146105be5780639e59ceba146105d15761030c565b80636eb6ad8f14610539578063732c916b1461054c57806373e7b1601461055f57806376a67a511461057257806389d3a639146105855780639672d64b146105985761030c565b806341eb24bb1161025c57806354c6f08c1161021557806361aed064116101ef57806361aed064146104ed57806361c2e2811461050057806362e93ffa14610513578063685e2519146105265761030c565b806354c6f08c146104b457806357b001f9146104c75780635b4b2fd3146104da5761030c565b806341eb24bb146104425780634261699f1461045557806342be578714610468578063450999a01461047b578063520faa761461048e578063530b8edd146104a15761030c565b8063249cb3fa116102c95780632c55b05f116102a35780632c55b05f146103f65780632e48152c146104095780632fd333981461041c5780633bddaf8f1461042f5761030c565b8063249cb3fa146103bd5780632744cc27146103d0578063279f00dd146103e35761030c565b80630d21cdd814610311578063118fa5db1461032657806312da4de6146103395780631529371f1461036a5780631db9c1801461038a5780632174e4351461039d575b600080fd5b61032461031f3660046147f7565b610739565b005b610324610334366004614b19565b610746565b61034c610347366004614867565b61091d565b60405161036199989796959493929190614ea6565b60405180910390f35b61037d6103783660046147f7565b610986565b6040516103619190614e1d565b61037d61039836600461482f565b6109a5565b6103b06103ab3660046148d3565b6109d2565b6040516103619190614e84565b61037d6103cb366004614c2f565b610a5a565b61037d6103de36600461482f565b610aa5565b6103b06103f1366004614995565b610ad0565b61032461040436600461482f565b610af7565b6103b06104173660046147f7565b610bf9565b6103b061042a36600461482f565b610c17565b61032461043d3660046147f7565b610c40565b6103246104503660046147f7565b610c4a565b61032461046336600461482f565b610c54565b6103b061047636600461482f565b610d51565b61037d610489366004614867565b610d73565b61032461049c366004614c53565b610d9b565b6103b06104af366004614995565b610fbd565b6103246104c2366004614a77565b611011565b6103246104d53660046147f7565b611026565b61037d6104e836600461482f565b61119d565b6103b06104fb366004614867565b6111a9565b6103b061050e36600461482f565b6111d4565b610324610521366004614a43565b6111f6565b61032461053436600461482f565b611300565b610324610547366004614a77565b6113fd565b61037d61055a366004614892565b61140c565b6103b061056d366004614995565b611421565b6103246105803660046147f7565b611436565b6103b0610593366004614995565b6115a6565b6103b06105a63660046148d3565b6115f9565b6103b06105b9366004614d32565b611672565b6103246105cc36600461482f565b61182e565b6103b06105df36600461482f565b61192b565b6103b06105f236600461482f565b61194d565b6103b061060536600461482f565b61196f565b61037d610618366004614867565b611991565b61063061062b3660046147f7565b6119b9565b60405161036196959493929190614fff565b6103b0610650366004614ab1565b611a87565b6103b0610663366004614867565b611ade565b61032461067636600461482f565b611aea565b61032461068936600461482f565b611be7565b6103b061069c366004614ab1565b611ce4565b6103246106af36600461482f565b611d30565b6103246106c23660046147f7565b611e2d565b61037d6106d5366004614892565b611e37565b6103246106e836600461482f565b611e6a565b6103246106fb36600461482f565b611f67565b61032461070e36600461482f565b612064565b61032461072136600461482f565b612161565b61032461073436600461482f565b61225e565b61074381336123a9565b50565b87336001600160a01b03821614806107df5750806001600160a01b0316638da5cb5b6040518163ffffffff1660e01b815260040160206040518083038186803b15801561079257600080fd5b505afa1580156107a6573d6000803e3d6000fd5b505050506040513d601f19601f820116820180604052508101906107ca9190614813565b6001600160a01b0316336001600160a01b0316145b8061080d57506001600160a01b038116600090815260096020908152604080832033845290915290205460ff165b6108325760405162461bcd60e51b81526004016108299061550a565b60405180910390fd5b6001600160a01b0389166000908152600c60205260409020805489919060ff1916600183600281111561087557634e487b7160e01b600052602160045260246000fd5b02179055506001600160a01b0389166000908152600a60209081526040808320805460ff199081168c151517909155600b8352818420805482168b1515179055600f8352818420805482168a1515179055601083529281902080549093168715151790925581518482028082018301909352848152610912928c928791879182919085019084908082843760009201919091525061240f92505050565b505050505050505050565b6001600160a01b039182166000908152601260209081526040808320938352929052208054600182015460028301546003840154600485015460058601546006870154600788015460089098015496999589169894851697939094169591949093929160ff1690565b6001600160a01b0381166000908152601660205260409020545b919050565b6001600160a01b038083166000908152601360209081526040808320938516835292905220545b92915050565b60006001600160a01b038a166109fa5760405162461bcd60e51b81526004016108299061523b565b610a4a8c8c8c8c8c8c8c610a0d8d612576565b8c8c8c8080601f01602080910402602001604051908101604052809392919081815260200183838082843760009201919091525061258992505050565b9c9b505050505050505050505050565b60008281526007602052604081205460ff1615610a9d57604051602001610a8090614e50565b6040516020818303038152906040528051906020012090506109cc565b5060006109cc565b6001600160a01b039182166000908152600d6020908152604080832093909416825291909152205490565b6000610ae68b8b60008c8c8c8c610a0d8d612576565b90505b9a9950505050505050505050565b81336001600160a01b0382161480610b905750806001600160a01b0316638da5cb5b6040518163ffffffff1660e01b815260040160206040518083038186803b158015610b4357600080fd5b505afa158015610b57573d6000803e3d6000fd5b505050506040513d601f19601f82011682018060405250810190610b7b9190614813565b6001600160a01b0316336001600160a01b0316145b80610bbe57506001600160a01b038116600090815260096020908152604080832033845290915290205460ff165b80610bce5750610bce813361194d565b610bea5760405162461bcd60e51b815260040161082990615281565b610bf483836127c0565b505050565b6001600160a01b031660009081526001602052604090205460ff1690565b6001600160a01b0382166000908152602081905260408120610c399083612826565b9392505050565b610743813361286e565b61074381336128d4565b81336001600160a01b0382161480610ced5750806001600160a01b0316638da5cb5b6040518163ffffffff1660e01b815260040160206040518083038186803b158015610ca057600080fd5b505afa158015610cb4573d6000803e3d6000fd5b505050506040513d601f19601f82011682018060405250810190610cd89190614813565b6001600160a01b0316336001600160a01b0316145b80610d1b57506001600160a01b038116600090815260096020908152604080832033845290915290205460ff165b80610d2b5750610d2b8133610d51565b610d475760405162461bcd60e51b81526004016108299061543d565b610bf4838361293a565b6001600160a01b0382166000908152600360205260408120610c399083612826565b6001600160a01b03919091166000908152601560209081526040808320938352929052205490565b6000806000610e3a338f8f8080601f016020809104026020016040519081016040528093929190818152602001838380828437600081840152601f19601f820116905080830192505050505050508d8888905060001415610dfd578a8a610e00565b88885b8080601f0160208091040260200160405190810160405280939291908181526020018383808284376000920191909152506129a092505050565b92509250925082610e5d5760405162461bcd60e51b815260040161082990615089565b610e6933838d84612ae2565b505050610eb0338c8c8080601f0160208091040260200160405190810160405280939291908181526020018383808284376000920191909152508c92508b9150612ba99050565b610ecc5760405162461bcd60e51b815260040161082990615089565b610ed533610bf9565b15610ef25760405162461bcd60e51b815260040161082990615089565b610efd338a87612cf6565b610f195760405162461bcd60e51b81526004016108299061521f565b610f27338a8a8a8a8a612d8b565b610f435760405162461bcd60e51b815260040161082990615321565b6000610f53338b8b8b8b8b612edf565b3360009081526010602052604090205490925060ff1690508015610f7657508015155b15610faf57336000818152601260209081526040808320858452909152812060048101549092610fad929091849186918c91612f34565b505b505050505050505050505050565b6000610fc885612fbe565b610ae68b8b60008c8c8c8c8c8c8c8c8080601f01602080910402602001604051908101604052809392919081815260200183838082843760009201919091525061258992505050565b61102084843385856000612fe6565b50505050565b80336001600160a01b03821614806110bf5750806001600160a01b0316638da5cb5b6040518163ffffffff1660e01b815260040160206040518083038186803b15801561107257600080fd5b505afa158015611086573d6000803e3d6000fd5b505050506040513d601f19601f820116820180604052508101906110aa9190614813565b6001600160a01b0316336001600160a01b0316145b806110ed57506001600160a01b038116600090815260096020908152604080832033845290915290205460ff165b806110fd57506110fd8133610c17565b6111195760405162461bcd60e51b815260040161082990615146565b6001600160a01b038216600090815260016020526040902054829060ff1661114057600080fd5b6001600160a01b03831660008181526001602052604090819020805460ff19169055517f3d072963433794eb417a69355df67d08bbd73d5076ef653d6863861161d60af390611190903390614e70565b60405180910390a2505050565b6000610c3983836131d2565b6001600160a01b03919091166000908152600e60209081526040808320938352929052205460ff1690565b6001600160a01b0382166000908152600460205260408120610c399083612826565b82336001600160a01b038216148061128f5750806001600160a01b0316638da5cb5b6040518163ffffffff1660e01b815260040160206040518083038186803b15801561124257600080fd5b505afa158015611256573d6000803e3d6000fd5b505050506040513d601f19601f8201168201806040525081019061127a9190614813565b6001600160a01b0316336001600160a01b0316145b806112bd57506001600160a01b038116600090815260096020908152604080832033845290915290205460ff165b6112d95760405162461bcd60e51b81526004016108299061550a565b506001600160a01b0390921660009081526011602090815260408083209383529290522055565b81336001600160a01b03821614806113995750806001600160a01b0316638da5cb5b6040518163ffffffff1660e01b815260040160206040518083038186803b15801561134c57600080fd5b505afa158015611360573d6000803e3d6000fd5b505050506040513d601f19601f820116820180604052508101906113849190614813565b6001600160a01b0316336001600160a01b0316145b806113c757506001600160a01b038116600090815260096020908152604080832033845290915290205460ff165b806113d757506113d78133610d51565b6113f35760405162461bcd60e51b81526004016108299061543d565b610bf48383613278565b61102084843385856001612fe6565b60006114198484846132de565b949350505050565b6000610ae68b8b338c8c8c8c610a0d8d612576565b80336001600160a01b03821614806114cf5750806001600160a01b0316638da5cb5b6040518163ffffffff1660e01b815260040160206040518083038186803b15801561148257600080fd5b505afa158015611496573d6000803e3d6000fd5b505050506040513d601f19601f820116820180604052508101906114ba9190614813565b6001600160a01b0316336001600160a01b0316145b806114fd57506001600160a01b038116600090815260096020908152604080832033845290915290205460ff165b8061150d575061150d8133610c17565b6115295760405162461bcd60e51b815260040161082990615146565b6001600160a01b038216600090815260016020526040902054829060ff161561155157600080fd5b6001600160a01b038316600081815260016020819052604091829020805460ff19169091179055517f3dd4f37ca5eaf6c357698a52c806820426d7c9a26adb0991c3bebb09cf23352a90611190903390614e70565b60006115b185612fbe565b610ae68b8b338c8c8c8c8c8c8c8c8080601f01602080910402602001604051908101604052809392919081815260200183838082843760009201919091525061258992505050565b600061160485612fbe565b6001600160a01b038a1661162a5760405162461bcd60e51b81526004016108299061523b565b610a4a8c8c8c8c8c8c8c8c8c8c8c8080601f01602080910402602001604051908101604052809392919081815260200183838082843760009201919091525061258992505050565b60008061170d61168560208501856147f7565b61169260208601866156df565b8080601f0160208091040260200160405190810160405280939291908181526020018383808284376000920191909152506116d79250505060808701606088016147f7565b6116e56101008801886156df565b151590506116ff576116fa60e08801886156df565b610e00565b610e006101008801886156df565b50509050808015611790575061179061172960208501856147f7565b61173660208601866156df565b8080601f01602080910402602001604051908101604052809392919081815260200183838082843760009201919091525061177b9250505060a08701608088016147f7565b61178b60c0880160a089016147f7565b612ba9565b90508080156117ac57506117aa61041760208501856147f7565b155b90508080156117d557506117d56117c660208501856147f7565b84604001358560c00135612cf6565b9050808015610c395750610c396117ef60208501856147f7565b604085013561180460808701606088016147f7565b61181460a08801608089016147f7565b61182460c0890160a08a016147f7565b8860c00135612d8b565b81336001600160a01b03821614806118c75750806001600160a01b0316638da5cb5b6040518163ffffffff1660e01b815260040160206040518083038186803b15801561187a57600080fd5b505afa15801561188e573d6000803e3d6000fd5b505050506040513d601f19601f820116820180604052508101906118b29190614813565b6001600160a01b0316336001600160a01b0316145b806118f557506001600160a01b038116600090815260096020908152604080832033845290915290205460ff165b806119055750611905813361194d565b6119215760405162461bcd60e51b815260040161082990615281565b610bf4838361338e565b6001600160a01b0382166000908152600260205260408120610c399083612826565b6001600160a01b0382166000908152600560205260408120610c399083612826565b6001600160a01b0382166000908152600660205260408120610c399083612826565b6001600160a01b03919091166000908152601160209081526040808320938352929052205490565b6001600160a01b0381166000908152600c6020908152604080832054600a835281842054600b845282852054600f85528386205460108652848720546008875285882080548751818a0281018a01909852808852899889988998899860609860ff928316989183169790831696918316959216939092918391830182828015611a6b57602002820191906000526020600020905b81546001600160a01b03168152600190910190602001808311611a4d575b5050505050905095509550955095509550955091939550919395565b6000611a9284612fbe565b611ad486868686868080601f0160208091040260200160405190810160405280939291908181526020018383808284376000920191909152506133f492505050565b9695505050505050565b6000610c398383613557565b81336001600160a01b0382161480611b835750806001600160a01b0316638da5cb5b6040518163ffffffff1660e01b815260040160206040518083038186803b158015611b3657600080fd5b505afa158015611b4a573d6000803e3d6000fd5b505050506040513d601f19601f82011682018060405250810190611b6e9190614813565b6001600160a01b0316336001600160a01b0316145b80611bb157506001600160a01b038116600090815260096020908152604080832033845290915290205460ff165b80611bc15750611bc1813361194d565b611bdd5760405162461bcd60e51b815260040161082990615281565b610bf4838361377f565b81336001600160a01b0382161480611c805750806001600160a01b0316638da5cb5b6040518163ffffffff1660e01b815260040160206040518083038186803b158015611c3357600080fd5b505afa158015611c47573d6000803e3d6000fd5b505050506040513d601f19601f82011682018060405250810190611c6b9190614813565b6001600160a01b0316336001600160a01b0316145b80611cae57506001600160a01b038116600090815260096020908152604080832033845290915290205460ff165b80611cbe5750611cbe813361192b565b611cda5760405162461bcd60e51b8152600401610829906153fb565b610bf483836137e5565b6000611ad48686611cf487612576565b86868080601f0160208091040260200160405190810160405280939291908181526020018383808284376000920191909152506133f492505050565b81336001600160a01b0382161480611dc95750806001600160a01b0316638da5cb5b6040518163ffffffff1660e01b815260040160206040518083038186803b158015611d7c57600080fd5b505afa158015611d90573d6000803e3d6000fd5b505050506040513d601f19601f82011682018060405250810190611db49190614813565b6001600160a01b0316336001600160a01b0316145b80611df757506001600160a01b038116600090815260096020908152604080832033845290915290205460ff165b80611e075750611e078133610d51565b611e235760405162461bcd60e51b81526004016108299061543d565b610bf483836123a9565b610743813361384b565b6001600160a01b039283166000908152601460209081526040808320939095168252918252838120928152919052205490565b81336001600160a01b0382161480611f035750806001600160a01b0316638da5cb5b6040518163ffffffff1660e01b815260040160206040518083038186803b158015611eb657600080fd5b505afa158015611eca573d6000803e3d6000fd5b505050506040513d601f19601f82011682018060405250810190611eee9190614813565b6001600160a01b0316336001600160a01b0316145b80611f3157506001600160a01b038116600090815260096020908152604080832033845290915290205460ff165b80611f415750611f41813361192b565b611f5d5760405162461bcd60e51b8152600401610829906153fb565b610bf4838361286e565b81336001600160a01b03821614806120005750806001600160a01b0316638da5cb5b6040518163ffffffff1660e01b815260040160206040518083038186803b158015611fb357600080fd5b505afa158015611fc7573d6000803e3d6000fd5b505050506040513d601f19601f82011682018060405250810190611feb9190614813565b6001600160a01b0316336001600160a01b0316145b8061202e57506001600160a01b038116600090815260096020908152604080832033845290915290205460ff165b8061203e575061203e8133610c17565b61205a5760405162461bcd60e51b815260040161082990615146565b610bf483836138b1565b81336001600160a01b03821614806120fd5750806001600160a01b0316638da5cb5b6040518163ffffffff1660e01b815260040160206040518083038186803b1580156120b057600080fd5b505afa1580156120c4573d6000803e3d6000fd5b505050506040513d601f19601f820116820180604052508101906120e89190614813565b6001600160a01b0316336001600160a01b0316145b8061212b57506001600160a01b038116600090815260096020908152604080832033845290915290205460ff165b8061213b575061213b813361194d565b6121575760405162461bcd60e51b815260040161082990615281565b610bf4838361384b565b81336001600160a01b03821614806121fa5750806001600160a01b0316638da5cb5b6040518163ffffffff1660e01b815260040160206040518083038186803b1580156121ad57600080fd5b505afa1580156121c1573d6000803e3d6000fd5b505050506040513d601f19601f820116820180604052508101906121e59190614813565b6001600160a01b0316336001600160a01b0316145b8061222857506001600160a01b038116600090815260096020908152604080832033845290915290205460ff165b8061223857506122388133610c17565b6122545760405162461bcd60e51b815260040161082990615146565b610bf483836128d4565b81336001600160a01b03821614806122f75750806001600160a01b0316638da5cb5b6040518163ffffffff1660e01b815260040160206040518083038186803b1580156122aa57600080fd5b505afa1580156122be573d6000803e3d6000fd5b505050506040513d601f19601f820116820180604052508101906122e29190614813565b6001600160a01b0316336001600160a01b0316145b8061232557506001600160a01b038116600090815260096020908152604080832033845290915290205460ff165b8061233557506123358133610d51565b6123515760405162461bcd60e51b81526004016108299061543d565b610bf48383613917565b600160076000836040516020016123729190614e34565b60408051808303601f19018152918152815160209283012083529082019290925201600020805460ff191691151591909117905550565b6001600160a01b03821660009081526003602052604090206123cb908261397d565b806001600160a01b0316826001600160a01b03167f84c618afa7439d9985b8c707a18637a9c6b0128399c0f5dee2ca90254d66fc3a60405160405180910390a35050565b60005b6001600160a01b0383166000908152600860205260409020548110156124bd576001600160a01b03831660009081526009602090815260408083206008909252822080548391908590811061247757634e487b7160e01b600052603260045260246000fd5b6000918252602080832091909101546001600160a01b031683528201929092526040019020805460ff1916911515919091179055806124b5816157e3565b915050612412565b5060005b815181101561254c576001600160a01b038316600090815260096020526040812083516001929085908590811061250857634e487b7160e01b600052603260045260246000fd5b6020908102919091018101516001600160a01b03168252810191909152604001600020805460ff191691151591909117905580612544816157e3565b9150506124c1565b506001600160a01b03821660009081526008602090815260409091208251610bf49284019061472b565b60008082156109cc57610c3942846139c5565b6001600160a01b03808b1660009081526012602090815260408083208d84529091528120909189166125cd5760405162461bcd60e51b81526004016108299061533d565b856125ea5760405162461bcd60e51b8152600401610829906151e8565b60048101541561260c5760405162461bcd60e51b8152600401610829906156a8565b6126188c338c866139d1565b6126345760405162461bcd60e51b815260040161082990615652565b6001600160a01b038a161561266d5761264e8c888c6132de565b86111561266d5760405162461bcd60e51b815260040161082990615176565b868155600180820180546001600160a01b038d81166001600160a01b031992831681179093556002850180548e8316908416179055600385018054918d169190921617905560048301889055600583018790556006830186905560088301805460ff191690921790915515612758576126e78c828d613b18565b60006127448d83600001548460030160009054906101000a90046001600160a01b03168560010160009054906101000a90046001600160a01b03168660020160009054906101000a90046001600160a01b03168760040154612edf565b5060009081526017602052604090208c9055505b876001600160a01b03168b8d6001600160a01b03167fe6adc59c6b5c7a2129126ae891955f416cc5837e1489b17e7fb03dd67d2ef4d18a8e8e8c8c8c6040516127a696959493929190614f3a565b60405180910390a45060019b9a5050505050505050505050565b6001600160a01b03821660009081526006602052604090206127e29082613c73565b806001600160a01b0316826001600160a01b03167f4eef79dfdff8d6b9485c6a01d5caac6413488fc1036c03867dbf75558a3b3a3660405160405180910390a35050565b60006001600160a01b03821661284e5760405162461bcd60e51b8152600401610829906154c8565b506001600160a01b03166000908152602091909152604090205460ff1690565b6001600160a01b0382166000908152600260205260409020612890908261397d565b806001600160a01b0316826001600160a01b03167f795a3a12ab7aa35ee8d4681ead2986eae8de69f5491d9dccfeca0442f644db8160405160405180910390a35050565b6001600160a01b03821660009081526020819052604090206128f6908261397d565b806001600160a01b0316826001600160a01b03167fb75903ade4a0fdb07d60c882c22c779e2e1c751883c37aecdcc92a8ec72b046e60405160405180910390a35050565b6001600160a01b038216600090815260046020526040902061295c9082613c73565b806001600160a01b0316826001600160a01b03167ff537a4c39a5575220902fda69b79909e02d44c8a7146b1a1c3b936f86aa71e3860405160405180910390a35050565b60008080806001600160a01b0388166000908152600c602052604090205460ff1660028111156129e057634e487b7160e01b600052602160045260246000fd5b1180156129f157506129f186613cbf565b8015612a045750612a02878661192b565b155b8015612a195750306001600160a01b03861614155b15612acd5760026001600160a01b0388166000908152600c602052604090205460ff166002811115612a5b57634e487b7160e01b600052602160045260246000fd5b1415612a9e57600080612a7089888a89613d15565b915091508115612a8b5760019450600293509150612ad89050565b6000600260009450945094505050612ad8565b612aaa87868887614014565b15612abe5750600191508190506000612ad8565b50600091506001905081612ad8565b506001915060009050805b9450945094915050565b6001836002811115612b0457634e487b7160e01b600052602160045260246000fd5b1415612b4d576001600160a01b038085166000908152600d602090815260408083209386168352929052908120805460019290612b42908490615724565b909155506110209050565b6002836002811115612b6f57634e487b7160e01b600052602160045260246000fd5b1415611020576001600160a01b0384166000908152600e602090815260408083208484529091529020805460ff1916600117905550505050565b6000612bb484613cbf565b1580612bf857506001600160a01b0385166000908152600c602052604081205460ff166002811115612bf657634e487b7160e01b600052602160045260246000fd5b145b15612ceb576001600160a01b0385166000908152600a602052604090205460ff1615612c76576001600160a01b03831615801590612c3d5750612c3b85846111d4565b155b15612c4a57506000611419565b6001600160a01b03821615801590612c695750612c6785836111d4565b155b15612c7657506000611419565b6001600160a01b0385166000908152600b602052604090205460ff1615612ceb576001600160a01b03831615801590612cb45750612cb4858461196f565b15612cc157506000611419565b6001600160a01b03821615801590612cde5750612cde858361196f565b15612ceb57506000611419565b506001949350505050565b6001600160a01b0383166000908152600f602052604081205460ff1615612d81576001600160a01b038416600090815260116020908152604080832086845290915290205415801590612d7457506001600160a01b0384166000908152601160209081526040808320868452909152902054612d7290836142bd565b155b15612d8157506000610c39565b5060019392505050565b6001600160a01b03861660009081526010602052604081205460ff168015612dbb57506001600160a01b03841615155b15612ed257836001600160a01b0316856001600160a01b031614612eb8576000612de9888888888888612edf565b6001600160a01b038a16600090815260126020908152604080832084845290915290209092509050612e1c8188866142dc565b8015612ea557506040516330e8280360e01b81526001600160a01b038a16906330e8280390612e51908b908a90600401614e8f565b60206040518083038186803b158015612e6957600080fd5b505afa158015612e7d573d6000803e3d6000fd5b505050506040513d601f19601f82011682018060405250810190612ea19190614c17565b8411155b15612eb557600192505050611ad4565b50505b612ec38787866132de565b821115612ed257506000611ad4565b5060019695505050505050565b6000806000888887878a88604051602001612eff96959493929190614dd1565b60408051808303601f19018152918152815160209283012060008181526017909352912054909a909950975050505050505050565b60018501546001600160a01b031615612f5257612f52868684614318565b60088501805460ff19166002179055600385015460048601546040516001600160a01b03928316928916917ff684696c1680054513509ee7893b2a90bda386e071a6fdf7c462c7539ff816a491612fae91899189908890614fc6565b60405180910390a3505050505050565b42811180612fca575080155b6107435760405162461bcd60e51b81526004016108299061554b565b6001600160a01b0386166000908152601260209081526040808320888452909152812090831580159061301f575061301f828686614433565b156130335750600781018390556001613047565b61303e8287876142dc565b15613047575060015b80156131b0578280156130695750600085836004015461306791906157a0565b115b156130815761307c888389888989614450565b613093565b61309388838988866004015489612f34565b60018201546001600160a01b031661311457815460028301546040516367c8491960e01b81526001600160a01b03808c16936367c84919936130dd93919216908a90600401614f6e565b600060405180830381600087803b1580156130f757600080fd5b505af115801561310b573d6000803e3d6000fd5b505050506131ab565b8154600183015460028401546040516323037ba760e21b81526001600160a01b038c811694638c0dee9c9461315794919390831692909116908b90600401614ef7565b602060405180830381600087803b15801561317157600080fd5b505af1158015613185573d6000803e3d6000fd5b505050506040513d601f19601f820116820180604052508101906131a99190614c17565b505b6131c8565b60405162461bcd60e51b815260040161082990615383565b5050505050505050565b6001600160a01b03808316600081815260136020908152604080832094861683529390528281205492516370a0823160e01b8152909291906370a082319061321e908690600401614e70565b60206040518083038186803b15801561323657600080fd5b505afa15801561324a573d6000803e3d6000fd5b505050506040513d601f19601f8201168201806040525081019061326e9190614c17565b610c3991906157a0565b6001600160a01b038216600090815260046020526040902061329a908261397d565b806001600160a01b0316826001600160a01b03167f99c45157365b22d82f22eea7bc8cff76cb53628113f4b52b10f83db3b404001660405160405180910390a35050565b6001600160a01b038084166000818152601460209081526040808320948616835293815283822086835290528281205492516330e8280360e01b8152909291906330e82803906133349087908790600401614e8f565b60206040518083038186803b15801561334c57600080fd5b505afa158015613360573d6000803e3d6000fd5b505050506040513d601f19601f820116820180604052508101906133849190614c17565b61141991906157a0565b6001600160a01b03821660009081526006602052604090206133b0908261397d565b806001600160a01b0316826001600160a01b03167fd3e42d12ae7dae2e960401c63b158173cc9987f9ee213374eff6471eed4062e360405160405180910390a35050565b6001600160a01b038416600090815260126020908152604080832086845290915281206001600882015460ff16600681111561344057634e487b7160e01b600052602160045260246000fd5b148061347257506003600882015460ff16600681111561347057634e487b7160e01b600052602160045260246000fd5b145b61348e5760405162461bcd60e51b8152600401610829906152b8565b61349b81600501546144dc565b156134b85760405162461bcd60e51b815260040161082990615610565b60018101546134d490879033906001600160a01b0316866139d1565b6134f05760405162461bcd60e51b815260040161082990615472565b6005810180549085905560038201546040516001600160a01b03918216918916907fa0bc54a9dd12fde7c7d2647b3f98b13480b32abe8b5b2a448102d90750e4abe290613542908a9086908b90614fb0565b60405180910390a35060019695505050505050565b6001600160a01b038216600090815260126020908152604080832084845290915281206001600882015460ff1660068111156135a357634e487b7160e01b600052602160045260246000fd5b14806135d557506003600882015460ff1660068111156135d357634e487b7160e01b600052602160045260246000fd5b145b6135f15760405162461bcd60e51b8152600401610829906150dc565b6135fe81600501546144dc565b80613615575060038101546001600160a01b031633145b8061362c575060028101546001600160a01b031633145b6136485760405162461bcd60e51b8152600401610829906155a8565b61365581600501546144dc565b15613676576008810180546006919060ff19166001835b02179055506136b1565b60038101546001600160a01b03163314156136a1576008810180546004919060ff191660018361366c565b60088101805460ff191660051790555b60018101546001600160a01b03161561371e576136d384828360040154614318565b8054600382015460018301546002840154600485015460009461370c948a9491936001600160a01b039182169392821692911690612edf565b50600090815260176020526040812055505b600381015460088201546040516001600160a01b03928316928716917ff443be38655a05232d021221bd7a13d2901adb2a897ac88b77af9ca9c6938aa99161376d91889160ff90911690614f9c565b60405180910390a35060019392505050565b6001600160a01b03821660009081526005602052604090206137a19082613c73565b806001600160a01b0316826001600160a01b03167fc52e3252244a1a2a298f7b5a9f8e964ab8737811b620a1426c0b95e3037bba9e60405160405180910390a35050565b6001600160a01b03821660009081526002602052604090206138079082613c73565b806001600160a01b0316826001600160a01b03167f9a01aee9f656aba8760d771cf21d803168ecc664c252c9374f4a3252481fbf3560405160405180910390a35050565b6001600160a01b038216600090815260056020526040902061386d908261397d565b806001600160a01b0316826001600160a01b03167f2e4e5dc902da1dd9425aa2acf081cc51d589443784af4c3fd7d5fe60d5915cd060405160405180910390a35050565b6001600160a01b03821660009081526020819052604090206138d39082613c73565b806001600160a01b0316826001600160a01b03167fe0953c403a52f9dc1fef4202a8d33975c958b727bee0d7b5b328965ddad98d8160405160405180910390a35050565b6001600160a01b03821660009081526003602052604090206139399082613c73565b806001600160a01b0316826001600160a01b03167f7a247cc00caf875946bd4af440d6b1776fe6bb625e25cad7626bedf5e6a1c37060405160405180910390a35050565b6139878282612826565b6139a35760405162461bcd60e51b8152600401610829906153ba565b6001600160a01b0316600090815260209190915260409020805460ff19169055565b6000610c398284615724565b600080600080613a1c886000368080601f0160208091040260200160405190810160405280939291908181526020018383808284376000920191909152508c92508a91506129a09050565b925092509250613a2e88838984612ae2565b6001600160a01b03861615613a9457828015613a8a57506001600160a01b038089166000908152600960209081526040808320938b168352929052205460ff1680613a8a5750856001600160a01b0316876001600160a01b0316145b9350505050611419565b828015613a8a57506040516355138f0d60e11b81526001600160a01b0389169063aa271e1a90613ac8908a90600401614e70565b60206040518083038186803b158015613ae057600080fd5b505afa158015613af4573d6000803e3d6000fd5b505050506040513d601f19601f82011682018060405250810190613a8a9190614bfb565b60048201546001600160a01b038085166000908152601360209081526040808320600188015490941683529290522054613b51916139c5565b6001600160a01b038085166000818152601360209081526040808320600189015490951683529381528382209490945560048601549181526016909352912054613b9a916139c5565b6001600160a01b03808516600090815260166020908152604080832094909455600486015460148252848320600188015490941683529281528382208654835290529190912054613bea916139c5565b6001600160a01b038085166000818152601460209081526040808320600189015490951683529381528382208754835281528382209490945560048601549181526015845282812086548252909352912054613c45916139c5565b6001600160a01b03909316600090815260156020908152604080832094548352939052919091209190915550565b613c7d8282612826565b15613c9a5760405162461bcd60e51b8152600401610829906150a5565b6001600160a01b0316600090815260209190915260409020805460ff19166001179055565b600080613ccb836144ef565b90506001600160e01b0319811663a9059cbb60e01b1480613cfc57506001600160e01b031981166323b872dd60e01b145b15613d0b5760009150506109a0565b60019150506109a0565b6000808251608114613d2c5750600090508061400b565b6020830151604084015160a085015160001a42821015613d55576000809450945050505061400b565b601b8160ff161015613d6f57613d6c601b8261573c565b90505b8060ff16601b1480613d8457508060ff16601c145b15614000578651600090613d999060c06145d9565b67ffffffffffffffff811115613dbf57634e487b7160e01b600052604160045260246000fd5b6040519080825280601f01601f191660200182016040528015613de9576020820181803683370190505b50905060005b8851613dfc9060c06145d9565b811015613e7757888181518110613e2357634e487b7160e01b600052603260045260246000fd5b602001015160f81c60f81b828281518110613e4e57634e487b7160e01b600052603260045260246000fd5b60200101906001600160f81b031916908160001a90535080613e6f816157e3565b915050613def565b506000898b838688604051602001613e93959493929190614d7f565b604051602081830303815290604052905060008b6001600160a01b031663a8082cb06040518163ffffffff1660e01b815260040160206040518083038186803b158015613edf57600080fd5b505afa158015613ef3573d6000803e3d6000fd5b505050506040513d601f19601f82011682018060405250810190613f179190614c17565b8280519060200120604051602001613f30929190614e26565b60405160208183030381529060405280519060200120905060008060608b0151915060808b01519050613fb18e60018589868660405160008152602001604052604051613f809493929190614fe1565b6020604051602081039080840390855afa158015613fa2573d6000803e3d6000fd5b5050506020604051035161192b565b8015613fe157506001600160a01b038e166000908152600e602090815260408083208b845290915290205460ff16155b15613ffa5760018899509950505050505050505061400b565b50505050505b600080945094505050505b94509492505050565b6000815160611461402757506000611419565b6020820151608083015160001a4282101561404757600092505050611419565b601b8160ff1610156140615761405e601b8261573c565b90505b8060ff16601b148061407657508060ff16601c145b156142b057845160009061408b9060a06145d9565b67ffffffffffffffff8111156140b157634e487b7160e01b600052604160045260246000fd5b6040519080825280601f01601f1916602001820160405280156140db576020820181803683370190505b50905060005b86516140ee9060a06145d9565b8110156141695786818151811061411557634e487b7160e01b600052603260045260246000fd5b602001015160f81c60f81b82828151811061414057634e487b7160e01b600052603260045260246000fd5b60200101906001600160f81b031916908160001a90535080614161816157e3565b9150506140e1565b506001600160a01b038089166000908152600d60209081526040808320938b16835292815282822054925191926141a8928b928d9287928a9201614d7f565b60405160208183030381529060405290506000896001600160a01b031663a8082cb06040518163ffffffff1660e01b815260040160206040518083038186803b1580156141f457600080fd5b505afa158015614208573d6000803e3d6000fd5b505050506040513d601f19601f8201168201806040525081019061422c9190614c17565b8280519060200120604051602001614245929190614e26565b60405160208183030381529060405280519060200120905060008060408901519150606089015190506142958c60018589868660405160008152602001604052604051613f809493929190614fe1565b156142aa576001975050505050505050611419565b50505050505b5060009695505050505050565b6000816142d4846142ce83826145e5565b906145f1565b149392505050565b60038301546000906001600160a01b038481169116148015614303575061430384836145fd565b1561431057506001610c39565b506000610c39565b6001600160a01b03808416600090815260136020908152604080832060018701549094168352929052205461434d90826145d9565b6001600160a01b0380851660008181526013602090815260408083206001890154909516835293815283822094909455908152601690925290205461439290826145d9565b6001600160a01b0380851660009081526016602090815260408083209490945560148152838220600187015490931682529182528281208554825290915220546143dc90826145d9565b6001600160a01b03808516600081815260146020908152604080832060018901549095168352938152838220875483528152838220949094559081526015835281812085548252909252902054613c4590826145d9565b600061443f84836146a9565b8015614303575061430384846145fd565b60018501546001600160a01b03161561446e5761446e868684614318565b60088501805460ff19166003179055600485015461448c90846145d9565b6004860181905560038601546040516001600160a01b0391821692918916917f4d230199a8973380b96ad366f3dd8665b4dc0309b3fc73f02137159ae4bd229f91612fae91899189908890614fc6565b600081158015906109cc57505042101590565b600060188260038151811061451457634e487b7160e01b600052603260045260246000fd5b016020015183516001600160f81b031990911690911c906010908490600290811061454f57634e487b7160e01b600052603260045260246000fd5b016020015184516001600160f81b031990911690911c906008908590600190811061458a57634e487b7160e01b600052603260045260246000fd5b016020015185516001600160f81b031990911690911c9085906000906145c057634e487b7160e01b600052603260045260246000fd5b01602001516001600160f81b0319161717179050919050565b6000610c3982846157a0565b6000610c398284615761565b6000610c398284615781565b60006001600884015460ff16600681111561462857634e487b7160e01b600052602160045260246000fd5b148061465a57506003600884015460ff16600681111561465857634e487b7160e01b600052602160045260246000fd5b145b614666575060006109cc565b81614673575060006109cc565b61468083600501546144dc565b1561468d575060006109cc565b82600401548211156146a1575060006109cc565b5060016109cc565b60006002826040516020016146be9190614e1d565b60408051601f19818403018152908290526146d891614e34565b602060405180830381855afa1580156146f5573d6000803e3d6000fd5b5050506040513d601f19601f820116820180604052508101906147189190614c17565b83600601541415610a9d575060016109cc565b828054828255906000526020600020908101928215614780579160200282015b8281111561478057825182546001600160a01b0319166001600160a01b0390911617825560209092019160019091019061474b565b5061478c929150614790565b5090565b5b8082111561478c5760008155600101614791565b80356109a08161582a565b60008083601f8401126147c1578182fd5b50813567ffffffffffffffff8111156147d8578182fd5b6020830191508360208285010111156147f057600080fd5b9250929050565b600060208284031215614808578081fd5b8135610c398161582a565b600060208284031215614824578081fd5b8151610c398161582a565b60008060408385031215614841578081fd5b823561484c8161582a565b9150602083013561485c8161582a565b809150509250929050565b60008060408385031215614879578182fd5b82356148848161582a565b946020939093013593505050565b6000806000606084860312156148a6578081fd5b83356148b18161582a565b92506020840135915060408401356148c88161582a565b809150509250925092565b60008060008060008060008060008060006101408c8e0312156148f4578687fd5b8b356148ff8161582a565b9a5060208c0135995060408c01356149168161582a565b985060608c01356149268161582a565b975060808c01356149368161582a565b965060a08c0135955060c08c0135945060e08c013593506101008c013592506101208c013567ffffffffffffffff81111561496f578283fd5b61497b8e828f016147b0565b915080935050809150509295989b509295989b9093969950565b6000806000806000806000806000806101208b8d0312156149b4578586fd5b8a356149bf8161582a565b995060208b0135985060408b01356149d68161582a565b975060608b01356149e68161582a565b965060808b0135955060a08b0135945060c08b0135935060e08b013592506101008b013567ffffffffffffffff811115614a1e578283fd5b614a2a8d828e016147b0565b915080935050809150509295989b9194979a5092959850565b600080600060608486031215614a57578283fd5b8335614a628161582a565b95602085013595506040909401359392505050565b60008060008060808587031215614a8c578182fd5b8435614a978161582a565b966020860135965060408601359560600135945092505050565b600080600080600060808688031215614ac8578283fd5b8535614ad38161582a565b94506020860135935060408601359250606086013567ffffffffffffffff811115614afc578182fd5b614b08888289016147b0565b969995985093965092949392505050565b60008060008060008060008060e0898b031215614b34578182fd5b8835614b3f8161582a565b9750602089013560038110614b52578283fd5b96506040890135614b628161583f565b95506060890135614b728161583f565b94506080890135614b828161583f565b935060a0890135614b928161583f565b925060c089013567ffffffffffffffff80821115614bae578384fd5b818b0191508b601f830112614bc1578384fd5b813581811115614bcf578485fd5b8c60208083028501011115614be2578485fd5b6020830194508093505050509295985092959890939650565b600060208284031215614c0c578081fd5b8151610c398161583f565b600060208284031215614c28578081fd5b5051919050565b60008060408385031215614c41578182fd5b82359150602083013561485c8161582a565b60008060008060008060008060008060006101008c8e031215614c74578485fd5b67ffffffffffffffff808d351115614c8a578586fd5b614c978e8e358f016147b0565b909c509a5060208d01359950614caf60408e016147a5565b9850614cbd60608e016147a5565b9750614ccb60808e016147a5565b965060a08d013595508060c08e01351115614ce4578485fd5b614cf48e60c08f01358f016147b0565b909550935060e08d0135811015614d09578182fd5b50614d1a8d60e08e01358e016147b0565b81935080925050509295989b509295989b9093969950565b600060208284031215614d43578081fd5b813567ffffffffffffffff811115614d59578182fd5b82016101208185031215610c39578182fd5b60078110614d7b57614d7b615814565b9052565b60006bffffffffffffffffffffffff19808860601b168352808760601b166014840152508451614db68160288501602089016157b7565b90910160288101939093525060488201526068019392505050565b6bffffffffffffffffffffffff19606097881b81168252601482019690965293861b8516603485015291851b8416604884015290931b909116605c820152607081019190915260900190565b90815260200190565b918252602082015260400190565b60008251614e468184602087016157b7565b9190910192915050565b73455243313832305f4143434550545f4d4147494360601b815260140190565b6001600160a01b0391909116815260200190565b901515815260200190565b9182526001600160a01b0316602082015260400190565b8981526001600160a01b0389811660208301528881166040830152871660608201526080810186905260a0810185905260c0810184905260e081018390526101208101610ae9610100830184614d6b565b9384526001600160a01b03928316602085015291166040830152606082015260c060808201819052600090820181905260e060a083018190528201526101000190565b9586526001600160a01b0394851660208701529290931660408501526060840152608083019190915260a082015260c00190565b9283526001600160a01b03919091166020830152604082015260806060820181905260009082015260a00190565b82815260408101610c396020830184614d6b565b9283526020830191909152604082015260600190565b93845260208401929092526040830152606082015260800190565b93845260ff9290921660208401526040830152606082015260800190565b600060c082016003891061501557615015615814565b88835260208815158185015287151560408501528615156060850152851515608085015260c060a085015281855180845260e0860191508287019350845b818110156150785784516001600160a01b031683529383019391830191600101615053565b50909b9a5050505050505050505050565b6020808252600290820152610d4d60f21b604082015260600190565b6020808252601f908201527f526f6c65733a206163636f756e7420616c72656164792068617320726f6c6500604082015260600190565b60208082526044908201527f4120686f6c642063616e206f6e6c792062652072656c656173656420696e207360408201527f7461747573204f726465726564206f72204578656375746564416e644b65707460608201526327b832b760e11b608082015260a00190565b60208082526016908201527529b2b73232b91034b9903737ba1030903830bab9b2b960511b604082015260600190565b6020808252604c908201527f416d6f756e74206f662074686520686f6c642063616e2774206265206772656160408201527f746572207468616e20746865207370656e6461626c652062616c616e6365206f60608201526b33103a34329039b2b73232b960a11b608082015260a00190565b6020808252601f908201527f56616c7565206d7573742062652067726561746572207468616e207a65726f00604082015260600190565b602080825260029082015261035360f41b604082015260600190565b60208082526026908201527f50617965722061646472657373206d757374206e6f74206265207a65726f206160408201526564647265737360d01b606082015260800190565b6020808252601f908201527f53656e646572206973206e6f74206120626c6f636b6c6973742061646d696e00604082015260600190565b60208082526043908201527f4120686f6c642063616e206f6e6c792062652072656e6577656420696e20737460408201527f61747573204f726465726564206f72204578656375746564416e644b6570744f6060820152623832b760e91b608082015260a00190565b602080825260029082015261353560f01b604082015260600190565b60208082526026908201527f50617965652061646472657373206d757374206e6f74206265207a65726f206160408201526564647265737360d01b606082015260800190565b60208082526018908201527f686f6c642063616e206e6f742062652065786563757465640000000000000000604082015260600190565b60208082526021908201527f526f6c65733a206163636f756e7420646f6573206e6f74206861766520726f6c6040820152606560f81b606082015260800190565b60208082526022908201527f53656e646572206973206e6f742061206365727469666963617465207369676e60408201526132b960f11b606082015260800190565b6020808252818101527f53656e646572206973206e6f7420616e20616c6c6f776c6973742061646d696e604082015260600190565b60208082526036908201527f4120686f6c642063616e206f6e6c792062652072656e657765642077697468206040820152756164617074656420617574686f72697a6174696f6e7360501b606082015260800190565b60208082526022908201527f526f6c65733a206163636f756e7420697320746865207a65726f206164647265604082015261737360f01b606082015260800190565b60208082526021908201527f53656e646572206973206e6f74206120746f6b656e20636f6e74726f6c6c65726040820152601760f91b606082015260800190565b6020808252603c908201527f45787069726174696f6e2064617465206d75737420626520677265617465722060408201527f7468616e20626c6f636b2074696d657374616d70206f72207a65726f00000000606082015260800190565b60208082526042908201527f41206e6f74206578706972656420686f6c642063616e206f6e6c79206265207260408201527f656c656173656420627920746865206e6f74617279206f722074686520706179606082015261656560f01b608082015260a00190565b60208082526022908201527f416e206578706972656420686f6c642063616e206e6f742062652072656e6577604082015261195960f21b606082015260800190565b60208082526036908201527f4120686f6c642063616e206f6e6c7920626520637265617465642077697468206040820152756164617074656420617574686f72697a6174696f6e7360501b606082015260800190565b6020808252601a908201527f5468697320686f6c64496420616c726561647920657869737473000000000000604082015260600190565b6000808335601e198436030181126156f5578283fd5b83018035915067ffffffffffffffff82111561570f578283fd5b6020019150368190038213156147f057600080fd5b60008219821115615737576157376157fe565b500190565b600060ff821660ff84168060ff03821115615759576157596157fe565b019392505050565b60008261577c57634e487b7160e01b81526012600452602481fd5b500490565b600081600019048311821515161561579b5761579b6157fe565b500290565b6000828210156157b2576157b26157fe565b500390565b60005b838110156157d25781810151838201526020016157ba565b838111156110205750506000910152565b60006000198214156157f7576157f76157fe565b5060010190565b634e487b7160e01b600052601160045260246000fd5b634e487b7160e01b600052602160045260246000fd5b6001600160a01b038116811461074357600080fd5b801515811461074357600080fdfea26469706673582212204a61a2b96480f58be18d27085133d4806f85c0a08bc7aed2a1e6ded64d9bf05d64736f6c63430008000033",
  "linkReferences": {},
  "deployedLinkReferences": {}
}