{
  "_format": "hh-sol-artifact-1",
  "contractName": "Pausable",
  "sourceName": "contracts/ERC1400/tools/Pausable.sol",
  "abi": [
    {
      "anonymous": false,
      "inputs": [
        {
          "indexed": true,
          "internalType": "address",
          "name": "token",
          "type": "address"
        },
        {
          "indexed": false,
          "internalType": "address",
          "name": "account",
          "type": "address"
        }
      ],
      "name": "Paused",
      "type": "event"
    },
    {
      "anonymous": false,
      "inputs": [
        {
          "indexed": true,
          "internalType": "address",
          "name": "token",
          "type": "address"
        },
        {
          "indexed": true,
          "internalType": "address",
          "name": "account",
          "type": "address"
        }
      ],
      "name": "PauserAdded",
      "type": "event"
    },
    {
      "anonymous": false,
      "inputs": [
        {
          "indexed": true,
          "internalType": "address",
          "name": "token",
          "type": "address"
        },
        {
          "indexed": true,
          "internalType": "address",
          "name": "account",
          "type": "address"
        }
      ],
      "name": "PauserRemoved",
      "type": "event"
    },
    {
      "anonymous": false,
      "inputs": [
        {
          "indexed": true,
          "internalType": "address",
          "name": "token",
          "type": "address"
        },
        {
          "indexed": false,
          "internalType": "address",
          "name": "account",
          "type": "address"
        }
      ],
      "name": "Unpaused",
      "type": "event"
    },
    {
      "inputs": [
        {
          "internalType": "address",
          "name": "token",
          "type": "address"
        },
        {
          "internalType": "address",
          "name": "account",
          "type": "address"
        }
      ],
      "name": "addPauser",
      "outputs": [],
      "stateMutability": "nonpayable",
      "type": "function"
    },
    {
      "inputs": [
        {
          "internalType": "address",
          "name": "token",
          "type": "address"
        },
        {
          "internalType": "address",
          "name": "account",
          "type": "address"
        }
      ],
      "name": "isPauser",
      "outputs": [
        {
          "internalType": "bool",
          "name": "",
          "type": "bool"
        }
      ],
      "stateMutability": "view",
      "type": "function"
    },
    {
      "inputs": [
        {
          "internalType": "address",
          "name": "token",
          "type": "address"
        }
      ],
      "name": "pause",
      "outputs": [],
      "stateMutability": "nonpayable",
      "type": "function"
    },
    {
      "inputs": [
        {
          "internalType": "address",
          "name": "token",
          "type": "address"
        }
      ],
      "name": "paused",
      "outputs": [
        {
          "internalType": "bool",
          "name": "",
          "type": "bool"
        }
      ],
      "stateMutability": "view",
      "type": "function"
    },
    {
      "inputs": [
        {
          "internalType": "address",
          "name": "token",
          "type": "address"
        },
        {
          "internalType": "address",
          "name": "account",
          "type": "address"
        }
      ],
      "name": "removePauser",
      "outputs": [],
      "stateMutability": "nonpayable",
      "type": "function"
    },
    {
      "inputs": [
        {
          "internalType": "address",
          "name": "token",
          "type": "address"
        }
      ],
      "name": "renouncePauser",
      "outputs": [],
      "stateMutability": "nonpayable",
      "type": "function"
    },
    {
      "inputs": [
        {
          "internalType": "address",
          "name": "token",
          "type": "address"
        }
      ],
      "name": "unpause",
      "outputs": [],
      "stateMutability": "nonpayable",
      "type": "function"
    }
  ],
  "bytecode": "0x608060405234801561001057600080fd5b50610604806100206000396000f3fe608060405234801561001057600080fd5b506004361061007d5760003560e01c806357b001f91161005b57806357b001f9146100d357806376a67a51146100e6578063eb5314bd146100f9578063ed2f90951461010c5761007d565b80632e48152c146100825780632fd33398146100ab57806341eb24bb146100be575b600080fd5b6100956100903660046104a9565b61011f565b6040516100a29190610509565b60405180910390f35b6100956100b93660046104c3565b610141565b6100d16100cc3660046104a9565b61016a565b005b6100d16100e13660046104a9565b610177565b6100d16100f43660046104a9565b61020f565b6100d16101073660046104c3565b6102a0565b6100d161011a3660046104c3565b6102c3565b6001600160a01b03811660009081526001602052604090205460ff165b919050565b6001600160a01b038216600090815260208190526040812061016390836102e1565b9392505050565b6101748133610332565b50565b806101828133610141565b61018b57600080fd5b6001600160a01b038216600090815260016020526040902054829060ff166101b257600080fd5b6001600160a01b03831660008181526001602052604090819020805460ff19169055517f3d072963433794eb417a69355df67d08bbd73d5076ef653d6863861161d60af3906102029033906104f5565b60405180910390a2505050565b8061021a8133610141565b61022357600080fd5b6001600160a01b038216600090815260016020526040902054829060ff161561024b57600080fd5b6001600160a01b038316600081815260016020819052604091829020805460ff19169091179055517f3dd4f37ca5eaf6c357698a52c806820426d7c9a26adb0991c3bebb09cf23352a906102029033906104f5565b816102ab8133610141565b6102b457600080fd5b6102be8383610398565b505050565b816102ce8133610141565b6102d757600080fd5b6102be8383610332565b60006001600160a01b0382166103125760405162461bcd60e51b81526004016103099061058c565b60405180910390fd5b506001600160a01b03166000908152602091909152604090205460ff1690565b6001600160a01b038216600090815260208190526040902061035490826103fe565b806001600160a01b0316826001600160a01b03167fb75903ade4a0fdb07d60c882c22c779e2e1c751883c37aecdcc92a8ec72b046e60405160405180910390a35050565b6001600160a01b03821660009081526020819052604090206103ba9082610446565b806001600160a01b0316826001600160a01b03167fe0953c403a52f9dc1fef4202a8d33975c958b727bee0d7b5b328965ddad98d8160405160405180910390a35050565b61040882826102e1565b6104245760405162461bcd60e51b81526004016103099061054b565b6001600160a01b0316600090815260209190915260409020805460ff19169055565b61045082826102e1565b1561046d5760405162461bcd60e51b815260040161030990610514565b6001600160a01b0316600090815260209190915260409020805460ff19166001179055565b80356001600160a01b038116811461013c57600080fd5b6000602082840312156104ba578081fd5b61016382610492565b600080604083850312156104d5578081fd5b6104de83610492565b91506104ec60208401610492565b90509250929050565b6001600160a01b0391909116815260200190565b901515815260200190565b6020808252601f908201527f526f6c65733a206163636f756e7420616c72656164792068617320726f6c6500604082015260600190565b60208082526021908201527f526f6c65733a206163636f756e7420646f6573206e6f74206861766520726f6c6040820152606560f81b606082015260800190565b60208082526022908201527f526f6c65733a206163636f756e7420697320746865207a65726f206164647265604082015261737360f01b60608201526080019056fea264697066735822122032e75d2bc60afba0e309d80716fbfe8588a2b9af3f3c6125518932041d472f6864736f6c63430008000033",
  "linkReferences": {},
  "deployedLinkReferences": {}
}