{
  "contractName": "BlocklistMock",
  "abi": [
    {
      "inputs": [
        {
          "internalType": "address",
          "name": "token",
          "type": "address"
        }
      ],
      "stateMutability": "nonpayable",
      "type": "constructor"
    },
    {
      "anonymous": false,
      "inputs": [
        {
          "indexed": true,
          "internalType": "address",
          "name": "token",
          "type": "address"
        },
        {
          "indexed": true,
          "internalType": "address",
          "name": "account",
          "type": "address"
        }
      ],
      "name": "BlocklistAdminAdded",
      "type": "event"
    },
    {
      "anonymous": false,
      "inputs": [
        {
          "indexed": true,
          "internalType": "address",
          "name": "token",
          "type": "address"
        },
        {
          "indexed": true,
          "internalType": "address",
          "name": "account",
          "type": "address"
        }
      ],
      "name": "BlocklistAdminRemoved",
      "type": "event"
    },
    {
      "anonymous": false,
      "inputs": [
        {
          "indexed": true,
          "internalType": "address",
          "name": "token",
          "type": "address"
        },
        {
          "indexed": true,
          "internalType": "address",
          "name": "account",
          "type": "address"
        }
      ],
      "name": "BlocklistedAdded",
      "type": "event"
    },
    {
      "anonymous": false,
      "inputs": [
        {
          "indexed": true,
          "internalType": "address",
          "name": "token",
          "type": "address"
        },
        {
          "indexed": true,
          "internalType": "address",
          "name": "account",
          "type": "address"
        }
      ],
      "name": "BlocklistedRemoved",
      "type": "event"
    },
    {
      "inputs": [
        {
          "internalType": "address",
          "name": "token",
          "type": "address"
        },
        {
          "internalType": "address",
          "name": "account",
          "type": "address"
        }
      ],
      "name": "addBlocklistAdmin",
      "outputs": [],
      "stateMutability": "nonpayable",
      "type": "function"
    },
    {
      "inputs": [
        {
          "internalType": "address",
          "name": "token",
          "type": "address"
        },
        {
          "internalType": "address",
          "name": "account",
          "type": "address"
        }
      ],
      "name": "addBlocklisted",
      "outputs": [],
      "stateMutability": "nonpayable",
      "type": "function"
    },
    {
      "inputs": [
        {
          "internalType": "address",
          "name": "token",
          "type": "address"
        },
        {
          "internalType": "address",
          "name": "account",
          "type": "address"
        }
      ],
      "name": "isBlocklistAdmin",
      "outputs": [
        {
          "internalType": "bool",
          "name": "",
          "type": "bool"
        }
      ],
      "stateMutability": "view",
      "type": "function"
    },
    {
      "inputs": [
        {
          "internalType": "address",
          "name": "token",
          "type": "address"
        },
        {
          "internalType": "address",
          "name": "account",
          "type": "address"
        }
      ],
      "name": "isBlocklisted",
      "outputs": [
        {
          "internalType": "bool",
          "name": "",
          "type": "bool"
        }
      ],
      "stateMutability": "view",
      "type": "function"
    },
    {
      "inputs": [
        {
          "internalType": "address",
          "name": "token",
          "type": "address"
        },
        {
          "internalType": "address",
          "name": "account",
          "type": "address"
        }
      ],
      "name": "removeBlocklistAdmin",
      "outputs": [],
      "stateMutability": "nonpayable",
      "type": "function"
    },
    {
      "inputs": [
        {
          "internalType": "address",
          "name": "token",
          "type": "address"
        },
        {
          "internalType": "address",
          "name": "account",
          "type": "address"
        }
      ],
      "name": "removeBlocklisted",
      "outputs": [],
      "stateMutability": "nonpayable",
      "type": "function"
    },
    {
      "inputs": [
        {
          "internalType": "address",
          "name": "token",
          "type": "address"
        }
      ],
      "name": "renounceBlocklistAdmin",
      "outputs": [],
      "stateMutability": "nonpayable",
      "type": "function"
    },
    {
      "inputs": [
        {
          "internalType": "address",
          "name": "token",
          "type": "address"
        },
        {
          "internalType": "bool",
          "name": "mockActivated",
          "type": "bool"
        }
      ],
      "name": "mockFunction",
      "outputs": [],
      "stateMutability": "nonpayable",
      "type": "function"
    }
  ],
  "bytecode": "0x608060405234801561001057600080fd5b5060405161081638038061081683398101604081905261002f916101b3565b610039813361003f565b506101e3565b6001600160a01b03821660009081526020818152604090912061006b91839061022a6100af821b17901c565b806001600160a01b0316826001600160a01b03167fc52e3252244a1a2a298f7b5a9f8e964ab8737811b620a1426c0b95e3037bba9e60405160405180910390a35050565b6100b98282610130565b1561010b5760405162461bcd60e51b815260206004820152601f60248201527f526f6c65733a206163636f756e7420616c72656164792068617320726f6c650060448201526064015b60405180910390fd5b6001600160a01b0316600090815260209190915260409020805460ff19166001179055565b60006001600160a01b0382166101935760405162461bcd60e51b815260206004820152602260248201527f526f6c65733a206163636f756e7420697320746865207a65726f206164647265604482015261737360f01b6064820152608401610102565b506001600160a01b03166000908152602091909152604090205460ff1690565b6000602082840312156101c557600080fd5b81516001600160a01b03811681146101dc57600080fd5b9392505050565b610624806101f26000396000f3fe608060405234801561001057600080fd5b50600436106100785760003560e01c80632c55b05f1461007d5780636c41d4ea146100925780639bd483ec146100a5578063a28e7c02146100b8578063a4aa023f146100df578063c428b202146100f2578063e323e67114610105578063ebf42f7714610118575b600080fd5b61009061008b36600461057f565b61012b565b005b6100906100a03660046105b2565b61014e565b6100906100b336600461057f565b610178565b6100cb6100c636600461057f565b610196565b604051901515815260200160405180910390f35b6100cb6100ed36600461057f565b6101bf565b61009061010036600461057f565b6101e1565b610090610113366004610564565b6101ff565b61009061012636600461057f565b61020c565b816101368133610196565b61013f57600080fd5b61014983836102ab565b505050565b8161015981336101bf565b1561016357600080fd5b506002805460ff191691151591909117905550565b816101838133610196565b61018c57600080fd5b6101498383610311565b6001600160a01b03821660009081526020819052604081206101b89083610377565b9392505050565b6001600160a01b03821660009081526001602052604081206101b89083610377565b816101ec8133610196565b6101f557600080fd5b61014983836103fa565b6102098133610460565b50565b816102178133610196565b61022057600080fd5b6101498383610460565b6102348282610377565b156102865760405162461bcd60e51b815260206004820152601f60248201527f526f6c65733a206163636f756e7420616c72656164792068617320726f6c650060448201526064015b60405180910390fd5b6001600160a01b0316600090815260209190915260409020805460ff19166001179055565b6001600160a01b03821660009081526001602052604090206102cd908261022a565b806001600160a01b0316826001600160a01b03167f4eef79dfdff8d6b9485c6a01d5caac6413488fc1036c03867dbf75558a3b3a3660405160405180910390a35050565b6001600160a01b038216600090815260016020526040902061033390826104c6565b806001600160a01b0316826001600160a01b03167fd3e42d12ae7dae2e960401c63b158173cc9987f9ee213374eff6471eed4062e360405160405180910390a35050565b60006001600160a01b0382166103da5760405162461bcd60e51b815260206004820152602260248201527f526f6c65733a206163636f756e7420697320746865207a65726f206164647265604482015261737360f01b606482015260840161027d565b506001600160a01b03166000908152602091909152604090205460ff1690565b6001600160a01b038216600090815260208190526040902061041c908261022a565b806001600160a01b0316826001600160a01b03167fc52e3252244a1a2a298f7b5a9f8e964ab8737811b620a1426c0b95e3037bba9e60405160405180910390a35050565b6001600160a01b038216600090815260208190526040902061048290826104c6565b806001600160a01b0316826001600160a01b03167f2e4e5dc902da1dd9425aa2acf081cc51d589443784af4c3fd7d5fe60d5915cd060405160405180910390a35050565b6104d08282610377565b6105265760405162461bcd60e51b815260206004820152602160248201527f526f6c65733a206163636f756e7420646f6573206e6f74206861766520726f6c6044820152606560f81b606482015260840161027d565b6001600160a01b0316600090815260209190915260409020805460ff19169055565b80356001600160a01b038116811461055f57600080fd5b919050565b60006020828403121561057657600080fd5b6101b882610548565b6000806040838503121561059257600080fd5b61059b83610548565b91506105a960208401610548565b90509250929050565b600080604083850312156105c557600080fd5b6105ce83610548565b9150602083013580151581146105e357600080fd5b80915050925092905056fea26469706673582212204658d80d3c3b6e0eb96a9b44c6b93c9b5d235b16abad82a43a47fde41ab6e11a64736f6c63430008070033",
  "immutableReferences": {},
  "source": "// SPDX-License-Identifier: Apache-2.0\npragma solidity ^0.8.0;\n\n// MOCK CONTRACT TO REACH FULL COVERAGE BY CALLING \"onlyNotBlocklisted\" MODIFIER\n\nimport \"../roles/BlocklistedRole.sol\";\n\n\ncontract BlocklistMock is BlocklistedRole {\n\n  bool _mockActivated;\n\n  constructor(address token) {\n    _addBlocklistAdmin(token, msg.sender);\n  }\n\n  function mockFunction(address token, bool mockActivated) external onlyNotBlocklisted(token) {\n    _mockActivated = mockActivated;\n  }\n\n}",
  "sourcePath": "/Users/sergio/Desktop/TFM/project/contracts/mocks/BlocklistMock.sol",
  "compiler": {
    "name": "solc",
    "version": "0.8.7+commit.e28d00a7.Emscripten.clang"
  },
  "schemaVersion": "3.4.16",
  "updatedAt": "2024-05-10T15:08:02.304Z",
  "devdoc": {
    "kind": "dev",
    "methods": {},
    "version": 1
  },
  "userdoc": {
    "kind": "user",
    "methods": {},
    "version": 1
  }
}