{
  "contractName": "ClockMock",
  "abi": [
    {
      "inputs": [],
      "stateMutability": "nonpayable",
      "type": "constructor"
    },
    {
      "inputs": [],
      "name": "getTime",
      "outputs": [
        {
          "internalType": "uint256",
          "name": "",
          "type": "uint256"
        }
      ],
      "stateMutability": "view",
      "type": "function"
    }
  ],
  "bytecode": "0x6080604052348015600f57600080fd5b50607680601d6000396000f3fe6080604052348015600f57600080fd5b506004361060285760003560e01c8063557ed1ba14602d575b600080fd5b4260405190815260200160405180910390f3fea2646970667358221220505103c77e2b67bb1dcc135c8cfaa0011df67ad027b50059b7086b44eee6067764736f6c63430008070033",
  "immutableReferences": {},
  "source": "// SPDX-License-Identifier: Apache-2.0\npragma solidity ^0.8.0;\n\n// MOCK CONTRACT TO RETRIEVE TIME ON CHAIN\n\ncontract ClockMock {\n\n  constructor() {}\n\n  /**\n   * @dev Get time on chain.\n   * @return block.timestamp.\n   */\n  function getTime() external view returns (uint256) {\n    return block.timestamp;\n  }\n\n}",
  "sourcePath": "/Users/sergio/Desktop/TFM/project/contracts/mocks/Clock.sol",
  "compiler": {
    "name": "solc",
    "version": "0.8.7+commit.e28d00a7.Emscripten.clang"
  },
  "schemaVersion": "3.4.16",
  "updatedAt": "2024-05-10T15:08:02.329Z",
  "devdoc": {
    "kind": "dev",
    "methods": {
      "getTime()": {
        "details": "Get time on chain.",
        "returns": {
          "_0": "block.timestamp."
        }
      }
    },
    "version": 1
  },
  "userdoc": {
    "kind": "user",
    "methods": {},
    "version": 1
  }
}