{
  "contractName": "ERC1400",
  "abi": [
    {
      "inputs": [
        {
          "internalType": "string",
          "name": "tokenName",
          "type": "string"
        },
        {
          "internalType": "string",
          "name": "tokenSymbol",
          "type": "string"
        },
        {
          "internalType": "uint256",
          "name": "tokenGranularity",
          "type": "uint256"
        },
        {
          "internalType": "address[]",
          "name": "initialControllers",
          "type": "address[]"
        },
        {
          "internalType": "bytes32[]",
          "name": "defaultPartitions",
          "type": "bytes32[]"
        }
      ],
      "stateMutability": "nonpayable",
      "type": "constructor"
    },
    {
      "anonymous": false,
      "inputs": [
        {
          "indexed": true,
          "internalType": "address",
          "name": "owner",
          "type": "address"
        },
        {
          "indexed": true,
          "internalType": "address",
          "name": "spender",
          "type": "address"
        },
        {
          "indexed": false,
          "internalType": "uint256",
          "name": "value",
          "type": "uint256"
        }
      ],
      "name": "Approval",
      "type": "event"
    },
    {
      "anonymous": false,
      "inputs": [
        {
          "indexed": true,
          "internalType": "bytes32",
          "name": "partition",
          "type": "bytes32"
        },
        {
          "indexed": true,
          "internalType": "address",
          "name": "owner",
          "type": "address"
        },
        {
          "indexed": true,
          "internalType": "address",
          "name": "spender",
          "type": "address"
        },
        {
          "indexed": false,
          "internalType": "uint256",
          "name": "value",
          "type": "uint256"
        }
      ],
      "name": "ApprovalByPartition",
      "type": "event"
    },
    {
      "anonymous": false,
      "inputs": [
        {
          "indexed": true,
          "internalType": "address",
          "name": "operator",
          "type": "address"
        },
        {
          "indexed": true,
          "internalType": "address",
          "name": "tokenHolder",
          "type": "address"
        }
      ],
      "name": "AuthorizedOperator",
      "type": "event"
    },
    {
      "anonymous": false,
      "inputs": [
        {
          "indexed": true,
          "internalType": "bytes32",
          "name": "partition",
          "type": "bytes32"
        },
        {
          "indexed": true,
          "internalType": "address",
          "name": "operator",
          "type": "address"
        },
        {
          "indexed": true,
          "internalType": "address",
          "name": "tokenHolder",
          "type": "address"
        }
      ],
      "name": "AuthorizedOperatorByPartition",
      "type": "event"
    },
    {
      "anonymous": false,
      "inputs": [
        {
          "indexed": true,
          "internalType": "bytes32",
          "name": "fromPartition",
          "type": "bytes32"
        },
        {
          "indexed": true,
          "internalType": "bytes32",
          "name": "toPartition",
          "type": "bytes32"
        },
        {
          "indexed": false,
          "internalType": "uint256",
          "name": "value",
          "type": "uint256"
        }
      ],
      "name": "ChangedPartition",
      "type": "event"
    },
    {
      "anonymous": false,
      "inputs": [
        {
          "indexed": true,
          "internalType": "bytes32",
          "name": "name",
          "type": "bytes32"
        },
        {
          "indexed": false,
          "internalType": "string",
          "name": "uri",
          "type": "string"
        },
        {
          "indexed": false,
          "internalType": "bytes32",
          "name": "documentHash",
          "type": "bytes32"
        }
      ],
      "name": "DocumentRemoved",
      "type": "event"
    },
    {
      "anonymous": false,
      "inputs": [
        {
          "indexed": true,
          "internalType": "bytes32",
          "name": "name",
          "type": "bytes32"
        },
        {
          "indexed": false,
          "internalType": "string",
          "name": "uri",
          "type": "string"
        },
        {
          "indexed": false,
          "internalType": "bytes32",
          "name": "documentHash",
          "type": "bytes32"
        }
      ],
      "name": "DocumentUpdated",
      "type": "event"
    },
    {
      "anonymous": false,
      "inputs": [
        {
          "indexed": true,
          "internalType": "address",
          "name": "operator",
          "type": "address"
        },
        {
          "indexed": true,
          "internalType": "address",
          "name": "to",
          "type": "address"
        },
        {
          "indexed": false,
          "internalType": "uint256",
          "name": "value",
          "type": "uint256"
        },
        {
          "indexed": false,
          "internalType": "bytes",
          "name": "data",
          "type": "bytes"
        }
      ],
      "name": "Issued",
      "type": "event"
    },
    {
      "anonymous": false,
      "inputs": [
        {
          "indexed": true,
          "internalType": "bytes32",
          "name": "partition",
          "type": "bytes32"
        },
        {
          "indexed": true,
          "internalType": "address",
          "name": "operator",
          "type": "address"
        },
        {
          "indexed": true,
          "internalType": "address",
          "name": "to",
          "type": "address"
        },
        {
          "indexed": false,
          "internalType": "uint256",
          "name": "value",
          "type": "uint256"
        },
        {
          "indexed": false,
          "internalType": "bytes",
          "name": "data",
          "type": "bytes"
        },
        {
          "indexed": false,
          "internalType": "bytes",
          "name": "operatorData",
          "type": "bytes"
        }
      ],
      "name": "IssuedByPartition",
      "type": "event"
    },
    {
      "anonymous": false,
      "inputs": [
        {
          "indexed": true,
          "internalType": "address",
          "name": "account",
          "type": "address"
        }
      ],
      "name": "MinterAdded",
      "type": "event"
    },
    {
      "anonymous": false,
      "inputs": [
        {
          "indexed": true,
          "internalType": "address",
          "name": "account",
          "type": "address"
        }
      ],
      "name": "MinterRemoved",
      "type": "event"
    },
    {
      "anonymous": false,
      "inputs": [
        {
          "indexed": true,
          "internalType": "address",
          "name": "previousOwner",
          "type": "address"
        },
        {
          "indexed": true,
          "internalType": "address",
          "name": "newOwner",
          "type": "address"
        }
      ],
      "name": "OwnershipTransferred",
      "type": "event"
    },
    {
      "anonymous": false,
      "inputs": [
        {
          "indexed": true,
          "internalType": "address",
          "name": "operator",
          "type": "address"
        },
        {
          "indexed": true,
          "internalType": "address",
          "name": "from",
          "type": "address"
        },
        {
          "indexed": false,
          "internalType": "uint256",
          "name": "value",
          "type": "uint256"
        },
        {
          "indexed": false,
          "internalType": "bytes",
          "name": "data",
          "type": "bytes"
        }
      ],
      "name": "Redeemed",
      "type": "event"
    },
    {
      "anonymous": false,
      "inputs": [
        {
          "indexed": true,
          "internalType": "bytes32",
          "name": "partition",
          "type": "bytes32"
        },
        {
          "indexed": true,
          "internalType": "address",
          "name": "operator",
          "type": "address"
        },
        {
          "indexed": true,
          "internalType": "address",
          "name": "from",
          "type": "address"
        },
        {
          "indexed": false,
          "internalType": "uint256",
          "name": "value",
          "type": "uint256"
        },
        {
          "indexed": false,
          "internalType": "bytes",
          "name": "operatorData",
          "type": "bytes"
        }
      ],
      "name": "RedeemedByPartition",
      "type": "event"
    },
    {
      "anonymous": false,
      "inputs": [
        {
          "indexed": true,
          "internalType": "address",
          "name": "operator",
          "type": "address"
        },
        {
          "indexed": true,
          "internalType": "address",
          "name": "tokenHolder",
          "type": "address"
        }
      ],
      "name": "RevokedOperator",
      "type": "event"
    },
    {
      "anonymous": false,
      "inputs": [
        {
          "indexed": true,
          "internalType": "bytes32",
          "name": "partition",
          "type": "bytes32"
        },
        {
          "indexed": true,
          "internalType": "address",
          "name": "operator",
          "type": "address"
        },
        {
          "indexed": true,
          "internalType": "address",
          "name": "tokenHolder",
          "type": "address"
        }
      ],
      "name": "RevokedOperatorByPartition",
      "type": "event"
    },
    {
      "anonymous": false,
      "inputs": [
        {
          "indexed": true,
          "internalType": "address",
          "name": "from",
          "type": "address"
        },
        {
          "indexed": true,
          "internalType": "address",
          "name": "to",
          "type": "address"
        },
        {
          "indexed": false,
          "internalType": "uint256",
          "name": "value",
          "type": "uint256"
        }
      ],
      "name": "Transfer",
      "type": "event"
    },
    {
      "anonymous": false,
      "inputs": [
        {
          "indexed": true,
          "internalType": "bytes32",
          "name": "fromPartition",
          "type": "bytes32"
        },
        {
          "indexed": false,
          "internalType": "address",
          "name": "operator",
          "type": "address"
        },
        {
          "indexed": true,
          "internalType": "address",
          "name": "from",
          "type": "address"
        },
        {
          "indexed": true,
          "internalType": "address",
          "name": "to",
          "type": "address"
        },
        {
          "indexed": false,
          "internalType": "uint256",
          "name": "value",
          "type": "uint256"
        },
        {
          "indexed": false,
          "internalType": "bytes",
          "name": "data",
          "type": "bytes"
        },
        {
          "indexed": false,
          "internalType": "bytes",
          "name": "operatorData",
          "type": "bytes"
        }
      ],
      "name": "TransferByPartition",
      "type": "event"
    },
    {
      "inputs": [
        {
          "internalType": "address",
          "name": "account",
          "type": "address"
        }
      ],
      "name": "addMinter",
      "outputs": [],
      "stateMutability": "nonpayable",
      "type": "function"
    },
    {
      "inputs": [
        {
          "internalType": "bytes32",
          "name": "interfaceHash",
          "type": "bytes32"
        },
        {
          "internalType": "address",
          "name": "",
          "type": "address"
        }
      ],
      "name": "canImplementInterfaceForAddress",
      "outputs": [
        {
          "internalType": "bytes32",
          "name": "",
          "type": "bytes32"
        }
      ],
      "stateMutability": "view",
      "type": "function"
    },
    {
      "inputs": [],
      "name": "domainSeparator",
      "outputs": [
        {
          "internalType": "bytes32",
          "name": "",
          "type": "bytes32"
        }
      ],
      "stateMutability": "nonpayable",
      "type": "function"
    },
    {
      "inputs": [],
      "name": "generateDomainSeparator",
      "outputs": [
        {
          "internalType": "bytes32",
          "name": "",
          "type": "bytes32"
        }
      ],
      "stateMutability": "view",
      "type": "function"
    },
    {
      "inputs": [
        {
          "internalType": "address",
          "name": "account",
          "type": "address"
        }
      ],
      "name": "isMinter",
      "outputs": [
        {
          "internalType": "bool",
          "name": "",
          "type": "bool"
        }
      ],
      "stateMutability": "view",
      "type": "function"
    },
    {
      "inputs": [],
      "name": "owner",
      "outputs": [
        {
          "internalType": "address",
          "name": "",
          "type": "address"
        }
      ],
      "stateMutability": "view",
      "type": "function"
    },
    {
      "inputs": [
        {
          "internalType": "address",
          "name": "account",
          "type": "address"
        }
      ],
      "name": "removeMinter",
      "outputs": [],
      "stateMutability": "nonpayable",
      "type": "function"
    },
    {
      "inputs": [],
      "name": "renounceMinter",
      "outputs": [],
      "stateMutability": "nonpayable",
      "type": "function"
    },
    {
      "inputs": [],
      "name": "renounceOwnership",
      "outputs": [],
      "stateMutability": "nonpayable",
      "type": "function"
    },
    {
      "inputs": [
        {
          "internalType": "address",
          "name": "newOwner",
          "type": "address"
        }
      ],
      "name": "transferOwnership",
      "outputs": [],
      "stateMutability": "nonpayable",
      "type": "function"
    },
    {
      "inputs": [],
      "name": "totalSupply",
      "outputs": [
        {
          "internalType": "uint256",
          "name": "",
          "type": "uint256"
        }
      ],
      "stateMutability": "view",
      "type": "function"
    },
    {
      "inputs": [
        {
          "internalType": "address",
          "name": "tokenHolder",
          "type": "address"
        }
      ],
      "name": "balanceOf",
      "outputs": [
        {
          "internalType": "uint256",
          "name": "",
          "type": "uint256"
        }
      ],
      "stateMutability": "view",
      "type": "function"
    },
    {
      "inputs": [
        {
          "internalType": "address",
          "name": "to",
          "type": "address"
        },
        {
          "internalType": "uint256",
          "name": "value",
          "type": "uint256"
        }
      ],
      "name": "transfer",
      "outputs": [
        {
          "internalType": "bool",
          "name": "",
          "type": "bool"
        }
      ],
      "stateMutability": "nonpayable",
      "type": "function"
    },
    {
      "inputs": [
        {
          "internalType": "address",
          "name": "owner",
          "type": "address"
        },
        {
          "internalType": "address",
          "name": "spender",
          "type": "address"
        }
      ],
      "name": "allowance",
      "outputs": [
        {
          "internalType": "uint256",
          "name": "",
          "type": "uint256"
        }
      ],
      "stateMutability": "view",
      "type": "function"
    },
    {
      "inputs": [
        {
          "internalType": "address",
          "name": "spender",
          "type": "address"
        },
        {
          "internalType": "uint256",
          "name": "value",
          "type": "uint256"
        }
      ],
      "name": "approve",
      "outputs": [
        {
          "internalType": "bool",
          "name": "",
          "type": "bool"
        }
      ],
      "stateMutability": "nonpayable",
      "type": "function"
    },
    {
      "inputs": [
        {
          "internalType": "address",
          "name": "from",
          "type": "address"
        },
        {
          "internalType": "address",
          "name": "to",
          "type": "address"
        },
        {
          "internalType": "uint256",
          "name": "value",
          "type": "uint256"
        }
      ],
      "name": "transferFrom",
      "outputs": [
        {
          "internalType": "bool",
          "name": "",
          "type": "bool"
        }
      ],
      "stateMutability": "nonpayable",
      "type": "function"
    },
    {
      "inputs": [
        {
          "internalType": "bytes32",
          "name": "documentName",
          "type": "bytes32"
        }
      ],
      "name": "getDocument",
      "outputs": [
        {
          "internalType": "string",
          "name": "",
          "type": "string"
        },
        {
          "internalType": "bytes32",
          "name": "",
          "type": "bytes32"
        },
        {
          "internalType": "uint256",
          "name": "",
          "type": "uint256"
        }
      ],
      "stateMutability": "view",
      "type": "function"
    },
    {
      "inputs": [
        {
          "internalType": "bytes32",
          "name": "documentName",
          "type": "bytes32"
        },
        {
          "internalType": "string",
          "name": "uri",
          "type": "string"
        },
        {
          "internalType": "bytes32",
          "name": "documentHash",
          "type": "bytes32"
        }
      ],
      "name": "setDocument",
      "outputs": [],
      "stateMutability": "nonpayable",
      "type": "function"
    },
    {
      "inputs": [
        {
          "internalType": "bytes32",
          "name": "documentName",
          "type": "bytes32"
        }
      ],
      "name": "removeDocument",
      "outputs": [],
      "stateMutability": "nonpayable",
      "type": "function"
    },
    {
      "inputs": [],
      "name": "getAllDocuments",
      "outputs": [
        {
          "internalType": "bytes32[]",
          "name": "",
          "type": "bytes32[]"
        }
      ],
      "stateMutability": "view",
      "type": "function"
    },
    {
      "inputs": [
        {
          "internalType": "bytes32",
          "name": "partition",
          "type": "bytes32"
        },
        {
          "internalType": "address",
          "name": "tokenHolder",
          "type": "address"
        }
      ],
      "name": "balanceOfByPartition",
      "outputs": [
        {
          "internalType": "uint256",
          "name": "",
          "type": "uint256"
        }
      ],
      "stateMutability": "view",
      "type": "function"
    },
    {
      "inputs": [
        {
          "internalType": "address",
          "name": "tokenHolder",
          "type": "address"
        }
      ],
      "name": "partitionsOf",
      "outputs": [
        {
          "internalType": "bytes32[]",
          "name": "",
          "type": "bytes32[]"
        }
      ],
      "stateMutability": "view",
      "type": "function"
    },
    {
      "inputs": [
        {
          "internalType": "address",
          "name": "to",
          "type": "address"
        },
        {
          "internalType": "uint256",
          "name": "value",
          "type": "uint256"
        },
        {
          "internalType": "bytes",
          "name": "data",
          "type": "bytes"
        }
      ],
      "name": "transferWithData",
      "outputs": [],
      "stateMutability": "nonpayable",
      "type": "function"
    },
    {
      "inputs": [
        {
          "internalType": "address",
          "name": "from",
          "type": "address"
        },
        {
          "internalType": "address",
          "name": "to",
          "type": "address"
        },
        {
          "internalType": "uint256",
          "name": "value",
          "type": "uint256"
        },
        {
          "internalType": "bytes",
          "name": "data",
          "type": "bytes"
        }
      ],
      "name": "transferFromWithData",
      "outputs": [],
      "stateMutability": "nonpayable",
      "type": "function"
    },
    {
      "inputs": [
        {
          "internalType": "bytes32",
          "name": "partition",
          "type": "bytes32"
        },
        {
          "internalType": "address",
          "name": "to",
          "type": "address"
        },
        {
          "internalType": "uint256",
          "name": "value",
          "type": "uint256"
        },
        {
          "internalType": "bytes",
          "name": "data",
          "type": "bytes"
        }
      ],
      "name": "transferByPartition",
      "outputs": [
        {
          "internalType": "bytes32",
          "name": "",
          "type": "bytes32"
        }
      ],
      "stateMutability": "nonpayable",
      "type": "function"
    },
    {
      "inputs": [
        {
          "internalType": "bytes32",
          "name": "partition",
          "type": "bytes32"
        },
        {
          "internalType": "address",
          "name": "from",
          "type": "address"
        },
        {
          "internalType": "address",
          "name": "to",
          "type": "address"
        },
        {
          "internalType": "uint256",
          "name": "value",
          "type": "uint256"
        },
        {
          "internalType": "bytes",
          "name": "data",
          "type": "bytes"
        },
        {
          "internalType": "bytes",
          "name": "operatorData",
          "type": "bytes"
        }
      ],
      "name": "operatorTransferByPartition",
      "outputs": [
        {
          "internalType": "bytes32",
          "name": "",
          "type": "bytes32"
        }
      ],
      "stateMutability": "nonpayable",
      "type": "function"
    },
    {
      "inputs": [],
      "name": "isControllable",
      "outputs": [
        {
          "internalType": "bool",
          "name": "",
          "type": "bool"
        }
      ],
      "stateMutability": "view",
      "type": "function"
    },
    {
      "inputs": [
        {
          "internalType": "address",
          "name": "operator",
          "type": "address"
        }
      ],
      "name": "authorizeOperator",
      "outputs": [],
      "stateMutability": "nonpayable",
      "type": "function"
    },
    {
      "inputs": [
        {
          "internalType": "address",
          "name": "operator",
          "type": "address"
        }
      ],
      "name": "revokeOperator",
      "outputs": [],
      "stateMutability": "nonpayable",
      "type": "function"
    },
    {
      "inputs": [
        {
          "internalType": "bytes32",
          "name": "partition",
          "type": "bytes32"
        },
        {
          "internalType": "address",
          "name": "operator",
          "type": "address"
        }
      ],
      "name": "authorizeOperatorByPartition",
      "outputs": [],
      "stateMutability": "nonpayable",
      "type": "function"
    },
    {
      "inputs": [
        {
          "internalType": "bytes32",
          "name": "partition",
          "type": "bytes32"
        },
        {
          "internalType": "address",
          "name": "operator",
          "type": "address"
        }
      ],
      "name": "revokeOperatorByPartition",
      "outputs": [],
      "stateMutability": "nonpayable",
      "type": "function"
    },
    {
      "inputs": [
        {
          "internalType": "address",
          "name": "operator",
          "type": "address"
        },
        {
          "internalType": "address",
          "name": "tokenHolder",
          "type": "address"
        }
      ],
      "name": "isOperator",
      "outputs": [
        {
          "internalType": "bool",
          "name": "",
          "type": "bool"
        }
      ],
      "stateMutability": "view",
      "type": "function"
    },
    {
      "inputs": [
        {
          "internalType": "bytes32",
          "name": "partition",
          "type": "bytes32"
        },
        {
          "internalType": "address",
          "name": "operator",
          "type": "address"
        },
        {
          "internalType": "address",
          "name": "tokenHolder",
          "type": "address"
        }
      ],
      "name": "isOperatorForPartition",
      "outputs": [
        {
          "internalType": "bool",
          "name": "",
          "type": "bool"
        }
      ],
      "stateMutability": "view",
      "type": "function"
    },
    {
      "inputs": [],
      "name": "isIssuable",
      "outputs": [
        {
          "internalType": "bool",
          "name": "",
          "type": "bool"
        }
      ],
      "stateMutability": "view",
      "type": "function"
    },
    {
      "inputs": [
        {
          "internalType": "address",
          "name": "tokenHolder",
          "type": "address"
        },
        {
          "internalType": "uint256",
          "name": "value",
          "type": "uint256"
        },
        {
          "internalType": "bytes",
          "name": "data",
          "type": "bytes"
        }
      ],
      "name": "issue",
      "outputs": [],
      "stateMutability": "nonpayable",
      "type": "function"
    },
    {
      "inputs": [
        {
          "internalType": "bytes32",
          "name": "partition",
          "type": "bytes32"
        },
        {
          "internalType": "address",
          "name": "tokenHolder",
          "type": "address"
        },
        {
          "internalType": "uint256",
          "name": "value",
          "type": "uint256"
        },
        {
          "internalType": "bytes",
          "name": "data",
          "type": "bytes"
        }
      ],
      "name": "issueByPartition",
      "outputs": [],
      "stateMutability": "nonpayable",
      "type": "function"
    },
    {
      "inputs": [
        {
          "internalType": "uint256",
          "name": "value",
          "type": "uint256"
        },
        {
          "internalType": "bytes",
          "name": "data",
          "type": "bytes"
        }
      ],
      "name": "redeem",
      "outputs": [],
      "stateMutability": "nonpayable",
      "type": "function"
    },
    {
      "inputs": [
        {
          "internalType": "address",
          "name": "from",
          "type": "address"
        },
        {
          "internalType": "uint256",
          "name": "value",
          "type": "uint256"
        },
        {
          "internalType": "bytes",
          "name": "data",
          "type": "bytes"
        }
      ],
      "name": "redeemFrom",
      "outputs": [],
      "stateMutability": "nonpayable",
      "type": "function"
    },
    {
      "inputs": [
        {
          "internalType": "bytes32",
          "name": "partition",
          "type": "bytes32"
        },
        {
          "internalType": "uint256",
          "name": "value",
          "type": "uint256"
        },
        {
          "internalType": "bytes",
          "name": "data",
          "type": "bytes"
        }
      ],
      "name": "redeemByPartition",
      "outputs": [],
      "stateMutability": "nonpayable",
      "type": "function"
    },
    {
      "inputs": [
        {
          "internalType": "bytes32",
          "name": "partition",
          "type": "bytes32"
        },
        {
          "internalType": "address",
          "name": "tokenHolder",
          "type": "address"
        },
        {
          "internalType": "uint256",
          "name": "value",
          "type": "uint256"
        },
        {
          "internalType": "bytes",
          "name": "operatorData",
          "type": "bytes"
        }
      ],
      "name": "operatorRedeemByPartition",
      "outputs": [],
      "stateMutability": "nonpayable",
      "type": "function"
    },
    {
      "inputs": [],
      "name": "name",
      "outputs": [
        {
          "internalType": "string",
          "name": "",
          "type": "string"
        }
      ],
      "stateMutability": "view",
      "type": "function"
    },
    {
      "inputs": [],
      "name": "symbol",
      "outputs": [
        {
          "internalType": "string",
          "name": "",
          "type": "string"
        }
      ],
      "stateMutability": "view",
      "type": "function"
    },
    {
      "inputs": [],
      "name": "decimals",
      "outputs": [
        {
          "internalType": "uint8",
          "name": "",
          "type": "uint8"
        }
      ],
      "stateMutability": "pure",
      "type": "function"
    },
    {
      "inputs": [],
      "name": "granularity",
      "outputs": [
        {
          "internalType": "uint256",
          "name": "",
          "type": "uint256"
        }
      ],
      "stateMutability": "view",
      "type": "function"
    },
    {
      "inputs": [],
      "name": "totalPartitions",
      "outputs": [
        {
          "internalType": "bytes32[]",
          "name": "",
          "type": "bytes32[]"
        }
      ],
      "stateMutability": "view",
      "type": "function"
    },
    {
      "inputs": [
        {
          "internalType": "bytes32",
          "name": "partition",
          "type": "bytes32"
        }
      ],
      "name": "totalSupplyByPartition",
      "outputs": [
        {
          "internalType": "uint256",
          "name": "",
          "type": "uint256"
        }
      ],
      "stateMutability": "view",
      "type": "function"
    },
    {
      "inputs": [],
      "name": "renounceControl",
      "outputs": [],
      "stateMutability": "nonpayable",
      "type": "function"
    },
    {
      "inputs": [],
      "name": "renounceIssuance",
      "outputs": [],
      "stateMutability": "nonpayable",
      "type": "function"
    },
    {
      "inputs": [],
      "name": "controllers",
      "outputs": [
        {
          "internalType": "address[]",
          "name": "",
          "type": "address[]"
        }
      ],
      "stateMutability": "view",
      "type": "function"
    },
    {
      "inputs": [
        {
          "internalType": "bytes32",
          "name": "partition",
          "type": "bytes32"
        }
      ],
      "name": "controllersByPartition",
      "outputs": [
        {
          "internalType": "address[]",
          "name": "",
          "type": "address[]"
        }
      ],
      "stateMutability": "view",
      "type": "function"
    },
    {
      "inputs": [
        {
          "internalType": "address[]",
          "name": "operators",
          "type": "address[]"
        }
      ],
      "name": "setControllers",
      "outputs": [],
      "stateMutability": "nonpayable",
      "type": "function"
    },
    {
      "inputs": [
        {
          "internalType": "bytes32",
          "name": "partition",
          "type": "bytes32"
        },
        {
          "internalType": "address[]",
          "name": "operators",
          "type": "address[]"
        }
      ],
      "name": "setPartitionControllers",
      "outputs": [],
      "stateMutability": "nonpayable",
      "type": "function"
    },
    {
      "inputs": [],
      "name": "getDefaultPartitions",
      "outputs": [
        {
          "internalType": "bytes32[]",
          "name": "",
          "type": "bytes32[]"
        }
      ],
      "stateMutability": "view",
      "type": "function"
    },
    {
      "inputs": [
        {
          "internalType": "bytes32[]",
          "name": "partitions",
          "type": "bytes32[]"
        }
      ],
      "name": "setDefaultPartitions",
      "outputs": [],
      "stateMutability": "nonpayable",
      "type": "function"
    },
    {
      "inputs": [
        {
          "internalType": "bytes32",
          "name": "partition",
          "type": "bytes32"
        },
        {
          "internalType": "address",
          "name": "owner",
          "type": "address"
        },
        {
          "internalType": "address",
          "name": "spender",
          "type": "address"
        }
      ],
      "name": "allowanceByPartition",
      "outputs": [
        {
          "internalType": "uint256",
          "name": "",
          "type": "uint256"
        }
      ],
      "stateMutability": "view",
      "type": "function"
    },
    {
      "inputs": [
        {
          "internalType": "bytes32",
          "name": "partition",
          "type": "bytes32"
        },
        {
          "internalType": "address",
          "name": "spender",
          "type": "address"
        },
        {
          "internalType": "uint256",
          "name": "value",
          "type": "uint256"
        }
      ],
      "name": "approveByPartition",
      "outputs": [
        {
          "internalType": "bool",
          "name": "",
          "type": "bool"
        }
      ],
      "stateMutability": "nonpayable",
      "type": "function"
    },
    {
      "inputs": [
        {
          "internalType": "address",
          "name": "extension",
          "type": "address"
        },
        {
          "internalType": "string",
          "name": "interfaceLabel",
          "type": "string"
        },
        {
          "internalType": "bool",
          "name": "removeOldExtensionRoles",
          "type": "bool"
        },
        {
          "internalType": "bool",
          "name": "addMinterRoleForExtension",
          "type": "bool"
        },
        {
          "internalType": "bool",
          "name": "addControllerRoleForExtension",
          "type": "bool"
        }
      ],
      "name": "setTokenExtension",
      "outputs": [],
      "stateMutability": "nonpayable",
      "type": "function"
    },
    {
      "inputs": [
        {
          "internalType": "address",
          "name": "newContractAddress",
          "type": "address"
        },
        {
          "internalType": "bool",
          "name": "definitive",
          "type": "bool"
        }
      ],
      "name": "migrate",
      "outputs": [],
      "stateMutability": "nonpayable",
      "type": "function"
    },
    {
      "inputs": [],
      "name": "domainName",
      "outputs": [
        {
          "internalType": "string",
          "name": "",
          "type": "string"
        }
      ],
      "stateMutability": "view",
      "type": "function"
    },
    {
      "inputs": [],
      "name": "domainVersion",
      "outputs": [
        {
          "internalType": "string",
          "name": "",
          "type": "string"
        }
      ],
      "stateMutability": "pure",
      "type": "function"
    }
  ],
  "bytecode": "0x60806040523480156200001157600080fd5b5060405162005077380380620050778339810160408190526200003491620008f5565b6200003f33620001c0565b6200004a3362000210565b6200005462000262565b5084516200006a906004906020880190620006cc565b50835162000080906005906020870190620006cc565b50600060075560018310156200009557600080fd5b6006839055620000a58262000288565b8051620000ba9060149060208401906200075b565b506008805462ffff0019166201010017905560408051808201909152600c81526b22a921989a18182a37b5b2b760a11b6020808301919091526200010a9190309062000385811b6200208d17901c565b620001436040518060400160405280600a81526020016922a92199182a37b5b2b760b11b815250306200038560201b6200208d1760201c565b6200017d6040518060400160405280600c81526020016b22a921989a18182a37b5b2b760a11b8152506200043360201b620021371760201c565b620001b56040518060400160405280600a81526020016922a92199182a37b5b2b760b11b8152506200043360201b620021371760201c565b505050505062000b6b565b600080546001600160a01b038381166001600160a01b0319831681178455604051919092169283917f8be0079c531659141344cd1fd0a4f28419497f9722a3daafe3b4186f6b6457e09190a35050565b6200022b8160026200048260201b620021841790919060201c565b6040516001600160a01b038216907f6ae172837ea30b801fbfcdd4108aa1d5bf8ff775444fd70256b44e6bf3dfc3f690600090a250565b600046816200027062000506565b60009283526003602052604090922082905550919050565b60005b601654811015620002fb5760006017600060168481548110620002b257620002b262000b3f565b6000918252602080832091909101546001600160a01b031683528201929092526040019020805460ff191691151591909117905580620002f28162000b15565b9150506200028b565b5060005b81518110156200036b5760016017600084848151811062000324576200032462000b3f565b6020908102919091018101516001600160a01b03168252810191909152604001600020805460ff191691151591909117905580620003628162000b15565b915050620002ff565b5080516200038190601690602084019062000798565b5050565b6000826040516020016200039a919062000a2e565b60408051808303601f190181529082905280516020909101206329965a1d60e01b8252306004830152602482018190526001600160a01b03841660448301529150731820a4b7618bde71dce8cdc73aab6c95905fad24906329965a1d90606401600060405180830381600087803b1580156200041557600080fd5b505af11580156200042a573d6000803e3d6000fd5b50505050505050565b6001806000836040516020016200044b919062000a2e565b60408051808303601f19018152918152815160209283012083529082019290925201600020805460ff191691151591909117905550565b6200048e8282620005ad565b15620004e15760405162461bcd60e51b815260206004820152601f60248201527f526f6c65733a206163636f756e7420616c72656164792068617320726f6c650060448201526064015b60405180910390fd5b6001600160a01b0316600090815260209190915260409020805460ff19166001179055565b600046817f8b73c3c69bb8fe3d512ecc4cf759cc79239f7b179b0ffacaa9a75d522b39400f6200053562000632565b80516020909101206200055c6040805180820190915260018152603160f81b602082015290565b80516020918201206040805192830194909452928101919091526060810191909152608081018390523060a082015260c00160408051601f1981840301815291905280516020909101209392505050565b60006001600160a01b038216620006125760405162461bcd60e51b815260206004820152602260248201527f526f6c65733a206163636f756e7420697320746865207a65726f206164647265604482015261737360f01b6064820152608401620004d8565b506001600160a01b03166000908152602091909152604090205460ff1690565b606060048054620006439062000ad8565b80601f0160208091040260200160405190810160405280929190818152602001828054620006719062000ad8565b8015620006c25780601f106200069657610100808354040283529160200191620006c2565b820191906000526020600020905b815481529060010190602001808311620006a457829003601f168201915b5050505050905090565b828054620006da9062000ad8565b90600052602060002090601f016020900481019282620006fe576000855562000749565b82601f106200071957805160ff191683800117855562000749565b8280016001018555821562000749579182015b82811115620007495782518255916020019190600101906200072c565b5062000757929150620007f0565b5090565b828054828255906000526020600020908101928215620007495791602002820182811115620007495782518255916020019190600101906200072c565b82805482825590600052602060002090810192821562000749579160200282015b828111156200074957825182546001600160a01b0319166001600160a01b03909116178255602090920191600190910190620007b9565b5b80821115620007575760008155600101620007f1565b600082601f8301126200081957600080fd5b81516020620008326200082c8362000a7f565b62000a4c565b80838252828201915082860187848660051b89010111156200085357600080fd5b60005b85811015620008745781518452928401929084019060010162000856565b5090979650505050505050565b600082601f8301126200089357600080fd5b81516001600160401b03811115620008af57620008af62000b55565b620008c4601f8201601f191660200162000a4c565b818152846020838601011115620008da57600080fd5b620008ed82602083016020870162000aa5565b949350505050565b600080600080600060a086880312156200090e57600080fd5b85516001600160401b03808211156200092657600080fd5b6200093489838a0162000881565b96506020915081880151818111156200094c57600080fd5b6200095a8a828b0162000881565b965050604088015194506060880151818111156200097757600080fd5b8801601f81018a136200098957600080fd5b80516200099a6200082c8262000a7f565b8082825285820191508584018d878560051b8701011115620009bb57600080fd5b600094505b83851015620009f65780516001600160a01b0381168114620009e157600080fd5b835260019490940193918601918601620009c0565b5060808c015190975094505050508082111562000a1257600080fd5b5062000a218882890162000807565b9150509295509295909350565b6000825162000a4281846020870162000aa5565b9190910192915050565b604051601f8201601f191681016001600160401b038111828210171562000a775762000a7762000b55565b604052919050565b60006001600160401b0382111562000a9b5762000a9b62000b55565b5060051b60200190565b60005b8381101562000ac257818101518382015260200162000aa8565b8381111562000ad2576000848401525b50505050565b600181811c9082168062000aed57607f821691505b6020821081141562000b0f57634e487b7160e01b600052602260045260246000fd5b50919050565b600060001982141562000b3857634e487b7160e01b600052601160045260246000fd5b5060010190565b634e487b7160e01b600052603260045260246000fd5b634e487b7160e01b600052604160045260246000fd5b6144fc8062000b7b6000396000f3fe608060405234801561001057600080fd5b50600436106102b45760003560e01c8063010648ca146102b957806306fdde03146102ce578063095ea7b3146102ec578063103ef9e11461030f57806314d1e62f14610322578063168ecec51461033557806316e1aed41461034857806317ec83ca1461035b57806318160ddd146103a75780631d43e1c0146103af57806323b872dd146103b7578063249cb3fa146103ca5780632535f762146103dd5780632f1cae85146103f05780633092afd51461040157806330e8280314610414578063313ce567146104475780634c783bf514610456578063556f0dc71461046657806362eb00681461046e57806367c849191461048157806369598efe146104945780636c30d170146104a95780636d77cad6146104b157806370a08231146104c4578063715018a6146104ed578063740ab8f4146104f55780637cc0c3a714610508578063861ed3ea1461051d578063895d7386146102ce5780638c0dee9c146105305780638da5cb5b14610543578063933964c714610563578063959b8c3f1461057657806395d89b41146105895780639675193c14610591578063983b2d56146105a457806398650275146105b757806398ddcec7146105bf5780639fa5f50b146105d2578063a26734dc146105da578063a6f4f105146105fa578063a8082cb01461060d578063a9059cbb14610615578063aa271e1a14610628578063b10d6b411461063b578063b6363cf21461065d578063bb3acde914610670578063bcfdc0cf14610683578063c35018481461068b578063ca281fd91461069e578063dd62ed3e146106a6578063e77c646d146106df578063ea74838a146106f2578063ec9a6e8714610705578063ee532f3114610718578063f2fde38b1461072b578063f3d490db1461073e578063f698da2514610751578063fad8b32a14610759575b600080fd5b6102cc6102c7366004613f1c565b61076c565b005b6102d66108a6565b6040516102e391906141be565b60405180910390f35b6102ff6102fa366004613c91565b610938565b60405190151581526020016102e3565b6102cc61031d366004613d72565b6109ce565b6102ff610330366004613e80565b610a32565b6102cc610343366004613d72565b610aca565b6102cc610356366004613ed1565b610b2b565b610399610369366004613d97565b60009283526018602090815260408085206001600160a01b03948516865282528085209290931684525290205490565b6040519081526020016102e3565b600754610399565b6102d6610b9c565b6102ff6103c5366004613b23565b610bb7565b6103996103d8366004613d72565b610cd9565b6102cc6103eb366004613cbd565b610d38565b60085462010000900460ff166102ff565b6102cc61040f366004613ab0565b610d81565b610399610422366004613d72565b6001600160a01b03166000908152601360209081526040808320938352929052205490565b604051601281526020016102e3565b600854610100900460ff166102ff565b600654610399565b6102cc61047c366004613f6e565b610db9565b6102cc61048f366004613ea7565b610e0a565b61049c610ea8565b6040516102e391906140e8565b6102cc610eff565b6102ff6104bf366004613d97565b610f3c565b6103996104d2366004613ab0565b6001600160a01b031660009081526009602052604090205490565b6102cc610f51565b61049c610503366004613ab0565b610f8c565b610510610ff8565b6040516102e3919061409b565b61051061052b366004613d59565b611059565b61039961053e366004613dd9565b6110c4565b61054b611269565b6040516001600160a01b0390911681526020016102e3565b6102cc610571366004613bd6565b611278565b6102cc610584366004613ab0565b6112b5565b6102d6611324565b6102cc61059f366004613cbd565b611333565b6102cc6105b2366004613ab0565b61146f565b6102cc6114a4565b6102cc6105cd366004613ea7565b6114ad565b61049c611633565b6103996105e8366004613d59565b60009081526010602052604090205490565b6102cc610608366004613c0b565b611689565b610399611705565b6102ff610623366004613c91565b611792565b6102ff610636366004613ab0565b6117b9565b61064e610649366004613d59565b6117c6565b6040516102e3939291906141f3565b6102ff61066b366004613aea565b6118a4565b6102cc61067e366004613cbd565b6118b7565b61049c61198b565b6102cc610699366004613d59565b6119e1565b6102cc611cb6565b6103996106b4366004613aea565b6001600160a01b039182166000908152600a6020908152604080832093909416825291909152205490565b6102cc6106ed366004613fa8565b611cf2565b6102cc610700366004613d18565b611d34565b6102cc610713366004613d18565b611d9f565b6102cc610726366004613b64565b611dda565b6102cc610739366004613ab0565b611f17565b61039961074c366004613ea7565b611fb4565b610399612012565b6102cc610767366004613ab0565b612021565b3360009081526017602052604090205460ff1661078857600080fd5b604051806060016040528084848080601f0160208091040260200160405190810160405280939291908181526020018383808284376000920182905250938552505050602080830185905242604093840152878252600b81529190208251805191926107f9928492909101906138ac565b5060208281015160018301556040928301516002909201919091556000838152600c909152205461086457600d80546001810182557fd7b6990105719101dabeb77144f2a3385c8033acd3af97e9423a695e81ad1eb501829055546000828152600c60205260409020555b837fb4c22d60cd550a815744f04e3ff5278bf19684565ee00e2b084041b6024bd6f68484846040516108989392919061419a565b60405180910390a250505050565b6060600480546108b5906143f9565b80601f01602080910402602001604051908101604052809291908181526020018280546108e1906143f9565b801561092e5780601f106109035761010080835404028352916020019161092e565b820191906000526020600020905b81548152906001019060200180831161091157829003601f168201915b5050505050905090565b60006001600160a01b0383166109695760405162461bcd60e51b815260040161096090614250565b60405180910390fd5b336000818152600a602090815260408083206001600160a01b03881680855290835292819020869055518581529192917f8c5be1e5ebec7d5bd14f71427d1e84f3dd0314c0f7b2291e5b200ac8c7c3b925910160405180910390a35060015b92915050565b33600081815260196020908152604080832086845282528083206001600160a01b0386168085529252808320805460ff1916600117905551909185917f3646a897c70797ecc134b0adc32f471b07bf1d6f451133b0384badab531e3fd69190a45050565b60006001600160a01b038316610a5a5760405162461bcd60e51b815260040161096090614250565b6000848152601860209081526040808320338085529083528184206001600160a01b038816808652908452938290208690559051858152909187917ff061499aa77c2f6f5e25e34955a06623705344a88256cc861a121ec0bce5cfec910160405180910390a45060019392505050565b33600081815260196020908152604080832086845282528083206001600160a01b0386168085529252808320805460ff1916905551909185917f3b287c4f1bab4df949b33bceacef984f544dc5d5479930d00e4ee8c9d8dd96f29190a45050565b33610b34611269565b6001600160a01b031614610b5a5760405162461bcd60e51b815260040161096090614288565b610b978383838080602002602001604051908101604052809392919081815260200183836020028082843760009201919091525061220092505050565b505050565b6040805180820190915260018152603160f81b602082015290565b6000610bc33385612323565b80610bf157506001600160a01b0384166000908152600a602090815260408083203384529091529020548211155b610c0d5760405162461bcd60e51b8152600401610960906142bd565b6001600160a01b0384166000908152600a602090815260408083203384529091529020548211610c8e576001600160a01b0384166000908152600a60209081526040808320338452909152902054610c6590836123a2565b6001600160a01b0385166000908152600a60209081526040808320338452909152902055610cb3565b6001600160a01b0384166000908152600a602090815260408083203384529091528120555b610ccf33858585604051806020016040528060008152506123ae565b5060019392505050565b60008281526001602052604081205460ff1615610d305760405173455243313832305f4143434550545f4d4147494360601b60208201526034016040516020818303038152906040528051906020012090506109c8565b5060006109c8565b610d7b3333868686868080601f0160208091040260200160405190810160405280939291908181526020018383808284376000920191909152506123ae92505050565b50505050565b610d8a336117b9565b80610da4575033610d99611269565b6001600160a01b0316145b610dad57600080fd5b610db6816124f3565b50565b610d7b8433338686868080601f016020809104026020016040519081016040528093929190818152602001838380828437600092018290525060408051602081019091529081529250612535915050565b610e13336117b9565b80610e2d575033610e22611269565b6001600160a01b0316145b610e3657600080fd5b60085462010000900460ff16610e5e5760405162461bcd60e51b81526004016109609061426c565b610ea18533868686868080601f01602080910402602001604051908101604052809392919081815260200183838082843760009201919091525061260592505050565b5050505050565b6060600e80548060200260200160405190810160405280929190818152602001828054801561092e57602002820191906000526020600020905b815481526020019060010190808311610ee2575050505050905090565b33610f08611269565b6001600160a01b031614610f2e5760405162461bcd60e51b815260040161096090614288565b6008805462ff000019169055565b6000610f498484846126af565b949350505050565b33610f5a611269565b6001600160a01b031614610f805760405162461bcd60e51b815260040161096090614288565b610f8a6000612738565b565b6001600160a01b038116600090815260116020908152604091829020805483518184028101840190945280845260609392830182828015610fec57602002820191906000526020600020905b815481526020019060010190808311610fd8575b50505050509050919050565b6060601680548060200260200160405190810160405280929190818152602001828054801561092e57602002820191906000526020600020905b81546001600160a01b03168152600190910190602001808311611032575050505050905090565b6000818152601a6020908152604091829020805483518184028101840190945280845260609392830182828015610fec57602002820191906000526020600020905b81546001600160a01b0316815260019091019060200180831161109b5750505050509050919050565b60006110d189338a6126af565b80611106575060008981526018602090815260408083206001600160a01b038c16845282528083203384529091529020548611155b6111225760405162461bcd60e51b8152600401610960906142bd565b60008981526018602090815260408083206001600160a01b038c168452825280832033845290915290205486116111b85760008981526018602090815260408083206001600160a01b038c168452825280832033845290915290205461118890876123a2565b60008a81526018602090815260408083206001600160a01b038d16845282528083203384529091529020556111e4565b60008981526018602090815260408083206001600160a01b038c16845282528083203384529091528120555b61125c89338a8a8a8a8a8080601f01602080910402602001604051908101604052809392919081815260200183838082843760009201919091525050604080516020601f8e018190048102820181019092528c815292508c91508b908190840183828082843760009201919091525061278892505050565b9998505050505050505050565b6000546001600160a01b031690565b33611281611269565b6001600160a01b0316146112a75760405162461bcd60e51b815260040161096090614288565b6112b182826128e0565b5050565b6001600160a01b0381163314156112cb57600080fd5b6001600160a01b0381166000818152601560209081526040808320338085529252808320805460ff19166001179055519092917ff4caeb2d6ca8932a215a353d0703c326ec2d81fc68170f320eb2ab49e9df61f991a350565b6060600580546108b5906143f9565b61133d3385612323565b8061136b57506001600160a01b0384166000908152600a602090815260408083203384529091529020548311155b6113875760405162461bcd60e51b8152600401610960906142bd565b6001600160a01b0384166000908152600a602090815260408083203384529091529020548311611408576001600160a01b0384166000908152600a602090815260408083203384529091529020546113df90846123a2565b6001600160a01b0385166000908152600a6020908152604080832033845290915290205561142d565b6001600160a01b0384166000908152600a602090815260408083203384529091528120555b610d7b33858585858080601f01602080910402602001604051908101604052809392919081815260200183838082843760009201919091525061295192505050565b611478336117b9565b80611492575033611487611269565b6001600160a01b0316145b61149b57600080fd5b610db681612a8b565b610f8a336124f3565b6114b88533866126af565b806114ed575060008581526018602090815260408083206001600160a01b038816845282528083203384529091529020548311155b61151e5760405162461bcd60e51b815260206004820152600260248201526106a760f31b6044820152606401610960565b60008581526018602090815260408083206001600160a01b0388168452825280832033845290915290205483116115b45760008581526018602090815260408083206001600160a01b0388168452825280832033845290915290205461158490846123a2565b60008681526018602090815260408083206001600160a01b038916845282528083203384529091529020556115e0565b60008581526018602090815260408083206001600160a01b038816845282528083203384529091528120555b610ea1853386866040518060200160405280600081525087878080601f01602080910402602001604051908101604052809392919081815260200183838082843760009201919091525061253592505050565b6060600d80548060200260200160405190810160405280929190818152602001828054801561092e5760200282019190600052602060002090815481526020019060010190808311610ee2575050505050905090565b33611692611269565b6001600160a01b0316146116b85760405162461bcd60e51b815260040161096090614288565b6116fd8686868080601f016020809104026020016040519081016040528093929190818152602001838380828437600092019190915250889250879150869050612acd565b505050505050565b600046817f8b73c3c69bb8fe3d512ecc4cf759cc79239f7b179b0ffacaa9a75d522b39400f6117326108a6565b80519060200120611741610b9c565b80516020918201206040805192830194909452928101919091526060810191909152608081018390523060a082015260c00160408051601f1981840301815291905280516020909101209392505050565b60006117b033338585604051806020016040528060008152506123ae565b50600192915050565b60006109c8600283612b89565b6000818152600b6020526040812080546060929182916117e5906143f9565b151590506117f257600080fd5b6000848152600b602052604090206001810154600282015482548390611817906143f9565b80601f0160208091040260200160405190810160405280929190818152602001828054611843906143f9565b80156118905780601f1061186557610100808354040283529160200191611890565b820191906000526020600020905b81548152906001019060200180831161187357829003601f168201915b505050505092509250925092509193909250565b60006118b08383612323565b9392505050565b6118c0336117b9565b806118da5750336118cf611269565b6001600160a01b0316145b6118e357600080fd5b60085462010000900460ff1661190b5760405162461bcd60e51b81526004016109609061426c565b60145461192a5760405162461bcd60e51b81526004016109609061426c565b610d7b60146000815481106119415761194161447b565b906000526020600020015433868686868080601f01602080910402602001604051908101604052809392919081815260200183838082843760009201919091525061260592505050565b6060601480548060200260200160405190810160405280929190818152602001828054801561092e5760200282019190600052602060002090815481526020019060010190808311610ee2575050505050905090565b3360009081526017602052604090205460ff16611a2f5760405162461bcd60e51b815260206004820152600c60248201526b155b985d5d1a1bdc9a5e995960a21b6044820152606401610960565b6000818152600b602052604090208054611a48906143f9565b15159050611a905760405162461bcd60e51b8152602060048201526015602482015274111bd8dd5b595b9d08191bd95cdb9d08195e1a5cdd605a1b6044820152606401610960565b6000818152600b6020526040808220815160608101909252805482908290611ab7906143f9565b80601f0160208091040260200160405190810160405280929190818152602001828054611ae3906143f9565b8015611b305780601f10611b0557610100808354040283529160200191611b30565b820191906000526020600020905b815481529060010190602001808311611b1357829003601f168201915b505050505081526020016001820154815260200160028201548152505090506000600c60008360200151815260200190815260200160002054905060008111611bab5760405162461bcd60e51b815260206004820152600d60248201526c092dcecc2d8d2c840d2dcc8caf609b1b6044820152606401610960565b600d805460009190611bbf906001906143b6565b81548110611bcf57611bcf61447b565b9060005260206000200154905080600d600184611bec91906143b6565b81548110611bfc57611bfc61447b565b6000918252602080832090910192909255828152600c90915260409020829055600d805480611c2d57611c2d614465565b600082815260208082208301600019908101839055909201909255848101518252600c81526040808320839055868352600b909152812090611c6f8282613930565b506000600182018190556002909101558251602084015160405186927f3d9bba27d3e360d8c80645beed7e991454a8271bf6f269a24f7782be0f0d065492610898926141d1565b33611cbf611269565b6001600160a01b031614611ce55760405162461bcd60e51b815260040161096090614288565b6008805461ff0019169055565b610b9733338585858080601f01602080910402602001604051908101604052809392919081815260200183838082843760009201919091525061295192505050565b33611d3d611269565b6001600160a01b031614611d635760405162461bcd60e51b815260040161096090614288565b6112b1828280806020026020016040519081016040528093929190818152602001838360200280828437600092019190915250612c0c92505050565b33611da8611269565b6001600160a01b031614611dce5760405162461bcd60e51b815260040161096090614288565b610b976014838361396a565b611de43386612323565b80611e1257506001600160a01b0385166000908152600a602090815260408083203384529091529020548311155b611e2e5760405162461bcd60e51b8152600401610960906142bd565b6001600160a01b0385166000908152600a602090815260408083203384529091529020548311611eaf576001600160a01b0385166000908152600a60209081526040808320338452909152902054611e8690846123a2565b6001600160a01b0386166000908152600a60209081526040808320338452909152902055611ed4565b6001600160a01b0385166000908152600a602090815260408083203384529091528120555b610ea13386868686868080601f0160208091040260200160405190810160405280939291908181526020018383808284376000920191909152506123ae92505050565b33611f20611269565b6001600160a01b031614611f465760405162461bcd60e51b815260040161096090614288565b6001600160a01b038116611fab5760405162461bcd60e51b815260206004820152602660248201527f4f776e61626c653a206e6577206f776e657220697320746865207a65726f206160448201526564647265737360d01b6064820152608401610960565b610db681612738565b6000612008863333888888888080601f016020809104026020016040519081016040528093929190818152602001838380828437600092018290525060408051602081019091529081529250612788915050565b9695505050505050565b600061201c612cf5565b905090565b6001600160a01b03811633141561203757600080fd5b6001600160a01b0381166000818152601560209081526040808320338085529252808320805460ff19169055519092917f50546e66e5f44d728365dc3908c63bc5cfeeab470722c1677e3073a6ac294aa191a350565b6000826040516020016120a0919061403b565b60408051808303601f190181529082905280516020909101206329965a1d60e01b8252306004830152602482018190526001600160a01b03841660448301529150731820a4b7618bde71dce8cdc73aab6c95905fad24906329965a1d90606401600060405180830381600087803b15801561211a57600080fd5b505af115801561212e573d6000803e3d6000fd5b50505050505050565b60018060008360405160200161214d919061403b565b60408051808303601f19018152918152815160209283012083529082019290925201600020805460ff191691151591909117905550565b61218e8282612b89565b156121db5760405162461bcd60e51b815260206004820152601f60248201527f526f6c65733a206163636f756e7420616c72656164792068617320726f6c65006044820152606401610960565b6001600160a01b0316600090815260209190915260409020805460ff19166001179055565b60005b6000838152601a602052604090205481101561228c576000838152601b60209081526040808320601a90925282208054839190859081106122465761224661447b565b6000918252602080832091909101546001600160a01b031683528201929092526040019020805460ff19169115159190911790558061228481614434565b915050612203565b5060005b8151811015612303576000838152601b602052604081208351600192908590859081106122bf576122bf61447b565b6020908102919091018101516001600160a01b03168252810191909152604001600020805460ff1916911515919091179055806122fb81614434565b915050612290565b506000828152601a602090815260409091208251610b97928401906139a5565b6000816001600160a01b0316836001600160a01b0316148061236a57506001600160a01b0380841660009081526015602090815260408083209386168352929052205460ff165b806118b05750600854610100900460ff1680156118b0575050506001600160a01b031660009081526017602052604090205460ff1690565b60006118b082846143b6565b6014546123cd5760405162461bcd60e51b81526004016109609061426c565b816000805b6014548110156124d4576001600160a01b0387166000908152601360205260408120601480549192918490811061240b5761240b61447b565b9060005260206000200154815260200190815260200160002054915081831161247357612469601482815481106124445761244461447b565b9060005260206000200154898989878960405180602001604052806000815250612788565b50600092506124d4565b81156124c2576124b46014828154811061248f5761248f61447b565b9060005260206000200154898989868960405180602001604052806000815250612788565b506124bf82846143b6565b92505b806124cc81614434565b9150506123d2565b50811561212e5760405162461bcd60e51b8152600401610960906142d9565b6124fe600282612d1e565b6040516001600160a01b038216907fe94479a9f7e1952cc78f2d6baab678adc1b772d936c6583def489e524cb6669290600090a250565b6001600160a01b03841660009081526013602090815260408083208984529091529020548311156125785760405162461bcd60e51b8152600401610960906142d9565b6125888686866000878787612da0565b6125988686866000878787612e62565b6125a3848785612eea565b6125af858585856131a9565b836001600160a01b0316856001600160a01b0316877fce306c3dbc4a497124b5a4f2be8388b41084c1d74663da27ecee1186c00239bf86856040516125f5929190614311565b60405180910390a4505050505050565b6126248585600086868660405180602001604052806000815250612e62565b61263084848484613321565b61263b83868461344a565b61265a8585600086868660405180602001604052806000815250613588565b826001600160a01b0316846001600160a01b0316867ff0ded82afbb1bb3ff3fc48cb2a26584aa84e4af0bf309c804ecdb94d0f6a98bb85856040516126a092919061432a565b60405180910390a45050505050565b60006126bb8383612323565b806126f357506001600160a01b03808316600090815260196020908152604080832088845282528083209387168352929052205460ff165b80610f495750600854610100900460ff168015610f49575050506000918252601b602090815260408084206001600160a01b0393909316845291905290205460ff1690565b600080546001600160a01b038381166001600160a01b0319831681178455604051919092169283917f8be0079c531659141344cd1fd0a4f28419497f9722a3daafe3b4186f6b6457e09190a35050565b6001600160a01b03851660009081526013602090815260408083208a84529091528120548411156127cb5760405162461bcd60e51b8152600401610960906142d9565b81518890158015906127df57506040845110155b156127f1576127ee8985613610565b90505b61280089898989898989612da0565b61280f89898989898989612e62565b61281a878a87612eea565b61282587878761363c565b61283086828761344a565b61283f81898989898989613588565b856001600160a01b0316876001600160a01b03168a7fff4e9a26af4eb73b8bacfaa4abd4fea03d9448e7b912dc5ff4019048875aa2d48b8989896040516128899493929190614057565b60405180910390a48881146128d45780897f67c8ba31d2dd11f1384577b3405b04ed91eed1231e408432ad2458cab37b2fa1876040516128cb91815260200190565b60405180910390a35b98975050505050505050565b61290c6040518060400160405280600a81526020016922a92199182a37b5b2b760b11b8152508361208d565b61293a6040518060400160405280600c81526020016b22a921989a18182a37b5b2b760a11b8152508361208d565b80156112b1576008805460ff191660011790555050565b6014546129705760405162461bcd60e51b81526004016109609061426c565b816000805b601454811015612a6c576001600160a01b038616600090815260136020526040812060148054919291849081106129ae576129ae61447b565b90600052602060002001548152602001908152602001600020549150818311612a1457612a0b601482815481106129e7576129e761447b565b90600052602060002001548888868860405180602001604052806000815250612535565b60009250612a6c565b612a4e60148281548110612a2a57612a2a61447b565b90600052602060002001548888858860405180602001604052806000815250612535565b612a5882846143b6565b925080612a6481614434565b915050612975565b5081156116fd5760405162461bcd60e51b8152600401610960906142d9565b612a96600282612184565b6040516001600160a01b038216907f6ae172837ea30b801fbfcdd4108aa1d5bf8ff775444fd70256b44e6bf3dfc3f690600090a250565b6000612ad93086613783565b90506001600160a01b03811615801590612af05750835b15612b2d57612afe816117b9565b15612b0c57612b0c816124f3565b6001600160a01b0381166000908152601760205260409020805460ff191690555b612b37858761208d565b828015612b4a5750612b48866117b9565b155b15612b5857612b5886612a8b565b81156116fd576001600160a01b0386166000908152601760205260409020805460ff19166001179055505050505050565b60006001600160a01b038216612bec5760405162461bcd60e51b815260206004820152602260248201527f526f6c65733a206163636f756e7420697320746865207a65726f206164647265604482015261737360f01b6064820152608401610960565b506001600160a01b03166000908152602091909152604090205460ff1690565b60005b601654811015612c785760006017600060168481548110612c3257612c3261447b565b6000918252602080832091909101546001600160a01b031683528201929092526040019020805460ff191691151591909117905580612c7081614434565b915050612c0f565b5060005b8151811015612ce157600160176000848481518110612c9d57612c9d61447b565b6020908102919091018101516001600160a01b03168252810191909152604001600020805460ff191691151591909117905580612cd981614434565b915050612c7c565b5080516112b19060169060208401906139a5565b466000908152600360205260408120548015612d1057919050565b612d18613841565b91505090565b612d288282612b89565b612d7e5760405162461bcd60e51b815260206004820152602160248201527f526f6c65733a206163636f756e7420646f6573206e6f74206861766520726f6c6044820152606560f81b6064820152608401610960565b6001600160a01b0316600090815260209190915260409020805460ff19169055565b6000612dd7866040518060400160405280601381526020017222a921989a18182a37b5b2b739a9b2b73232b960691b815250613783565b90506001600160a01b03811615612e585760405163139d569560e21b81526001600160a01b03821690634e755a5490612e259060009036908d908d908d908d908d908d908d90600401614120565b600060405180830381600087803b158015612e3f57600080fd5b505af1158015612e53573d6000803e3d6000fd5b505050505b5050505050505050565b6000612e9c306040518060400160405280601681526020017522a921989a18182a37b5b2b739ab30b634b230ba37b960511b815250613783565b90506001600160a01b03811615612e5857604051632907d53b60e11b81526001600160a01b0382169063520faa7690612e259060009036908d908d908d908d908d908d908d90600401614120565b6001600160a01b0383166000908152601360209081526040808320858452909152902054612f1890826123a2565b6001600160a01b0384166000908152601360209081526040808320868452825280832093909355601090522054612f4f90826123a2565b600083815260106020526040902081905561303c576000828152600f602052604090205480612f905760405162461bcd60e51b815260040161096090614234565b600e805460009190612fa4906001906143b6565b81548110612fb457612fb461447b565b9060005260206000200154905080600e600184612fd191906143b6565b81548110612fe157612fe161447b565b6000918252602080832090910192909255828152600f90915260409020829055600e80548061301257613012614465565b600082815260208082208301600019908101839055909201909255858252600f9052604081205550505b6001600160a01b0383166000908152601360209081526040808320858452909152902054610b97576001600160a01b0383166000908152601260209081526040808320858452909152902054806130a55760405162461bcd60e51b815260040161096090614234565b6001600160a01b038416600090815260116020526040812080546130cb906001906143b6565b815481106130db576130db61447b565b60009182526020808320909101546001600160a01b038816835260119091526040909120909150819061310f6001856143b6565b8154811061311f5761311f61447b565b60009182526020808320909101929092556001600160a01b038716808252601283526040808320858452845280832086905590825260119092522080548061316957613169614465565b6000828152602080822083016000199081018390559092019092556001600160a01b03871682526012815260408083208784529091528120555050505050565b60085460ff16156131cc5760405162461bcd60e51b815260040161096090614218565b6131d582613865565b6131f15760405162461bcd60e51b815260040161096090614234565b6001600160a01b0383166132175760405162461bcd60e51b815260040161096090614250565b6001600160a01b03831660009081526009602052604090205482111561324f5760405162461bcd60e51b8152600401610960906142d9565b6001600160a01b03831660009081526009602052604090205461327290836123a2565b6001600160a01b03841660009081526009602052604090205560075461329890836123a2565b600781905550826001600160a01b0316846001600160a01b03167fb7d0d6b60740753e9f16692a2f479472a1385aec2420fa43225b02f2ffa1afe784846040516132e3929190614311565b60405180910390a36040518281526000906001600160a01b038516906000805160206144a7833981519152906020015b60405180910390a350505050565b60085460ff16156133445760405162461bcd60e51b815260040161096090614218565b61334d82613865565b6133695760405162461bcd60e51b815260040161096090614234565b6001600160a01b03831661338f5760405162461bcd60e51b8152600401610960906142f5565b60075461339c9083613888565b6007556001600160a01b0383166000908152600960205260409020546133c29083613888565b6001600160a01b0380851660008181526009602052604090819020939093559151908616907f0e9905d62635f049c2f4e11678ebf9dc3d1f8c4a653e290759b772e47ba00d00906134169086908690614311565b60405180910390a36040518281526001600160a01b038416906000906000805160206144a783398151915290602001613313565b8015610b97576001600160a01b03831660009081526012602090815260408083208584529091529020546134bc576001600160a01b0383166000818152601160209081526040808320805460018101825581855283852001879055938352925460128252838320868452909152919020555b6001600160a01b03831660009081526013602090815260408083208584529091529020546134ea9082613888565b6001600160a01b0384166000908152601360209081526040808320868452825280832093909355600f9052205461355b57600e80546001810182557fbb7b4a454dc3493923482f07822329ed19e8244eff582cc204f8554c3620c3fd01839055546000838152600f60205260409020555b6000828152601060205260409020546135749082613888565b600083815260106020526040902055505050565b60006135c28560405180604001604052806016815260200175115490cc4d0c0c151bdad95b9cd49958da5c1a595b9d60521b815250613783565b90506001600160a01b03811615612e5857604051637a325abb60e11b81526001600160a01b0382169063f464b57690612e259060009036908d908d908d908d908d908d908d90600401614120565b602081015160009060001990808214156136305760408401519250613634565b8492505b505092915050565b60085460ff161561365f5760405162461bcd60e51b815260040161096090614218565b61366881613865565b6136845760405162461bcd60e51b815260040161096090614234565b6001600160a01b0382166136aa5760405162461bcd60e51b8152600401610960906142f5565b6001600160a01b0383166000908152600960205260409020548111156136e25760405162461bcd60e51b8152600401610960906142d9565b6001600160a01b03831660009081526009602052604090205461370590826123a2565b6001600160a01b0380851660009081526009602052604080822093909355908416815220546137349082613888565b6001600160a01b0380841660008181526009602052604090819020939093559151908516906000805160206144a7833981519152906137769085815260200190565b60405180910390a3505050565b60008082604051602001613797919061403b565b60408051808303601f1901815290829052805160209091012063555ddc6560e11b82526001600160a01b0386166004830152602482018190529150731820a4b7618bde71dce8cdc73aab6c95905fad249063aabbb8ca9060440160206040518083038186803b15801561380957600080fd5b505afa15801561381d573d6000803e3d6000fd5b505050506040513d601f19601f82011682018060405250810190610f499190613acd565b6000468161384d611705565b60009283526003602052604090922082905550919050565b60065460009082906138819061387b8382613894565b906138a0565b1492915050565b60006118b0828461435d565b60006118b08284614375565b60006118b08284614397565b8280546138b8906143f9565b90600052602060002090601f0160209004810192826138da5760008555613920565b82601f106138f357805160ff1916838001178555613920565b82800160010185558215613920579182015b82811115613920578251825591602001919060010190613905565b5061392c9291506139fa565b5090565b50805461393c906143f9565b6000825580601f1061394c575050565b601f016020900490600052602060002090810190610db691906139fa565b828054828255906000526020600020908101928215613920579160200282015b8281111561392057823582559160200191906001019061398a565b828054828255906000526020600020908101928215613920579160200282015b8281111561392057825182546001600160a01b0319166001600160a01b039091161782556020909201916001909101906139c5565b5b8082111561392c57600081556001016139fb565b60008083601f840112613a2157600080fd5b5081356001600160401b03811115613a3857600080fd5b6020830191508360208260051b8501011115613a5357600080fd5b9250929050565b80358015158114613a6a57600080fd5b919050565b60008083601f840112613a8157600080fd5b5081356001600160401b03811115613a9857600080fd5b602083019150836020828501011115613a5357600080fd5b600060208284031215613ac257600080fd5b81356118b081614491565b600060208284031215613adf57600080fd5b81516118b081614491565b60008060408385031215613afd57600080fd5b8235613b0881614491565b91506020830135613b1881614491565b809150509250929050565b600080600060608486031215613b3857600080fd5b8335613b4381614491565b92506020840135613b5381614491565b929592945050506040919091013590565b600080600080600060808688031215613b7c57600080fd5b8535613b8781614491565b94506020860135613b9781614491565b93506040860135925060608601356001600160401b03811115613bb957600080fd5b613bc588828901613a6f565b969995985093965092949392505050565b60008060408385031215613be957600080fd5b8235613bf481614491565b9150613c0260208401613a5a565b90509250929050565b60008060008060008060a08789031215613c2457600080fd5b8635613c2f81614491565b955060208701356001600160401b03811115613c4a57600080fd5b613c5689828a01613a6f565b9096509450613c69905060408801613a5a565b9250613c7760608801613a5a565b9150613c8560808801613a5a565b90509295509295509295565b60008060408385031215613ca457600080fd5b8235613caf81614491565b946020939093013593505050565b60008060008060608587031215613cd357600080fd5b8435613cde81614491565b93506020850135925060408501356001600160401b03811115613d0057600080fd5b613d0c87828801613a6f565b95989497509550505050565b60008060208385031215613d2b57600080fd5b82356001600160401b03811115613d4157600080fd5b613d4d85828601613a0f565b90969095509350505050565b600060208284031215613d6b57600080fd5b5035919050565b60008060408385031215613d8557600080fd5b823591506020830135613b1881614491565b600080600060608486031215613dac57600080fd5b833592506020840135613dbe81614491565b91506040840135613dce81614491565b809150509250925092565b60008060008060008060008060c0898b031215613df557600080fd5b883597506020890135613e0781614491565b96506040890135613e1781614491565b95506060890135945060808901356001600160401b0380821115613e3a57600080fd5b613e468c838d01613a6f565b909650945060a08b0135915080821115613e5f57600080fd5b50613e6c8b828c01613a6f565b999c989b5096995094979396929594505050565b600080600060608486031215613e9557600080fd5b833592506020840135613b5381614491565b600080600080600060808688031215613ebf57600080fd5b853594506020860135613b9781614491565b600080600060408486031215613ee657600080fd5b8335925060208401356001600160401b03811115613f0357600080fd5b613f0f86828701613a0f565b9497909650939450505050565b60008060008060608587031215613f3257600080fd5b8435935060208501356001600160401b03811115613f4f57600080fd5b613f5b87828801613a6f565b9598909750949560400135949350505050565b60008060008060608587031215613f8457600080fd5b843593506020850135925060408501356001600160401b03811115613d0057600080fd5b600080600060408486031215613fbd57600080fd5b8335925060208401356001600160401b03811115613fda57600080fd5b613f0f86828701613a6f565b81835281816020850137506000828201602090810191909152601f909101601f19169091010190565b600081518084526140278160208601602086016143cd565b601f01601f19169290920160200192915050565b6000825161404d8184602087016143cd565b9190910192915050565b60018060a01b038516815283602082015260806040820152600061407e608083018561400f565b8281036060840152614090818561400f565b979650505050505050565b6020808252825182820181905260009190848201906040850190845b818110156140dc5783516001600160a01b0316835292840192918401916001016140b7565b50909695505050505050565b6020808252825182820181905260009190848201906040850190845b818110156140dc57835183529284019291840191600101614104565b60006101008083526141358184018c8e613fe6565b602084018b90526001600160a01b038a8116604086015289811660608601528816608085015260a0840187905283810360c08501529050614176818661400f565b905082810360e084015261418a818561400f565b9c9b505050505050505050505050565b6040815260006141ae604083018587613fe6565b9050826020830152949350505050565b6020815260006118b0602083018461400f565b6040815260006141e4604083018561400f565b90508260208301529392505050565b606081526000614206606083018661400f565b60208301949094525060400152919050565b6020808252600290820152610d4d60f21b604082015260600190565b602080825260029082015261035360f41b604082015260600190565b6020808252600290820152611a9b60f11b604082015260600190565b602080825260029082015261353560f01b604082015260600190565b6020808252818101527f4f776e61626c653a2063616c6c6572206973206e6f7420746865206f776e6572604082015260600190565b602080825260029082015261353360f01b604082015260600190565b6020808252600290820152611a9960f11b604082015260600190565b602080825260029082015261353760f01b604082015260600190565b828152604060208201526000610f49604083018461400f565b828152606060208201526000614343606083018461400f565b828103604084015260008152602081019150509392505050565b600082198211156143705761437061444f565b500190565b60008261439257634e487b7160e01b600052601260045260246000fd5b500490565b60008160001904831182151516156143b1576143b161444f565b500290565b6000828210156143c8576143c861444f565b500390565b60005b838110156143e85781810151838201526020016143d0565b83811115610d7b5750506000910152565b600181811c9082168061440d57607f821691505b6020821081141561442e57634e487b7160e01b600052602260045260246000fd5b50919050565b60006000198214156144485761444861444f565b5060010190565b634e487b7160e01b600052601160045260246000fd5b634e487b7160e01b600052603160045260246000fd5b634e487b7160e01b600052603260045260246000fd5b6001600160a01b0381168114610db657600080fdfeddf252ad1be2c89b69c2b068fc378daa952ba7f163c4a11628f55a4df523b3efa2646970667358221220848390639b7b8928d200a5ffff46f5945e3117a910fde5592e8513fc1458136764736f6c63430008070033",
  "immutableReferences": {},
  "source": "// SPDX-License-Identifier: Apache-2.0\n/*\n * This code has not been reviewed.\n * Do not use or deploy this code before reviewing it personally first.\n */\npragma solidity ^0.8.0;\n\nimport \"@openzeppelin/contracts/utils/math/SafeMath.sol\";\nimport \"@openzeppelin/contracts/access/Ownable.sol\";\nimport \"@openzeppelin/contracts/token/ERC20/IERC20.sol\";\n\nimport \"./tools/ERC1820Client.sol\";\nimport \"./interface/ERC1820Implementer.sol\";\n\nimport \"./roles/MinterRole.sol\";\n\nimport \"./IERC1400.sol\";\n\n// Extensions\nimport \"./extensions/tokenExtensions/IERC1400TokensValidator.sol\";\nimport \"./extensions/tokenExtensions/IERC1400TokensChecker.sol\";\nimport \"./extensions/userExtensions/IERC1400TokensSender.sol\";\nimport \"./extensions/userExtensions/IERC1400TokensRecipient.sol\";\nimport \"./tools/DomainAware.sol\";\n\n\n/**\n * @title ERC1400\n * @dev ERC1400 logic\n */\ncontract ERC1400 is IERC20, IERC1400, Ownable, ERC1820Client, ERC1820Implementer, MinterRole, DomainAware {\n  using SafeMath for uint256;\n\n  // Token\n  string constant internal ERC1400_INTERFACE_NAME = \"ERC1400Token\";\n  string constant internal ERC20_INTERFACE_NAME = \"ERC20Token\";\n\n  // Token extensions\n  string constant internal ERC1400_TOKENS_CHECKER = \"ERC1400TokensChecker\";\n  string constant internal ERC1400_TOKENS_VALIDATOR = \"ERC1400TokensValidator\";\n\n  // User extensions\n  string constant internal ERC1400_TOKENS_SENDER = \"ERC1400TokensSender\";\n  string constant internal ERC1400_TOKENS_RECIPIENT = \"ERC1400TokensRecipient\";\n\n  /************************************* Token description ****************************************/\n  string internal _name;\n  string internal _symbol;\n  uint256 internal _granularity;\n  uint256 internal _totalSupply;\n  bool internal _migrated;\n  /************************************************************************************************/\n\n\n  /**************************************** Token behaviours **************************************/\n  // Indicate whether the token can still be controlled by operators or not anymore.\n  bool internal _isControllable;\n\n  // Indicate whether the token can still be issued by the issuer or not anymore.\n  bool internal _isIssuable;\n  /************************************************************************************************/\n\n\n  /********************************** ERC20 Token mappings ****************************************/\n  // Mapping from tokenHolder to balance.\n  mapping(address => uint256) internal _balances;\n\n  // Mapping from (tokenHolder, spender) to allowed value.\n  mapping (address => mapping (address => uint256)) internal _allowed;\n  /************************************************************************************************/\n\n\n  /**************************************** Documents *********************************************/\n  struct Doc {\n    string docURI;\n    bytes32 docHash;\n    uint256 timestamp;\n  }\n  // Mapping for documents.\n  mapping(bytes32 => Doc) internal _documents;\n  mapping(bytes32 => uint256) internal _indexOfDocHashes;\n  bytes32[] internal _docHashes;\n  /************************************************************************************************/\n\n\n  /*********************************** Partitions  mappings ***************************************/\n  // List of partitions.\n  bytes32[] internal _totalPartitions;\n\n  // Mapping from partition to their index.\n  mapping (bytes32 => uint256) internal _indexOfTotalPartitions;\n\n  // Mapping from partition to global balance of corresponding partition.\n  mapping (bytes32 => uint256) internal _totalSupplyByPartition;\n\n  // Mapping from tokenHolder to their partitions.\n  mapping (address => bytes32[]) internal _partitionsOf;\n\n  // Mapping from (tokenHolder, partition) to their index.\n  mapping (address => mapping (bytes32 => uint256)) internal _indexOfPartitionsOf;\n\n  // Mapping from (tokenHolder, partition) to balance of corresponding partition.\n  mapping (address => mapping (bytes32 => uint256)) internal _balanceOfByPartition;\n\n  // List of token default partitions (for ERC20 compatibility).\n  bytes32[] internal _defaultPartitions;\n  /************************************************************************************************/\n\n\n  /********************************* Global operators mappings ************************************/\n  // Mapping from (operator, tokenHolder) to authorized status. [TOKEN-HOLDER-SPECIFIC]\n  mapping(address => mapping(address => bool)) internal _authorizedOperator;\n\n  // Array of controllers. [GLOBAL - NOT TOKEN-HOLDER-SPECIFIC]\n  address[] internal _controllers;\n\n  // Mapping from operator to controller status. [GLOBAL - NOT TOKEN-HOLDER-SPECIFIC]\n  mapping(address => bool) internal _isController;\n  /************************************************************************************************/\n\n\n  /******************************** Partition operators mappings **********************************/\n  // Mapping from (partition, tokenHolder, spender) to allowed value. [TOKEN-HOLDER-SPECIFIC]\n  mapping(bytes32 => mapping (address => mapping (address => uint256))) internal _allowedByPartition;\n\n  // Mapping from (tokenHolder, partition, operator) to 'approved for partition' status. [TOKEN-HOLDER-SPECIFIC]\n  mapping (address => mapping (bytes32 => mapping (address => bool))) internal _authorizedOperatorByPartition;\n\n  // Mapping from partition to controllers for the partition. [NOT TOKEN-HOLDER-SPECIFIC]\n  mapping (bytes32 => address[]) internal _controllersByPartition;\n\n  // Mapping from (partition, operator) to PartitionController status. [NOT TOKEN-HOLDER-SPECIFIC]\n  mapping (bytes32 => mapping (address => bool)) internal _isControllerByPartition;\n  /************************************************************************************************/\n\n\n  /***************************************** Modifiers ********************************************/\n  /**\n   * @dev Modifier to verify if token is issuable.\n   */\n  modifier isIssuableToken() {\n    require(_isIssuable, \"55\"); // 0x55\tfunds locked (lockup period)\n    _;\n  }\n  /**\n   * @dev Modifier to make a function callable only when the contract is not migrated.\n   */\n  modifier isNotMigratedToken() {\n      require(!_migrated, \"54\"); // 0x54\ttransfers halted (contract paused)\n      _;\n  }\n  /**\n   * @dev Modifier to verifiy if sender is a minter.\n   */\n  modifier onlyMinter() override {\n      require(isMinter(msg.sender) || owner() == _msgSender());\n      _;\n  }\n  /************************************************************************************************/\n\n\n  /**************************** Events (additional - not mandatory) *******************************/\n  event ApprovalByPartition(bytes32 indexed partition, address indexed owner, address indexed spender, uint256 value);\n  /************************************************************************************************/\n\n\n  /**\n   * @dev Initialize ERC1400 + register the contract implementation in ERC1820Registry.\n   * @param tokenName Name of the token.\n   * @param tokenSymbol Symbol of the token.\n   * @param tokenGranularity Granularity of the token.\n   * @param initialControllers Array of initial controllers.\n   * @param defaultPartitions Partitions chosen by default, when partition is\n   * not specified, like the case ERC20 tranfers.\n   */\n  constructor(\n    string memory tokenName,\n    string memory tokenSymbol,\n    uint256 tokenGranularity,\n    address[] memory initialControllers,\n    bytes32[] memory defaultPartitions\n  ) {\n    _name = tokenName;\n    _symbol = tokenSymbol;\n    _totalSupply = 0;\n    require(tokenGranularity >= 1); // Constructor Blocked - Token granularity can not be lower than 1\n    _granularity = tokenGranularity;\n\n    _setControllers(initialControllers);\n\n    _defaultPartitions = defaultPartitions;\n\n    _isControllable = true;\n    _isIssuable = true;\n\n    // Register contract in ERC1820 registry\n    ERC1820Client.setInterfaceImplementation(ERC1400_INTERFACE_NAME, address(this));\n    ERC1820Client.setInterfaceImplementation(ERC20_INTERFACE_NAME, address(this));\n\n    // Indicate token verifies ERC1400 and ERC20 interfaces\n    ERC1820Implementer._setInterface(ERC1400_INTERFACE_NAME); // For migration\n    ERC1820Implementer._setInterface(ERC20_INTERFACE_NAME); // For migration\n  }\n\n\n  /************************************************************************************************/\n  /****************************** EXTERNAL FUNCTIONS (ERC20 INTERFACE) ****************************/\n  /************************************************************************************************/\n\n\n  /**\n   * @dev Get the total number of issued tokens.\n   * @return Total supply of tokens currently in circulation.\n   */\n  function totalSupply() external override view returns (uint256) {\n    return _totalSupply;\n  }\n  /**\n   * @dev Get the balance of the account with address 'tokenHolder'.\n   * @param tokenHolder Address for which the balance is returned.\n   * @return Amount of token held by 'tokenHolder' in the token contract.\n   */\n  function balanceOf(address tokenHolder) external override view returns (uint256) {\n    return _balances[tokenHolder];\n  }\n  /**\n   * @dev Transfer token for a specified address.\n   * @param to The address to transfer to.\n   * @param value The value to be transferred.\n   * @return A boolean that indicates if the operation was successful.\n   */\n  function transfer(address to, uint256 value) external override returns (bool) {\n    _transferByDefaultPartitions(msg.sender, msg.sender, to, value, \"\");\n    return true;\n  }\n  /**\n   * @dev Check the value of tokens that an owner allowed to a spender.\n   * @param owner address The address which owns the funds.\n   * @param spender address The address which will spend the funds.\n   * @return A uint256 specifying the value of tokens still available for the spender.\n   */\n  function allowance(address owner, address spender) external override view returns (uint256) {\n    return _allowed[owner][spender];\n  }\n  /**\n   * @dev Approve the passed address to spend the specified amount of tokens on behalf of 'msg.sender'.\n   * @param spender The address which will spend the funds.\n   * @param value The amount of tokens to be spent.\n   * @return A boolean that indicates if the operation was successful.\n   */\n  function approve(address spender, uint256 value) external override returns (bool) {\n    require(spender != address(0), \"56\"); // 0x56\tinvalid sender\n    _allowed[msg.sender][spender] = value;\n    emit Approval(msg.sender, spender, value);\n    return true;\n  }\n  /**\n   * @dev Transfer tokens from one address to another.\n   * @param from The address which you want to transfer tokens from.\n   * @param to The address which you want to transfer to.\n   * @param value The amount of tokens to be transferred.\n   * @return A boolean that indicates if the operation was successful.\n   */\n  function transferFrom(address from, address to, uint256 value) external override returns (bool) {\n    require( _isOperator(msg.sender, from)\n      || (value <= _allowed[from][msg.sender]), \"53\"); // 0x53\tinsufficient allowance\n\n    if(_allowed[from][msg.sender] >= value) {\n      _allowed[from][msg.sender] = _allowed[from][msg.sender].sub(value);\n    } else {\n      _allowed[from][msg.sender] = 0;\n    }\n\n    _transferByDefaultPartitions(msg.sender, from, to, value, \"\");\n    return true;\n  }\n\n\n  /************************************************************************************************/\n  /****************************** EXTERNAL FUNCTIONS (ERC1400 INTERFACE) **************************/\n  /************************************************************************************************/\n\n\n  /************************************* Document Management **************************************/\n  /**\n   * @dev Access a document associated with the token.\n   * @param documentName Short name (represented as a bytes32) associated to the document.\n   * @return Requested document + document hash + document timestamp.\n   */\n  function getDocument(bytes32 documentName) external override view returns (string memory, bytes32, uint256) {\n    require(bytes(_documents[documentName].docURI).length != 0); // Action Blocked - Empty document\n    return (\n      _documents[documentName].docURI,\n      _documents[documentName].docHash,\n      _documents[documentName].timestamp\n    );\n  }\n  /**\n   * @dev Associate a document with the token.\n   * @param documentName Short name (represented as a bytes32) associated to the document.\n   * @param uri Document content.\n   * @param documentHash Hash of the document [optional parameter].\n   */\n  function setDocument(bytes32 documentName, string calldata uri, bytes32 documentHash) external override {\n    require(_isController[msg.sender]);\n    _documents[documentName] = Doc({\n      docURI: uri,\n      docHash: documentHash,\n      timestamp: block.timestamp\n    });\n\n    if (_indexOfDocHashes[documentHash] == 0) {\n      _docHashes.push(documentHash);\n      _indexOfDocHashes[documentHash] = _docHashes.length;\n    }\n\n    emit DocumentUpdated(documentName, uri, documentHash);\n  }\n\n  function removeDocument(bytes32 documentName) external override {\n    require(_isController[msg.sender], \"Unauthorized\");\n    require(bytes(_documents[documentName].docURI).length != 0, \"Document doesnt exist\"); // Action Blocked - Empty document\n\n    Doc memory data = _documents[documentName];\n\n    uint256 index1 = _indexOfDocHashes[data.docHash];\n    require(index1 > 0, \"Invalid index\"); //Indexing starts at 1, 0 is not allowed\n\n    // move the last item into the index being vacated\n    bytes32 lastValue = _docHashes[_docHashes.length - 1];\n    _docHashes[index1 - 1] = lastValue; // adjust for 1-based indexing\n    _indexOfDocHashes[lastValue] = index1;\n\n    //_totalPartitions.length -= 1;\n    _docHashes.pop();\n    _indexOfDocHashes[data.docHash] = 0;\n\n    delete _documents[documentName];\n\n    emit DocumentRemoved(documentName, data.docURI, data.docHash);\n  }\n\n  function getAllDocuments() external override view returns (bytes32[] memory) {\n    return _docHashes;\n  }\n  /************************************************************************************************/\n\n\n  /************************************** Token Information ***************************************/\n  /**\n   * @dev Get balance of a tokenholder for a specific partition.\n   * @param partition Name of the partition.\n   * @param tokenHolder Address for which the balance is returned.\n   * @return Amount of token of partition 'partition' held by 'tokenHolder' in the token contract.\n   */\n  function balanceOfByPartition(bytes32 partition, address tokenHolder) external override view returns (uint256) {\n    return _balanceOfByPartition[tokenHolder][partition];\n  }\n  /**\n   * @dev Get partitions index of a tokenholder.\n   * @param tokenHolder Address for which the partitions index are returned.\n   * @return Array of partitions index of 'tokenHolder'.\n   */\n  function partitionsOf(address tokenHolder) external override view returns (bytes32[] memory) {\n    return _partitionsOf[tokenHolder];\n  }\n  /************************************************************************************************/\n\n\n  /****************************************** Transfers *******************************************/\n  /**\n   * @dev Transfer the amount of tokens from the address 'msg.sender' to the address 'to'.\n   * @param to Token recipient.\n   * @param value Number of tokens to transfer.\n   * @param data Information attached to the transfer, by the token holder.\n   */\n  function transferWithData(address to, uint256 value, bytes calldata data) external override {\n    _transferByDefaultPartitions(msg.sender, msg.sender, to, value, data);\n  }\n  /**\n   * @dev Transfer the amount of tokens on behalf of the address 'from' to the address 'to'.\n   * @param from Token holder (or 'address(0)' to set from to 'msg.sender').\n   * @param to Token recipient.\n   * @param value Number of tokens to transfer.\n   * @param data Information attached to the transfer, and intended for the token holder ('from').\n   */\n  function transferFromWithData(address from, address to, uint256 value, bytes calldata data) external override virtual {\n    require( _isOperator(msg.sender, from)\n      || (value <= _allowed[from][msg.sender]), \"53\"); // 0x53\tinsufficient allowance\n\n    if(_allowed[from][msg.sender] >= value) {\n      _allowed[from][msg.sender] = _allowed[from][msg.sender].sub(value);\n    } else {\n      _allowed[from][msg.sender] = 0;\n    }\n\n    _transferByDefaultPartitions(msg.sender, from, to, value, data);\n  }\n  /************************************************************************************************/\n\n\n  /********************************** Partition Token Transfers ***********************************/\n  /**\n   * @dev Transfer tokens from a specific partition.\n   * @param partition Name of the partition.\n   * @param to Token recipient.\n   * @param value Number of tokens to transfer.\n   * @param data Information attached to the transfer, by the token holder.\n   * @return Destination partition.\n   */\n  function transferByPartition(\n    bytes32 partition,\n    address to,\n    uint256 value,\n    bytes calldata data\n  )\n    external\n    override\n    returns (bytes32)\n  {\n    return _transferByPartition(partition, msg.sender, msg.sender, to, value, data, \"\");\n  }\n\n  /**\n   * @dev Transfer tokens from a specific partition through an operator.\n   * @param partition Name of the partition.\n   * @param from Token holder.\n   * @param to Token recipient.\n   * @param value Number of tokens to transfer.\n   * @param data Information attached to the transfer. [CAN CONTAIN THE DESTINATION PARTITION]\n   * @param operatorData Information attached to the transfer, by the operator.\n   * @return Destination partition.\n   */\n  function operatorTransferByPartition(\n    bytes32 partition,\n    address from,\n    address to,\n    uint256 value,\n    bytes calldata data,\n    bytes calldata operatorData\n  )\n    external\n    override\n    returns (bytes32)\n  {\n    //We want to check if the msg.sender is an authorized operator for `from`\n    //(msg.sender == from OR msg.sender is authorized by from OR msg.sender is a controller if this token is controlable)\n    //OR\n    //We want to check if msg.sender is an `allowed` operator/spender for `from`\n    require(_isOperatorForPartition(partition, msg.sender, from)\n      || (value <= _allowedByPartition[partition][from][msg.sender]), \"53\"); // 0x53\tinsufficient allowance\n\n    if(_allowedByPartition[partition][from][msg.sender] >= value) {\n      _allowedByPartition[partition][from][msg.sender] = _allowedByPartition[partition][from][msg.sender].sub(value);\n    } else {\n      _allowedByPartition[partition][from][msg.sender] = 0;\n    }\n\n    return _transferByPartition(partition, msg.sender, from, to, value, data, operatorData);\n  }\n  /************************************************************************************************/\n\n\n  /************************************* Controller Operation *************************************/\n  /**\n   * @dev Know if the token can be controlled by operators.\n   * If a token returns 'false' for 'isControllable()'' then it MUST always return 'false' in the future.\n   * @return bool 'true' if the token can still be controlled by operators, 'false' if it can't anymore.\n   */\n  function isControllable() external override view returns (bool) {\n    return _isControllable;\n  }\n  /************************************************************************************************/\n\n\n  /************************************* Operator Management **************************************/\n  /**\n   * @dev Set a third party operator address as an operator of 'msg.sender' to transfer\n   * and redeem tokens on its behalf.\n   * @param operator Address to set as an operator for 'msg.sender'.\n   */\n  function authorizeOperator(address operator) external override {\n    require(operator != msg.sender);\n    _authorizedOperator[operator][msg.sender] = true;\n    emit AuthorizedOperator(operator, msg.sender);\n  }\n  /**\n   * @dev Remove the right of the operator address to be an operator for 'msg.sender'\n   * and to transfer and redeem tokens on its behalf.\n   * @param operator Address to rescind as an operator for 'msg.sender'.\n   */\n  function revokeOperator(address operator) external override {\n    require(operator != msg.sender);\n    _authorizedOperator[operator][msg.sender] = false;\n    emit RevokedOperator(operator, msg.sender);\n  }\n  /**\n   * @dev Set 'operator' as an operator for 'msg.sender' for a given partition.\n   * @param partition Name of the partition.\n   * @param operator Address to set as an operator for 'msg.sender'.\n   */\n  function authorizeOperatorByPartition(bytes32 partition, address operator) external override {\n    _authorizedOperatorByPartition[msg.sender][partition][operator] = true;\n    emit AuthorizedOperatorByPartition(partition, operator, msg.sender);\n  }\n  /**\n   * @dev Remove the right of the operator address to be an operator on a given\n   * partition for 'msg.sender' and to transfer and redeem tokens on its behalf.\n   * @param partition Name of the partition.\n   * @param operator Address to rescind as an operator on given partition for 'msg.sender'.\n   */\n  function revokeOperatorByPartition(bytes32 partition, address operator) external override {\n    _authorizedOperatorByPartition[msg.sender][partition][operator] = false;\n    emit RevokedOperatorByPartition(partition, operator, msg.sender);\n  }\n  /************************************************************************************************/\n\n\n  /************************************* Operator Information *************************************/\n  /**\n   * @dev Indicate whether the operator address is an operator of the tokenHolder address.\n   * @param operator Address which may be an operator of tokenHolder.\n   * @param tokenHolder Address of a token holder which may have the operator address as an operator.\n   * @return 'true' if operator is an operator of 'tokenHolder' and 'false' otherwise.\n   */\n  function isOperator(address operator, address tokenHolder) external override view returns (bool) {\n    return _isOperator(operator, tokenHolder);\n  }\n  /**\n   * @dev Indicate whether the operator address is an operator of the tokenHolder\n   * address for the given partition.\n   * @param partition Name of the partition.\n   * @param operator Address which may be an operator of tokenHolder for the given partition.\n   * @param tokenHolder Address of a token holder which may have the operator address as an operator for the given partition.\n   * @return 'true' if 'operator' is an operator of 'tokenHolder' for partition 'partition' and 'false' otherwise.\n   */\n  function isOperatorForPartition(bytes32 partition, address operator, address tokenHolder) external override view returns (bool) {\n    return _isOperatorForPartition(partition, operator, tokenHolder);\n  }\n  /************************************************************************************************/\n\n\n  /**************************************** Token Issuance ****************************************/\n  /**\n   * @dev Know if new tokens can be issued in the future.\n   * @return bool 'true' if tokens can still be issued by the issuer, 'false' if they can't anymore.\n   */\n  function isIssuable() external override view returns (bool) {\n    return _isIssuable;\n  }\n  /**\n   * @dev Issue tokens from default partition.\n   * @param tokenHolder Address for which we want to issue tokens.\n   * @param value Number of tokens issued.\n   * @param data Information attached to the issuance, by the issuer.\n   */\n  function issue(address tokenHolder, uint256 value, bytes calldata data)\n    external\n    override\n    onlyMinter\n    isIssuableToken\n  {\n    require(_defaultPartitions.length != 0, \"55\"); // 0x55\tfunds locked (lockup period)\n\n    _issueByPartition(_defaultPartitions[0], msg.sender, tokenHolder, value, data);\n  }\n  /**\n   * @dev Issue tokens from a specific partition.\n   * @param partition Name of the partition.\n   * @param tokenHolder Address for which we want to issue tokens.\n   * @param value Number of tokens issued.\n   * @param data Information attached to the issuance, by the issuer.\n   */\n  function issueByPartition(bytes32 partition, address tokenHolder, uint256 value, bytes calldata data)\n    external\n    override\n    onlyMinter\n    isIssuableToken\n  {\n    _issueByPartition(partition, msg.sender, tokenHolder, value, data);\n  }\n  /************************************************************************************************/\n  \n\n  /*************************************** Token Redemption ***************************************/\n  /**\n   * @dev Redeem the amount of tokens from the address 'msg.sender'.\n   * @param value Number of tokens to redeem.\n   * @param data Information attached to the redemption, by the token holder.\n   */\n  function redeem(uint256 value, bytes calldata data)\n    external\n    override\n  {\n    _redeemByDefaultPartitions(msg.sender, msg.sender, value, data);\n  }\n  /**\n   * @dev Redeem the amount of tokens on behalf of the address from.\n   * @param from Token holder whose tokens will be redeemed (or address(0) to set from to msg.sender).\n   * @param value Number of tokens to redeem.\n   * @param data Information attached to the redemption.\n   */\n  function redeemFrom(address from, uint256 value, bytes calldata data)\n    external\n    override\n    virtual\n  {\n    require(_isOperator(msg.sender, from)\n      || (value <= _allowed[from][msg.sender]), \"53\"); // 0x53\tinsufficient allowance\n\n    if(_allowed[from][msg.sender] >= value) {\n      _allowed[from][msg.sender] = _allowed[from][msg.sender].sub(value);\n    } else {\n      _allowed[from][msg.sender] = 0;\n    }\n\n    _redeemByDefaultPartitions(msg.sender, from, value, data);\n  }\n  /**\n   * @dev Redeem tokens of a specific partition.\n   * @param partition Name of the partition.\n   * @param value Number of tokens redeemed.\n   * @param data Information attached to the redemption, by the redeemer.\n   */\n  function redeemByPartition(bytes32 partition, uint256 value, bytes calldata data)\n    external\n    override\n  {\n    _redeemByPartition(partition, msg.sender, msg.sender, value, data, \"\");\n  }\n  /**\n   * @dev Redeem tokens of a specific partition.\n   * @param partition Name of the partition.\n   * @param tokenHolder Address for which we want to redeem tokens.\n   * @param value Number of tokens redeemed\n   * @param operatorData Information attached to the redemption, by the operator.\n   */\n  function operatorRedeemByPartition(bytes32 partition, address tokenHolder, uint256 value, bytes calldata operatorData)\n    external\n    override\n  {\n    require(_isOperatorForPartition(partition, msg.sender, tokenHolder) || value <= _allowedByPartition[partition][tokenHolder][msg.sender], \"58\"); // 0x58\tinvalid operator (transfer agent)\n\n    if(_allowedByPartition[partition][tokenHolder][msg.sender] >= value) {\n      _allowedByPartition[partition][tokenHolder][msg.sender] = _allowedByPartition[partition][tokenHolder][msg.sender].sub(value);\n    } else {\n      _allowedByPartition[partition][tokenHolder][msg.sender] = 0;\n    }\n\n    _redeemByPartition(partition, msg.sender, tokenHolder, value, \"\", operatorData);\n  }\n  /************************************************************************************************/\n\n\n  /************************************************************************************************/\n  /************************ EXTERNAL FUNCTIONS (ADDITIONAL - NOT MANDATORY) ***********************/\n  /************************************************************************************************/\n\n\n  /************************************ Token description *****************************************/\n  /**\n   * @dev Get the name of the token, e.g., \"MyToken\".\n   * @return Name of the token.\n   */\n  function name() external view returns(string memory) {\n    return _name;\n  }\n  /**\n   * @dev Get the symbol of the token, e.g., \"MYT\".\n   * @return Symbol of the token.\n   */\n  function symbol() external view returns(string memory) {\n    return _symbol;\n  }\n  /**\n   * @dev Get the number of decimals of the token.\n   * @return The number of decimals of the token. For retrocompatibility, decimals are forced to 18 in ERC1400.\n   */\n  function decimals() external pure returns(uint8) {\n    return uint8(18);\n  }\n  /**\n   * @dev Get the smallest part of the token thats not divisible.\n   * @return The smallest non-divisible part of the token.\n   */\n  function granularity() external view returns(uint256) {\n    return _granularity;\n  }\n  /**\n   * @dev Get list of existing partitions.\n   * @return Array of all exisiting partitions.\n   */\n  function totalPartitions() external view returns (bytes32[] memory) {\n    return _totalPartitions;\n  }\n  /**\n   * @dev Get the total number of issued tokens for a given partition.\n   * @param partition Name of the partition.\n   * @return Total supply of tokens currently in circulation, for a given partition.\n   */\n  function totalSupplyByPartition(bytes32 partition) external view returns (uint256) {\n    return _totalSupplyByPartition[partition];\n  }\n  /************************************************************************************************/\n\n\n  /**************************************** Token behaviours **************************************/\n  /**\n   * @dev Definitely renounce the possibility to control tokens on behalf of tokenHolders.\n   * Once set to false, '_isControllable' can never be set to 'true' again.\n   */\n  function renounceControl() external onlyOwner {\n    _isControllable = false;\n  }\n  /**\n   * @dev Definitely renounce the possibility to issue new tokens.\n   * Once set to false, '_isIssuable' can never be set to 'true' again.\n   */\n  function renounceIssuance() external onlyOwner {\n    _isIssuable = false;\n  }\n  /************************************************************************************************/\n\n\n  /************************************ Token controllers *****************************************/\n  /**\n   * @dev Get the list of controllers as defined by the token contract.\n   * @return List of addresses of all the controllers.\n   */\n  function controllers() external view returns (address[] memory) {\n    return _controllers;\n  }\n  /**\n   * @dev Get controllers for a given partition.\n   * @param partition Name of the partition.\n   * @return Array of controllers for partition.\n   */\n  function controllersByPartition(bytes32 partition) external view returns (address[] memory) {\n    return _controllersByPartition[partition];\n  }\n  /**\n   * @dev Set list of token controllers.\n   * @param operators Controller addresses.\n   */\n  function setControllers(address[] calldata operators) external onlyOwner {\n    _setControllers(operators);\n  }\n  /**\n   * @dev Set list of token partition controllers.\n   * @param partition Name of the partition.\n   * @param operators Controller addresses.\n   */\n   function setPartitionControllers(bytes32 partition, address[] calldata operators) external onlyOwner {\n     _setPartitionControllers(partition, operators);\n   }\n  /************************************************************************************************/\n\n\n  /********************************* Token default partitions *************************************/\n  /**\n   * @dev Get default partitions to transfer from.\n   * Function used for ERC20 retrocompatibility.\n   * For example, a security token may return the bytes32(\"unrestricted\").\n   * @return Array of default partitions.\n   */\n  function getDefaultPartitions() external view returns (bytes32[] memory) {\n    return _defaultPartitions;\n  }\n  /**\n   * @dev Set default partitions to transfer from.\n   * Function used for ERC20 retrocompatibility.\n   * @param partitions partitions to use by default when not specified.\n   */\n  function setDefaultPartitions(bytes32[] calldata partitions) external onlyOwner {\n    _defaultPartitions = partitions;\n  }\n  /************************************************************************************************/\n\n\n  /******************************** Partition Token Allowances ************************************/\n  /**\n   * @dev Check the value of tokens that an owner allowed to a spender.\n   * @param partition Name of the partition.\n   * @param owner address The address which owns the funds.\n   * @param spender address The address which will spend the funds.\n   * @return A uint256 specifying the value of tokens still available for the spender.\n   */\n  function allowanceByPartition(bytes32 partition, address owner, address spender) external override view returns (uint256) {\n    return _allowedByPartition[partition][owner][spender];\n  }\n  /**\n   * @dev Approve the passed address to spend the specified amount of tokens on behalf of 'msg.sender'.\n   * @param partition Name of the partition.\n   * @param spender The address which will spend the funds.\n   * @param value The amount of tokens to be spent.\n   * @return A boolean that indicates if the operation was successful.\n   */\n  function approveByPartition(bytes32 partition, address spender, uint256 value) external returns (bool) {\n    require(spender != address(0), \"56\"); // 0x56\tinvalid sender\n    _allowedByPartition[partition][msg.sender][spender] = value;\n    emit ApprovalByPartition(partition, msg.sender, spender, value);\n    return true;\n  }\n  /************************************************************************************************/\n\n  \n  /************************************** Token extension *****************************************/\n  /**\n   * @dev Set token extension contract address.\n   * The extension contract can for example verify \"ERC1400TokensValidator\" or \"ERC1400TokensChecker\" interfaces.\n   * If the extension is an \"ERC1400TokensValidator\", it will be called everytime a transfer is executed.\n   * @param extension Address of the extension contract.\n   * @param interfaceLabel Interface label of extension contract.\n   * @param removeOldExtensionRoles If set to 'true', the roles of the old extension(minter, controller) will be removed extension.\n   * @param addMinterRoleForExtension If set to 'true', the extension contract will be added as minter.\n   * @param addControllerRoleForExtension If set to 'true', the extension contract will be added as controller.\n   */\n  function setTokenExtension(address extension, string calldata interfaceLabel, bool removeOldExtensionRoles, bool addMinterRoleForExtension, bool addControllerRoleForExtension) external onlyOwner {\n    _setTokenExtension(extension, interfaceLabel, removeOldExtensionRoles, addMinterRoleForExtension, addControllerRoleForExtension);\n  }\n  /************************************************************************************************/\n\n  /************************************* Token migration ******************************************/\n  /**\n   * @dev Migrate contract.\n   *\n   * ===> CAUTION: DEFINITIVE ACTION\n   * \n   * This function shall be called once a new version of the smart contract has been created.\n   * Once this function is called:\n   *  - The address of the new smart contract is set in ERC1820 registry\n   *  - If the choice is definitive, the current smart contract is turned off and can never be used again\n   *\n   * @param newContractAddress Address of the new version of the smart contract.\n   * @param definitive If set to 'true' the contract is turned off definitely.\n   */\n  function migrate(address newContractAddress, bool definitive) external onlyOwner {\n    _migrate(newContractAddress, definitive);\n  }\n  /************************************************************************************************/\n\n\n  /************************************************************************************************/\n  /************************************* INTERNAL FUNCTIONS ***************************************/\n  /************************************************************************************************/\n\n\n  /**************************************** Token Transfers ***************************************/\n  /**\n   * @dev Perform the transfer of tokens.\n   * @param from Token holder.\n   * @param to Token recipient.\n   * @param value Number of tokens to transfer.\n   */\n  function _transferWithData(\n    address from,\n    address to,\n    uint256 value\n  )\n    internal\n    isNotMigratedToken\n  {\n    require(_isMultiple(value), \"50\"); // 0x50\ttransfer failure\n    require(to != address(0), \"57\"); // 0x57\tinvalid receiver\n    require(_balances[from] >= value, \"52\"); // 0x52\tinsufficient balance\n  \n    _balances[from] = _balances[from].sub(value);\n    _balances[to] = _balances[to].add(value);\n\n    emit Transfer(from, to, value); // ERC20 retrocompatibility \n  }\n  /**\n   * @dev Transfer tokens from a specific partition.\n   * @param fromPartition Partition of the tokens to transfer.\n   * @param operator The address performing the transfer.\n   * @param from Token holder.\n   * @param to Token recipient.\n   * @param value Number of tokens to transfer.\n   * @param data Information attached to the transfer. [CAN CONTAIN THE DESTINATION PARTITION]\n   * @param operatorData Information attached to the transfer, by the operator (if any).\n   * @return Destination partition.\n   */\n  function _transferByPartition(\n    bytes32 fromPartition,\n    address operator,\n    address from,\n    address to,\n    uint256 value,\n    bytes memory data,\n    bytes memory operatorData\n  )\n    internal\n    returns (bytes32)\n  {\n    require(_balanceOfByPartition[from][fromPartition] >= value, \"52\"); // 0x52\tinsufficient balance\n\n    bytes32 toPartition = fromPartition;\n\n    if(operatorData.length != 0 && data.length >= 64) {\n      toPartition = _getDestinationPartition(fromPartition, data);\n    }\n\n    _callSenderExtension(fromPartition, operator, from, to, value, data, operatorData);\n    _callTokenExtension(fromPartition, operator, from, to, value, data, operatorData);\n\n    _removeTokenFromPartition(from, fromPartition, value);\n    _transferWithData(from, to, value);\n    _addTokenToPartition(to, toPartition, value);\n\n    _callRecipientExtension(toPartition, operator, from, to, value, data, operatorData);\n\n    emit TransferByPartition(fromPartition, operator, from, to, value, data, operatorData);\n\n    if(toPartition != fromPartition) {\n      emit ChangedPartition(fromPartition, toPartition, value);\n    }\n\n    return toPartition;\n  }\n  /**\n   * @dev Transfer tokens from default partitions.\n   * Function used for ERC20 retrocompatibility.\n   * @param operator The address performing the transfer.\n   * @param from Token holder.\n   * @param to Token recipient.\n   * @param value Number of tokens to transfer.\n   * @param data Information attached to the transfer, and intended for the token holder ('from') [CAN CONTAIN THE DESTINATION PARTITION].\n   */\n  function _transferByDefaultPartitions(\n    address operator,\n    address from,\n    address to,\n    uint256 value,\n    bytes memory data\n  )\n    internal\n  {\n    require(_defaultPartitions.length != 0, \"55\"); // // 0x55\tfunds locked (lockup period)\n\n    uint256 _remainingValue = value;\n    uint256 _localBalance;\n\n    for (uint i = 0; i < _defaultPartitions.length; i++) {\n      _localBalance = _balanceOfByPartition[from][_defaultPartitions[i]];\n      if(_remainingValue <= _localBalance) {\n        _transferByPartition(_defaultPartitions[i], operator, from, to, _remainingValue, data, \"\");\n        _remainingValue = 0;\n        break;\n      } else if (_localBalance != 0) {\n        _transferByPartition(_defaultPartitions[i], operator, from, to, _localBalance, data, \"\");\n        _remainingValue = _remainingValue - _localBalance;\n      }\n    }\n\n    require(_remainingValue == 0, \"52\"); // 0x52\tinsufficient balance\n  }\n  /**\n   * @dev Retrieve the destination partition from the 'data' field.\n   * By convention, a partition change is requested ONLY when 'data' starts\n   * with the flag: 0xffffffffffffffffffffffffffffffffffffffffffffffffffffffffffffffff\n   * When the flag is detected, the destination tranche is extracted from the\n   * 32 bytes following the flag.\n   * @param fromPartition Partition of the tokens to transfer.\n   * @param data Information attached to the transfer. [CAN CONTAIN THE DESTINATION PARTITION]\n   * @return toPartition Destination partition.\n   */\n  function _getDestinationPartition(bytes32 fromPartition, bytes memory data) internal pure returns(bytes32 toPartition) {\n    bytes32 changePartitionFlag = 0xffffffffffffffffffffffffffffffffffffffffffffffffffffffffffffffff;\n    bytes32 flag;\n    assembly {\n      flag := mload(add(data, 32))\n    }\n    if(flag == changePartitionFlag) {\n      assembly {\n        toPartition := mload(add(data, 64))\n      }\n    } else {\n      toPartition = fromPartition;\n    }\n  }\n  /**\n   * @dev Remove a token from a specific partition.\n   * @param from Token holder.\n   * @param partition Name of the partition.\n   * @param value Number of tokens to transfer.\n   */\n  function _removeTokenFromPartition(address from, bytes32 partition, uint256 value) internal {\n    _balanceOfByPartition[from][partition] = _balanceOfByPartition[from][partition].sub(value);\n    _totalSupplyByPartition[partition] = _totalSupplyByPartition[partition].sub(value);\n\n    // If the total supply is zero, finds and deletes the partition.\n    if(_totalSupplyByPartition[partition] == 0) {\n      uint256 index1 = _indexOfTotalPartitions[partition];\n      require(index1 > 0, \"50\"); // 0x50\ttransfer failure\n\n      // move the last item into the index being vacated\n      bytes32 lastValue = _totalPartitions[_totalPartitions.length - 1];\n      _totalPartitions[index1 - 1] = lastValue; // adjust for 1-based indexing\n      _indexOfTotalPartitions[lastValue] = index1;\n\n      //_totalPartitions.length -= 1;\n      _totalPartitions.pop();\n      _indexOfTotalPartitions[partition] = 0;\n    }\n\n    // If the balance of the TokenHolder's partition is zero, finds and deletes the partition.\n    if(_balanceOfByPartition[from][partition] == 0) {\n      uint256 index2 = _indexOfPartitionsOf[from][partition];\n      require(index2 > 0, \"50\"); // 0x50\ttransfer failure\n\n      // move the last item into the index being vacated\n      bytes32 lastValue = _partitionsOf[from][_partitionsOf[from].length - 1];\n      _partitionsOf[from][index2 - 1] = lastValue;  // adjust for 1-based indexing\n      _indexOfPartitionsOf[from][lastValue] = index2;\n\n      //_partitionsOf[from].length -= 1;\n      _partitionsOf[from].pop();\n      _indexOfPartitionsOf[from][partition] = 0;\n    }\n  }\n  /**\n   * @dev Add a token to a specific partition.\n   * @param to Token recipient.\n   * @param partition Name of the partition.\n   * @param value Number of tokens to transfer.\n   */\n  function _addTokenToPartition(address to, bytes32 partition, uint256 value) internal {\n    if(value != 0) {\n      if (_indexOfPartitionsOf[to][partition] == 0) {\n        _partitionsOf[to].push(partition);\n        _indexOfPartitionsOf[to][partition] = _partitionsOf[to].length;\n      }\n      _balanceOfByPartition[to][partition] = _balanceOfByPartition[to][partition].add(value);\n\n      if (_indexOfTotalPartitions[partition] == 0) {\n        _totalPartitions.push(partition);\n        _indexOfTotalPartitions[partition] = _totalPartitions.length;\n      }\n      _totalSupplyByPartition[partition] = _totalSupplyByPartition[partition].add(value);\n    }\n  }\n  /**\n   * @dev Check if 'value' is multiple of the granularity.\n   * @param value The quantity that want's to be checked.\n   * @return 'true' if 'value' is a multiple of the granularity.\n   */\n  function _isMultiple(uint256 value) internal view returns(bool) {\n    return(value.div(_granularity).mul(_granularity) == value);\n  }\n  /************************************************************************************************/\n\n\n  /****************************************** Hooks ***********************************************/\n  /**\n   * @dev Check for 'ERC1400TokensSender' user extension in ERC1820 registry and call it.\n   * @param partition Name of the partition (bytes32 to be left empty for transfers where partition is not specified).\n   * @param operator Address which triggered the balance decrease (through transfer or redemption).\n   * @param from Token holder.\n   * @param to Token recipient for a transfer and 0x for a redemption.\n   * @param value Number of tokens the token holder balance is decreased by.\n   * @param data Extra information.\n   * @param operatorData Extra information, attached by the operator (if any).\n   */\n  function _callSenderExtension(\n    bytes32 partition,\n    address operator,\n    address from,\n    address to,\n    uint256 value,\n    bytes memory data,\n    bytes memory operatorData\n  )\n    internal\n  {\n    address senderImplementation;\n    senderImplementation = interfaceAddr(from, ERC1400_TOKENS_SENDER);\n    if (senderImplementation != address(0)) {\n      IERC1400TokensSender(senderImplementation).tokensToTransfer(msg.data, partition, operator, from, to, value, data, operatorData);\n    }\n  }\n  /**\n   * @dev Check for 'ERC1400TokensValidator' token extension in ERC1820 registry and call it.\n   * @param partition Name of the partition (bytes32 to be left empty for transfers where partition is not specified).\n   * @param operator Address which triggered the balance decrease (through transfer or redemption).\n   * @param from Token holder.\n   * @param to Token recipient for a transfer and 0x for a redemption.\n   * @param value Number of tokens the token holder balance is decreased by.\n   * @param data Extra information.\n   * @param operatorData Extra information, attached by the operator (if any).\n   */\n  function _callTokenExtension(\n    bytes32 partition,\n    address operator,\n    address from,\n    address to,\n    uint256 value,\n    bytes memory data,\n    bytes memory operatorData\n  )\n    internal\n  {\n    address validatorImplementation;\n    validatorImplementation = interfaceAddr(address(this), ERC1400_TOKENS_VALIDATOR);\n    if (validatorImplementation != address(0)) {\n      IERC1400TokensValidator(validatorImplementation).tokensToValidate(msg.data, partition, operator, from, to, value, data, operatorData);\n    }\n  }\n  /**\n   * @dev Check for 'ERC1400TokensRecipient' user extension in ERC1820 registry and call it.\n   * @param partition Name of the partition (bytes32 to be left empty for transfers where partition is not specified).\n   * @param operator Address which triggered the balance increase (through transfer or issuance).\n   * @param from Token holder for a transfer and 0x for an issuance.\n   * @param to Token recipient.\n   * @param value Number of tokens the recipient balance is increased by.\n   * @param data Extra information, intended for the token holder ('from').\n   * @param operatorData Extra information attached by the operator (if any).\n   */\n  function _callRecipientExtension(\n    bytes32 partition,\n    address operator,\n    address from,\n    address to,\n    uint256 value,\n    bytes memory data,\n    bytes memory operatorData\n  )\n    internal\n    virtual\n  {\n    address recipientImplementation;\n    recipientImplementation = interfaceAddr(to, ERC1400_TOKENS_RECIPIENT);\n\n    if (recipientImplementation != address(0)) {\n      IERC1400TokensRecipient(recipientImplementation).tokensReceived(msg.data, partition, operator, from, to, value, data, operatorData);\n    }\n  }\n  /************************************************************************************************/\n\n\n  /************************************* Operator Information *************************************/\n  /**\n   * @dev Indicate whether the operator address is an operator of the tokenHolder address.\n   * @param operator Address which may be an operator of 'tokenHolder'.\n   * @param tokenHolder Address of a token holder which may have the 'operator' address as an operator.\n   * @return 'true' if 'operator' is an operator of 'tokenHolder' and 'false' otherwise.\n   */\n  function _isOperator(address operator, address tokenHolder) internal view returns (bool) {\n    return (operator == tokenHolder\n      || _authorizedOperator[operator][tokenHolder]\n      || (_isControllable && _isController[operator])\n    );\n  }\n  /**\n   * @dev Indicate whether the operator address is an operator of the tokenHolder\n   * address for the given partition.\n   * @param partition Name of the partition.\n   * @param operator Address which may be an operator of tokenHolder for the given partition.\n   * @param tokenHolder Address of a token holder which may have the operator address as an operator for the given partition.\n   * @return 'true' if 'operator' is an operator of 'tokenHolder' for partition 'partition' and 'false' otherwise.\n   */\n   function _isOperatorForPartition(bytes32 partition, address operator, address tokenHolder) internal view returns (bool) {\n     return (_isOperator(operator, tokenHolder)\n       || _authorizedOperatorByPartition[tokenHolder][partition][operator]\n       || (_isControllable && _isControllerByPartition[partition][operator])\n     );\n   }\n  /************************************************************************************************/\n\n\n  /**************************************** Token Issuance ****************************************/\n  /**\n   * @dev Perform the issuance of tokens.\n   * @param operator Address which triggered the issuance.\n   * @param to Token recipient.\n   * @param value Number of tokens issued.\n   * @param data Information attached to the issuance, and intended for the recipient (to).\n   */\n  function _issue(address operator, address to, uint256 value, bytes memory data)\n    internal\n    isNotMigratedToken  \n  {\n    require(_isMultiple(value), \"50\"); // 0x50\ttransfer failure\n    require(to != address(0), \"57\"); // 0x57\tinvalid receiver\n\n    _totalSupply = _totalSupply.add(value);\n    _balances[to] = _balances[to].add(value);\n\n    emit Issued(operator, to, value, data);\n    emit Transfer(address(0), to, value); // ERC20 retrocompatibility\n  }\n  /**\n   * @dev Issue tokens from a specific partition.\n   * @param toPartition Name of the partition.\n   * @param operator The address performing the issuance.\n   * @param to Token recipient.\n   * @param value Number of tokens to issue.\n   * @param data Information attached to the issuance.\n   */\n  function _issueByPartition(\n    bytes32 toPartition,\n    address operator,\n    address to,\n    uint256 value,\n    bytes memory data\n  )\n    internal\n  {\n    _callTokenExtension(toPartition, operator, address(0), to, value, data, \"\");\n\n    _issue(operator, to, value, data);\n    _addTokenToPartition(to, toPartition, value);\n\n    _callRecipientExtension(toPartition, operator, address(0), to, value, data, \"\");\n\n    emit IssuedByPartition(toPartition, operator, to, value, data, \"\");\n  }\n  /************************************************************************************************/\n\n\n  /*************************************** Token Redemption ***************************************/\n  /**\n   * @dev Perform the token redemption.\n   * @param operator The address performing the redemption.\n   * @param from Token holder whose tokens will be redeemed.\n   * @param value Number of tokens to redeem.\n   * @param data Information attached to the redemption.\n   */\n  function _redeem(address operator, address from, uint256 value, bytes memory data)\n    internal\n    isNotMigratedToken\n  {\n    require(_isMultiple(value), \"50\"); // 0x50\ttransfer failure\n    require(from != address(0), \"56\"); // 0x56\tinvalid sender\n    require(_balances[from] >= value, \"52\"); // 0x52\tinsufficient balance\n\n    _balances[from] = _balances[from].sub(value);\n    _totalSupply = _totalSupply.sub(value);\n\n    emit Redeemed(operator, from, value, data);\n    emit Transfer(from, address(0), value);  // ERC20 retrocompatibility\n  }\n  /**\n   * @dev Redeem tokens of a specific partition.\n   * @param fromPartition Name of the partition.\n   * @param operator The address performing the redemption.\n   * @param from Token holder whose tokens will be redeemed.\n   * @param value Number of tokens to redeem.\n   * @param data Information attached to the redemption.\n   * @param operatorData Information attached to the redemption, by the operator (if any).\n   */\n  function _redeemByPartition(\n    bytes32 fromPartition,\n    address operator,\n    address from,\n    uint256 value,\n    bytes memory data,\n    bytes memory operatorData\n  )\n    internal\n  {\n    require(_balanceOfByPartition[from][fromPartition] >= value, \"52\"); // 0x52\tinsufficient balance\n\n    _callSenderExtension(fromPartition, operator, from, address(0), value, data, operatorData);\n    _callTokenExtension(fromPartition, operator, from, address(0), value, data, operatorData);\n\n    _removeTokenFromPartition(from, fromPartition, value);\n    _redeem(operator, from, value, data);\n\n    emit RedeemedByPartition(fromPartition, operator, from, value, operatorData);\n  }\n  /**\n   * @dev Redeem tokens from a default partitions.\n   * @param operator The address performing the redeem.\n   * @param from Token holder.\n   * @param value Number of tokens to redeem.\n   * @param data Information attached to the redemption.\n   */\n  function _redeemByDefaultPartitions(\n    address operator,\n    address from,\n    uint256 value,\n    bytes memory data\n  )\n    internal\n  {\n    require(_defaultPartitions.length != 0, \"55\"); // 0x55\tfunds locked (lockup period)\n\n    uint256 _remainingValue = value;\n    uint256 _localBalance;\n\n    for (uint i = 0; i < _defaultPartitions.length; i++) {\n      _localBalance = _balanceOfByPartition[from][_defaultPartitions[i]];\n      if(_remainingValue <= _localBalance) {\n        _redeemByPartition(_defaultPartitions[i], operator, from, _remainingValue, data, \"\");\n        _remainingValue = 0;\n        break;\n      } else {\n        _redeemByPartition(_defaultPartitions[i], operator, from, _localBalance, data, \"\");\n        _remainingValue = _remainingValue - _localBalance;\n      }\n    }\n\n    require(_remainingValue == 0, \"52\"); // 0x52\tinsufficient balance\n  }\n  /************************************************************************************************/\n\n\n  /************************************** Transfer Validity ***************************************/\n  /**\n   * @dev Know the reason on success or failure based on the EIP-1066 application-specific status codes.\n   * @param payload Payload of the initial transaction.\n   * @param partition Name of the partition.\n   * @param operator The address performing the transfer.\n   * @param from Token holder.\n   * @param to Token recipient.\n   * @param value Number of tokens to transfer.\n   * @param data Information attached to the transfer. [CAN CONTAIN THE DESTINATION PARTITION]\n   * @param operatorData Information attached to the transfer, by the operator (if any).\n   * @return ESC (Ethereum Status Code) following the EIP-1066 standard.\n   * @return Additional bytes32 parameter that can be used to define\n   * application specific reason codes with additional details (for example the\n   * transfer restriction rule responsible for making the transfer operation invalid).\n   * @return Destination partition.\n   */\n  function _canTransfer(bytes memory payload, bytes32 partition, address operator, address from, address to, uint256 value, bytes memory data, bytes memory operatorData)\n    internal\n    view\n    returns (bytes1, bytes32, bytes32)\n  {\n    address checksImplementation = interfaceAddr(address(this), ERC1400_TOKENS_CHECKER);\n\n    if((checksImplementation != address(0))) {\n      return IERC1400TokensChecker(checksImplementation).canTransferByPartition(payload, partition, operator, from, to, value, data, operatorData);\n    }\n    else {\n      return(hex\"00\", \"\", partition);\n    }\n  }\n  /************************************************************************************************/\n\n\n  /************************************************************************************************/\n  /************************ INTERNAL FUNCTIONS (ADDITIONAL - NOT MANDATORY) ***********************/\n  /************************************************************************************************/\n\n\n  /************************************ Token controllers *****************************************/\n  /**\n   * @dev Set list of token controllers.\n   * @param operators Controller addresses.\n   */\n  function _setControllers(address[] memory operators) internal {\n    for (uint i = 0; i<_controllers.length; i++){\n      _isController[_controllers[i]] = false;\n    }\n    for (uint j = 0; j<operators.length; j++){\n      _isController[operators[j]] = true;\n    }\n    _controllers = operators;\n  }\n  /**\n   * @dev Set list of token partition controllers.\n   * @param partition Name of the partition.\n   * @param operators Controller addresses.\n   */\n   function _setPartitionControllers(bytes32 partition, address[] memory operators) internal {\n     for (uint i = 0; i<_controllersByPartition[partition].length; i++){\n       _isControllerByPartition[partition][_controllersByPartition[partition][i]] = false;\n     }\n     for (uint j = 0; j<operators.length; j++){\n       _isControllerByPartition[partition][operators[j]] = true;\n     }\n     _controllersByPartition[partition] = operators;\n   }\n  /************************************************************************************************/\n\n\n  /************************************** Token extension *****************************************/\n  /**\n   * @dev Set token extension contract address.\n   * The extension contract can for example verify \"ERC1400TokensValidator\" or \"ERC1400TokensChecker\" interfaces.\n   * If the extension is an \"ERC1400TokensValidator\", it will be called everytime a transfer is executed.\n   * @param extension Address of the extension contract.\n   * @param interfaceLabel Interface label of extension contract.\n   * @param removeOldExtensionRoles If set to 'true', the roles of the old extension(minter, controller) will be removed extension.\n   * @param addMinterRoleForExtension If set to 'true', the extension contract will be added as minter.\n   * @param addControllerRoleForExtension If set to 'true', the extension contract will be added as controller.\n   */\n  function _setTokenExtension(address extension, string memory interfaceLabel, bool removeOldExtensionRoles, bool addMinterRoleForExtension, bool addControllerRoleForExtension) internal {\n    address oldExtension = interfaceAddr(address(this), interfaceLabel);\n\n    if (oldExtension != address(0) && removeOldExtensionRoles) {\n      if(isMinter(oldExtension)) {\n        _removeMinter(oldExtension);\n      }\n      _isController[oldExtension] = false;\n    }\n\n    ERC1820Client.setInterfaceImplementation(interfaceLabel, extension);\n    if(addMinterRoleForExtension && !isMinter(extension)) {\n      _addMinter(extension);\n    }\n    if (addControllerRoleForExtension) {\n      _isController[extension] = true;\n    }\n  }\n  /************************************************************************************************/\n\n\n  /************************************* Token migration ******************************************/\n  /**\n   * @dev Migrate contract.\n   *\n   * ===> CAUTION: DEFINITIVE ACTION\n   * \n   * This function shall be called once a new version of the smart contract has been created.\n   * Once this function is called:\n   *  - The address of the new smart contract is set in ERC1820 registry\n   *  - If the choice is definitive, the current smart contract is turned off and can never be used again\n   *\n   * @param newContractAddress Address of the new version of the smart contract.\n   * @param definitive If set to 'true' the contract is turned off definitely.\n   */\n  function _migrate(address newContractAddress, bool definitive) internal {\n    ERC1820Client.setInterfaceImplementation(ERC20_INTERFACE_NAME, newContractAddress);\n    ERC1820Client.setInterfaceImplementation(ERC1400_INTERFACE_NAME, newContractAddress);\n    if(definitive) {\n      _migrated = true;\n    }\n  }\n  /************************************************************************************************/\n\n  /************************************* Domain Aware ******************************************/\n  function domainName() public override view returns (string memory) {\n    return _name;\n  }\n\n  function domainVersion() public override pure returns (string memory) {\n    return \"1\";\n  }\n  /************************************************************************************************/\n}\n",
  "sourcePath": "/Users/sergio/Desktop/TFM/project/contracts/ERC1400.sol",
  "compiler": {
    "name": "solc",
    "version": "0.8.7+commit.e28d00a7.Emscripten.clang"
  },
  "schemaVersion": "3.4.16",
  "updatedAt": "2024-05-10T15:08:02.095Z",
  "devdoc": {
    "details": "ERC1400 logic",
    "kind": "dev",
    "methods": {
      "allowance(address,address)": {
        "details": "Check the value of tokens that an owner allowed to a spender.",
        "params": {
          "owner": "address The address which owns the funds.",
          "spender": "address The address which will spend the funds."
        },
        "returns": {
          "_0": "A uint256 specifying the value of tokens still available for the spender."
        }
      },
      "allowanceByPartition(bytes32,address,address)": {
        "details": "Check the value of tokens that an owner allowed to a spender.",
        "params": {
          "owner": "address The address which owns the funds.",
          "partition": "Name of the partition.",
          "spender": "address The address which will spend the funds."
        },
        "returns": {
          "_0": "A uint256 specifying the value of tokens still available for the spender."
        }
      },
      "approve(address,uint256)": {
        "details": "Approve the passed address to spend the specified amount of tokens on behalf of 'msg.sender'.",
        "params": {
          "spender": "The address which will spend the funds.",
          "value": "The amount of tokens to be spent."
        },
        "returns": {
          "_0": "A boolean that indicates if the operation was successful."
        }
      },
      "approveByPartition(bytes32,address,uint256)": {
        "details": "Approve the passed address to spend the specified amount of tokens on behalf of 'msg.sender'.",
        "params": {
          "partition": "Name of the partition.",
          "spender": "The address which will spend the funds.",
          "value": "The amount of tokens to be spent."
        },
        "returns": {
          "_0": "A boolean that indicates if the operation was successful."
        }
      },
      "authorizeOperator(address)": {
        "details": "Set a third party operator address as an operator of 'msg.sender' to transfer and redeem tokens on its behalf.",
        "params": {
          "operator": "Address to set as an operator for 'msg.sender'."
        }
      },
      "authorizeOperatorByPartition(bytes32,address)": {
        "details": "Set 'operator' as an operator for 'msg.sender' for a given partition.",
        "params": {
          "operator": "Address to set as an operator for 'msg.sender'.",
          "partition": "Name of the partition."
        }
      },
      "balanceOf(address)": {
        "details": "Get the balance of the account with address 'tokenHolder'.",
        "params": {
          "tokenHolder": "Address for which the balance is returned."
        },
        "returns": {
          "_0": "Amount of token held by 'tokenHolder' in the token contract."
        }
      },
      "balanceOfByPartition(bytes32,address)": {
        "details": "Get balance of a tokenholder for a specific partition.",
        "params": {
          "partition": "Name of the partition.",
          "tokenHolder": "Address for which the balance is returned."
        },
        "returns": {
          "_0": "Amount of token of partition 'partition' held by 'tokenHolder' in the token contract."
        }
      },
      "constructor": {
        "details": "Initialize ERC1400 + register the contract implementation in ERC1820Registry.",
        "params": {
          "defaultPartitions": "Partitions chosen by default, when partition is not specified, like the case ERC20 tranfers.",
          "initialControllers": "Array of initial controllers.",
          "tokenGranularity": "Granularity of the token.",
          "tokenName": "Name of the token.",
          "tokenSymbol": "Symbol of the token."
        }
      },
      "controllers()": {
        "details": "Get the list of controllers as defined by the token contract.",
        "returns": {
          "_0": "List of addresses of all the controllers."
        }
      },
      "controllersByPartition(bytes32)": {
        "details": "Get controllers for a given partition.",
        "params": {
          "partition": "Name of the partition."
        },
        "returns": {
          "_0": "Array of controllers for partition."
        }
      },
      "decimals()": {
        "details": "Get the number of decimals of the token.",
        "returns": {
          "_0": "The number of decimals of the token. For retrocompatibility, decimals are forced to 18 in ERC1400."
        }
      },
      "getDefaultPartitions()": {
        "details": "Get default partitions to transfer from. Function used for ERC20 retrocompatibility. For example, a security token may return the bytes32(\"unrestricted\").",
        "returns": {
          "_0": "Array of default partitions."
        }
      },
      "getDocument(bytes32)": {
        "details": "Access a document associated with the token.",
        "params": {
          "documentName": "Short name (represented as a bytes32) associated to the document."
        },
        "returns": {
          "_0": "Requested document + document hash + document timestamp."
        }
      },
      "granularity()": {
        "details": "Get the smallest part of the token thats not divisible.",
        "returns": {
          "_0": "The smallest non-divisible part of the token."
        }
      },
      "isControllable()": {
        "details": "Know if the token can be controlled by operators. If a token returns 'false' for 'isControllable()'' then it MUST always return 'false' in the future.",
        "returns": {
          "_0": "bool 'true' if the token can still be controlled by operators, 'false' if it can't anymore."
        }
      },
      "isIssuable()": {
        "details": "Know if new tokens can be issued in the future.",
        "returns": {
          "_0": "bool 'true' if tokens can still be issued by the issuer, 'false' if they can't anymore."
        }
      },
      "isOperator(address,address)": {
        "details": "Indicate whether the operator address is an operator of the tokenHolder address.",
        "params": {
          "operator": "Address which may be an operator of tokenHolder.",
          "tokenHolder": "Address of a token holder which may have the operator address as an operator."
        },
        "returns": {
          "_0": "'true' if operator is an operator of 'tokenHolder' and 'false' otherwise."
        }
      },
      "isOperatorForPartition(bytes32,address,address)": {
        "details": "Indicate whether the operator address is an operator of the tokenHolder address for the given partition.",
        "params": {
          "operator": "Address which may be an operator of tokenHolder for the given partition.",
          "partition": "Name of the partition.",
          "tokenHolder": "Address of a token holder which may have the operator address as an operator for the given partition."
        },
        "returns": {
          "_0": "'true' if 'operator' is an operator of 'tokenHolder' for partition 'partition' and 'false' otherwise."
        }
      },
      "issue(address,uint256,bytes)": {
        "details": "Issue tokens from default partition.",
        "params": {
          "data": "Information attached to the issuance, by the issuer.",
          "tokenHolder": "Address for which we want to issue tokens.",
          "value": "Number of tokens issued."
        }
      },
      "issueByPartition(bytes32,address,uint256,bytes)": {
        "details": "Issue tokens from a specific partition.",
        "params": {
          "data": "Information attached to the issuance, by the issuer.",
          "partition": "Name of the partition.",
          "tokenHolder": "Address for which we want to issue tokens.",
          "value": "Number of tokens issued."
        }
      },
      "migrate(address,bool)": {
        "details": "Migrate contract. ===> CAUTION: DEFINITIVE ACTION  This function shall be called once a new version of the smart contract has been created. Once this function is called:  - The address of the new smart contract is set in ERC1820 registry  - If the choice is definitive, the current smart contract is turned off and can never be used again",
        "params": {
          "definitive": "If set to 'true' the contract is turned off definitely.",
          "newContractAddress": "Address of the new version of the smart contract."
        }
      },
      "name()": {
        "details": "Get the name of the token, e.g., \"MyToken\".",
        "returns": {
          "_0": "Name of the token."
        }
      },
      "operatorRedeemByPartition(bytes32,address,uint256,bytes)": {
        "details": "Redeem tokens of a specific partition.",
        "params": {
          "operatorData": "Information attached to the redemption, by the operator.",
          "partition": "Name of the partition.",
          "tokenHolder": "Address for which we want to redeem tokens.",
          "value": "Number of tokens redeemed"
        }
      },
      "operatorTransferByPartition(bytes32,address,address,uint256,bytes,bytes)": {
        "details": "Transfer tokens from a specific partition through an operator.",
        "params": {
          "data": "Information attached to the transfer. [CAN CONTAIN THE DESTINATION PARTITION]",
          "from": "Token holder.",
          "operatorData": "Information attached to the transfer, by the operator.",
          "partition": "Name of the partition.",
          "to": "Token recipient.",
          "value": "Number of tokens to transfer."
        },
        "returns": {
          "_0": "Destination partition."
        }
      },
      "owner()": {
        "details": "Returns the address of the current owner."
      },
      "partitionsOf(address)": {
        "details": "Get partitions index of a tokenholder.",
        "params": {
          "tokenHolder": "Address for which the partitions index are returned."
        },
        "returns": {
          "_0": "Array of partitions index of 'tokenHolder'."
        }
      },
      "redeem(uint256,bytes)": {
        "details": "Redeem the amount of tokens from the address 'msg.sender'.",
        "params": {
          "data": "Information attached to the redemption, by the token holder.",
          "value": "Number of tokens to redeem."
        }
      },
      "redeemByPartition(bytes32,uint256,bytes)": {
        "details": "Redeem tokens of a specific partition.",
        "params": {
          "data": "Information attached to the redemption, by the redeemer.",
          "partition": "Name of the partition.",
          "value": "Number of tokens redeemed."
        }
      },
      "redeemFrom(address,uint256,bytes)": {
        "details": "Redeem the amount of tokens on behalf of the address from.",
        "params": {
          "data": "Information attached to the redemption.",
          "from": "Token holder whose tokens will be redeemed (or address(0) to set from to msg.sender).",
          "value": "Number of tokens to redeem."
        }
      },
      "renounceControl()": {
        "details": "Definitely renounce the possibility to control tokens on behalf of tokenHolders. Once set to false, '_isControllable' can never be set to 'true' again."
      },
      "renounceIssuance()": {
        "details": "Definitely renounce the possibility to issue new tokens. Once set to false, '_isIssuable' can never be set to 'true' again."
      },
      "renounceOwnership()": {
        "details": "Leaves the contract without owner. It will not be possible to call `onlyOwner` functions anymore. Can only be called by the current owner. NOTE: Renouncing ownership will leave the contract without an owner, thereby removing any functionality that is only available to the owner."
      },
      "revokeOperator(address)": {
        "details": "Remove the right of the operator address to be an operator for 'msg.sender' and to transfer and redeem tokens on its behalf.",
        "params": {
          "operator": "Address to rescind as an operator for 'msg.sender'."
        }
      },
      "revokeOperatorByPartition(bytes32,address)": {
        "details": "Remove the right of the operator address to be an operator on a given partition for 'msg.sender' and to transfer and redeem tokens on its behalf.",
        "params": {
          "operator": "Address to rescind as an operator on given partition for 'msg.sender'.",
          "partition": "Name of the partition."
        }
      },
      "setControllers(address[])": {
        "details": "Set list of token controllers.",
        "params": {
          "operators": "Controller addresses."
        }
      },
      "setDefaultPartitions(bytes32[])": {
        "details": "Set default partitions to transfer from. Function used for ERC20 retrocompatibility.",
        "params": {
          "partitions": "partitions to use by default when not specified."
        }
      },
      "setDocument(bytes32,string,bytes32)": {
        "details": "Associate a document with the token.",
        "params": {
          "documentHash": "Hash of the document [optional parameter].",
          "documentName": "Short name (represented as a bytes32) associated to the document.",
          "uri": "Document content."
        }
      },
      "setPartitionControllers(bytes32,address[])": {
        "details": "Set list of token partition controllers.",
        "params": {
          "operators": "Controller addresses.",
          "partition": "Name of the partition."
        }
      },
      "setTokenExtension(address,string,bool,bool,bool)": {
        "details": "Set token extension contract address. The extension contract can for example verify \"ERC1400TokensValidator\" or \"ERC1400TokensChecker\" interfaces. If the extension is an \"ERC1400TokensValidator\", it will be called everytime a transfer is executed.",
        "params": {
          "addControllerRoleForExtension": "If set to 'true', the extension contract will be added as controller.",
          "addMinterRoleForExtension": "If set to 'true', the extension contract will be added as minter.",
          "extension": "Address of the extension contract.",
          "interfaceLabel": "Interface label of extension contract.",
          "removeOldExtensionRoles": "If set to 'true', the roles of the old extension(minter, controller) will be removed extension."
        }
      },
      "symbol()": {
        "details": "Get the symbol of the token, e.g., \"MYT\".",
        "returns": {
          "_0": "Symbol of the token."
        }
      },
      "totalPartitions()": {
        "details": "Get list of existing partitions.",
        "returns": {
          "_0": "Array of all exisiting partitions."
        }
      },
      "totalSupply()": {
        "details": "Get the total number of issued tokens.",
        "returns": {
          "_0": "Total supply of tokens currently in circulation."
        }
      },
      "totalSupplyByPartition(bytes32)": {
        "details": "Get the total number of issued tokens for a given partition.",
        "params": {
          "partition": "Name of the partition."
        },
        "returns": {
          "_0": "Total supply of tokens currently in circulation, for a given partition."
        }
      },
      "transfer(address,uint256)": {
        "details": "Transfer token for a specified address.",
        "params": {
          "to": "The address to transfer to.",
          "value": "The value to be transferred."
        },
        "returns": {
          "_0": "A boolean that indicates if the operation was successful."
        }
      },
      "transferByPartition(bytes32,address,uint256,bytes)": {
        "details": "Transfer tokens from a specific partition.",
        "params": {
          "data": "Information attached to the transfer, by the token holder.",
          "partition": "Name of the partition.",
          "to": "Token recipient.",
          "value": "Number of tokens to transfer."
        },
        "returns": {
          "_0": "Destination partition."
        }
      },
      "transferFrom(address,address,uint256)": {
        "details": "Transfer tokens from one address to another.",
        "params": {
          "from": "The address which you want to transfer tokens from.",
          "to": "The address which you want to transfer to.",
          "value": "The amount of tokens to be transferred."
        },
        "returns": {
          "_0": "A boolean that indicates if the operation was successful."
        }
      },
      "transferFromWithData(address,address,uint256,bytes)": {
        "details": "Transfer the amount of tokens on behalf of the address 'from' to the address 'to'.",
        "params": {
          "data": "Information attached to the transfer, and intended for the token holder ('from').",
          "from": "Token holder (or 'address(0)' to set from to 'msg.sender').",
          "to": "Token recipient.",
          "value": "Number of tokens to transfer."
        }
      },
      "transferOwnership(address)": {
        "details": "Transfers ownership of the contract to a new account (`newOwner`). Can only be called by the current owner."
      },
      "transferWithData(address,uint256,bytes)": {
        "details": "Transfer the amount of tokens from the address 'msg.sender' to the address 'to'.",
        "params": {
          "data": "Information attached to the transfer, by the token holder.",
          "to": "Token recipient.",
          "value": "Number of tokens to transfer."
        }
      }
    },
    "title": "ERC1400",
    "version": 1
  },
  "userdoc": {
    "kind": "user",
    "methods": {},
    "version": 1
  }
}