{
  "contractName": "ERC1400TokensValidator",
  "abi": [
    {
      "inputs": [],
      "stateMutability": "nonpayable",
      "type": "constructor"
    },
    {
      "anonymous": false,
      "inputs": [
        {
          "indexed": true,
          "internalType": "address",
          "name": "token",
          "type": "address"
        },
        {
          "indexed": true,
          "internalType": "address",
          "name": "account",
          "type": "address"
        }
      ],
      "name": "AllowlistAdminAdded",
      "type": "event"
    },
    {
      "anonymous": false,
      "inputs": [
        {
          "indexed": true,
          "internalType": "address",
          "name": "token",
          "type": "address"
        },
        {
          "indexed": true,
          "internalType": "address",
          "name": "account",
          "type": "address"
        }
      ],
      "name": "AllowlistAdminRemoved",
      "type": "event"
    },
    {
      "anonymous": false,
      "inputs": [
        {
          "indexed": true,
          "internalType": "address",
          "name": "token",
          "type": "address"
        },
        {
          "indexed": true,
          "internalType": "address",
          "name": "account",
          "type": "address"
        }
      ],
      "name": "AllowlistedAdded",
      "type": "event"
    },
    {
      "anonymous": false,
      "inputs": [
        {
          "indexed": true,
          "internalType": "address",
          "name": "token",
          "type": "address"
        },
        {
          "indexed": true,
          "internalType": "address",
          "name": "account",
          "type": "address"
        }
      ],
      "name": "AllowlistedRemoved",
      "type": "event"
    },
    {
      "anonymous": false,
      "inputs": [
        {
          "indexed": true,
          "internalType": "address",
          "name": "token",
          "type": "address"
        },
        {
          "indexed": true,
          "internalType": "address",
          "name": "account",
          "type": "address"
        }
      ],
      "name": "BlocklistAdminAdded",
      "type": "event"
    },
    {
      "anonymous": false,
      "inputs": [
        {
          "indexed": true,
          "internalType": "address",
          "name": "token",
          "type": "address"
        },
        {
          "indexed": true,
          "internalType": "address",
          "name": "account",
          "type": "address"
        }
      ],
      "name": "BlocklistAdminRemoved",
      "type": "event"
    },
    {
      "anonymous": false,
      "inputs": [
        {
          "indexed": true,
          "internalType": "address",
          "name": "token",
          "type": "address"
        },
        {
          "indexed": true,
          "internalType": "address",
          "name": "account",
          "type": "address"
        }
      ],
      "name": "BlocklistedAdded",
      "type": "event"
    },
    {
      "anonymous": false,
      "inputs": [
        {
          "indexed": true,
          "internalType": "address",
          "name": "token",
          "type": "address"
        },
        {
          "indexed": true,
          "internalType": "address",
          "name": "account",
          "type": "address"
        }
      ],
      "name": "BlocklistedRemoved",
      "type": "event"
    },
    {
      "anonymous": false,
      "inputs": [
        {
          "indexed": true,
          "internalType": "address",
          "name": "token",
          "type": "address"
        },
        {
          "indexed": true,
          "internalType": "address",
          "name": "account",
          "type": "address"
        }
      ],
      "name": "CertificateSignerAdded",
      "type": "event"
    },
    {
      "anonymous": false,
      "inputs": [
        {
          "indexed": true,
          "internalType": "address",
          "name": "token",
          "type": "address"
        },
        {
          "indexed": true,
          "internalType": "address",
          "name": "account",
          "type": "address"
        }
      ],
      "name": "CertificateSignerRemoved",
      "type": "event"
    },
    {
      "anonymous": false,
      "inputs": [
        {
          "indexed": true,
          "internalType": "address",
          "name": "token",
          "type": "address"
        },
        {
          "indexed": true,
          "internalType": "bytes32",
          "name": "holdId",
          "type": "bytes32"
        },
        {
          "indexed": false,
          "internalType": "bytes32",
          "name": "partition",
          "type": "bytes32"
        },
        {
          "indexed": false,
          "internalType": "address",
          "name": "sender",
          "type": "address"
        },
        {
          "indexed": false,
          "internalType": "address",
          "name": "recipient",
          "type": "address"
        },
        {
          "indexed": true,
          "internalType": "address",
          "name": "notary",
          "type": "address"
        },
        {
          "indexed": false,
          "internalType": "uint256",
          "name": "value",
          "type": "uint256"
        },
        {
          "indexed": false,
          "internalType": "uint256",
          "name": "expiration",
          "type": "uint256"
        },
        {
          "indexed": false,
          "internalType": "bytes32",
          "name": "secretHash",
          "type": "bytes32"
        }
      ],
      "name": "HoldCreated",
      "type": "event"
    },
    {
      "anonymous": false,
      "inputs": [
        {
          "indexed": true,
          "internalType": "address",
          "name": "token",
          "type": "address"
        },
        {
          "indexed": false,
          "internalType": "bytes32",
          "name": "holdId",
          "type": "bytes32"
        },
        {
          "indexed": true,
          "internalType": "address",
          "name": "notary",
          "type": "address"
        },
        {
          "indexed": false,
          "internalType": "uint256",
          "name": "heldValue",
          "type": "uint256"
        },
        {
          "indexed": false,
          "internalType": "uint256",
          "name": "transferredValue",
          "type": "uint256"
        },
        {
          "indexed": false,
          "internalType": "bytes32",
          "name": "secret",
          "type": "bytes32"
        }
      ],
      "name": "HoldExecuted",
      "type": "event"
    },
    {
      "anonymous": false,
      "inputs": [
        {
          "indexed": true,
          "internalType": "address",
          "name": "token",
          "type": "address"
        },
        {
          "indexed": false,
          "internalType": "bytes32",
          "name": "holdId",
          "type": "bytes32"
        },
        {
          "indexed": true,
          "internalType": "address",
          "name": "notary",
          "type": "address"
        },
        {
          "indexed": false,
          "internalType": "uint256",
          "name": "heldValue",
          "type": "uint256"
        },
        {
          "indexed": false,
          "internalType": "uint256",
          "name": "transferredValue",
          "type": "uint256"
        },
        {
          "indexed": false,
          "internalType": "bytes32",
          "name": "secret",
          "type": "bytes32"
        }
      ],
      "name": "HoldExecutedAndKeptOpen",
      "type": "event"
    },
    {
      "anonymous": false,
      "inputs": [
        {
          "indexed": true,
          "internalType": "address",
          "name": "token",
          "type": "address"
        },
        {
          "indexed": false,
          "internalType": "bytes32",
          "name": "holdId",
          "type": "bytes32"
        },
        {
          "indexed": true,
          "internalType": "address",
          "name": "notary",
          "type": "address"
        },
        {
          "indexed": false,
          "internalType": "enum HoldStatusCode",
          "name": "status",
          "type": "uint8"
        }
      ],
      "name": "HoldReleased",
      "type": "event"
    },
    {
      "anonymous": false,
      "inputs": [
        {
          "indexed": true,
          "internalType": "address",
          "name": "token",
          "type": "address"
        },
        {
          "indexed": false,
          "internalType": "bytes32",
          "name": "holdId",
          "type": "bytes32"
        },
        {
          "indexed": true,
          "internalType": "address",
          "name": "notary",
          "type": "address"
        },
        {
          "indexed": false,
          "internalType": "uint256",
          "name": "oldExpiration",
          "type": "uint256"
        },
        {
          "indexed": false,
          "internalType": "uint256",
          "name": "newExpiration",
          "type": "uint256"
        }
      ],
      "name": "HoldRenewed",
      "type": "event"
    },
    {
      "anonymous": false,
      "inputs": [
        {
          "indexed": true,
          "internalType": "address",
          "name": "token",
          "type": "address"
        },
        {
          "indexed": false,
          "internalType": "address",
          "name": "account",
          "type": "address"
        }
      ],
      "name": "Paused",
      "type": "event"
    },
    {
      "anonymous": false,
      "inputs": [
        {
          "indexed": true,
          "internalType": "address",
          "name": "token",
          "type": "address"
        },
        {
          "indexed": true,
          "internalType": "address",
          "name": "account",
          "type": "address"
        }
      ],
      "name": "PauserAdded",
      "type": "event"
    },
    {
      "anonymous": false,
      "inputs": [
        {
          "indexed": true,
          "internalType": "address",
          "name": "token",
          "type": "address"
        },
        {
          "indexed": true,
          "internalType": "address",
          "name": "account",
          "type": "address"
        }
      ],
      "name": "PauserRemoved",
      "type": "event"
    },
    {
      "anonymous": false,
      "inputs": [
        {
          "indexed": true,
          "internalType": "address",
          "name": "token",
          "type": "address"
        },
        {
          "indexed": false,
          "internalType": "address",
          "name": "account",
          "type": "address"
        }
      ],
      "name": "Unpaused",
      "type": "event"
    },
    {
      "inputs": [
        {
          "internalType": "address",
          "name": "token",
          "type": "address"
        },
        {
          "internalType": "address",
          "name": "account",
          "type": "address"
        }
      ],
      "name": "addAllowlistAdmin",
      "outputs": [],
      "stateMutability": "nonpayable",
      "type": "function"
    },
    {
      "inputs": [
        {
          "internalType": "address",
          "name": "token",
          "type": "address"
        },
        {
          "internalType": "address",
          "name": "account",
          "type": "address"
        }
      ],
      "name": "addAllowlisted",
      "outputs": [],
      "stateMutability": "nonpayable",
      "type": "function"
    },
    {
      "inputs": [
        {
          "internalType": "address",
          "name": "token",
          "type": "address"
        },
        {
          "internalType": "address",
          "name": "account",
          "type": "address"
        }
      ],
      "name": "addBlocklistAdmin",
      "outputs": [],
      "stateMutability": "nonpayable",
      "type": "function"
    },
    {
      "inputs": [
        {
          "internalType": "address",
          "name": "token",
          "type": "address"
        },
        {
          "internalType": "address",
          "name": "account",
          "type": "address"
        }
      ],
      "name": "addBlocklisted",
      "outputs": [],
      "stateMutability": "nonpayable",
      "type": "function"
    },
    {
      "inputs": [
        {
          "internalType": "address",
          "name": "token",
          "type": "address"
        },
        {
          "internalType": "address",
          "name": "account",
          "type": "address"
        }
      ],
      "name": "addCertificateSigner",
      "outputs": [],
      "stateMutability": "nonpayable",
      "type": "function"
    },
    {
      "inputs": [
        {
          "internalType": "address",
          "name": "token",
          "type": "address"
        },
        {
          "internalType": "address",
          "name": "account",
          "type": "address"
        }
      ],
      "name": "addPauser",
      "outputs": [],
      "stateMutability": "nonpayable",
      "type": "function"
    },
    {
      "inputs": [
        {
          "internalType": "bytes32",
          "name": "interfaceHash",
          "type": "bytes32"
        },
        {
          "internalType": "address",
          "name": "",
          "type": "address"
        }
      ],
      "name": "canImplementInterfaceForAddress",
      "outputs": [
        {
          "internalType": "bytes32",
          "name": "",
          "type": "bytes32"
        }
      ],
      "stateMutability": "view",
      "type": "function",
      "constant": true
    },
    {
      "inputs": [
        {
          "internalType": "address",
          "name": "token",
          "type": "address"
        },
        {
          "internalType": "address",
          "name": "account",
          "type": "address"
        }
      ],
      "name": "isAllowlistAdmin",
      "outputs": [
        {
          "internalType": "bool",
          "name": "",
          "type": "bool"
        }
      ],
      "stateMutability": "view",
      "type": "function",
      "constant": true
    },
    {
      "inputs": [
        {
          "internalType": "address",
          "name": "token",
          "type": "address"
        },
        {
          "internalType": "address",
          "name": "account",
          "type": "address"
        }
      ],
      "name": "isAllowlisted",
      "outputs": [
        {
          "internalType": "bool",
          "name": "",
          "type": "bool"
        }
      ],
      "stateMutability": "view",
      "type": "function",
      "constant": true
    },
    {
      "inputs": [
        {
          "internalType": "address",
          "name": "token",
          "type": "address"
        },
        {
          "internalType": "address",
          "name": "account",
          "type": "address"
        }
      ],
      "name": "isBlocklistAdmin",
      "outputs": [
        {
          "internalType": "bool",
          "name": "",
          "type": "bool"
        }
      ],
      "stateMutability": "view",
      "type": "function",
      "constant": true
    },
    {
      "inputs": [
        {
          "internalType": "address",
          "name": "token",
          "type": "address"
        },
        {
          "internalType": "address",
          "name": "account",
          "type": "address"
        }
      ],
      "name": "isBlocklisted",
      "outputs": [
        {
          "internalType": "bool",
          "name": "",
          "type": "bool"
        }
      ],
      "stateMutability": "view",
      "type": "function",
      "constant": true
    },
    {
      "inputs": [
        {
          "internalType": "address",
          "name": "token",
          "type": "address"
        },
        {
          "internalType": "address",
          "name": "account",
          "type": "address"
        }
      ],
      "name": "isCertificateSigner",
      "outputs": [
        {
          "internalType": "bool",
          "name": "",
          "type": "bool"
        }
      ],
      "stateMutability": "view",
      "type": "function",
      "constant": true
    },
    {
      "inputs": [
        {
          "internalType": "address",
          "name": "token",
          "type": "address"
        },
        {
          "internalType": "address",
          "name": "account",
          "type": "address"
        }
      ],
      "name": "isPauser",
      "outputs": [
        {
          "internalType": "bool",
          "name": "",
          "type": "bool"
        }
      ],
      "stateMutability": "view",
      "type": "function",
      "constant": true
    },
    {
      "inputs": [
        {
          "internalType": "address",
          "name": "token",
          "type": "address"
        }
      ],
      "name": "pause",
      "outputs": [],
      "stateMutability": "nonpayable",
      "type": "function"
    },
    {
      "inputs": [
        {
          "internalType": "address",
          "name": "token",
          "type": "address"
        }
      ],
      "name": "paused",
      "outputs": [
        {
          "internalType": "bool",
          "name": "",
          "type": "bool"
        }
      ],
      "stateMutability": "view",
      "type": "function",
      "constant": true
    },
    {
      "inputs": [
        {
          "internalType": "address",
          "name": "token",
          "type": "address"
        },
        {
          "internalType": "address",
          "name": "account",
          "type": "address"
        }
      ],
      "name": "removeAllowlistAdmin",
      "outputs": [],
      "stateMutability": "nonpayable",
      "type": "function"
    },
    {
      "inputs": [
        {
          "internalType": "address",
          "name": "token",
          "type": "address"
        },
        {
          "internalType": "address",
          "name": "account",
          "type": "address"
        }
      ],
      "name": "removeAllowlisted",
      "outputs": [],
      "stateMutability": "nonpayable",
      "type": "function"
    },
    {
      "inputs": [
        {
          "internalType": "address",
          "name": "token",
          "type": "address"
        },
        {
          "internalType": "address",
          "name": "account",
          "type": "address"
        }
      ],
      "name": "removeBlocklistAdmin",
      "outputs": [],
      "stateMutability": "nonpayable",
      "type": "function"
    },
    {
      "inputs": [
        {
          "internalType": "address",
          "name": "token",
          "type": "address"
        },
        {
          "internalType": "address",
          "name": "account",
          "type": "address"
        }
      ],
      "name": "removeBlocklisted",
      "outputs": [],
      "stateMutability": "nonpayable",
      "type": "function"
    },
    {
      "inputs": [
        {
          "internalType": "address",
          "name": "token",
          "type": "address"
        },
        {
          "internalType": "address",
          "name": "account",
          "type": "address"
        }
      ],
      "name": "removeCertificateSigner",
      "outputs": [],
      "stateMutability": "nonpayable",
      "type": "function"
    },
    {
      "inputs": [
        {
          "internalType": "address",
          "name": "token",
          "type": "address"
        },
        {
          "internalType": "address",
          "name": "account",
          "type": "address"
        }
      ],
      "name": "removePauser",
      "outputs": [],
      "stateMutability": "nonpayable",
      "type": "function"
    },
    {
      "inputs": [
        {
          "internalType": "address",
          "name": "token",
          "type": "address"
        }
      ],
      "name": "renounceAllowlistAdmin",
      "outputs": [],
      "stateMutability": "nonpayable",
      "type": "function"
    },
    {
      "inputs": [
        {
          "internalType": "address",
          "name": "token",
          "type": "address"
        }
      ],
      "name": "renounceBlocklistAdmin",
      "outputs": [],
      "stateMutability": "nonpayable",
      "type": "function"
    },
    {
      "inputs": [
        {
          "internalType": "address",
          "name": "token",
          "type": "address"
        }
      ],
      "name": "renounceCertificateSigner",
      "outputs": [],
      "stateMutability": "nonpayable",
      "type": "function"
    },
    {
      "inputs": [
        {
          "internalType": "address",
          "name": "token",
          "type": "address"
        }
      ],
      "name": "renouncePauser",
      "outputs": [],
      "stateMutability": "nonpayable",
      "type": "function"
    },
    {
      "inputs": [
        {
          "internalType": "address",
          "name": "token",
          "type": "address"
        }
      ],
      "name": "unpause",
      "outputs": [],
      "stateMutability": "nonpayable",
      "type": "function"
    },
    {
      "inputs": [
        {
          "internalType": "address",
          "name": "token",
          "type": "address"
        }
      ],
      "name": "retrieveTokenSetup",
      "outputs": [
        {
          "internalType": "enum ERC1400TokensValidator.CertificateValidation",
          "name": "",
          "type": "uint8"
        },
        {
          "internalType": "bool",
          "name": "",
          "type": "bool"
        },
        {
          "internalType": "bool",
          "name": "",
          "type": "bool"
        },
        {
          "internalType": "bool",
          "name": "",
          "type": "bool"
        },
        {
          "internalType": "bool",
          "name": "",
          "type": "bool"
        },
        {
          "internalType": "address[]",
          "name": "",
          "type": "address[]"
        }
      ],
      "stateMutability": "view",
      "type": "function",
      "constant": true
    },
    {
      "inputs": [
        {
          "internalType": "address",
          "name": "token",
          "type": "address"
        },
        {
          "internalType": "enum ERC1400TokensValidator.CertificateValidation",
          "name": "certificateActivated",
          "type": "uint8"
        },
        {
          "internalType": "bool",
          "name": "allowlistActivated",
          "type": "bool"
        },
        {
          "internalType": "bool",
          "name": "blocklistActivated",
          "type": "bool"
        },
        {
          "internalType": "bool",
          "name": "granularityByPartitionActivated",
          "type": "bool"
        },
        {
          "internalType": "bool",
          "name": "holdsActivated",
          "type": "bool"
        },
        {
          "internalType": "address[]",
          "name": "operators",
          "type": "address[]"
        }
      ],
      "name": "registerTokenSetup",
      "outputs": [],
      "stateMutability": "nonpayable",
      "type": "function"
    },
    {
      "inputs": [
        {
          "components": [
            {
              "internalType": "address",
              "name": "token",
              "type": "address"
            },
            {
              "internalType": "bytes",
              "name": "payload",
              "type": "bytes"
            },
            {
              "internalType": "bytes32",
              "name": "partition",
              "type": "bytes32"
            },
            {
              "internalType": "address",
              "name": "operator",
              "type": "address"
            },
            {
              "internalType": "address",
              "name": "from",
              "type": "address"
            },
            {
              "internalType": "address",
              "name": "to",
              "type": "address"
            },
            {
              "internalType": "uint256",
              "name": "value",
              "type": "uint256"
            },
            {
              "internalType": "bytes",
              "name": "data",
              "type": "bytes"
            },
            {
              "internalType": "bytes",
              "name": "operatorData",
              "type": "bytes"
            }
          ],
          "internalType": "struct IERC1400TokensValidator.ValidateData",
          "name": "data",
          "type": "tuple"
        }
      ],
      "name": "canValidate",
      "outputs": [
        {
          "internalType": "bool",
          "name": "",
          "type": "bool"
        }
      ],
      "stateMutability": "view",
      "type": "function",
      "constant": true
    },
    {
      "inputs": [
        {
          "internalType": "bytes",
          "name": "payload",
          "type": "bytes"
        },
        {
          "internalType": "bytes32",
          "name": "partition",
          "type": "bytes32"
        },
        {
          "internalType": "address",
          "name": "operator",
          "type": "address"
        },
        {
          "internalType": "address",
          "name": "from",
          "type": "address"
        },
        {
          "internalType": "address",
          "name": "to",
          "type": "address"
        },
        {
          "internalType": "uint256",
          "name": "value",
          "type": "uint256"
        },
        {
          "internalType": "bytes",
          "name": "data",
          "type": "bytes"
        },
        {
          "internalType": "bytes",
          "name": "operatorData",
          "type": "bytes"
        }
      ],
      "name": "tokensToValidate",
      "outputs": [],
      "stateMutability": "nonpayable",
      "type": "function"
    },
    {
      "inputs": [
        {
          "internalType": "address",
          "name": "token",
          "type": "address"
        },
        {
          "internalType": "bytes32",
          "name": "partition",
          "type": "bytes32"
        }
      ],
      "name": "granularityByPartition",
      "outputs": [
        {
          "internalType": "uint256",
          "name": "",
          "type": "uint256"
        }
      ],
      "stateMutability": "view",
      "type": "function",
      "constant": true
    },
    {
      "inputs": [
        {
          "internalType": "address",
          "name": "token",
          "type": "address"
        },
        {
          "internalType": "bytes32",
          "name": "partition",
          "type": "bytes32"
        },
        {
          "internalType": "uint256",
          "name": "granularity",
          "type": "uint256"
        }
      ],
      "name": "setGranularityByPartition",
      "outputs": [],
      "stateMutability": "nonpayable",
      "type": "function"
    },
    {
      "inputs": [
        {
          "internalType": "address",
          "name": "token",
          "type": "address"
        },
        {
          "internalType": "bytes32",
          "name": "holdId",
          "type": "bytes32"
        },
        {
          "internalType": "address",
          "name": "recipient",
          "type": "address"
        },
        {
          "internalType": "address",
          "name": "notary",
          "type": "address"
        },
        {
          "internalType": "bytes32",
          "name": "partition",
          "type": "bytes32"
        },
        {
          "internalType": "uint256",
          "name": "value",
          "type": "uint256"
        },
        {
          "internalType": "uint256",
          "name": "timeToExpiration",
          "type": "uint256"
        },
        {
          "internalType": "bytes32",
          "name": "secretHash",
          "type": "bytes32"
        },
        {
          "internalType": "bytes",
          "name": "certificate",
          "type": "bytes"
        }
      ],
      "name": "preHoldFor",
      "outputs": [
        {
          "internalType": "bool",
          "name": "",
          "type": "bool"
        }
      ],
      "stateMutability": "nonpayable",
      "type": "function"
    },
    {
      "inputs": [
        {
          "internalType": "address",
          "name": "token",
          "type": "address"
        },
        {
          "internalType": "bytes32",
          "name": "holdId",
          "type": "bytes32"
        },
        {
          "internalType": "address",
          "name": "recipient",
          "type": "address"
        },
        {
          "internalType": "address",
          "name": "notary",
          "type": "address"
        },
        {
          "internalType": "bytes32",
          "name": "partition",
          "type": "bytes32"
        },
        {
          "internalType": "uint256",
          "name": "value",
          "type": "uint256"
        },
        {
          "internalType": "uint256",
          "name": "expiration",
          "type": "uint256"
        },
        {
          "internalType": "bytes32",
          "name": "secretHash",
          "type": "bytes32"
        },
        {
          "internalType": "bytes",
          "name": "certificate",
          "type": "bytes"
        }
      ],
      "name": "preHoldForWithExpirationDate",
      "outputs": [
        {
          "internalType": "bool",
          "name": "",
          "type": "bool"
        }
      ],
      "stateMutability": "nonpayable",
      "type": "function"
    },
    {
      "inputs": [
        {
          "internalType": "address",
          "name": "token",
          "type": "address"
        },
        {
          "internalType": "bytes32",
          "name": "holdId",
          "type": "bytes32"
        },
        {
          "internalType": "address",
          "name": "recipient",
          "type": "address"
        },
        {
          "internalType": "address",
          "name": "notary",
          "type": "address"
        },
        {
          "internalType": "bytes32",
          "name": "partition",
          "type": "bytes32"
        },
        {
          "internalType": "uint256",
          "name": "value",
          "type": "uint256"
        },
        {
          "internalType": "uint256",
          "name": "timeToExpiration",
          "type": "uint256"
        },
        {
          "internalType": "bytes32",
          "name": "secretHash",
          "type": "bytes32"
        },
        {
          "internalType": "bytes",
          "name": "certificate",
          "type": "bytes"
        }
      ],
      "name": "hold",
      "outputs": [
        {
          "internalType": "bool",
          "name": "",
          "type": "bool"
        }
      ],
      "stateMutability": "nonpayable",
      "type": "function"
    },
    {
      "inputs": [
        {
          "internalType": "address",
          "name": "token",
          "type": "address"
        },
        {
          "internalType": "bytes32",
          "name": "holdId",
          "type": "bytes32"
        },
        {
          "internalType": "address",
          "name": "recipient",
          "type": "address"
        },
        {
          "internalType": "address",
          "name": "notary",
          "type": "address"
        },
        {
          "internalType": "bytes32",
          "name": "partition",
          "type": "bytes32"
        },
        {
          "internalType": "uint256",
          "name": "value",
          "type": "uint256"
        },
        {
          "internalType": "uint256",
          "name": "expiration",
          "type": "uint256"
        },
        {
          "internalType": "bytes32",
          "name": "secretHash",
          "type": "bytes32"
        },
        {
          "internalType": "bytes",
          "name": "certificate",
          "type": "bytes"
        }
      ],
      "name": "holdWithExpirationDate",
      "outputs": [
        {
          "internalType": "bool",
          "name": "",
          "type": "bool"
        }
      ],
      "stateMutability": "nonpayable",
      "type": "function"
    },
    {
      "inputs": [
        {
          "internalType": "address",
          "name": "token",
          "type": "address"
        },
        {
          "internalType": "bytes32",
          "name": "holdId",
          "type": "bytes32"
        },
        {
          "internalType": "address",
          "name": "sender",
          "type": "address"
        },
        {
          "internalType": "address",
          "name": "recipient",
          "type": "address"
        },
        {
          "internalType": "address",
          "name": "notary",
          "type": "address"
        },
        {
          "internalType": "bytes32",
          "name": "partition",
          "type": "bytes32"
        },
        {
          "internalType": "uint256",
          "name": "value",
          "type": "uint256"
        },
        {
          "internalType": "uint256",
          "name": "timeToExpiration",
          "type": "uint256"
        },
        {
          "internalType": "bytes32",
          "name": "secretHash",
          "type": "bytes32"
        },
        {
          "internalType": "bytes",
          "name": "certificate",
          "type": "bytes"
        }
      ],
      "name": "holdFrom",
      "outputs": [
        {
          "internalType": "bool",
          "name": "",
          "type": "bool"
        }
      ],
      "stateMutability": "nonpayable",
      "type": "function"
    },
    {
      "inputs": [
        {
          "internalType": "address",
          "name": "token",
          "type": "address"
        },
        {
          "internalType": "bytes32",
          "name": "holdId",
          "type": "bytes32"
        },
        {
          "internalType": "address",
          "name": "sender",
          "type": "address"
        },
        {
          "internalType": "address",
          "name": "recipient",
          "type": "address"
        },
        {
          "internalType": "address",
          "name": "notary",
          "type": "address"
        },
        {
          "internalType": "bytes32",
          "name": "partition",
          "type": "bytes32"
        },
        {
          "internalType": "uint256",
          "name": "value",
          "type": "uint256"
        },
        {
          "internalType": "uint256",
          "name": "expiration",
          "type": "uint256"
        },
        {
          "internalType": "bytes32",
          "name": "secretHash",
          "type": "bytes32"
        },
        {
          "internalType": "bytes",
          "name": "certificate",
          "type": "bytes"
        }
      ],
      "name": "holdFromWithExpirationDate",
      "outputs": [
        {
          "internalType": "bool",
          "name": "",
          "type": "bool"
        }
      ],
      "stateMutability": "nonpayable",
      "type": "function"
    },
    {
      "inputs": [
        {
          "internalType": "address",
          "name": "token",
          "type": "address"
        },
        {
          "internalType": "bytes32",
          "name": "holdId",
          "type": "bytes32"
        }
      ],
      "name": "releaseHold",
      "outputs": [
        {
          "internalType": "bool",
          "name": "",
          "type": "bool"
        }
      ],
      "stateMutability": "nonpayable",
      "type": "function"
    },
    {
      "inputs": [
        {
          "internalType": "address",
          "name": "token",
          "type": "address"
        },
        {
          "internalType": "bytes32",
          "name": "holdId",
          "type": "bytes32"
        },
        {
          "internalType": "uint256",
          "name": "timeToExpiration",
          "type": "uint256"
        },
        {
          "internalType": "bytes",
          "name": "certificate",
          "type": "bytes"
        }
      ],
      "name": "renewHold",
      "outputs": [
        {
          "internalType": "bool",
          "name": "",
          "type": "bool"
        }
      ],
      "stateMutability": "nonpayable",
      "type": "function"
    },
    {
      "inputs": [
        {
          "internalType": "address",
          "name": "token",
          "type": "address"
        },
        {
          "internalType": "bytes32",
          "name": "holdId",
          "type": "bytes32"
        },
        {
          "internalType": "uint256",
          "name": "expiration",
          "type": "uint256"
        },
        {
          "internalType": "bytes",
          "name": "certificate",
          "type": "bytes"
        }
      ],
      "name": "renewHoldWithExpirationDate",
      "outputs": [
        {
          "internalType": "bool",
          "name": "",
          "type": "bool"
        }
      ],
      "stateMutability": "nonpayable",
      "type": "function"
    },
    {
      "inputs": [
        {
          "internalType": "address",
          "name": "token",
          "type": "address"
        },
        {
          "internalType": "bytes32",
          "name": "holdId",
          "type": "bytes32"
        },
        {
          "internalType": "uint256",
          "name": "value",
          "type": "uint256"
        },
        {
          "internalType": "bytes32",
          "name": "secret",
          "type": "bytes32"
        }
      ],
      "name": "executeHold",
      "outputs": [],
      "stateMutability": "nonpayable",
      "type": "function"
    },
    {
      "inputs": [
        {
          "internalType": "address",
          "name": "token",
          "type": "address"
        },
        {
          "internalType": "bytes32",
          "name": "holdId",
          "type": "bytes32"
        },
        {
          "internalType": "uint256",
          "name": "value",
          "type": "uint256"
        },
        {
          "internalType": "bytes32",
          "name": "secret",
          "type": "bytes32"
        }
      ],
      "name": "executeHoldAndKeepOpen",
      "outputs": [],
      "stateMutability": "nonpayable",
      "type": "function"
    },
    {
      "inputs": [
        {
          "internalType": "address",
          "name": "token",
          "type": "address"
        },
        {
          "internalType": "bytes32",
          "name": "holdId",
          "type": "bytes32"
        }
      ],
      "name": "retrieveHoldData",
      "outputs": [
        {
          "internalType": "bytes32",
          "name": "partition",
          "type": "bytes32"
        },
        {
          "internalType": "address",
          "name": "sender",
          "type": "address"
        },
        {
          "internalType": "address",
          "name": "recipient",
          "type": "address"
        },
        {
          "internalType": "address",
          "name": "notary",
          "type": "address"
        },
        {
          "internalType": "uint256",
          "name": "value",
          "type": "uint256"
        },
        {
          "internalType": "uint256",
          "name": "expiration",
          "type": "uint256"
        },
        {
          "internalType": "bytes32",
          "name": "secretHash",
          "type": "bytes32"
        },
        {
          "internalType": "bytes32",
          "name": "secret",
          "type": "bytes32"
        },
        {
          "internalType": "enum HoldStatusCode",
          "name": "status",
          "type": "uint8"
        }
      ],
      "stateMutability": "view",
      "type": "function",
      "constant": true
    },
    {
      "inputs": [
        {
          "internalType": "address",
          "name": "token",
          "type": "address"
        }
      ],
      "name": "totalSupplyOnHold",
      "outputs": [
        {
          "internalType": "uint256",
          "name": "",
          "type": "uint256"
        }
      ],
      "stateMutability": "view",
      "type": "function",
      "constant": true
    },
    {
      "inputs": [
        {
          "internalType": "address",
          "name": "token",
          "type": "address"
        },
        {
          "internalType": "bytes32",
          "name": "partition",
          "type": "bytes32"
        }
      ],
      "name": "totalSupplyOnHoldByPartition",
      "outputs": [
        {
          "internalType": "uint256",
          "name": "",
          "type": "uint256"
        }
      ],
      "stateMutability": "view",
      "type": "function",
      "constant": true
    },
    {
      "inputs": [
        {
          "internalType": "address",
          "name": "token",
          "type": "address"
        },
        {
          "internalType": "address",
          "name": "account",
          "type": "address"
        }
      ],
      "name": "balanceOnHold",
      "outputs": [
        {
          "internalType": "uint256",
          "name": "",
          "type": "uint256"
        }
      ],
      "stateMutability": "view",
      "type": "function",
      "constant": true
    },
    {
      "inputs": [
        {
          "internalType": "address",
          "name": "token",
          "type": "address"
        },
        {
          "internalType": "bytes32",
          "name": "partition",
          "type": "bytes32"
        },
        {
          "internalType": "address",
          "name": "account",
          "type": "address"
        }
      ],
      "name": "balanceOnHoldByPartition",
      "outputs": [
        {
          "internalType": "uint256",
          "name": "",
          "type": "uint256"
        }
      ],
      "stateMutability": "view",
      "type": "function",
      "constant": true
    },
    {
      "inputs": [
        {
          "internalType": "address",
          "name": "token",
          "type": "address"
        },
        {
          "internalType": "address",
          "name": "account",
          "type": "address"
        }
      ],
      "name": "spendableBalanceOf",
      "outputs": [
        {
          "internalType": "uint256",
          "name": "",
          "type": "uint256"
        }
      ],
      "stateMutability": "view",
      "type": "function",
      "constant": true
    },
    {
      "inputs": [
        {
          "internalType": "address",
          "name": "token",
          "type": "address"
        },
        {
          "internalType": "bytes32",
          "name": "partition",
          "type": "bytes32"
        },
        {
          "internalType": "address",
          "name": "account",
          "type": "address"
        }
      ],
      "name": "spendableBalanceOfByPartition",
      "outputs": [
        {
          "internalType": "uint256",
          "name": "",
          "type": "uint256"
        }
      ],
      "stateMutability": "view",
      "type": "function",
      "constant": true
    },
    {
      "inputs": [
        {
          "internalType": "address",
          "name": "token",
          "type": "address"
        },
        {
          "internalType": "address",
          "name": "sender",
          "type": "address"
        }
      ],
      "name": "usedCertificateNonce",
      "outputs": [
        {
          "internalType": "uint256",
          "name": "",
          "type": "uint256"
        }
      ],
      "stateMutability": "view",
      "type": "function",
      "constant": true
    },
    {
      "inputs": [
        {
          "internalType": "address",
          "name": "token",
          "type": "address"
        },
        {
          "internalType": "bytes32",
          "name": "salt",
          "type": "bytes32"
        }
      ],
      "name": "usedCertificateSalt",
      "outputs": [
        {
          "internalType": "bool",
          "name": "",
          "type": "bool"
        }
      ],
      "stateMutability": "view",
      "type": "function",
      "constant": true
    }
  ],
  "bytecode": "0x60806040523480156200001157600080fd5b506200005d6040518060400160405280601681526020017f45524331343030546f6b656e7356616c696461746f72000000000000000000008152506200006360201b620022b81760201c565b620000f1565b600160076000836040516020016200007c9190620000b3565b60408051808303601f19018152918152815160209283012083529082019290925201600020805460ff191691151591909117905550565b6000825160005b81811015620000d65760208186018101518583015201620000ba565b81811115620000e6576000828501525b509190910192915050565b61557b80620001016000396000f3fe608060405234801561001057600080fd5b506004361061025c5760003560e01c80630d21cdd814610261578063118fa5db1461027657806312da4de6146102895780631529371f1461031e5780631db9c180146103555780632174e43514610368578063249cb3fa1461038b5780632744cc271461039e578063279f00dd146103d75780632c55b05f146103ea5780632e48152c146103fd5780632fd33398146104105780633bddaf8f1461042357806341eb24bb146104365780634261699f1461044957806342be57871461045c578063450999a01461046f578063520faa76146104a5578063530b8edd146104b857806354c6f08c146104cb57806357b001f9146104de5780635b4b2fd3146104f157806361aed0641461050457806361c2e2811461053d57806362e93ffa14610550578063685e2519146105635780636eb6ad8f14610576578063732c916b1461058957806373e7b1601461059c57806376a67a51146105af57806389d3a639146105c25780639672d64b146105d557806398a53ef5146105e85780639bd483ec146105fb5780639e59ceba1461060e578063a28e7c0214610621578063a4aa023f14610634578063a54cdf6a14610647578063accf61751461067d578063b090bee7146106a2578063c1c60fe2146106b5578063c428b202146106c8578063c69664bb146106db578063d47ac02a146106ee578063dfe15da014610701578063e323e67114610714578063e34a11ec14610727578063e81ea54114610768578063eb5314bd1461077b578063ebf42f771461078e578063ed2f9095146107a1578063fa061ca0146107b4575b600080fd5b61027461026f366004614acb565b6107c7565b005b610274610284366004614df7565b6107d4565b610300610297366004614b3e565b6001600160a01b039182166000908152601260209081526040808320938352929052208054600182015460028301546003840154600485015460058601546006870154600788015460089098015496999589169894851697939094169591949093929160ff1690565b604051610315999897969594939291906150fe565b60405180910390f35b61034761032c366004614acb565b6001600160a01b031660009081526016602052604090205490565b604051908152602001610315565b610347610363366004614b05565b61099d565b61037b610376366004614bac565b6109ca565b6040519015158152602001610315565b610347610399366004614f15565b610a52565b6103476103ac366004614b05565b6001600160a01b039182166000908152600d6020908152604080832093909416825291909152205490565b61037b6103e5366004614c6f565b610ab1565b6102746103f8366004614b05565b610ad8565b61037b61040b366004614acb565b610bda565b61037b61041e366004614b05565b610bf8565b610274610431366004614acb565b610c21565b610274610444366004614acb565b610c2b565b610274610457366004614b05565b610c35565b61037b61046a366004614b05565b610d32565b61034761047d366004614b3e565b6001600160a01b03919091166000908152601560209081526040808320938352929052205490565b6102746104b3366004614f3a565b610d54565b61037b6104c6366004614c6f565b610fa0565b6102746104d9366004614d53565b610ff4565b6102746104ec366004614acb565b611009565b6103476104ff366004614b05565b611180565b61037b610512366004614b3e565b6001600160a01b03919091166000908152600e60209081526040808320938352929052205460ff1690565b61037b61054b366004614b05565b61118c565b61027461055e366004614d1e565b6111ae565b610274610571366004614b05565b6112b8565b610274610584366004614d53565b6113b5565b610347610597366004614b6a565b6113c4565b61037b6105aa366004614c6f565b6113d9565b6102746105bd366004614acb565b6113ee565b61037b6105d0366004614c6f565b61155e565b61037b6105e3366004614bac565b6115b1565b61037b6105f636600461501c565b61162a565b610274610609366004614b05565b6117e6565b61037b61061c366004614b05565b6118e3565b61037b61062f366004614b05565b611905565b61037b610642366004614b05565b611927565b610347610655366004614b3e565b6001600160a01b03919091166000908152601160209081526040808320938352929052205490565b61069061068b366004614acb565b611949565b6040516103159695949392919061519c565b61037b6106b0366004614d8e565b611a17565b61037b6106c3366004614b3e565b611a6e565b6102746106d6366004614b05565b611a7a565b6102746106e9366004614b05565b611b77565b61037b6106fc366004614d8e565b611c74565b61027461070f366004614b05565b611cc0565b610274610722366004614acb565b611dbd565b610347610735366004614b6a565b6001600160a01b039283166000908152601460209081526040808320939095168252918252838120928152919052205490565b610274610776366004614b05565b611dc7565b610274610789366004614b05565b611ec4565b61027461079c366004614b05565b611fc1565b6102746107af366004614b05565b6120be565b6102746107c2366004614b05565b6121bb565b6107d18133612306565b50565b87336001600160a01b038216148061086d5750806001600160a01b0316638da5cb5b6040518163ffffffff1660e01b815260040160206040518083038186803b15801561082057600080fd5b505afa158015610834573d6000803e3d6000fd5b505050506040513d601f19601f820116820180604052508101906108589190614ae8565b6001600160a01b0316336001600160a01b0316145b8061089b57506001600160a01b038116600090815260096020908152604080832033845290915290205460ff165b6108c05760405162461bcd60e51b81526004016108b790615367565b60405180910390fd5b6001600160a01b0389166000908152600c60205260409020805489919060ff191660018360028111156108f5576108f56154e0565b02179055506001600160a01b0389166000908152600a60209081526040808320805460ff199081168c151517909155600b8352818420805482168b1515179055600f8352818420805482168a1515179055601083529281902080549093168715151790925581518482028082018301909352848152610992928c928791879182919085019084908082843760009201919091525061236c92505050565b505050505050505050565b6001600160a01b038083166000908152601360209081526040808320938516835292905220545b92915050565b60006001600160a01b038a166109f25760405162461bcd60e51b81526004016108b790615273565b610a428c8c8c8c8c8c8c610a058d6124b7565b8c8c8c8080601f0160208091040260200160405190810160405280939291908181526020018383808284376000920191909152506124ca92505050565b9c9b505050505050505050505050565b60008281526007602052604081205460ff1615610aa95760405173455243313832305f4143434550545f4d4147494360601b60208201526034016040516020818303038152906040528051906020012090506109c4565b5060006109c4565b6000610ac78b8b60008c8c8c8c610a058d6124b7565b90505b9a9950505050505050505050565b81336001600160a01b0382161480610b715750806001600160a01b0316638da5cb5b6040518163ffffffff1660e01b815260040160206040518083038186803b158015610b2457600080fd5b505afa158015610b38573d6000803e3d6000fd5b505050506040513d601f19601f82011682018060405250810190610b5c9190614ae8565b6001600160a01b0316336001600160a01b0316145b80610b9f57506001600160a01b038116600090815260096020908152604080832033845290915290205460ff165b80610baf5750610baf8133611905565b610bcb5760405162461bcd60e51b81526004016108b7906152b9565b610bd5838361286e565b505050565b6001600160a01b031660009081526001602052604090205460ff1690565b6001600160a01b0382166000908152602081905260408120610c1a90836128d4565b9392505050565b6107d18133612957565b6107d181336129bd565b81336001600160a01b0382161480610cce5750806001600160a01b0316638da5cb5b6040518163ffffffff1660e01b815260040160206040518083038186803b158015610c8157600080fd5b505afa158015610c95573d6000803e3d6000fd5b505050506040513d601f19601f82011682018060405250810190610cb99190614ae8565b6001600160a01b0316336001600160a01b0316145b80610cfc57506001600160a01b038116600090815260096020908152604080832033845290915290205460ff165b80610d0c5750610d0c8133610d32565b610d285760405162461bcd60e51b81526004016108b790615332565b610bd58383612a23565b6001600160a01b0382166000908152600360205260408120610c1a90836128d4565b6000806000610df3338f8f8080601f016020809104026020016040519081016040528093929190818152602001838380828437600081840152601f19601f820116905080830192505050505050508d8888905060001415610db6578a8a610db9565b88885b8080601f016020809104026020016040519081016040528093929190818152602001838380828437600092019190915250612a8992505050565b92509250925082610e165760405162461bcd60e51b81526004016108b790615227565b610e2233838d84612baf565b505050610e69338c8c8080601f0160208091040260200160405190810160405280939291908181526020018383808284376000920191909152508c92508b9150612c5a9050565b610e855760405162461bcd60e51b81526004016108b790615227565b610e8e33610bda565b15610eab5760405162461bcd60e51b81526004016108b790615227565b610eb6338a87612d99565b610ee75760405162461bcd60e51b8152602060048201526002602482015261035360f41b60448201526064016108b7565b610ef5338a8a8a8a8a612e2e565b610f265760405162461bcd60e51b8152602060048201526002602482015261353560f01b60448201526064016108b7565b6000610f36338b8b8b8b8b612f82565b3360009081526010602052604090205490925060ff1690508015610f5957508015155b15610f9257336000818152601260209081526040808320858452909152812060048101549092610f90929091849186918c91612ffa565b505b505050505050505050505050565b6000610fab85613084565b610ac78b8b60008c8c8c8c8c8c8c8c8080601f0160208091040260200160405190810160405280939291908181526020018383808284376000920191909152506124ca92505050565b61100384843385856000613101565b50505050565b80336001600160a01b03821614806110a25750806001600160a01b0316638da5cb5b6040518163ffffffff1660e01b815260040160206040518083038186803b15801561105557600080fd5b505afa158015611069573d6000803e3d6000fd5b505050506040513d601f19601f8201168201806040525081019061108d9190614ae8565b6001600160a01b0316336001600160a01b0316145b806110d057506001600160a01b038116600090815260096020908152604080832033845290915290205460ff165b806110e057506110e08133610bf8565b6110fc5760405162461bcd60e51b81526004016108b790615243565b6001600160a01b038216600090815260016020526040902054829060ff1661112357600080fd5b6001600160a01b03831660008181526001602052604090819020805460ff19169055517f3d072963433794eb417a69355df67d08bbd73d5076ef653d6863861161d60af3906111739033906150d3565b60405180910390a2505050565b6000610c1a8383613351565b6001600160a01b0382166000908152600460205260408120610c1a90836128d4565b82336001600160a01b03821614806112475750806001600160a01b0316638da5cb5b6040518163ffffffff1660e01b815260040160206040518083038186803b1580156111fa57600080fd5b505afa15801561120e573d6000803e3d6000fd5b505050506040513d601f19601f820116820180604052508101906112329190614ae8565b6001600160a01b0316336001600160a01b0316145b8061127557506001600160a01b038116600090815260096020908152604080832033845290915290205460ff165b6112915760405162461bcd60e51b81526004016108b790615367565b506001600160a01b0390921660009081526011602090815260408083209383529290522055565b81336001600160a01b03821614806113515750806001600160a01b0316638da5cb5b6040518163ffffffff1660e01b815260040160206040518083038186803b15801561130457600080fd5b505afa158015611318573d6000803e3d6000fd5b505050506040513d601f19601f8201168201806040525081019061133c9190614ae8565b6001600160a01b0316336001600160a01b0316145b8061137f57506001600160a01b038116600090815260096020908152604080832033845290915290205460ff165b8061138f575061138f8133610d32565b6113ab5760405162461bcd60e51b81526004016108b790615332565b610bd583836133f7565b61100384843385856001613101565b60006113d184848461345d565b949350505050565b6000610ac78b8b338c8c8c8c610a058d6124b7565b80336001600160a01b03821614806114875750806001600160a01b0316638da5cb5b6040518163ffffffff1660e01b815260040160206040518083038186803b15801561143a57600080fd5b505afa15801561144e573d6000803e3d6000fd5b505050506040513d601f19601f820116820180604052508101906114729190614ae8565b6001600160a01b0316336001600160a01b0316145b806114b557506001600160a01b038116600090815260096020908152604080832033845290915290205460ff165b806114c557506114c58133610bf8565b6114e15760405162461bcd60e51b81526004016108b790615243565b6001600160a01b038216600090815260016020526040902054829060ff161561150957600080fd5b6001600160a01b038316600081815260016020819052604091829020805460ff19169091179055517f3dd4f37ca5eaf6c357698a52c806820426d7c9a26adb0991c3bebb09cf23352a906111739033906150d3565b600061156985613084565b610ac78b8b338c8c8c8c8c8c8c8c8080601f0160208091040260200160405190810160405280939291908181526020018383808284376000920191909152506124ca92505050565b60006115bc85613084565b6001600160a01b038a166115e25760405162461bcd60e51b81526004016108b790615273565b610a428c8c8c8c8c8c8c8c8c8c8c8080601f0160208091040260200160405190810160405280939291908181526020018383808284376000920191909152506124ca92505050565b6000806116c561163d6020850185614acb565b61164a60208601866153a8565b8080601f01602080910402602001604051908101604052809392919081815260200183838082843760009201919091525061168f925050506080870160608801614acb565b61169d6101008801886153a8565b151590506116b7576116b260e08801886153a8565b610db9565b610db96101008801886153a8565b5050905080801561174857506117486116e16020850185614acb565b6116ee60208601866153a8565b8080601f0160208091040260200160405190810160405280939291908181526020018383808284376000920191909152506117339250505060a0870160808801614acb565b61174360c0880160a08901614acb565b612c5a565b9050808015611764575061176261040b6020850185614acb565b155b905080801561178d575061178d61177e6020850185614acb565b84604001358560c00135612d99565b9050808015610c1a5750610c1a6117a76020850185614acb565b60408501356117bc6080870160608801614acb565b6117cc60a0880160808901614acb565b6117dc60c0890160a08a01614acb565b8860c00135612e2e565b81336001600160a01b038216148061187f5750806001600160a01b0316638da5cb5b6040518163ffffffff1660e01b815260040160206040518083038186803b15801561183257600080fd5b505afa158015611846573d6000803e3d6000fd5b505050506040513d601f19601f8201168201806040525081019061186a9190614ae8565b6001600160a01b0316336001600160a01b0316145b806118ad57506001600160a01b038116600090815260096020908152604080832033845290915290205460ff165b806118bd57506118bd8133611905565b6118d95760405162461bcd60e51b81526004016108b7906152b9565b610bd5838361350d565b6001600160a01b0382166000908152600260205260408120610c1a90836128d4565b6001600160a01b0382166000908152600560205260408120610c1a90836128d4565b6001600160a01b0382166000908152600660205260408120610c1a90836128d4565b6001600160a01b0381166000908152600c6020908152604080832054600a835281842054600b845282852054600f85528386205460108652848720546008875285882080548751818a0281018a01909852808852899889988998899860609860ff9283169891831697908316969183169592169390929183918301828280156119fb57602002820191906000526020600020905b81546001600160a01b031681526001909101906020018083116119dd575b5050505050905095509550955095509550955091939550919395565b6000611a2284613084565b611a6486868686868080601f01602080910402602001604051908101604052809392919081815260200183838082843760009201919091525061357392505050565b9695505050505050565b6000610c1a83836137ab565b81336001600160a01b0382161480611b135750806001600160a01b0316638da5cb5b6040518163ffffffff1660e01b815260040160206040518083038186803b158015611ac657600080fd5b505afa158015611ada573d6000803e3d6000fd5b505050506040513d601f19601f82011682018060405250810190611afe9190614ae8565b6001600160a01b0316336001600160a01b0316145b80611b4157506001600160a01b038116600090815260096020908152604080832033845290915290205460ff165b80611b515750611b518133611905565b611b6d5760405162461bcd60e51b81526004016108b7906152b9565b610bd58383613a7c565b81336001600160a01b0382161480611c105750806001600160a01b0316638da5cb5b6040518163ffffffff1660e01b815260040160206040518083038186803b158015611bc357600080fd5b505afa158015611bd7573d6000803e3d6000fd5b505050506040513d601f19601f82011682018060405250810190611bfb9190614ae8565b6001600160a01b0316336001600160a01b0316145b80611c3e57506001600160a01b038116600090815260096020908152604080832033845290915290205460ff165b80611c4e5750611c4e81336118e3565b611c6a5760405162461bcd60e51b81526004016108b7906152f0565b610bd58383613ae2565b6000611a648686611c84876124b7565b86868080601f01602080910402602001604051908101604052809392919081815260200183838082843760009201919091525061357392505050565b81336001600160a01b0382161480611d595750806001600160a01b0316638da5cb5b6040518163ffffffff1660e01b815260040160206040518083038186803b158015611d0c57600080fd5b505afa158015611d20573d6000803e3d6000fd5b505050506040513d601f19601f82011682018060405250810190611d449190614ae8565b6001600160a01b0316336001600160a01b0316145b80611d8757506001600160a01b038116600090815260096020908152604080832033845290915290205460ff165b80611d975750611d978133610d32565b611db35760405162461bcd60e51b81526004016108b790615332565b610bd58383612306565b6107d18133613b48565b81336001600160a01b0382161480611e605750806001600160a01b0316638da5cb5b6040518163ffffffff1660e01b815260040160206040518083038186803b158015611e1357600080fd5b505afa158015611e27573d6000803e3d6000fd5b505050506040513d601f19601f82011682018060405250810190611e4b9190614ae8565b6001600160a01b0316336001600160a01b0316145b80611e8e57506001600160a01b038116600090815260096020908152604080832033845290915290205460ff165b80611e9e5750611e9e81336118e3565b611eba5760405162461bcd60e51b81526004016108b7906152f0565b610bd58383612957565b81336001600160a01b0382161480611f5d5750806001600160a01b0316638da5cb5b6040518163ffffffff1660e01b815260040160206040518083038186803b158015611f1057600080fd5b505afa158015611f24573d6000803e3d6000fd5b505050506040513d601f19601f82011682018060405250810190611f489190614ae8565b6001600160a01b0316336001600160a01b0316145b80611f8b57506001600160a01b038116600090815260096020908152604080832033845290915290205460ff165b80611f9b5750611f9b8133610bf8565b611fb75760405162461bcd60e51b81526004016108b790615243565b610bd58383613bae565b81336001600160a01b038216148061205a5750806001600160a01b0316638da5cb5b6040518163ffffffff1660e01b815260040160206040518083038186803b15801561200d57600080fd5b505afa158015612021573d6000803e3d6000fd5b505050506040513d601f19601f820116820180604052508101906120459190614ae8565b6001600160a01b0316336001600160a01b0316145b8061208857506001600160a01b038116600090815260096020908152604080832033845290915290205460ff165b8061209857506120988133611905565b6120b45760405162461bcd60e51b81526004016108b7906152b9565b610bd58383613b48565b81336001600160a01b03821614806121575750806001600160a01b0316638da5cb5b6040518163ffffffff1660e01b815260040160206040518083038186803b15801561210a57600080fd5b505afa15801561211e573d6000803e3d6000fd5b505050506040513d601f19601f820116820180604052508101906121429190614ae8565b6001600160a01b0316336001600160a01b0316145b8061218557506001600160a01b038116600090815260096020908152604080832033845290915290205460ff165b8061219557506121958133610bf8565b6121b15760405162461bcd60e51b81526004016108b790615243565b610bd583836129bd565b81336001600160a01b03821614806122545750806001600160a01b0316638da5cb5b6040518163ffffffff1660e01b815260040160206040518083038186803b15801561220757600080fd5b505afa15801561221b573d6000803e3d6000fd5b505050506040513d601f19601f8201168201806040525081019061223f9190614ae8565b6001600160a01b0316336001600160a01b0316145b8061228257506001600160a01b038116600090815260096020908152604080832033845290915290205460ff165b8061229257506122928133610d32565b6122ae5760405162461bcd60e51b81526004016108b790615332565b610bd58383613c14565b600160076000836040516020016122cf91906150b7565b60408051808303601f19018152918152815160209283012083529082019290925201600020805460ff191691151591909117905550565b6001600160a01b03821660009081526003602052604090206123289082613c7a565b806001600160a01b0316826001600160a01b03167f84c618afa7439d9985b8c707a18637a9c6b0128399c0f5dee2ca90254d66fc3a60405160405180910390a35050565b60005b6001600160a01b03831660009081526008602052604090205481101561240c576001600160a01b0383166000908152600960209081526040808320600890925282208054839190859081106123c6576123c66154f6565b6000918252602080832091909101546001600160a01b031683528201929092526040019020805460ff191691151591909117905580612404816154af565b91505061236f565b5060005b815181101561248d576001600160a01b0383166000908152600960205260408120835160019290859085908110612449576124496154f6565b6020908102919091018101516001600160a01b03168252810191909152604001600020805460ff191691151591909117905580612485816154af565b915050612410565b506001600160a01b03821660009081526008602090815260409091208251610bd5928401906149f9565b60008082156109c457610c1a4284613cfc565b6001600160a01b03808b1660009081526012602090815260408083208d845290915281209091891661254d5760405162461bcd60e51b815260206004820152602660248201527f50617965652061646472657373206d757374206e6f74206265207a65726f206160448201526564647265737360d01b60648201526084016108b7565b8561259a5760405162461bcd60e51b815260206004820152601f60248201527f56616c7565206d7573742062652067726561746572207468616e207a65726f0060448201526064016108b7565b6004810154156125e95760405162461bcd60e51b815260206004820152601a6024820152795468697320686f6c64496420616c72656164792065786973747360301b60448201526064016108b7565b6125f58c338c86613d08565b6126605760405162461bcd60e51b815260206004820152603660248201527f4120686f6c642063616e206f6e6c7920626520637265617465642077697468206044820152756164617074656420617574686f72697a6174696f6e7360501b60648201526084016108b7565b6001600160a01b038a16156127045761267a8c888c61345d565b8611156127045760405162461bcd60e51b815260206004820152604c60248201527f416d6f756e74206f662074686520686f6c642063616e2774206265206772656160448201527f746572207468616e20746865207370656e6461626c652062616c616e6365206f60648201526b33103a34329039b2b73232b960a11b608482015260a4016108b7565b868155600180820180546001600160a01b038d81166001600160a01b031992831681179093556002850180548e8316908416179055600385018054918d169190921617905560048301889055600583018790556006830186905560088301805460ff1916909217909155156127ef5761277e8c828d613e4f565b60006127db8d83600001548460030160009054906101000a90046001600160a01b03168560010160009054906101000a90046001600160a01b03168660020160009054906101000a90046001600160a01b03168760040154612f82565b5060009081526017602052604090208c9055505b604080518881526001600160a01b038c811660208301528b811692820192909252606081018890526080810187905260a08101869052818a16918d91908f16907fe6adc59c6b5c7a2129126ae891955f416cc5837e1489b17e7fb03dd67d2ef4d19060c00160405180910390a45060019b9a5050505050505050505050565b6001600160a01b03821660009081526006602052604090206128909082613faa565b806001600160a01b0316826001600160a01b03167f4eef79dfdff8d6b9485c6a01d5caac6413488fc1036c03867dbf75558a3b3a3660405160405180910390a35050565b60006001600160a01b0382166129375760405162461bcd60e51b815260206004820152602260248201527f526f6c65733a206163636f756e7420697320746865207a65726f206164647265604482015261737360f01b60648201526084016108b7565b506001600160a01b03166000908152602091909152604090205460ff1690565b6001600160a01b03821660009081526002602052604090206129799082613c7a565b806001600160a01b0316826001600160a01b03167f795a3a12ab7aa35ee8d4681ead2986eae8de69f5491d9dccfeca0442f644db8160405160405180910390a35050565b6001600160a01b03821660009081526020819052604090206129df9082613c7a565b806001600160a01b0316826001600160a01b03167fb75903ade4a0fdb07d60c882c22c779e2e1c751883c37aecdcc92a8ec72b046e60405160405180910390a35050565b6001600160a01b0382166000908152600460205260409020612a459082613faa565b806001600160a01b0316826001600160a01b03167ff537a4c39a5575220902fda69b79909e02d44c8a7146b1a1c3b936f86aa71e3860405160405180910390a35050565b60008080806001600160a01b0388166000908152600c602052604090205460ff166002811115612abb57612abb6154e0565b118015612acc5750612acc86614026565b8015612adf5750612add87866118e3565b155b8015612af45750306001600160a01b03861614155b15612b9a5760026001600160a01b0388166000908152600c602052604090205460ff166002811115612b2857612b286154e0565b1415612b6b57600080612b3d89888a8961407a565b915091508115612b585760019450600293509150612ba59050565b6000600260009450945094505050612ba5565b612b7787868887614357565b15612b8b5750600191508190506000612ba5565b50600091506001905081612ba5565b506001915060009050805b9450945094915050565b6001836002811115612bc357612bc36154e0565b1415612c0c576001600160a01b038085166000908152600d602090815260408083209386168352929052908120805460019290612c019084906153ee565b909155506110039050565b6002836002811115612c2057612c206154e0565b1415611003576001600160a01b0384166000908152600e602090815260408083208484529091529020805460ff1916600117905550505050565b6000612c6584614026565b1580612c9b57506001600160a01b0385166000908152600c602052604081205460ff166002811115612c9957612c996154e0565b145b15612d8e576001600160a01b0385166000908152600a602052604090205460ff1615612d19576001600160a01b03831615801590612ce05750612cde858461118c565b155b15612ced575060006113d1565b6001600160a01b03821615801590612d0c5750612d0a858361118c565b155b15612d19575060006113d1565b6001600160a01b0385166000908152600b602052604090205460ff1615612d8e576001600160a01b03831615801590612d575750612d578584611927565b15612d64575060006113d1565b6001600160a01b03821615801590612d815750612d818583611927565b15612d8e575060006113d1565b506001949350505050565b6001600160a01b0383166000908152600f602052604081205460ff1615612e24576001600160a01b038416600090815260116020908152604080832086845290915290205415801590612e1757506001600160a01b0384166000908152601160209081526040808320868452909152902054612e1590836145de565b155b15612e2457506000610c1a565b5060019392505050565b6001600160a01b03861660009081526010602052604081205460ff168015612e5e57506001600160a01b03841615155b15612f7557836001600160a01b0316856001600160a01b031614612f5b576000612e8c888888888888612f82565b6001600160a01b038a16600090815260126020908152604080832084845290915290209092509050612ebf8188866145fd565b8015612f4857506040516330e8280360e01b81526001600160a01b038a16906330e8280390612ef4908b908a906004016150e7565b60206040518083038186803b158015612f0c57600080fd5b505afa158015612f20573d6000803e3d6000fd5b505050506040513d601f19601f82011682018060405250810190612f449190614efc565b8411155b15612f5857600192505050611a64565b50505b612f6687878661345d565b821115612f7557506000611a64565b5060019695505050505050565b604080516001600160601b0319606098891b8116602080840191909152603483019890985294881b8516605482015292871b841660688401529390951b909116607c8201526090808201949094528151808203909401845260b001815282519282019290922060008181526017909252919020549091565b60018501546001600160a01b03161561301857613018868684614639565b60088501805460ff19166002179055600385015460048601546040516001600160a01b03928316928916917ff684696c1680054513509ee7893b2a90bda386e071a6fdf7c462c7539ff816a49161307491899189908890615163565b60405180910390a3505050505050565b42811180613090575080155b6107d15760405162461bcd60e51b815260206004820152603c60248201527f45787069726174696f6e2064617465206d75737420626520677265617465722060448201527b7468616e20626c6f636b2074696d657374616d70206f72207a65726f60201b60648201526084016108b7565b6001600160a01b0386166000908152601260209081526040808320888452909152812090831580159061313a575061313a828686614754565b1561314e5750600781018390556001613162565b6131598287876145fd565b15613162575060015b80156133045782801561318457506000858360040154613182919061546c565b115b1561319c57613197888389888989614771565b6131ae565b6131ae88838988866004015489612ffa565b60018201546001600160a01b031661324457815460028301546040516367c8491960e01b815260048101929092526001600160a01b0390811660248301526044820187905260806064830152600060848301528916906367c849199060a401600060405180830381600087803b15801561322757600080fd5b505af115801561323b573d6000803e3d6000fd5b50505050613347565b8154600183015460028401546040516323037ba760e21b815260048101939093526001600160a01b039182166024840152811660448301526064820187905260c06084830152600060c4830181905260e060a484015260e4830152891690638c0dee9c9061010401602060405180830381600087803b1580156132c657600080fd5b505af11580156132da573d6000803e3d6000fd5b505050506040513d601f19601f820116820180604052508101906132fe9190614efc565b50613347565b60405162461bcd60e51b81526020600482015260186024820152771a1bdb190818d85b881b9bdd08189948195e1958dd5d195960421b60448201526064016108b7565b5050505050505050565b6001600160a01b03808316600081815260136020908152604080832094861683529390528281205492516370a0823160e01b8152909291906370a082319061339d9086906004016150d3565b60206040518083038186803b1580156133b557600080fd5b505afa1580156133c9573d6000803e3d6000fd5b505050506040513d601f19601f820116820180604052508101906133ed9190614efc565b610c1a919061546c565b6001600160a01b03821660009081526004602052604090206134199082613c7a565b806001600160a01b0316826001600160a01b03167f99c45157365b22d82f22eea7bc8cff76cb53628113f4b52b10f83db3b404001660405160405180910390a35050565b6001600160a01b038084166000818152601460209081526040808320948616835293815283822086835290528281205492516330e8280360e01b8152909291906330e82803906134b390879087906004016150e7565b60206040518083038186803b1580156134cb57600080fd5b505afa1580156134df573d6000803e3d6000fd5b505050506040513d601f19601f820116820180604052508101906135039190614efc565b6113d1919061546c565b6001600160a01b038216600090815260066020526040902061352f9082613c7a565b806001600160a01b0316826001600160a01b03167fd3e42d12ae7dae2e960401c63b158173cc9987f9ee213374eff6471eed4062e360405160405180910390a35050565b6001600160a01b038416600090815260126020908152604080832086845290915281206001600882015460ff1660068111156135b1576135b16154e0565b14806135d557506003600882015460ff1660068111156135d3576135d36154e0565b145b6136535760405162461bcd60e51b815260206004820152604360248201527f4120686f6c642063616e206f6e6c792062652072656e6577656420696e20737460448201527f61747573204f726465726564206f72204578656375746564416e644b6570744f6064820152623832b760e91b608482015260a4016108b7565b61366081600501546147fd565b156136b85760405162461bcd60e51b815260206004820152602260248201527f416e206578706972656420686f6c642063616e206e6f742062652072656e6577604482015261195960f21b60648201526084016108b7565b60018101546136d490879033906001600160a01b031686613d08565b61373f5760405162461bcd60e51b815260206004820152603660248201527f4120686f6c642063616e206f6e6c792062652072656e657765642077697468206044820152756164617074656420617574686f72697a6174696f6e7360501b60648201526084016108b7565b60058101805490859055600382015460408051888152602081018490529081018790526001600160a01b03918216918916907fa0bc54a9dd12fde7c7d2647b3f98b13480b32abe8b5b2a448102d90750e4abe29060600160405180910390a35060019695505050505050565b6001600160a01b038216600090815260126020908152604080832084845290915281206001600882015460ff1660068111156137e9576137e96154e0565b148061380d57506003600882015460ff16600681111561380b5761380b6154e0565b145b61388d5760405162461bcd60e51b8152602060048201526044602482018190527f4120686f6c642063616e206f6e6c792062652072656c656173656420696e2073908201527f7461747573204f726465726564206f72204578656375746564416e644b65707460648201526327b832b760e11b608482015260a4016108b7565b61389a81600501546147fd565b806138b1575060038101546001600160a01b031633145b806138c8575060028101546001600160a01b031633145b6139455760405162461bcd60e51b815260206004820152604260248201527f41206e6f74206578706972656420686f6c642063616e206f6e6c79206265207260448201527f656c656173656420627920746865206e6f74617279206f722074686520706179606482015261656560f01b608482015260a4016108b7565b61395281600501546147fd565b15613973576008810180546006919060ff19166001835b02179055506139ae565b60038101546001600160a01b031633141561399e576008810180546004919060ff1916600183613969565b60088101805460ff191660051790555b60018101546001600160a01b031615613a1b576139d084828360040154614639565b80546003820154600183015460028401546004850154600094613a09948a9491936001600160a01b039182169392821692911690612f82565b50600090815260176020526040812055505b600381015460088201546040516001600160a01b03928316928716917ff443be38655a05232d021221bd7a13d2901adb2a897ac88b77af9ca9c6938aa991613a6a91889160ff9091169061514f565b60405180910390a35060019392505050565b6001600160a01b0382166000908152600560205260409020613a9e9082613faa565b806001600160a01b0316826001600160a01b03167fc52e3252244a1a2a298f7b5a9f8e964ab8737811b620a1426c0b95e3037bba9e60405160405180910390a35050565b6001600160a01b0382166000908152600260205260409020613b049082613faa565b806001600160a01b0316826001600160a01b03167f9a01aee9f656aba8760d771cf21d803168ecc664c252c9374f4a3252481fbf3560405160405180910390a35050565b6001600160a01b0382166000908152600560205260409020613b6a9082613c7a565b806001600160a01b0316826001600160a01b03167f2e4e5dc902da1dd9425aa2acf081cc51d589443784af4c3fd7d5fe60d5915cd060405160405180910390a35050565b6001600160a01b0382166000908152602081905260409020613bd09082613faa565b806001600160a01b0316826001600160a01b03167fe0953c403a52f9dc1fef4202a8d33975c958b727bee0d7b5b328965ddad98d8160405160405180910390a35050565b6001600160a01b0382166000908152600360205260409020613c369082613faa565b806001600160a01b0316826001600160a01b03167f7a247cc00caf875946bd4af440d6b1776fe6bb625e25cad7626bedf5e6a1c37060405160405180910390a35050565b613c8482826128d4565b613cda5760405162461bcd60e51b815260206004820152602160248201527f526f6c65733a206163636f756e7420646f6573206e6f74206861766520726f6c6044820152606560f81b60648201526084016108b7565b6001600160a01b0316600090815260209190915260409020805460ff19169055565b6000610c1a82846153ee565b600080600080613d53886000368080601f0160208091040260200160405190810160405280939291908181526020018383808284376000920191909152508c92508a9150612a899050565b925092509250613d6588838984612baf565b6001600160a01b03861615613dcb57828015613dc157506001600160a01b038089166000908152600960209081526040808320938b168352929052205460ff1680613dc15750856001600160a01b0316876001600160a01b0316145b93505050506113d1565b828015613dc157506040516355138f0d60e11b81526001600160a01b0389169063aa271e1a90613dff908a906004016150d3565b60206040518083038186803b158015613e1757600080fd5b505afa158015613e2b573d6000803e3d6000fd5b505050506040513d601f19601f82011682018060405250810190613dc19190614edf565b60048201546001600160a01b038085166000908152601360209081526040808320600188015490941683529290522054613e8891613cfc565b6001600160a01b038085166000818152601360209081526040808320600189015490951683529381528382209490945560048601549181526016909352912054613ed191613cfc565b6001600160a01b03808516600090815260166020908152604080832094909455600486015460148252848320600188015490941683529281528382208654835290529190912054613f2191613cfc565b6001600160a01b038085166000818152601460209081526040808320600189015490951683529381528382208754835281528382209490945560048601549181526015845282812086548252909352912054613f7c91613cfc565b6001600160a01b03909316600090815260156020908152604080832094548352939052919091209190915550565b613fb482826128d4565b156140015760405162461bcd60e51b815260206004820152601f60248201527f526f6c65733a206163636f756e7420616c72656164792068617320726f6c650060448201526064016108b7565b6001600160a01b0316600090815260209190915260409020805460ff19166001179055565b60008061403283614810565b90506001600160e01b0319811663a9059cbb60e01b148061406357506001600160e01b031981166323b872dd60e01b145b156140715750600092915050565b50600192915050565b60008082516081146140915750600090508061434e565b6020830151604084015160a085015160001a428210156140ba576000809450945050505061434e565b601b8160ff1610156140d4576140d1601b82615406565b90505b8060ff16601b14806140e957508060ff16601c145b156143435786516000906140fe9060c06148c1565b6001600160401b038111156141155761411561550c565b6040519080825280601f01601f19166020018201604052801561413f576020820181803683370190505b50905060005b88516141529060c06148c1565b8110156141b15788818151811061416b5761416b6154f6565b602001015160f81c60f81b828281518110614188576141886154f6565b60200101906001600160f81b031916908160001a905350806141a9816154af565b915050614145565b506000898b8386886040516020016141cd95949392919061506b565b604051602081830303815290604052905060008b6001600160a01b031663a8082cb06040518163ffffffff1660e01b815260040160206040518083038186803b15801561421957600080fd5b505afa15801561422d573d6000803e3d6000fd5b505050506040513d601f19601f820116820180604052508101906142519190614efc565b8280519060200120604051602001614273929190918252602082015260400190565b60405160208183030381529060405280519060200120905060008060608b0151915060808b015190506142f48e600185898686604051600081526020016040526040516142c3949392919061517e565b6020604051602081039080840390855afa1580156142e5573d6000803e3d6000fd5b505050602060405103516118e3565b801561432457506001600160a01b038e166000908152600e602090815260408083208b845290915290205460ff16155b1561433d5760018899509950505050505050505061434e565b50505050505b600080945094505050505b94509492505050565b6000815160611461436a575060006113d1565b6020820151608083015160001a4282101561438a576000925050506113d1565b601b8160ff1610156143a4576143a1601b82615406565b90505b8060ff16601b14806143b957508060ff16601c145b156145d15784516000906143ce9060a06148c1565b6001600160401b038111156143e5576143e561550c565b6040519080825280601f01601f19166020018201604052801561440f576020820181803683370190505b50905060005b86516144229060a06148c1565b8110156144815786818151811061443b5761443b6154f6565b602001015160f81c60f81b828281518110614458576144586154f6565b60200101906001600160f81b031916908160001a90535080614479816154af565b915050614415565b506001600160a01b038089166000908152600d60209081526040808320938b16835292815282822054925191926144c0928b928d9287928a920161506b565b60405160208183030381529060405290506000896001600160a01b031663a8082cb06040518163ffffffff1660e01b815260040160206040518083038186803b15801561450c57600080fd5b505afa158015614520573d6000803e3d6000fd5b505050506040513d601f19601f820116820180604052508101906145449190614efc565b8280519060200120604051602001614566929190918252602082015260400190565b60405160208183030381529060405280519060200120905060008060408901519150606089015190506145b68c600185898686604051600081526020016040526040516142c3949392919061517e565b156145cb5760019750505050505050506113d1565b50505050505b5060009695505050505050565b6000816145f5846145ef83826148cd565b906148d9565b149392505050565b60038301546000906001600160a01b038481169116148015614624575061462484836148e5565b1561463157506001610c1a565b506000610c1a565b6001600160a01b03808416600090815260136020908152604080832060018701549094168352929052205461466e90826148c1565b6001600160a01b038085166000818152601360209081526040808320600189015490951683529381528382209490945590815260169092529020546146b390826148c1565b6001600160a01b0380851660009081526016602090815260408083209490945560148152838220600187015490931682529182528281208554825290915220546146fd90826148c1565b6001600160a01b03808516600081815260146020908152604080832060018901549095168352938152838220875483528152838220949094559081526015835281812085548252909252902054613f7c90826148c1565b60006147608483614975565b8015614624575061462484846148e5565b60018501546001600160a01b03161561478f5761478f868684614639565b60088501805460ff1916600317905560048501546147ad90846148c1565b6004860181905560038601546040516001600160a01b0391821692918916917f4d230199a8973380b96ad366f3dd8665b4dc0309b3fc73f02137159ae4bd229f9161307491899189908890615163565b600081158015906109c457505042101590565b6000601882600381518110614827576148276154f6565b016020015183516001600160f81b031990911690911c9060109084906002908110614854576148546154f6565b016020015184516001600160f81b031990911690911c9060089085906001908110614881576148816154f6565b016020015185516001600160f81b031990911690911c9085906000906148a9576148a96154f6565b01602001516001600160f81b03191617171792915050565b6000610c1a828461546c565b6000610c1a828461542b565b6000610c1a828461544d565b60006001600884015460ff166006811115614902576149026154e0565b148061492657506003600884015460ff166006811115614924576149246154e0565b145b614932575060006109c4565b8161493f575060006109c4565b61494c83600501546147fd565b15614959575060006109c4565b826004015482111561496d575060006109c4565b5060016109c4565b600060028260405160200161498c91815260200190565b60408051601f19818403018152908290526149a6916150b7565b602060405180830381855afa1580156149c3573d6000803e3d6000fd5b5050506040513d601f19601f820116820180604052508101906149e69190614efc565b83600601541415610aa9575060016109c4565b828054828255906000526020600020908101928215614a4e579160200282015b82811115614a4e57825182546001600160a01b0319166001600160a01b03909116178255602090920191600190910190614a19565b50614a5a929150614a5e565b5090565b5b80821115614a5a5760008155600101614a5f565b8035614a7e81615522565b919050565b60008083601f840112614a9557600080fd5b5081356001600160401b03811115614aac57600080fd5b602083019150836020828501011115614ac457600080fd5b9250929050565b600060208284031215614add57600080fd5b8135610c1a81615522565b600060208284031215614afa57600080fd5b8151610c1a81615522565b60008060408385031215614b1857600080fd5b8235614b2381615522565b91506020830135614b3381615522565b809150509250929050565b60008060408385031215614b5157600080fd5b8235614b5c81615522565b946020939093013593505050565b600080600060608486031215614b7f57600080fd5b8335614b8a81615522565b9250602084013591506040840135614ba181615522565b809150509250925092565b60008060008060008060008060008060006101408c8e031215614bce57600080fd5b8b35614bd981615522565b9a5060208c0135995060408c0135614bf081615522565b985060608c0135614c0081615522565b975060808c0135614c1081615522565b965060a08c0135955060c08c0135945060e08c013593506101008c013592506101208c01356001600160401b03811115614c4957600080fd5b614c558e828f01614a83565b915080935050809150509295989b509295989b9093969950565b6000806000806000806000806000806101208b8d031215614c8f57600080fd5b8a35614c9a81615522565b995060208b0135985060408b0135614cb181615522565b975060608b0135614cc181615522565b965060808b0135955060a08b0135945060c08b0135935060e08b013592506101008b01356001600160401b03811115614cf957600080fd5b614d058d828e01614a83565b915080935050809150509295989b9194979a5092959850565b600080600060608486031215614d3357600080fd5b8335614d3e81615522565b95602085013595506040909401359392505050565b60008060008060808587031215614d6957600080fd5b8435614d7481615522565b966020860135965060408601359560600135945092505050565b600080600080600060808688031215614da657600080fd5b8535614db181615522565b9450602086013593506040860135925060608601356001600160401b03811115614dda57600080fd5b614de688828901614a83565b969995985093965092949392505050565b60008060008060008060008060e0898b031215614e1357600080fd5b8835614e1e81615522565b9750602089013560038110614e3257600080fd5b96506040890135614e4281615537565b95506060890135614e5281615537565b94506080890135614e6281615537565b935060a0890135614e7281615537565b925060c08901356001600160401b0380821115614e8e57600080fd5b818b0191508b601f830112614ea257600080fd5b813581811115614eb157600080fd5b8c60208260051b8501011115614ec657600080fd5b6020830194508093505050509295985092959890939650565b600060208284031215614ef157600080fd5b8151610c1a81615537565b600060208284031215614f0e57600080fd5b5051919050565b60008060408385031215614f2857600080fd5b823591506020830135614b3381615522565b60008060008060008060008060008060006101008c8e031215614f5c57600080fd5b6001600160401b038c35811015614f7257600080fd5b614f7f8e8e358f01614a83565b909c509a5060208d01359950614f9760408e01614a73565b9850614fa560608e01614a73565b9750614fb360808e01614a73565b965060a08d013595508060c08e01351115614fcd57600080fd5b614fdd8e60c08f01358f01614a83565b909550935060e08d0135811015614ff357600080fd5b506150048d60e08e01358e01614a83565b81935080925050509295989b509295989b9093969950565b60006020828403121561502e57600080fd5b81356001600160401b0381111561504457600080fd5b82016101208185031215610c1a57600080fd5b60078110615067576150676154e0565b9052565b6001600160601b0319606087811b8216835286901b166014820152835160009061509c816028850160208901615483565b90910160288101939093525060488201526068019392505050565b600082516150c9818460208701615483565b9190910192915050565b6001600160a01b0391909116815260200190565b9182526001600160a01b0316602082015260400190565b8981526001600160a01b0389811660208301528881166040830152871660608201526080810186905260a0810185905260c0810184905260e081018390526101208101610aca610100830184615057565b82815260408101610c1a6020830184615057565b93845260208401929092526040830152606082015260800190565b93845260ff9290921660208401526040830152606082015260800190565b600060c08201600389106151b2576151b26154e0565b88835260208815158185015287151560408501528615156060850152851515608085015260c060a085015281855180845260e086019150828701935060005b818110156152165784516001600160a01b0316835293830193918301916001016151f1565b50909b9a5050505050505050505050565b6020808252600290820152610d4d60f21b604082015260600190565b60208082526016908201527529b2b73232b91034b9903737ba1030903830bab9b2b960511b604082015260600190565b60208082526026908201527f50617965722061646472657373206d757374206e6f74206265207a65726f206160408201526564647265737360d01b606082015260800190565b6020808252601f908201527f53656e646572206973206e6f74206120626c6f636b6c6973742061646d696e00604082015260600190565b60208082526022908201527f53656e646572206973206e6f742061206365727469666963617465207369676e60408201526132b960f11b606082015260800190565b6020808252818101527f53656e646572206973206e6f7420616e20616c6c6f776c6973742061646d696e604082015260600190565b60208082526021908201527f53656e646572206973206e6f74206120746f6b656e20636f6e74726f6c6c65726040820152601760f91b606082015260800190565b6000808335601e198436030181126153bf57600080fd5b8301803591506001600160401b038211156153d957600080fd5b602001915036819003821315614ac457600080fd5b60008219821115615401576154016154ca565b500190565b600060ff821660ff84168060ff03821115615423576154236154ca565b019392505050565b60008261544857634e487b7160e01b600052601260045260246000fd5b500490565b6000816000190483118215151615615467576154676154ca565b500290565b60008282101561547e5761547e6154ca565b500390565b60005b8381101561549e578181015183820152602001615486565b838111156110035750506000910152565b60006000198214156154c3576154c36154ca565b5060010190565b634e487b7160e01b600052601160045260246000fd5b634e487b7160e01b600052602160045260246000fd5b634e487b7160e01b600052603260045260246000fd5b634e487b7160e01b600052604160045260246000fd5b6001600160a01b03811681146107d157600080fd5b80151581146107d157600080fdfea264697066735822122016a44048399b32b56e2331f9033b0fda01c41a18ef4db071f856b1ddb403b0d364736f6c63430008070033",
  "immutableReferences": {},
  "source": "// SPDX-License-Identifier: Apache-2.0\n/*\n * This code has not been reviewed.\n * Do not use or deploy this code before reviewing it personally first.\n */\npragma solidity ^0.8.0;\n\nimport \"@openzeppelin/contracts/utils/math/SafeMath.sol\";\nimport \"@openzeppelin/contracts/access/Ownable.sol\";\nimport \"@openzeppelin/contracts/token/ERC20/IERC20.sol\";\n\nimport \"../../tools/Pausable.sol\";\nimport \"../../roles/CertificateSignerRole.sol\";\nimport \"../../roles/AllowlistedRole.sol\";\nimport \"../../roles/BlocklistedRole.sol\";\n\nimport \"../../interface/IHoldableERC1400TokenExtension.sol\";\nimport \"../../tools/ERC1820Client.sol\";\nimport \"../../tools/DomainAware.sol\";\nimport \"../../interface/ERC1820Implementer.sol\";\n\nimport \"../../IERC1400.sol\";\n\nimport \"./IERC1400TokensValidator.sol\";\n\n/**\n * @notice Interface to the Minterrole contract\n */\ninterface IMinterRole {\n  function isMinter(address account) external view returns (bool);\n}\n\n\ncontract ERC1400TokensValidator is IERC1400TokensValidator, Pausable, CertificateSignerRole, AllowlistedRole, BlocklistedRole, ERC1820Client, ERC1820Implementer, IHoldableERC1400TokenExtension {\n  using SafeMath for uint256;\n\n  string constant internal ERC1400_TOKENS_VALIDATOR = \"ERC1400TokensValidator\";\n\n  bytes4 constant internal ERC20_TRANSFER_ID = bytes4(keccak256(\"transfer(address,uint256)\"));\n  bytes4 constant internal ERC20_TRANSFERFROM_ID = bytes4(keccak256(\"transferFrom(address,address,uint256)\"));\n\n  bytes32 constant internal ZERO_ID = 0x00000000000000000000000000000000;\n\n  // Mapping from token to token controllers.\n  mapping(address => address[]) internal _tokenControllers;\n\n  // Mapping from (token, operator) to token controller status.\n  mapping(address => mapping(address => bool)) internal _isTokenController;\n\n  // Mapping from token to allowlist activation status.\n  mapping(address => bool) internal _allowlistActivated;\n\n  // Mapping from token to blocklist activation status.\n  mapping(address => bool) internal _blocklistActivated;\n\n  // Mapping from token to certificate activation status.\n  mapping(address => CertificateValidation) internal _certificateActivated;\n\n  enum CertificateValidation {\n    None,\n    NonceBased,\n    SaltBased\n  }\n\n  // Mapping from (token, certificateNonce) to \"used\" status to ensure a certificate can be used only once\n  mapping(address => mapping(address => uint256)) internal _usedCertificateNonce;\n\n  // Mapping from (token, certificateSalt) to \"used\" status to ensure a certificate can be used only once\n  mapping(address => mapping(bytes32 => bool)) internal _usedCertificateSalt;\n\n  // Mapping from token to partition granularity activation status.\n  mapping(address => bool) internal _granularityByPartitionActivated;\n\n  // Mapping from token to holds activation status.\n  mapping(address => bool) internal _holdsActivated;\n\n  struct Hold {\n    bytes32 partition;\n    address sender;\n    address recipient;\n    address notary;\n    uint256 value;\n    uint256 expiration;\n    bytes32 secretHash;\n    bytes32 secret;\n    HoldStatusCode status;\n  }\n\n  // Mapping from (token, partition) to partition granularity.\n  mapping(address => mapping(bytes32 => uint256)) internal _granularityByPartition;\n  \n  // Mapping from (token, holdId) to hold.\n  mapping(address => mapping(bytes32 => Hold)) internal _holds;\n\n  // Mapping from (token, tokenHolder) to balance on hold.\n  mapping(address => mapping(address => uint256)) internal _heldBalance;\n\n  // Mapping from (token, tokenHolder, partition) to balance on hold of corresponding partition.\n  mapping(address => mapping(address => mapping(bytes32 => uint256))) internal _heldBalanceByPartition;\n\n  // Mapping from (token, partition) to global balance on hold of corresponding partition.\n  mapping(address => mapping(bytes32 => uint256)) internal _totalHeldBalanceByPartition;\n\n  // Total balance on hold.\n  mapping(address => uint256) internal _totalHeldBalance;\n\n  // Mapping from hash to hold ID.\n  mapping(bytes32 => bytes32) internal _holdIds;\n\n  event HoldCreated(\n    address indexed token,\n    bytes32 indexed holdId,\n    bytes32 partition,\n    address sender,\n    address recipient,\n    address indexed notary,\n    uint256 value,\n    uint256 expiration,\n    bytes32 secretHash\n  );\n  event HoldReleased(address indexed token, bytes32 holdId, address indexed notary, HoldStatusCode status);\n  event HoldRenewed(address indexed token, bytes32 holdId, address indexed notary, uint256 oldExpiration, uint256 newExpiration);\n  event HoldExecuted(address indexed token, bytes32 holdId, address indexed notary, uint256 heldValue, uint256 transferredValue, bytes32 secret);\n  event HoldExecutedAndKeptOpen(address indexed token, bytes32 holdId, address indexed notary, uint256 heldValue, uint256 transferredValue, bytes32 secret);\n  \n  /**\n   * @dev Modifier to verify if sender is a token controller.\n   */\n  modifier onlyTokenController(address token) {\n    require(\n      msg.sender == token ||\n      msg.sender == Ownable(token).owner() ||\n      _isTokenController[token][msg.sender],\n      \"Sender is not a token controller.\"\n    );\n    _;\n  }\n\n  /**\n   * @dev Modifier to verify if sender is a pauser.\n   */\n  modifier onlyPauser(address token) override {\n    require(\n      msg.sender == token ||\n      msg.sender == Ownable(token).owner() ||\n      _isTokenController[token][msg.sender] ||\n      isPauser(token, msg.sender),\n      \"Sender is not a pauser\"\n    );\n    _;\n  }\n\n  /**\n   * @dev Modifier to verify if sender is a pauser.\n   */\n  modifier onlyCertificateSigner(address token) override {\n    require(\n      msg.sender == token ||\n      msg.sender == Ownable(token).owner() ||\n      _isTokenController[token][msg.sender] ||\n      isCertificateSigner(token, msg.sender),\n      \"Sender is not a certificate signer\"\n    );\n    _;\n  }\n\n  /**\n   * @dev Modifier to verify if sender is an allowlist admin.\n   */\n  modifier onlyAllowlistAdmin(address token) override {\n    require(\n      msg.sender == token ||\n      msg.sender == Ownable(token).owner() ||\n      _isTokenController[token][msg.sender] ||\n      isAllowlistAdmin(token, msg.sender),\n      \"Sender is not an allowlist admin\"\n    );\n    _;\n  }\n\n  /**\n   * @dev Modifier to verify if sender is a blocklist admin.\n   */\n  modifier onlyBlocklistAdmin(address token) override {\n    require(\n      msg.sender == token ||\n      msg.sender == Ownable(token).owner() ||\n      _isTokenController[token][msg.sender] ||\n      isBlocklistAdmin(token, msg.sender),\n      \"Sender is not a blocklist admin\"\n    );\n    _;\n  }\n\n  constructor() {\n    ERC1820Implementer._setInterface(ERC1400_TOKENS_VALIDATOR);\n\n\n  }\n\n  /**\n   * @dev Get the list of token controllers for a given token.\n   * @return Setup of a given token.\n   */\n  function retrieveTokenSetup(address token) external view returns (CertificateValidation, bool, bool, bool, bool, address[] memory) {\n    return (\n      _certificateActivated[token],\n      _allowlistActivated[token],\n      _blocklistActivated[token],\n      _granularityByPartitionActivated[token],\n      _holdsActivated[token],\n      _tokenControllers[token]\n    );\n  }\n\n  /**\n   * @dev Register token setup.\n   */\n  function registerTokenSetup(\n    address token,\n    CertificateValidation certificateActivated,\n    bool allowlistActivated,\n    bool blocklistActivated,\n    bool granularityByPartitionActivated,\n    bool holdsActivated,\n    address[] calldata operators\n  ) external onlyTokenController(token) {\n    _certificateActivated[token] = certificateActivated;\n    _allowlistActivated[token] = allowlistActivated;\n    _blocklistActivated[token] = blocklistActivated;\n    _granularityByPartitionActivated[token] = granularityByPartitionActivated;\n    _holdsActivated[token] = holdsActivated;\n    _setTokenControllers(token, operators);\n  }\n\n  /**\n   * @dev Set list of token controllers for a given token.\n   * @param token Token address.\n   * @param operators Operators addresses.\n   */\n  function _setTokenControllers(address token, address[] memory operators) internal {\n    for (uint i = 0; i<_tokenControllers[token].length; i++){\n      _isTokenController[token][_tokenControllers[token][i]] = false;\n    }\n    for (uint j = 0; j<operators.length; j++){\n      _isTokenController[token][operators[j]] = true;\n    }\n    _tokenControllers[token] = operators;\n  }\n\n  /**\n   * @dev Verify if a token transfer can be executed or not, on the validator's perspective.\n   * @param data The struct containing the validation information.\n   * @return 'true' if the token transfer can be validated, 'false' if not.\n   */\n  function canValidate(IERC1400TokensValidator.ValidateData calldata data) // Comments to avoid compilation warnings for unused variables.\n    external\n    override\n    view \n    returns(bool)\n  {\n    (bool canValidateToken,,) = _canValidateCertificateToken(data.token, data.payload, data.operator, data.operatorData.length != 0 ? data.operatorData : data.data);\n\n    canValidateToken = canValidateToken && _canValidateAllowlistAndBlocklistToken(data.token, data.payload, data.from, data.to);\n    \n    canValidateToken = canValidateToken && !paused(data.token);\n\n    canValidateToken = canValidateToken && _canValidateGranularToken(data.token, data.partition, data.value);\n\n    canValidateToken = canValidateToken && _canValidateHoldableToken(data.token, data.partition, data.operator, data.from, data.to, data.value);\n\n    return canValidateToken;\n  }\n\n  /**\n   * @dev Function called by the token contract before executing a transfer.\n   * @param payload Payload of the initial transaction.\n   * @param partition Name of the partition (left empty for ERC20 transfer).\n   * @param operator Address which triggered the balance decrease (through transfer or redemption).\n   * @param from Token holder.\n   * @param to Token recipient for a transfer and 0x for a redemption.\n   * @param value Number of tokens the token holder balance is decreased by.\n   * @param data Extra information.\n   * @param operatorData Extra information, attached by the operator (if any).\n   */\n  function tokensToValidate(\n    bytes calldata payload,\n    bytes32 partition,\n    address operator,\n    address from,\n    address to,\n    uint value,\n    bytes calldata data,\n    bytes calldata operatorData\n  ) // Comments to avoid compilation warnings for unused variables.\n    external\n    override\n  {\n    //Local scope variables to avoid stack too deep\n    {\n        (bool canValidateCertificateToken, CertificateValidation certificateControl, bytes32 salt) = _canValidateCertificateToken(msg.sender, payload, operator, operatorData.length != 0 ? operatorData : data);\n        require(canValidateCertificateToken, \"54\"); // 0x54\ttransfers halted (contract paused)\n\n        _useCertificateIfActivated(msg.sender, certificateControl, operator, salt);\n    }\n\n    {\n        require(_canValidateAllowlistAndBlocklistToken(msg.sender, payload, from, to), \"54\"); // 0x54\ttransfers halted (contract paused)\n    }\n    \n    {\n        require(!paused(msg.sender), \"54\"); // 0x54\ttransfers halted (contract paused)\n    }\n    \n    {\n        require(_canValidateGranularToken(msg.sender, partition, value), \"50\"); // 0x50\ttransfer failure\n\n        require(_canValidateHoldableToken(msg.sender, partition, operator, from, to, value), \"55\"); // 0x55\tfunds locked (lockup period)\n    }\n    \n    {\n        (, bytes32 holdId) = _retrieveHoldHashId(msg.sender, partition, operator, from, to, value);\n        if (_holdsActivated[msg.sender] && holdId != \"\") {\n          Hold storage executableHold = _holds[msg.sender][holdId];\n          _setHoldToExecuted(\n            msg.sender,\n            executableHold,\n            holdId,\n            value,\n            executableHold.value,\n            \"\"\n          );\n        }\n    }\n  }\n\n  /**\n   * @dev Verify if a token transfer can be executed or not, on the validator's perspective.\n   * @return 'true' if the token transfer can be validated, 'false' if not.\n   * @return hold ID in case a hold can be executed for the given parameters.\n   */\n  function _canValidateCertificateToken(\n    address token,\n    bytes memory payload,\n    address operator,\n    bytes memory certificate\n  )\n    internal\n    view\n    returns(bool, CertificateValidation, bytes32)\n  {\n    if(\n      _certificateActivated[token] > CertificateValidation.None &&\n      _functionSupportsCertificateValidation(payload) &&\n      !isCertificateSigner(token, operator) &&\n      address(this) != operator\n    ) {\n      if(_certificateActivated[token] == CertificateValidation.SaltBased) {\n        (bool valid, bytes32 salt) = _checkSaltBasedCertificate(\n          token,\n          operator,\n          payload,\n          certificate\n        );\n        if(valid) {\n          return (true, CertificateValidation.SaltBased, salt);\n        } else {\n          return (false, CertificateValidation.SaltBased, \"\");\n        }\n        \n      } else { // case when _certificateActivated[token] == CertificateValidation.NonceBased\n        if(\n          _checkNonceBasedCertificate(\n            token,\n            operator,\n            payload,\n            certificate\n          )\n        ) {\n          return (true, CertificateValidation.NonceBased, \"\");\n        } else {\n          return (false, CertificateValidation.NonceBased, \"\");\n        }\n      }\n    }\n\n    return (true, CertificateValidation.None, \"\");\n  }\n\n  /**\n   * @dev Verify if a token transfer can be executed or not, on the validator's perspective.\n   * @return 'true' if the token transfer can be validated, 'false' if not.\n   */\n  function _canValidateAllowlistAndBlocklistToken(\n    address token,\n    bytes memory payload,\n    address from,\n    address to\n  ) // Comments to avoid compilation warnings for unused variables.\n    internal\n    view\n    returns(bool)\n  {\n    if(\n      !_functionSupportsCertificateValidation(payload) ||\n      _certificateActivated[token] == CertificateValidation.None\n    ) {\n      if(_allowlistActivated[token]) {\n        if(from != address(0) && !isAllowlisted(token, from)) {\n          return false;\n        }\n        if(to != address(0) && !isAllowlisted(token, to)) {\n          return false;\n        }\n      }\n      if(_blocklistActivated[token]) {\n        if(from != address(0) && isBlocklisted(token, from)) {\n          return false;\n        }\n        if(to != address(0) && isBlocklisted(token, to)) {\n          return false;\n        }\n      }\n    }\n    \n    return true;\n  }\n\n  /**\n   * @dev Verify if a token transfer can be executed or not, on the validator's perspective.\n   * @return 'true' if the token transfer can be validated, 'false' if not.\n   */\n  function _canValidateGranularToken(\n    address token,\n    bytes32 partition,\n    uint value\n  )\n    internal\n    view\n    returns(bool)\n  {\n    if(_granularityByPartitionActivated[token]) {\n      if(\n        _granularityByPartition[token][partition] > 0 &&\n        !_isMultiple(_granularityByPartition[token][partition], value)\n      ) {\n        return false;\n      } \n    }\n\n    return true;\n  }\n\n  /**\n   * @dev Verify if a token transfer can be executed or not, on the validator's perspective.\n   * @return 'true' if the token transfer can be validated, 'false' if not.\n   */\n  function _canValidateHoldableToken(\n    address token,\n    bytes32 partition,\n    address operator,\n    address from,\n    address to,\n    uint value\n  )\n    internal\n    view\n    returns(bool)\n  {\n    if (_holdsActivated[token] && from != address(0)) {\n      if(operator != from) {\n        (, bytes32 holdId) = _retrieveHoldHashId(token, partition, operator, from, to, value);\n        Hold storage hold_ = _holds[token][holdId];\n        \n        if (_holdCanBeExecutedAsNotary(hold_, operator, value) && value <= IERC1400(token).balanceOfByPartition(partition, from)) {\n          return true;\n        }\n      }\n      \n      if(value > _spendableBalanceOfByPartition(token, partition, from)) {\n        return false;\n      }\n    }\n\n    return true;\n  }\n\n  /**\n   * @dev Get granularity for a given partition.\n   * @param token Token address.\n   * @param partition Name of the partition.\n   * @return Granularity of the partition.\n   */\n  function granularityByPartition(address token, bytes32 partition) external view returns (uint256) {\n    return _granularityByPartition[token][partition];\n  }\n  \n  /**\n   * @dev Set partition granularity\n   */\n  function setGranularityByPartition(\n    address token,\n    bytes32 partition,\n    uint256 granularity\n  )\n    external\n    onlyTokenController(token)\n  {\n    _granularityByPartition[token][partition] = granularity;\n  }\n\n  /**\n   * @dev Create a new token pre-hold.\n   */\n  function preHoldFor(\n    address token,\n    bytes32 holdId,\n    address recipient,\n    address notary,\n    bytes32 partition,\n    uint256 value,\n    uint256 timeToExpiration,\n    bytes32 secretHash,\n    bytes calldata certificate\n  )\n    external\n    returns (bool)\n  {\n    return _createHold(\n      token,\n      holdId,\n      address(0),\n      recipient,\n      notary,\n      partition,\n      value,\n      _computeExpiration(timeToExpiration),\n      secretHash,\n      certificate\n    );\n  }\n\n  /**\n   * @dev Create a new token pre-hold with expiration date.\n   */\n  function preHoldForWithExpirationDate(\n    address token,\n    bytes32 holdId,\n    address recipient,\n    address notary,\n    bytes32 partition,\n    uint256 value,\n    uint256 expiration,\n    bytes32 secretHash,\n    bytes calldata certificate\n  )\n    external\n    returns (bool)\n  {\n    _checkExpiration(expiration);\n\n    return _createHold(\n      token,\n      holdId,\n      address(0),\n      recipient,\n      notary,\n      partition,\n      value,\n      expiration,\n      secretHash,\n      certificate\n    );\n  }\n\n  /**\n   * @dev Create a new token hold.\n   */\n  function hold(\n    address token,\n    bytes32 holdId,\n    address recipient,\n    address notary,\n    bytes32 partition,\n    uint256 value,\n    uint256 timeToExpiration,\n    bytes32 secretHash,\n    bytes calldata certificate\n  ) \n    external\n    returns (bool)\n  {\n    return _createHold(\n      token,\n      holdId,\n      msg.sender,\n      recipient,\n      notary,\n      partition,\n      value,\n      _computeExpiration(timeToExpiration),\n      secretHash,\n      certificate\n    );\n  }\n\n  /**\n   * @dev Create a new token hold with expiration date.\n   */\n  function holdWithExpirationDate(\n    address token,\n    bytes32 holdId,\n    address recipient,\n    address notary,\n    bytes32 partition,\n    uint256 value,\n    uint256 expiration,\n    bytes32 secretHash,\n    bytes calldata certificate\n  )\n    external\n    returns (bool)\n  {\n    _checkExpiration(expiration);\n\n    return _createHold(\n      token,\n      holdId,\n      msg.sender,\n      recipient,\n      notary,\n      partition,\n      value,\n      expiration,\n      secretHash,\n      certificate\n    );\n  }\n\n  /**\n   * @dev Create a new token hold on behalf of the token holder.\n   */\n  function holdFrom(\n    address token,\n    bytes32 holdId,\n    address sender,\n    address recipient,\n    address notary,\n    bytes32 partition,\n    uint256 value,\n    uint256 timeToExpiration,\n    bytes32 secretHash,\n    bytes calldata certificate\n  )\n    external\n    returns (bool)\n  {\n    require(sender != address(0), \"Payer address must not be zero address\");\n    return _createHold(\n      token,\n      holdId,\n      sender,\n      recipient,\n      notary,\n      partition,\n      value,\n      _computeExpiration(timeToExpiration),\n      secretHash,\n      certificate\n    );\n  }\n\n  /**\n   * @dev Create a new token hold with expiration date on behalf of the token holder.\n   */\n  function holdFromWithExpirationDate(\n    address token,\n    bytes32 holdId,\n    address sender,\n    address recipient,\n    address notary,\n    bytes32 partition,\n    uint256 value,\n    uint256 expiration,\n    bytes32 secretHash,\n    bytes calldata certificate\n  )\n    external\n    returns (bool)\n  {\n    _checkExpiration(expiration);\n    require(sender != address(0), \"Payer address must not be zero address\");\n\n    return _createHold(\n      token,\n      holdId,\n      sender,\n      recipient,\n      notary,\n      partition,\n      value,\n      expiration,\n      secretHash,\n      certificate\n    );\n  }\n\n  /**\n   * @dev Create a new token hold.\n   */\n  function _createHold(\n    address token,\n    bytes32 holdId,\n    address sender,\n    address recipient,\n    address notary,\n    bytes32 partition,\n    uint256 value,\n    uint256 expiration,\n    bytes32 secretHash,\n    bytes memory certificate\n  ) internal returns (bool)\n  {\n    Hold storage newHold = _holds[token][holdId];\n\n    require(recipient != address(0), \"Payee address must not be zero address\");\n    require(value != 0, \"Value must be greater than zero\");\n    require(newHold.value == 0, \"This holdId already exists\");\n    require(\n      _canHoldOrCanPreHold(token, msg.sender, sender, certificate),\n      \"A hold can only be created with adapted authorizations\"\n    );\n    \n    if (sender != address(0)) { // hold (tokens already exist)\n      require(value <= _spendableBalanceOfByPartition(token, partition, sender), \"Amount of the hold can't be greater than the spendable balance of the sender\");\n    }\n    \n    newHold.partition = partition;\n    newHold.sender = sender;\n    newHold.recipient = recipient;\n    newHold.notary = notary;\n    newHold.value = value;\n    newHold.expiration = expiration;\n    newHold.secretHash = secretHash;\n    newHold.status = HoldStatusCode.Ordered;\n\n    if(sender != address(0)) {\n      // In case tokens already exist, increase held balance\n      _increaseHeldBalance(token, newHold, holdId);\n\n      (bytes32 holdHash,) = _retrieveHoldHashId(\n        token, newHold.partition,\n        newHold.notary,\n        newHold.sender,\n        newHold.recipient,\n        newHold.value\n      );\n\n      _holdIds[holdHash] = holdId;\n    }\n\n    emit HoldCreated(\n      token,\n      holdId,\n      partition,\n      sender,\n      recipient,\n      notary,\n      value,\n      expiration,\n      secretHash\n    );\n\n    return true;\n  }\n\n  /**\n   * @dev Release token hold.\n   */\n  function releaseHold(address token, bytes32 holdId) external returns (bool) {\n    return _releaseHold(token, holdId);\n  }\n\n  /**\n   * @dev Release token hold.\n   */\n  function _releaseHold(address token, bytes32 holdId) internal returns (bool) {\n    Hold storage releasableHold = _holds[token][holdId];\n\n    require(\n        releasableHold.status == HoldStatusCode.Ordered || releasableHold.status == HoldStatusCode.ExecutedAndKeptOpen,\n        \"A hold can only be released in status Ordered or ExecutedAndKeptOpen\"\n    );\n    require(\n        _isExpired(releasableHold.expiration) ||\n        (msg.sender == releasableHold.notary) ||\n        (msg.sender == releasableHold.recipient),\n        \"A not expired hold can only be released by the notary or the payee\"\n    );\n\n    if (_isExpired(releasableHold.expiration)) {\n        releasableHold.status = HoldStatusCode.ReleasedOnExpiration;\n    } else {\n        if (releasableHold.notary == msg.sender) {\n            releasableHold.status = HoldStatusCode.ReleasedByNotary;\n        } else {\n            releasableHold.status = HoldStatusCode.ReleasedByPayee;\n        }\n    }\n\n    if(releasableHold.sender != address(0)) { // In case tokens already exist, decrease held balance\n      _decreaseHeldBalance(token, releasableHold, releasableHold.value);\n\n      (bytes32 holdHash,) = _retrieveHoldHashId(\n        token, releasableHold.partition,\n        releasableHold.notary,\n        releasableHold.sender,\n        releasableHold.recipient,\n        releasableHold.value\n      );\n\n      delete _holdIds[holdHash];\n    }\n\n    emit HoldReleased(token, holdId, releasableHold.notary, releasableHold.status);\n\n    return true;\n  }\n\n  /**\n   * @dev Renew hold.\n   */\n  function renewHold(address token, bytes32 holdId, uint256 timeToExpiration, bytes calldata certificate) external returns (bool) {\n    return _renewHold(token, holdId, _computeExpiration(timeToExpiration), certificate);\n  }\n\n  /**\n   * @dev Renew hold with expiration time.\n   */\n  function renewHoldWithExpirationDate(address token, bytes32 holdId, uint256 expiration, bytes calldata certificate) external returns (bool) {\n    _checkExpiration(expiration);\n\n    return _renewHold(token, holdId, expiration, certificate);\n  }\n\n  /**\n   * @dev Renew hold.\n   */\n  function _renewHold(address token, bytes32 holdId, uint256 expiration, bytes memory certificate) internal returns (bool) {\n    Hold storage renewableHold = _holds[token][holdId];\n\n    require(\n      renewableHold.status == HoldStatusCode.Ordered\n      || renewableHold.status == HoldStatusCode.ExecutedAndKeptOpen,\n      \"A hold can only be renewed in status Ordered or ExecutedAndKeptOpen\"\n    );\n    require(!_isExpired(renewableHold.expiration), \"An expired hold can not be renewed\");\n\n    require(\n      _canHoldOrCanPreHold(token, msg.sender, renewableHold.sender, certificate),\n      \"A hold can only be renewed with adapted authorizations\"\n    );\n    \n    uint256 oldExpiration = renewableHold.expiration;\n    renewableHold.expiration = expiration;\n\n    emit HoldRenewed(\n      token,\n      holdId,\n      renewableHold.notary,\n      oldExpiration,\n      expiration\n    );\n\n    return true;\n  }\n\n  /**\n   * @dev Execute hold.\n   */\n  function executeHold(address token, bytes32 holdId, uint256 value, bytes32 secret) external override {\n    _executeHold(\n      token,\n      holdId,\n      msg.sender,\n      value,\n      secret,\n      false\n    );\n  }\n\n  /**\n   * @dev Execute hold and keep open.\n   */\n  function executeHoldAndKeepOpen(address token, bytes32 holdId, uint256 value, bytes32 secret) external {\n    _executeHold(\n      token,\n      holdId,\n      msg.sender,\n      value,\n      secret,\n      true\n    );\n  }\n  \n  /**\n   * @dev Execute hold.\n   */\n  function _executeHold(\n    address token,\n    bytes32 holdId,\n    address operator,\n    uint256 value,\n    bytes32 secret,\n    bool keepOpenIfHoldHasBalance\n  ) internal\n  {\n    Hold storage executableHold = _holds[token][holdId];\n\n    bool canExecuteHold;\n    if(secret != \"\" && _holdCanBeExecutedAsSecretHolder(executableHold, value, secret)) {\n      executableHold.secret = secret;\n      canExecuteHold = true;\n    } else if(_holdCanBeExecutedAsNotary(executableHold, operator, value)) {\n      canExecuteHold = true;\n    }\n\n    if(canExecuteHold) {\n      if (keepOpenIfHoldHasBalance && ((executableHold.value - value) > 0)) {\n        _setHoldToExecutedAndKeptOpen(\n          token,\n          executableHold,\n          holdId,\n          value,\n          value,\n          secret\n        );\n      } else {\n        _setHoldToExecuted(\n          token,\n          executableHold,\n          holdId,\n          value,\n          executableHold.value,\n          secret\n        );\n      }\n\n      if (executableHold.sender == address(0)) { // pre-hold (tokens do not already exist)\n        IERC1400(token).issueByPartition(executableHold.partition, executableHold.recipient, value, \"\");\n      } else { // post-hold (tokens already exist)\n        IERC1400(token).operatorTransferByPartition(executableHold.partition, executableHold.sender, executableHold.recipient, value, \"\", \"\");\n      }\n      \n    } else {\n      revert(\"hold can not be executed\");\n    }\n\n  }\n\n  /**\n   * @dev Set hold to executed.\n   */\n  function _setHoldToExecuted(\n    address token,\n    Hold storage executableHold,\n    bytes32 holdId,\n    uint256 value,\n    uint256 heldBalanceDecrease,\n    bytes32 secret\n  ) internal\n  {\n    if(executableHold.sender != address(0)) { // In case tokens already exist, decrease held balance\n      _decreaseHeldBalance(token, executableHold, heldBalanceDecrease);\n    }\n\n    executableHold.status = HoldStatusCode.Executed;\n\n    emit HoldExecuted(\n      token,\n      holdId,\n      executableHold.notary,\n      executableHold.value,\n      value,\n      secret\n    );\n  }\n\n  /**\n   * @dev Set hold to executed and kept open.\n   */\n  function _setHoldToExecutedAndKeptOpen(\n    address token,\n    Hold storage executableHold,\n    bytes32 holdId,\n    uint256 value,\n    uint256 heldBalanceDecrease,\n    bytes32 secret\n  ) internal\n  {\n    if(executableHold.sender != address(0)) { // In case tokens already exist, decrease held balance\n      _decreaseHeldBalance(token, executableHold, heldBalanceDecrease);\n    } \n\n    executableHold.status = HoldStatusCode.ExecutedAndKeptOpen;\n    executableHold.value = executableHold.value.sub(value);\n\n    emit HoldExecutedAndKeptOpen(\n      token,\n      holdId,\n      executableHold.notary,\n      executableHold.value,\n      value,\n      secret\n    );\n  }\n\n  /**\n   * @dev Increase held balance.\n   */\n  function _increaseHeldBalance(address token, Hold storage executableHold, bytes32/*holdId*/) private {\n    _heldBalance[token][executableHold.sender] = _heldBalance[token][executableHold.sender].add(executableHold.value);\n    _totalHeldBalance[token] = _totalHeldBalance[token].add(executableHold.value);\n\n    _heldBalanceByPartition[token][executableHold.sender][executableHold.partition] = _heldBalanceByPartition[token][executableHold.sender][executableHold.partition].add(executableHold.value);\n    _totalHeldBalanceByPartition[token][executableHold.partition] = _totalHeldBalanceByPartition[token][executableHold.partition].add(executableHold.value);\n  }\n\n  /**\n   * @dev Decrease held balance.\n   */\n  function _decreaseHeldBalance(address token, Hold storage executableHold, uint256 value) private {\n    _heldBalance[token][executableHold.sender] = _heldBalance[token][executableHold.sender].sub(value);\n    _totalHeldBalance[token] = _totalHeldBalance[token].sub(value);\n\n    _heldBalanceByPartition[token][executableHold.sender][executableHold.partition] = _heldBalanceByPartition[token][executableHold.sender][executableHold.partition].sub(value);\n    _totalHeldBalanceByPartition[token][executableHold.partition] = _totalHeldBalanceByPartition[token][executableHold.partition].sub(value);\n  }\n\n  /**\n   * @dev Check secret.\n   */\n  function _checkSecret(Hold storage executableHold, bytes32 secret) internal view returns (bool) {\n    if(executableHold.secretHash == sha256(abi.encodePacked(secret))) {\n      return true;\n    } else {\n      return false;\n    }\n  }\n\n  /**\n   * @dev Compute expiration time.\n   */\n  function _computeExpiration(uint256 timeToExpiration) internal view returns (uint256) {\n    uint256 expiration = 0;\n\n    if (timeToExpiration != 0) {\n        expiration = block.timestamp.add(timeToExpiration);\n    }\n\n    return expiration;\n  }\n\n  /**\n   * @dev Check expiration time.\n   */\n  function _checkExpiration(uint256 expiration) private view {\n    require(expiration > block.timestamp || expiration == 0, \"Expiration date must be greater than block timestamp or zero\");\n  }\n\n  /**\n   * @dev Check is expiration date is past.\n   */\n  function _isExpired(uint256 expiration) internal view returns (bool) {\n    return expiration != 0 && (block.timestamp >= expiration);\n  }\n\n  /**\n   * @dev Retrieve hold hash, and ID for given parameters\n   */\n  function _retrieveHoldHashId(address token, bytes32 partition, address notary, address sender, address recipient, uint value) internal view returns (bytes32, bytes32) {\n    // Pack and hash hold parameters\n    bytes32 holdHash = keccak256(abi.encodePacked(\n      token,\n      partition,\n      sender,\n      recipient,\n      notary,\n      value\n    ));\n    bytes32 holdId = _holdIds[holdHash];\n\n    return (holdHash, holdId);\n  }  \n\n  /**\n   * @dev Check if hold can be executed\n   */\n  function _holdCanBeExecuted(Hold storage executableHold, uint value) internal view returns (bool) {\n    if(!(executableHold.status == HoldStatusCode.Ordered || executableHold.status == HoldStatusCode.ExecutedAndKeptOpen)) {\n      return false; // A hold can only be executed in status Ordered or ExecutedAndKeptOpen\n    } else if(value == 0) {\n      return false; // Value must be greater than zero\n    } else if(_isExpired(executableHold.expiration)) {\n      return false; // The hold has already expired\n    } else if(value > executableHold.value) {\n      return false; // The value should be equal or less than the held amount\n    } else {\n      return true;\n    }\n  }\n\n  /**\n   * @dev Check if hold can be executed as secret holder\n   */\n  function _holdCanBeExecutedAsSecretHolder(Hold storage executableHold, uint value, bytes32 secret) internal view returns (bool) {\n    if(\n      _checkSecret(executableHold, secret)\n      && _holdCanBeExecuted(executableHold, value)) {\n      return true;\n    } else {\n      return false;\n    }\n  }\n\n  /**\n   * @dev Check if hold can be executed as notary\n   */\n  function _holdCanBeExecutedAsNotary(Hold storage executableHold, address operator, uint value) internal view returns (bool) {\n    if(\n      executableHold.notary == operator\n      && _holdCanBeExecuted(executableHold, value)) {\n      return true;\n    } else {\n      return false;\n    }\n  }  \n\n  /**\n   * @dev Retrieve hold data.\n   */\n  function retrieveHoldData(address token, bytes32 holdId) external override view returns (\n    bytes32 partition,\n    address sender,\n    address recipient,\n    address notary,\n    uint256 value,\n    uint256 expiration,\n    bytes32 secretHash,\n    bytes32 secret,\n    HoldStatusCode status)\n  {\n    Hold storage retrievedHold = _holds[token][holdId];\n    return (\n      retrievedHold.partition,\n      retrievedHold.sender,\n      retrievedHold.recipient,\n      retrievedHold.notary,\n      retrievedHold.value,\n      retrievedHold.expiration,\n      retrievedHold.secretHash,\n      retrievedHold.secret,\n      retrievedHold.status\n    );\n  }\n\n  /**\n   * @dev Total supply on hold.\n   */\n  function totalSupplyOnHold(address token) external view returns (uint256) {\n    return _totalHeldBalance[token];\n  }\n\n  /**\n   * @dev Total supply on hold for a specific partition.\n   */\n  function totalSupplyOnHoldByPartition(address token, bytes32 partition) external view returns (uint256) {\n    return _totalHeldBalanceByPartition[token][partition];\n  }\n\n  /**\n   * @dev Get balance on hold of a tokenholder.\n   */\n  function balanceOnHold(address token, address account) external view returns (uint256) {\n    return _heldBalance[token][account];\n  }\n\n  /**\n   * @dev Get balance on hold of a tokenholder for a specific partition.\n   */\n  function balanceOnHoldByPartition(address token, bytes32 partition, address account) external view returns (uint256) {\n    return _heldBalanceByPartition[token][account][partition];\n  }\n\n  /**\n   * @dev Get spendable balance of a tokenholder.\n   */\n  function spendableBalanceOf(address token, address account) external view returns (uint256) {\n    return _spendableBalanceOf(token, account);\n  }\n\n  /**\n   * @dev Get spendable balance of a tokenholder for a specific partition.\n   */\n  function spendableBalanceOfByPartition(address token, bytes32 partition, address account) external view returns (uint256) {\n    return _spendableBalanceOfByPartition(token, partition, account);\n  }\n\n  /**\n   * @dev Get spendable balance of a tokenholder.\n   */\n  function _spendableBalanceOf(address token, address account) internal view returns (uint256) {\n    return IERC20(token).balanceOf(account) - _heldBalance[token][account];\n  }\n\n  /**\n   * @dev Get spendable balance of a tokenholder for a specific partition.\n   */\n  function _spendableBalanceOfByPartition(address token, bytes32 partition, address account) internal view returns (uint256) {\n    return IERC1400(token).balanceOfByPartition(partition, account) - _heldBalanceByPartition[token][account][partition];\n  }\n\n  /**\n   * @dev Check if hold (or pre-hold) can be created.\n   * @return 'true' if the operator can create pre-holds, 'false' if not.\n   */\n  function _canHoldOrCanPreHold(address token, address operator, address sender, bytes memory certificate) internal returns(bool) { \n    (bool canValidateCertificate, CertificateValidation certificateControl, bytes32 salt) = _canValidateCertificateToken(token, msg.data, operator, certificate);\n    _useCertificateIfActivated(token, certificateControl, operator, salt);\n\n    if (sender != address(0)) { // hold\n      return canValidateCertificate && (_isTokenController[token][operator] || operator == sender);\n    } else { // pre-hold\n      return canValidateCertificate && IMinterRole(token).isMinter(operator); \n    }\n  }\n\n  /**\n   * @dev Check if validator is activated for the function called in the smart contract.\n   * @param payload Payload of the initial transaction.\n   * @return 'true' if the function requires validation, 'false' if not.\n   */\n  function _functionSupportsCertificateValidation(bytes memory payload) internal pure returns(bool) {\n    bytes4 functionSig = _getFunctionSig(payload);\n    if(functionSig == ERC20_TRANSFER_ID || functionSig == ERC20_TRANSFERFROM_ID) {\n      return false;\n    } else {\n      return true;\n    }\n  }\n\n  /**\n   * @dev Use certificate, if validated.\n   * @param token Token address.\n   * @param certificateControl Type of certificate.\n   * @param msgSender Transaction sender (only for nonce-based certificates).\n   * @param salt Salt extracted from the certificate (only for salt-based certificates).\n   */\n  function _useCertificateIfActivated(address token, CertificateValidation certificateControl, address msgSender, bytes32 salt) internal {\n    // Declare certificate as used\n    if (certificateControl == CertificateValidation.NonceBased) {\n      _usedCertificateNonce[token][msgSender] += 1;\n    } else if (certificateControl == CertificateValidation.SaltBased) {\n      _usedCertificateSalt[token][salt] = true;\n    }\n  }\n\n  /**\n   * @dev Extract function signature from payload.\n   * @param payload Payload of the initial transaction.\n   * @return Function signature.\n   */\n  function _getFunctionSig(bytes memory payload) internal pure returns(bytes4) {\n    return (bytes4(payload[0]) | bytes4(payload[1]) >> 8 | bytes4(payload[2]) >> 16 | bytes4(payload[3]) >> 24);\n  }\n\n  /**\n   * @dev Check if 'value' is multiple of 'granularity'.\n   * @param granularity The granularity that want's to be checked.\n   * @param value The quantity that want's to be checked.\n   * @return 'true' if 'value' is a multiple of 'granularity'.\n   */\n  function _isMultiple(uint256 granularity, uint256 value) internal pure returns(bool) {\n    return(value.div(granularity).mul(granularity) == value);\n  }\n\n  /**\n   * @dev Get state of certificate (used or not).\n   * @param token Token address.\n   * @param sender Address whom to check the counter of.\n   * @return uint256 Number of transaction already sent for this token contract.\n   */\n  function usedCertificateNonce(address token, address sender) external view returns (uint256) {\n    return _usedCertificateNonce[token][sender];\n  }\n\n  /**\n   * @dev Checks if a nonce-based certificate is correct\n   * @param certificate Certificate to control\n   */\n  function _checkNonceBasedCertificate(\n    address token,\n    address msgSender,\n    bytes memory payloadWithCertificate,\n    bytes memory certificate\n  )\n    internal\n    view\n    returns(bool)\n  {\n    // Certificate should be 97 bytes long\n    if (certificate.length != 97) {\n      return false;\n    }\n\n    uint256 e;\n    uint8 v;\n\n    // Extract certificate information and expiration time from payload\n    assembly {\n      // Retrieve expirationTime & ECDSA element (v) from certificate which is a 97 long bytes\n      // Certificate encoding format is: <expirationTime (32 bytes)>@<r (32 bytes)>@<s (32 bytes)>@<v (1 byte)>\n      e := mload(add(certificate, 0x20))\n      v := byte(0, mload(add(certificate, 0x80)))\n    }\n\n    // Certificate should not be expired\n    if (e < block.timestamp) {\n      return false;\n    }\n\n    if (v < 27) {\n      v += 27;\n    }\n\n    // Perform ecrecover to ensure message information corresponds to certificate\n    if (v == 27 || v == 28) {\n      // Extract certificate from payload\n      bytes memory payloadWithoutCertificate = new bytes(payloadWithCertificate.length.sub(160));\n      for (uint i = 0; i < payloadWithCertificate.length.sub(160); i++) { // replace 4 bytes corresponding to function selector\n        payloadWithoutCertificate[i] = payloadWithCertificate[i];\n      }\n\n      // Pack and hash\n      bytes memory pack = abi.encodePacked(\n        msgSender,\n        token,\n        payloadWithoutCertificate,\n        e,\n        _usedCertificateNonce[token][msgSender]\n      );\n      bytes32 hash = keccak256(\n        abi.encodePacked(\n          DomainAware(token).generateDomainSeparator(),\n          keccak256(pack)\n        )\n      );\n\n      bytes32 r;\n      bytes32 s;\n      // Extract certificate information and expiration time from payload\n      assembly {\n        // Retrieve ECDSA elements (r, s) from certificate which is a 97 long bytes\n        // Certificate encoding format is: <expirationTime (32 bytes)>@<r (32 bytes)>@<s (32 bytes)>@<v (1 byte)>\n        r := mload(add(certificate, 0x40))\n        s := mload(add(certificate, 0x60))\n      }\n\n      // Check if certificate match expected transactions parameters\n      if (isCertificateSigner(token, ecrecover(hash, v, r, s))) {\n        return true;\n      }\n    }\n    return false;\n  }\n\n  /**\n   * @dev Get state of certificate (used or not).\n   * @param token Token address.\n   * @param salt First 32 bytes of certificate whose validity is being checked.\n   * @return bool 'true' if certificate is already used, 'false' if not.\n   */\n  function usedCertificateSalt(address token, bytes32 salt) external view returns (bool) {\n    return _usedCertificateSalt[token][salt];\n  }\n\n  /**\n   * @dev Checks if a salt-based certificate is correct\n   * @param certificate Certificate to control\n   */\n  function _checkSaltBasedCertificate(\n    address token,\n    address msgSender,\n    bytes memory payloadWithCertificate,\n    bytes memory certificate\n  )\n    internal\n    view\n    returns(bool, bytes32)\n  {\n    // Certificate should be 129 bytes long\n    if (certificate.length != 129) {\n      return (false, \"\");\n    }\n\n    bytes32 salt;\n    uint256 e;\n    uint8 v;\n\n    // Extract certificate information and expiration time from payload\n    assembly {\n      // Retrieve expirationTime & ECDSA elements from certificate which is a 97 long bytes\n      // Certificate encoding format is: <salt (32 bytes)>@<expirationTime (32 bytes)>@<r (32 bytes)>@<s (32 bytes)>@<v (1 byte)>\n      salt := mload(add(certificate, 0x20))\n      e := mload(add(certificate, 0x40))\n      v := byte(0, mload(add(certificate, 0xa0)))\n    }\n\n    // Certificate should not be expired\n    if (e < block.timestamp) {\n      return (false, \"\");\n    }\n\n    if (v < 27) {\n      v += 27;\n    }\n\n    // Perform ecrecover to ensure message information corresponds to certificate\n    if (v == 27 || v == 28) {\n      // Extract certificate from payload\n      bytes memory payloadWithoutCertificate = new bytes(payloadWithCertificate.length.sub(192));\n      for (uint i = 0; i < payloadWithCertificate.length.sub(192); i++) { // replace 4 bytes corresponding to function selector\n        payloadWithoutCertificate[i] = payloadWithCertificate[i];\n      }\n\n      // Pack and hash\n      bytes memory pack = abi.encodePacked(\n        msgSender,\n        token,\n        payloadWithoutCertificate,\n        e,\n        salt\n      );\n\n      bytes32 hash = keccak256(\n        abi.encodePacked(\n          DomainAware(token).generateDomainSeparator(),\n          keccak256(pack)\n        )\n      );\n\n      bytes32 r;\n      bytes32 s;\n      // Extract certificate information and expiration time from payload\n      assembly {\n        // Retrieve ECDSA elements (r, s) from certificate which is a 97 long bytes\n        // Certificate encoding format is: <expirationTime (32 bytes)>@<r (32 bytes)>@<s (32 bytes)>@<v (1 byte)>\n        r := mload(add(certificate, 0x60))\n        s := mload(add(certificate, 0x80))\n      }\n\n      // Check if certificate match expected transactions parameters\n      if (isCertificateSigner(token, ecrecover(hash, v, r, s)) && !_usedCertificateSalt[token][salt]) {\n        return (true, salt);\n      }\n    }\n    return (false, \"\");\n  }\n}",
  "sourcePath": "/Users/sergio/Desktop/TFM/project/contracts/extensions/tokenExtensions/ERC1400TokensValidator.sol",
  "compiler": {
    "name": "solc",
    "version": "0.8.7+commit.e28d00a7.Emscripten.clang"
  },
  "schemaVersion": "3.4.16",
  "updatedAt": "2024-05-10T15:12:49.194Z",
  "networkType": "ethereum",
  "devdoc": {
    "kind": "dev",
    "methods": {
      "balanceOnHold(address,address)": {
        "details": "Get balance on hold of a tokenholder."
      },
      "balanceOnHoldByPartition(address,bytes32,address)": {
        "details": "Get balance on hold of a tokenholder for a specific partition."
      },
      "canValidate((address,bytes,bytes32,address,address,address,uint256,bytes,bytes))": {
        "details": "Verify if a token transfer can be executed or not, on the validator's perspective.",
        "params": {
          "data": "The struct containing the validation information."
        },
        "returns": {
          "_0": "'true' if the token transfer can be validated, 'false' if not."
        }
      },
      "executeHold(address,bytes32,uint256,bytes32)": {
        "details": "Execute hold."
      },
      "executeHoldAndKeepOpen(address,bytes32,uint256,bytes32)": {
        "details": "Execute hold and keep open."
      },
      "granularityByPartition(address,bytes32)": {
        "details": "Get granularity for a given partition.",
        "params": {
          "partition": "Name of the partition.",
          "token": "Token address."
        },
        "returns": {
          "_0": "Granularity of the partition."
        }
      },
      "hold(address,bytes32,address,address,bytes32,uint256,uint256,bytes32,bytes)": {
        "details": "Create a new token hold."
      },
      "holdFrom(address,bytes32,address,address,address,bytes32,uint256,uint256,bytes32,bytes)": {
        "details": "Create a new token hold on behalf of the token holder."
      },
      "holdFromWithExpirationDate(address,bytes32,address,address,address,bytes32,uint256,uint256,bytes32,bytes)": {
        "details": "Create a new token hold with expiration date on behalf of the token holder."
      },
      "holdWithExpirationDate(address,bytes32,address,address,bytes32,uint256,uint256,bytes32,bytes)": {
        "details": "Create a new token hold with expiration date."
      },
      "pause(address)": {
        "details": "called by the owner to pause, triggers stopped state"
      },
      "paused(address)": {
        "returns": {
          "_0": "true if the contract is paused, false otherwise."
        }
      },
      "preHoldFor(address,bytes32,address,address,bytes32,uint256,uint256,bytes32,bytes)": {
        "details": "Create a new token pre-hold."
      },
      "preHoldForWithExpirationDate(address,bytes32,address,address,bytes32,uint256,uint256,bytes32,bytes)": {
        "details": "Create a new token pre-hold with expiration date."
      },
      "registerTokenSetup(address,uint8,bool,bool,bool,bool,address[])": {
        "details": "Register token setup."
      },
      "releaseHold(address,bytes32)": {
        "details": "Release token hold."
      },
      "renewHold(address,bytes32,uint256,bytes)": {
        "details": "Renew hold."
      },
      "renewHoldWithExpirationDate(address,bytes32,uint256,bytes)": {
        "details": "Renew hold with expiration time."
      },
      "retrieveHoldData(address,bytes32)": {
        "details": "Retrieve hold data."
      },
      "retrieveTokenSetup(address)": {
        "details": "Get the list of token controllers for a given token.",
        "returns": {
          "_0": "Setup of a given token."
        }
      },
      "setGranularityByPartition(address,bytes32,uint256)": {
        "details": "Set partition granularity"
      },
      "spendableBalanceOf(address,address)": {
        "details": "Get spendable balance of a tokenholder."
      },
      "spendableBalanceOfByPartition(address,bytes32,address)": {
        "details": "Get spendable balance of a tokenholder for a specific partition."
      },
      "tokensToValidate(bytes,bytes32,address,address,address,uint256,bytes,bytes)": {
        "details": "Function called by the token contract before executing a transfer.",
        "params": {
          "data": "Extra information.",
          "from": "Token holder.",
          "operator": "Address which triggered the balance decrease (through transfer or redemption).",
          "operatorData": "Extra information, attached by the operator (if any).",
          "partition": "Name of the partition (left empty for ERC20 transfer).",
          "payload": "Payload of the initial transaction.",
          "to": "Token recipient for a transfer and 0x for a redemption.",
          "value": "Number of tokens the token holder balance is decreased by."
        }
      },
      "totalSupplyOnHold(address)": {
        "details": "Total supply on hold."
      },
      "totalSupplyOnHoldByPartition(address,bytes32)": {
        "details": "Total supply on hold for a specific partition."
      },
      "unpause(address)": {
        "details": "called by the owner to unpause, returns to normal state"
      },
      "usedCertificateNonce(address,address)": {
        "details": "Get state of certificate (used or not).",
        "params": {
          "sender": "Address whom to check the counter of.",
          "token": "Token address."
        },
        "returns": {
          "_0": "uint256 Number of transaction already sent for this token contract."
        }
      },
      "usedCertificateSalt(address,bytes32)": {
        "details": "Get state of certificate (used or not).",
        "params": {
          "salt": "First 32 bytes of certificate whose validity is being checked.",
          "token": "Token address."
        },
        "returns": {
          "_0": "bool 'true' if certificate is already used, 'false' if not."
        }
      }
    },
    "version": 1
  },
  "userdoc": {
    "kind": "user",
    "methods": {},
    "version": 1
  }
}