{
  "contractName": "ERC1820Implementer",
  "abi": [
    {
      "inputs": [
        {
          "internalType": "bytes32",
          "name": "interfaceHash",
          "type": "bytes32"
        },
        {
          "internalType": "address",
          "name": "",
          "type": "address"
        }
      ],
      "name": "canImplementInterfaceForAddress",
      "outputs": [
        {
          "internalType": "bytes32",
          "name": "",
          "type": "bytes32"
        }
      ],
      "stateMutability": "view",
      "type": "function"
    }
  ],
  "bytecode": "0x608060405234801561001057600080fd5b5061011d806100206000396000f3fe6080604052348015600f57600080fd5b506004361060285760003560e01c8063249cb3fa14602d575b600080fd5b603c603836600460ad565b604e565b60405190815260200160405180910390f35b60008281526020819052604081205460ff161560a35760405173455243313832305f4143434550545f4d4147494360601b602082015260340160405160208183030381529060405280519060200120905060a7565b5060005b92915050565b6000806040838503121560bf57600080fd5b8235915060208301356001600160a01b038116811460dc57600080fd5b80915050925092905056fea2646970667358221220480e220f915494034109ca23ae52306756c1d04eacb75d00c408c104c684477764736f6c63430008070033",
  "immutableReferences": {},
  "source": "// SPDX-License-Identifier: Apache-2.0\n/*\n * This code has not been reviewed.\n * Do not use or deploy this code before reviewing it personally first.\n */\npragma solidity ^0.8.0;\n\n\ncontract ERC1820Implementer {\n  bytes32 constant ERC1820_ACCEPT_MAGIC = keccak256(abi.encodePacked(\"ERC1820_ACCEPT_MAGIC\"));\n\n  mapping(bytes32 => bool) internal _interfaceHashes;\n\n  function canImplementInterfaceForAddress(bytes32 interfaceHash, address /*addr*/) // Comments to avoid compilation warnings for unused variables.\n    external\n    view\n    returns(bytes32)\n  {\n    if(_interfaceHashes[interfaceHash]) {\n      return ERC1820_ACCEPT_MAGIC;\n    } else {\n      return \"\";\n    }\n  }\n\n  function _setInterface(string memory interfaceLabel) internal {\n    _interfaceHashes[keccak256(abi.encodePacked(interfaceLabel))] = true;\n  }\n\n}\n",
  "sourcePath": "/Users/sergio/Desktop/TFM/project/contracts/interface/ERC1820Implementer.sol",
  "compiler": {
    "name": "solc",
    "version": "0.8.7+commit.e28d00a7.Emscripten.clang"
  },
  "schemaVersion": "3.4.16",
  "updatedAt": "2024-05-10T15:08:02.295Z",
  "devdoc": {
    "kind": "dev",
    "methods": {},
    "version": 1
  },
  "userdoc": {
    "kind": "user",
    "methods": {},
    "version": 1
  }
}