{
  "contractName": "FundIssuer",
  "abi": [
    {
      "inputs": [],
      "stateMutability": "nonpayable",
      "type": "constructor"
    },
    {
      "inputs": [
        {
          "internalType": "bytes32",
          "name": "interfaceHash",
          "type": "bytes32"
        },
        {
          "internalType": "address",
          "name": "",
          "type": "address"
        }
      ],
      "name": "canImplementInterfaceForAddress",
      "outputs": [
        {
          "internalType": "bytes32",
          "name": "",
          "type": "bytes32"
        }
      ],
      "stateMutability": "view",
      "type": "function",
      "constant": true
    },
    {
      "inputs": [
        {
          "internalType": "bytes",
          "name": "",
          "type": "bytes"
        },
        {
          "internalType": "bytes32",
          "name": "",
          "type": "bytes32"
        },
        {
          "internalType": "address",
          "name": "",
          "type": "address"
        },
        {
          "internalType": "address",
          "name": "",
          "type": "address"
        },
        {
          "internalType": "address",
          "name": "",
          "type": "address"
        },
        {
          "internalType": "uint256",
          "name": "",
          "type": "uint256"
        },
        {
          "internalType": "bytes",
          "name": "data",
          "type": "bytes"
        },
        {
          "internalType": "bytes",
          "name": "operatorData",
          "type": "bytes"
        }
      ],
      "name": "canReceive",
      "outputs": [
        {
          "internalType": "bool",
          "name": "",
          "type": "bool"
        }
      ],
      "stateMutability": "pure",
      "type": "function",
      "constant": true
    },
    {
      "inputs": [
        {
          "internalType": "bytes",
          "name": "",
          "type": "bytes"
        },
        {
          "internalType": "bytes32",
          "name": "partition",
          "type": "bytes32"
        },
        {
          "internalType": "address",
          "name": "",
          "type": "address"
        },
        {
          "internalType": "address",
          "name": "from",
          "type": "address"
        },
        {
          "internalType": "address",
          "name": "to",
          "type": "address"
        },
        {
          "internalType": "uint256",
          "name": "value",
          "type": "uint256"
        },
        {
          "internalType": "bytes",
          "name": "data",
          "type": "bytes"
        },
        {
          "internalType": "bytes",
          "name": "operatorData",
          "type": "bytes"
        }
      ],
      "name": "tokensReceived",
      "outputs": [],
      "stateMutability": "nonpayable",
      "type": "function"
    },
    {
      "inputs": [
        {
          "internalType": "address",
          "name": "assetAddress",
          "type": "address"
        },
        {
          "internalType": "bytes32",
          "name": "assetClass",
          "type": "bytes32"
        },
        {
          "internalType": "uint256",
          "name": "firstStartTime",
          "type": "uint256"
        },
        {
          "internalType": "uint256",
          "name": "subscriptionPeriodLength",
          "type": "uint256"
        },
        {
          "internalType": "uint256",
          "name": "valuationPeriodLength",
          "type": "uint256"
        },
        {
          "internalType": "uint256",
          "name": "paymentPeriodLength",
          "type": "uint256"
        },
        {
          "internalType": "enum FundIssuer.Payment",
          "name": "paymentType",
          "type": "uint8"
        },
        {
          "internalType": "address",
          "name": "paymentAddress",
          "type": "address"
        },
        {
          "internalType": "bytes32",
          "name": "paymentPartition",
          "type": "bytes32"
        },
        {
          "internalType": "address",
          "name": "fundAddress",
          "type": "address"
        },
        {
          "internalType": "bool",
          "name": "subscriptionsOpened",
          "type": "bool"
        }
      ],
      "name": "setAssetRules",
      "outputs": [],
      "stateMutability": "nonpayable",
      "type": "function"
    },
    {
      "inputs": [
        {
          "internalType": "address",
          "name": "assetAddress",
          "type": "address"
        },
        {
          "internalType": "bytes32",
          "name": "assetClass",
          "type": "bytes32"
        },
        {
          "internalType": "enum FundIssuer.AssetValue",
          "name": "assetValueType",
          "type": "uint8"
        },
        {
          "internalType": "uint256",
          "name": "assetValue",
          "type": "uint256"
        },
        {
          "internalType": "uint256",
          "name": "reverseAssetValue",
          "type": "uint256"
        }
      ],
      "name": "setAssetValueRules",
      "outputs": [],
      "stateMutability": "nonpayable",
      "type": "function"
    },
    {
      "inputs": [
        {
          "internalType": "address",
          "name": "assetAddress",
          "type": "address"
        },
        {
          "internalType": "bytes32",
          "name": "assetClass",
          "type": "bytes32"
        },
        {
          "internalType": "uint256",
          "name": "orderValue",
          "type": "uint256"
        },
        {
          "internalType": "uint256",
          "name": "orderAmount",
          "type": "uint256"
        },
        {
          "internalType": "enum FundIssuer.OrderType",
          "name": "orderType",
          "type": "uint8"
        },
        {
          "internalType": "bool",
          "name": "executePaymentAtSubscription",
          "type": "bool"
        }
      ],
      "name": "subscribe",
      "outputs": [
        {
          "internalType": "uint256",
          "name": "",
          "type": "uint256"
        }
      ],
      "stateMutability": "payable",
      "type": "function",
      "payable": true
    },
    {
      "inputs": [
        {
          "internalType": "uint256",
          "name": "orderIndex",
          "type": "uint256"
        }
      ],
      "name": "cancelOrder",
      "outputs": [],
      "stateMutability": "nonpayable",
      "type": "function"
    },
    {
      "inputs": [
        {
          "internalType": "uint256",
          "name": "orderIndex",
          "type": "uint256"
        },
        {
          "internalType": "bool",
          "name": "rejected",
          "type": "bool"
        }
      ],
      "name": "rejectOrder",
      "outputs": [],
      "stateMutability": "nonpayable",
      "type": "function"
    },
    {
      "inputs": [
        {
          "internalType": "uint256",
          "name": "cycleIndex",
          "type": "uint256"
        },
        {
          "internalType": "uint256",
          "name": "assetValue",
          "type": "uint256"
        },
        {
          "internalType": "uint256",
          "name": "reverseAssetValue",
          "type": "uint256"
        }
      ],
      "name": "valuate",
      "outputs": [],
      "stateMutability": "nonpayable",
      "type": "function"
    },
    {
      "inputs": [
        {
          "internalType": "uint256",
          "name": "orderIndex",
          "type": "uint256"
        }
      ],
      "name": "executePaymentAsInvestor",
      "outputs": [],
      "stateMutability": "payable",
      "type": "function",
      "payable": true
    },
    {
      "inputs": [
        {
          "internalType": "uint256",
          "name": "orderIndex",
          "type": "uint256"
        },
        {
          "internalType": "bool",
          "name": "bypassPayment",
          "type": "bool"
        }
      ],
      "name": "executePaymentAsController",
      "outputs": [],
      "stateMutability": "nonpayable",
      "type": "function"
    },
    {
      "inputs": [
        {
          "internalType": "uint256[]",
          "name": "orderIndexes",
          "type": "uint256[]"
        },
        {
          "internalType": "bool",
          "name": "bypassPayment",
          "type": "bool"
        }
      ],
      "name": "batchExecutePaymentsAsController",
      "outputs": [],
      "stateMutability": "nonpayable",
      "type": "function"
    },
    {
      "inputs": [
        {
          "internalType": "uint256[]",
          "name": "orderIndexes",
          "type": "uint256[]"
        }
      ],
      "name": "batchSettleOrders",
      "outputs": [],
      "stateMutability": "nonpayable",
      "type": "function"
    },
    {
      "inputs": [
        {
          "internalType": "uint256",
          "name": "cycleIndex",
          "type": "uint256"
        }
      ],
      "name": "finalizeCycle",
      "outputs": [],
      "stateMutability": "nonpayable",
      "type": "function"
    },
    {
      "inputs": [
        {
          "internalType": "uint256",
          "name": "cycleIndex",
          "type": "uint256"
        }
      ],
      "name": "getTotalSettledForCycle",
      "outputs": [
        {
          "internalType": "uint256",
          "name": "",
          "type": "uint256"
        },
        {
          "internalType": "uint256",
          "name": "",
          "type": "uint256"
        },
        {
          "internalType": "bool",
          "name": "",
          "type": "bool"
        }
      ],
      "stateMutability": "view",
      "type": "function",
      "constant": true
    },
    {
      "inputs": [
        {
          "internalType": "uint256",
          "name": "cycleIndex",
          "type": "uint256"
        }
      ],
      "name": "getCycleState",
      "outputs": [
        {
          "internalType": "enum FundIssuer.CycleState",
          "name": "",
          "type": "uint8"
        }
      ],
      "stateMutability": "view",
      "type": "function",
      "constant": true
    },
    {
      "inputs": [
        {
          "internalType": "address",
          "name": "tokenAddress",
          "type": "address"
        }
      ],
      "name": "tokenControllers",
      "outputs": [
        {
          "internalType": "address[]",
          "name": "",
          "type": "address[]"
        }
      ],
      "stateMutability": "view",
      "type": "function",
      "constant": true
    },
    {
      "inputs": [
        {
          "internalType": "address",
          "name": "tokenAddress",
          "type": "address"
        },
        {
          "internalType": "address[]",
          "name": "operators",
          "type": "address[]"
        }
      ],
      "name": "setTokenControllers",
      "outputs": [],
      "stateMutability": "nonpayable",
      "type": "function"
    },
    {
      "inputs": [
        {
          "internalType": "address",
          "name": "tokenAddress",
          "type": "address"
        }
      ],
      "name": "priceOracles",
      "outputs": [
        {
          "internalType": "address[]",
          "name": "",
          "type": "address[]"
        }
      ],
      "stateMutability": "view",
      "type": "function",
      "constant": true
    },
    {
      "inputs": [
        {
          "internalType": "address",
          "name": "tokenAddress",
          "type": "address"
        },
        {
          "internalType": "address[]",
          "name": "oracles",
          "type": "address[]"
        }
      ],
      "name": "setPriceOracles",
      "outputs": [],
      "stateMutability": "nonpayable",
      "type": "function"
    },
    {
      "inputs": [
        {
          "internalType": "address",
          "name": "assetAddress",
          "type": "address"
        },
        {
          "internalType": "bytes32",
          "name": "assetClass",
          "type": "bytes32"
        }
      ],
      "name": "getAssetRules",
      "outputs": [
        {
          "internalType": "uint256",
          "name": "",
          "type": "uint256"
        },
        {
          "internalType": "uint256",
          "name": "",
          "type": "uint256"
        },
        {
          "internalType": "uint256",
          "name": "",
          "type": "uint256"
        },
        {
          "internalType": "uint256",
          "name": "",
          "type": "uint256"
        },
        {
          "internalType": "enum FundIssuer.Payment",
          "name": "",
          "type": "uint8"
        },
        {
          "internalType": "address",
          "name": "",
          "type": "address"
        },
        {
          "internalType": "bytes32",
          "name": "",
          "type": "bytes32"
        },
        {
          "internalType": "address",
          "name": "",
          "type": "address"
        },
        {
          "internalType": "bool",
          "name": "",
          "type": "bool"
        }
      ],
      "stateMutability": "view",
      "type": "function",
      "constant": true
    },
    {
      "inputs": [
        {
          "internalType": "address",
          "name": "assetAddress",
          "type": "address"
        },
        {
          "internalType": "bytes32",
          "name": "assetClass",
          "type": "bytes32"
        }
      ],
      "name": "getAssetValueRules",
      "outputs": [
        {
          "internalType": "enum FundIssuer.AssetValue",
          "name": "",
          "type": "uint8"
        },
        {
          "internalType": "uint256",
          "name": "",
          "type": "uint256"
        },
        {
          "internalType": "uint256",
          "name": "",
          "type": "uint256"
        }
      ],
      "stateMutability": "view",
      "type": "function",
      "constant": true
    },
    {
      "inputs": [],
      "name": "getNbCycles",
      "outputs": [
        {
          "internalType": "uint256",
          "name": "",
          "type": "uint256"
        }
      ],
      "stateMutability": "view",
      "type": "function",
      "constant": true
    },
    {
      "inputs": [
        {
          "internalType": "address",
          "name": "assetAddress",
          "type": "address"
        },
        {
          "internalType": "bytes32",
          "name": "assetClass",
          "type": "bytes32"
        }
      ],
      "name": "getLastCycleIndex",
      "outputs": [
        {
          "internalType": "uint256",
          "name": "",
          "type": "uint256"
        }
      ],
      "stateMutability": "view",
      "type": "function",
      "constant": true
    },
    {
      "inputs": [
        {
          "internalType": "uint256",
          "name": "index",
          "type": "uint256"
        }
      ],
      "name": "getCycle",
      "outputs": [
        {
          "internalType": "address",
          "name": "",
          "type": "address"
        },
        {
          "internalType": "bytes32",
          "name": "",
          "type": "bytes32"
        },
        {
          "internalType": "uint256",
          "name": "",
          "type": "uint256"
        },
        {
          "internalType": "uint256",
          "name": "",
          "type": "uint256"
        },
        {
          "internalType": "uint256",
          "name": "",
          "type": "uint256"
        },
        {
          "internalType": "uint256",
          "name": "",
          "type": "uint256"
        },
        {
          "internalType": "enum FundIssuer.Payment",
          "name": "",
          "type": "uint8"
        },
        {
          "internalType": "address",
          "name": "",
          "type": "address"
        },
        {
          "internalType": "bytes32",
          "name": "",
          "type": "bytes32"
        },
        {
          "internalType": "bool",
          "name": "",
          "type": "bool"
        }
      ],
      "stateMutability": "view",
      "type": "function",
      "constant": true
    },
    {
      "inputs": [
        {
          "internalType": "uint256",
          "name": "index",
          "type": "uint256"
        }
      ],
      "name": "getCycleAssetValue",
      "outputs": [
        {
          "internalType": "enum FundIssuer.AssetValue",
          "name": "",
          "type": "uint8"
        },
        {
          "internalType": "uint256",
          "name": "",
          "type": "uint256"
        },
        {
          "internalType": "uint256",
          "name": "",
          "type": "uint256"
        }
      ],
      "stateMutability": "view",
      "type": "function",
      "constant": true
    },
    {
      "inputs": [],
      "name": "getNbOrders",
      "outputs": [
        {
          "internalType": "uint256",
          "name": "",
          "type": "uint256"
        }
      ],
      "stateMutability": "view",
      "type": "function",
      "constant": true
    },
    {
      "inputs": [
        {
          "internalType": "uint256",
          "name": "index",
          "type": "uint256"
        }
      ],
      "name": "getOrder",
      "outputs": [
        {
          "internalType": "uint256",
          "name": "",
          "type": "uint256"
        },
        {
          "internalType": "address",
          "name": "",
          "type": "address"
        },
        {
          "internalType": "uint256",
          "name": "",
          "type": "uint256"
        },
        {
          "internalType": "uint256",
          "name": "",
          "type": "uint256"
        },
        {
          "internalType": "enum FundIssuer.OrderType",
          "name": "",
          "type": "uint8"
        },
        {
          "internalType": "enum FundIssuer.OrderState",
          "name": "",
          "type": "uint8"
        }
      ],
      "stateMutability": "view",
      "type": "function",
      "constant": true
    },
    {
      "inputs": [
        {
          "internalType": "uint256",
          "name": "orderIndex",
          "type": "uint256"
        }
      ],
      "name": "getOrderAmountAndValue",
      "outputs": [
        {
          "internalType": "uint256",
          "name": "",
          "type": "uint256"
        },
        {
          "internalType": "uint256",
          "name": "",
          "type": "uint256"
        }
      ],
      "stateMutability": "view",
      "type": "function",
      "constant": true
    },
    {
      "inputs": [
        {
          "internalType": "uint256",
          "name": "index",
          "type": "uint256"
        }
      ],
      "name": "getCycleOrders",
      "outputs": [
        {
          "internalType": "uint256[]",
          "name": "",
          "type": "uint256[]"
        }
      ],
      "stateMutability": "view",
      "type": "function",
      "constant": true
    },
    {
      "inputs": [
        {
          "internalType": "address",
          "name": "investor",
          "type": "address"
        }
      ],
      "name": "getInvestorOrders",
      "outputs": [
        {
          "internalType": "uint256[]",
          "name": "",
          "type": "uint256[]"
        }
      ],
      "stateMutability": "view",
      "type": "function",
      "constant": true
    }
  ],
  "bytecode": "0x60806040523480156200001157600080fd5b506200004a6040518060400160405280600a815260200169233ab73224b9b9bab2b960b11b815250620000db60201b62001cbf1760201c565b620000956040518060400160405280601681526020017f45524331343030546f6b656e73526563697069656e7400000000000000000000815250620000db60201b62001cbf1760201c565b60408051808201909152601681527f45524331343030546f6b656e73526563697069656e74000000000000000000006020820152620000d590306200012a565b62000216565b600160008083604051602001620000f39190620001d8565b60408051808303601f19018152918152815160209283012083529082019290925201600020805460ff191691151591909117905550565b6000826040516020016200013f9190620001d8565b60408051808303601f190181529082905280516020909101206329965a1d60e01b8252306004830152602482018190526001600160a01b03841660448301529150731820a4b7618bde71dce8cdc73aab6c95905fad24906329965a1d90606401600060405180830381600087803b158015620001ba57600080fd5b505af1158015620001cf573d6000803e3d6000fd5b50505050505050565b6000825160005b81811015620001fb5760208186018101518583015201620001df565b818111156200020b576000828501525b509190910192915050565b614a7280620002266000396000f3fe6080604052600436106101685760003560e01c8063013745181461016d57806301636f4e146101a357806303adad23146101c557806318847ee1146101f25780632026f6381461021157806321e20e8b146102b2578063249cb3fa146102d257806329403eac146102f25780633361cbb4146103125780633e5cf76c146103475780634eef9fcf146103845780634fa3501d146103a4578063514fcac7146103b95780636a836a4a146103d9578063759561fa1461043f5780637eee43681461045f57806380e9dbb51461047f57806398e57fc714610492578063ac4b6e0f146104d5578063b2a2eef3146104f5578063bffdf75914610522578063ccf6e61014610542578063d09ef24114610562578063dec46184146105d5578063e236d43c14610673578063e252822a14610693578063e6eb8f2a146106d4578063ec96dfb4146106f4578063f29748ce14610714578063f464b57614610727578063f55886df14610747575b600080fd5b34801561017957600080fd5b5061018d610188366004613f13565b610777565b60405161019a91906144d4565b60405180910390f35b3480156101af57600080fd5b506101c36101be366004613f84565b6107ed565b005b3480156101d157600080fd5b506101e56101e036600461434e565b610860565b60405161019a9190614521565b3480156101fe57600080fd5b506002545b60405190815260200161019a565b34801561021d57600080fd5b5061029c61022c36600461434e565b600090815260036020819052604090912080546001820154600283015493830154600484015460058501546009860154600a870154600b909701546001600160a01b039687169995989794969395929460ff80841695610100909404909316939092600160a01b90920490911690565b60405161019a9a9998979695949392919061446b565b3480156102be57600080fd5b506101c36102cd36600461434e565b6108c1565b3480156102de57600080fd5b506102036102ed36600461423c565b610a3a565b3480156102fe57600080fd5b506101e561030d366004613f13565b610a9b565b34801561031e57600080fd5b5061033261032d36600461434e565b610b05565b6040805192835260208301919091520161019a565b34801561035357600080fd5b5061036761036236600461434e565b610b1a565b60408051938452602084019290925215159082015260600161019a565b34801561039057600080fd5b506101c361039f3660046141b0565b610b35565b3480156103b057600080fd5b50600554610203565b3480156103c557600080fd5b506101c36103d436600461434e565b610c00565b3480156103e557600080fd5b506104306103f4366004613fd8565b6001600160a01b03919091166000908152600160209081526040808320938352929052206005810154600682015460079092015460ff90911692565b60405161019a93929190614616565b34801561044b57600080fd5b5061018d61045a366004613f13565b610da5565b34801561046b57600080fd5b506101c361047a366004614004565b610e19565b6101c361048d36600461434e565b610ee4565b34801561049e57600080fd5b506102036104ad366004613fd8565b6001600160a01b03919091166000908152600460209081526040808320938352929052205490565b3480156104e157600080fd5b506101c36104f0366004614367565b610f2b565b34801561050157600080fd5b5061051561051036600461434e565b610f95565b60405161019a919061463e565b34801561052e57600080fd5b506101c361053d36600461416f565b610fa0565b34801561054e57600080fd5b506101c361055d366004614367565b61105c565b34801561056e57600080fd5b506105c361057d36600461434e565b6000908152600660205260409020805460018201546002830154600384015460049094015492946001600160a01b03909216939092909160ff8083169261010090041690565b60405161019a96959493929190614785565b3480156105e157600080fd5b5061065e6105f0366004613fd8565b6001600160a01b0391821660009081526001602081815260408084209484529390529190209081015460028201546003830154600484015460088501546009860154600a90960154949793969295919460ff80831695610100909304851694821692600160a01b9092041690565b60405161019a999897969594939291906147f2565b34801561067f57600080fd5b506101c361068e3660046143ba565b611298565b34801561069f57600080fd5b506104306106ae36600461434e565b60009081526003602052604090206006810154600782015460089092015460ff90911692565b3480156106e057600080fd5b506101c36106ef3660046140c1565b61143d565b34801561070057600080fd5b506101c361070f366004613f84565b6117db565b61020361072236600461405a565b61183f565b34801561073357600080fd5b506101c361074236600461426c565b611890565b34801561075357600080fd5b5061076761076236600461426c565b611c3a565b604051901515815260200161019a565b6001600160a01b0381166000908152600e60209081526040918290208054835181840281018401909452808452606093928301828280156107e157602002820191906000526020600020905b81546001600160a01b031681526001909101906020018083116107c3575b50505050509050919050565b826107f88133611d0c565b61081d5760405162461bcd60e51b815260040161081490614702565b60405180910390fd5b61085a84848480806020026020016040519081016040528093929190818152602001838360200280828437600092019190915250611dca92505050565b50505050565b6000818152600760209081526040918290208054835181840281018401909452808452606093928301828280156107e157602002820191906000526020600020905b8154815260200190600101908083116108a25750505050509050919050565b600081815260036020526040902080546108e59033906001600160a01b0316611f15565b6109015760405162461bcd60e51b815260040161081490614658565b600b810154600160a01b900460ff161561092d5760405162461bcd60e51b8152600401610814906146ce565b60008061093984611fd9565b9250925050806109f557600b8301805460ff60a01b1916600160a01b17905581156109f05782546001840154600b85015460405163f3d490db60e01b81526001600160a01b039384169363f3d490db9361099c93909291169087906004016145e8565b602060405180830381600087803b1580156109b657600080fd5b505af11580156109ca573d6000803e3d6000fd5b505050506040513d601f19601f820116820180604052508101906109ee9190614223565b505b61085a565b60405162461bcd60e51b815260206004820152601a60248201527952656d61696e696e67206f726465727320746f20736574746c6560301b6044820152606401610814565b60008281526020819052604081205460ff1615610a915760405173455243313832305f4143434550545f4d4147494360601b6020820152603401604051602081830303815290604052805190602001209050610a95565b5060005b92915050565b6001600160a01b0381166000908152600860209081526040918290208054835181840281018401909452808452606093928301828280156107e157602002820191906000526020600020908154815260200190600101908083116108a25750505050509050919050565b600080610b118361213c565b91509150915091565b6000806000610b2884611fd9565b9250925092509193909250565b60005b8281101561085a57600060066000868685818110610b5857610b58614953565b60209081029290920135835250818101929092526040908101600090812080548252600390935220805491925090610b9a9033906001600160a01b0316611f15565b610bb65760405162461bcd60e51b815260040161081490614658565b610beb868685818110610bcb57610bcb614953565b604080516000815260208082019092529102929092013591905086612221565b50508080610bf8906148e2565b915050610b38565b600081815260066020526040902060016004820154610100900460ff166006811115610c2e57610c2e61493d565b1480610c57575060026004820154610100900460ff166006811115610c5557610c5561493d565b145b610cbb5760405162461bcd60e51b815260206004820152602f60248201527f4f6e6c792073756273637269626564206f722070616964206f7264657273206360448201526e185b8818994818d85b98d95b1b1959608a1b6064820152608401610814565b60028154610cc890612ad8565b6005811115610cd957610cd961493d565b10610d3a5760405162461bcd60e51b815260206004820152602b60248201527f4f72646572732063616e206f6e6c792062652063616e63656c6c65642062656660448201526a37b9329031baba16b7b33360a91b6064820152608401610814565b60018101546001600160a01b03163314610d5357600080fd5b60026004820154610100900460ff166006811115610d7357610d7361493d565b1415610d92576001810154610d929083906001600160a01b0316612bc6565b600401805461ff00191661050017905550565b6001600160a01b0381166000908152600c60209081526040918290208054835181840281018401909452808452606093928301828280156107e1576020028201919060005260206000209081546001600160a01b031681526001909101906020018083116107c35750505050509050919050565b84610e248133611d0c565b610e405760405162461bcd60e51b815260040161081490614702565b6001600160a01b03861660009081526001602090815260408083208884529091529020805460ff16610e845760405162461bcd60e51b815260040161081490614699565b831580610e8f575082155b610eab5760405162461bcd60e51b815260040161081490614739565b60058101805486919060ff191660018381811115610ecb57610ecb61493d565b0217905550600681019390935550600790910155505050565b600081815260066020526040902060018101546001600160a01b03163314610f0b57600080fd5b60408051600080825260208201909252610f2791849190612221565b5050565b60008281526006602090815260408083208054845260039092529091208054610f5e9033906001600160a01b0316611f15565b610f7a5760405162461bcd60e51b815260040161081490614658565b60408051600081526020810190915261085a90859085612221565b6000610a9582612ad8565b60005b8181101561105757600060066000858585818110610fc357610fc3614953565b602090810292909201358352508181019290925260409081016000908120805482526003909352208054919250906110059033906001600160a01b0316611f15565b6110215760405162461bcd60e51b815260040161081490614658565b61104285858581811061103657611036614953565b90506020020135612ed4565b5050808061104f906148e2565b915050610fa3565b505050565b600082815260066020526040902060016004820154610100900460ff16600681111561108a5761108a61493d565b14806110b3575060026004820154610100900460ff1660068111156110b1576110b161493d565b145b806110db575060066004820154610100900460ff1660068111156110d9576110d961493d565b145b61114d5760405162461bcd60e51b815260206004820152603e60248201527f4f726465722072656a656374696f6e2063616e206f6e6c792068616e646c656460448201527f20666f722073756273637269626564206f722070616964206f726465727300006064820152608401610814565b6003815461115a90612ad8565b600581111561116b5761116b61493d565b106111de5760405162461bcd60e51b815260206004820152603d60248201527f4f72646572732063616e206f6e6c792062652072656a6563746564206265666f60448201527f726520626567696e6e696e67206f66207061796d656e742070686173650000006064820152608401610814565b8054600090815260036020526040902080546112049033906001600160a01b0316611f15565b6112205760405162461bcd60e51b815260040161081490614658565b82156112835760026004830154610100900460ff1660068111156112465761124661493d565b14156112655760018201546112659085906001600160a01b0316612bc6565b6004820180546006919061ff001916610100835b021790555061085a565b50600401805461ff0019166101001790555050565b6000838152600360205260408120906112b085612ad8565b905060018160058111156112c6576112c661493d565b1180156112e4575060038160058111156112e2576112e261493d565b105b61134b5760405162461bcd60e51b815260206004820152603260248201527f417373657456616c75652063616e206f6e6c792062652073657420647572696e60448201527119c81d985b1d585d1a5bdb881c195c9a5bd960721b6064820152608401610814565b6000600683015460ff1660018111156113665761136661493d565b146113d35760405162461bcd60e51b815260206004820152603760248201527f41737365742076616c75652063616e206f6e6c792062652073657420666f7220604482015276309031bcb1b6329037b3103a3cb832903ab735b7b73bb760491b6064820152608401610814565b8315806113de575082155b6113fa5760405162461bcd60e51b815260040161081490614739565b815461140f906001600160a01b031633611d0c565b61142b5760405162461bcd60e51b815260040161081490614702565b50600781019290925560089091015550565b8a6114483382611f15565b6114645760405162461bcd60e51b815260040161081490614658565b6001600160a01b038c1660009081526001602090815260408083208e84529091529020428b10156114e95760405162461bcd60e51b815260206004820152602960248201527f4669727374206379636c652073746172742063616e206e6f74206265207072696044820152686f7220746f206e6f7760b81b6064820152608401610814565b89158015906114f757508815155b801561150257508715155b6115475760405162461bcd60e51b815260206004820152601660248201527514195c9a5bd91cc818d85b881b9bdd081899481b9a5b60521b6044820152606401610814565b805460ff16156115f25760018082018c9055600282018b905560038083018b9055600483018a90556008830180548a93919260ff19909116919084908111156115925761159261493d565b0217905550600881018054610100600160a81b0319166101006001600160a01b03898116919091029190911790915560098201869055600a820180549186166001600160a81b031990921691909117600160a01b851515021790556117cc565b604080516101a08101825260018152602081018d90529081018b9052606081018a90526080810189905260a081016000815260200160008152602001600081526020018860038111156116475761164761493d565b8152602001876001600160a01b03168152602001868152602001856001600160a01b03168152602001841515815250600160008f6001600160a01b03166001600160a01b0316815260200190815260200160002060008e815260200190815260200160002060008201518160000160006101000a81548160ff0219169083151502179055506020820151816001015560408201518160020155606082015181600301556080820151816004015560a08201518160050160006101000a81548160ff0219169083600181111561171e5761171e61493d565b021790555060c0820151600682015560e0820151600782015561010082015160088201805460ff1916600183600381111561175b5761175b61493d565b0217905550610120820151600882018054610100600160a81b0319166101006001600160a01b03938416021790556101408301516009830155610160830151600a909201805461018090940151929091166001600160a81b031990931692909217600160a01b911515919091021790555b50505050505050505050505050565b826117e63382611f15565b6118025760405162461bcd60e51b815260040161081490614658565b61085a8484848080602002602001604051908101604052809392919081815260200183836020028082843760009201919091525061326492505050565b600080858585604051602001611857939291906147d7565b60408051601f19818403018152600083526020830190915291506118849033908a908a90859088906133af565b98975050505050505050565b336001600160a01b03166118c8336040518060400160405280600c81526020016b22a921989a18182a37b5b2b760a11b81525061385d565b6001600160a01b0316146119035760405162461bcd60e51b8152602060048201526002602482015261353560f01b6044820152606401610814565b6001600160a01b03861630146119405760405162461bcd60e51b8152602060048201526002602482015261035360f41b6044820152606401610814565b6119b384848080601f01602080910402602001604051908101604052809392919081815260200183838082843760009201919091525050604080516020601f8801819004810282018101909252868152925086915085908190840183828082843760009201919091525061391a92505050565b6119e45760405162461bcd60e51b8152602060048201526002602482015261353760f01b6044820152606401610814565b6000611a2585858080601f0160208091040260200160405190810160405280939291908181526020018383808284376000920191909152506139ce92505050565b604080513360208201528082018d905260608082018a9052825180830390910181526080909101909152909150600080516020614a1d833981519152821415611b49576000611aa987878080601f0160208091040260200160405190810160405280939291908181526020018383808284376000920191909152506139d592505050565b90506000611aec88888080601f0160208091040260200160405190810160405280939291908181526020018383808284376000920191909152506139dc92505050565b90506000611b2f89898080601f0160208091040260200160405190810160405280939291908181526020018383808284376000920191909152506139e392505050565b9050611b408c8484846001896133af565b505050506117cc565b60008051602061499d8339815191528214156117cc576000611ba087878080601f0160208091040260200160405190810160405280939291908181526020018383808284376000920191909152506139d592505050565b60008181526006602052604090206001810154919250906001600160a01b038c8116911614611c1d5760405162461bcd60e51b8152602060048201526024808201527f5061796d656e742073656e646572206973206e6f74207468652073756273637260448201526334b132b960e11b6064820152608401610814565b611c2982846000612221565b505050505050505050505050505050565b6000611caf85858080601f01602080910402602001604051908101604052809392919081815260200183838082843760009201919091525050604080516020601f8901819004810282018101909252878152925087915086908190840183828082843760009201919091525061391a92505050565b9c9b505050505050505050505050565b600160008083604051602001611cd59190614436565b60408051808303601f19018152918152815160209283012083529082019290925201600020805460ff191691151591909117905550565b6001600160a01b038083166000908152600f6020908152604080832093851683529290529081205460ff1680611dc35750826001600160a01b0316638da5cb5b6040518163ffffffff1660e01b815260040160206040518083038186803b158015611d7657600080fd5b505afa158015611d8a573d6000803e3d6000fd5b505050506040513d601f19601f82011682018060405250810190611dae9190613f30565b6001600160a01b0316826001600160a01b0316145b9392505050565b60005b6001600160a01b0383166000908152600e6020526040902054811015611e6a576001600160a01b0383166000908152600f60209081526040808320600e9092528220805483919085908110611e2457611e24614953565b6000918252602080832091909101546001600160a01b031683528201929092526040019020805460ff191691151591909117905580611e62816148e2565b915050611dcd565b5060005b8151811015611eeb576001600160a01b0383166000908152600f60205260408120835160019290859085908110611ea757611ea7614953565b6020908102919091018101516001600160a01b03168252810191909152604001600020805460ff191691151591909117905580611ee3816148e2565b915050611e6e565b506001600160a01b0382166000908152600e60209081526040909120825161105792840190613df2565b6000816001600160a01b0316638da5cb5b6040518163ffffffff1660e01b815260040160206040518083038186803b158015611f5057600080fd5b505afa158015611f64573d6000803e3d6000fd5b505050506040513d601f19601f82011682018060405250810190611f889190613f30565b6001600160a01b0316836001600160a01b03161480611fcc57506001600160a01b038083166000908152600d602090815260408083209387168352929052205460ff165b15610a9157506001610a95565b60008060008060008060005b60008881526007602052604090205481101561212e576000888152600760205260408120805460069183918590811061202057612020614953565b9060005260206000200154815260200190815260200160002090506003600681111561204e5761204e61493d565b6004820154610100900460ff16600681111561206c5761206c61493d565b1415612089576003810154612082908690613a26565b945061211b565b600480820154610100900460ff1660068111156120a8576120a861493d565b14156120c55760038101546120be908590613a26565b935061211b565b60056004820154610100900460ff1660068111156120e5576120e561493d565b14158015612111575060066004820154610100900460ff16600681111561210e5761210e61493d565b14155b1561211b57600192505b5080612126816148e2565b915050611fe5565b509196909550909350915050565b6000818152600660209081526040808320805484526003909252822082919082806001600485015460ff1660028111156121785761217861493d565b14156121bb578360020154915082600701546000146121a85760078301546121a1908390613a32565b90506121bb565b60088301546121b8908390613a3e565b90505b6002600485015460ff1660028111156121d6576121d661493d565b1415612216575060038301546007830154156122035760078301546121fc908290613a3e565b9150612216565b6008830154612213908290613a32565b91505b969095509350505050565b600083815260066020908152604080832080548452600390925290912060016004830154610100900460ff16600681111561225e5761225e61493d565b14806122865750600480830154610100900460ff1660068111156122845761228461493d565b145b6122f25760405162461bcd60e51b815260206004820152603760248201527f4f72646572206973206e65697468657220696e207374617465205375627363726044820152761a5899590b081b9bdc88155b9c185a5914d95d1d1b1959604a1b6064820152608401610814565b600b810154600160a01b900460ff161561231e5760405162461bcd60e51b8152600401610814906146ce565b6000600682015460ff1660018111156123395761233961493d565b14156123bb576003825461234c90612ad8565b600581111561235d5761235d61493d565b10156123b65760405162461bcd60e51b815260206004820152603460248201526000805160206149dd8339815191526044820152731d195c881d985b1d585d1a5bdb881c195c9a5bd960621b6064820152608401610814565b61243d565b600182546123c890612ad8565b60058111156123d9576123d961493d565b101561243d576040805162461bcd60e51b81526020600482015260248101919091526000805160206149dd83398151915260448201527f746572207374617274206f6620737562736372697074696f6e20706572696f646064820152608401610814565b6001600483015460ff1660028111156124585761245861493d565b148061247c57506002600483015460ff16600281111561247a5761247a61493d565b145b6124bd5760405162461bcd60e51b8152602060048201526012602482015271496e76616c6964206f72646572207479706560701b6044820152606401610814565b6000806124c98761213c565b6003860182905560028601819055909250905084612a69576001600984015460ff1660038111156124fc576124fc61493d565b1415612584578034146125505760405162461bcd60e51b815260206004820152601c60248201527b105b5bdd5b9d081bd988115512081a5cc81b9bdd0818dbdc9c9958dd60221b6044820152606401610814565b82546001600160a01b031660009081526009602052604081208054839290612579908490614854565b90915550612a699050565b6002600984015460ff16600381111561259f5761259f61493d565b14156126795760098301546040516323b872dd60e01b8152336004820152306024820152604481018390526101009091046001600160a01b0316906323b872dd90606401602060405180830381600087803b1580156125fd57600080fd5b505af1158015612611573d6000803e3d6000fd5b505050506040513d601f19601f820116820180604052508101906126359190614206565b5082546001600160a01b039081166000908152600a602090815260408083206009880154610100900490941683529290529081208054839290612579908490614854565b6003600984015460ff1660038111156126945761269461493d565b1480156126a057508551155b156127ef578260090160019054906101000a90046001600160a01b03166001600160a01b0316638c0dee9c84600a01543330856000805160206149bd83398151915260001b6040516020016126f791815260200190565b60408051808303601f190181528282526000805160206149bd833981519152602084015291016040516020818303038152906040526040518763ffffffff1660e01b815260040161274d96959493929190614559565b602060405180830381600087803b15801561276757600080fd5b505af115801561277b573d6000803e3d6000fd5b505050506040513d601f19601f8201168201806040525081019061279f9190614223565b5082546001600160a01b039081166000908152600b60209081526040808320600988015461010090049094168352928152828220600a870154835290529081208054839290612579908490614854565b6003600984015460ff16600381111561280a5761280a61493d565b1480156128175750855115155b15612a12576000806000888060200190518101906128359190613f4d565b9250925092508381146128805760405162461bcd60e51b815260206004820152601360248201527277726f6e67207061796d656e742076616c756560681b6044820152606401610814565b600986015460ff1660038111156128995761289961493d565b6003146129005760405162461bcd60e51b815260206004820152602f60248201527f45524331343030207061796d656e74206973206e6f742061636365637074656460448201526e08199bdc881d1a1a5cc8185cdcd95d608a1b6064820152608401610814565b60098601546001600160a01b0384811661010090920416146129625760405162461bcd60e51b815260206004820152601b60248201527a77726f6e67207061796d656e7420746f6b656e206164647265737360281b6044820152606401610814565b85600a015482146129b55760405162461bcd60e51b815260206004820152601d60248201527f77726f6e67207061796d656e7420746f6b656e20706172746974696f6e0000006044820152606401610814565b85546001600160a01b039081166000908152600b6020908152604080832060098b015461010090049094168352928152828220600a8a0154835290529081208054869290612a04908490614854565b90915550612a699350505050565b60405162461bcd60e51b815260206004820152602660248201527f6f66662d636861696e207061796d656e74206e6565647320746f2062652062796044820152651c185cdcd95960d21b6064820152608401610814565b600480850154610100900460ff166006811115612a8857612a8861493d565b1415612abd57600b830154612aa79088906001600160a01b0316612bc6565b60048401805461ff001916610300179055612acf565b60048401805461ff0019166102001790555b50505050505050565b60008181526003602052604081206002810154421080612afa57506002810154155b15612b085750600092915050565b80600301548160020154612b1c9190614854565b421015612b2c5750600192915050565b806004015481600301548260020154612b459190614854565b612b4f9190614854565b421015612b5f5750600292915050565b8060050154816004015482600301548360020154612b7d9190614854565b612b879190614854565b612b919190614854565b421015612ba15750600392915050565b600b810154600160a01b900460ff16612bbd5750600492915050565b50600592915050565b60008281526006602090815260408083208054845260039092529091206001600982015460ff166003811115612bfe57612bfe61493d565b1415612c7b57600282015460405184916001600160a01b0383169181156108fc0291906000818181858888f19350505050158015612c40573d6000803e3d6000fd5b50600283015482546001600160a01b031660009081526009602052604081208054909190612c6f90849061489f565b9091555061085a915050565b6002600982015460ff166003811115612c9657612c9661493d565b1415612d7e576009810154600283015460405163a9059cbb60e01b81526101009092046001600160a01b03169163a9059cbb91612cd891879190600401614452565b602060405180830381600087803b158015612cf257600080fd5b505af1158015612d06573d6000803e3d6000fd5b505050506040513d601f19601f82011682018060405250810190612d2a9190614206565b50600282015481546001600160a01b039081166000908152600a602090815260408083206009870154610100900490941683529290529081208054909190612d7390849061489f565b9091555061085a9050565b6003600982015460ff166003811115612d9957612d9961493d565b141561085a578060090160019054906101000a90046001600160a01b03166001600160a01b031663f3d490db82600a01548585600201546000805160206149bd83398151915260001b604051602001612df491815260200190565b6040516020818303038152906040526040518563ffffffff1660e01b8152600401612e2294939291906145b1565b602060405180830381600087803b158015612e3c57600080fd5b505af1158015612e50573d6000803e3d6000fd5b505050506040513d601f19601f82011682018060405250810190612e749190614223565b50600282015481546001600160a01b039081166000908152600b60209081526040808320600987015461010090049094168352928152828220600a860154835290529081208054909190612ec990849061489f565b909155505050505050565b6000818152600660205260408120906004820154610100900460ff166006811115612f0157612f0161493d565b11612f435760405162461bcd60e51b815260206004820152601260248201527113dc99195c88191bd95cdb9d08195e1a5cdd60721b6044820152606401610814565b6000612f528260000154612ad8565b82546000908152600360205260408120919250600682015460ff166001811115612f7e57612f7e61493d565b1415612fff576004826005811115612f9857612f9861493d565b1015612ffa5760405162461bcd60e51b815260206004820152603f60248201526000805160206149fd83398151915260448201527f666f726d656420647572696e6720736574746c656d656e7420706572696f64006064820152608401610814565b613070565b60028260058111156130135761301361493d565b10156130705760405162461bcd60e51b815260206004820152603860248201526000805160206149fd8339815191526044820152773337b936b2b21030b33a32b9103a34329031baba16b7b33360411b6064820152608401610814565b600b8101546130899085906001600160a01b0316612bc6565b60026004840154610100900460ff1660068111156130a9576130a961493d565b14156131395780546001808301549085015460038601546040516367c8491960e01b81526001600160a01b03948516946367c84919946130f09490939116916004016145e8565b600060405180830381600087803b15801561310a57600080fd5b505af115801561311e573d6000803e3d6000fd5b5050506004840180546003925061ff00191661010083611279565b60016004840154610100900460ff1660068111156131595761315961493d565b14156131e2578054600182015460038501546040516367c8491960e01b81526001600160a01b03909316926367c849199261319b9290913091906004016145e8565b600060405180830381600087803b1580156131b557600080fd5b505af11580156131c9573d6000803e3d6000fd5b505050506004838101805461ff00191661010083611279565b60405162461bcd60e51b815260206004820152604b60248201527f496d706f737369626c6520746f20736574746c6520616e206f7264657220746860448201527f6174206973206e65697468657220696e20737461746520506169642c206e6f7260648201526a0814dd589cd8dc9a58995960aa1b608482015260a401610814565b60005b6001600160a01b0383166000908152600c6020526040902054811015613304576001600160a01b0383166000908152600d60209081526040808320600c90925282208054839190859081106132be576132be614953565b6000918252602080832091909101546001600160a01b031683528201929092526040019020805460ff1916911515919091179055806132fc816148e2565b915050613267565b5060005b8151811015613385576001600160a01b0383166000908152600d6020526040812083516001929085908590811061334157613341614953565b6020908102919091018101516001600160a01b03168252810191909152604001600020805460ff19169115159190911790558061337d816148e2565b915050613308565b506001600160a01b0382166000908152600c60209081526040909120825161105792840190613df2565b6001600160a01b0385166000908152600460209081526040808320878452909152812054816133dd82612ad8565b905060018160058111156133f3576133f361493d565b14613405576134028888613a4a565b91505b600161341083612ad8565b60058111156134215761342161493d565b146134945760405162461bcd60e51b815260206004820152603d60248201527f537562736372697074696f6e2063616e206f6e6c7920626520706572666f726d60448201527f656420647572696e6720737562736372697074696f6e20706572696f640000006064820152608401610814565b6000806000888060200190518101906134ad919061438c565b92509250925082600014806134c0575081155b61352f5760405162461bcd60e51b815260206004820152603a60248201527f4f726465722063616e206e6f74206265206f66207479706520616d6f756e7420604482015279616e642076616c7565206174207468652073616d652074696d6560301b6064820152608401610814565b60018160028111156135435761354361493d565b141561359a57826135955760405162461bcd60e51b815260206004820152601c60248201527b13dc99195c881d985b1d59481cda185b1b081b9bdd081899481b9a5b60221b6044820152606401610814565b613658565b60028160028111156135ae576135ae61493d565b141561360157816135955760405162461bcd60e51b815260206004820152601d60248201527f4f7264657220616d6f756e74207368616c6c206e6f74206265206e696c0000006044820152606401610814565b60405162461bcd60e51b815260206004820152602660248201527f4f726465722074797065206e6565647320746f2062652076616c7565206f7220604482015265185b5bdd5b9d60d21b6064820152608401610814565b60058054906000613668836148e2565b91905055506040518060c001604052808681526020018d6001600160a01b031681526020018481526020018381526020018260028111156136ab576136ab61493d565b815260016020918201819052600554600090815260068352604090819020845181559284015183830180546001600160a01b0319166001600160a01b039092169190911790558301516002808401919091556060840151600384015560808401516004840180549193909260ff1990921691849081111561372e5761372e61493d565b021790555060a082015160048201805461ff0019166101008360068111156137585761375861493d565b0217905550905050600760008681526020019081526020016000206005549080600181540180825580915050600190039060005260206000200160009091909190915055600860008d6001600160a01b03166001600160a01b03168152602001908152602001600020600554908060018154018082558091505060019003906000526020600020016000909190919091505560006003600087815260200190815260200160002090506001808111156138135761381361493d565b600682015460ff16600181111561382c5761382c61493d565b1480156138365750885b1561384957613849600554896000612221565b50506005549b9a5050505050505050505050565b600080826040516020016138719190614436565b60408051601f1981840301815290829052805160209091012063555ddc6560e11b82529150731820a4b7618bde71dce8cdc73aab6c95905fad249063aabbb8ca906138c29087908590600401614452565b60206040518083038186803b1580156138da57600080fd5b505afa1580156138ee573d6000803e3d6000fd5b505050506040513d601f19601f820116820180604052508101906139129190613f30565b949350505050565b600081516000141561392e57506000610a95565b600061393b846020015190565b9050835160c014801561395b5750600080516020614a1d83398151915281145b1561396a576001915050610a95565b83516040148015613988575060008051602061499d83398151915281145b15613997576001915050610a95565b835160201480156139b557506000805160206149bd83398151915281145b156139c4576001915050610a95565b6000915050610a95565b6020015190565b6040015190565b6060015190565b608081015160a082015160c0830151604051606093929190613a0d908490849084906020016147d7565b6040516020818303038152906040529350505050919050565b6000611dc38284614854565b6000611dc3828461486c565b6000611dc38284614880565b6001600160a01b03821660009081526001602090815260408083208484529091528120805460ff16613a8e5760405162461bcd60e51b815260040161081490614699565b600a810154600160a01b900460ff16613af95760405162461bcd60e51b815260206004820152602760248201527f537562736372697074696f6e73206e6f74206f70656e656420666f72207468696044820152661cc8185cdcd95d60ca1b6064820152608401610814565b6001600160a01b038416600090815260046020908152604080832086845282528083205480845260039092528220600281015491929091613b3e578360010154613b44565b81600201545b600254909150613b55906001613a26565b600281905550604051806101c00160405280886001600160a01b03168152602001878152602001613b8a838760020154613da5565b8152600286015460208201526003860154604082015260048601546060820152600586015460809091019060ff166001811115613bc957613bc961493d565b81526006860154602082015260078601546040820152600886015460609091019060ff166003811115613bfe57613bfe61493d565b8152600886015461010090046001600160a01b039081166020808401919091526009880154604080850191909152600a890154831660608086019190915260006080958601819052600280548252600380865291849020885181546001600160a01b03191697169690961786559387015160018087019190915592870151938501939093558501519183019190915591830151600482015560a0830151600582015560c083015160068201805492939192909160ff19909116908381811115613cc957613cc961493d565b021790555060e08201516007820155610100820151600882015561012082015160098201805460ff19166001836003811115613d0757613d0761493d565b02179055506101408201516009820180546001600160a01b0392831661010002610100600160a81b0319909116179055610160830151600a830155610180830151600b90920180546101a0909401511515600160a01b026001600160a81b03199094169282169290921792909217905560025490881660009081526004602090815260408083208a8452909152902081905594505050505092915050565b6000428310613db5575081610a95565b613dd3613dcc83613dc6864261489f565b90613dda565b4290613de6565b9050610a95565b6000611dc382846148fd565b6000611dc3828461489f565b828054828255906000526020600020908101928215613e47579160200282015b82811115613e4757825182546001600160a01b0319166001600160a01b03909116178255602090920191600190910190613e12565b50613e53929150613e57565b5090565b5b80821115613e535760008155600101613e58565b8035613e7781614969565b919050565b60008083601f840112613e8e57600080fd5b5081356001600160401b03811115613ea557600080fd5b6020830191508360208260051b8501011115613ec057600080fd5b9250929050565b8035613e7781614981565b60008083601f840112613ee457600080fd5b5081356001600160401b03811115613efb57600080fd5b602083019150836020828501011115613ec057600080fd5b600060208284031215613f2557600080fd5b8135611dc381614969565b600060208284031215613f4257600080fd5b8151611dc381614969565b600080600060608486031215613f6257600080fd5b8351613f6d81614969565b602085015160409095015190969495509392505050565b600080600060408486031215613f9957600080fd5b8335613fa481614969565b925060208401356001600160401b03811115613fbf57600080fd5b613fcb86828701613e7c565b9497909650939450505050565b60008060408385031215613feb57600080fd5b8235613ff681614969565b946020939093013593505050565b600080600080600060a0868803121561401c57600080fd5b853561402781614969565b94506020860135935060408601356002811061404257600080fd5b94979396509394606081013594506080013592915050565b60008060008060008060c0878903121561407357600080fd5b863561407e81614969565b955060208701359450604087013593506060870135925060808701356140a38161498f565b915060a08701356140b381614981565b809150509295509295509295565b60008060008060008060008060008060006101608c8e0312156140e357600080fd5b8b356140ee81614969565b9a5060208c0135995060408c0135985060608c0135975060808c0135965060a08c0135955060c08c01356004811061412557600080fd5b945060e08c013561413581614969565b93506101008c013592506101208c013561414e81614969565b915061415d6101408d01613ec7565b90509295989b509295989b9093969950565b6000806020838503121561418257600080fd5b82356001600160401b0381111561419857600080fd5b6141a485828601613e7c565b90969095509350505050565b6000806000604084860312156141c557600080fd5b83356001600160401b038111156141db57600080fd5b6141e786828701613e7c565b90945092505060208401356141fb81614981565b809150509250925092565b60006020828403121561421857600080fd5b8151611dc381614981565b60006020828403121561423557600080fd5b5051919050565b6000806040838503121561424f57600080fd5b82359150602083013561426181614969565b809150509250929050565b60008060008060008060008060008060006101008c8e03121561428e57600080fd5b6001600160401b038c358110156142a457600080fd5b6142b18e8e358f01613ed2565b909c509a5060208d013599506142c960408e01613e6c565b98506142d760608e01613e6c565b97506142e560808e01613e6c565b965060a08d013595508060c08e013511156142ff57600080fd5b61430f8e60c08f01358f01613ed2565b909550935060e08d013581101561432557600080fd5b506143368d60e08e01358e01613ed2565b81935080925050509295989b509295989b9093969950565b60006020828403121561436057600080fd5b5035919050565b6000806040838503121561437a57600080fd5b82359150602083013561426181614981565b6000806000606084860312156143a157600080fd5b835192506020840151915060408401516141fb8161498f565b6000806000606084860312156143cf57600080fd5b505081359360208301359350604090920135919050565b600081518084526143fe8160208601602086016148b6565b601f01601f19169290920160200192915050565b600381106144225761442261493d565b9052565b600481106144225761442261493d565b600082516144488184602087016148b6565b9190910192915050565b6001600160a01b03929092168252602082015260400190565b6001600160a01b038b81168252602082018b9052604082018a9052606082018990526080820188905260a082018790526101408201906144ae60c0840188614426565b9490941660e0820152610100810192909252151561012090910152979650505050505050565b6020808252825182820181905260009190848201906040850190845b818110156145155783516001600160a01b0316835292840192918401916001016144f0565b50909695505050505050565b6020808252825182820181905260009190848201906040850190845b818110156145155783518352928401929184019160010161453d565b8681526001600160a01b038681166020830152851660408201526060810184905260c060808201819052600090614592908301856143e6565b82810360a08401526145a481856143e6565b9998505050505050505050565b84815260018060a01b03841660208201528260408201526080606082015260006145de60808301846143e6565b9695505050505050565b9283526001600160a01b03919091166020830152604082015260806060820181905260009082015260a00190565b606081016002851061462a5761462a61493d565b938152602081019290925260409091015290565b60208101600683106146525761465261493d565b91905290565b60208082526021908201527f53656e646572206973206e6f74206120746f6b656e20636f6e74726f6c6c65726040820152601760f91b606082015260800190565b6020808252818101527f52756c6573206e6f7420646566696e656420666f722074686973206173736574604082015260600190565b6020808252601a908201527910de58db19481a5cc8185b1c9958591e48199a5b985b1a5e995960321b604082015260600190565b6020808252601d908201527f53656e646572206973206e6f742061207072696365206f7261636c652e000000604082015260600190565b6020808252602c908201527f41737365742076616c75652063616e206f6e6c792062652073657420696e206f60408201526b3732903234b932b1ba34b7b760a11b606082015260800190565b8681526001600160a01b0386166020820152604081018590526060810184905260c081016147b66080830185614412565b600783106147c6576147c661493d565b8260a0830152979650505050505050565b83815260208101839052606081016139126040830184614412565b6000610120820190508a825289602083015288604083015287606083015261481d6080830188614426565b6001600160a01b0395861660a083015260c08201949094529190931660e08201529115156101009092019190915295945050505050565b6000821982111561486757614867614911565b500190565b60008261487b5761487b614927565b500490565b600081600019048311821515161561489a5761489a614911565b500290565b6000828210156148b1576148b1614911565b500390565b60005b838110156148d15781810151838201526020016148b9565b8381111561085a5750506000910152565b60006000198214156148f6576148f6614911565b5060010190565b60008261490c5761490c614927565b500690565b634e487b7160e01b600052601160045260246000fd5b634e487b7160e01b600052601260045260246000fd5b634e487b7160e01b600052602160045260246000fd5b634e487b7160e01b600052603260045260246000fd5b6001600160a01b038116811461497e57600080fd5b50565b801515811461497e57600080fd5b6003811061497e57600080fdfeddddddddddddddddddddddddddddddddddddddddddddddddddddddddddddddddaaaaaaaaaaaaaaaaaaaaaaaaaaaaaaaaaaaaaaaaaaaaaaaaaaaaaaaaaaaaaaaa5061796d656e742063616e206f6e6c7920626520706572666f726d65642061664f7264657220736574746c656d656e742063616e206f6e6c7920626520706572cccccccccccccccccccccccccccccccccccccccccccccccccccccccccccccccca2646970667358221220db9e40b4692b7660321d36a6cd6ff7d22cb3161e3ec268ce0c2573c695453aaf64736f6c63430008070033",
  "immutableReferences": {},
  "source": "// SPDX-License-Identifier: Apache-2.0\n/*\n * This code has not been reviewed.\n * Do not use or deploy this code before reviewing it personally first.\n */\npragma solidity ^0.8.0;\n\nimport \"@openzeppelin/contracts/utils/math/SafeMath.sol\";\nimport \"@openzeppelin/contracts/token/ERC20/ERC20.sol\";\nimport \"@openzeppelin/contracts/token/ERC721/ERC721.sol\";\n\nimport \"./ERC1820Client.sol\";\nimport \"../interface/ERC1820Implementer.sol\";\n\nimport \"../extensions/userExtensions/IERC1400TokensRecipient.sol\";\nimport \"../ERC1400.sol\";\n\n/**\n ***************************************************************************************************************\n **************************************** CAUTION: work in progress ********************************************\n ***************************************************************************************************************\n *\n * CAUTION: This contract is a work in progress, tests are not finalized yet!\n *\n ***************************************************************************************************************\n **************************************** CAUTION: work in progress ********************************************\n ***************************************************************************************************************\n */\n\n\n/**\n * @title FundIssuer\n * @dev Fund issuance contract.\n * @dev Intended usage:\n * The purpose of the contract is to perform a fund issuance.\n *\n */\ncontract FundIssuer is ERC1820Client, IERC1400TokensRecipient, ERC1820Implementer {\n  using SafeMath for uint256;\n\n  bytes32 constant internal ORDER_SUBSCRIPTION_FLAG = 0xcccccccccccccccccccccccccccccccccccccccccccccccccccccccccccccccc;\n  bytes32 constant internal ORDER_PAYMENT_FLAG = 0xdddddddddddddddddddddddddddddddddddddddddddddddddddddddddddddddd;\n\n  bytes32 constant internal BYPASS_ACTION_FLAG = 0xaaaaaaaaaaaaaaaaaaaaaaaaaaaaaaaaaaaaaaaaaaaaaaaaaaaaaaaaaaaaaaaa;\n\n  string constant internal FUND_ISSUER = \"FundIssuer\";\n  string constant internal ERC1400_TOKENS_RECIPIENT = \"ERC1400TokensRecipient\";\n\n  enum CycleState {Undefined, Subscription, Valuation, Payment, Settlement, Finalized}\n\n  enum OrderState {Undefined, Subscribed, Paid, PaidSettled, UnpaidSettled, Cancelled, Rejected}\n\n  enum OrderType {Undefined, Value, Amount}\n\n  enum Payment {OffChain, ETH, ERC20, ERC1400}\n\n  enum AssetValue {Unknown, Known}\n\n  struct AssetRules {\n    bool defined;\n    uint256 firstStartTime;\n    uint256 subscriptionPeriodLength;\n    uint256 valuationPeriodLength;\n    uint256 paymentPeriodLength;\n    AssetValue assetValueType;\n    uint256 assetValue;\n    uint256 reverseAssetValue;\n    Payment paymentType;\n    address paymentAddress;\n    bytes32 paymentPartition;\n    address fundAddress;\n    bool subscriptionsOpened;\n  }\n  \n  struct Cycle {\n    address assetAddress;\n    bytes32 assetClass;\n    uint256 startTime;\n    uint256 subscriptionPeriodLength;\n    uint256 valuationPeriodLength;\n    uint256 paymentPeriodLength;\n    AssetValue assetValueType;\n    uint256 assetValue;\n    uint256 reverseAssetValue;\n    Payment paymentType;\n    address paymentAddress;\n    bytes32 paymentPartition;\n    address fundAddress;\n    bool finalized;\n  }\n\n  struct Order {\n    uint256 cycleIndex;\n    address investor;\n    uint256 value;\n    uint256 amount;\n    OrderType orderType;\n    OrderState state;\n  }\n\n  // Mapping from (assetAddress, assetClass) to asset rules.\n  mapping(address => mapping(bytes32 => AssetRules)) internal _assetRules;\n\n  // Index of most recent cycle.\n  uint256 internal _cycleIndex;\n\n  // Mapping from cycle index to cycle.\n  mapping(uint256 => Cycle) internal _cycles;\n\n  // Mapping from (assetAddress, assetClass) to most recent cycle.\n  mapping(address => mapping (bytes32 => uint256)) internal _lastCycleIndex;\n\n  // Index of most recent order.\n  uint256 internal _orderIndex;\n\n  // Mapping from order index to order.\n  mapping(uint256 => Order) internal _orders;\n\n  // Mapping from cycle index to order list.\n  mapping(uint256 => uint256[]) internal _cycleOrders;\n\n  // Mapping from investor address to order list.\n  mapping(address => uint256[]) internal _investorOrders;\n\n  // Mapping from assetAddress to amount of escrowed ETH.\n  mapping(address => uint256) internal _escrowedEth;\n\n  // Mapping from (assetAddress, paymentAddress) to amount of escrowed ERC20.\n  mapping(address => mapping (address => uint256)) internal _escrowedErc20;\n\n  // Mapping from (assetAddress, paymentAddress, paymentPartition) to amount of escrowed ERC1400.\n  mapping(address => mapping (address => mapping (bytes32 => uint256))) internal _escrowedErc1400;\n\n  // Mapping from token to token controllers.\n  mapping(address => address[]) internal _tokenControllers;\n\n  // Mapping from (token, operator) to token controller status.\n  mapping(address => mapping(address => bool)) internal _isTokenController;\n\n  // Mapping from token to price oracles.\n  mapping(address => address[]) internal _priceOracles;\n\n  // Mapping from (token, operator) to price oracle status.\n  mapping(address => mapping(address => bool)) internal _isPriceOracle;\n\n  /**\n   * @dev Modifier to verify if sender is a token controller.\n   */\n  modifier onlyTokenController(address tokenAddress) {\n    require(_tokenController(msg.sender, tokenAddress),\n      \"Sender is not a token controller.\"\n    );\n    _;\n  }\n\n  /**\n   * @dev Modifier to verify if sender is a price oracle.\n   */\n  modifier onlyPriceOracle(address assetAddress) {\n    require(_checkPriceOracle(assetAddress, msg.sender), \"Sender is not a price oracle.\");\n    _;\n  }\n\n  /**\n   * [Swaps CONSTRUCTOR]\n   * @dev Initialize Fund issuance contract + register\n   * the contract implementation in ERC1820Registry.\n   */\n  constructor() {\n    ERC1820Implementer._setInterface(FUND_ISSUER);\n    ERC1820Implementer._setInterface(ERC1400_TOKENS_RECIPIENT);\n    setInterfaceImplementation(ERC1400_TOKENS_RECIPIENT, address(this));\n  }\n\n /**\n   * [ERC1400TokensRecipient INTERFACE (1/2)]\n   * @dev Indicate whether or not the fund issuance contract can receive the tokens or not. [USED FOR ERC1400 TOKENS ONLY]\n   * @param data Information attached to the token transfer.\n   * @param operatorData Information attached to the Swaps transfer, by the operator.\n   * @return 'true' if the Swaps contract can receive the tokens, 'false' if not.\n   */\n  function canReceive(bytes calldata, bytes32, address, address, address, uint, bytes calldata  data, bytes calldata operatorData) external override pure returns(bool) {\n    return(_canReceive(data, operatorData));\n  }\n\n  /**\n   * [ERC1400TokensRecipient INTERFACE (2/2)]\n   * @dev Hook function executed when tokens are sent to the fund issuance contract. [USED FOR ERC1400 TOKENS ONLY]\n   * @param partition Name of the partition.\n   * @param from Token holder.\n   * @param to Token recipient.\n   * @param value Number of tokens to transfer.\n   * @param data Information attached to the token transfer.\n   * @param operatorData Information attached to the Swaps transfer, by the operator.\n   */\n  function tokensReceived(bytes calldata, bytes32 partition, address, address from, address to, uint value, bytes calldata data, bytes calldata operatorData) external override {\n    require(interfaceAddr(msg.sender, \"ERC1400Token\") == msg.sender, \"55\"); // 0x55 funds locked (lockup period)\n\n    require(to == address(this), \"50\"); // 0x50\ttransfer failure\n    require(_canReceive(data, operatorData), \"57\"); // 0x57\tinvalid receiver\n\n    bytes32 flag = _getTransferFlag(data);\n    bytes memory erc1400TokenData = abi.encode(msg.sender, partition, value);\n\n    if (flag == ORDER_SUBSCRIPTION_FLAG) {\n\n      address assetAddress = _getAssetAddress(data);\n      bytes32 assetClass = _getAssetClass(data);\n      bytes memory orderData = _getOrderData(data);\n\n      _subscribe(\n        from,\n        assetAddress,\n        assetClass,\n        orderData,\n        true,\n        erc1400TokenData\n      );\n\n    } else if (flag == ORDER_PAYMENT_FLAG) {\n      uint256 orderIndex = _getOrderIndex(data);\n      Order storage order = _orders[orderIndex];\n      require(from == order.investor, \"Payment sender is not the subscriber\");\n\n      _executePayment(orderIndex, erc1400TokenData, false);         \n    }\n  }\n\n\n  /**\n   * @dev Start a new subscription for a given asset in the fund issuance smart contract.\n   * @param assetAddress Address of the token representing the asset.\n   * @param assetClass Asset class.\n   * @param subscriptionPeriodLength Length of subscription period.\n   * @param valuationPeriodLength Length of valuation period.\n   * @param paymentPeriodLength Length of payment period.\n   * @param paymentType Type of payment (OFFCHAIN |ERC20 | ERC1400).\n   * @param paymentAddress Address of the payment token (only used id paymentType <> OFFCHAIN).\n   * @param paymentPartition Partition of the payment token (only used if paymentType is ERC1400).\n   * @param subscriptionsOpened Set 'true' if subscriptions are opened, 'false' if not.\n   */\n  function setAssetRules(\n    address assetAddress,\n    bytes32 assetClass,\n    uint256 firstStartTime,\n    uint256 subscriptionPeriodLength,\n    uint256 valuationPeriodLength,\n    uint256 paymentPeriodLength,\n    Payment paymentType,\n    address paymentAddress,\n    bytes32 paymentPartition,\n    address fundAddress,\n    bool subscriptionsOpened\n  )\n    external\n    onlyTokenController(assetAddress)\n  {\n    AssetRules storage rules = _assetRules[assetAddress][assetClass];\n\n    require(firstStartTime >= block.timestamp, \"First cycle start can not be prior to now\");\n\n    require(subscriptionPeriodLength != 0 && valuationPeriodLength != 0 && paymentPeriodLength != 0, \"Periods can not be nil\");\n\n    if(rules.defined) {\n      rules.firstStartTime = firstStartTime;\n      rules.subscriptionPeriodLength = subscriptionPeriodLength;\n      rules.valuationPeriodLength = valuationPeriodLength;\n      rules.paymentPeriodLength = paymentPeriodLength;\n      // rules.assetValueType = assetValueType; // Can only be modified by the price oracle\n      // rules.assetValue = assetValue; // Can only be modified by the price oracle\n      // rules.reverseAssetValue = reverseAssetValue; // Can only be modified by the price oracle\n      rules.paymentType = paymentType;\n      rules.paymentAddress = paymentAddress;\n      rules.paymentPartition = paymentPartition;\n      rules.fundAddress = fundAddress;\n      rules.subscriptionsOpened = subscriptionsOpened;\n    } else {\n\n      _assetRules[assetAddress][assetClass] = AssetRules({\n        defined: true,\n        firstStartTime: firstStartTime,\n        subscriptionPeriodLength: subscriptionPeriodLength,\n        valuationPeriodLength: valuationPeriodLength,\n        paymentPeriodLength: paymentPeriodLength,\n        assetValueType: AssetValue.Unknown,\n        assetValue: 0,\n        reverseAssetValue: 0,\n        paymentType: paymentType,\n        paymentAddress: paymentAddress,\n        paymentPartition: paymentPartition,\n        fundAddress: fundAddress,\n        subscriptionsOpened: subscriptionsOpened\n      });\n    }\n\n  }\n\n  /**\n   * @dev Set asset value rules for a given asset.\n   * @param assetAddress Address of the token representing the asset.\n   * @param assetClass Asset class.\n   * @param assetValueType Asset value type.\n   * @param assetValue Asset value.\n   * @param reverseAssetValue Reverse asset value.\n   */\n  function setAssetValueRules(\n    address assetAddress,\n    bytes32 assetClass,\n    AssetValue assetValueType,\n    uint256 assetValue,\n    uint256 reverseAssetValue\n  )\n    external\n    onlyPriceOracle(assetAddress)\n  {\n    AssetRules storage rules = _assetRules[assetAddress][assetClass];\n\n    require(rules.defined, \"Rules not defined for this asset\");\n\n    require(assetValue == 0 || reverseAssetValue == 0, \"Asset value can only be set in one direction\");\n\n    rules.assetValueType = assetValueType;\n    rules.assetValue = assetValue;\n    rules.reverseAssetValue = reverseAssetValue;\n  }\n\n  /**\n   * @dev Start a new subscription for a given asset in the fund issuance smart contract.\n   * @param assetAddress Address of the token representing the asset.\n   * @param assetClass Asset class.\n   * @return Index of new cycle.\n   */\n  function _startNewCycle(\n    address assetAddress,\n    bytes32 assetClass\n  )\n    internal\n    returns(uint256)\n  {\n    AssetRules storage rules = _assetRules[assetAddress][assetClass];\n    require(rules.defined, \"Rules not defined for this asset\");\n    require(rules.subscriptionsOpened, \"Subscriptions not opened for this asset\");\n\n    uint256 lastCycleIndex = _lastCycleIndex[assetAddress][assetClass];\n    Cycle storage lastCycle = _cycles[lastCycleIndex];\n    uint256 previousStartTime = (lastCycle.startTime != 0) ? lastCycle.startTime : rules.firstStartTime;\n\n    _cycleIndex = _cycleIndex.add(1);\n\n    _cycles[_cycleIndex] = Cycle({\n      assetAddress: assetAddress,\n      assetClass: assetClass,\n      startTime: _getNextStartTime(previousStartTime, rules.subscriptionPeriodLength),\n      subscriptionPeriodLength: rules.subscriptionPeriodLength,\n      valuationPeriodLength: rules.valuationPeriodLength,\n      paymentPeriodLength: rules.paymentPeriodLength,\n      assetValueType: rules.assetValueType,\n      assetValue: rules.assetValue,\n      reverseAssetValue: rules.reverseAssetValue,\n      paymentType: rules.paymentType,\n      paymentAddress: rules.paymentAddress,\n      paymentPartition: rules.paymentPartition,\n      fundAddress: rules.fundAddress,\n      finalized: false\n    });\n\n    _lastCycleIndex[assetAddress][assetClass] = _cycleIndex;\n\n    return _cycleIndex;\n  }\n\n  /**\n   * @dev Returns time of next cycle start.\n   * @param previousStartTime Previous start time.\n   * @param subscriptionPeriod Time between subscription period start and cut-off.\n   * @return Time of next cycle start.\n   */\n  function _getNextStartTime(uint256 previousStartTime, uint256 subscriptionPeriod) internal view returns(uint256) {\n    if(previousStartTime >= block.timestamp) {\n      return previousStartTime;\n    } else {\n      return block.timestamp.sub((block.timestamp - previousStartTime).mod(subscriptionPeriod));\n    }\n  }\n\n  /**\n   * @dev Subscribe for a given asset, by creating an order.\n   * @param assetAddress Address of the token representing the asset.\n   * @param assetClass Asset class.\n   * @param orderValue Value of assets to purchase (used in case order type is 'value').\n   * @param orderAmount Amount of assets to purchase (used in case order type is 'amount').\n   * @param orderType Order type (value |amount).\n   */\n  function subscribe(\n    address assetAddress,\n    bytes32 assetClass,\n    uint256 orderValue,\n    uint256 orderAmount,\n    OrderType orderType,\n    bool executePaymentAtSubscription\n  )\n    external\n    payable\n    returns(uint256)\n  {\n    bytes memory orderData = abi.encode(orderValue, orderAmount, orderType);\n\n    return _subscribe(\n      msg.sender,\n      assetAddress,\n      assetClass,\n      orderData,\n      executePaymentAtSubscription,\n      new bytes(0)\n    );\n  }\n  \n  /**\n   * @dev Subscribe for a given asset, by creating an order.\n   * @param assetAddress Address of the token representing the asset.\n   * @param assetClass Asset class.\n   * @param orderData Encoded pack of variables for order (orderValue, orderAmount, orderType).\n   * @param executePaymentAtSubscription 'true' if payment shall be executed at subscription, 'false' if not.\n   * @param erc1400TokenData Encoded pack of variables for erc1400 token (paymentAddress, paymentPartition, paymentValue).\n   */\n  function _subscribe(\n    address investor,\n    address assetAddress,\n    bytes32 assetClass,\n    bytes memory orderData,\n    bool executePaymentAtSubscription,\n    bytes memory erc1400TokenData\n  )\n    internal\n    returns(uint256)\n  {\n    uint256 lastIndex = _lastCycleIndex[assetAddress][assetClass];\n    CycleState currentState = _getCycleState(lastIndex);\n\n    if(currentState != CycleState.Subscription) {\n      lastIndex = _startNewCycle(assetAddress, assetClass);\n    }\n\n    require(_getCycleState(lastIndex) == CycleState.Subscription, \"Subscription can only be performed during subscription period\");\n\n    (uint256 value, uint256 amount, OrderType orderType) = abi.decode(orderData, (uint256, uint256, OrderType));\n\n    require(value == 0 || amount == 0, \"Order can not be of type amount and value at the same time\");\n\n    if(orderType == OrderType.Value) {\n      require(value != 0, \"Order value shall not be nil\");\n    } else if(orderType == OrderType.Amount) {\n      require(amount != 0, \"Order amount shall not be nil\");\n    } else {\n      revert(\"Order type needs to be value or amount\");\n    }\n\n    _orderIndex++;\n\n    _orders[_orderIndex] = Order({\n      cycleIndex: lastIndex,\n      investor: investor,\n      value: value,\n      amount: amount,\n      orderType: orderType,\n      state: OrderState.Subscribed\n    });\n\n    _cycleOrders[lastIndex].push(_orderIndex);\n\n    _investorOrders[investor].push(_orderIndex);\n\n    Cycle storage cycle = _cycles[lastIndex];\n    if(cycle.assetValueType == AssetValue.Known && executePaymentAtSubscription) {\n      _executePayment(_orderIndex, erc1400TokenData, false);\n    }\n\n    return _orderIndex;\n  }\n\n  /**\n   * @dev Cancel an order.\n   * @param orderIndex Index of the order to cancel.\n   */\n  function cancelOrder(uint256 orderIndex) external {\n    Order storage order = _orders[orderIndex];\n\n    require(\n      order.state == OrderState.Subscribed ||\n      order.state == OrderState.Paid,\n      \"Only subscribed or paid orders can be cancelled\"\n    ); // This also checks if the order exists. Otherwise, we would have \"order.state == OrderState.Undefined\"\n\n    require(_getCycleState(order.cycleIndex) < CycleState.Valuation, \"Orders can only be cancelled before cut-off\");\n\n    require(msg.sender == order.investor);\n\n    if(order.state == OrderState.Paid) {\n      _releasePayment(orderIndex, order.investor);\n    }\n\n    order.state = OrderState.Cancelled;\n  }\n\n  /**\n   * @dev Reject an order.\n   * @param orderIndex Index of the order to reject.\n   * @param rejected Set to 'true' if order shall be rejected, and set to 'false' if rejection shall be cancelled\n   */\n  function rejectOrder(uint256 orderIndex, bool rejected)\n    external\n  {\n    Order storage order = _orders[orderIndex];\n    \n    require(\n      order.state == OrderState.Subscribed ||\n      order.state == OrderState.Paid ||\n      order.state == OrderState.Rejected\n      ,\n      \"Order rejection can only handled for subscribed or paid orders\"\n    ); // This also checks if the order exists. Otherwise, we would have \"order.state == OrderState.Undefined\"\n\n    require(_getCycleState(order.cycleIndex) < CycleState.Payment , \"Orders can only be rejected before beginning of payment phase\");\n\n    Cycle storage cycle = _cycles[order.cycleIndex];\n\n    require(_tokenController(msg.sender, cycle.assetAddress),\n      \"Sender is not a token controller.\"\n    );\n\n    if(rejected) {\n      if(order.state == OrderState.Paid) {\n      _releasePayment(orderIndex, order.investor);\n      }\n      order.state = OrderState.Rejected;\n    } else {\n      order.state = OrderState.Subscribed;\n    }\n  }\n\n  /**\n   * @dev Set assetValue for a given asset.\n   * @param cycleIndex Index of the cycle where assetValue needs to be set.\n   * @param assetValue Units of cash required for a unit of asset.\n   * @param reverseAssetValue Units of asset required for a unit of cash.\n   */\n  function valuate(\n    uint256 cycleIndex,\n    uint256 assetValue,\n    uint256 reverseAssetValue\n  )\n    external\n  {\n    Cycle storage cycle = _cycles[cycleIndex];\n    CycleState cycleState = _getCycleState(cycleIndex);\n\n    require(cycleState > CycleState.Subscription && cycleState < CycleState.Payment , \"AssetValue can only be set during valuation period\");\n\n    require(cycle.assetValueType == AssetValue.Unknown, \"Asset value can only be set for a cycle of type unkonwn\");\n\n    require(assetValue == 0 || reverseAssetValue == 0, \"Asset value can only be set in one direction\");\n\n    require(_checkPriceOracle(cycle.assetAddress, msg.sender), \"Sender is not a price oracle.\");\n    \n    cycle.assetValue = assetValue;\n    cycle.reverseAssetValue = reverseAssetValue;\n  }\n\n  /**\n   * @dev Execute payment for a given order.\n   * @param orderIndex Index of the order to declare as paid.\n   */\n  function executePaymentAsInvestor(uint256 orderIndex) external payable {\n    Order storage order = _orders[orderIndex];\n\n    require(msg.sender == order.investor);\n\n    _executePayment(orderIndex, new bytes(0), false);\n  }\n\n  /**\n   * @dev Set payment as executed for a given order.\n   * @param orderIndex Index of the order to declare as paid.\n   * @param bypassPayment Bypass payment (in case payment has been performed off-chain)\n   */\n  function executePaymentAsController(uint256 orderIndex, bool bypassPayment) external {\n    Order storage order = _orders[orderIndex];\n    Cycle storage cycle = _cycles[order.cycleIndex];\n\n    require(_tokenController(msg.sender, cycle.assetAddress),\n      \"Sender is not a token controller.\"\n    );\n\n    _executePayment(orderIndex, new bytes(0), bypassPayment);\n  }\n\n  /**\n   * @dev Set payments as executed for a batch of given orders.\n   * @param orderIndexes Indexes of the orders to declare as paid.\n   * @param bypassPayment Bypass payment (in case payment has been performed off-chain)\n   */\n  function batchExecutePaymentsAsController(uint256[] calldata orderIndexes, bool bypassPayment)\n    external\n  {\n    for (uint i = 0; i<orderIndexes.length; i++){\n      Order storage order = _orders[orderIndexes[i]];\n      Cycle storage cycle = _cycles[order.cycleIndex];\n\n      require(_tokenController(msg.sender, cycle.assetAddress),\n        \"Sender is not a token controller.\"\n      );\n\n      _executePayment(orderIndexes[i], new bytes(0), bypassPayment);\n    }\n  }\n\n  /**\n   * @dev Pay for a given order.\n   * @param orderIndex Index of the order to declare as paid.\n   * @param erc1400TokenData Encoded pack of variables for erc1400 token (paymentAddress, paymentPartition, paymentValue).\n   * @param bypassPayment Bypass payment (in case payment has been performed off-chain)\n   */\n  function _executePayment(\n    uint256 orderIndex,\n    bytes memory erc1400TokenData,\n    bool bypassPayment\n  )\n    internal\n  {\n    Order storage order = _orders[orderIndex];\n    Cycle storage cycle = _cycles[order.cycleIndex];\n\n    require(\n      order.state == OrderState.Subscribed ||\n      order.state == OrderState.UnpaidSettled,\n      \"Order is neither in state Subscribed, nor UnpaidSettled\"\n    ); // This also checks if the order exists. Otherwise, we would have \"order.state == OrderState.Undefined\"\n\n    require(!cycle.finalized, \"Cycle is already finalized\");\n\n    if(cycle.assetValueType == AssetValue.Unknown) {\n      require(_getCycleState(order.cycleIndex) >= CycleState.Payment , \"Payment can only be performed after valuation period\");\n    } else {\n      require(_getCycleState(order.cycleIndex) >= CycleState.Subscription , \"Payment can only be performed after start of subscription period\");\n    }\n\n    require(order.orderType == OrderType.Value || order.orderType == OrderType.Amount, \"Invalid order type\");\n\n    (uint256 amount, uint256 value) = _getOrderAmountAndValue(orderIndex);\n    order.amount = amount;\n    order.value = value;\n\n    if(!bypassPayment) {\n      if (cycle.paymentType == Payment.ETH) {\n        require(msg.value == value, \"Amount of ETH is not correct\");\n        _escrowedEth[cycle.assetAddress] += value;\n      } else if (cycle.paymentType == Payment.ERC20) {\n        ERC20(cycle.paymentAddress).transferFrom(msg.sender, address(this), value);\n        _escrowedErc20[cycle.assetAddress][cycle.paymentAddress] += value;\n      } else if(cycle.paymentType == Payment.ERC1400 && erc1400TokenData.length == 0) {\n        ERC1400(cycle.paymentAddress).operatorTransferByPartition(cycle.paymentPartition, msg.sender, address(this), value, abi.encodePacked(BYPASS_ACTION_FLAG), abi.encodePacked(BYPASS_ACTION_FLAG));\n        _escrowedErc1400[cycle.assetAddress][cycle.paymentAddress][cycle.paymentPartition] += value;\n      } else if(cycle.paymentType == Payment.ERC1400 && erc1400TokenData.length != 0) {\n        (address erc1400TokenAddress, bytes32 erc1400TokenPartition, uint256 erc1400PaymentValue) = abi.decode(erc1400TokenData, (address, bytes32, uint256));\n        require(erc1400PaymentValue == value, \"wrong payment value\");\n        require(Payment.ERC1400 == cycle.paymentType, \"ERC1400 payment is not accecpted for this asset\");\n        require(erc1400TokenAddress == cycle.paymentAddress, \"wrong payment token address\");\n        require(erc1400TokenPartition == cycle.paymentPartition, \"wrong payment token partition\");\n        _escrowedErc1400[cycle.assetAddress][cycle.paymentAddress][cycle.paymentPartition] += value;\n      } else {\n        revert(\"off-chain payment needs to be bypassed\");\n      }\n    }\n\n    if(order.state == OrderState.UnpaidSettled) {\n      _releasePayment(orderIndex, cycle.fundAddress);\n      order.state = OrderState.PaidSettled;\n    } else {\n      order.state = OrderState.Paid;\n    }\n  }\n\n  /**\n   * @dev Retrieve order amount and order value calculated based on cycle valuation.\n   * @param orderIndex Index of the order.\n   * @return Order amount.\n   * @return Order value.\n   */\n  function _getOrderAmountAndValue(uint256 orderIndex) internal view returns(uint256, uint256) {\n    Order storage order = _orders[orderIndex];\n    Cycle storage cycle = _cycles[order.cycleIndex];\n\n    uint256 value;\n    uint256 amount;\n    if(order.orderType == OrderType.Value) {\n      value = order.value;\n      if(cycle.assetValue != 0) {\n        amount = value.div(cycle.assetValue);\n      } else {\n        amount = value.mul(cycle.reverseAssetValue);\n      }\n    }\n    \n    if(order.orderType == OrderType.Amount) {\n      amount = order.amount;\n      if(cycle.assetValue != 0) {\n        value = amount.mul(cycle.assetValue);\n      } else {\n        value = amount.div(cycle.reverseAssetValue);\n      }\n    }\n\n    return(amount, value);\n\n  }\n\n  /**\n   * @dev Release payment for a given order.\n   * @param orderIndex Index of the order of the payment to be sent.\n   * @param recipient Address to receive to the payment.\n   */\n  function _releasePayment(uint256 orderIndex, address recipient) internal {\n    Order storage order = _orders[orderIndex];\n    Cycle storage cycle = _cycles[order.cycleIndex];\n\n    if(cycle.paymentType == Payment.ETH) {\n      address payable refundAddress = payable(recipient);\n      refundAddress.transfer(order.value);\n      _escrowedEth[cycle.assetAddress] -= order.value;\n    } else if(cycle.paymentType == Payment.ERC20) {\n      ERC20(cycle.paymentAddress).transfer(recipient, order.value);\n      _escrowedErc20[cycle.assetAddress][cycle.paymentAddress] -= order.value;\n    } else if(cycle.paymentType == Payment.ERC1400) {\n      ERC1400(cycle.paymentAddress).transferByPartition(cycle.paymentPartition, recipient, order.value, abi.encodePacked(BYPASS_ACTION_FLAG));\n      _escrowedErc1400[cycle.assetAddress][cycle.paymentAddress][cycle.paymentPartition] -= order.value;\n    }\n  }\n\n  /**\n   * @dev Settle a given order.\n   * @param orderIndex Index of the order to settle.\n   */\n  function settleOrder(uint256 orderIndex) internal {\n    Order storage order = _orders[orderIndex];\n    Cycle storage cycle = _cycles[order.cycleIndex];\n\n    require(_tokenController(msg.sender, cycle.assetAddress),\n      \"Sender is not a token controller.\"\n    );\n\n    _settleOrder(orderIndex);\n  }\n\n  /**\n   * @dev Settle a batch of given orders.\n   * @param orderIndexes Indexes of the orders to settle.\n   */\n  function batchSettleOrders(uint256[] calldata orderIndexes)\n    external\n  {\n    for (uint i = 0; i<orderIndexes.length; i++){\n      Order storage order = _orders[orderIndexes[i]];\n      Cycle storage cycle = _cycles[order.cycleIndex];\n\n      require(_tokenController(msg.sender, cycle.assetAddress),\n        \"Sender is not a token controller.\"\n      );\n\n      _settleOrder(orderIndexes[i]);\n    }\n  }\n\n  /**\n   * @dev Settle a given order.\n   * @param orderIndex Index of the order to settle.\n   */\n  function _settleOrder(uint256 orderIndex) internal {\n    Order storage order = _orders[orderIndex];\n\n    require(order.state > OrderState.Undefined, \"Order doesnt exist\");\n\n    CycleState currentState = _getCycleState(order.cycleIndex);\n\n    Cycle storage cycle = _cycles[order.cycleIndex];\n\n    if(cycle.assetValueType == AssetValue.Unknown) {\n      require(currentState >= CycleState.Settlement, \"Order settlement can only be performed during settlement period\");\n    } else {\n      require(currentState >= CycleState.Valuation, \"Order settlement can only be performed after the cut-off\");\n    }\n\n    _releasePayment(orderIndex, cycle.fundAddress);\n\n    if(order.state == OrderState.Paid) {\n      ERC1400(cycle.assetAddress).issueByPartition(cycle.assetClass, order.investor, order.amount, \"\");\n      order.state = OrderState.PaidSettled;\n    } else if (order.state == OrderState.Subscribed) {\n      ERC1400(cycle.assetAddress).issueByPartition(cycle.assetClass, address(this), order.amount, \"\");\n      order.state = OrderState.UnpaidSettled;\n    } else {\n      revert(\"Impossible to settle an order that is neither in state Paid, nor Subscribed\");\n    }\n  }\n\n  /**\n   * @dev Finalize a given cycle.\n   * @param cycleIndex Index of the cycle to finalize.\n   */\n  function finalizeCycle(uint256 cycleIndex) external {\n    Cycle storage cycle = _cycles[cycleIndex];\n\n    require(_tokenController(msg.sender, cycle.assetAddress),\n      \"Sender is not a token controller.\"\n    );\n\n    require(!cycle.finalized, \"Cycle is already finalized\");\n\n    (, uint256 totalUnpaidSettled, bool remainingOrdersToSettle) = _getTotalSettledForCycle(cycleIndex);\n\n    if(!remainingOrdersToSettle) {\n      cycle.finalized = true;\n      if(totalUnpaidSettled != 0) {\n        ERC1400(cycle.assetAddress).transferByPartition(cycle.assetClass, cycle.fundAddress, totalUnpaidSettled, \"\");\n      }\n    } else {\n      revert(\"Remaining orders to settle\");\n    }\n  }\n\n  /**\n   * @dev Retrieve sum of paid/unpaid settled orders for a given cycle.\n   *\n   * @param cycleIndex Index of the cycle.\n   * @return Sum of paid settled orders.\n   * @return Sum of unpaid settled orders.\n   * @return 'True' if there are remaining orders to settle, 'false' if not.\n   */\n  function getTotalSettledForCycle(uint256 cycleIndex) external view returns(uint256, uint256, bool) {\n    return _getTotalSettledForCycle(cycleIndex);\n  }\n\n  /**\n   * @dev Retrieve sum of paid/unpaid settled orders for a given cycle.\n   *\n   * @param cycleIndex Index of the cycle.\n   * @return Sum of paid settled orders.\n   * @return Sum of unpaid settled orders.\n   * @return 'True' if there are remaining orders to settle, 'false' if not.\n   */\n  function _getTotalSettledForCycle(uint256 cycleIndex) internal view returns(uint256, uint256, bool) {\n    uint256 totalPaidSettled;\n    uint256 totalUnpaidSettled;\n    bool remainingOrdersToSettle;\n\n    for (uint i = 0; i<_cycleOrders[cycleIndex].length; i++){\n      Order storage order = _orders[_cycleOrders[cycleIndex][i]];\n\n      if(order.state == OrderState.PaidSettled) {\n        totalPaidSettled = totalPaidSettled.add(order.amount);\n      } else if(order.state == OrderState.UnpaidSettled) {\n        totalUnpaidSettled = totalUnpaidSettled.add(order.amount);\n      } else if(\n        order.state != OrderState.Cancelled &&\n        order.state != OrderState.Rejected\n      ) {\n        remainingOrdersToSettle = true;\n      }\n\n    }\n\n    return (totalPaidSettled, totalUnpaidSettled, remainingOrdersToSettle);\n  }\n\n  /**\n   * @dev Retrieve the current state of the cycle.\n   *\n   * @param cycleIndex Index of the cycle.\n   * @return Cycle state.\n   */\n  function getCycleState(uint256 cycleIndex) external view returns(CycleState) {\n    return _getCycleState(cycleIndex);\n  }\n\n  /**\n   * @dev Retrieve the current state of the cycle.\n   *\n   * @param cycleIndex Index of the cycle.\n   * @return Cycle state.\n   */\n  function _getCycleState(uint256 cycleIndex) internal view returns(CycleState) {\n    Cycle storage cycle = _cycles[cycleIndex];\n\n    if(block.timestamp < cycle.startTime || cycle.startTime == 0) {\n      return CycleState.Undefined;\n    } else if(block.timestamp < cycle.startTime + cycle.subscriptionPeriodLength) {\n      return CycleState.Subscription;\n    } else if(block.timestamp < cycle.startTime + cycle.subscriptionPeriodLength + cycle.valuationPeriodLength) {\n      return CycleState.Valuation;\n    } else if(block.timestamp < cycle.startTime + cycle.subscriptionPeriodLength + cycle.valuationPeriodLength + cycle.paymentPeriodLength) {\n      return CycleState.Payment;\n    } else if(!cycle.finalized){\n      return CycleState.Settlement; \n    } else {\n      return CycleState.Finalized;\n    }\n  }\n\n  /**\n   * @dev Check if the sender is a token controller.\n   *\n   * @param sender Transaction sender.\n   * @param assetAddress Address of the token representing the asset.\n   * @return Returns 'true' if sender is a token controller.\n   */\n  function _tokenController(address sender, address assetAddress) internal view returns(bool) {\n    if(sender == Ownable(assetAddress).owner() ||\n      _isTokenController[assetAddress][sender]) {\n      return true;\n    } else {\n      return false;\n    }\n\n  }\n\n  /**\n   * @dev Indicate whether or not the fund issuance contract can receive the tokens.\n   *\n   * By convention, the 32 first bytes of a token transfer to the fund issuance smart contract contain a flag.\n   *\n   *  - When tokens are transferred to fund issuance contract to create a new order, the 'data' field starts with the\n   *  following flag: 0xcccccccccccccccccccccccccccccccccccccccccccccccccccccccccccccccc\n   *  In this case the data structure is the the following:\n   *  <transferFlag (32 bytes)><asset address (32 bytes)><asset class (32 bytes)><order data (3 * 32 bytes)>\n   *\n   *  - When tokens are transferred to fund issuance contract to pay for an existing order, the 'data' field starts with the\n   *  following flag: 0xdddddddddddddddddddddddddddddddddddddddddddddddddddddddddddddddd\n   *  In this case the data structure is the the following:\n   *  <transferFlag (32 bytes)><order index (32 bytes)>\n   *\n   * If the 'data' doesn't start with one of those flags, the fund issuance contract won't accept the token transfer.\n   *\n   * @param data Information attached to the token transfer to fund issuance contract.\n   * @param operatorData Information attached to the token transfer to fund issuance contract, by the operator.\n   * @return 'true' if the fund issuance contract can receive the tokens, 'false' if not.\n   */\n  function _canReceive(bytes memory data, bytes memory operatorData) internal pure returns(bool) {\n    if(operatorData.length == 0) { // The reason for this check is to avoid a certificate gets interpreted as a flag by mistake\n      return false;\n    }\n    \n    bytes32 flag = _getTransferFlag(data);\n    if(data.length == 192 && flag == ORDER_SUBSCRIPTION_FLAG) {\n      return true;\n    } else if(data.length == 64 && flag == ORDER_PAYMENT_FLAG) {\n      return true;\n    } else if (data.length == 32 && flag == BYPASS_ACTION_FLAG) {\n      return true;\n    } else {\n      return false;\n    }\n  }\n\n  /**\n   * @dev Retrieve the transfer flag from the 'data' field.\n   *\n   * By convention, the 32 first bytes of a token transfer to the fund issuance smart contract contain a flag.\n   *  - When tokens are transferred to fund issuance contract to create a new order, the 'data' field starts with the\n   *  following flag: 0xcccccccccccccccccccccccccccccccccccccccccccccccccccccccccccccccc\n   *  - When tokens are transferred to fund issuance contract to pay for an existing order, the 'data' field starts with the\n   *  following flag: 0xdddddddddddddddddddddddddddddddddddddddddddddddddddddddddddddddd\n   *\n   * @param data Concatenated information about the transfer.\n   * @return flag Transfer flag.\n   */\n  function _getTransferFlag(bytes memory data) internal pure returns(bytes32 flag) {\n    assembly {\n      flag:= mload(add(data, 32))\n    }\n  }\n\n  /**\n   * By convention, when tokens are transferred to fund issuance contract to create a new order, the 'data' of a token transfer has the following structure:\n   *  <transferFlag (32 bytes)><asset address (32 bytes)><asset class (32 bytes)><order data (3 * 32 bytes)>\n   *\n   * The first 32 bytes are the flag 0xcccccccccccccccccccccccccccccccccccccccccccccccccccccccccccccccc\n   *\n   * The next 32 bytes contain the order index.\n   *\n   * Example input for asset address '0xb5747835141b46f7C472393B31F8F5A57F74A44f',\n   * asset class '37252', order type 'Value', and value 12000\n   * 0xcccccccccccccccccccccccccccccccccccccccccccccccccccccccccccccccc000000000000000000000000b5747835141b46f7C472393B31F8F5A57F74A44f\n   * 000000000000000000000000000000000000000000000000000000000037252000000000000000000000000000000000000000000000000000000000000001\n   * 000000000000000000000000000000000000000000000000000000000002ee0000000000000000000000000000000000000000000000000000000000000000\n   *\n   */\n  function _getAssetAddress(bytes memory data) internal pure returns(address assetAddress) {\n    assembly {\n      assetAddress:= mload(add(data, 64))\n    }\n  }\n\n  function _getAssetClass(bytes memory data) internal pure returns(bytes32 assetClass) {\n    assembly {\n      assetClass:= mload(add(data, 96))\n    }\n  }\n\n  function _getOrderData(bytes memory data) internal pure returns(bytes memory orderData) {\n    uint256 orderValue;\n    uint256 orderAmount;\n    OrderType orderType;\n    assembly {\n      orderValue:= mload(add(data, 128))\n      orderAmount:= mload(add(data, 160))\n      orderType:= mload(add(data, 192))\n    }\n    orderData = abi.encode(orderValue, orderAmount, orderType);\n  }\n\n  /**\n   * By convention, when tokens are transferred to fund issuance contract to pay for an existing order, the 'data' of a token transfer has the following structure:\n   *  <transferFlag (32 bytes)><order index (32 bytes)>\n   *\n   * The first 32 bytes are the flag 0xdddddddddddddddddddddddddddddddddddddddddddddddddddddddddddddddd\n   *\n   * The next 32 bytes contain the order index.\n   *\n   * Example input for order index 3:\n   * 0xdddddddddddddddddddddddddddddddddddddddddddddddddddddddddddddddd000000000000000000000000000000000000000000000000000000000000003\n   *\n   */\n\n  /**\n   * @dev Retrieve the order index from the 'data' field.\n   *\n   * @param data Concatenated information about the order payment.\n   * @return orderIndex Order index.\n   */\n  function _getOrderIndex(bytes memory data) internal pure returns(uint256 orderIndex) {\n    assembly {\n      orderIndex:= mload(add(data, 64))\n    }\n  }\n\n  /************************** TOKEN CONTROLLERS *******************************/\n\n  /**\n   * @dev Get the list of token controllers for a given token.\n   * @param tokenAddress Token address.\n   * @return List of addresses of all the token controllers for a given token.\n   */\n  function tokenControllers(address tokenAddress) external view returns (address[] memory) {\n    return _tokenControllers[tokenAddress];\n  }\n\n  /**\n   * @dev Set list of token controllers for a given token.\n   * @param tokenAddress Token address.\n   * @param operators Operators addresses.\n   */\n  function setTokenControllers(address tokenAddress, address[] calldata operators) external onlyTokenController(tokenAddress) {\n    _setTokenControllers(tokenAddress, operators);\n  }\n\n  /**\n   * @dev Set list of token controllers for a given token.\n   * @param tokenAddress Token address.\n   * @param operators Operators addresses.\n   */\n  function _setTokenControllers(address tokenAddress, address[] memory operators) internal {\n    for (uint i = 0; i<_tokenControllers[tokenAddress].length; i++){\n      _isTokenController[tokenAddress][_tokenControllers[tokenAddress][i]] = false;\n    }\n    for (uint j = 0; j<operators.length; j++){\n      _isTokenController[tokenAddress][operators[j]] = true;\n    }\n    _tokenControllers[tokenAddress] = operators;\n  }\n\n  /************************** TOKEN PRICE ORACLES *******************************/\n\n  /**\n   * @dev Get the list of price oracles for a given token.\n   * @param tokenAddress Token address.\n   * @return List of addresses of all the price oracles for a given token.\n   */\n  function priceOracles(address tokenAddress) external view returns (address[] memory) {\n    return _priceOracles[tokenAddress];\n  }\n\n  /**\n   * @dev Set list of price oracles for a given token.\n   * @param tokenAddress Token address.\n   * @param oracles Oracles addresses.\n   */\n  function setPriceOracles(address tokenAddress, address[] calldata oracles) external onlyPriceOracle(tokenAddress) {\n    _setPriceOracles(tokenAddress, oracles);\n  }\n\n  /**\n   * @dev Set list of price oracles for a given token.\n   * @param tokenAddress Token address.\n   * @param oracles Oracles addresses.\n   */\n  function _setPriceOracles(address tokenAddress, address[] memory oracles) internal {\n    for (uint i = 0; i<_priceOracles[tokenAddress].length; i++){\n      _isPriceOracle[tokenAddress][_priceOracles[tokenAddress][i]] = false;\n    }\n    for (uint j = 0; j<oracles.length; j++){\n      _isPriceOracle[tokenAddress][oracles[j]] = true;\n    }\n    _priceOracles[tokenAddress] = oracles;\n  }\n\n  /**\n   * @dev Check if address is oracle of a given token.\n   * @param tokenAddress Token address.\n   * @param oracle Oracle address.\n   * @return 'true' if the address is oracle of the given token.\n   */\n  function _checkPriceOracle(address tokenAddress, address oracle) internal view returns(bool) {\n    return(_isPriceOracle[tokenAddress][oracle] || oracle == Ownable(tokenAddress).owner());\n  }\n\n  /**************************** VIEW FUNCTIONS *******************************/\n\n  /**\n   * @dev Get asset rules.\n   * @param assetAddress Address of the asset.\n   * @param assetClass Class of the asset.\n   * @return Asset rules.\n   */\n  function getAssetRules(address assetAddress, bytes32 assetClass)\n    external\n    view\n    returns(uint256, uint256, uint256, uint256, Payment, address, bytes32, address, bool)\n  {\n    AssetRules storage rules = _assetRules[assetAddress][assetClass];\n    return (\n      rules.firstStartTime,\n      rules.subscriptionPeriodLength,\n      rules.valuationPeriodLength,\n      rules.paymentPeriodLength,\n      rules.paymentType,\n      rules.paymentAddress,\n      rules.paymentPartition,\n      rules.fundAddress,\n      rules.subscriptionsOpened\n    );\n\n  }\n\n  /**\n   * @dev Get the cycle asset value rules.\n   * @param assetAddress Address of the asset.\n   * @param assetClass Class of the asset.\n   * @return Asset value rules.\n   */\n  function getAssetValueRules(address assetAddress, bytes32 assetClass) external view returns(AssetValue, uint256, uint256) {\n    AssetRules storage rules = _assetRules[assetAddress][assetClass];\n    return (\n      rules.assetValueType,\n      rules.assetValue,\n      rules.reverseAssetValue\n    );\n  }\n\n  /**\n   * @dev Get total number of cycles in the contract.\n   * @return Number of cycles.\n   */\n  function getNbCycles() external view returns(uint256) {\n    return _cycleIndex;\n  }\n\n  /**\n   * @dev Get the index of the last cycle created for a given asset class.\n   * @param assetAddress Address of the token representing the asset.\n   * @param assetClass Asset class.\n   * @return Cycle index.\n   */\n  function getLastCycleIndex(address assetAddress, bytes32 assetClass) external view returns(uint256) {\n    return _lastCycleIndex[assetAddress][assetClass];\n  }\n\n  /**\n   * @dev Get the cycle.\n   * @param index Index of the cycle.\n   * @return Cycle.\n   */\n  function getCycle(uint256 index) external view returns(address, bytes32, uint256, uint256, uint256, uint256, Payment, address, bytes32, bool) {\n    Cycle storage cycle = _cycles[index];\n    return (\n      cycle.assetAddress,\n      cycle.assetClass,\n      cycle.startTime,\n      cycle.subscriptionPeriodLength,\n      cycle.valuationPeriodLength,\n      cycle.paymentPeriodLength,\n      cycle.paymentType,\n      cycle.paymentAddress,\n      cycle.paymentPartition,\n      cycle.finalized\n    );\n  }\n\n  /**\n   * @dev Get the cycle asset value.\n   * @param index Index of the cycle.\n   * @return Cycle.\n   */\n  function getCycleAssetValue(uint256 index) external view returns(AssetValue, uint256, uint256) {\n    Cycle storage cycle = _cycles[index];\n    return (\n      cycle.assetValueType,\n      cycle.assetValue,\n      cycle.reverseAssetValue\n    );\n  }\n\n  /**\n   * @dev Get total number of orders in the contract.\n   * @return Number of orders.\n   */\n  function getNbOrders() external view returns(uint256) {\n    return _orderIndex;\n  }\n\n  /**\n   * @dev Retrieve an order.\n   * @param index Index of the order.\n   * @return Order.\n   */\n  function getOrder(uint256 index) external view returns(uint256, address, uint256, uint256, OrderType, OrderState) {\n    Order storage order = _orders[index];\n    return (\n      order.cycleIndex,\n      order.investor,\n      order.value,\n      order.amount,\n      order.orderType,\n      order.state\n    );\n  }\n\n  /**\n   * @dev Retrieve order amount and order value calculated based on cycle valuation.\n   * @param orderIndex Index of the order.\n   * @return Order amount.\n   * @return Order value.\n   */\n  function getOrderAmountAndValue(uint256 orderIndex) external view returns(uint256, uint256) {\n    return _getOrderAmountAndValue(orderIndex);\n  }\n\n  /**\n   * @dev Get list of cycle orders.\n   * @param index Index of the cycle.\n   * @return List of cycle orders.\n   */\n  function getCycleOrders(uint256 index) external view returns(uint256[] memory) {\n    return _cycleOrders[index];\n  }\n\n  /**\n   * @dev Get list of investor orders.\n   * @return List of investor orders.\n   */\n  function getInvestorOrders(address investor) external view returns(uint256[] memory) {\n    return _investorOrders[investor];\n  }\n\n }\n",
  "sourcePath": "/Users/sergio/Desktop/TFM/project/contracts/tools/FundIssuer.sol",
  "compiler": {
    "name": "solc",
    "version": "0.8.7+commit.e28d00a7.Emscripten.clang"
  },
  "schemaVersion": "3.4.16",
  "updatedAt": "2024-05-10T15:15:09.236Z",
  "networkType": "ethereum",
  "devdoc": {
    "details": "Fund issuance contract.Intended usage: The purpose of the contract is to perform a fund issuance.",
    "kind": "dev",
    "methods": {
      "batchExecutePaymentsAsController(uint256[],bool)": {
        "details": "Set payments as executed for a batch of given orders.",
        "params": {
          "bypassPayment": "Bypass payment (in case payment has been performed off-chain)",
          "orderIndexes": "Indexes of the orders to declare as paid."
        }
      },
      "batchSettleOrders(uint256[])": {
        "details": "Settle a batch of given orders.",
        "params": {
          "orderIndexes": "Indexes of the orders to settle."
        }
      },
      "canReceive(bytes,bytes32,address,address,address,uint256,bytes,bytes)": {
        "details": "Indicate whether or not the fund issuance contract can receive the tokens or not. [USED FOR ERC1400 TOKENS ONLY]",
        "params": {
          "data": "Information attached to the token transfer.",
          "operatorData": "Information attached to the Swaps transfer, by the operator."
        },
        "returns": {
          "_0": "'true' if the Swaps contract can receive the tokens, 'false' if not."
        }
      },
      "cancelOrder(uint256)": {
        "details": "Cancel an order.",
        "params": {
          "orderIndex": "Index of the order to cancel."
        }
      },
      "constructor": {
        "details": "Initialize Fund issuance contract + register the contract implementation in ERC1820Registry."
      },
      "executePaymentAsController(uint256,bool)": {
        "details": "Set payment as executed for a given order.",
        "params": {
          "bypassPayment": "Bypass payment (in case payment has been performed off-chain)",
          "orderIndex": "Index of the order to declare as paid."
        }
      },
      "executePaymentAsInvestor(uint256)": {
        "details": "Execute payment for a given order.",
        "params": {
          "orderIndex": "Index of the order to declare as paid."
        }
      },
      "finalizeCycle(uint256)": {
        "details": "Finalize a given cycle.",
        "params": {
          "cycleIndex": "Index of the cycle to finalize."
        }
      },
      "getAssetRules(address,bytes32)": {
        "details": "Get asset rules.",
        "params": {
          "assetAddress": "Address of the asset.",
          "assetClass": "Class of the asset."
        },
        "returns": {
          "_0": "Asset rules."
        }
      },
      "getAssetValueRules(address,bytes32)": {
        "details": "Get the cycle asset value rules.",
        "params": {
          "assetAddress": "Address of the asset.",
          "assetClass": "Class of the asset."
        },
        "returns": {
          "_0": "Asset value rules."
        }
      },
      "getCycle(uint256)": {
        "details": "Get the cycle.",
        "params": {
          "index": "Index of the cycle."
        },
        "returns": {
          "_0": "Cycle."
        }
      },
      "getCycleAssetValue(uint256)": {
        "details": "Get the cycle asset value.",
        "params": {
          "index": "Index of the cycle."
        },
        "returns": {
          "_0": "Cycle."
        }
      },
      "getCycleOrders(uint256)": {
        "details": "Get list of cycle orders.",
        "params": {
          "index": "Index of the cycle."
        },
        "returns": {
          "_0": "List of cycle orders."
        }
      },
      "getCycleState(uint256)": {
        "details": "Retrieve the current state of the cycle.",
        "params": {
          "cycleIndex": "Index of the cycle."
        },
        "returns": {
          "_0": "Cycle state."
        }
      },
      "getInvestorOrders(address)": {
        "details": "Get list of investor orders.",
        "returns": {
          "_0": "List of investor orders."
        }
      },
      "getLastCycleIndex(address,bytes32)": {
        "details": "Get the index of the last cycle created for a given asset class.",
        "params": {
          "assetAddress": "Address of the token representing the asset.",
          "assetClass": "Asset class."
        },
        "returns": {
          "_0": "Cycle index."
        }
      },
      "getNbCycles()": {
        "details": "Get total number of cycles in the contract.",
        "returns": {
          "_0": "Number of cycles."
        }
      },
      "getNbOrders()": {
        "details": "Get total number of orders in the contract.",
        "returns": {
          "_0": "Number of orders."
        }
      },
      "getOrder(uint256)": {
        "details": "Retrieve an order.",
        "params": {
          "index": "Index of the order."
        },
        "returns": {
          "_0": "Order."
        }
      },
      "getOrderAmountAndValue(uint256)": {
        "details": "Retrieve order amount and order value calculated based on cycle valuation.",
        "params": {
          "orderIndex": "Index of the order."
        },
        "returns": {
          "_0": "Order amount.",
          "_1": "Order value."
        }
      },
      "getTotalSettledForCycle(uint256)": {
        "details": "Retrieve sum of paid/unpaid settled orders for a given cycle.",
        "params": {
          "cycleIndex": "Index of the cycle."
        },
        "returns": {
          "_0": "Sum of paid settled orders.",
          "_1": "Sum of unpaid settled orders.",
          "_2": "'True' if there are remaining orders to settle, 'false' if not."
        }
      },
      "priceOracles(address)": {
        "details": "Get the list of price oracles for a given token.",
        "params": {
          "tokenAddress": "Token address."
        },
        "returns": {
          "_0": "List of addresses of all the price oracles for a given token."
        }
      },
      "rejectOrder(uint256,bool)": {
        "details": "Reject an order.",
        "params": {
          "orderIndex": "Index of the order to reject.",
          "rejected": "Set to 'true' if order shall be rejected, and set to 'false' if rejection shall be cancelled"
        }
      },
      "setAssetRules(address,bytes32,uint256,uint256,uint256,uint256,uint8,address,bytes32,address,bool)": {
        "details": "Start a new subscription for a given asset in the fund issuance smart contract.",
        "params": {
          "assetAddress": "Address of the token representing the asset.",
          "assetClass": "Asset class.",
          "paymentAddress": "Address of the payment token (only used id paymentType <> OFFCHAIN).",
          "paymentPartition": "Partition of the payment token (only used if paymentType is ERC1400).",
          "paymentPeriodLength": "Length of payment period.",
          "paymentType": "Type of payment (OFFCHAIN |ERC20 | ERC1400).",
          "subscriptionPeriodLength": "Length of subscription period.",
          "subscriptionsOpened": "Set 'true' if subscriptions are opened, 'false' if not.",
          "valuationPeriodLength": "Length of valuation period."
        }
      },
      "setAssetValueRules(address,bytes32,uint8,uint256,uint256)": {
        "details": "Set asset value rules for a given asset.",
        "params": {
          "assetAddress": "Address of the token representing the asset.",
          "assetClass": "Asset class.",
          "assetValue": "Asset value.",
          "assetValueType": "Asset value type.",
          "reverseAssetValue": "Reverse asset value."
        }
      },
      "setPriceOracles(address,address[])": {
        "details": "Set list of price oracles for a given token.",
        "params": {
          "oracles": "Oracles addresses.",
          "tokenAddress": "Token address."
        }
      },
      "setTokenControllers(address,address[])": {
        "details": "Set list of token controllers for a given token.",
        "params": {
          "operators": "Operators addresses.",
          "tokenAddress": "Token address."
        }
      },
      "subscribe(address,bytes32,uint256,uint256,uint8,bool)": {
        "details": "Subscribe for a given asset, by creating an order.",
        "params": {
          "assetAddress": "Address of the token representing the asset.",
          "assetClass": "Asset class.",
          "orderAmount": "Amount of assets to purchase (used in case order type is 'amount').",
          "orderType": "Order type (value |amount).",
          "orderValue": "Value of assets to purchase (used in case order type is 'value')."
        }
      },
      "tokenControllers(address)": {
        "details": "Get the list of token controllers for a given token.",
        "params": {
          "tokenAddress": "Token address."
        },
        "returns": {
          "_0": "List of addresses of all the token controllers for a given token."
        }
      },
      "tokensReceived(bytes,bytes32,address,address,address,uint256,bytes,bytes)": {
        "details": "Hook function executed when tokens are sent to the fund issuance contract. [USED FOR ERC1400 TOKENS ONLY]",
        "params": {
          "data": "Information attached to the token transfer.",
          "from": "Token holder.",
          "operatorData": "Information attached to the Swaps transfer, by the operator.",
          "partition": "Name of the partition.",
          "to": "Token recipient.",
          "value": "Number of tokens to transfer."
        }
      },
      "valuate(uint256,uint256,uint256)": {
        "details": "Set assetValue for a given asset.",
        "params": {
          "assetValue": "Units of cash required for a unit of asset.",
          "cycleIndex": "Index of the cycle where assetValue needs to be set.",
          "reverseAssetValue": "Units of asset required for a unit of cash."
        }
      }
    },
    "title": "FundIssuer",
    "version": 1
  },
  "userdoc": {
    "kind": "user",
    "methods": {
      "canReceive(bytes,bytes32,address,address,address,uint256,bytes,bytes)": {
        "notice": "[ERC1400TokensRecipient INTERFACE (1/2)]"
      },
      "constructor": {
        "notice": "[Swaps CONSTRUCTOR]"
      },
      "tokensReceived(bytes,bytes32,address,address,address,uint256,bytes,bytes)": {
        "notice": "[ERC1400TokensRecipient INTERFACE (2/2)]"
      }
    },
    "version": 1
  }
}