{
  "contractName": "PauserMock",
  "abi": [
    {
      "inputs": [
        {
          "internalType": "address",
          "name": "token",
          "type": "address"
        }
      ],
      "stateMutability": "nonpayable",
      "type": "constructor"
    },
    {
      "anonymous": false,
      "inputs": [
        {
          "indexed": true,
          "internalType": "address",
          "name": "token",
          "type": "address"
        },
        {
          "indexed": true,
          "internalType": "address",
          "name": "account",
          "type": "address"
        }
      ],
      "name": "PauserAdded",
      "type": "event"
    },
    {
      "anonymous": false,
      "inputs": [
        {
          "indexed": true,
          "internalType": "address",
          "name": "token",
          "type": "address"
        },
        {
          "indexed": true,
          "internalType": "address",
          "name": "account",
          "type": "address"
        }
      ],
      "name": "PauserRemoved",
      "type": "event"
    },
    {
      "inputs": [
        {
          "internalType": "address",
          "name": "token",
          "type": "address"
        },
        {
          "internalType": "address",
          "name": "account",
          "type": "address"
        }
      ],
      "name": "addPauser",
      "outputs": [],
      "stateMutability": "nonpayable",
      "type": "function"
    },
    {
      "inputs": [
        {
          "internalType": "address",
          "name": "token",
          "type": "address"
        },
        {
          "internalType": "address",
          "name": "account",
          "type": "address"
        }
      ],
      "name": "isPauser",
      "outputs": [
        {
          "internalType": "bool",
          "name": "",
          "type": "bool"
        }
      ],
      "stateMutability": "view",
      "type": "function"
    },
    {
      "inputs": [
        {
          "internalType": "address",
          "name": "token",
          "type": "address"
        },
        {
          "internalType": "address",
          "name": "account",
          "type": "address"
        }
      ],
      "name": "removePauser",
      "outputs": [],
      "stateMutability": "nonpayable",
      "type": "function"
    },
    {
      "inputs": [
        {
          "internalType": "address",
          "name": "token",
          "type": "address"
        }
      ],
      "name": "renouncePauser",
      "outputs": [],
      "stateMutability": "nonpayable",
      "type": "function"
    },
    {
      "inputs": [
        {
          "internalType": "address",
          "name": "token",
          "type": "address"
        },
        {
          "internalType": "bool",
          "name": "mockActivated",
          "type": "bool"
        }
      ],
      "name": "mockFunction",
      "outputs": [],
      "stateMutability": "nonpayable",
      "type": "function"
    }
  ],
  "bytecode": "0x608060405234801561001057600080fd5b5060405161069138038061069183398101604081905261002f916101b3565b610039813361003f565b506101e3565b6001600160a01b03821660009081526020818152604090912061006b9183906101716100af821b17901c565b806001600160a01b0316826001600160a01b03167fe0953c403a52f9dc1fef4202a8d33975c958b727bee0d7b5b328965ddad98d8160405160405180910390a35050565b6100b98282610130565b1561010b5760405162461bcd60e51b815260206004820152601f60248201527f526f6c65733a206163636f756e7420616c72656164792068617320726f6c650060448201526064015b60405180910390fd5b6001600160a01b0316600090815260209190915260409020805460ff19166001179055565b60006001600160a01b0382166101935760405162461bcd60e51b815260206004820152602260248201527f526f6c65733a206163636f756e7420697320746865207a65726f206164647265604482015261737360f01b6064820152608401610102565b506001600160a01b03166000908152602091909152604090205460ff1690565b6000602082840312156101c557600080fd5b81516001600160a01b03811681146101dc57600080fd5b9392505050565b61049f806101f26000396000f3fe608060405234801561001057600080fd5b50600436106100575760003560e01c80632fd333981461005c57806341eb24bb146100835780636c41d4ea14610098578063eb5314bd146100ab578063ed2f9095146100be575b600080fd5b61006f61006a3660046103fa565b6100d1565b604051901515815260200160405180910390f35b6100966100913660046103df565b6100fa565b005b6100966100a636600461042d565b610107565b6100966100b93660046103fa565b610130565b6100966100cc3660046103fa565b610153565b6001600160a01b03821660009081526020819052604081206100f390836101f2565b9392505050565b6101048133610275565b50565b8161011281336100d1565b61011b57600080fd5b506001805460ff191691151591909117905550565b8161013b81336100d1565b61014457600080fd5b61014e83836102db565b505050565b8161015e81336100d1565b61016757600080fd5b61014e8383610275565b61017b82826101f2565b156101cd5760405162461bcd60e51b815260206004820152601f60248201527f526f6c65733a206163636f756e7420616c72656164792068617320726f6c650060448201526064015b60405180910390fd5b6001600160a01b0316600090815260209190915260409020805460ff19166001179055565b60006001600160a01b0382166102555760405162461bcd60e51b815260206004820152602260248201527f526f6c65733a206163636f756e7420697320746865207a65726f206164647265604482015261737360f01b60648201526084016101c4565b506001600160a01b03166000908152602091909152604090205460ff1690565b6001600160a01b03821660009081526020819052604090206102979082610341565b806001600160a01b0316826001600160a01b03167fb75903ade4a0fdb07d60c882c22c779e2e1c751883c37aecdcc92a8ec72b046e60405160405180910390a35050565b6001600160a01b03821660009081526020819052604090206102fd9082610171565b806001600160a01b0316826001600160a01b03167fe0953c403a52f9dc1fef4202a8d33975c958b727bee0d7b5b328965ddad98d8160405160405180910390a35050565b61034b82826101f2565b6103a15760405162461bcd60e51b815260206004820152602160248201527f526f6c65733a206163636f756e7420646f6573206e6f74206861766520726f6c6044820152606560f81b60648201526084016101c4565b6001600160a01b0316600090815260209190915260409020805460ff19169055565b80356001600160a01b03811681146103da57600080fd5b919050565b6000602082840312156103f157600080fd5b6100f3826103c3565b6000806040838503121561040d57600080fd5b610416836103c3565b9150610424602084016103c3565b90509250929050565b6000806040838503121561044057600080fd5b610449836103c3565b91506020830135801515811461045e57600080fd5b80915050925092905056fea2646970667358221220ca5be7d70fa697b83c98dc563043099abcdb83c310e7b7cc204e1d1ac46ad80964736f6c63430008070033",
  "immutableReferences": {},
  "source": "// SPDX-License-Identifier: Apache-2.0\npragma solidity ^0.8.0;\n\n// MOCK CONTRACT TO REACH FULL COVERAGE BY CALLING \"onlyNotPausered\" MODIFIER\n\nimport \"../roles/PauserRole.sol\";\n\n\ncontract PauserMock is PauserRole {\n\n  bool _mockActivated;\n\n  constructor(address token) {\n    _addPauser(token, msg.sender);\n  }\n\n  function mockFunction(address token, bool mockActivated) external onlyPauser(token) {\n    _mockActivated = mockActivated;\n  }\n\n}",
  "sourcePath": "/Users/sergio/Desktop/TFM/project/contracts/mocks/PauserMock.sol",
  "compiler": {
    "name": "solc",
    "version": "0.8.7+commit.e28d00a7.Emscripten.clang"
  },
  "schemaVersion": "3.4.16",
  "updatedAt": "2024-05-10T15:08:02.387Z",
  "devdoc": {
    "kind": "dev",
    "methods": {},
    "version": 1
  },
  "userdoc": {
    "kind": "user",
    "methods": {},
    "version": 1
  }
}