{
  "_format": "hh-sol-artifact-1",
  "contractName": "ERC20Token",
  "sourceName": "contracts/ERC1400/tokens/ERC20Token.sol",
  "abi": [
    {
      "inputs": [
        {
          "internalType": "string",
          "name": "name",
          "type": "string"
        },
        {
          "internalType": "string",
          "name": "symbol",
          "type": "string"
        },
        {
          "internalType": "uint8",
          "name": "__decimals",
          "type": "uint8"
        }
      ],
      "stateMutability": "nonpayable",
      "type": "constructor"
    },
    {
      "anonymous": false,
      "inputs": [
        {
          "indexed": true,
          "internalType": "address",
          "name": "owner",
          "type": "address"
        },
        {
          "indexed": true,
          "internalType": "address",
          "name": "spender",
          "type": "address"
        },
        {
          "indexed": false,
          "internalType": "uint256",
          "name": "value",
          "type": "uint256"
        }
      ],
      "name": "Approval",
      "type": "event"
    },
    {
      "anonymous": false,
      "inputs": [
        {
          "indexed": true,
          "internalType": "address",
          "name": "account",
          "type": "address"
        }
      ],
      "name": "MinterAdded",
      "type": "event"
    },
    {
      "anonymous": false,
      "inputs": [
        {
          "indexed": true,
          "internalType": "address",
          "name": "account",
          "type": "address"
        }
      ],
      "name": "MinterRemoved",
      "type": "event"
    },
    {
      "anonymous": false,
      "inputs": [
        {
          "indexed": true,
          "internalType": "address",
          "name": "previousOwner",
          "type": "address"
        },
        {
          "indexed": true,
          "internalType": "address",
          "name": "newOwner",
          "type": "address"
        }
      ],
      "name": "OwnershipTransferred",
      "type": "event"
    },
    {
      "anonymous": false,
      "inputs": [
        {
          "indexed": false,
          "internalType": "address",
          "name": "account",
          "type": "address"
        }
      ],
      "name": "Paused",
      "type": "event"
    },
    {
      "anonymous": false,
      "inputs": [
        {
          "indexed": true,
          "internalType": "address",
          "name": "from",
          "type": "address"
        },
        {
          "indexed": true,
          "internalType": "address",
          "name": "to",
          "type": "address"
        },
        {
          "indexed": false,
          "internalType": "uint256",
          "name": "value",
          "type": "uint256"
        }
      ],
      "name": "Transfer",
      "type": "event"
    },
    {
      "anonymous": false,
      "inputs": [
        {
          "indexed": false,
          "internalType": "address",
          "name": "account",
          "type": "address"
        }
      ],
      "name": "Unpaused",
      "type": "event"
    },
    {
      "inputs": [
        {
          "internalType": "address",
          "name": "account",
          "type": "address"
        }
      ],
      "name": "addMinter",
      "outputs": [],
      "stateMutability": "nonpayable",
      "type": "function"
    },
    {
      "inputs": [
        {
          "internalType": "address",
          "name": "owner",
          "type": "address"
        },
        {
          "internalType": "address",
          "name": "spender",
          "type": "address"
        }
      ],
      "name": "allowance",
      "outputs": [
        {
          "internalType": "uint256",
          "name": "",
          "type": "uint256"
        }
      ],
      "stateMutability": "view",
      "type": "function"
    },
    {
      "inputs": [
        {
          "internalType": "address",
          "name": "spender",
          "type": "address"
        },
        {
          "internalType": "uint256",
          "name": "amount",
          "type": "uint256"
        }
      ],
      "name": "approve",
      "outputs": [
        {
          "internalType": "bool",
          "name": "",
          "type": "bool"
        }
      ],
      "stateMutability": "nonpayable",
      "type": "function"
    },
    {
      "inputs": [
        {
          "internalType": "address",
          "name": "account",
          "type": "address"
        }
      ],
      "name": "balanceOf",
      "outputs": [
        {
          "internalType": "uint256",
          "name": "",
          "type": "uint256"
        }
      ],
      "stateMutability": "view",
      "type": "function"
    },
    {
      "inputs": [
        {
          "internalType": "uint256",
          "name": "amount",
          "type": "uint256"
        }
      ],
      "name": "burn",
      "outputs": [],
      "stateMutability": "nonpayable",
      "type": "function"
    },
    {
      "inputs": [
        {
          "internalType": "address",
          "name": "account",
          "type": "address"
        },
        {
          "internalType": "uint256",
          "name": "amount",
          "type": "uint256"
        }
      ],
      "name": "burnFrom",
      "outputs": [],
      "stateMutability": "nonpayable",
      "type": "function"
    },
    {
      "inputs": [
        {
          "internalType": "bytes32",
          "name": "interfaceHash",
          "type": "bytes32"
        },
        {
          "internalType": "address",
          "name": "",
          "type": "address"
        }
      ],
      "name": "canImplementInterfaceForAddress",
      "outputs": [
        {
          "internalType": "bytes32",
          "name": "",
          "type": "bytes32"
        }
      ],
      "stateMutability": "view",
      "type": "function"
    },
    {
      "inputs": [],
      "name": "decimals",
      "outputs": [
        {
          "internalType": "uint8",
          "name": "",
          "type": "uint8"
        }
      ],
      "stateMutability": "view",
      "type": "function"
    },
    {
      "inputs": [
        {
          "internalType": "address",
          "name": "spender",
          "type": "address"
        },
        {
          "internalType": "uint256",
          "name": "subtractedValue",
          "type": "uint256"
        }
      ],
      "name": "decreaseAllowance",
      "outputs": [
        {
          "internalType": "bool",
          "name": "",
          "type": "bool"
        }
      ],
      "stateMutability": "nonpayable",
      "type": "function"
    },
    {
      "inputs": [
        {
          "internalType": "address",
          "name": "spender",
          "type": "address"
        },
        {
          "internalType": "uint256",
          "name": "addedValue",
          "type": "uint256"
        }
      ],
      "name": "increaseAllowance",
      "outputs": [
        {
          "internalType": "bool",
          "name": "",
          "type": "bool"
        }
      ],
      "stateMutability": "nonpayable",
      "type": "function"
    },
    {
      "inputs": [
        {
          "internalType": "address",
          "name": "account",
          "type": "address"
        }
      ],
      "name": "isMinter",
      "outputs": [
        {
          "internalType": "bool",
          "name": "",
          "type": "bool"
        }
      ],
      "stateMutability": "view",
      "type": "function"
    },
    {
      "inputs": [
        {
          "internalType": "address",
          "name": "to",
          "type": "address"
        },
        {
          "internalType": "uint256",
          "name": "value",
          "type": "uint256"
        }
      ],
      "name": "mint",
      "outputs": [
        {
          "internalType": "bool",
          "name": "",
          "type": "bool"
        }
      ],
      "stateMutability": "nonpayable",
      "type": "function"
    },
    {
      "inputs": [],
      "name": "name",
      "outputs": [
        {
          "internalType": "string",
          "name": "",
          "type": "string"
        }
      ],
      "stateMutability": "view",
      "type": "function"
    },
    {
      "inputs": [],
      "name": "owner",
      "outputs": [
        {
          "internalType": "address",
          "name": "",
          "type": "address"
        }
      ],
      "stateMutability": "view",
      "type": "function"
    },
    {
      "inputs": [],
      "name": "paused",
      "outputs": [
        {
          "internalType": "bool",
          "name": "",
          "type": "bool"
        }
      ],
      "stateMutability": "view",
      "type": "function"
    },
    {
      "inputs": [
        {
          "internalType": "address",
          "name": "account",
          "type": "address"
        }
      ],
      "name": "removeMinter",
      "outputs": [],
      "stateMutability": "nonpayable",
      "type": "function"
    },
    {
      "inputs": [],
      "name": "renounceMinter",
      "outputs": [],
      "stateMutability": "nonpayable",
      "type": "function"
    },
    {
      "inputs": [],
      "name": "renounceOwnership",
      "outputs": [],
      "stateMutability": "nonpayable",
      "type": "function"
    },
    {
      "inputs": [],
      "name": "symbol",
      "outputs": [
        {
          "internalType": "string",
          "name": "",
          "type": "string"
        }
      ],
      "stateMutability": "view",
      "type": "function"
    },
    {
      "inputs": [],
      "name": "totalSupply",
      "outputs": [
        {
          "internalType": "uint256",
          "name": "",
          "type": "uint256"
        }
      ],
      "stateMutability": "view",
      "type": "function"
    },
    {
      "inputs": [
        {
          "internalType": "address",
          "name": "recipient",
          "type": "address"
        },
        {
          "internalType": "uint256",
          "name": "amount",
          "type": "uint256"
        }
      ],
      "name": "transfer",
      "outputs": [
        {
          "internalType": "bool",
          "name": "",
          "type": "bool"
        }
      ],
      "stateMutability": "nonpayable",
      "type": "function"
    },
    {
      "inputs": [
        {
          "internalType": "address",
          "name": "sender",
          "type": "address"
        },
        {
          "internalType": "address",
          "name": "recipient",
          "type": "address"
        },
        {
          "internalType": "uint256",
          "name": "amount",
          "type": "uint256"
        }
      ],
      "name": "transferFrom",
      "outputs": [
        {
          "internalType": "bool",
          "name": "",
          "type": "bool"
        }
      ],
      "stateMutability": "nonpayable",
      "type": "function"
    },
    {
      "inputs": [
        {
          "internalType": "address",
          "name": "newOwner",
          "type": "address"
        }
      ],
      "name": "transferOwnership",
      "outputs": [],
      "stateMutability": "nonpayable",
      "type": "function"
    }
  ],
  "bytecode": "0x60a06040523480156200001157600080fd5b50604051620019d7380380620019d78339810160408190526200003491620003c0565b82826200004a62000044620000f6565b620000fa565b81516200005f90600490602085019062000291565b5080516200007590600590602084019062000291565b50506006805460ff19169055506200008d336200014a565b620000c56040518060400160405280600a81526020016922a92199182a37b5b2b760b11b8152506200019c60201b620007951760201c565b60f81b7fff0000000000000000000000000000000000000000000000000000000000000016608052506200055e9050565b3390565b600080546001600160a01b038381166001600160a01b0319831681178455604051919092169283917f8be0079c531659141344cd1fd0a4f28419497f9722a3daafe3b4186f6b6457e09190a35050565b62000165816008620001ec60201b620007e31790919060201c565b6040516001600160a01b038216907f6ae172837ea30b801fbfcdd4108aa1d5bf8ff775444fd70256b44e6bf3dfc3f690600090a250565b60016007600083604051602001620001b5919062000441565b60408051808303601f19018152918152815160209283012083529082019290925201600020805460ff191691151591909117905550565b620001f8828262000246565b15620002215760405162461bcd60e51b815260040162000218906200045f565b60405180910390fd5b6001600160a01b0316600090815260209190915260409020805460ff19166001179055565b60006001600160a01b038216620002715760405162461bcd60e51b8152600401620002189062000496565b506001600160a01b03166000908152602091909152604090205460ff1690565b8280546200029f906200050b565b90600052602060002090601f016020900481019282620002c357600085556200030e565b82601f10620002de57805160ff19168380011785556200030e565b828001600101855582156200030e579182015b828111156200030e578251825591602001919060010190620002f1565b506200031c92915062000320565b5090565b5b808211156200031c576000815560010162000321565b600082601f83011262000348578081fd5b81516001600160401b038082111562000365576200036562000548565b604051601f8301601f1916810160200182811182821017156200038c576200038c62000548565b604052828152848301602001861015620003a4578384fd5b620003b7836020830160208801620004d8565b95945050505050565b600080600060608486031215620003d5578283fd5b83516001600160401b0380821115620003ec578485fd5b620003fa8783880162000337565b9450602086015191508082111562000410578384fd5b506200041f8682870162000337565b925050604084015160ff8116811462000436578182fd5b809150509250925092565b6000825162000455818460208701620004d8565b9190910192915050565b6020808252601f908201527f526f6c65733a206163636f756e7420616c72656164792068617320726f6c6500604082015260600190565b60208082526022908201527f526f6c65733a206163636f756e7420697320746865207a65726f206164647265604082015261737360f01b606082015260800190565b60005b83811015620004f5578181015183820152602001620004db565b8381111562000505576000848401525b50505050565b6002810460018216806200052057607f821691505b602082108114156200054257634e487b7160e01b600052602260045260246000fd5b50919050565b634e487b7160e01b600052604160045260246000fd5b60805160f81c61145a6200057d60003960006104b5015261145a6000f3fe608060405234801561001057600080fd5b506004361061014d5760003560e01c806370a08231116100c3578063986502751161007c5780639865027514610294578063a457c2d71461029c578063a9059cbb146102af578063aa271e1a146102c2578063dd62ed3e146102d5578063f2fde38b146102e85761014d565b806370a0823114610236578063715018a61461024957806379cc6790146102515780638da5cb5b1461026457806395d89b4114610279578063983b2d56146102815761014d565b80633092afd5116101155780633092afd5146101cb578063313ce567146101e057806339509351146101f557806340c10f191461020857806342966c681461021b5780635c975abb1461022e5761014d565b806306fdde0314610152578063095ea7b31461017057806318160ddd1461019057806323b872dd146101a5578063249cb3fa146101b8575b600080fd5b61015a6102fb565b6040516101679190610ed9565b60405180910390f35b61018361017e366004610e12565b61038d565b6040516101679190610ec5565b6101986103ab565b6040516101679190610ed0565b6101836101b3366004610dd7565b6103b1565b6101986101c6366004610e3b565b61044a565b6101de6101d9366004610d84565b610495565b005b6101e86104b3565b604051610167919061136a565b610183610203366004610e12565b6104d7565b610183610216366004610e12565b61052b565b6101de610229366004610e5d565b610549565b61018361055a565b610198610244366004610d84565b610563565b6101de610582565b6101de61025f366004610e12565b6105cd565b61026c610620565b6040516101679190610eb1565b61015a61062f565b6101de61028f366004610d84565b61063e565b6101de610659565b6101836102aa366004610e12565b610662565b6101836102bd366004610e12565b6106db565b6101836102d0366004610d84565b6106ef565b6101986102e3366004610da5565b6106fc565b6101de6102f6366004610d84565b610727565b60606004805461030a906113d3565b80601f0160208091040260200160405190810160405280929190818152602001828054610336906113d3565b80156103835780601f1061035857610100808354040283529160200191610383565b820191906000526020600020905b81548152906001019060200180831161036657829003601f168201915b5050505050905090565b60006103a161039a61082f565b8484610833565b5060015b92915050565b60035490565b60006103be8484846108e7565b6001600160a01b0384166000908152600260205260408120816103df61082f565b6001600160a01b03166001600160a01b031681526020019081526020016000205490508281101561042b5760405162461bcd60e51b8152600401610422906110d7565b60405180910390fd5b61043f8561043761082f565b858403610833565b506001949350505050565b60008281526007602052604081205460ff161561048d5760405160200161047090610e91565b6040516020818303038152906040528051906020012090506103a5565b5060006103a5565b61049e336106ef565b6104a757600080fd5b6104b081610a11565b50565b7f000000000000000000000000000000000000000000000000000000000000000090565b60006103a16104e461082f565b8484600260006104f261082f565b6001600160a01b03908116825260208083019390935260409182016000908120918b16815292529020546105269190611378565b610833565b6000610536336106ef565b61053f57600080fd5b6103a18383610a53565b6104b061055461082f565b82610b1f565b60065460ff1690565b6001600160a01b0381166000908152600160205260409020545b919050565b61058a61082f565b6001600160a01b031661059b610620565b6001600160a01b0316146105c15760405162461bcd60e51b81526004016104229061111f565b6105cb6000610c10565b565b60006105db836102e361082f565b9050818110156105fd5760405162461bcd60e51b815260040161042290611196565b6106118361060961082f565b848403610833565b61061b8383610b1f565b505050565b6000546001600160a01b031690565b60606005805461030a906113d3565b610647336106ef565b61065057600080fd5b6104b081610c60565b6105cb33610a11565b6000806002600061067161082f565b6001600160a01b03908116825260208083019390935260409182016000908120918816815292529020549050828110156106bd5760405162461bcd60e51b8152600401610422906112a4565b6106d16106c861082f565b85858403610833565b5060019392505050565b60006103a16106e861082f565b84846108e7565b60006103a5600883610ca2565b6001600160a01b03918216600090815260026020908152604080832093909416825291909152205490565b61072f61082f565b6001600160a01b0316610740610620565b6001600160a01b0316146107665760405162461bcd60e51b81526004016104229061111f565b6001600160a01b03811661078c5760405162461bcd60e51b815260040161042290610fc8565b6104b081610c10565b600160076000836040516020016107ac9190610e75565b60408051808303601f19018152918152815160209283012083529082019290925201600020805460ff191691151591909117905550565b6107ed8282610ca2565b1561080a5760405162461bcd60e51b815260040161042290610f4f565b6001600160a01b0316600090815260209190915260409020805460ff19166001179055565b3390565b6001600160a01b0383166108595760405162461bcd60e51b815260040161042290611260565b6001600160a01b03821661087f5760405162461bcd60e51b81526004016104229061100e565b6001600160a01b0380841660008181526002602090815260408083209487168084529490915290819020849055517f8c5be1e5ebec7d5bd14f71427d1e84f3dd0314c0f7b2291e5b200ac8c7c3b925906108da908590610ed0565b60405180910390a3505050565b6001600160a01b03831661090d5760405162461bcd60e51b81526004016104229061121b565b6001600160a01b0382166109335760405162461bcd60e51b815260040161042290610f0c565b61093e838383610cea565b6001600160a01b038316600090815260016020526040902054818110156109775760405162461bcd60e51b815260040161042290611050565b6001600160a01b038085166000908152600160205260408082208585039055918516815290812080548492906109ae908490611378565b92505081905550826001600160a01b0316846001600160a01b03167fddf252ad1be2c89b69c2b068fc378daa952ba7f163c4a11628f55a4df523b3ef846040516109f89190610ed0565b60405180910390a3610a0b84848461061b565b50505050565b610a1c600882610cf5565b6040516001600160a01b038216907fe94479a9f7e1952cc78f2d6baab678adc1b772d936c6583def489e524cb6669290600090a250565b6001600160a01b038216610a795760405162461bcd60e51b8152600401610422906112e9565b610a8560008383610cea565b8060036000828254610a979190611378565b90915550506001600160a01b03821660009081526001602052604081208054839290610ac4908490611378565b90915550506040516001600160a01b038316906000907fddf252ad1be2c89b69c2b068fc378daa952ba7f163c4a11628f55a4df523b3ef90610b07908590610ed0565b60405180910390a3610b1b6000838361061b565b5050565b6001600160a01b038216610b455760405162461bcd60e51b8152600401610422906111da565b610b5182600083610cea565b6001600160a01b03821660009081526001602052604090205481811015610b8a5760405162461bcd60e51b815260040161042290610f86565b6001600160a01b0383166000908152600160205260408120838303905560038054849290610bb9908490611390565b90915550506040516000906001600160a01b038516907fddf252ad1be2c89b69c2b068fc378daa952ba7f163c4a11628f55a4df523b3ef90610bfc908690610ed0565b60405180910390a361061b8360008461061b565b600080546001600160a01b038381166001600160a01b0319831681178455604051919092169283917f8be0079c531659141344cd1fd0a4f28419497f9722a3daafe3b4186f6b6457e09190a35050565b610c6b6008826107e3565b6040516001600160a01b038216907f6ae172837ea30b801fbfcdd4108aa1d5bf8ff775444fd70256b44e6bf3dfc3f690600090a250565b60006001600160a01b038216610cca5760405162461bcd60e51b815260040161042290611154565b506001600160a01b03166000908152602091909152604090205460ff1690565b61061b838383610d3d565b610cff8282610ca2565b610d1b5760405162461bcd60e51b815260040161042290611096565b6001600160a01b0316600090815260209190915260409020805460ff19169055565b610d4883838361061b565b610d5061055a565b1561061b5760405162461bcd60e51b815260040161042290611320565b80356001600160a01b038116811461057d57600080fd5b600060208284031215610d95578081fd5b610d9e82610d6d565b9392505050565b60008060408385031215610db7578081fd5b610dc083610d6d565b9150610dce60208401610d6d565b90509250929050565b600080600060608486031215610deb578081fd5b610df484610d6d565b9250610e0260208501610d6d565b9150604084013590509250925092565b60008060408385031215610e24578182fd5b610e2d83610d6d565b946020939093013593505050565b60008060408385031215610e4d578182fd5b82359150610dce60208401610d6d565b600060208284031215610e6e578081fd5b5035919050565b60008251610e878184602087016113a7565b9190910192915050565b73455243313832305f4143434550545f4d4147494360601b815260140190565b6001600160a01b0391909116815260200190565b901515815260200190565b90815260200190565b6000602082528251806020840152610ef88160408501602087016113a7565b601f01601f19169190910160400192915050565b60208082526023908201527f45524332303a207472616e7366657220746f20746865207a65726f206164647260408201526265737360e81b606082015260800190565b6020808252601f908201527f526f6c65733a206163636f756e7420616c72656164792068617320726f6c6500604082015260600190565b60208082526022908201527f45524332303a206275726e20616d6f756e7420657863656564732062616c616e604082015261636560f01b606082015260800190565b60208082526026908201527f4f776e61626c653a206e6577206f776e657220697320746865207a65726f206160408201526564647265737360d01b606082015260800190565b60208082526022908201527f45524332303a20617070726f766520746f20746865207a65726f206164647265604082015261737360f01b606082015260800190565b60208082526026908201527f45524332303a207472616e7366657220616d6f756e7420657863656564732062604082015265616c616e636560d01b606082015260800190565b60208082526021908201527f526f6c65733a206163636f756e7420646f6573206e6f74206861766520726f6c6040820152606560f81b606082015260800190565b60208082526028908201527f45524332303a207472616e7366657220616d6f756e74206578636565647320616040820152676c6c6f77616e636560c01b606082015260800190565b6020808252818101527f4f776e61626c653a2063616c6c6572206973206e6f7420746865206f776e6572604082015260600190565b60208082526022908201527f526f6c65733a206163636f756e7420697320746865207a65726f206164647265604082015261737360f01b606082015260800190565b60208082526024908201527f45524332303a206275726e20616d6f756e74206578636565647320616c6c6f77604082015263616e636560e01b606082015260800190565b60208082526021908201527f45524332303a206275726e2066726f6d20746865207a65726f206164647265736040820152607360f81b606082015260800190565b60208082526025908201527f45524332303a207472616e736665722066726f6d20746865207a65726f206164604082015264647265737360d81b606082015260800190565b60208082526024908201527f45524332303a20617070726f76652066726f6d20746865207a65726f206164646040820152637265737360e01b606082015260800190565b60208082526025908201527f45524332303a2064656372656173656420616c6c6f77616e63652062656c6f77604082015264207a65726f60d81b606082015260800190565b6020808252601f908201527f45524332303a206d696e7420746f20746865207a65726f206164647265737300604082015260600190565b6020808252602a908201527f45524332305061757361626c653a20746f6b656e207472616e736665722077686040820152691a5b19481c185d5cd95960b21b606082015260800190565b60ff91909116815260200190565b6000821982111561138b5761138b61140e565b500190565b6000828210156113a2576113a261140e565b500390565b60005b838110156113c25781810151838201526020016113aa565b83811115610a0b5750506000910152565b6002810460018216806113e757607f821691505b6020821081141561140857634e487b7160e01b600052602260045260246000fd5b50919050565b634e487b7160e01b600052601160045260246000fdfea264697066735822122097322d419d3246820770729da770a3a1c196270ede39601e5367826c0a8480a364736f6c63430008000033",
  "linkReferences": {},
  "deployedLinkReferences": {}
}