{
  "_format": "hh-sol-artifact-1",
  "contractName": "DataOracle",
  "sourceName": "contracts/oracle/DataOracle.sol",
  "abi": [
    {
      "anonymous": false,
      "inputs": [
        {
          "indexed": false,
          "internalType": "address",
          "name": "callerAddress",
          "type": "address"
        },
        {
          "indexed": false,
          "internalType": "uint256",
          "name": "id",
          "type": "uint256"
        }
      ],
      "name": "GetLatestDataEvent",
      "type": "event"
    },
    {
      "anonymous": false,
      "inputs": [
        {
          "indexed": true,
          "internalType": "address",
          "name": "previousOwner",
          "type": "address"
        },
        {
          "indexed": true,
          "internalType": "address",
          "name": "newOwner",
          "type": "address"
        }
      ],
      "name": "OwnershipTransferred",
      "type": "event"
    },
    {
      "anonymous": false,
      "inputs": [
        {
          "indexed": false,
          "internalType": "string",
          "name": "data",
          "type": "string"
        },
        {
          "indexed": false,
          "internalType": "address",
          "name": "callerAddress",
          "type": "address"
        }
      ],
      "name": "SetLatestDataEvent",
      "type": "event"
    },
    {
      "inputs": [],
      "name": "getLatestData",
      "outputs": [
        {
          "internalType": "uint256",
          "name": "",
          "type": "uint256"
        }
      ],
      "stateMutability": "nonpayable",
      "type": "function"
    },
    {
      "inputs": [],
      "name": "owner",
      "outputs": [
        {
          "internalType": "address",
          "name": "",
          "type": "address"
        }
      ],
      "stateMutability": "view",
      "type": "function"
    },
    {
      "inputs": [],
      "name": "renounceOwnership",
      "outputs": [],
      "stateMutability": "nonpayable",
      "type": "function"
    },
    {
      "inputs": [
        {
          "internalType": "string",
          "name": "_data",
          "type": "string"
        },
        {
          "internalType": "address",
          "name": "_callerAddress",
          "type": "address"
        },
        {
          "internalType": "uint256",
          "name": "_id",
          "type": "uint256"
        }
      ],
      "name": "setLatestData",
      "outputs": [],
      "stateMutability": "nonpayable",
      "type": "function"
    },
    {
      "inputs": [
        {
          "internalType": "address",
          "name": "newOwner",
          "type": "address"
        }
      ],
      "name": "transferOwnership",
      "outputs": [],
      "stateMutability": "nonpayable",
      "type": "function"
    }
  ],
  "bytecode": "0x608060405260006001556103e860025534801561001b57600080fd5b5061003861002d61003d60201b60201c565b61004560201b60201c565b610109565b600033905090565b60008060009054906101000a900473ffffffffffffffffffffffffffffffffffffffff169050816000806101000a81548173ffffffffffffffffffffffffffffffffffffffff021916908373ffffffffffffffffffffffffffffffffffffffff1602179055508173ffffffffffffffffffffffffffffffffffffffff168173ffffffffffffffffffffffffffffffffffffffff167f8be0079c531659141344cd1fd0a4f28419497f9722a3daafe3b4186f6b6457e060405160405180910390a35050565b610cd1806101186000396000f3fe608060405234801561001057600080fd5b50600436106100575760003560e01c8063715018a61461005c5780638da5cb5b14610066578063ab757d6114610084578063ea2c8c5a146100a2578063f2fde38b146100be575b600080fd5b6100646100da565b005b61006e610162565b60405161007b9190610813565b60405180910390f35b61008c61018b565b60405161009991906108e7565b60405180910390f35b6100bc60048036038101906100b79190610681565b610252565b005b6100d860048036038101906100d39190610658565b610402565b005b6100e26104fa565b73ffffffffffffffffffffffffffffffffffffffff16610100610162565b73ffffffffffffffffffffffffffffffffffffffff1614610156576040517f08c379a000000000000000000000000000000000000000000000000000000000815260040161014d906108a7565b60405180910390fd5b6101606000610502565b565b60008060009054906101000a900473ffffffffffffffffffffffffffffffffffffffff16905090565b6000600160008154809291906101a090610a53565b9190505550600060025442336001546040516020016101c1939291906107d6565b6040516020818303038152906040528051906020012060001c6101e49190610aca565b905060016003600083815260200190815260200160002060006101000a81548160ff0219169083151502179055507fd668582a8632d2c0ad89fda7deb1fab7070807ffa54eda70ce4dc69d685a2e6a338260405161024392919061082e565b60405180910390a18091505090565b61025a6104fa565b73ffffffffffffffffffffffffffffffffffffffff16610278610162565b73ffffffffffffffffffffffffffffffffffffffff16146102ce576040517f08c379a00000000000000000000000000000000000000000000000000000000081526004016102c5906108a7565b60405180910390fd5b6003600082815260200190815260200160002060009054906101000a900460ff1661032e576040517f08c379a0000000000000000000000000000000000000000000000000000000008152600401610325906108c7565b60405180910390fd5b6003600082815260200190815260200160002060006101000a81549060ff021916905560008290508073ffffffffffffffffffffffffffffffffffffffff1663b69a375d83866040518363ffffffff1660e01b8152600401610391929190610902565b600060405180830381600087803b1580156103ab57600080fd5b505af11580156103bf573d6000803e3d6000fd5b505050507f0f123bfeaa022703db11e76be0d8adb30a81c9d390d6673e64fc00bfa481d10284846040516103f4929190610857565b60405180910390a150505050565b61040a6104fa565b73ffffffffffffffffffffffffffffffffffffffff16610428610162565b73ffffffffffffffffffffffffffffffffffffffff161461047e576040517f08c379a0000000000000000000000000000000000000000000000000000000008152600401610475906108a7565b60405180910390fd5b600073ffffffffffffffffffffffffffffffffffffffff168173ffffffffffffffffffffffffffffffffffffffff1614156104ee576040517f08c379a00000000000000000000000000000000000000000000000000000000081526004016104e590610887565b60405180910390fd5b6104f781610502565b50565b600033905090565b60008060009054906101000a900473ffffffffffffffffffffffffffffffffffffffff169050816000806101000a81548173ffffffffffffffffffffffffffffffffffffffff021916908373ffffffffffffffffffffffffffffffffffffffff1602179055508173ffffffffffffffffffffffffffffffffffffffff168173ffffffffffffffffffffffffffffffffffffffff167f8be0079c531659141344cd1fd0a4f28419497f9722a3daafe3b4186f6b6457e060405160405180910390a35050565b60006105d96105d484610957565b610932565b9050828152602081018484840111156105f157600080fd5b6105fc8482856109e0565b509392505050565b60008135905061061381610c6d565b92915050565b600082601f83011261062a57600080fd5b813561063a8482602086016105c6565b91505092915050565b60008135905061065281610c84565b92915050565b60006020828403121561066a57600080fd5b600061067884828501610604565b91505092915050565b60008060006060848603121561069657600080fd5b600084013567ffffffffffffffff8111156106b057600080fd5b6106bc86828701610619565b93505060206106cd86828701610604565b92505060406106de86828701610643565b9150509250925092565b6106f1816109a4565b82525050565b610708610703826109a4565b610a9c565b82525050565b600061071982610988565b6107238185610993565b93506107338185602086016109ef565b61073c81610b88565b840191505092915050565b6000610754602683610993565b915061075f82610ba6565b604082019050919050565b6000610777602083610993565b915061078282610bf5565b602082019050919050565b600061079a602783610993565b91506107a582610c1e565b604082019050919050565b6107b9816109d6565b82525050565b6107d06107cb826109d6565b610ac0565b82525050565b60006107e282866107bf565b6020820191506107f282856106f7565b60148201915061080282846107bf565b602082019150819050949350505050565b600060208201905061082860008301846106e8565b92915050565b600060408201905061084360008301856106e8565b61085060208301846107b0565b9392505050565b60006040820190508181036000830152610871818561070e565b905061088060208301846106e8565b9392505050565b600060208201905081810360008301526108a081610747565b9050919050565b600060208201905081810360008301526108c08161076a565b9050919050565b600060208201905081810360008301526108e08161078d565b9050919050565b60006020820190506108fc60008301846107b0565b92915050565b600060408201905061091760008301856107b0565b8181036020830152610929818461070e565b90509392505050565b600061093c61094d565b90506109488282610a22565b919050565b6000604051905090565b600067ffffffffffffffff82111561097257610971610b59565b5b61097b82610b88565b9050602081019050919050565b600081519050919050565b600082825260208201905092915050565b60006109af826109b6565b9050919050565b600073ffffffffffffffffffffffffffffffffffffffff82169050919050565b6000819050919050565b82818337600083830152505050565b60005b83811015610a0d5780820151818401526020810190506109f2565b83811115610a1c576000848401525b50505050565b610a2b82610b88565b810181811067ffffffffffffffff82111715610a4a57610a49610b59565b5b80604052505050565b6000610a5e826109d6565b91507fffffffffffffffffffffffffffffffffffffffffffffffffffffffffffffffff821415610a9157610a90610afb565b5b600182019050919050565b6000610aa782610aae565b9050919050565b6000610ab982610b99565b9050919050565b6000819050919050565b6000610ad5826109d6565b9150610ae0836109d6565b925082610af057610aef610b2a565b5b828206905092915050565b7f4e487b7100000000000000000000000000000000000000000000000000000000600052601160045260246000fd5b7f4e487b7100000000000000000000000000000000000000000000000000000000600052601260045260246000fd5b7f4e487b7100000000000000000000000000000000000000000000000000000000600052604160045260246000fd5b6000601f19601f8301169050919050565b60008160601b9050919050565b7f4f776e61626c653a206e6577206f776e657220697320746865207a65726f206160008201527f6464726573730000000000000000000000000000000000000000000000000000602082015250565b7f4f776e61626c653a2063616c6c6572206973206e6f7420746865206f776e6572600082015250565b7f546869732072657175657374206973206e6f7420696e206d792070656e64696e60008201527f67206c6973742e00000000000000000000000000000000000000000000000000602082015250565b610c76816109a4565b8114610c8157600080fd5b50565b610c8d816109d6565b8114610c9857600080fd5b5056fea2646970667358221220c0294565658a6fc424cdd3254e29dabb371e843994f70a8bfb12afe765569d9564736f6c63430008040033",
  "linkReferences": {},
  "deployedLinkReferences": {}
}