{
  "_format": "hh-sol-artifact-1",
  "contractName": "DataOracle",
  "sourceName": "contracts/oracle/DataOracle.sol",
  "abi": [
    {
      "anonymous": false,
      "inputs": [
        {
          "indexed": false,
          "internalType": "address",
          "name": "callerAddress",
          "type": "address"
        },
        {
          "indexed": false,
          "internalType": "uint256",
          "name": "id",
          "type": "uint256"
        }
      ],
      "name": "GetLatestDataEvent",
      "type": "event"
    },
    {
      "anonymous": false,
      "inputs": [
        {
          "indexed": true,
          "internalType": "address",
          "name": "previousOwner",
          "type": "address"
        },
        {
          "indexed": true,
          "internalType": "address",
          "name": "newOwner",
          "type": "address"
        }
      ],
      "name": "OwnershipTransferred",
      "type": "event"
    },
    {
      "anonymous": false,
      "inputs": [
        {
          "indexed": false,
          "internalType": "uint256",
          "name": "tokens",
          "type": "uint256"
        },
        {
          "indexed": false,
          "internalType": "address",
          "name": "employeeAddress",
          "type": "address"
        }
      ],
      "name": "SetLatestDataEvent",
      "type": "event"
    },
    {
      "inputs": [],
      "name": "getLatestData",
      "outputs": [
        {
          "internalType": "uint256",
          "name": "",
          "type": "uint256"
        }
      ],
      "stateMutability": "nonpayable",
      "type": "function"
    },
    {
      "inputs": [],
      "name": "owner",
      "outputs": [
        {
          "internalType": "address",
          "name": "",
          "type": "address"
        }
      ],
      "stateMutability": "view",
      "type": "function"
    },
    {
      "inputs": [],
      "name": "renounceOwnership",
      "outputs": [],
      "stateMutability": "nonpayable",
      "type": "function"
    },
    {
      "inputs": [
        {
          "internalType": "uint256",
          "name": "_tokens",
          "type": "uint256"
        },
        {
          "internalType": "address",
          "name": "_employeeAddress",
          "type": "address"
        },
        {
          "internalType": "address",
          "name": "_callerAddress",
          "type": "address"
        },
        {
          "internalType": "uint256",
          "name": "_id",
          "type": "uint256"
        }
      ],
      "name": "setLatestData",
      "outputs": [],
      "stateMutability": "nonpayable",
      "type": "function"
    },
    {
      "inputs": [
        {
          "internalType": "address",
          "name": "newOwner",
          "type": "address"
        }
      ],
      "name": "transferOwnership",
      "outputs": [],
      "stateMutability": "nonpayable",
      "type": "function"
    }
  ],
  "bytecode": "0x608060405260006001556103e860025534801561001b57600080fd5b5061003861002d61003d60201b60201c565b61004560201b60201c565b610109565b600033905090565b60008060009054906101000a900473ffffffffffffffffffffffffffffffffffffffff169050816000806101000a81548173ffffffffffffffffffffffffffffffffffffffff021916908373ffffffffffffffffffffffffffffffffffffffff1602179055508173ffffffffffffffffffffffffffffffffffffffff168173ffffffffffffffffffffffffffffffffffffffff167f8be0079c531659141344cd1fd0a4f28419497f9722a3daafe3b4186f6b6457e060405160405180910390a35050565b610b1b806101186000396000f3fe608060405234801561001057600080fd5b50600436106100575760003560e01c8063715018a61461005c5780638da5cb5b14610066578063a5c3e08b14610084578063ab757d61146100a0578063f2fde38b146100be575b600080fd5b6100646100da565b005b61006e610162565b60405161007b9190610771565b60405180910390f35b61009e6004803603810190610099919061061c565b61018b565b005b6100a861033e565b6040516100b59190610815565b60405180910390f35b6100d860048036038101906100d391906105f3565b610405565b005b6100e26104fd565b73ffffffffffffffffffffffffffffffffffffffff16610100610162565b73ffffffffffffffffffffffffffffffffffffffff1614610156576040517f08c379a000000000000000000000000000000000000000000000000000000000815260040161014d906107d5565b60405180910390fd5b6101606000610505565b565b60008060009054906101000a900473ffffffffffffffffffffffffffffffffffffffff16905090565b6101936104fd565b73ffffffffffffffffffffffffffffffffffffffff166101b1610162565b73ffffffffffffffffffffffffffffffffffffffff1614610207576040517f08c379a00000000000000000000000000000000000000000000000000000000081526004016101fe906107d5565b60405180910390fd5b6003600082815260200190815260200160002060009054906101000a900460ff16610267576040517f08c379a000000000000000000000000000000000000000000000000000000000815260040161025e906107f5565b60405180910390fd5b6003600082815260200190815260200160002060006101000a81549060ff021916905560008290508073ffffffffffffffffffffffffffffffffffffffff16638277e7e88387876040518463ffffffff1660e01b81526004016102cc93929190610859565b600060405180830381600087803b1580156102e657600080fd5b505af11580156102fa573d6000803e3d6000fd5b505050507f79a604c74363a21ea9abf16ff389a1f8af690fe268dfc7ca8b241245c8bf7e29858560405161032f929190610830565b60405180910390a15050505050565b600060016000815480929190610353906108dd565b91905055506000600254423360015460405160200161037493929190610734565b6040516020818303038152906040528051906020012060001c6103979190610954565b905060016003600083815260200190815260200160002060006101000a81548160ff0219169083151502179055507fd668582a8632d2c0ad89fda7deb1fab7070807ffa54eda70ce4dc69d685a2e6a33826040516103f692919061078c565b60405180910390a18091505090565b61040d6104fd565b73ffffffffffffffffffffffffffffffffffffffff1661042b610162565b73ffffffffffffffffffffffffffffffffffffffff1614610481576040517f08c379a0000000000000000000000000000000000000000000000000000000008152600401610478906107d5565b60405180910390fd5b600073ffffffffffffffffffffffffffffffffffffffff168173ffffffffffffffffffffffffffffffffffffffff1614156104f1576040517f08c379a00000000000000000000000000000000000000000000000000000000081526004016104e8906107b5565b60405180910390fd5b6104fa81610505565b50565b600033905090565b60008060009054906101000a900473ffffffffffffffffffffffffffffffffffffffff169050816000806101000a81548173ffffffffffffffffffffffffffffffffffffffff021916908373ffffffffffffffffffffffffffffffffffffffff1602179055508173ffffffffffffffffffffffffffffffffffffffff168173ffffffffffffffffffffffffffffffffffffffff167f8be0079c531659141344cd1fd0a4f28419497f9722a3daafe3b4186f6b6457e060405160405180910390a35050565b6000813590506105d881610ab7565b92915050565b6000813590506105ed81610ace565b92915050565b60006020828403121561060557600080fd5b6000610613848285016105c9565b91505092915050565b6000806000806080858703121561063257600080fd5b6000610640878288016105de565b9450506020610651878288016105c9565b9350506040610662878288016105c9565b9250506060610673878288016105de565b91505092959194509250565b610688816108a1565b82525050565b61069f61069a826108a1565b610926565b82525050565b60006106b2602683610890565b91506106bd826109f0565b604082019050919050565b60006106d5602083610890565b91506106e082610a3f565b602082019050919050565b60006106f8602783610890565b915061070382610a68565b604082019050919050565b610717816108d3565b82525050565b61072e610729826108d3565b61094a565b82525050565b6000610740828661071d565b602082019150610750828561068e565b601482019150610760828461071d565b602082019150819050949350505050565b6000602082019050610786600083018461067f565b92915050565b60006040820190506107a1600083018561067f565b6107ae602083018461070e565b9392505050565b600060208201905081810360008301526107ce816106a5565b9050919050565b600060208201905081810360008301526107ee816106c8565b9050919050565b6000602082019050818103600083015261080e816106eb565b9050919050565b600060208201905061082a600083018461070e565b92915050565b6000604082019050610845600083018561070e565b610852602083018461067f565b9392505050565b600060608201905061086e600083018661070e565b61087b602083018561070e565b610888604083018461067f565b949350505050565b600082825260208201905092915050565b60006108ac826108b3565b9050919050565b600073ffffffffffffffffffffffffffffffffffffffff82169050919050565b6000819050919050565b60006108e8826108d3565b91507fffffffffffffffffffffffffffffffffffffffffffffffffffffffffffffffff82141561091b5761091a610985565b5b600182019050919050565b600061093182610938565b9050919050565b6000610943826109e3565b9050919050565b6000819050919050565b600061095f826108d3565b915061096a836108d3565b92508261097a576109796109b4565b5b828206905092915050565b7f4e487b7100000000000000000000000000000000000000000000000000000000600052601160045260246000fd5b7f4e487b7100000000000000000000000000000000000000000000000000000000600052601260045260246000fd5b60008160601b9050919050565b7f4f776e61626c653a206e6577206f776e657220697320746865207a65726f206160008201527f6464726573730000000000000000000000000000000000000000000000000000602082015250565b7f4f776e61626c653a2063616c6c6572206973206e6f7420746865206f776e6572600082015250565b7f546869732072657175657374206973206e6f7420696e206d792070656e64696e60008201527f67206c6973742e00000000000000000000000000000000000000000000000000602082015250565b610ac0816108a1565b8114610acb57600080fd5b50565b610ad7816108d3565b8114610ae257600080fd5b5056fea26469706673582212207b4d89d2428066ba80ab8c5a8d816eafdef9da720f7f1f087ff7655728b34c2464736f6c63430008040033",
  "linkReferences": {},
  "deployedLinkReferences": {}
}