{
  "_format": "hh-sol-artifact-1",
  "contractName": "ERC1400TokensRecipientMock",
  "sourceName": "contracts/ERC1400/mocks/ERC1400TokensRecipientMock.sol",
  "abi": [
    {
      "inputs": [],
      "stateMutability": "nonpayable",
      "type": "constructor"
    },
    {
      "inputs": [
        {
          "internalType": "bytes32",
          "name": "interfaceHash",
          "type": "bytes32"
        },
        {
          "internalType": "address",
          "name": "",
          "type": "address"
        }
      ],
      "name": "canImplementInterfaceForAddress",
      "outputs": [
        {
          "internalType": "bytes32",
          "name": "",
          "type": "bytes32"
        }
      ],
      "stateMutability": "view",
      "type": "function"
    },
    {
      "inputs": [
        {
          "internalType": "bytes",
          "name": "",
          "type": "bytes"
        },
        {
          "internalType": "bytes32",
          "name": "",
          "type": "bytes32"
        },
        {
          "internalType": "address",
          "name": "",
          "type": "address"
        },
        {
          "internalType": "address",
          "name": "from",
          "type": "address"
        },
        {
          "internalType": "address",
          "name": "to",
          "type": "address"
        },
        {
          "internalType": "uint256",
          "name": "value",
          "type": "uint256"
        },
        {
          "internalType": "bytes",
          "name": "data",
          "type": "bytes"
        },
        {
          "internalType": "bytes",
          "name": "",
          "type": "bytes"
        }
      ],
      "name": "canReceive",
      "outputs": [
        {
          "internalType": "bool",
          "name": "",
          "type": "bool"
        }
      ],
      "stateMutability": "pure",
      "type": "function"
    },
    {
      "inputs": [
        {
          "internalType": "bytes",
          "name": "",
          "type": "bytes"
        },
        {
          "internalType": "bytes32",
          "name": "",
          "type": "bytes32"
        },
        {
          "internalType": "address",
          "name": "",
          "type": "address"
        },
        {
          "internalType": "address",
          "name": "from",
          "type": "address"
        },
        {
          "internalType": "address",
          "name": "to",
          "type": "address"
        },
        {
          "internalType": "uint256",
          "name": "value",
          "type": "uint256"
        },
        {
          "internalType": "bytes",
          "name": "data",
          "type": "bytes"
        },
        {
          "internalType": "bytes",
          "name": "",
          "type": "bytes"
        }
      ],
      "name": "tokensReceived",
      "outputs": [],
      "stateMutability": "pure",
      "type": "function"
    }
  ],
  "bytecode": "0x608060405234801561001057600080fd5b506100596040518060400160405280601681526020017f45524331343030546f6b656e73526563697069656e740000000000000000000081525061005e60201b6101b91760201c565b6100e4565b60016000808360405160200161007491906100ab565b60408051808303601f19018152918152815160209283012083529082019290925201600020805460ff191691151591909117905550565b60008251815b818110156100cb57602081860181015185830152016100b1565b818111156100d95782828501525b509190910192915050565b610462806100f36000396000f3fe608060405234801561001057600080fd5b50600436106100415760003560e01c8063249cb3fa14610046578063f464b5761461006f578063f55886df14610084575b600080fd5b610059610054366004610299565b6100a4565b6040516100669190610407565b60405180910390f35b61008261007d3660046102c4565b6100f1565b005b6100976100923660046102c4565b610165565b60405161006691906103fc565b60008281526020819052604081205460ff16156100e7576040516020016100ca906103dc565b6040516020818303038152906040528051906020012090506100eb565b5060005b92915050565b61013387878787878080601f01602080910402602001604051908101604052809392919081815260200183838082843760009201919091525061020692505050565b6101585760405162461bcd60e51b815260040161014f90610410565b60405180910390fd5b5050505050505050505050565b60006101a988888888888080601f01602080910402602001604051908101604052809392919081815260200183838082843760009201919091525061020692505050565b9c9b505050505050505050505050565b6001600080836040516020016101cf91906103a3565b60408051808303601f19018152918152815160209283012083529082019290925201600020805460ff191691151591909117905550565b6020810151600090601160f91b90808214156102275760009250505061022e565b6001925050505b949350505050565b80356001600160a01b038116811461024d57600080fd5b919050565b60008083601f840112610263578182fd5b50813567ffffffffffffffff81111561027a578182fd5b60208301915083602082850101111561029257600080fd5b9250929050565b600080604083850312156102ab578182fd5b823591506102bb60208401610236565b90509250929050565b60008060008060008060008060008060006101008c8e0312156102e5578687fd5b67ffffffffffffffff808d3511156102fb578788fd5b6103088e8e358f01610252565b909c509a5060208d0135995061032060408e01610236565b985061032e60608e01610236565b975061033c60808e01610236565b965060a08d013595508060c08e01351115610355578485fd5b6103658e60c08f01358f01610252565b909550935060e08d013581101561037a578283fd5b5061038b8d60e08e01358e01610252565b81935080925050509295989b509295989b9093969950565b60008251815b818110156103c357602081860181015185830152016103a9565b818111156103d15782828501525b509190910192915050565b73455243313832305f4143434550545f4d4147494360601b815260140190565b901515815260200190565b90815260200190565b602080825260029082015261353760f01b60408201526060019056fea2646970667358221220facf98e3b1105f7c6960618316c9f0015112a0eabf3871b17463cb311fdb74aa64736f6c63430008000033",
  "linkReferences": {},
  "deployedLinkReferences": {}
}