{
  "contractName": "BatchTokenIssuer",
  "abi": [
    {
      "inputs": [],
      "stateMutability": "nonpayable",
      "type": "constructor"
    },
    {
      "inputs": [
        {
          "internalType": "bytes32",
          "name": "interfaceHash",
          "type": "bytes32"
        },
        {
          "internalType": "address",
          "name": "",
          "type": "address"
        }
      ],
      "name": "canImplementInterfaceForAddress",
      "outputs": [
        {
          "internalType": "bytes32",
          "name": "",
          "type": "bytes32"
        }
      ],
      "stateMutability": "view",
      "type": "function"
    },
    {
      "inputs": [
        {
          "internalType": "address",
          "name": "token",
          "type": "address"
        },
        {
          "internalType": "bytes32[]",
          "name": "partitions",
          "type": "bytes32[]"
        },
        {
          "internalType": "address[]",
          "name": "tokenHolders",
          "type": "address[]"
        },
        {
          "internalType": "uint256[]",
          "name": "values",
          "type": "uint256[]"
        }
      ],
      "name": "batchIssueByPartition",
      "outputs": [],
      "stateMutability": "nonpayable",
      "type": "function"
    }
  ],
  "bytecode": "0x608060405234801561000f575f80fd5b506100546040518060400160405280601081526020017f4261746368546f6b656e4973737565720000000000000000000000000000000081525061005960201b60201c565b610112565b60015f808360405160200161006e91906100fc565b6040516020818303038152906040528051906020012081526020019081526020015f205f6101000a81548160ff02191690831515021790555050565b5f81519050919050565b5f81905092915050565b8281835e5f83830152505050565b5f6100d6826100aa565b6100e081856100b4565b93506100f08185602086016100be565b80840191505092915050565b5f61010782846100cc565b915081905092915050565b61097c8061011f5f395ff3fe608060405234801561000f575f80fd5b5060043610610034575f3560e01c8063249cb3fa14610038578063edec7e1514610068575b5f80fd5b610052600480360381019061004d91906103a2565b610084565b60405161005f91906103ef565b60405180910390f35b610082600480360381019061007d9190610513565b6100dd565b005b5f805f8481526020019081526020015f205f9054906101000a900460ff16156100d3576040516020016100b69061062b565b6040516020818303038152906040528051906020012090506100d7565b5f90505b92915050565b868073ffffffffffffffffffffffffffffffffffffffff1663aa271e1a336040518263ffffffff1660e01b8152600401610117919061064e565b602060405180830381865afa158015610132573d5f803e3d5ffd5b505050506040513d601f19601f82011682018060405250810190610156919061069c565b610195576040517f08c379a000000000000000000000000000000000000000000000000000000000815260040161018c90610721565b60405180910390fd5b8484905087879050146101dd576040517f08c379a00000000000000000000000000000000000000000000000000000000081526004016101d4906107af565b60405180910390fd5b828290508787905014610225576040517f08c379a000000000000000000000000000000000000000000000000000000000815260040161021c9061083d565b60405180910390fd5b5f5b87879050811015610302578873ffffffffffffffffffffffffffffffffffffffff166367c849198989848181106102615761026061085b565b5b9050602002013588888581811061027b5761027a61085b565b5b90506020020160208101906102909190610888565b8787868181106102a3576102a261085b565b5b905060200201356040518463ffffffff1660e01b81526004016102c8939291906108fe565b5f604051808303815f87803b1580156102df575f80fd5b505af11580156102f1573d5f803e3d5ffd5b505050508080600101915050610227565b505050505050505050565b5f80fd5b5f80fd5b5f819050919050565b61032781610315565b8114610331575f80fd5b50565b5f813590506103428161031e565b92915050565b5f73ffffffffffffffffffffffffffffffffffffffff82169050919050565b5f61037182610348565b9050919050565b61038181610367565b811461038b575f80fd5b50565b5f8135905061039c81610378565b92915050565b5f80604083850312156103b8576103b761030d565b5b5f6103c585828601610334565b92505060206103d68582860161038e565b9150509250929050565b6103e981610315565b82525050565b5f6020820190506104025f8301846103e0565b92915050565b5f80fd5b5f80fd5b5f80fd5b5f8083601f84011261042957610428610408565b5b8235905067ffffffffffffffff8111156104465761044561040c565b5b60208301915083602082028301111561046257610461610410565b5b9250929050565b5f8083601f84011261047e5761047d610408565b5b8235905067ffffffffffffffff81111561049b5761049a61040c565b5b6020830191508360208202830111156104b7576104b6610410565b5b9250929050565b5f8083601f8401126104d3576104d2610408565b5b8235905067ffffffffffffffff8111156104f0576104ef61040c565b5b60208301915083602082028301111561050c5761050b610410565b5b9250929050565b5f805f805f805f6080888a03121561052e5761052d61030d565b5b5f61053b8a828b0161038e565b975050602088013567ffffffffffffffff81111561055c5761055b610311565b5b6105688a828b01610414565b9650965050604088013567ffffffffffffffff81111561058b5761058a610311565b5b6105978a828b01610469565b9450945050606088013567ffffffffffffffff8111156105ba576105b9610311565b5b6105c68a828b016104be565b925092505092959891949750929550565b5f81905092915050565b7f455243313832305f4143434550545f4d414749430000000000000000000000005f82015250565b5f6106156014836105d7565b9150610620826105e1565b601482019050919050565b5f61063582610609565b9150819050919050565b61064881610367565b82525050565b5f6020820190506106615f83018461063f565b92915050565b5f8115159050919050565b61067b81610667565b8114610685575f80fd5b50565b5f8151905061069681610672565b92915050565b5f602082840312156106b1576106b061030d565b5b5f6106be84828501610688565b91505092915050565b5f82825260208201905092915050565b7f53656e646572206973206e6f74206120746f6b656e206d696e7465722e0000005f82015250565b5f61070b601d836106c7565b9150610716826106d7565b602082019050919050565b5f6020820190508181035f830152610738816106ff565b9050919050565b7f706172746974696f6e7320616e6420746f6b656e486f6c6465727320617272615f8201527f7973206861766520646966666572656e74206c656e6774687300000000000000602082015250565b5f6107996039836106c7565b91506107a48261073f565b604082019050919050565b5f6020820190508181035f8301526107c68161078d565b9050919050565b7f706172746974696f6e7320616e642076616c75657320617272617973206861765f8201527f6520646966666572656e74206c656e6774687300000000000000000000000000602082015250565b5f6108276033836106c7565b9150610832826107cd565b604082019050919050565b5f6020820190508181035f8301526108548161081b565b9050919050565b7f4e487b71000000000000000000000000000000000000000000000000000000005f52603260045260245ffd5b5f6020828403121561089d5761089c61030d565b5b5f6108aa8482850161038e565b91505092915050565b5f819050919050565b6108c5816108b3565b82525050565b5f82825260208201905092915050565b50565b5f6108e95f836108cb565b91506108f4826108db565b5f82019050919050565b5f6080820190506109115f8301866103e0565b61091e602083018561063f565b61092b60408301846108bc565b818103606083015261093c816108de565b905094935050505056fea264697066735822122049b97a8d142356e305a556c47a92cfcb3192da85155f61e634c7ce60c534964b64736f6c63430008190033",
  "immutableReferences": {},
  "source": "// SPDX-License-Identifier: Apache-2.0\n/*\n * This code has not been reviewed.\n * Do not use or deploy this code before reviewing it personally first.\n */\npragma solidity ^0.8.0;\n\nimport \"@openzeppelin/contracts/access/Ownable.sol\";\nimport \"@openzeppelin/contracts/token/ERC20/IERC20.sol\";\n\nimport \"../interface/ERC1820Implementer.sol\";\n\nimport \"../IERC1400.sol\";\n\n/**\n * @notice Interface to the Minterrole contract\n */\ninterface IMinterRole {\n  function isMinter(address account) external view returns (bool);\n}\n\n/**\n * @title BatchTokenIssuer\n * @dev Proxy contract to issue multiple ERC1400/ERC20 tokens in a single transaction.\n */\ncontract BatchTokenIssuer is ERC1820Implementer {\n\n  string constant internal BATCH_ISSUER = \"BatchTokenIssuer\";\n\n  // Mapping from token to token minters.\n  mapping(address => address[]) internal _tokenMinters;\n\n  // Mapping from (token, operator) to token minter status.\n  mapping(address => mapping(address => bool)) internal _isTokenMinter;\n\n  /**\n   * @dev Modifier to verify if sender is a token minter.\n   */\n  modifier onlyTokenMinter(address token) {\n    require(IMinterRole(token).isMinter(msg.sender),\n      \"Sender is not a token minter.\"\n    );\n    _;\n  }\n\n  constructor() {\n    ERC1820Implementer._setInterface(BATCH_ISSUER);\n  }\n\n  /**\n   * @dev Issue tokens for multiple addresses.\n   * @param token Address of token where the tokens need to be issued.\n   * @param partitions Name of the partitions.\n   * @param tokenHolders Addresses for which we want to issue tokens.\n   * @param values Number of tokens issued.\n   */\n  function batchIssueByPartition(\n    address token,\n    bytes32[] calldata partitions,\n    address[] calldata tokenHolders,\n    uint256[] calldata values\n  )\n    external\n    onlyTokenMinter(token)\n  {\n    require(partitions.length == tokenHolders.length, \"partitions and tokenHolders arrays have different lengths\");\n    require(partitions.length == values.length, \"partitions and values arrays have different lengths\");\n    \n    for (uint i = 0; i < partitions.length; i++) {\n        IERC1400(token).issueByPartition(partitions[i], tokenHolders[i], values[i], \"\");\n    }\n  }\n\n}\n",
  "sourcePath": "/Users/sergio/Library/Mobile Documents/com~apple~CloudDocs/Master-ciberseguridad-y-privacidad/2-Quatrimestre/TFM/project/truffle/contracts/ERC1400/tools/BatchTokenIssuer.sol",
  "compiler": {
    "name": "solc",
    "version": "0.8.25+commit.b61c2a91.Emscripten.clang"
  },
  "schemaVersion": "3.4.16",
  "updatedAt": "2024-05-02T17:32:43.537Z",
  "devdoc": {
    "details": "Proxy contract to issue multiple ERC1400/ERC20 tokens in a single transaction.",
    "kind": "dev",
    "methods": {
      "batchIssueByPartition(address,bytes32[],address[],uint256[])": {
        "details": "Issue tokens for multiple addresses.",
        "params": {
          "partitions": "Name of the partitions.",
          "token": "Address of token where the tokens need to be issued.",
          "tokenHolders": "Addresses for which we want to issue tokens.",
          "values": "Number of tokens issued."
        }
      }
    },
    "title": "BatchTokenIssuer",
    "version": 1
  },
  "userdoc": {
    "kind": "user",
    "methods": {},
    "version": 1
  }
}