{
  "contractName": "BatchBalanceReader",
  "abi": [
    {
      "inputs": [],
      "stateMutability": "nonpayable",
      "type": "constructor"
    },
    {
      "inputs": [
        {
          "internalType": "bytes32",
          "name": "interfaceHash",
          "type": "bytes32"
        },
        {
          "internalType": "address",
          "name": "",
          "type": "address"
        }
      ],
      "name": "canImplementInterfaceForAddress",
      "outputs": [
        {
          "internalType": "bytes32",
          "name": "",
          "type": "bytes32"
        }
      ],
      "stateMutability": "view",
      "type": "function"
    },
    {
      "inputs": [
        {
          "internalType": "address[]",
          "name": "tokenHolders",
          "type": "address[]"
        },
        {
          "internalType": "address[]",
          "name": "tokenAddresses",
          "type": "address[]"
        },
        {
          "internalType": "bytes32[]",
          "name": "partitions",
          "type": "bytes32[]"
        }
      ],
      "name": "balancesOfByPartition",
      "outputs": [
        {
          "internalType": "uint256[]",
          "name": "",
          "type": "uint256[]"
        }
      ],
      "stateMutability": "view",
      "type": "function"
    },
    {
      "inputs": [
        {
          "internalType": "address[]",
          "name": "tokenHolders",
          "type": "address[]"
        },
        {
          "internalType": "address[]",
          "name": "tokenAddresses",
          "type": "address[]"
        }
      ],
      "name": "balancesOf",
      "outputs": [
        {
          "internalType": "uint256[]",
          "name": "",
          "type": "uint256[]"
        }
      ],
      "stateMutability": "view",
      "type": "function"
    },
    {
      "inputs": [
        {
          "internalType": "bytes32[]",
          "name": "partitions",
          "type": "bytes32[]"
        },
        {
          "internalType": "address[]",
          "name": "tokenAddresses",
          "type": "address[]"
        }
      ],
      "name": "totalSuppliesByPartition",
      "outputs": [
        {
          "internalType": "uint256[]",
          "name": "",
          "type": "uint256[]"
        }
      ],
      "stateMutability": "view",
      "type": "function"
    },
    {
      "inputs": [
        {
          "internalType": "address[]",
          "name": "tokenAddresses",
          "type": "address[]"
        }
      ],
      "name": "totalSupplies",
      "outputs": [
        {
          "internalType": "uint256[]",
          "name": "",
          "type": "uint256[]"
        }
      ],
      "stateMutability": "view",
      "type": "function"
    }
  ],
  "bytecode": "0x608060405234801561000f575f80fd5b506100546040518060400160405280601281526020017f426174636842616c616e6365526561646572000000000000000000000000000081525061005960201b60201c565b610112565b60015f808360405160200161006e91906100fc565b6040516020818303038152906040528051906020012081526020019081526020015f205f6101000a81548160ff02191690831515021790555050565b5f81519050919050565b5f81905092915050565b8281835e5f83830152505050565b5f6100d6826100aa565b6100e081856100b4565b93506100f08185602086016100be565b80840191505092915050565b5f61010782846100cc565b915081905092915050565b610f0f8061011f5f395ff3fe608060405234801561000f575f80fd5b5060043610610055575f3560e01c80631929e00914610059578063249cb3fa14610089578063a09640ec146100b9578063dd2e4bb5146100e9578063feeef1e614610119575b5f80fd5b610073600480360381019061006e91906108dd565b610149565b6040516100809190610a1b565b60405180910390f35b6100a3600480360381019061009e9190610ac8565b6102e2565b6040516100b09190610b15565b60405180910390f35b6100d360048036038101906100ce9190610b2e565b61033b565b6040516100e09190610a1b565b60405180910390f35b61010360048036038101906100fe9190610bac565b6104e2565b6040516101109190610a1b565b60405180910390f35b610133600480360381019061012e9190610bf7565b61060b565b6040516101409190610a1b565b60405180910390f35b60605f838390508686905061015e9190610cd4565b67ffffffffffffffff81111561017757610176610d15565b5b6040519080825280602002602001820160405280156101a55781602001602082028036833780820191505090505b5090505f805f90505b858590508110156102d4575f5b888890508110156102c6578089899050836101d69190610cd4565b6101e09190610d42565b92508686838181106101f5576101f4610d75565b5b905060200201602081019061020a9190610da2565b73ffffffffffffffffffffffffffffffffffffffff1663a26734dc8a8a8481811061023857610237610d75565b5b905060200201356040518263ffffffff1660e01b815260040161025b9190610b15565b602060405180830381865afa158015610276573d5f803e3d5ffd5b505050506040513d601f19601f8201168201806040525081019061029a9190610df7565b8484815181106102ad576102ac610d75565b5b60200260200101818152505080806001019150506101bb565b5080806001019150506101ae565b508192505050949350505050565b5f805f8481526020019081526020015f205f9054906101000a900460ff16156103315760405160200161031490610e76565b604051602081830303815290604052805190602001209050610335565b5f90505b92915050565b60605f83839050868690506103509190610cd4565b67ffffffffffffffff81111561036957610368610d15565b5b6040519080825280602002602001820160405280156103975781602001602082028036833780820191505090505b5090505f805f90505b878790508110156104d4575f5b868690508110156104c6578087879050836103c89190610cd4565b6103d29190610d42565b92508686828181106103e7576103e6610d75565b5b90506020020160208101906103fc9190610da2565b73ffffffffffffffffffffffffffffffffffffffff166370a082318a8a8581811061042a57610429610d75565b5b905060200201602081019061043f9190610da2565b6040518263ffffffff1660e01b815260040161045b9190610e99565b602060405180830381865afa158015610476573d5f803e3d5ffd5b505050506040513d601f19601f8201168201806040525081019061049a9190610df7565b8484815181106104ad576104ac610d75565b5b60200260200101818152505080806001019150506103ad565b5080806001019150506103a0565b508192505050949350505050565b60605f8383905067ffffffffffffffff81111561050257610501610d15565b5b6040519080825280602002602001820160405280156105305781602001602082028036833780820191505090505b5090505f5b848490508110156106005784848281811061055357610552610d75565b5b90506020020160208101906105689190610da2565b73ffffffffffffffffffffffffffffffffffffffff166318160ddd6040518163ffffffff1660e01b8152600401602060405180830381865afa1580156105b0573d5f803e3d5ffd5b505050506040513d601f19601f820116820180604052508101906105d49190610df7565b8282815181106105e7576105e6610d75565b5b6020026020010181815250508080600101915050610535565b508091505092915050565b60605f8787905084849050878790506106249190610cd4565b61062e9190610cd4565b67ffffffffffffffff81111561064757610646610d15565b5b6040519080825280602002602001820160405280156106755781602001602082028036833780820191505090505b5090505f805f90505b8989905081101561080f575f5b88889050811015610801575f5b878790508110156107f3578088889050836106b39190610cd4565b898990508c8c90506106c59190610cd4565b856106d09190610cd4565b6106da9190610d42565b6106e49190610d42565b93508989838181106106f9576106f8610d75565b5b905060200201602081019061070e9190610da2565b73ffffffffffffffffffffffffffffffffffffffff166330e8280389898481811061073c5761073b610d75565b5b905060200201358e8e8781811061075657610755610d75565b5b905060200201602081019061076b9190610da2565b6040518363ffffffff1660e01b8152600401610788929190610eb2565b602060405180830381865afa1580156107a3573d5f803e3d5ffd5b505050506040513d601f19601f820116820180604052508101906107c79190610df7565b8585815181106107da576107d9610d75565b5b6020026020010181815250508080600101915050610698565b50808060010191505061068b565b50808060010191505061067e565b5081925050509695505050505050565b5f80fd5b5f80fd5b5f80fd5b5f80fd5b5f80fd5b5f8083601f84011261084857610847610827565b5b8235905067ffffffffffffffff8111156108655761086461082b565b5b6020830191508360208202830111156108815761088061082f565b5b9250929050565b5f8083601f84011261089d5761089c610827565b5b8235905067ffffffffffffffff8111156108ba576108b961082b565b5b6020830191508360208202830111156108d6576108d561082f565b5b9250929050565b5f805f80604085870312156108f5576108f461081f565b5b5f85013567ffffffffffffffff81111561091257610911610823565b5b61091e87828801610833565b9450945050602085013567ffffffffffffffff81111561094157610940610823565b5b61094d87828801610888565b925092505092959194509250565b5f81519050919050565b5f82825260208201905092915050565b5f819050602082019050919050565b5f819050919050565b61099681610984565b82525050565b5f6109a7838361098d565b60208301905092915050565b5f602082019050919050565b5f6109c98261095b565b6109d38185610965565b93506109de83610975565b805f5b83811015610a0e5781516109f5888261099c565b9750610a00836109b3565b9250506001810190506109e1565b5085935050505092915050565b5f6020820190508181035f830152610a3381846109bf565b905092915050565b5f819050919050565b610a4d81610a3b565b8114610a57575f80fd5b50565b5f81359050610a6881610a44565b92915050565b5f73ffffffffffffffffffffffffffffffffffffffff82169050919050565b5f610a9782610a6e565b9050919050565b610aa781610a8d565b8114610ab1575f80fd5b50565b5f81359050610ac281610a9e565b92915050565b5f8060408385031215610ade57610add61081f565b5b5f610aeb85828601610a5a565b9250506020610afc85828601610ab4565b9150509250929050565b610b0f81610a3b565b82525050565b5f602082019050610b285f830184610b06565b92915050565b5f805f8060408587031215610b4657610b4561081f565b5b5f85013567ffffffffffffffff811115610b6357610b62610823565b5b610b6f87828801610888565b9450945050602085013567ffffffffffffffff811115610b9257610b91610823565b5b610b9e87828801610888565b925092505092959194509250565b5f8060208385031215610bc257610bc161081f565b5b5f83013567ffffffffffffffff811115610bdf57610bde610823565b5b610beb85828601610888565b92509250509250929050565b5f805f805f8060608789031215610c1157610c1061081f565b5b5f87013567ffffffffffffffff811115610c2e57610c2d610823565b5b610c3a89828a01610888565b9650965050602087013567ffffffffffffffff811115610c5d57610c5c610823565b5b610c6989828a01610888565b9450945050604087013567ffffffffffffffff811115610c8c57610c8b610823565b5b610c9889828a01610833565b92509250509295509295509295565b7f4e487b71000000000000000000000000000000000000000000000000000000005f52601160045260245ffd5b5f610cde82610984565b9150610ce983610984565b9250828202610cf781610984565b91508282048414831517610d0e57610d0d610ca7565b5b5092915050565b7f4e487b71000000000000000000000000000000000000000000000000000000005f52604160045260245ffd5b5f610d4c82610984565b9150610d5783610984565b9250828201905080821115610d6f57610d6e610ca7565b5b92915050565b7f4e487b71000000000000000000000000000000000000000000000000000000005f52603260045260245ffd5b5f60208284031215610db757610db661081f565b5b5f610dc484828501610ab4565b91505092915050565b610dd681610984565b8114610de0575f80fd5b50565b5f81519050610df181610dcd565b92915050565b5f60208284031215610e0c57610e0b61081f565b5b5f610e1984828501610de3565b91505092915050565b5f81905092915050565b7f455243313832305f4143434550545f4d414749430000000000000000000000005f82015250565b5f610e60601483610e22565b9150610e6b82610e2c565b601482019050919050565b5f610e8082610e54565b9150819050919050565b610e9381610a8d565b82525050565b5f602082019050610eac5f830184610e8a565b92915050565b5f604082019050610ec55f830185610b06565b610ed26020830184610e8a565b939250505056fea2646970667358221220471345e8add9df808226d049bbb0b3023628d46e7192f3c81167507a1bcf914664736f6c63430008190033",
  "immutableReferences": {},
  "source": "// SPDX-License-Identifier: Apache-2.0\n/*\n * This code has not been reviewed.\n * Do not use or deploy this code before reviewing it personally first.\n */\npragma solidity ^0.8.0;\n\nimport \"@openzeppelin/contracts/token/ERC20/IERC20.sol\";\n\nimport \"../interface/ERC1820Implementer.sol\";\n\nimport \"../IERC1400.sol\";\n\ninterface IERC1400Extended {\n    // Not a real interface but added here since 'totalSupplyByPartition' doesn't belong to IERC1400\n\n    function totalSupplyByPartition(bytes32 partition)\n        external\n        view\n        returns (uint256);\n}\n\n/**\n * @title BatchBalanceReader\n * @dev Proxy contract to read multiple ERC1400/ERC20 token balances in a single contract call.\n */\ncontract BatchBalanceReader is ERC1820Implementer {\n    string internal constant BALANCE_READER = \"BatchBalanceReader\";\n\n    constructor() {\n        ERC1820Implementer._setInterface(BALANCE_READER);\n    }\n\n    /**\n     * @dev Get a batch of ERC1400 token balances.\n     * @param tokenHolders Addresses for which the balance is required.\n     * @param tokenAddresses Addresses of tokens where the balances need to be fetched.\n     * @param partitions Name of the partitions.\n     * @return Balances array.\n     */\n    function balancesOfByPartition(\n        address[] calldata tokenHolders,\n        address[] calldata tokenAddresses,\n        bytes32[] calldata partitions\n    ) external view returns (uint256[] memory) {\n        uint256[] memory partitionBalances = new uint256[](\n            tokenAddresses.length * partitions.length * tokenHolders.length\n        );\n        uint256 index;\n        for (uint256 i = 0; i < tokenHolders.length; i++) {\n            for (uint256 j = 0; j < tokenAddresses.length; j++) {\n                for (uint256 k = 0; k < partitions.length; k++) {\n                    index =\n                        i *\n                        (tokenAddresses.length * partitions.length) +\n                        j *\n                        partitions.length +\n                        k;\n                    partitionBalances[index] = IERC1400(tokenAddresses[j])\n                        .balanceOfByPartition(partitions[k], tokenHolders[i]);\n                }\n            }\n        }\n\n        return partitionBalances;\n    }\n\n    /**\n     * @dev Get a batch of ERC20 token balances.\n     * @param tokenHolders Addresses for which the balance is required.\n     * @param tokenAddresses Addresses of tokens where the balances need to be fetched.\n     * @return Balances array.\n     */\n    function balancesOf(\n        address[] calldata tokenHolders,\n        address[] calldata tokenAddresses\n    ) external view returns (uint256[] memory) {\n        uint256[] memory balances = new uint256[](\n            tokenHolders.length * tokenAddresses.length\n        );\n        uint256 index;\n        for (uint256 i = 0; i < tokenHolders.length; i++) {\n            for (uint256 j = 0; j < tokenAddresses.length; j++) {\n                index = i * tokenAddresses.length + j;\n                balances[index] = IERC20(tokenAddresses[j]).balanceOf(\n                    tokenHolders[i]\n                );\n            }\n        }\n        return balances;\n    }\n\n    /**\n     * @dev Get a batch of ERC1400 token total supplies by partitions.\n     * @param partitions Name of the partitions.\n     * @param tokenAddresses Addresses of tokens where the balances need to be fetched.\n     * @return Balances array.\n     */\n    function totalSuppliesByPartition(\n        bytes32[] calldata partitions,\n        address[] calldata tokenAddresses\n    ) external view returns (uint256[] memory) {\n        uint256[] memory partitionSupplies = new uint256[](\n            partitions.length * tokenAddresses.length\n        );\n        uint256 index;\n        for (uint256 i = 0; i < tokenAddresses.length; i++) {\n            for (uint256 j = 0; j < partitions.length; j++) {\n                index = i * partitions.length + j;\n                partitionSupplies[index] = IERC1400Extended(tokenAddresses[i])\n                    .totalSupplyByPartition(partitions[j]);\n            }\n        }\n        return partitionSupplies;\n    }\n\n    /**\n     * @dev Get a batch of ERC20 token total supplies.\n     * @param tokenAddresses Addresses of tokens where the balances need to be fetched.\n     * @return Balances array.\n     */\n    function totalSupplies(address[] calldata tokenAddresses)\n        external\n        view\n        returns (uint256[] memory)\n    {\n        uint256[] memory supplies = new uint256[](tokenAddresses.length);\n        for (uint256 i = 0; i < tokenAddresses.length; i++) {\n            supplies[i] = IERC20(tokenAddresses[i]).totalSupply();\n        }\n        return supplies;\n    }\n}\n",
  "sourcePath": "/Users/sergio/Library/Mobile Documents/com~apple~CloudDocs/Master-ciberseguridad-y-privacidad/2-Quatrimestre/TFM/project/truffle/contracts/ERC1400/tools/BatchBalanceReader.sol",
  "compiler": {
    "name": "solc",
    "version": "0.8.25+commit.b61c2a91.Emscripten.clang"
  },
  "schemaVersion": "3.4.16",
  "updatedAt": "2024-05-02T17:32:43.468Z",
  "devdoc": {
    "details": "Proxy contract to read multiple ERC1400/ERC20 token balances in a single contract call.",
    "kind": "dev",
    "methods": {
      "balancesOf(address[],address[])": {
        "details": "Get a batch of ERC20 token balances.",
        "params": {
          "tokenAddresses": "Addresses of tokens where the balances need to be fetched.",
          "tokenHolders": "Addresses for which the balance is required."
        },
        "returns": {
          "_0": "Balances array."
        }
      },
      "balancesOfByPartition(address[],address[],bytes32[])": {
        "details": "Get a batch of ERC1400 token balances.",
        "params": {
          "partitions": "Name of the partitions.",
          "tokenAddresses": "Addresses of tokens where the balances need to be fetched.",
          "tokenHolders": "Addresses for which the balance is required."
        },
        "returns": {
          "_0": "Balances array."
        }
      },
      "totalSupplies(address[])": {
        "details": "Get a batch of ERC20 token total supplies.",
        "params": {
          "tokenAddresses": "Addresses of tokens where the balances need to be fetched."
        },
        "returns": {
          "_0": "Balances array."
        }
      },
      "totalSuppliesByPartition(bytes32[],address[])": {
        "details": "Get a batch of ERC1400 token total supplies by partitions.",
        "params": {
          "partitions": "Name of the partitions.",
          "tokenAddresses": "Addresses of tokens where the balances need to be fetched."
        },
        "returns": {
          "_0": "Balances array."
        }
      }
    },
    "title": "BatchBalanceReader",
    "version": 1
  },
  "userdoc": {
    "kind": "user",
    "methods": {},
    "version": 1
  }
}