{
  "contractName": "CertificateSignerMock",
  "abi": [
    {
      "inputs": [
        {
          "internalType": "address",
          "name": "token",
          "type": "address"
        }
      ],
      "stateMutability": "nonpayable",
      "type": "constructor"
    },
    {
      "anonymous": false,
      "inputs": [
        {
          "indexed": true,
          "internalType": "address",
          "name": "token",
          "type": "address"
        },
        {
          "indexed": true,
          "internalType": "address",
          "name": "account",
          "type": "address"
        }
      ],
      "name": "CertificateSignerAdded",
      "type": "event"
    },
    {
      "anonymous": false,
      "inputs": [
        {
          "indexed": true,
          "internalType": "address",
          "name": "token",
          "type": "address"
        },
        {
          "indexed": true,
          "internalType": "address",
          "name": "account",
          "type": "address"
        }
      ],
      "name": "CertificateSignerRemoved",
      "type": "event"
    },
    {
      "inputs": [
        {
          "internalType": "address",
          "name": "token",
          "type": "address"
        },
        {
          "internalType": "address",
          "name": "account",
          "type": "address"
        }
      ],
      "name": "addCertificateSigner",
      "outputs": [],
      "stateMutability": "nonpayable",
      "type": "function"
    },
    {
      "inputs": [
        {
          "internalType": "address",
          "name": "token",
          "type": "address"
        },
        {
          "internalType": "address",
          "name": "account",
          "type": "address"
        }
      ],
      "name": "isCertificateSigner",
      "outputs": [
        {
          "internalType": "bool",
          "name": "",
          "type": "bool"
        }
      ],
      "stateMutability": "view",
      "type": "function"
    },
    {
      "inputs": [
        {
          "internalType": "address",
          "name": "token",
          "type": "address"
        },
        {
          "internalType": "address",
          "name": "account",
          "type": "address"
        }
      ],
      "name": "removeCertificateSigner",
      "outputs": [],
      "stateMutability": "nonpayable",
      "type": "function"
    },
    {
      "inputs": [
        {
          "internalType": "address",
          "name": "token",
          "type": "address"
        }
      ],
      "name": "renounceCertificateSigner",
      "outputs": [],
      "stateMutability": "nonpayable",
      "type": "function"
    }
  ],
  "bytecode": "0x608060405234801561000f575f80fd5b50604051610b99380380610b99833981810160405281019061003191906102bd565b610041813361004760201b60201c565b506103ee565b610095815f808573ffffffffffffffffffffffffffffffffffffffff1673ffffffffffffffffffffffffffffffffffffffff1681526020019081526020015f206100f360201b90919060201c565b8073ffffffffffffffffffffffffffffffffffffffff168273ffffffffffffffffffffffffffffffffffffffff167f9a01aee9f656aba8760d771cf21d803168ecc664c252c9374f4a3252481fbf3560405160405180910390a35050565b610103828261019d60201b60201c565b15610143576040517f08c379a000000000000000000000000000000000000000000000000000000000815260040161013a90610342565b60405180910390fd5b6001825f015f8373ffffffffffffffffffffffffffffffffffffffff1673ffffffffffffffffffffffffffffffffffffffff1681526020019081526020015f205f6101000a81548160ff0219169083151502179055505050565b5f8073ffffffffffffffffffffffffffffffffffffffff168273ffffffffffffffffffffffffffffffffffffffff160361020c576040517f08c379a0000000000000000000000000000000000000000000000000000000008152600401610203906103d0565b60405180910390fd5b825f015f8373ffffffffffffffffffffffffffffffffffffffff1673ffffffffffffffffffffffffffffffffffffffff1681526020019081526020015f205f9054906101000a900460ff16905092915050565b5f80fd5b5f73ffffffffffffffffffffffffffffffffffffffff82169050919050565b5f61028c82610263565b9050919050565b61029c81610282565b81146102a6575f80fd5b50565b5f815190506102b781610293565b92915050565b5f602082840312156102d2576102d161025f565b5b5f6102df848285016102a9565b91505092915050565b5f82825260208201905092915050565b7f526f6c65733a206163636f756e7420616c72656164792068617320726f6c65005f82015250565b5f61032c601f836102e8565b9150610337826102f8565b602082019050919050565b5f6020820190508181035f83015261035981610320565b9050919050565b7f526f6c65733a206163636f756e7420697320746865207a65726f2061646472655f8201527f7373000000000000000000000000000000000000000000000000000000000000602082015250565b5f6103ba6022836102e8565b91506103c582610360565b604082019050919050565b5f6020820190508181035f8301526103e7816103ae565b9050919050565b61079e806103fb5f395ff3fe608060405234801561000f575f80fd5b506004361061004a575f3560e01c80633bddaf8f1461004e5780639e59ceba1461006a578063c69664bb1461009a578063e81ea541146100b6575b5f80fd5b61006860048036038101906100639190610538565b6100d2565b005b610084600480360381019061007f9190610563565b6100df565b60405161009191906105bb565b60405180910390f35b6100b460048036038101906100af9190610563565b610136565b005b6100d060048036038101906100cb9190610563565b610158565b005b6100dc813361017a565b50565b5f61012e825f808673ffffffffffffffffffffffffffffffffffffffff1673ffffffffffffffffffffffffffffffffffffffff1681526020019081526020015f2061022690919063ffffffff16565b905092915050565b8161014181336100df565b610149575f80fd5b61015383836102e8565b505050565b8161016381336100df565b61016b575f80fd5b610175838361017a565b505050565b6101c8815f808573ffffffffffffffffffffffffffffffffffffffff1673ffffffffffffffffffffffffffffffffffffffff1681526020019081526020015f2061039490919063ffffffff16565b8073ffffffffffffffffffffffffffffffffffffffff168273ffffffffffffffffffffffffffffffffffffffff167f795a3a12ab7aa35ee8d4681ead2986eae8de69f5491d9dccfeca0442f644db8160405160405180910390a35050565b5f8073ffffffffffffffffffffffffffffffffffffffff168273ffffffffffffffffffffffffffffffffffffffff1603610295576040517f08c379a000000000000000000000000000000000000000000000000000000000815260040161028c90610654565b60405180910390fd5b825f015f8373ffffffffffffffffffffffffffffffffffffffff1673ffffffffffffffffffffffffffffffffffffffff1681526020019081526020015f205f9054906101000a900460ff16905092915050565b610336815f808573ffffffffffffffffffffffffffffffffffffffff1673ffffffffffffffffffffffffffffffffffffffff1681526020019081526020015f2061043690919063ffffffff16565b8073ffffffffffffffffffffffffffffffffffffffff168273ffffffffffffffffffffffffffffffffffffffff167f9a01aee9f656aba8760d771cf21d803168ecc664c252c9374f4a3252481fbf3560405160405180910390a35050565b61039e8282610226565b6103dd576040517f08c379a00000000000000000000000000000000000000000000000000000000081526004016103d4906106e2565b60405180910390fd5b5f825f015f8373ffffffffffffffffffffffffffffffffffffffff1673ffffffffffffffffffffffffffffffffffffffff1681526020019081526020015f205f6101000a81548160ff0219169083151502179055505050565b6104408282610226565b15610480576040517f08c379a00000000000000000000000000000000000000000000000000000000081526004016104779061074a565b60405180910390fd5b6001825f015f8373ffffffffffffffffffffffffffffffffffffffff1673ffffffffffffffffffffffffffffffffffffffff1681526020019081526020015f205f6101000a81548160ff0219169083151502179055505050565b5f80fd5b5f73ffffffffffffffffffffffffffffffffffffffff82169050919050565b5f610507826104de565b9050919050565b610517816104fd565b8114610521575f80fd5b50565b5f813590506105328161050e565b92915050565b5f6020828403121561054d5761054c6104da565b5b5f61055a84828501610524565b91505092915050565b5f8060408385031215610579576105786104da565b5b5f61058685828601610524565b925050602061059785828601610524565b9150509250929050565b5f8115159050919050565b6105b5816105a1565b82525050565b5f6020820190506105ce5f8301846105ac565b92915050565b5f82825260208201905092915050565b7f526f6c65733a206163636f756e7420697320746865207a65726f2061646472655f8201527f7373000000000000000000000000000000000000000000000000000000000000602082015250565b5f61063e6022836105d4565b9150610649826105e4565b604082019050919050565b5f6020820190508181035f83015261066b81610632565b9050919050565b7f526f6c65733a206163636f756e7420646f6573206e6f74206861766520726f6c5f8201527f6500000000000000000000000000000000000000000000000000000000000000602082015250565b5f6106cc6021836105d4565b91506106d782610672565b604082019050919050565b5f6020820190508181035f8301526106f9816106c0565b9050919050565b7f526f6c65733a206163636f756e7420616c72656164792068617320726f6c65005f82015250565b5f610734601f836105d4565b915061073f82610700565b602082019050919050565b5f6020820190508181035f83015261076181610728565b905091905056fea264697066735822122059335235242b441c8f0975f7370c2a97c42099767837b5d8b8275429572a97b864736f6c63430008190033",
  "immutableReferences": {},
  "source": "// SPDX-License-Identifier: Apache-2.0\npragma solidity ^0.8.0;\n\n// MOCK CONTRACT TO REACH FULL COVERAGE BY CALLING \"onlyNotPausered\" MODIFIER\n\nimport \"../roles/CertificateSignerRole.sol\";\n\n\ncontract CertificateSignerMock is CertificateSignerRole {\n\n  constructor(address token) {\n    _addCertificateSigner(token, msg.sender);\n  }\n\n}",
  "sourcePath": "/Users/sergio/Library/Mobile Documents/com~apple~CloudDocs/Master-ciberseguridad-y-privacidad/2-Quatrimestre/TFM/project/truffle/contracts/ERC1400/mocks/CertificateSignerMock.sol",
  "compiler": {
    "name": "solc",
    "version": "0.8.25+commit.b61c2a91.Emscripten.clang"
  },
  "schemaVersion": "3.4.16",
  "updatedAt": "2024-05-02T17:32:43.272Z",
  "devdoc": {
    "kind": "dev",
    "methods": {},
    "version": 1
  },
  "userdoc": {
    "kind": "user",
    "methods": {},
    "version": 1
  }
}