{
  "contractName": "ClockMock",
  "abi": [
    {
      "inputs": [],
      "stateMutability": "nonpayable",
      "type": "constructor"
    },
    {
      "inputs": [],
      "name": "getTime",
      "outputs": [
        {
          "internalType": "uint256",
          "name": "",
          "type": "uint256"
        }
      ],
      "stateMutability": "view",
      "type": "function"
    }
  ],
  "bytecode": "0x6080604052348015600e575f80fd5b5060ae80601a5f395ff3fe6080604052348015600e575f80fd5b50600436106026575f3560e01c8063557ed1ba14602a575b5f80fd5b60306044565b604051603b91906061565b60405180910390f35b5f42905090565b5f819050919050565b605b81604b565b82525050565b5f60208201905060725f8301846054565b9291505056fea26469706673582212207cb189ed0844053083cf592d91225cb0a571eb9959ff3f24f129b6be5b3f8e1564736f6c63430008190033",
  "immutableReferences": {},
  "source": "// SPDX-License-Identifier: Apache-2.0\npragma solidity ^0.8.0;\n\n// MOCK CONTRACT TO RETRIEVE TIME ON CHAIN\n\ncontract ClockMock {\n\n  constructor() {}\n\n  /**\n   * @dev Get time on chain.\n   * @return block.timestamp.\n   */\n  function getTime() external view returns (uint256) {\n    return block.timestamp;\n  }\n\n}",
  "sourcePath": "/Users/sergio/Library/Mobile Documents/com~apple~CloudDocs/Master-ciberseguridad-y-privacidad/2-Quatrimestre/TFM/project/truffle/contracts/ERC1400/mocks/Clock.sol",
  "compiler": {
    "name": "solc",
    "version": "0.8.25+commit.b61c2a91.Emscripten.clang"
  },
  "schemaVersion": "3.4.16",
  "updatedAt": "2024-05-02T17:32:43.274Z",
  "devdoc": {
    "kind": "dev",
    "methods": {
      "getTime()": {
        "details": "Get time on chain.",
        "returns": {
          "_0": "block.timestamp."
        }
      }
    },
    "version": 1
  },
  "userdoc": {
    "kind": "user",
    "methods": {},
    "version": 1
  }
}