{
  "contractName": "ERC1400TokensValidatorMock",
  "abi": [
    {
      "anonymous": false,
      "inputs": [
        {
          "indexed": true,
          "internalType": "address",
          "name": "token",
          "type": "address"
        },
        {
          "indexed": true,
          "internalType": "address",
          "name": "account",
          "type": "address"
        }
      ],
      "name": "AllowlistAdminAdded",
      "type": "event"
    },
    {
      "anonymous": false,
      "inputs": [
        {
          "indexed": true,
          "internalType": "address",
          "name": "token",
          "type": "address"
        },
        {
          "indexed": true,
          "internalType": "address",
          "name": "account",
          "type": "address"
        }
      ],
      "name": "AllowlistAdminRemoved",
      "type": "event"
    },
    {
      "anonymous": false,
      "inputs": [
        {
          "indexed": true,
          "internalType": "address",
          "name": "token",
          "type": "address"
        },
        {
          "indexed": true,
          "internalType": "address",
          "name": "account",
          "type": "address"
        }
      ],
      "name": "AllowlistedAdded",
      "type": "event"
    },
    {
      "anonymous": false,
      "inputs": [
        {
          "indexed": true,
          "internalType": "address",
          "name": "token",
          "type": "address"
        },
        {
          "indexed": true,
          "internalType": "address",
          "name": "account",
          "type": "address"
        }
      ],
      "name": "AllowlistedRemoved",
      "type": "event"
    },
    {
      "anonymous": false,
      "inputs": [
        {
          "indexed": true,
          "internalType": "address",
          "name": "token",
          "type": "address"
        },
        {
          "indexed": true,
          "internalType": "address",
          "name": "account",
          "type": "address"
        }
      ],
      "name": "BlocklistAdminAdded",
      "type": "event"
    },
    {
      "anonymous": false,
      "inputs": [
        {
          "indexed": true,
          "internalType": "address",
          "name": "token",
          "type": "address"
        },
        {
          "indexed": true,
          "internalType": "address",
          "name": "account",
          "type": "address"
        }
      ],
      "name": "BlocklistAdminRemoved",
      "type": "event"
    },
    {
      "anonymous": false,
      "inputs": [
        {
          "indexed": true,
          "internalType": "address",
          "name": "token",
          "type": "address"
        },
        {
          "indexed": true,
          "internalType": "address",
          "name": "account",
          "type": "address"
        }
      ],
      "name": "BlocklistedAdded",
      "type": "event"
    },
    {
      "anonymous": false,
      "inputs": [
        {
          "indexed": true,
          "internalType": "address",
          "name": "token",
          "type": "address"
        },
        {
          "indexed": true,
          "internalType": "address",
          "name": "account",
          "type": "address"
        }
      ],
      "name": "BlocklistedRemoved",
      "type": "event"
    },
    {
      "anonymous": false,
      "inputs": [
        {
          "indexed": true,
          "internalType": "address",
          "name": "token",
          "type": "address"
        },
        {
          "indexed": true,
          "internalType": "address",
          "name": "account",
          "type": "address"
        }
      ],
      "name": "CertificateSignerAdded",
      "type": "event"
    },
    {
      "anonymous": false,
      "inputs": [
        {
          "indexed": true,
          "internalType": "address",
          "name": "token",
          "type": "address"
        },
        {
          "indexed": true,
          "internalType": "address",
          "name": "account",
          "type": "address"
        }
      ],
      "name": "CertificateSignerRemoved",
      "type": "event"
    },
    {
      "anonymous": false,
      "inputs": [
        {
          "indexed": true,
          "internalType": "address",
          "name": "token",
          "type": "address"
        },
        {
          "indexed": true,
          "internalType": "bytes32",
          "name": "holdId",
          "type": "bytes32"
        },
        {
          "indexed": false,
          "internalType": "bytes32",
          "name": "partition",
          "type": "bytes32"
        },
        {
          "indexed": false,
          "internalType": "address",
          "name": "sender",
          "type": "address"
        },
        {
          "indexed": false,
          "internalType": "address",
          "name": "recipient",
          "type": "address"
        },
        {
          "indexed": true,
          "internalType": "address",
          "name": "notary",
          "type": "address"
        },
        {
          "indexed": false,
          "internalType": "uint256",
          "name": "value",
          "type": "uint256"
        },
        {
          "indexed": false,
          "internalType": "uint256",
          "name": "expiration",
          "type": "uint256"
        },
        {
          "indexed": false,
          "internalType": "bytes32",
          "name": "secretHash",
          "type": "bytes32"
        }
      ],
      "name": "HoldCreated",
      "type": "event"
    },
    {
      "anonymous": false,
      "inputs": [
        {
          "indexed": true,
          "internalType": "address",
          "name": "token",
          "type": "address"
        },
        {
          "indexed": false,
          "internalType": "bytes32",
          "name": "holdId",
          "type": "bytes32"
        },
        {
          "indexed": true,
          "internalType": "address",
          "name": "notary",
          "type": "address"
        },
        {
          "indexed": false,
          "internalType": "uint256",
          "name": "heldValue",
          "type": "uint256"
        },
        {
          "indexed": false,
          "internalType": "uint256",
          "name": "transferredValue",
          "type": "uint256"
        },
        {
          "indexed": false,
          "internalType": "bytes32",
          "name": "secret",
          "type": "bytes32"
        }
      ],
      "name": "HoldExecuted",
      "type": "event"
    },
    {
      "anonymous": false,
      "inputs": [
        {
          "indexed": true,
          "internalType": "address",
          "name": "token",
          "type": "address"
        },
        {
          "indexed": false,
          "internalType": "bytes32",
          "name": "holdId",
          "type": "bytes32"
        },
        {
          "indexed": true,
          "internalType": "address",
          "name": "notary",
          "type": "address"
        },
        {
          "indexed": false,
          "internalType": "uint256",
          "name": "heldValue",
          "type": "uint256"
        },
        {
          "indexed": false,
          "internalType": "uint256",
          "name": "transferredValue",
          "type": "uint256"
        },
        {
          "indexed": false,
          "internalType": "bytes32",
          "name": "secret",
          "type": "bytes32"
        }
      ],
      "name": "HoldExecutedAndKeptOpen",
      "type": "event"
    },
    {
      "anonymous": false,
      "inputs": [
        {
          "indexed": true,
          "internalType": "address",
          "name": "token",
          "type": "address"
        },
        {
          "indexed": false,
          "internalType": "bytes32",
          "name": "holdId",
          "type": "bytes32"
        },
        {
          "indexed": true,
          "internalType": "address",
          "name": "notary",
          "type": "address"
        },
        {
          "indexed": false,
          "internalType": "enum HoldStatusCode",
          "name": "status",
          "type": "uint8"
        }
      ],
      "name": "HoldReleased",
      "type": "event"
    },
    {
      "anonymous": false,
      "inputs": [
        {
          "indexed": true,
          "internalType": "address",
          "name": "token",
          "type": "address"
        },
        {
          "indexed": false,
          "internalType": "bytes32",
          "name": "holdId",
          "type": "bytes32"
        },
        {
          "indexed": true,
          "internalType": "address",
          "name": "notary",
          "type": "address"
        },
        {
          "indexed": false,
          "internalType": "uint256",
          "name": "oldExpiration",
          "type": "uint256"
        },
        {
          "indexed": false,
          "internalType": "uint256",
          "name": "newExpiration",
          "type": "uint256"
        }
      ],
      "name": "HoldRenewed",
      "type": "event"
    },
    {
      "anonymous": false,
      "inputs": [
        {
          "indexed": true,
          "internalType": "address",
          "name": "token",
          "type": "address"
        },
        {
          "indexed": false,
          "internalType": "address",
          "name": "account",
          "type": "address"
        }
      ],
      "name": "Paused",
      "type": "event"
    },
    {
      "anonymous": false,
      "inputs": [
        {
          "indexed": true,
          "internalType": "address",
          "name": "token",
          "type": "address"
        },
        {
          "indexed": true,
          "internalType": "address",
          "name": "account",
          "type": "address"
        }
      ],
      "name": "PauserAdded",
      "type": "event"
    },
    {
      "anonymous": false,
      "inputs": [
        {
          "indexed": true,
          "internalType": "address",
          "name": "token",
          "type": "address"
        },
        {
          "indexed": true,
          "internalType": "address",
          "name": "account",
          "type": "address"
        }
      ],
      "name": "PauserRemoved",
      "type": "event"
    },
    {
      "anonymous": false,
      "inputs": [
        {
          "indexed": true,
          "internalType": "address",
          "name": "token",
          "type": "address"
        },
        {
          "indexed": false,
          "internalType": "address",
          "name": "account",
          "type": "address"
        }
      ],
      "name": "Unpaused",
      "type": "event"
    },
    {
      "inputs": [
        {
          "internalType": "address",
          "name": "token",
          "type": "address"
        },
        {
          "internalType": "address",
          "name": "account",
          "type": "address"
        }
      ],
      "name": "addAllowlistAdmin",
      "outputs": [],
      "stateMutability": "nonpayable",
      "type": "function"
    },
    {
      "inputs": [
        {
          "internalType": "address",
          "name": "token",
          "type": "address"
        },
        {
          "internalType": "address",
          "name": "account",
          "type": "address"
        }
      ],
      "name": "addAllowlisted",
      "outputs": [],
      "stateMutability": "nonpayable",
      "type": "function"
    },
    {
      "inputs": [
        {
          "internalType": "address",
          "name": "token",
          "type": "address"
        },
        {
          "internalType": "address",
          "name": "account",
          "type": "address"
        }
      ],
      "name": "addBlocklistAdmin",
      "outputs": [],
      "stateMutability": "nonpayable",
      "type": "function"
    },
    {
      "inputs": [
        {
          "internalType": "address",
          "name": "token",
          "type": "address"
        },
        {
          "internalType": "address",
          "name": "account",
          "type": "address"
        }
      ],
      "name": "addBlocklisted",
      "outputs": [],
      "stateMutability": "nonpayable",
      "type": "function"
    },
    {
      "inputs": [
        {
          "internalType": "address",
          "name": "token",
          "type": "address"
        },
        {
          "internalType": "address",
          "name": "account",
          "type": "address"
        }
      ],
      "name": "addCertificateSigner",
      "outputs": [],
      "stateMutability": "nonpayable",
      "type": "function"
    },
    {
      "inputs": [
        {
          "internalType": "address",
          "name": "token",
          "type": "address"
        },
        {
          "internalType": "address",
          "name": "account",
          "type": "address"
        }
      ],
      "name": "addPauser",
      "outputs": [],
      "stateMutability": "nonpayable",
      "type": "function"
    },
    {
      "inputs": [
        {
          "internalType": "address",
          "name": "token",
          "type": "address"
        },
        {
          "internalType": "address",
          "name": "account",
          "type": "address"
        }
      ],
      "name": "balanceOnHold",
      "outputs": [
        {
          "internalType": "uint256",
          "name": "",
          "type": "uint256"
        }
      ],
      "stateMutability": "view",
      "type": "function"
    },
    {
      "inputs": [
        {
          "internalType": "address",
          "name": "token",
          "type": "address"
        },
        {
          "internalType": "bytes32",
          "name": "partition",
          "type": "bytes32"
        },
        {
          "internalType": "address",
          "name": "account",
          "type": "address"
        }
      ],
      "name": "balanceOnHoldByPartition",
      "outputs": [
        {
          "internalType": "uint256",
          "name": "",
          "type": "uint256"
        }
      ],
      "stateMutability": "view",
      "type": "function"
    },
    {
      "inputs": [
        {
          "internalType": "bytes32",
          "name": "interfaceHash",
          "type": "bytes32"
        },
        {
          "internalType": "address",
          "name": "",
          "type": "address"
        }
      ],
      "name": "canImplementInterfaceForAddress",
      "outputs": [
        {
          "internalType": "bytes32",
          "name": "",
          "type": "bytes32"
        }
      ],
      "stateMutability": "view",
      "type": "function"
    },
    {
      "inputs": [
        {
          "components": [
            {
              "internalType": "address",
              "name": "token",
              "type": "address"
            },
            {
              "internalType": "bytes",
              "name": "payload",
              "type": "bytes"
            },
            {
              "internalType": "bytes32",
              "name": "partition",
              "type": "bytes32"
            },
            {
              "internalType": "address",
              "name": "operator",
              "type": "address"
            },
            {
              "internalType": "address",
              "name": "from",
              "type": "address"
            },
            {
              "internalType": "address",
              "name": "to",
              "type": "address"
            },
            {
              "internalType": "uint256",
              "name": "value",
              "type": "uint256"
            },
            {
              "internalType": "bytes",
              "name": "data",
              "type": "bytes"
            },
            {
              "internalType": "bytes",
              "name": "operatorData",
              "type": "bytes"
            }
          ],
          "internalType": "struct IERC1400TokensValidator.ValidateData",
          "name": "data",
          "type": "tuple"
        }
      ],
      "name": "canValidate",
      "outputs": [
        {
          "internalType": "bool",
          "name": "",
          "type": "bool"
        }
      ],
      "stateMutability": "view",
      "type": "function"
    },
    {
      "inputs": [
        {
          "internalType": "address",
          "name": "token",
          "type": "address"
        },
        {
          "internalType": "bytes32",
          "name": "holdId",
          "type": "bytes32"
        },
        {
          "internalType": "uint256",
          "name": "value",
          "type": "uint256"
        },
        {
          "internalType": "bytes32",
          "name": "secret",
          "type": "bytes32"
        }
      ],
      "name": "executeHold",
      "outputs": [],
      "stateMutability": "nonpayable",
      "type": "function"
    },
    {
      "inputs": [
        {
          "internalType": "address",
          "name": "token",
          "type": "address"
        },
        {
          "internalType": "bytes32",
          "name": "holdId",
          "type": "bytes32"
        },
        {
          "internalType": "uint256",
          "name": "value",
          "type": "uint256"
        },
        {
          "internalType": "bytes32",
          "name": "secret",
          "type": "bytes32"
        }
      ],
      "name": "executeHoldAndKeepOpen",
      "outputs": [],
      "stateMutability": "nonpayable",
      "type": "function"
    },
    {
      "inputs": [
        {
          "internalType": "address",
          "name": "token",
          "type": "address"
        },
        {
          "internalType": "bytes32",
          "name": "partition",
          "type": "bytes32"
        }
      ],
      "name": "granularityByPartition",
      "outputs": [
        {
          "internalType": "uint256",
          "name": "",
          "type": "uint256"
        }
      ],
      "stateMutability": "view",
      "type": "function"
    },
    {
      "inputs": [
        {
          "internalType": "address",
          "name": "token",
          "type": "address"
        },
        {
          "internalType": "bytes32",
          "name": "holdId",
          "type": "bytes32"
        },
        {
          "internalType": "address",
          "name": "recipient",
          "type": "address"
        },
        {
          "internalType": "address",
          "name": "notary",
          "type": "address"
        },
        {
          "internalType": "bytes32",
          "name": "partition",
          "type": "bytes32"
        },
        {
          "internalType": "uint256",
          "name": "value",
          "type": "uint256"
        },
        {
          "internalType": "uint256",
          "name": "timeToExpiration",
          "type": "uint256"
        },
        {
          "internalType": "bytes32",
          "name": "secretHash",
          "type": "bytes32"
        },
        {
          "internalType": "bytes",
          "name": "certificate",
          "type": "bytes"
        }
      ],
      "name": "hold",
      "outputs": [
        {
          "internalType": "bool",
          "name": "",
          "type": "bool"
        }
      ],
      "stateMutability": "nonpayable",
      "type": "function"
    },
    {
      "inputs": [
        {
          "internalType": "address",
          "name": "token",
          "type": "address"
        },
        {
          "internalType": "bytes32",
          "name": "holdId",
          "type": "bytes32"
        },
        {
          "internalType": "address",
          "name": "sender",
          "type": "address"
        },
        {
          "internalType": "address",
          "name": "recipient",
          "type": "address"
        },
        {
          "internalType": "address",
          "name": "notary",
          "type": "address"
        },
        {
          "internalType": "bytes32",
          "name": "partition",
          "type": "bytes32"
        },
        {
          "internalType": "uint256",
          "name": "value",
          "type": "uint256"
        },
        {
          "internalType": "uint256",
          "name": "timeToExpiration",
          "type": "uint256"
        },
        {
          "internalType": "bytes32",
          "name": "secretHash",
          "type": "bytes32"
        },
        {
          "internalType": "bytes",
          "name": "certificate",
          "type": "bytes"
        }
      ],
      "name": "holdFrom",
      "outputs": [
        {
          "internalType": "bool",
          "name": "",
          "type": "bool"
        }
      ],
      "stateMutability": "nonpayable",
      "type": "function"
    },
    {
      "inputs": [
        {
          "internalType": "address",
          "name": "token",
          "type": "address"
        },
        {
          "internalType": "bytes32",
          "name": "holdId",
          "type": "bytes32"
        },
        {
          "internalType": "address",
          "name": "sender",
          "type": "address"
        },
        {
          "internalType": "address",
          "name": "recipient",
          "type": "address"
        },
        {
          "internalType": "address",
          "name": "notary",
          "type": "address"
        },
        {
          "internalType": "bytes32",
          "name": "partition",
          "type": "bytes32"
        },
        {
          "internalType": "uint256",
          "name": "value",
          "type": "uint256"
        },
        {
          "internalType": "uint256",
          "name": "expiration",
          "type": "uint256"
        },
        {
          "internalType": "bytes32",
          "name": "secretHash",
          "type": "bytes32"
        },
        {
          "internalType": "bytes",
          "name": "certificate",
          "type": "bytes"
        }
      ],
      "name": "holdFromWithExpirationDate",
      "outputs": [
        {
          "internalType": "bool",
          "name": "",
          "type": "bool"
        }
      ],
      "stateMutability": "nonpayable",
      "type": "function"
    },
    {
      "inputs": [
        {
          "internalType": "address",
          "name": "token",
          "type": "address"
        },
        {
          "internalType": "bytes32",
          "name": "holdId",
          "type": "bytes32"
        },
        {
          "internalType": "address",
          "name": "recipient",
          "type": "address"
        },
        {
          "internalType": "address",
          "name": "notary",
          "type": "address"
        },
        {
          "internalType": "bytes32",
          "name": "partition",
          "type": "bytes32"
        },
        {
          "internalType": "uint256",
          "name": "value",
          "type": "uint256"
        },
        {
          "internalType": "uint256",
          "name": "expiration",
          "type": "uint256"
        },
        {
          "internalType": "bytes32",
          "name": "secretHash",
          "type": "bytes32"
        },
        {
          "internalType": "bytes",
          "name": "certificate",
          "type": "bytes"
        }
      ],
      "name": "holdWithExpirationDate",
      "outputs": [
        {
          "internalType": "bool",
          "name": "",
          "type": "bool"
        }
      ],
      "stateMutability": "nonpayable",
      "type": "function"
    },
    {
      "inputs": [
        {
          "internalType": "address",
          "name": "token",
          "type": "address"
        },
        {
          "internalType": "address",
          "name": "account",
          "type": "address"
        }
      ],
      "name": "isAllowlistAdmin",
      "outputs": [
        {
          "internalType": "bool",
          "name": "",
          "type": "bool"
        }
      ],
      "stateMutability": "view",
      "type": "function"
    },
    {
      "inputs": [
        {
          "internalType": "address",
          "name": "token",
          "type": "address"
        },
        {
          "internalType": "address",
          "name": "account",
          "type": "address"
        }
      ],
      "name": "isAllowlisted",
      "outputs": [
        {
          "internalType": "bool",
          "name": "",
          "type": "bool"
        }
      ],
      "stateMutability": "view",
      "type": "function"
    },
    {
      "inputs": [
        {
          "internalType": "address",
          "name": "token",
          "type": "address"
        },
        {
          "internalType": "address",
          "name": "account",
          "type": "address"
        }
      ],
      "name": "isBlocklistAdmin",
      "outputs": [
        {
          "internalType": "bool",
          "name": "",
          "type": "bool"
        }
      ],
      "stateMutability": "view",
      "type": "function"
    },
    {
      "inputs": [
        {
          "internalType": "address",
          "name": "token",
          "type": "address"
        },
        {
          "internalType": "address",
          "name": "account",
          "type": "address"
        }
      ],
      "name": "isBlocklisted",
      "outputs": [
        {
          "internalType": "bool",
          "name": "",
          "type": "bool"
        }
      ],
      "stateMutability": "view",
      "type": "function"
    },
    {
      "inputs": [
        {
          "internalType": "address",
          "name": "token",
          "type": "address"
        },
        {
          "internalType": "address",
          "name": "account",
          "type": "address"
        }
      ],
      "name": "isCertificateSigner",
      "outputs": [
        {
          "internalType": "bool",
          "name": "",
          "type": "bool"
        }
      ],
      "stateMutability": "view",
      "type": "function"
    },
    {
      "inputs": [
        {
          "internalType": "address",
          "name": "token",
          "type": "address"
        },
        {
          "internalType": "address",
          "name": "account",
          "type": "address"
        }
      ],
      "name": "isPauser",
      "outputs": [
        {
          "internalType": "bool",
          "name": "",
          "type": "bool"
        }
      ],
      "stateMutability": "view",
      "type": "function"
    },
    {
      "inputs": [
        {
          "internalType": "address",
          "name": "token",
          "type": "address"
        }
      ],
      "name": "pause",
      "outputs": [],
      "stateMutability": "nonpayable",
      "type": "function"
    },
    {
      "inputs": [
        {
          "internalType": "address",
          "name": "token",
          "type": "address"
        }
      ],
      "name": "paused",
      "outputs": [
        {
          "internalType": "bool",
          "name": "",
          "type": "bool"
        }
      ],
      "stateMutability": "view",
      "type": "function"
    },
    {
      "inputs": [
        {
          "internalType": "address",
          "name": "token",
          "type": "address"
        },
        {
          "internalType": "bytes32",
          "name": "holdId",
          "type": "bytes32"
        },
        {
          "internalType": "address",
          "name": "recipient",
          "type": "address"
        },
        {
          "internalType": "address",
          "name": "notary",
          "type": "address"
        },
        {
          "internalType": "bytes32",
          "name": "partition",
          "type": "bytes32"
        },
        {
          "internalType": "uint256",
          "name": "value",
          "type": "uint256"
        },
        {
          "internalType": "uint256",
          "name": "timeToExpiration",
          "type": "uint256"
        },
        {
          "internalType": "bytes32",
          "name": "secretHash",
          "type": "bytes32"
        },
        {
          "internalType": "bytes",
          "name": "certificate",
          "type": "bytes"
        }
      ],
      "name": "preHoldFor",
      "outputs": [
        {
          "internalType": "bool",
          "name": "",
          "type": "bool"
        }
      ],
      "stateMutability": "nonpayable",
      "type": "function"
    },
    {
      "inputs": [
        {
          "internalType": "address",
          "name": "token",
          "type": "address"
        },
        {
          "internalType": "bytes32",
          "name": "holdId",
          "type": "bytes32"
        },
        {
          "internalType": "address",
          "name": "recipient",
          "type": "address"
        },
        {
          "internalType": "address",
          "name": "notary",
          "type": "address"
        },
        {
          "internalType": "bytes32",
          "name": "partition",
          "type": "bytes32"
        },
        {
          "internalType": "uint256",
          "name": "value",
          "type": "uint256"
        },
        {
          "internalType": "uint256",
          "name": "expiration",
          "type": "uint256"
        },
        {
          "internalType": "bytes32",
          "name": "secretHash",
          "type": "bytes32"
        },
        {
          "internalType": "bytes",
          "name": "certificate",
          "type": "bytes"
        }
      ],
      "name": "preHoldForWithExpirationDate",
      "outputs": [
        {
          "internalType": "bool",
          "name": "",
          "type": "bool"
        }
      ],
      "stateMutability": "nonpayable",
      "type": "function"
    },
    {
      "inputs": [
        {
          "internalType": "address",
          "name": "token",
          "type": "address"
        },
        {
          "internalType": "enum ERC1400TokensValidator.CertificateValidation",
          "name": "certificateActivated",
          "type": "uint8"
        },
        {
          "internalType": "bool",
          "name": "allowlistActivated",
          "type": "bool"
        },
        {
          "internalType": "bool",
          "name": "blocklistActivated",
          "type": "bool"
        },
        {
          "internalType": "bool",
          "name": "granularityByPartitionActivated",
          "type": "bool"
        },
        {
          "internalType": "bool",
          "name": "holdsActivated",
          "type": "bool"
        },
        {
          "internalType": "address[]",
          "name": "operators",
          "type": "address[]"
        }
      ],
      "name": "registerTokenSetup",
      "outputs": [],
      "stateMutability": "nonpayable",
      "type": "function"
    },
    {
      "inputs": [
        {
          "internalType": "address",
          "name": "token",
          "type": "address"
        },
        {
          "internalType": "bytes32",
          "name": "holdId",
          "type": "bytes32"
        }
      ],
      "name": "releaseHold",
      "outputs": [
        {
          "internalType": "bool",
          "name": "",
          "type": "bool"
        }
      ],
      "stateMutability": "nonpayable",
      "type": "function"
    },
    {
      "inputs": [
        {
          "internalType": "address",
          "name": "token",
          "type": "address"
        },
        {
          "internalType": "address",
          "name": "account",
          "type": "address"
        }
      ],
      "name": "removeAllowlistAdmin",
      "outputs": [],
      "stateMutability": "nonpayable",
      "type": "function"
    },
    {
      "inputs": [
        {
          "internalType": "address",
          "name": "token",
          "type": "address"
        },
        {
          "internalType": "address",
          "name": "account",
          "type": "address"
        }
      ],
      "name": "removeAllowlisted",
      "outputs": [],
      "stateMutability": "nonpayable",
      "type": "function"
    },
    {
      "inputs": [
        {
          "internalType": "address",
          "name": "token",
          "type": "address"
        },
        {
          "internalType": "address",
          "name": "account",
          "type": "address"
        }
      ],
      "name": "removeBlocklistAdmin",
      "outputs": [],
      "stateMutability": "nonpayable",
      "type": "function"
    },
    {
      "inputs": [
        {
          "internalType": "address",
          "name": "token",
          "type": "address"
        },
        {
          "internalType": "address",
          "name": "account",
          "type": "address"
        }
      ],
      "name": "removeBlocklisted",
      "outputs": [],
      "stateMutability": "nonpayable",
      "type": "function"
    },
    {
      "inputs": [
        {
          "internalType": "address",
          "name": "token",
          "type": "address"
        },
        {
          "internalType": "address",
          "name": "account",
          "type": "address"
        }
      ],
      "name": "removeCertificateSigner",
      "outputs": [],
      "stateMutability": "nonpayable",
      "type": "function"
    },
    {
      "inputs": [
        {
          "internalType": "address",
          "name": "token",
          "type": "address"
        },
        {
          "internalType": "address",
          "name": "account",
          "type": "address"
        }
      ],
      "name": "removePauser",
      "outputs": [],
      "stateMutability": "nonpayable",
      "type": "function"
    },
    {
      "inputs": [
        {
          "internalType": "address",
          "name": "token",
          "type": "address"
        },
        {
          "internalType": "bytes32",
          "name": "holdId",
          "type": "bytes32"
        },
        {
          "internalType": "uint256",
          "name": "timeToExpiration",
          "type": "uint256"
        },
        {
          "internalType": "bytes",
          "name": "certificate",
          "type": "bytes"
        }
      ],
      "name": "renewHold",
      "outputs": [
        {
          "internalType": "bool",
          "name": "",
          "type": "bool"
        }
      ],
      "stateMutability": "nonpayable",
      "type": "function"
    },
    {
      "inputs": [
        {
          "internalType": "address",
          "name": "token",
          "type": "address"
        },
        {
          "internalType": "bytes32",
          "name": "holdId",
          "type": "bytes32"
        },
        {
          "internalType": "uint256",
          "name": "expiration",
          "type": "uint256"
        },
        {
          "internalType": "bytes",
          "name": "certificate",
          "type": "bytes"
        }
      ],
      "name": "renewHoldWithExpirationDate",
      "outputs": [
        {
          "internalType": "bool",
          "name": "",
          "type": "bool"
        }
      ],
      "stateMutability": "nonpayable",
      "type": "function"
    },
    {
      "inputs": [
        {
          "internalType": "address",
          "name": "token",
          "type": "address"
        }
      ],
      "name": "renounceAllowlistAdmin",
      "outputs": [],
      "stateMutability": "nonpayable",
      "type": "function"
    },
    {
      "inputs": [
        {
          "internalType": "address",
          "name": "token",
          "type": "address"
        }
      ],
      "name": "renounceBlocklistAdmin",
      "outputs": [],
      "stateMutability": "nonpayable",
      "type": "function"
    },
    {
      "inputs": [
        {
          "internalType": "address",
          "name": "token",
          "type": "address"
        }
      ],
      "name": "renounceCertificateSigner",
      "outputs": [],
      "stateMutability": "nonpayable",
      "type": "function"
    },
    {
      "inputs": [
        {
          "internalType": "address",
          "name": "token",
          "type": "address"
        }
      ],
      "name": "renouncePauser",
      "outputs": [],
      "stateMutability": "nonpayable",
      "type": "function"
    },
    {
      "inputs": [
        {
          "internalType": "address",
          "name": "token",
          "type": "address"
        },
        {
          "internalType": "bytes32",
          "name": "holdId",
          "type": "bytes32"
        }
      ],
      "name": "retrieveHoldData",
      "outputs": [
        {
          "internalType": "bytes32",
          "name": "partition",
          "type": "bytes32"
        },
        {
          "internalType": "address",
          "name": "sender",
          "type": "address"
        },
        {
          "internalType": "address",
          "name": "recipient",
          "type": "address"
        },
        {
          "internalType": "address",
          "name": "notary",
          "type": "address"
        },
        {
          "internalType": "uint256",
          "name": "value",
          "type": "uint256"
        },
        {
          "internalType": "uint256",
          "name": "expiration",
          "type": "uint256"
        },
        {
          "internalType": "bytes32",
          "name": "secretHash",
          "type": "bytes32"
        },
        {
          "internalType": "bytes32",
          "name": "secret",
          "type": "bytes32"
        },
        {
          "internalType": "enum HoldStatusCode",
          "name": "status",
          "type": "uint8"
        }
      ],
      "stateMutability": "view",
      "type": "function"
    },
    {
      "inputs": [
        {
          "internalType": "address",
          "name": "token",
          "type": "address"
        }
      ],
      "name": "retrieveTokenSetup",
      "outputs": [
        {
          "internalType": "enum ERC1400TokensValidator.CertificateValidation",
          "name": "",
          "type": "uint8"
        },
        {
          "internalType": "bool",
          "name": "",
          "type": "bool"
        },
        {
          "internalType": "bool",
          "name": "",
          "type": "bool"
        },
        {
          "internalType": "bool",
          "name": "",
          "type": "bool"
        },
        {
          "internalType": "bool",
          "name": "",
          "type": "bool"
        },
        {
          "internalType": "address[]",
          "name": "",
          "type": "address[]"
        }
      ],
      "stateMutability": "view",
      "type": "function"
    },
    {
      "inputs": [
        {
          "internalType": "address",
          "name": "token",
          "type": "address"
        },
        {
          "internalType": "bytes32",
          "name": "partition",
          "type": "bytes32"
        },
        {
          "internalType": "uint256",
          "name": "granularity",
          "type": "uint256"
        }
      ],
      "name": "setGranularityByPartition",
      "outputs": [],
      "stateMutability": "nonpayable",
      "type": "function"
    },
    {
      "inputs": [
        {
          "internalType": "address",
          "name": "token",
          "type": "address"
        },
        {
          "internalType": "address",
          "name": "account",
          "type": "address"
        }
      ],
      "name": "spendableBalanceOf",
      "outputs": [
        {
          "internalType": "uint256",
          "name": "",
          "type": "uint256"
        }
      ],
      "stateMutability": "view",
      "type": "function"
    },
    {
      "inputs": [
        {
          "internalType": "address",
          "name": "token",
          "type": "address"
        },
        {
          "internalType": "bytes32",
          "name": "partition",
          "type": "bytes32"
        },
        {
          "internalType": "address",
          "name": "account",
          "type": "address"
        }
      ],
      "name": "spendableBalanceOfByPartition",
      "outputs": [
        {
          "internalType": "uint256",
          "name": "",
          "type": "uint256"
        }
      ],
      "stateMutability": "view",
      "type": "function"
    },
    {
      "inputs": [
        {
          "internalType": "bytes",
          "name": "payload",
          "type": "bytes"
        },
        {
          "internalType": "bytes32",
          "name": "partition",
          "type": "bytes32"
        },
        {
          "internalType": "address",
          "name": "operator",
          "type": "address"
        },
        {
          "internalType": "address",
          "name": "from",
          "type": "address"
        },
        {
          "internalType": "address",
          "name": "to",
          "type": "address"
        },
        {
          "internalType": "uint256",
          "name": "value",
          "type": "uint256"
        },
        {
          "internalType": "bytes",
          "name": "data",
          "type": "bytes"
        },
        {
          "internalType": "bytes",
          "name": "operatorData",
          "type": "bytes"
        }
      ],
      "name": "tokensToValidate",
      "outputs": [],
      "stateMutability": "nonpayable",
      "type": "function"
    },
    {
      "inputs": [
        {
          "internalType": "address",
          "name": "token",
          "type": "address"
        }
      ],
      "name": "totalSupplyOnHold",
      "outputs": [
        {
          "internalType": "uint256",
          "name": "",
          "type": "uint256"
        }
      ],
      "stateMutability": "view",
      "type": "function"
    },
    {
      "inputs": [
        {
          "internalType": "address",
          "name": "token",
          "type": "address"
        },
        {
          "internalType": "bytes32",
          "name": "partition",
          "type": "bytes32"
        }
      ],
      "name": "totalSupplyOnHoldByPartition",
      "outputs": [
        {
          "internalType": "uint256",
          "name": "",
          "type": "uint256"
        }
      ],
      "stateMutability": "view",
      "type": "function"
    },
    {
      "inputs": [
        {
          "internalType": "address",
          "name": "token",
          "type": "address"
        }
      ],
      "name": "unpause",
      "outputs": [],
      "stateMutability": "nonpayable",
      "type": "function"
    },
    {
      "inputs": [
        {
          "internalType": "address",
          "name": "token",
          "type": "address"
        },
        {
          "internalType": "address",
          "name": "sender",
          "type": "address"
        }
      ],
      "name": "usedCertificateNonce",
      "outputs": [
        {
          "internalType": "uint256",
          "name": "",
          "type": "uint256"
        }
      ],
      "stateMutability": "view",
      "type": "function"
    },
    {
      "inputs": [
        {
          "internalType": "address",
          "name": "token",
          "type": "address"
        },
        {
          "internalType": "bytes32",
          "name": "salt",
          "type": "bytes32"
        }
      ],
      "name": "usedCertificateSalt",
      "outputs": [
        {
          "internalType": "bool",
          "name": "",
          "type": "bool"
        }
      ],
      "stateMutability": "view",
      "type": "function"
    },
    {
      "inputs": [
        {
          "internalType": "address",
          "name": "token",
          "type": "address"
        }
      ],
      "name": "renounceMinter",
      "outputs": [],
      "stateMutability": "nonpayable",
      "type": "function"
    }
  ],
  "bytecode": "0x60806040523480156200001157600080fd5b506200005d6040518060400160405280601681526020017f45524331343030546f6b656e7356616c696461746f72000000000000000000008152506200006360201b620042f21760201c565b62000156565b600160076000836040516020016200007c9190620000f1565b60405160208183030381529060405280519060200120815260200190815260200160002060006101000a81548160ff02191690831515021790555050565b6000620000c7826200010a565b620000d3818562000115565b9350620000e581856020860162000120565b80840191505092915050565b6000620000ff8284620000ba565b915081905092915050565b600081519050919050565b600081905092915050565b60005b838110156200014057808201518184015260208101905062000123565b8381111562000150576000848401525b50505050565b61aa8080620001666000396000f3fe608060405234801561001057600080fd5b50600436106103275760003560e01c8063685e2519116101b8578063accf617511610104578063e323e671116100a2578063eb5314bd1161007c578063eb5314bd14610ad9578063ebf42f7714610af5578063ed2f909514610b11578063fa061ca014610b2d57610327565b8063e323e67114610a71578063e34a11ec14610a8d578063e81ea54114610abd57610327565b8063c428b202116100de578063c428b202146109ed578063c69664bb14610a09578063d47ac02a14610a25578063dfe15da014610a5557610327565b8063accf617514610958578063b090bee71461098d578063c1c60fe2146109bd57610327565b80639672d64b116101715780639e59ceba1161014b5780639e59ceba14610898578063a28e7c02146108c8578063a4aa023f146108f8578063a54cdf6a1461092857610327565b80639672d64b1461081c57806398a53ef51461084c5780639bd483ec1461087c57610327565b8063685e2519146107385780636eb6ad8f14610754578063732c916b1461077057806373e7b160146107a057806376a67a51146107d057806389d3a639146107ec57610327565b806341eb24bb1161027757806354c6f08c116102305780635f112c681161020a5780635f112c68146106a057806361aed064146106bc57806361c2e281146106ec57806362e93ffa1461071c57610327565b806354c6f08c1461063857806357b001f9146106545780635b4b2fd31461067057610327565b806341eb24bb146105545780634261699f1461057057806342be57871461058c578063450999a0146105bc578063520faa76146105ec578063530b8edd1461060857610327565b8063249cb3fa116102e45780632c55b05f116102be5780632c55b05f146104bc5780632e48152c146104d85780632fd33398146105085780633bddaf8f1461053857610327565b8063249cb3fa1461042c5780632744cc271461045c578063279f00dd1461048c57610327565b80630d21cdd81461032c578063118fa5db1461034857806312da4de6146103645780631529371f1461039c5780631db9c180146103cc5780632174e435146103fc575b600080fd5b61034660048036038101906103419190618be0565b610b49565b005b610362600480360381019061035d9190619006565b610b56565b005b61037e60048036038101906103799190618c6e565b610f48565b60405161039399989796959493929190619f85565b60405180910390f35b6103b660048036038101906103b19190618be0565b611063565b6040516103c3919061a57a565b60405180910390f35b6103e660048036038101906103e19190618c32565b6110ac565b6040516103f3919061a57a565b60405180910390f35b61041660048036038101906104119190618cf9565b611133565b6040516104239190619f26565b60405180910390f35b61044660048036038101906104419190619112565b611213565b6040516104539190619f41565b60405180910390f35b61047660048036038101906104719190618c32565b611272565b604051610483919061a57a565b60405180910390f35b6104a660048036038101906104a19190618df1565b6112f9565b6040516104b39190619f26565b60405180910390f35b6104d660048036038101906104d19190618c32565b61136a565b005b6104f260048036038101906104ed9190618be0565b61153d565b6040516104ff9190619f26565b60405180910390f35b610522600480360381019061051d9190618c32565b611593565b60405161052f9190619f26565b60405180910390f35b610552600480360381019061054d9190618be0565b6115ed565b005b61056e60048036038101906105699190618be0565b6115fa565b005b61058a60048036038101906105859190618c32565b611607565b005b6105a660048036038101906105a19190618c32565b6117da565b6040516105b39190619f26565b60405180910390f35b6105d660048036038101906105d19190618c6e565b611835565b6040516105e3919061a57a565b60405180910390f35b6106066004803603810190610601919061914e565b611890565b005b610622600480360381019061061d9190618df1565b611bea565b60405161062f9190619f26565b60405180910390f35b610652600480360381019061064d9190618f23565b611c5c565b005b61066e60048036038101906106699190618be0565b611c71565b005b61068a60048036038101906106859190618c32565b611f37565b604051610697919061a57a565b60405180910390f35b6106ba60048036038101906106b59190618be0565b611f4b565b005b6106d660048036038101906106d19190618c6e565b612162565b6040516106e39190619f26565b60405180910390f35b61070660048036038101906107019190618c32565b6121ca565b6040516107139190619f26565b60405180910390f35b61073660048036038101906107319190618ed4565b612225565b005b610752600480360381019061074d9190618c32565b612433565b005b61076e60048036038101906107699190618f23565b612606565b005b61078a60048036038101906107859190618caa565b61261b565b604051610797919061a57a565b60405180910390f35b6107ba60048036038101906107b59190618df1565b612631565b6040516107c79190619f26565b60405180910390f35b6107ea60048036038101906107e59190618be0565b6126a1565b005b61080660048036038101906108019190618df1565b612967565b6040516108139190619f26565b60405180910390f35b61083660048036038101906108319190618cf9565b6129d8565b6040516108439190619f26565b60405180910390f35b61086660048036038101906108619190619256565b612aba565b6040516108739190619f26565b60405180910390f35b61089660048036038101906108919190618c32565b612d2f565b005b6108b260048036038101906108ad9190618c32565b612f02565b6040516108bf9190619f26565b60405180910390f35b6108e260048036038101906108dd9190618c32565b612f5d565b6040516108ef9190619f26565b60405180910390f35b610912600480360381019061090d9190618c32565b612fb8565b60405161091f9190619f26565b60405180910390f35b610942600480360381019061093d9190618c6e565b613013565b60405161094f919061a57a565b60405180910390f35b610972600480360381019061096d9190618be0565b61306e565b6040516109849695949392919061a212565b60405180910390f35b6109a760048036038101906109a29190618f86565b6132d5565b6040516109b49190619f26565b60405180910390f35b6109d760048036038101906109d29190618c6e565b61333b565b6040516109e49190619f26565b60405180910390f35b610a076004803603810190610a029190618c32565b61334f565b005b610a236004803603810190610a1e9190618c32565b613522565b005b610a3f6004803603810190610a3a9190618f86565b6136f5565b604051610a4c9190619f26565b60405180910390f35b610a6f6004803603810190610a6a9190618c32565b61375a565b005b610a8b6004803603810190610a869190618be0565b61392d565b005b610aa76004803603810190610aa29190618caa565b61393a565b604051610ab4919061a57a565b60405180910390f35b610ad76004803603810190610ad29190618c32565b6139d3565b005b610af36004803603810190610aee9190618c32565b613ba6565b005b610b0f6004803603810190610b0a9190618c32565b613d79565b005b610b2b6004803603810190610b269190618c32565b613f4c565b005b610b476004803603810190610b429190618c32565b61411f565b005b610b538133614347565b50565b878073ffffffffffffffffffffffffffffffffffffffff163373ffffffffffffffffffffffffffffffffffffffff161480610c3957508073ffffffffffffffffffffffffffffffffffffffff16638da5cb5b6040518163ffffffff1660e01b815260040160206040518083038186803b158015610bd257600080fd5b505afa158015610be6573d6000803e3d6000fd5b505050506040513d601f19601f82011682018060405250810190610c0a9190618c09565b73ffffffffffffffffffffffffffffffffffffffff163373ffffffffffffffffffffffffffffffffffffffff16145b80610cca5750600960008273ffffffffffffffffffffffffffffffffffffffff1673ffffffffffffffffffffffffffffffffffffffff16815260200190815260200160002060003373ffffffffffffffffffffffffffffffffffffffff1673ffffffffffffffffffffffffffffffffffffffff16815260200190815260200160002060009054906101000a900460ff165b610d09576040517f08c379a0000000000000000000000000000000000000000000000000000000008152600401610d009061a4ba565b60405180910390fd5b87600c60008b73ffffffffffffffffffffffffffffffffffffffff1673ffffffffffffffffffffffffffffffffffffffff16815260200190815260200160002060006101000a81548160ff02191690836002811115610d91577f4e487b7100000000000000000000000000000000000000000000000000000000600052602160045260246000fd5b021790555086600a60008b73ffffffffffffffffffffffffffffffffffffffff1673ffffffffffffffffffffffffffffffffffffffff16815260200190815260200160002060006101000a81548160ff02191690831515021790555085600b60008b73ffffffffffffffffffffffffffffffffffffffff1673ffffffffffffffffffffffffffffffffffffffff16815260200190815260200160002060006101000a81548160ff02191690831515021790555084600f60008b73ffffffffffffffffffffffffffffffffffffffff1673ffffffffffffffffffffffffffffffffffffffff16815260200190815260200160002060006101000a81548160ff02191690831515021790555083601060008b73ffffffffffffffffffffffffffffffffffffffff1673ffffffffffffffffffffffffffffffffffffffff16815260200190815260200160002060006101000a81548160ff021916908315150217905550610f3d89848480806020026020016040519081016040528093929190818152602001838360200280828437600081840152601f19601f820116905080830192505050505050506143f6565b505050505050505050565b600080600080600080600080600080601260008d73ffffffffffffffffffffffffffffffffffffffff1673ffffffffffffffffffffffffffffffffffffffff16815260200190815260200160002060008c8152602001908152602001600020905080600001548160010160009054906101000a900473ffffffffffffffffffffffffffffffffffffffff168260020160009054906101000a900473ffffffffffffffffffffffffffffffffffffffff168360030160009054906101000a900473ffffffffffffffffffffffffffffffffffffffff1684600401548560050154866006015487600701548860080160009054906101000a900460ff16995099509950995099509950995099509950509295985092959850929598565b6000601660008373ffffffffffffffffffffffffffffffffffffffff1673ffffffffffffffffffffffffffffffffffffffff168152602001908152602001600020549050919050565b6000601360008473ffffffffffffffffffffffffffffffffffffffff1673ffffffffffffffffffffffffffffffffffffffff16815260200190815260200160002060008373ffffffffffffffffffffffffffffffffffffffff1673ffffffffffffffffffffffffffffffffffffffff16815260200190815260200160002054905092915050565b60008073ffffffffffffffffffffffffffffffffffffffff168a73ffffffffffffffffffffffffffffffffffffffff1614156111a4576040517f08c379a000000000000000000000000000000000000000000000000000000000815260040161119b9061a35a565b60405180910390fd5b6112028c8c8c8c8c8c8c6111b78d6146da565b8c8c8c8080601f016020809104026020016040519081016040528093929190818152602001838380828437600081840152601f19601f82011690508083019250505050505050614708565b90509b9a5050505050505050505050565b60006007600084815260200190815260200160002060009054906101000a900460ff16156112675760405160200161124a90619ef6565b60405160208183030381529060405280519060200120905061126c565b600090505b92915050565b6000600d60008473ffffffffffffffffffffffffffffffffffffffff1673ffffffffffffffffffffffffffffffffffffffff16815260200190815260200160002060008373ffffffffffffffffffffffffffffffffffffffff1673ffffffffffffffffffffffffffffffffffffffff16815260200190815260200160002054905092915050565b600061135a8b8b60008c8c8c8c61130f8d6146da565b8c8c8c8080601f016020809104026020016040519081016040528093929190818152602001838380828437600081840152601f19601f82011690508083019250505050505050614708565b90509a9950505050505050505050565b818073ffffffffffffffffffffffffffffffffffffffff163373ffffffffffffffffffffffffffffffffffffffff16148061144d57508073ffffffffffffffffffffffffffffffffffffffff16638da5cb5b6040518163ffffffff1660e01b815260040160206040518083038186803b1580156113e657600080fd5b505afa1580156113fa573d6000803e3d6000fd5b505050506040513d601f19601f8201168201806040525081019061141e9190618c09565b73ffffffffffffffffffffffffffffffffffffffff163373ffffffffffffffffffffffffffffffffffffffff16145b806114de5750600960008273ffffffffffffffffffffffffffffffffffffffff1673ffffffffffffffffffffffffffffffffffffffff16815260200190815260200160002060003373ffffffffffffffffffffffffffffffffffffffff1673ffffffffffffffffffffffffffffffffffffffff16815260200190815260200160002060009054906101000a900460ff165b806114ef57506114ee8133612f5d565b5b61152e576040517f08c379a00000000000000000000000000000000000000000000000000000000081526004016115259061a37a565b60405180910390fd5b6115388383614bc8565b505050565b6000600160008373ffffffffffffffffffffffffffffffffffffffff1673ffffffffffffffffffffffffffffffffffffffff16815260200190815260200160002060009054906101000a900460ff169050919050565b60006115e5826000808673ffffffffffffffffffffffffffffffffffffffff1673ffffffffffffffffffffffffffffffffffffffff168152602001908152602001600020614c7790919063ffffffff16565b905092915050565b6115f78133614d3f565b50565b6116048133614dee565b50565b818073ffffffffffffffffffffffffffffffffffffffff163373ffffffffffffffffffffffffffffffffffffffff1614806116ea57508073ffffffffffffffffffffffffffffffffffffffff16638da5cb5b6040518163ffffffff1660e01b815260040160206040518083038186803b15801561168357600080fd5b505afa158015611697573d6000803e3d6000fd5b505050506040513d601f19601f820116820180604052508101906116bb9190618c09565b73ffffffffffffffffffffffffffffffffffffffff163373ffffffffffffffffffffffffffffffffffffffff16145b8061177b5750600960008273ffffffffffffffffffffffffffffffffffffffff1673ffffffffffffffffffffffffffffffffffffffff16815260200190815260200160002060003373ffffffffffffffffffffffffffffffffffffffff1673ffffffffffffffffffffffffffffffffffffffff16815260200190815260200160002060009054906101000a900460ff165b8061178c575061178b81336117da565b5b6117cb576040517f08c379a00000000000000000000000000000000000000000000000000000000081526004016117c29061a45a565b60405180910390fd5b6117d58383614e9c565b505050565b600061182d82600360008673ffffffffffffffffffffffffffffffffffffffff1673ffffffffffffffffffffffffffffffffffffffff168152602001908152602001600020614c7790919063ffffffff16565b905092915050565b6000601560008473ffffffffffffffffffffffffffffffffffffffff1673ffffffffffffffffffffffffffffffffffffffff168152602001908152602001600020600083815260200190815260200160002054905092915050565b600080600061193d338f8f8080601f016020809104026020016040519081016040528093929190818152602001838380828437600081840152601f19601f820116905080830192505050505050508d60008989905014156118f2578a8a6118f5565b88885b8080601f016020809104026020016040519081016040528093929190818152602001838380828437600081840152601f19601f82011690508083019250505050505050614f4b565b92509250925082611983576040517f08c379a000000000000000000000000000000000000000000000000000000000815260040161197a9061a27a565b60405180910390fd5b61198f33838d846151ba565b5050506119e2338c8c8080601f016020809104026020016040519081016040528093929190818152602001838380828437600081840152601f19601f8201169050808301925050505050505089896153b5565b611a21576040517f08c379a0000000000000000000000000000000000000000000000000000000008152600401611a189061a27a565b60405180910390fd5b611a2a3361153d565b15611a6a576040517f08c379a0000000000000000000000000000000000000000000000000000000008152600401611a619061a27a565b60405180910390fd5b611a75338a87615687565b611ab4576040517f08c379a0000000000000000000000000000000000000000000000000000000008152600401611aab9061a33a565b60405180910390fd5b611ac2338a8a8a8a8a6157ad565b611b01576040517f08c379a0000000000000000000000000000000000000000000000000000000008152600401611af89061a3ba565b60405180910390fd5b6000611b11338b8b8b8b8b6159b3565b915050601060003373ffffffffffffffffffffffffffffffffffffffff1673ffffffffffffffffffffffffffffffffffffffff16815260200190815260200160002060009054906101000a900460ff168015611b6e575060008114155b15611bdc576000601260003373ffffffffffffffffffffffffffffffffffffffff1673ffffffffffffffffffffffffffffffffffffffff16815260200190815260200160002060008381526020019081526020016000209050611bda3382848a85600401546000615a16565b505b505050505050505050505050565b6000611bf585615b68565b611c4c8b8b60008c8c8c8c8c8c8c8c8080601f016020809104026020016040519081016040528093929190818152602001838380828437600081840152601f19601f82011690508083019250505050505050614708565b90509a9950505050505050505050565b611c6b84843385856000615bb8565b50505050565b808073ffffffffffffffffffffffffffffffffffffffff163373ffffffffffffffffffffffffffffffffffffffff161480611d5457508073ffffffffffffffffffffffffffffffffffffffff16638da5cb5b6040518163ffffffff1660e01b815260040160206040518083038186803b158015611ced57600080fd5b505afa158015611d01573d6000803e3d6000fd5b505050506040513d601f19601f82011682018060405250810190611d259190618c09565b73ffffffffffffffffffffffffffffffffffffffff163373ffffffffffffffffffffffffffffffffffffffff16145b80611de55750600960008273ffffffffffffffffffffffffffffffffffffffff1673ffffffffffffffffffffffffffffffffffffffff16815260200190815260200160002060003373ffffffffffffffffffffffffffffffffffffffff1673ffffffffffffffffffffffffffffffffffffffff16815260200190815260200160002060009054906101000a900460ff165b80611df65750611df58133611593565b5b611e35576040517f08c379a0000000000000000000000000000000000000000000000000000000008152600401611e2c9061a2da565b60405180910390fd5b81600160008273ffffffffffffffffffffffffffffffffffffffff1673ffffffffffffffffffffffffffffffffffffffff16815260200190815260200160002060009054906101000a900460ff16611e8c57600080fd5b6000600160008573ffffffffffffffffffffffffffffffffffffffff1673ffffffffffffffffffffffffffffffffffffffff16815260200190815260200160002060006101000a81548160ff0219169083151502179055508273ffffffffffffffffffffffffffffffffffffffff167f3d072963433794eb417a69355df67d08bbd73d5076ef653d6863861161d60af333604051611f2a9190619f0b565b60405180910390a2505050565b6000611f438383615ebd565b905092915050565b808073ffffffffffffffffffffffffffffffffffffffff163373ffffffffffffffffffffffffffffffffffffffff16148061202e57508073ffffffffffffffffffffffffffffffffffffffff16638da5cb5b6040518163ffffffff1660e01b815260040160206040518083038186803b158015611fc757600080fd5b505afa158015611fdb573d6000803e3d6000fd5b505050506040513d601f19601f82011682018060405250810190611fff9190618c09565b73ffffffffffffffffffffffffffffffffffffffff163373ffffffffffffffffffffffffffffffffffffffff16145b806120bf5750600960008273ffffffffffffffffffffffffffffffffffffffff1673ffffffffffffffffffffffffffffffffffffffff16815260200190815260200160002060003373ffffffffffffffffffffffffffffffffffffffff1673ffffffffffffffffffffffffffffffffffffffff16815260200190815260200160002060009054906101000a900460ff165b6120fe576040517f08c379a00000000000000000000000000000000000000000000000000000000081526004016120f59061a4ba565b60405180910390fd5b8173ffffffffffffffffffffffffffffffffffffffff1663986502756040518163ffffffff1660e01b8152600401600060405180830381600087803b15801561214657600080fd5b505af115801561215a573d6000803e3d6000fd5b505050505050565b6000600e60008473ffffffffffffffffffffffffffffffffffffffff1673ffffffffffffffffffffffffffffffffffffffff168152602001908152602001600020600083815260200190815260200160002060009054906101000a900460ff16905092915050565b600061221d82600460008673ffffffffffffffffffffffffffffffffffffffff1673ffffffffffffffffffffffffffffffffffffffff168152602001908152602001600020614c7790919063ffffffff16565b905092915050565b828073ffffffffffffffffffffffffffffffffffffffff163373ffffffffffffffffffffffffffffffffffffffff16148061230857508073ffffffffffffffffffffffffffffffffffffffff16638da5cb5b6040518163ffffffff1660e01b815260040160206040518083038186803b1580156122a157600080fd5b505afa1580156122b5573d6000803e3d6000fd5b505050506040513d601f19601f820116820180604052508101906122d99190618c09565b73ffffffffffffffffffffffffffffffffffffffff163373ffffffffffffffffffffffffffffffffffffffff16145b806123995750600960008273ffffffffffffffffffffffffffffffffffffffff1673ffffffffffffffffffffffffffffffffffffffff16815260200190815260200160002060003373ffffffffffffffffffffffffffffffffffffffff1673ffffffffffffffffffffffffffffffffffffffff16815260200190815260200160002060009054906101000a900460ff165b6123d8576040517f08c379a00000000000000000000000000000000000000000000000000000000081526004016123cf9061a4ba565b60405180910390fd5b81601160008673ffffffffffffffffffffffffffffffffffffffff1673ffffffffffffffffffffffffffffffffffffffff16815260200190815260200160002060008581526020019081526020016000208190555050505050565b818073ffffffffffffffffffffffffffffffffffffffff163373ffffffffffffffffffffffffffffffffffffffff16148061251657508073ffffffffffffffffffffffffffffffffffffffff16638da5cb5b6040518163ffffffff1660e01b815260040160206040518083038186803b1580156124af57600080fd5b505afa1580156124c3573d6000803e3d6000fd5b505050506040513d601f19601f820116820180604052508101906124e79190618c09565b73ffffffffffffffffffffffffffffffffffffffff163373ffffffffffffffffffffffffffffffffffffffff16145b806125a75750600960008273ffffffffffffffffffffffffffffffffffffffff1673ffffffffffffffffffffffffffffffffffffffff16815260200190815260200160002060003373ffffffffffffffffffffffffffffffffffffffff1673ffffffffffffffffffffffffffffffffffffffff16815260200190815260200160002060009054906101000a900460ff165b806125b857506125b781336117da565b5b6125f7576040517f08c379a00000000000000000000000000000000000000000000000000000000081526004016125ee9061a45a565b60405180910390fd5b6126018383615fd7565b505050565b61261584843385856001615bb8565b50505050565b6000612628848484616086565b90509392505050565b60006126918b8b338c8c8c8c6126468d6146da565b8c8c8c8080601f016020809104026020016040519081016040528093929190818152602001838380828437600081840152601f19601f82011690508083019250505050505050614708565b90509a9950505050505050505050565b808073ffffffffffffffffffffffffffffffffffffffff163373ffffffffffffffffffffffffffffffffffffffff16148061278457508073ffffffffffffffffffffffffffffffffffffffff16638da5cb5b6040518163ffffffff1660e01b815260040160206040518083038186803b15801561271d57600080fd5b505afa158015612731573d6000803e3d6000fd5b505050506040513d601f19601f820116820180604052508101906127559190618c09565b73ffffffffffffffffffffffffffffffffffffffff163373ffffffffffffffffffffffffffffffffffffffff16145b806128155750600960008273ffffffffffffffffffffffffffffffffffffffff1673ffffffffffffffffffffffffffffffffffffffff16815260200190815260200160002060003373ffffffffffffffffffffffffffffffffffffffff1673ffffffffffffffffffffffffffffffffffffffff16815260200190815260200160002060009054906101000a900460ff165b8061282657506128258133611593565b5b612865576040517f08c379a000000000000000000000000000000000000000000000000000000000815260040161285c9061a2da565b60405180910390fd5b81600160008273ffffffffffffffffffffffffffffffffffffffff1673ffffffffffffffffffffffffffffffffffffffff16815260200190815260200160002060009054906101000a900460ff16156128bd57600080fd5b60018060008573ffffffffffffffffffffffffffffffffffffffff1673ffffffffffffffffffffffffffffffffffffffff16815260200190815260200160002060006101000a81548160ff0219169083151502179055508273ffffffffffffffffffffffffffffffffffffffff167f3dd4f37ca5eaf6c357698a52c806820426d7c9a26adb0991c3bebb09cf23352a3360405161295a9190619f0b565b60405180910390a2505050565b600061297285615b68565b6129c88b8b338c8c8c8c8c8c8c8c8080601f016020809104026020016040519081016040528093929190818152602001838380828437600081840152601f19601f82011690508083019250505050505050614708565b90509a9950505050505050505050565b60006129e385615b68565b600073ffffffffffffffffffffffffffffffffffffffff168a73ffffffffffffffffffffffffffffffffffffffff161415612a53576040517f08c379a0000000000000000000000000000000000000000000000000000000008152600401612a4a9061a35a565b60405180910390fd5b612aa98c8c8c8c8c8c8c8c8c8c8c8080601f016020809104026020016040519081016040528093929190818152602001838380828437600081840152601f19601f82011690508083019250505050505050614708565b90509b9a5050505050505050505050565b600080612bc3836000016020810190612ad39190618be0565b848060200190612ae3919061a595565b8080601f016020809104026020016040519081016040528093929190818152602001838380828437600081840152601f19601f82011690508083019250505050505050856060016020810190612b399190618be0565b600087806101000190612b4c919061a595565b90501415612b6957868060e00190612b64919061a595565b612b7b565b86806101000190612b7a919061a595565b5b8080601f016020809104026020016040519081016040528093929190818152602001838380828437600081840152601f19601f82011690508083019250505050505050614f4b565b50509050808015612c645750612c63836000016020810190612be59190618be0565b848060200190612bf5919061a595565b8080601f016020809104026020016040519081016040528093929190818152602001838380828437600081840152601f19601f82011690508083019250505050505050856080016020810190612c4b9190618be0565b8660a0016020810190612c5e9190618be0565b6153b5565b5b9050808015612c8b5750612c89836000016020810190612c849190618be0565b61153d565b155b9050808015612cbb5750612cba836000016020810190612cab9190618be0565b84604001358560c00135615687565b5b9050808015612d245750612d23836000016020810190612cdb9190618be0565b8460400135856060016020810190612cf39190618be0565b866080016020810190612d069190618be0565b8760a0016020810190612d199190618be0565b8860c001356157ad565b5b905080915050919050565b818073ffffffffffffffffffffffffffffffffffffffff163373ffffffffffffffffffffffffffffffffffffffff161480612e1257508073ffffffffffffffffffffffffffffffffffffffff16638da5cb5b6040518163ffffffff1660e01b815260040160206040518083038186803b158015612dab57600080fd5b505afa158015612dbf573d6000803e3d6000fd5b505050506040513d601f19601f82011682018060405250810190612de39190618c09565b73ffffffffffffffffffffffffffffffffffffffff163373ffffffffffffffffffffffffffffffffffffffff16145b80612ea35750600960008273ffffffffffffffffffffffffffffffffffffffff1673ffffffffffffffffffffffffffffffffffffffff16815260200190815260200160002060003373ffffffffffffffffffffffffffffffffffffffff1673ffffffffffffffffffffffffffffffffffffffff16815260200190815260200160002060009054906101000a900460ff165b80612eb45750612eb38133612f5d565b5b612ef3576040517f08c379a0000000000000000000000000000000000000000000000000000000008152600401612eea9061a37a565b60405180910390fd5b612efd83836161b4565b505050565b6000612f5582600260008673ffffffffffffffffffffffffffffffffffffffff1673ffffffffffffffffffffffffffffffffffffffff168152602001908152602001600020614c7790919063ffffffff16565b905092915050565b6000612fb082600560008673ffffffffffffffffffffffffffffffffffffffff1673ffffffffffffffffffffffffffffffffffffffff168152602001908152602001600020614c7790919063ffffffff16565b905092915050565b600061300b82600660008673ffffffffffffffffffffffffffffffffffffffff1673ffffffffffffffffffffffffffffffffffffffff168152602001908152602001600020614c7790919063ffffffff16565b905092915050565b6000601160008473ffffffffffffffffffffffffffffffffffffffff1673ffffffffffffffffffffffffffffffffffffffff168152602001908152602001600020600083815260200190815260200160002054905092915050565b60008060008060006060600c60008873ffffffffffffffffffffffffffffffffffffffff1673ffffffffffffffffffffffffffffffffffffffff16815260200190815260200160002060009054906101000a900460ff16600a60008973ffffffffffffffffffffffffffffffffffffffff1673ffffffffffffffffffffffffffffffffffffffff16815260200190815260200160002060009054906101000a900460ff16600b60008a73ffffffffffffffffffffffffffffffffffffffff1673ffffffffffffffffffffffffffffffffffffffff16815260200190815260200160002060009054906101000a900460ff16600f60008b73ffffffffffffffffffffffffffffffffffffffff1673ffffffffffffffffffffffffffffffffffffffff16815260200190815260200160002060009054906101000a900460ff16601060008c73ffffffffffffffffffffffffffffffffffffffff1673ffffffffffffffffffffffffffffffffffffffff16815260200190815260200160002060009054906101000a900460ff16600860008d73ffffffffffffffffffffffffffffffffffffffff1673ffffffffffffffffffffffffffffffffffffffff168152602001908152602001600020808054806020026020016040519081016040528092919081815260200182805480156132b957602002820191906000526020600020905b8160009054906101000a900473ffffffffffffffffffffffffffffffffffffffff1673ffffffffffffffffffffffffffffffffffffffff168152602001906001019080831161326f575b5050505050905095509550955095509550955091939550919395565b60006132e084615b68565b61333086868686868080601f016020809104026020016040519081016040528093929190818152602001838380828437600081840152601f19601f82011690508083019250505050505050616263565b905095945050505050565b60006133478383616571565b905092915050565b818073ffffffffffffffffffffffffffffffffffffffff163373ffffffffffffffffffffffffffffffffffffffff16148061343257508073ffffffffffffffffffffffffffffffffffffffff16638da5cb5b6040518163ffffffff1660e01b815260040160206040518083038186803b1580156133cb57600080fd5b505afa1580156133df573d6000803e3d6000fd5b505050506040513d601f19601f820116820180604052508101906134039190618c09565b73ffffffffffffffffffffffffffffffffffffffff163373ffffffffffffffffffffffffffffffffffffffff16145b806134c35750600960008273ffffffffffffffffffffffffffffffffffffffff1673ffffffffffffffffffffffffffffffffffffffff16815260200190815260200160002060003373ffffffffffffffffffffffffffffffffffffffff1673ffffffffffffffffffffffffffffffffffffffff16815260200190815260200160002060009054906101000a900460ff165b806134d457506134d38133612f5d565b5b613513576040517f08c379a000000000000000000000000000000000000000000000000000000000815260040161350a9061a37a565b60405180910390fd5b61351d8383616b33565b505050565b818073ffffffffffffffffffffffffffffffffffffffff163373ffffffffffffffffffffffffffffffffffffffff16148061360557508073ffffffffffffffffffffffffffffffffffffffff16638da5cb5b6040518163ffffffff1660e01b815260040160206040518083038186803b15801561359e57600080fd5b505afa1580156135b2573d6000803e3d6000fd5b505050506040513d601f19601f820116820180604052508101906135d69190618c09565b73ffffffffffffffffffffffffffffffffffffffff163373ffffffffffffffffffffffffffffffffffffffff16145b806136965750600960008273ffffffffffffffffffffffffffffffffffffffff1673ffffffffffffffffffffffffffffffffffffffff16815260200190815260200160002060003373ffffffffffffffffffffffffffffffffffffffff1673ffffffffffffffffffffffffffffffffffffffff16815260200190815260200160002060009054906101000a900460ff165b806136a757506136a68133612f02565b5b6136e6576040517f08c379a00000000000000000000000000000000000000000000000000000000081526004016136dd9061a43a565b60405180910390fd5b6136f08383616be2565b505050565b600061374f8686613705876146da565b86868080601f016020809104026020016040519081016040528093929190818152602001838380828437600081840152601f19601f82011690508083019250505050505050616263565b905095945050505050565b818073ffffffffffffffffffffffffffffffffffffffff163373ffffffffffffffffffffffffffffffffffffffff16148061383d57508073ffffffffffffffffffffffffffffffffffffffff16638da5cb5b6040518163ffffffff1660e01b815260040160206040518083038186803b1580156137d657600080fd5b505afa1580156137ea573d6000803e3d6000fd5b505050506040513d601f19601f8201168201806040525081019061380e9190618c09565b73ffffffffffffffffffffffffffffffffffffffff163373ffffffffffffffffffffffffffffffffffffffff16145b806138ce5750600960008273ffffffffffffffffffffffffffffffffffffffff1673ffffffffffffffffffffffffffffffffffffffff16815260200190815260200160002060003373ffffffffffffffffffffffffffffffffffffffff1673ffffffffffffffffffffffffffffffffffffffff16815260200190815260200160002060009054906101000a900460ff165b806138df57506138de81336117da565b5b61391e576040517f08c379a00000000000000000000000000000000000000000000000000000000081526004016139159061a45a565b60405180910390fd5b6139288383614347565b505050565b6139378133616c91565b50565b6000601460008573ffffffffffffffffffffffffffffffffffffffff1673ffffffffffffffffffffffffffffffffffffffff16815260200190815260200160002060008373ffffffffffffffffffffffffffffffffffffffff1673ffffffffffffffffffffffffffffffffffffffff16815260200190815260200160002060008481526020019081526020016000205490509392505050565b818073ffffffffffffffffffffffffffffffffffffffff163373ffffffffffffffffffffffffffffffffffffffff161480613ab657508073ffffffffffffffffffffffffffffffffffffffff16638da5cb5b6040518163ffffffff1660e01b815260040160206040518083038186803b158015613a4f57600080fd5b505afa158015613a63573d6000803e3d6000fd5b505050506040513d601f19601f82011682018060405250810190613a879190618c09565b73ffffffffffffffffffffffffffffffffffffffff163373ffffffffffffffffffffffffffffffffffffffff16145b80613b475750600960008273ffffffffffffffffffffffffffffffffffffffff1673ffffffffffffffffffffffffffffffffffffffff16815260200190815260200160002060003373ffffffffffffffffffffffffffffffffffffffff1673ffffffffffffffffffffffffffffffffffffffff16815260200190815260200160002060009054906101000a900460ff165b80613b585750613b578133612f02565b5b613b97576040517f08c379a0000000000000000000000000000000000000000000000000000000008152600401613b8e9061a43a565b60405180910390fd5b613ba18383614d3f565b505050565b818073ffffffffffffffffffffffffffffffffffffffff163373ffffffffffffffffffffffffffffffffffffffff161480613c8957508073ffffffffffffffffffffffffffffffffffffffff16638da5cb5b6040518163ffffffff1660e01b815260040160206040518083038186803b158015613c2257600080fd5b505afa158015613c36573d6000803e3d6000fd5b505050506040513d601f19601f82011682018060405250810190613c5a9190618c09565b73ffffffffffffffffffffffffffffffffffffffff163373ffffffffffffffffffffffffffffffffffffffff16145b80613d1a5750600960008273ffffffffffffffffffffffffffffffffffffffff1673ffffffffffffffffffffffffffffffffffffffff16815260200190815260200160002060003373ffffffffffffffffffffffffffffffffffffffff1673ffffffffffffffffffffffffffffffffffffffff16815260200190815260200160002060009054906101000a900460ff165b80613d2b5750613d2a8133611593565b5b613d6a576040517f08c379a0000000000000000000000000000000000000000000000000000000008152600401613d619061a2da565b60405180910390fd5b613d748383616d40565b505050565b818073ffffffffffffffffffffffffffffffffffffffff163373ffffffffffffffffffffffffffffffffffffffff161480613e5c57508073ffffffffffffffffffffffffffffffffffffffff16638da5cb5b6040518163ffffffff1660e01b815260040160206040518083038186803b158015613df557600080fd5b505afa158015613e09573d6000803e3d6000fd5b505050506040513d601f19601f82011682018060405250810190613e2d9190618c09565b73ffffffffffffffffffffffffffffffffffffffff163373ffffffffffffffffffffffffffffffffffffffff16145b80613eed5750600960008273ffffffffffffffffffffffffffffffffffffffff1673ffffffffffffffffffffffffffffffffffffffff16815260200190815260200160002060003373ffffffffffffffffffffffffffffffffffffffff1673ffffffffffffffffffffffffffffffffffffffff16815260200190815260200160002060009054906101000a900460ff165b80613efe5750613efd8133612f5d565b5b613f3d576040517f08c379a0000000000000000000000000000000000000000000000000000000008152600401613f349061a37a565b60405180910390fd5b613f478383616c91565b505050565b818073ffffffffffffffffffffffffffffffffffffffff163373ffffffffffffffffffffffffffffffffffffffff16148061402f57508073ffffffffffffffffffffffffffffffffffffffff16638da5cb5b6040518163ffffffff1660e01b815260040160206040518083038186803b158015613fc857600080fd5b505afa158015613fdc573d6000803e3d6000fd5b505050506040513d601f19601f820116820180604052508101906140009190618c09565b73ffffffffffffffffffffffffffffffffffffffff163373ffffffffffffffffffffffffffffffffffffffff16145b806140c05750600960008273ffffffffffffffffffffffffffffffffffffffff1673ffffffffffffffffffffffffffffffffffffffff16815260200190815260200160002060003373ffffffffffffffffffffffffffffffffffffffff1673ffffffffffffffffffffffffffffffffffffffff16815260200190815260200160002060009054906101000a900460ff165b806140d157506140d08133611593565b5b614110576040517f08c379a00000000000000000000000000000000000000000000000000000000081526004016141079061a2da565b60405180910390fd5b61411a8383614dee565b505050565b818073ffffffffffffffffffffffffffffffffffffffff163373ffffffffffffffffffffffffffffffffffffffff16148061420257508073ffffffffffffffffffffffffffffffffffffffff16638da5cb5b6040518163ffffffff1660e01b815260040160206040518083038186803b15801561419b57600080fd5b505afa1580156141af573d6000803e3d6000fd5b505050506040513d601f19601f820116820180604052508101906141d39190618c09565b73ffffffffffffffffffffffffffffffffffffffff163373ffffffffffffffffffffffffffffffffffffffff16145b806142935750600960008273ffffffffffffffffffffffffffffffffffffffff1673ffffffffffffffffffffffffffffffffffffffff16815260200190815260200160002060003373ffffffffffffffffffffffffffffffffffffffff1673ffffffffffffffffffffffffffffffffffffffff16815260200190815260200160002060009054906101000a900460ff165b806142a457506142a381336117da565b5b6142e3576040517f08c379a00000000000000000000000000000000000000000000000000000000081526004016142da9061a45a565b60405180910390fd5b6142ed8383616dee565b505050565b600160076000836040516020016143099190619edf565b60405160208183030381529060405280519060200120815260200190815260200160002060006101000a81548160ff02191690831515021790555050565b61439881600360008573ffffffffffffffffffffffffffffffffffffffff1673ffffffffffffffffffffffffffffffffffffffff168152602001908152602001600020616e9d90919063ffffffff16565b8073ffffffffffffffffffffffffffffffffffffffff168273ffffffffffffffffffffffffffffffffffffffff167f84c618afa7439d9985b8c707a18637a9c6b0128399c0f5dee2ca90254d66fc3a60405160405180910390a35050565b60005b600860008473ffffffffffffffffffffffffffffffffffffffff1673ffffffffffffffffffffffffffffffffffffffff1681526020019081526020016000208054905081101561458c576000600960008573ffffffffffffffffffffffffffffffffffffffff1673ffffffffffffffffffffffffffffffffffffffff1681526020019081526020016000206000600860008773ffffffffffffffffffffffffffffffffffffffff1673ffffffffffffffffffffffffffffffffffffffff16815260200190815260200160002084815481106144fd577f4e487b7100000000000000000000000000000000000000000000000000000000600052603260045260246000fd5b9060005260206000200160009054906101000a900473ffffffffffffffffffffffffffffffffffffffff1673ffffffffffffffffffffffffffffffffffffffff1673ffffffffffffffffffffffffffffffffffffffff16815260200190815260200160002060006101000a81548160ff02191690831515021790555080806145849061a89b565b9150506143f9565b5060005b8151811015614681576001600960008573ffffffffffffffffffffffffffffffffffffffff1673ffffffffffffffffffffffffffffffffffffffff1681526020019081526020016000206000848481518110614615577f4e487b7100000000000000000000000000000000000000000000000000000000600052603260045260246000fd5b602002602001015173ffffffffffffffffffffffffffffffffffffffff1673ffffffffffffffffffffffffffffffffffffffff16815260200190815260200160002060006101000a81548160ff02191690831515021790555080806146799061a89b565b915050614590565b5080600860008473ffffffffffffffffffffffffffffffffffffffff1673ffffffffffffffffffffffffffffffffffffffff16815260200190815260200160002090805190602001906146d59291906189cc565b505050565b60008060009050600083146146ff576146fc8342616f4490919063ffffffff16565b90505b80915050919050565b600080601260008d73ffffffffffffffffffffffffffffffffffffffff1673ffffffffffffffffffffffffffffffffffffffff16815260200190815260200160002060008c81526020019081526020016000209050600073ffffffffffffffffffffffffffffffffffffffff168973ffffffffffffffffffffffffffffffffffffffff1614156147cd576040517f08c379a00000000000000000000000000000000000000000000000000000000081526004016147c49061a3da565b60405180910390fd5b6000861415614811576040517f08c379a00000000000000000000000000000000000000000000000000000000081526004016148089061a31a565b60405180910390fd5b6000816004015414614858576040517f08c379a000000000000000000000000000000000000000000000000000000000815260040161484f9061a55a565b60405180910390fd5b6148648c338c86616f5a565b6148a3576040517f08c379a000000000000000000000000000000000000000000000000000000000815260040161489a9061a53a565b60405180910390fd5b600073ffffffffffffffffffffffffffffffffffffffff168a73ffffffffffffffffffffffffffffffffffffffff1614614925576148e28c888c616086565b861115614924576040517f08c379a000000000000000000000000000000000000000000000000000000000815260040161491b9061a2fa565b60405180910390fd5b5b868160000181905550898160010160006101000a81548173ffffffffffffffffffffffffffffffffffffffff021916908373ffffffffffffffffffffffffffffffffffffffff160217905550888160020160006101000a81548173ffffffffffffffffffffffffffffffffffffffff021916908373ffffffffffffffffffffffffffffffffffffffff160217905550878160030160006101000a81548173ffffffffffffffffffffffffffffffffffffffff021916908373ffffffffffffffffffffffffffffffffffffffff16021790555085816004018190555084816005018190555083816006018190555060018160080160006101000a81548160ff02191690836006811115614a60577f4e487b7100000000000000000000000000000000000000000000000000000000600052602160045260246000fd5b0217905550600073ffffffffffffffffffffffffffffffffffffffff168a73ffffffffffffffffffffffffffffffffffffffff1614614b4557614aa48c828d61716a565b6000614b288d83600001548460030160009054906101000a900473ffffffffffffffffffffffffffffffffffffffff168560010160009054906101000a900473ffffffffffffffffffffffffffffffffffffffff168660020160009054906101000a900473ffffffffffffffffffffffffffffffffffffffff1687600401546159b3565b5090508b6017600083815260200190815260200160002081905550505b8773ffffffffffffffffffffffffffffffffffffffff168b8d73ffffffffffffffffffffffffffffffffffffffff167fe6adc59c6b5c7a2129126ae891955f416cc5837e1489b17e7fb03dd67d2ef4d18a8e8e8c8c8c604051614bad9695949392919061a07d565b60405180910390a460019150509a9950505050505050505050565b614c1981600660008573ffffffffffffffffffffffffffffffffffffffff1673ffffffffffffffffffffffffffffffffffffffff1681526020019081526020016000206175ab90919063ffffffff16565b8073ffffffffffffffffffffffffffffffffffffffff168273ffffffffffffffffffffffffffffffffffffffff167f4eef79dfdff8d6b9485c6a01d5caac6413488fc1036c03867dbf75558a3b3a3660405160405180910390a35050565b60008073ffffffffffffffffffffffffffffffffffffffff168273ffffffffffffffffffffffffffffffffffffffff161415614ce8576040517f08c379a0000000000000000000000000000000000000000000000000000000008152600401614cdf9061a49a565b60405180910390fd5b8260000160008373ffffffffffffffffffffffffffffffffffffffff1673ffffffffffffffffffffffffffffffffffffffff16815260200190815260200160002060009054906101000a900460ff16905092915050565b614d9081600260008573ffffffffffffffffffffffffffffffffffffffff1673ffffffffffffffffffffffffffffffffffffffff168152602001908152602001600020616e9d90919063ffffffff16565b8073ffffffffffffffffffffffffffffffffffffffff168273ffffffffffffffffffffffffffffffffffffffff167f795a3a12ab7aa35ee8d4681ead2986eae8de69f5491d9dccfeca0442f644db8160405160405180910390a35050565b614e3e816000808573ffffffffffffffffffffffffffffffffffffffff1673ffffffffffffffffffffffffffffffffffffffff168152602001908152602001600020616e9d90919063ffffffff16565b8073ffffffffffffffffffffffffffffffffffffffff168273ffffffffffffffffffffffffffffffffffffffff167fb75903ade4a0fdb07d60c882c22c779e2e1c751883c37aecdcc92a8ec72b046e60405160405180910390a35050565b614eed81600460008573ffffffffffffffffffffffffffffffffffffffff1673ffffffffffffffffffffffffffffffffffffffff1681526020019081526020016000206175ab90919063ffffffff16565b8073ffffffffffffffffffffffffffffffffffffffff168273ffffffffffffffffffffffffffffffffffffffff167ff537a4c39a5575220902fda69b79909e02d44c8a7146b1a1c3b936f86aa71e3860405160405180910390a35050565b6000806000806002811115614f89577f4e487b7100000000000000000000000000000000000000000000000000000000600052602160045260246000fd5b600c60008973ffffffffffffffffffffffffffffffffffffffff1673ffffffffffffffffffffffffffffffffffffffff16815260200190815260200160002060009054906101000a900460ff16600281111561500e577f4e487b7100000000000000000000000000000000000000000000000000000000600052602160045260246000fd5b118015615020575061501f86617653565b5b801561503357506150318786612f02565b155b801561506b57508473ffffffffffffffffffffffffffffffffffffffff163073ffffffffffffffffffffffffffffffffffffffff1614155b156151a4576002808111156150a9577f4e487b7100000000000000000000000000000000000000000000000000000000600052602160045260246000fd5b600c60008973ffffffffffffffffffffffffffffffffffffffff1673ffffffffffffffffffffffffffffffffffffffff16815260200190815260200160002060009054906101000a900460ff16600281111561512e577f4e487b7100000000000000000000000000000000000000000000000000000000600052602160045260246000fd5b14156151725760008061514389888a89617744565b91509150811561515f57600160028294509450945050506151b0565b60006002600094509450945050506151b0565b61517e87868887617b10565b156151935760018060009250925092506151b0565b6000600160009250925092506151b0565b60016000809250925092505b9450945094915050565b600160028111156151f4577f4e487b7100000000000000000000000000000000000000000000000000000000600052602160045260246000fd5b83600281111561522d577f4e487b7100000000000000000000000000000000000000000000000000000000600052602160045260246000fd5b14156152cc576001600d60008673ffffffffffffffffffffffffffffffffffffffff1673ffffffffffffffffffffffffffffffffffffffff16815260200190815260200160002060008473ffffffffffffffffffffffffffffffffffffffff1673ffffffffffffffffffffffffffffffffffffffff16815260200190815260200160002060008282546152c0919061a673565b925050819055506153af565b600280811115615305577f4e487b7100000000000000000000000000000000000000000000000000000000600052602160045260246000fd5b83600281111561533e577f4e487b7100000000000000000000000000000000000000000000000000000000600052602160045260246000fd5b14156153ae576001600e60008673ffffffffffffffffffffffffffffffffffffffff1673ffffffffffffffffffffffffffffffffffffffff168152602001908152602001600020600083815260200190815260200160002060006101000a81548160ff0219169083151502179055505b5b50505050565b60006153c084617653565b1580615488575060006002811115615401577f4e487b7100000000000000000000000000000000000000000000000000000000600052602160045260246000fd5b600c60008773ffffffffffffffffffffffffffffffffffffffff1673ffffffffffffffffffffffffffffffffffffffff16815260200190815260200160002060009054906101000a900460ff166002811115615486577f4e487b7100000000000000000000000000000000000000000000000000000000600052602160045260246000fd5b145b1561567a57600a60008673ffffffffffffffffffffffffffffffffffffffff1673ffffffffffffffffffffffffffffffffffffffff16815260200190815260200160002060009054906101000a900460ff161561558457600073ffffffffffffffffffffffffffffffffffffffff168373ffffffffffffffffffffffffffffffffffffffff1614158015615523575061552185846121ca565b155b15615531576000905061567f565b600073ffffffffffffffffffffffffffffffffffffffff168273ffffffffffffffffffffffffffffffffffffffff1614158015615575575061557385836121ca565b155b15615583576000905061567f565b5b600b60008673ffffffffffffffffffffffffffffffffffffffff1673ffffffffffffffffffffffffffffffffffffffff16815260200190815260200160002060009054906101000a900460ff161561567957600073ffffffffffffffffffffffffffffffffffffffff168373ffffffffffffffffffffffffffffffffffffffff161415801561561957506156188584612fb8565b5b15615627576000905061567f565b600073ffffffffffffffffffffffffffffffffffffffff168273ffffffffffffffffffffffffffffffffffffffff161415801561566a57506156698583612fb8565b5b15615678576000905061567f565b5b5b600190505b949350505050565b6000600f60008573ffffffffffffffffffffffffffffffffffffffff1673ffffffffffffffffffffffffffffffffffffffff16815260200190815260200160002060009054906101000a900460ff16156157a1576000601160008673ffffffffffffffffffffffffffffffffffffffff1673ffffffffffffffffffffffffffffffffffffffff1681526020019081526020016000206000858152602001908152602001600020541180156157925750615790601160008673ffffffffffffffffffffffffffffffffffffffff1673ffffffffffffffffffffffffffffffffffffffff16815260200190815260200160002060008581526020019081526020016000205483617ed7565b155b156157a057600090506157a6565b5b600190505b9392505050565b6000601060008873ffffffffffffffffffffffffffffffffffffffff1673ffffffffffffffffffffffffffffffffffffffff16815260200190815260200160002060009054906101000a900460ff1680156158355750600073ffffffffffffffffffffffffffffffffffffffff168473ffffffffffffffffffffffffffffffffffffffff1614155b156159a4578373ffffffffffffffffffffffffffffffffffffffff168573ffffffffffffffffffffffffffffffffffffffff161461598857600061587d8888888888886159b3565b9150506000601260008a73ffffffffffffffffffffffffffffffffffffffff1673ffffffffffffffffffffffffffffffffffffffff168152602001908152602001600020600083815260200190815260200160002090506158df818886617f08565b801561597557508873ffffffffffffffffffffffffffffffffffffffff166330e8280389886040518363ffffffff1660e01b8152600401615921929190619f5c565b60206040518083038186803b15801561593957600080fd5b505afa15801561594d573d6000803e3d6000fd5b505050506040513d601f19601f820116820180604052508101906159719190619297565b8411155b15615985576001925050506159a9565b50505b615993878786616086565b8211156159a357600090506159a9565b5b600190505b9695505050505050565b6000806000888887878a886040516020016159d396959493929190619e11565b6040516020818303038152906040528051906020012090506000601760008381526020019081526020016000205490508181935093505050965096945050505050565b600073ffffffffffffffffffffffffffffffffffffffff168560010160009054906101000a900473ffffffffffffffffffffffffffffffffffffffff1673ffffffffffffffffffffffffffffffffffffffff1614615a7a57615a79868684617f89565b5b60028560080160006101000a81548160ff02191690836006811115615ac8577f4e487b7100000000000000000000000000000000000000000000000000000000600052602160045260246000fd5b02179055508460030160009054906101000a900473ffffffffffffffffffffffffffffffffffffffff1673ffffffffffffffffffffffffffffffffffffffff168673ffffffffffffffffffffffffffffffffffffffff167ff684696c1680054513509ee7893b2a90bda386e071a6fdf7c462c7539ff816a48688600401548786604051615b58949392919061a188565b60405180910390a3505050505050565b42811180615b765750600081145b615bb5576040517f08c379a0000000000000000000000000000000000000000000000000000000008152600401615bac9061a4da565b60405180910390fd5b50565b6000601260008873ffffffffffffffffffffffffffffffffffffffff1673ffffffffffffffffffffffffffffffffffffffff168152602001908152602001600020600087815260200190815260200160002090506000808414158015615c255750615c248286866183ba565b5b15615c3c5783826007018190555060019050615c52565b615c47828787617f08565b15615c5157600190505b5b8015615e7857828015615c7457506000858360040154615c72919061a78b565b115b15615c8c57615c878883898889896183f2565b615c9f565b615c9e88838988866004015489615a16565b5b600073ffffffffffffffffffffffffffffffffffffffff168260010160009054906101000a900473ffffffffffffffffffffffffffffffffffffffff1673ffffffffffffffffffffffffffffffffffffffff161415615d94578773ffffffffffffffffffffffffffffffffffffffff166367c8491983600001548460020160009054906101000a900473ffffffffffffffffffffffffffffffffffffffff16886040518463ffffffff1660e01b8152600401615d5d9392919061a0de565b600060405180830381600087803b158015615d7757600080fd5b505af1158015615d8b573d6000803e3d6000fd5b50505050615e73565b8773ffffffffffffffffffffffffffffffffffffffff16638c0dee9c83600001548460010160009054906101000a900473ffffffffffffffffffffffffffffffffffffffff168560020160009054906101000a900473ffffffffffffffffffffffffffffffffffffffff16896040518563ffffffff1660e01b8152600401615e1f949392919061a012565b602060405180830381600087803b158015615e3957600080fd5b505af1158015615e4d573d6000803e3d6000fd5b505050506040513d601f19601f82011682018060405250810190615e7191906190e9565b505b615eb3565b6040517f08c379a0000000000000000000000000000000000000000000000000000000008152600401615eaa9061a3fa565b60405180910390fd5b5050505050505050565b6000601360008473ffffffffffffffffffffffffffffffffffffffff1673ffffffffffffffffffffffffffffffffffffffff16815260200190815260200160002060008373ffffffffffffffffffffffffffffffffffffffff1673ffffffffffffffffffffffffffffffffffffffff168152602001908152602001600020548373ffffffffffffffffffffffffffffffffffffffff166370a08231846040518263ffffffff1660e01b8152600401615f759190619f0b565b60206040518083038186803b158015615f8d57600080fd5b505afa158015615fa1573d6000803e3d6000fd5b505050506040513d601f19601f82011682018060405250810190615fc59190619297565b615fcf919061a78b565b905092915050565b61602881600460008573ffffffffffffffffffffffffffffffffffffffff1673ffffffffffffffffffffffffffffffffffffffff168152602001908152602001600020616e9d90919063ffffffff16565b8073ffffffffffffffffffffffffffffffffffffffff168273ffffffffffffffffffffffffffffffffffffffff167f99c45157365b22d82f22eea7bc8cff76cb53628113f4b52b10f83db3b404001660405160405180910390a35050565b6000601460008573ffffffffffffffffffffffffffffffffffffffff1673ffffffffffffffffffffffffffffffffffffffff16815260200190815260200160002060008373ffffffffffffffffffffffffffffffffffffffff1673ffffffffffffffffffffffffffffffffffffffff1681526020019081526020016000206000848152602001908152602001600020548473ffffffffffffffffffffffffffffffffffffffff166330e8280385856040518363ffffffff1660e01b8152600401616151929190619f5c565b60206040518083038186803b15801561616957600080fd5b505afa15801561617d573d6000803e3d6000fd5b505050506040513d601f19601f820116820180604052508101906161a19190619297565b6161ab919061a78b565b90509392505050565b61620581600660008573ffffffffffffffffffffffffffffffffffffffff1673ffffffffffffffffffffffffffffffffffffffff168152602001908152602001600020616e9d90919063ffffffff16565b8073ffffffffffffffffffffffffffffffffffffffff168273ffffffffffffffffffffffffffffffffffffffff167fd3e42d12ae7dae2e960401c63b158173cc9987f9ee213374eff6471eed4062e360405160405180910390a35050565b600080601260008773ffffffffffffffffffffffffffffffffffffffff1673ffffffffffffffffffffffffffffffffffffffff16815260200190815260200160002060008681526020019081526020016000209050600160068111156162f2577f4e487b7100000000000000000000000000000000000000000000000000000000600052602160045260246000fd5b8160080160009054906101000a900460ff16600681111561633c577f4e487b7100000000000000000000000000000000000000000000000000000000600052602160045260246000fd5b14806163c957506003600681111561637d577f4e487b7100000000000000000000000000000000000000000000000000000000600052602160045260246000fd5b8160080160009054906101000a900460ff1660068111156163c7577f4e487b7100000000000000000000000000000000000000000000000000000000600052602160045260246000fd5b145b616408576040517f08c379a00000000000000000000000000000000000000000000000000000000081526004016163ff9061a39a565b60405180910390fd5b6164158160050154618563565b15616455576040517f08c379a000000000000000000000000000000000000000000000000000000000815260040161644c9061a51a565b60405180910390fd5b61648586338360010160009054906101000a900473ffffffffffffffffffffffffffffffffffffffff1686616f5a565b6164c4576040517f08c379a00000000000000000000000000000000000000000000000000000000081526004016164bb9061a47a565b60405180910390fd5b6000816005015490508482600501819055508160030160009054906101000a900473ffffffffffffffffffffffffffffffffffffffff1673ffffffffffffffffffffffffffffffffffffffff168773ffffffffffffffffffffffffffffffffffffffff167fa0bc54a9dd12fde7c7d2647b3f98b13480b32abe8b5b2a448102d90750e4abe288848960405161655b9392919061a151565b60405180910390a3600192505050949350505050565b600080601260008573ffffffffffffffffffffffffffffffffffffffff1673ffffffffffffffffffffffffffffffffffffffff1681526020019081526020016000206000848152602001908152602001600020905060016006811115616600577f4e487b7100000000000000000000000000000000000000000000000000000000600052602160045260246000fd5b8160080160009054906101000a900460ff16600681111561664a577f4e487b7100000000000000000000000000000000000000000000000000000000600052602160045260246000fd5b14806166d757506003600681111561668b577f4e487b7100000000000000000000000000000000000000000000000000000000600052602160045260246000fd5b8160080160009054906101000a900460ff1660068111156166d5577f4e487b7100000000000000000000000000000000000000000000000000000000600052602160045260246000fd5b145b616716576040517f08c379a000000000000000000000000000000000000000000000000000000000815260040161670d9061a2ba565b60405180910390fd5b6167238160050154618563565b8061677d57508060030160009054906101000a900473ffffffffffffffffffffffffffffffffffffffff1673ffffffffffffffffffffffffffffffffffffffff163373ffffffffffffffffffffffffffffffffffffffff16145b806167d757508060020160009054906101000a900473ffffffffffffffffffffffffffffffffffffffff1673ffffffffffffffffffffffffffffffffffffffff163373ffffffffffffffffffffffffffffffffffffffff16145b616816576040517f08c379a000000000000000000000000000000000000000000000000000000000815260040161680d9061a4fa565b60405180910390fd5b6168238160050154618563565b156168805760068160080160006101000a81548160ff02191690836006811115616876577f4e487b7100000000000000000000000000000000000000000000000000000000600052602160045260246000fd5b0217905550616985565b3373ffffffffffffffffffffffffffffffffffffffff168160030160009054906101000a900473ffffffffffffffffffffffffffffffffffffffff1673ffffffffffffffffffffffffffffffffffffffff1614156169305760048160080160006101000a81548160ff02191690836006811115616926577f4e487b7100000000000000000000000000000000000000000000000000000000600052602160045260246000fd5b0217905550616984565b60058160080160006101000a81548160ff0219169083600681111561697e577f4e487b7100000000000000000000000000000000000000000000000000000000600052602160045260246000fd5b02179055505b5b600073ffffffffffffffffffffffffffffffffffffffff168160010160009054906101000a900473ffffffffffffffffffffffffffffffffffffffff1673ffffffffffffffffffffffffffffffffffffffff1614616a8c576169ec84828360040154617f89565b6000616a708583600001548460030160009054906101000a900473ffffffffffffffffffffffffffffffffffffffff168560010160009054906101000a900473ffffffffffffffffffffffffffffffffffffffff168660020160009054906101000a900473ffffffffffffffffffffffffffffffffffffffff1687600401546159b3565b5090506017600082815260200190815260200160002060009055505b8060030160009054906101000a900473ffffffffffffffffffffffffffffffffffffffff1673ffffffffffffffffffffffffffffffffffffffff168473ffffffffffffffffffffffffffffffffffffffff167ff443be38655a05232d021221bd7a13d2901adb2a897ac88b77af9ca9c6938aa9858460080160009054906101000a900460ff16604051616b2092919061a128565b60405180910390a3600191505092915050565b616b8481600560008573ffffffffffffffffffffffffffffffffffffffff1673ffffffffffffffffffffffffffffffffffffffff1681526020019081526020016000206175ab90919063ffffffff16565b8073ffffffffffffffffffffffffffffffffffffffff168273ffffffffffffffffffffffffffffffffffffffff167fc52e3252244a1a2a298f7b5a9f8e964ab8737811b620a1426c0b95e3037bba9e60405160405180910390a35050565b616c3381600260008573ffffffffffffffffffffffffffffffffffffffff1673ffffffffffffffffffffffffffffffffffffffff1681526020019081526020016000206175ab90919063ffffffff16565b8073ffffffffffffffffffffffffffffffffffffffff168273ffffffffffffffffffffffffffffffffffffffff167f9a01aee9f656aba8760d771cf21d803168ecc664c252c9374f4a3252481fbf3560405160405180910390a35050565b616ce281600560008573ffffffffffffffffffffffffffffffffffffffff1673ffffffffffffffffffffffffffffffffffffffff168152602001908152602001600020616e9d90919063ffffffff16565b8073ffffffffffffffffffffffffffffffffffffffff168273ffffffffffffffffffffffffffffffffffffffff167f2e4e5dc902da1dd9425aa2acf081cc51d589443784af4c3fd7d5fe60d5915cd060405160405180910390a35050565b616d90816000808573ffffffffffffffffffffffffffffffffffffffff1673ffffffffffffffffffffffffffffffffffffffff1681526020019081526020016000206175ab90919063ffffffff16565b8073ffffffffffffffffffffffffffffffffffffffff168273ffffffffffffffffffffffffffffffffffffffff167fe0953c403a52f9dc1fef4202a8d33975c958b727bee0d7b5b328965ddad98d8160405160405180910390a35050565b616e3f81600360008573ffffffffffffffffffffffffffffffffffffffff1673ffffffffffffffffffffffffffffffffffffffff1681526020019081526020016000206175ab90919063ffffffff16565b8073ffffffffffffffffffffffffffffffffffffffff168273ffffffffffffffffffffffffffffffffffffffff167f7a247cc00caf875946bd4af440d6b1776fe6bb625e25cad7626bedf5e6a1c37060405160405180910390a35050565b616ea78282614c77565b616ee6576040517f08c379a0000000000000000000000000000000000000000000000000000000008152600401616edd9061a41a565b60405180910390fd5b60008260000160008373ffffffffffffffffffffffffffffffffffffffff1673ffffffffffffffffffffffffffffffffffffffff16815260200190815260200160002060006101000a81548160ff0219169083151502179055505050565b60008183616f52919061a673565b905092915050565b600080600080616fb1886000368080601f016020809104026020016040519081016040528093929190818152602001838380828437600081840152601f19601f820116905080830192505050505050508988614f4b565b925092509250616fc3888389846151ba565b600073ffffffffffffffffffffffffffffffffffffffff168673ffffffffffffffffffffffffffffffffffffffff16146170ca578280156170c05750600960008973ffffffffffffffffffffffffffffffffffffffff1673ffffffffffffffffffffffffffffffffffffffff16815260200190815260200160002060008873ffffffffffffffffffffffffffffffffffffffff1673ffffffffffffffffffffffffffffffffffffffff16815260200190815260200160002060009054906101000a900460ff16806170bf57508573ffffffffffffffffffffffffffffffffffffffff168773ffffffffffffffffffffffffffffffffffffffff16145b5b9350505050617162565b82801561715c57508773ffffffffffffffffffffffffffffffffffffffff1663aa271e1a886040518263ffffffff1660e01b815260040161710b9190619f0b565b60206040518083038186803b15801561712357600080fd5b505afa158015617137573d6000803e3d6000fd5b505050506040513d601f19601f8201168201806040525081019061715b91906190c0565b5b93505050505b949350505050565b6172218260040154601360008673ffffffffffffffffffffffffffffffffffffffff1673ffffffffffffffffffffffffffffffffffffffff16815260200190815260200160002060008560010160009054906101000a900473ffffffffffffffffffffffffffffffffffffffff1673ffffffffffffffffffffffffffffffffffffffff1673ffffffffffffffffffffffffffffffffffffffff16815260200190815260200160002054616f4490919063ffffffff16565b601360008573ffffffffffffffffffffffffffffffffffffffff1673ffffffffffffffffffffffffffffffffffffffff16815260200190815260200160002060008460010160009054906101000a900473ffffffffffffffffffffffffffffffffffffffff1673ffffffffffffffffffffffffffffffffffffffff1673ffffffffffffffffffffffffffffffffffffffff1681526020019081526020016000208190555061731b8260040154601660008673ffffffffffffffffffffffffffffffffffffffff1673ffffffffffffffffffffffffffffffffffffffff16815260200190815260200160002054616f4490919063ffffffff16565b601660008573ffffffffffffffffffffffffffffffffffffffff1673ffffffffffffffffffffffffffffffffffffffff1681526020019081526020016000208190555061742a8260040154601460008673ffffffffffffffffffffffffffffffffffffffff1673ffffffffffffffffffffffffffffffffffffffff16815260200190815260200160002060008560010160009054906101000a900473ffffffffffffffffffffffffffffffffffffffff1673ffffffffffffffffffffffffffffffffffffffff1673ffffffffffffffffffffffffffffffffffffffff16815260200190815260200160002060008560000154815260200190815260200160002054616f4490919063ffffffff16565b601460008573ffffffffffffffffffffffffffffffffffffffff1673ffffffffffffffffffffffffffffffffffffffff16815260200190815260200160002060008460010160009054906101000a900473ffffffffffffffffffffffffffffffffffffffff1673ffffffffffffffffffffffffffffffffffffffff1673ffffffffffffffffffffffffffffffffffffffff1681526020019081526020016000206000846000015481526020019081526020016000208190555061754e8260040154601560008673ffffffffffffffffffffffffffffffffffffffff1673ffffffffffffffffffffffffffffffffffffffff16815260200190815260200160002060008560000154815260200190815260200160002054616f4490919063ffffffff16565b601560008573ffffffffffffffffffffffffffffffffffffffff1673ffffffffffffffffffffffffffffffffffffffff16815260200190815260200160002060008460000154815260200190815260200160002081905550505050565b6175b58282614c77565b156175f5576040517f08c379a00000000000000000000000000000000000000000000000000000000081526004016175ec9061a29a565b60405180910390fd5b60018260000160008373ffffffffffffffffffffffffffffffffffffffff1673ffffffffffffffffffffffffffffffffffffffff16815260200190815260200160002060006101000a81548160ff0219169083151502179055505050565b60008061765f8361857c565b90507fa9059cbb2ab09eb219583f4a59a5d0623ade346d962bcd4e46b11da047c9049b7bffffffffffffffffffffffffffffffffffffffffffffffffffffffff1916817bffffffffffffffffffffffffffffffffffffffffffffffffffffffff1916148061772a57507f23b872dd7302113369cda2901243429419bec145408fa8b352b3dd92b66c680b7bffffffffffffffffffffffffffffffffffffffffffffffffffffffff1916817bffffffffffffffffffffffffffffffffffffffffffffffffffffffff1916145b1561773957600091505061773f565b60019150505b919050565b600080608183511461775c5760008091509150617b07565b6000806000602086015192506040860151915060a086015160001a9050428210156177905760008094509450505050617b07565b601b8160ff1610156177ac57601b816177a9919061a6c9565b90505b601b8160ff1614806177c15750601c8160ff16145b15617afc5760006177dd60c0895161878d90919063ffffffff16565b67ffffffffffffffff81111561781c577f4e487b7100000000000000000000000000000000000000000000000000000000600052604160045260246000fd5b6040519080825280601f01601f19166020018201604052801561784e5781602001600182028036833780820191505090505b50905060005b61786960c08a5161878d90919063ffffffff16565b81101561792f578881815181106178a9577f4e487b7100000000000000000000000000000000000000000000000000000000600052603260045260246000fd5b602001015160f81c60f81b8282815181106178ed577f4e487b7100000000000000000000000000000000000000000000000000000000600052603260045260246000fd5b60200101907effffffffffffffffffffffffffffffffffffffffffffffffffffffffffffff1916908160001a90535080806179279061a89b565b915050617854565b506000898b83868860405160200161794b959493929190619d5b565b604051602081830303815290604052905060008b73ffffffffffffffffffffffffffffffffffffffff1663a8082cb06040518163ffffffff1660e01b815260040160206040518083038186803b1580156179a457600080fd5b505afa1580156179b8573d6000803e3d6000fd5b505050506040513d601f19601f820116820180604052508101906179dc91906190e9565b82805190602001206040516020016179f5929190619e9c565b60405160208183030381529060405280519060200120905060008060608b0151915060808b01519050617a768e60018589868660405160008152602001604052604051617a45949392919061a1cd565b6020604051602081039080840390855afa158015617a67573d6000803e3d6000fd5b50505060206040510351612f02565b8015617add5750600e60008f73ffffffffffffffffffffffffffffffffffffffff1673ffffffffffffffffffffffffffffffffffffffff168152602001908152602001600020600089815260200190815260200160002060009054906101000a900460ff16155b15617af657600188995099505050505050505050617b07565b50505050505b600080945094505050505b94509492505050565b60006061825114617b245760009050617ecf565b60008060208401519150608084015160001a905042821015617b4b57600092505050617ecf565b601b8160ff161015617b6757601b81617b64919061a6c9565b90505b601b8160ff161480617b7c5750601c8160ff16145b15617ec8576000617b9860a0875161878d90919063ffffffff16565b67ffffffffffffffff811115617bd7577f4e487b7100000000000000000000000000000000000000000000000000000000600052604160045260246000fd5b6040519080825280601f01601f191660200182016040528015617c095781602001600182028036833780820191505090505b50905060005b617c2460a0885161878d90919063ffffffff16565b811015617cea57868181518110617c64577f4e487b7100000000000000000000000000000000000000000000000000000000600052603260045260246000fd5b602001015160f81c60f81b828281518110617ca8577f4e487b7100000000000000000000000000000000000000000000000000000000600052603260045260246000fd5b60200101907effffffffffffffffffffffffffffffffffffffffffffffffffffffffffffff1916908160001a9053508080617ce29061a89b565b915050617c0f565b50600087898386600d60008e73ffffffffffffffffffffffffffffffffffffffff1673ffffffffffffffffffffffffffffffffffffffff16815260200190815260200160002060008d73ffffffffffffffffffffffffffffffffffffffff1673ffffffffffffffffffffffffffffffffffffffff16815260200190815260200160002054604051602001617d82959493929190619db6565b604051602081830303815290604052905060008973ffffffffffffffffffffffffffffffffffffffff1663a8082cb06040518163ffffffff1660e01b815260040160206040518083038186803b158015617ddb57600080fd5b505afa158015617def573d6000803e3d6000fd5b505050506040513d601f19601f82011682018060405250810190617e1391906190e9565b8280519060200120604051602001617e2c929190619e9c565b6040516020818303038152906040528051906020012090506000806040890151915060608901519050617ead8c60018589868660405160008152602001604052604051617e7c949392919061a1cd565b6020604051602081039080840390855afa158015617e9e573d6000803e3d6000fd5b50505060206040510351612f02565b15617ec2576001975050505050505050617ecf565b50505050505b6000925050505b949350505050565b600081617eff84617ef186866187a390919063ffffffff16565b6187b990919063ffffffff16565b14905092915050565b60008273ffffffffffffffffffffffffffffffffffffffff168460030160009054906101000a900473ffffffffffffffffffffffffffffffffffffffff1673ffffffffffffffffffffffffffffffffffffffff16148015617f6f5750617f6e84836187cf565b5b15617f7d5760019050617f82565b600090505b9392505050565b61803c81601360008673ffffffffffffffffffffffffffffffffffffffff1673ffffffffffffffffffffffffffffffffffffffff16815260200190815260200160002060008560010160009054906101000a900473ffffffffffffffffffffffffffffffffffffffff1673ffffffffffffffffffffffffffffffffffffffff1673ffffffffffffffffffffffffffffffffffffffff1681526020019081526020016000205461878d90919063ffffffff16565b601360008573ffffffffffffffffffffffffffffffffffffffff1673ffffffffffffffffffffffffffffffffffffffff16815260200190815260200160002060008460010160009054906101000a900473ffffffffffffffffffffffffffffffffffffffff1673ffffffffffffffffffffffffffffffffffffffff1673ffffffffffffffffffffffffffffffffffffffff1681526020019081526020016000208190555061813281601660008673ffffffffffffffffffffffffffffffffffffffff1673ffffffffffffffffffffffffffffffffffffffff1681526020019081526020016000205461878d90919063ffffffff16565b601660008573ffffffffffffffffffffffffffffffffffffffff1673ffffffffffffffffffffffffffffffffffffffff1681526020019081526020016000208190555061823d81601460008673ffffffffffffffffffffffffffffffffffffffff1673ffffffffffffffffffffffffffffffffffffffff16815260200190815260200160002060008560010160009054906101000a900473ffffffffffffffffffffffffffffffffffffffff1673ffffffffffffffffffffffffffffffffffffffff1673ffffffffffffffffffffffffffffffffffffffff1681526020019081526020016000206000856000015481526020019081526020016000205461878d90919063ffffffff16565b601460008573ffffffffffffffffffffffffffffffffffffffff1673ffffffffffffffffffffffffffffffffffffffff16815260200190815260200160002060008460010160009054906101000a900473ffffffffffffffffffffffffffffffffffffffff1673ffffffffffffffffffffffffffffffffffffffff1673ffffffffffffffffffffffffffffffffffffffff1681526020019081526020016000206000846000015481526020019081526020016000208190555061835d81601560008673ffffffffffffffffffffffffffffffffffffffff1673ffffffffffffffffffffffffffffffffffffffff1681526020019081526020016000206000856000015481526020019081526020016000205461878d90919063ffffffff16565b601560008573ffffffffffffffffffffffffffffffffffffffff1673ffffffffffffffffffffffffffffffffffffffff16815260200190815260200160002060008460000154815260200190815260200160002081905550505050565b60006183c6848361893c565b80156183d857506183d784846187cf565b5b156183e657600190506183eb565b600090505b9392505050565b600073ffffffffffffffffffffffffffffffffffffffff168560010160009054906101000a900473ffffffffffffffffffffffffffffffffffffffff1673ffffffffffffffffffffffffffffffffffffffff161461845657618455868684617f89565b5b60038560080160006101000a81548160ff021916908360068111156184a4577f4e487b7100000000000000000000000000000000000000000000000000000000600052602160045260246000fd5b02179055506184c083866004015461878d90919063ffffffff16565b85600401819055508460030160009054906101000a900473ffffffffffffffffffffffffffffffffffffffff1673ffffffffffffffffffffffffffffffffffffffff168673ffffffffffffffffffffffffffffffffffffffff167f4d230199a8973380b96ad366f3dd8665b4dc0309b3fc73f02137159ae4bd229f8688600401548786604051618553949392919061a188565b60405180910390a3505050505050565b60008082141580156185755750814210155b9050919050565b60006018826003815181106185ba577f4e487b7100000000000000000000000000000000000000000000000000000000600052603260045260246000fd5b602001015160f81c60f81b7effffffffffffffffffffffffffffffffffffffffffffffffffffffffffffff19167bffffffffffffffffffffffffffffffffffffffffffffffffffffffff1916901c601083600281518110618644577f4e487b7100000000000000000000000000000000000000000000000000000000600052603260045260246000fd5b602001015160f81c60f81b7effffffffffffffffffffffffffffffffffffffffffffffffffffffffffffff19167bffffffffffffffffffffffffffffffffffffffffffffffffffffffff1916901c6008846001815181106186ce577f4e487b7100000000000000000000000000000000000000000000000000000000600052603260045260246000fd5b602001015160f81c60f81b7effffffffffffffffffffffffffffffffffffffffffffffffffffffffffffff19167bffffffffffffffffffffffffffffffffffffffffffffffffffffffff1916901c84600081518110618756577f4e487b7100000000000000000000000000000000000000000000000000000000600052603260045260246000fd5b602001015160f81c60f81b7effffffffffffffffffffffffffffffffffffffffffffffffffffffffffffff19161717179050919050565b6000818361879b919061a78b565b905092915050565b600081836187b1919061a700565b905092915050565b600081836187c7919061a731565b905092915050565b60006001600681111561880b577f4e487b7100000000000000000000000000000000000000000000000000000000600052602160045260246000fd5b8360080160009054906101000a900460ff166006811115618855577f4e487b7100000000000000000000000000000000000000000000000000000000600052602160045260246000fd5b14806188e2575060036006811115618896577f4e487b7100000000000000000000000000000000000000000000000000000000600052602160045260246000fd5b8360080160009054906101000a900460ff1660068111156188e0577f4e487b7100000000000000000000000000000000000000000000000000000000600052602160045260246000fd5b145b6188ef5760009050618936565b60008214156189015760009050618936565b61890e8360050154618563565b1561891c5760009050618936565b82600401548211156189315760009050618936565b600190505b92915050565b60006002826040516020016189519190619e81565b60405160208183030381529060405260405161896d9190619ec8565b602060405180830381855afa15801561898a573d6000803e3d6000fd5b5050506040513d601f19601f820116820180604052508101906189ad91906190e9565b836006015414156189c157600190506189c6565b600090505b92915050565b828054828255906000526020600020908101928215618a45579160200282015b82811115618a445782518260006101000a81548173ffffffffffffffffffffffffffffffffffffffff021916908373ffffffffffffffffffffffffffffffffffffffff160217905550916020019190600101906189ec565b5b509050618a529190618a56565b5090565b5b80821115618a6f576000816000905550600101618a57565b5090565b600081359050618a828161a9de565b92915050565b600081519050618a978161a9de565b92915050565b60008083601f840112618aaf57600080fd5b8235905067ffffffffffffffff811115618ac857600080fd5b602083019150836020820283011115618ae057600080fd5b9250929050565b600081359050618af68161a9f5565b92915050565b600081519050618b0b8161a9f5565b92915050565b600081359050618b208161aa0c565b92915050565b600081519050618b358161aa0c565b92915050565b60008083601f840112618b4d57600080fd5b8235905067ffffffffffffffff811115618b6657600080fd5b602083019150836001820283011115618b7e57600080fd5b9250929050565b600081359050618b948161aa23565b92915050565b60006101208284031215618bad57600080fd5b81905092915050565b600081359050618bc58161aa33565b92915050565b600081519050618bda8161aa33565b92915050565b600060208284031215618bf257600080fd5b6000618c0084828501618a73565b91505092915050565b600060208284031215618c1b57600080fd5b6000618c2984828501618a88565b91505092915050565b60008060408385031215618c4557600080fd5b6000618c5385828601618a73565b9250506020618c6485828601618a73565b9150509250929050565b60008060408385031215618c8157600080fd5b6000618c8f85828601618a73565b9250506020618ca085828601618b11565b9150509250929050565b600080600060608486031215618cbf57600080fd5b6000618ccd86828701618a73565b9350506020618cde86828701618b11565b9250506040618cef86828701618a73565b9150509250925092565b60008060008060008060008060008060006101408c8e031215618d1b57600080fd5b6000618d298e828f01618a73565b9b50506020618d3a8e828f01618b11565b9a50506040618d4b8e828f01618a73565b9950506060618d5c8e828f01618a73565b9850506080618d6d8e828f01618a73565b97505060a0618d7e8e828f01618b11565b96505060c0618d8f8e828f01618bb6565b95505060e0618da08e828f01618bb6565b945050610100618db28e828f01618b11565b9350506101208c013567ffffffffffffffff811115618dd057600080fd5b618ddc8e828f01618b3b565b92509250509295989b509295989b9093969950565b6000806000806000806000806000806101208b8d031215618e1157600080fd5b6000618e1f8d828e01618a73565b9a50506020618e308d828e01618b11565b9950506040618e418d828e01618a73565b9850506060618e528d828e01618a73565b9750506080618e638d828e01618b11565b96505060a0618e748d828e01618bb6565b95505060c0618e858d828e01618bb6565b94505060e0618e968d828e01618b11565b9350506101008b013567ffffffffffffffff811115618eb457600080fd5b618ec08d828e01618b3b565b92509250509295989b9194979a5092959850565b600080600060608486031215618ee957600080fd5b6000618ef786828701618a73565b9350506020618f0886828701618b11565b9250506040618f1986828701618bb6565b9150509250925092565b60008060008060808587031215618f3957600080fd5b6000618f4787828801618a73565b9450506020618f5887828801618b11565b9350506040618f6987828801618bb6565b9250506060618f7a87828801618b11565b91505092959194509250565b600080600080600060808688031215618f9e57600080fd5b6000618fac88828901618a73565b9550506020618fbd88828901618b11565b9450506040618fce88828901618bb6565b935050606086013567ffffffffffffffff811115618feb57600080fd5b618ff788828901618b3b565b92509250509295509295909350565b60008060008060008060008060e0898b03121561902257600080fd5b60006190308b828c01618a73565b98505060206190418b828c01618b85565b97505060406190528b828c01618ae7565b96505060606190638b828c01618ae7565b95505060806190748b828c01618ae7565b94505060a06190858b828c01618ae7565b93505060c089013567ffffffffffffffff8111156190a257600080fd5b6190ae8b828c01618a9d565b92509250509295985092959890939650565b6000602082840312156190d257600080fd5b60006190e084828501618afc565b91505092915050565b6000602082840312156190fb57600080fd5b600061910984828501618b26565b91505092915050565b6000806040838503121561912557600080fd5b600061913385828601618b11565b925050602061914485828601618a73565b9150509250929050565b60008060008060008060008060008060006101008c8e03121561917057600080fd5b60008c013567ffffffffffffffff81111561918a57600080fd5b6191968e828f01618b3b565b9b509b505060206191a98e828f01618b11565b99505060406191ba8e828f01618a73565b98505060606191cb8e828f01618a73565b97505060806191dc8e828f01618a73565b96505060a06191ed8e828f01618bb6565b95505060c08c013567ffffffffffffffff81111561920a57600080fd5b6192168e828f01618b3b565b945094505060e08c013567ffffffffffffffff81111561923557600080fd5b6192418e828f01618b3b565b92509250509295989b509295989b9093969950565b60006020828403121561926857600080fd5b600082013567ffffffffffffffff81111561928257600080fd5b61928e84828501618b9a565b91505092915050565b6000602082840312156192a957600080fd5b60006192b784828501618bcb565b91505092915050565b60006192cc83836192d8565b60208301905092915050565b6192e18161a7bf565b82525050565b6192f08161a7bf565b82525050565b6193076193028261a7bf565b61a8e4565b82525050565b60006193188261a5fc565b619322818561a62a565b935061932d8361a5ec565b8060005b8381101561935e57815161934588826192c0565b97506193508361a61d565b925050600181019050619331565b5085935050505092915050565b6193748161a7d1565b82525050565b6193838161a7dd565b82525050565b61939a6193958261a7dd565b61a8f6565b82525050565b60006193ab8261a607565b6193b5818561a64c565b93506193c581856020860161a868565b80840191505092915050565b6193da8161a844565b82525050565b6193e98161a856565b82525050565b60006193fa8261a612565b619404818561a668565b935061941481856020860161a868565b80840191505092915050565b600061942d60028361a657565b91507f35340000000000000000000000000000000000000000000000000000000000006000830152602082019050919050565b600061946d601f8361a657565b91507f526f6c65733a206163636f756e7420616c72656164792068617320726f6c65006000830152602082019050919050565b60006194ad60448361a657565b91507f4120686f6c642063616e206f6e6c792062652072656c656173656420696e207360008301527f7461747573204f726465726564206f72204578656375746564416e644b65707460208301527f4f70656e000000000000000000000000000000000000000000000000000000006040830152606082019050919050565b600061953960168361a657565b91507f53656e646572206973206e6f74206120706175736572000000000000000000006000830152602082019050919050565b6000619579604c8361a657565b91507f416d6f756e74206f662074686520686f6c642063616e2774206265206772656160008301527f746572207468616e20746865207370656e6461626c652062616c616e6365206f60208301527f66207468652073656e64657200000000000000000000000000000000000000006040830152606082019050919050565b6000619605601f8361a657565b91507f56616c7565206d7573742062652067726561746572207468616e207a65726f006000830152602082019050919050565b600061964560028361a657565b91507f35300000000000000000000000000000000000000000000000000000000000006000830152602082019050919050565b600061968560268361a657565b91507f50617965722061646472657373206d757374206e6f74206265207a65726f206160008301527f64647265737300000000000000000000000000000000000000000000000000006020830152604082019050919050565b60006196eb601f8361a657565b91507f53656e646572206973206e6f74206120626c6f636b6c6973742061646d696e006000830152602082019050919050565b600061972b60438361a657565b91507f4120686f6c642063616e206f6e6c792062652072656e6577656420696e20737460008301527f61747573204f726465726564206f72204578656375746564416e644b6570744f60208301527f70656e00000000000000000000000000000000000000000000000000000000006040830152606082019050919050565b60006197b760028361a657565b91507f35350000000000000000000000000000000000000000000000000000000000006000830152602082019050919050565b60006197f760268361a657565b91507f50617965652061646472657373206d757374206e6f74206265207a65726f206160008301527f64647265737300000000000000000000000000000000000000000000000000006020830152604082019050919050565b600061985d60188361a657565b91507f686f6c642063616e206e6f7420626520657865637574656400000000000000006000830152602082019050919050565b600061989d60218361a657565b91507f526f6c65733a206163636f756e7420646f6573206e6f74206861766520726f6c60008301527f65000000000000000000000000000000000000000000000000000000000000006020830152604082019050919050565b600061990360228361a657565b91507f53656e646572206973206e6f742061206365727469666963617465207369676e60008301527f65720000000000000000000000000000000000000000000000000000000000006020830152604082019050919050565b600061996960208361a657565b91507f53656e646572206973206e6f7420616e20616c6c6f776c6973742061646d696e6000830152602082019050919050565b60006199a960368361a657565b91507f4120686f6c642063616e206f6e6c792062652072656e6577656420776974682060008301527f6164617074656420617574686f72697a6174696f6e73000000000000000000006020830152604082019050919050565b6000619a0f60228361a657565b91507f526f6c65733a206163636f756e7420697320746865207a65726f20616464726560008301527f73730000000000000000000000000000000000000000000000000000000000006020830152604082019050919050565b6000619a7560218361a657565b91507f53656e646572206973206e6f74206120746f6b656e20636f6e74726f6c6c657260008301527f2e000000000000000000000000000000000000000000000000000000000000006020830152604082019050919050565b6000619adb60148361a668565b91507f455243313832305f4143434550545f4d414749430000000000000000000000006000830152601482019050919050565b6000619b1b603c8361a657565b91507f45787069726174696f6e2064617465206d75737420626520677265617465722060008301527f7468616e20626c6f636b2074696d657374616d70206f72207a65726f000000006020830152604082019050919050565b6000619b8160428361a657565b91507f41206e6f74206578706972656420686f6c642063616e206f6e6c79206265207260008301527f656c656173656420627920746865206e6f74617279206f72207468652070617960208301527f65650000000000000000000000000000000000000000000000000000000000006040830152606082019050919050565b6000619c0d60008361a63b565b9150600082019050919050565b6000619c2760228361a657565b91507f416e206578706972656420686f6c642063616e206e6f742062652072656e657760008301527f65640000000000000000000000000000000000000000000000000000000000006020830152604082019050919050565b6000619c8d60368361a657565b91507f4120686f6c642063616e206f6e6c79206265206372656174656420776974682060008301527f6164617074656420617574686f72697a6174696f6e73000000000000000000006020830152604082019050919050565b6000619cf3601a8361a657565b91507f5468697320686f6c64496420616c7265616479206578697374730000000000006000830152602082019050919050565b619d2f8161a82d565b82525050565b619d46619d418261a82d565b61a912565b82525050565b619d558161a837565b82525050565b6000619d6782886192f6565b601482019150619d7782876192f6565b601482019150619d8782866193a0565b9150619d938285619d35565b602082019150619da38284619389565b6020820191508190509695505050505050565b6000619dc282886192f6565b601482019150619dd282876192f6565b601482019150619de282866193a0565b9150619dee8285619d35565b602082019150619dfe8284619d35565b6020820191508190509695505050505050565b6000619e1d82896192f6565b601482019150619e2d8288619389565b602082019150619e3d82876192f6565b601482019150619e4d82866192f6565b601482019150619e5d82856192f6565b601482019150619e6d8284619d35565b602082019150819050979650505050505050565b6000619e8d8284619389565b60208201915081905092915050565b6000619ea88285619389565b602082019150619eb88284619389565b6020820191508190509392505050565b6000619ed482846193a0565b915081905092915050565b6000619eeb82846193ef565b915081905092915050565b6000619f0182619ace565b9150819050919050565b6000602082019050619f2060008301846192e7565b92915050565b6000602082019050619f3b600083018461936b565b92915050565b6000602082019050619f56600083018461937a565b92915050565b6000604082019050619f71600083018561937a565b619f7e60208301846192e7565b9392505050565b600061012082019050619f9b600083018c61937a565b619fa8602083018b6192e7565b619fb5604083018a6192e7565b619fc260608301896192e7565b619fcf6080830188619d26565b619fdc60a0830187619d26565b619fe960c083018661937a565b619ff660e083018561937a565b61a0046101008301846193e0565b9a9950505050505050505050565b600060c08201905061a027600083018761937a565b61a03460208301866192e7565b61a04160408301856192e7565b61a04e6060830184619d26565b818103608083015261a05f81619c00565b905081810360a083015261a07281619c00565b905095945050505050565b600060c08201905061a092600083018961937a565b61a09f60208301886192e7565b61a0ac60408301876192e7565b61a0b96060830186619d26565b61a0c66080830185619d26565b61a0d360a083018461937a565b979650505050505050565b600060808201905061a0f3600083018661937a565b61a10060208301856192e7565b61a10d6040830184619d26565b818103606083015261a11e81619c00565b9050949350505050565b600060408201905061a13d600083018561937a565b61a14a60208301846193e0565b9392505050565b600060608201905061a166600083018661937a565b61a1736020830185619d26565b61a1806040830184619d26565b949350505050565b600060808201905061a19d600083018761937a565b61a1aa6020830186619d26565b61a1b76040830185619d26565b61a1c4606083018461937a565b95945050505050565b600060808201905061a1e2600083018761937a565b61a1ef6020830186619d4c565b61a1fc604083018561937a565b61a209606083018461937a565b95945050505050565b600060c08201905061a22760008301896193d1565b61a234602083018861936b565b61a241604083018761936b565b61a24e606083018661936b565b61a25b608083018561936b565b81810360a083015261a26d818461930d565b9050979650505050505050565b6000602082019050818103600083015261a29381619420565b9050919050565b6000602082019050818103600083015261a2b381619460565b9050919050565b6000602082019050818103600083015261a2d3816194a0565b9050919050565b6000602082019050818103600083015261a2f38161952c565b9050919050565b6000602082019050818103600083015261a3138161956c565b9050919050565b6000602082019050818103600083015261a333816195f8565b9050919050565b6000602082019050818103600083015261a35381619638565b9050919050565b6000602082019050818103600083015261a37381619678565b9050919050565b6000602082019050818103600083015261a393816196de565b9050919050565b6000602082019050818103600083015261a3b38161971e565b9050919050565b6000602082019050818103600083015261a3d3816197aa565b9050919050565b6000602082019050818103600083015261a3f3816197ea565b9050919050565b6000602082019050818103600083015261a41381619850565b9050919050565b6000602082019050818103600083015261a43381619890565b9050919050565b6000602082019050818103600083015261a453816198f6565b9050919050565b6000602082019050818103600083015261a4738161995c565b9050919050565b6000602082019050818103600083015261a4938161999c565b9050919050565b6000602082019050818103600083015261a4b381619a02565b9050919050565b6000602082019050818103600083015261a4d381619a68565b9050919050565b6000602082019050818103600083015261a4f381619b0e565b9050919050565b6000602082019050818103600083015261a51381619b74565b9050919050565b6000602082019050818103600083015261a53381619c1a565b9050919050565b6000602082019050818103600083015261a55381619c80565b9050919050565b6000602082019050818103600083015261a57381619ce6565b9050919050565b600060208201905061a58f6000830184619d26565b92915050565b6000808335600160200384360303811261a5ae57600080fd5b80840192508235915067ffffffffffffffff82111561a5cc57600080fd5b60208301925060018202360383131561a5e457600080fd5b509250929050565b6000819050602082019050919050565b600081519050919050565b600081519050919050565b600081519050919050565b6000602082019050919050565b600082825260208201905092915050565b600082825260208201905092915050565b600081905092915050565b600082825260208201905092915050565b600081905092915050565b600061a67e8261a82d565b915061a6898361a82d565b9250827fffffffffffffffffffffffffffffffffffffffffffffffffffffffffffffffff0382111561a6be5761a6bd61a91c565b5b828201905092915050565b600061a6d48261a837565b915061a6df8361a837565b92508260ff0382111561a6f55761a6f461a91c565b5b828201905092915050565b600061a70b8261a82d565b915061a7168361a82d565b92508261a7265761a72561a94b565b5b828204905092915050565b600061a73c8261a82d565b915061a7478361a82d565b9250817fffffffffffffffffffffffffffffffffffffffffffffffffffffffffffffffff048311821515161561a7805761a77f61a91c565b5b828202905092915050565b600061a7968261a82d565b915061a7a18361a82d565b92508282101561a7b45761a7b361a91c565b5b828203905092915050565b600061a7ca8261a80d565b9050919050565b60008115159050919050565b6000819050919050565b600081905061a7f58261a9b6565b919050565b600081905061a8088261a9ca565b919050565b600073ffffffffffffffffffffffffffffffffffffffff82169050919050565b6000819050919050565b600060ff82169050919050565b600061a84f8261a7e7565b9050919050565b600061a8618261a7fa565b9050919050565b60005b8381101561a88657808201518184015260208101905061a86b565b8381111561a895576000848401525b50505050565b600061a8a68261a82d565b91507fffffffffffffffffffffffffffffffffffffffffffffffffffffffffffffffff82141561a8d95761a8d861a91c565b5b600182019050919050565b600061a8ef8261a900565b9050919050565b6000819050919050565b600061a90b8261a9a9565b9050919050565b6000819050919050565b7f4e487b7100000000000000000000000000000000000000000000000000000000600052601160045260246000fd5b7f4e487b7100000000000000000000000000000000000000000000000000000000600052601260045260246000fd5b7f4e487b7100000000000000000000000000000000000000000000000000000000600052602160045260246000fd5b60008160601b9050919050565b6003811061a9c75761a9c661a97a565b5b50565b6007811061a9db5761a9da61a97a565b5b50565b61a9e78161a7bf565b811461a9f257600080fd5b50565b61a9fe8161a7d1565b811461aa0957600080fd5b50565b61aa158161a7dd565b811461aa2057600080fd5b50565b6003811061aa3057600080fd5b50565b61aa3c8161a82d565b811461aa4757600080fd5b5056fea26469706673582212201db19566bd79013a8a356cf35d9d7691d8821f3e33181b61f9518d20dc3e00da64736f6c63430008000033",
  "immutableReferences": {},
  "source": "// SPDX-License-Identifier: Apache-2.0\npragma solidity ^0.8.0;\n\nimport \"../extensions/tokenExtensions/ERC1400TokensValidator.sol\";\n\n/**\n @notice Interface to the Minterrole contract\n*/\ninterface IMinterMock {\n  function renounceMinter() external;\n}\n\ncontract ERC1400TokensValidatorMock is ERC1400TokensValidator {\n\n  function renounceMinter(address token) external onlyTokenController(token) {\n    IMinterMock(token).renounceMinter();\n  }\n\n}",
  "sourcePath": "/Users/sergio/Library/Mobile Documents/com~apple~CloudDocs/Master-ciberseguridad-y-privacidad/2-Quatrimestre/TFM/project/truffle/contracts/ERC1400/mocks/ERC1400TokensValidatorMock.sol",
  "compiler": {
    "name": "solc",
    "version": "0.8.0+commit.c7dfd78e.Emscripten.clang"
  },
  "schemaVersion": "3.4.16",
  "updatedAt": "2024-05-03T10:09:20.176Z",
  "devdoc": {
    "kind": "dev",
    "methods": {
      "balanceOnHold(address,address)": {
        "details": "Get balance on hold of a tokenholder."
      },
      "balanceOnHoldByPartition(address,bytes32,address)": {
        "details": "Get balance on hold of a tokenholder for a specific partition."
      },
      "canValidate((address,bytes,bytes32,address,address,address,uint256,bytes,bytes))": {
        "details": "Verify if a token transfer can be executed or not, on the validator's perspective.",
        "params": {
          "data": "The struct containing the validation information."
        },
        "returns": {
          "_0": "'true' if the token transfer can be validated, 'false' if not."
        }
      },
      "executeHold(address,bytes32,uint256,bytes32)": {
        "details": "Execute hold."
      },
      "executeHoldAndKeepOpen(address,bytes32,uint256,bytes32)": {
        "details": "Execute hold and keep open."
      },
      "granularityByPartition(address,bytes32)": {
        "details": "Get granularity for a given partition.",
        "params": {
          "partition": "Name of the partition.",
          "token": "Token address."
        },
        "returns": {
          "_0": "Granularity of the partition."
        }
      },
      "hold(address,bytes32,address,address,bytes32,uint256,uint256,bytes32,bytes)": {
        "details": "Create a new token hold."
      },
      "holdFrom(address,bytes32,address,address,address,bytes32,uint256,uint256,bytes32,bytes)": {
        "details": "Create a new token hold on behalf of the token holder."
      },
      "holdFromWithExpirationDate(address,bytes32,address,address,address,bytes32,uint256,uint256,bytes32,bytes)": {
        "details": "Create a new token hold with expiration date on behalf of the token holder."
      },
      "holdWithExpirationDate(address,bytes32,address,address,bytes32,uint256,uint256,bytes32,bytes)": {
        "details": "Create a new token hold with expiration date."
      },
      "pause(address)": {
        "details": "called by the owner to pause, triggers stopped state"
      },
      "paused(address)": {
        "returns": {
          "_0": "true if the contract is paused, false otherwise."
        }
      },
      "preHoldFor(address,bytes32,address,address,bytes32,uint256,uint256,bytes32,bytes)": {
        "details": "Create a new token pre-hold."
      },
      "preHoldForWithExpirationDate(address,bytes32,address,address,bytes32,uint256,uint256,bytes32,bytes)": {
        "details": "Create a new token pre-hold with expiration date."
      },
      "registerTokenSetup(address,uint8,bool,bool,bool,bool,address[])": {
        "details": "Register token setup."
      },
      "releaseHold(address,bytes32)": {
        "details": "Release token hold."
      },
      "renewHold(address,bytes32,uint256,bytes)": {
        "details": "Renew hold."
      },
      "renewHoldWithExpirationDate(address,bytes32,uint256,bytes)": {
        "details": "Renew hold with expiration time."
      },
      "retrieveHoldData(address,bytes32)": {
        "details": "Retrieve hold data."
      },
      "retrieveTokenSetup(address)": {
        "details": "Get the list of token controllers for a given token.",
        "returns": {
          "_0": "Setup of a given token."
        }
      },
      "setGranularityByPartition(address,bytes32,uint256)": {
        "details": "Set partition granularity"
      },
      "spendableBalanceOf(address,address)": {
        "details": "Get spendable balance of a tokenholder."
      },
      "spendableBalanceOfByPartition(address,bytes32,address)": {
        "details": "Get spendable balance of a tokenholder for a specific partition."
      },
      "tokensToValidate(bytes,bytes32,address,address,address,uint256,bytes,bytes)": {
        "details": "Function called by the token contract before executing a transfer.",
        "params": {
          "data": "Extra information.",
          "from": "Token holder.",
          "operator": "Address which triggered the balance decrease (through transfer or redemption).",
          "operatorData": "Extra information, attached by the operator (if any).",
          "partition": "Name of the partition (left empty for ERC20 transfer).",
          "payload": "Payload of the initial transaction.",
          "to": "Token recipient for a transfer and 0x for a redemption.",
          "value": "Number of tokens the token holder balance is decreased by."
        }
      },
      "totalSupplyOnHold(address)": {
        "details": "Total supply on hold."
      },
      "totalSupplyOnHoldByPartition(address,bytes32)": {
        "details": "Total supply on hold for a specific partition."
      },
      "unpause(address)": {
        "details": "called by the owner to unpause, returns to normal state"
      },
      "usedCertificateNonce(address,address)": {
        "details": "Get state of certificate (used or not).",
        "params": {
          "sender": "Address whom to check the counter of.",
          "token": "Token address."
        },
        "returns": {
          "_0": "uint256 Number of transaction already sent for this token contract."
        }
      },
      "usedCertificateSalt(address,bytes32)": {
        "details": "Get state of certificate (used or not).",
        "params": {
          "salt": "First 32 bytes of certificate whose validity is being checked.",
          "token": "Token address."
        },
        "returns": {
          "_0": "bool 'true' if certificate is already used, 'false' if not."
        }
      }
    },
    "version": 1
  },
  "userdoc": {
    "kind": "user",
    "methods": {},
    "version": 1
  }
}