{
  "contractName": "ERC1820Implementer",
  "abi": [
    {
      "inputs": [
        {
          "internalType": "bytes32",
          "name": "interfaceHash",
          "type": "bytes32"
        },
        {
          "internalType": "address",
          "name": "",
          "type": "address"
        }
      ],
      "name": "canImplementInterfaceForAddress",
      "outputs": [
        {
          "internalType": "bytes32",
          "name": "",
          "type": "bytes32"
        }
      ],
      "stateMutability": "view",
      "type": "function"
    }
  ],
  "bytecode": "0x6080604052348015600e575f80fd5b5061024b8061001c5f395ff3fe608060405234801561000f575f80fd5b5060043610610029575f3560e01c8063249cb3fa1461002d575b5f80fd5b61004760048036038101906100429190610147565b61005d565b6040516100549190610194565b60405180910390f35b5f805f8481526020019081526020015f205f9054906101000a900460ff16156100ac5760405160200161008f90610201565b6040516020818303038152906040528051906020012090506100b0565b5f90505b92915050565b5f80fd5b5f819050919050565b6100cc816100ba565b81146100d6575f80fd5b50565b5f813590506100e7816100c3565b92915050565b5f73ffffffffffffffffffffffffffffffffffffffff82169050919050565b5f610116826100ed565b9050919050565b6101268161010c565b8114610130575f80fd5b50565b5f813590506101418161011d565b92915050565b5f806040838503121561015d5761015c6100b6565b5b5f61016a858286016100d9565b925050602061017b85828601610133565b9150509250929050565b61018e816100ba565b82525050565b5f6020820190506101a75f830184610185565b92915050565b5f81905092915050565b7f455243313832305f4143434550545f4d414749430000000000000000000000005f82015250565b5f6101eb6014836101ad565b91506101f6826101b7565b601482019050919050565b5f61020b826101df565b915081905091905056fea2646970667358221220c9efc35fb6bcc07bbf7e1639a2671cc462cbbd76c29d1ef36d2e984b4bf0251764736f6c63430008190033",
  "immutableReferences": {},
  "source": "// SPDX-License-Identifier: Apache-2.0\n/*\n * This code has not been reviewed.\n * Do not use or deploy this code before reviewing it personally first.\n */\npragma solidity ^0.8.0;\n\n\ncontract ERC1820Implementer {\n  bytes32 constant ERC1820_ACCEPT_MAGIC = keccak256(abi.encodePacked(\"ERC1820_ACCEPT_MAGIC\"));\n\n  mapping(bytes32 => bool) internal _interfaceHashes;\n\n  function canImplementInterfaceForAddress(bytes32 interfaceHash, address /*addr*/) // Comments to avoid compilation warnings for unused variables.\n    external\n    view\n    returns(bytes32)\n  {\n    if(_interfaceHashes[interfaceHash]) {\n      return ERC1820_ACCEPT_MAGIC;\n    } else {\n      return \"\";\n    }\n  }\n\n  function _setInterface(string memory interfaceLabel) internal {\n    _interfaceHashes[keccak256(abi.encodePacked(interfaceLabel))] = true;\n  }\n\n}\n",
  "sourcePath": "/Users/sergio/Library/Mobile Documents/com~apple~CloudDocs/Master-ciberseguridad-y-privacidad/2-Quatrimestre/TFM/project/truffle/contracts/ERC1400/interface/ERC1820Implementer.sol",
  "compiler": {
    "name": "solc",
    "version": "0.8.25+commit.b61c2a91.Emscripten.clang"
  },
  "schemaVersion": "3.4.16",
  "updatedAt": "2024-05-02T17:32:43.254Z",
  "devdoc": {
    "kind": "dev",
    "methods": {},
    "version": 1
  },
  "userdoc": {
    "kind": "user",
    "methods": {},
    "version": 1
  }
}