{
  "contractName": "ERC1400TokensRecipientMock",
  "abi": [
    {
      "inputs": [],
      "stateMutability": "nonpayable",
      "type": "constructor"
    },
    {
      "inputs": [
        {
          "internalType": "bytes32",
          "name": "interfaceHash",
          "type": "bytes32"
        },
        {
          "internalType": "address",
          "name": "",
          "type": "address"
        }
      ],
      "name": "canImplementInterfaceForAddress",
      "outputs": [
        {
          "internalType": "bytes32",
          "name": "",
          "type": "bytes32"
        }
      ],
      "stateMutability": "view",
      "type": "function"
    },
    {
      "inputs": [
        {
          "internalType": "bytes",
          "name": "",
          "type": "bytes"
        },
        {
          "internalType": "bytes32",
          "name": "",
          "type": "bytes32"
        },
        {
          "internalType": "address",
          "name": "",
          "type": "address"
        },
        {
          "internalType": "address",
          "name": "from",
          "type": "address"
        },
        {
          "internalType": "address",
          "name": "to",
          "type": "address"
        },
        {
          "internalType": "uint256",
          "name": "value",
          "type": "uint256"
        },
        {
          "internalType": "bytes",
          "name": "data",
          "type": "bytes"
        },
        {
          "internalType": "bytes",
          "name": "",
          "type": "bytes"
        }
      ],
      "name": "canReceive",
      "outputs": [
        {
          "internalType": "bool",
          "name": "",
          "type": "bool"
        }
      ],
      "stateMutability": "pure",
      "type": "function"
    },
    {
      "inputs": [
        {
          "internalType": "bytes",
          "name": "",
          "type": "bytes"
        },
        {
          "internalType": "bytes32",
          "name": "",
          "type": "bytes32"
        },
        {
          "internalType": "address",
          "name": "",
          "type": "address"
        },
        {
          "internalType": "address",
          "name": "from",
          "type": "address"
        },
        {
          "internalType": "address",
          "name": "to",
          "type": "address"
        },
        {
          "internalType": "uint256",
          "name": "value",
          "type": "uint256"
        },
        {
          "internalType": "bytes",
          "name": "data",
          "type": "bytes"
        },
        {
          "internalType": "bytes",
          "name": "",
          "type": "bytes"
        }
      ],
      "name": "tokensReceived",
      "outputs": [],
      "stateMutability": "pure",
      "type": "function"
    }
  ],
  "bytecode": "0x608060405234801561000f575f80fd5b506100546040518060400160405280601681526020017f45524331343030546f6b656e73526563697069656e740000000000000000000081525061005960201b60201c565b610112565b60015f808360405160200161006e91906100fc565b6040516020818303038152906040528051906020012081526020019081526020015f205f6101000a81548160ff02191690831515021790555050565b5f81519050919050565b5f81905092915050565b8281835e5f83830152505050565b5f6100d6826100aa565b6100e081856100b4565b93506100f08185602086016100be565b80840191505092915050565b5f61010782846100cc565b915081905092915050565b61064c8061011f5f395ff3fe608060405234801561000f575f80fd5b506004361061003f575f3560e01c8063249cb3fa14610043578063f464b57614610073578063f55886df1461008f575b5f80fd5b61005d600480360381019061005891906102f8565b6100bf565b60405161006a9190610345565b60405180910390f35b61008d600480360381019061008891906103f2565b610118565b005b6100a960048036038101906100a491906103f2565b6101b3565b6040516100b6919061051d565b60405180910390f35b5f805f8481526020019081526020015f205f9054906101000a900460ff161561010e576040516020016100f19061058a565b604051602081830303815290604052805190602001209050610112565b5f90505b92915050565b61016787878787878080601f0160208091040260200160405190810160405280939291908181526020018383808284375f81840152601f19601f82011690508083019250505050505050610214565b6101a6576040517f08c379a000000000000000000000000000000000000000000000000000000000815260040161019d906105f8565b60405180910390fd5b5050505050505050505050565b5f61020388888888888080601f0160208091040260200160405190810160405280939291908181526020018383808284375f81840152601f19601f82011690508083019250505050505050610214565b90509b9a5050505050505050505050565b5f807f22000000000000000000000000000000000000000000000000000000000000005f1b90505f60208401519050818103610254575f9250505061025b565b6001925050505b949350505050565b5f80fd5b5f80fd5b5f819050919050565b61027d8161026b565b8114610287575f80fd5b50565b5f8135905061029881610274565b92915050565b5f73ffffffffffffffffffffffffffffffffffffffff82169050919050565b5f6102c78261029e565b9050919050565b6102d7816102bd565b81146102e1575f80fd5b50565b5f813590506102f2816102ce565b92915050565b5f806040838503121561030e5761030d610263565b5b5f61031b8582860161028a565b925050602061032c858286016102e4565b9150509250929050565b61033f8161026b565b82525050565b5f6020820190506103585f830184610336565b92915050565b5f80fd5b5f80fd5b5f80fd5b5f8083601f84011261037f5761037e61035e565b5b8235905067ffffffffffffffff81111561039c5761039b610362565b5b6020830191508360018202830111156103b8576103b7610366565b5b9250929050565b5f819050919050565b6103d1816103bf565b81146103db575f80fd5b50565b5f813590506103ec816103c8565b92915050565b5f805f805f805f805f805f6101008c8e03121561041257610411610263565b5b5f8c013567ffffffffffffffff81111561042f5761042e610267565b5b61043b8e828f0161036a565b9b509b5050602061044e8e828f0161028a565b995050604061045f8e828f016102e4565b98505060606104708e828f016102e4565b97505060806104818e828f016102e4565b96505060a06104928e828f016103de565b95505060c08c013567ffffffffffffffff8111156104b3576104b2610267565b5b6104bf8e828f0161036a565b945094505060e08c013567ffffffffffffffff8111156104e2576104e1610267565b5b6104ee8e828f0161036a565b92509250509295989b509295989b9093969950565b5f8115159050919050565b61051781610503565b82525050565b5f6020820190506105305f83018461050e565b92915050565b5f81905092915050565b7f455243313832305f4143434550545f4d414749430000000000000000000000005f82015250565b5f610574601483610536565b915061057f82610540565b601482019050919050565b5f61059482610568565b9150819050919050565b5f82825260208201905092915050565b7f35370000000000000000000000000000000000000000000000000000000000005f82015250565b5f6105e260028361059e565b91506105ed826105ae565b602082019050919050565b5f6020820190508181035f83015261060f816105d6565b905091905056fea26469706673582212204cc13cdf94f40f79ddbfe5af33b013b577f5b0c2b31dc171a3dc574dcc03750f64736f6c63430008190033",
  "immutableReferences": {},
  "source": "// SPDX-License-Identifier: Apache-2.0\npragma solidity ^0.8.0;\n\nimport \"../extensions/userExtensions/IERC1400TokensRecipient.sol\";\nimport \"../interface/ERC1820Implementer.sol\";\n\n\ncontract ERC1400TokensRecipientMock is IERC1400TokensRecipient, ERC1820Implementer {\n\n  string constant internal ERC1400_TOKENS_RECIPIENT = \"ERC1400TokensRecipient\";\n\n  constructor() {\n    ERC1820Implementer._setInterface(ERC1400_TOKENS_RECIPIENT);\n  }\n\n  function canReceive(\n    bytes calldata /*payload*/,\n    bytes32 /*partition*/,\n    address /*operator*/,\n    address from,\n    address to,\n    uint value,\n    bytes calldata data,\n    bytes calldata /*operatorData*/\n  ) // Comments to avoid compilation warnings for unused variables.\n    external\n    override\n    pure\n    returns(bool)\n  {\n    return(_canReceive(from, to, value, data));\n  }\n\n  function tokensReceived(\n    bytes calldata /*payload*/,\n    bytes32 /*partition*/,\n    address /*operator*/,\n    address from,\n    address to,\n    uint value,\n    bytes calldata data,\n    bytes calldata /*operatorData*/\n  ) // Comments to avoid compilation warnings for unused variables.\n    external\n    override\n    pure\n  {\n    require(_canReceive(from, to, value, data), \"57\"); // 0x57\tinvalid receiver\n  }\n\n  function _canReceive(\n    address /*from*/,\n    address /*to*/,\n    uint /*value*/,\n    bytes memory data\n  ) // Comments to avoid compilation warnings for unused variables.\n    internal\n    pure\n    returns(bool)\n  {\n    bytes32 receiveRevert = 0x2200000000000000000000000000000000000000000000000000000000000000; // Default recipient hook failure data for the mock only\n    bytes32 data32;\n    assembly {\n        data32 := mload(add(data, 32))\n    }\n    if (data32 == receiveRevert) {\n      return false;\n    } else {\n      return true;\n    }\n  }\n\n}\n",
  "sourcePath": "/Users/sergio/Library/Mobile Documents/com~apple~CloudDocs/Master-ciberseguridad-y-privacidad/2-Quatrimestre/TFM/project/truffle/contracts/ERC1400/mocks/ERC1400TokensRecipientMock.sol",
  "compiler": {
    "name": "solc",
    "version": "0.8.25+commit.b61c2a91.Emscripten.clang"
  },
  "schemaVersion": "3.4.16",
  "updatedAt": "2024-05-02T17:32:43.277Z",
  "devdoc": {
    "kind": "dev",
    "methods": {},
    "version": 1
  },
  "userdoc": {
    "kind": "user",
    "methods": {},
    "version": 1
  }
}