{
  "contractName": "ERC1400HoldableCertificateToken",
  "abi": [
    {
      "inputs": [
        {
          "internalType": "string",
          "name": "name",
          "type": "string"
        },
        {
          "internalType": "string",
          "name": "symbol",
          "type": "string"
        },
        {
          "internalType": "uint256",
          "name": "granularity",
          "type": "uint256"
        },
        {
          "internalType": "address[]",
          "name": "controllers",
          "type": "address[]"
        },
        {
          "internalType": "bytes32[]",
          "name": "defaultPartitions",
          "type": "bytes32[]"
        },
        {
          "internalType": "address",
          "name": "extension",
          "type": "address"
        },
        {
          "internalType": "address",
          "name": "newOwner",
          "type": "address"
        },
        {
          "internalType": "address",
          "name": "certificateSigner",
          "type": "address"
        },
        {
          "internalType": "enum IExtensionTypes.CertificateValidation",
          "name": "certificateActivated",
          "type": "uint8"
        }
      ],
      "stateMutability": "nonpayable",
      "type": "constructor"
    },
    {
      "anonymous": false,
      "inputs": [
        {
          "indexed": true,
          "internalType": "address",
          "name": "owner",
          "type": "address"
        },
        {
          "indexed": true,
          "internalType": "address",
          "name": "spender",
          "type": "address"
        },
        {
          "indexed": false,
          "internalType": "uint256",
          "name": "value",
          "type": "uint256"
        }
      ],
      "name": "Approval",
      "type": "event"
    },
    {
      "anonymous": false,
      "inputs": [
        {
          "indexed": true,
          "internalType": "bytes32",
          "name": "partition",
          "type": "bytes32"
        },
        {
          "indexed": true,
          "internalType": "address",
          "name": "owner",
          "type": "address"
        },
        {
          "indexed": true,
          "internalType": "address",
          "name": "spender",
          "type": "address"
        },
        {
          "indexed": false,
          "internalType": "uint256",
          "name": "value",
          "type": "uint256"
        }
      ],
      "name": "ApprovalByPartition",
      "type": "event"
    },
    {
      "anonymous": false,
      "inputs": [
        {
          "indexed": true,
          "internalType": "address",
          "name": "operator",
          "type": "address"
        },
        {
          "indexed": true,
          "internalType": "address",
          "name": "tokenHolder",
          "type": "address"
        }
      ],
      "name": "AuthorizedOperator",
      "type": "event"
    },
    {
      "anonymous": false,
      "inputs": [
        {
          "indexed": true,
          "internalType": "bytes32",
          "name": "partition",
          "type": "bytes32"
        },
        {
          "indexed": true,
          "internalType": "address",
          "name": "operator",
          "type": "address"
        },
        {
          "indexed": true,
          "internalType": "address",
          "name": "tokenHolder",
          "type": "address"
        }
      ],
      "name": "AuthorizedOperatorByPartition",
      "type": "event"
    },
    {
      "anonymous": false,
      "inputs": [
        {
          "indexed": true,
          "internalType": "bytes32",
          "name": "fromPartition",
          "type": "bytes32"
        },
        {
          "indexed": true,
          "internalType": "bytes32",
          "name": "toPartition",
          "type": "bytes32"
        },
        {
          "indexed": false,
          "internalType": "uint256",
          "name": "value",
          "type": "uint256"
        }
      ],
      "name": "ChangedPartition",
      "type": "event"
    },
    {
      "anonymous": false,
      "inputs": [
        {
          "indexed": true,
          "internalType": "bytes32",
          "name": "name",
          "type": "bytes32"
        },
        {
          "indexed": false,
          "internalType": "string",
          "name": "uri",
          "type": "string"
        },
        {
          "indexed": false,
          "internalType": "bytes32",
          "name": "documentHash",
          "type": "bytes32"
        }
      ],
      "name": "DocumentRemoved",
      "type": "event"
    },
    {
      "anonymous": false,
      "inputs": [
        {
          "indexed": true,
          "internalType": "bytes32",
          "name": "name",
          "type": "bytes32"
        },
        {
          "indexed": false,
          "internalType": "string",
          "name": "uri",
          "type": "string"
        },
        {
          "indexed": false,
          "internalType": "bytes32",
          "name": "documentHash",
          "type": "bytes32"
        }
      ],
      "name": "DocumentUpdated",
      "type": "event"
    },
    {
      "anonymous": false,
      "inputs": [
        {
          "indexed": true,
          "internalType": "address",
          "name": "operator",
          "type": "address"
        },
        {
          "indexed": true,
          "internalType": "address",
          "name": "to",
          "type": "address"
        },
        {
          "indexed": false,
          "internalType": "uint256",
          "name": "value",
          "type": "uint256"
        },
        {
          "indexed": false,
          "internalType": "bytes",
          "name": "data",
          "type": "bytes"
        }
      ],
      "name": "Issued",
      "type": "event"
    },
    {
      "anonymous": false,
      "inputs": [
        {
          "indexed": true,
          "internalType": "bytes32",
          "name": "partition",
          "type": "bytes32"
        },
        {
          "indexed": true,
          "internalType": "address",
          "name": "operator",
          "type": "address"
        },
        {
          "indexed": true,
          "internalType": "address",
          "name": "to",
          "type": "address"
        },
        {
          "indexed": false,
          "internalType": "uint256",
          "name": "value",
          "type": "uint256"
        },
        {
          "indexed": false,
          "internalType": "bytes",
          "name": "data",
          "type": "bytes"
        },
        {
          "indexed": false,
          "internalType": "bytes",
          "name": "operatorData",
          "type": "bytes"
        }
      ],
      "name": "IssuedByPartition",
      "type": "event"
    },
    {
      "anonymous": false,
      "inputs": [
        {
          "indexed": true,
          "internalType": "address",
          "name": "account",
          "type": "address"
        }
      ],
      "name": "MinterAdded",
      "type": "event"
    },
    {
      "anonymous": false,
      "inputs": [
        {
          "indexed": true,
          "internalType": "address",
          "name": "account",
          "type": "address"
        }
      ],
      "name": "MinterRemoved",
      "type": "event"
    },
    {
      "anonymous": false,
      "inputs": [
        {
          "indexed": true,
          "internalType": "address",
          "name": "previousOwner",
          "type": "address"
        },
        {
          "indexed": true,
          "internalType": "address",
          "name": "newOwner",
          "type": "address"
        }
      ],
      "name": "OwnershipTransferred",
      "type": "event"
    },
    {
      "anonymous": false,
      "inputs": [
        {
          "indexed": true,
          "internalType": "address",
          "name": "operator",
          "type": "address"
        },
        {
          "indexed": true,
          "internalType": "address",
          "name": "from",
          "type": "address"
        },
        {
          "indexed": false,
          "internalType": "uint256",
          "name": "value",
          "type": "uint256"
        },
        {
          "indexed": false,
          "internalType": "bytes",
          "name": "data",
          "type": "bytes"
        }
      ],
      "name": "Redeemed",
      "type": "event"
    },
    {
      "anonymous": false,
      "inputs": [
        {
          "indexed": true,
          "internalType": "bytes32",
          "name": "partition",
          "type": "bytes32"
        },
        {
          "indexed": true,
          "internalType": "address",
          "name": "operator",
          "type": "address"
        },
        {
          "indexed": true,
          "internalType": "address",
          "name": "from",
          "type": "address"
        },
        {
          "indexed": false,
          "internalType": "uint256",
          "name": "value",
          "type": "uint256"
        },
        {
          "indexed": false,
          "internalType": "bytes",
          "name": "operatorData",
          "type": "bytes"
        }
      ],
      "name": "RedeemedByPartition",
      "type": "event"
    },
    {
      "anonymous": false,
      "inputs": [
        {
          "indexed": true,
          "internalType": "address",
          "name": "operator",
          "type": "address"
        },
        {
          "indexed": true,
          "internalType": "address",
          "name": "tokenHolder",
          "type": "address"
        }
      ],
      "name": "RevokedOperator",
      "type": "event"
    },
    {
      "anonymous": false,
      "inputs": [
        {
          "indexed": true,
          "internalType": "bytes32",
          "name": "partition",
          "type": "bytes32"
        },
        {
          "indexed": true,
          "internalType": "address",
          "name": "operator",
          "type": "address"
        },
        {
          "indexed": true,
          "internalType": "address",
          "name": "tokenHolder",
          "type": "address"
        }
      ],
      "name": "RevokedOperatorByPartition",
      "type": "event"
    },
    {
      "anonymous": false,
      "inputs": [
        {
          "indexed": true,
          "internalType": "address",
          "name": "from",
          "type": "address"
        },
        {
          "indexed": true,
          "internalType": "address",
          "name": "to",
          "type": "address"
        },
        {
          "indexed": false,
          "internalType": "uint256",
          "name": "value",
          "type": "uint256"
        }
      ],
      "name": "Transfer",
      "type": "event"
    },
    {
      "anonymous": false,
      "inputs": [
        {
          "indexed": true,
          "internalType": "bytes32",
          "name": "fromPartition",
          "type": "bytes32"
        },
        {
          "indexed": false,
          "internalType": "address",
          "name": "operator",
          "type": "address"
        },
        {
          "indexed": true,
          "internalType": "address",
          "name": "from",
          "type": "address"
        },
        {
          "indexed": true,
          "internalType": "address",
          "name": "to",
          "type": "address"
        },
        {
          "indexed": false,
          "internalType": "uint256",
          "name": "value",
          "type": "uint256"
        },
        {
          "indexed": false,
          "internalType": "bytes",
          "name": "data",
          "type": "bytes"
        },
        {
          "indexed": false,
          "internalType": "bytes",
          "name": "operatorData",
          "type": "bytes"
        }
      ],
      "name": "TransferByPartition",
      "type": "event"
    },
    {
      "inputs": [
        {
          "internalType": "address",
          "name": "account",
          "type": "address"
        }
      ],
      "name": "addMinter",
      "outputs": [],
      "stateMutability": "nonpayable",
      "type": "function"
    },
    {
      "inputs": [
        {
          "internalType": "address",
          "name": "owner",
          "type": "address"
        },
        {
          "internalType": "address",
          "name": "spender",
          "type": "address"
        }
      ],
      "name": "allowance",
      "outputs": [
        {
          "internalType": "uint256",
          "name": "",
          "type": "uint256"
        }
      ],
      "stateMutability": "view",
      "type": "function"
    },
    {
      "inputs": [
        {
          "internalType": "bytes32",
          "name": "partition",
          "type": "bytes32"
        },
        {
          "internalType": "address",
          "name": "owner",
          "type": "address"
        },
        {
          "internalType": "address",
          "name": "spender",
          "type": "address"
        }
      ],
      "name": "allowanceByPartition",
      "outputs": [
        {
          "internalType": "uint256",
          "name": "",
          "type": "uint256"
        }
      ],
      "stateMutability": "view",
      "type": "function"
    },
    {
      "inputs": [
        {
          "internalType": "address",
          "name": "spender",
          "type": "address"
        },
        {
          "internalType": "uint256",
          "name": "value",
          "type": "uint256"
        }
      ],
      "name": "approve",
      "outputs": [
        {
          "internalType": "bool",
          "name": "",
          "type": "bool"
        }
      ],
      "stateMutability": "nonpayable",
      "type": "function"
    },
    {
      "inputs": [
        {
          "internalType": "bytes32",
          "name": "partition",
          "type": "bytes32"
        },
        {
          "internalType": "address",
          "name": "spender",
          "type": "address"
        },
        {
          "internalType": "uint256",
          "name": "value",
          "type": "uint256"
        }
      ],
      "name": "approveByPartition",
      "outputs": [
        {
          "internalType": "bool",
          "name": "",
          "type": "bool"
        }
      ],
      "stateMutability": "nonpayable",
      "type": "function"
    },
    {
      "inputs": [
        {
          "internalType": "address",
          "name": "operator",
          "type": "address"
        }
      ],
      "name": "authorizeOperator",
      "outputs": [],
      "stateMutability": "nonpayable",
      "type": "function"
    },
    {
      "inputs": [
        {
          "internalType": "bytes32",
          "name": "partition",
          "type": "bytes32"
        },
        {
          "internalType": "address",
          "name": "operator",
          "type": "address"
        }
      ],
      "name": "authorizeOperatorByPartition",
      "outputs": [],
      "stateMutability": "nonpayable",
      "type": "function"
    },
    {
      "inputs": [
        {
          "internalType": "address",
          "name": "tokenHolder",
          "type": "address"
        }
      ],
      "name": "balanceOf",
      "outputs": [
        {
          "internalType": "uint256",
          "name": "",
          "type": "uint256"
        }
      ],
      "stateMutability": "view",
      "type": "function"
    },
    {
      "inputs": [
        {
          "internalType": "bytes32",
          "name": "partition",
          "type": "bytes32"
        },
        {
          "internalType": "address",
          "name": "tokenHolder",
          "type": "address"
        }
      ],
      "name": "balanceOfByPartition",
      "outputs": [
        {
          "internalType": "uint256",
          "name": "",
          "type": "uint256"
        }
      ],
      "stateMutability": "view",
      "type": "function"
    },
    {
      "inputs": [
        {
          "internalType": "bytes32",
          "name": "interfaceHash",
          "type": "bytes32"
        },
        {
          "internalType": "address",
          "name": "",
          "type": "address"
        }
      ],
      "name": "canImplementInterfaceForAddress",
      "outputs": [
        {
          "internalType": "bytes32",
          "name": "",
          "type": "bytes32"
        }
      ],
      "stateMutability": "view",
      "type": "function"
    },
    {
      "inputs": [],
      "name": "controllers",
      "outputs": [
        {
          "internalType": "address[]",
          "name": "",
          "type": "address[]"
        }
      ],
      "stateMutability": "view",
      "type": "function"
    },
    {
      "inputs": [
        {
          "internalType": "bytes32",
          "name": "partition",
          "type": "bytes32"
        }
      ],
      "name": "controllersByPartition",
      "outputs": [
        {
          "internalType": "address[]",
          "name": "",
          "type": "address[]"
        }
      ],
      "stateMutability": "view",
      "type": "function"
    },
    {
      "inputs": [],
      "name": "decimals",
      "outputs": [
        {
          "internalType": "uint8",
          "name": "",
          "type": "uint8"
        }
      ],
      "stateMutability": "pure",
      "type": "function"
    },
    {
      "inputs": [],
      "name": "domainName",
      "outputs": [
        {
          "internalType": "string",
          "name": "",
          "type": "string"
        }
      ],
      "stateMutability": "view",
      "type": "function"
    },
    {
      "inputs": [],
      "name": "domainSeparator",
      "outputs": [
        {
          "internalType": "bytes32",
          "name": "",
          "type": "bytes32"
        }
      ],
      "stateMutability": "nonpayable",
      "type": "function"
    },
    {
      "inputs": [],
      "name": "domainVersion",
      "outputs": [
        {
          "internalType": "string",
          "name": "",
          "type": "string"
        }
      ],
      "stateMutability": "pure",
      "type": "function"
    },
    {
      "inputs": [],
      "name": "generateDomainSeparator",
      "outputs": [
        {
          "internalType": "bytes32",
          "name": "",
          "type": "bytes32"
        }
      ],
      "stateMutability": "view",
      "type": "function"
    },
    {
      "inputs": [],
      "name": "getAllDocuments",
      "outputs": [
        {
          "internalType": "bytes32[]",
          "name": "",
          "type": "bytes32[]"
        }
      ],
      "stateMutability": "view",
      "type": "function"
    },
    {
      "inputs": [],
      "name": "getDefaultPartitions",
      "outputs": [
        {
          "internalType": "bytes32[]",
          "name": "",
          "type": "bytes32[]"
        }
      ],
      "stateMutability": "view",
      "type": "function"
    },
    {
      "inputs": [
        {
          "internalType": "bytes32",
          "name": "documentName",
          "type": "bytes32"
        }
      ],
      "name": "getDocument",
      "outputs": [
        {
          "internalType": "string",
          "name": "",
          "type": "string"
        },
        {
          "internalType": "bytes32",
          "name": "",
          "type": "bytes32"
        },
        {
          "internalType": "uint256",
          "name": "",
          "type": "uint256"
        }
      ],
      "stateMutability": "view",
      "type": "function"
    },
    {
      "inputs": [],
      "name": "granularity",
      "outputs": [
        {
          "internalType": "uint256",
          "name": "",
          "type": "uint256"
        }
      ],
      "stateMutability": "view",
      "type": "function"
    },
    {
      "inputs": [],
      "name": "isControllable",
      "outputs": [
        {
          "internalType": "bool",
          "name": "",
          "type": "bool"
        }
      ],
      "stateMutability": "view",
      "type": "function"
    },
    {
      "inputs": [],
      "name": "isIssuable",
      "outputs": [
        {
          "internalType": "bool",
          "name": "",
          "type": "bool"
        }
      ],
      "stateMutability": "view",
      "type": "function"
    },
    {
      "inputs": [
        {
          "internalType": "address",
          "name": "account",
          "type": "address"
        }
      ],
      "name": "isMinter",
      "outputs": [
        {
          "internalType": "bool",
          "name": "",
          "type": "bool"
        }
      ],
      "stateMutability": "view",
      "type": "function"
    },
    {
      "inputs": [
        {
          "internalType": "address",
          "name": "operator",
          "type": "address"
        },
        {
          "internalType": "address",
          "name": "tokenHolder",
          "type": "address"
        }
      ],
      "name": "isOperator",
      "outputs": [
        {
          "internalType": "bool",
          "name": "",
          "type": "bool"
        }
      ],
      "stateMutability": "view",
      "type": "function"
    },
    {
      "inputs": [
        {
          "internalType": "bytes32",
          "name": "partition",
          "type": "bytes32"
        },
        {
          "internalType": "address",
          "name": "operator",
          "type": "address"
        },
        {
          "internalType": "address",
          "name": "tokenHolder",
          "type": "address"
        }
      ],
      "name": "isOperatorForPartition",
      "outputs": [
        {
          "internalType": "bool",
          "name": "",
          "type": "bool"
        }
      ],
      "stateMutability": "view",
      "type": "function"
    },
    {
      "inputs": [
        {
          "internalType": "address",
          "name": "tokenHolder",
          "type": "address"
        },
        {
          "internalType": "uint256",
          "name": "value",
          "type": "uint256"
        },
        {
          "internalType": "bytes",
          "name": "data",
          "type": "bytes"
        }
      ],
      "name": "issue",
      "outputs": [],
      "stateMutability": "nonpayable",
      "type": "function"
    },
    {
      "inputs": [
        {
          "internalType": "bytes32",
          "name": "partition",
          "type": "bytes32"
        },
        {
          "internalType": "address",
          "name": "tokenHolder",
          "type": "address"
        },
        {
          "internalType": "uint256",
          "name": "value",
          "type": "uint256"
        },
        {
          "internalType": "bytes",
          "name": "data",
          "type": "bytes"
        }
      ],
      "name": "issueByPartition",
      "outputs": [],
      "stateMutability": "nonpayable",
      "type": "function"
    },
    {
      "inputs": [
        {
          "internalType": "address",
          "name": "newContractAddress",
          "type": "address"
        },
        {
          "internalType": "bool",
          "name": "definitive",
          "type": "bool"
        }
      ],
      "name": "migrate",
      "outputs": [],
      "stateMutability": "nonpayable",
      "type": "function"
    },
    {
      "inputs": [],
      "name": "name",
      "outputs": [
        {
          "internalType": "string",
          "name": "",
          "type": "string"
        }
      ],
      "stateMutability": "view",
      "type": "function"
    },
    {
      "inputs": [
        {
          "internalType": "bytes32",
          "name": "partition",
          "type": "bytes32"
        },
        {
          "internalType": "address",
          "name": "tokenHolder",
          "type": "address"
        },
        {
          "internalType": "uint256",
          "name": "value",
          "type": "uint256"
        },
        {
          "internalType": "bytes",
          "name": "operatorData",
          "type": "bytes"
        }
      ],
      "name": "operatorRedeemByPartition",
      "outputs": [],
      "stateMutability": "nonpayable",
      "type": "function"
    },
    {
      "inputs": [
        {
          "internalType": "bytes32",
          "name": "partition",
          "type": "bytes32"
        },
        {
          "internalType": "address",
          "name": "from",
          "type": "address"
        },
        {
          "internalType": "address",
          "name": "to",
          "type": "address"
        },
        {
          "internalType": "uint256",
          "name": "value",
          "type": "uint256"
        },
        {
          "internalType": "bytes",
          "name": "data",
          "type": "bytes"
        },
        {
          "internalType": "bytes",
          "name": "operatorData",
          "type": "bytes"
        }
      ],
      "name": "operatorTransferByPartition",
      "outputs": [
        {
          "internalType": "bytes32",
          "name": "",
          "type": "bytes32"
        }
      ],
      "stateMutability": "nonpayable",
      "type": "function"
    },
    {
      "inputs": [],
      "name": "owner",
      "outputs": [
        {
          "internalType": "address",
          "name": "",
          "type": "address"
        }
      ],
      "stateMutability": "view",
      "type": "function"
    },
    {
      "inputs": [
        {
          "internalType": "address",
          "name": "tokenHolder",
          "type": "address"
        }
      ],
      "name": "partitionsOf",
      "outputs": [
        {
          "internalType": "bytes32[]",
          "name": "",
          "type": "bytes32[]"
        }
      ],
      "stateMutability": "view",
      "type": "function"
    },
    {
      "inputs": [
        {
          "internalType": "uint256",
          "name": "value",
          "type": "uint256"
        },
        {
          "internalType": "bytes",
          "name": "data",
          "type": "bytes"
        }
      ],
      "name": "redeem",
      "outputs": [],
      "stateMutability": "nonpayable",
      "type": "function"
    },
    {
      "inputs": [
        {
          "internalType": "bytes32",
          "name": "partition",
          "type": "bytes32"
        },
        {
          "internalType": "uint256",
          "name": "value",
          "type": "uint256"
        },
        {
          "internalType": "bytes",
          "name": "data",
          "type": "bytes"
        }
      ],
      "name": "redeemByPartition",
      "outputs": [],
      "stateMutability": "nonpayable",
      "type": "function"
    },
    {
      "inputs": [
        {
          "internalType": "address",
          "name": "from",
          "type": "address"
        },
        {
          "internalType": "uint256",
          "name": "value",
          "type": "uint256"
        },
        {
          "internalType": "bytes",
          "name": "data",
          "type": "bytes"
        }
      ],
      "name": "redeemFrom",
      "outputs": [],
      "stateMutability": "nonpayable",
      "type": "function"
    },
    {
      "inputs": [
        {
          "internalType": "bytes32",
          "name": "documentName",
          "type": "bytes32"
        }
      ],
      "name": "removeDocument",
      "outputs": [],
      "stateMutability": "nonpayable",
      "type": "function"
    },
    {
      "inputs": [
        {
          "internalType": "address",
          "name": "account",
          "type": "address"
        }
      ],
      "name": "removeMinter",
      "outputs": [],
      "stateMutability": "nonpayable",
      "type": "function"
    },
    {
      "inputs": [],
      "name": "renounceControl",
      "outputs": [],
      "stateMutability": "nonpayable",
      "type": "function"
    },
    {
      "inputs": [],
      "name": "renounceIssuance",
      "outputs": [],
      "stateMutability": "nonpayable",
      "type": "function"
    },
    {
      "inputs": [],
      "name": "renounceMinter",
      "outputs": [],
      "stateMutability": "nonpayable",
      "type": "function"
    },
    {
      "inputs": [],
      "name": "renounceOwnership",
      "outputs": [],
      "stateMutability": "nonpayable",
      "type": "function"
    },
    {
      "inputs": [
        {
          "internalType": "address",
          "name": "operator",
          "type": "address"
        }
      ],
      "name": "revokeOperator",
      "outputs": [],
      "stateMutability": "nonpayable",
      "type": "function"
    },
    {
      "inputs": [
        {
          "internalType": "bytes32",
          "name": "partition",
          "type": "bytes32"
        },
        {
          "internalType": "address",
          "name": "operator",
          "type": "address"
        }
      ],
      "name": "revokeOperatorByPartition",
      "outputs": [],
      "stateMutability": "nonpayable",
      "type": "function"
    },
    {
      "inputs": [
        {
          "internalType": "address[]",
          "name": "operators",
          "type": "address[]"
        }
      ],
      "name": "setControllers",
      "outputs": [],
      "stateMutability": "nonpayable",
      "type": "function"
    },
    {
      "inputs": [
        {
          "internalType": "bytes32[]",
          "name": "partitions",
          "type": "bytes32[]"
        }
      ],
      "name": "setDefaultPartitions",
      "outputs": [],
      "stateMutability": "nonpayable",
      "type": "function"
    },
    {
      "inputs": [
        {
          "internalType": "bytes32",
          "name": "documentName",
          "type": "bytes32"
        },
        {
          "internalType": "string",
          "name": "uri",
          "type": "string"
        },
        {
          "internalType": "bytes32",
          "name": "documentHash",
          "type": "bytes32"
        }
      ],
      "name": "setDocument",
      "outputs": [],
      "stateMutability": "nonpayable",
      "type": "function"
    },
    {
      "inputs": [
        {
          "internalType": "bytes32",
          "name": "partition",
          "type": "bytes32"
        },
        {
          "internalType": "address[]",
          "name": "operators",
          "type": "address[]"
        }
      ],
      "name": "setPartitionControllers",
      "outputs": [],
      "stateMutability": "nonpayable",
      "type": "function"
    },
    {
      "inputs": [
        {
          "internalType": "address",
          "name": "extension",
          "type": "address"
        },
        {
          "internalType": "string",
          "name": "interfaceLabel",
          "type": "string"
        },
        {
          "internalType": "bool",
          "name": "removeOldExtensionRoles",
          "type": "bool"
        },
        {
          "internalType": "bool",
          "name": "addMinterRoleForExtension",
          "type": "bool"
        },
        {
          "internalType": "bool",
          "name": "addControllerRoleForExtension",
          "type": "bool"
        }
      ],
      "name": "setTokenExtension",
      "outputs": [],
      "stateMutability": "nonpayable",
      "type": "function"
    },
    {
      "inputs": [],
      "name": "symbol",
      "outputs": [
        {
          "internalType": "string",
          "name": "",
          "type": "string"
        }
      ],
      "stateMutability": "view",
      "type": "function"
    },
    {
      "inputs": [],
      "name": "totalPartitions",
      "outputs": [
        {
          "internalType": "bytes32[]",
          "name": "",
          "type": "bytes32[]"
        }
      ],
      "stateMutability": "view",
      "type": "function"
    },
    {
      "inputs": [],
      "name": "totalSupply",
      "outputs": [
        {
          "internalType": "uint256",
          "name": "",
          "type": "uint256"
        }
      ],
      "stateMutability": "view",
      "type": "function"
    },
    {
      "inputs": [
        {
          "internalType": "bytes32",
          "name": "partition",
          "type": "bytes32"
        }
      ],
      "name": "totalSupplyByPartition",
      "outputs": [
        {
          "internalType": "uint256",
          "name": "",
          "type": "uint256"
        }
      ],
      "stateMutability": "view",
      "type": "function"
    },
    {
      "inputs": [
        {
          "internalType": "address",
          "name": "to",
          "type": "address"
        },
        {
          "internalType": "uint256",
          "name": "value",
          "type": "uint256"
        }
      ],
      "name": "transfer",
      "outputs": [
        {
          "internalType": "bool",
          "name": "",
          "type": "bool"
        }
      ],
      "stateMutability": "nonpayable",
      "type": "function"
    },
    {
      "inputs": [
        {
          "internalType": "bytes32",
          "name": "partition",
          "type": "bytes32"
        },
        {
          "internalType": "address",
          "name": "to",
          "type": "address"
        },
        {
          "internalType": "uint256",
          "name": "value",
          "type": "uint256"
        },
        {
          "internalType": "bytes",
          "name": "data",
          "type": "bytes"
        }
      ],
      "name": "transferByPartition",
      "outputs": [
        {
          "internalType": "bytes32",
          "name": "",
          "type": "bytes32"
        }
      ],
      "stateMutability": "nonpayable",
      "type": "function"
    },
    {
      "inputs": [
        {
          "internalType": "address",
          "name": "from",
          "type": "address"
        },
        {
          "internalType": "address",
          "name": "to",
          "type": "address"
        },
        {
          "internalType": "uint256",
          "name": "value",
          "type": "uint256"
        }
      ],
      "name": "transferFrom",
      "outputs": [
        {
          "internalType": "bool",
          "name": "",
          "type": "bool"
        }
      ],
      "stateMutability": "nonpayable",
      "type": "function"
    },
    {
      "inputs": [
        {
          "internalType": "address",
          "name": "from",
          "type": "address"
        },
        {
          "internalType": "address",
          "name": "to",
          "type": "address"
        },
        {
          "internalType": "uint256",
          "name": "value",
          "type": "uint256"
        },
        {
          "internalType": "bytes",
          "name": "data",
          "type": "bytes"
        }
      ],
      "name": "transferFromWithData",
      "outputs": [],
      "stateMutability": "nonpayable",
      "type": "function"
    },
    {
      "inputs": [
        {
          "internalType": "address",
          "name": "newOwner",
          "type": "address"
        }
      ],
      "name": "transferOwnership",
      "outputs": [],
      "stateMutability": "nonpayable",
      "type": "function"
    },
    {
      "inputs": [
        {
          "internalType": "address",
          "name": "to",
          "type": "address"
        },
        {
          "internalType": "uint256",
          "name": "value",
          "type": "uint256"
        },
        {
          "internalType": "bytes",
          "name": "data",
          "type": "bytes"
        }
      ],
      "name": "transferWithData",
      "outputs": [],
      "stateMutability": "nonpayable",
      "type": "function"
    },
    {
      "inputs": [
        {
          "internalType": "bytes32",
          "name": "partition",
          "type": "bytes32"
        },
        {
          "internalType": "address",
          "name": "to",
          "type": "address"
        },
        {
          "internalType": "uint256",
          "name": "value",
          "type": "uint256"
        },
        {
          "internalType": "bytes",
          "name": "data",
          "type": "bytes"
        }
      ],
      "name": "canTransferByPartition",
      "outputs": [
        {
          "internalType": "bytes1",
          "name": "",
          "type": "bytes1"
        },
        {
          "internalType": "bytes32",
          "name": "",
          "type": "bytes32"
        },
        {
          "internalType": "bytes32",
          "name": "",
          "type": "bytes32"
        }
      ],
      "stateMutability": "view",
      "type": "function"
    },
    {
      "inputs": [
        {
          "internalType": "bytes32",
          "name": "partition",
          "type": "bytes32"
        },
        {
          "internalType": "address",
          "name": "from",
          "type": "address"
        },
        {
          "internalType": "address",
          "name": "to",
          "type": "address"
        },
        {
          "internalType": "uint256",
          "name": "value",
          "type": "uint256"
        },
        {
          "internalType": "bytes",
          "name": "data",
          "type": "bytes"
        },
        {
          "internalType": "bytes",
          "name": "operatorData",
          "type": "bytes"
        }
      ],
      "name": "canOperatorTransferByPartition",
      "outputs": [
        {
          "internalType": "bytes1",
          "name": "",
          "type": "bytes1"
        },
        {
          "internalType": "bytes32",
          "name": "",
          "type": "bytes32"
        },
        {
          "internalType": "bytes32",
          "name": "",
          "type": "bytes32"
        }
      ],
      "stateMutability": "view",
      "type": "function"
    }
  ],
  "bytecode": "0x608060405234801561000f575f80fd5b5060405161a58438038061a584833981810160405281019061003191906113bc565b88888888886100526100476103fd60201b60201c565b61040460201b60201c565b610061336104c560201b60201c565b61006f61051f60201b60201c565b50846004908161007f91906116f4565b50836005908161008f91906116f4565b505f60078190555060018310156100a4575f80fd5b826006819055506100ba8261056060201b60201c565b80601490805190602001906100d0929190610f00565b506001600860016101000a81548160ff0219169083151502179055506001600860026101000a81548160ff02191690831515021790555061014c6040518060400160405280600c81526020017f45524331343030546f6b656e0000000000000000000000000000000000000000815250306106ae60201b60201c565b6101916040518060400160405280600a81526020017f4552433230546f6b656e00000000000000000000000000000000000000000000815250306106ae60201b60201c565b6101d56040518060400160405280600c81526020017f45524331343030546f6b656e000000000000000000000000000000000000000081525061075b60201b60201c565b6102196040518060400160405280600a81526020017f4552433230546f6b656e0000000000000000000000000000000000000000000081525061075b60201b60201c565b50505050505f73ffffffffffffffffffffffffffffffffffffffff168473ffffffffffffffffffffffffffffffffffffffff16146103ac578373ffffffffffffffffffffffffffffffffffffffff1663118fa5db30836001806001808d6040518863ffffffff1660e01b81526004016102989796959493929190611916565b5f604051808303815f87803b1580156102af575f80fd5b505af11580156102c1573d5f803e3d5ffd5b505050505f73ffffffffffffffffffffffffffffffffffffffff168273ffffffffffffffffffffffffffffffffffffffff1614610361578373ffffffffffffffffffffffffffffffffffffffff1663c69664bb30846040518363ffffffff1660e01b815260040161033392919061198a565b5f604051808303815f87803b15801561034a575f80fd5b505af115801561035c573d5f803e3d5ffd5b505050505b6103ab846040518060400160405280601681526020017f45524331343030546f6b656e7356616c696461746f720000000000000000000081525060018060016107ac60201b60201c565b5b5f73ffffffffffffffffffffffffffffffffffffffff168373ffffffffffffffffffffffffffffffffffffffff16146103ef576103ee8361091860201b60201c565b5b505050505050505050611dae565b5f33905090565b5f805f9054906101000a900473ffffffffffffffffffffffffffffffffffffffff169050815f806101000a81548173ffffffffffffffffffffffffffffffffffffffff021916908373ffffffffffffffffffffffffffffffffffffffff1602179055508173ffffffffffffffffffffffffffffffffffffffff168173ffffffffffffffffffffffffffffffffffffffff167f8be0079c531659141344cd1fd0a4f28419497f9722a3daafe3b4186f6b6457e060405160405180910390a35050565b6104d9816002610a2060201b90919060201c565b8073ffffffffffffffffffffffffffffffffffffffff167f6ae172837ea30b801fbfcdd4108aa1d5bf8ff775444fd70256b44e6bf3dfc3f660405160405180910390a250565b5f8061052f610aca60201b60201c565b90505f610540610ad660201b60201c565b90508060035f8481526020019081526020015f2081905550809250505090565b5f5b60168054905081101561060b575f60175f60168481548110610587576105866119b1565b5b905f5260205f20015f9054906101000a900473ffffffffffffffffffffffffffffffffffffffff1673ffffffffffffffffffffffffffffffffffffffff1673ffffffffffffffffffffffffffffffffffffffff1681526020019081526020015f205f6101000a81548160ff0219169083151502179055508080600101915050610562565b505f5b815181101561069357600160175f84848151811061062f5761062e6119b1565b5b602002602001015173ffffffffffffffffffffffffffffffffffffffff1673ffffffffffffffffffffffffffffffffffffffff1681526020019081526020015f205f6101000a81548160ff021916908315150217905550808060010191505061060e565b5080601690805190602001906106aa929190610f4b565b5050565b5f826040516020016106c09190611a18565b604051602081830303815290604052805190602001209050731820a4b7618bde71dce8cdc73aab6c95905fad2473ffffffffffffffffffffffffffffffffffffffff166329965a1d3083856040518463ffffffff1660e01b815260040161072993929190611a3d565b5f604051808303815f87803b158015610740575f80fd5b505af1158015610752573d5f803e3d5ffd5b50505050505050565b6001805f836040516020016107709190611a18565b6040516020818303038152906040528051906020012081526020019081526020015f205f6101000a81548160ff02191690831515021790555050565b5f6107bd3086610b6a60201b60201c565b90505f73ffffffffffffffffffffffffffffffffffffffff168173ffffffffffffffffffffffffffffffffffffffff16141580156107f85750835b156108765761080c81610c2c60201b60201c565b156108215761082081610c4860201b60201c565b5b5f60175f8373ffffffffffffffffffffffffffffffffffffffff1673ffffffffffffffffffffffffffffffffffffffff1681526020019081526020015f205f6101000a81548160ff0219169083151502179055505b61088685876106ae60201b60201c565b82801561089f575061089d86610c2c60201b60201c565b155b156108b4576108b3866104c560201b60201c565b5b811561091057600160175f8873ffffffffffffffffffffffffffffffffffffffff1673ffffffffffffffffffffffffffffffffffffffff1681526020019081526020015f205f6101000a81548160ff0219169083151502179055505b505050505050565b6109266103fd60201b60201c565b73ffffffffffffffffffffffffffffffffffffffff1661094a610ca260201b60201c565b73ffffffffffffffffffffffffffffffffffffffff16146109a0576040517f08c379a000000000000000000000000000000000000000000000000000000000815260040161099790611acc565b60405180910390fd5b5f73ffffffffffffffffffffffffffffffffffffffff168173ffffffffffffffffffffffffffffffffffffffff1603610a0e576040517f08c379a0000000000000000000000000000000000000000000000000000000008152600401610a0590611b5a565b60405180910390fd5b610a1d8161040460201b60201c565b50565b610a308282610cc960201b60201c565b15610a70576040517f08c379a0000000000000000000000000000000000000000000000000000000008152600401610a6790611bc2565b60405180910390fd5b6001825f015f8373ffffffffffffffffffffffffffffffffffffffff1673ffffffffffffffffffffffffffffffffffffffff1681526020019081526020015f205f6101000a81548160ff0219169083151502179055505050565b5f804690508091505090565b5f80610ae6610aca60201b60201c565b90505f7f8b73c3c69bb8fe3d512ecc4cf759cc79239f7b179b0ffacaa9a75d522b39400f610b18610d8b60201b60201c565b80519060200120610b2d610e1b60201b60201c565b805190602001208430604051602001610b4a959493929190611bef565b604051602081830303815290604052805190602001209050809250505090565b5f8082604051602001610b7d9190611a18565b604051602081830303815290604052805190602001209050731820a4b7618bde71dce8cdc73aab6c95905fad2473ffffffffffffffffffffffffffffffffffffffff1663aabbb8ca85836040518363ffffffff1660e01b8152600401610be4929190611c40565b602060405180830381865afa158015610bff573d5f803e3d5ffd5b505050506040513d601f19601f82011682018060405250810190610c239190611c67565b91505092915050565b5f610c41826002610cc960201b90919060201c565b9050919050565b610c5c816002610e5860201b90919060201c565b8073ffffffffffffffffffffffffffffffffffffffff167fe94479a9f7e1952cc78f2d6baab678adc1b772d936c6583def489e524cb6669260405160405180910390a250565b5f805f9054906101000a900473ffffffffffffffffffffffffffffffffffffffff16905090565b5f8073ffffffffffffffffffffffffffffffffffffffff168273ffffffffffffffffffffffffffffffffffffffff1603610d38576040517f08c379a0000000000000000000000000000000000000000000000000000000008152600401610d2f90611d02565b60405180910390fd5b825f015f8373ffffffffffffffffffffffffffffffffffffffff1673ffffffffffffffffffffffffffffffffffffffff1681526020019081526020015f205f9054906101000a900460ff16905092915050565b606060048054610d9a90611527565b80601f0160208091040260200160405190810160405280929190818152602001828054610dc690611527565b8015610e115780601f10610de857610100808354040283529160200191610e11565b820191905f5260205f20905b815481529060010190602001808311610df457829003601f168201915b5050505050905090565b60606040518060400160405280600181526020017f3100000000000000000000000000000000000000000000000000000000000000815250905090565b610e688282610cc960201b60201c565b610ea7576040517f08c379a0000000000000000000000000000000000000000000000000000000008152600401610e9e90611d90565b60405180910390fd5b5f825f015f8373ffffffffffffffffffffffffffffffffffffffff1673ffffffffffffffffffffffffffffffffffffffff1681526020019081526020015f205f6101000a81548160ff0219169083151502179055505050565b828054828255905f5260205f20908101928215610f3a579160200282015b82811115610f39578251825591602001919060010190610f1e565b5b509050610f479190610fd2565b5090565b828054828255905f5260205f20908101928215610fc1579160200282015b82811115610fc0578251825f6101000a81548173ffffffffffffffffffffffffffffffffffffffff021916908373ffffffffffffffffffffffffffffffffffffffff16021790555091602001919060010190610f69565b5b509050610fce9190610fed565b5090565b5b80821115610fe9575f815f905550600101610fd3565b5090565b5b80821115611004575f815f905550600101610fee565b5090565b5f604051905090565b5f80fd5b5f80fd5b5f80fd5b5f80fd5b5f601f19601f8301169050919050565b7f4e487b71000000000000000000000000000000000000000000000000000000005f52604160045260245ffd5b61106782611021565b810181811067ffffffffffffffff8211171561108657611085611031565b5b80604052505050565b5f611098611008565b90506110a4828261105e565b919050565b5f67ffffffffffffffff8211156110c3576110c2611031565b5b6110cc82611021565b9050602081019050919050565b8281835e5f83830152505050565b5f6110f96110f4846110a9565b61108f565b9050828152602081018484840111156111155761111461101d565b5b6111208482856110d9565b509392505050565b5f82601f83011261113c5761113b611019565b5b815161114c8482602086016110e7565b91505092915050565b5f819050919050565b61116781611155565b8114611171575f80fd5b50565b5f815190506111828161115e565b92915050565b5f67ffffffffffffffff8211156111a2576111a1611031565b5b602082029050602081019050919050565b5f80fd5b5f73ffffffffffffffffffffffffffffffffffffffff82169050919050565b5f6111e0826111b7565b9050919050565b6111f0816111d6565b81146111fa575f80fd5b50565b5f8151905061120b816111e7565b92915050565b5f61122361121e84611188565b61108f565b90508083825260208201905060208402830185811115611246576112456111b3565b5b835b8181101561126f578061125b88826111fd565b845260208401935050602081019050611248565b5050509392505050565b5f82601f83011261128d5761128c611019565b5b815161129d848260208601611211565b91505092915050565b5f67ffffffffffffffff8211156112c0576112bf611031565b5b602082029050602081019050919050565b5f819050919050565b6112e3816112d1565b81146112ed575f80fd5b50565b5f815190506112fe816112da565b92915050565b5f611316611311846112a6565b61108f565b90508083825260208201905060208402830185811115611339576113386111b3565b5b835b81811015611362578061134e88826112f0565b84526020840193505060208101905061133b565b5050509392505050565b5f82601f8301126113805761137f611019565b5b8151611390848260208601611304565b91505092915050565b600381106113a5575f80fd5b50565b5f815190506113b681611399565b92915050565b5f805f805f805f805f6101208a8c0312156113da576113d9611011565b5b5f8a015167ffffffffffffffff8111156113f7576113f6611015565b5b6114038c828d01611128565b99505060208a015167ffffffffffffffff81111561142457611423611015565b5b6114308c828d01611128565b98505060406114418c828d01611174565b97505060608a015167ffffffffffffffff81111561146257611461611015565b5b61146e8c828d01611279565b96505060808a015167ffffffffffffffff81111561148f5761148e611015565b5b61149b8c828d0161136c565b95505060a06114ac8c828d016111fd565b94505060c06114bd8c828d016111fd565b93505060e06114ce8c828d016111fd565b9250506101006114e08c828d016113a8565b9150509295985092959850929598565b5f81519050919050565b7f4e487b71000000000000000000000000000000000000000000000000000000005f52602260045260245ffd5b5f600282049050600182168061153e57607f821691505b602082108103611551576115506114fa565b5b50919050565b5f819050815f5260205f209050919050565b5f6020601f8301049050919050565b5f82821b905092915050565b5f600883026115b37fffffffffffffffffffffffffffffffffffffffffffffffffffffffffffffffff82611578565b6115bd8683611578565b95508019841693508086168417925050509392505050565b5f819050919050565b5f6115f86115f36115ee84611155565b6115d5565b611155565b9050919050565b5f819050919050565b611611836115de565b61162561161d826115ff565b848454611584565b825550505050565b5f90565b61163961162d565b611644818484611608565b505050565b5b818110156116675761165c5f82611631565b60018101905061164a565b5050565b601f8211156116ac5761167d81611557565b61168684611569565b81016020851015611695578190505b6116a96116a185611569565b830182611649565b50505b505050565b5f82821c905092915050565b5f6116cc5f19846008026116b1565b1980831691505092915050565b5f6116e483836116bd565b9150826002028217905092915050565b6116fd826114f0565b67ffffffffffffffff81111561171657611715611031565b5b6117208254611527565b61172b82828561166b565b5f60209050601f83116001811461175c575f841561174a578287015190505b61175485826116d9565b8655506117bb565b601f19841661176a86611557565b5f5b828110156117915784890151825560018201915060208501945060208101905061176c565b868310156117ae57848901516117aa601f8916826116bd565b8355505b6001600288020188555050505b505050505050565b6117cc816111d6565b82525050565b7f4e487b71000000000000000000000000000000000000000000000000000000005f52602160045260245ffd5b600381106118105761180f6117d2565b5b50565b5f819050611820826117ff565b919050565b5f61182f82611813565b9050919050565b61183f81611825565b82525050565b5f8115159050919050565b61185981611845565b82525050565b5f81519050919050565b5f82825260208201905092915050565b5f819050602082019050919050565b611891816111d6565b82525050565b5f6118a28383611888565b60208301905092915050565b5f602082019050919050565b5f6118c48261185f565b6118ce8185611869565b93506118d983611879565b805f5b838110156119095781516118f08882611897565b97506118fb836118ae565b9250506001810190506118dc565b5085935050505092915050565b5f60e0820190506119295f83018a6117c3565b6119366020830189611836565b6119436040830188611850565b6119506060830187611850565b61195d6080830186611850565b61196a60a0830185611850565b81810360c083015261197c81846118ba565b905098975050505050505050565b5f60408201905061199d5f8301856117c3565b6119aa60208301846117c3565b9392505050565b7f4e487b71000000000000000000000000000000000000000000000000000000005f52603260045260245ffd5b5f81905092915050565b5f6119f2826114f0565b6119fc81856119de565b9350611a0c8185602086016110d9565b80840191505092915050565b5f611a2382846119e8565b915081905092915050565b611a37816112d1565b82525050565b5f606082019050611a505f8301866117c3565b611a5d6020830185611a2e565b611a6a60408301846117c3565b949350505050565b5f82825260208201905092915050565b7f4f776e61626c653a2063616c6c6572206973206e6f7420746865206f776e65725f82015250565b5f611ab6602083611a72565b9150611ac182611a82565b602082019050919050565b5f6020820190508181035f830152611ae381611aaa565b9050919050565b7f4f776e61626c653a206e6577206f776e657220697320746865207a65726f20615f8201527f6464726573730000000000000000000000000000000000000000000000000000602082015250565b5f611b44602683611a72565b9150611b4f82611aea565b604082019050919050565b5f6020820190508181035f830152611b7181611b38565b9050919050565b7f526f6c65733a206163636f756e7420616c72656164792068617320726f6c65005f82015250565b5f611bac601f83611a72565b9150611bb782611b78565b602082019050919050565b5f6020820190508181035f830152611bd981611ba0565b9050919050565b611be981611155565b82525050565b5f60a082019050611c025f830188611a2e565b611c0f6020830187611a2e565b611c1c6040830186611a2e565b611c296060830185611be0565b611c3660808301846117c3565b9695505050505050565b5f604082019050611c535f8301856117c3565b611c606020830184611a2e565b9392505050565b5f60208284031215611c7c57611c7b611011565b5b5f611c89848285016111fd565b91505092915050565b7f526f6c65733a206163636f756e7420697320746865207a65726f2061646472655f8201527f7373000000000000000000000000000000000000000000000000000000000000602082015250565b5f611cec602283611a72565b9150611cf782611c92565b604082019050919050565b5f6020820190508181035f830152611d1981611ce0565b9050919050565b7f526f6c65733a206163636f756e7420646f6573206e6f74206861766520726f6c5f8201527f6500000000000000000000000000000000000000000000000000000000000000602082015250565b5f611d7a602183611a72565b9150611d8582611d20565b604082019050919050565b5f6020820190508181035f830152611da781611d6e565b9050919050565b6187c980611dbb5f395ff3fe608060405234801561000f575f80fd5b50600436106103b8575f3560e01c80638c0dee9c116101f2578063aa271e1a11610118578063e77c646d116100ab578063f2fde38b1161007a578063f2fde38b14610b6c578063f3d490db14610b88578063f698da2514610bb8578063fad8b32a14610bd6576103b8565b8063e77c646d14610afc578063ea74838a14610b18578063ec9a6e8714610b34578063ee532f3114610b50576103b8565b8063bcfdc0cf116100e7578063bcfdc0cf14610a88578063c350184814610aa6578063ca281fd914610ac2578063dd62ed3e14610acc576103b8565b8063aa271e1a146109da578063b10d6b4114610a0a578063b6363cf214610a3c578063bb3acde914610a6c576103b8565b8063983b2d5611610190578063a26734dc1161015f578063a26734dc14610940578063a6f4f10514610970578063a8082cb01461098c578063a9059cbb146109aa576103b8565b8063983b2d56146108e057806398650275146108fc57806398ddcec7146109065780639fa5f50b14610922576103b8565b8063933964c7116101cc578063933964c71461086e578063959b8c3f1461088a57806395d89b41146108a65780639675193c146108c4576103b8565b80638c0dee9c146107ee5780638da5cb5b1461081e578063921271261461083c576103b8565b806330e82803116102e25780636c30d17011610275578063740ab8f411610244578063740ab8f4146107525780637cc0c3a714610782578063861ed3ea146107a0578063895d7386146107d0576103b8565b80636c30d170146106de5780636d77cad6146106e857806370a0823114610718578063715018a614610748576103b8565b806362eb0068116102b157806362eb00681461065657806367c849191461067257806369598efe1461068e5780636c23c7b0146106ac576103b8565b806330e82803146105cc578063313ce567146105fc5780634c783bf51461061a578063556f0dc714610638576103b8565b806317ec83ca1161035a578063249cb3fa11610329578063249cb3fa146105465780632535f762146105765780632f1cae85146105925780633092afd5146105b0576103b8565b806317ec83ca146104aa57806318160ddd146104da5780631d43e1c0146104f857806323b872dd14610516576103b8565b8063103ef9e111610396578063103ef9e11461042657806314d1e62f14610442578063168ecec51461047257806316e1aed41461048e576103b8565b8063010648ca146103bc57806306fdde03146103d8578063095ea7b3146103f6575b5f80fd5b6103d660048036038101906103d19190616a14565b610bf2565b005b6103e0610d7a565b6040516103ed9190616af5565b60405180910390f35b610410600480360381019061040b9190616ba2565b610e0a565b60405161041d9190616bfa565b60405180910390f35b610440600480360381019061043b9190616c13565b610f65565b005b61045c60048036038101906104579190616c51565b611063565b6040516104699190616bfa565b60405180910390f35b61048c60048036038101906104879190616c13565b6111cf565b005b6104a860048036038101906104a39190616cf6565b6112cc565b005b6104c460048036038101906104bf9190616d53565b611397565b6040516104d19190616db2565b60405180910390f35b6104e2611429565b6040516104ef9190616db2565b60405180910390f35b610500611432565b60405161050d9190616af5565b60405180910390f35b610530600480360381019061052b9190616dcb565b61146f565b60405161053d9190616bfa565b60405180910390f35b610560600480360381019061055b9190616c13565b61176b565b60405161056d9190616e2a565b60405180910390f35b610590600480360381019061058b9190616e98565b6117c5565b005b61059a61181b565b6040516105a79190616bfa565b60405180910390f35b6105ca60048036038101906105c59190616f09565b611831565b005b6105e660048036038101906105e19190616c13565b611892565b6040516105f39190616db2565b60405180910390f35b6106046118e8565b6040516106119190616f4f565b60405180910390f35b6106226118f0565b60405161062f9190616bfa565b60405180910390f35b610640611906565b60405161064d9190616db2565b60405180910390f35b610670600480360381019061066b9190616f68565b61190f565b005b61068c60048036038101906106879190616fd9565b611974565b005b610696611a6f565b6040516106a39190617114565b60405180910390f35b6106c660048036038101906106c19190617134565b611ac5565b6040516106d593929190617238565b60405180910390f35b6106e6611bc5565b005b61070260048036038101906106fd9190616d53565b611c5d565b60405161070f9190616bfa565b60405180910390f35b610732600480360381019061072d9190616f09565b611c72565b60405161073f9190616db2565b60405180910390f35b610750611cb8565b005b61076c60048036038101906107679190616f09565b611d3f565b6040516107799190617114565b60405180910390f35b61078a611dd2565b6040516107979190617324565b60405180910390f35b6107ba60048036038101906107b59190617344565b611e5d565b6040516107c79190617324565b60405180910390f35b6107d8611ef9565b6040516107e59190616af5565b60405180910390f35b61080860048036038101906108039190617134565b611f89565b6040516108159190616e2a565b60405180910390f35b61082661234e565b604051610833919061737e565b60405180910390f35b61085660048036038101906108519190616fd9565b612375565b60405161086593929190617238565b60405180910390f35b610888600480360381019061088391906173c1565b61243d565b005b6108a4600480360381019061089f9190616f09565b6124c7565b005b6108ae6125eb565b6040516108bb9190616af5565b60405180910390f35b6108de60048036038101906108d99190616e98565b61267b565b005b6108fa60048036038101906108f59190616f09565b6129a5565b005b610904612a06565b005b610920600480360381019061091b9190616fd9565b612a11565b005b61092a612d98565b6040516109379190617114565b60405180910390f35b61095a60048036038101906109559190617344565b612dee565b6040516109679190616db2565b60405180910390f35b61098a600480360381019061098591906173ff565b612e08565b005b610994612edc565b6040516109a19190616e2a565b60405180910390f35b6109c460048036038101906109bf9190616ba2565b612f5e565b6040516109d19190616bfa565b60405180910390f35b6109f460048036038101906109ef9190616f09565b612f84565b604051610a019190616bfa565b60405180910390f35b610a246004803603810190610a1f9190617344565b612fa0565b604051610a3393929190617495565b60405180910390f35b610a566004803603810190610a5191906174d1565b6130a2565b604051610a639190616bfa565b60405180910390f35b610a866004803603810190610a819190616e98565b6130b5565b005b610a90613212565b604051610a9d9190617114565b60405180910390f35b610ac06004803603810190610abb9190617344565b613268565b005b610aca613599565b005b610ae66004803603810190610ae191906174d1565b613631565b604051610af39190616db2565b60405180910390f35b610b166004803603810190610b11919061750f565b6136b3565b005b610b326004803603810190610b2d919061756c565b613707565b005b610b4e6004803603810190610b49919061760c565b6137d0565b005b610b6a6004803603810190610b659190617657565b613862565b005b610b866004803603810190610b819190616f09565b613b8e565b005b610ba26004803603810190610b9d9190616fd9565b613c84565b604051610baf9190616e2a565b60405180910390f35b610bc0613cf0565b604051610bcd9190616e2a565b60405180910390f35b610bf06004803603810190610beb9190616f09565b613cfe565b005b60175f3373ffffffffffffffffffffffffffffffffffffffff1673ffffffffffffffffffffffffffffffffffffffff1681526020019081526020015f205f9054906101000a900460ff16610c44575f80fd5b604051806060016040528084848080601f0160208091040260200160405190810160405280939291908181526020018383808284375f81840152601f19601f82011690508083019250505050505050815260200182815260200142815250600b5f8681526020019081526020015f205f820151815f019081610cc69190617902565b5060208201518160010155604082015181600201559050505f600c5f8381526020019081526020015f205403610d3857600d81908060018154018082558091505060019003905f5260205f20015f9091909190915055600d80549050600c5f8381526020019081526020015f20819055505b837fb4c22d60cd550a815744f04e3ff5278bf19684565ee00e2b084041b6024bd6f6848484604051610d6c93929190617a0b565b60405180910390a250505050565b606060048054610d8990617735565b80601f0160208091040260200160405190810160405280929190818152602001828054610db590617735565b8015610e005780601f10610dd757610100808354040283529160200191610e00565b820191905f5260205f20905b815481529060010190602001808311610de357829003601f168201915b5050505050905090565b5f8073ffffffffffffffffffffffffffffffffffffffff168373ffffffffffffffffffffffffffffffffffffffff1603610e79576040517f08c379a0000000000000000000000000000000000000000000000000000000008152600401610e7090617a85565b60405180910390fd5b81600a5f3373ffffffffffffffffffffffffffffffffffffffff1673ffffffffffffffffffffffffffffffffffffffff1681526020019081526020015f205f8573ffffffffffffffffffffffffffffffffffffffff1673ffffffffffffffffffffffffffffffffffffffff1681526020019081526020015f20819055508273ffffffffffffffffffffffffffffffffffffffff163373ffffffffffffffffffffffffffffffffffffffff167f8c5be1e5ebec7d5bd14f71427d1e84f3dd0314c0f7b2291e5b200ac8c7c3b92584604051610f539190616db2565b60405180910390a36001905092915050565b600160195f3373ffffffffffffffffffffffffffffffffffffffff1673ffffffffffffffffffffffffffffffffffffffff1681526020019081526020015f205f8481526020019081526020015f205f8373ffffffffffffffffffffffffffffffffffffffff1673ffffffffffffffffffffffffffffffffffffffff1681526020019081526020015f205f6101000a81548160ff0219169083151502179055503373ffffffffffffffffffffffffffffffffffffffff168173ffffffffffffffffffffffffffffffffffffffff16837f3646a897c70797ecc134b0adc32f471b07bf1d6f451133b0384badab531e3fd660405160405180910390a45050565b5f8073ffffffffffffffffffffffffffffffffffffffff168373ffffffffffffffffffffffffffffffffffffffff16036110d2576040517f08c379a00000000000000000000000000000000000000000000000000000000081526004016110c990617a85565b60405180910390fd5b8160185f8681526020019081526020015f205f3373ffffffffffffffffffffffffffffffffffffffff1673ffffffffffffffffffffffffffffffffffffffff1681526020019081526020015f205f8573ffffffffffffffffffffffffffffffffffffffff1673ffffffffffffffffffffffffffffffffffffffff1681526020019081526020015f20819055508273ffffffffffffffffffffffffffffffffffffffff163373ffffffffffffffffffffffffffffffffffffffff16857ff061499aa77c2f6f5e25e34955a06623705344a88256cc861a121ec0bce5cfec856040516111bc9190616db2565b60405180910390a4600190509392505050565b5f60195f3373ffffffffffffffffffffffffffffffffffffffff1673ffffffffffffffffffffffffffffffffffffffff1681526020019081526020015f205f8481526020019081526020015f205f8373ffffffffffffffffffffffffffffffffffffffff1673ffffffffffffffffffffffffffffffffffffffff1681526020019081526020015f205f6101000a81548160ff0219169083151502179055503373ffffffffffffffffffffffffffffffffffffffff168173ffffffffffffffffffffffffffffffffffffffff16837f3b287c4f1bab4df949b33bceacef984f544dc5d5479930d00e4ee8c9d8dd96f260405160405180910390a45050565b6112d4613e21565b73ffffffffffffffffffffffffffffffffffffffff166112f261234e565b73ffffffffffffffffffffffffffffffffffffffff1614611348576040517f08c379a000000000000000000000000000000000000000000000000000000000815260040161133f90617aed565b60405180910390fd5b611392838383808060200260200160405190810160405280939291908181526020018383602002808284375f81840152601f19601f82011690508083019250505050505050613e28565b505050565b5f60185f8581526020019081526020015f205f8473ffffffffffffffffffffffffffffffffffffffff1673ffffffffffffffffffffffffffffffffffffffff1681526020019081526020015f205f8373ffffffffffffffffffffffffffffffffffffffff1673ffffffffffffffffffffffffffffffffffffffff1681526020019081526020015f205490509392505050565b5f600754905090565b60606040518060400160405280600181526020017f3100000000000000000000000000000000000000000000000000000000000000815250905090565b5f61147a3385613fc2565b806114fd5750600a5f8573ffffffffffffffffffffffffffffffffffffffff1673ffffffffffffffffffffffffffffffffffffffff1681526020019081526020015f205f3373ffffffffffffffffffffffffffffffffffffffff1673ffffffffffffffffffffffffffffffffffffffff1681526020019081526020015f20548211155b61153c576040517f08c379a000000000000000000000000000000000000000000000000000000000815260040161153390617b55565b60405180910390fd5b81600a5f8673ffffffffffffffffffffffffffffffffffffffff1673ffffffffffffffffffffffffffffffffffffffff1681526020019081526020015f205f3373ffffffffffffffffffffffffffffffffffffffff1673ffffffffffffffffffffffffffffffffffffffff1681526020019081526020015f2054106116c75761164682600a5f8773ffffffffffffffffffffffffffffffffffffffff1673ffffffffffffffffffffffffffffffffffffffff1681526020019081526020015f205f3373ffffffffffffffffffffffffffffffffffffffff1673ffffffffffffffffffffffffffffffffffffffff1681526020019081526020015f20546140ef90919063ffffffff16565b600a5f8673ffffffffffffffffffffffffffffffffffffffff1673ffffffffffffffffffffffffffffffffffffffff1681526020019081526020015f205f3373ffffffffffffffffffffffffffffffffffffffff1673ffffffffffffffffffffffffffffffffffffffff1681526020019081526020015f2081905550611745565b5f600a5f8673ffffffffffffffffffffffffffffffffffffffff1673ffffffffffffffffffffffffffffffffffffffff1681526020019081526020015f205f3373ffffffffffffffffffffffffffffffffffffffff1673ffffffffffffffffffffffffffffffffffffffff1681526020019081526020015f20819055505b6117603385858560405180602001604052805f815250614104565b600190509392505050565b5f60015f8481526020019081526020015f205f9054906101000a900460ff16156117bb5760405160200161179e90617bc7565b6040516020818303038152906040528051906020012090506117bf565b5f90505b92915050565b6118153333868686868080601f0160208091040260200160405190810160405280939291908181526020018383808284375f81840152601f19601f82011690508083019250505050505050614104565b50505050565b5f600860029054906101000a900460ff16905090565b61183a33612f84565b8061187e5750611848613e21565b73ffffffffffffffffffffffffffffffffffffffff1661186661234e565b73ffffffffffffffffffffffffffffffffffffffff16145b611886575f80fd5b61188f816142bf565b50565b5f60135f8373ffffffffffffffffffffffffffffffffffffffff1673ffffffffffffffffffffffffffffffffffffffff1681526020019081526020015f205f8481526020019081526020015f2054905092915050565b5f6012905090565b5f600860019054906101000a900460ff16905090565b5f600654905090565b61196e8433338686868080601f0160208091040260200160405190810160405280939291908181526020018383808284375f81840152601f19601f8201169050808301925050505050505060405180602001604052805f815250614319565b50505050565b61197d33612f84565b806119c1575061198b613e21565b73ffffffffffffffffffffffffffffffffffffffff166119a961234e565b73ffffffffffffffffffffffffffffffffffffffff16145b6119c9575f80fd5b600860029054906101000a900460ff16611a18576040517f08c379a0000000000000000000000000000000000000000000000000000000008152600401611a0f90617c25565b60405180910390fd5b611a688533868686868080601f0160208091040260200160405190810160405280939291908181526020018383808284375f81840152601f19601f8201169050808301925050505050505061444d565b5050505050565b6060600e805480602002602001604051908101604052809291908181526020018280548015611abb57602002820191905f5260205f20905b815481526020019060010190808311611aa7575b5050505050905090565b5f805f611bb1611b1f638c0dee9c60e01b5f368080601f0160208091040260200160405190810160405280939291908181526020018383808284375f81840152601f19601f8201169050808301925050505050505061450d565b8c338d8d8d8d8d8080601f0160208091040260200160405190810160405280939291908181526020018383808284375f81840152601f19601f820116905080830192505050505050508c8c8080601f0160208091040260200160405190810160405280939291908181526020018383808284375f81840152601f19601f82011690508083019250505050505050614657565b925092509250985098509895505050505050565b611bcd613e21565b73ffffffffffffffffffffffffffffffffffffffff16611beb61234e565b73ffffffffffffffffffffffffffffffffffffffff1614611c41576040517f08c379a0000000000000000000000000000000000000000000000000000000008152600401611c3890617aed565b60405180910390fd5b5f600860026101000a81548160ff021916908315150217905550565b5f611c6984848461477c565b90509392505050565b5f60095f8373ffffffffffffffffffffffffffffffffffffffff1673ffffffffffffffffffffffffffffffffffffffff1681526020019081526020015f20549050919050565b611cc0613e21565b73ffffffffffffffffffffffffffffffffffffffff16611cde61234e565b73ffffffffffffffffffffffffffffffffffffffff1614611d34576040517f08c379a0000000000000000000000000000000000000000000000000000000008152600401611d2b90617aed565b60405180910390fd5b611d3d5f6148a3565b565b606060115f8373ffffffffffffffffffffffffffffffffffffffff1673ffffffffffffffffffffffffffffffffffffffff1681526020019081526020015f20805480602002602001604051908101604052809291908181526020018280548015611dc657602002820191905f5260205f20905b815481526020019060010190808311611db2575b50505050509050919050565b60606016805480602002602001604051908101604052809291908181526020018280548015611e5357602002820191905f5260205f20905b815f9054906101000a900473ffffffffffffffffffffffffffffffffffffffff1673ffffffffffffffffffffffffffffffffffffffff1681526020019060010190808311611e0a575b5050505050905090565b6060601a5f8381526020019081526020015f20805480602002602001604051908101604052809291908181526020018280548015611eed57602002820191905f5260205f20905b815f9054906101000a900473ffffffffffffffffffffffffffffffffffffffff1673ffffffffffffffffffffffffffffffffffffffff1681526020019060010190808311611ea4575b50505050509050919050565b606060048054611f0890617735565b80601f0160208091040260200160405190810160405280929190818152602001828054611f3490617735565b8015611f7f5780601f10611f5657610100808354040283529160200191611f7f565b820191905f5260205f20905b815481529060010190602001808311611f6257829003601f168201915b5050505050905090565b5f611f9589338a61477c565b80612027575060185f8a81526020019081526020015f205f8973ffffffffffffffffffffffffffffffffffffffff1673ffffffffffffffffffffffffffffffffffffffff1681526020019081526020015f205f3373ffffffffffffffffffffffffffffffffffffffff1673ffffffffffffffffffffffffffffffffffffffff1681526020019081526020015f20548611155b612066576040517f08c379a000000000000000000000000000000000000000000000000000000000815260040161205d90617b55565b60405180910390fd5b8560185f8b81526020019081526020015f205f8a73ffffffffffffffffffffffffffffffffffffffff1673ffffffffffffffffffffffffffffffffffffffff1681526020019081526020015f205f3373ffffffffffffffffffffffffffffffffffffffff1673ffffffffffffffffffffffffffffffffffffffff1681526020019081526020015f20541061221e5761218e8660185f8c81526020019081526020015f205f8b73ffffffffffffffffffffffffffffffffffffffff1673ffffffffffffffffffffffffffffffffffffffff1681526020019081526020015f205f3373ffffffffffffffffffffffffffffffffffffffff1673ffffffffffffffffffffffffffffffffffffffff1681526020019081526020015f20546140ef90919063ffffffff16565b60185f8b81526020019081526020015f205f8a73ffffffffffffffffffffffffffffffffffffffff1673ffffffffffffffffffffffffffffffffffffffff1681526020019081526020015f205f3373ffffffffffffffffffffffffffffffffffffffff1673ffffffffffffffffffffffffffffffffffffffff1681526020019081526020015f20819055506122ab565b5f60185f8b81526020019081526020015f205f8a73ffffffffffffffffffffffffffffffffffffffff1673ffffffffffffffffffffffffffffffffffffffff1681526020019081526020015f205f3373ffffffffffffffffffffffffffffffffffffffff1673ffffffffffffffffffffffffffffffffffffffff1681526020019081526020015f20819055505b61234089338a8a8a8a8a8080601f0160208091040260200160405190810160405280939291908181526020018383808284375f81840152601f19601f8201169050808301925050505050505089898080601f0160208091040260200160405190810160405280939291908181526020018383808284375f81840152601f19601f82011690508083019250505050505050614964565b905098975050505050505050565b5f805f9054906101000a900473ffffffffffffffffffffffffffffffffffffffff16905090565b5f805f61242c6123cf63f3d490db60e01b5f368080601f0160208091040260200160405190810160405280939291908181526020018383808284375f81840152601f19601f8201169050808301925050505050505061450d565b8933338b8b8b8b8080601f0160208091040260200160405190810160405280939291908181526020018383808284375f81840152601f19601f8201169050808301925050505050505060405180602001604052805f815250614657565b925092509250955095509592505050565b612445613e21565b73ffffffffffffffffffffffffffffffffffffffff1661246361234e565b73ffffffffffffffffffffffffffffffffffffffff16146124b9576040517f08c379a00000000000000000000000000000000000000000000000000000000081526004016124b090617aed565b60405180910390fd5b6124c38282614b27565b5050565b3373ffffffffffffffffffffffffffffffffffffffff168173ffffffffffffffffffffffffffffffffffffffff16036124fe575f80fd5b600160155f8373ffffffffffffffffffffffffffffffffffffffff1673ffffffffffffffffffffffffffffffffffffffff1681526020019081526020015f205f3373ffffffffffffffffffffffffffffffffffffffff1673ffffffffffffffffffffffffffffffffffffffff1681526020019081526020015f205f6101000a81548160ff0219169083151502179055503373ffffffffffffffffffffffffffffffffffffffff168173ffffffffffffffffffffffffffffffffffffffff167ff4caeb2d6ca8932a215a353d0703c326ec2d81fc68170f320eb2ab49e9df61f960405160405180910390a350565b6060600580546125fa90617735565b80601f016020809104026020016040519081016040528092919081815260200182805461262690617735565b80156126715780601f1061264857610100808354040283529160200191612671565b820191905f5260205f20905b81548152906001019060200180831161265457829003601f168201915b5050505050905090565b6126853385613fc2565b806127085750600a5f8573ffffffffffffffffffffffffffffffffffffffff1673ffffffffffffffffffffffffffffffffffffffff1681526020019081526020015f205f3373ffffffffffffffffffffffffffffffffffffffff1673ffffffffffffffffffffffffffffffffffffffff1681526020019081526020015f20548311155b612747576040517f08c379a000000000000000000000000000000000000000000000000000000000815260040161273e90617b55565b60405180910390fd5b82600a5f8673ffffffffffffffffffffffffffffffffffffffff1673ffffffffffffffffffffffffffffffffffffffff1681526020019081526020015f205f3373ffffffffffffffffffffffffffffffffffffffff1673ffffffffffffffffffffffffffffffffffffffff1681526020019081526020015f2054106128d25761285183600a5f8773ffffffffffffffffffffffffffffffffffffffff1673ffffffffffffffffffffffffffffffffffffffff1681526020019081526020015f205f3373ffffffffffffffffffffffffffffffffffffffff1673ffffffffffffffffffffffffffffffffffffffff1681526020019081526020015f20546140ef90919063ffffffff16565b600a5f8673ffffffffffffffffffffffffffffffffffffffff1673ffffffffffffffffffffffffffffffffffffffff1681526020019081526020015f205f3373ffffffffffffffffffffffffffffffffffffffff1673ffffffffffffffffffffffffffffffffffffffff1681526020019081526020015f2081905550612950565b5f600a5f8673ffffffffffffffffffffffffffffffffffffffff1673ffffffffffffffffffffffffffffffffffffffff1681526020019081526020015f205f3373ffffffffffffffffffffffffffffffffffffffff1673ffffffffffffffffffffffffffffffffffffffff1681526020019081526020015f20819055505b61299f33858585858080601f0160208091040260200160405190810160405280939291908181526020018383808284375f81840152601f19601f82011690508083019250505050505050614bca565b50505050565b6129ae33612f84565b806129f257506129bc613e21565b73ffffffffffffffffffffffffffffffffffffffff166129da61234e565b73ffffffffffffffffffffffffffffffffffffffff16145b6129fa575f80fd5b612a0381614d78565b50565b612a0f336142bf565b565b612a1c85338661477c565b80612aae575060185f8681526020019081526020015f205f8573ffffffffffffffffffffffffffffffffffffffff1673ffffffffffffffffffffffffffffffffffffffff1681526020019081526020015f205f3373ffffffffffffffffffffffffffffffffffffffff1673ffffffffffffffffffffffffffffffffffffffff1681526020019081526020015f20548311155b612aed576040517f08c379a0000000000000000000000000000000000000000000000000000000008152600401612ae490617c8d565b60405180910390fd5b8260185f8781526020019081526020015f205f8673ffffffffffffffffffffffffffffffffffffffff1673ffffffffffffffffffffffffffffffffffffffff1681526020019081526020015f205f3373ffffffffffffffffffffffffffffffffffffffff1673ffffffffffffffffffffffffffffffffffffffff1681526020019081526020015f205410612ca557612c158360185f8881526020019081526020015f205f8773ffffffffffffffffffffffffffffffffffffffff1673ffffffffffffffffffffffffffffffffffffffff1681526020019081526020015f205f3373ffffffffffffffffffffffffffffffffffffffff1673ffffffffffffffffffffffffffffffffffffffff1681526020019081526020015f20546140ef90919063ffffffff16565b60185f8781526020019081526020015f205f8673ffffffffffffffffffffffffffffffffffffffff1673ffffffffffffffffffffffffffffffffffffffff1681526020019081526020015f205f3373ffffffffffffffffffffffffffffffffffffffff1673ffffffffffffffffffffffffffffffffffffffff1681526020019081526020015f2081905550612d32565b5f60185f8781526020019081526020015f205f8673ffffffffffffffffffffffffffffffffffffffff1673ffffffffffffffffffffffffffffffffffffffff1681526020019081526020015f205f3373ffffffffffffffffffffffffffffffffffffffff1673ffffffffffffffffffffffffffffffffffffffff1681526020019081526020015f20819055505b612d918533868660405180602001604052805f81525087878080601f0160208091040260200160405190810160405280939291908181526020018383808284375f81840152601f19601f82011690508083019250505050505050614319565b5050505050565b6060600d805480602002602001604051908101604052809291908181526020018280548015612de457602002820191905f5260205f20905b815481526020019060010190808311612dd0575b5050505050905090565b5f60105f8381526020019081526020015f20549050919050565b612e10613e21565b73ffffffffffffffffffffffffffffffffffffffff16612e2e61234e565b73ffffffffffffffffffffffffffffffffffffffff1614612e84576040517f08c379a0000000000000000000000000000000000000000000000000000000008152600401612e7b90617aed565b60405180910390fd5b612ed48686868080601f0160208091040260200160405190810160405280939291908181526020018383808284375f81840152601f19601f82011690508083019250505050505050858585614dd2565b505050505050565b5f80612ee6614f1a565b90505f7f8b73c3c69bb8fe3d512ecc4cf759cc79239f7b179b0ffacaa9a75d522b39400f612f12611ef9565b80519060200120612f21611432565b805190602001208430604051602001612f3e959493929190617cab565b604051602081830303815290604052805190602001209050809250505090565b5f612f7a3333858560405180602001604052805f815250614104565b6001905092915050565b5f612f99826002614f2690919063ffffffff16565b9050919050565b60605f805f600b5f8681526020019081526020015f205f018054612fc390617735565b905003612fce575f80fd5b600b5f8581526020019081526020015f205f01600b5f8681526020019081526020015f2060010154600b5f8781526020019081526020015f206002015482805461301790617735565b80601f016020809104026020016040519081016040528092919081815260200182805461304390617735565b801561308e5780601f106130655761010080835404028352916020019161308e565b820191905f5260205f20905b81548152906001019060200180831161307157829003601f168201915b505050505092509250925092509193909250565b5f6130ad8383613fc2565b905092915050565b6130be33612f84565b8061310257506130cc613e21565b73ffffffffffffffffffffffffffffffffffffffff166130ea61234e565b73ffffffffffffffffffffffffffffffffffffffff16145b61310a575f80fd5b600860029054906101000a900460ff16613159576040517f08c379a000000000000000000000000000000000000000000000000000000000815260040161315090617c25565b60405180910390fd5b5f601480549050036131a0576040517f08c379a000000000000000000000000000000000000000000000000000000000815260040161319790617c25565b60405180910390fd5b61320c60145f815481106131b7576131b6617cfc565b5b905f5260205f20015433868686868080601f0160208091040260200160405190810160405280939291908181526020018383808284375f81840152601f19601f8201169050808301925050505050505061444d565b50505050565b6060601480548060200260200160405190810160405280929190818152602001828054801561325e57602002820191905f5260205f20905b81548152602001906001019080831161324a575b5050505050905090565b60175f3373ffffffffffffffffffffffffffffffffffffffff1673ffffffffffffffffffffffffffffffffffffffff1681526020019081526020015f205f9054906101000a900460ff166132f1576040517f08c379a00000000000000000000000000000000000000000000000000000000081526004016132e890617d73565b60405180910390fd5b5f600b5f8381526020019081526020015f205f01805461331090617735565b905003613352576040517f08c379a000000000000000000000000000000000000000000000000000000000815260040161334990617ddb565b60405180910390fd5b5f600b5f8381526020019081526020015f206040518060600160405290815f8201805461337e90617735565b80601f01602080910402602001604051908101604052809291908181526020018280546133aa90617735565b80156133f55780601f106133cc576101008083540402835291602001916133f5565b820191905f5260205f20905b8154815290600101906020018083116133d857829003601f168201915b505050505081526020016001820154815260200160028201548152505090505f600c5f836020015181526020019081526020015f205490505f811161346f576040517f08c379a000000000000000000000000000000000000000000000000000000000815260040161346690617e43565b60405180910390fd5b5f600d6001600d805490506134849190617e8e565b8154811061349557613494617cfc565b5b905f5260205f200154905080600d6001846134b09190617e8e565b815481106134c1576134c0617cfc565b5b905f5260205f20018190555081600c5f8381526020019081526020015f2081905550600d8054806134f5576134f4617ec1565b5b600190038181905f5260205f20015f905590555f600c5f856020015181526020019081526020015f2081905550600b5f8581526020019081526020015f205f8082015f6135429190616833565b600182015f9055600282015f90555050837f3d9bba27d3e360d8c80645beed7e991454a8271bf6f269a24f7782be0f0d0654845f0151856020015160405161358b929190617eee565b60405180910390a250505050565b6135a1613e21565b73ffffffffffffffffffffffffffffffffffffffff166135bf61234e565b73ffffffffffffffffffffffffffffffffffffffff1614613615576040517f08c379a000000000000000000000000000000000000000000000000000000000815260040161360c90617aed565b60405180910390fd5b5f600860016101000a81548160ff021916908315150217905550565b5f600a5f8473ffffffffffffffffffffffffffffffffffffffff1673ffffffffffffffffffffffffffffffffffffffff1681526020019081526020015f205f8373ffffffffffffffffffffffffffffffffffffffff1673ffffffffffffffffffffffffffffffffffffffff1681526020019081526020015f2054905092915050565b61370233338585858080601f0160208091040260200160405190810160405280939291908181526020018383808284375f81840152601f19601f82011690508083019250505050505050614bca565b505050565b61370f613e21565b73ffffffffffffffffffffffffffffffffffffffff1661372d61234e565b73ffffffffffffffffffffffffffffffffffffffff1614613783576040517f08c379a000000000000000000000000000000000000000000000000000000000815260040161377a90617aed565b60405180910390fd5b6137cc8282808060200260200160405190810160405280939291908181526020018383602002808284375f81840152601f19601f82011690508083019250505050505050614fe8565b5050565b6137d8613e21565b73ffffffffffffffffffffffffffffffffffffffff166137f661234e565b73ffffffffffffffffffffffffffffffffffffffff161461384c576040517f08c379a000000000000000000000000000000000000000000000000000000000815260040161384390617aed565b60405180910390fd5b81816014919061385d929190616870565b505050565b61386c3386613fc2565b806138ef5750600a5f8673ffffffffffffffffffffffffffffffffffffffff1673ffffffffffffffffffffffffffffffffffffffff1681526020019081526020015f205f3373ffffffffffffffffffffffffffffffffffffffff1673ffffffffffffffffffffffffffffffffffffffff1681526020019081526020015f20548311155b61392e576040517f08c379a000000000000000000000000000000000000000000000000000000000815260040161392590617b55565b60405180910390fd5b82600a5f8773ffffffffffffffffffffffffffffffffffffffff1673ffffffffffffffffffffffffffffffffffffffff1681526020019081526020015f205f3373ffffffffffffffffffffffffffffffffffffffff1673ffffffffffffffffffffffffffffffffffffffff1681526020019081526020015f205410613ab957613a3883600a5f8873ffffffffffffffffffffffffffffffffffffffff1673ffffffffffffffffffffffffffffffffffffffff1681526020019081526020015f205f3373ffffffffffffffffffffffffffffffffffffffff1673ffffffffffffffffffffffffffffffffffffffff1681526020019081526020015f20546140ef90919063ffffffff16565b600a5f8773ffffffffffffffffffffffffffffffffffffffff1673ffffffffffffffffffffffffffffffffffffffff1681526020019081526020015f205f3373ffffffffffffffffffffffffffffffffffffffff1673ffffffffffffffffffffffffffffffffffffffff1681526020019081526020015f2081905550613b37565b5f600a5f8773ffffffffffffffffffffffffffffffffffffffff1673ffffffffffffffffffffffffffffffffffffffff1681526020019081526020015f205f3373ffffffffffffffffffffffffffffffffffffffff1673ffffffffffffffffffffffffffffffffffffffff1681526020019081526020015f20819055505b613b873386868686868080601f0160208091040260200160405190810160405280939291908181526020018383808284375f81840152601f19601f82011690508083019250505050505050614104565b5050505050565b613b96613e21565b73ffffffffffffffffffffffffffffffffffffffff16613bb461234e565b73ffffffffffffffffffffffffffffffffffffffff1614613c0a576040517f08c379a0000000000000000000000000000000000000000000000000000000008152600401613c0190617aed565b60405180910390fd5b5f73ffffffffffffffffffffffffffffffffffffffff168173ffffffffffffffffffffffffffffffffffffffff1603613c78576040517f08c379a0000000000000000000000000000000000000000000000000000000008152600401613c6f90617f8c565b60405180910390fd5b613c81816148a3565b50565b5f613ce5863333888888888080601f0160208091040260200160405190810160405280939291908181526020018383808284375f81840152601f19601f8201169050808301925050505050505060405180602001604052805f815250614964565b905095945050505050565b5f613cf9615136565b905090565b3373ffffffffffffffffffffffffffffffffffffffff168173ffffffffffffffffffffffffffffffffffffffff1603613d35575f80fd5b5f60155f8373ffffffffffffffffffffffffffffffffffffffff1673ffffffffffffffffffffffffffffffffffffffff1681526020019081526020015f205f3373ffffffffffffffffffffffffffffffffffffffff1673ffffffffffffffffffffffffffffffffffffffff1681526020019081526020015f205f6101000a81548160ff0219169083151502179055503373ffffffffffffffffffffffffffffffffffffffff168173ffffffffffffffffffffffffffffffffffffffff167f50546e66e5f44d728365dc3908c63bc5cfeeab470722c1677e3073a6ac294aa160405160405180910390a350565b5f33905090565b5f5b601a5f8481526020019081526020015f2080549050811015613f00575f601b5f8581526020019081526020015f205f601a5f8781526020019081526020015f208481548110613e7c57613e7b617cfc565b5b905f5260205f20015f9054906101000a900473ffffffffffffffffffffffffffffffffffffffff1673ffffffffffffffffffffffffffffffffffffffff1673ffffffffffffffffffffffffffffffffffffffff1681526020019081526020015f205f6101000a81548160ff0219169083151502179055508080600101915050613e2a565b505f5b8151811015613f97576001601b5f8581526020019081526020015f205f848481518110613f3357613f32617cfc565b5b602002602001015173ffffffffffffffffffffffffffffffffffffffff1673ffffffffffffffffffffffffffffffffffffffff1681526020019081526020015f205f6101000a81548160ff0219169083151502179055508080600101915050613f03565b5080601a5f8481526020019081526020015f209080519060200190613fbd9291906168bb565b505050565b5f8173ffffffffffffffffffffffffffffffffffffffff168373ffffffffffffffffffffffffffffffffffffffff16148061407e575060155f8473ffffffffffffffffffffffffffffffffffffffff1673ffffffffffffffffffffffffffffffffffffffff1681526020019081526020015f205f8373ffffffffffffffffffffffffffffffffffffffff1673ffffffffffffffffffffffffffffffffffffffff1681526020019081526020015f205f9054906101000a900460ff165b806140e75750600860019054906101000a900460ff1680156140e6575060175f8473ffffffffffffffffffffffffffffffffffffffff1673ffffffffffffffffffffffffffffffffffffffff1681526020019081526020015f205f9054906101000a900460ff165b5b905092915050565b5f81836140fc9190617e8e565b905092915050565b5f6014805490500361414b576040517f08c379a000000000000000000000000000000000000000000000000000000000815260040161414290617c25565b60405180910390fd5b5f8290505f805f90505b6014805490508110156142735760135f8873ffffffffffffffffffffffffffffffffffffffff1673ffffffffffffffffffffffffffffffffffffffff1681526020019081526020015f205f601483815481106141b4576141b3617cfc565b5b905f5260205f20015481526020019081526020015f205491508183116142165761420d601482815481106141eb576141ea617cfc565b5b905f5260205f200154898989878960405180602001604052805f815250614964565b505f9250614273565b5f8214614266576142566014828154811061423457614233617cfc565b5b905f5260205f200154898989868960405180602001604052805f815250614964565b5081836142639190617e8e565b92505b8080600101915050614155565b505f82146142b6576040517f08c379a00000000000000000000000000000000000000000000000000000000081526004016142ad90617ff4565b60405180910390fd5b50505050505050565b6142d381600261517490919063ffffffff16565b8073ffffffffffffffffffffffffffffffffffffffff167fe94479a9f7e1952cc78f2d6baab678adc1b772d936c6583def489e524cb6669260405160405180910390a250565b8260135f8673ffffffffffffffffffffffffffffffffffffffff1673ffffffffffffffffffffffffffffffffffffffff1681526020019081526020015f205f8881526020019081526020015f205410156143a8576040517f08c379a000000000000000000000000000000000000000000000000000000000815260040161439f90617ff4565b60405180910390fd5b6143b78686865f878787615216565b6143c68686865f87878761530c565b6143d1848785615402565b6143dd85858585615909565b8373ffffffffffffffffffffffffffffffffffffffff168573ffffffffffffffffffffffffffffffffffffffff16877fce306c3dbc4a497124b5a4f2be8388b41084c1d74663da27ecee1186c00239bf868560405161443d929190618064565b60405180910390a4505050505050565b61446a85855f86868660405180602001604052805f81525061530c565b61447684848484615c0c565b614481838684615e8f565b61449e85855f86868660405180602001604052805f815250616124565b8273ffffffffffffffffffffffffffffffffffffffff168473ffffffffffffffffffffffffffffffffffffffff16867ff0ded82afbb1bb3ff3fc48cb2a26584aa84e4af0bf309c804ecdb94d0f6a98bb85856040516144fe9291906180b5565b60405180910390a45050505050565b60605f825167ffffffffffffffff81111561452b5761452a6176db565b5b6040519080825280601f01601f19166020018201604052801561455d5781602001600182028036833780820191505090505b5090505f5b60048110156145d05784816004811061457e5761457d617cfc565b5b1a60f81b82828151811061459557614594617cfc565b5b60200101907effffffffffffffffffffffffffffffffffffffffffffffffffffffffffffff191690815f1a9053508080600101915050614562565b505f600490505b835181101561464c578381815181106145f3576145f2617cfc565b5b602001015160f81c60f81b82828151811061461157614610617cfc565b5b60200101907effffffffffffffffffffffffffffffffffffffffffffffffffffffffffffff191690815f1a90535080806001019150506145d7565b508091505092915050565b5f805f8061469a306040518060400160405280601481526020017f45524331343030546f6b656e73436865636b657200000000000000000000000081525061621a565b90505f73ffffffffffffffffffffffffffffffffffffffff168173ffffffffffffffffffffffffffffffffffffffff1614614761578073ffffffffffffffffffffffffffffffffffffffff1663c71ff5278d8d8d8d8d8d8d8d6040518963ffffffff1660e01b81526004016147169897969594939291906180f6565b606060405180830381865afa158015614731573d5f803e3d5ffd5b505050506040513d601f19601f8201168201806040525081019061475591906181c5565b9350935093505061476e565b8a5f905f90935093509350505b985098509895505050505050565b5f6147878383613fc2565b80614822575060195f8373ffffffffffffffffffffffffffffffffffffffff1673ffffffffffffffffffffffffffffffffffffffff1681526020019081526020015f205f8581526020019081526020015f205f8473ffffffffffffffffffffffffffffffffffffffff1673ffffffffffffffffffffffffffffffffffffffff1681526020019081526020015f205f9054906101000a900460ff165b8061489a5750600860019054906101000a900460ff1680156148995750601b5f8581526020019081526020015f205f8473ffffffffffffffffffffffffffffffffffffffff1673ffffffffffffffffffffffffffffffffffffffff1681526020019081526020015f205f9054906101000a900460ff165b5b90509392505050565b5f805f9054906101000a900473ffffffffffffffffffffffffffffffffffffffff169050815f806101000a81548173ffffffffffffffffffffffffffffffffffffffff021916908373ffffffffffffffffffffffffffffffffffffffff1602179055508173ffffffffffffffffffffffffffffffffffffffff168173ffffffffffffffffffffffffffffffffffffffff167f8be0079c531659141344cd1fd0a4f28419497f9722a3daafe3b4186f6b6457e060405160405180910390a35050565b5f8360135f8873ffffffffffffffffffffffffffffffffffffffff1673ffffffffffffffffffffffffffffffffffffffff1681526020019081526020015f205f8a81526020019081526020015f205410156149f4576040517f08c379a00000000000000000000000000000000000000000000000000000000081526004016149eb90617ff4565b60405180910390fd5b5f8890505f835114158015614a0b57506040845110155b15614a1d57614a1a89856162dc565b90505b614a2c89898989898989615216565b614a3b8989898989898961530c565b614a46878a87615402565b614a5187878761632a565b614a5c868287615e8f565b614a6b81898989898989616124565b8573ffffffffffffffffffffffffffffffffffffffff168773ffffffffffffffffffffffffffffffffffffffff168a7fff4e9a26af4eb73b8bacfaa4abd4fea03d9448e7b912dc5ff4019048875aa2d48b898989604051614acf9493929190618215565b60405180910390a4888114614b185780897f67c8ba31d2dd11f1384577b3405b04ed91eed1231e408432ad2458cab37b2fa187604051614b0f9190616db2565b60405180910390a35b80915050979650505050505050565b614b666040518060400160405280600a81526020017f4552433230546f6b656e000000000000000000000000000000000000000000008152508361663b565b614ba56040518060400160405280600c81526020017f45524331343030546f6b656e00000000000000000000000000000000000000008152508361663b565b8015614bc657600160085f6101000a81548160ff0219169083151502179055505b5050565b5f60148054905003614c11576040517f08c379a0000000000000000000000000000000000000000000000000000000008152600401614c0890617c25565b60405180910390fd5b5f8290505f805f90505b601480549050811015614d2d5760135f8773ffffffffffffffffffffffffffffffffffffffff1673ffffffffffffffffffffffffffffffffffffffff1681526020019081526020015f205f60148381548110614c7a57614c79617cfc565b5b905f5260205f20015481526020019081526020015f20549150818311614cda57614cd260148281548110614cb157614cb0617cfc565b5b905f5260205f2001548888868860405180602001604052805f815250614319565b5f9250614d2d565b614d1260148281548110614cf157614cf0617cfc565b5b905f5260205f2001548888858860405180602001604052805f815250614319565b8183614d1e9190617e8e565b92508080600101915050614c1b565b505f8214614d70576040517f08c379a0000000000000000000000000000000000000000000000000000000008152600401614d6790617ff4565b60405180910390fd5b505050505050565b614d8c8160026166e890919063ffffffff16565b8073ffffffffffffffffffffffffffffffffffffffff167f6ae172837ea30b801fbfcdd4108aa1d5bf8ff775444fd70256b44e6bf3dfc3f660405160405180910390a250565b5f614ddd308661621a565b90505f73ffffffffffffffffffffffffffffffffffffffff168173ffffffffffffffffffffffffffffffffffffffff1614158015614e185750835b15614e8a57614e2681612f84565b15614e3557614e34816142bf565b5b5f60175f8373ffffffffffffffffffffffffffffffffffffffff1673ffffffffffffffffffffffffffffffffffffffff1681526020019081526020015f205f6101000a81548160ff0219169083151502179055505b614e94858761663b565b828015614ea75750614ea586612f84565b155b15614eb657614eb586614d78565b5b8115614f1257600160175f8873ffffffffffffffffffffffffffffffffffffffff1673ffffffffffffffffffffffffffffffffffffffff1681526020019081526020015f205f6101000a81548160ff0219169083151502179055505b505050505050565b5f804690508091505090565b5f8073ffffffffffffffffffffffffffffffffffffffff168273ffffffffffffffffffffffffffffffffffffffff1603614f95576040517f08c379a0000000000000000000000000000000000000000000000000000000008152600401614f8c906182d6565b60405180910390fd5b825f015f8373ffffffffffffffffffffffffffffffffffffffff1673ffffffffffffffffffffffffffffffffffffffff1681526020019081526020015f205f9054906101000a900460ff16905092915050565b5f5b601680549050811015615093575f60175f6016848154811061500f5761500e617cfc565b5b905f5260205f20015f9054906101000a900473ffffffffffffffffffffffffffffffffffffffff1673ffffffffffffffffffffffffffffffffffffffff1673ffffffffffffffffffffffffffffffffffffffff1681526020019081526020015f205f6101000a81548160ff0219169083151502179055508080600101915050614fea565b505f5b815181101561511b57600160175f8484815181106150b7576150b6617cfc565b5b602002602001015173ffffffffffffffffffffffffffffffffffffffff1673ffffffffffffffffffffffffffffffffffffffff1681526020019081526020015f205f6101000a81548160ff0219169083151502179055508080600101915050615096565b5080601690805190602001906151329291906168bb565b5050565b5f8060035f615143614f1a565b81526020019081526020015f205490505f801b81146151655780915050615171565b61516d61678c565b9150505b90565b61517e8282614f26565b6151bd576040517f08c379a00000000000000000000000000000000000000000000000000000000081526004016151b490618364565b60405180910390fd5b5f825f015f8373ffffffffffffffffffffffffffffffffffffffff1673ffffffffffffffffffffffffffffffffffffffff1681526020019081526020015f205f6101000a81548160ff0219169083151502179055505050565b5f615256866040518060400160405280601381526020017f45524331343030546f6b656e7353656e6465720000000000000000000000000081525061621a565b90505f73ffffffffffffffffffffffffffffffffffffffff168173ffffffffffffffffffffffffffffffffffffffff1614615302578073ffffffffffffffffffffffffffffffffffffffff16634e755a545f368b8b8b8b8b8b8b6040518a63ffffffff1660e01b81526004016152d4999897969594939291906183ae565b5f604051808303815f87803b1580156152eb575f80fd5b505af11580156152fd573d5f803e3d5ffd5b505050505b5050505050505050565b5f61534c306040518060400160405280601681526020017f45524331343030546f6b656e7356616c696461746f720000000000000000000081525061621a565b90505f73ffffffffffffffffffffffffffffffffffffffff168173ffffffffffffffffffffffffffffffffffffffff16146153f8578073ffffffffffffffffffffffffffffffffffffffff1663520faa765f368b8b8b8b8b8b8b6040518a63ffffffff1660e01b81526004016153ca999897969594939291906183ae565b5f604051808303815f87803b1580156153e1575f80fd5b505af11580156153f3573d5f803e3d5ffd5b505050505b5050505050505050565b6154618160135f8673ffffffffffffffffffffffffffffffffffffffff1673ffffffffffffffffffffffffffffffffffffffff1681526020019081526020015f205f8581526020019081526020015f20546140ef90919063ffffffff16565b60135f8573ffffffffffffffffffffffffffffffffffffffff1673ffffffffffffffffffffffffffffffffffffffff1681526020019081526020015f205f8481526020019081526020015f20819055506154d58160105f8581526020019081526020015f20546140ef90919063ffffffff16565b60105f8481526020019081526020015f20819055505f60105f8481526020019081526020015f20540361560b575f600f5f8481526020019081526020015f205490505f8111615559576040517f08c379a00000000000000000000000000000000000000000000000000000000081526004016155509061848b565b60405180910390fd5b5f600e6001600e8054905061556e9190617e8e565b8154811061557f5761557e617cfc565b5b905f5260205f200154905080600e60018461559a9190617e8e565b815481106155ab576155aa617cfc565b5b905f5260205f20018190555081600f5f8381526020019081526020015f2081905550600e8054806155df576155de617ec1565b5b600190038181905f5260205f20015f905590555f600f5f8681526020019081526020015f208190555050505b5f60135f8573ffffffffffffffffffffffffffffffffffffffff1673ffffffffffffffffffffffffffffffffffffffff1681526020019081526020015f205f8481526020019081526020015f205403615904575f60125f8573ffffffffffffffffffffffffffffffffffffffff1673ffffffffffffffffffffffffffffffffffffffff1681526020019081526020015f205f8481526020019081526020015f205490505f81116156f0576040517f08c379a00000000000000000000000000000000000000000000000000000000081526004016156e79061848b565b60405180910390fd5b5f60115f8673ffffffffffffffffffffffffffffffffffffffff1673ffffffffffffffffffffffffffffffffffffffff1681526020019081526020015f20600160115f8873ffffffffffffffffffffffffffffffffffffffff1673ffffffffffffffffffffffffffffffffffffffff1681526020019081526020015f208054905061577b9190617e8e565b8154811061578c5761578b617cfc565b5b905f5260205f20015490508060115f8773ffffffffffffffffffffffffffffffffffffffff1673ffffffffffffffffffffffffffffffffffffffff1681526020019081526020015f206001846157e29190617e8e565b815481106157f3576157f2617cfc565b5b905f5260205f2001819055508160125f8773ffffffffffffffffffffffffffffffffffffffff1673ffffffffffffffffffffffffffffffffffffffff1681526020019081526020015f205f8381526020019081526020015f208190555060115f8673ffffffffffffffffffffffffffffffffffffffff1673ffffffffffffffffffffffffffffffffffffffff1681526020019081526020015f2080548061589d5761589c617ec1565b5b600190038181905f5260205f20015f905590555f60125f8773ffffffffffffffffffffffffffffffffffffffff1673ffffffffffffffffffffffffffffffffffffffff1681526020019081526020015f205f8681526020019081526020015f208190555050505b505050565b60085f9054906101000a900460ff1615615958576040517f08c379a000000000000000000000000000000000000000000000000000000000815260040161594f906184f3565b60405180910390fd5b615961826167c1565b6159a0576040517f08c379a00000000000000000000000000000000000000000000000000000000081526004016159979061848b565b60405180910390fd5b5f73ffffffffffffffffffffffffffffffffffffffff168373ffffffffffffffffffffffffffffffffffffffff1603615a0e576040517f08c379a0000000000000000000000000000000000000000000000000000000008152600401615a0590617a85565b60405180910390fd5b8160095f8573ffffffffffffffffffffffffffffffffffffffff1673ffffffffffffffffffffffffffffffffffffffff1681526020019081526020015f20541015615a8e576040517f08c379a0000000000000000000000000000000000000000000000000000000008152600401615a8590617ff4565b60405180910390fd5b615ade8260095f8673ffffffffffffffffffffffffffffffffffffffff1673ffffffffffffffffffffffffffffffffffffffff1681526020019081526020015f20546140ef90919063ffffffff16565b60095f8573ffffffffffffffffffffffffffffffffffffffff1673ffffffffffffffffffffffffffffffffffffffff1681526020019081526020015f2081905550615b34826007546140ef90919063ffffffff16565b6007819055508273ffffffffffffffffffffffffffffffffffffffff168473ffffffffffffffffffffffffffffffffffffffff167fb7d0d6b60740753e9f16692a2f479472a1385aec2420fa43225b02f2ffa1afe78484604051615b99929190618064565b60405180910390a35f73ffffffffffffffffffffffffffffffffffffffff168373ffffffffffffffffffffffffffffffffffffffff167fddf252ad1be2c89b69c2b068fc378daa952ba7f163c4a11628f55a4df523b3ef84604051615bfe9190616db2565b60405180910390a350505050565b60085f9054906101000a900460ff1615615c5b576040517f08c379a0000000000000000000000000000000000000000000000000000000008152600401615c52906184f3565b60405180910390fd5b615c64826167c1565b615ca3576040517f08c379a0000000000000000000000000000000000000000000000000000000008152600401615c9a9061848b565b60405180910390fd5b5f73ffffffffffffffffffffffffffffffffffffffff168373ffffffffffffffffffffffffffffffffffffffff1603615d11576040517f08c379a0000000000000000000000000000000000000000000000000000000008152600401615d089061855b565b60405180910390fd5b615d26826007546167f490919063ffffffff16565b600781905550615d7c8260095f8673ffffffffffffffffffffffffffffffffffffffff1673ffffffffffffffffffffffffffffffffffffffff1681526020019081526020015f20546167f490919063ffffffff16565b60095f8573ffffffffffffffffffffffffffffffffffffffff1673ffffffffffffffffffffffffffffffffffffffff1681526020019081526020015f20819055508273ffffffffffffffffffffffffffffffffffffffff168473ffffffffffffffffffffffffffffffffffffffff167f0e9905d62635f049c2f4e11678ebf9dc3d1f8c4a653e290759b772e47ba00d008484604051615e1c929190618064565b60405180910390a38273ffffffffffffffffffffffffffffffffffffffff165f73ffffffffffffffffffffffffffffffffffffffff167fddf252ad1be2c89b69c2b068fc378daa952ba7f163c4a11628f55a4df523b3ef84604051615e819190616db2565b60405180910390a350505050565b5f811461611f575f60125f8573ffffffffffffffffffffffffffffffffffffffff1673ffffffffffffffffffffffffffffffffffffffff1681526020019081526020015f205f8481526020019081526020015f205403615fdc5760115f8473ffffffffffffffffffffffffffffffffffffffff1673ffffffffffffffffffffffffffffffffffffffff1681526020019081526020015f2082908060018154018082558091505060019003905f5260205f20015f909190919091505560115f8473ffffffffffffffffffffffffffffffffffffffff1673ffffffffffffffffffffffffffffffffffffffff1681526020019081526020015f208054905060125f8573ffffffffffffffffffffffffffffffffffffffff1673ffffffffffffffffffffffffffffffffffffffff1681526020019081526020015f205f8481526020019081526020015f20819055505b61603b8160135f8673ffffffffffffffffffffffffffffffffffffffff1673ffffffffffffffffffffffffffffffffffffffff1681526020019081526020015f205f8581526020019081526020015f20546167f490919063ffffffff16565b60135f8573ffffffffffffffffffffffffffffffffffffffff1673ffffffffffffffffffffffffffffffffffffffff1681526020019081526020015f205f8481526020019081526020015f20819055505f600f5f8481526020019081526020015f2054036160e557600e82908060018154018082558091505060019003905f5260205f20015f9091909190915055600e80549050600f5f8481526020019081526020015f20819055505b6161098160105f8581526020019081526020015f20546167f490919063ffffffff16565b60105f8481526020019081526020015f20819055505b505050565b5f616164856040518060400160405280601681526020017f45524331343030546f6b656e73526563697069656e740000000000000000000081525061621a565b90505f73ffffffffffffffffffffffffffffffffffffffff168173ffffffffffffffffffffffffffffffffffffffff1614616210578073ffffffffffffffffffffffffffffffffffffffff1663f464b5765f368b8b8b8b8b8b8b6040518a63ffffffff1660e01b81526004016161e2999897969594939291906183ae565b5f604051808303815f87803b1580156161f9575f80fd5b505af115801561620b573d5f803e3d5ffd5b505050505b5050505050505050565b5f808260405160200161622d91906185a9565b604051602081830303815290604052805190602001209050731820a4b7618bde71dce8cdc73aab6c95905fad2473ffffffffffffffffffffffffffffffffffffffff1663aabbb8ca85836040518363ffffffff1660e01b81526004016162949291906185bf565b602060405180830381865afa1580156162af573d5f803e3d5ffd5b505050506040513d601f19601f820116820180604052508101906162d391906185fa565b91505092915050565b5f807fffffffffffffffffffffffffffffffffffffffffffffffffffffffffffffffff5f1b90505f6020840151905081810361631e5760408401519250616322565b8492505b505092915050565b60085f9054906101000a900460ff1615616379576040517f08c379a0000000000000000000000000000000000000000000000000000000008152600401616370906184f3565b60405180910390fd5b616382816167c1565b6163c1576040517f08c379a00000000000000000000000000000000000000000000000000000000081526004016163b89061848b565b60405180910390fd5b5f73ffffffffffffffffffffffffffffffffffffffff168273ffffffffffffffffffffffffffffffffffffffff160361642f576040517f08c379a00000000000000000000000000000000000000000000000000000000081526004016164269061855b565b60405180910390fd5b8060095f8573ffffffffffffffffffffffffffffffffffffffff1673ffffffffffffffffffffffffffffffffffffffff1681526020019081526020015f205410156164af576040517f08c379a00000000000000000000000000000000000000000000000000000000081526004016164a690617ff4565b60405180910390fd5b6164ff8160095f8673ffffffffffffffffffffffffffffffffffffffff1673ffffffffffffffffffffffffffffffffffffffff1681526020019081526020015f20546140ef90919063ffffffff16565b60095f8573ffffffffffffffffffffffffffffffffffffffff1673ffffffffffffffffffffffffffffffffffffffff1681526020019081526020015f20819055506165908160095f8573ffffffffffffffffffffffffffffffffffffffff1673ffffffffffffffffffffffffffffffffffffffff1681526020019081526020015f20546167f490919063ffffffff16565b60095f8473ffffffffffffffffffffffffffffffffffffffff1673ffffffffffffffffffffffffffffffffffffffff1681526020019081526020015f20819055508173ffffffffffffffffffffffffffffffffffffffff168373ffffffffffffffffffffffffffffffffffffffff167fddf252ad1be2c89b69c2b068fc378daa952ba7f163c4a11628f55a4df523b3ef8360405161662e9190616db2565b60405180910390a3505050565b5f8260405160200161664d91906185a9565b604051602081830303815290604052805190602001209050731820a4b7618bde71dce8cdc73aab6c95905fad2473ffffffffffffffffffffffffffffffffffffffff166329965a1d3083856040518463ffffffff1660e01b81526004016166b693929190618625565b5f604051808303815f87803b1580156166cd575f80fd5b505af11580156166df573d5f803e3d5ffd5b50505050505050565b6166f28282614f26565b15616732576040517f08c379a0000000000000000000000000000000000000000000000000000000008152600401616729906186a4565b60405180910390fd5b6001825f015f8373ffffffffffffffffffffffffffffffffffffffff1673ffffffffffffffffffffffffffffffffffffffff1681526020019081526020015f205f6101000a81548160ff0219169083151502179055505050565b5f80616796614f1a565b90505f6167a1612edc565b90508060035f8481526020019081526020015f2081905550809250505090565b5f816167ec6006546167de6006548661680990919063ffffffff16565b61681e90919063ffffffff16565b149050919050565b5f818361680191906186c2565b905092915050565b5f81836168169190618722565b905092915050565b5f818361682b9190618752565b905092915050565b50805461683f90617735565b5f825580601f10616850575061686d565b601f0160209004905f5260205f209081019061686c9190616942565b5b50565b828054828255905f5260205f209081019282156168aa579160200282015b828111156168a957823582559160200191906001019061688e565b5b5090506168b7919061695d565b5090565b828054828255905f5260205f20908101928215616931579160200282015b82811115616930578251825f6101000a81548173ffffffffffffffffffffffffffffffffffffffff021916908373ffffffffffffffffffffffffffffffffffffffff160217905550916020019190600101906168d9565b5b50905061693e9190616942565b5090565b5b80821115616959575f815f905550600101616943565b5090565b5b80821115616974575f815f90555060010161695e565b5090565b5f80fd5b5f80fd5b5f819050919050565b61699281616980565b811461699c575f80fd5b50565b5f813590506169ad81616989565b92915050565b5f80fd5b5f80fd5b5f80fd5b5f8083601f8401126169d4576169d36169b3565b5b8235905067ffffffffffffffff8111156169f1576169f06169b7565b5b602083019150836001820283011115616a0d57616a0c6169bb565b5b9250929050565b5f805f8060608587031215616a2c57616a2b616978565b5b5f616a398782880161699f565b945050602085013567ffffffffffffffff811115616a5a57616a5961697c565b5b616a66878288016169bf565b93509350506040616a798782880161699f565b91505092959194509250565b5f81519050919050565b5f82825260208201905092915050565b8281835e5f83830152505050565b5f601f19601f8301169050919050565b5f616ac782616a85565b616ad18185616a8f565b9350616ae1818560208601616a9f565b616aea81616aad565b840191505092915050565b5f6020820190508181035f830152616b0d8184616abd565b905092915050565b5f73ffffffffffffffffffffffffffffffffffffffff82169050919050565b5f616b3e82616b15565b9050919050565b616b4e81616b34565b8114616b58575f80fd5b50565b5f81359050616b6981616b45565b92915050565b5f819050919050565b616b8181616b6f565b8114616b8b575f80fd5b50565b5f81359050616b9c81616b78565b92915050565b5f8060408385031215616bb857616bb7616978565b5b5f616bc585828601616b5b565b9250506020616bd685828601616b8e565b9150509250929050565b5f8115159050919050565b616bf481616be0565b82525050565b5f602082019050616c0d5f830184616beb565b92915050565b5f8060408385031215616c2957616c28616978565b5b5f616c368582860161699f565b9250506020616c4785828601616b5b565b9150509250929050565b5f805f60608486031215616c6857616c67616978565b5b5f616c758682870161699f565b9350506020616c8686828701616b5b565b9250506040616c9786828701616b8e565b9150509250925092565b5f8083601f840112616cb657616cb56169b3565b5b8235905067ffffffffffffffff811115616cd357616cd26169b7565b5b602083019150836020820283011115616cef57616cee6169bb565b5b9250929050565b5f805f60408486031215616d0d57616d0c616978565b5b5f616d1a8682870161699f565b935050602084013567ffffffffffffffff811115616d3b57616d3a61697c565b5b616d4786828701616ca1565b92509250509250925092565b5f805f60608486031215616d6a57616d69616978565b5b5f616d778682870161699f565b9350506020616d8886828701616b5b565b9250506040616d9986828701616b5b565b9150509250925092565b616dac81616b6f565b82525050565b5f602082019050616dc55f830184616da3565b92915050565b5f805f60608486031215616de257616de1616978565b5b5f616def86828701616b5b565b9350506020616e0086828701616b5b565b9250506040616e1186828701616b8e565b9150509250925092565b616e2481616980565b82525050565b5f602082019050616e3d5f830184616e1b565b92915050565b5f8083601f840112616e5857616e576169b3565b5b8235905067ffffffffffffffff811115616e7557616e746169b7565b5b602083019150836001820283011115616e9157616e906169bb565b5b9250929050565b5f805f8060608587031215616eb057616eaf616978565b5b5f616ebd87828801616b5b565b9450506020616ece87828801616b8e565b935050604085013567ffffffffffffffff811115616eef57616eee61697c565b5b616efb87828801616e43565b925092505092959194509250565b5f60208284031215616f1e57616f1d616978565b5b5f616f2b84828501616b5b565b91505092915050565b5f60ff82169050919050565b616f4981616f34565b82525050565b5f602082019050616f625f830184616f40565b92915050565b5f805f8060608587031215616f8057616f7f616978565b5b5f616f8d8782880161699f565b9450506020616f9e87828801616b8e565b935050604085013567ffffffffffffffff811115616fbf57616fbe61697c565b5b616fcb87828801616e43565b925092505092959194509250565b5f805f805f60808688031215616ff257616ff1616978565b5b5f616fff8882890161699f565b955050602061701088828901616b5b565b945050604061702188828901616b8e565b935050606086013567ffffffffffffffff8111156170425761704161697c565b5b61704e88828901616e43565b92509250509295509295909350565b5f81519050919050565b5f82825260208201905092915050565b5f819050602082019050919050565b61708f81616980565b82525050565b5f6170a08383617086565b60208301905092915050565b5f602082019050919050565b5f6170c28261705d565b6170cc8185617067565b93506170d783617077565b805f5b838110156171075781516170ee8882617095565b97506170f9836170ac565b9250506001810190506170da565b5085935050505092915050565b5f6020820190508181035f83015261712c81846170b8565b905092915050565b5f805f805f805f8060c0898b0312156171505761714f616978565b5b5f61715d8b828c0161699f565b985050602061716e8b828c01616b5b565b975050604061717f8b828c01616b5b565b96505060606171908b828c01616b8e565b955050608089013567ffffffffffffffff8111156171b1576171b061697c565b5b6171bd8b828c01616e43565b945094505060a089013567ffffffffffffffff8111156171e0576171df61697c565b5b6171ec8b828c01616e43565b92509250509295985092959890939650565b5f7fff0000000000000000000000000000000000000000000000000000000000000082169050919050565b617232816171fe565b82525050565b5f60608201905061724b5f830186617229565b6172586020830185616e1b565b6172656040830184616e1b565b949350505050565b5f81519050919050565b5f82825260208201905092915050565b5f819050602082019050919050565b61729f81616b34565b82525050565b5f6172b08383617296565b60208301905092915050565b5f602082019050919050565b5f6172d28261726d565b6172dc8185617277565b93506172e783617287565b805f5b838110156173175781516172fe88826172a5565b9750617309836172bc565b9250506001810190506172ea565b5085935050505092915050565b5f6020820190508181035f83015261733c81846172c8565b905092915050565b5f6020828403121561735957617358616978565b5b5f6173668482850161699f565b91505092915050565b61737881616b34565b82525050565b5f6020820190506173915f83018461736f565b92915050565b6173a081616be0565b81146173aa575f80fd5b50565b5f813590506173bb81617397565b92915050565b5f80604083850312156173d7576173d6616978565b5b5f6173e485828601616b5b565b92505060206173f5858286016173ad565b9150509250929050565b5f805f805f8060a0878903121561741957617418616978565b5b5f61742689828a01616b5b565b965050602087013567ffffffffffffffff8111156174475761744661697c565b5b61745389828a016169bf565b9550955050604061746689828a016173ad565b935050606061747789828a016173ad565b925050608061748889828a016173ad565b9150509295509295509295565b5f6060820190508181035f8301526174ad8186616abd565b90506174bc6020830185616e1b565b6174c96040830184616da3565b949350505050565b5f80604083850312156174e7576174e6616978565b5b5f6174f485828601616b5b565b925050602061750585828601616b5b565b9150509250929050565b5f805f6040848603121561752657617525616978565b5b5f61753386828701616b8e565b935050602084013567ffffffffffffffff8111156175545761755361697c565b5b61756086828701616e43565b92509250509250925092565b5f806020838503121561758257617581616978565b5b5f83013567ffffffffffffffff81111561759f5761759e61697c565b5b6175ab85828601616ca1565b92509250509250929050565b5f8083601f8401126175cc576175cb6169b3565b5b8235905067ffffffffffffffff8111156175e9576175e86169b7565b5b602083019150836020820283011115617605576176046169bb565b5b9250929050565b5f806020838503121561762257617621616978565b5b5f83013567ffffffffffffffff81111561763f5761763e61697c565b5b61764b858286016175b7565b92509250509250929050565b5f805f805f608086880312156176705761766f616978565b5b5f61767d88828901616b5b565b955050602061768e88828901616b5b565b945050604061769f88828901616b8e565b935050606086013567ffffffffffffffff8111156176c0576176bf61697c565b5b6176cc88828901616e43565b92509250509295509295909350565b7f4e487b71000000000000000000000000000000000000000000000000000000005f52604160045260245ffd5b7f4e487b71000000000000000000000000000000000000000000000000000000005f52602260045260245ffd5b5f600282049050600182168061774c57607f821691505b60208210810361775f5761775e617708565b5b50919050565b5f819050815f5260205f209050919050565b5f6020601f8301049050919050565b5f82821b905092915050565b5f600883026177c17fffffffffffffffffffffffffffffffffffffffffffffffffffffffffffffffff82617786565b6177cb8683617786565b95508019841693508086168417925050509392505050565b5f819050919050565b5f6178066178016177fc84616b6f565b6177e3565b616b6f565b9050919050565b5f819050919050565b61781f836177ec565b61783361782b8261780d565b848454617792565b825550505050565b5f90565b61784761783b565b617852818484617816565b505050565b5b818110156178755761786a5f8261783f565b600181019050617858565b5050565b601f8211156178ba5761788b81617765565b61789484617777565b810160208510156178a3578190505b6178b76178af85617777565b830182617857565b50505b505050565b5f82821c905092915050565b5f6178da5f19846008026178bf565b1980831691505092915050565b5f6178f283836178cb565b9150826002028217905092915050565b61790b82616a85565b67ffffffffffffffff811115617924576179236176db565b5b61792e8254617735565b617939828285617879565b5f60209050601f83116001811461796a575f8415617958578287015190505b61796285826178e7565b8655506179c9565b601f19841661797886617765565b5f5b8281101561799f5784890151825560018201915060208501945060208101905061797a565b868310156179bc57848901516179b8601f8916826178cb565b8355505b6001600288020188555050505b505050505050565b828183375f83830152505050565b5f6179ea8385616a8f565b93506179f78385846179d1565b617a0083616aad565b840190509392505050565b5f6040820190508181035f830152617a248185876179df565b9050617a336020830184616e1b565b949350505050565b7f35360000000000000000000000000000000000000000000000000000000000005f82015250565b5f617a6f600283616a8f565b9150617a7a82617a3b565b602082019050919050565b5f6020820190508181035f830152617a9c81617a63565b9050919050565b7f4f776e61626c653a2063616c6c6572206973206e6f7420746865206f776e65725f82015250565b5f617ad7602083616a8f565b9150617ae282617aa3565b602082019050919050565b5f6020820190508181035f830152617b0481617acb565b9050919050565b7f35330000000000000000000000000000000000000000000000000000000000005f82015250565b5f617b3f600283616a8f565b9150617b4a82617b0b565b602082019050919050565b5f6020820190508181035f830152617b6c81617b33565b9050919050565b5f81905092915050565b7f455243313832305f4143434550545f4d414749430000000000000000000000005f82015250565b5f617bb1601483617b73565b9150617bbc82617b7d565b601482019050919050565b5f617bd182617ba5565b9150819050919050565b7f35350000000000000000000000000000000000000000000000000000000000005f82015250565b5f617c0f600283616a8f565b9150617c1a82617bdb565b602082019050919050565b5f6020820190508181035f830152617c3c81617c03565b9050919050565b7f35380000000000000000000000000000000000000000000000000000000000005f82015250565b5f617c77600283616a8f565b9150617c8282617c43565b602082019050919050565b5f6020820190508181035f830152617ca481617c6b565b9050919050565b5f60a082019050617cbe5f830188616e1b565b617ccb6020830187616e1b565b617cd86040830186616e1b565b617ce56060830185616da3565b617cf2608083018461736f565b9695505050505050565b7f4e487b71000000000000000000000000000000000000000000000000000000005f52603260045260245ffd5b7f556e617574686f72697a656400000000000000000000000000000000000000005f82015250565b5f617d5d600c83616a8f565b9150617d6882617d29565b602082019050919050565b5f6020820190508181035f830152617d8a81617d51565b9050919050565b7f446f63756d656e7420646f65736e7420657869737400000000000000000000005f82015250565b5f617dc5601583616a8f565b9150617dd082617d91565b602082019050919050565b5f6020820190508181035f830152617df281617db9565b9050919050565b7f496e76616c696420696e646578000000000000000000000000000000000000005f82015250565b5f617e2d600d83616a8f565b9150617e3882617df9565b602082019050919050565b5f6020820190508181035f830152617e5a81617e21565b9050919050565b7f4e487b71000000000000000000000000000000000000000000000000000000005f52601160045260245ffd5b5f617e9882616b6f565b9150617ea383616b6f565b9250828203905081811115617ebb57617eba617e61565b5b92915050565b7f4e487b71000000000000000000000000000000000000000000000000000000005f52603160045260245ffd5b5f6040820190508181035f830152617f068185616abd565b9050617f156020830184616e1b565b9392505050565b7f4f776e61626c653a206e6577206f776e657220697320746865207a65726f20615f8201527f6464726573730000000000000000000000000000000000000000000000000000602082015250565b5f617f76602683616a8f565b9150617f8182617f1c565b604082019050919050565b5f6020820190508181035f830152617fa381617f6a565b9050919050565b7f35320000000000000000000000000000000000000000000000000000000000005f82015250565b5f617fde600283616a8f565b9150617fe982617faa565b602082019050919050565b5f6020820190508181035f83015261800b81617fd2565b9050919050565b5f81519050919050565b5f82825260208201905092915050565b5f61803682618012565b618040818561801c565b9350618050818560208601616a9f565b61805981616aad565b840191505092915050565b5f6040820190506180775f830185616da3565b8181036020830152618089818461802c565b90509392505050565b50565b5f6180a05f8361801c565b91506180ab82618092565b5f82019050919050565b5f6060820190506180c85f830185616da3565b81810360208301526180da818461802c565b905081810360408301526180ed81618095565b90509392505050565b5f610100820190508181035f83015261810f818b61802c565b905061811e602083018a616e1b565b61812b604083018961736f565b618138606083018861736f565b618145608083018761736f565b61815260a0830186616da3565b81810360c0830152618164818561802c565b905081810360e0830152618178818461802c565b90509998505050505050505050565b618190816171fe565b811461819a575f80fd5b50565b5f815190506181ab81618187565b92915050565b5f815190506181bf81616989565b92915050565b5f805f606084860312156181dc576181db616978565b5b5f6181e98682870161819d565b93505060206181fa868287016181b1565b925050604061820b868287016181b1565b9150509250925092565b5f6080820190506182285f83018761736f565b6182356020830186616da3565b8181036040830152618247818561802c565b9050818103606083015261825b818461802c565b905095945050505050565b7f526f6c65733a206163636f756e7420697320746865207a65726f2061646472655f8201527f7373000000000000000000000000000000000000000000000000000000000000602082015250565b5f6182c0602283616a8f565b91506182cb82618266565b604082019050919050565b5f6020820190508181035f8301526182ed816182b4565b9050919050565b7f526f6c65733a206163636f756e7420646f6573206e6f74206861766520726f6c5f8201527f6500000000000000000000000000000000000000000000000000000000000000602082015250565b5f61834e602183616a8f565b9150618359826182f4565b604082019050919050565b5f6020820190508181035f83015261837b81618342565b9050919050565b5f61838d838561801c565b935061839a8385846179d1565b6183a383616aad565b840190509392505050565b5f610100820190508181035f8301526183c8818b8d618382565b90506183d7602083018a616e1b565b6183e4604083018961736f565b6183f1606083018861736f565b6183fe608083018761736f565b61840b60a0830186616da3565b81810360c083015261841d818561802c565b905081810360e0830152618431818461802c565b90509a9950505050505050505050565b7f35300000000000000000000000000000000000000000000000000000000000005f82015250565b5f618475600283616a8f565b915061848082618441565b602082019050919050565b5f6020820190508181035f8301526184a281618469565b9050919050565b7f35340000000000000000000000000000000000000000000000000000000000005f82015250565b5f6184dd600283616a8f565b91506184e8826184a9565b602082019050919050565b5f6020820190508181035f83015261850a816184d1565b9050919050565b7f35370000000000000000000000000000000000000000000000000000000000005f82015250565b5f618545600283616a8f565b915061855082618511565b602082019050919050565b5f6020820190508181035f83015261857281618539565b9050919050565b5f61858382616a85565b61858d8185617b73565b935061859d818560208601616a9f565b80840191505092915050565b5f6185b48284618579565b915081905092915050565b5f6040820190506185d25f83018561736f565b6185df6020830184616e1b565b9392505050565b5f815190506185f481616b45565b92915050565b5f6020828403121561860f5761860e616978565b5b5f61861c848285016185e6565b91505092915050565b5f6060820190506186385f83018661736f565b6186456020830185616e1b565b618652604083018461736f565b949350505050565b7f526f6c65733a206163636f756e7420616c72656164792068617320726f6c65005f82015250565b5f61868e601f83616a8f565b91506186998261865a565b602082019050919050565b5f6020820190508181035f8301526186bb81618682565b9050919050565b5f6186cc82616b6f565b91506186d783616b6f565b92508282019050808211156186ef576186ee617e61565b5b92915050565b7f4e487b71000000000000000000000000000000000000000000000000000000005f52601260045260245ffd5b5f61872c82616b6f565b915061873783616b6f565b925082618747576187466186f5565b5b828204905092915050565b5f61875c82616b6f565b915061876783616b6f565b925082820261877581616b6f565b9150828204841483151761878c5761878b617e61565b5b509291505056fea26469706673582212207ae8f71c5b509b1422feecd36d58b33704a84f1c8a6195abf1bc59d8f9855a9764736f6c63430008190033",
  "immutableReferences": {},
  "source": "// SPDX-License-Identifier: Apache-2.0\n/*\n * This code has not been reviewed.\n * Do not use or deploy this code before reviewing it personally first.\n */\npragma solidity ^0.8.0;\n\nimport \"../ERC1400.sol\";\n\n/**\n * @notice Interface to the extension types\n */\ninterface IExtensionTypes {\n  enum CertificateValidation {\n    None,\n    NonceBased,\n    SaltBased\n  }\n}\n\n/**\n * @notice Interface to the extension contract\n */\nabstract contract Extension is IExtensionTypes {\n  function registerTokenSetup(\n    address token,\n    CertificateValidation certificateActivated,\n    bool allowlistActivated,\n    bool blocklistActivated,\n    bool granularityByPartitionActivated,\n    bool holdsActivated,\n    address[] calldata operators\n  ) external virtual;\n\n  function addCertificateSigner(\n    address token,\n    address account\n  ) external virtual;\n}\n\n\n/**\n * @title ERC1400HoldableCertificateNonceToken\n * @dev Holdable ERC1400 with nonce-based certificate controller logic\n */\ncontract ERC1400HoldableCertificateToken is ERC1400, IExtensionTypes {\n\n  /**\n   * @dev Initialize ERC1400 + initialize certificate controller.\n   * @param name Name of the token.\n   * @param symbol Symbol of the token.\n   * @param granularity Granularity of the token.\n   * @param controllers Array of initial controllers.\n   * @param defaultPartitions Partitions chosen by default, when partition is\n   * not specified, like the case ERC20 tranfers.\n   * @param extension Address of token extension.\n   * @param newOwner Address whom contract ownership shall be transferred to.\n   * @param certificateSigner Address of the off-chain service which signs the\n   * conditional ownership certificates required for token transfers, issuance,\n   * redemption (Cf. CertificateController.sol).\n   * @param certificateActivated If set to 'true', the certificate controller\n   * is activated at contract creation.\n   */\n  constructor(\n    string memory name,\n    string memory symbol,\n    uint256 granularity,\n    address[] memory controllers,\n    bytes32[] memory defaultPartitions,\n    address extension,\n    address newOwner,\n    address certificateSigner,\n    CertificateValidation certificateActivated\n  )\n    ERC1400(name, symbol, granularity, controllers, defaultPartitions)\n  {\n    if(extension != address(0)) {\n      Extension(extension).registerTokenSetup(\n        address(this), // token\n        certificateActivated, // certificateActivated\n        true, // allowlistActivated\n        true, // blocklistActivated\n        true, // granularityByPartitionActivated\n        true, // holdsActivated\n        controllers // token controllers\n      );\n\n      if(certificateSigner != address(0)) {\n        Extension(extension).addCertificateSigner(address(this), certificateSigner);\n      }\n\n      _setTokenExtension(extension, ERC1400_TOKENS_VALIDATOR, true, true, true);\n    }\n\n    if(newOwner != address(0)) {\n      transferOwnership(newOwner);\n    }\n  }\n\n  /************************************** Transfer Validity ***************************************/\n  /**\n   * @dev Know the reason on success or failure based on the EIP-1066 application-specific status codes.\n   * @param partition Name of the partition.\n   * @param to Token recipient.\n   * @param value Number of tokens to transfer.\n   * @param data Information attached to the transfer, by the token holder. [CONTAINS THE CONDITIONAL OWNERSHIP CERTIFICATE]\n   * @return ESC (Ethereum Status Code) following the EIP-1066 standard.\n   * @return Additional bytes32 parameter that can be used to define\n   * application specific reason codes with additional details (for example the\n   * transfer restriction rule responsible for making the transfer operation invalid).\n   * @return Destination partition.\n   */\n  function canTransferByPartition(bytes32 partition, address to, uint256 value, bytes calldata data)\n    external\n    view\n    returns (bytes1, bytes32, bytes32)\n  {\n    return ERC1400._canTransfer(\n      _replaceFunctionSelector(this.transferByPartition.selector, msg.data), // 0xf3d490db: 4 first bytes of keccak256(transferByPartition(bytes32,address,uint256,bytes))\n      partition,\n      msg.sender,\n      msg.sender,\n      to,\n      value,\n      data,\n      \"\"\n    );\n  }\n  /**\n   * @dev Know the reason on success or failure based on the EIP-1066 application-specific status codes.\n   * @param partition Name of the partition.\n   * @param from Token holder.\n   * @param to Token recipient.\n   * @param value Number of tokens to transfer.\n   * @param data Information attached to the transfer. [CAN CONTAIN THE DESTINATION PARTITION]\n   * @param operatorData Information attached to the transfer, by the operator. [CONTAINS THE CONDITIONAL OWNERSHIP CERTIFICATE]\n   * @return ESC (Ethereum Status Code) following the EIP-1066 standard.\n   * @return Additional bytes32 parameter that can be used to define\n   * application specific reason codes with additional details (for example the\n   * transfer restriction rule responsible for making the transfer operation invalid).\n   * @return Destination partition.\n   */\n  function canOperatorTransferByPartition(bytes32 partition, address from, address to, uint256 value, bytes calldata data, bytes calldata operatorData)\n    external\n    view\n    returns (bytes1, bytes32, bytes32)\n  {\n    return ERC1400._canTransfer(\n      _replaceFunctionSelector(this.operatorTransferByPartition.selector, msg.data), // 0x8c0dee9c: 4 first bytes of keccak256(operatorTransferByPartition(bytes32,address,address,uint256,bytes,bytes))\n      partition,\n      msg.sender,\n      from,\n      to,\n      value,\n      data,\n      operatorData\n    );\n  }\n  /**\n   * @dev Replace function selector\n   * @param functionSig Replacement function selector.\n   * @param payload Payload, where function selector needs to be replaced.\n   */\n  function _replaceFunctionSelector(bytes4 functionSig, bytes memory payload) internal pure returns(bytes memory) {\n    bytes memory updatedPayload = new bytes(payload.length);\n    for (uint i = 0; i<4; i++){\n      updatedPayload[i] = functionSig[i];\n    }\n    for (uint j = 4; j<payload.length; j++){\n      updatedPayload[j] = payload[j];\n    }\n    return updatedPayload;\n  }\n  /************************************************************************************************/\n\n}",
  "sourcePath": "/Users/sergio/Library/Mobile Documents/com~apple~CloudDocs/Master-ciberseguridad-y-privacidad/2-Quatrimestre/TFM/project/truffle/contracts/ERC1400/certificate/ERC1400HoldableCertificateToken.sol",
  "compiler": {
    "name": "solc",
    "version": "0.8.25+commit.b61c2a91.Emscripten.clang"
  },
  "schemaVersion": "3.4.16",
  "updatedAt": "2024-05-02T18:13:04.966Z",
  "devdoc": {
    "details": "Holdable ERC1400 with nonce-based certificate controller logic",
    "events": {
      "Approval(address,address,uint256)": {
        "details": "Emitted when the allowance of a `spender` for an `owner` is set by a call to {approve}. `value` is the new allowance."
      },
      "Transfer(address,address,uint256)": {
        "details": "Emitted when `value` tokens are moved from one account (`from`) to another (`to`). Note that `value` may be zero."
      }
    },
    "kind": "dev",
    "methods": {
      "allowance(address,address)": {
        "details": "Check the value of tokens that an owner allowed to a spender.",
        "params": {
          "owner": "address The address which owns the funds.",
          "spender": "address The address which will spend the funds."
        },
        "returns": {
          "_0": "A uint256 specifying the value of tokens still available for the spender."
        }
      },
      "allowanceByPartition(bytes32,address,address)": {
        "details": "Check the value of tokens that an owner allowed to a spender.",
        "params": {
          "owner": "address The address which owns the funds.",
          "partition": "Name of the partition.",
          "spender": "address The address which will spend the funds."
        },
        "returns": {
          "_0": "A uint256 specifying the value of tokens still available for the spender."
        }
      },
      "approve(address,uint256)": {
        "details": "Approve the passed address to spend the specified amount of tokens on behalf of 'msg.sender'.",
        "params": {
          "spender": "The address which will spend the funds.",
          "value": "The amount of tokens to be spent."
        },
        "returns": {
          "_0": "A boolean that indicates if the operation was successful."
        }
      },
      "approveByPartition(bytes32,address,uint256)": {
        "details": "Approve the passed address to spend the specified amount of tokens on behalf of 'msg.sender'.",
        "params": {
          "partition": "Name of the partition.",
          "spender": "The address which will spend the funds.",
          "value": "The amount of tokens to be spent."
        },
        "returns": {
          "_0": "A boolean that indicates if the operation was successful."
        }
      },
      "authorizeOperator(address)": {
        "details": "Set a third party operator address as an operator of 'msg.sender' to transfer and redeem tokens on its behalf.",
        "params": {
          "operator": "Address to set as an operator for 'msg.sender'."
        }
      },
      "authorizeOperatorByPartition(bytes32,address)": {
        "details": "Set 'operator' as an operator for 'msg.sender' for a given partition.",
        "params": {
          "operator": "Address to set as an operator for 'msg.sender'.",
          "partition": "Name of the partition."
        }
      },
      "balanceOf(address)": {
        "details": "Get the balance of the account with address 'tokenHolder'.",
        "params": {
          "tokenHolder": "Address for which the balance is returned."
        },
        "returns": {
          "_0": "Amount of token held by 'tokenHolder' in the token contract."
        }
      },
      "balanceOfByPartition(bytes32,address)": {
        "details": "Get balance of a tokenholder for a specific partition.",
        "params": {
          "partition": "Name of the partition.",
          "tokenHolder": "Address for which the balance is returned."
        },
        "returns": {
          "_0": "Amount of token of partition 'partition' held by 'tokenHolder' in the token contract."
        }
      },
      "canOperatorTransferByPartition(bytes32,address,address,uint256,bytes,bytes)": {
        "details": "Know the reason on success or failure based on the EIP-1066 application-specific status codes.",
        "params": {
          "data": "Information attached to the transfer. [CAN CONTAIN THE DESTINATION PARTITION]",
          "from": "Token holder.",
          "operatorData": "Information attached to the transfer, by the operator. [CONTAINS THE CONDITIONAL OWNERSHIP CERTIFICATE]",
          "partition": "Name of the partition.",
          "to": "Token recipient.",
          "value": "Number of tokens to transfer."
        },
        "returns": {
          "_0": "ESC (Ethereum Status Code) following the EIP-1066 standard.",
          "_1": "Additional bytes32 parameter that can be used to define application specific reason codes with additional details (for example the transfer restriction rule responsible for making the transfer operation invalid).",
          "_2": "Destination partition."
        }
      },
      "canTransferByPartition(bytes32,address,uint256,bytes)": {
        "details": "Know the reason on success or failure based on the EIP-1066 application-specific status codes.",
        "params": {
          "data": "Information attached to the transfer, by the token holder. [CONTAINS THE CONDITIONAL OWNERSHIP CERTIFICATE]",
          "partition": "Name of the partition.",
          "to": "Token recipient.",
          "value": "Number of tokens to transfer."
        },
        "returns": {
          "_0": "ESC (Ethereum Status Code) following the EIP-1066 standard.",
          "_1": "Additional bytes32 parameter that can be used to define application specific reason codes with additional details (for example the transfer restriction rule responsible for making the transfer operation invalid).",
          "_2": "Destination partition."
        }
      },
      "constructor": {
        "details": "Initialize ERC1400 + initialize certificate controller.",
        "params": {
          "certificateActivated": "If set to 'true', the certificate controller is activated at contract creation.",
          "certificateSigner": "Address of the off-chain service which signs the conditional ownership certificates required for token transfers, issuance, redemption (Cf. CertificateController.sol).",
          "controllers": "Array of initial controllers.",
          "defaultPartitions": "Partitions chosen by default, when partition is not specified, like the case ERC20 tranfers.",
          "extension": "Address of token extension.",
          "granularity": "Granularity of the token.",
          "name": "Name of the token.",
          "newOwner": "Address whom contract ownership shall be transferred to.",
          "symbol": "Symbol of the token."
        }
      },
      "controllers()": {
        "details": "Get the list of controllers as defined by the token contract.",
        "returns": {
          "_0": "List of addresses of all the controllers."
        }
      },
      "controllersByPartition(bytes32)": {
        "details": "Get controllers for a given partition.",
        "params": {
          "partition": "Name of the partition."
        },
        "returns": {
          "_0": "Array of controllers for partition."
        }
      },
      "decimals()": {
        "details": "Get the number of decimals of the token.",
        "returns": {
          "_0": "The number of decimals of the token. For retrocompatibility, decimals are forced to 18 in ERC1400."
        }
      },
      "getDefaultPartitions()": {
        "details": "Get default partitions to transfer from. Function used for ERC20 retrocompatibility. For example, a security token may return the bytes32(\"unrestricted\").",
        "returns": {
          "_0": "Array of default partitions."
        }
      },
      "getDocument(bytes32)": {
        "details": "Access a document associated with the token.",
        "params": {
          "documentName": "Short name (represented as a bytes32) associated to the document."
        },
        "returns": {
          "_0": "Requested document + document hash + document timestamp."
        }
      },
      "granularity()": {
        "details": "Get the smallest part of the token thats not divisible.",
        "returns": {
          "_0": "The smallest non-divisible part of the token."
        }
      },
      "isControllable()": {
        "details": "Know if the token can be controlled by operators. If a token returns 'false' for 'isControllable()'' then it MUST always return 'false' in the future.",
        "returns": {
          "_0": "bool 'true' if the token can still be controlled by operators, 'false' if it can't anymore."
        }
      },
      "isIssuable()": {
        "details": "Know if new tokens can be issued in the future.",
        "returns": {
          "_0": "bool 'true' if tokens can still be issued by the issuer, 'false' if they can't anymore."
        }
      },
      "isOperator(address,address)": {
        "details": "Indicate whether the operator address is an operator of the tokenHolder address.",
        "params": {
          "operator": "Address which may be an operator of tokenHolder.",
          "tokenHolder": "Address of a token holder which may have the operator address as an operator."
        },
        "returns": {
          "_0": "'true' if operator is an operator of 'tokenHolder' and 'false' otherwise."
        }
      },
      "isOperatorForPartition(bytes32,address,address)": {
        "details": "Indicate whether the operator address is an operator of the tokenHolder address for the given partition.",
        "params": {
          "operator": "Address which may be an operator of tokenHolder for the given partition.",
          "partition": "Name of the partition.",
          "tokenHolder": "Address of a token holder which may have the operator address as an operator for the given partition."
        },
        "returns": {
          "_0": "'true' if 'operator' is an operator of 'tokenHolder' for partition 'partition' and 'false' otherwise."
        }
      },
      "issue(address,uint256,bytes)": {
        "details": "Issue tokens from default partition.",
        "params": {
          "data": "Information attached to the issuance, by the issuer.",
          "tokenHolder": "Address for which we want to issue tokens.",
          "value": "Number of tokens issued."
        }
      },
      "issueByPartition(bytes32,address,uint256,bytes)": {
        "details": "Issue tokens from a specific partition.",
        "params": {
          "data": "Information attached to the issuance, by the issuer.",
          "partition": "Name of the partition.",
          "tokenHolder": "Address for which we want to issue tokens.",
          "value": "Number of tokens issued."
        }
      },
      "migrate(address,bool)": {
        "details": "Migrate contract. ===> CAUTION: DEFINITIVE ACTION  This function shall be called once a new version of the smart contract has been created. Once this function is called:  - The address of the new smart contract is set in ERC1820 registry  - If the choice is definitive, the current smart contract is turned off and can never be used again",
        "params": {
          "definitive": "If set to 'true' the contract is turned off definitely.",
          "newContractAddress": "Address of the new version of the smart contract."
        }
      },
      "name()": {
        "details": "Get the name of the token, e.g., \"MyToken\".",
        "returns": {
          "_0": "Name of the token."
        }
      },
      "operatorRedeemByPartition(bytes32,address,uint256,bytes)": {
        "details": "Redeem tokens of a specific partition.",
        "params": {
          "operatorData": "Information attached to the redemption, by the operator.",
          "partition": "Name of the partition.",
          "tokenHolder": "Address for which we want to redeem tokens.",
          "value": "Number of tokens redeemed"
        }
      },
      "operatorTransferByPartition(bytes32,address,address,uint256,bytes,bytes)": {
        "details": "Transfer tokens from a specific partition through an operator.",
        "params": {
          "data": "Information attached to the transfer. [CAN CONTAIN THE DESTINATION PARTITION]",
          "from": "Token holder.",
          "operatorData": "Information attached to the transfer, by the operator.",
          "partition": "Name of the partition.",
          "to": "Token recipient.",
          "value": "Number of tokens to transfer."
        },
        "returns": {
          "_0": "Destination partition."
        }
      },
      "owner()": {
        "details": "Returns the address of the current owner."
      },
      "partitionsOf(address)": {
        "details": "Get partitions index of a tokenholder.",
        "params": {
          "tokenHolder": "Address for which the partitions index are returned."
        },
        "returns": {
          "_0": "Array of partitions index of 'tokenHolder'."
        }
      },
      "redeem(uint256,bytes)": {
        "details": "Redeem the amount of tokens from the address 'msg.sender'.",
        "params": {
          "data": "Information attached to the redemption, by the token holder.",
          "value": "Number of tokens to redeem."
        }
      },
      "redeemByPartition(bytes32,uint256,bytes)": {
        "details": "Redeem tokens of a specific partition.",
        "params": {
          "data": "Information attached to the redemption, by the redeemer.",
          "partition": "Name of the partition.",
          "value": "Number of tokens redeemed."
        }
      },
      "redeemFrom(address,uint256,bytes)": {
        "details": "Redeem the amount of tokens on behalf of the address from.",
        "params": {
          "data": "Information attached to the redemption.",
          "from": "Token holder whose tokens will be redeemed (or address(0) to set from to msg.sender).",
          "value": "Number of tokens to redeem."
        }
      },
      "renounceControl()": {
        "details": "Definitely renounce the possibility to control tokens on behalf of tokenHolders. Once set to false, '_isControllable' can never be set to 'true' again."
      },
      "renounceIssuance()": {
        "details": "Definitely renounce the possibility to issue new tokens. Once set to false, '_isIssuable' can never be set to 'true' again."
      },
      "renounceOwnership()": {
        "details": "Leaves the contract without owner. It will not be possible to call `onlyOwner` functions anymore. Can only be called by the current owner. NOTE: Renouncing ownership will leave the contract without an owner, thereby removing any functionality that is only available to the owner."
      },
      "revokeOperator(address)": {
        "details": "Remove the right of the operator address to be an operator for 'msg.sender' and to transfer and redeem tokens on its behalf.",
        "params": {
          "operator": "Address to rescind as an operator for 'msg.sender'."
        }
      },
      "revokeOperatorByPartition(bytes32,address)": {
        "details": "Remove the right of the operator address to be an operator on a given partition for 'msg.sender' and to transfer and redeem tokens on its behalf.",
        "params": {
          "operator": "Address to rescind as an operator on given partition for 'msg.sender'.",
          "partition": "Name of the partition."
        }
      },
      "setControllers(address[])": {
        "details": "Set list of token controllers.",
        "params": {
          "operators": "Controller addresses."
        }
      },
      "setDefaultPartitions(bytes32[])": {
        "details": "Set default partitions to transfer from. Function used for ERC20 retrocompatibility.",
        "params": {
          "partitions": "partitions to use by default when not specified."
        }
      },
      "setDocument(bytes32,string,bytes32)": {
        "details": "Associate a document with the token.",
        "params": {
          "documentHash": "Hash of the document [optional parameter].",
          "documentName": "Short name (represented as a bytes32) associated to the document.",
          "uri": "Document content."
        }
      },
      "setPartitionControllers(bytes32,address[])": {
        "details": "Set list of token partition controllers.",
        "params": {
          "operators": "Controller addresses.",
          "partition": "Name of the partition."
        }
      },
      "setTokenExtension(address,string,bool,bool,bool)": {
        "details": "Set token extension contract address. The extension contract can for example verify \"ERC1400TokensValidator\" or \"ERC1400TokensChecker\" interfaces. If the extension is an \"ERC1400TokensValidator\", it will be called everytime a transfer is executed.",
        "params": {
          "addControllerRoleForExtension": "If set to 'true', the extension contract will be added as controller.",
          "addMinterRoleForExtension": "If set to 'true', the extension contract will be added as minter.",
          "extension": "Address of the extension contract.",
          "interfaceLabel": "Interface label of extension contract.",
          "removeOldExtensionRoles": "If set to 'true', the roles of the old extension(minter, controller) will be removed extension."
        }
      },
      "symbol()": {
        "details": "Get the symbol of the token, e.g., \"MYT\".",
        "returns": {
          "_0": "Symbol of the token."
        }
      },
      "totalPartitions()": {
        "details": "Get list of existing partitions.",
        "returns": {
          "_0": "Array of all exisiting partitions."
        }
      },
      "totalSupply()": {
        "details": "Get the total number of issued tokens.",
        "returns": {
          "_0": "Total supply of tokens currently in circulation."
        }
      },
      "totalSupplyByPartition(bytes32)": {
        "details": "Get the total number of issued tokens for a given partition.",
        "params": {
          "partition": "Name of the partition."
        },
        "returns": {
          "_0": "Total supply of tokens currently in circulation, for a given partition."
        }
      },
      "transfer(address,uint256)": {
        "details": "Transfer token for a specified address.",
        "params": {
          "to": "The address to transfer to.",
          "value": "The value to be transferred."
        },
        "returns": {
          "_0": "A boolean that indicates if the operation was successful."
        }
      },
      "transferByPartition(bytes32,address,uint256,bytes)": {
        "details": "Transfer tokens from a specific partition.",
        "params": {
          "data": "Information attached to the transfer, by the token holder.",
          "partition": "Name of the partition.",
          "to": "Token recipient.",
          "value": "Number of tokens to transfer."
        },
        "returns": {
          "_0": "Destination partition."
        }
      },
      "transferFrom(address,address,uint256)": {
        "details": "Transfer tokens from one address to another.",
        "params": {
          "from": "The address which you want to transfer tokens from.",
          "to": "The address which you want to transfer to.",
          "value": "The amount of tokens to be transferred."
        },
        "returns": {
          "_0": "A boolean that indicates if the operation was successful."
        }
      },
      "transferFromWithData(address,address,uint256,bytes)": {
        "details": "Transfer the amount of tokens on behalf of the address 'from' to the address 'to'.",
        "params": {
          "data": "Information attached to the transfer, and intended for the token holder ('from').",
          "from": "Token holder (or 'address(0)' to set from to 'msg.sender').",
          "to": "Token recipient.",
          "value": "Number of tokens to transfer."
        }
      },
      "transferOwnership(address)": {
        "details": "Transfers ownership of the contract to a new account (`newOwner`). Can only be called by the current owner."
      },
      "transferWithData(address,uint256,bytes)": {
        "details": "Transfer the amount of tokens from the address 'msg.sender' to the address 'to'.",
        "params": {
          "data": "Information attached to the transfer, by the token holder.",
          "to": "Token recipient.",
          "value": "Number of tokens to transfer."
        }
      }
    },
    "title": "ERC1400HoldableCertificateNonceToken",
    "version": 1
  },
  "userdoc": {
    "kind": "user",
    "methods": {},
    "version": 1
  }
}