{
  "contractName": "ERC1400TokensChecker",
  "abi": [
    {
      "inputs": [],
      "stateMutability": "nonpayable",
      "type": "constructor"
    },
    {
      "inputs": [
        {
          "internalType": "bytes32",
          "name": "interfaceHash",
          "type": "bytes32"
        },
        {
          "internalType": "address",
          "name": "",
          "type": "address"
        }
      ],
      "name": "canImplementInterfaceForAddress",
      "outputs": [
        {
          "internalType": "bytes32",
          "name": "",
          "type": "bytes32"
        }
      ],
      "stateMutability": "view",
      "type": "function"
    },
    {
      "inputs": [
        {
          "internalType": "bytes",
          "name": "payload",
          "type": "bytes"
        },
        {
          "internalType": "bytes32",
          "name": "partition",
          "type": "bytes32"
        },
        {
          "internalType": "address",
          "name": "operator",
          "type": "address"
        },
        {
          "internalType": "address",
          "name": "from",
          "type": "address"
        },
        {
          "internalType": "address",
          "name": "to",
          "type": "address"
        },
        {
          "internalType": "uint256",
          "name": "value",
          "type": "uint256"
        },
        {
          "internalType": "bytes",
          "name": "data",
          "type": "bytes"
        },
        {
          "internalType": "bytes",
          "name": "operatorData",
          "type": "bytes"
        }
      ],
      "name": "canTransferByPartition",
      "outputs": [
        {
          "internalType": "bytes1",
          "name": "",
          "type": "bytes1"
        },
        {
          "internalType": "bytes32",
          "name": "",
          "type": "bytes32"
        },
        {
          "internalType": "bytes32",
          "name": "",
          "type": "bytes32"
        }
      ],
      "stateMutability": "view",
      "type": "function"
    }
  ],
  "bytecode": "0x608060405234801561000f575f80fd5b506100546040518060400160405280601481526020017f45524331343030546f6b656e73436865636b657200000000000000000000000081525061005960201b60201c565b610112565b60015f808360405160200161006e91906100fc565b6040516020818303038152906040528051906020012081526020019081526020015f205f6101000a81548160ff02191690831515021790555050565b5f81519050919050565b5f81905092915050565b8281835e5f83830152505050565b5f6100d6826100aa565b6100e081856100b4565b93506100f08185602086016100be565b80840191505092915050565b5f61010782846100cc565b915081905092915050565b61131c8061011f5f395ff3fe608060405234801561000f575f80fd5b5060043610610034575f3560e01c8063249cb3fa14610038578063c71ff52714610068575b5f80fd5b610052600480360381019061004d9190610aeb565b61009a565b60405161005f9190610b38565b60405180910390f35b610082600480360381019061007d9190610be5565b6100f3565b60405161009193929190610d30565b60405180910390f35b5f805f8481526020019081526020015f205f9054906101000a900460ff16156100e9576040516020016100cc90610db9565b6040516020818303038152906040528051906020012090506100ed565b5f90505b92915050565b5f805f6101cf8e8e8080601f0160208091040260200160405190810160405280939291908181526020018383808284375f81840152601f19601f820116905080830192505050505050508d8d8d8d8d8d8d8080601f0160208091040260200160405190810160405280939291908181526020018383808284375f81840152601f19601f820116905080830192505050505050508c8c8080601f0160208091040260200160405190810160405280939291908181526020018383808284375f81840152601f19601f820116905080830192505050505050506101e6565b9250925092509b509b509b98505050505050505050565b5f805f3373ffffffffffffffffffffffffffffffffffffffff16636d77cad68b8b8b6040518463ffffffff1660e01b815260040161022693929190610ddc565b602060405180830381865afa158015610241573d5f803e3d5ffd5b505050506040513d601f19601f820116820180604052508101906102659190610e46565b61029957897f5800000000000000000000000000000000000000000000000000000000000000905f9092509250925061095c565b853373ffffffffffffffffffffffffffffffffffffffff166370a082318a6040518263ffffffff1660e01b81526004016102d39190610e71565b602060405180830381865afa1580156102ee573d5f803e3d5ffd5b505050506040513d601f19601f820116820180604052508101906103129190610e9e565b10806103965750853373ffffffffffffffffffffffffffffffffffffffff166330e828038c8b6040518363ffffffff1660e01b8152600401610355929190610ec9565b602060405180830381865afa158015610370573d5f803e3d5ffd5b505050506040513d601f19601f820116820180604052508101906103949190610e9e565b105b156103cb57897f5200000000000000000000000000000000000000000000000000000000000000905f9092509250925061095c565b5f73ffffffffffffffffffffffffffffffffffffffff168773ffffffffffffffffffffffffffffffffffffffff160361042e57897f5700000000000000000000000000000000000000000000000000000000000000905f9092509250925061095c565b5f61046e896040518060400160405280601381526020017f45524331343030546f6b656e7353656e6465720000000000000000000000000081525061096a565b90505f73ffffffffffffffffffffffffffffffffffffffff168173ffffffffffffffffffffffffffffffffffffffff161415801561052f57508073ffffffffffffffffffffffffffffffffffffffff1663e8a24c6a8d8d8d8d8d8d8d8d6040518963ffffffff1660e01b81526004016104ee989796959493929190610f6f565b602060405180830381865afa158015610509573d5f803e3d5ffd5b505050506040513d601f19601f8201168201806040525081019061052d9190610e46565b155b15610565578a7f5600000000000000000000000000000000000000000000000000000000000000905f909350935093505061095c565b6105a4886040518060400160405280601681526020017f45524331343030546f6b656e73526563697069656e740000000000000000000081525061096a565b90505f73ffffffffffffffffffffffffffffffffffffffff168173ffffffffffffffffffffffffffffffffffffffff161415801561066557508073ffffffffffffffffffffffffffffffffffffffff1663f55886df8d8d8d8d8d8d8d8d6040518963ffffffff1660e01b8152600401610624989796959493929190610f6f565b602060405180830381865afa15801561063f573d5f803e3d5ffd5b505050506040513d601f19601f820116820180604052508101906106639190610e46565b155b1561069b578a7f5700000000000000000000000000000000000000000000000000000000000000905f909350935093505061095c565b6106da336040518060400160405280601681526020017f45524331343030546f6b656e7356616c696461746f720000000000000000000081525061096a565b90505f6040518061012001604052803373ffffffffffffffffffffffffffffffffffffffff1681526020018e81526020018d81526020018c73ffffffffffffffffffffffffffffffffffffffff1681526020018b73ffffffffffffffffffffffffffffffffffffffff1681526020018a73ffffffffffffffffffffffffffffffffffffffff1681526020018981526020018881526020018781525090505f73ffffffffffffffffffffffffffffffffffffffff168273ffffffffffffffffffffffffffffffffffffffff161415801561082857508173ffffffffffffffffffffffffffffffffffffffff166398a53ef5826040518263ffffffff1660e01b81526004016107e79190611145565b602060405180830381865afa158015610802573d5f803e3d5ffd5b505050506040513d601f19601f820116820180604052508101906108269190610e46565b155b1561085f578b7f5400000000000000000000000000000000000000000000000000000000000000905f90945094509450505061095c565b5f3373ffffffffffffffffffffffffffffffffffffffff1663556f0dc76040518163ffffffff1660e01b8152600401602060405180830381865afa1580156108a9573d5f803e3d5ffd5b505050506040513d601f19601f820116820180604052508101906108cd9190610e9e565b9050886108f5826108e7848d610a2c90919063ffffffff16565b610a4190919063ffffffff16565b1461092d578c7f5000000000000000000000000000000000000000000000000000000000000000905f9095509550955050505061095c565b8c7f5100000000000000000000000000000000000000000000000000000000000000905f909550955095505050505b985098509895505050505050565b5f808260405160200161097d919061119f565b604051602081830303815290604052805190602001209050731820a4b7618bde71dce8cdc73aab6c95905fad2473ffffffffffffffffffffffffffffffffffffffff1663aabbb8ca85836040518363ffffffff1660e01b81526004016109e49291906111b5565b602060405180830381865afa1580156109ff573d5f803e3d5ffd5b505050506040513d601f19601f82011682018060405250810190610a2391906111f0565b91505092915050565b5f8183610a399190611275565b905092915050565b5f8183610a4e91906112a5565b905092915050565b5f80fd5b5f80fd5b5f819050919050565b610a7081610a5e565b8114610a7a575f80fd5b50565b5f81359050610a8b81610a67565b92915050565b5f73ffffffffffffffffffffffffffffffffffffffff82169050919050565b5f610aba82610a91565b9050919050565b610aca81610ab0565b8114610ad4575f80fd5b50565b5f81359050610ae581610ac1565b92915050565b5f8060408385031215610b0157610b00610a56565b5b5f610b0e85828601610a7d565b9250506020610b1f85828601610ad7565b9150509250929050565b610b3281610a5e565b82525050565b5f602082019050610b4b5f830184610b29565b92915050565b5f80fd5b5f80fd5b5f80fd5b5f8083601f840112610b7257610b71610b51565b5b8235905067ffffffffffffffff811115610b8f57610b8e610b55565b5b602083019150836001820283011115610bab57610baa610b59565b5b9250929050565b5f819050919050565b610bc481610bb2565b8114610bce575f80fd5b50565b5f81359050610bdf81610bbb565b92915050565b5f805f805f805f805f805f6101008c8e031215610c0557610c04610a56565b5b5f8c013567ffffffffffffffff811115610c2257610c21610a5a565b5b610c2e8e828f01610b5d565b9b509b50506020610c418e828f01610a7d565b9950506040610c528e828f01610ad7565b9850506060610c638e828f01610ad7565b9750506080610c748e828f01610ad7565b96505060a0610c858e828f01610bd1565b95505060c08c013567ffffffffffffffff811115610ca657610ca5610a5a565b5b610cb28e828f01610b5d565b945094505060e08c013567ffffffffffffffff811115610cd557610cd4610a5a565b5b610ce18e828f01610b5d565b92509250509295989b509295989b9093969950565b5f7fff0000000000000000000000000000000000000000000000000000000000000082169050919050565b610d2a81610cf6565b82525050565b5f606082019050610d435f830186610d21565b610d506020830185610b29565b610d5d6040830184610b29565b949350505050565b5f81905092915050565b7f455243313832305f4143434550545f4d414749430000000000000000000000005f82015250565b5f610da3601483610d65565b9150610dae82610d6f565b601482019050919050565b5f610dc382610d97565b9150819050919050565b610dd681610ab0565b82525050565b5f606082019050610def5f830186610b29565b610dfc6020830185610dcd565b610e096040830184610dcd565b949350505050565b5f8115159050919050565b610e2581610e11565b8114610e2f575f80fd5b50565b5f81519050610e4081610e1c565b92915050565b5f60208284031215610e5b57610e5a610a56565b5b5f610e6884828501610e32565b91505092915050565b5f602082019050610e845f830184610dcd565b92915050565b5f81519050610e9881610bbb565b92915050565b5f60208284031215610eb357610eb2610a56565b5b5f610ec084828501610e8a565b91505092915050565b5f604082019050610edc5f830185610b29565b610ee96020830184610dcd565b9392505050565b5f81519050919050565b5f82825260208201905092915050565b8281835e5f83830152505050565b5f601f19601f8301169050919050565b5f610f3282610ef0565b610f3c8185610efa565b9350610f4c818560208601610f0a565b610f5581610f18565b840191505092915050565b610f6981610bb2565b82525050565b5f610100820190508181035f830152610f88818b610f28565b9050610f97602083018a610b29565b610fa46040830189610dcd565b610fb16060830188610dcd565b610fbe6080830187610dcd565b610fcb60a0830186610f60565b81810360c0830152610fdd8185610f28565b905081810360e0830152610ff18184610f28565b90509998505050505050505050565b61100981610ab0565b82525050565b5f82825260208201905092915050565b5f61102982610ef0565b611033818561100f565b9350611043818560208601610f0a565b61104c81610f18565b840191505092915050565b61106081610a5e565b82525050565b61106f81610bb2565b82525050565b5f61012083015f83015161108b5f860182611000565b50602083015184820360208601526110a3828261101f565b91505060408301516110b86040860182611057565b5060608301516110cb6060860182611000565b5060808301516110de6080860182611000565b5060a08301516110f160a0860182611000565b5060c083015161110460c0860182611066565b5060e083015184820360e086015261111c828261101f565b915050610100830151848203610100860152611138828261101f565b9150508091505092915050565b5f6020820190508181035f83015261115d8184611075565b905092915050565b5f81519050919050565b5f61117982611165565b6111838185610d65565b9350611193818560208601610f0a565b80840191505092915050565b5f6111aa828461116f565b915081905092915050565b5f6040820190506111c85f830185610dcd565b6111d56020830184610b29565b9392505050565b5f815190506111ea81610ac1565b92915050565b5f6020828403121561120557611204610a56565b5b5f611212848285016111dc565b91505092915050565b7f4e487b71000000000000000000000000000000000000000000000000000000005f52601260045260245ffd5b7f4e487b71000000000000000000000000000000000000000000000000000000005f52601160045260245ffd5b5f61127f82610bb2565b915061128a83610bb2565b92508261129a5761129961121b565b5b828204905092915050565b5f6112af82610bb2565b91506112ba83610bb2565b92508282026112c881610bb2565b915082820484148315176112df576112de611248565b5b509291505056fea26469706673582212200e60e9bfce904f882a1768d07f920c61998b6244c53cd8ea4bef42a4e2097bbb64736f6c63430008190033",
  "immutableReferences": {},
  "source": "// SPDX-License-Identifier: Apache-2.0\n/*\n * This code has not been reviewed.\n * Do not use or deploy this code before reviewing it personally first.\n */\npragma solidity ^0.8.0;\n\nimport \"@openzeppelin/contracts/utils/math/SafeMath.sol\";\nimport \"@openzeppelin/contracts/token/ERC20/IERC20.sol\";\n\nimport \"../../tools/ERC1820Client.sol\";\nimport \"../../interface/ERC1820Implementer.sol\";\n\nimport \"../../IERC1400.sol\";\n\nimport \"../userExtensions/IERC1400TokensSender.sol\";\nimport \"../userExtensions/IERC1400TokensRecipient.sol\";\n\nimport \"./IERC1400TokensValidator.sol\";\nimport \"./IERC1400TokensChecker.sol\";\n\ninterface IERC1400Extended {\n    // Not a real interface but added here since 'granularity' doesn't belong to IERC1400\n\n    function granularity() external view returns(uint256);\n}\n\ncontract ERC1400TokensChecker is IERC1400TokensChecker, ERC1820Client, ERC1820Implementer {\n  using SafeMath for uint256;\n\n  string constant internal ERC1400_TOKENS_VALIDATOR = \"ERC1400TokensValidator\";\n  string constant internal ERC1400_TOKENS_CHECKER = \"ERC1400TokensChecker\";\n\n  string constant internal ERC1400_TOKENS_SENDER = \"ERC1400TokensSender\";\n  string constant internal ERC1400_TOKENS_RECIPIENT = \"ERC1400TokensRecipient\";\n\n  constructor() {\n    ERC1820Implementer._setInterface(ERC1400_TOKENS_CHECKER);\n  }\n\n  /**\n   * @dev Know the reason on success or failure based on the EIP-1066 application-specific status codes.\n   * @param payload Payload of the initial transaction.\n   * @param partition Name of the partition.\n   * @param operator The address performing the transfer.\n   * @param from Token holder.\n   * @param to Token recipient.\n   * @param value Number of tokens to transfer.\n   * @param data Information attached to the transfer. [CAN CONTAIN THE DESTINATION PARTITION]\n   * @param operatorData Information attached to the transfer, by the operator (if any).\n   * @return ESC (Ethereum Status Code) following the EIP-1066 standard.\n   * @return Additional bytes32 parameter that can be used to define\n   * application specific reason codes with additional details (for example the\n   * transfer restriction rule responsible for making the transfer operation invalid).\n   * @return Destination partition.\n   */\n   function canTransferByPartition(bytes calldata payload, bytes32 partition, address operator, address from, address to, uint256 value, bytes calldata data, bytes calldata operatorData)\n     external\n     override\n     view\n     returns (bytes1, bytes32, bytes32)\n   {\n     return _canTransferByPartition(payload, partition, operator, from, to, value, data, operatorData);\n   }\n\n  /**\n   * @dev Know the reason on success or failure based on the EIP-1066 application-specific status codes.\n   * @param payload Payload of the initial transaction.\n   * @param partition Name of the partition.\n   * @param operator The address performing the transfer.\n   * @param from Token holder.\n   * @param to Token recipient.\n   * @param value Number of tokens to transfer.\n   * @param data Information attached to the transfer. [CAN CONTAIN THE DESTINATION PARTITION]\n   * @param operatorData Information attached to the transfer, by the operator (if any).\n   * @return ESC (Ethereum Status Code) following the EIP-1066 standard.\n   * @return Additional bytes32 parameter that can be used to define\n   * application specific reason codes with additional details (for example the\n   * transfer restriction rule responsible for making the transfer operation invalid).\n   * @return Destination partition.\n   */\n   function _canTransferByPartition(bytes memory payload, bytes32 partition, address operator, address from, address to, uint256 value, bytes memory data, bytes memory operatorData)\n     internal\n     view\n     returns (bytes1, bytes32, bytes32)\n   {\n     if(!IERC1400(msg.sender).isOperatorForPartition(partition, operator, from))\n       return(hex\"58\", \"\", partition); // 0x58\tinvalid operator (transfer agent)\n\n     if((IERC20(msg.sender).balanceOf(from) < value) || (IERC1400(msg.sender).balanceOfByPartition(partition, from) < value))\n       return(hex\"52\", \"\", partition); // 0x52\tinsufficient balance\n\n     if(to == address(0))\n       return(hex\"57\", \"\", partition); // 0x57\tinvalid receiver\n\n     address hookImplementation;\n     \n     hookImplementation = ERC1820Client.interfaceAddr(from, ERC1400_TOKENS_SENDER);\n     if((hookImplementation != address(0))\n       && !IERC1400TokensSender(hookImplementation).canTransfer(payload, partition, operator, from, to, value, data, operatorData))\n       return(hex\"56\", \"\", partition); // 0x56\tinvalid sender\n\n     hookImplementation = ERC1820Client.interfaceAddr(to, ERC1400_TOKENS_RECIPIENT);\n     if((hookImplementation != address(0))\n       && !IERC1400TokensRecipient(hookImplementation).canReceive(payload, partition, operator, from, to, value, data, operatorData))\n       return(hex\"57\", \"\", partition); // 0x57\tinvalid receiver\n\n     hookImplementation = ERC1820Client.interfaceAddr(msg.sender, ERC1400_TOKENS_VALIDATOR);\n     IERC1400TokensValidator.ValidateData memory vdata = IERC1400TokensValidator.ValidateData(msg.sender, payload, partition, operator, from, to, value, data, operatorData);\n     if((hookImplementation != address(0)) \n       && !IERC1400TokensValidator(hookImplementation).canValidate(vdata))\n       return(hex\"54\", \"\", partition); // 0x54\ttransfers halted (contract paused)\n\n     uint256 granularity = IERC1400Extended(msg.sender).granularity();\n     if(!(value.div(granularity).mul(granularity) == value))\n       return(hex\"50\", \"\", partition); // 0x50\ttransfer failure\n\n     return(hex\"51\", \"\", partition);  // 0x51\ttransfer success\n   }\n\n  /**\n   * @dev Know the reason on success or failure based on the EIP-1066 application-specific status codes.\n   * @return ESC (Ethereum Status Code) following the EIP-1066 standard.\n   * @return Additional bytes32 parameter that can be used to define\n   * application specific reason codes with additional details (for example the\n   * transfer restriction rule responsible for making the transfer operation invalid).\n   */\n  // function canTransfer(bytes calldata /*payload*/, address /*operator*/, address /*from*/, address /*to*/, uint256 /*value*/, bytes calldata /*data*/, bytes calldata /*operatorData*/)\n  //   external\n  //   view\n  //   returns (byte, bytes32)\n  // {\n  //   if(!IERC1400(msg.sender).isOperator(operator, from))\n  //      return(hex\"58\", \"\"); // 0x58\tinvalid operator (transfer agent)\n\n  //   byte esc;\n\n  //   bytes32[] memory defaultPartitions = IERC1400(msg.sender).getDefaultPartitions();\n\n  //   if(defaultPartitions.length == 0) {\n  //     return(hex\"55\", \"\"); // 0x55\tfunds locked (lockup period)\n  //   }\n\n  //   uint256 _remainingValue = value;\n  //   uint256 _localBalance;\n\n  //   for (uint i = 0; i < defaultPartitions.length; i++) {\n  //     _localBalance = IERC1400(msg.sender).balanceOfByPartition(defaultPartitions[i], from);\n  //     if(_remainingValue <= _localBalance) {\n  //       (esc,,) = _canTransferByPartition(payload, defaultPartitions[i], operator, from, to, _remainingValue, data, operatorData);\n  //       _remainingValue = 0;\n  //       break;\n  //     } else if (_localBalance != 0) {\n  //       (esc,,) = _canTransferByPartition(payload, defaultPartitions[i], operator, from, to, _localBalance, data, operatorData);\n  //       _remainingValue = _remainingValue - _localBalance;\n  //     }\n  //     if(esc != hex\"51\") {\n  //       return(esc, \"\");\n  //     }\n  //   }\n\n  //   if(_remainingValue != 0) {\n  //     return(hex\"52\", \"\"); // 0x52\tinsufficient balance\n  //   }\n\n  //   return(hex\"51\", \"\"); // 0x51\ttransfer success\n\n  //   return(hex\"00\", \"\");\n  // }\n\n}",
  "sourcePath": "/Users/sergio/Library/Mobile Documents/com~apple~CloudDocs/Master-ciberseguridad-y-privacidad/2-Quatrimestre/TFM/project/truffle/contracts/ERC1400/extensions/tokenExtensions/ERC1400TokensChecker.sol",
  "compiler": {
    "name": "solc",
    "version": "0.8.25+commit.b61c2a91.Emscripten.clang"
  },
  "schemaVersion": "3.4.16",
  "updatedAt": "2024-05-02T17:32:43.169Z",
  "devdoc": {
    "kind": "dev",
    "methods": {
      "canTransferByPartition(bytes,bytes32,address,address,address,uint256,bytes,bytes)": {
        "details": "Know the reason on success or failure based on the EIP-1066 application-specific status codes.",
        "params": {
          "data": "Information attached to the transfer. [CAN CONTAIN THE DESTINATION PARTITION]",
          "from": "Token holder.",
          "operator": "The address performing the transfer.",
          "operatorData": "Information attached to the transfer, by the operator (if any).",
          "partition": "Name of the partition.",
          "payload": "Payload of the initial transaction.",
          "to": "Token recipient.",
          "value": "Number of tokens to transfer."
        },
        "returns": {
          "_0": "ESC (Ethereum Status Code) following the EIP-1066 standard.",
          "_1": "Additional bytes32 parameter that can be used to define application specific reason codes with additional details (for example the transfer restriction rule responsible for making the transfer operation invalid).",
          "_2": "Destination partition."
        }
      }
    },
    "version": 1
  },
  "userdoc": {
    "kind": "user",
    "methods": {},
    "version": 1
  }
}