{
  "contractName": "ERC20Token",
  "abi": [
    {
      "inputs": [
        {
          "internalType": "string",
          "name": "name",
          "type": "string"
        },
        {
          "internalType": "string",
          "name": "symbol",
          "type": "string"
        },
        {
          "internalType": "uint8",
          "name": "__decimals",
          "type": "uint8"
        }
      ],
      "stateMutability": "nonpayable",
      "type": "constructor"
    },
    {
      "anonymous": false,
      "inputs": [
        {
          "indexed": true,
          "internalType": "address",
          "name": "owner",
          "type": "address"
        },
        {
          "indexed": true,
          "internalType": "address",
          "name": "spender",
          "type": "address"
        },
        {
          "indexed": false,
          "internalType": "uint256",
          "name": "value",
          "type": "uint256"
        }
      ],
      "name": "Approval",
      "type": "event"
    },
    {
      "anonymous": false,
      "inputs": [
        {
          "indexed": true,
          "internalType": "address",
          "name": "account",
          "type": "address"
        }
      ],
      "name": "MinterAdded",
      "type": "event"
    },
    {
      "anonymous": false,
      "inputs": [
        {
          "indexed": true,
          "internalType": "address",
          "name": "account",
          "type": "address"
        }
      ],
      "name": "MinterRemoved",
      "type": "event"
    },
    {
      "anonymous": false,
      "inputs": [
        {
          "indexed": true,
          "internalType": "address",
          "name": "previousOwner",
          "type": "address"
        },
        {
          "indexed": true,
          "internalType": "address",
          "name": "newOwner",
          "type": "address"
        }
      ],
      "name": "OwnershipTransferred",
      "type": "event"
    },
    {
      "anonymous": false,
      "inputs": [
        {
          "indexed": false,
          "internalType": "address",
          "name": "account",
          "type": "address"
        }
      ],
      "name": "Paused",
      "type": "event"
    },
    {
      "anonymous": false,
      "inputs": [
        {
          "indexed": true,
          "internalType": "address",
          "name": "from",
          "type": "address"
        },
        {
          "indexed": true,
          "internalType": "address",
          "name": "to",
          "type": "address"
        },
        {
          "indexed": false,
          "internalType": "uint256",
          "name": "value",
          "type": "uint256"
        }
      ],
      "name": "Transfer",
      "type": "event"
    },
    {
      "anonymous": false,
      "inputs": [
        {
          "indexed": false,
          "internalType": "address",
          "name": "account",
          "type": "address"
        }
      ],
      "name": "Unpaused",
      "type": "event"
    },
    {
      "inputs": [
        {
          "internalType": "address",
          "name": "account",
          "type": "address"
        }
      ],
      "name": "addMinter",
      "outputs": [],
      "stateMutability": "nonpayable",
      "type": "function"
    },
    {
      "inputs": [
        {
          "internalType": "address",
          "name": "owner",
          "type": "address"
        },
        {
          "internalType": "address",
          "name": "spender",
          "type": "address"
        }
      ],
      "name": "allowance",
      "outputs": [
        {
          "internalType": "uint256",
          "name": "",
          "type": "uint256"
        }
      ],
      "stateMutability": "view",
      "type": "function"
    },
    {
      "inputs": [
        {
          "internalType": "address",
          "name": "spender",
          "type": "address"
        },
        {
          "internalType": "uint256",
          "name": "amount",
          "type": "uint256"
        }
      ],
      "name": "approve",
      "outputs": [
        {
          "internalType": "bool",
          "name": "",
          "type": "bool"
        }
      ],
      "stateMutability": "nonpayable",
      "type": "function"
    },
    {
      "inputs": [
        {
          "internalType": "address",
          "name": "account",
          "type": "address"
        }
      ],
      "name": "balanceOf",
      "outputs": [
        {
          "internalType": "uint256",
          "name": "",
          "type": "uint256"
        }
      ],
      "stateMutability": "view",
      "type": "function"
    },
    {
      "inputs": [
        {
          "internalType": "uint256",
          "name": "amount",
          "type": "uint256"
        }
      ],
      "name": "burn",
      "outputs": [],
      "stateMutability": "nonpayable",
      "type": "function"
    },
    {
      "inputs": [
        {
          "internalType": "address",
          "name": "account",
          "type": "address"
        },
        {
          "internalType": "uint256",
          "name": "amount",
          "type": "uint256"
        }
      ],
      "name": "burnFrom",
      "outputs": [],
      "stateMutability": "nonpayable",
      "type": "function"
    },
    {
      "inputs": [
        {
          "internalType": "bytes32",
          "name": "interfaceHash",
          "type": "bytes32"
        },
        {
          "internalType": "address",
          "name": "",
          "type": "address"
        }
      ],
      "name": "canImplementInterfaceForAddress",
      "outputs": [
        {
          "internalType": "bytes32",
          "name": "",
          "type": "bytes32"
        }
      ],
      "stateMutability": "view",
      "type": "function"
    },
    {
      "inputs": [
        {
          "internalType": "address",
          "name": "spender",
          "type": "address"
        },
        {
          "internalType": "uint256",
          "name": "subtractedValue",
          "type": "uint256"
        }
      ],
      "name": "decreaseAllowance",
      "outputs": [
        {
          "internalType": "bool",
          "name": "",
          "type": "bool"
        }
      ],
      "stateMutability": "nonpayable",
      "type": "function"
    },
    {
      "inputs": [
        {
          "internalType": "address",
          "name": "spender",
          "type": "address"
        },
        {
          "internalType": "uint256",
          "name": "addedValue",
          "type": "uint256"
        }
      ],
      "name": "increaseAllowance",
      "outputs": [
        {
          "internalType": "bool",
          "name": "",
          "type": "bool"
        }
      ],
      "stateMutability": "nonpayable",
      "type": "function"
    },
    {
      "inputs": [
        {
          "internalType": "address",
          "name": "account",
          "type": "address"
        }
      ],
      "name": "isMinter",
      "outputs": [
        {
          "internalType": "bool",
          "name": "",
          "type": "bool"
        }
      ],
      "stateMutability": "view",
      "type": "function"
    },
    {
      "inputs": [],
      "name": "name",
      "outputs": [
        {
          "internalType": "string",
          "name": "",
          "type": "string"
        }
      ],
      "stateMutability": "view",
      "type": "function"
    },
    {
      "inputs": [],
      "name": "owner",
      "outputs": [
        {
          "internalType": "address",
          "name": "",
          "type": "address"
        }
      ],
      "stateMutability": "view",
      "type": "function"
    },
    {
      "inputs": [],
      "name": "paused",
      "outputs": [
        {
          "internalType": "bool",
          "name": "",
          "type": "bool"
        }
      ],
      "stateMutability": "view",
      "type": "function"
    },
    {
      "inputs": [
        {
          "internalType": "address",
          "name": "account",
          "type": "address"
        }
      ],
      "name": "removeMinter",
      "outputs": [],
      "stateMutability": "nonpayable",
      "type": "function"
    },
    {
      "inputs": [],
      "name": "renounceMinter",
      "outputs": [],
      "stateMutability": "nonpayable",
      "type": "function"
    },
    {
      "inputs": [],
      "name": "renounceOwnership",
      "outputs": [],
      "stateMutability": "nonpayable",
      "type": "function"
    },
    {
      "inputs": [],
      "name": "symbol",
      "outputs": [
        {
          "internalType": "string",
          "name": "",
          "type": "string"
        }
      ],
      "stateMutability": "view",
      "type": "function"
    },
    {
      "inputs": [],
      "name": "totalSupply",
      "outputs": [
        {
          "internalType": "uint256",
          "name": "",
          "type": "uint256"
        }
      ],
      "stateMutability": "view",
      "type": "function"
    },
    {
      "inputs": [
        {
          "internalType": "address",
          "name": "recipient",
          "type": "address"
        },
        {
          "internalType": "uint256",
          "name": "amount",
          "type": "uint256"
        }
      ],
      "name": "transfer",
      "outputs": [
        {
          "internalType": "bool",
          "name": "",
          "type": "bool"
        }
      ],
      "stateMutability": "nonpayable",
      "type": "function"
    },
    {
      "inputs": [
        {
          "internalType": "address",
          "name": "sender",
          "type": "address"
        },
        {
          "internalType": "address",
          "name": "recipient",
          "type": "address"
        },
        {
          "internalType": "uint256",
          "name": "amount",
          "type": "uint256"
        }
      ],
      "name": "transferFrom",
      "outputs": [
        {
          "internalType": "bool",
          "name": "",
          "type": "bool"
        }
      ],
      "stateMutability": "nonpayable",
      "type": "function"
    },
    {
      "inputs": [
        {
          "internalType": "address",
          "name": "newOwner",
          "type": "address"
        }
      ],
      "name": "transferOwnership",
      "outputs": [],
      "stateMutability": "nonpayable",
      "type": "function"
    },
    {
      "inputs": [],
      "name": "decimals",
      "outputs": [
        {
          "internalType": "uint8",
          "name": "",
          "type": "uint8"
        }
      ],
      "stateMutability": "view",
      "type": "function"
    },
    {
      "inputs": [
        {
          "internalType": "address",
          "name": "to",
          "type": "address"
        },
        {
          "internalType": "uint256",
          "name": "value",
          "type": "uint256"
        }
      ],
      "name": "mint",
      "outputs": [
        {
          "internalType": "bool",
          "name": "",
          "type": "bool"
        }
      ],
      "stateMutability": "nonpayable",
      "type": "function"
    }
  ],
  "bytecode": "0x60a060405234801561000f575f80fd5b5060405161301838038061301883398181016040528101906100319190610556565b828261004f6100446100f360201b60201c565b6100fa60201b60201c565b816004908161005e91906107eb565b50806005908161006e91906107eb565b5050505f60065f6101000a81548160ff021916908315150217905550610099336101bb60201b60201c565b6100dd6040518060400160405280600a81526020017f4552433230546f6b656e0000000000000000000000000000000000000000000081525061021560201b60201c565b8060ff1660808160ff1681525050505050610a10565b5f33905090565b5f805f9054906101000a900473ffffffffffffffffffffffffffffffffffffffff169050815f806101000a81548173ffffffffffffffffffffffffffffffffffffffff021916908373ffffffffffffffffffffffffffffffffffffffff1602179055508173ffffffffffffffffffffffffffffffffffffffff168173ffffffffffffffffffffffffffffffffffffffff167f8be0079c531659141344cd1fd0a4f28419497f9722a3daafe3b4186f6b6457e060405160405180910390a35050565b6101cf81600861026760201b90919060201c565b8073ffffffffffffffffffffffffffffffffffffffff167f6ae172837ea30b801fbfcdd4108aa1d5bf8ff775444fd70256b44e6bf3dfc3f660405160405180910390a250565b600160075f8360405160200161022b91906108f4565b6040516020818303038152906040528051906020012081526020019081526020015f205f6101000a81548160ff02191690831515021790555050565b610277828261031160201b60201c565b156102b7576040517f08c379a00000000000000000000000000000000000000000000000000000000081526004016102ae90610964565b60405180910390fd5b6001825f015f8373ffffffffffffffffffffffffffffffffffffffff1673ffffffffffffffffffffffffffffffffffffffff1681526020019081526020015f205f6101000a81548160ff0219169083151502179055505050565b5f8073ffffffffffffffffffffffffffffffffffffffff168273ffffffffffffffffffffffffffffffffffffffff1603610380576040517f08c379a0000000000000000000000000000000000000000000000000000000008152600401610377906109f2565b60405180910390fd5b825f015f8373ffffffffffffffffffffffffffffffffffffffff1673ffffffffffffffffffffffffffffffffffffffff1681526020019081526020015f205f9054906101000a900460ff16905092915050565b5f604051905090565b5f80fd5b5f80fd5b5f80fd5b5f80fd5b5f601f19601f8301169050919050565b7f4e487b71000000000000000000000000000000000000000000000000000000005f52604160045260245ffd5b610432826103ec565b810181811067ffffffffffffffff82111715610451576104506103fc565b5b80604052505050565b5f6104636103d3565b905061046f8282610429565b919050565b5f67ffffffffffffffff82111561048e5761048d6103fc565b5b610497826103ec565b9050602081019050919050565b8281835e5f83830152505050565b5f6104c46104bf84610474565b61045a565b9050828152602081018484840111156104e0576104df6103e8565b5b6104eb8482856104a4565b509392505050565b5f82601f830112610507576105066103e4565b5b81516105178482602086016104b2565b91505092915050565b5f60ff82169050919050565b61053581610520565b811461053f575f80fd5b50565b5f815190506105508161052c565b92915050565b5f805f6060848603121561056d5761056c6103dc565b5b5f84015167ffffffffffffffff81111561058a576105896103e0565b5b610596868287016104f3565b935050602084015167ffffffffffffffff8111156105b7576105b66103e0565b5b6105c3868287016104f3565b92505060406105d486828701610542565b9150509250925092565b5f81519050919050565b7f4e487b71000000000000000000000000000000000000000000000000000000005f52602260045260245ffd5b5f600282049050600182168061062c57607f821691505b60208210810361063f5761063e6105e8565b5b50919050565b5f819050815f5260205f209050919050565b5f6020601f8301049050919050565b5f82821b905092915050565b5f600883026106a17fffffffffffffffffffffffffffffffffffffffffffffffffffffffffffffffff82610666565b6106ab8683610666565b95508019841693508086168417925050509392505050565b5f819050919050565b5f819050919050565b5f6106ef6106ea6106e5846106c3565b6106cc565b6106c3565b9050919050565b5f819050919050565b610708836106d5565b61071c610714826106f6565b848454610672565b825550505050565b5f90565b610730610724565b61073b8184846106ff565b505050565b5b8181101561075e576107535f82610728565b600181019050610741565b5050565b601f8211156107a35761077481610645565b61077d84610657565b8101602085101561078c578190505b6107a061079885610657565b830182610740565b50505b505050565b5f82821c905092915050565b5f6107c35f19846008026107a8565b1980831691505092915050565b5f6107db83836107b4565b9150826002028217905092915050565b6107f4826105de565b67ffffffffffffffff81111561080d5761080c6103fc565b5b6108178254610615565b610822828285610762565b5f60209050601f831160018114610853575f8415610841578287015190505b61084b85826107d0565b8655506108b2565b601f19841661086186610645565b5f5b8281101561088857848901518255600182019150602085019450602081019050610863565b868310156108a557848901516108a1601f8916826107b4565b8355505b6001600288020188555050505b505050505050565b5f81905092915050565b5f6108ce826105de565b6108d881856108ba565b93506108e88185602086016104a4565b80840191505092915050565b5f6108ff82846108c4565b915081905092915050565b5f82825260208201905092915050565b7f526f6c65733a206163636f756e7420616c72656164792068617320726f6c65005f82015250565b5f61094e601f8361090a565b91506109598261091a565b602082019050919050565b5f6020820190508181035f83015261097b81610942565b9050919050565b7f526f6c65733a206163636f756e7420697320746865207a65726f2061646472655f8201527f7373000000000000000000000000000000000000000000000000000000000000602082015250565b5f6109dc60228361090a565b91506109e782610982565b604082019050919050565b5f6020820190508181035f830152610a09816109d0565b9050919050565b6080516125f0610a285f395f6106a501526125f05ff3fe608060405234801561000f575f80fd5b506004361061014b575f3560e01c806370a08231116100c1578063986502751161007a578063986502751461039d578063a457c2d7146103a7578063a9059cbb146103d7578063aa271e1a14610407578063dd62ed3e14610437578063f2fde38b146104675761014b565b806370a08231146102ef578063715018a61461031f57806379cc6790146103295780638da5cb5b1461034557806395d89b4114610363578063983b2d56146103815761014b565b80633092afd5116101135780633092afd51461021b578063313ce56714610237578063395093511461025557806340c10f191461028557806342966c68146102b55780635c975abb146102d15761014b565b806306fdde031461014f578063095ea7b31461016d57806318160ddd1461019d57806323b872dd146101bb578063249cb3fa146101eb575b5f80fd5b610157610483565b6040516101649190611843565b60405180910390f35b610187600480360381019061018291906118f4565b610513565b604051610194919061194c565b60405180910390f35b6101a5610530565b6040516101b29190611974565b60405180910390f35b6101d560048036038101906101d0919061198d565b610539565b6040516101e2919061194c565b60405180910390f35b61020560048036038101906102009190611a10565b61062b565b6040516102129190611a5d565b60405180910390f35b61023560048036038101906102309190611a76565b610685565b005b61023f6106a2565b60405161024c9190611abc565b60405180910390f35b61026f600480360381019061026a91906118f4565b6106c9565b60405161027c919061194c565b60405180910390f35b61029f600480360381019061029a91906118f4565b610770565b6040516102ac919061194c565b60405180910390f35b6102cf60048036038101906102ca9190611ad5565b610796565b005b6102d96107aa565b6040516102e6919061194c565b60405180910390f35b61030960048036038101906103049190611a76565b6107bf565b6040516103169190611974565b60405180910390f35b610327610805565b005b610343600480360381019061033e91906118f4565b61088c565b005b61034d610906565b60405161035a9190611b0f565b60405180910390f35b61036b61092d565b6040516103789190611843565b60405180910390f35b61039b60048036038101906103969190611a76565b6109bd565b005b6103a56109da565b005b6103c160048036038101906103bc91906118f4565b6109e5565b6040516103ce919061194c565b60405180910390f35b6103f160048036038101906103ec91906118f4565b610acb565b6040516103fe919061194c565b60405180910390f35b610421600480360381019061041c9190611a76565b610ae8565b60405161042e919061194c565b60405180910390f35b610451600480360381019061044c9190611b28565b610b04565b60405161045e9190611974565b60405180910390f35b610481600480360381019061047c9190611a76565b610b86565b005b60606004805461049290611b93565b80601f01602080910402602001604051908101604052809291908181526020018280546104be90611b93565b80156105095780601f106104e057610100808354040283529160200191610509565b820191905f5260205f20905b8154815290600101906020018083116104ec57829003601f168201915b5050505050905090565b5f61052661051f610c7c565b8484610c83565b6001905092915050565b5f600354905090565b5f610545848484610e46565b5f60025f8673ffffffffffffffffffffffffffffffffffffffff1673ffffffffffffffffffffffffffffffffffffffff1681526020019081526020015f205f61058c610c7c565b73ffffffffffffffffffffffffffffffffffffffff1673ffffffffffffffffffffffffffffffffffffffff1681526020019081526020015f205490508281101561060b576040517f08c379a000000000000000000000000000000000000000000000000000000000815260040161060290611c33565b60405180910390fd5b61061f85610617610c7c565b858403610c83565b60019150509392505050565b5f60075f8481526020019081526020015f205f9054906101000a900460ff161561067b5760405160200161065e90611ca5565b60405160208183030381529060405280519060200120905061067f565b5f90505b92915050565b61068e33610ae8565b610696575f80fd5b61069f816110be565b50565b5f7f0000000000000000000000000000000000000000000000000000000000000000905090565b5f6107666106d5610c7c565b848460025f6106e2610c7c565b73ffffffffffffffffffffffffffffffffffffffff1673ffffffffffffffffffffffffffffffffffffffff1681526020019081526020015f205f8873ffffffffffffffffffffffffffffffffffffffff1673ffffffffffffffffffffffffffffffffffffffff1681526020019081526020015f20546107619190611ce6565b610c83565b6001905092915050565b5f61077a33610ae8565b610782575f80fd5b61078c8383611118565b6001905092915050565b6107a76107a1610c7c565b82611270565b50565b5f60065f9054906101000a900460ff16905090565b5f60015f8373ffffffffffffffffffffffffffffffffffffffff1673ffffffffffffffffffffffffffffffffffffffff1681526020019081526020015f20549050919050565b61080d610c7c565b73ffffffffffffffffffffffffffffffffffffffff1661082b610906565b73ffffffffffffffffffffffffffffffffffffffff1614610881576040517f08c379a000000000000000000000000000000000000000000000000000000000815260040161087890611d63565b60405180910390fd5b61088a5f61143e565b565b5f61089e83610899610c7c565b610b04565b9050818110156108e3576040517f08c379a00000000000000000000000000000000000000000000000000000000081526004016108da90611df1565b60405180910390fd5b6108f7836108ef610c7c565b848403610c83565b6109018383611270565b505050565b5f805f9054906101000a900473ffffffffffffffffffffffffffffffffffffffff16905090565b60606005805461093c90611b93565b80601f016020809104026020016040519081016040528092919081815260200182805461096890611b93565b80156109b35780601f1061098a576101008083540402835291602001916109b3565b820191905f5260205f20905b81548152906001019060200180831161099657829003601f168201915b5050505050905090565b6109c633610ae8565b6109ce575f80fd5b6109d7816114ff565b50565b6109e3336110be565b565b5f8060025f6109f2610c7c565b73ffffffffffffffffffffffffffffffffffffffff1673ffffffffffffffffffffffffffffffffffffffff1681526020019081526020015f205f8573ffffffffffffffffffffffffffffffffffffffff1673ffffffffffffffffffffffffffffffffffffffff1681526020019081526020015f2054905082811015610aac576040517f08c379a0000000000000000000000000000000000000000000000000000000008152600401610aa390611e7f565b60405180910390fd5b610ac0610ab7610c7c565b85858403610c83565b600191505092915050565b5f610ade610ad7610c7c565b8484610e46565b6001905092915050565b5f610afd82600861155990919063ffffffff16565b9050919050565b5f60025f8473ffffffffffffffffffffffffffffffffffffffff1673ffffffffffffffffffffffffffffffffffffffff1681526020019081526020015f205f8373ffffffffffffffffffffffffffffffffffffffff1673ffffffffffffffffffffffffffffffffffffffff1681526020019081526020015f2054905092915050565b610b8e610c7c565b73ffffffffffffffffffffffffffffffffffffffff16610bac610906565b73ffffffffffffffffffffffffffffffffffffffff1614610c02576040517f08c379a0000000000000000000000000000000000000000000000000000000008152600401610bf990611d63565b60405180910390fd5b5f73ffffffffffffffffffffffffffffffffffffffff168173ffffffffffffffffffffffffffffffffffffffff1603610c70576040517f08c379a0000000000000000000000000000000000000000000000000000000008152600401610c6790611f0d565b60405180910390fd5b610c798161143e565b50565b5f33905090565b5f73ffffffffffffffffffffffffffffffffffffffff168373ffffffffffffffffffffffffffffffffffffffff1603610cf1576040517f08c379a0000000000000000000000000000000000000000000000000000000008152600401610ce890611f9b565b60405180910390fd5b5f73ffffffffffffffffffffffffffffffffffffffff168273ffffffffffffffffffffffffffffffffffffffff1603610d5f576040517f08c379a0000000000000000000000000000000000000000000000000000000008152600401610d5690612029565b60405180910390fd5b8060025f8573ffffffffffffffffffffffffffffffffffffffff1673ffffffffffffffffffffffffffffffffffffffff1681526020019081526020015f205f8473ffffffffffffffffffffffffffffffffffffffff1673ffffffffffffffffffffffffffffffffffffffff1681526020019081526020015f20819055508173ffffffffffffffffffffffffffffffffffffffff168373ffffffffffffffffffffffffffffffffffffffff167f8c5be1e5ebec7d5bd14f71427d1e84f3dd0314c0f7b2291e5b200ac8c7c3b92583604051610e399190611974565b60405180910390a3505050565b5f73ffffffffffffffffffffffffffffffffffffffff168373ffffffffffffffffffffffffffffffffffffffff1603610eb4576040517f08c379a0000000000000000000000000000000000000000000000000000000008152600401610eab906120b7565b60405180910390fd5b5f73ffffffffffffffffffffffffffffffffffffffff168273ffffffffffffffffffffffffffffffffffffffff1603610f22576040517f08c379a0000000000000000000000000000000000000000000000000000000008152600401610f1990612145565b60405180910390fd5b610f2d83838361161b565b5f60015f8573ffffffffffffffffffffffffffffffffffffffff1673ffffffffffffffffffffffffffffffffffffffff1681526020019081526020015f2054905081811015610fb1576040517f08c379a0000000000000000000000000000000000000000000000000000000008152600401610fa8906121d3565b60405180910390fd5b81810360015f8673ffffffffffffffffffffffffffffffffffffffff1673ffffffffffffffffffffffffffffffffffffffff1681526020019081526020015f20819055508160015f8573ffffffffffffffffffffffffffffffffffffffff1673ffffffffffffffffffffffffffffffffffffffff1681526020019081526020015f205f8282546110419190611ce6565b925050819055508273ffffffffffffffffffffffffffffffffffffffff168473ffffffffffffffffffffffffffffffffffffffff167fddf252ad1be2c89b69c2b068fc378daa952ba7f163c4a11628f55a4df523b3ef846040516110a59190611974565b60405180910390a36110b884848461162b565b50505050565b6110d281600861163090919063ffffffff16565b8073ffffffffffffffffffffffffffffffffffffffff167fe94479a9f7e1952cc78f2d6baab678adc1b772d936c6583def489e524cb6669260405160405180910390a250565b5f73ffffffffffffffffffffffffffffffffffffffff168273ffffffffffffffffffffffffffffffffffffffff1603611186576040517f08c379a000000000000000000000000000000000000000000000000000000000815260040161117d9061223b565b60405180910390fd5b6111915f838361161b565b8060035f8282546111a29190611ce6565b925050819055508060015f8473ffffffffffffffffffffffffffffffffffffffff1673ffffffffffffffffffffffffffffffffffffffff1681526020019081526020015f205f8282546111f59190611ce6565b925050819055508173ffffffffffffffffffffffffffffffffffffffff165f73ffffffffffffffffffffffffffffffffffffffff167fddf252ad1be2c89b69c2b068fc378daa952ba7f163c4a11628f55a4df523b3ef836040516112599190611974565b60405180910390a361126c5f838361162b565b5050565b5f73ffffffffffffffffffffffffffffffffffffffff168273ffffffffffffffffffffffffffffffffffffffff16036112de576040517f08c379a00000000000000000000000000000000000000000000000000000000081526004016112d5906122c9565b60405180910390fd5b6112e9825f8361161b565b5f60015f8473ffffffffffffffffffffffffffffffffffffffff1673ffffffffffffffffffffffffffffffffffffffff1681526020019081526020015f205490508181101561136d576040517f08c379a000000000000000000000000000000000000000000000000000000000815260040161136490612357565b60405180910390fd5b81810360015f8573ffffffffffffffffffffffffffffffffffffffff1673ffffffffffffffffffffffffffffffffffffffff1681526020019081526020015f20819055508160035f8282546113c29190612375565b925050819055505f73ffffffffffffffffffffffffffffffffffffffff168373ffffffffffffffffffffffffffffffffffffffff167fddf252ad1be2c89b69c2b068fc378daa952ba7f163c4a11628f55a4df523b3ef846040516114269190611974565b60405180910390a3611439835f8461162b565b505050565b5f805f9054906101000a900473ffffffffffffffffffffffffffffffffffffffff169050815f806101000a81548173ffffffffffffffffffffffffffffffffffffffff021916908373ffffffffffffffffffffffffffffffffffffffff1602179055508173ffffffffffffffffffffffffffffffffffffffff168173ffffffffffffffffffffffffffffffffffffffff167f8be0079c531659141344cd1fd0a4f28419497f9722a3daafe3b4186f6b6457e060405160405180910390a35050565b6115138160086116d290919063ffffffff16565b8073ffffffffffffffffffffffffffffffffffffffff167f6ae172837ea30b801fbfcdd4108aa1d5bf8ff775444fd70256b44e6bf3dfc3f660405160405180910390a250565b5f8073ffffffffffffffffffffffffffffffffffffffff168273ffffffffffffffffffffffffffffffffffffffff16036115c8576040517f08c379a00000000000000000000000000000000000000000000000000000000081526004016115bf90612418565b60405180910390fd5b825f015f8373ffffffffffffffffffffffffffffffffffffffff1673ffffffffffffffffffffffffffffffffffffffff1681526020019081526020015f205f9054906101000a900460ff16905092915050565b611626838383611776565b505050565b505050565b61163a8282611559565b611679576040517f08c379a0000000000000000000000000000000000000000000000000000000008152600401611670906124a6565b60405180910390fd5b5f825f015f8373ffffffffffffffffffffffffffffffffffffffff1673ffffffffffffffffffffffffffffffffffffffff1681526020019081526020015f205f6101000a81548160ff0219169083151502179055505050565b6116dc8282611559565b1561171c576040517f08c379a00000000000000000000000000000000000000000000000000000000081526004016117139061250e565b60405180910390fd5b6001825f015f8373ffffffffffffffffffffffffffffffffffffffff1673ffffffffffffffffffffffffffffffffffffffff1681526020019081526020015f205f6101000a81548160ff0219169083151502179055505050565b6117818383836117ce565b6117896107aa565b156117c9576040517f08c379a00000000000000000000000000000000000000000000000000000000081526004016117c09061259c565b60405180910390fd5b505050565b505050565b5f81519050919050565b5f82825260208201905092915050565b8281835e5f83830152505050565b5f601f19601f8301169050919050565b5f611815826117d3565b61181f81856117dd565b935061182f8185602086016117ed565b611838816117fb565b840191505092915050565b5f6020820190508181035f83015261185b818461180b565b905092915050565b5f80fd5b5f73ffffffffffffffffffffffffffffffffffffffff82169050919050565b5f61189082611867565b9050919050565b6118a081611886565b81146118aa575f80fd5b50565b5f813590506118bb81611897565b92915050565b5f819050919050565b6118d3816118c1565b81146118dd575f80fd5b50565b5f813590506118ee816118ca565b92915050565b5f806040838503121561190a57611909611863565b5b5f611917858286016118ad565b9250506020611928858286016118e0565b9150509250929050565b5f8115159050919050565b61194681611932565b82525050565b5f60208201905061195f5f83018461193d565b92915050565b61196e816118c1565b82525050565b5f6020820190506119875f830184611965565b92915050565b5f805f606084860312156119a4576119a3611863565b5b5f6119b1868287016118ad565b93505060206119c2868287016118ad565b92505060406119d3868287016118e0565b9150509250925092565b5f819050919050565b6119ef816119dd565b81146119f9575f80fd5b50565b5f81359050611a0a816119e6565b92915050565b5f8060408385031215611a2657611a25611863565b5b5f611a33858286016119fc565b9250506020611a44858286016118ad565b9150509250929050565b611a57816119dd565b82525050565b5f602082019050611a705f830184611a4e565b92915050565b5f60208284031215611a8b57611a8a611863565b5b5f611a98848285016118ad565b91505092915050565b5f60ff82169050919050565b611ab681611aa1565b82525050565b5f602082019050611acf5f830184611aad565b92915050565b5f60208284031215611aea57611ae9611863565b5b5f611af7848285016118e0565b91505092915050565b611b0981611886565b82525050565b5f602082019050611b225f830184611b00565b92915050565b5f8060408385031215611b3e57611b3d611863565b5b5f611b4b858286016118ad565b9250506020611b5c858286016118ad565b9150509250929050565b7f4e487b71000000000000000000000000000000000000000000000000000000005f52602260045260245ffd5b5f6002820490506001821680611baa57607f821691505b602082108103611bbd57611bbc611b66565b5b50919050565b7f45524332303a207472616e7366657220616d6f756e74206578636565647320615f8201527f6c6c6f77616e6365000000000000000000000000000000000000000000000000602082015250565b5f611c1d6028836117dd565b9150611c2882611bc3565b604082019050919050565b5f6020820190508181035f830152611c4a81611c11565b9050919050565b5f81905092915050565b7f455243313832305f4143434550545f4d414749430000000000000000000000005f82015250565b5f611c8f601483611c51565b9150611c9a82611c5b565b601482019050919050565b5f611caf82611c83565b9150819050919050565b7f4e487b71000000000000000000000000000000000000000000000000000000005f52601160045260245ffd5b5f611cf0826118c1565b9150611cfb836118c1565b9250828201905080821115611d1357611d12611cb9565b5b92915050565b7f4f776e61626c653a2063616c6c6572206973206e6f7420746865206f776e65725f82015250565b5f611d4d6020836117dd565b9150611d5882611d19565b602082019050919050565b5f6020820190508181035f830152611d7a81611d41565b9050919050565b7f45524332303a206275726e20616d6f756e74206578636565647320616c6c6f775f8201527f616e636500000000000000000000000000000000000000000000000000000000602082015250565b5f611ddb6024836117dd565b9150611de682611d81565b604082019050919050565b5f6020820190508181035f830152611e0881611dcf565b9050919050565b7f45524332303a2064656372656173656420616c6c6f77616e63652062656c6f775f8201527f207a65726f000000000000000000000000000000000000000000000000000000602082015250565b5f611e696025836117dd565b9150611e7482611e0f565b604082019050919050565b5f6020820190508181035f830152611e9681611e5d565b9050919050565b7f4f776e61626c653a206e6577206f776e657220697320746865207a65726f20615f8201527f6464726573730000000000000000000000000000000000000000000000000000602082015250565b5f611ef76026836117dd565b9150611f0282611e9d565b604082019050919050565b5f6020820190508181035f830152611f2481611eeb565b9050919050565b7f45524332303a20617070726f76652066726f6d20746865207a65726f206164645f8201527f7265737300000000000000000000000000000000000000000000000000000000602082015250565b5f611f856024836117dd565b9150611f9082611f2b565b604082019050919050565b5f6020820190508181035f830152611fb281611f79565b9050919050565b7f45524332303a20617070726f766520746f20746865207a65726f2061646472655f8201527f7373000000000000000000000000000000000000000000000000000000000000602082015250565b5f6120136022836117dd565b915061201e82611fb9565b604082019050919050565b5f6020820190508181035f83015261204081612007565b9050919050565b7f45524332303a207472616e736665722066726f6d20746865207a65726f2061645f8201527f6472657373000000000000000000000000000000000000000000000000000000602082015250565b5f6120a16025836117dd565b91506120ac82612047565b604082019050919050565b5f6020820190508181035f8301526120ce81612095565b9050919050565b7f45524332303a207472616e7366657220746f20746865207a65726f20616464725f8201527f6573730000000000000000000000000000000000000000000000000000000000602082015250565b5f61212f6023836117dd565b915061213a826120d5565b604082019050919050565b5f6020820190508181035f83015261215c81612123565b9050919050565b7f45524332303a207472616e7366657220616d6f756e74206578636565647320625f8201527f616c616e63650000000000000000000000000000000000000000000000000000602082015250565b5f6121bd6026836117dd565b91506121c882612163565b604082019050919050565b5f6020820190508181035f8301526121ea816121b1565b9050919050565b7f45524332303a206d696e7420746f20746865207a65726f2061646472657373005f82015250565b5f612225601f836117dd565b9150612230826121f1565b602082019050919050565b5f6020820190508181035f83015261225281612219565b9050919050565b7f45524332303a206275726e2066726f6d20746865207a65726f206164647265735f8201527f7300000000000000000000000000000000000000000000000000000000000000602082015250565b5f6122b36021836117dd565b91506122be82612259565b604082019050919050565b5f6020820190508181035f8301526122e0816122a7565b9050919050565b7f45524332303a206275726e20616d6f756e7420657863656564732062616c616e5f8201527f6365000000000000000000000000000000000000000000000000000000000000602082015250565b5f6123416022836117dd565b915061234c826122e7565b604082019050919050565b5f6020820190508181035f83015261236e81612335565b9050919050565b5f61237f826118c1565b915061238a836118c1565b92508282039050818111156123a2576123a1611cb9565b5b92915050565b7f526f6c65733a206163636f756e7420697320746865207a65726f2061646472655f8201527f7373000000000000000000000000000000000000000000000000000000000000602082015250565b5f6124026022836117dd565b915061240d826123a8565b604082019050919050565b5f6020820190508181035f83015261242f816123f6565b9050919050565b7f526f6c65733a206163636f756e7420646f6573206e6f74206861766520726f6c5f8201527f6500000000000000000000000000000000000000000000000000000000000000602082015250565b5f6124906021836117dd565b915061249b82612436565b604082019050919050565b5f6020820190508181035f8301526124bd81612484565b9050919050565b7f526f6c65733a206163636f756e7420616c72656164792068617320726f6c65005f82015250565b5f6124f8601f836117dd565b9150612503826124c4565b602082019050919050565b5f6020820190508181035f830152612525816124ec565b9050919050565b7f45524332305061757361626c653a20746f6b656e207472616e736665722077685f8201527f696c652070617573656400000000000000000000000000000000000000000000602082015250565b5f612586602a836117dd565b91506125918261252c565b604082019050919050565b5f6020820190508181035f8301526125b38161257a565b905091905056fea2646970667358221220458053f38b033bd012e09c5603571b7b432974a1feb4d8fcc7e3963ec8caef1164736f6c63430008190033",
  "immutableReferences": {
    "15214": [
      {
        "length": 32,
        "start": 1701
      }
    ]
  },
  "source": "// SPDX-License-Identifier: Apache-2.0\npragma solidity ^0.8.0;\n\nimport \"@openzeppelin/contracts/access/Ownable.sol\";\n\nimport \"@openzeppelin/contracts/token/ERC20/extensions/ERC20Burnable.sol\";\nimport \"@openzeppelin/contracts/token/ERC20/extensions/ERC20Pausable.sol\";\n\nimport \"../interface/ERC1820Implementer.sol\";\nimport \"../roles/MinterRole.sol\";\n\ncontract ERC20Token is Ownable, ERC20Burnable, ERC20Pausable, ERC1820Implementer, MinterRole {\n  string constant internal ERC20_TOKEN = \"ERC20Token\";\n  uint8 immutable internal _decimals;\n\n  constructor(string memory name, string memory symbol, uint8 __decimals) ERC20(name, symbol) {\n    ERC1820Implementer._setInterface(ERC20_TOKEN);\n    _decimals = __decimals;\n  }\n\n  /**\n    * @dev Returns the number of decimals used to get its user representation.\n    * For example, if `decimals` equals `2`, a balance of `505` tokens should\n    * be displayed to a user as `5,05` (`505 / 10 ** 2`).\n    *\n    * Tokens usually opt for a value of 18, imitating the relationship between\n    * Ether and Wei. This is the value {ERC20} uses, unless this function is\n    * overridden;\n    *\n    * NOTE: This information is only used for _display_ purposes: it in\n    * no way affects any of the arithmetic of the contract, including\n    * {IERC20-balanceOf} and {IERC20-transfer}.\n    */\n  function decimals() public view virtual override returns (uint8) {\n      return _decimals;\n  }\n\n    /**\n    * @dev Function to mint tokens\n    * @param to The address that will receive the minted tokens.\n    * @param value The amount of tokens to mint.\n    * @return A boolean that indicates if the operation was successful.\n    */\n  function mint(address to, uint256 value) public onlyMinter returns (bool) {\n      _mint(to, value);\n      return true;\n  }\n  \n  function _beforeTokenTransfer(\n      address from,\n      address to,\n      uint256 amount\n  ) internal override(ERC20Pausable, ERC20) {\n    ERC20Pausable._beforeTokenTransfer(from, to, amount);\n  }\n\n  /************************************* Domain Aware ******************************************/\n/*  function domainName() public override view returns (string memory) {\n    return name();\n  }\n\n  function domainVersion() public override view returns (string memory) {\n    return \"1\";\n  }*/\n  /************************************************************************************************/\n}",
  "sourcePath": "/Users/sergio/Library/Mobile Documents/com~apple~CloudDocs/Master-ciberseguridad-y-privacidad/2-Quatrimestre/TFM/project/truffle/contracts/ERC1400/tokens/ERC20Token.sol",
  "compiler": {
    "name": "solc",
    "version": "0.8.25+commit.b61c2a91.Emscripten.clang"
  },
  "schemaVersion": "3.4.16",
  "updatedAt": "2024-05-02T17:32:43.432Z",
  "devdoc": {
    "events": {
      "Approval(address,address,uint256)": {
        "details": "Emitted when the allowance of a `spender` for an `owner` is set by a call to {approve}. `value` is the new allowance."
      },
      "Paused(address)": {
        "details": "Emitted when the pause is triggered by `account`."
      },
      "Transfer(address,address,uint256)": {
        "details": "Emitted when `value` tokens are moved from one account (`from`) to another (`to`). Note that `value` may be zero."
      },
      "Unpaused(address)": {
        "details": "Emitted when the pause is lifted by `account`."
      }
    },
    "kind": "dev",
    "methods": {
      "allowance(address,address)": {
        "details": "See {IERC20-allowance}."
      },
      "approve(address,uint256)": {
        "details": "See {IERC20-approve}. Requirements: - `spender` cannot be the zero address."
      },
      "balanceOf(address)": {
        "details": "See {IERC20-balanceOf}."
      },
      "burn(uint256)": {
        "details": "Destroys `amount` tokens from the caller. See {ERC20-_burn}."
      },
      "burnFrom(address,uint256)": {
        "details": "Destroys `amount` tokens from `account`, deducting from the caller's allowance. See {ERC20-_burn} and {ERC20-allowance}. Requirements: - the caller must have allowance for ``accounts``'s tokens of at least `amount`."
      },
      "decimals()": {
        "details": "Returns the number of decimals used to get its user representation. For example, if `decimals` equals `2`, a balance of `505` tokens should be displayed to a user as `5,05` (`505 / 10 ** 2`). Tokens usually opt for a value of 18, imitating the relationship between Ether and Wei. This is the value {ERC20} uses, unless this function is overridden; NOTE: This information is only used for _display_ purposes: it in no way affects any of the arithmetic of the contract, including {IERC20-balanceOf} and {IERC20-transfer}."
      },
      "decreaseAllowance(address,uint256)": {
        "details": "Atomically decreases the allowance granted to `spender` by the caller. This is an alternative to {approve} that can be used as a mitigation for problems described in {IERC20-approve}. Emits an {Approval} event indicating the updated allowance. Requirements: - `spender` cannot be the zero address. - `spender` must have allowance for the caller of at least `subtractedValue`."
      },
      "increaseAllowance(address,uint256)": {
        "details": "Atomically increases the allowance granted to `spender` by the caller. This is an alternative to {approve} that can be used as a mitigation for problems described in {IERC20-approve}. Emits an {Approval} event indicating the updated allowance. Requirements: - `spender` cannot be the zero address."
      },
      "mint(address,uint256)": {
        "details": "Function to mint tokens",
        "params": {
          "to": "The address that will receive the minted tokens.",
          "value": "The amount of tokens to mint."
        },
        "returns": {
          "_0": "A boolean that indicates if the operation was successful."
        }
      },
      "name()": {
        "details": "Returns the name of the token."
      },
      "owner()": {
        "details": "Returns the address of the current owner."
      },
      "paused()": {
        "details": "Returns true if the contract is paused, and false otherwise."
      },
      "renounceOwnership()": {
        "details": "Leaves the contract without owner. It will not be possible to call `onlyOwner` functions anymore. Can only be called by the current owner. NOTE: Renouncing ownership will leave the contract without an owner, thereby removing any functionality that is only available to the owner."
      },
      "symbol()": {
        "details": "Returns the symbol of the token, usually a shorter version of the name."
      },
      "totalSupply()": {
        "details": "See {IERC20-totalSupply}."
      },
      "transfer(address,uint256)": {
        "details": "See {IERC20-transfer}. Requirements: - `recipient` cannot be the zero address. - the caller must have a balance of at least `amount`."
      },
      "transferFrom(address,address,uint256)": {
        "details": "See {IERC20-transferFrom}. Emits an {Approval} event indicating the updated allowance. This is not required by the EIP. See the note at the beginning of {ERC20}. Requirements: - `sender` and `recipient` cannot be the zero address. - `sender` must have a balance of at least `amount`. - the caller must have allowance for ``sender``'s tokens of at least `amount`."
      },
      "transferOwnership(address)": {
        "details": "Transfers ownership of the contract to a new account (`newOwner`). Can only be called by the current owner."
      }
    },
    "version": 1
  },
  "userdoc": {
    "kind": "user",
    "methods": {},
    "version": 1
  }
}