{
  "contractName": "FundIssuer",
  "abi": [
    {
      "inputs": [],
      "stateMutability": "nonpayable",
      "type": "constructor"
    },
    {
      "inputs": [
        {
          "internalType": "bytes32",
          "name": "interfaceHash",
          "type": "bytes32"
        },
        {
          "internalType": "address",
          "name": "",
          "type": "address"
        }
      ],
      "name": "canImplementInterfaceForAddress",
      "outputs": [
        {
          "internalType": "bytes32",
          "name": "",
          "type": "bytes32"
        }
      ],
      "stateMutability": "view",
      "type": "function"
    },
    {
      "inputs": [
        {
          "internalType": "bytes",
          "name": "",
          "type": "bytes"
        },
        {
          "internalType": "bytes32",
          "name": "",
          "type": "bytes32"
        },
        {
          "internalType": "address",
          "name": "",
          "type": "address"
        },
        {
          "internalType": "address",
          "name": "",
          "type": "address"
        },
        {
          "internalType": "address",
          "name": "",
          "type": "address"
        },
        {
          "internalType": "uint256",
          "name": "",
          "type": "uint256"
        },
        {
          "internalType": "bytes",
          "name": "data",
          "type": "bytes"
        },
        {
          "internalType": "bytes",
          "name": "operatorData",
          "type": "bytes"
        }
      ],
      "name": "canReceive",
      "outputs": [
        {
          "internalType": "bool",
          "name": "",
          "type": "bool"
        }
      ],
      "stateMutability": "pure",
      "type": "function"
    },
    {
      "inputs": [
        {
          "internalType": "bytes",
          "name": "",
          "type": "bytes"
        },
        {
          "internalType": "bytes32",
          "name": "partition",
          "type": "bytes32"
        },
        {
          "internalType": "address",
          "name": "",
          "type": "address"
        },
        {
          "internalType": "address",
          "name": "from",
          "type": "address"
        },
        {
          "internalType": "address",
          "name": "to",
          "type": "address"
        },
        {
          "internalType": "uint256",
          "name": "value",
          "type": "uint256"
        },
        {
          "internalType": "bytes",
          "name": "data",
          "type": "bytes"
        },
        {
          "internalType": "bytes",
          "name": "operatorData",
          "type": "bytes"
        }
      ],
      "name": "tokensReceived",
      "outputs": [],
      "stateMutability": "nonpayable",
      "type": "function"
    },
    {
      "inputs": [
        {
          "internalType": "address",
          "name": "assetAddress",
          "type": "address"
        },
        {
          "internalType": "bytes32",
          "name": "assetClass",
          "type": "bytes32"
        },
        {
          "internalType": "uint256",
          "name": "firstStartTime",
          "type": "uint256"
        },
        {
          "internalType": "uint256",
          "name": "subscriptionPeriodLength",
          "type": "uint256"
        },
        {
          "internalType": "uint256",
          "name": "valuationPeriodLength",
          "type": "uint256"
        },
        {
          "internalType": "uint256",
          "name": "paymentPeriodLength",
          "type": "uint256"
        },
        {
          "internalType": "enum FundIssuer.Payment",
          "name": "paymentType",
          "type": "uint8"
        },
        {
          "internalType": "address",
          "name": "paymentAddress",
          "type": "address"
        },
        {
          "internalType": "bytes32",
          "name": "paymentPartition",
          "type": "bytes32"
        },
        {
          "internalType": "address",
          "name": "fundAddress",
          "type": "address"
        },
        {
          "internalType": "bool",
          "name": "subscriptionsOpened",
          "type": "bool"
        }
      ],
      "name": "setAssetRules",
      "outputs": [],
      "stateMutability": "nonpayable",
      "type": "function"
    },
    {
      "inputs": [
        {
          "internalType": "address",
          "name": "assetAddress",
          "type": "address"
        },
        {
          "internalType": "bytes32",
          "name": "assetClass",
          "type": "bytes32"
        },
        {
          "internalType": "enum FundIssuer.AssetValue",
          "name": "assetValueType",
          "type": "uint8"
        },
        {
          "internalType": "uint256",
          "name": "assetValue",
          "type": "uint256"
        },
        {
          "internalType": "uint256",
          "name": "reverseAssetValue",
          "type": "uint256"
        }
      ],
      "name": "setAssetValueRules",
      "outputs": [],
      "stateMutability": "nonpayable",
      "type": "function"
    },
    {
      "inputs": [
        {
          "internalType": "address",
          "name": "assetAddress",
          "type": "address"
        },
        {
          "internalType": "bytes32",
          "name": "assetClass",
          "type": "bytes32"
        },
        {
          "internalType": "uint256",
          "name": "orderValue",
          "type": "uint256"
        },
        {
          "internalType": "uint256",
          "name": "orderAmount",
          "type": "uint256"
        },
        {
          "internalType": "enum FundIssuer.OrderType",
          "name": "orderType",
          "type": "uint8"
        },
        {
          "internalType": "bool",
          "name": "executePaymentAtSubscription",
          "type": "bool"
        }
      ],
      "name": "subscribe",
      "outputs": [
        {
          "internalType": "uint256",
          "name": "",
          "type": "uint256"
        }
      ],
      "stateMutability": "payable",
      "type": "function"
    },
    {
      "inputs": [
        {
          "internalType": "uint256",
          "name": "orderIndex",
          "type": "uint256"
        }
      ],
      "name": "cancelOrder",
      "outputs": [],
      "stateMutability": "nonpayable",
      "type": "function"
    },
    {
      "inputs": [
        {
          "internalType": "uint256",
          "name": "orderIndex",
          "type": "uint256"
        },
        {
          "internalType": "bool",
          "name": "rejected",
          "type": "bool"
        }
      ],
      "name": "rejectOrder",
      "outputs": [],
      "stateMutability": "nonpayable",
      "type": "function"
    },
    {
      "inputs": [
        {
          "internalType": "uint256",
          "name": "cycleIndex",
          "type": "uint256"
        },
        {
          "internalType": "uint256",
          "name": "assetValue",
          "type": "uint256"
        },
        {
          "internalType": "uint256",
          "name": "reverseAssetValue",
          "type": "uint256"
        }
      ],
      "name": "valuate",
      "outputs": [],
      "stateMutability": "nonpayable",
      "type": "function"
    },
    {
      "inputs": [
        {
          "internalType": "uint256",
          "name": "orderIndex",
          "type": "uint256"
        }
      ],
      "name": "executePaymentAsInvestor",
      "outputs": [],
      "stateMutability": "payable",
      "type": "function"
    },
    {
      "inputs": [
        {
          "internalType": "uint256",
          "name": "orderIndex",
          "type": "uint256"
        },
        {
          "internalType": "bool",
          "name": "bypassPayment",
          "type": "bool"
        }
      ],
      "name": "executePaymentAsController",
      "outputs": [],
      "stateMutability": "nonpayable",
      "type": "function"
    },
    {
      "inputs": [
        {
          "internalType": "uint256[]",
          "name": "orderIndexes",
          "type": "uint256[]"
        },
        {
          "internalType": "bool",
          "name": "bypassPayment",
          "type": "bool"
        }
      ],
      "name": "batchExecutePaymentsAsController",
      "outputs": [],
      "stateMutability": "nonpayable",
      "type": "function"
    },
    {
      "inputs": [
        {
          "internalType": "uint256[]",
          "name": "orderIndexes",
          "type": "uint256[]"
        }
      ],
      "name": "batchSettleOrders",
      "outputs": [],
      "stateMutability": "nonpayable",
      "type": "function"
    },
    {
      "inputs": [
        {
          "internalType": "uint256",
          "name": "cycleIndex",
          "type": "uint256"
        }
      ],
      "name": "finalizeCycle",
      "outputs": [],
      "stateMutability": "nonpayable",
      "type": "function"
    },
    {
      "inputs": [
        {
          "internalType": "uint256",
          "name": "cycleIndex",
          "type": "uint256"
        }
      ],
      "name": "getTotalSettledForCycle",
      "outputs": [
        {
          "internalType": "uint256",
          "name": "",
          "type": "uint256"
        },
        {
          "internalType": "uint256",
          "name": "",
          "type": "uint256"
        },
        {
          "internalType": "bool",
          "name": "",
          "type": "bool"
        }
      ],
      "stateMutability": "view",
      "type": "function"
    },
    {
      "inputs": [
        {
          "internalType": "uint256",
          "name": "cycleIndex",
          "type": "uint256"
        }
      ],
      "name": "getCycleState",
      "outputs": [
        {
          "internalType": "enum FundIssuer.CycleState",
          "name": "",
          "type": "uint8"
        }
      ],
      "stateMutability": "view",
      "type": "function"
    },
    {
      "inputs": [
        {
          "internalType": "address",
          "name": "tokenAddress",
          "type": "address"
        }
      ],
      "name": "tokenControllers",
      "outputs": [
        {
          "internalType": "address[]",
          "name": "",
          "type": "address[]"
        }
      ],
      "stateMutability": "view",
      "type": "function"
    },
    {
      "inputs": [
        {
          "internalType": "address",
          "name": "tokenAddress",
          "type": "address"
        },
        {
          "internalType": "address[]",
          "name": "operators",
          "type": "address[]"
        }
      ],
      "name": "setTokenControllers",
      "outputs": [],
      "stateMutability": "nonpayable",
      "type": "function"
    },
    {
      "inputs": [
        {
          "internalType": "address",
          "name": "tokenAddress",
          "type": "address"
        }
      ],
      "name": "priceOracles",
      "outputs": [
        {
          "internalType": "address[]",
          "name": "",
          "type": "address[]"
        }
      ],
      "stateMutability": "view",
      "type": "function"
    },
    {
      "inputs": [
        {
          "internalType": "address",
          "name": "tokenAddress",
          "type": "address"
        },
        {
          "internalType": "address[]",
          "name": "oracles",
          "type": "address[]"
        }
      ],
      "name": "setPriceOracles",
      "outputs": [],
      "stateMutability": "nonpayable",
      "type": "function"
    },
    {
      "inputs": [
        {
          "internalType": "address",
          "name": "assetAddress",
          "type": "address"
        },
        {
          "internalType": "bytes32",
          "name": "assetClass",
          "type": "bytes32"
        }
      ],
      "name": "getAssetRules",
      "outputs": [
        {
          "internalType": "uint256",
          "name": "",
          "type": "uint256"
        },
        {
          "internalType": "uint256",
          "name": "",
          "type": "uint256"
        },
        {
          "internalType": "uint256",
          "name": "",
          "type": "uint256"
        },
        {
          "internalType": "uint256",
          "name": "",
          "type": "uint256"
        },
        {
          "internalType": "enum FundIssuer.Payment",
          "name": "",
          "type": "uint8"
        },
        {
          "internalType": "address",
          "name": "",
          "type": "address"
        },
        {
          "internalType": "bytes32",
          "name": "",
          "type": "bytes32"
        },
        {
          "internalType": "address",
          "name": "",
          "type": "address"
        },
        {
          "internalType": "bool",
          "name": "",
          "type": "bool"
        }
      ],
      "stateMutability": "view",
      "type": "function"
    },
    {
      "inputs": [
        {
          "internalType": "address",
          "name": "assetAddress",
          "type": "address"
        },
        {
          "internalType": "bytes32",
          "name": "assetClass",
          "type": "bytes32"
        }
      ],
      "name": "getAssetValueRules",
      "outputs": [
        {
          "internalType": "enum FundIssuer.AssetValue",
          "name": "",
          "type": "uint8"
        },
        {
          "internalType": "uint256",
          "name": "",
          "type": "uint256"
        },
        {
          "internalType": "uint256",
          "name": "",
          "type": "uint256"
        }
      ],
      "stateMutability": "view",
      "type": "function"
    },
    {
      "inputs": [],
      "name": "getNbCycles",
      "outputs": [
        {
          "internalType": "uint256",
          "name": "",
          "type": "uint256"
        }
      ],
      "stateMutability": "view",
      "type": "function"
    },
    {
      "inputs": [
        {
          "internalType": "address",
          "name": "assetAddress",
          "type": "address"
        },
        {
          "internalType": "bytes32",
          "name": "assetClass",
          "type": "bytes32"
        }
      ],
      "name": "getLastCycleIndex",
      "outputs": [
        {
          "internalType": "uint256",
          "name": "",
          "type": "uint256"
        }
      ],
      "stateMutability": "view",
      "type": "function"
    },
    {
      "inputs": [
        {
          "internalType": "uint256",
          "name": "index",
          "type": "uint256"
        }
      ],
      "name": "getCycle",
      "outputs": [
        {
          "internalType": "address",
          "name": "",
          "type": "address"
        },
        {
          "internalType": "bytes32",
          "name": "",
          "type": "bytes32"
        },
        {
          "internalType": "uint256",
          "name": "",
          "type": "uint256"
        },
        {
          "internalType": "uint256",
          "name": "",
          "type": "uint256"
        },
        {
          "internalType": "uint256",
          "name": "",
          "type": "uint256"
        },
        {
          "internalType": "uint256",
          "name": "",
          "type": "uint256"
        },
        {
          "internalType": "enum FundIssuer.Payment",
          "name": "",
          "type": "uint8"
        },
        {
          "internalType": "address",
          "name": "",
          "type": "address"
        },
        {
          "internalType": "bytes32",
          "name": "",
          "type": "bytes32"
        },
        {
          "internalType": "bool",
          "name": "",
          "type": "bool"
        }
      ],
      "stateMutability": "view",
      "type": "function"
    },
    {
      "inputs": [
        {
          "internalType": "uint256",
          "name": "index",
          "type": "uint256"
        }
      ],
      "name": "getCycleAssetValue",
      "outputs": [
        {
          "internalType": "enum FundIssuer.AssetValue",
          "name": "",
          "type": "uint8"
        },
        {
          "internalType": "uint256",
          "name": "",
          "type": "uint256"
        },
        {
          "internalType": "uint256",
          "name": "",
          "type": "uint256"
        }
      ],
      "stateMutability": "view",
      "type": "function"
    },
    {
      "inputs": [],
      "name": "getNbOrders",
      "outputs": [
        {
          "internalType": "uint256",
          "name": "",
          "type": "uint256"
        }
      ],
      "stateMutability": "view",
      "type": "function"
    },
    {
      "inputs": [
        {
          "internalType": "uint256",
          "name": "index",
          "type": "uint256"
        }
      ],
      "name": "getOrder",
      "outputs": [
        {
          "internalType": "uint256",
          "name": "",
          "type": "uint256"
        },
        {
          "internalType": "address",
          "name": "",
          "type": "address"
        },
        {
          "internalType": "uint256",
          "name": "",
          "type": "uint256"
        },
        {
          "internalType": "uint256",
          "name": "",
          "type": "uint256"
        },
        {
          "internalType": "enum FundIssuer.OrderType",
          "name": "",
          "type": "uint8"
        },
        {
          "internalType": "enum FundIssuer.OrderState",
          "name": "",
          "type": "uint8"
        }
      ],
      "stateMutability": "view",
      "type": "function"
    },
    {
      "inputs": [
        {
          "internalType": "uint256",
          "name": "orderIndex",
          "type": "uint256"
        }
      ],
      "name": "getOrderAmountAndValue",
      "outputs": [
        {
          "internalType": "uint256",
          "name": "",
          "type": "uint256"
        },
        {
          "internalType": "uint256",
          "name": "",
          "type": "uint256"
        }
      ],
      "stateMutability": "view",
      "type": "function"
    },
    {
      "inputs": [
        {
          "internalType": "uint256",
          "name": "index",
          "type": "uint256"
        }
      ],
      "name": "getCycleOrders",
      "outputs": [
        {
          "internalType": "uint256[]",
          "name": "",
          "type": "uint256[]"
        }
      ],
      "stateMutability": "view",
      "type": "function"
    },
    {
      "inputs": [
        {
          "internalType": "address",
          "name": "investor",
          "type": "address"
        }
      ],
      "name": "getInvestorOrders",
      "outputs": [
        {
          "internalType": "uint256[]",
          "name": "",
          "type": "uint256[]"
        }
      ],
      "stateMutability": "view",
      "type": "function"
    }
  ],
  "bytecode": "0x608060405234801561000f575f80fd5b506100546040518060400160405280600a81526020017f46756e64497373756572000000000000000000000000000000000000000000008152506100e260201b60201c565b6100986040518060400160405280601681526020017f45524331343030546f6b656e73526563697069656e74000000000000000000008152506100e260201b60201c565b6100dd6040518060400160405280601681526020017f45524331343030546f6b656e73526563697069656e74000000000000000000008152503061013360201b60201c565b6102d4565b60015f80836040516020016100f79190610232565b6040516020818303038152906040528051906020012081526020019081526020015f205f6101000a81548160ff02191690831515021790555050565b5f826040516020016101459190610232565b604051602081830303815290604052805190602001209050731820a4b7618bde71dce8cdc73aab6c95905fad2473ffffffffffffffffffffffffffffffffffffffff166329965a1d3083856040518463ffffffff1660e01b81526004016101ae9392919061029f565b5f604051808303815f87803b1580156101c5575f80fd5b505af11580156101d7573d5f803e3d5ffd5b50505050505050565b5f81519050919050565b5f81905092915050565b8281835e5f83830152505050565b5f61020c826101e0565b61021681856101ea565b93506102268185602086016101f4565b80840191505092915050565b5f61023d8284610202565b915081905092915050565b5f73ffffffffffffffffffffffffffffffffffffffff82169050919050565b5f61027182610248565b9050919050565b61028181610267565b82525050565b5f819050919050565b61029981610287565b82525050565b5f6060820190506102b25f830186610278565b6102bf6020830185610290565b6102cc6040830184610278565b949350505050565b617f9f806102e15f395ff3fe6080604052600436106101d7575f3560e01c80637eee436811610101578063dec4618411610094578063ec96dfb411610063578063ec96dfb414610740578063f29748ce14610768578063f464b57614610798578063f55886df146107c0576101d7565b8063dec461841461066e578063e236d43c146106b2578063e252822a146106da578063e6eb8f2a14610718576101d7565b8063b2a2eef3116100d0578063b2a2eef3146105a1578063bffdf759146105dd578063ccf6e61014610605578063d09ef2411461062d576101d7565b80637eee4368146104f957806380e9dbb51461052157806398e57fc71461053d578063ac4b6e0f14610579576101d7565b806329403eac116101795780634fa3501d116101485780634fa3501d1461042d578063514fcac7146104575780636a836a4a1461047f578063759561fa146104bd576101d7565b806329403eac1461034e5780633361cbb41461038a5780633e5cf76c146103c75780634eef9fcf14610405576101d7565b806318847ee1116101b557806318847ee11461027b5780632026f638146102a557806321e20e8b146102ea578063249cb3fa14610312576101d7565b806301374518146101db57806301636f4e1461021757806303adad231461023f575b5f80fd5b3480156101e6575f80fd5b5061020160048036038101906101fc91906157ec565b6107fc565b60405161020e91906158ce565b60405180910390f35b348015610222575f80fd5b5061023d6004803603810190610238919061594f565b6108c4565b005b34801561024a575f80fd5b50610265600480360381019061026091906159df565b61095e565b6040516102729190615ac1565b60405180910390f35b348015610286575f80fd5b5061028f6109c5565b60405161029c9190615af0565b60405180910390f35b3480156102b0575f80fd5b506102cb60048036038101906102c691906159df565b6109ce565b6040516102e19a99989796959493929190615bbd565b60405180910390f35b3480156102f5575f80fd5b50610310600480360381019061030b91906159df565b610a97565b005b34801561031d575f80fd5b5061033860048036038101906103339190615c81565b610caf565b6040516103459190615cbf565b60405180910390f35b348015610359575f80fd5b50610374600480360381019061036f91906157ec565b610d08565b6040516103819190615ac1565b60405180910390f35b348015610395575f80fd5b506103b060048036038101906103ab91906159df565b610d9b565b6040516103be929190615cd8565b60405180910390f35b3480156103d2575f80fd5b506103ed60048036038101906103e891906159df565b610daf565b6040516103fc93929190615cff565b60405180910390f35b348015610410575f80fd5b5061042b60048036038101906104269190615db3565b610dc8565b005b348015610438575f80fd5b50610441610f09565b60405161044e9190615af0565b60405180910390f35b348015610462575f80fd5b5061047d600480360381019061047891906159df565b610f12565b005b34801561048a575f80fd5b506104a560048036038101906104a09190615e10565b611146565b6040516104b493929190615e94565b60405180910390f35b3480156104c8575f80fd5b506104e360048036038101906104de91906157ec565b6111c1565b6040516104f091906158ce565b60405180910390f35b348015610504575f80fd5b5061051f600480360381019061051a9190615eec565b611289565b005b61053b600480360381019061053691906159df565b611403565b005b348015610548575f80fd5b50610563600480360381019061055e9190615e10565b6114cc565b6040516105709190615af0565b60405180910390f35b348015610584575f80fd5b5061059f600480360381019061059a9190615f63565b611522565b005b3480156105ac575f80fd5b506105c760048036038101906105c291906159df565b611615565b6040516105d49190615fe7565b60405180910390f35b3480156105e8575f80fd5b5061060360048036038101906105fe9190616000565b611626565b005b348015610610575f80fd5b5061062b60048036038101906106269190615f63565b611718565b005b348015610638575f80fd5b50610653600480360381019061064e91906159df565b6119ee565b604051610665969594939291906160d7565b60405180910390f35b348015610679575f80fd5b50610694600480360381019061068f9190615e10565b611a73565b6040516106a999989796959493929190616136565b60405180910390f35b3480156106bd575f80fd5b506106d860048036038101906106d391906161c1565b611b70565b005b3480156106e5575f80fd5b5061070060048036038101906106fb91906159df565b611d6d565b60405161070f93929190615e94565b60405180910390f35b348015610723575f80fd5b5061073e60048036038101906107399190616234565b611dad565b005b34801561074b575f80fd5b506107666004803603810190610761919061594f565b612276565b005b610782600480360381019061077d9190616344565b612310565b60405161078f9190615af0565b60405180910390f35b3480156107a3575f80fd5b506107be60048036038101906107b99190616422565b61239f565b005b3480156107cb575f80fd5b506107e660048036038101906107e19190616422565b612867565b6040516107f39190616533565b60405180910390f35b6060600e5f8373ffffffffffffffffffffffffffffffffffffffff1673ffffffffffffffffffffffffffffffffffffffff1681526020019081526020015f208054806020026020016040519081016040528092919081815260200182805480156108b857602002820191905f5260205f20905b815f9054906101000a900473ffffffffffffffffffffffffffffffffffffffff1673ffffffffffffffffffffffffffffffffffffffff168152602001906001019080831161086f575b50505050509050919050565b826108cf8133612909565b61090e576040517f08c379a0000000000000000000000000000000000000000000000000000000008152600401610905906165a6565b60405180910390fd5b610958848484808060200260200160405190810160405280939291908181526020018383602002808284375f81840152601f19601f82011690508083019250505050505050612a39565b50505050565b606060075f8381526020019081526020015f208054806020026020016040519081016040528092919081815260200182805480156109b957602002820191905f5260205f20905b8154815260200190600101908083116109a5575b50505050509050919050565b5f600254905090565b5f805f805f805f805f805f60035f8d81526020019081526020015f209050805f015f9054906101000a900473ffffffffffffffffffffffffffffffffffffffff1681600101548260020154836003015484600401548560050154866009015f9054906101000a900460ff168760090160019054906101000a900473ffffffffffffffffffffffffffffffffffffffff1688600a015489600b0160149054906101000a900460ff169a509a509a509a509a509a509a509a509a509a50509193959799509193959799565b5f60035f8381526020019081526020015f209050610ad733825f015f9054906101000a900473ffffffffffffffffffffffffffffffffffffffff16612caf565b610b16576040517f08c379a0000000000000000000000000000000000000000000000000000000008152600401610b0d90616634565b60405180910390fd5b80600b0160149054906101000a900460ff1615610b68576040517f08c379a0000000000000000000000000000000000000000000000000000000008152600401610b5f9061669c565b60405180910390fd5b5f80610b7384612def565b925092505080610c6e57600183600b0160146101000a81548160ff0219169083151502179055505f8214610c6957825f015f9054906101000a900473ffffffffffffffffffffffffffffffffffffffff1673ffffffffffffffffffffffffffffffffffffffff1663f3d490db846001015485600b015f9054906101000a900473ffffffffffffffffffffffffffffffffffffffff16856040518463ffffffff1660e01b8152600401610c27939291906166ed565b6020604051808303815f875af1158015610c43573d5f803e3d5ffd5b505050506040513d601f19601f82011682018060405250810190610c679190616749565b505b610ca9565b6040517f08c379a0000000000000000000000000000000000000000000000000000000008152600401610ca0906167be565b60405180910390fd5b50505050565b5f805f8481526020019081526020015f205f9054906101000a900460ff1615610cfe57604051602001610ce190616830565b604051602081830303815290604052805190602001209050610d02565b5f90505b92915050565b606060085f8373ffffffffffffffffffffffffffffffffffffffff1673ffffffffffffffffffffffffffffffffffffffff1681526020019081526020015f20805480602002602001604051908101604052809291908181526020018280548015610d8f57602002820191905f5260205f20905b815481526020019060010190808311610d7b575b50505050509050919050565b5f80610da683612fb1565b91509150915091565b5f805f610dbb84612def565b9250925092509193909250565b5f5b83839050811015610f03575f60065f868685818110610dec57610deb616844565b5b9050602002013581526020019081526020015f2090505f60035f835f015481526020019081526020015f209050610e4533825f015f9054906101000a900473ffffffffffffffffffffffffffffffffffffffff16612caf565b610e84576040517f08c379a0000000000000000000000000000000000000000000000000000000008152600401610e7b90616634565b60405180910390fd5b610ef4868685818110610e9a57610e99616844565b5b905060200201355f67ffffffffffffffff811115610ebb57610eba616871565b5b6040519080825280601f01601f191660200182016040528015610eed5781602001600182028036833780820191505090505b50866130fc565b50508080600101915050610dca565b50505050565b5f600554905090565b5f60065f8381526020019081526020015f20905060016006811115610f3a57610f39615b30565b5b8160040160019054906101000a900460ff166006811115610f5e57610f5d615b30565b5b1480610f9f575060026006811115610f7957610f78615b30565b5b8160040160019054906101000a900460ff166006811115610f9d57610f9c615b30565b5b145b610fde576040517f08c379a0000000000000000000000000000000000000000000000000000000008152600401610fd59061690e565b60405180910390fd5b60026005811115610ff257610ff1615b30565b5b610ffe825f0154613d3b565b60058111156110105761100f615b30565b5b10611050576040517f08c379a00000000000000000000000000000000000000000000000000000000081526004016110479061699c565b60405180910390fd5b806001015f9054906101000a900473ffffffffffffffffffffffffffffffffffffffff1673ffffffffffffffffffffffffffffffffffffffff163373ffffffffffffffffffffffffffffffffffffffff16146110aa575f80fd5b600260068111156110be576110bd615b30565b5b8160040160019054906101000a900460ff1660068111156110e2576110e1615b30565b5b036111155761111482826001015f9054906101000a900473ffffffffffffffffffffffffffffffffffffffff16613e3a565b5b60058160040160016101000a81548160ff0219169083600681111561113d5761113c615b30565b5b02179055505050565b5f805f8060015f8773ffffffffffffffffffffffffffffffffffffffff1673ffffffffffffffffffffffffffffffffffffffff1681526020019081526020015f205f8681526020019081526020015f209050806005015f9054906101000a900460ff1681600601548260070154935093509350509250925092565b6060600c5f8373ffffffffffffffffffffffffffffffffffffffff1673ffffffffffffffffffffffffffffffffffffffff1681526020019081526020015f2080548060200260200160405190810160405280929190818152602001828054801561127d57602002820191905f5260205f20905b815f9054906101000a900473ffffffffffffffffffffffffffffffffffffffff1673ffffffffffffffffffffffffffffffffffffffff1681526020019060010190808311611234575b50505050509050919050565b846112948133612909565b6112d3576040517f08c379a00000000000000000000000000000000000000000000000000000000081526004016112ca906165a6565b60405180910390fd5b5f60015f8873ffffffffffffffffffffffffffffffffffffffff1673ffffffffffffffffffffffffffffffffffffffff1681526020019081526020015f205f8781526020019081526020015f209050805f015f9054906101000a900460ff16611371576040517f08c379a000000000000000000000000000000000000000000000000000000000815260040161136890616a04565b60405180910390fd5b5f84148061137e57505f83145b6113bd576040517f08c379a00000000000000000000000000000000000000000000000000000000081526004016113b490616a92565b60405180910390fd5b84816005015f6101000a81548160ff021916908360018111156113e3576113e2615b30565b5b021790555083816006018190555082816007018190555050505050505050565b5f60065f8381526020019081526020015f209050806001015f9054906101000a900473ffffffffffffffffffffffffffffffffffffffff1673ffffffffffffffffffffffffffffffffffffffff163373ffffffffffffffffffffffffffffffffffffffff1614611471575f80fd5b6114c8825f67ffffffffffffffff81111561148f5761148e616871565b5b6040519080825280601f01601f1916602001820160405280156114c15781602001600182028036833780820191505090505b505f6130fc565b5050565b5f60045f8473ffffffffffffffffffffffffffffffffffffffff1673ffffffffffffffffffffffffffffffffffffffff1681526020019081526020015f205f8381526020019081526020015f2054905092915050565b5f60065f8481526020019081526020015f2090505f60035f835f015481526020019081526020015f20905061157933825f015f9054906101000a900473ffffffffffffffffffffffffffffffffffffffff16612caf565b6115b8576040517f08c379a00000000000000000000000000000000000000000000000000000000081526004016115af90616634565b60405180910390fd5b61160f845f67ffffffffffffffff8111156115d6576115d5616871565b5b6040519080825280601f01601f1916602001820160405280156116085781602001600182028036833780820191505090505b50856130fc565b50505050565b5f61161f82613d3b565b9050919050565b5f5b82829050811015611713575f60065f85858581811061164a57611649616844565b5b9050602002013581526020019081526020015f2090505f60035f835f015481526020019081526020015f2090506116a333825f015f9054906101000a900473ffffffffffffffffffffffffffffffffffffffff16612caf565b6116e2576040517f08c379a00000000000000000000000000000000000000000000000000000000081526004016116d990616634565b60405180910390fd5b6117048585858181106116f8576116f7616844565b5b90506020020135614345565b50508080600101915050611628565b505050565b5f60065f8481526020019081526020015f209050600160068111156117405761173f615b30565b5b8160040160019054906101000a900460ff16600681111561176457611763615b30565b5b14806117a557506002600681111561177f5761177e615b30565b5b8160040160019054906101000a900460ff1660068111156117a3576117a2615b30565b5b145b806117e457506006808111156117be576117bd615b30565b5b8160040160019054906101000a900460ff1660068111156117e2576117e1615b30565b5b145b611823576040517f08c379a000000000000000000000000000000000000000000000000000000000815260040161181a90616b20565b60405180910390fd5b6003600581111561183757611836615b30565b5b611843825f0154613d3b565b600581111561185557611854615b30565b5b10611895576040517f08c379a000000000000000000000000000000000000000000000000000000000815260040161188c90616bae565b60405180910390fd5b5f60035f835f015481526020019081526020015f2090506118d833825f015f9054906101000a900473ffffffffffffffffffffffffffffffffffffffff16612caf565b611917576040517f08c379a000000000000000000000000000000000000000000000000000000000815260040161190e90616634565b60405180910390fd5b82156119ba576002600681111561193157611930615b30565b5b8260040160019054906101000a900460ff16600681111561195557611954615b30565b5b036119885761198784836001015f9054906101000a900473ffffffffffffffffffffffffffffffffffffffff16613e3a565b5b60068260040160016101000a81548160ff021916908360068111156119b0576119af615b30565b5b02179055506119e8565b60018260040160016101000a81548160ff021916908360068111156119e2576119e1615b30565b5b02179055505b50505050565b5f805f805f805f60065f8981526020019081526020015f209050805f0154816001015f9054906101000a900473ffffffffffffffffffffffffffffffffffffffff1682600201548360030154846004015f9054906101000a900460ff168560040160019054906101000a900460ff169650965096509650965096505091939550919395565b5f805f805f805f805f8060015f8d73ffffffffffffffffffffffffffffffffffffffff1673ffffffffffffffffffffffffffffffffffffffff1681526020019081526020015f205f8c81526020019081526020015f2090508060010154816002015482600301548360040154846008015f9054906101000a900460ff168560080160019054906101000a900473ffffffffffffffffffffffffffffffffffffffff16866009015487600a015f9054906101000a900473ffffffffffffffffffffffffffffffffffffffff1688600a0160149054906101000a900460ff16995099509950995099509950995099509950509295985092959850929598565b5f60035f8581526020019081526020015f2090505f611b8e85613d3b565b905060016005811115611ba457611ba3615b30565b5b816005811115611bb757611bb6615b30565b5b118015611be8575060036005811115611bd357611bd2615b30565b5b816005811115611be657611be5615b30565b5b105b611c27576040517f08c379a0000000000000000000000000000000000000000000000000000000008152600401611c1e90616c3c565b60405180910390fd5b5f6001811115611c3a57611c39615b30565b5b826006015f9054906101000a900460ff166001811115611c5d57611c5c615b30565b5b14611c9d576040517f08c379a0000000000000000000000000000000000000000000000000000000008152600401611c9490616cca565b60405180910390fd5b5f841480611caa57505f83145b611ce9576040517f08c379a0000000000000000000000000000000000000000000000000000000008152600401611ce090616a92565b60405180910390fd5b611d15825f015f9054906101000a900473ffffffffffffffffffffffffffffffffffffffff1633612909565b611d54576040517f08c379a0000000000000000000000000000000000000000000000000000000008152600401611d4b906165a6565b60405180910390fd5b8382600701819055508282600801819055505050505050565b5f805f8060035f8681526020019081526020015f209050806006015f9054906101000a900460ff1681600701548260080154935093509350509193909250565b8a611db83382612caf565b611df7576040517f08c379a0000000000000000000000000000000000000000000000000000000008152600401611dee90616634565b60405180910390fd5b5f60015f8e73ffffffffffffffffffffffffffffffffffffffff1673ffffffffffffffffffffffffffffffffffffffff1681526020019081526020015f205f8d81526020019081526020015f209050428b1015611e89576040517f08c379a0000000000000000000000000000000000000000000000000000000008152600401611e8090616d58565b60405180910390fd5b5f8a14158015611e9957505f8914155b8015611ea557505f8814155b611ee4576040517f08c379a0000000000000000000000000000000000000000000000000000000008152600401611edb90616dc0565b60405180910390fd5b805f015f9054906101000a900460ff1615611ff7578a816001018190555089816002018190555088816003018190555087816004018190555086816008015f6101000a81548160ff02191690836003811115611f4357611f42615b30565b5b0217905550858160080160016101000a81548173ffffffffffffffffffffffffffffffffffffffff021916908373ffffffffffffffffffffffffffffffffffffffff1602179055508481600901819055508381600a015f6101000a81548173ffffffffffffffffffffffffffffffffffffffff021916908373ffffffffffffffffffffffffffffffffffffffff1602179055508281600a0160146101000a81548160ff021916908315150217905550612267565b604051806101a001604052806001151581526020018c81526020018b81526020018a81526020018981526020015f600181111561203757612036615b30565b5b81526020015f81526020015f815260200188600381111561205b5761205a615b30565b5b81526020018773ffffffffffffffffffffffffffffffffffffffff1681526020018681526020018573ffffffffffffffffffffffffffffffffffffffff16815260200184151581525060015f8f73ffffffffffffffffffffffffffffffffffffffff1673ffffffffffffffffffffffffffffffffffffffff1681526020019081526020015f205f8e81526020019081526020015f205f820151815f015f6101000a81548160ff0219169083151502179055506020820151816001015560408201518160020155606082015181600301556080820151816004015560a0820151816005015f6101000a81548160ff0219169083600181111561215f5761215e615b30565b5b021790555060c0820151816006015560e08201518160070155610100820151816008015f6101000a81548160ff021916908360038111156121a3576121a2615b30565b5b02179055506101208201518160080160016101000a81548173ffffffffffffffffffffffffffffffffffffffff021916908373ffffffffffffffffffffffffffffffffffffffff160217905550610140820151816009015561016082015181600a015f6101000a81548173ffffffffffffffffffffffffffffffffffffffff021916908373ffffffffffffffffffffffffffffffffffffffff16021790555061018082015181600a0160146101000a81548160ff0219169083151502179055509050505b50505050505050505050505050565b826122813382612caf565b6122c0576040517f08c379a00000000000000000000000000000000000000000000000000000000081526004016122b790616634565b60405180910390fd5b61230a848484808060200260200160405190810160405280939291908181526020018383602002808284375f81840152601f19601f8201169050808301925050505050505061479f565b50505050565b5f8085858560405160200161232793929190616dde565b604051602081830303815290604052905061239233898984875f67ffffffffffffffff81111561235a57612359616871565b5b6040519080825280601f01601f19166020018201604052801561238c5781602001600182028036833780820191505090505b50614a15565b9150509695505050505050565b3373ffffffffffffffffffffffffffffffffffffffff166123f5336040518060400160405280600c81526020017f45524331343030546f6b656e0000000000000000000000000000000000000000815250614f10565b73ffffffffffffffffffffffffffffffffffffffff161461244b576040517f08c379a000000000000000000000000000000000000000000000000000000000815260040161244290616e5d565b60405180910390fd5b3073ffffffffffffffffffffffffffffffffffffffff168673ffffffffffffffffffffffffffffffffffffffff16146124b9576040517f08c379a00000000000000000000000000000000000000000000000000000000081526004016124b090616ec5565b60405180910390fd5b61254984848080601f0160208091040260200160405190810160405280939291908181526020018383808284375f81840152601f19601f8201169050808301925050505050505083838080601f0160208091040260200160405190810160405280939291908181526020018383808284375f81840152601f19601f82011690508083019250505050505050614fd2565b612588576040517f08c379a000000000000000000000000000000000000000000000000000000000815260040161257f90616f2d565b60405180910390fd5b5f6125d585858080601f0160208091040260200160405190810160405280939291908181526020018383808284375f81840152601f19601f820116905080830192505050505050506150bd565b90505f338b886040516020016125ed93929190616f4b565b60405160208183030381529060405290507fcccccccccccccccccccccccccccccccccccccccccccccccccccccccccccccccc5f1b820361272c575f61267487878080601f0160208091040260200160405190810160405280939291908181526020018383808284375f81840152601f19601f820116905080830192505050505050506150ca565b90505f6126c388888080601f0160208091040260200160405190810160405280939291908181526020018383808284375f81840152601f19601f820116905080830192505050505050506150d7565b90505f61271289898080601f0160208091040260200160405190810160405280939291908181526020018383808284375f81840152601f19601f820116905080830192505050505050506150e4565b90506127238c848484600189614a15565b50505050612858565b7fdddddddddddddddddddddddddddddddddddddddddddddddddddddddddddddddd5f1b8203612857575f6127a287878080601f0160208091040260200160405190810160405280939291908181526020018383808284375f81840152601f19601f8201169050808301925050505050505061512c565b90505f60065f8381526020019081526020015f209050806001015f9054906101000a900473ffffffffffffffffffffffffffffffffffffffff1673ffffffffffffffffffffffffffffffffffffffff168b73ffffffffffffffffffffffffffffffffffffffff1614612849576040517f08c379a000000000000000000000000000000000000000000000000000000000815260040161284090616ff0565b60405180910390fd5b61285482845f6130fc565b50505b5b50505050505050505050505050565b5f6128f885858080601f0160208091040260200160405190810160405280939291908181526020018383808284375f81840152601f19601f8201169050808301925050505050505084848080601f0160208091040260200160405190810160405280939291908181526020018383808284375f81840152601f19601f82011690508083019250505050505050614fd2565b90509b9a5050505050505050505050565b5f600f5f8473ffffffffffffffffffffffffffffffffffffffff1673ffffffffffffffffffffffffffffffffffffffff1681526020019081526020015f205f8373ffffffffffffffffffffffffffffffffffffffff1673ffffffffffffffffffffffffffffffffffffffff1681526020019081526020015f205f9054906101000a900460ff1680612a3157508273ffffffffffffffffffffffffffffffffffffffff16638da5cb5b6040518163ffffffff1660e01b8152600401602060405180830381865afa1580156129de573d5f803e3d5ffd5b505050506040513d601f19601f82011682018060405250810190612a029190617022565b73ffffffffffffffffffffffffffffffffffffffff168273ffffffffffffffffffffffffffffffffffffffff16145b905092915050565b5f5b600e5f8473ffffffffffffffffffffffffffffffffffffffff1673ffffffffffffffffffffffffffffffffffffffff1681526020019081526020015f2080549050811015612b95575f600f5f8573ffffffffffffffffffffffffffffffffffffffff1673ffffffffffffffffffffffffffffffffffffffff1681526020019081526020015f205f600e5f8773ffffffffffffffffffffffffffffffffffffffff1673ffffffffffffffffffffffffffffffffffffffff1681526020019081526020015f208481548110612b1157612b10616844565b5b905f5260205f20015f9054906101000a900473ffffffffffffffffffffffffffffffffffffffff1673ffffffffffffffffffffffffffffffffffffffff1673ffffffffffffffffffffffffffffffffffffffff1681526020019081526020015f205f6101000a81548160ff0219169083151502179055508080600101915050612a3b565b505f5b8151811015612c58576001600f5f8573ffffffffffffffffffffffffffffffffffffffff1673ffffffffffffffffffffffffffffffffffffffff1681526020019081526020015f205f848481518110612bf457612bf3616844565b5b602002602001015173ffffffffffffffffffffffffffffffffffffffff1673ffffffffffffffffffffffffffffffffffffffff1681526020019081526020015f205f6101000a81548160ff0219169083151502179055508080600101915050612b98565b5080600e5f8473ffffffffffffffffffffffffffffffffffffffff1673ffffffffffffffffffffffffffffffffffffffff1681526020019081526020015f209080519060200190612caa9291906156e8565b505050565b5f8173ffffffffffffffffffffffffffffffffffffffff16638da5cb5b6040518163ffffffff1660e01b8152600401602060405180830381865afa158015612cf9573d5f803e3d5ffd5b505050506040513d601f19601f82011682018060405250810190612d1d9190617022565b73ffffffffffffffffffffffffffffffffffffffff168373ffffffffffffffffffffffffffffffffffffffff161480612dd75750600d5f8373ffffffffffffffffffffffffffffffffffffffff1673ffffffffffffffffffffffffffffffffffffffff1681526020019081526020015f205f8473ffffffffffffffffffffffffffffffffffffffff1673ffffffffffffffffffffffffffffffffffffffff1681526020019081526020015f205f9054906101000a900460ff165b15612de55760019050612de9565b5f90505b92915050565b5f805f805f805f5b60075f8981526020019081526020015f2080549050811015612f9d575f60065f60075f8c81526020019081526020015f208481548110612e3a57612e39616844565b5b905f5260205f20015481526020019081526020015f20905060036006811115612e6657612e65615b30565b5b8160040160019054906101000a900460ff166006811115612e8a57612e89615b30565b5b03612ead57612ea681600301548661513990919063ffffffff16565b9450612f8f565b60046006811115612ec157612ec0615b30565b5b8160040160019054906101000a900460ff166006811115612ee557612ee4615b30565b5b03612f0857612f0181600301548561513990919063ffffffff16565b9350612f8e565b60056006811115612f1c57612f1b615b30565b5b8160040160019054906101000a900460ff166006811115612f4057612f3f615b30565b5b14158015612f835750600680811115612f5c57612f5b615b30565b5b8160040160019054906101000a900460ff166006811115612f8057612f7f615b30565b5b14155b15612f8d57600192505b5b5b508080600101915050612df7565b508282829550955095505050509193909250565b5f805f60065f8581526020019081526020015f2090505f60035f835f015481526020019081526020015f2090505f8060016002811115612ff457612ff3615b30565b5b846004015f9054906101000a900460ff16600281111561301757613016615b30565b5b0361306757836002015491505f83600701541461304c5761304583600701548361514e90919063ffffffff16565b9050613066565b61306383600801548361516390919063ffffffff16565b90505b5b60028081111561307a57613079615b30565b5b846004015f9054906101000a900460ff16600281111561309d5761309c615b30565b5b036130ed57836003015490505f8360070154146130d2576130cb83600701548261516390919063ffffffff16565b91506130ec565b6130e983600801548261514e90919063ffffffff16565b91505b5b80829550955050505050915091565b5f60065f8581526020019081526020015f2090505f60035f835f015481526020019081526020015f2090506001600681111561313b5761313a615b30565b5b8260040160019054906101000a900460ff16600681111561315f5761315e615b30565b5b14806131a057506004600681111561317a57613179615b30565b5b8260040160019054906101000a900460ff16600681111561319e5761319d615b30565b5b145b6131df576040517f08c379a00000000000000000000000000000000000000000000000000000000081526004016131d6906170bd565b60405180910390fd5b80600b0160149054906101000a900460ff1615613231576040517f08c379a00000000000000000000000000000000000000000000000000000000081526004016132289061669c565b60405180910390fd5b5f600181111561324457613243615b30565b5b816006015f9054906101000a900460ff16600181111561326757613266615b30565b5b036132e457600360058111156132805761327f615b30565b5b61328c835f0154613d3b565b600581111561329e5761329d615b30565b5b10156132df576040517f08c379a00000000000000000000000000000000000000000000000000000000081526004016132d69061714b565b60405180910390fd5b613358565b600160058111156132f8576132f7615b30565b5b613304835f0154613d3b565b600581111561331657613315615b30565b5b1015613357576040517f08c379a000000000000000000000000000000000000000000000000000000000815260040161334e906171d9565b60405180910390fd5b5b6001600281111561336c5761336b615b30565b5b826004015f9054906101000a900460ff16600281111561338f5761338e615b30565b5b14806133ce57506002808111156133a9576133a8615b30565b5b826004015f9054906101000a900460ff1660028111156133cc576133cb615b30565b5b145b61340d576040517f08c379a000000000000000000000000000000000000000000000000000000000815260040161340490617241565b60405180910390fd5b5f8061341887612fb1565b9150915081846003018190555080846002018190555084613c68576001600381111561344757613446615b30565b5b836009015f9054906101000a900460ff16600381111561346a57613469615b30565b5b0361352b578034146134b1576040517f08c379a00000000000000000000000000000000000000000000000000000000081526004016134a8906172a9565b60405180910390fd5b8060095f855f015f9054906101000a900473ffffffffffffffffffffffffffffffffffffffff1673ffffffffffffffffffffffffffffffffffffffff1673ffffffffffffffffffffffffffffffffffffffff1681526020019081526020015f205f82825461351f91906172f4565b92505081905550613c67565b6002600381111561353f5761353e615b30565b5b836009015f9054906101000a900460ff16600381111561356257613561615b30565b5b036136e2578260090160019054906101000a900473ffffffffffffffffffffffffffffffffffffffff1673ffffffffffffffffffffffffffffffffffffffff166323b872dd3330846040518463ffffffff1660e01b81526004016135c893929190617327565b6020604051808303815f875af11580156135e4573d5f803e3d5ffd5b505050506040513d601f19601f820116820180604052508101906136089190617370565b5080600a5f855f015f9054906101000a900473ffffffffffffffffffffffffffffffffffffffff1673ffffffffffffffffffffffffffffffffffffffff1673ffffffffffffffffffffffffffffffffffffffff1681526020019081526020015f205f8560090160019054906101000a900473ffffffffffffffffffffffffffffffffffffffff1673ffffffffffffffffffffffffffffffffffffffff1673ffffffffffffffffffffffffffffffffffffffff1681526020019081526020015f205f8282546136d691906172f4565b92505081905550613c66565b6003808111156136f5576136f4615b30565b5b836009015f9054906101000a900460ff16600381111561371857613717615b30565b5b14801561372557505f8651145b15613944578260090160019054906101000a900473ffffffffffffffffffffffffffffffffffffffff1673ffffffffffffffffffffffffffffffffffffffff16638c0dee9c84600a01543330857faaaaaaaaaaaaaaaaaaaaaaaaaaaaaaaaaaaaaaaaaaaaaaaaaaaaaaaaaaaaaaaa5f1b6040516020016137a591906173bb565b6040516020818303038152906040527faaaaaaaaaaaaaaaaaaaaaaaaaaaaaaaaaaaaaaaaaaaaaaaaaaaaaaaaaaaaaaaa5f1b6040516020016137e791906173bb565b6040516020818303038152906040526040518763ffffffff1660e01b815260040161381796959493929190617435565b6020604051808303815f875af1158015613833573d5f803e3d5ffd5b505050506040513d601f19601f820116820180604052508101906138579190616749565b5080600b5f855f015f9054906101000a900473ffffffffffffffffffffffffffffffffffffffff1673ffffffffffffffffffffffffffffffffffffffff1673ffffffffffffffffffffffffffffffffffffffff1681526020019081526020015f205f8560090160019054906101000a900473ffffffffffffffffffffffffffffffffffffffff1673ffffffffffffffffffffffffffffffffffffffff1673ffffffffffffffffffffffffffffffffffffffff1681526020019081526020015f205f85600a015481526020019081526020015f205f82825461393891906172f4565b92505081905550613c65565b60038081111561395757613956615b30565b5b836009015f9054906101000a900460ff16600381111561397a57613979615b30565b5b14801561398857505f865114155b15613c29575f805f888060200190518101906139a491906174f1565b9250925092508381146139ec576040517f08c379a00000000000000000000000000000000000000000000000000000000081526004016139e39061758b565b60405180910390fd5b856009015f9054906101000a900460ff166003811115613a0f57613a0e615b30565b5b600380811115613a2257613a21615b30565b5b14613a62576040517f08c379a0000000000000000000000000000000000000000000000000000000008152600401613a5990617619565b60405180910390fd5b8560090160019054906101000a900473ffffffffffffffffffffffffffffffffffffffff1673ffffffffffffffffffffffffffffffffffffffff168373ffffffffffffffffffffffffffffffffffffffff1614613af4576040517f08c379a0000000000000000000000000000000000000000000000000000000008152600401613aeb90617681565b60405180910390fd5b85600a01548214613b3a576040517f08c379a0000000000000000000000000000000000000000000000000000000008152600401613b31906176e9565b60405180910390fd5b83600b5f885f015f9054906101000a900473ffffffffffffffffffffffffffffffffffffffff1673ffffffffffffffffffffffffffffffffffffffff1673ffffffffffffffffffffffffffffffffffffffff1681526020019081526020015f205f8860090160019054906101000a900473ffffffffffffffffffffffffffffffffffffffff1673ffffffffffffffffffffffffffffffffffffffff1673ffffffffffffffffffffffffffffffffffffffff1681526020019081526020015f205f88600a015481526020019081526020015f205f828254613c1a91906172f4565b92505081905550505050613c64565b6040517f08c379a0000000000000000000000000000000000000000000000000000000008152600401613c5b90617777565b60405180910390fd5b5b5b5b5b60046006811115613c7c57613c7b615b30565b5b8460040160019054906101000a900460ff166006811115613ca057613c9f615b30565b5b03613d0457613cd28784600b015f9054906101000a900473ffffffffffffffffffffffffffffffffffffffff16613e3a565b60038460040160016101000a81548160ff02191690836006811115613cfa57613cf9615b30565b5b0217905550613d32565b60028460040160016101000a81548160ff02191690836006811115613d2c57613d2b615b30565b5b02179055505b50505050505050565b5f8060035f8481526020019081526020015f2090508060020154421080613d6557505f8160020154145b15613d73575f915050613e35565b80600301548160020154613d8791906172f4565b421015613d98576001915050613e35565b806004015481600301548260020154613db191906172f4565b613dbb91906172f4565b421015613dcc576002915050613e35565b8060050154816004015482600301548360020154613dea91906172f4565b613df491906172f4565b613dfe91906172f4565b421015613e0f576003915050613e35565b80600b0160149054906101000a900460ff16613e2f576004915050613e35565b60059150505b919050565b5f60065f8481526020019081526020015f2090505f60035f835f015481526020019081526020015f20905060016003811115613e7957613e78615b30565b5b816009015f9054906101000a900460ff166003811115613e9c57613e9b615b30565b5b03613f6c575f8390508073ffffffffffffffffffffffffffffffffffffffff166108fc846002015490811502906040515f60405180830381858888f19350505050158015613eec573d5f803e3d5ffd5b50826002015460095f845f015f9054906101000a900473ffffffffffffffffffffffffffffffffffffffff1673ffffffffffffffffffffffffffffffffffffffff1673ffffffffffffffffffffffffffffffffffffffff1681526020019081526020015f205f828254613f5f9190617795565b925050819055505061433f565b60026003811115613f8057613f7f615b30565b5b816009015f9054906101000a900460ff166003811115613fa357613fa2615b30565b5b03614129578060090160019054906101000a900473ffffffffffffffffffffffffffffffffffffffff1673ffffffffffffffffffffffffffffffffffffffff1663a9059cbb8484600201546040518363ffffffff1660e01b815260040161400b9291906177c8565b6020604051808303815f875af1158015614027573d5f803e3d5ffd5b505050506040513d601f19601f8201168201806040525081019061404b9190617370565b508160020154600a5f835f015f9054906101000a900473ffffffffffffffffffffffffffffffffffffffff1673ffffffffffffffffffffffffffffffffffffffff1673ffffffffffffffffffffffffffffffffffffffff1681526020019081526020015f205f8360090160019054906101000a900473ffffffffffffffffffffffffffffffffffffffff1673ffffffffffffffffffffffffffffffffffffffff1673ffffffffffffffffffffffffffffffffffffffff1681526020019081526020015f205f82825461411d9190617795565b9250508190555061433e565b60038081111561413c5761413b615b30565b5b816009015f9054906101000a900460ff16600381111561415f5761415e615b30565b5b0361433d578060090160019054906101000a900473ffffffffffffffffffffffffffffffffffffffff1673ffffffffffffffffffffffffffffffffffffffff1663f3d490db82600a01548585600201547faaaaaaaaaaaaaaaaaaaaaaaaaaaaaaaaaaaaaaaaaaaaaaaaaaaaaaaaaaaaaaaa5f1b6040516020016141e291906173bb565b6040516020818303038152906040526040518563ffffffff1660e01b815260040161421094939291906177ef565b6020604051808303815f875af115801561422c573d5f803e3d5ffd5b505050506040513d601f19601f820116820180604052508101906142509190616749565b508160020154600b5f835f015f9054906101000a900473ffffffffffffffffffffffffffffffffffffffff1673ffffffffffffffffffffffffffffffffffffffff1673ffffffffffffffffffffffffffffffffffffffff1681526020019081526020015f205f8360090160019054906101000a900473ffffffffffffffffffffffffffffffffffffffff1673ffffffffffffffffffffffffffffffffffffffff1673ffffffffffffffffffffffffffffffffffffffff1681526020019081526020015f205f83600a015481526020019081526020015f205f8282546143359190617795565b925050819055505b5b5b50505050565b5f60065f8381526020019081526020015f2090505f600681111561436c5761436b615b30565b5b8160040160019054906101000a900460ff1660068111156143905761438f615b30565b5b116143d0576040517f08c379a00000000000000000000000000000000000000000000000000000000081526004016143c790617883565b60405180910390fd5b5f6143dd825f0154613d3b565b90505f60035f845f015481526020019081526020015f2090505f600181111561440957614408615b30565b5b816006015f9054906101000a900460ff16600181111561442c5761442b615b30565b5b0361449e576004600581111561444557614444615b30565b5b82600581111561445857614457615b30565b5b1015614499576040517f08c379a000000000000000000000000000000000000000000000000000000000815260040161449090617911565b60405180910390fd5b614507565b600260058111156144b2576144b1615b30565b5b8260058111156144c5576144c4615b30565b5b1015614506576040517f08c379a00000000000000000000000000000000000000000000000000000000081526004016144fd9061799f565b60405180910390fd5b5b6145348482600b015f9054906101000a900473ffffffffffffffffffffffffffffffffffffffff16613e3a565b6002600681111561454857614547615b30565b5b8360040160019054906101000a900460ff16600681111561456c5761456b615b30565b5b0361465a57805f015f9054906101000a900473ffffffffffffffffffffffffffffffffffffffff1673ffffffffffffffffffffffffffffffffffffffff166367c849198260010154856001015f9054906101000a900473ffffffffffffffffffffffffffffffffffffffff1686600301546040518463ffffffff1660e01b81526004016145fb939291906166ed565b5f604051808303815f87803b158015614612575f80fd5b505af1158015614624573d5f803e3d5ffd5b5050505060038360040160016101000a81548160ff021916908360068111156146505761464f615b30565b5b0217905550614799565b6001600681111561466e5761466d615b30565b5b8360040160019054906101000a900460ff16600681111561469257614691615b30565b5b0361475d57805f015f9054906101000a900473ffffffffffffffffffffffffffffffffffffffff1673ffffffffffffffffffffffffffffffffffffffff166367c8491982600101543086600301546040518463ffffffff1660e01b81526004016146fe939291906166ed565b5f604051808303815f87803b158015614715575f80fd5b505af1158015614727573d5f803e3d5ffd5b5050505060048360040160016101000a81548160ff0219169083600681111561475357614752615b30565b5b0217905550614798565b6040517f08c379a000000000000000000000000000000000000000000000000000000000815260040161478f90617a53565b60405180910390fd5b5b50505050565b5f5b600c5f8473ffffffffffffffffffffffffffffffffffffffff1673ffffffffffffffffffffffffffffffffffffffff1681526020019081526020015f20805490508110156148fb575f600d5f8573ffffffffffffffffffffffffffffffffffffffff1673ffffffffffffffffffffffffffffffffffffffff1681526020019081526020015f205f600c5f8773ffffffffffffffffffffffffffffffffffffffff1673ffffffffffffffffffffffffffffffffffffffff1681526020019081526020015f20848154811061487757614876616844565b5b905f5260205f20015f9054906101000a900473ffffffffffffffffffffffffffffffffffffffff1673ffffffffffffffffffffffffffffffffffffffff1673ffffffffffffffffffffffffffffffffffffffff1681526020019081526020015f205f6101000a81548160ff02191690831515021790555080806001019150506147a1565b505f5b81518110156149be576001600d5f8573ffffffffffffffffffffffffffffffffffffffff1673ffffffffffffffffffffffffffffffffffffffff1681526020019081526020015f205f84848151811061495a57614959616844565b5b602002602001015173ffffffffffffffffffffffffffffffffffffffff1673ffffffffffffffffffffffffffffffffffffffff1681526020019081526020015f205f6101000a81548160ff02191690831515021790555080806001019150506148fe565b5080600c5f8473ffffffffffffffffffffffffffffffffffffffff1673ffffffffffffffffffffffffffffffffffffffff1681526020019081526020015f209080519060200190614a109291906156e8565b505050565b5f8060045f8873ffffffffffffffffffffffffffffffffffffffff1673ffffffffffffffffffffffffffffffffffffffff1681526020019081526020015f205f8781526020019081526020015f205490505f614a7082613d3b565b905060016005811115614a8657614a85615b30565b5b816005811115614a9957614a98615b30565b5b14614aab57614aa88888615178565b91505b60016005811115614abf57614abe615b30565b5b614ac883613d3b565b6005811115614ada57614ad9615b30565b5b14614b1a576040517f08c379a0000000000000000000000000000000000000000000000000000000008152600401614b1190617ae1565b60405180910390fd5b5f805f88806020019051810190614b319190617b13565b9250925092505f831480614b4457505f82145b614b83576040517f08c379a0000000000000000000000000000000000000000000000000000000008152600401614b7a90617bd3565b60405180910390fd5b60016002811115614b9757614b96615b30565b5b816002811115614baa57614ba9615b30565b5b03614bf6575f8303614bf1576040517f08c379a0000000000000000000000000000000000000000000000000000000008152600401614be890617c3b565b60405180910390fd5b614ca4565b600280811115614c0957614c08615b30565b5b816002811115614c1c57614c1b615b30565b5b03614c68575f8203614c63576040517f08c379a0000000000000000000000000000000000000000000000000000000008152600401614c5a90617ca3565b60405180910390fd5b614ca3565b6040517f08c379a0000000000000000000000000000000000000000000000000000000008152600401614c9a90617d31565b60405180910390fd5b5b60055f815480929190614cb690617d4f565b91905055506040518060c001604052808681526020018d73ffffffffffffffffffffffffffffffffffffffff168152602001848152602001838152602001826002811115614d0757614d06615b30565b5b815260200160016006811115614d2057614d1f615b30565b5b81525060065f60055481526020019081526020015f205f820151815f01556020820151816001015f6101000a81548173ffffffffffffffffffffffffffffffffffffffff021916908373ffffffffffffffffffffffffffffffffffffffff16021790555060408201518160020155606082015181600301556080820151816004015f6101000a81548160ff02191690836002811115614dc257614dc1615b30565b5b021790555060a08201518160040160016101000a81548160ff02191690836006811115614df257614df1615b30565b5b021790555090505060075f8681526020019081526020015f20600554908060018154018082558091505060019003905f5260205f20015f909190919091505560085f8d73ffffffffffffffffffffffffffffffffffffffff1673ffffffffffffffffffffffffffffffffffffffff1681526020019081526020015f20600554908060018154018082558091505060019003905f5260205f20015f90919091909150555f60035f8781526020019081526020015f209050600180811115614ebb57614eba615b30565b5b816006015f9054906101000a900460ff166001811115614ede57614edd615b30565b5b148015614ee85750885b15614efb57614efa600554895f6130fc565b5b60055496505050505050509695505050505050565b5f8082604051602001614f239190617dd0565b604051602081830303815290604052805190602001209050731820a4b7618bde71dce8cdc73aab6c95905fad2473ffffffffffffffffffffffffffffffffffffffff1663aabbb8ca85836040518363ffffffff1660e01b8152600401614f8a929190617de6565b602060405180830381865afa158015614fa5573d5f803e3d5ffd5b505050506040513d601f19601f82011682018060405250810190614fc99190617022565b91505092915050565b5f80825103614fe3575f90506150b7565b5f614fed846150bd565b905060c0845114801561502157507fcccccccccccccccccccccccccccccccccccccccccccccccccccccccccccccccc5f1b81145b156150305760019150506150b7565b6040845114801561506257507fdddddddddddddddddddddddddddddddddddddddddddddddddddddddddddddddd5f1b81145b156150715760019150506150b7565b602084511480156150a357507faaaaaaaaaaaaaaaaaaaaaaaaaaaaaaaaaaaaaaaaaaaaaaaaaaaaaaaaaaaaaaaa5f1b81145b156150b25760019150506150b7565b5f9150505b92915050565b5f60208201519050919050565b5f60408201519050919050565b5f60608201519050919050565b60605f805f6080850151925060a0850151915060c0850151905082828260405160200161511393929190616dde565b6040516020818303038152906040529350505050919050565b5f60408201519050919050565b5f818361514691906172f4565b905092915050565b5f818361515b9190617e3a565b905092915050565b5f81836151709190617e6a565b905092915050565b5f8060015f8573ffffffffffffffffffffffffffffffffffffffff1673ffffffffffffffffffffffffffffffffffffffff1681526020019081526020015f205f8481526020019081526020015f209050805f015f9054906101000a900460ff16615217576040517f08c379a000000000000000000000000000000000000000000000000000000000815260040161520e90616a04565b60405180910390fd5b80600a0160149054906101000a900460ff16615268576040517f08c379a000000000000000000000000000000000000000000000000000000000815260040161525f90617f1b565b60405180910390fd5b5f60045f8673ffffffffffffffffffffffffffffffffffffffff1673ffffffffffffffffffffffffffffffffffffffff1681526020019081526020015f205f8581526020019081526020015f205490505f60035f8381526020019081526020015f2090505f808260020154036152e25783600101546152e8565b81600201545b9050615300600160025461513990919063ffffffff16565b600281905550604051806101c001604052808873ffffffffffffffffffffffffffffffffffffffff168152602001878152602001615342838760020154615675565b8152602001856002015481526020018560030154815260200185600401548152602001856005015f9054906101000a900460ff16600181111561538857615387615b30565b5b81526020018560060154815260200185600701548152602001856008015f9054906101000a900460ff1660038111156153c4576153c3615b30565b5b81526020018560080160019054906101000a900473ffffffffffffffffffffffffffffffffffffffff1673ffffffffffffffffffffffffffffffffffffffff1681526020018560090154815260200185600a015f9054906101000a900473ffffffffffffffffffffffffffffffffffffffff1673ffffffffffffffffffffffffffffffffffffffff1681526020015f151581525060035f60025481526020019081526020015f205f820151815f015f6101000a81548173ffffffffffffffffffffffffffffffffffffffff021916908373ffffffffffffffffffffffffffffffffffffffff1602179055506020820151816001015560408201518160020155606082015181600301556080820151816004015560a0820151816005015560c0820151816006015f6101000a81548160ff0219169083600181111561550b5761550a615b30565b5b021790555060e082015181600701556101008201518160080155610120820151816009015f6101000a81548160ff021916908360038111156155505761554f615b30565b5b02179055506101408201518160090160016101000a81548173ffffffffffffffffffffffffffffffffffffffff021916908373ffffffffffffffffffffffffffffffffffffffff16021790555061016082015181600a015561018082015181600b015f6101000a81548173ffffffffffffffffffffffffffffffffffffffff021916908373ffffffffffffffffffffffffffffffffffffffff1602179055506101a082015181600b0160146101000a81548160ff02191690831515021790555090505060025460045f8973ffffffffffffffffffffffffffffffffffffffff1673ffffffffffffffffffffffffffffffffffffffff1681526020019081526020015f205f8881526020019081526020015f208190555060025494505050505092915050565b5f428310615685578290506156b8565b6156b56156a68385426156989190617795565b6156be90919063ffffffff16565b426156d390919063ffffffff16565b90505b92915050565b5f81836156cb9190617f39565b905092915050565b5f81836156e09190617795565b905092915050565b828054828255905f5260205f2090810192821561575e579160200282015b8281111561575d578251825f6101000a81548173ffffffffffffffffffffffffffffffffffffffff021916908373ffffffffffffffffffffffffffffffffffffffff16021790555091602001919060010190615706565b5b50905061576b919061576f565b5090565b5b80821115615786575f815f905550600101615770565b5090565b5f80fd5b5f80fd5b5f73ffffffffffffffffffffffffffffffffffffffff82169050919050565b5f6157bb82615792565b9050919050565b6157cb816157b1565b81146157d5575f80fd5b50565b5f813590506157e6816157c2565b92915050565b5f602082840312156158015761580061578a565b5b5f61580e848285016157d8565b91505092915050565b5f81519050919050565b5f82825260208201905092915050565b5f819050602082019050919050565b615849816157b1565b82525050565b5f61585a8383615840565b60208301905092915050565b5f602082019050919050565b5f61587c82615817565b6158868185615821565b935061589183615831565b805f5b838110156158c15781516158a8888261584f565b97506158b383615866565b925050600181019050615894565b5085935050505092915050565b5f6020820190508181035f8301526158e68184615872565b905092915050565b5f80fd5b5f80fd5b5f80fd5b5f8083601f84011261590f5761590e6158ee565b5b8235905067ffffffffffffffff81111561592c5761592b6158f2565b5b602083019150836020820283011115615948576159476158f6565b5b9250929050565b5f805f604084860312156159665761596561578a565b5b5f615973868287016157d8565b935050602084013567ffffffffffffffff8111156159945761599361578e565b5b6159a0868287016158fa565b92509250509250925092565b5f819050919050565b6159be816159ac565b81146159c8575f80fd5b50565b5f813590506159d9816159b5565b92915050565b5f602082840312156159f4576159f361578a565b5b5f615a01848285016159cb565b91505092915050565b5f81519050919050565b5f82825260208201905092915050565b5f819050602082019050919050565b615a3c816159ac565b82525050565b5f615a4d8383615a33565b60208301905092915050565b5f602082019050919050565b5f615a6f82615a0a565b615a798185615a14565b9350615a8483615a24565b805f5b83811015615ab4578151615a9b8882615a42565b9750615aa683615a59565b925050600181019050615a87565b5085935050505092915050565b5f6020820190508181035f830152615ad98184615a65565b905092915050565b615aea816159ac565b82525050565b5f602082019050615b035f830184615ae1565b92915050565b615b12816157b1565b82525050565b5f819050919050565b615b2a81615b18565b82525050565b7f4e487b71000000000000000000000000000000000000000000000000000000005f52602160045260245ffd5b60048110615b6e57615b6d615b30565b5b50565b5f819050615b7e82615b5d565b919050565b5f615b8d82615b71565b9050919050565b615b9d81615b83565b82525050565b5f8115159050919050565b615bb781615ba3565b82525050565b5f61014082019050615bd15f83018d615b09565b615bde602083018c615b21565b615beb604083018b615ae1565b615bf8606083018a615ae1565b615c056080830189615ae1565b615c1260a0830188615ae1565b615c1f60c0830187615b94565b615c2c60e0830186615b09565b615c3a610100830185615b21565b615c48610120830184615bae565b9b9a5050505050505050505050565b615c6081615b18565b8114615c6a575f80fd5b50565b5f81359050615c7b81615c57565b92915050565b5f8060408385031215615c9757615c9661578a565b5b5f615ca485828601615c6d565b9250506020615cb5858286016157d8565b9150509250929050565b5f602082019050615cd25f830184615b21565b92915050565b5f604082019050615ceb5f830185615ae1565b615cf86020830184615ae1565b9392505050565b5f606082019050615d125f830186615ae1565b615d1f6020830185615ae1565b615d2c6040830184615bae565b949350505050565b5f8083601f840112615d4957615d486158ee565b5b8235905067ffffffffffffffff811115615d6657615d656158f2565b5b602083019150836020820283011115615d8257615d816158f6565b5b9250929050565b615d9281615ba3565b8114615d9c575f80fd5b50565b5f81359050615dad81615d89565b92915050565b5f805f60408486031215615dca57615dc961578a565b5b5f84013567ffffffffffffffff811115615de757615de661578e565b5b615df386828701615d34565b93509350506020615e0686828701615d9f565b9150509250925092565b5f8060408385031215615e2657615e2561578a565b5b5f615e33858286016157d8565b9250506020615e4485828601615c6d565b9150509250929050565b60028110615e5f57615e5e615b30565b5b50565b5f819050615e6f82615e4e565b919050565b5f615e7e82615e62565b9050919050565b615e8e81615e74565b82525050565b5f606082019050615ea75f830186615e85565b615eb46020830185615ae1565b615ec16040830184615ae1565b949350505050565b60028110615ed5575f80fd5b50565b5f81359050615ee681615ec9565b92915050565b5f805f805f60a08688031215615f0557615f0461578a565b5b5f615f12888289016157d8565b9550506020615f2388828901615c6d565b9450506040615f3488828901615ed8565b9350506060615f45888289016159cb565b9250506080615f56888289016159cb565b9150509295509295909350565b5f8060408385031215615f7957615f7861578a565b5b5f615f86858286016159cb565b9250506020615f9785828601615d9f565b9150509250929050565b60068110615fb257615fb1615b30565b5b50565b5f819050615fc282615fa1565b919050565b5f615fd182615fb5565b9050919050565b615fe181615fc7565b82525050565b5f602082019050615ffa5f830184615fd8565b92915050565b5f80602083850312156160165761601561578a565b5b5f83013567ffffffffffffffff8111156160335761603261578e565b5b61603f85828601615d34565b92509250509250929050565b6003811061605c5761605b615b30565b5b50565b5f81905061606c8261604b565b919050565b5f61607b8261605f565b9050919050565b61608b81616071565b82525050565b600781106160a2576160a1615b30565b5b50565b5f8190506160b282616091565b919050565b5f6160c1826160a5565b9050919050565b6160d1816160b7565b82525050565b5f60c0820190506160ea5f830189615ae1565b6160f76020830188615b09565b6161046040830187615ae1565b6161116060830186615ae1565b61611e6080830185616082565b61612b60a08301846160c8565b979650505050505050565b5f6101208201905061614a5f83018c615ae1565b616157602083018b615ae1565b616164604083018a615ae1565b6161716060830189615ae1565b61617e6080830188615b94565b61618b60a0830187615b09565b61619860c0830186615b21565b6161a560e0830185615b09565b6161b3610100830184615bae565b9a9950505050505050505050565b5f805f606084860312156161d8576161d761578a565b5b5f6161e5868287016159cb565b93505060206161f6868287016159cb565b9250506040616207868287016159cb565b9150509250925092565b6004811061621d575f80fd5b50565b5f8135905061622e81616211565b92915050565b5f805f805f805f805f805f6101608c8e0312156162545761625361578a565b5b5f6162618e828f016157d8565b9b505060206162728e828f01615c6d565b9a505060406162838e828f016159cb565b99505060606162948e828f016159cb565b98505060806162a58e828f016159cb565b97505060a06162b68e828f016159cb565b96505060c06162c78e828f01616220565b95505060e06162d88e828f016157d8565b9450506101006162ea8e828f01615c6d565b9350506101206162fc8e828f016157d8565b92505061014061630e8e828f01615d9f565b9150509295989b509295989b9093969950565b6003811061632d575f80fd5b50565b5f8135905061633e81616321565b92915050565b5f805f805f8060c0878903121561635e5761635d61578a565b5b5f61636b89828a016157d8565b965050602061637c89828a01615c6d565b955050604061638d89828a016159cb565b945050606061639e89828a016159cb565b93505060806163af89828a01616330565b92505060a06163c089828a01615d9f565b9150509295509295509295565b5f8083601f8401126163e2576163e16158ee565b5b8235905067ffffffffffffffff8111156163ff576163fe6158f2565b5b60208301915083600182028301111561641b5761641a6158f6565b5b9250929050565b5f805f805f805f805f805f6101008c8e0312156164425761644161578a565b5b5f8c013567ffffffffffffffff81111561645f5761645e61578e565b5b61646b8e828f016163cd565b9b509b5050602061647e8e828f01615c6d565b995050604061648f8e828f016157d8565b98505060606164a08e828f016157d8565b97505060806164b18e828f016157d8565b96505060a06164c28e828f016159cb565b95505060c08c013567ffffffffffffffff8111156164e3576164e261578e565b5b6164ef8e828f016163cd565b945094505060e08c013567ffffffffffffffff8111156165125761651161578e565b5b61651e8e828f016163cd565b92509250509295989b509295989b9093969950565b5f6020820190506165465f830184615bae565b92915050565b5f82825260208201905092915050565b7f53656e646572206973206e6f742061207072696365206f7261636c652e0000005f82015250565b5f616590601d8361654c565b915061659b8261655c565b602082019050919050565b5f6020820190508181035f8301526165bd81616584565b9050919050565b7f53656e646572206973206e6f74206120746f6b656e20636f6e74726f6c6c65725f8201527f2e00000000000000000000000000000000000000000000000000000000000000602082015250565b5f61661e60218361654c565b9150616629826165c4565b604082019050919050565b5f6020820190508181035f83015261664b81616612565b9050919050565b7f4379636c6520697320616c72656164792066696e616c697a65640000000000005f82015250565b5f616686601a8361654c565b915061669182616652565b602082019050919050565b5f6020820190508181035f8301526166b38161667a565b9050919050565b5f82825260208201905092915050565b50565b5f6166d85f836166ba565b91506166e3826166ca565b5f82019050919050565b5f6080820190506167005f830186615b21565b61670d6020830185615b09565b61671a6040830184615ae1565b818103606083015261672b816166cd565b9050949350505050565b5f8151905061674381615c57565b92915050565b5f6020828403121561675e5761675d61578a565b5b5f61676b84828501616735565b91505092915050565b7f52656d61696e696e67206f726465727320746f20736574746c650000000000005f82015250565b5f6167a8601a8361654c565b91506167b382616774565b602082019050919050565b5f6020820190508181035f8301526167d58161679c565b9050919050565b5f81905092915050565b7f455243313832305f4143434550545f4d414749430000000000000000000000005f82015250565b5f61681a6014836167dc565b9150616825826167e6565b601482019050919050565b5f61683a8261680e565b9150819050919050565b7f4e487b71000000000000000000000000000000000000000000000000000000005f52603260045260245ffd5b7f4e487b71000000000000000000000000000000000000000000000000000000005f52604160045260245ffd5b7f4f6e6c792073756273637269626564206f722070616964206f726465727320635f8201527f616e2062652063616e63656c6c65640000000000000000000000000000000000602082015250565b5f6168f8602f8361654c565b91506169038261689e565b604082019050919050565b5f6020820190508181035f830152616925816168ec565b9050919050565b7f4f72646572732063616e206f6e6c792062652063616e63656c6c6564206265665f8201527f6f7265206375742d6f6666000000000000000000000000000000000000000000602082015250565b5f616986602b8361654c565b91506169918261692c565b604082019050919050565b5f6020820190508181035f8301526169b38161697a565b9050919050565b7f52756c6573206e6f7420646566696e656420666f7220746869732061737365745f82015250565b5f6169ee60208361654c565b91506169f9826169ba565b602082019050919050565b5f6020820190508181035f830152616a1b816169e2565b9050919050565b7f41737365742076616c75652063616e206f6e6c792062652073657420696e206f5f8201527f6e6520646972656374696f6e0000000000000000000000000000000000000000602082015250565b5f616a7c602c8361654c565b9150616a8782616a22565b604082019050919050565b5f6020820190508181035f830152616aa981616a70565b9050919050565b7f4f726465722072656a656374696f6e2063616e206f6e6c792068616e646c65645f8201527f20666f722073756273637269626564206f722070616964206f72646572730000602082015250565b5f616b0a603e8361654c565b9150616b1582616ab0565b604082019050919050565b5f6020820190508181035f830152616b3781616afe565b9050919050565b7f4f72646572732063616e206f6e6c792062652072656a6563746564206265666f5f8201527f726520626567696e6e696e67206f66207061796d656e74207068617365000000602082015250565b5f616b98603d8361654c565b9150616ba382616b3e565b604082019050919050565b5f6020820190508181035f830152616bc581616b8c565b9050919050565b7f417373657456616c75652063616e206f6e6c792062652073657420647572696e5f8201527f672076616c756174696f6e20706572696f640000000000000000000000000000602082015250565b5f616c2660328361654c565b9150616c3182616bcc565b604082019050919050565b5f6020820190508181035f830152616c5381616c1a565b9050919050565b7f41737365742076616c75652063616e206f6e6c792062652073657420666f72205f8201527f61206379636c65206f66207479706520756e6b6f6e776e000000000000000000602082015250565b5f616cb460378361654c565b9150616cbf82616c5a565b604082019050919050565b5f6020820190508181035f830152616ce181616ca8565b9050919050565b7f4669727374206379636c652073746172742063616e206e6f74206265207072695f8201527f6f7220746f206e6f770000000000000000000000000000000000000000000000602082015250565b5f616d4260298361654c565b9150616d4d82616ce8565b604082019050919050565b5f6020820190508181035f830152616d6f81616d36565b9050919050565b7f506572696f64732063616e206e6f74206265206e696c000000000000000000005f82015250565b5f616daa60168361654c565b9150616db582616d76565b602082019050919050565b5f6020820190508181035f830152616dd781616d9e565b9050919050565b5f606082019050616df15f830186615ae1565b616dfe6020830185615ae1565b616e0b6040830184616082565b949350505050565b7f35350000000000000000000000000000000000000000000000000000000000005f82015250565b5f616e4760028361654c565b9150616e5282616e13565b602082019050919050565b5f6020820190508181035f830152616e7481616e3b565b9050919050565b7f35300000000000000000000000000000000000000000000000000000000000005f82015250565b5f616eaf60028361654c565b9150616eba82616e7b565b602082019050919050565b5f6020820190508181035f830152616edc81616ea3565b9050919050565b7f35370000000000000000000000000000000000000000000000000000000000005f82015250565b5f616f1760028361654c565b9150616f2282616ee3565b602082019050919050565b5f6020820190508181035f830152616f4481616f0b565b9050919050565b5f606082019050616f5e5f830186615b09565b616f6b6020830185615b21565b616f786040830184615ae1565b949350505050565b7f5061796d656e742073656e646572206973206e6f7420746865207375627363725f8201527f6962657200000000000000000000000000000000000000000000000000000000602082015250565b5f616fda60248361654c565b9150616fe582616f80565b604082019050919050565b5f6020820190508181035f83015261700781616fce565b9050919050565b5f8151905061701c816157c2565b92915050565b5f602082840312156170375761703661578a565b5b5f6170448482850161700e565b91505092915050565b7f4f72646572206973206e65697468657220696e207374617465205375627363725f8201527f696265642c206e6f7220556e70616964536574746c6564000000000000000000602082015250565b5f6170a760378361654c565b91506170b28261704d565b604082019050919050565b5f6020820190508181035f8301526170d48161709b565b9050919050565b7f5061796d656e742063616e206f6e6c7920626520706572666f726d65642061665f8201527f7465722076616c756174696f6e20706572696f64000000000000000000000000602082015250565b5f61713560348361654c565b9150617140826170db565b604082019050919050565b5f6020820190508181035f83015261716281617129565b9050919050565b7f5061796d656e742063616e206f6e6c7920626520706572666f726d65642061665f8201527f746572207374617274206f6620737562736372697074696f6e20706572696f64602082015250565b5f6171c360408361654c565b91506171ce82617169565b604082019050919050565b5f6020820190508181035f8301526171f0816171b7565b9050919050565b7f496e76616c6964206f72646572207479706500000000000000000000000000005f82015250565b5f61722b60128361654c565b9150617236826171f7565b602082019050919050565b5f6020820190508181035f8301526172588161721f565b9050919050565b7f416d6f756e74206f6620455448206973206e6f7420636f7272656374000000005f82015250565b5f617293601c8361654c565b915061729e8261725f565b602082019050919050565b5f6020820190508181035f8301526172c081617287565b9050919050565b7f4e487b71000000000000000000000000000000000000000000000000000000005f52601160045260245ffd5b5f6172fe826159ac565b9150617309836159ac565b9250828201905080821115617321576173206172c7565b5b92915050565b5f60608201905061733a5f830186615b09565b6173476020830185615b09565b6173546040830184615ae1565b949350505050565b5f8151905061736a81615d89565b92915050565b5f602082840312156173855761738461578a565b5b5f6173928482850161735c565b91505092915050565b5f819050919050565b6173b56173b082615b18565b61739b565b82525050565b5f6173c682846173a4565b60208201915081905092915050565b5f81519050919050565b8281835e5f83830152505050565b5f601f19601f8301169050919050565b5f617407826173d5565b61741181856166ba565b93506174218185602086016173df565b61742a816173ed565b840191505092915050565b5f60c0820190506174485f830189615b21565b6174556020830188615b09565b6174626040830187615b09565b61746f6060830186615ae1565b818103608083015261748181856173fd565b905081810360a083015261749581846173fd565b9050979650505050505050565b5f6174ac82615792565b9050919050565b6174bc816174a2565b81146174c6575f80fd5b50565b5f815190506174d7816174b3565b92915050565b5f815190506174eb816159b5565b92915050565b5f805f606084860312156175085761750761578a565b5b5f617515868287016174c9565b935050602061752686828701616735565b9250506040617537868287016174dd565b9150509250925092565b7f77726f6e67207061796d656e742076616c7565000000000000000000000000005f82015250565b5f61757560138361654c565b915061758082617541565b602082019050919050565b5f6020820190508181035f8301526175a281617569565b9050919050565b7f45524331343030207061796d656e74206973206e6f74206163636563707465645f8201527f20666f7220746869732061737365740000000000000000000000000000000000602082015250565b5f617603602f8361654c565b915061760e826175a9565b604082019050919050565b5f6020820190508181035f830152617630816175f7565b9050919050565b7f77726f6e67207061796d656e7420746f6b656e206164647265737300000000005f82015250565b5f61766b601b8361654c565b915061767682617637565b602082019050919050565b5f6020820190508181035f8301526176988161765f565b9050919050565b7f77726f6e67207061796d656e7420746f6b656e20706172746974696f6e0000005f82015250565b5f6176d3601d8361654c565b91506176de8261769f565b602082019050919050565b5f6020820190508181035f830152617700816176c7565b9050919050565b7f6f66662d636861696e207061796d656e74206e6565647320746f2062652062795f8201527f7061737365640000000000000000000000000000000000000000000000000000602082015250565b5f61776160268361654c565b915061776c82617707565b604082019050919050565b5f6020820190508181035f83015261778e81617755565b9050919050565b5f61779f826159ac565b91506177aa836159ac565b92508282039050818111156177c2576177c16172c7565b5b92915050565b5f6040820190506177db5f830185615b09565b6177e86020830184615ae1565b9392505050565b5f6080820190506178025f830187615b21565b61780f6020830186615b09565b61781c6040830185615ae1565b818103606083015261782e81846173fd565b905095945050505050565b7f4f7264657220646f65736e7420657869737400000000000000000000000000005f82015250565b5f61786d60128361654c565b915061787882617839565b602082019050919050565b5f6020820190508181035f83015261789a81617861565b9050919050565b7f4f7264657220736574746c656d656e742063616e206f6e6c79206265207065725f8201527f666f726d656420647572696e6720736574746c656d656e7420706572696f6400602082015250565b5f6178fb603f8361654c565b9150617906826178a1565b604082019050919050565b5f6020820190508181035f830152617928816178ef565b9050919050565b7f4f7264657220736574746c656d656e742063616e206f6e6c79206265207065725f8201527f666f726d656420616674657220746865206375742d6f66660000000000000000602082015250565b5f61798960388361654c565b91506179948261792f565b604082019050919050565b5f6020820190508181035f8301526179b68161797d565b9050919050565b7f496d706f737369626c6520746f20736574746c6520616e206f726465722074685f8201527f6174206973206e65697468657220696e20737461746520506169642c206e6f7260208201527f2053756273637269626564000000000000000000000000000000000000000000604082015250565b5f617a3d604b8361654c565b9150617a48826179bd565b606082019050919050565b5f6020820190508181035f830152617a6a81617a31565b9050919050565b7f537562736372697074696f6e2063616e206f6e6c7920626520706572666f726d5f8201527f656420647572696e6720737562736372697074696f6e20706572696f64000000602082015250565b5f617acb603d8361654c565b9150617ad682617a71565b604082019050919050565b5f6020820190508181035f830152617af881617abf565b9050919050565b5f81519050617b0d81616321565b92915050565b5f805f60608486031215617b2a57617b2961578a565b5b5f617b37868287016174dd565b9350506020617b48868287016174dd565b9250506040617b5986828701617aff565b9150509250925092565b7f4f726465722063616e206e6f74206265206f66207479706520616d6f756e74205f8201527f616e642076616c7565206174207468652073616d652074696d65000000000000602082015250565b5f617bbd603a8361654c565b9150617bc882617b63565b604082019050919050565b5f6020820190508181035f830152617bea81617bb1565b9050919050565b7f4f726465722076616c7565207368616c6c206e6f74206265206e696c000000005f82015250565b5f617c25601c8361654c565b9150617c3082617bf1565b602082019050919050565b5f6020820190508181035f830152617c5281617c19565b9050919050565b7f4f7264657220616d6f756e74207368616c6c206e6f74206265206e696c0000005f82015250565b5f617c8d601d8361654c565b9150617c9882617c59565b602082019050919050565b5f6020820190508181035f830152617cba81617c81565b9050919050565b7f4f726465722074797065206e6565647320746f2062652076616c7565206f72205f8201527f616d6f756e740000000000000000000000000000000000000000000000000000602082015250565b5f617d1b60268361654c565b9150617d2682617cc1565b604082019050919050565b5f6020820190508181035f830152617d4881617d0f565b9050919050565b5f617d59826159ac565b91507fffffffffffffffffffffffffffffffffffffffffffffffffffffffffffffffff8203617d8b57617d8a6172c7565b5b600182019050919050565b5f81519050919050565b5f617daa82617d96565b617db481856167dc565b9350617dc48185602086016173df565b80840191505092915050565b5f617ddb8284617da0565b915081905092915050565b5f604082019050617df95f830185615b09565b617e066020830184615b21565b9392505050565b7f4e487b71000000000000000000000000000000000000000000000000000000005f52601260045260245ffd5b5f617e44826159ac565b9150617e4f836159ac565b925082617e5f57617e5e617e0d565b5b828204905092915050565b5f617e74826159ac565b9150617e7f836159ac565b9250828202617e8d816159ac565b91508282048414831517617ea457617ea36172c7565b5b5092915050565b7f537562736372697074696f6e73206e6f74206f70656e656420666f72207468695f8201527f7320617373657400000000000000000000000000000000000000000000000000602082015250565b5f617f0560278361654c565b9150617f1082617eab565b604082019050919050565b5f6020820190508181035f830152617f3281617ef9565b9050919050565b5f617f43826159ac565b9150617f4e836159ac565b925082617f5e57617f5d617e0d565b5b82820690509291505056fea26469706673582212205a792ae01338a83c9b2b94ef285fa56968915642bac2cc5eb16c5e0f047b934764736f6c63430008190033",
  "immutableReferences": {},
  "source": "// SPDX-License-Identifier: Apache-2.0\n/*\n * This code has not been reviewed.\n * Do not use or deploy this code before reviewing it personally first.\n */\npragma solidity ^0.8.0;\n\nimport \"@openzeppelin/contracts/utils/math/SafeMath.sol\";\nimport \"@openzeppelin/contracts/token/ERC20/ERC20.sol\";\nimport \"@openzeppelin/contracts/token/ERC721/ERC721.sol\";\n\nimport \"./ERC1820Client.sol\";\nimport \"../interface/ERC1820Implementer.sol\";\n\nimport \"../extensions/userExtensions/IERC1400TokensRecipient.sol\";\nimport \"../ERC1400.sol\";\n\n/**\n ***************************************************************************************************************\n **************************************** CAUTION: work in progress ********************************************\n ***************************************************************************************************************\n *\n * CAUTION: This contract is a work in progress, tests are not finalized yet!\n *\n ***************************************************************************************************************\n **************************************** CAUTION: work in progress ********************************************\n ***************************************************************************************************************\n */\n\n\n/**\n * @title FundIssuer\n * @dev Fund issuance contract.\n * @dev Intended usage:\n * The purpose of the contract is to perform a fund issuance.\n *\n */\ncontract FundIssuer is ERC1820Client, IERC1400TokensRecipient, ERC1820Implementer {\n  using SafeMath for uint256;\n\n  bytes32 constant internal ORDER_SUBSCRIPTION_FLAG = 0xcccccccccccccccccccccccccccccccccccccccccccccccccccccccccccccccc;\n  bytes32 constant internal ORDER_PAYMENT_FLAG = 0xdddddddddddddddddddddddddddddddddddddddddddddddddddddddddddddddd;\n\n  bytes32 constant internal BYPASS_ACTION_FLAG = 0xaaaaaaaaaaaaaaaaaaaaaaaaaaaaaaaaaaaaaaaaaaaaaaaaaaaaaaaaaaaaaaaa;\n\n  string constant internal FUND_ISSUER = \"FundIssuer\";\n  string constant internal ERC1400_TOKENS_RECIPIENT = \"ERC1400TokensRecipient\";\n\n  enum CycleState {Undefined, Subscription, Valuation, Payment, Settlement, Finalized}\n\n  enum OrderState {Undefined, Subscribed, Paid, PaidSettled, UnpaidSettled, Cancelled, Rejected}\n\n  enum OrderType {Undefined, Value, Amount}\n\n  enum Payment {OffChain, ETH, ERC20, ERC1400}\n\n  enum AssetValue {Unknown, Known}\n\n  struct AssetRules {\n    bool defined;\n    uint256 firstStartTime;\n    uint256 subscriptionPeriodLength;\n    uint256 valuationPeriodLength;\n    uint256 paymentPeriodLength;\n    AssetValue assetValueType;\n    uint256 assetValue;\n    uint256 reverseAssetValue;\n    Payment paymentType;\n    address paymentAddress;\n    bytes32 paymentPartition;\n    address fundAddress;\n    bool subscriptionsOpened;\n  }\n  \n  struct Cycle {\n    address assetAddress;\n    bytes32 assetClass;\n    uint256 startTime;\n    uint256 subscriptionPeriodLength;\n    uint256 valuationPeriodLength;\n    uint256 paymentPeriodLength;\n    AssetValue assetValueType;\n    uint256 assetValue;\n    uint256 reverseAssetValue;\n    Payment paymentType;\n    address paymentAddress;\n    bytes32 paymentPartition;\n    address fundAddress;\n    bool finalized;\n  }\n\n  struct Order {\n    uint256 cycleIndex;\n    address investor;\n    uint256 value;\n    uint256 amount;\n    OrderType orderType;\n    OrderState state;\n  }\n\n  // Mapping from (assetAddress, assetClass) to asset rules.\n  mapping(address => mapping(bytes32 => AssetRules)) internal _assetRules;\n\n  // Index of most recent cycle.\n  uint256 internal _cycleIndex;\n\n  // Mapping from cycle index to cycle.\n  mapping(uint256 => Cycle) internal _cycles;\n\n  // Mapping from (assetAddress, assetClass) to most recent cycle.\n  mapping(address => mapping (bytes32 => uint256)) internal _lastCycleIndex;\n\n  // Index of most recent order.\n  uint256 internal _orderIndex;\n\n  // Mapping from order index to order.\n  mapping(uint256 => Order) internal _orders;\n\n  // Mapping from cycle index to order list.\n  mapping(uint256 => uint256[]) internal _cycleOrders;\n\n  // Mapping from investor address to order list.\n  mapping(address => uint256[]) internal _investorOrders;\n\n  // Mapping from assetAddress to amount of escrowed ETH.\n  mapping(address => uint256) internal _escrowedEth;\n\n  // Mapping from (assetAddress, paymentAddress) to amount of escrowed ERC20.\n  mapping(address => mapping (address => uint256)) internal _escrowedErc20;\n\n  // Mapping from (assetAddress, paymentAddress, paymentPartition) to amount of escrowed ERC1400.\n  mapping(address => mapping (address => mapping (bytes32 => uint256))) internal _escrowedErc1400;\n\n  // Mapping from token to token controllers.\n  mapping(address => address[]) internal _tokenControllers;\n\n  // Mapping from (token, operator) to token controller status.\n  mapping(address => mapping(address => bool)) internal _isTokenController;\n\n  // Mapping from token to price oracles.\n  mapping(address => address[]) internal _priceOracles;\n\n  // Mapping from (token, operator) to price oracle status.\n  mapping(address => mapping(address => bool)) internal _isPriceOracle;\n\n  /**\n   * @dev Modifier to verify if sender is a token controller.\n   */\n  modifier onlyTokenController(address tokenAddress) {\n    require(_tokenController(msg.sender, tokenAddress),\n      \"Sender is not a token controller.\"\n    );\n    _;\n  }\n\n  /**\n   * @dev Modifier to verify if sender is a price oracle.\n   */\n  modifier onlyPriceOracle(address assetAddress) {\n    require(_checkPriceOracle(assetAddress, msg.sender), \"Sender is not a price oracle.\");\n    _;\n  }\n\n  /**\n   * [Swaps CONSTRUCTOR]\n   * @dev Initialize Fund issuance contract + register\n   * the contract implementation in ERC1820Registry.\n   */\n  constructor() {\n    ERC1820Implementer._setInterface(FUND_ISSUER);\n    ERC1820Implementer._setInterface(ERC1400_TOKENS_RECIPIENT);\n    setInterfaceImplementation(ERC1400_TOKENS_RECIPIENT, address(this));\n  }\n\n /**\n   * [ERC1400TokensRecipient INTERFACE (1/2)]\n   * @dev Indicate whether or not the fund issuance contract can receive the tokens or not. [USED FOR ERC1400 TOKENS ONLY]\n   * @param data Information attached to the token transfer.\n   * @param operatorData Information attached to the Swaps transfer, by the operator.\n   * @return 'true' if the Swaps contract can receive the tokens, 'false' if not.\n   */\n  function canReceive(bytes calldata, bytes32, address, address, address, uint, bytes calldata  data, bytes calldata operatorData) external override pure returns(bool) {\n    return(_canReceive(data, operatorData));\n  }\n\n  /**\n   * [ERC1400TokensRecipient INTERFACE (2/2)]\n   * @dev Hook function executed when tokens are sent to the fund issuance contract. [USED FOR ERC1400 TOKENS ONLY]\n   * @param partition Name of the partition.\n   * @param from Token holder.\n   * @param to Token recipient.\n   * @param value Number of tokens to transfer.\n   * @param data Information attached to the token transfer.\n   * @param operatorData Information attached to the Swaps transfer, by the operator.\n   */\n  function tokensReceived(bytes calldata, bytes32 partition, address, address from, address to, uint value, bytes calldata data, bytes calldata operatorData) external override {\n    require(interfaceAddr(msg.sender, \"ERC1400Token\") == msg.sender, \"55\"); // 0x55 funds locked (lockup period)\n\n    require(to == address(this), \"50\"); // 0x50\ttransfer failure\n    require(_canReceive(data, operatorData), \"57\"); // 0x57\tinvalid receiver\n\n    bytes32 flag = _getTransferFlag(data);\n    bytes memory erc1400TokenData = abi.encode(msg.sender, partition, value);\n\n    if (flag == ORDER_SUBSCRIPTION_FLAG) {\n\n      address assetAddress = _getAssetAddress(data);\n      bytes32 assetClass = _getAssetClass(data);\n      bytes memory orderData = _getOrderData(data);\n\n      _subscribe(\n        from,\n        assetAddress,\n        assetClass,\n        orderData,\n        true,\n        erc1400TokenData\n      );\n\n    } else if (flag == ORDER_PAYMENT_FLAG) {\n      uint256 orderIndex = _getOrderIndex(data);\n      Order storage order = _orders[orderIndex];\n      require(from == order.investor, \"Payment sender is not the subscriber\");\n\n      _executePayment(orderIndex, erc1400TokenData, false);         \n    }\n  }\n\n\n  /**\n   * @dev Start a new subscription for a given asset in the fund issuance smart contract.\n   * @param assetAddress Address of the token representing the asset.\n   * @param assetClass Asset class.\n   * @param subscriptionPeriodLength Length of subscription period.\n   * @param valuationPeriodLength Length of valuation period.\n   * @param paymentPeriodLength Length of payment period.\n   * @param paymentType Type of payment (OFFCHAIN |ERC20 | ERC1400).\n   * @param paymentAddress Address of the payment token (only used id paymentType <> OFFCHAIN).\n   * @param paymentPartition Partition of the payment token (only used if paymentType is ERC1400).\n   * @param subscriptionsOpened Set 'true' if subscriptions are opened, 'false' if not.\n   */\n  function setAssetRules(\n    address assetAddress,\n    bytes32 assetClass,\n    uint256 firstStartTime,\n    uint256 subscriptionPeriodLength,\n    uint256 valuationPeriodLength,\n    uint256 paymentPeriodLength,\n    Payment paymentType,\n    address paymentAddress,\n    bytes32 paymentPartition,\n    address fundAddress,\n    bool subscriptionsOpened\n  )\n    external\n    onlyTokenController(assetAddress)\n  {\n    AssetRules storage rules = _assetRules[assetAddress][assetClass];\n\n    require(firstStartTime >= block.timestamp, \"First cycle start can not be prior to now\");\n\n    require(subscriptionPeriodLength != 0 && valuationPeriodLength != 0 && paymentPeriodLength != 0, \"Periods can not be nil\");\n\n    if(rules.defined) {\n      rules.firstStartTime = firstStartTime;\n      rules.subscriptionPeriodLength = subscriptionPeriodLength;\n      rules.valuationPeriodLength = valuationPeriodLength;\n      rules.paymentPeriodLength = paymentPeriodLength;\n      // rules.assetValueType = assetValueType; // Can only be modified by the price oracle\n      // rules.assetValue = assetValue; // Can only be modified by the price oracle\n      // rules.reverseAssetValue = reverseAssetValue; // Can only be modified by the price oracle\n      rules.paymentType = paymentType;\n      rules.paymentAddress = paymentAddress;\n      rules.paymentPartition = paymentPartition;\n      rules.fundAddress = fundAddress;\n      rules.subscriptionsOpened = subscriptionsOpened;\n    } else {\n\n      _assetRules[assetAddress][assetClass] = AssetRules({\n        defined: true,\n        firstStartTime: firstStartTime,\n        subscriptionPeriodLength: subscriptionPeriodLength,\n        valuationPeriodLength: valuationPeriodLength,\n        paymentPeriodLength: paymentPeriodLength,\n        assetValueType: AssetValue.Unknown,\n        assetValue: 0,\n        reverseAssetValue: 0,\n        paymentType: paymentType,\n        paymentAddress: paymentAddress,\n        paymentPartition: paymentPartition,\n        fundAddress: fundAddress,\n        subscriptionsOpened: subscriptionsOpened\n      });\n    }\n\n  }\n\n  /**\n   * @dev Set asset value rules for a given asset.\n   * @param assetAddress Address of the token representing the asset.\n   * @param assetClass Asset class.\n   * @param assetValueType Asset value type.\n   * @param assetValue Asset value.\n   * @param reverseAssetValue Reverse asset value.\n   */\n  function setAssetValueRules(\n    address assetAddress,\n    bytes32 assetClass,\n    AssetValue assetValueType,\n    uint256 assetValue,\n    uint256 reverseAssetValue\n  )\n    external\n    onlyPriceOracle(assetAddress)\n  {\n    AssetRules storage rules = _assetRules[assetAddress][assetClass];\n\n    require(rules.defined, \"Rules not defined for this asset\");\n\n    require(assetValue == 0 || reverseAssetValue == 0, \"Asset value can only be set in one direction\");\n\n    rules.assetValueType = assetValueType;\n    rules.assetValue = assetValue;\n    rules.reverseAssetValue = reverseAssetValue;\n  }\n\n  /**\n   * @dev Start a new subscription for a given asset in the fund issuance smart contract.\n   * @param assetAddress Address of the token representing the asset.\n   * @param assetClass Asset class.\n   * @return Index of new cycle.\n   */\n  function _startNewCycle(\n    address assetAddress,\n    bytes32 assetClass\n  )\n    internal\n    returns(uint256)\n  {\n    AssetRules storage rules = _assetRules[assetAddress][assetClass];\n    require(rules.defined, \"Rules not defined for this asset\");\n    require(rules.subscriptionsOpened, \"Subscriptions not opened for this asset\");\n\n    uint256 lastCycleIndex = _lastCycleIndex[assetAddress][assetClass];\n    Cycle storage lastCycle = _cycles[lastCycleIndex];\n    uint256 previousStartTime = (lastCycle.startTime != 0) ? lastCycle.startTime : rules.firstStartTime;\n\n    _cycleIndex = _cycleIndex.add(1);\n\n    _cycles[_cycleIndex] = Cycle({\n      assetAddress: assetAddress,\n      assetClass: assetClass,\n      startTime: _getNextStartTime(previousStartTime, rules.subscriptionPeriodLength),\n      subscriptionPeriodLength: rules.subscriptionPeriodLength,\n      valuationPeriodLength: rules.valuationPeriodLength,\n      paymentPeriodLength: rules.paymentPeriodLength,\n      assetValueType: rules.assetValueType,\n      assetValue: rules.assetValue,\n      reverseAssetValue: rules.reverseAssetValue,\n      paymentType: rules.paymentType,\n      paymentAddress: rules.paymentAddress,\n      paymentPartition: rules.paymentPartition,\n      fundAddress: rules.fundAddress,\n      finalized: false\n    });\n\n    _lastCycleIndex[assetAddress][assetClass] = _cycleIndex;\n\n    return _cycleIndex;\n  }\n\n  /**\n   * @dev Returns time of next cycle start.\n   * @param previousStartTime Previous start time.\n   * @param subscriptionPeriod Time between subscription period start and cut-off.\n   * @return Time of next cycle start.\n   */\n  function _getNextStartTime(uint256 previousStartTime, uint256 subscriptionPeriod) internal view returns(uint256) {\n    if(previousStartTime >= block.timestamp) {\n      return previousStartTime;\n    } else {\n      return block.timestamp.sub((block.timestamp - previousStartTime).mod(subscriptionPeriod));\n    }\n  }\n\n  /**\n   * @dev Subscribe for a given asset, by creating an order.\n   * @param assetAddress Address of the token representing the asset.\n   * @param assetClass Asset class.\n   * @param orderValue Value of assets to purchase (used in case order type is 'value').\n   * @param orderAmount Amount of assets to purchase (used in case order type is 'amount').\n   * @param orderType Order type (value |amount).\n   */\n  function subscribe(\n    address assetAddress,\n    bytes32 assetClass,\n    uint256 orderValue,\n    uint256 orderAmount,\n    OrderType orderType,\n    bool executePaymentAtSubscription\n  )\n    external\n    payable\n    returns(uint256)\n  {\n    bytes memory orderData = abi.encode(orderValue, orderAmount, orderType);\n\n    return _subscribe(\n      msg.sender,\n      assetAddress,\n      assetClass,\n      orderData,\n      executePaymentAtSubscription,\n      new bytes(0)\n    );\n  }\n  \n  /**\n   * @dev Subscribe for a given asset, by creating an order.\n   * @param assetAddress Address of the token representing the asset.\n   * @param assetClass Asset class.\n   * @param orderData Encoded pack of variables for order (orderValue, orderAmount, orderType).\n   * @param executePaymentAtSubscription 'true' if payment shall be executed at subscription, 'false' if not.\n   * @param erc1400TokenData Encoded pack of variables for erc1400 token (paymentAddress, paymentPartition, paymentValue).\n   */\n  function _subscribe(\n    address investor,\n    address assetAddress,\n    bytes32 assetClass,\n    bytes memory orderData,\n    bool executePaymentAtSubscription,\n    bytes memory erc1400TokenData\n  )\n    internal\n    returns(uint256)\n  {\n    uint256 lastIndex = _lastCycleIndex[assetAddress][assetClass];\n    CycleState currentState = _getCycleState(lastIndex);\n\n    if(currentState != CycleState.Subscription) {\n      lastIndex = _startNewCycle(assetAddress, assetClass);\n    }\n\n    require(_getCycleState(lastIndex) == CycleState.Subscription, \"Subscription can only be performed during subscription period\");\n\n    (uint256 value, uint256 amount, OrderType orderType) = abi.decode(orderData, (uint256, uint256, OrderType));\n\n    require(value == 0 || amount == 0, \"Order can not be of type amount and value at the same time\");\n\n    if(orderType == OrderType.Value) {\n      require(value != 0, \"Order value shall not be nil\");\n    } else if(orderType == OrderType.Amount) {\n      require(amount != 0, \"Order amount shall not be nil\");\n    } else {\n      revert(\"Order type needs to be value or amount\");\n    }\n\n    _orderIndex++;\n\n    _orders[_orderIndex] = Order({\n      cycleIndex: lastIndex,\n      investor: investor,\n      value: value,\n      amount: amount,\n      orderType: orderType,\n      state: OrderState.Subscribed\n    });\n\n    _cycleOrders[lastIndex].push(_orderIndex);\n\n    _investorOrders[investor].push(_orderIndex);\n\n    Cycle storage cycle = _cycles[lastIndex];\n    if(cycle.assetValueType == AssetValue.Known && executePaymentAtSubscription) {\n      _executePayment(_orderIndex, erc1400TokenData, false);\n    }\n\n    return _orderIndex;\n  }\n\n  /**\n   * @dev Cancel an order.\n   * @param orderIndex Index of the order to cancel.\n   */\n  function cancelOrder(uint256 orderIndex) external {\n    Order storage order = _orders[orderIndex];\n\n    require(\n      order.state == OrderState.Subscribed ||\n      order.state == OrderState.Paid,\n      \"Only subscribed or paid orders can be cancelled\"\n    ); // This also checks if the order exists. Otherwise, we would have \"order.state == OrderState.Undefined\"\n\n    require(_getCycleState(order.cycleIndex) < CycleState.Valuation, \"Orders can only be cancelled before cut-off\");\n\n    require(msg.sender == order.investor);\n\n    if(order.state == OrderState.Paid) {\n      _releasePayment(orderIndex, order.investor);\n    }\n\n    order.state = OrderState.Cancelled;\n  }\n\n  /**\n   * @dev Reject an order.\n   * @param orderIndex Index of the order to reject.\n   * @param rejected Set to 'true' if order shall be rejected, and set to 'false' if rejection shall be cancelled\n   */\n  function rejectOrder(uint256 orderIndex, bool rejected)\n    external\n  {\n    Order storage order = _orders[orderIndex];\n    \n    require(\n      order.state == OrderState.Subscribed ||\n      order.state == OrderState.Paid ||\n      order.state == OrderState.Rejected\n      ,\n      \"Order rejection can only handled for subscribed or paid orders\"\n    ); // This also checks if the order exists. Otherwise, we would have \"order.state == OrderState.Undefined\"\n\n    require(_getCycleState(order.cycleIndex) < CycleState.Payment , \"Orders can only be rejected before beginning of payment phase\");\n\n    Cycle storage cycle = _cycles[order.cycleIndex];\n\n    require(_tokenController(msg.sender, cycle.assetAddress),\n      \"Sender is not a token controller.\"\n    );\n\n    if(rejected) {\n      if(order.state == OrderState.Paid) {\n      _releasePayment(orderIndex, order.investor);\n      }\n      order.state = OrderState.Rejected;\n    } else {\n      order.state = OrderState.Subscribed;\n    }\n  }\n\n  /**\n   * @dev Set assetValue for a given asset.\n   * @param cycleIndex Index of the cycle where assetValue needs to be set.\n   * @param assetValue Units of cash required for a unit of asset.\n   * @param reverseAssetValue Units of asset required for a unit of cash.\n   */\n  function valuate(\n    uint256 cycleIndex,\n    uint256 assetValue,\n    uint256 reverseAssetValue\n  )\n    external\n  {\n    Cycle storage cycle = _cycles[cycleIndex];\n    CycleState cycleState = _getCycleState(cycleIndex);\n\n    require(cycleState > CycleState.Subscription && cycleState < CycleState.Payment , \"AssetValue can only be set during valuation period\");\n\n    require(cycle.assetValueType == AssetValue.Unknown, \"Asset value can only be set for a cycle of type unkonwn\");\n\n    require(assetValue == 0 || reverseAssetValue == 0, \"Asset value can only be set in one direction\");\n\n    require(_checkPriceOracle(cycle.assetAddress, msg.sender), \"Sender is not a price oracle.\");\n    \n    cycle.assetValue = assetValue;\n    cycle.reverseAssetValue = reverseAssetValue;\n  }\n\n  /**\n   * @dev Execute payment for a given order.\n   * @param orderIndex Index of the order to declare as paid.\n   */\n  function executePaymentAsInvestor(uint256 orderIndex) external payable {\n    Order storage order = _orders[orderIndex];\n\n    require(msg.sender == order.investor);\n\n    _executePayment(orderIndex, new bytes(0), false);\n  }\n\n  /**\n   * @dev Set payment as executed for a given order.\n   * @param orderIndex Index of the order to declare as paid.\n   * @param bypassPayment Bypass payment (in case payment has been performed off-chain)\n   */\n  function executePaymentAsController(uint256 orderIndex, bool bypassPayment) external {\n    Order storage order = _orders[orderIndex];\n    Cycle storage cycle = _cycles[order.cycleIndex];\n\n    require(_tokenController(msg.sender, cycle.assetAddress),\n      \"Sender is not a token controller.\"\n    );\n\n    _executePayment(orderIndex, new bytes(0), bypassPayment);\n  }\n\n  /**\n   * @dev Set payments as executed for a batch of given orders.\n   * @param orderIndexes Indexes of the orders to declare as paid.\n   * @param bypassPayment Bypass payment (in case payment has been performed off-chain)\n   */\n  function batchExecutePaymentsAsController(uint256[] calldata orderIndexes, bool bypassPayment)\n    external\n  {\n    for (uint i = 0; i<orderIndexes.length; i++){\n      Order storage order = _orders[orderIndexes[i]];\n      Cycle storage cycle = _cycles[order.cycleIndex];\n\n      require(_tokenController(msg.sender, cycle.assetAddress),\n        \"Sender is not a token controller.\"\n      );\n\n      _executePayment(orderIndexes[i], new bytes(0), bypassPayment);\n    }\n  }\n\n  /**\n   * @dev Pay for a given order.\n   * @param orderIndex Index of the order to declare as paid.\n   * @param erc1400TokenData Encoded pack of variables for erc1400 token (paymentAddress, paymentPartition, paymentValue).\n   * @param bypassPayment Bypass payment (in case payment has been performed off-chain)\n   */\n  function _executePayment(\n    uint256 orderIndex,\n    bytes memory erc1400TokenData,\n    bool bypassPayment\n  )\n    internal\n  {\n    Order storage order = _orders[orderIndex];\n    Cycle storage cycle = _cycles[order.cycleIndex];\n\n    require(\n      order.state == OrderState.Subscribed ||\n      order.state == OrderState.UnpaidSettled,\n      \"Order is neither in state Subscribed, nor UnpaidSettled\"\n    ); // This also checks if the order exists. Otherwise, we would have \"order.state == OrderState.Undefined\"\n\n    require(!cycle.finalized, \"Cycle is already finalized\");\n\n    if(cycle.assetValueType == AssetValue.Unknown) {\n      require(_getCycleState(order.cycleIndex) >= CycleState.Payment , \"Payment can only be performed after valuation period\");\n    } else {\n      require(_getCycleState(order.cycleIndex) >= CycleState.Subscription , \"Payment can only be performed after start of subscription period\");\n    }\n\n    require(order.orderType == OrderType.Value || order.orderType == OrderType.Amount, \"Invalid order type\");\n\n    (uint256 amount, uint256 value) = _getOrderAmountAndValue(orderIndex);\n    order.amount = amount;\n    order.value = value;\n\n    if(!bypassPayment) {\n      if (cycle.paymentType == Payment.ETH) {\n        require(msg.value == value, \"Amount of ETH is not correct\");\n        _escrowedEth[cycle.assetAddress] += value;\n      } else if (cycle.paymentType == Payment.ERC20) {\n        ERC20(cycle.paymentAddress).transferFrom(msg.sender, address(this), value);\n        _escrowedErc20[cycle.assetAddress][cycle.paymentAddress] += value;\n      } else if(cycle.paymentType == Payment.ERC1400 && erc1400TokenData.length == 0) {\n        ERC1400(cycle.paymentAddress).operatorTransferByPartition(cycle.paymentPartition, msg.sender, address(this), value, abi.encodePacked(BYPASS_ACTION_FLAG), abi.encodePacked(BYPASS_ACTION_FLAG));\n        _escrowedErc1400[cycle.assetAddress][cycle.paymentAddress][cycle.paymentPartition] += value;\n      } else if(cycle.paymentType == Payment.ERC1400 && erc1400TokenData.length != 0) {\n        (address erc1400TokenAddress, bytes32 erc1400TokenPartition, uint256 erc1400PaymentValue) = abi.decode(erc1400TokenData, (address, bytes32, uint256));\n        require(erc1400PaymentValue == value, \"wrong payment value\");\n        require(Payment.ERC1400 == cycle.paymentType, \"ERC1400 payment is not accecpted for this asset\");\n        require(erc1400TokenAddress == cycle.paymentAddress, \"wrong payment token address\");\n        require(erc1400TokenPartition == cycle.paymentPartition, \"wrong payment token partition\");\n        _escrowedErc1400[cycle.assetAddress][cycle.paymentAddress][cycle.paymentPartition] += value;\n      } else {\n        revert(\"off-chain payment needs to be bypassed\");\n      }\n    }\n\n    if(order.state == OrderState.UnpaidSettled) {\n      _releasePayment(orderIndex, cycle.fundAddress);\n      order.state = OrderState.PaidSettled;\n    } else {\n      order.state = OrderState.Paid;\n    }\n  }\n\n  /**\n   * @dev Retrieve order amount and order value calculated based on cycle valuation.\n   * @param orderIndex Index of the order.\n   * @return Order amount.\n   * @return Order value.\n   */\n  function _getOrderAmountAndValue(uint256 orderIndex) internal view returns(uint256, uint256) {\n    Order storage order = _orders[orderIndex];\n    Cycle storage cycle = _cycles[order.cycleIndex];\n\n    uint256 value;\n    uint256 amount;\n    if(order.orderType == OrderType.Value) {\n      value = order.value;\n      if(cycle.assetValue != 0) {\n        amount = value.div(cycle.assetValue);\n      } else {\n        amount = value.mul(cycle.reverseAssetValue);\n      }\n    }\n    \n    if(order.orderType == OrderType.Amount) {\n      amount = order.amount;\n      if(cycle.assetValue != 0) {\n        value = amount.mul(cycle.assetValue);\n      } else {\n        value = amount.div(cycle.reverseAssetValue);\n      }\n    }\n\n    return(amount, value);\n\n  }\n\n  /**\n   * @dev Release payment for a given order.\n   * @param orderIndex Index of the order of the payment to be sent.\n   * @param recipient Address to receive to the payment.\n   */\n  function _releasePayment(uint256 orderIndex, address recipient) internal {\n    Order storage order = _orders[orderIndex];\n    Cycle storage cycle = _cycles[order.cycleIndex];\n\n    if(cycle.paymentType == Payment.ETH) {\n      address payable refundAddress = payable(recipient);\n      refundAddress.transfer(order.value);\n      _escrowedEth[cycle.assetAddress] -= order.value;\n    } else if(cycle.paymentType == Payment.ERC20) {\n      ERC20(cycle.paymentAddress).transfer(recipient, order.value);\n      _escrowedErc20[cycle.assetAddress][cycle.paymentAddress] -= order.value;\n    } else if(cycle.paymentType == Payment.ERC1400) {\n      ERC1400(cycle.paymentAddress).transferByPartition(cycle.paymentPartition, recipient, order.value, abi.encodePacked(BYPASS_ACTION_FLAG));\n      _escrowedErc1400[cycle.assetAddress][cycle.paymentAddress][cycle.paymentPartition] -= order.value;\n    }\n  }\n\n  /**\n   * @dev Settle a given order.\n   * @param orderIndex Index of the order to settle.\n   */\n  function settleOrder(uint256 orderIndex) internal {\n    Order storage order = _orders[orderIndex];\n    Cycle storage cycle = _cycles[order.cycleIndex];\n\n    require(_tokenController(msg.sender, cycle.assetAddress),\n      \"Sender is not a token controller.\"\n    );\n\n    _settleOrder(orderIndex);\n  }\n\n  /**\n   * @dev Settle a batch of given orders.\n   * @param orderIndexes Indexes of the orders to settle.\n   */\n  function batchSettleOrders(uint256[] calldata orderIndexes)\n    external\n  {\n    for (uint i = 0; i<orderIndexes.length; i++){\n      Order storage order = _orders[orderIndexes[i]];\n      Cycle storage cycle = _cycles[order.cycleIndex];\n\n      require(_tokenController(msg.sender, cycle.assetAddress),\n        \"Sender is not a token controller.\"\n      );\n\n      _settleOrder(orderIndexes[i]);\n    }\n  }\n\n  /**\n   * @dev Settle a given order.\n   * @param orderIndex Index of the order to settle.\n   */\n  function _settleOrder(uint256 orderIndex) internal {\n    Order storage order = _orders[orderIndex];\n\n    require(order.state > OrderState.Undefined, \"Order doesnt exist\");\n\n    CycleState currentState = _getCycleState(order.cycleIndex);\n\n    Cycle storage cycle = _cycles[order.cycleIndex];\n\n    if(cycle.assetValueType == AssetValue.Unknown) {\n      require(currentState >= CycleState.Settlement, \"Order settlement can only be performed during settlement period\");\n    } else {\n      require(currentState >= CycleState.Valuation, \"Order settlement can only be performed after the cut-off\");\n    }\n\n    _releasePayment(orderIndex, cycle.fundAddress);\n\n    if(order.state == OrderState.Paid) {\n      ERC1400(cycle.assetAddress).issueByPartition(cycle.assetClass, order.investor, order.amount, \"\");\n      order.state = OrderState.PaidSettled;\n    } else if (order.state == OrderState.Subscribed) {\n      ERC1400(cycle.assetAddress).issueByPartition(cycle.assetClass, address(this), order.amount, \"\");\n      order.state = OrderState.UnpaidSettled;\n    } else {\n      revert(\"Impossible to settle an order that is neither in state Paid, nor Subscribed\");\n    }\n  }\n\n  /**\n   * @dev Finalize a given cycle.\n   * @param cycleIndex Index of the cycle to finalize.\n   */\n  function finalizeCycle(uint256 cycleIndex) external {\n    Cycle storage cycle = _cycles[cycleIndex];\n\n    require(_tokenController(msg.sender, cycle.assetAddress),\n      \"Sender is not a token controller.\"\n    );\n\n    require(!cycle.finalized, \"Cycle is already finalized\");\n\n    (, uint256 totalUnpaidSettled, bool remainingOrdersToSettle) = _getTotalSettledForCycle(cycleIndex);\n\n    if(!remainingOrdersToSettle) {\n      cycle.finalized = true;\n      if(totalUnpaidSettled != 0) {\n        ERC1400(cycle.assetAddress).transferByPartition(cycle.assetClass, cycle.fundAddress, totalUnpaidSettled, \"\");\n      }\n    } else {\n      revert(\"Remaining orders to settle\");\n    }\n  }\n\n  /**\n   * @dev Retrieve sum of paid/unpaid settled orders for a given cycle.\n   *\n   * @param cycleIndex Index of the cycle.\n   * @return Sum of paid settled orders.\n   * @return Sum of unpaid settled orders.\n   * @return 'True' if there are remaining orders to settle, 'false' if not.\n   */\n  function getTotalSettledForCycle(uint256 cycleIndex) external view returns(uint256, uint256, bool) {\n    return _getTotalSettledForCycle(cycleIndex);\n  }\n\n  /**\n   * @dev Retrieve sum of paid/unpaid settled orders for a given cycle.\n   *\n   * @param cycleIndex Index of the cycle.\n   * @return Sum of paid settled orders.\n   * @return Sum of unpaid settled orders.\n   * @return 'True' if there are remaining orders to settle, 'false' if not.\n   */\n  function _getTotalSettledForCycle(uint256 cycleIndex) internal view returns(uint256, uint256, bool) {\n    uint256 totalPaidSettled;\n    uint256 totalUnpaidSettled;\n    bool remainingOrdersToSettle;\n\n    for (uint i = 0; i<_cycleOrders[cycleIndex].length; i++){\n      Order storage order = _orders[_cycleOrders[cycleIndex][i]];\n\n      if(order.state == OrderState.PaidSettled) {\n        totalPaidSettled = totalPaidSettled.add(order.amount);\n      } else if(order.state == OrderState.UnpaidSettled) {\n        totalUnpaidSettled = totalUnpaidSettled.add(order.amount);\n      } else if(\n        order.state != OrderState.Cancelled &&\n        order.state != OrderState.Rejected\n      ) {\n        remainingOrdersToSettle = true;\n      }\n\n    }\n\n    return (totalPaidSettled, totalUnpaidSettled, remainingOrdersToSettle);\n  }\n\n  /**\n   * @dev Retrieve the current state of the cycle.\n   *\n   * @param cycleIndex Index of the cycle.\n   * @return Cycle state.\n   */\n  function getCycleState(uint256 cycleIndex) external view returns(CycleState) {\n    return _getCycleState(cycleIndex);\n  }\n\n  /**\n   * @dev Retrieve the current state of the cycle.\n   *\n   * @param cycleIndex Index of the cycle.\n   * @return Cycle state.\n   */\n  function _getCycleState(uint256 cycleIndex) internal view returns(CycleState) {\n    Cycle storage cycle = _cycles[cycleIndex];\n\n    if(block.timestamp < cycle.startTime || cycle.startTime == 0) {\n      return CycleState.Undefined;\n    } else if(block.timestamp < cycle.startTime + cycle.subscriptionPeriodLength) {\n      return CycleState.Subscription;\n    } else if(block.timestamp < cycle.startTime + cycle.subscriptionPeriodLength + cycle.valuationPeriodLength) {\n      return CycleState.Valuation;\n    } else if(block.timestamp < cycle.startTime + cycle.subscriptionPeriodLength + cycle.valuationPeriodLength + cycle.paymentPeriodLength) {\n      return CycleState.Payment;\n    } else if(!cycle.finalized){\n      return CycleState.Settlement; \n    } else {\n      return CycleState.Finalized;\n    }\n  }\n\n  /**\n   * @dev Check if the sender is a token controller.\n   *\n   * @param sender Transaction sender.\n   * @param assetAddress Address of the token representing the asset.\n   * @return Returns 'true' if sender is a token controller.\n   */\n  function _tokenController(address sender, address assetAddress) internal view returns(bool) {\n    if(sender == Ownable(assetAddress).owner() ||\n      _isTokenController[assetAddress][sender]) {\n      return true;\n    } else {\n      return false;\n    }\n\n  }\n\n  /**\n   * @dev Indicate whether or not the fund issuance contract can receive the tokens.\n   *\n   * By convention, the 32 first bytes of a token transfer to the fund issuance smart contract contain a flag.\n   *\n   *  - When tokens are transferred to fund issuance contract to create a new order, the 'data' field starts with the\n   *  following flag: 0xcccccccccccccccccccccccccccccccccccccccccccccccccccccccccccccccc\n   *  In this case the data structure is the the following:\n   *  <transferFlag (32 bytes)><asset address (32 bytes)><asset class (32 bytes)><order data (3 * 32 bytes)>\n   *\n   *  - When tokens are transferred to fund issuance contract to pay for an existing order, the 'data' field starts with the\n   *  following flag: 0xdddddddddddddddddddddddddddddddddddddddddddddddddddddddddddddddd\n   *  In this case the data structure is the the following:\n   *  <transferFlag (32 bytes)><order index (32 bytes)>\n   *\n   * If the 'data' doesn't start with one of those flags, the fund issuance contract won't accept the token transfer.\n   *\n   * @param data Information attached to the token transfer to fund issuance contract.\n   * @param operatorData Information attached to the token transfer to fund issuance contract, by the operator.\n   * @return 'true' if the fund issuance contract can receive the tokens, 'false' if not.\n   */\n  function _canReceive(bytes memory data, bytes memory operatorData) internal pure returns(bool) {\n    if(operatorData.length == 0) { // The reason for this check is to avoid a certificate gets interpreted as a flag by mistake\n      return false;\n    }\n    \n    bytes32 flag = _getTransferFlag(data);\n    if(data.length == 192 && flag == ORDER_SUBSCRIPTION_FLAG) {\n      return true;\n    } else if(data.length == 64 && flag == ORDER_PAYMENT_FLAG) {\n      return true;\n    } else if (data.length == 32 && flag == BYPASS_ACTION_FLAG) {\n      return true;\n    } else {\n      return false;\n    }\n  }\n\n  /**\n   * @dev Retrieve the transfer flag from the 'data' field.\n   *\n   * By convention, the 32 first bytes of a token transfer to the fund issuance smart contract contain a flag.\n   *  - When tokens are transferred to fund issuance contract to create a new order, the 'data' field starts with the\n   *  following flag: 0xcccccccccccccccccccccccccccccccccccccccccccccccccccccccccccccccc\n   *  - When tokens are transferred to fund issuance contract to pay for an existing order, the 'data' field starts with the\n   *  following flag: 0xdddddddddddddddddddddddddddddddddddddddddddddddddddddddddddddddd\n   *\n   * @param data Concatenated information about the transfer.\n   * @return flag Transfer flag.\n   */\n  function _getTransferFlag(bytes memory data) internal pure returns(bytes32 flag) {\n    assembly {\n      flag:= mload(add(data, 32))\n    }\n  }\n\n  /**\n   * By convention, when tokens are transferred to fund issuance contract to create a new order, the 'data' of a token transfer has the following structure:\n   *  <transferFlag (32 bytes)><asset address (32 bytes)><asset class (32 bytes)><order data (3 * 32 bytes)>\n   *\n   * The first 32 bytes are the flag 0xcccccccccccccccccccccccccccccccccccccccccccccccccccccccccccccccc\n   *\n   * The next 32 bytes contain the order index.\n   *\n   * Example input for asset address '0xb5747835141b46f7C472393B31F8F5A57F74A44f',\n   * asset class '37252', order type 'Value', and value 12000\n   * 0xcccccccccccccccccccccccccccccccccccccccccccccccccccccccccccccccc000000000000000000000000b5747835141b46f7C472393B31F8F5A57F74A44f\n   * 000000000000000000000000000000000000000000000000000000000037252000000000000000000000000000000000000000000000000000000000000001\n   * 000000000000000000000000000000000000000000000000000000000002ee0000000000000000000000000000000000000000000000000000000000000000\n   *\n   */\n  function _getAssetAddress(bytes memory data) internal pure returns(address assetAddress) {\n    assembly {\n      assetAddress:= mload(add(data, 64))\n    }\n  }\n\n  function _getAssetClass(bytes memory data) internal pure returns(bytes32 assetClass) {\n    assembly {\n      assetClass:= mload(add(data, 96))\n    }\n  }\n\n  function _getOrderData(bytes memory data) internal pure returns(bytes memory orderData) {\n    uint256 orderValue;\n    uint256 orderAmount;\n    OrderType orderType;\n    assembly {\n      orderValue:= mload(add(data, 128))\n      orderAmount:= mload(add(data, 160))\n      orderType:= mload(add(data, 192))\n    }\n    orderData = abi.encode(orderValue, orderAmount, orderType);\n  }\n\n  /**\n   * By convention, when tokens are transferred to fund issuance contract to pay for an existing order, the 'data' of a token transfer has the following structure:\n   *  <transferFlag (32 bytes)><order index (32 bytes)>\n   *\n   * The first 32 bytes are the flag 0xdddddddddddddddddddddddddddddddddddddddddddddddddddddddddddddddd\n   *\n   * The next 32 bytes contain the order index.\n   *\n   * Example input for order index 3:\n   * 0xdddddddddddddddddddddddddddddddddddddddddddddddddddddddddddddddd000000000000000000000000000000000000000000000000000000000000003\n   *\n   */\n\n  /**\n   * @dev Retrieve the order index from the 'data' field.\n   *\n   * @param data Concatenated information about the order payment.\n   * @return orderIndex Order index.\n   */\n  function _getOrderIndex(bytes memory data) internal pure returns(uint256 orderIndex) {\n    assembly {\n      orderIndex:= mload(add(data, 64))\n    }\n  }\n\n  /************************** TOKEN CONTROLLERS *******************************/\n\n  /**\n   * @dev Get the list of token controllers for a given token.\n   * @param tokenAddress Token address.\n   * @return List of addresses of all the token controllers for a given token.\n   */\n  function tokenControllers(address tokenAddress) external view returns (address[] memory) {\n    return _tokenControllers[tokenAddress];\n  }\n\n  /**\n   * @dev Set list of token controllers for a given token.\n   * @param tokenAddress Token address.\n   * @param operators Operators addresses.\n   */\n  function setTokenControllers(address tokenAddress, address[] calldata operators) external onlyTokenController(tokenAddress) {\n    _setTokenControllers(tokenAddress, operators);\n  }\n\n  /**\n   * @dev Set list of token controllers for a given token.\n   * @param tokenAddress Token address.\n   * @param operators Operators addresses.\n   */\n  function _setTokenControllers(address tokenAddress, address[] memory operators) internal {\n    for (uint i = 0; i<_tokenControllers[tokenAddress].length; i++){\n      _isTokenController[tokenAddress][_tokenControllers[tokenAddress][i]] = false;\n    }\n    for (uint j = 0; j<operators.length; j++){\n      _isTokenController[tokenAddress][operators[j]] = true;\n    }\n    _tokenControllers[tokenAddress] = operators;\n  }\n\n  /************************** TOKEN PRICE ORACLES *******************************/\n\n  /**\n   * @dev Get the list of price oracles for a given token.\n   * @param tokenAddress Token address.\n   * @return List of addresses of all the price oracles for a given token.\n   */\n  function priceOracles(address tokenAddress) external view returns (address[] memory) {\n    return _priceOracles[tokenAddress];\n  }\n\n  /**\n   * @dev Set list of price oracles for a given token.\n   * @param tokenAddress Token address.\n   * @param oracles Oracles addresses.\n   */\n  function setPriceOracles(address tokenAddress, address[] calldata oracles) external onlyPriceOracle(tokenAddress) {\n    _setPriceOracles(tokenAddress, oracles);\n  }\n\n  /**\n   * @dev Set list of price oracles for a given token.\n   * @param tokenAddress Token address.\n   * @param oracles Oracles addresses.\n   */\n  function _setPriceOracles(address tokenAddress, address[] memory oracles) internal {\n    for (uint i = 0; i<_priceOracles[tokenAddress].length; i++){\n      _isPriceOracle[tokenAddress][_priceOracles[tokenAddress][i]] = false;\n    }\n    for (uint j = 0; j<oracles.length; j++){\n      _isPriceOracle[tokenAddress][oracles[j]] = true;\n    }\n    _priceOracles[tokenAddress] = oracles;\n  }\n\n  /**\n   * @dev Check if address is oracle of a given token.\n   * @param tokenAddress Token address.\n   * @param oracle Oracle address.\n   * @return 'true' if the address is oracle of the given token.\n   */\n  function _checkPriceOracle(address tokenAddress, address oracle) internal view returns(bool) {\n    return(_isPriceOracle[tokenAddress][oracle] || oracle == Ownable(tokenAddress).owner());\n  }\n\n  /**************************** VIEW FUNCTIONS *******************************/\n\n  /**\n   * @dev Get asset rules.\n   * @param assetAddress Address of the asset.\n   * @param assetClass Class of the asset.\n   * @return Asset rules.\n   */\n  function getAssetRules(address assetAddress, bytes32 assetClass)\n    external\n    view\n    returns(uint256, uint256, uint256, uint256, Payment, address, bytes32, address, bool)\n  {\n    AssetRules storage rules = _assetRules[assetAddress][assetClass];\n    return (\n      rules.firstStartTime,\n      rules.subscriptionPeriodLength,\n      rules.valuationPeriodLength,\n      rules.paymentPeriodLength,\n      rules.paymentType,\n      rules.paymentAddress,\n      rules.paymentPartition,\n      rules.fundAddress,\n      rules.subscriptionsOpened\n    );\n\n  }\n\n  /**\n   * @dev Get the cycle asset value rules.\n   * @param assetAddress Address of the asset.\n   * @param assetClass Class of the asset.\n   * @return Asset value rules.\n   */\n  function getAssetValueRules(address assetAddress, bytes32 assetClass) external view returns(AssetValue, uint256, uint256) {\n    AssetRules storage rules = _assetRules[assetAddress][assetClass];\n    return (\n      rules.assetValueType,\n      rules.assetValue,\n      rules.reverseAssetValue\n    );\n  }\n\n  /**\n   * @dev Get total number of cycles in the contract.\n   * @return Number of cycles.\n   */\n  function getNbCycles() external view returns(uint256) {\n    return _cycleIndex;\n  }\n\n  /**\n   * @dev Get the index of the last cycle created for a given asset class.\n   * @param assetAddress Address of the token representing the asset.\n   * @param assetClass Asset class.\n   * @return Cycle index.\n   */\n  function getLastCycleIndex(address assetAddress, bytes32 assetClass) external view returns(uint256) {\n    return _lastCycleIndex[assetAddress][assetClass];\n  }\n\n  /**\n   * @dev Get the cycle.\n   * @param index Index of the cycle.\n   * @return Cycle.\n   */\n  function getCycle(uint256 index) external view returns(address, bytes32, uint256, uint256, uint256, uint256, Payment, address, bytes32, bool) {\n    Cycle storage cycle = _cycles[index];\n    return (\n      cycle.assetAddress,\n      cycle.assetClass,\n      cycle.startTime,\n      cycle.subscriptionPeriodLength,\n      cycle.valuationPeriodLength,\n      cycle.paymentPeriodLength,\n      cycle.paymentType,\n      cycle.paymentAddress,\n      cycle.paymentPartition,\n      cycle.finalized\n    );\n  }\n\n  /**\n   * @dev Get the cycle asset value.\n   * @param index Index of the cycle.\n   * @return Cycle.\n   */\n  function getCycleAssetValue(uint256 index) external view returns(AssetValue, uint256, uint256) {\n    Cycle storage cycle = _cycles[index];\n    return (\n      cycle.assetValueType,\n      cycle.assetValue,\n      cycle.reverseAssetValue\n    );\n  }\n\n  /**\n   * @dev Get total number of orders in the contract.\n   * @return Number of orders.\n   */\n  function getNbOrders() external view returns(uint256) {\n    return _orderIndex;\n  }\n\n  /**\n   * @dev Retrieve an order.\n   * @param index Index of the order.\n   * @return Order.\n   */\n  function getOrder(uint256 index) external view returns(uint256, address, uint256, uint256, OrderType, OrderState) {\n    Order storage order = _orders[index];\n    return (\n      order.cycleIndex,\n      order.investor,\n      order.value,\n      order.amount,\n      order.orderType,\n      order.state\n    );\n  }\n\n  /**\n   * @dev Retrieve order amount and order value calculated based on cycle valuation.\n   * @param orderIndex Index of the order.\n   * @return Order amount.\n   * @return Order value.\n   */\n  function getOrderAmountAndValue(uint256 orderIndex) external view returns(uint256, uint256) {\n    return _getOrderAmountAndValue(orderIndex);\n  }\n\n  /**\n   * @dev Get list of cycle orders.\n   * @param index Index of the cycle.\n   * @return List of cycle orders.\n   */\n  function getCycleOrders(uint256 index) external view returns(uint256[] memory) {\n    return _cycleOrders[index];\n  }\n\n  /**\n   * @dev Get list of investor orders.\n   * @return List of investor orders.\n   */\n  function getInvestorOrders(address investor) external view returns(uint256[] memory) {\n    return _investorOrders[investor];\n  }\n\n }\n",
  "sourcePath": "/Users/sergio/Library/Mobile Documents/com~apple~CloudDocs/Master-ciberseguridad-y-privacidad/2-Quatrimestre/TFM/project/truffle/contracts/ERC1400/tools/FundIssuer.sol",
  "compiler": {
    "name": "solc",
    "version": "0.8.25+commit.b61c2a91.Emscripten.clang"
  },
  "schemaVersion": "3.4.16",
  "updatedAt": "2024-05-02T18:13:05.197Z",
  "devdoc": {
    "details": "Fund issuance contract.Intended usage: The purpose of the contract is to perform a fund issuance.",
    "kind": "dev",
    "methods": {
      "batchExecutePaymentsAsController(uint256[],bool)": {
        "details": "Set payments as executed for a batch of given orders.",
        "params": {
          "bypassPayment": "Bypass payment (in case payment has been performed off-chain)",
          "orderIndexes": "Indexes of the orders to declare as paid."
        }
      },
      "batchSettleOrders(uint256[])": {
        "details": "Settle a batch of given orders.",
        "params": {
          "orderIndexes": "Indexes of the orders to settle."
        }
      },
      "canReceive(bytes,bytes32,address,address,address,uint256,bytes,bytes)": {
        "details": "Indicate whether or not the fund issuance contract can receive the tokens or not. [USED FOR ERC1400 TOKENS ONLY]",
        "params": {
          "data": "Information attached to the token transfer.",
          "operatorData": "Information attached to the Swaps transfer, by the operator."
        },
        "returns": {
          "_0": "'true' if the Swaps contract can receive the tokens, 'false' if not."
        }
      },
      "cancelOrder(uint256)": {
        "details": "Cancel an order.",
        "params": {
          "orderIndex": "Index of the order to cancel."
        }
      },
      "constructor": {
        "details": "Initialize Fund issuance contract + register the contract implementation in ERC1820Registry."
      },
      "executePaymentAsController(uint256,bool)": {
        "details": "Set payment as executed for a given order.",
        "params": {
          "bypassPayment": "Bypass payment (in case payment has been performed off-chain)",
          "orderIndex": "Index of the order to declare as paid."
        }
      },
      "executePaymentAsInvestor(uint256)": {
        "details": "Execute payment for a given order.",
        "params": {
          "orderIndex": "Index of the order to declare as paid."
        }
      },
      "finalizeCycle(uint256)": {
        "details": "Finalize a given cycle.",
        "params": {
          "cycleIndex": "Index of the cycle to finalize."
        }
      },
      "getAssetRules(address,bytes32)": {
        "details": "Get asset rules.",
        "params": {
          "assetAddress": "Address of the asset.",
          "assetClass": "Class of the asset."
        },
        "returns": {
          "_0": "Asset rules."
        }
      },
      "getAssetValueRules(address,bytes32)": {
        "details": "Get the cycle asset value rules.",
        "params": {
          "assetAddress": "Address of the asset.",
          "assetClass": "Class of the asset."
        },
        "returns": {
          "_0": "Asset value rules."
        }
      },
      "getCycle(uint256)": {
        "details": "Get the cycle.",
        "params": {
          "index": "Index of the cycle."
        },
        "returns": {
          "_0": "Cycle."
        }
      },
      "getCycleAssetValue(uint256)": {
        "details": "Get the cycle asset value.",
        "params": {
          "index": "Index of the cycle."
        },
        "returns": {
          "_0": "Cycle."
        }
      },
      "getCycleOrders(uint256)": {
        "details": "Get list of cycle orders.",
        "params": {
          "index": "Index of the cycle."
        },
        "returns": {
          "_0": "List of cycle orders."
        }
      },
      "getCycleState(uint256)": {
        "details": "Retrieve the current state of the cycle.",
        "params": {
          "cycleIndex": "Index of the cycle."
        },
        "returns": {
          "_0": "Cycle state."
        }
      },
      "getInvestorOrders(address)": {
        "details": "Get list of investor orders.",
        "returns": {
          "_0": "List of investor orders."
        }
      },
      "getLastCycleIndex(address,bytes32)": {
        "details": "Get the index of the last cycle created for a given asset class.",
        "params": {
          "assetAddress": "Address of the token representing the asset.",
          "assetClass": "Asset class."
        },
        "returns": {
          "_0": "Cycle index."
        }
      },
      "getNbCycles()": {
        "details": "Get total number of cycles in the contract.",
        "returns": {
          "_0": "Number of cycles."
        }
      },
      "getNbOrders()": {
        "details": "Get total number of orders in the contract.",
        "returns": {
          "_0": "Number of orders."
        }
      },
      "getOrder(uint256)": {
        "details": "Retrieve an order.",
        "params": {
          "index": "Index of the order."
        },
        "returns": {
          "_0": "Order."
        }
      },
      "getOrderAmountAndValue(uint256)": {
        "details": "Retrieve order amount and order value calculated based on cycle valuation.",
        "params": {
          "orderIndex": "Index of the order."
        },
        "returns": {
          "_0": "Order amount.",
          "_1": "Order value."
        }
      },
      "getTotalSettledForCycle(uint256)": {
        "details": "Retrieve sum of paid/unpaid settled orders for a given cycle.",
        "params": {
          "cycleIndex": "Index of the cycle."
        },
        "returns": {
          "_0": "Sum of paid settled orders.",
          "_1": "Sum of unpaid settled orders.",
          "_2": "'True' if there are remaining orders to settle, 'false' if not."
        }
      },
      "priceOracles(address)": {
        "details": "Get the list of price oracles for a given token.",
        "params": {
          "tokenAddress": "Token address."
        },
        "returns": {
          "_0": "List of addresses of all the price oracles for a given token."
        }
      },
      "rejectOrder(uint256,bool)": {
        "details": "Reject an order.",
        "params": {
          "orderIndex": "Index of the order to reject.",
          "rejected": "Set to 'true' if order shall be rejected, and set to 'false' if rejection shall be cancelled"
        }
      },
      "setAssetRules(address,bytes32,uint256,uint256,uint256,uint256,uint8,address,bytes32,address,bool)": {
        "details": "Start a new subscription for a given asset in the fund issuance smart contract.",
        "params": {
          "assetAddress": "Address of the token representing the asset.",
          "assetClass": "Asset class.",
          "paymentAddress": "Address of the payment token (only used id paymentType <> OFFCHAIN).",
          "paymentPartition": "Partition of the payment token (only used if paymentType is ERC1400).",
          "paymentPeriodLength": "Length of payment period.",
          "paymentType": "Type of payment (OFFCHAIN |ERC20 | ERC1400).",
          "subscriptionPeriodLength": "Length of subscription period.",
          "subscriptionsOpened": "Set 'true' if subscriptions are opened, 'false' if not.",
          "valuationPeriodLength": "Length of valuation period."
        }
      },
      "setAssetValueRules(address,bytes32,uint8,uint256,uint256)": {
        "details": "Set asset value rules for a given asset.",
        "params": {
          "assetAddress": "Address of the token representing the asset.",
          "assetClass": "Asset class.",
          "assetValue": "Asset value.",
          "assetValueType": "Asset value type.",
          "reverseAssetValue": "Reverse asset value."
        }
      },
      "setPriceOracles(address,address[])": {
        "details": "Set list of price oracles for a given token.",
        "params": {
          "oracles": "Oracles addresses.",
          "tokenAddress": "Token address."
        }
      },
      "setTokenControllers(address,address[])": {
        "details": "Set list of token controllers for a given token.",
        "params": {
          "operators": "Operators addresses.",
          "tokenAddress": "Token address."
        }
      },
      "subscribe(address,bytes32,uint256,uint256,uint8,bool)": {
        "details": "Subscribe for a given asset, by creating an order.",
        "params": {
          "assetAddress": "Address of the token representing the asset.",
          "assetClass": "Asset class.",
          "orderAmount": "Amount of assets to purchase (used in case order type is 'amount').",
          "orderType": "Order type (value |amount).",
          "orderValue": "Value of assets to purchase (used in case order type is 'value')."
        }
      },
      "tokenControllers(address)": {
        "details": "Get the list of token controllers for a given token.",
        "params": {
          "tokenAddress": "Token address."
        },
        "returns": {
          "_0": "List of addresses of all the token controllers for a given token."
        }
      },
      "tokensReceived(bytes,bytes32,address,address,address,uint256,bytes,bytes)": {
        "details": "Hook function executed when tokens are sent to the fund issuance contract. [USED FOR ERC1400 TOKENS ONLY]",
        "params": {
          "data": "Information attached to the token transfer.",
          "from": "Token holder.",
          "operatorData": "Information attached to the Swaps transfer, by the operator.",
          "partition": "Name of the partition.",
          "to": "Token recipient.",
          "value": "Number of tokens to transfer."
        }
      },
      "valuate(uint256,uint256,uint256)": {
        "details": "Set assetValue for a given asset.",
        "params": {
          "assetValue": "Units of cash required for a unit of asset.",
          "cycleIndex": "Index of the cycle where assetValue needs to be set.",
          "reverseAssetValue": "Units of asset required for a unit of cash."
        }
      }
    },
    "title": "FundIssuer",
    "version": 1
  },
  "userdoc": {
    "kind": "user",
    "methods": {
      "canReceive(bytes,bytes32,address,address,address,uint256,bytes,bytes)": {
        "notice": "[ERC1400TokensRecipient INTERFACE (1/2)]"
      },
      "constructor": {
        "notice": "[Swaps CONSTRUCTOR]"
      },
      "tokensReceived(bytes,bytes32,address,address,address,uint256,bytes,bytes)": {
        "notice": "[ERC1400TokensRecipient INTERFACE (2/2)]"
      }
    },
    "version": 1
  }
}