{
  "contractName": "Pausable",
  "abi": [
    {
      "anonymous": false,
      "inputs": [
        {
          "indexed": true,
          "internalType": "address",
          "name": "token",
          "type": "address"
        },
        {
          "indexed": false,
          "internalType": "address",
          "name": "account",
          "type": "address"
        }
      ],
      "name": "Paused",
      "type": "event"
    },
    {
      "anonymous": false,
      "inputs": [
        {
          "indexed": true,
          "internalType": "address",
          "name": "token",
          "type": "address"
        },
        {
          "indexed": true,
          "internalType": "address",
          "name": "account",
          "type": "address"
        }
      ],
      "name": "PauserAdded",
      "type": "event"
    },
    {
      "anonymous": false,
      "inputs": [
        {
          "indexed": true,
          "internalType": "address",
          "name": "token",
          "type": "address"
        },
        {
          "indexed": true,
          "internalType": "address",
          "name": "account",
          "type": "address"
        }
      ],
      "name": "PauserRemoved",
      "type": "event"
    },
    {
      "anonymous": false,
      "inputs": [
        {
          "indexed": true,
          "internalType": "address",
          "name": "token",
          "type": "address"
        },
        {
          "indexed": false,
          "internalType": "address",
          "name": "account",
          "type": "address"
        }
      ],
      "name": "Unpaused",
      "type": "event"
    },
    {
      "inputs": [
        {
          "internalType": "address",
          "name": "token",
          "type": "address"
        },
        {
          "internalType": "address",
          "name": "account",
          "type": "address"
        }
      ],
      "name": "addPauser",
      "outputs": [],
      "stateMutability": "nonpayable",
      "type": "function"
    },
    {
      "inputs": [
        {
          "internalType": "address",
          "name": "token",
          "type": "address"
        },
        {
          "internalType": "address",
          "name": "account",
          "type": "address"
        }
      ],
      "name": "isPauser",
      "outputs": [
        {
          "internalType": "bool",
          "name": "",
          "type": "bool"
        }
      ],
      "stateMutability": "view",
      "type": "function"
    },
    {
      "inputs": [
        {
          "internalType": "address",
          "name": "token",
          "type": "address"
        },
        {
          "internalType": "address",
          "name": "account",
          "type": "address"
        }
      ],
      "name": "removePauser",
      "outputs": [],
      "stateMutability": "nonpayable",
      "type": "function"
    },
    {
      "inputs": [
        {
          "internalType": "address",
          "name": "token",
          "type": "address"
        }
      ],
      "name": "renouncePauser",
      "outputs": [],
      "stateMutability": "nonpayable",
      "type": "function"
    },
    {
      "inputs": [
        {
          "internalType": "address",
          "name": "token",
          "type": "address"
        }
      ],
      "name": "paused",
      "outputs": [
        {
          "internalType": "bool",
          "name": "",
          "type": "bool"
        }
      ],
      "stateMutability": "view",
      "type": "function"
    },
    {
      "inputs": [
        {
          "internalType": "address",
          "name": "token",
          "type": "address"
        }
      ],
      "name": "pause",
      "outputs": [],
      "stateMutability": "nonpayable",
      "type": "function"
    },
    {
      "inputs": [
        {
          "internalType": "address",
          "name": "token",
          "type": "address"
        }
      ],
      "name": "unpause",
      "outputs": [],
      "stateMutability": "nonpayable",
      "type": "function"
    }
  ],
  "bytecode": "0x6080604052348015600e575f80fd5b50610acc8061001c5f395ff3fe608060405234801561000f575f80fd5b506004361061007b575f3560e01c806357b001f91161005957806357b001f9146100fb57806376a67a5114610117578063eb5314bd14610133578063ed2f90951461014f5761007b565b80632e48152c1461007f5780632fd33398146100af57806341eb24bb146100df575b5f80fd5b6100996004803603810190610094919061083e565b61016b565b6040516100a69190610883565b60405180910390f35b6100c960048036038101906100c4919061089c565b6101bd565b6040516100d69190610883565b60405180910390f35b6100f960048036038101906100f4919061083e565b610214565b005b6101156004803603810190610110919061083e565b610221565b005b610131600480360381019061012c919061083e565b61032e565b005b61014d6004803603810190610148919061089c565b61043c565b005b6101696004803603810190610164919061089c565b61045e565b005b5f60015f8373ffffffffffffffffffffffffffffffffffffffff1673ffffffffffffffffffffffffffffffffffffffff1681526020019081526020015f205f9054906101000a900460ff169050919050565b5f61020c825f808673ffffffffffffffffffffffffffffffffffffffff1673ffffffffffffffffffffffffffffffffffffffff1681526020019081526020015f2061048090919063ffffffff16565b905092915050565b61021e8133610542565b50565b8061022c81336101bd565b610234575f80fd5b8160015f8273ffffffffffffffffffffffffffffffffffffffff1673ffffffffffffffffffffffffffffffffffffffff1681526020019081526020015f205f9054906101000a900460ff16610287575f80fd5b5f60015f8573ffffffffffffffffffffffffffffffffffffffff1673ffffffffffffffffffffffffffffffffffffffff1681526020019081526020015f205f6101000a81548160ff0219169083151502179055508273ffffffffffffffffffffffffffffffffffffffff167f3d072963433794eb417a69355df67d08bbd73d5076ef653d6863861161d60af33360405161032191906108e9565b60405180910390a2505050565b8061033981336101bd565b610341575f80fd5b8160015f8273ffffffffffffffffffffffffffffffffffffffff1673ffffffffffffffffffffffffffffffffffffffff1681526020019081526020015f205f9054906101000a900460ff1615610395575f80fd5b6001805f8573ffffffffffffffffffffffffffffffffffffffff1673ffffffffffffffffffffffffffffffffffffffff1681526020019081526020015f205f6101000a81548160ff0219169083151502179055508273ffffffffffffffffffffffffffffffffffffffff167f3dd4f37ca5eaf6c357698a52c806820426d7c9a26adb0991c3bebb09cf23352a3360405161042f91906108e9565b60405180910390a2505050565b8161044781336101bd565b61044f575f80fd5b61045983836105ee565b505050565b8161046981336101bd565b610471575f80fd5b61047b8383610542565b505050565b5f8073ffffffffffffffffffffffffffffffffffffffff168273ffffffffffffffffffffffffffffffffffffffff16036104ef576040517f08c379a00000000000000000000000000000000000000000000000000000000081526004016104e690610982565b60405180910390fd5b825f015f8373ffffffffffffffffffffffffffffffffffffffff1673ffffffffffffffffffffffffffffffffffffffff1681526020019081526020015f205f9054906101000a900460ff16905092915050565b610590815f808573ffffffffffffffffffffffffffffffffffffffff1673ffffffffffffffffffffffffffffffffffffffff1681526020019081526020015f2061069a90919063ffffffff16565b8073ffffffffffffffffffffffffffffffffffffffff168273ffffffffffffffffffffffffffffffffffffffff167fb75903ade4a0fdb07d60c882c22c779e2e1c751883c37aecdcc92a8ec72b046e60405160405180910390a35050565b61063c815f808573ffffffffffffffffffffffffffffffffffffffff1673ffffffffffffffffffffffffffffffffffffffff1681526020019081526020015f2061073c90919063ffffffff16565b8073ffffffffffffffffffffffffffffffffffffffff168273ffffffffffffffffffffffffffffffffffffffff167fe0953c403a52f9dc1fef4202a8d33975c958b727bee0d7b5b328965ddad98d8160405160405180910390a35050565b6106a48282610480565b6106e3576040517f08c379a00000000000000000000000000000000000000000000000000000000081526004016106da90610a10565b60405180910390fd5b5f825f015f8373ffffffffffffffffffffffffffffffffffffffff1673ffffffffffffffffffffffffffffffffffffffff1681526020019081526020015f205f6101000a81548160ff0219169083151502179055505050565b6107468282610480565b15610786576040517f08c379a000000000000000000000000000000000000000000000000000000000815260040161077d90610a78565b60405180910390fd5b6001825f015f8373ffffffffffffffffffffffffffffffffffffffff1673ffffffffffffffffffffffffffffffffffffffff1681526020019081526020015f205f6101000a81548160ff0219169083151502179055505050565b5f80fd5b5f73ffffffffffffffffffffffffffffffffffffffff82169050919050565b5f61080d826107e4565b9050919050565b61081d81610803565b8114610827575f80fd5b50565b5f8135905061083881610814565b92915050565b5f60208284031215610853576108526107e0565b5b5f6108608482850161082a565b91505092915050565b5f8115159050919050565b61087d81610869565b82525050565b5f6020820190506108965f830184610874565b92915050565b5f80604083850312156108b2576108b16107e0565b5b5f6108bf8582860161082a565b92505060206108d08582860161082a565b9150509250929050565b6108e381610803565b82525050565b5f6020820190506108fc5f8301846108da565b92915050565b5f82825260208201905092915050565b7f526f6c65733a206163636f756e7420697320746865207a65726f2061646472655f8201527f7373000000000000000000000000000000000000000000000000000000000000602082015250565b5f61096c602283610902565b915061097782610912565b604082019050919050565b5f6020820190508181035f83015261099981610960565b9050919050565b7f526f6c65733a206163636f756e7420646f6573206e6f74206861766520726f6c5f8201527f6500000000000000000000000000000000000000000000000000000000000000602082015250565b5f6109fa602183610902565b9150610a05826109a0565b604082019050919050565b5f6020820190508181035f830152610a27816109ee565b9050919050565b7f526f6c65733a206163636f756e7420616c72656164792068617320726f6c65005f82015250565b5f610a62601f83610902565b9150610a6d82610a2e565b602082019050919050565b5f6020820190508181035f830152610a8f81610a56565b905091905056fea26469706673582212209232b649c8dd17a644c6307370747702bd293df43cad57512042272673af033c64736f6c63430008190033",
  "immutableReferences": {},
  "source": "// SPDX-License-Identifier: Apache-2.0\npragma solidity ^0.8.0;\n\nimport \"../roles/PauserRole.sol\";\n\n/**\n * @title Pausable\n * @dev Base contract which allows children to implement an emergency stop mechanism.\n */\ncontract Pausable is PauserRole {\n    event Paused(address indexed token, address account);\n    event Unpaused(address indexed token, address account);\n\n    // Mapping from token to token paused status.\n    mapping(address => bool) private _paused;\n\n    /**\n     * @return true if the contract is paused, false otherwise.\n     */\n    function paused(address token) public view returns (bool) {\n        return _paused[token];\n    }\n\n    /**\n     * @dev Modifier to make a function callable only when the contract is not paused.\n     */\n    modifier whenNotPaused(address token) {\n        require(!_paused[token]);\n        _;\n    }\n\n    /**\n     * @dev Modifier to make a function callable only when the contract is paused.\n     */\n    modifier whenPaused(address token) {\n        require(_paused[token]);\n        _;\n    }\n\n    /**\n     * @dev called by the owner to pause, triggers stopped state\n     */\n    function pause(address token) public onlyPauser(token) whenNotPaused(token) {\n        _paused[token] = true;\n        emit Paused(token, msg.sender);\n    }\n\n    /**\n     * @dev called by the owner to unpause, returns to normal state\n     */\n    function unpause(address token) public onlyPauser(token) whenPaused(token) {\n        _paused[token] = false;\n        emit Unpaused(token, msg.sender);\n    }\n}\n",
  "sourcePath": "/Users/sergio/Library/Mobile Documents/com~apple~CloudDocs/Master-ciberseguridad-y-privacidad/2-Quatrimestre/TFM/project/truffle/contracts/ERC1400/tools/Pausable.sol",
  "compiler": {
    "name": "solc",
    "version": "0.8.25+commit.b61c2a91.Emscripten.clang"
  },
  "schemaVersion": "3.4.16",
  "updatedAt": "2024-05-02T17:32:42.967Z",
  "devdoc": {
    "details": "Base contract which allows children to implement an emergency stop mechanism.",
    "kind": "dev",
    "methods": {
      "pause(address)": {
        "details": "called by the owner to pause, triggers stopped state"
      },
      "paused(address)": {
        "returns": {
          "_0": "true if the contract is paused, false otherwise."
        }
      },
      "unpause(address)": {
        "details": "called by the owner to unpause, returns to normal state"
      }
    },
    "title": "Pausable",
    "version": 1
  },
  "userdoc": {
    "kind": "user",
    "methods": {},
    "version": 1
  }
}