{
  "contractName": "SimpleStorage",
  "abi": [
    {
      "inputs": [
        {
          "internalType": "string",
          "name": "tokenName",
          "type": "string"
        },
        {
          "internalType": "string",
          "name": "tokenSymbol",
          "type": "string"
        },
        {
          "internalType": "uint256",
          "name": "tokenGranularity",
          "type": "uint256"
        },
        {
          "internalType": "address[]",
          "name": "initialControllers",
          "type": "address[]"
        },
        {
          "internalType": "bytes32[]",
          "name": "defaultPartitions",
          "type": "bytes32[]"
        }
      ],
      "stateMutability": "nonpayable",
      "type": "constructor"
    },
    {
      "anonymous": false,
      "inputs": [
        {
          "indexed": true,
          "internalType": "address",
          "name": "owner",
          "type": "address"
        },
        {
          "indexed": true,
          "internalType": "address",
          "name": "spender",
          "type": "address"
        },
        {
          "indexed": false,
          "internalType": "uint256",
          "name": "value",
          "type": "uint256"
        }
      ],
      "name": "Approval",
      "type": "event"
    },
    {
      "anonymous": false,
      "inputs": [
        {
          "indexed": true,
          "internalType": "bytes32",
          "name": "partition",
          "type": "bytes32"
        },
        {
          "indexed": true,
          "internalType": "address",
          "name": "owner",
          "type": "address"
        },
        {
          "indexed": true,
          "internalType": "address",
          "name": "spender",
          "type": "address"
        },
        {
          "indexed": false,
          "internalType": "uint256",
          "name": "value",
          "type": "uint256"
        }
      ],
      "name": "ApprovalByPartition",
      "type": "event"
    },
    {
      "anonymous": false,
      "inputs": [
        {
          "indexed": true,
          "internalType": "address",
          "name": "operator",
          "type": "address"
        },
        {
          "indexed": true,
          "internalType": "address",
          "name": "tokenHolder",
          "type": "address"
        }
      ],
      "name": "AuthorizedOperator",
      "type": "event"
    },
    {
      "anonymous": false,
      "inputs": [
        {
          "indexed": true,
          "internalType": "bytes32",
          "name": "partition",
          "type": "bytes32"
        },
        {
          "indexed": true,
          "internalType": "address",
          "name": "operator",
          "type": "address"
        },
        {
          "indexed": true,
          "internalType": "address",
          "name": "tokenHolder",
          "type": "address"
        }
      ],
      "name": "AuthorizedOperatorByPartition",
      "type": "event"
    },
    {
      "anonymous": false,
      "inputs": [
        {
          "indexed": true,
          "internalType": "bytes32",
          "name": "fromPartition",
          "type": "bytes32"
        },
        {
          "indexed": true,
          "internalType": "bytes32",
          "name": "toPartition",
          "type": "bytes32"
        },
        {
          "indexed": false,
          "internalType": "uint256",
          "name": "value",
          "type": "uint256"
        }
      ],
      "name": "ChangedPartition",
      "type": "event"
    },
    {
      "anonymous": false,
      "inputs": [
        {
          "indexed": true,
          "internalType": "bytes32",
          "name": "name",
          "type": "bytes32"
        },
        {
          "indexed": false,
          "internalType": "string",
          "name": "uri",
          "type": "string"
        },
        {
          "indexed": false,
          "internalType": "bytes32",
          "name": "documentHash",
          "type": "bytes32"
        }
      ],
      "name": "DocumentRemoved",
      "type": "event"
    },
    {
      "anonymous": false,
      "inputs": [
        {
          "indexed": true,
          "internalType": "bytes32",
          "name": "name",
          "type": "bytes32"
        },
        {
          "indexed": false,
          "internalType": "string",
          "name": "uri",
          "type": "string"
        },
        {
          "indexed": false,
          "internalType": "bytes32",
          "name": "documentHash",
          "type": "bytes32"
        }
      ],
      "name": "DocumentUpdated",
      "type": "event"
    },
    {
      "anonymous": false,
      "inputs": [
        {
          "indexed": true,
          "internalType": "address",
          "name": "operator",
          "type": "address"
        },
        {
          "indexed": true,
          "internalType": "address",
          "name": "to",
          "type": "address"
        },
        {
          "indexed": false,
          "internalType": "uint256",
          "name": "value",
          "type": "uint256"
        },
        {
          "indexed": false,
          "internalType": "bytes",
          "name": "data",
          "type": "bytes"
        }
      ],
      "name": "Issued",
      "type": "event"
    },
    {
      "anonymous": false,
      "inputs": [
        {
          "indexed": true,
          "internalType": "bytes32",
          "name": "partition",
          "type": "bytes32"
        },
        {
          "indexed": true,
          "internalType": "address",
          "name": "operator",
          "type": "address"
        },
        {
          "indexed": true,
          "internalType": "address",
          "name": "to",
          "type": "address"
        },
        {
          "indexed": false,
          "internalType": "uint256",
          "name": "value",
          "type": "uint256"
        },
        {
          "indexed": false,
          "internalType": "bytes",
          "name": "data",
          "type": "bytes"
        },
        {
          "indexed": false,
          "internalType": "bytes",
          "name": "operatorData",
          "type": "bytes"
        }
      ],
      "name": "IssuedByPartition",
      "type": "event"
    },
    {
      "anonymous": false,
      "inputs": [
        {
          "indexed": true,
          "internalType": "address",
          "name": "account",
          "type": "address"
        }
      ],
      "name": "MinterAdded",
      "type": "event"
    },
    {
      "anonymous": false,
      "inputs": [
        {
          "indexed": true,
          "internalType": "address",
          "name": "account",
          "type": "address"
        }
      ],
      "name": "MinterRemoved",
      "type": "event"
    },
    {
      "anonymous": false,
      "inputs": [
        {
          "indexed": true,
          "internalType": "address",
          "name": "previousOwner",
          "type": "address"
        },
        {
          "indexed": true,
          "internalType": "address",
          "name": "newOwner",
          "type": "address"
        }
      ],
      "name": "OwnershipTransferred",
      "type": "event"
    },
    {
      "anonymous": false,
      "inputs": [
        {
          "indexed": true,
          "internalType": "address",
          "name": "operator",
          "type": "address"
        },
        {
          "indexed": true,
          "internalType": "address",
          "name": "from",
          "type": "address"
        },
        {
          "indexed": false,
          "internalType": "uint256",
          "name": "value",
          "type": "uint256"
        },
        {
          "indexed": false,
          "internalType": "bytes",
          "name": "data",
          "type": "bytes"
        }
      ],
      "name": "Redeemed",
      "type": "event"
    },
    {
      "anonymous": false,
      "inputs": [
        {
          "indexed": true,
          "internalType": "bytes32",
          "name": "partition",
          "type": "bytes32"
        },
        {
          "indexed": true,
          "internalType": "address",
          "name": "operator",
          "type": "address"
        },
        {
          "indexed": true,
          "internalType": "address",
          "name": "from",
          "type": "address"
        },
        {
          "indexed": false,
          "internalType": "uint256",
          "name": "value",
          "type": "uint256"
        },
        {
          "indexed": false,
          "internalType": "bytes",
          "name": "operatorData",
          "type": "bytes"
        }
      ],
      "name": "RedeemedByPartition",
      "type": "event"
    },
    {
      "anonymous": false,
      "inputs": [
        {
          "indexed": true,
          "internalType": "address",
          "name": "operator",
          "type": "address"
        },
        {
          "indexed": true,
          "internalType": "address",
          "name": "tokenHolder",
          "type": "address"
        }
      ],
      "name": "RevokedOperator",
      "type": "event"
    },
    {
      "anonymous": false,
      "inputs": [
        {
          "indexed": true,
          "internalType": "bytes32",
          "name": "partition",
          "type": "bytes32"
        },
        {
          "indexed": true,
          "internalType": "address",
          "name": "operator",
          "type": "address"
        },
        {
          "indexed": true,
          "internalType": "address",
          "name": "tokenHolder",
          "type": "address"
        }
      ],
      "name": "RevokedOperatorByPartition",
      "type": "event"
    },
    {
      "anonymous": false,
      "inputs": [
        {
          "indexed": true,
          "internalType": "address",
          "name": "from",
          "type": "address"
        },
        {
          "indexed": true,
          "internalType": "address",
          "name": "to",
          "type": "address"
        },
        {
          "indexed": false,
          "internalType": "uint256",
          "name": "value",
          "type": "uint256"
        }
      ],
      "name": "Transfer",
      "type": "event"
    },
    {
      "anonymous": false,
      "inputs": [
        {
          "indexed": true,
          "internalType": "bytes32",
          "name": "fromPartition",
          "type": "bytes32"
        },
        {
          "indexed": false,
          "internalType": "address",
          "name": "operator",
          "type": "address"
        },
        {
          "indexed": true,
          "internalType": "address",
          "name": "from",
          "type": "address"
        },
        {
          "indexed": true,
          "internalType": "address",
          "name": "to",
          "type": "address"
        },
        {
          "indexed": false,
          "internalType": "uint256",
          "name": "value",
          "type": "uint256"
        },
        {
          "indexed": false,
          "internalType": "bytes",
          "name": "data",
          "type": "bytes"
        },
        {
          "indexed": false,
          "internalType": "bytes",
          "name": "operatorData",
          "type": "bytes"
        }
      ],
      "name": "TransferByPartition",
      "type": "event"
    },
    {
      "inputs": [
        {
          "internalType": "address",
          "name": "account",
          "type": "address"
        }
      ],
      "name": "addMinter",
      "outputs": [],
      "stateMutability": "nonpayable",
      "type": "function"
    },
    {
      "inputs": [
        {
          "internalType": "address",
          "name": "owner",
          "type": "address"
        },
        {
          "internalType": "address",
          "name": "spender",
          "type": "address"
        }
      ],
      "name": "allowance",
      "outputs": [
        {
          "internalType": "uint256",
          "name": "",
          "type": "uint256"
        }
      ],
      "stateMutability": "view",
      "type": "function"
    },
    {
      "inputs": [
        {
          "internalType": "bytes32",
          "name": "partition",
          "type": "bytes32"
        },
        {
          "internalType": "address",
          "name": "owner",
          "type": "address"
        },
        {
          "internalType": "address",
          "name": "spender",
          "type": "address"
        }
      ],
      "name": "allowanceByPartition",
      "outputs": [
        {
          "internalType": "uint256",
          "name": "",
          "type": "uint256"
        }
      ],
      "stateMutability": "view",
      "type": "function"
    },
    {
      "inputs": [
        {
          "internalType": "address",
          "name": "spender",
          "type": "address"
        },
        {
          "internalType": "uint256",
          "name": "value",
          "type": "uint256"
        }
      ],
      "name": "approve",
      "outputs": [
        {
          "internalType": "bool",
          "name": "",
          "type": "bool"
        }
      ],
      "stateMutability": "nonpayable",
      "type": "function"
    },
    {
      "inputs": [
        {
          "internalType": "bytes32",
          "name": "partition",
          "type": "bytes32"
        },
        {
          "internalType": "address",
          "name": "spender",
          "type": "address"
        },
        {
          "internalType": "uint256",
          "name": "value",
          "type": "uint256"
        }
      ],
      "name": "approveByPartition",
      "outputs": [
        {
          "internalType": "bool",
          "name": "",
          "type": "bool"
        }
      ],
      "stateMutability": "nonpayable",
      "type": "function"
    },
    {
      "inputs": [
        {
          "internalType": "address",
          "name": "operator",
          "type": "address"
        }
      ],
      "name": "authorizeOperator",
      "outputs": [],
      "stateMutability": "nonpayable",
      "type": "function"
    },
    {
      "inputs": [
        {
          "internalType": "bytes32",
          "name": "partition",
          "type": "bytes32"
        },
        {
          "internalType": "address",
          "name": "operator",
          "type": "address"
        }
      ],
      "name": "authorizeOperatorByPartition",
      "outputs": [],
      "stateMutability": "nonpayable",
      "type": "function"
    },
    {
      "inputs": [
        {
          "internalType": "address",
          "name": "tokenHolder",
          "type": "address"
        }
      ],
      "name": "balanceOf",
      "outputs": [
        {
          "internalType": "uint256",
          "name": "",
          "type": "uint256"
        }
      ],
      "stateMutability": "view",
      "type": "function"
    },
    {
      "inputs": [
        {
          "internalType": "bytes32",
          "name": "partition",
          "type": "bytes32"
        },
        {
          "internalType": "address",
          "name": "tokenHolder",
          "type": "address"
        }
      ],
      "name": "balanceOfByPartition",
      "outputs": [
        {
          "internalType": "uint256",
          "name": "",
          "type": "uint256"
        }
      ],
      "stateMutability": "view",
      "type": "function"
    },
    {
      "inputs": [
        {
          "internalType": "bytes32",
          "name": "interfaceHash",
          "type": "bytes32"
        },
        {
          "internalType": "address",
          "name": "",
          "type": "address"
        }
      ],
      "name": "canImplementInterfaceForAddress",
      "outputs": [
        {
          "internalType": "bytes32",
          "name": "",
          "type": "bytes32"
        }
      ],
      "stateMutability": "view",
      "type": "function"
    },
    {
      "inputs": [],
      "name": "controllers",
      "outputs": [
        {
          "internalType": "address[]",
          "name": "",
          "type": "address[]"
        }
      ],
      "stateMutability": "view",
      "type": "function"
    },
    {
      "inputs": [
        {
          "internalType": "bytes32",
          "name": "partition",
          "type": "bytes32"
        }
      ],
      "name": "controllersByPartition",
      "outputs": [
        {
          "internalType": "address[]",
          "name": "",
          "type": "address[]"
        }
      ],
      "stateMutability": "view",
      "type": "function"
    },
    {
      "inputs": [],
      "name": "decimals",
      "outputs": [
        {
          "internalType": "uint8",
          "name": "",
          "type": "uint8"
        }
      ],
      "stateMutability": "pure",
      "type": "function"
    },
    {
      "inputs": [],
      "name": "domainName",
      "outputs": [
        {
          "internalType": "string",
          "name": "",
          "type": "string"
        }
      ],
      "stateMutability": "view",
      "type": "function"
    },
    {
      "inputs": [],
      "name": "domainSeparator",
      "outputs": [
        {
          "internalType": "bytes32",
          "name": "",
          "type": "bytes32"
        }
      ],
      "stateMutability": "nonpayable",
      "type": "function"
    },
    {
      "inputs": [],
      "name": "domainVersion",
      "outputs": [
        {
          "internalType": "string",
          "name": "",
          "type": "string"
        }
      ],
      "stateMutability": "pure",
      "type": "function"
    },
    {
      "inputs": [],
      "name": "generateDomainSeparator",
      "outputs": [
        {
          "internalType": "bytes32",
          "name": "",
          "type": "bytes32"
        }
      ],
      "stateMutability": "view",
      "type": "function"
    },
    {
      "inputs": [],
      "name": "getAllDocuments",
      "outputs": [
        {
          "internalType": "bytes32[]",
          "name": "",
          "type": "bytes32[]"
        }
      ],
      "stateMutability": "view",
      "type": "function"
    },
    {
      "inputs": [],
      "name": "getDefaultPartitions",
      "outputs": [
        {
          "internalType": "bytes32[]",
          "name": "",
          "type": "bytes32[]"
        }
      ],
      "stateMutability": "view",
      "type": "function"
    },
    {
      "inputs": [
        {
          "internalType": "bytes32",
          "name": "documentName",
          "type": "bytes32"
        }
      ],
      "name": "getDocument",
      "outputs": [
        {
          "internalType": "string",
          "name": "",
          "type": "string"
        },
        {
          "internalType": "bytes32",
          "name": "",
          "type": "bytes32"
        },
        {
          "internalType": "uint256",
          "name": "",
          "type": "uint256"
        }
      ],
      "stateMutability": "view",
      "type": "function"
    },
    {
      "inputs": [],
      "name": "granularity",
      "outputs": [
        {
          "internalType": "uint256",
          "name": "",
          "type": "uint256"
        }
      ],
      "stateMutability": "view",
      "type": "function"
    },
    {
      "inputs": [],
      "name": "isControllable",
      "outputs": [
        {
          "internalType": "bool",
          "name": "",
          "type": "bool"
        }
      ],
      "stateMutability": "view",
      "type": "function"
    },
    {
      "inputs": [],
      "name": "isIssuable",
      "outputs": [
        {
          "internalType": "bool",
          "name": "",
          "type": "bool"
        }
      ],
      "stateMutability": "view",
      "type": "function"
    },
    {
      "inputs": [
        {
          "internalType": "address",
          "name": "account",
          "type": "address"
        }
      ],
      "name": "isMinter",
      "outputs": [
        {
          "internalType": "bool",
          "name": "",
          "type": "bool"
        }
      ],
      "stateMutability": "view",
      "type": "function"
    },
    {
      "inputs": [
        {
          "internalType": "address",
          "name": "operator",
          "type": "address"
        },
        {
          "internalType": "address",
          "name": "tokenHolder",
          "type": "address"
        }
      ],
      "name": "isOperator",
      "outputs": [
        {
          "internalType": "bool",
          "name": "",
          "type": "bool"
        }
      ],
      "stateMutability": "view",
      "type": "function"
    },
    {
      "inputs": [
        {
          "internalType": "bytes32",
          "name": "partition",
          "type": "bytes32"
        },
        {
          "internalType": "address",
          "name": "operator",
          "type": "address"
        },
        {
          "internalType": "address",
          "name": "tokenHolder",
          "type": "address"
        }
      ],
      "name": "isOperatorForPartition",
      "outputs": [
        {
          "internalType": "bool",
          "name": "",
          "type": "bool"
        }
      ],
      "stateMutability": "view",
      "type": "function"
    },
    {
      "inputs": [
        {
          "internalType": "address",
          "name": "tokenHolder",
          "type": "address"
        },
        {
          "internalType": "uint256",
          "name": "value",
          "type": "uint256"
        },
        {
          "internalType": "bytes",
          "name": "data",
          "type": "bytes"
        }
      ],
      "name": "issue",
      "outputs": [],
      "stateMutability": "nonpayable",
      "type": "function"
    },
    {
      "inputs": [
        {
          "internalType": "bytes32",
          "name": "partition",
          "type": "bytes32"
        },
        {
          "internalType": "address",
          "name": "tokenHolder",
          "type": "address"
        },
        {
          "internalType": "uint256",
          "name": "value",
          "type": "uint256"
        },
        {
          "internalType": "bytes",
          "name": "data",
          "type": "bytes"
        }
      ],
      "name": "issueByPartition",
      "outputs": [],
      "stateMutability": "nonpayable",
      "type": "function"
    },
    {
      "inputs": [
        {
          "internalType": "address",
          "name": "newContractAddress",
          "type": "address"
        },
        {
          "internalType": "bool",
          "name": "definitive",
          "type": "bool"
        }
      ],
      "name": "migrate",
      "outputs": [],
      "stateMutability": "nonpayable",
      "type": "function"
    },
    {
      "inputs": [],
      "name": "name",
      "outputs": [
        {
          "internalType": "string",
          "name": "",
          "type": "string"
        }
      ],
      "stateMutability": "view",
      "type": "function"
    },
    {
      "inputs": [
        {
          "internalType": "bytes32",
          "name": "partition",
          "type": "bytes32"
        },
        {
          "internalType": "address",
          "name": "tokenHolder",
          "type": "address"
        },
        {
          "internalType": "uint256",
          "name": "value",
          "type": "uint256"
        },
        {
          "internalType": "bytes",
          "name": "operatorData",
          "type": "bytes"
        }
      ],
      "name": "operatorRedeemByPartition",
      "outputs": [],
      "stateMutability": "nonpayable",
      "type": "function"
    },
    {
      "inputs": [
        {
          "internalType": "bytes32",
          "name": "partition",
          "type": "bytes32"
        },
        {
          "internalType": "address",
          "name": "from",
          "type": "address"
        },
        {
          "internalType": "address",
          "name": "to",
          "type": "address"
        },
        {
          "internalType": "uint256",
          "name": "value",
          "type": "uint256"
        },
        {
          "internalType": "bytes",
          "name": "data",
          "type": "bytes"
        },
        {
          "internalType": "bytes",
          "name": "operatorData",
          "type": "bytes"
        }
      ],
      "name": "operatorTransferByPartition",
      "outputs": [
        {
          "internalType": "bytes32",
          "name": "",
          "type": "bytes32"
        }
      ],
      "stateMutability": "nonpayable",
      "type": "function"
    },
    {
      "inputs": [],
      "name": "owner",
      "outputs": [
        {
          "internalType": "address",
          "name": "",
          "type": "address"
        }
      ],
      "stateMutability": "view",
      "type": "function"
    },
    {
      "inputs": [
        {
          "internalType": "address",
          "name": "tokenHolder",
          "type": "address"
        }
      ],
      "name": "partitionsOf",
      "outputs": [
        {
          "internalType": "bytes32[]",
          "name": "",
          "type": "bytes32[]"
        }
      ],
      "stateMutability": "view",
      "type": "function"
    },
    {
      "inputs": [
        {
          "internalType": "uint256",
          "name": "value",
          "type": "uint256"
        },
        {
          "internalType": "bytes",
          "name": "data",
          "type": "bytes"
        }
      ],
      "name": "redeem",
      "outputs": [],
      "stateMutability": "nonpayable",
      "type": "function"
    },
    {
      "inputs": [
        {
          "internalType": "bytes32",
          "name": "partition",
          "type": "bytes32"
        },
        {
          "internalType": "uint256",
          "name": "value",
          "type": "uint256"
        },
        {
          "internalType": "bytes",
          "name": "data",
          "type": "bytes"
        }
      ],
      "name": "redeemByPartition",
      "outputs": [],
      "stateMutability": "nonpayable",
      "type": "function"
    },
    {
      "inputs": [
        {
          "internalType": "address",
          "name": "from",
          "type": "address"
        },
        {
          "internalType": "uint256",
          "name": "value",
          "type": "uint256"
        },
        {
          "internalType": "bytes",
          "name": "data",
          "type": "bytes"
        }
      ],
      "name": "redeemFrom",
      "outputs": [],
      "stateMutability": "nonpayable",
      "type": "function"
    },
    {
      "inputs": [
        {
          "internalType": "bytes32",
          "name": "documentName",
          "type": "bytes32"
        }
      ],
      "name": "removeDocument",
      "outputs": [],
      "stateMutability": "nonpayable",
      "type": "function"
    },
    {
      "inputs": [
        {
          "internalType": "address",
          "name": "account",
          "type": "address"
        }
      ],
      "name": "removeMinter",
      "outputs": [],
      "stateMutability": "nonpayable",
      "type": "function"
    },
    {
      "inputs": [],
      "name": "renounceControl",
      "outputs": [],
      "stateMutability": "nonpayable",
      "type": "function"
    },
    {
      "inputs": [],
      "name": "renounceIssuance",
      "outputs": [],
      "stateMutability": "nonpayable",
      "type": "function"
    },
    {
      "inputs": [],
      "name": "renounceMinter",
      "outputs": [],
      "stateMutability": "nonpayable",
      "type": "function"
    },
    {
      "inputs": [],
      "name": "renounceOwnership",
      "outputs": [],
      "stateMutability": "nonpayable",
      "type": "function"
    },
    {
      "inputs": [
        {
          "internalType": "address",
          "name": "operator",
          "type": "address"
        }
      ],
      "name": "revokeOperator",
      "outputs": [],
      "stateMutability": "nonpayable",
      "type": "function"
    },
    {
      "inputs": [
        {
          "internalType": "bytes32",
          "name": "partition",
          "type": "bytes32"
        },
        {
          "internalType": "address",
          "name": "operator",
          "type": "address"
        }
      ],
      "name": "revokeOperatorByPartition",
      "outputs": [],
      "stateMutability": "nonpayable",
      "type": "function"
    },
    {
      "inputs": [
        {
          "internalType": "address[]",
          "name": "operators",
          "type": "address[]"
        }
      ],
      "name": "setControllers",
      "outputs": [],
      "stateMutability": "nonpayable",
      "type": "function"
    },
    {
      "inputs": [
        {
          "internalType": "bytes32[]",
          "name": "partitions",
          "type": "bytes32[]"
        }
      ],
      "name": "setDefaultPartitions",
      "outputs": [],
      "stateMutability": "nonpayable",
      "type": "function"
    },
    {
      "inputs": [
        {
          "internalType": "bytes32",
          "name": "documentName",
          "type": "bytes32"
        },
        {
          "internalType": "string",
          "name": "uri",
          "type": "string"
        },
        {
          "internalType": "bytes32",
          "name": "documentHash",
          "type": "bytes32"
        }
      ],
      "name": "setDocument",
      "outputs": [],
      "stateMutability": "nonpayable",
      "type": "function"
    },
    {
      "inputs": [
        {
          "internalType": "bytes32",
          "name": "partition",
          "type": "bytes32"
        },
        {
          "internalType": "address[]",
          "name": "operators",
          "type": "address[]"
        }
      ],
      "name": "setPartitionControllers",
      "outputs": [],
      "stateMutability": "nonpayable",
      "type": "function"
    },
    {
      "inputs": [
        {
          "internalType": "address",
          "name": "extension",
          "type": "address"
        },
        {
          "internalType": "string",
          "name": "interfaceLabel",
          "type": "string"
        },
        {
          "internalType": "bool",
          "name": "removeOldExtensionRoles",
          "type": "bool"
        },
        {
          "internalType": "bool",
          "name": "addMinterRoleForExtension",
          "type": "bool"
        },
        {
          "internalType": "bool",
          "name": "addControllerRoleForExtension",
          "type": "bool"
        }
      ],
      "name": "setTokenExtension",
      "outputs": [],
      "stateMutability": "nonpayable",
      "type": "function"
    },
    {
      "inputs": [],
      "name": "symbol",
      "outputs": [
        {
          "internalType": "string",
          "name": "",
          "type": "string"
        }
      ],
      "stateMutability": "view",
      "type": "function"
    },
    {
      "inputs": [],
      "name": "totalPartitions",
      "outputs": [
        {
          "internalType": "bytes32[]",
          "name": "",
          "type": "bytes32[]"
        }
      ],
      "stateMutability": "view",
      "type": "function"
    },
    {
      "inputs": [],
      "name": "totalSupply",
      "outputs": [
        {
          "internalType": "uint256",
          "name": "",
          "type": "uint256"
        }
      ],
      "stateMutability": "view",
      "type": "function"
    },
    {
      "inputs": [
        {
          "internalType": "bytes32",
          "name": "partition",
          "type": "bytes32"
        }
      ],
      "name": "totalSupplyByPartition",
      "outputs": [
        {
          "internalType": "uint256",
          "name": "",
          "type": "uint256"
        }
      ],
      "stateMutability": "view",
      "type": "function"
    },
    {
      "inputs": [
        {
          "internalType": "address",
          "name": "to",
          "type": "address"
        },
        {
          "internalType": "uint256",
          "name": "value",
          "type": "uint256"
        }
      ],
      "name": "transfer",
      "outputs": [
        {
          "internalType": "bool",
          "name": "",
          "type": "bool"
        }
      ],
      "stateMutability": "nonpayable",
      "type": "function"
    },
    {
      "inputs": [
        {
          "internalType": "bytes32",
          "name": "partition",
          "type": "bytes32"
        },
        {
          "internalType": "address",
          "name": "to",
          "type": "address"
        },
        {
          "internalType": "uint256",
          "name": "value",
          "type": "uint256"
        },
        {
          "internalType": "bytes",
          "name": "data",
          "type": "bytes"
        }
      ],
      "name": "transferByPartition",
      "outputs": [
        {
          "internalType": "bytes32",
          "name": "",
          "type": "bytes32"
        }
      ],
      "stateMutability": "nonpayable",
      "type": "function"
    },
    {
      "inputs": [
        {
          "internalType": "address",
          "name": "from",
          "type": "address"
        },
        {
          "internalType": "address",
          "name": "to",
          "type": "address"
        },
        {
          "internalType": "uint256",
          "name": "value",
          "type": "uint256"
        }
      ],
      "name": "transferFrom",
      "outputs": [
        {
          "internalType": "bool",
          "name": "",
          "type": "bool"
        }
      ],
      "stateMutability": "nonpayable",
      "type": "function"
    },
    {
      "inputs": [
        {
          "internalType": "address",
          "name": "from",
          "type": "address"
        },
        {
          "internalType": "address",
          "name": "to",
          "type": "address"
        },
        {
          "internalType": "uint256",
          "name": "value",
          "type": "uint256"
        },
        {
          "internalType": "bytes",
          "name": "data",
          "type": "bytes"
        }
      ],
      "name": "transferFromWithData",
      "outputs": [],
      "stateMutability": "nonpayable",
      "type": "function"
    },
    {
      "inputs": [
        {
          "internalType": "address",
          "name": "newOwner",
          "type": "address"
        }
      ],
      "name": "transferOwnership",
      "outputs": [],
      "stateMutability": "nonpayable",
      "type": "function"
    },
    {
      "inputs": [
        {
          "internalType": "address",
          "name": "to",
          "type": "address"
        },
        {
          "internalType": "uint256",
          "name": "value",
          "type": "uint256"
        },
        {
          "internalType": "bytes",
          "name": "data",
          "type": "bytes"
        }
      ],
      "name": "transferWithData",
      "outputs": [],
      "stateMutability": "nonpayable",
      "type": "function"
    },
    {
      "inputs": [
        {
          "internalType": "uint256",
          "name": "_data",
          "type": "uint256"
        }
      ],
      "name": "setData",
      "outputs": [],
      "stateMutability": "nonpayable",
      "type": "function"
    }
  ],
  "bytecode": "0x608060405234801561000f575f80fd5b5060405161952a38038061952a83398181016040528101906100319190610d49565b848484848461005261004761022860201b60201c565b61022f60201b60201c565b610061336102f060201b60201c565b61006f61034a60201b60201c565b50846004908161007f9190611034565b50836005908161008f9190611034565b505f60078190555060018310156100a4575f80fd5b826006819055506100ba8261038b60201b60201c565b80601490805190602001906100d09291906108b0565b506001600860016101000a81548160ff0219169083151502179055506001600860026101000a81548160ff02191690831515021790555061014c6040518060400160405280600c81526020017f45524331343030546f6b656e0000000000000000000000000000000000000000815250306104d960201b60201c565b6101916040518060400160405280600a81526020017f4552433230546f6b656e00000000000000000000000000000000000000000000815250306104d960201b60201c565b6101d56040518060400160405280600c81526020017f45524331343030546f6b656e000000000000000000000000000000000000000081525061058660201b60201c565b6102196040518060400160405280600a81526020017f4552433230546f6b656e0000000000000000000000000000000000000000000081525061058660201b60201c565b50505050505050505050611339565b5f33905090565b5f805f9054906101000a900473ffffffffffffffffffffffffffffffffffffffff169050815f806101000a81548173ffffffffffffffffffffffffffffffffffffffff021916908373ffffffffffffffffffffffffffffffffffffffff1602179055508173ffffffffffffffffffffffffffffffffffffffff168173ffffffffffffffffffffffffffffffffffffffff167f8be0079c531659141344cd1fd0a4f28419497f9722a3daafe3b4186f6b6457e060405160405180910390a35050565b6103048160026105d760201b90919060201c565b8073ffffffffffffffffffffffffffffffffffffffff167f6ae172837ea30b801fbfcdd4108aa1d5bf8ff775444fd70256b44e6bf3dfc3f660405160405180910390a250565b5f8061035a61068160201b60201c565b90505f61036b61068d60201b60201c565b90508060035f8481526020019081526020015f2081905550809250505090565b5f5b601680549050811015610436575f60175f601684815481106103b2576103b1611103565b5b905f5260205f20015f9054906101000a900473ffffffffffffffffffffffffffffffffffffffff1673ffffffffffffffffffffffffffffffffffffffff1673ffffffffffffffffffffffffffffffffffffffff1681526020019081526020015f205f6101000a81548160ff021916908315150217905550808060010191505061038d565b505f5b81518110156104be57600160175f84848151811061045a57610459611103565b5b602002602001015173ffffffffffffffffffffffffffffffffffffffff1673ffffffffffffffffffffffffffffffffffffffff1681526020019081526020015f205f6101000a81548160ff0219169083151502179055508080600101915050610439565b5080601690805190602001906104d59291906108fb565b5050565b5f826040516020016104eb919061116a565b604051602081830303815290604052805190602001209050731820a4b7618bde71dce8cdc73aab6c95905fad2473ffffffffffffffffffffffffffffffffffffffff166329965a1d3083856040518463ffffffff1660e01b81526004016105549392919061119e565b5f604051808303815f87803b15801561056b575f80fd5b505af115801561057d573d5f803e3d5ffd5b50505050505050565b6001805f8360405160200161059b919061116a565b6040516020818303038152906040528051906020012081526020019081526020015f205f6101000a81548160ff02191690831515021790555050565b6105e7828261072160201b60201c565b15610627576040517f08c379a000000000000000000000000000000000000000000000000000000000815260040161061e9061122d565b60405180910390fd5b6001825f015f8373ffffffffffffffffffffffffffffffffffffffff1673ffffffffffffffffffffffffffffffffffffffff1681526020019081526020015f205f6101000a81548160ff0219169083151502179055505050565b5f804690508091505090565b5f8061069d61068160201b60201c565b90505f7f8b73c3c69bb8fe3d512ecc4cf759cc79239f7b179b0ffacaa9a75d522b39400f6106cf6107e360201b60201c565b805190602001206106e461087360201b60201c565b80519060200120843060405160200161070195949392919061125a565b604051602081830303815290604052805190602001209050809250505090565b5f8073ffffffffffffffffffffffffffffffffffffffff168273ffffffffffffffffffffffffffffffffffffffff1603610790576040517f08c379a00000000000000000000000000000000000000000000000000000000081526004016107879061131b565b60405180910390fd5b825f015f8373ffffffffffffffffffffffffffffffffffffffff1673ffffffffffffffffffffffffffffffffffffffff1681526020019081526020015f205f9054906101000a900460ff16905092915050565b6060600480546107f290610e67565b80601f016020809104026020016040519081016040528092919081815260200182805461081e90610e67565b80156108695780601f1061084057610100808354040283529160200191610869565b820191905f5260205f20905b81548152906001019060200180831161084c57829003601f168201915b5050505050905090565b60606040518060400160405280600181526020017f3100000000000000000000000000000000000000000000000000000000000000815250905090565b828054828255905f5260205f209081019282156108ea579160200282015b828111156108e95782518255916020019190600101906108ce565b5b5090506108f79190610982565b5090565b828054828255905f5260205f20908101928215610971579160200282015b82811115610970578251825f6101000a81548173ffffffffffffffffffffffffffffffffffffffff021916908373ffffffffffffffffffffffffffffffffffffffff16021790555091602001919060010190610919565b5b50905061097e919061099d565b5090565b5b80821115610999575f815f905550600101610983565b5090565b5b808211156109b4575f815f90555060010161099e565b5090565b5f604051905090565b5f80fd5b5f80fd5b5f80fd5b5f80fd5b5f601f19601f8301169050919050565b7f4e487b71000000000000000000000000000000000000000000000000000000005f52604160045260245ffd5b610a17826109d1565b810181811067ffffffffffffffff82111715610a3657610a356109e1565b5b80604052505050565b5f610a486109b8565b9050610a548282610a0e565b919050565b5f67ffffffffffffffff821115610a7357610a726109e1565b5b610a7c826109d1565b9050602081019050919050565b8281835e5f83830152505050565b5f610aa9610aa484610a59565b610a3f565b905082815260208101848484011115610ac557610ac46109cd565b5b610ad0848285610a89565b509392505050565b5f82601f830112610aec57610aeb6109c9565b5b8151610afc848260208601610a97565b91505092915050565b5f819050919050565b610b1781610b05565b8114610b21575f80fd5b50565b5f81519050610b3281610b0e565b92915050565b5f67ffffffffffffffff821115610b5257610b516109e1565b5b602082029050602081019050919050565b5f80fd5b5f73ffffffffffffffffffffffffffffffffffffffff82169050919050565b5f610b9082610b67565b9050919050565b610ba081610b86565b8114610baa575f80fd5b50565b5f81519050610bbb81610b97565b92915050565b5f610bd3610bce84610b38565b610a3f565b90508083825260208201905060208402830185811115610bf657610bf5610b63565b5b835b81811015610c1f5780610c0b8882610bad565b845260208401935050602081019050610bf8565b5050509392505050565b5f82601f830112610c3d57610c3c6109c9565b5b8151610c4d848260208601610bc1565b91505092915050565b5f67ffffffffffffffff821115610c7057610c6f6109e1565b5b602082029050602081019050919050565b5f819050919050565b610c9381610c81565b8114610c9d575f80fd5b50565b5f81519050610cae81610c8a565b92915050565b5f610cc6610cc184610c56565b610a3f565b90508083825260208201905060208402830185811115610ce957610ce8610b63565b5b835b81811015610d125780610cfe8882610ca0565b845260208401935050602081019050610ceb565b5050509392505050565b5f82601f830112610d3057610d2f6109c9565b5b8151610d40848260208601610cb4565b91505092915050565b5f805f805f60a08688031215610d6257610d616109c1565b5b5f86015167ffffffffffffffff811115610d7f57610d7e6109c5565b5b610d8b88828901610ad8565b955050602086015167ffffffffffffffff811115610dac57610dab6109c5565b5b610db888828901610ad8565b9450506040610dc988828901610b24565b935050606086015167ffffffffffffffff811115610dea57610de96109c5565b5b610df688828901610c29565b925050608086015167ffffffffffffffff811115610e1757610e166109c5565b5b610e2388828901610d1c565b9150509295509295909350565b5f81519050919050565b7f4e487b71000000000000000000000000000000000000000000000000000000005f52602260045260245ffd5b5f6002820490506001821680610e7e57607f821691505b602082108103610e9157610e90610e3a565b5b50919050565b5f819050815f5260205f209050919050565b5f6020601f8301049050919050565b5f82821b905092915050565b5f60088302610ef37fffffffffffffffffffffffffffffffffffffffffffffffffffffffffffffffff82610eb8565b610efd8683610eb8565b95508019841693508086168417925050509392505050565b5f819050919050565b5f610f38610f33610f2e84610b05565b610f15565b610b05565b9050919050565b5f819050919050565b610f5183610f1e565b610f65610f5d82610f3f565b848454610ec4565b825550505050565b5f90565b610f79610f6d565b610f84818484610f48565b505050565b5b81811015610fa757610f9c5f82610f71565b600181019050610f8a565b5050565b601f821115610fec57610fbd81610e97565b610fc684610ea9565b81016020851015610fd5578190505b610fe9610fe185610ea9565b830182610f89565b50505b505050565b5f82821c905092915050565b5f61100c5f1984600802610ff1565b1980831691505092915050565b5f6110248383610ffd565b9150826002028217905092915050565b61103d82610e30565b67ffffffffffffffff811115611056576110556109e1565b5b6110608254610e67565b61106b828285610fab565b5f60209050601f83116001811461109c575f841561108a578287015190505b6110948582611019565b8655506110fb565b601f1984166110aa86610e97565b5f5b828110156110d1578489015182556001820191506020850194506020810190506110ac565b868310156110ee57848901516110ea601f891682610ffd565b8355505b6001600288020188555050505b505050505050565b7f4e487b71000000000000000000000000000000000000000000000000000000005f52603260045260245ffd5b5f81905092915050565b5f61114482610e30565b61114e8185611130565b935061115e818560208601610a89565b80840191505092915050565b5f611175828461113a565b915081905092915050565b61118981610b86565b82525050565b61119881610c81565b82525050565b5f6060820190506111b15f830186611180565b6111be602083018561118f565b6111cb6040830184611180565b949350505050565b5f82825260208201905092915050565b7f526f6c65733a206163636f756e7420616c72656164792068617320726f6c65005f82015250565b5f611217601f836111d3565b9150611222826111e3565b602082019050919050565b5f6020820190508181035f8301526112448161120b565b9050919050565b61125481610b05565b82525050565b5f60a08201905061126d5f83018861118f565b61127a602083018761118f565b611287604083018661118f565b611294606083018561124b565b6112a16080830184611180565b9695505050505050565b7f526f6c65733a206163636f756e7420697320746865207a65726f2061646472655f8201527f7373000000000000000000000000000000000000000000000000000000000000602082015250565b5f6113056022836111d3565b9150611310826112ab565b604082019050919050565b5f6020820190508181035f830152611332816112f9565b9050919050565b6181e4806113465f395ff3fe608060405234801561000f575f80fd5b50600436106103ad575f3560e01c8063895d7386116101f2578063aa271e1a11610118578063e77c646d116100ab578063f2fde38b1161007a578063f2fde38b14610b19578063f3d490db14610b35578063f698da2514610b65578063fad8b32a14610b83576103ad565b8063e77c646d14610aa9578063ea74838a14610ac5578063ec9a6e8714610ae1578063ee532f3114610afd576103ad565b8063bcfdc0cf116100e7578063bcfdc0cf14610a35578063c350184814610a53578063ca281fd914610a6f578063dd62ed3e14610a79576103ad565b8063aa271e1a14610987578063b10d6b41146109b7578063b6363cf2146109e9578063bb3acde914610a19576103ad565b8063983b2d5611610190578063a26734dc1161015f578063a26734dc146108ed578063a6f4f1051461091d578063a8082cb014610939578063a9059cbb14610957576103ad565b8063983b2d561461088d57806398650275146108a957806398ddcec7146108b35780639fa5f50b146108cf576103ad565b8063933964c7116101cc578063933964c71461081b578063959b8c3f1461083757806395d89b41146108535780639675193c14610871576103ad565b8063895d7386146107af5780638c0dee9c146107cd5780638da5cb5b146107fd576103ad565b806330e82803116102d757806369598efe11610275578063715018a611610244578063715018a614610727578063740ab8f4146107315780637cc0c3a714610761578063861ed3ea1461077f576103ad565b806369598efe1461069f5780636c30d170146106bd5780636d77cad6146106c757806370a08231146106f7576103ad565b8063556f0dc7116102b1578063556f0dc71461062d5780635b4b73a91461064b57806362eb00681461066757806367c8491914610683576103ad565b806330e82803146105c1578063313ce567146105f15780634c783bf51461060f576103ad565b806317ec83ca1161034f578063249cb3fa1161031e578063249cb3fa1461053b5780632535f7621461056b5780632f1cae85146105875780633092afd5146105a5576103ad565b806317ec83ca1461049f57806318160ddd146104cf5780631d43e1c0146104ed57806323b872dd1461050b576103ad565b8063103ef9e11161038b578063103ef9e11461041b57806314d1e62f14610437578063168ecec51461046757806316e1aed414610483576103ad565b8063010648ca146103b157806306fdde03146103cd578063095ea7b3146103eb575b5f80fd5b6103cb60048036038101906103c69190616592565b610b9f565b005b6103d5610d27565b6040516103e29190616673565b60405180910390f35b61040560048036038101906104009190616720565b610db7565b6040516104129190616778565b60405180910390f35b61043560048036038101906104309190616791565b610f12565b005b610451600480360381019061044c91906167cf565b611010565b60405161045e9190616778565b60405180910390f35b610481600480360381019061047c9190616791565b61117c565b005b61049d60048036038101906104989190616874565b611279565b005b6104b960048036038101906104b491906168d1565b611344565b6040516104c69190616930565b60405180910390f35b6104d76113d6565b6040516104e49190616930565b60405180910390f35b6104f56113df565b6040516105029190616673565b60405180910390f35b61052560048036038101906105209190616949565b61141c565b6040516105329190616778565b60405180910390f35b61055560048036038101906105509190616791565b611718565b60405161056291906169a8565b60405180910390f35b61058560048036038101906105809190616a16565b611772565b005b61058f6117c8565b60405161059c9190616778565b60405180910390f35b6105bf60048036038101906105ba9190616a87565b6117de565b005b6105db60048036038101906105d69190616791565b61183f565b6040516105e89190616930565b60405180910390f35b6105f9611895565b6040516106069190616acd565b60405180910390f35b61061761189d565b6040516106249190616778565b60405180910390f35b6106356118b3565b6040516106429190616930565b60405180910390f35b61066560048036038101906106609190616ae6565b6118bc565b005b610681600480360381019061067c9190616b11565b6118c4565b005b61069d60048036038101906106989190616b82565b611929565b005b6106a7611a24565b6040516106b49190616cbd565b60405180910390f35b6106c5611a7a565b005b6106e160048036038101906106dc91906168d1565b611b12565b6040516106ee9190616778565b60405180910390f35b610711600480360381019061070c9190616a87565b611b27565b60405161071e9190616930565b60405180910390f35b61072f611b6d565b005b61074b60048036038101906107469190616a87565b611bf4565b6040516107589190616cbd565b60405180910390f35b610769611c87565b6040516107769190616d94565b60405180910390f35b61079960048036038101906107949190616db4565b611d12565b6040516107a69190616d94565b60405180910390f35b6107b7611dae565b6040516107c49190616673565b60405180910390f35b6107e760048036038101906107e29190616ddf565b611e3e565b6040516107f491906169a8565b60405180910390f35b610805612203565b6040516108129190616eb8565b60405180910390f35b61083560048036038101906108309190616efb565b61222a565b005b610851600480360381019061084c9190616a87565b6122b4565b005b61085b6123d8565b6040516108689190616673565b60405180910390f35b61088b60048036038101906108869190616a16565b612468565b005b6108a760048036038101906108a29190616a87565b612792565b005b6108b16127f3565b005b6108cd60048036038101906108c89190616b82565b6127fe565b005b6108d7612b85565b6040516108e49190616cbd565b60405180910390f35b61090760048036038101906109029190616db4565b612bdb565b6040516109149190616930565b60405180910390f35b61093760048036038101906109329190616f39565b612bf5565b005b610941612cc9565b60405161094e91906169a8565b60405180910390f35b610971600480360381019061096c9190616720565b612d4b565b60405161097e9190616778565b60405180910390f35b6109a1600480360381019061099c9190616a87565b612d71565b6040516109ae9190616778565b60405180910390f35b6109d160048036038101906109cc9190616db4565b612d8d565b6040516109e093929190616fcf565b60405180910390f35b610a0360048036038101906109fe919061700b565b612e8f565b604051610a109190616778565b60405180910390f35b610a336004803603810190610a2e9190616a16565b612ea2565b005b610a3d612fff565b604051610a4a9190616cbd565b60405180910390f35b610a6d6004803603810190610a689190616db4565b613055565b005b610a77613386565b005b610a936004803603810190610a8e919061700b565b61341e565b604051610aa09190616930565b60405180910390f35b610ac36004803603810190610abe9190617049565b6134a0565b005b610adf6004803603810190610ada91906170a6565b6134f4565b005b610afb6004803603810190610af69190617146565b6135bd565b005b610b176004803603810190610b129190617191565b61364f565b005b610b336004803603810190610b2e9190616a87565b61397b565b005b610b4f6004803603810190610b4a9190616b82565b613a71565b604051610b5c91906169a8565b60405180910390f35b610b6d613add565b604051610b7a91906169a8565b60405180910390f35b610b9d6004803603810190610b989190616a87565b613aeb565b005b60175f3373ffffffffffffffffffffffffffffffffffffffff1673ffffffffffffffffffffffffffffffffffffffff1681526020019081526020015f205f9054906101000a900460ff16610bf1575f80fd5b604051806060016040528084848080601f0160208091040260200160405190810160405280939291908181526020018383808284375f81840152601f19601f82011690508083019250505050505050815260200182815260200142815250600b5f8681526020019081526020015f205f820151815f019081610c73919061743c565b5060208201518160010155604082015181600201559050505f600c5f8381526020019081526020015f205403610ce557600d81908060018154018082558091505060019003905f5260205f20015f9091909190915055600d80549050600c5f8381526020019081526020015f20819055505b837fb4c22d60cd550a815744f04e3ff5278bf19684565ee00e2b084041b6024bd6f6848484604051610d1993929190617545565b60405180910390a250505050565b606060048054610d369061726f565b80601f0160208091040260200160405190810160405280929190818152602001828054610d629061726f565b8015610dad5780601f10610d8457610100808354040283529160200191610dad565b820191905f5260205f20905b815481529060010190602001808311610d9057829003601f168201915b5050505050905090565b5f8073ffffffffffffffffffffffffffffffffffffffff168373ffffffffffffffffffffffffffffffffffffffff1603610e26576040517f08c379a0000000000000000000000000000000000000000000000000000000008152600401610e1d906175bf565b60405180910390fd5b81600a5f3373ffffffffffffffffffffffffffffffffffffffff1673ffffffffffffffffffffffffffffffffffffffff1681526020019081526020015f205f8573ffffffffffffffffffffffffffffffffffffffff1673ffffffffffffffffffffffffffffffffffffffff1681526020019081526020015f20819055508273ffffffffffffffffffffffffffffffffffffffff163373ffffffffffffffffffffffffffffffffffffffff167f8c5be1e5ebec7d5bd14f71427d1e84f3dd0314c0f7b2291e5b200ac8c7c3b92584604051610f009190616930565b60405180910390a36001905092915050565b600160195f3373ffffffffffffffffffffffffffffffffffffffff1673ffffffffffffffffffffffffffffffffffffffff1681526020019081526020015f205f8481526020019081526020015f205f8373ffffffffffffffffffffffffffffffffffffffff1673ffffffffffffffffffffffffffffffffffffffff1681526020019081526020015f205f6101000a81548160ff0219169083151502179055503373ffffffffffffffffffffffffffffffffffffffff168173ffffffffffffffffffffffffffffffffffffffff16837f3646a897c70797ecc134b0adc32f471b07bf1d6f451133b0384badab531e3fd660405160405180910390a45050565b5f8073ffffffffffffffffffffffffffffffffffffffff168373ffffffffffffffffffffffffffffffffffffffff160361107f576040517f08c379a0000000000000000000000000000000000000000000000000000000008152600401611076906175bf565b60405180910390fd5b8160185f8681526020019081526020015f205f3373ffffffffffffffffffffffffffffffffffffffff1673ffffffffffffffffffffffffffffffffffffffff1681526020019081526020015f205f8573ffffffffffffffffffffffffffffffffffffffff1673ffffffffffffffffffffffffffffffffffffffff1681526020019081526020015f20819055508273ffffffffffffffffffffffffffffffffffffffff163373ffffffffffffffffffffffffffffffffffffffff16857ff061499aa77c2f6f5e25e34955a06623705344a88256cc861a121ec0bce5cfec856040516111699190616930565b60405180910390a4600190509392505050565b5f60195f3373ffffffffffffffffffffffffffffffffffffffff1673ffffffffffffffffffffffffffffffffffffffff1681526020019081526020015f205f8481526020019081526020015f205f8373ffffffffffffffffffffffffffffffffffffffff1673ffffffffffffffffffffffffffffffffffffffff1681526020019081526020015f205f6101000a81548160ff0219169083151502179055503373ffffffffffffffffffffffffffffffffffffffff168173ffffffffffffffffffffffffffffffffffffffff16837f3b287c4f1bab4df949b33bceacef984f544dc5d5479930d00e4ee8c9d8dd96f260405160405180910390a45050565b611281613c0e565b73ffffffffffffffffffffffffffffffffffffffff1661129f612203565b73ffffffffffffffffffffffffffffffffffffffff16146112f5576040517f08c379a00000000000000000000000000000000000000000000000000000000081526004016112ec90617627565b60405180910390fd5b61133f838383808060200260200160405190810160405280939291908181526020018383602002808284375f81840152601f19601f82011690508083019250505050505050613c15565b505050565b5f60185f8581526020019081526020015f205f8473ffffffffffffffffffffffffffffffffffffffff1673ffffffffffffffffffffffffffffffffffffffff1681526020019081526020015f205f8373ffffffffffffffffffffffffffffffffffffffff1673ffffffffffffffffffffffffffffffffffffffff1681526020019081526020015f205490509392505050565b5f600754905090565b60606040518060400160405280600181526020017f3100000000000000000000000000000000000000000000000000000000000000815250905090565b5f6114273385613daf565b806114aa5750600a5f8573ffffffffffffffffffffffffffffffffffffffff1673ffffffffffffffffffffffffffffffffffffffff1681526020019081526020015f205f3373ffffffffffffffffffffffffffffffffffffffff1673ffffffffffffffffffffffffffffffffffffffff1681526020019081526020015f20548211155b6114e9576040517f08c379a00000000000000000000000000000000000000000000000000000000081526004016114e09061768f565b60405180910390fd5b81600a5f8673ffffffffffffffffffffffffffffffffffffffff1673ffffffffffffffffffffffffffffffffffffffff1681526020019081526020015f205f3373ffffffffffffffffffffffffffffffffffffffff1673ffffffffffffffffffffffffffffffffffffffff1681526020019081526020015f205410611674576115f382600a5f8773ffffffffffffffffffffffffffffffffffffffff1673ffffffffffffffffffffffffffffffffffffffff1681526020019081526020015f205f3373ffffffffffffffffffffffffffffffffffffffff1673ffffffffffffffffffffffffffffffffffffffff1681526020019081526020015f2054613edc90919063ffffffff16565b600a5f8673ffffffffffffffffffffffffffffffffffffffff1673ffffffffffffffffffffffffffffffffffffffff1681526020019081526020015f205f3373ffffffffffffffffffffffffffffffffffffffff1673ffffffffffffffffffffffffffffffffffffffff1681526020019081526020015f20819055506116f2565b5f600a5f8673ffffffffffffffffffffffffffffffffffffffff1673ffffffffffffffffffffffffffffffffffffffff1681526020019081526020015f205f3373ffffffffffffffffffffffffffffffffffffffff1673ffffffffffffffffffffffffffffffffffffffff1681526020019081526020015f20819055505b61170d3385858560405180602001604052805f815250613ef1565b600190509392505050565b5f60015f8481526020019081526020015f205f9054906101000a900460ff16156117685760405160200161174b90617701565b60405160208183030381529060405280519060200120905061176c565b5f90505b92915050565b6117c23333868686868080601f0160208091040260200160405190810160405280939291908181526020018383808284375f81840152601f19601f82011690508083019250505050505050613ef1565b50505050565b5f600860029054906101000a900460ff16905090565b6117e733612d71565b8061182b57506117f5613c0e565b73ffffffffffffffffffffffffffffffffffffffff16611813612203565b73ffffffffffffffffffffffffffffffffffffffff16145b611833575f80fd5b61183c816140ac565b50565b5f60135f8373ffffffffffffffffffffffffffffffffffffffff1673ffffffffffffffffffffffffffffffffffffffff1681526020019081526020015f205f8481526020019081526020015f2054905092915050565b5f6012905090565b5f600860019054906101000a900460ff16905090565b5f600654905090565b5f8190505050565b6119238433338686868080601f0160208091040260200160405190810160405280939291908181526020018383808284375f81840152601f19601f8201169050808301925050505050505060405180602001604052805f815250614106565b50505050565b61193233612d71565b806119765750611940613c0e565b73ffffffffffffffffffffffffffffffffffffffff1661195e612203565b73ffffffffffffffffffffffffffffffffffffffff16145b61197e575f80fd5b600860029054906101000a900460ff166119cd576040517f08c379a00000000000000000000000000000000000000000000000000000000081526004016119c49061775f565b60405180910390fd5b611a1d8533868686868080601f0160208091040260200160405190810160405280939291908181526020018383808284375f81840152601f19601f8201169050808301925050505050505061423a565b5050505050565b6060600e805480602002602001604051908101604052809291908181526020018280548015611a7057602002820191905f5260205f20905b815481526020019060010190808311611a5c575b5050505050905090565b611a82613c0e565b73ffffffffffffffffffffffffffffffffffffffff16611aa0612203565b73ffffffffffffffffffffffffffffffffffffffff1614611af6576040517f08c379a0000000000000000000000000000000000000000000000000000000008152600401611aed90617627565b60405180910390fd5b5f600860026101000a81548160ff021916908315150217905550565b5f611b1e8484846142fa565b90509392505050565b5f60095f8373ffffffffffffffffffffffffffffffffffffffff1673ffffffffffffffffffffffffffffffffffffffff1681526020019081526020015f20549050919050565b611b75613c0e565b73ffffffffffffffffffffffffffffffffffffffff16611b93612203565b73ffffffffffffffffffffffffffffffffffffffff1614611be9576040517f08c379a0000000000000000000000000000000000000000000000000000000008152600401611be090617627565b60405180910390fd5b611bf25f614421565b565b606060115f8373ffffffffffffffffffffffffffffffffffffffff1673ffffffffffffffffffffffffffffffffffffffff1681526020019081526020015f20805480602002602001604051908101604052809291908181526020018280548015611c7b57602002820191905f5260205f20905b815481526020019060010190808311611c67575b50505050509050919050565b60606016805480602002602001604051908101604052809291908181526020018280548015611d0857602002820191905f5260205f20905b815f9054906101000a900473ffffffffffffffffffffffffffffffffffffffff1673ffffffffffffffffffffffffffffffffffffffff1681526020019060010190808311611cbf575b5050505050905090565b6060601a5f8381526020019081526020015f20805480602002602001604051908101604052809291908181526020018280548015611da257602002820191905f5260205f20905b815f9054906101000a900473ffffffffffffffffffffffffffffffffffffffff1673ffffffffffffffffffffffffffffffffffffffff1681526020019060010190808311611d59575b50505050509050919050565b606060048054611dbd9061726f565b80601f0160208091040260200160405190810160405280929190818152602001828054611de99061726f565b8015611e345780601f10611e0b57610100808354040283529160200191611e34565b820191905f5260205f20905b815481529060010190602001808311611e1757829003601f168201915b5050505050905090565b5f611e4a89338a6142fa565b80611edc575060185f8a81526020019081526020015f205f8973ffffffffffffffffffffffffffffffffffffffff1673ffffffffffffffffffffffffffffffffffffffff1681526020019081526020015f205f3373ffffffffffffffffffffffffffffffffffffffff1673ffffffffffffffffffffffffffffffffffffffff1681526020019081526020015f20548611155b611f1b576040517f08c379a0000000000000000000000000000000000000000000000000000000008152600401611f129061768f565b60405180910390fd5b8560185f8b81526020019081526020015f205f8a73ffffffffffffffffffffffffffffffffffffffff1673ffffffffffffffffffffffffffffffffffffffff1681526020019081526020015f205f3373ffffffffffffffffffffffffffffffffffffffff1673ffffffffffffffffffffffffffffffffffffffff1681526020019081526020015f2054106120d3576120438660185f8c81526020019081526020015f205f8b73ffffffffffffffffffffffffffffffffffffffff1673ffffffffffffffffffffffffffffffffffffffff1681526020019081526020015f205f3373ffffffffffffffffffffffffffffffffffffffff1673ffffffffffffffffffffffffffffffffffffffff1681526020019081526020015f2054613edc90919063ffffffff16565b60185f8b81526020019081526020015f205f8a73ffffffffffffffffffffffffffffffffffffffff1673ffffffffffffffffffffffffffffffffffffffff1681526020019081526020015f205f3373ffffffffffffffffffffffffffffffffffffffff1673ffffffffffffffffffffffffffffffffffffffff1681526020019081526020015f2081905550612160565b5f60185f8b81526020019081526020015f205f8a73ffffffffffffffffffffffffffffffffffffffff1673ffffffffffffffffffffffffffffffffffffffff1681526020019081526020015f205f3373ffffffffffffffffffffffffffffffffffffffff1673ffffffffffffffffffffffffffffffffffffffff1681526020019081526020015f20819055505b6121f589338a8a8a8a8a8080601f0160208091040260200160405190810160405280939291908181526020018383808284375f81840152601f19601f8201169050808301925050505050505089898080601f0160208091040260200160405190810160405280939291908181526020018383808284375f81840152601f19601f820116905080830192505050505050506144e2565b905098975050505050505050565b5f805f9054906101000a900473ffffffffffffffffffffffffffffffffffffffff16905090565b612232613c0e565b73ffffffffffffffffffffffffffffffffffffffff16612250612203565b73ffffffffffffffffffffffffffffffffffffffff16146122a6576040517f08c379a000000000000000000000000000000000000000000000000000000000815260040161229d90617627565b60405180910390fd5b6122b082826146a5565b5050565b3373ffffffffffffffffffffffffffffffffffffffff168173ffffffffffffffffffffffffffffffffffffffff16036122eb575f80fd5b600160155f8373ffffffffffffffffffffffffffffffffffffffff1673ffffffffffffffffffffffffffffffffffffffff1681526020019081526020015f205f3373ffffffffffffffffffffffffffffffffffffffff1673ffffffffffffffffffffffffffffffffffffffff1681526020019081526020015f205f6101000a81548160ff0219169083151502179055503373ffffffffffffffffffffffffffffffffffffffff168173ffffffffffffffffffffffffffffffffffffffff167ff4caeb2d6ca8932a215a353d0703c326ec2d81fc68170f320eb2ab49e9df61f960405160405180910390a350565b6060600580546123e79061726f565b80601f01602080910402602001604051908101604052809291908181526020018280546124139061726f565b801561245e5780601f106124355761010080835404028352916020019161245e565b820191905f5260205f20905b81548152906001019060200180831161244157829003601f168201915b5050505050905090565b6124723385613daf565b806124f55750600a5f8573ffffffffffffffffffffffffffffffffffffffff1673ffffffffffffffffffffffffffffffffffffffff1681526020019081526020015f205f3373ffffffffffffffffffffffffffffffffffffffff1673ffffffffffffffffffffffffffffffffffffffff1681526020019081526020015f20548311155b612534576040517f08c379a000000000000000000000000000000000000000000000000000000000815260040161252b9061768f565b60405180910390fd5b82600a5f8673ffffffffffffffffffffffffffffffffffffffff1673ffffffffffffffffffffffffffffffffffffffff1681526020019081526020015f205f3373ffffffffffffffffffffffffffffffffffffffff1673ffffffffffffffffffffffffffffffffffffffff1681526020019081526020015f2054106126bf5761263e83600a5f8773ffffffffffffffffffffffffffffffffffffffff1673ffffffffffffffffffffffffffffffffffffffff1681526020019081526020015f205f3373ffffffffffffffffffffffffffffffffffffffff1673ffffffffffffffffffffffffffffffffffffffff1681526020019081526020015f2054613edc90919063ffffffff16565b600a5f8673ffffffffffffffffffffffffffffffffffffffff1673ffffffffffffffffffffffffffffffffffffffff1681526020019081526020015f205f3373ffffffffffffffffffffffffffffffffffffffff1673ffffffffffffffffffffffffffffffffffffffff1681526020019081526020015f208190555061273d565b5f600a5f8673ffffffffffffffffffffffffffffffffffffffff1673ffffffffffffffffffffffffffffffffffffffff1681526020019081526020015f205f3373ffffffffffffffffffffffffffffffffffffffff1673ffffffffffffffffffffffffffffffffffffffff1681526020019081526020015f20819055505b61278c33858585858080601f0160208091040260200160405190810160405280939291908181526020018383808284375f81840152601f19601f82011690508083019250505050505050614748565b50505050565b61279b33612d71565b806127df57506127a9613c0e565b73ffffffffffffffffffffffffffffffffffffffff166127c7612203565b73ffffffffffffffffffffffffffffffffffffffff16145b6127e7575f80fd5b6127f0816148f6565b50565b6127fc336140ac565b565b6128098533866142fa565b8061289b575060185f8681526020019081526020015f205f8573ffffffffffffffffffffffffffffffffffffffff1673ffffffffffffffffffffffffffffffffffffffff1681526020019081526020015f205f3373ffffffffffffffffffffffffffffffffffffffff1673ffffffffffffffffffffffffffffffffffffffff1681526020019081526020015f20548311155b6128da576040517f08c379a00000000000000000000000000000000000000000000000000000000081526004016128d1906177c7565b60405180910390fd5b8260185f8781526020019081526020015f205f8673ffffffffffffffffffffffffffffffffffffffff1673ffffffffffffffffffffffffffffffffffffffff1681526020019081526020015f205f3373ffffffffffffffffffffffffffffffffffffffff1673ffffffffffffffffffffffffffffffffffffffff1681526020019081526020015f205410612a9257612a028360185f8881526020019081526020015f205f8773ffffffffffffffffffffffffffffffffffffffff1673ffffffffffffffffffffffffffffffffffffffff1681526020019081526020015f205f3373ffffffffffffffffffffffffffffffffffffffff1673ffffffffffffffffffffffffffffffffffffffff1681526020019081526020015f2054613edc90919063ffffffff16565b60185f8781526020019081526020015f205f8673ffffffffffffffffffffffffffffffffffffffff1673ffffffffffffffffffffffffffffffffffffffff1681526020019081526020015f205f3373ffffffffffffffffffffffffffffffffffffffff1673ffffffffffffffffffffffffffffffffffffffff1681526020019081526020015f2081905550612b1f565b5f60185f8781526020019081526020015f205f8673ffffffffffffffffffffffffffffffffffffffff1673ffffffffffffffffffffffffffffffffffffffff1681526020019081526020015f205f3373ffffffffffffffffffffffffffffffffffffffff1673ffffffffffffffffffffffffffffffffffffffff1681526020019081526020015f20819055505b612b7e8533868660405180602001604052805f81525087878080601f0160208091040260200160405190810160405280939291908181526020018383808284375f81840152601f19601f82011690508083019250505050505050614106565b5050505050565b6060600d805480602002602001604051908101604052809291908181526020018280548015612bd157602002820191905f5260205f20905b815481526020019060010190808311612bbd575b5050505050905090565b5f60105f8381526020019081526020015f20549050919050565b612bfd613c0e565b73ffffffffffffffffffffffffffffffffffffffff16612c1b612203565b73ffffffffffffffffffffffffffffffffffffffff1614612c71576040517f08c379a0000000000000000000000000000000000000000000000000000000008152600401612c6890617627565b60405180910390fd5b612cc18686868080601f0160208091040260200160405190810160405280939291908181526020018383808284375f81840152601f19601f82011690508083019250505050505050858585614950565b505050505050565b5f80612cd3614a98565b90505f7f8b73c3c69bb8fe3d512ecc4cf759cc79239f7b179b0ffacaa9a75d522b39400f612cff611dae565b80519060200120612d0e6113df565b805190602001208430604051602001612d2b9594939291906177e5565b604051602081830303815290604052805190602001209050809250505090565b5f612d673333858560405180602001604052805f815250613ef1565b6001905092915050565b5f612d86826002614aa490919063ffffffff16565b9050919050565b60605f805f600b5f8681526020019081526020015f205f018054612db09061726f565b905003612dbb575f80fd5b600b5f8581526020019081526020015f205f01600b5f8681526020019081526020015f2060010154600b5f8781526020019081526020015f2060020154828054612e049061726f565b80601f0160208091040260200160405190810160405280929190818152602001828054612e309061726f565b8015612e7b5780601f10612e5257610100808354040283529160200191612e7b565b820191905f5260205f20905b815481529060010190602001808311612e5e57829003601f168201915b505050505092509250925092509193909250565b5f612e9a8383613daf565b905092915050565b612eab33612d71565b80612eef5750612eb9613c0e565b73ffffffffffffffffffffffffffffffffffffffff16612ed7612203565b73ffffffffffffffffffffffffffffffffffffffff16145b612ef7575f80fd5b600860029054906101000a900460ff16612f46576040517f08c379a0000000000000000000000000000000000000000000000000000000008152600401612f3d9061775f565b60405180910390fd5b5f60148054905003612f8d576040517f08c379a0000000000000000000000000000000000000000000000000000000008152600401612f849061775f565b60405180910390fd5b612ff960145f81548110612fa457612fa3617836565b5b905f5260205f20015433868686868080601f0160208091040260200160405190810160405280939291908181526020018383808284375f81840152601f19601f8201169050808301925050505050505061423a565b50505050565b6060601480548060200260200160405190810160405280929190818152602001828054801561304b57602002820191905f5260205f20905b815481526020019060010190808311613037575b5050505050905090565b60175f3373ffffffffffffffffffffffffffffffffffffffff1673ffffffffffffffffffffffffffffffffffffffff1681526020019081526020015f205f9054906101000a900460ff166130de576040517f08c379a00000000000000000000000000000000000000000000000000000000081526004016130d5906178ad565b60405180910390fd5b5f600b5f8381526020019081526020015f205f0180546130fd9061726f565b90500361313f576040517f08c379a000000000000000000000000000000000000000000000000000000000815260040161313690617915565b60405180910390fd5b5f600b5f8381526020019081526020015f206040518060600160405290815f8201805461316b9061726f565b80601f01602080910402602001604051908101604052809291908181526020018280546131979061726f565b80156131e25780601f106131b9576101008083540402835291602001916131e2565b820191905f5260205f20905b8154815290600101906020018083116131c557829003601f168201915b505050505081526020016001820154815260200160028201548152505090505f600c5f836020015181526020019081526020015f205490505f811161325c576040517f08c379a00000000000000000000000000000000000000000000000000000000081526004016132539061797d565b60405180910390fd5b5f600d6001600d8054905061327191906179c8565b8154811061328257613281617836565b5b905f5260205f200154905080600d60018461329d91906179c8565b815481106132ae576132ad617836565b5b905f5260205f20018190555081600c5f8381526020019081526020015f2081905550600d8054806132e2576132e16179fb565b5b600190038181905f5260205f20015f905590555f600c5f856020015181526020019081526020015f2081905550600b5f8581526020019081526020015f205f8082015f61332f91906163b1565b600182015f9055600282015f90555050837f3d9bba27d3e360d8c80645beed7e991454a8271bf6f269a24f7782be0f0d0654845f01518560200151604051613378929190617a28565b60405180910390a250505050565b61338e613c0e565b73ffffffffffffffffffffffffffffffffffffffff166133ac612203565b73ffffffffffffffffffffffffffffffffffffffff1614613402576040517f08c379a00000000000000000000000000000000000000000000000000000000081526004016133f990617627565b60405180910390fd5b5f600860016101000a81548160ff021916908315150217905550565b5f600a5f8473ffffffffffffffffffffffffffffffffffffffff1673ffffffffffffffffffffffffffffffffffffffff1681526020019081526020015f205f8373ffffffffffffffffffffffffffffffffffffffff1673ffffffffffffffffffffffffffffffffffffffff1681526020019081526020015f2054905092915050565b6134ef33338585858080601f0160208091040260200160405190810160405280939291908181526020018383808284375f81840152601f19601f82011690508083019250505050505050614748565b505050565b6134fc613c0e565b73ffffffffffffffffffffffffffffffffffffffff1661351a612203565b73ffffffffffffffffffffffffffffffffffffffff1614613570576040517f08c379a000000000000000000000000000000000000000000000000000000000815260040161356790617627565b60405180910390fd5b6135b98282808060200260200160405190810160405280939291908181526020018383602002808284375f81840152601f19601f82011690508083019250505050505050614b66565b5050565b6135c5613c0e565b73ffffffffffffffffffffffffffffffffffffffff166135e3612203565b73ffffffffffffffffffffffffffffffffffffffff1614613639576040517f08c379a000000000000000000000000000000000000000000000000000000000815260040161363090617627565b60405180910390fd5b81816014919061364a9291906163ee565b505050565b6136593386613daf565b806136dc5750600a5f8673ffffffffffffffffffffffffffffffffffffffff1673ffffffffffffffffffffffffffffffffffffffff1681526020019081526020015f205f3373ffffffffffffffffffffffffffffffffffffffff1673ffffffffffffffffffffffffffffffffffffffff1681526020019081526020015f20548311155b61371b576040517f08c379a00000000000000000000000000000000000000000000000000000000081526004016137129061768f565b60405180910390fd5b82600a5f8773ffffffffffffffffffffffffffffffffffffffff1673ffffffffffffffffffffffffffffffffffffffff1681526020019081526020015f205f3373ffffffffffffffffffffffffffffffffffffffff1673ffffffffffffffffffffffffffffffffffffffff1681526020019081526020015f2054106138a65761382583600a5f8873ffffffffffffffffffffffffffffffffffffffff1673ffffffffffffffffffffffffffffffffffffffff1681526020019081526020015f205f3373ffffffffffffffffffffffffffffffffffffffff1673ffffffffffffffffffffffffffffffffffffffff1681526020019081526020015f2054613edc90919063ffffffff16565b600a5f8773ffffffffffffffffffffffffffffffffffffffff1673ffffffffffffffffffffffffffffffffffffffff1681526020019081526020015f205f3373ffffffffffffffffffffffffffffffffffffffff1673ffffffffffffffffffffffffffffffffffffffff1681526020019081526020015f2081905550613924565b5f600a5f8773ffffffffffffffffffffffffffffffffffffffff1673ffffffffffffffffffffffffffffffffffffffff1681526020019081526020015f205f3373ffffffffffffffffffffffffffffffffffffffff1673ffffffffffffffffffffffffffffffffffffffff1681526020019081526020015f20819055505b6139743386868686868080601f0160208091040260200160405190810160405280939291908181526020018383808284375f81840152601f19601f82011690508083019250505050505050613ef1565b5050505050565b613983613c0e565b73ffffffffffffffffffffffffffffffffffffffff166139a1612203565b73ffffffffffffffffffffffffffffffffffffffff16146139f7576040517f08c379a00000000000000000000000000000000000000000000000000000000081526004016139ee90617627565b60405180910390fd5b5f73ffffffffffffffffffffffffffffffffffffffff168173ffffffffffffffffffffffffffffffffffffffff1603613a65576040517f08c379a0000000000000000000000000000000000000000000000000000000008152600401613a5c90617ac6565b60405180910390fd5b613a6e81614421565b50565b5f613ad2863333888888888080601f0160208091040260200160405190810160405280939291908181526020018383808284375f81840152601f19601f8201169050808301925050505050505060405180602001604052805f8152506144e2565b905095945050505050565b5f613ae6614cb4565b905090565b3373ffffffffffffffffffffffffffffffffffffffff168173ffffffffffffffffffffffffffffffffffffffff1603613b22575f80fd5b5f60155f8373ffffffffffffffffffffffffffffffffffffffff1673ffffffffffffffffffffffffffffffffffffffff1681526020019081526020015f205f3373ffffffffffffffffffffffffffffffffffffffff1673ffffffffffffffffffffffffffffffffffffffff1681526020019081526020015f205f6101000a81548160ff0219169083151502179055503373ffffffffffffffffffffffffffffffffffffffff168173ffffffffffffffffffffffffffffffffffffffff167f50546e66e5f44d728365dc3908c63bc5cfeeab470722c1677e3073a6ac294aa160405160405180910390a350565b5f33905090565b5f5b601a5f8481526020019081526020015f2080549050811015613ced575f601b5f8581526020019081526020015f205f601a5f8781526020019081526020015f208481548110613c6957613c68617836565b5b905f5260205f20015f9054906101000a900473ffffffffffffffffffffffffffffffffffffffff1673ffffffffffffffffffffffffffffffffffffffff1673ffffffffffffffffffffffffffffffffffffffff1681526020019081526020015f205f6101000a81548160ff0219169083151502179055508080600101915050613c17565b505f5b8151811015613d84576001601b5f8581526020019081526020015f205f848481518110613d2057613d1f617836565b5b602002602001015173ffffffffffffffffffffffffffffffffffffffff1673ffffffffffffffffffffffffffffffffffffffff1681526020019081526020015f205f6101000a81548160ff0219169083151502179055508080600101915050613cf0565b5080601a5f8481526020019081526020015f209080519060200190613daa929190616439565b505050565b5f8173ffffffffffffffffffffffffffffffffffffffff168373ffffffffffffffffffffffffffffffffffffffff161480613e6b575060155f8473ffffffffffffffffffffffffffffffffffffffff1673ffffffffffffffffffffffffffffffffffffffff1681526020019081526020015f205f8373ffffffffffffffffffffffffffffffffffffffff1673ffffffffffffffffffffffffffffffffffffffff1681526020019081526020015f205f9054906101000a900460ff165b80613ed45750600860019054906101000a900460ff168015613ed3575060175f8473ffffffffffffffffffffffffffffffffffffffff1673ffffffffffffffffffffffffffffffffffffffff1681526020019081526020015f205f9054906101000a900460ff165b5b905092915050565b5f8183613ee991906179c8565b905092915050565b5f60148054905003613f38576040517f08c379a0000000000000000000000000000000000000000000000000000000008152600401613f2f9061775f565b60405180910390fd5b5f8290505f805f90505b6014805490508110156140605760135f8873ffffffffffffffffffffffffffffffffffffffff1673ffffffffffffffffffffffffffffffffffffffff1681526020019081526020015f205f60148381548110613fa157613fa0617836565b5b905f5260205f20015481526020019081526020015f2054915081831161400357613ffa60148281548110613fd857613fd7617836565b5b905f5260205f200154898989878960405180602001604052805f8152506144e2565b505f9250614060565b5f8214614053576140436014828154811061402157614020617836565b5b905f5260205f200154898989868960405180602001604052805f8152506144e2565b50818361405091906179c8565b92505b8080600101915050613f42565b505f82146140a3576040517f08c379a000000000000000000000000000000000000000000000000000000000815260040161409a90617b2e565b60405180910390fd5b50505050505050565b6140c0816002614cf290919063ffffffff16565b8073ffffffffffffffffffffffffffffffffffffffff167fe94479a9f7e1952cc78f2d6baab678adc1b772d936c6583def489e524cb6669260405160405180910390a250565b8260135f8673ffffffffffffffffffffffffffffffffffffffff1673ffffffffffffffffffffffffffffffffffffffff1681526020019081526020015f205f8881526020019081526020015f20541015614195576040517f08c379a000000000000000000000000000000000000000000000000000000000815260040161418c90617b2e565b60405180910390fd5b6141a48686865f878787614d94565b6141b38686865f878787614e8a565b6141be848785614f80565b6141ca85858585615487565b8373ffffffffffffffffffffffffffffffffffffffff168573ffffffffffffffffffffffffffffffffffffffff16877fce306c3dbc4a497124b5a4f2be8388b41084c1d74663da27ecee1186c00239bf868560405161422a929190617b9e565b60405180910390a4505050505050565b61425785855f86868660405180602001604052805f815250614e8a565b6142638484848461578a565b61426e838684615a0d565b61428b85855f86868660405180602001604052805f815250615ca2565b8273ffffffffffffffffffffffffffffffffffffffff168473ffffffffffffffffffffffffffffffffffffffff16867ff0ded82afbb1bb3ff3fc48cb2a26584aa84e4af0bf309c804ecdb94d0f6a98bb85856040516142eb929190617bef565b60405180910390a45050505050565b5f6143058383613daf565b806143a0575060195f8373ffffffffffffffffffffffffffffffffffffffff1673ffffffffffffffffffffffffffffffffffffffff1681526020019081526020015f205f8581526020019081526020015f205f8473ffffffffffffffffffffffffffffffffffffffff1673ffffffffffffffffffffffffffffffffffffffff1681526020019081526020015f205f9054906101000a900460ff165b806144185750600860019054906101000a900460ff1680156144175750601b5f8581526020019081526020015f205f8473ffffffffffffffffffffffffffffffffffffffff1673ffffffffffffffffffffffffffffffffffffffff1681526020019081526020015f205f9054906101000a900460ff165b5b90509392505050565b5f805f9054906101000a900473ffffffffffffffffffffffffffffffffffffffff169050815f806101000a81548173ffffffffffffffffffffffffffffffffffffffff021916908373ffffffffffffffffffffffffffffffffffffffff1602179055508173ffffffffffffffffffffffffffffffffffffffff168173ffffffffffffffffffffffffffffffffffffffff167f8be0079c531659141344cd1fd0a4f28419497f9722a3daafe3b4186f6b6457e060405160405180910390a35050565b5f8360135f8873ffffffffffffffffffffffffffffffffffffffff1673ffffffffffffffffffffffffffffffffffffffff1681526020019081526020015f205f8a81526020019081526020015f20541015614572576040517f08c379a000000000000000000000000000000000000000000000000000000000815260040161456990617b2e565b60405180910390fd5b5f8890505f83511415801561458957506040845110155b1561459b576145988985615d98565b90505b6145aa89898989898989614d94565b6145b989898989898989614e8a565b6145c4878a87614f80565b6145cf878787615de6565b6145da868287615a0d565b6145e981898989898989615ca2565b8573ffffffffffffffffffffffffffffffffffffffff168773ffffffffffffffffffffffffffffffffffffffff168a7fff4e9a26af4eb73b8bacfaa4abd4fea03d9448e7b912dc5ff4019048875aa2d48b89898960405161464d9493929190617c30565b60405180910390a48881146146965780897f67c8ba31d2dd11f1384577b3405b04ed91eed1231e408432ad2458cab37b2fa18760405161468d9190616930565b60405180910390a35b80915050979650505050505050565b6146e46040518060400160405280600a81526020017f4552433230546f6b656e00000000000000000000000000000000000000000000815250836160f7565b6147236040518060400160405280600c81526020017f45524331343030546f6b656e0000000000000000000000000000000000000000815250836160f7565b801561474457600160085f6101000a81548160ff0219169083151502179055505b5050565b5f6014805490500361478f576040517f08c379a00000000000000000000000000000000000000000000000000000000081526004016147869061775f565b60405180910390fd5b5f8290505f805f90505b6014805490508110156148ab5760135f8773ffffffffffffffffffffffffffffffffffffffff1673ffffffffffffffffffffffffffffffffffffffff1681526020019081526020015f205f601483815481106147f8576147f7617836565b5b905f5260205f20015481526020019081526020015f20549150818311614858576148506014828154811061482f5761482e617836565b5b905f5260205f2001548888868860405180602001604052805f815250614106565b5f92506148ab565b6148906014828154811061486f5761486e617836565b5b905f5260205f2001548888858860405180602001604052805f815250614106565b818361489c91906179c8565b92508080600101915050614799565b505f82146148ee576040517f08c379a00000000000000000000000000000000000000000000000000000000081526004016148e590617b2e565b60405180910390fd5b505050505050565b61490a8160026161a490919063ffffffff16565b8073ffffffffffffffffffffffffffffffffffffffff167f6ae172837ea30b801fbfcdd4108aa1d5bf8ff775444fd70256b44e6bf3dfc3f660405160405180910390a250565b5f61495b3086616248565b90505f73ffffffffffffffffffffffffffffffffffffffff168173ffffffffffffffffffffffffffffffffffffffff16141580156149965750835b15614a08576149a481612d71565b156149b3576149b2816140ac565b5b5f60175f8373ffffffffffffffffffffffffffffffffffffffff1673ffffffffffffffffffffffffffffffffffffffff1681526020019081526020015f205f6101000a81548160ff0219169083151502179055505b614a1285876160f7565b828015614a255750614a2386612d71565b155b15614a3457614a33866148f6565b5b8115614a9057600160175f8873ffffffffffffffffffffffffffffffffffffffff1673ffffffffffffffffffffffffffffffffffffffff1681526020019081526020015f205f6101000a81548160ff0219169083151502179055505b505050505050565b5f804690508091505090565b5f8073ffffffffffffffffffffffffffffffffffffffff168273ffffffffffffffffffffffffffffffffffffffff1603614b13576040517f08c379a0000000000000000000000000000000000000000000000000000000008152600401614b0a90617cf1565b60405180910390fd5b825f015f8373ffffffffffffffffffffffffffffffffffffffff1673ffffffffffffffffffffffffffffffffffffffff1681526020019081526020015f205f9054906101000a900460ff16905092915050565b5f5b601680549050811015614c11575f60175f60168481548110614b8d57614b8c617836565b5b905f5260205f20015f9054906101000a900473ffffffffffffffffffffffffffffffffffffffff1673ffffffffffffffffffffffffffffffffffffffff1673ffffffffffffffffffffffffffffffffffffffff1681526020019081526020015f205f6101000a81548160ff0219169083151502179055508080600101915050614b68565b505f5b8151811015614c9957600160175f848481518110614c3557614c34617836565b5b602002602001015173ffffffffffffffffffffffffffffffffffffffff1673ffffffffffffffffffffffffffffffffffffffff1681526020019081526020015f205f6101000a81548160ff0219169083151502179055508080600101915050614c14565b508060169080519060200190614cb0929190616439565b5050565b5f8060035f614cc1614a98565b81526020019081526020015f205490505f801b8114614ce35780915050614cef565b614ceb61630a565b9150505b90565b614cfc8282614aa4565b614d3b576040517f08c379a0000000000000000000000000000000000000000000000000000000008152600401614d3290617d7f565b60405180910390fd5b5f825f015f8373ffffffffffffffffffffffffffffffffffffffff1673ffffffffffffffffffffffffffffffffffffffff1681526020019081526020015f205f6101000a81548160ff0219169083151502179055505050565b5f614dd4866040518060400160405280601381526020017f45524331343030546f6b656e7353656e64657200000000000000000000000000815250616248565b90505f73ffffffffffffffffffffffffffffffffffffffff168173ffffffffffffffffffffffffffffffffffffffff1614614e80578073ffffffffffffffffffffffffffffffffffffffff16634e755a545f368b8b8b8b8b8b8b6040518a63ffffffff1660e01b8152600401614e5299989796959493929190617dc9565b5f604051808303815f87803b158015614e69575f80fd5b505af1158015614e7b573d5f803e3d5ffd5b505050505b5050505050505050565b5f614eca306040518060400160405280601681526020017f45524331343030546f6b656e7356616c696461746f7200000000000000000000815250616248565b90505f73ffffffffffffffffffffffffffffffffffffffff168173ffffffffffffffffffffffffffffffffffffffff1614614f76578073ffffffffffffffffffffffffffffffffffffffff1663520faa765f368b8b8b8b8b8b8b6040518a63ffffffff1660e01b8152600401614f4899989796959493929190617dc9565b5f604051808303815f87803b158015614f5f575f80fd5b505af1158015614f71573d5f803e3d5ffd5b505050505b5050505050505050565b614fdf8160135f8673ffffffffffffffffffffffffffffffffffffffff1673ffffffffffffffffffffffffffffffffffffffff1681526020019081526020015f205f8581526020019081526020015f2054613edc90919063ffffffff16565b60135f8573ffffffffffffffffffffffffffffffffffffffff1673ffffffffffffffffffffffffffffffffffffffff1681526020019081526020015f205f8481526020019081526020015f20819055506150538160105f8581526020019081526020015f2054613edc90919063ffffffff16565b60105f8481526020019081526020015f20819055505f60105f8481526020019081526020015f205403615189575f600f5f8481526020019081526020015f205490505f81116150d7576040517f08c379a00000000000000000000000000000000000000000000000000000000081526004016150ce90617ea6565b60405180910390fd5b5f600e6001600e805490506150ec91906179c8565b815481106150fd576150fc617836565b5b905f5260205f200154905080600e60018461511891906179c8565b8154811061512957615128617836565b5b905f5260205f20018190555081600f5f8381526020019081526020015f2081905550600e80548061515d5761515c6179fb565b5b600190038181905f5260205f20015f905590555f600f5f8681526020019081526020015f208190555050505b5f60135f8573ffffffffffffffffffffffffffffffffffffffff1673ffffffffffffffffffffffffffffffffffffffff1681526020019081526020015f205f8481526020019081526020015f205403615482575f60125f8573ffffffffffffffffffffffffffffffffffffffff1673ffffffffffffffffffffffffffffffffffffffff1681526020019081526020015f205f8481526020019081526020015f205490505f811161526e576040517f08c379a000000000000000000000000000000000000000000000000000000000815260040161526590617ea6565b60405180910390fd5b5f60115f8673ffffffffffffffffffffffffffffffffffffffff1673ffffffffffffffffffffffffffffffffffffffff1681526020019081526020015f20600160115f8873ffffffffffffffffffffffffffffffffffffffff1673ffffffffffffffffffffffffffffffffffffffff1681526020019081526020015f20805490506152f991906179c8565b8154811061530a57615309617836565b5b905f5260205f20015490508060115f8773ffffffffffffffffffffffffffffffffffffffff1673ffffffffffffffffffffffffffffffffffffffff1681526020019081526020015f2060018461536091906179c8565b8154811061537157615370617836565b5b905f5260205f2001819055508160125f8773ffffffffffffffffffffffffffffffffffffffff1673ffffffffffffffffffffffffffffffffffffffff1681526020019081526020015f205f8381526020019081526020015f208190555060115f8673ffffffffffffffffffffffffffffffffffffffff1673ffffffffffffffffffffffffffffffffffffffff1681526020019081526020015f2080548061541b5761541a6179fb565b5b600190038181905f5260205f20015f905590555f60125f8773ffffffffffffffffffffffffffffffffffffffff1673ffffffffffffffffffffffffffffffffffffffff1681526020019081526020015f205f8681526020019081526020015f208190555050505b505050565b60085f9054906101000a900460ff16156154d6576040517f08c379a00000000000000000000000000000000000000000000000000000000081526004016154cd90617f0e565b60405180910390fd5b6154df8261633f565b61551e576040517f08c379a000000000000000000000000000000000000000000000000000000000815260040161551590617ea6565b60405180910390fd5b5f73ffffffffffffffffffffffffffffffffffffffff168373ffffffffffffffffffffffffffffffffffffffff160361558c576040517f08c379a0000000000000000000000000000000000000000000000000000000008152600401615583906175bf565b60405180910390fd5b8160095f8573ffffffffffffffffffffffffffffffffffffffff1673ffffffffffffffffffffffffffffffffffffffff1681526020019081526020015f2054101561560c576040517f08c379a000000000000000000000000000000000000000000000000000000000815260040161560390617b2e565b60405180910390fd5b61565c8260095f8673ffffffffffffffffffffffffffffffffffffffff1673ffffffffffffffffffffffffffffffffffffffff1681526020019081526020015f2054613edc90919063ffffffff16565b60095f8573ffffffffffffffffffffffffffffffffffffffff1673ffffffffffffffffffffffffffffffffffffffff1681526020019081526020015f20819055506156b282600754613edc90919063ffffffff16565b6007819055508273ffffffffffffffffffffffffffffffffffffffff168473ffffffffffffffffffffffffffffffffffffffff167fb7d0d6b60740753e9f16692a2f479472a1385aec2420fa43225b02f2ffa1afe78484604051615717929190617b9e565b60405180910390a35f73ffffffffffffffffffffffffffffffffffffffff168373ffffffffffffffffffffffffffffffffffffffff167fddf252ad1be2c89b69c2b068fc378daa952ba7f163c4a11628f55a4df523b3ef8460405161577c9190616930565b60405180910390a350505050565b60085f9054906101000a900460ff16156157d9576040517f08c379a00000000000000000000000000000000000000000000000000000000081526004016157d090617f0e565b60405180910390fd5b6157e28261633f565b615821576040517f08c379a000000000000000000000000000000000000000000000000000000000815260040161581890617ea6565b60405180910390fd5b5f73ffffffffffffffffffffffffffffffffffffffff168373ffffffffffffffffffffffffffffffffffffffff160361588f576040517f08c379a000000000000000000000000000000000000000000000000000000000815260040161588690617f76565b60405180910390fd5b6158a48260075461637290919063ffffffff16565b6007819055506158fa8260095f8673ffffffffffffffffffffffffffffffffffffffff1673ffffffffffffffffffffffffffffffffffffffff1681526020019081526020015f205461637290919063ffffffff16565b60095f8573ffffffffffffffffffffffffffffffffffffffff1673ffffffffffffffffffffffffffffffffffffffff1681526020019081526020015f20819055508273ffffffffffffffffffffffffffffffffffffffff168473ffffffffffffffffffffffffffffffffffffffff167f0e9905d62635f049c2f4e11678ebf9dc3d1f8c4a653e290759b772e47ba00d00848460405161599a929190617b9e565b60405180910390a38273ffffffffffffffffffffffffffffffffffffffff165f73ffffffffffffffffffffffffffffffffffffffff167fddf252ad1be2c89b69c2b068fc378daa952ba7f163c4a11628f55a4df523b3ef846040516159ff9190616930565b60405180910390a350505050565b5f8114615c9d575f60125f8573ffffffffffffffffffffffffffffffffffffffff1673ffffffffffffffffffffffffffffffffffffffff1681526020019081526020015f205f8481526020019081526020015f205403615b5a5760115f8473ffffffffffffffffffffffffffffffffffffffff1673ffffffffffffffffffffffffffffffffffffffff1681526020019081526020015f2082908060018154018082558091505060019003905f5260205f20015f909190919091505560115f8473ffffffffffffffffffffffffffffffffffffffff1673ffffffffffffffffffffffffffffffffffffffff1681526020019081526020015f208054905060125f8573ffffffffffffffffffffffffffffffffffffffff1673ffffffffffffffffffffffffffffffffffffffff1681526020019081526020015f205f8481526020019081526020015f20819055505b615bb98160135f8673ffffffffffffffffffffffffffffffffffffffff1673ffffffffffffffffffffffffffffffffffffffff1681526020019081526020015f205f8581526020019081526020015f205461637290919063ffffffff16565b60135f8573ffffffffffffffffffffffffffffffffffffffff1673ffffffffffffffffffffffffffffffffffffffff1681526020019081526020015f205f8481526020019081526020015f20819055505f600f5f8481526020019081526020015f205403615c6357600e82908060018154018082558091505060019003905f5260205f20015f9091909190915055600e80549050600f5f8481526020019081526020015f20819055505b615c878160105f8581526020019081526020015f205461637290919063ffffffff16565b60105f8481526020019081526020015f20819055505b505050565b5f615ce2856040518060400160405280601681526020017f45524331343030546f6b656e73526563697069656e7400000000000000000000815250616248565b90505f73ffffffffffffffffffffffffffffffffffffffff168173ffffffffffffffffffffffffffffffffffffffff1614615d8e578073ffffffffffffffffffffffffffffffffffffffff1663f464b5765f368b8b8b8b8b8b8b6040518a63ffffffff1660e01b8152600401615d6099989796959493929190617dc9565b5f604051808303815f87803b158015615d77575f80fd5b505af1158015615d89573d5f803e3d5ffd5b505050505b5050505050505050565b5f807fffffffffffffffffffffffffffffffffffffffffffffffffffffffffffffffff5f1b90505f60208401519050818103615dda5760408401519250615dde565b8492505b505092915050565b60085f9054906101000a900460ff1615615e35576040517f08c379a0000000000000000000000000000000000000000000000000000000008152600401615e2c90617f0e565b60405180910390fd5b615e3e8161633f565b615e7d576040517f08c379a0000000000000000000000000000000000000000000000000000000008152600401615e7490617ea6565b60405180910390fd5b5f73ffffffffffffffffffffffffffffffffffffffff168273ffffffffffffffffffffffffffffffffffffffff1603615eeb576040517f08c379a0000000000000000000000000000000000000000000000000000000008152600401615ee290617f76565b60405180910390fd5b8060095f8573ffffffffffffffffffffffffffffffffffffffff1673ffffffffffffffffffffffffffffffffffffffff1681526020019081526020015f20541015615f6b576040517f08c379a0000000000000000000000000000000000000000000000000000000008152600401615f6290617b2e565b60405180910390fd5b615fbb8160095f8673ffffffffffffffffffffffffffffffffffffffff1673ffffffffffffffffffffffffffffffffffffffff1681526020019081526020015f2054613edc90919063ffffffff16565b60095f8573ffffffffffffffffffffffffffffffffffffffff1673ffffffffffffffffffffffffffffffffffffffff1681526020019081526020015f208190555061604c8160095f8573ffffffffffffffffffffffffffffffffffffffff1673ffffffffffffffffffffffffffffffffffffffff1681526020019081526020015f205461637290919063ffffffff16565b60095f8473ffffffffffffffffffffffffffffffffffffffff1673ffffffffffffffffffffffffffffffffffffffff1681526020019081526020015f20819055508173ffffffffffffffffffffffffffffffffffffffff168373ffffffffffffffffffffffffffffffffffffffff167fddf252ad1be2c89b69c2b068fc378daa952ba7f163c4a11628f55a4df523b3ef836040516160ea9190616930565b60405180910390a3505050565b5f826040516020016161099190617fc4565b604051602081830303815290604052805190602001209050731820a4b7618bde71dce8cdc73aab6c95905fad2473ffffffffffffffffffffffffffffffffffffffff166329965a1d3083856040518463ffffffff1660e01b815260040161617293929190617fda565b5f604051808303815f87803b158015616189575f80fd5b505af115801561619b573d5f803e3d5ffd5b50505050505050565b6161ae8282614aa4565b156161ee576040517f08c379a00000000000000000000000000000000000000000000000000000000081526004016161e590618059565b60405180910390fd5b6001825f015f8373ffffffffffffffffffffffffffffffffffffffff1673ffffffffffffffffffffffffffffffffffffffff1681526020019081526020015f205f6101000a81548160ff0219169083151502179055505050565b5f808260405160200161625b9190617fc4565b604051602081830303815290604052805190602001209050731820a4b7618bde71dce8cdc73aab6c95905fad2473ffffffffffffffffffffffffffffffffffffffff1663aabbb8ca85836040518363ffffffff1660e01b81526004016162c2929190618077565b602060405180830381865afa1580156162dd573d5f803e3d5ffd5b505050506040513d601f19601f8201168201806040525081019061630191906180b2565b91505092915050565b5f80616314614a98565b90505f61631f612cc9565b90508060035f8481526020019081526020015f2081905550809250505090565b5f8161636a60065461635c6006548661638790919063ffffffff16565b61639c90919063ffffffff16565b149050919050565b5f818361637f91906180dd565b905092915050565b5f8183616394919061813d565b905092915050565b5f81836163a9919061816d565b905092915050565b5080546163bd9061726f565b5f825580601f106163ce57506163eb565b601f0160209004905f5260205f20908101906163ea91906164c0565b5b50565b828054828255905f5260205f20908101928215616428579160200282015b8281111561642757823582559160200191906001019061640c565b5b50905061643591906164db565b5090565b828054828255905f5260205f209081019282156164af579160200282015b828111156164ae578251825f6101000a81548173ffffffffffffffffffffffffffffffffffffffff021916908373ffffffffffffffffffffffffffffffffffffffff16021790555091602001919060010190616457565b5b5090506164bc91906164c0565b5090565b5b808211156164d7575f815f9055506001016164c1565b5090565b5b808211156164f2575f815f9055506001016164dc565b5090565b5f80fd5b5f80fd5b5f819050919050565b616510816164fe565b811461651a575f80fd5b50565b5f8135905061652b81616507565b92915050565b5f80fd5b5f80fd5b5f80fd5b5f8083601f84011261655257616551616531565b5b8235905067ffffffffffffffff81111561656f5761656e616535565b5b60208301915083600182028301111561658b5761658a616539565b5b9250929050565b5f805f80606085870312156165aa576165a96164f6565b5b5f6165b78782880161651d565b945050602085013567ffffffffffffffff8111156165d8576165d76164fa565b5b6165e48782880161653d565b935093505060406165f78782880161651d565b91505092959194509250565b5f81519050919050565b5f82825260208201905092915050565b8281835e5f83830152505050565b5f601f19601f8301169050919050565b5f61664582616603565b61664f818561660d565b935061665f81856020860161661d565b6166688161662b565b840191505092915050565b5f6020820190508181035f83015261668b818461663b565b905092915050565b5f73ffffffffffffffffffffffffffffffffffffffff82169050919050565b5f6166bc82616693565b9050919050565b6166cc816166b2565b81146166d6575f80fd5b50565b5f813590506166e7816166c3565b92915050565b5f819050919050565b6166ff816166ed565b8114616709575f80fd5b50565b5f8135905061671a816166f6565b92915050565b5f8060408385031215616736576167356164f6565b5b5f616743858286016166d9565b92505060206167548582860161670c565b9150509250929050565b5f8115159050919050565b6167728161675e565b82525050565b5f60208201905061678b5f830184616769565b92915050565b5f80604083850312156167a7576167a66164f6565b5b5f6167b48582860161651d565b92505060206167c5858286016166d9565b9150509250929050565b5f805f606084860312156167e6576167e56164f6565b5b5f6167f38682870161651d565b9350506020616804868287016166d9565b92505060406168158682870161670c565b9150509250925092565b5f8083601f84011261683457616833616531565b5b8235905067ffffffffffffffff81111561685157616850616535565b5b60208301915083602082028301111561686d5761686c616539565b5b9250929050565b5f805f6040848603121561688b5761688a6164f6565b5b5f6168988682870161651d565b935050602084013567ffffffffffffffff8111156168b9576168b86164fa565b5b6168c58682870161681f565b92509250509250925092565b5f805f606084860312156168e8576168e76164f6565b5b5f6168f58682870161651d565b9350506020616906868287016166d9565b9250506040616917868287016166d9565b9150509250925092565b61692a816166ed565b82525050565b5f6020820190506169435f830184616921565b92915050565b5f805f606084860312156169605761695f6164f6565b5b5f61696d868287016166d9565b935050602061697e868287016166d9565b925050604061698f8682870161670c565b9150509250925092565b6169a2816164fe565b82525050565b5f6020820190506169bb5f830184616999565b92915050565b5f8083601f8401126169d6576169d5616531565b5b8235905067ffffffffffffffff8111156169f3576169f2616535565b5b602083019150836001820283011115616a0f57616a0e616539565b5b9250929050565b5f805f8060608587031215616a2e57616a2d6164f6565b5b5f616a3b878288016166d9565b9450506020616a4c8782880161670c565b935050604085013567ffffffffffffffff811115616a6d57616a6c6164fa565b5b616a79878288016169c1565b925092505092959194509250565b5f60208284031215616a9c57616a9b6164f6565b5b5f616aa9848285016166d9565b91505092915050565b5f60ff82169050919050565b616ac781616ab2565b82525050565b5f602082019050616ae05f830184616abe565b92915050565b5f60208284031215616afb57616afa6164f6565b5b5f616b088482850161670c565b91505092915050565b5f805f8060608587031215616b2957616b286164f6565b5b5f616b368782880161651d565b9450506020616b478782880161670c565b935050604085013567ffffffffffffffff811115616b6857616b676164fa565b5b616b74878288016169c1565b925092505092959194509250565b5f805f805f60808688031215616b9b57616b9a6164f6565b5b5f616ba88882890161651d565b9550506020616bb9888289016166d9565b9450506040616bca8882890161670c565b935050606086013567ffffffffffffffff811115616beb57616bea6164fa565b5b616bf7888289016169c1565b92509250509295509295909350565b5f81519050919050565b5f82825260208201905092915050565b5f819050602082019050919050565b616c38816164fe565b82525050565b5f616c498383616c2f565b60208301905092915050565b5f602082019050919050565b5f616c6b82616c06565b616c758185616c10565b9350616c8083616c20565b805f5b83811015616cb0578151616c978882616c3e565b9750616ca283616c55565b925050600181019050616c83565b5085935050505092915050565b5f6020820190508181035f830152616cd58184616c61565b905092915050565b5f81519050919050565b5f82825260208201905092915050565b5f819050602082019050919050565b616d0f816166b2565b82525050565b5f616d208383616d06565b60208301905092915050565b5f602082019050919050565b5f616d4282616cdd565b616d4c8185616ce7565b9350616d5783616cf7565b805f5b83811015616d87578151616d6e8882616d15565b9750616d7983616d2c565b925050600181019050616d5a565b5085935050505092915050565b5f6020820190508181035f830152616dac8184616d38565b905092915050565b5f60208284031215616dc957616dc86164f6565b5b5f616dd68482850161651d565b91505092915050565b5f805f805f805f8060c0898b031215616dfb57616dfa6164f6565b5b5f616e088b828c0161651d565b9850506020616e198b828c016166d9565b9750506040616e2a8b828c016166d9565b9650506060616e3b8b828c0161670c565b955050608089013567ffffffffffffffff811115616e5c57616e5b6164fa565b5b616e688b828c016169c1565b945094505060a089013567ffffffffffffffff811115616e8b57616e8a6164fa565b5b616e978b828c016169c1565b92509250509295985092959890939650565b616eb2816166b2565b82525050565b5f602082019050616ecb5f830184616ea9565b92915050565b616eda8161675e565b8114616ee4575f80fd5b50565b5f81359050616ef581616ed1565b92915050565b5f8060408385031215616f1157616f106164f6565b5b5f616f1e858286016166d9565b9250506020616f2f85828601616ee7565b9150509250929050565b5f805f805f8060a08789031215616f5357616f526164f6565b5b5f616f6089828a016166d9565b965050602087013567ffffffffffffffff811115616f8157616f806164fa565b5b616f8d89828a0161653d565b95509550506040616fa089828a01616ee7565b9350506060616fb189828a01616ee7565b9250506080616fc289828a01616ee7565b9150509295509295509295565b5f6060820190508181035f830152616fe7818661663b565b9050616ff66020830185616999565b6170036040830184616921565b949350505050565b5f8060408385031215617021576170206164f6565b5b5f61702e858286016166d9565b925050602061703f858286016166d9565b9150509250929050565b5f805f604084860312156170605761705f6164f6565b5b5f61706d8682870161670c565b935050602084013567ffffffffffffffff81111561708e5761708d6164fa565b5b61709a868287016169c1565b92509250509250925092565b5f80602083850312156170bc576170bb6164f6565b5b5f83013567ffffffffffffffff8111156170d9576170d86164fa565b5b6170e58582860161681f565b92509250509250929050565b5f8083601f84011261710657617105616531565b5b8235905067ffffffffffffffff81111561712357617122616535565b5b60208301915083602082028301111561713f5761713e616539565b5b9250929050565b5f806020838503121561715c5761715b6164f6565b5b5f83013567ffffffffffffffff811115617179576171786164fa565b5b617185858286016170f1565b92509250509250929050565b5f805f805f608086880312156171aa576171a96164f6565b5b5f6171b7888289016166d9565b95505060206171c8888289016166d9565b94505060406171d98882890161670c565b935050606086013567ffffffffffffffff8111156171fa576171f96164fa565b5b617206888289016169c1565b92509250509295509295909350565b7f4e487b71000000000000000000000000000000000000000000000000000000005f52604160045260245ffd5b7f4e487b71000000000000000000000000000000000000000000000000000000005f52602260045260245ffd5b5f600282049050600182168061728657607f821691505b60208210810361729957617298617242565b5b50919050565b5f819050815f5260205f209050919050565b5f6020601f8301049050919050565b5f82821b905092915050565b5f600883026172fb7fffffffffffffffffffffffffffffffffffffffffffffffffffffffffffffffff826172c0565b61730586836172c0565b95508019841693508086168417925050509392505050565b5f819050919050565b5f61734061733b617336846166ed565b61731d565b6166ed565b9050919050565b5f819050919050565b61735983617326565b61736d61736582617347565b8484546172cc565b825550505050565b5f90565b617381617375565b61738c818484617350565b505050565b5b818110156173af576173a45f82617379565b600181019050617392565b5050565b601f8211156173f4576173c58161729f565b6173ce846172b1565b810160208510156173dd578190505b6173f16173e9856172b1565b830182617391565b50505b505050565b5f82821c905092915050565b5f6174145f19846008026173f9565b1980831691505092915050565b5f61742c8383617405565b9150826002028217905092915050565b61744582616603565b67ffffffffffffffff81111561745e5761745d617215565b5b617468825461726f565b6174738282856173b3565b5f60209050601f8311600181146174a4575f8415617492578287015190505b61749c8582617421565b865550617503565b601f1984166174b28661729f565b5f5b828110156174d9578489015182556001820191506020850194506020810190506174b4565b868310156174f657848901516174f2601f891682617405565b8355505b6001600288020188555050505b505050505050565b828183375f83830152505050565b5f617524838561660d565b935061753183858461750b565b61753a8361662b565b840190509392505050565b5f6040820190508181035f83015261755e818587617519565b905061756d6020830184616999565b949350505050565b7f35360000000000000000000000000000000000000000000000000000000000005f82015250565b5f6175a960028361660d565b91506175b482617575565b602082019050919050565b5f6020820190508181035f8301526175d68161759d565b9050919050565b7f4f776e61626c653a2063616c6c6572206973206e6f7420746865206f776e65725f82015250565b5f61761160208361660d565b915061761c826175dd565b602082019050919050565b5f6020820190508181035f83015261763e81617605565b9050919050565b7f35330000000000000000000000000000000000000000000000000000000000005f82015250565b5f61767960028361660d565b915061768482617645565b602082019050919050565b5f6020820190508181035f8301526176a68161766d565b9050919050565b5f81905092915050565b7f455243313832305f4143434550545f4d414749430000000000000000000000005f82015250565b5f6176eb6014836176ad565b91506176f6826176b7565b601482019050919050565b5f61770b826176df565b9150819050919050565b7f35350000000000000000000000000000000000000000000000000000000000005f82015250565b5f61774960028361660d565b915061775482617715565b602082019050919050565b5f6020820190508181035f8301526177768161773d565b9050919050565b7f35380000000000000000000000000000000000000000000000000000000000005f82015250565b5f6177b160028361660d565b91506177bc8261777d565b602082019050919050565b5f6020820190508181035f8301526177de816177a5565b9050919050565b5f60a0820190506177f85f830188616999565b6178056020830187616999565b6178126040830186616999565b61781f6060830185616921565b61782c6080830184616ea9565b9695505050505050565b7f4e487b71000000000000000000000000000000000000000000000000000000005f52603260045260245ffd5b7f556e617574686f72697a656400000000000000000000000000000000000000005f82015250565b5f617897600c8361660d565b91506178a282617863565b602082019050919050565b5f6020820190508181035f8301526178c48161788b565b9050919050565b7f446f63756d656e7420646f65736e7420657869737400000000000000000000005f82015250565b5f6178ff60158361660d565b915061790a826178cb565b602082019050919050565b5f6020820190508181035f83015261792c816178f3565b9050919050565b7f496e76616c696420696e646578000000000000000000000000000000000000005f82015250565b5f617967600d8361660d565b915061797282617933565b602082019050919050565b5f6020820190508181035f8301526179948161795b565b9050919050565b7f4e487b71000000000000000000000000000000000000000000000000000000005f52601160045260245ffd5b5f6179d2826166ed565b91506179dd836166ed565b92508282039050818111156179f5576179f461799b565b5b92915050565b7f4e487b71000000000000000000000000000000000000000000000000000000005f52603160045260245ffd5b5f6040820190508181035f830152617a40818561663b565b9050617a4f6020830184616999565b9392505050565b7f4f776e61626c653a206e6577206f776e657220697320746865207a65726f20615f8201527f6464726573730000000000000000000000000000000000000000000000000000602082015250565b5f617ab060268361660d565b9150617abb82617a56565b604082019050919050565b5f6020820190508181035f830152617add81617aa4565b9050919050565b7f35320000000000000000000000000000000000000000000000000000000000005f82015250565b5f617b1860028361660d565b9150617b2382617ae4565b602082019050919050565b5f6020820190508181035f830152617b4581617b0c565b9050919050565b5f81519050919050565b5f82825260208201905092915050565b5f617b7082617b4c565b617b7a8185617b56565b9350617b8a81856020860161661d565b617b938161662b565b840191505092915050565b5f604082019050617bb15f830185616921565b8181036020830152617bc38184617b66565b90509392505050565b50565b5f617bda5f83617b56565b9150617be582617bcc565b5f82019050919050565b5f606082019050617c025f830185616921565b8181036020830152617c148184617b66565b90508181036040830152617c2781617bcf565b90509392505050565b5f608082019050617c435f830187616ea9565b617c506020830186616921565b8181036040830152617c628185617b66565b90508181036060830152617c768184617b66565b905095945050505050565b7f526f6c65733a206163636f756e7420697320746865207a65726f2061646472655f8201527f7373000000000000000000000000000000000000000000000000000000000000602082015250565b5f617cdb60228361660d565b9150617ce682617c81565b604082019050919050565b5f6020820190508181035f830152617d0881617ccf565b9050919050565b7f526f6c65733a206163636f756e7420646f6573206e6f74206861766520726f6c5f8201527f6500000000000000000000000000000000000000000000000000000000000000602082015250565b5f617d6960218361660d565b9150617d7482617d0f565b604082019050919050565b5f6020820190508181035f830152617d9681617d5d565b9050919050565b5f617da88385617b56565b9350617db583858461750b565b617dbe8361662b565b840190509392505050565b5f610100820190508181035f830152617de3818b8d617d9d565b9050617df2602083018a616999565b617dff6040830189616ea9565b617e0c6060830188616ea9565b617e196080830187616ea9565b617e2660a0830186616921565b81810360c0830152617e388185617b66565b905081810360e0830152617e4c8184617b66565b90509a9950505050505050505050565b7f35300000000000000000000000000000000000000000000000000000000000005f82015250565b5f617e9060028361660d565b9150617e9b82617e5c565b602082019050919050565b5f6020820190508181035f830152617ebd81617e84565b9050919050565b7f35340000000000000000000000000000000000000000000000000000000000005f82015250565b5f617ef860028361660d565b9150617f0382617ec4565b602082019050919050565b5f6020820190508181035f830152617f2581617eec565b9050919050565b7f35370000000000000000000000000000000000000000000000000000000000005f82015250565b5f617f6060028361660d565b9150617f6b82617f2c565b602082019050919050565b5f6020820190508181035f830152617f8d81617f54565b9050919050565b5f617f9e82616603565b617fa881856176ad565b9350617fb881856020860161661d565b80840191505092915050565b5f617fcf8284617f94565b915081905092915050565b5f606082019050617fed5f830186616ea9565b617ffa6020830185616999565b6180076040830184616ea9565b949350505050565b7f526f6c65733a206163636f756e7420616c72656164792068617320726f6c65005f82015250565b5f618043601f8361660d565b915061804e8261800f565b602082019050919050565b5f6020820190508181035f83015261807081618037565b9050919050565b5f60408201905061808a5f830185616ea9565b6180976020830184616999565b9392505050565b5f815190506180ac816166c3565b92915050565b5f602082840312156180c7576180c66164f6565b5b5f6180d48482850161809e565b91505092915050565b5f6180e7826166ed565b91506180f2836166ed565b925082820190508082111561810a5761810961799b565b5b92915050565b7f4e487b71000000000000000000000000000000000000000000000000000000005f52601260045260245ffd5b5f618147826166ed565b9150618152836166ed565b92508261816257618161618110565b5b828204905092915050565b5f618177826166ed565b9150618182836166ed565b9250828202618190816166ed565b915082820484148315176181a7576181a661799b565b5b509291505056fea26469706673582212204d8833718265220fb88e35aaa10aa7bdeee8d287bc4e4504314ee168da1f692564736f6c63430008190033",
  "immutableReferences": {},
  "source": "// SimpleStorage.sol\npragma solidity ^0.8.0;\n\nimport \"./ERC1400/ERC1400.sol\";\n\ncontract SimpleStorage is ERC1400 {\n    \n    //uint256 public simpleData;\n\n  /**\n   * @dev Initialize ERC1400 + register the contract implementation in ERC1820Registry.\n   * @param tokenName Name of the token.\n   * @param tokenSymbol Symbol of the token.\n   * @param tokenGranularity Granularity of the token.\n   * @param initialControllers Array of initial controllers.\n   * @param defaultPartitions Partitions chosen by default, when partition is\n   * not specified, like the case ERC20 tranfers.\n   */\n    constructor(\n        string memory tokenName,\n        string memory tokenSymbol,\n        uint256 tokenGranularity,\n        address[] memory initialControllers,\n        bytes32[] memory defaultPartitions\n    ) ERC1400(\n        tokenName,\n        tokenSymbol,\n        tokenGranularity,\n        initialControllers,\n        defaultPartitions\n        )\n    {\n        // Resto de inicializaciones\n    }\n\n    function setData(uint256 _data) public {\n        uint256 simpleData = _data;\n    }\n\n    //function getData() public view returns (uint256) {\n      //  return simpleData;\n    //}\n}\n\n",
  "sourcePath": "/Users/sergio/Library/Mobile Documents/com~apple~CloudDocs/Master-ciberseguridad-y-privacidad/2-Quatrimestre/TFM/project/truffle/contracts/SimpleStorage.sol",
  "compiler": {
    "name": "solc",
    "version": "0.8.25+commit.b61c2a91.Emscripten.clang"
  },
  "schemaVersion": "3.4.16",
  "updatedAt": "2024-05-02T18:13:05.291Z",
  "devdoc": {
    "events": {
      "Approval(address,address,uint256)": {
        "details": "Emitted when the allowance of a `spender` for an `owner` is set by a call to {approve}. `value` is the new allowance."
      },
      "Transfer(address,address,uint256)": {
        "details": "Emitted when `value` tokens are moved from one account (`from`) to another (`to`). Note that `value` may be zero."
      }
    },
    "kind": "dev",
    "methods": {
      "allowance(address,address)": {
        "details": "Check the value of tokens that an owner allowed to a spender.",
        "params": {
          "owner": "address The address which owns the funds.",
          "spender": "address The address which will spend the funds."
        },
        "returns": {
          "_0": "A uint256 specifying the value of tokens still available for the spender."
        }
      },
      "allowanceByPartition(bytes32,address,address)": {
        "details": "Check the value of tokens that an owner allowed to a spender.",
        "params": {
          "owner": "address The address which owns the funds.",
          "partition": "Name of the partition.",
          "spender": "address The address which will spend the funds."
        },
        "returns": {
          "_0": "A uint256 specifying the value of tokens still available for the spender."
        }
      },
      "approve(address,uint256)": {
        "details": "Approve the passed address to spend the specified amount of tokens on behalf of 'msg.sender'.",
        "params": {
          "spender": "The address which will spend the funds.",
          "value": "The amount of tokens to be spent."
        },
        "returns": {
          "_0": "A boolean that indicates if the operation was successful."
        }
      },
      "approveByPartition(bytes32,address,uint256)": {
        "details": "Approve the passed address to spend the specified amount of tokens on behalf of 'msg.sender'.",
        "params": {
          "partition": "Name of the partition.",
          "spender": "The address which will spend the funds.",
          "value": "The amount of tokens to be spent."
        },
        "returns": {
          "_0": "A boolean that indicates if the operation was successful."
        }
      },
      "authorizeOperator(address)": {
        "details": "Set a third party operator address as an operator of 'msg.sender' to transfer and redeem tokens on its behalf.",
        "params": {
          "operator": "Address to set as an operator for 'msg.sender'."
        }
      },
      "authorizeOperatorByPartition(bytes32,address)": {
        "details": "Set 'operator' as an operator for 'msg.sender' for a given partition.",
        "params": {
          "operator": "Address to set as an operator for 'msg.sender'.",
          "partition": "Name of the partition."
        }
      },
      "balanceOf(address)": {
        "details": "Get the balance of the account with address 'tokenHolder'.",
        "params": {
          "tokenHolder": "Address for which the balance is returned."
        },
        "returns": {
          "_0": "Amount of token held by 'tokenHolder' in the token contract."
        }
      },
      "balanceOfByPartition(bytes32,address)": {
        "details": "Get balance of a tokenholder for a specific partition.",
        "params": {
          "partition": "Name of the partition.",
          "tokenHolder": "Address for which the balance is returned."
        },
        "returns": {
          "_0": "Amount of token of partition 'partition' held by 'tokenHolder' in the token contract."
        }
      },
      "constructor": {
        "details": "Initialize ERC1400 + register the contract implementation in ERC1820Registry.",
        "params": {
          "defaultPartitions": "Partitions chosen by default, when partition is not specified, like the case ERC20 tranfers.",
          "initialControllers": "Array of initial controllers.",
          "tokenGranularity": "Granularity of the token.",
          "tokenName": "Name of the token.",
          "tokenSymbol": "Symbol of the token."
        }
      },
      "controllers()": {
        "details": "Get the list of controllers as defined by the token contract.",
        "returns": {
          "_0": "List of addresses of all the controllers."
        }
      },
      "controllersByPartition(bytes32)": {
        "details": "Get controllers for a given partition.",
        "params": {
          "partition": "Name of the partition."
        },
        "returns": {
          "_0": "Array of controllers for partition."
        }
      },
      "decimals()": {
        "details": "Get the number of decimals of the token.",
        "returns": {
          "_0": "The number of decimals of the token. For retrocompatibility, decimals are forced to 18 in ERC1400."
        }
      },
      "getDefaultPartitions()": {
        "details": "Get default partitions to transfer from. Function used for ERC20 retrocompatibility. For example, a security token may return the bytes32(\"unrestricted\").",
        "returns": {
          "_0": "Array of default partitions."
        }
      },
      "getDocument(bytes32)": {
        "details": "Access a document associated with the token.",
        "params": {
          "documentName": "Short name (represented as a bytes32) associated to the document."
        },
        "returns": {
          "_0": "Requested document + document hash + document timestamp."
        }
      },
      "granularity()": {
        "details": "Get the smallest part of the token thats not divisible.",
        "returns": {
          "_0": "The smallest non-divisible part of the token."
        }
      },
      "isControllable()": {
        "details": "Know if the token can be controlled by operators. If a token returns 'false' for 'isControllable()'' then it MUST always return 'false' in the future.",
        "returns": {
          "_0": "bool 'true' if the token can still be controlled by operators, 'false' if it can't anymore."
        }
      },
      "isIssuable()": {
        "details": "Know if new tokens can be issued in the future.",
        "returns": {
          "_0": "bool 'true' if tokens can still be issued by the issuer, 'false' if they can't anymore."
        }
      },
      "isOperator(address,address)": {
        "details": "Indicate whether the operator address is an operator of the tokenHolder address.",
        "params": {
          "operator": "Address which may be an operator of tokenHolder.",
          "tokenHolder": "Address of a token holder which may have the operator address as an operator."
        },
        "returns": {
          "_0": "'true' if operator is an operator of 'tokenHolder' and 'false' otherwise."
        }
      },
      "isOperatorForPartition(bytes32,address,address)": {
        "details": "Indicate whether the operator address is an operator of the tokenHolder address for the given partition.",
        "params": {
          "operator": "Address which may be an operator of tokenHolder for the given partition.",
          "partition": "Name of the partition.",
          "tokenHolder": "Address of a token holder which may have the operator address as an operator for the given partition."
        },
        "returns": {
          "_0": "'true' if 'operator' is an operator of 'tokenHolder' for partition 'partition' and 'false' otherwise."
        }
      },
      "issue(address,uint256,bytes)": {
        "details": "Issue tokens from default partition.",
        "params": {
          "data": "Information attached to the issuance, by the issuer.",
          "tokenHolder": "Address for which we want to issue tokens.",
          "value": "Number of tokens issued."
        }
      },
      "issueByPartition(bytes32,address,uint256,bytes)": {
        "details": "Issue tokens from a specific partition.",
        "params": {
          "data": "Information attached to the issuance, by the issuer.",
          "partition": "Name of the partition.",
          "tokenHolder": "Address for which we want to issue tokens.",
          "value": "Number of tokens issued."
        }
      },
      "migrate(address,bool)": {
        "details": "Migrate contract. ===> CAUTION: DEFINITIVE ACTION  This function shall be called once a new version of the smart contract has been created. Once this function is called:  - The address of the new smart contract is set in ERC1820 registry  - If the choice is definitive, the current smart contract is turned off and can never be used again",
        "params": {
          "definitive": "If set to 'true' the contract is turned off definitely.",
          "newContractAddress": "Address of the new version of the smart contract."
        }
      },
      "name()": {
        "details": "Get the name of the token, e.g., \"MyToken\".",
        "returns": {
          "_0": "Name of the token."
        }
      },
      "operatorRedeemByPartition(bytes32,address,uint256,bytes)": {
        "details": "Redeem tokens of a specific partition.",
        "params": {
          "operatorData": "Information attached to the redemption, by the operator.",
          "partition": "Name of the partition.",
          "tokenHolder": "Address for which we want to redeem tokens.",
          "value": "Number of tokens redeemed"
        }
      },
      "operatorTransferByPartition(bytes32,address,address,uint256,bytes,bytes)": {
        "details": "Transfer tokens from a specific partition through an operator.",
        "params": {
          "data": "Information attached to the transfer. [CAN CONTAIN THE DESTINATION PARTITION]",
          "from": "Token holder.",
          "operatorData": "Information attached to the transfer, by the operator.",
          "partition": "Name of the partition.",
          "to": "Token recipient.",
          "value": "Number of tokens to transfer."
        },
        "returns": {
          "_0": "Destination partition."
        }
      },
      "owner()": {
        "details": "Returns the address of the current owner."
      },
      "partitionsOf(address)": {
        "details": "Get partitions index of a tokenholder.",
        "params": {
          "tokenHolder": "Address for which the partitions index are returned."
        },
        "returns": {
          "_0": "Array of partitions index of 'tokenHolder'."
        }
      },
      "redeem(uint256,bytes)": {
        "details": "Redeem the amount of tokens from the address 'msg.sender'.",
        "params": {
          "data": "Information attached to the redemption, by the token holder.",
          "value": "Number of tokens to redeem."
        }
      },
      "redeemByPartition(bytes32,uint256,bytes)": {
        "details": "Redeem tokens of a specific partition.",
        "params": {
          "data": "Information attached to the redemption, by the redeemer.",
          "partition": "Name of the partition.",
          "value": "Number of tokens redeemed."
        }
      },
      "redeemFrom(address,uint256,bytes)": {
        "details": "Redeem the amount of tokens on behalf of the address from.",
        "params": {
          "data": "Information attached to the redemption.",
          "from": "Token holder whose tokens will be redeemed (or address(0) to set from to msg.sender).",
          "value": "Number of tokens to redeem."
        }
      },
      "renounceControl()": {
        "details": "Definitely renounce the possibility to control tokens on behalf of tokenHolders. Once set to false, '_isControllable' can never be set to 'true' again."
      },
      "renounceIssuance()": {
        "details": "Definitely renounce the possibility to issue new tokens. Once set to false, '_isIssuable' can never be set to 'true' again."
      },
      "renounceOwnership()": {
        "details": "Leaves the contract without owner. It will not be possible to call `onlyOwner` functions anymore. Can only be called by the current owner. NOTE: Renouncing ownership will leave the contract without an owner, thereby removing any functionality that is only available to the owner."
      },
      "revokeOperator(address)": {
        "details": "Remove the right of the operator address to be an operator for 'msg.sender' and to transfer and redeem tokens on its behalf.",
        "params": {
          "operator": "Address to rescind as an operator for 'msg.sender'."
        }
      },
      "revokeOperatorByPartition(bytes32,address)": {
        "details": "Remove the right of the operator address to be an operator on a given partition for 'msg.sender' and to transfer and redeem tokens on its behalf.",
        "params": {
          "operator": "Address to rescind as an operator on given partition for 'msg.sender'.",
          "partition": "Name of the partition."
        }
      },
      "setControllers(address[])": {
        "details": "Set list of token controllers.",
        "params": {
          "operators": "Controller addresses."
        }
      },
      "setDefaultPartitions(bytes32[])": {
        "details": "Set default partitions to transfer from. Function used for ERC20 retrocompatibility.",
        "params": {
          "partitions": "partitions to use by default when not specified."
        }
      },
      "setDocument(bytes32,string,bytes32)": {
        "details": "Associate a document with the token.",
        "params": {
          "documentHash": "Hash of the document [optional parameter].",
          "documentName": "Short name (represented as a bytes32) associated to the document.",
          "uri": "Document content."
        }
      },
      "setPartitionControllers(bytes32,address[])": {
        "details": "Set list of token partition controllers.",
        "params": {
          "operators": "Controller addresses.",
          "partition": "Name of the partition."
        }
      },
      "setTokenExtension(address,string,bool,bool,bool)": {
        "details": "Set token extension contract address. The extension contract can for example verify \"ERC1400TokensValidator\" or \"ERC1400TokensChecker\" interfaces. If the extension is an \"ERC1400TokensValidator\", it will be called everytime a transfer is executed.",
        "params": {
          "addControllerRoleForExtension": "If set to 'true', the extension contract will be added as controller.",
          "addMinterRoleForExtension": "If set to 'true', the extension contract will be added as minter.",
          "extension": "Address of the extension contract.",
          "interfaceLabel": "Interface label of extension contract.",
          "removeOldExtensionRoles": "If set to 'true', the roles of the old extension(minter, controller) will be removed extension."
        }
      },
      "symbol()": {
        "details": "Get the symbol of the token, e.g., \"MYT\".",
        "returns": {
          "_0": "Symbol of the token."
        }
      },
      "totalPartitions()": {
        "details": "Get list of existing partitions.",
        "returns": {
          "_0": "Array of all exisiting partitions."
        }
      },
      "totalSupply()": {
        "details": "Get the total number of issued tokens.",
        "returns": {
          "_0": "Total supply of tokens currently in circulation."
        }
      },
      "totalSupplyByPartition(bytes32)": {
        "details": "Get the total number of issued tokens for a given partition.",
        "params": {
          "partition": "Name of the partition."
        },
        "returns": {
          "_0": "Total supply of tokens currently in circulation, for a given partition."
        }
      },
      "transfer(address,uint256)": {
        "details": "Transfer token for a specified address.",
        "params": {
          "to": "The address to transfer to.",
          "value": "The value to be transferred."
        },
        "returns": {
          "_0": "A boolean that indicates if the operation was successful."
        }
      },
      "transferByPartition(bytes32,address,uint256,bytes)": {
        "details": "Transfer tokens from a specific partition.",
        "params": {
          "data": "Information attached to the transfer, by the token holder.",
          "partition": "Name of the partition.",
          "to": "Token recipient.",
          "value": "Number of tokens to transfer."
        },
        "returns": {
          "_0": "Destination partition."
        }
      },
      "transferFrom(address,address,uint256)": {
        "details": "Transfer tokens from one address to another.",
        "params": {
          "from": "The address which you want to transfer tokens from.",
          "to": "The address which you want to transfer to.",
          "value": "The amount of tokens to be transferred."
        },
        "returns": {
          "_0": "A boolean that indicates if the operation was successful."
        }
      },
      "transferFromWithData(address,address,uint256,bytes)": {
        "details": "Transfer the amount of tokens on behalf of the address 'from' to the address 'to'.",
        "params": {
          "data": "Information attached to the transfer, and intended for the token holder ('from').",
          "from": "Token holder (or 'address(0)' to set from to 'msg.sender').",
          "to": "Token recipient.",
          "value": "Number of tokens to transfer."
        }
      },
      "transferOwnership(address)": {
        "details": "Transfers ownership of the contract to a new account (`newOwner`). Can only be called by the current owner."
      },
      "transferWithData(address,uint256,bytes)": {
        "details": "Transfer the amount of tokens from the address 'msg.sender' to the address 'to'.",
        "params": {
          "data": "Information attached to the transfer, by the token holder.",
          "to": "Token recipient.",
          "value": "Number of tokens to transfer."
        }
      }
    },
    "version": 1
  },
  "userdoc": {
    "kind": "user",
    "methods": {},
    "version": 1
  }
}