{
  "contractName": "SimpleStorage",
  "abi": [
    {
      "inputs": [
        {
          "internalType": "string",
          "name": "tokenName",
          "type": "string"
        },
        {
          "internalType": "string",
          "name": "tokenSymbol",
          "type": "string"
        },
        {
          "internalType": "uint256",
          "name": "tokenGranularity",
          "type": "uint256"
        },
        {
          "internalType": "address[]",
          "name": "initialControllers",
          "type": "address[]"
        },
        {
          "internalType": "bytes32[]",
          "name": "defaultPartitions",
          "type": "bytes32[]"
        }
      ],
      "stateMutability": "nonpayable",
      "type": "constructor"
    },
    {
      "anonymous": false,
      "inputs": [
        {
          "indexed": true,
          "internalType": "address",
          "name": "owner",
          "type": "address"
        },
        {
          "indexed": true,
          "internalType": "address",
          "name": "spender",
          "type": "address"
        },
        {
          "indexed": false,
          "internalType": "uint256",
          "name": "value",
          "type": "uint256"
        }
      ],
      "name": "Approval",
      "type": "event"
    },
    {
      "anonymous": false,
      "inputs": [
        {
          "indexed": true,
          "internalType": "bytes32",
          "name": "partition",
          "type": "bytes32"
        },
        {
          "indexed": true,
          "internalType": "address",
          "name": "owner",
          "type": "address"
        },
        {
          "indexed": true,
          "internalType": "address",
          "name": "spender",
          "type": "address"
        },
        {
          "indexed": false,
          "internalType": "uint256",
          "name": "value",
          "type": "uint256"
        }
      ],
      "name": "ApprovalByPartition",
      "type": "event"
    },
    {
      "anonymous": false,
      "inputs": [
        {
          "indexed": true,
          "internalType": "address",
          "name": "operator",
          "type": "address"
        },
        {
          "indexed": true,
          "internalType": "address",
          "name": "tokenHolder",
          "type": "address"
        }
      ],
      "name": "AuthorizedOperator",
      "type": "event"
    },
    {
      "anonymous": false,
      "inputs": [
        {
          "indexed": true,
          "internalType": "bytes32",
          "name": "partition",
          "type": "bytes32"
        },
        {
          "indexed": true,
          "internalType": "address",
          "name": "operator",
          "type": "address"
        },
        {
          "indexed": true,
          "internalType": "address",
          "name": "tokenHolder",
          "type": "address"
        }
      ],
      "name": "AuthorizedOperatorByPartition",
      "type": "event"
    },
    {
      "anonymous": false,
      "inputs": [
        {
          "indexed": true,
          "internalType": "bytes32",
          "name": "fromPartition",
          "type": "bytes32"
        },
        {
          "indexed": true,
          "internalType": "bytes32",
          "name": "toPartition",
          "type": "bytes32"
        },
        {
          "indexed": false,
          "internalType": "uint256",
          "name": "value",
          "type": "uint256"
        }
      ],
      "name": "ChangedPartition",
      "type": "event"
    },
    {
      "anonymous": false,
      "inputs": [
        {
          "indexed": true,
          "internalType": "bytes32",
          "name": "name",
          "type": "bytes32"
        },
        {
          "indexed": false,
          "internalType": "string",
          "name": "uri",
          "type": "string"
        },
        {
          "indexed": false,
          "internalType": "bytes32",
          "name": "documentHash",
          "type": "bytes32"
        }
      ],
      "name": "DocumentRemoved",
      "type": "event"
    },
    {
      "anonymous": false,
      "inputs": [
        {
          "indexed": true,
          "internalType": "bytes32",
          "name": "name",
          "type": "bytes32"
        },
        {
          "indexed": false,
          "internalType": "string",
          "name": "uri",
          "type": "string"
        },
        {
          "indexed": false,
          "internalType": "bytes32",
          "name": "documentHash",
          "type": "bytes32"
        }
      ],
      "name": "DocumentUpdated",
      "type": "event"
    },
    {
      "anonymous": false,
      "inputs": [
        {
          "indexed": true,
          "internalType": "address",
          "name": "operator",
          "type": "address"
        },
        {
          "indexed": true,
          "internalType": "address",
          "name": "to",
          "type": "address"
        },
        {
          "indexed": false,
          "internalType": "uint256",
          "name": "value",
          "type": "uint256"
        },
        {
          "indexed": false,
          "internalType": "bytes",
          "name": "data",
          "type": "bytes"
        }
      ],
      "name": "Issued",
      "type": "event"
    },
    {
      "anonymous": false,
      "inputs": [
        {
          "indexed": true,
          "internalType": "bytes32",
          "name": "partition",
          "type": "bytes32"
        },
        {
          "indexed": true,
          "internalType": "address",
          "name": "operator",
          "type": "address"
        },
        {
          "indexed": true,
          "internalType": "address",
          "name": "to",
          "type": "address"
        },
        {
          "indexed": false,
          "internalType": "uint256",
          "name": "value",
          "type": "uint256"
        },
        {
          "indexed": false,
          "internalType": "bytes",
          "name": "data",
          "type": "bytes"
        },
        {
          "indexed": false,
          "internalType": "bytes",
          "name": "operatorData",
          "type": "bytes"
        }
      ],
      "name": "IssuedByPartition",
      "type": "event"
    },
    {
      "anonymous": false,
      "inputs": [
        {
          "indexed": true,
          "internalType": "address",
          "name": "account",
          "type": "address"
        }
      ],
      "name": "MinterAdded",
      "type": "event"
    },
    {
      "anonymous": false,
      "inputs": [
        {
          "indexed": true,
          "internalType": "address",
          "name": "account",
          "type": "address"
        }
      ],
      "name": "MinterRemoved",
      "type": "event"
    },
    {
      "anonymous": false,
      "inputs": [
        {
          "indexed": true,
          "internalType": "address",
          "name": "previousOwner",
          "type": "address"
        },
        {
          "indexed": true,
          "internalType": "address",
          "name": "newOwner",
          "type": "address"
        }
      ],
      "name": "OwnershipTransferred",
      "type": "event"
    },
    {
      "anonymous": false,
      "inputs": [
        {
          "indexed": true,
          "internalType": "address",
          "name": "operator",
          "type": "address"
        },
        {
          "indexed": true,
          "internalType": "address",
          "name": "from",
          "type": "address"
        },
        {
          "indexed": false,
          "internalType": "uint256",
          "name": "value",
          "type": "uint256"
        },
        {
          "indexed": false,
          "internalType": "bytes",
          "name": "data",
          "type": "bytes"
        }
      ],
      "name": "Redeemed",
      "type": "event"
    },
    {
      "anonymous": false,
      "inputs": [
        {
          "indexed": true,
          "internalType": "bytes32",
          "name": "partition",
          "type": "bytes32"
        },
        {
          "indexed": true,
          "internalType": "address",
          "name": "operator",
          "type": "address"
        },
        {
          "indexed": true,
          "internalType": "address",
          "name": "from",
          "type": "address"
        },
        {
          "indexed": false,
          "internalType": "uint256",
          "name": "value",
          "type": "uint256"
        },
        {
          "indexed": false,
          "internalType": "bytes",
          "name": "operatorData",
          "type": "bytes"
        }
      ],
      "name": "RedeemedByPartition",
      "type": "event"
    },
    {
      "anonymous": false,
      "inputs": [
        {
          "indexed": true,
          "internalType": "address",
          "name": "operator",
          "type": "address"
        },
        {
          "indexed": true,
          "internalType": "address",
          "name": "tokenHolder",
          "type": "address"
        }
      ],
      "name": "RevokedOperator",
      "type": "event"
    },
    {
      "anonymous": false,
      "inputs": [
        {
          "indexed": true,
          "internalType": "bytes32",
          "name": "partition",
          "type": "bytes32"
        },
        {
          "indexed": true,
          "internalType": "address",
          "name": "operator",
          "type": "address"
        },
        {
          "indexed": true,
          "internalType": "address",
          "name": "tokenHolder",
          "type": "address"
        }
      ],
      "name": "RevokedOperatorByPartition",
      "type": "event"
    },
    {
      "anonymous": false,
      "inputs": [
        {
          "indexed": true,
          "internalType": "address",
          "name": "from",
          "type": "address"
        },
        {
          "indexed": true,
          "internalType": "address",
          "name": "to",
          "type": "address"
        },
        {
          "indexed": false,
          "internalType": "uint256",
          "name": "value",
          "type": "uint256"
        }
      ],
      "name": "Transfer",
      "type": "event"
    },
    {
      "anonymous": false,
      "inputs": [
        {
          "indexed": true,
          "internalType": "bytes32",
          "name": "fromPartition",
          "type": "bytes32"
        },
        {
          "indexed": false,
          "internalType": "address",
          "name": "operator",
          "type": "address"
        },
        {
          "indexed": true,
          "internalType": "address",
          "name": "from",
          "type": "address"
        },
        {
          "indexed": true,
          "internalType": "address",
          "name": "to",
          "type": "address"
        },
        {
          "indexed": false,
          "internalType": "uint256",
          "name": "value",
          "type": "uint256"
        },
        {
          "indexed": false,
          "internalType": "bytes",
          "name": "data",
          "type": "bytes"
        },
        {
          "indexed": false,
          "internalType": "bytes",
          "name": "operatorData",
          "type": "bytes"
        }
      ],
      "name": "TransferByPartition",
      "type": "event"
    },
    {
      "inputs": [
        {
          "internalType": "address",
          "name": "account",
          "type": "address"
        }
      ],
      "name": "addMinter",
      "outputs": [],
      "stateMutability": "nonpayable",
      "type": "function"
    },
    {
      "inputs": [
        {
          "internalType": "address",
          "name": "owner",
          "type": "address"
        },
        {
          "internalType": "address",
          "name": "spender",
          "type": "address"
        }
      ],
      "name": "allowance",
      "outputs": [
        {
          "internalType": "uint256",
          "name": "",
          "type": "uint256"
        }
      ],
      "stateMutability": "view",
      "type": "function",
      "constant": true
    },
    {
      "inputs": [
        {
          "internalType": "bytes32",
          "name": "partition",
          "type": "bytes32"
        },
        {
          "internalType": "address",
          "name": "owner",
          "type": "address"
        },
        {
          "internalType": "address",
          "name": "spender",
          "type": "address"
        }
      ],
      "name": "allowanceByPartition",
      "outputs": [
        {
          "internalType": "uint256",
          "name": "",
          "type": "uint256"
        }
      ],
      "stateMutability": "view",
      "type": "function",
      "constant": true
    },
    {
      "inputs": [
        {
          "internalType": "address",
          "name": "spender",
          "type": "address"
        },
        {
          "internalType": "uint256",
          "name": "value",
          "type": "uint256"
        }
      ],
      "name": "approve",
      "outputs": [
        {
          "internalType": "bool",
          "name": "",
          "type": "bool"
        }
      ],
      "stateMutability": "nonpayable",
      "type": "function"
    },
    {
      "inputs": [
        {
          "internalType": "bytes32",
          "name": "partition",
          "type": "bytes32"
        },
        {
          "internalType": "address",
          "name": "spender",
          "type": "address"
        },
        {
          "internalType": "uint256",
          "name": "value",
          "type": "uint256"
        }
      ],
      "name": "approveByPartition",
      "outputs": [
        {
          "internalType": "bool",
          "name": "",
          "type": "bool"
        }
      ],
      "stateMutability": "nonpayable",
      "type": "function"
    },
    {
      "inputs": [
        {
          "internalType": "address",
          "name": "operator",
          "type": "address"
        }
      ],
      "name": "authorizeOperator",
      "outputs": [],
      "stateMutability": "nonpayable",
      "type": "function"
    },
    {
      "inputs": [
        {
          "internalType": "bytes32",
          "name": "partition",
          "type": "bytes32"
        },
        {
          "internalType": "address",
          "name": "operator",
          "type": "address"
        }
      ],
      "name": "authorizeOperatorByPartition",
      "outputs": [],
      "stateMutability": "nonpayable",
      "type": "function"
    },
    {
      "inputs": [
        {
          "internalType": "address",
          "name": "tokenHolder",
          "type": "address"
        }
      ],
      "name": "balanceOf",
      "outputs": [
        {
          "internalType": "uint256",
          "name": "",
          "type": "uint256"
        }
      ],
      "stateMutability": "view",
      "type": "function",
      "constant": true
    },
    {
      "inputs": [
        {
          "internalType": "bytes32",
          "name": "partition",
          "type": "bytes32"
        },
        {
          "internalType": "address",
          "name": "tokenHolder",
          "type": "address"
        }
      ],
      "name": "balanceOfByPartition",
      "outputs": [
        {
          "internalType": "uint256",
          "name": "",
          "type": "uint256"
        }
      ],
      "stateMutability": "view",
      "type": "function",
      "constant": true
    },
    {
      "inputs": [
        {
          "internalType": "bytes32",
          "name": "interfaceHash",
          "type": "bytes32"
        },
        {
          "internalType": "address",
          "name": "",
          "type": "address"
        }
      ],
      "name": "canImplementInterfaceForAddress",
      "outputs": [
        {
          "internalType": "bytes32",
          "name": "",
          "type": "bytes32"
        }
      ],
      "stateMutability": "view",
      "type": "function",
      "constant": true
    },
    {
      "inputs": [],
      "name": "controllers",
      "outputs": [
        {
          "internalType": "address[]",
          "name": "",
          "type": "address[]"
        }
      ],
      "stateMutability": "view",
      "type": "function",
      "constant": true
    },
    {
      "inputs": [
        {
          "internalType": "bytes32",
          "name": "partition",
          "type": "bytes32"
        }
      ],
      "name": "controllersByPartition",
      "outputs": [
        {
          "internalType": "address[]",
          "name": "",
          "type": "address[]"
        }
      ],
      "stateMutability": "view",
      "type": "function",
      "constant": true
    },
    {
      "inputs": [],
      "name": "decimals",
      "outputs": [
        {
          "internalType": "uint8",
          "name": "",
          "type": "uint8"
        }
      ],
      "stateMutability": "pure",
      "type": "function",
      "constant": true
    },
    {
      "inputs": [],
      "name": "domainName",
      "outputs": [
        {
          "internalType": "string",
          "name": "",
          "type": "string"
        }
      ],
      "stateMutability": "view",
      "type": "function",
      "constant": true
    },
    {
      "inputs": [],
      "name": "domainSeparator",
      "outputs": [
        {
          "internalType": "bytes32",
          "name": "",
          "type": "bytes32"
        }
      ],
      "stateMutability": "nonpayable",
      "type": "function"
    },
    {
      "inputs": [],
      "name": "domainVersion",
      "outputs": [
        {
          "internalType": "string",
          "name": "",
          "type": "string"
        }
      ],
      "stateMutability": "pure",
      "type": "function",
      "constant": true
    },
    {
      "inputs": [],
      "name": "generateDomainSeparator",
      "outputs": [
        {
          "internalType": "bytes32",
          "name": "",
          "type": "bytes32"
        }
      ],
      "stateMutability": "view",
      "type": "function",
      "constant": true
    },
    {
      "inputs": [],
      "name": "getAllDocuments",
      "outputs": [
        {
          "internalType": "bytes32[]",
          "name": "",
          "type": "bytes32[]"
        }
      ],
      "stateMutability": "view",
      "type": "function",
      "constant": true
    },
    {
      "inputs": [],
      "name": "getDefaultPartitions",
      "outputs": [
        {
          "internalType": "bytes32[]",
          "name": "",
          "type": "bytes32[]"
        }
      ],
      "stateMutability": "view",
      "type": "function",
      "constant": true
    },
    {
      "inputs": [
        {
          "internalType": "bytes32",
          "name": "documentName",
          "type": "bytes32"
        }
      ],
      "name": "getDocument",
      "outputs": [
        {
          "internalType": "string",
          "name": "",
          "type": "string"
        },
        {
          "internalType": "bytes32",
          "name": "",
          "type": "bytes32"
        },
        {
          "internalType": "uint256",
          "name": "",
          "type": "uint256"
        }
      ],
      "stateMutability": "view",
      "type": "function",
      "constant": true
    },
    {
      "inputs": [],
      "name": "granularity",
      "outputs": [
        {
          "internalType": "uint256",
          "name": "",
          "type": "uint256"
        }
      ],
      "stateMutability": "view",
      "type": "function",
      "constant": true
    },
    {
      "inputs": [],
      "name": "isControllable",
      "outputs": [
        {
          "internalType": "bool",
          "name": "",
          "type": "bool"
        }
      ],
      "stateMutability": "view",
      "type": "function",
      "constant": true
    },
    {
      "inputs": [],
      "name": "isIssuable",
      "outputs": [
        {
          "internalType": "bool",
          "name": "",
          "type": "bool"
        }
      ],
      "stateMutability": "view",
      "type": "function",
      "constant": true
    },
    {
      "inputs": [
        {
          "internalType": "address",
          "name": "account",
          "type": "address"
        }
      ],
      "name": "isMinter",
      "outputs": [
        {
          "internalType": "bool",
          "name": "",
          "type": "bool"
        }
      ],
      "stateMutability": "view",
      "type": "function",
      "constant": true
    },
    {
      "inputs": [
        {
          "internalType": "address",
          "name": "operator",
          "type": "address"
        },
        {
          "internalType": "address",
          "name": "tokenHolder",
          "type": "address"
        }
      ],
      "name": "isOperator",
      "outputs": [
        {
          "internalType": "bool",
          "name": "",
          "type": "bool"
        }
      ],
      "stateMutability": "view",
      "type": "function",
      "constant": true
    },
    {
      "inputs": [
        {
          "internalType": "bytes32",
          "name": "partition",
          "type": "bytes32"
        },
        {
          "internalType": "address",
          "name": "operator",
          "type": "address"
        },
        {
          "internalType": "address",
          "name": "tokenHolder",
          "type": "address"
        }
      ],
      "name": "isOperatorForPartition",
      "outputs": [
        {
          "internalType": "bool",
          "name": "",
          "type": "bool"
        }
      ],
      "stateMutability": "view",
      "type": "function",
      "constant": true
    },
    {
      "inputs": [
        {
          "internalType": "address",
          "name": "tokenHolder",
          "type": "address"
        },
        {
          "internalType": "uint256",
          "name": "value",
          "type": "uint256"
        },
        {
          "internalType": "bytes",
          "name": "data",
          "type": "bytes"
        }
      ],
      "name": "issue",
      "outputs": [],
      "stateMutability": "nonpayable",
      "type": "function"
    },
    {
      "inputs": [
        {
          "internalType": "bytes32",
          "name": "partition",
          "type": "bytes32"
        },
        {
          "internalType": "address",
          "name": "tokenHolder",
          "type": "address"
        },
        {
          "internalType": "uint256",
          "name": "value",
          "type": "uint256"
        },
        {
          "internalType": "bytes",
          "name": "data",
          "type": "bytes"
        }
      ],
      "name": "issueByPartition",
      "outputs": [],
      "stateMutability": "nonpayable",
      "type": "function"
    },
    {
      "inputs": [
        {
          "internalType": "address",
          "name": "newContractAddress",
          "type": "address"
        },
        {
          "internalType": "bool",
          "name": "definitive",
          "type": "bool"
        }
      ],
      "name": "migrate",
      "outputs": [],
      "stateMutability": "nonpayable",
      "type": "function"
    },
    {
      "inputs": [],
      "name": "name",
      "outputs": [
        {
          "internalType": "string",
          "name": "",
          "type": "string"
        }
      ],
      "stateMutability": "view",
      "type": "function",
      "constant": true
    },
    {
      "inputs": [
        {
          "internalType": "bytes32",
          "name": "partition",
          "type": "bytes32"
        },
        {
          "internalType": "address",
          "name": "tokenHolder",
          "type": "address"
        },
        {
          "internalType": "uint256",
          "name": "value",
          "type": "uint256"
        },
        {
          "internalType": "bytes",
          "name": "operatorData",
          "type": "bytes"
        }
      ],
      "name": "operatorRedeemByPartition",
      "outputs": [],
      "stateMutability": "nonpayable",
      "type": "function"
    },
    {
      "inputs": [
        {
          "internalType": "bytes32",
          "name": "partition",
          "type": "bytes32"
        },
        {
          "internalType": "address",
          "name": "from",
          "type": "address"
        },
        {
          "internalType": "address",
          "name": "to",
          "type": "address"
        },
        {
          "internalType": "uint256",
          "name": "value",
          "type": "uint256"
        },
        {
          "internalType": "bytes",
          "name": "data",
          "type": "bytes"
        },
        {
          "internalType": "bytes",
          "name": "operatorData",
          "type": "bytes"
        }
      ],
      "name": "operatorTransferByPartition",
      "outputs": [
        {
          "internalType": "bytes32",
          "name": "",
          "type": "bytes32"
        }
      ],
      "stateMutability": "nonpayable",
      "type": "function"
    },
    {
      "inputs": [],
      "name": "owner",
      "outputs": [
        {
          "internalType": "address",
          "name": "",
          "type": "address"
        }
      ],
      "stateMutability": "view",
      "type": "function",
      "constant": true
    },
    {
      "inputs": [
        {
          "internalType": "address",
          "name": "tokenHolder",
          "type": "address"
        }
      ],
      "name": "partitionsOf",
      "outputs": [
        {
          "internalType": "bytes32[]",
          "name": "",
          "type": "bytes32[]"
        }
      ],
      "stateMutability": "view",
      "type": "function",
      "constant": true
    },
    {
      "inputs": [
        {
          "internalType": "uint256",
          "name": "value",
          "type": "uint256"
        },
        {
          "internalType": "bytes",
          "name": "data",
          "type": "bytes"
        }
      ],
      "name": "redeem",
      "outputs": [],
      "stateMutability": "nonpayable",
      "type": "function"
    },
    {
      "inputs": [
        {
          "internalType": "bytes32",
          "name": "partition",
          "type": "bytes32"
        },
        {
          "internalType": "uint256",
          "name": "value",
          "type": "uint256"
        },
        {
          "internalType": "bytes",
          "name": "data",
          "type": "bytes"
        }
      ],
      "name": "redeemByPartition",
      "outputs": [],
      "stateMutability": "nonpayable",
      "type": "function"
    },
    {
      "inputs": [
        {
          "internalType": "address",
          "name": "from",
          "type": "address"
        },
        {
          "internalType": "uint256",
          "name": "value",
          "type": "uint256"
        },
        {
          "internalType": "bytes",
          "name": "data",
          "type": "bytes"
        }
      ],
      "name": "redeemFrom",
      "outputs": [],
      "stateMutability": "nonpayable",
      "type": "function"
    },
    {
      "inputs": [
        {
          "internalType": "bytes32",
          "name": "documentName",
          "type": "bytes32"
        }
      ],
      "name": "removeDocument",
      "outputs": [],
      "stateMutability": "nonpayable",
      "type": "function"
    },
    {
      "inputs": [
        {
          "internalType": "address",
          "name": "account",
          "type": "address"
        }
      ],
      "name": "removeMinter",
      "outputs": [],
      "stateMutability": "nonpayable",
      "type": "function"
    },
    {
      "inputs": [],
      "name": "renounceControl",
      "outputs": [],
      "stateMutability": "nonpayable",
      "type": "function"
    },
    {
      "inputs": [],
      "name": "renounceIssuance",
      "outputs": [],
      "stateMutability": "nonpayable",
      "type": "function"
    },
    {
      "inputs": [],
      "name": "renounceMinter",
      "outputs": [],
      "stateMutability": "nonpayable",
      "type": "function"
    },
    {
      "inputs": [],
      "name": "renounceOwnership",
      "outputs": [],
      "stateMutability": "nonpayable",
      "type": "function"
    },
    {
      "inputs": [
        {
          "internalType": "address",
          "name": "operator",
          "type": "address"
        }
      ],
      "name": "revokeOperator",
      "outputs": [],
      "stateMutability": "nonpayable",
      "type": "function"
    },
    {
      "inputs": [
        {
          "internalType": "bytes32",
          "name": "partition",
          "type": "bytes32"
        },
        {
          "internalType": "address",
          "name": "operator",
          "type": "address"
        }
      ],
      "name": "revokeOperatorByPartition",
      "outputs": [],
      "stateMutability": "nonpayable",
      "type": "function"
    },
    {
      "inputs": [
        {
          "internalType": "address[]",
          "name": "operators",
          "type": "address[]"
        }
      ],
      "name": "setControllers",
      "outputs": [],
      "stateMutability": "nonpayable",
      "type": "function"
    },
    {
      "inputs": [
        {
          "internalType": "bytes32[]",
          "name": "partitions",
          "type": "bytes32[]"
        }
      ],
      "name": "setDefaultPartitions",
      "outputs": [],
      "stateMutability": "nonpayable",
      "type": "function"
    },
    {
      "inputs": [
        {
          "internalType": "bytes32",
          "name": "documentName",
          "type": "bytes32"
        },
        {
          "internalType": "string",
          "name": "uri",
          "type": "string"
        },
        {
          "internalType": "bytes32",
          "name": "documentHash",
          "type": "bytes32"
        }
      ],
      "name": "setDocument",
      "outputs": [],
      "stateMutability": "nonpayable",
      "type": "function"
    },
    {
      "inputs": [
        {
          "internalType": "bytes32",
          "name": "partition",
          "type": "bytes32"
        },
        {
          "internalType": "address[]",
          "name": "operators",
          "type": "address[]"
        }
      ],
      "name": "setPartitionControllers",
      "outputs": [],
      "stateMutability": "nonpayable",
      "type": "function"
    },
    {
      "inputs": [
        {
          "internalType": "address",
          "name": "extension",
          "type": "address"
        },
        {
          "internalType": "string",
          "name": "interfaceLabel",
          "type": "string"
        },
        {
          "internalType": "bool",
          "name": "removeOldExtensionRoles",
          "type": "bool"
        },
        {
          "internalType": "bool",
          "name": "addMinterRoleForExtension",
          "type": "bool"
        },
        {
          "internalType": "bool",
          "name": "addControllerRoleForExtension",
          "type": "bool"
        }
      ],
      "name": "setTokenExtension",
      "outputs": [],
      "stateMutability": "nonpayable",
      "type": "function"
    },
    {
      "inputs": [],
      "name": "simpleData",
      "outputs": [
        {
          "internalType": "uint256",
          "name": "",
          "type": "uint256"
        }
      ],
      "stateMutability": "view",
      "type": "function",
      "constant": true
    },
    {
      "inputs": [],
      "name": "symbol",
      "outputs": [
        {
          "internalType": "string",
          "name": "",
          "type": "string"
        }
      ],
      "stateMutability": "view",
      "type": "function",
      "constant": true
    },
    {
      "inputs": [],
      "name": "totalPartitions",
      "outputs": [
        {
          "internalType": "bytes32[]",
          "name": "",
          "type": "bytes32[]"
        }
      ],
      "stateMutability": "view",
      "type": "function",
      "constant": true
    },
    {
      "inputs": [],
      "name": "totalSupply",
      "outputs": [
        {
          "internalType": "uint256",
          "name": "",
          "type": "uint256"
        }
      ],
      "stateMutability": "view",
      "type": "function",
      "constant": true
    },
    {
      "inputs": [
        {
          "internalType": "bytes32",
          "name": "partition",
          "type": "bytes32"
        }
      ],
      "name": "totalSupplyByPartition",
      "outputs": [
        {
          "internalType": "uint256",
          "name": "",
          "type": "uint256"
        }
      ],
      "stateMutability": "view",
      "type": "function",
      "constant": true
    },
    {
      "inputs": [
        {
          "internalType": "address",
          "name": "to",
          "type": "address"
        },
        {
          "internalType": "uint256",
          "name": "value",
          "type": "uint256"
        }
      ],
      "name": "transfer",
      "outputs": [
        {
          "internalType": "bool",
          "name": "",
          "type": "bool"
        }
      ],
      "stateMutability": "nonpayable",
      "type": "function"
    },
    {
      "inputs": [
        {
          "internalType": "bytes32",
          "name": "partition",
          "type": "bytes32"
        },
        {
          "internalType": "address",
          "name": "to",
          "type": "address"
        },
        {
          "internalType": "uint256",
          "name": "value",
          "type": "uint256"
        },
        {
          "internalType": "bytes",
          "name": "data",
          "type": "bytes"
        }
      ],
      "name": "transferByPartition",
      "outputs": [
        {
          "internalType": "bytes32",
          "name": "",
          "type": "bytes32"
        }
      ],
      "stateMutability": "nonpayable",
      "type": "function"
    },
    {
      "inputs": [
        {
          "internalType": "address",
          "name": "from",
          "type": "address"
        },
        {
          "internalType": "address",
          "name": "to",
          "type": "address"
        },
        {
          "internalType": "uint256",
          "name": "value",
          "type": "uint256"
        }
      ],
      "name": "transferFrom",
      "outputs": [
        {
          "internalType": "bool",
          "name": "",
          "type": "bool"
        }
      ],
      "stateMutability": "nonpayable",
      "type": "function"
    },
    {
      "inputs": [
        {
          "internalType": "address",
          "name": "from",
          "type": "address"
        },
        {
          "internalType": "address",
          "name": "to",
          "type": "address"
        },
        {
          "internalType": "uint256",
          "name": "value",
          "type": "uint256"
        },
        {
          "internalType": "bytes",
          "name": "data",
          "type": "bytes"
        }
      ],
      "name": "transferFromWithData",
      "outputs": [],
      "stateMutability": "nonpayable",
      "type": "function"
    },
    {
      "inputs": [
        {
          "internalType": "address",
          "name": "newOwner",
          "type": "address"
        }
      ],
      "name": "transferOwnership",
      "outputs": [],
      "stateMutability": "nonpayable",
      "type": "function"
    },
    {
      "inputs": [
        {
          "internalType": "address",
          "name": "to",
          "type": "address"
        },
        {
          "internalType": "uint256",
          "name": "value",
          "type": "uint256"
        },
        {
          "internalType": "bytes",
          "name": "data",
          "type": "bytes"
        }
      ],
      "name": "transferWithData",
      "outputs": [],
      "stateMutability": "nonpayable",
      "type": "function"
    },
    {
      "inputs": [
        {
          "internalType": "uint256",
          "name": "_data",
          "type": "uint256"
        }
      ],
      "name": "setData",
      "outputs": [],
      "stateMutability": "nonpayable",
      "type": "function"
    },
    {
      "inputs": [],
      "name": "getData",
      "outputs": [
        {
          "internalType": "uint256",
          "name": "",
          "type": "uint256"
        }
      ],
      "stateMutability": "view",
      "type": "function",
      "constant": true
    }
  ],
  "bytecode": "0x60806040523480156200001157600080fd5b506040516200991c3803806200991c833981810160405281019062000037919062000d5a565b84848484846200005c620000506200026c60201b60201c565b6200027460201b60201c565b6200006d336200033860201b60201c565b6200007d6200039960201b60201c565b50846004908051906020019062000096929190620009af565b508360059080519060200190620000af929190620009af565b5060006007819055506001831015620000c757600080fd5b82600681905550620000df82620003e260201b60201c565b8060149080519060200190620000f792919062000a40565b506001600860016101000a81548160ff0219169083151502179055506001600860026101000a81548160ff0219169083151502179055506200017a6040518060400160405280600c81526020017f45524331343030546f6b656e000000000000000000000000000000000000000081525030620005a060201b62003e6b1760201c565b620001c66040518060400160405280600a81526020017f4552433230546f6b656e0000000000000000000000000000000000000000000081525030620005a060201b62003e6b1760201c565b620002116040518060400160405280600c81526020017f45524331343030546f6b656e00000000000000000000000000000000000000008152506200065960201b62003f1e1760201c565b6200025c6040518060400160405280600a81526020017f4552433230546f6b656e000000000000000000000000000000000000000000008152506200065960201b62003f1e1760201c565b5050505050505050505062001314565b600033905090565b60008060009054906101000a900473ffffffffffffffffffffffffffffffffffffffff169050816000806101000a81548173ffffffffffffffffffffffffffffffffffffffff021916908373ffffffffffffffffffffffffffffffffffffffff1602179055508173ffffffffffffffffffffffffffffffffffffffff168173ffffffffffffffffffffffffffffffffffffffff167f8be0079c531659141344cd1fd0a4f28419497f9722a3daafe3b4186f6b6457e060405160405180910390a35050565b62000353816002620006af60201b62003f721790919060201c565b8073ffffffffffffffffffffffffffffffffffffffff167f6ae172837ea30b801fbfcdd4108aa1d5bf8ff775444fd70256b44e6bf3dfc3f660405160405180910390a250565b600080620003ac6200076260201b60201c565b90506000620003c06200076f60201b60201c565b9050806003600084815260200190815260200160002081905550809250505090565b60005b601680549050811015620004c6576000601760006016848154811062000434577f4e487b7100000000000000000000000000000000000000000000000000000000600052603260045260246000fd5b9060005260206000200160009054906101000a900473ffffffffffffffffffffffffffffffffffffffff1673ffffffffffffffffffffffffffffffffffffffff1673ffffffffffffffffffffffffffffffffffffffff16815260200190815260200160002060006101000a81548160ff0219169083151502179055508080620004bd90620011eb565b915050620003e5565b5060005b8151811015620005835760016017600084848151811062000514577f4e487b7100000000000000000000000000000000000000000000000000000000600052603260045260246000fd5b602002602001015173ffffffffffffffffffffffffffffffffffffffff1673ffffffffffffffffffffffffffffffffffffffff16815260200190815260200160002060006101000a81548160ff02191690831515021790555080806200057a90620011eb565b915050620004ca565b5080601690805190602001906200059c92919062000a92565b5050565b600082604051602001620005b5919062000f54565b604051602081830303815290604052805190602001209050731820a4b7618bde71dce8cdc73aab6c95905fad2473ffffffffffffffffffffffffffffffffffffffff166329965a1d3083856040518463ffffffff1660e01b8152600401620006209392919062000f6d565b600060405180830381600087803b1580156200063b57600080fd5b505af115801562000650573d6000803e3d6000fd5b50505050505050565b60018060008360405160200162000671919062000f54565b60405160208183030381529060405280519060200120815260200190815260200160002060006101000a81548160ff02191690831515021790555050565b620006c182826200080d60201b60201c565b1562000704576040517f08c379a0000000000000000000000000000000000000000000000000000000008152600401620006fb9062001007565b60405180910390fd5b60018260000160008373ffffffffffffffffffffffffffffffffffffffff1673ffffffffffffffffffffffffffffffffffffffff16815260200190815260200160002060006101000a81548160ff0219169083151502179055505050565b6000804690508091505090565b600080620007826200076260201b60201c565b905060007f8b73c3c69bb8fe3d512ecc4cf759cc79239f7b179b0ffacaa9a75d522b39400f620007b7620008d860201b60201c565b80519060200120620007ce6200097260201b60201c565b805190602001208430604051602001620007ed95949392919062000faa565b604051602081830303815290604052805190602001209050809250505090565b60008073ffffffffffffffffffffffffffffffffffffffff168273ffffffffffffffffffffffffffffffffffffffff16141562000881576040517f08c379a0000000000000000000000000000000000000000000000000000000008152600401620008789062001029565b60405180910390fd5b8260000160008373ffffffffffffffffffffffffffffffffffffffff1673ffffffffffffffffffffffffffffffffffffffff16815260200190815260200160002060009054906101000a900460ff16905092915050565b606060048054620008e990620011b5565b80601f01602080910402602001604051908101604052809291908181526020018280546200091790620011b5565b8015620009685780601f106200093c5761010080835404028352916020019162000968565b820191906000526020600020905b8154815290600101906020018083116200094a57829003601f168201915b5050505050905090565b60606040518060400160405280600181526020017f3100000000000000000000000000000000000000000000000000000000000000815250905090565b828054620009bd90620011b5565b90600052602060002090601f016020900481019282620009e1576000855562000a2d565b82601f10620009fc57805160ff191683800117855562000a2d565b8280016001018555821562000a2d579182015b8281111562000a2c57825182559160200191906001019062000a0f565b5b50905062000a3c919062000b21565b5090565b82805482825590600052602060002090810192821562000a7f579160200282015b8281111562000a7e57825182559160200191906001019062000a61565b5b50905062000a8e919062000b40565b5090565b82805482825590600052602060002090810192821562000b0e579160200282015b8281111562000b0d5782518260006101000a81548173ffffffffffffffffffffffffffffffffffffffff021916908373ffffffffffffffffffffffffffffffffffffffff1602179055509160200191906001019062000ab3565b5b50905062000b1d919062000b21565b5090565b5b8082111562000b3c57600081600090555060010162000b22565b5090565b5b8082111562000b5b57600081600090555060010162000b41565b5090565b600062000b7662000b70846200107f565b6200104b565b9050808382526020820190508285602086028201111562000b9657600080fd5b60005b8581101562000bca578162000baf888262000c8e565b84526020840193506020830192505060018101905062000b99565b5050509392505050565b600062000beb62000be584620010ae565b6200104b565b9050808382526020820190508285602086028201111562000c0b57600080fd5b60005b8581101562000c3f578162000c24888262000cff565b84526020840193506020830192505060018101905062000c0e565b5050509392505050565b600062000c6062000c5a84620010dd565b6200104b565b90508281526020810184848401111562000c7957600080fd5b62000c868482856200117f565b509392505050565b60008151905062000c9f81620012c6565b92915050565b600082601f83011262000cb757600080fd5b815162000cc984826020860162000b5f565b91505092915050565b600082601f83011262000ce457600080fd5b815162000cf684826020860162000bd4565b91505092915050565b60008151905062000d1081620012e0565b92915050565b600082601f83011262000d2857600080fd5b815162000d3a84826020860162000c49565b91505092915050565b60008151905062000d5481620012fa565b92915050565b600080600080600060a0868803121562000d7357600080fd5b600086015167ffffffffffffffff81111562000d8e57600080fd5b62000d9c8882890162000d16565b955050602086015167ffffffffffffffff81111562000dba57600080fd5b62000dc88882890162000d16565b945050604062000ddb8882890162000d43565b935050606086015167ffffffffffffffff81111562000df957600080fd5b62000e078882890162000ca5565b925050608086015167ffffffffffffffff81111562000e2557600080fd5b62000e338882890162000cd2565b9150509295509295909350565b62000e4b8162001137565b82525050565b62000e5c816200114b565b82525050565b600062000e6f8262001110565b62000e7b81856200112c565b935062000e8d8185602086016200117f565b80840191505092915050565b600062000ea8601f836200111b565b91507f526f6c65733a206163636f756e7420616c72656164792068617320726f6c65006000830152602082019050919050565b600062000eea6022836200111b565b91507f526f6c65733a206163636f756e7420697320746865207a65726f20616464726560008301527f73730000000000000000000000000000000000000000000000000000000000006020830152604082019050919050565b62000f4e8162001175565b82525050565b600062000f62828462000e62565b915081905092915050565b600060608201905062000f84600083018662000e40565b62000f93602083018562000e51565b62000fa2604083018462000e40565b949350505050565b600060a08201905062000fc1600083018862000e51565b62000fd0602083018762000e51565b62000fdf604083018662000e51565b62000fee606083018562000f43565b62000ffd608083018462000e40565b9695505050505050565b60006020820190508181036000830152620010228162000e99565b9050919050565b60006020820190508181036000830152620010448162000edb565b9050919050565b6000604051905081810181811067ffffffffffffffff8211171562001075576200107462001297565b5b8060405250919050565b600067ffffffffffffffff8211156200109d576200109c62001297565b5b602082029050602081019050919050565b600067ffffffffffffffff821115620010cc57620010cb62001297565b5b602082029050602081019050919050565b600067ffffffffffffffff821115620010fb57620010fa62001297565b5b601f19601f8301169050602081019050919050565b600081519050919050565b600082825260208201905092915050565b600081905092915050565b6000620011448262001155565b9050919050565b6000819050919050565b600073ffffffffffffffffffffffffffffffffffffffff82169050919050565b6000819050919050565b60005b838110156200119f57808201518184015260208101905062001182565b83811115620011af576000848401525b50505050565b60006002820490506001821680620011ce57607f821691505b60208210811415620011e557620011e462001268565b5b50919050565b6000620011f88262001175565b91507fffffffffffffffffffffffffffffffffffffffffffffffffffffffffffffffff8214156200122e576200122d62001239565b5b600182019050919050565b7f4e487b7100000000000000000000000000000000000000000000000000000000600052601160045260246000fd5b7f4e487b7100000000000000000000000000000000000000000000000000000000600052602260045260246000fd5b7f4e487b7100000000000000000000000000000000000000000000000000000000600052604160045260246000fd5b620012d18162001137565b8114620012dd57600080fd5b50565b620012eb816200114b565b8114620012f757600080fd5b50565b620013058162001175565b81146200131157600080fd5b50565b6185f880620013246000396000f3fe608060405234801561001057600080fd5b50600436106103c55760003560e01c8063861ed3ea116101ff578063aa271e1a1161011a578063e77c646d116100ad578063f2fde38b1161007c578063f2fde38b14610b6e578063f3d490db14610b8a578063f698da2514610bba578063fad8b32a14610bd8576103c5565b8063e77c646d14610afe578063ea74838a14610b1a578063ec9a6e8714610b36578063ee532f3114610b52576103c5565b8063bcfdc0cf116100e9578063bcfdc0cf14610a8a578063c350184814610aa8578063ca281fd914610ac4578063dd62ed3e14610ace576103c5565b8063aa271e1a146109dc578063b10d6b4114610a0c578063b6363cf214610a3e578063bb3acde914610a6e576103c5565b8063983b2d5611610192578063a26734dc11610161578063a26734dc14610942578063a6f4f10514610972578063a8082cb01461098e578063a9059cbb146109ac576103c5565b8063983b2d56146108e257806398650275146108fe57806398ddcec7146109085780639fa5f50b14610924576103c5565b8063933964c7116101ce578063933964c714610870578063959b8c3f1461088c57806395d89b41146108a85780639675193c146108c6576103c5565b8063861ed3ea146107d4578063895d7386146108045780638c0dee9c146108225780638da5cb5b14610852576103c5565b806330e82803116102ef57806369598efe11610282578063715018a611610251578063715018a61461075e578063740ab8f4146107685780637cc0c3a71461079857806380a097b8146107b6576103c5565b806369598efe146106d65780636c30d170146106f45780636d77cad6146106fe57806370a082311461072e576103c5565b8063556f0dc7116102be578063556f0dc7146106645780635b4b73a91461068257806362eb00681461069e57806367c84919146106ba576103c5565b806330e82803146105da578063313ce5671461060a5780633bc5de30146106285780634c783bf514610646576103c5565b806317ec83ca11610367578063249cb3fa11610336578063249cb3fa146105545780632535f762146105845780632f1cae85146105a05780633092afd5146105be576103c5565b806317ec83ca146104b857806318160ddd146104e85780631d43e1c01461050657806323b872dd14610524576103c5565b8063103ef9e1116103a3578063103ef9e11461043457806314d1e62f14610450578063168ecec51461048057806316e1aed41461049c576103c5565b8063010648ca146103ca57806306fdde03146103e6578063095ea7b314610404575b600080fd5b6103e460048036038101906103df91906173a4565b610bf4565b005b6103ee610d95565b6040516103fb9190617ea9565b60405180910390f35b61041e60048036038101906104199190616fd4565b610e27565b60405161042b9190617d59565b60405180910390f35b61044e6004803603810190610449919061712f565b610f88565b005b61046a6004803603810190610465919061727d565b61108d565b6040516104779190617d59565b60405180910390f35b61049a6004803603810190610495919061712f565b611201565b005b6104b660048036038101906104b1919061734c565b611306565b005b6104d260048036038101906104cd919061716b565b6113d2565b6040516104df9190618139565b60405180910390f35b6104f061146b565b6040516104fd9190618139565b60405180910390f35b61050e611475565b60405161051b9190617ea9565b60405180910390f35b61053e60048036038101906105399190616e37565b6114b2565b60405161054b9190617d59565b60405180910390f35b61056e6004803603810190610569919061712f565b6117c5565b60405161057b9190617d74565b60405180910390f35b61059e60048036038101906105999190617010565b611824565b005b6105a861187b565b6040516105b59190617d59565b60405180910390f35b6105d860048036038101906105d39190616da9565b611892565b005b6105f460048036038101906105ef919061712f565b6118f4565b6040516106019190618139565b60405180910390f35b61061261194f565b60405161061f91906181c7565b60405180910390f35b610630611958565b60405161063d9190618139565b60405180910390f35b61064e611962565b60405161065b9190617d59565b60405180910390f35b61066c611979565b6040516106799190618139565b60405180910390f35b61069c6004803603810190610697919061747c565b611983565b005b6106b860048036038101906106b39190617410565b61198d565b005b6106d460048036038101906106cf91906172cc565b6119f4565b005b6106de611af1565b6040516106eb9190617d37565b60405180910390f35b6106fc611b49565b005b6107186004803603810190610713919061716b565b611be2565b6040516107259190617d59565b60405180910390f35b61074860048036038101906107439190616da9565b611bf8565b6040516107559190618139565b60405180910390f35b610766611c41565b005b610782600480360381019061077d9190616da9565b611cc9565b60405161078f9190617d37565b60405180910390f35b6107a0611d60565b6040516107ad9190617d15565b60405180910390f35b6107be611dee565b6040516107cb9190618139565b60405180910390f35b6107ee60048036038101906107e99190617106565b611df4565b6040516107fb9190617d15565b60405180910390f35b61080c611e95565b6040516108199190617ea9565b60405180910390f35b61083c600480360381019061083791906171ba565b611f27565b6040516108499190617d74565b60405180910390f35b61085a61230e565b6040516108679190617c47565b60405180910390f35b61088a60048036038101906108859190616f06565b612337565b005b6108a660048036038101906108a19190616da9565b6123c1565b005b6108b06124ec565b6040516108bd9190617ea9565b60405180910390f35b6108e060048036038101906108db9190617010565b61257e565b005b6108fc60048036038101906108f79190616da9565b6128be565b005b610906612920565b005b610922600480360381019061091d91906172cc565b61292b565b005b61092c612cd3565b6040516109399190617d37565b60405180910390f35b61095c60048036038101906109579190617106565b612d2b565b6040516109699190618139565b60405180910390f35b61098c60048036038101906109879190616f42565b612d48565b005b610996612e1d565b6040516109a39190617d74565b60405180910390f35b6109c660048036038101906109c19190616fd4565b612ea1565b6040516109d39190617d59565b60405180910390f35b6109f660048036038101906109f19190616da9565b612ec9565b604051610a039190617d59565b60405180910390f35b610a266004803603810190610a219190617106565b612ee6565b604051610a3593929190617efb565b60405180910390f35b610a586004803603810190610a539190616dfb565b612ff8565b604051610a659190617d59565b60405180910390f35b610a886004803603810190610a839190617010565b61300c565b005b610a92613196565b604051610a9f9190617d37565b60405180910390f35b610ac26004803603810190610abd9190617106565b6131ee565b005b610acc6135b7565b005b610ae86004803603810190610ae39190616dfb565b613650565b604051610af59190618139565b60405180910390f35b610b186004803603810190610b1391906174a5565b6136d7565b005b610b346004803603810190610b2f919061707c565b61372c565b005b610b506004803603810190610b4b91906170c1565b6137f6565b005b610b6c6004803603810190610b679190616e86565b613888565b005b610b886004803603810190610b839190616da9565b613bca565b005b610ba46004803603810190610b9f91906172cc565b613cc2565b604051610bb19190617d74565b60405180910390f35b610bc2613d31565b604051610bcf9190617d74565b60405180910390f35b610bf26004803603810190610bed9190616da9565b613d40565b005b601760003373ffffffffffffffffffffffffffffffffffffffff1673ffffffffffffffffffffffffffffffffffffffff16815260200190815260200160002060009054906101000a900460ff16610c4a57600080fd5b604051806060016040528084848080601f016020809104026020016040519081016040528093929190818152602001838380828437600081840152601f19601f82011690508083019250505050505050815260200182815260200142815250600b60008681526020019081526020016000206000820151816000019080519060200190610cd8929190616a41565b5060208201518160010155604082015181600201559050506000600c6000838152602001908152602001600020541415610d5357600d819080600181540180825580915050600190039060005260206000200160009091909190915055600d80549050600c6000838152602001908152602001600020819055505b837fb4c22d60cd550a815744f04e3ff5278bf19684565ee00e2b084041b6024bd6f6848484604051610d8793929190617e77565b60405180910390a250505050565b606060048054610da49061844d565b80601f0160208091040260200160405190810160405280929190818152602001828054610dd09061844d565b8015610e1d5780601f10610df257610100808354040283529160200191610e1d565b820191906000526020600020905b815481529060010190602001808311610e0057829003601f168201915b5050505050905090565b60008073ffffffffffffffffffffffffffffffffffffffff168373ffffffffffffffffffffffffffffffffffffffff161415610e98576040517f08c379a0000000000000000000000000000000000000000000000000000000008152600401610e8f90617ff9565b60405180910390fd5b81600a60003373ffffffffffffffffffffffffffffffffffffffff1673ffffffffffffffffffffffffffffffffffffffff16815260200190815260200160002060008573ffffffffffffffffffffffffffffffffffffffff1673ffffffffffffffffffffffffffffffffffffffff168152602001908152602001600020819055508273ffffffffffffffffffffffffffffffffffffffff163373ffffffffffffffffffffffffffffffffffffffff167f8c5be1e5ebec7d5bd14f71427d1e84f3dd0314c0f7b2291e5b200ac8c7c3b92584604051610f769190618139565b60405180910390a36001905092915050565b6001601960003373ffffffffffffffffffffffffffffffffffffffff1673ffffffffffffffffffffffffffffffffffffffff168152602001908152602001600020600084815260200190815260200160002060008373ffffffffffffffffffffffffffffffffffffffff1673ffffffffffffffffffffffffffffffffffffffff16815260200190815260200160002060006101000a81548160ff0219169083151502179055503373ffffffffffffffffffffffffffffffffffffffff168173ffffffffffffffffffffffffffffffffffffffff16837f3646a897c70797ecc134b0adc32f471b07bf1d6f451133b0384badab531e3fd660405160405180910390a45050565b60008073ffffffffffffffffffffffffffffffffffffffff168373ffffffffffffffffffffffffffffffffffffffff1614156110fe576040517f08c379a00000000000000000000000000000000000000000000000000000000081526004016110f590617ff9565b60405180910390fd5b816018600086815260200190815260200160002060003373ffffffffffffffffffffffffffffffffffffffff1673ffffffffffffffffffffffffffffffffffffffff16815260200190815260200160002060008573ffffffffffffffffffffffffffffffffffffffff1673ffffffffffffffffffffffffffffffffffffffff168152602001908152602001600020819055508273ffffffffffffffffffffffffffffffffffffffff163373ffffffffffffffffffffffffffffffffffffffff16857ff061499aa77c2f6f5e25e34955a06623705344a88256cc861a121ec0bce5cfec856040516111ee9190618139565b60405180910390a4600190509392505050565b6000601960003373ffffffffffffffffffffffffffffffffffffffff1673ffffffffffffffffffffffffffffffffffffffff168152602001908152602001600020600084815260200190815260200160002060008373ffffffffffffffffffffffffffffffffffffffff1673ffffffffffffffffffffffffffffffffffffffff16815260200190815260200160002060006101000a81548160ff0219169083151502179055503373ffffffffffffffffffffffffffffffffffffffff168173ffffffffffffffffffffffffffffffffffffffff16837f3b287c4f1bab4df949b33bceacef984f544dc5d5479930d00e4ee8c9d8dd96f260405160405180910390a45050565b61130e61401a565b73ffffffffffffffffffffffffffffffffffffffff1661132c61230e565b73ffffffffffffffffffffffffffffffffffffffff1614611382576040517f08c379a000000000000000000000000000000000000000000000000000000000815260040161137990618079565b60405180910390fd5b6113cd83838380806020026020016040519081016040528093929190818152602001838360200280828437600081840152601f19601f82011690508083019250505050505050614022565b505050565b60006018600085815260200190815260200160002060008473ffffffffffffffffffffffffffffffffffffffff1673ffffffffffffffffffffffffffffffffffffffff16815260200190815260200160002060008373ffffffffffffffffffffffffffffffffffffffff1673ffffffffffffffffffffffffffffffffffffffff1681526020019081526020016000205490509392505050565b6000600754905090565b60606040518060400160405280600181526020017f3100000000000000000000000000000000000000000000000000000000000000815250905090565b60006114be338561422a565b806115455750600a60008573ffffffffffffffffffffffffffffffffffffffff1673ffffffffffffffffffffffffffffffffffffffff16815260200190815260200160002060003373ffffffffffffffffffffffffffffffffffffffff1673ffffffffffffffffffffffffffffffffffffffff168152602001908152602001600020548211155b611584576040517f08c379a000000000000000000000000000000000000000000000000000000000815260040161157b906180b9565b60405180910390fd5b81600a60008673ffffffffffffffffffffffffffffffffffffffff1673ffffffffffffffffffffffffffffffffffffffff16815260200190815260200160002060003373ffffffffffffffffffffffffffffffffffffffff1673ffffffffffffffffffffffffffffffffffffffff168152602001908152602001600020541061171b5761169682600a60008773ffffffffffffffffffffffffffffffffffffffff1673ffffffffffffffffffffffffffffffffffffffff16815260200190815260200160002060003373ffffffffffffffffffffffffffffffffffffffff1673ffffffffffffffffffffffffffffffffffffffff1681526020019081526020016000205461436090919063ffffffff16565b600a60008673ffffffffffffffffffffffffffffffffffffffff1673ffffffffffffffffffffffffffffffffffffffff16815260200190815260200160002060003373ffffffffffffffffffffffffffffffffffffffff1673ffffffffffffffffffffffffffffffffffffffff1681526020019081526020016000208190555061179e565b6000600a60008673ffffffffffffffffffffffffffffffffffffffff1673ffffffffffffffffffffffffffffffffffffffff16815260200190815260200160002060003373ffffffffffffffffffffffffffffffffffffffff1673ffffffffffffffffffffffffffffffffffffffff168152602001908152602001600020819055505b6117ba3385858560405180602001604052806000815250614376565b600190509392505050565b60006001600084815260200190815260200160002060009054906101000a900460ff1615611819576040516020016117fc90617c32565b60405160208183030381529060405280519060200120905061181e565b600090505b92915050565b6118753333868686868080601f016020809104026020016040519081016040528093929190818152602001838380828437600081840152601f19601f82011690508083019250505050505050614376565b50505050565b6000600860029054906101000a900460ff16905090565b61189b33612ec9565b806118df57506118a961401a565b73ffffffffffffffffffffffffffffffffffffffff166118c761230e565b73ffffffffffffffffffffffffffffffffffffffff16145b6118e857600080fd5b6118f1816145bd565b50565b6000601360008373ffffffffffffffffffffffffffffffffffffffff1673ffffffffffffffffffffffffffffffffffffffff168152602001908152602001600020600084815260200190815260200160002054905092915050565b60006012905090565b6000601c54905090565b6000600860019054906101000a900460ff16905090565b6000600654905090565b80601c8190555050565b6119ee8433338686868080601f016020809104026020016040519081016040528093929190818152602001838380828437600081840152601f19601f8201169050808301925050505050505060405180602001604052806000815250614617565b50505050565b6119fd33612ec9565b80611a415750611a0b61401a565b73ffffffffffffffffffffffffffffffffffffffff16611a2961230e565b73ffffffffffffffffffffffffffffffffffffffff16145b611a4a57600080fd5b600860029054906101000a900460ff16611a99576040517f08c379a0000000000000000000000000000000000000000000000000000000008152600401611a9090618039565b60405180910390fd5b611aea8533868686868080601f016020809104026020016040519081016040528093929190818152602001838380828437600081840152601f19601f82011690508083019250505050505050614751565b5050505050565b6060600e805480602002602001604051908101604052809291908181526020018280548015611b3f57602002820191906000526020600020905b815481526020019060010190808311611b2b575b5050505050905090565b611b5161401a565b73ffffffffffffffffffffffffffffffffffffffff16611b6f61230e565b73ffffffffffffffffffffffffffffffffffffffff1614611bc5576040517f08c379a0000000000000000000000000000000000000000000000000000000008152600401611bbc90618079565b60405180910390fd5b6000600860026101000a81548160ff021916908315150217905550565b6000611bef848484614815565b90509392505050565b6000600960008373ffffffffffffffffffffffffffffffffffffffff1673ffffffffffffffffffffffffffffffffffffffff168152602001908152602001600020549050919050565b611c4961401a565b73ffffffffffffffffffffffffffffffffffffffff16611c6761230e565b73ffffffffffffffffffffffffffffffffffffffff1614611cbd576040517f08c379a0000000000000000000000000000000000000000000000000000000008152600401611cb490618079565b60405180910390fd5b611cc76000614949565b565b6060601160008373ffffffffffffffffffffffffffffffffffffffff1673ffffffffffffffffffffffffffffffffffffffff168152602001908152602001600020805480602002602001604051908101604052809291908181526020018280548015611d5457602002820191906000526020600020905b815481526020019060010190808311611d40575b50505050509050919050565b60606016805480602002602001604051908101604052809291908181526020018280548015611de457602002820191906000526020600020905b8160009054906101000a900473ffffffffffffffffffffffffffffffffffffffff1673ffffffffffffffffffffffffffffffffffffffff1681526020019060010190808311611d9a575b5050505050905090565b601c5481565b6060601a6000838152602001908152602001600020805480602002602001604051908101604052809291908181526020018280548015611e8957602002820191906000526020600020905b8160009054906101000a900473ffffffffffffffffffffffffffffffffffffffff1673ffffffffffffffffffffffffffffffffffffffff1681526020019060010190808311611e3f575b50505050509050919050565b606060048054611ea49061844d565b80601f0160208091040260200160405190810160405280929190818152602001828054611ed09061844d565b8015611f1d5780601f10611ef257610100808354040283529160200191611f1d565b820191906000526020600020905b815481529060010190602001808311611f0057829003601f168201915b5050505050905090565b6000611f3489338a614815565b80611fcc5750601860008a815260200190815260200160002060008973ffffffffffffffffffffffffffffffffffffffff1673ffffffffffffffffffffffffffffffffffffffff16815260200190815260200160002060003373ffffffffffffffffffffffffffffffffffffffff1673ffffffffffffffffffffffffffffffffffffffff168152602001908152602001600020548611155b61200b576040517f08c379a0000000000000000000000000000000000000000000000000000000008152600401612002906180b9565b60405180910390fd5b85601860008b815260200190815260200160002060008a73ffffffffffffffffffffffffffffffffffffffff1673ffffffffffffffffffffffffffffffffffffffff16815260200190815260200160002060003373ffffffffffffffffffffffffffffffffffffffff1673ffffffffffffffffffffffffffffffffffffffff16815260200190815260200160002054106121d55761213f86601860008c815260200190815260200160002060008b73ffffffffffffffffffffffffffffffffffffffff1673ffffffffffffffffffffffffffffffffffffffff16815260200190815260200160002060003373ffffffffffffffffffffffffffffffffffffffff1673ffffffffffffffffffffffffffffffffffffffff1681526020019081526020016000205461436090919063ffffffff16565b601860008b815260200190815260200160002060008a73ffffffffffffffffffffffffffffffffffffffff1673ffffffffffffffffffffffffffffffffffffffff16815260200190815260200160002060003373ffffffffffffffffffffffffffffffffffffffff1673ffffffffffffffffffffffffffffffffffffffff16815260200190815260200160002081905550612269565b6000601860008b815260200190815260200160002060008a73ffffffffffffffffffffffffffffffffffffffff1673ffffffffffffffffffffffffffffffffffffffff16815260200190815260200160002060003373ffffffffffffffffffffffffffffffffffffffff1673ffffffffffffffffffffffffffffffffffffffff168152602001908152602001600020819055505b61230089338a8a8a8a8a8080601f016020809104026020016040519081016040528093929190818152602001838380828437600081840152601f19601f8201169050808301925050505050505089898080601f016020809104026020016040519081016040528093929190818152602001838380828437600081840152601f19601f82011690508083019250505050505050614a0d565b905098975050505050505050565b60008060009054906101000a900473ffffffffffffffffffffffffffffffffffffffff16905090565b61233f61401a565b73ffffffffffffffffffffffffffffffffffffffff1661235d61230e565b73ffffffffffffffffffffffffffffffffffffffff16146123b3576040517f08c379a00000000000000000000000000000000000000000000000000000000081526004016123aa90618079565b60405180910390fd5b6123bd8282614bd7565b5050565b3373ffffffffffffffffffffffffffffffffffffffff168173ffffffffffffffffffffffffffffffffffffffff1614156123fa57600080fd5b6001601560008373ffffffffffffffffffffffffffffffffffffffff1673ffffffffffffffffffffffffffffffffffffffff16815260200190815260200160002060003373ffffffffffffffffffffffffffffffffffffffff1673ffffffffffffffffffffffffffffffffffffffff16815260200190815260200160002060006101000a81548160ff0219169083151502179055503373ffffffffffffffffffffffffffffffffffffffff168173ffffffffffffffffffffffffffffffffffffffff167ff4caeb2d6ca8932a215a353d0703c326ec2d81fc68170f320eb2ab49e9df61f960405160405180910390a350565b6060600580546124fb9061844d565b80601f01602080910402602001604051908101604052809291908181526020018280546125279061844d565b80156125745780601f1061254957610100808354040283529160200191612574565b820191906000526020600020905b81548152906001019060200180831161255757829003601f168201915b5050505050905090565b612588338561422a565b8061260f5750600a60008573ffffffffffffffffffffffffffffffffffffffff1673ffffffffffffffffffffffffffffffffffffffff16815260200190815260200160002060003373ffffffffffffffffffffffffffffffffffffffff1673ffffffffffffffffffffffffffffffffffffffff168152602001908152602001600020548311155b61264e576040517f08c379a0000000000000000000000000000000000000000000000000000000008152600401612645906180b9565b60405180910390fd5b82600a60008673ffffffffffffffffffffffffffffffffffffffff1673ffffffffffffffffffffffffffffffffffffffff16815260200190815260200160002060003373ffffffffffffffffffffffffffffffffffffffff1673ffffffffffffffffffffffffffffffffffffffff16815260200190815260200160002054106127e55761276083600a60008773ffffffffffffffffffffffffffffffffffffffff1673ffffffffffffffffffffffffffffffffffffffff16815260200190815260200160002060003373ffffffffffffffffffffffffffffffffffffffff1673ffffffffffffffffffffffffffffffffffffffff1681526020019081526020016000205461436090919063ffffffff16565b600a60008673ffffffffffffffffffffffffffffffffffffffff1673ffffffffffffffffffffffffffffffffffffffff16815260200190815260200160002060003373ffffffffffffffffffffffffffffffffffffffff1673ffffffffffffffffffffffffffffffffffffffff16815260200190815260200160002081905550612868565b6000600a60008673ffffffffffffffffffffffffffffffffffffffff1673ffffffffffffffffffffffffffffffffffffffff16815260200190815260200160002060003373ffffffffffffffffffffffffffffffffffffffff1673ffffffffffffffffffffffffffffffffffffffff168152602001908152602001600020819055505b6128b833858585858080601f016020809104026020016040519081016040528093929190818152602001838380828437600081840152601f19601f82011690508083019250505050505050614c7b565b50505050565b6128c733612ec9565b8061290b57506128d561401a565b73ffffffffffffffffffffffffffffffffffffffff166128f361230e565b73ffffffffffffffffffffffffffffffffffffffff16145b61291457600080fd5b61291d81614eb4565b50565b612929336145bd565b565b612936853386614815565b806129ce57506018600086815260200190815260200160002060008573ffffffffffffffffffffffffffffffffffffffff1673ffffffffffffffffffffffffffffffffffffffff16815260200190815260200160002060003373ffffffffffffffffffffffffffffffffffffffff1673ffffffffffffffffffffffffffffffffffffffff168152602001908152602001600020548311155b612a0d576040517f08c379a0000000000000000000000000000000000000000000000000000000008152600401612a0490618019565b60405180910390fd5b826018600087815260200190815260200160002060008673ffffffffffffffffffffffffffffffffffffffff1673ffffffffffffffffffffffffffffffffffffffff16815260200190815260200160002060003373ffffffffffffffffffffffffffffffffffffffff1673ffffffffffffffffffffffffffffffffffffffff1681526020019081526020016000205410612bd757612b41836018600088815260200190815260200160002060008773ffffffffffffffffffffffffffffffffffffffff1673ffffffffffffffffffffffffffffffffffffffff16815260200190815260200160002060003373ffffffffffffffffffffffffffffffffffffffff1673ffffffffffffffffffffffffffffffffffffffff1681526020019081526020016000205461436090919063ffffffff16565b6018600087815260200190815260200160002060008673ffffffffffffffffffffffffffffffffffffffff1673ffffffffffffffffffffffffffffffffffffffff16815260200190815260200160002060003373ffffffffffffffffffffffffffffffffffffffff1673ffffffffffffffffffffffffffffffffffffffff16815260200190815260200160002081905550612c6b565b60006018600087815260200190815260200160002060008673ffffffffffffffffffffffffffffffffffffffff1673ffffffffffffffffffffffffffffffffffffffff16815260200190815260200160002060003373ffffffffffffffffffffffffffffffffffffffff1673ffffffffffffffffffffffffffffffffffffffff168152602001908152602001600020819055505b612ccc853386866040518060200160405280600081525087878080601f016020809104026020016040519081016040528093929190818152602001838380828437600081840152601f19601f82011690508083019250505050505050614617565b5050505050565b6060600d805480602002602001604051908101604052809291908181526020018280548015612d2157602002820191906000526020600020905b815481526020019060010190808311612d0d575b5050505050905090565b600060106000838152602001908152602001600020549050919050565b612d5061401a565b73ffffffffffffffffffffffffffffffffffffffff16612d6e61230e565b73ffffffffffffffffffffffffffffffffffffffff1614612dc4576040517f08c379a0000000000000000000000000000000000000000000000000000000008152600401612dbb90618079565b60405180910390fd5b612e158686868080601f016020809104026020016040519081016040528093929190818152602001838380828437600081840152601f19601f82011690508083019250505050505050858585614f0e565b505050505050565b600080612e2861505f565b905060007f8b73c3c69bb8fe3d512ecc4cf759cc79239f7b179b0ffacaa9a75d522b39400f612e55611e95565b80519060200120612e64611475565b805190602001208430604051602001612e81959493929190617d8f565b604051602081830303815290604052805190602001209050809250505090565b6000612ebf3333858560405180602001604052806000815250614376565b6001905092915050565b6000612edf82600261506c90919063ffffffff16565b9050919050565b60606000806000600b60008681526020019081526020016000206000018054612f0e9061844d565b90501415612f1b57600080fd5b600b6000858152602001908152602001600020600001600b600086815260200190815260200160002060010154600b600087815260200190815260200160002060020154828054612f6b9061844d565b80601f0160208091040260200160405190810160405280929190818152602001828054612f979061844d565b8015612fe45780601f10612fb957610100808354040283529160200191612fe4565b820191906000526020600020905b815481529060010190602001808311612fc757829003601f168201915b505050505092509250925092509193909250565b6000613004838361422a565b905092915050565b61301533612ec9565b80613059575061302361401a565b73ffffffffffffffffffffffffffffffffffffffff1661304161230e565b73ffffffffffffffffffffffffffffffffffffffff16145b61306257600080fd5b600860029054906101000a900460ff166130b1576040517f08c379a00000000000000000000000000000000000000000000000000000000081526004016130a890618039565b60405180910390fd5b600060148054905014156130fa576040517f08c379a00000000000000000000000000000000000000000000000000000000081526004016130f190618039565b60405180910390fd5b6131906014600081548110613138577f4e487b7100000000000000000000000000000000000000000000000000000000600052603260045260246000fd5b906000526020600020015433868686868080601f016020809104026020016040519081016040528093929190818152602001838380828437600081840152601f19601f82011690508083019250505050505050614751565b50505050565b606060148054806020026020016040519081016040528092919081815260200182805480156131e457602002820191906000526020600020905b8154815260200190600101908083116131d0575b5050505050905090565b601760003373ffffffffffffffffffffffffffffffffffffffff1673ffffffffffffffffffffffffffffffffffffffff16815260200190815260200160002060009054906101000a900460ff1661327a576040517f08c379a000000000000000000000000000000000000000000000000000000000815260040161327190617f79565b60405180910390fd5b6000600b6000838152602001908152602001600020600001805461329d9061844d565b905014156132e0576040517f08c379a00000000000000000000000000000000000000000000000000000000081526004016132d790618119565b60405180910390fd5b6000600b60008381526020019081526020016000206040518060600160405290816000820180546133109061844d565b80601f016020809104026020016040519081016040528092919081815260200182805461333c9061844d565b80156133895780601f1061335e57610100808354040283529160200191613389565b820191906000526020600020905b81548152906001019060200180831161336c57829003601f168201915b505050505081526020016001820154815260200160028201548152505090506000600c60008360200151815260200190815260200160002054905060008111613407576040517f08c379a00000000000000000000000000000000000000000000000000000000081526004016133fe90617fd9565b60405180910390fd5b6000600d6001600d8054905061341d9190618378565b81548110613454577f4e487b7100000000000000000000000000000000000000000000000000000000600052603260045260246000fd5b9060005260206000200154905080600d6001846134719190618378565b815481106134a8577f4e487b7100000000000000000000000000000000000000000000000000000000600052603260045260246000fd5b906000526020600020018190555081600c600083815260200190815260200160002081905550600d805480613506577f4e487b7100000000000000000000000000000000000000000000000000000000600052603160045260246000fd5b600190038181906000526020600020016000905590556000600c60008560200151815260200190815260200160002081905550600b60008581526020019081526020016000206000808201600061355d9190616ac7565b600182016000905560028201600090555050837f3d9bba27d3e360d8c80645beed7e991454a8271bf6f269a24f7782be0f0d0654846000015185602001516040516135a9929190617ecb565b60405180910390a250505050565b6135bf61401a565b73ffffffffffffffffffffffffffffffffffffffff166135dd61230e565b73ffffffffffffffffffffffffffffffffffffffff1614613633576040517f08c379a000000000000000000000000000000000000000000000000000000000815260040161362a90618079565b60405180910390fd5b6000600860016101000a81548160ff021916908315150217905550565b6000600a60008473ffffffffffffffffffffffffffffffffffffffff1673ffffffffffffffffffffffffffffffffffffffff16815260200190815260200160002060008373ffffffffffffffffffffffffffffffffffffffff1673ffffffffffffffffffffffffffffffffffffffff16815260200190815260200160002054905092915050565b61372733338585858080601f016020809104026020016040519081016040528093929190818152602001838380828437600081840152601f19601f82011690508083019250505050505050614c7b565b505050565b61373461401a565b73ffffffffffffffffffffffffffffffffffffffff1661375261230e565b73ffffffffffffffffffffffffffffffffffffffff16146137a8576040517f08c379a000000000000000000000000000000000000000000000000000000000815260040161379f90618079565b60405180910390fd5b6137f2828280806020026020016040519081016040528093929190818152602001838360200280828437600081840152601f19601f82011690508083019250505050505050615134565b5050565b6137fe61401a565b73ffffffffffffffffffffffffffffffffffffffff1661381c61230e565b73ffffffffffffffffffffffffffffffffffffffff1614613872576040517f08c379a000000000000000000000000000000000000000000000000000000000815260040161386990618079565b60405180910390fd5b818160149190613883929190616b07565b505050565b613892338661422a565b806139195750600a60008673ffffffffffffffffffffffffffffffffffffffff1673ffffffffffffffffffffffffffffffffffffffff16815260200190815260200160002060003373ffffffffffffffffffffffffffffffffffffffff1673ffffffffffffffffffffffffffffffffffffffff168152602001908152602001600020548311155b613958576040517f08c379a000000000000000000000000000000000000000000000000000000000815260040161394f906180b9565b60405180910390fd5b82600a60008773ffffffffffffffffffffffffffffffffffffffff1673ffffffffffffffffffffffffffffffffffffffff16815260200190815260200160002060003373ffffffffffffffffffffffffffffffffffffffff1673ffffffffffffffffffffffffffffffffffffffff1681526020019081526020016000205410613aef57613a6a83600a60008873ffffffffffffffffffffffffffffffffffffffff1673ffffffffffffffffffffffffffffffffffffffff16815260200190815260200160002060003373ffffffffffffffffffffffffffffffffffffffff1673ffffffffffffffffffffffffffffffffffffffff1681526020019081526020016000205461436090919063ffffffff16565b600a60008773ffffffffffffffffffffffffffffffffffffffff1673ffffffffffffffffffffffffffffffffffffffff16815260200190815260200160002060003373ffffffffffffffffffffffffffffffffffffffff1673ffffffffffffffffffffffffffffffffffffffff16815260200190815260200160002081905550613b72565b6000600a60008773ffffffffffffffffffffffffffffffffffffffff1673ffffffffffffffffffffffffffffffffffffffff16815260200190815260200160002060003373ffffffffffffffffffffffffffffffffffffffff1673ffffffffffffffffffffffffffffffffffffffff168152602001908152602001600020819055505b613bc33386868686868080601f016020809104026020016040519081016040528093929190818152602001838380828437600081840152601f19601f82011690508083019250505050505050614376565b5050505050565b613bd261401a565b73ffffffffffffffffffffffffffffffffffffffff16613bf061230e565b73ffffffffffffffffffffffffffffffffffffffff1614613c46576040517f08c379a0000000000000000000000000000000000000000000000000000000008152600401613c3d90618079565b60405180910390fd5b600073ffffffffffffffffffffffffffffffffffffffff168173ffffffffffffffffffffffffffffffffffffffff161415613cb6576040517f08c379a0000000000000000000000000000000000000000000000000000000008152600401613cad90617fb9565b60405180910390fd5b613cbf81614949565b50565b6000613d26863333888888888080601f016020809104026020016040519081016040528093929190818152602001838380828437600081840152601f19601f8201169050808301925050505050505060405180602001604052806000815250614a0d565b905095945050505050565b6000613d3b6152e6565b905090565b3373ffffffffffffffffffffffffffffffffffffffff168173ffffffffffffffffffffffffffffffffffffffff161415613d7957600080fd5b6000601560008373ffffffffffffffffffffffffffffffffffffffff1673ffffffffffffffffffffffffffffffffffffffff16815260200190815260200160002060003373ffffffffffffffffffffffffffffffffffffffff1673ffffffffffffffffffffffffffffffffffffffff16815260200190815260200160002060006101000a81548160ff0219169083151502179055503373ffffffffffffffffffffffffffffffffffffffff168173ffffffffffffffffffffffffffffffffffffffff167f50546e66e5f44d728365dc3908c63bc5cfeeab470722c1677e3073a6ac294aa160405160405180910390a350565b600082604051602001613e7e9190617c1b565b604051602081830303815290604052805190602001209050731820a4b7618bde71dce8cdc73aab6c95905fad2473ffffffffffffffffffffffffffffffffffffffff166329965a1d3083856040518463ffffffff1660e01b8152600401613ee793929190617c8b565b600060405180830381600087803b158015613f0157600080fd5b505af1158015613f15573d6000803e3d6000fd5b50505050505050565b600180600083604051602001613f349190617c1b565b60405160208183030381529060405280519060200120815260200190815260200160002060006101000a81548160ff02191690831515021790555050565b613f7c828261506c565b15613fbc576040517f08c379a0000000000000000000000000000000000000000000000000000000008152600401613fb390617f59565b60405180910390fd5b60018260000160008373ffffffffffffffffffffffffffffffffffffffff1673ffffffffffffffffffffffffffffffffffffffff16815260200190815260200160002060006101000a81548160ff0219169083151502179055505050565b600033905090565b60005b601a600084815260200190815260200160002080549050811015614134576000601b60008581526020019081526020016000206000601a600087815260200190815260200160002084815481106140a5577f4e487b7100000000000000000000000000000000000000000000000000000000600052603260045260246000fd5b9060005260206000200160009054906101000a900473ffffffffffffffffffffffffffffffffffffffff1673ffffffffffffffffffffffffffffffffffffffff1673ffffffffffffffffffffffffffffffffffffffff16815260200190815260200160002060006101000a81548160ff021916908315150217905550808061412c9061847f565b915050614025565b5060005b81518110156141fd576001601b60008581526020019081526020016000206000848481518110614191577f4e487b7100000000000000000000000000000000000000000000000000000000600052603260045260246000fd5b602002602001015173ffffffffffffffffffffffffffffffffffffffff1673ffffffffffffffffffffffffffffffffffffffff16815260200190815260200160002060006101000a81548160ff02191690831515021790555080806141f59061847f565b915050614138565b5080601a60008481526020019081526020016000209080519060200190614225929190616b54565b505050565b60008173ffffffffffffffffffffffffffffffffffffffff168373ffffffffffffffffffffffffffffffffffffffff1614806142ec5750601560008473ffffffffffffffffffffffffffffffffffffffff1673ffffffffffffffffffffffffffffffffffffffff16815260200190815260200160002060008373ffffffffffffffffffffffffffffffffffffffff1673ffffffffffffffffffffffffffffffffffffffff16815260200190815260200160002060009054906101000a900460ff165b806143585750600860019054906101000a900460ff1680156143575750601760008473ffffffffffffffffffffffffffffffffffffffff1673ffffffffffffffffffffffffffffffffffffffff16815260200190815260200160002060009054906101000a900460ff165b5b905092915050565b6000818361436e9190618378565b905092915050565b600060148054905014156143bf576040517f08c379a00000000000000000000000000000000000000000000000000000000081526004016143b690618039565b60405180910390fd5b6000829050600080600090505b60148054905081101561457057601360008873ffffffffffffffffffffffffffffffffffffffff1673ffffffffffffffffffffffffffffffffffffffff168152602001908152602001600020600060148381548110614454577f4e487b7100000000000000000000000000000000000000000000000000000000600052603260045260246000fd5b906000526020600020015481526020019081526020016000205491508183116144e3576144d9601482815481106144b4577f4e487b7100000000000000000000000000000000000000000000000000000000600052603260045260246000fd5b9060005260206000200154898989878960405180602001604052806000815250614a0d565b5060009250614570565b6000821461455d5761454d60148281548110614528577f4e487b7100000000000000000000000000000000000000000000000000000000600052603260045260246000fd5b9060005260206000200154898989868960405180602001604052806000815250614a0d565b50818361455a9190618378565b92505b80806145689061847f565b9150506143cc565b50600082146145b4576040517f08c379a00000000000000000000000000000000000000000000000000000000081526004016145ab906180d9565b60405180910390fd5b50505050505050565b6145d181600261532890919063ffffffff16565b8073ffffffffffffffffffffffffffffffffffffffff167fe94479a9f7e1952cc78f2d6baab678adc1b772d936c6583def489e524cb6669260405160405180910390a250565b82601360008673ffffffffffffffffffffffffffffffffffffffff1673ffffffffffffffffffffffffffffffffffffffff16815260200190815260200160002060008881526020019081526020016000205410156146aa576040517f08c379a00000000000000000000000000000000000000000000000000000000081526004016146a1906180d9565b60405180910390fd5b6146ba86868660008787876153cf565b6146ca86868660008787876154cd565b6146d58487856155cb565b6146e185858585615bfc565b8373ffffffffffffffffffffffffffffffffffffffff168573ffffffffffffffffffffffffffffffffffffffff16877fce306c3dbc4a497124b5a4f2be8388b41084c1d74663da27ecee1186c00239bf8685604051614741929190618154565b60405180910390a4505050505050565b61477085856000868686604051806020016040528060008152506154cd565b61477c84848484615f09565b614787838684616194565b6147a68585600086868660405180602001604052806000815250616450565b8273ffffffffffffffffffffffffffffffffffffffff168473ffffffffffffffffffffffffffffffffffffffff16867ff0ded82afbb1bb3ff3fc48cb2a26584aa84e4af0bf309c804ecdb94d0f6a98bb8585604051614806929190618184565b60405180910390a45050505050565b6000614821838361422a565b806148c35750601960008373ffffffffffffffffffffffffffffffffffffffff1673ffffffffffffffffffffffffffffffffffffffff168152602001908152602001600020600085815260200190815260200160002060008473ffffffffffffffffffffffffffffffffffffffff1673ffffffffffffffffffffffffffffffffffffffff16815260200190815260200160002060009054906101000a900460ff165b806149405750600860019054906101000a900460ff16801561493f5750601b600085815260200190815260200160002060008473ffffffffffffffffffffffffffffffffffffffff1673ffffffffffffffffffffffffffffffffffffffff16815260200190815260200160002060009054906101000a900460ff165b5b90509392505050565b60008060009054906101000a900473ffffffffffffffffffffffffffffffffffffffff169050816000806101000a81548173ffffffffffffffffffffffffffffffffffffffff021916908373ffffffffffffffffffffffffffffffffffffffff1602179055508173ffffffffffffffffffffffffffffffffffffffff168173ffffffffffffffffffffffffffffffffffffffff167f8be0079c531659141344cd1fd0a4f28419497f9722a3daafe3b4186f6b6457e060405160405180910390a35050565b600083601360008873ffffffffffffffffffffffffffffffffffffffff1673ffffffffffffffffffffffffffffffffffffffff16815260200190815260200160002060008a8152602001908152602001600020541015614aa2576040517f08c379a0000000000000000000000000000000000000000000000000000000008152600401614a99906180d9565b60405180910390fd5b60008890506000835114158015614abb57506040845110155b15614acd57614aca898561654e565b90505b614adc898989898989896153cf565b614aeb898989898989896154cd565b614af6878a876155cb565b614b018787876165a0565b614b0c868287616194565b614b1b81898989898989616450565b8573ffffffffffffffffffffffffffffffffffffffff168773ffffffffffffffffffffffffffffffffffffffff168a7fff4e9a26af4eb73b8bacfaa4abd4fea03d9448e7b912dc5ff4019048875aa2d48b898989604051614b7f9493929190617cc2565b60405180910390a4888114614bc85780897f67c8ba31d2dd11f1384577b3405b04ed91eed1231e408432ad2458cab37b2fa187604051614bbf9190618139565b60405180910390a35b80915050979650505050505050565b614c166040518060400160405280600a81526020017f4552433230546f6b656e0000000000000000000000000000000000000000000081525083613e6b565b614c556040518060400160405280600c81526020017f45524331343030546f6b656e000000000000000000000000000000000000000081525083613e6b565b8015614c77576001600860006101000a81548160ff0219169083151502179055505b5050565b60006014805490501415614cc4576040517f08c379a0000000000000000000000000000000000000000000000000000000008152600401614cbb90618039565b60405180910390fd5b6000829050600080600090505b601480549050811015614e6857601360008773ffffffffffffffffffffffffffffffffffffffff1673ffffffffffffffffffffffffffffffffffffffff168152602001908152602001600020600060148381548110614d59577f4e487b7100000000000000000000000000000000000000000000000000000000600052603260045260246000fd5b90600052602060002001548152602001908152602001600020549150818311614de657614ddd60148281548110614db9577f4e487b7100000000000000000000000000000000000000000000000000000000600052603260045260246000fd5b90600052602060002001548888868860405180602001604052806000815250614617565b60009250614e68565b614e4760148281548110614e23577f4e487b7100000000000000000000000000000000000000000000000000000000600052603260045260246000fd5b90600052602060002001548888858860405180602001604052806000815250614617565b8183614e539190618378565b92508080614e609061847f565b915050614cd1565b5060008214614eac576040517f08c379a0000000000000000000000000000000000000000000000000000000008152600401614ea3906180d9565b60405180910390fd5b505050505050565b614ec8816002613f7290919063ffffffff16565b8073ffffffffffffffffffffffffffffffffffffffff167f6ae172837ea30b801fbfcdd4108aa1d5bf8ff775444fd70256b44e6bf3dfc3f660405160405180910390a250565b6000614f1a30866168be565b9050600073ffffffffffffffffffffffffffffffffffffffff168173ffffffffffffffffffffffffffffffffffffffff1614158015614f565750835b15614fcc57614f6481612ec9565b15614f7357614f72816145bd565b5b6000601760008373ffffffffffffffffffffffffffffffffffffffff1673ffffffffffffffffffffffffffffffffffffffff16815260200190815260200160002060006101000a81548160ff0219169083151502179055505b614fd68587613e6b565b828015614fe95750614fe786612ec9565b155b15614ff857614ff786614eb4565b5b8115615057576001601760008873ffffffffffffffffffffffffffffffffffffffff1673ffffffffffffffffffffffffffffffffffffffff16815260200190815260200160002060006101000a81548160ff0219169083151502179055505b505050505050565b6000804690508091505090565b60008073ffffffffffffffffffffffffffffffffffffffff168273ffffffffffffffffffffffffffffffffffffffff1614156150dd576040517f08c379a00000000000000000000000000000000000000000000000000000000081526004016150d490618099565b60405180910390fd5b8260000160008373ffffffffffffffffffffffffffffffffffffffff1673ffffffffffffffffffffffffffffffffffffffff16815260200190815260200160002060009054906101000a900460ff16905092915050565b60005b6016805490508110156152135760006017600060168481548110615184577f4e487b7100000000000000000000000000000000000000000000000000000000600052603260045260246000fd5b9060005260206000200160009054906101000a900473ffffffffffffffffffffffffffffffffffffffff1673ffffffffffffffffffffffffffffffffffffffff1673ffffffffffffffffffffffffffffffffffffffff16815260200190815260200160002060006101000a81548160ff021916908315150217905550808061520b9061847f565b915050615137565b5060005b81518110156152cb5760016017600084848151811061525f577f4e487b7100000000000000000000000000000000000000000000000000000000600052603260045260246000fd5b602002602001015173ffffffffffffffffffffffffffffffffffffffff1673ffffffffffffffffffffffffffffffffffffffff16815260200190815260200160002060006101000a81548160ff02191690831515021790555080806152c39061847f565b915050615217565b5080601690805190602001906152e2929190616b54565b5050565b600080600360006152f561505f565b81526020019081526020016000205490506000801b81146153195780915050615325565b615321616992565b9150505b90565b615332828261506c565b615371576040517f08c379a000000000000000000000000000000000000000000000000000000000815260040161536890618059565b60405180910390fd5b60008260000160008373ffffffffffffffffffffffffffffffffffffffff1673ffffffffffffffffffffffffffffffffffffffff16815260200190815260200160002060006101000a81548160ff0219169083151502179055505050565b6000615410866040518060400160405280601381526020017f45524331343030546f6b656e7353656e646572000000000000000000000000008152506168be565b9050600073ffffffffffffffffffffffffffffffffffffffff168173ffffffffffffffffffffffffffffffffffffffff16146154c3578073ffffffffffffffffffffffffffffffffffffffff16634e755a546000368b8b8b8b8b8b8b6040518a63ffffffff1660e01b815260040161549099989796959493929190617de2565b600060405180830381600087803b1580156154aa57600080fd5b505af11580156154be573d6000803e3d6000fd5b505050505b5050505050505050565b600061550e306040518060400160405280601681526020017f45524331343030546f6b656e7356616c696461746f72000000000000000000008152506168be565b9050600073ffffffffffffffffffffffffffffffffffffffff168173ffffffffffffffffffffffffffffffffffffffff16146155c1578073ffffffffffffffffffffffffffffffffffffffff1663520faa766000368b8b8b8b8b8b8b6040518a63ffffffff1660e01b815260040161558e99989796959493929190617de2565b600060405180830381600087803b1580156155a857600080fd5b505af11580156155bc573d6000803e3d6000fd5b505050505b5050505050505050565b61562e81601360008673ffffffffffffffffffffffffffffffffffffffff1673ffffffffffffffffffffffffffffffffffffffff16815260200190815260200160002060008581526020019081526020016000205461436090919063ffffffff16565b601360008573ffffffffffffffffffffffffffffffffffffffff1673ffffffffffffffffffffffffffffffffffffffff1681526020019081526020016000206000848152602001908152602001600020819055506156a881601060008581526020019081526020016000205461436090919063ffffffff16565b6010600084815260200190815260200160002081905550600060106000848152602001908152602001600020541415615867576000600f600084815260200190815260200160002054905060008111615736576040517f08c379a000000000000000000000000000000000000000000000000000000000815260040161572d90617f99565b60405180910390fd5b6000600e6001600e8054905061574c9190618378565b81548110615783577f4e487b7100000000000000000000000000000000000000000000000000000000600052603260045260246000fd5b9060005260206000200154905080600e6001846157a09190618378565b815481106157d7577f4e487b7100000000000000000000000000000000000000000000000000000000600052603260045260246000fd5b906000526020600020018190555081600f600083815260200190815260200160002081905550600e805480615835577f4e487b7100000000000000000000000000000000000000000000000000000000600052603160045260246000fd5b600190038181906000526020600020016000905590556000600f60008681526020019081526020016000208190555050505b6000601360008573ffffffffffffffffffffffffffffffffffffffff1673ffffffffffffffffffffffffffffffffffffffff1681526020019081526020016000206000848152602001908152602001600020541415615bf7576000601260008573ffffffffffffffffffffffffffffffffffffffff1673ffffffffffffffffffffffffffffffffffffffff168152602001908152602001600020600084815260200190815260200160002054905060008111615958576040517f08c379a000000000000000000000000000000000000000000000000000000000815260040161594f90617f99565b60405180910390fd5b6000601160008673ffffffffffffffffffffffffffffffffffffffff1673ffffffffffffffffffffffffffffffffffffffff1681526020019081526020016000206001601160008873ffffffffffffffffffffffffffffffffffffffff1673ffffffffffffffffffffffffffffffffffffffff168152602001908152602001600020805490506159e89190618378565b81548110615a1f577f4e487b7100000000000000000000000000000000000000000000000000000000600052603260045260246000fd5b9060005260206000200154905080601160008773ffffffffffffffffffffffffffffffffffffffff1673ffffffffffffffffffffffffffffffffffffffff168152602001908152602001600020600184615a799190618378565b81548110615ab0577f4e487b7100000000000000000000000000000000000000000000000000000000600052603260045260246000fd5b906000526020600020018190555081601260008773ffffffffffffffffffffffffffffffffffffffff1673ffffffffffffffffffffffffffffffffffffffff168152602001908152602001600020600083815260200190815260200160002081905550601160008673ffffffffffffffffffffffffffffffffffffffff1673ffffffffffffffffffffffffffffffffffffffff168152602001908152602001600020805480615b88577f4e487b7100000000000000000000000000000000000000000000000000000000600052603160045260246000fd5b600190038181906000526020600020016000905590556000601260008773ffffffffffffffffffffffffffffffffffffffff1673ffffffffffffffffffffffffffffffffffffffff16815260200190815260200160002060008681526020019081526020016000208190555050505b505050565b600860009054906101000a900460ff1615615c4c576040517f08c379a0000000000000000000000000000000000000000000000000000000008152600401615c4390617f39565b60405180910390fd5b615c55826169cb565b615c94576040517f08c379a0000000000000000000000000000000000000000000000000000000008152600401615c8b90617f99565b60405180910390fd5b600073ffffffffffffffffffffffffffffffffffffffff168373ffffffffffffffffffffffffffffffffffffffff161415615d04576040517f08c379a0000000000000000000000000000000000000000000000000000000008152600401615cfb90617ff9565b60405180910390fd5b81600960008573ffffffffffffffffffffffffffffffffffffffff1673ffffffffffffffffffffffffffffffffffffffff168152602001908152602001600020541015615d86576040517f08c379a0000000000000000000000000000000000000000000000000000000008152600401615d7d906180d9565b60405180910390fd5b615dd882600960008673ffffffffffffffffffffffffffffffffffffffff1673ffffffffffffffffffffffffffffffffffffffff1681526020019081526020016000205461436090919063ffffffff16565b600960008573ffffffffffffffffffffffffffffffffffffffff1673ffffffffffffffffffffffffffffffffffffffff16815260200190815260200160002081905550615e308260075461436090919063ffffffff16565b6007819055508273ffffffffffffffffffffffffffffffffffffffff168473ffffffffffffffffffffffffffffffffffffffff167fb7d0d6b60740753e9f16692a2f479472a1385aec2420fa43225b02f2ffa1afe78484604051615e95929190618154565b60405180910390a3600073ffffffffffffffffffffffffffffffffffffffff168373ffffffffffffffffffffffffffffffffffffffff167fddf252ad1be2c89b69c2b068fc378daa952ba7f163c4a11628f55a4df523b3ef84604051615efb9190618139565b60405180910390a350505050565b600860009054906101000a900460ff1615615f59576040517f08c379a0000000000000000000000000000000000000000000000000000000008152600401615f5090617f39565b60405180910390fd5b615f62826169cb565b615fa1576040517f08c379a0000000000000000000000000000000000000000000000000000000008152600401615f9890617f99565b60405180910390fd5b600073ffffffffffffffffffffffffffffffffffffffff168373ffffffffffffffffffffffffffffffffffffffff161415616011576040517f08c379a0000000000000000000000000000000000000000000000000000000008152600401616008906180f9565b60405180910390fd5b616026826007546169ff90919063ffffffff16565b60078190555061607e82600960008673ffffffffffffffffffffffffffffffffffffffff1673ffffffffffffffffffffffffffffffffffffffff168152602001908152602001600020546169ff90919063ffffffff16565b600960008573ffffffffffffffffffffffffffffffffffffffff1673ffffffffffffffffffffffffffffffffffffffff168152602001908152602001600020819055508273ffffffffffffffffffffffffffffffffffffffff168473ffffffffffffffffffffffffffffffffffffffff167f0e9905d62635f049c2f4e11678ebf9dc3d1f8c4a653e290759b772e47ba00d008484604051616120929190618154565b60405180910390a38273ffffffffffffffffffffffffffffffffffffffff16600073ffffffffffffffffffffffffffffffffffffffff167fddf252ad1be2c89b69c2b068fc378daa952ba7f163c4a11628f55a4df523b3ef846040516161869190618139565b60405180910390a350505050565b6000811461644b576000601260008573ffffffffffffffffffffffffffffffffffffffff1673ffffffffffffffffffffffffffffffffffffffff16815260200190815260200160002060008481526020019081526020016000205414156162f357601160008473ffffffffffffffffffffffffffffffffffffffff1673ffffffffffffffffffffffffffffffffffffffff168152602001908152602001600020829080600181540180825580915050600190039060005260206000200160009091909190915055601160008473ffffffffffffffffffffffffffffffffffffffff1673ffffffffffffffffffffffffffffffffffffffff16815260200190815260200160002080549050601260008573ffffffffffffffffffffffffffffffffffffffff1673ffffffffffffffffffffffffffffffffffffffff1681526020019081526020016000206000848152602001908152602001600020819055505b61635681601360008673ffffffffffffffffffffffffffffffffffffffff1673ffffffffffffffffffffffffffffffffffffffff1681526020019081526020016000206000858152602001908152602001600020546169ff90919063ffffffff16565b601360008573ffffffffffffffffffffffffffffffffffffffff1673ffffffffffffffffffffffffffffffffffffffff1681526020019081526020016000206000848152602001908152602001600020819055506000600f600084815260200190815260200160002054141561640d57600e829080600181540180825580915050600190039060005260206000200160009091909190915055600e80549050600f6000848152602001908152602001600020819055505b6164338160106000858152602001908152602001600020546169ff90919063ffffffff16565b60106000848152602001908152602001600020819055505b505050565b6000616491856040518060400160405280601681526020017f45524331343030546f6b656e73526563697069656e74000000000000000000008152506168be565b9050600073ffffffffffffffffffffffffffffffffffffffff168173ffffffffffffffffffffffffffffffffffffffff1614616544578073ffffffffffffffffffffffffffffffffffffffff1663f464b5766000368b8b8b8b8b8b8b6040518a63ffffffff1660e01b815260040161651199989796959493929190617de2565b600060405180830381600087803b15801561652b57600080fd5b505af115801561653f573d6000803e3d6000fd5b505050505b5050505050505050565b6000807fffffffffffffffffffffffffffffffffffffffffffffffffffffffffffffffff60001b9050600060208401519050818114156165945760408401519250616598565b8492505b505092915050565b600860009054906101000a900460ff16156165f0576040517f08c379a00000000000000000000000000000000000000000000000000000000081526004016165e790617f39565b60405180910390fd5b6165f9816169cb565b616638576040517f08c379a000000000000000000000000000000000000000000000000000000000815260040161662f90617f99565b60405180910390fd5b600073ffffffffffffffffffffffffffffffffffffffff168273ffffffffffffffffffffffffffffffffffffffff1614156166a8576040517f08c379a000000000000000000000000000000000000000000000000000000000815260040161669f906180f9565b60405180910390fd5b80600960008573ffffffffffffffffffffffffffffffffffffffff1673ffffffffffffffffffffffffffffffffffffffff16815260200190815260200160002054101561672a576040517f08c379a0000000000000000000000000000000000000000000000000000000008152600401616721906180d9565b60405180910390fd5b61677c81600960008673ffffffffffffffffffffffffffffffffffffffff1673ffffffffffffffffffffffffffffffffffffffff1681526020019081526020016000205461436090919063ffffffff16565b600960008573ffffffffffffffffffffffffffffffffffffffff1673ffffffffffffffffffffffffffffffffffffffff1681526020019081526020016000208190555061681181600960008573ffffffffffffffffffffffffffffffffffffffff1673ffffffffffffffffffffffffffffffffffffffff168152602001908152602001600020546169ff90919063ffffffff16565b600960008473ffffffffffffffffffffffffffffffffffffffff1673ffffffffffffffffffffffffffffffffffffffff168152602001908152602001600020819055508173ffffffffffffffffffffffffffffffffffffffff168373ffffffffffffffffffffffffffffffffffffffff167fddf252ad1be2c89b69c2b068fc378daa952ba7f163c4a11628f55a4df523b3ef836040516168b19190618139565b60405180910390a3505050565b600080826040516020016168d29190617c1b565b604051602081830303815290604052805190602001209050731820a4b7618bde71dce8cdc73aab6c95905fad2473ffffffffffffffffffffffffffffffffffffffff1663aabbb8ca85836040518363ffffffff1660e01b8152600401616939929190617c62565b60206040518083038186803b15801561695157600080fd5b505afa158015616965573d6000803e3d6000fd5b505050506040513d601f19601f820116820180604052508101906169899190616dd2565b91505092915050565b60008061699d61505f565b905060006169a9612e1d565b9050806003600084815260200190815260200160002081905550809250505090565b6000816169f76006546169e960065486616a1590919063ffffffff16565b616a2b90919063ffffffff16565b149050919050565b60008183616a0d9190618297565b905092915050565b60008183616a2391906182ed565b905092915050565b60008183616a39919061831e565b905092915050565b828054616a4d9061844d565b90600052602060002090601f016020900481019282616a6f5760008555616ab6565b82601f10616a8857805160ff1916838001178555616ab6565b82800160010185558215616ab6579182015b82811115616ab5578251825591602001919060010190616a9a565b5b509050616ac39190616bde565b5090565b508054616ad39061844d565b6000825580601f10616ae55750616b04565b601f016020900490600052602060002090810190616b039190616bde565b5b50565b828054828255906000526020600020908101928215616b43579160200282015b82811115616b42578235825591602001919060010190616b27565b5b509050616b509190616bfb565b5090565b828054828255906000526020600020908101928215616bcd579160200282015b82811115616bcc5782518260006101000a81548173ffffffffffffffffffffffffffffffffffffffff021916908373ffffffffffffffffffffffffffffffffffffffff16021790555091602001919060010190616b74565b5b509050616bda9190616bde565b5090565b5b80821115616bf7576000816000905550600101616bdf565b5090565b5b80821115616c14576000816000905550600101616bfc565b5090565b600081359050616c2781618566565b92915050565b600081519050616c3c81618566565b92915050565b60008083601f840112616c5457600080fd5b8235905067ffffffffffffffff811115616c6d57600080fd5b602083019150836020820283011115616c8557600080fd5b9250929050565b60008083601f840112616c9e57600080fd5b8235905067ffffffffffffffff811115616cb757600080fd5b602083019150836020820283011115616ccf57600080fd5b9250929050565b600081359050616ce58161857d565b92915050565b600081359050616cfa81618594565b92915050565b60008083601f840112616d1257600080fd5b8235905067ffffffffffffffff811115616d2b57600080fd5b602083019150836001820283011115616d4357600080fd5b9250929050565b60008083601f840112616d5c57600080fd5b8235905067ffffffffffffffff811115616d7557600080fd5b602083019150836001820283011115616d8d57600080fd5b9250929050565b600081359050616da3816185ab565b92915050565b600060208284031215616dbb57600080fd5b6000616dc984828501616c18565b91505092915050565b600060208284031215616de457600080fd5b6000616df284828501616c2d565b91505092915050565b60008060408385031215616e0e57600080fd5b6000616e1c85828601616c18565b9250506020616e2d85828601616c18565b9150509250929050565b600080600060608486031215616e4c57600080fd5b6000616e5a86828701616c18565b9350506020616e6b86828701616c18565b9250506040616e7c86828701616d94565b9150509250925092565b600080600080600060808688031215616e9e57600080fd5b6000616eac88828901616c18565b9550506020616ebd88828901616c18565b9450506040616ece88828901616d94565b935050606086013567ffffffffffffffff811115616eeb57600080fd5b616ef788828901616d00565b92509250509295509295909350565b60008060408385031215616f1957600080fd5b6000616f2785828601616c18565b9250506020616f3885828601616cd6565b9150509250929050565b60008060008060008060a08789031215616f5b57600080fd5b6000616f6989828a01616c18565b965050602087013567ffffffffffffffff811115616f8657600080fd5b616f9289828a01616d4a565b95509550506040616fa589828a01616cd6565b9350506060616fb689828a01616cd6565b9250506080616fc789828a01616cd6565b9150509295509295509295565b60008060408385031215616fe757600080fd5b6000616ff585828601616c18565b925050602061700685828601616d94565b9150509250929050565b6000806000806060858703121561702657600080fd5b600061703487828801616c18565b945050602061704587828801616d94565b935050604085013567ffffffffffffffff81111561706257600080fd5b61706e87828801616d00565b925092505092959194509250565b6000806020838503121561708f57600080fd5b600083013567ffffffffffffffff8111156170a957600080fd5b6170b585828601616c42565b92509250509250929050565b600080602083850312156170d457600080fd5b600083013567ffffffffffffffff8111156170ee57600080fd5b6170fa85828601616c8c565b92509250509250929050565b60006020828403121561711857600080fd5b600061712684828501616ceb565b91505092915050565b6000806040838503121561714257600080fd5b600061715085828601616ceb565b925050602061716185828601616c18565b9150509250929050565b60008060006060848603121561718057600080fd5b600061718e86828701616ceb565b935050602061719f86828701616c18565b92505060406171b086828701616c18565b9150509250925092565b60008060008060008060008060c0898b0312156171d657600080fd5b60006171e48b828c01616ceb565b98505060206171f58b828c01616c18565b97505060406172068b828c01616c18565b96505060606172178b828c01616d94565b955050608089013567ffffffffffffffff81111561723457600080fd5b6172408b828c01616d00565b945094505060a089013567ffffffffffffffff81111561725f57600080fd5b61726b8b828c01616d00565b92509250509295985092959890939650565b60008060006060848603121561729257600080fd5b60006172a086828701616ceb565b93505060206172b186828701616c18565b92505060406172c286828701616d94565b9150509250925092565b6000806000806000608086880312156172e457600080fd5b60006172f288828901616ceb565b955050602061730388828901616c18565b945050604061731488828901616d94565b935050606086013567ffffffffffffffff81111561733157600080fd5b61733d88828901616d00565b92509250509295509295909350565b60008060006040848603121561736157600080fd5b600061736f86828701616ceb565b935050602084013567ffffffffffffffff81111561738c57600080fd5b61739886828701616c42565b92509250509250925092565b600080600080606085870312156173ba57600080fd5b60006173c887828801616ceb565b945050602085013567ffffffffffffffff8111156173e557600080fd5b6173f187828801616d4a565b9350935050604061740487828801616ceb565b91505092959194509250565b6000806000806060858703121561742657600080fd5b600061743487828801616ceb565b945050602061744587828801616d94565b935050604085013567ffffffffffffffff81111561746257600080fd5b61746e87828801616d00565b925092505092959194509250565b60006020828403121561748e57600080fd5b600061749c84828501616d94565b91505092915050565b6000806000604084860312156174ba57600080fd5b60006174c886828701616d94565b935050602084013567ffffffffffffffff8111156174e557600080fd5b6174f186828701616d00565b92509250509250925092565b6000617509838361752d565b60208301905092915050565b60006175218383617616565b60208301905092915050565b617536816183ac565b82525050565b617545816183ac565b82525050565b600061755682618202565b6175608185618248565b935061756b836181e2565b8060005b8381101561759c57815161758388826174fd565b975061758e8361822e565b92505060018101905061756f565b5085935050505092915050565b60006175b48261820d565b6175be8185618259565b93506175c9836181f2565b8060005b838110156175fa5781516175e18882617515565b97506175ec8361823b565b9250506001810190506175cd565b5085935050505092915050565b617610816183be565b82525050565b61761f816183ca565b82525050565b61762e816183ca565b82525050565b6000617640838561826a565b935061764d83858461840b565b61765683618555565b840190509392505050565b600061766c82618218565b617676818561826a565b935061768681856020860161841a565b61768f81618555565b840191505092915050565b60006176a6838561827b565b93506176b383858461840b565b6176bc83618555565b840190509392505050565b60006176d282618223565b6176dc818561827b565b93506176ec81856020860161841a565b6176f581618555565b840191505092915050565b600061770b82618223565b617715818561828c565b935061772581856020860161841a565b80840191505092915050565b600061773e60028361827b565b91507f35340000000000000000000000000000000000000000000000000000000000006000830152602082019050919050565b600061777e601f8361827b565b91507f526f6c65733a206163636f756e7420616c72656164792068617320726f6c65006000830152602082019050919050565b60006177be600c8361827b565b91507f556e617574686f72697a656400000000000000000000000000000000000000006000830152602082019050919050565b60006177fe60028361827b565b91507f35300000000000000000000000000000000000000000000000000000000000006000830152602082019050919050565b600061783e60268361827b565b91507f4f776e61626c653a206e6577206f776e657220697320746865207a65726f206160008301527f64647265737300000000000000000000000000000000000000000000000000006020830152604082019050919050565b60006178a4600d8361827b565b91507f496e76616c696420696e646578000000000000000000000000000000000000006000830152602082019050919050565b60006178e460028361827b565b91507f35360000000000000000000000000000000000000000000000000000000000006000830152602082019050919050565b600061792460028361827b565b91507f35380000000000000000000000000000000000000000000000000000000000006000830152602082019050919050565b600061796460028361827b565b91507f35350000000000000000000000000000000000000000000000000000000000006000830152602082019050919050565b60006179a460218361827b565b91507f526f6c65733a206163636f756e7420646f6573206e6f74206861766520726f6c60008301527f65000000000000000000000000000000000000000000000000000000000000006020830152604082019050919050565b6000617a0a60208361827b565b91507f4f776e61626c653a2063616c6c6572206973206e6f7420746865206f776e65726000830152602082019050919050565b6000617a4a60228361827b565b91507f526f6c65733a206163636f756e7420697320746865207a65726f20616464726560008301527f73730000000000000000000000000000000000000000000000000000000000006020830152604082019050919050565b6000617ab060148361828c565b91507f455243313832305f4143434550545f4d414749430000000000000000000000006000830152601482019050919050565b6000617af060028361827b565b91507f35330000000000000000000000000000000000000000000000000000000000006000830152602082019050919050565b6000617b3060008361826a565b9150600082019050919050565b6000617b4a60028361827b565b91507f35320000000000000000000000000000000000000000000000000000000000006000830152602082019050919050565b6000617b8a60028361827b565b91507f35370000000000000000000000000000000000000000000000000000000000006000830152602082019050919050565b6000617bca60158361827b565b91507f446f63756d656e7420646f65736e7420657869737400000000000000000000006000830152602082019050919050565b617c06816183f4565b82525050565b617c15816183fe565b82525050565b6000617c278284617700565b915081905092915050565b6000617c3d82617aa3565b9150819050919050565b6000602082019050617c5c600083018461753c565b92915050565b6000604082019050617c77600083018561753c565b617c846020830184617625565b9392505050565b6000606082019050617ca0600083018661753c565b617cad6020830185617625565b617cba604083018461753c565b949350505050565b6000608082019050617cd7600083018761753c565b617ce46020830186617bfd565b8181036040830152617cf68185617661565b90508181036060830152617d0a8184617661565b905095945050505050565b60006020820190508181036000830152617d2f818461754b565b905092915050565b60006020820190508181036000830152617d5181846175a9565b905092915050565b6000602082019050617d6e6000830184617607565b92915050565b6000602082019050617d896000830184617625565b92915050565b600060a082019050617da46000830188617625565b617db16020830187617625565b617dbe6040830186617625565b617dcb6060830185617bfd565b617dd8608083018461753c565b9695505050505050565b6000610100820190508181036000830152617dfe818b8d617634565b9050617e0d602083018a617625565b617e1a604083018961753c565b617e27606083018861753c565b617e34608083018761753c565b617e4160a0830186617bfd565b81810360c0830152617e538185617661565b905081810360e0830152617e678184617661565b90509a9950505050505050505050565b60006040820190508181036000830152617e9281858761769a565b9050617ea16020830184617625565b949350505050565b60006020820190508181036000830152617ec381846176c7565b905092915050565b60006040820190508181036000830152617ee581856176c7565b9050617ef46020830184617625565b9392505050565b60006060820190508181036000830152617f1581866176c7565b9050617f246020830185617625565b617f316040830184617bfd565b949350505050565b60006020820190508181036000830152617f5281617731565b9050919050565b60006020820190508181036000830152617f7281617771565b9050919050565b60006020820190508181036000830152617f92816177b1565b9050919050565b60006020820190508181036000830152617fb2816177f1565b9050919050565b60006020820190508181036000830152617fd281617831565b9050919050565b60006020820190508181036000830152617ff281617897565b9050919050565b60006020820190508181036000830152618012816178d7565b9050919050565b6000602082019050818103600083015261803281617917565b9050919050565b6000602082019050818103600083015261805281617957565b9050919050565b6000602082019050818103600083015261807281617997565b9050919050565b60006020820190508181036000830152618092816179fd565b9050919050565b600060208201905081810360008301526180b281617a3d565b9050919050565b600060208201905081810360008301526180d281617ae3565b9050919050565b600060208201905081810360008301526180f281617b3d565b9050919050565b6000602082019050818103600083015261811281617b7d565b9050919050565b6000602082019050818103600083015261813281617bbd565b9050919050565b600060208201905061814e6000830184617bfd565b92915050565b60006040820190506181696000830185617bfd565b818103602083015261817b8184617661565b90509392505050565b60006060820190506181996000830185617bfd565b81810360208301526181ab8184617661565b905081810360408301526181be81617b23565b90509392505050565b60006020820190506181dc6000830184617c0c565b92915050565b6000819050602082019050919050565b6000819050602082019050919050565b600081519050919050565b600081519050919050565b600081519050919050565b600081519050919050565b6000602082019050919050565b6000602082019050919050565b600082825260208201905092915050565b600082825260208201905092915050565b600082825260208201905092915050565b600082825260208201905092915050565b600081905092915050565b60006182a2826183f4565b91506182ad836183f4565b9250827fffffffffffffffffffffffffffffffffffffffffffffffffffffffffffffffff038211156182e2576182e16184c8565b5b828201905092915050565b60006182f8826183f4565b9150618303836183f4565b925082618313576183126184f7565b5b828204905092915050565b6000618329826183f4565b9150618334836183f4565b9250817fffffffffffffffffffffffffffffffffffffffffffffffffffffffffffffffff048311821515161561836d5761836c6184c8565b5b828202905092915050565b6000618383826183f4565b915061838e836183f4565b9250828210156183a1576183a06184c8565b5b828203905092915050565b60006183b7826183d4565b9050919050565b60008115159050919050565b6000819050919050565b600073ffffffffffffffffffffffffffffffffffffffff82169050919050565b6000819050919050565b600060ff82169050919050565b82818337600083830152505050565b60005b8381101561843857808201518184015260208101905061841d565b83811115618447576000848401525b50505050565b6000600282049050600182168061846557607f821691505b6020821081141561847957618478618526565b5b50919050565b600061848a826183f4565b91507fffffffffffffffffffffffffffffffffffffffffffffffffffffffffffffffff8214156184bd576184bc6184c8565b5b600182019050919050565b7f4e487b7100000000000000000000000000000000000000000000000000000000600052601160045260246000fd5b7f4e487b7100000000000000000000000000000000000000000000000000000000600052601260045260246000fd5b7f4e487b7100000000000000000000000000000000000000000000000000000000600052602260045260246000fd5b6000601f19601f8301169050919050565b61856f816183ac565b811461857a57600080fd5b50565b618586816183be565b811461859157600080fd5b50565b61859d816183ca565b81146185a857600080fd5b50565b6185b4816183f4565b81146185bf57600080fd5b5056fea2646970667358221220306d2c8c9651800732af0cd4dee15a7e4d61ebf8ec90097aecab32a7fe00e37264736f6c63430008000033",
  "immutableReferences": {},
  "source": "// SPDX-License-Identifier: Apache-2.0\npragma solidity ^0.8.0;\n\nimport \"./ERC1400/ERC1400.sol\";\n\ncontract SimpleStorage is ERC1400 {\n    uint256 public simpleData;\n\n    /**\n     * @dev Initialize ERC1400 + register the contract implementation in ERC1820Registry.\n     * @param tokenName Name of the token.\n     * @param tokenSymbol Symbol of the token.\n     * @param tokenGranularity Granularity of the token.\n     * @param initialControllers Array of initial controllers.\n     * @param defaultPartitions Partitions chosen by default, when partition is\n     * not specified, like the case ERC20 tranfers.\n     */\n    constructor(\n        string memory tokenName,\n        string memory tokenSymbol,\n        uint256 tokenGranularity,\n        address[] memory initialControllers,\n        bytes32[] memory defaultPartitions\n    )\n        ERC1400(\n            tokenName,\n            tokenSymbol,\n            tokenGranularity,\n            initialControllers,\n            defaultPartitions\n        )\n    {\n        //_addController(msg.sender);\n        // Resto de inicializaciones\n    }\n\n    function setData(uint256 _data) public {\n        simpleData = _data;\n    }\n\n    function getData() public view returns (uint256) {\n        return simpleData;\n    }\n}\n",
  "sourcePath": "/Users/sergio/Library/Mobile Documents/com~apple~CloudDocs/Master-ciberseguridad-y-privacidad/2-Quatrimestre/TFM/project/truffle/contracts/SimpleStorage.sol",
  "compiler": {
    "name": "solc",
    "version": "0.8.0+commit.c7dfd78e.Emscripten.clang"
  },
  "schemaVersion": "3.4.16",
  "updatedAt": "2024-05-03T10:09:43.391Z",
  "networkType": "ethereum",
  "devdoc": {
    "kind": "dev",
    "methods": {
      "allowance(address,address)": {
        "details": "Check the value of tokens that an owner allowed to a spender.",
        "params": {
          "owner": "address The address which owns the funds.",
          "spender": "address The address which will spend the funds."
        },
        "returns": {
          "_0": "A uint256 specifying the value of tokens still available for the spender."
        }
      },
      "allowanceByPartition(bytes32,address,address)": {
        "details": "Check the value of tokens that an owner allowed to a spender.",
        "params": {
          "owner": "address The address which owns the funds.",
          "partition": "Name of the partition.",
          "spender": "address The address which will spend the funds."
        },
        "returns": {
          "_0": "A uint256 specifying the value of tokens still available for the spender."
        }
      },
      "approve(address,uint256)": {
        "details": "Approve the passed address to spend the specified amount of tokens on behalf of 'msg.sender'.",
        "params": {
          "spender": "The address which will spend the funds.",
          "value": "The amount of tokens to be spent."
        },
        "returns": {
          "_0": "A boolean that indicates if the operation was successful."
        }
      },
      "approveByPartition(bytes32,address,uint256)": {
        "details": "Approve the passed address to spend the specified amount of tokens on behalf of 'msg.sender'.",
        "params": {
          "partition": "Name of the partition.",
          "spender": "The address which will spend the funds.",
          "value": "The amount of tokens to be spent."
        },
        "returns": {
          "_0": "A boolean that indicates if the operation was successful."
        }
      },
      "authorizeOperator(address)": {
        "details": "Set a third party operator address as an operator of 'msg.sender' to transfer and redeem tokens on its behalf.",
        "params": {
          "operator": "Address to set as an operator for 'msg.sender'."
        }
      },
      "authorizeOperatorByPartition(bytes32,address)": {
        "details": "Set 'operator' as an operator for 'msg.sender' for a given partition.",
        "params": {
          "operator": "Address to set as an operator for 'msg.sender'.",
          "partition": "Name of the partition."
        }
      },
      "balanceOf(address)": {
        "details": "Get the balance of the account with address 'tokenHolder'.",
        "params": {
          "tokenHolder": "Address for which the balance is returned."
        },
        "returns": {
          "_0": "Amount of token held by 'tokenHolder' in the token contract."
        }
      },
      "balanceOfByPartition(bytes32,address)": {
        "details": "Get balance of a tokenholder for a specific partition.",
        "params": {
          "partition": "Name of the partition.",
          "tokenHolder": "Address for which the balance is returned."
        },
        "returns": {
          "_0": "Amount of token of partition 'partition' held by 'tokenHolder' in the token contract."
        }
      },
      "constructor": {
        "details": "Initialize ERC1400 + register the contract implementation in ERC1820Registry.",
        "params": {
          "defaultPartitions": "Partitions chosen by default, when partition is not specified, like the case ERC20 tranfers.",
          "initialControllers": "Array of initial controllers.",
          "tokenGranularity": "Granularity of the token.",
          "tokenName": "Name of the token.",
          "tokenSymbol": "Symbol of the token."
        }
      },
      "controllers()": {
        "details": "Get the list of controllers as defined by the token contract.",
        "returns": {
          "_0": "List of addresses of all the controllers."
        }
      },
      "controllersByPartition(bytes32)": {
        "details": "Get controllers for a given partition.",
        "params": {
          "partition": "Name of the partition."
        },
        "returns": {
          "_0": "Array of controllers for partition."
        }
      },
      "decimals()": {
        "details": "Get the number of decimals of the token.",
        "returns": {
          "_0": "The number of decimals of the token. For retrocompatibility, decimals are forced to 18 in ERC1400."
        }
      },
      "getDefaultPartitions()": {
        "details": "Get default partitions to transfer from. Function used for ERC20 retrocompatibility. For example, a security token may return the bytes32(\"unrestricted\").",
        "returns": {
          "_0": "Array of default partitions."
        }
      },
      "getDocument(bytes32)": {
        "details": "Access a document associated with the token.",
        "params": {
          "documentName": "Short name (represented as a bytes32) associated to the document."
        },
        "returns": {
          "_0": "Requested document + document hash + document timestamp."
        }
      },
      "granularity()": {
        "details": "Get the smallest part of the token thats not divisible.",
        "returns": {
          "_0": "The smallest non-divisible part of the token."
        }
      },
      "isControllable()": {
        "details": "Know if the token can be controlled by operators. If a token returns 'false' for 'isControllable()'' then it MUST always return 'false' in the future.",
        "returns": {
          "_0": "bool 'true' if the token can still be controlled by operators, 'false' if it can't anymore."
        }
      },
      "isIssuable()": {
        "details": "Know if new tokens can be issued in the future.",
        "returns": {
          "_0": "bool 'true' if tokens can still be issued by the issuer, 'false' if they can't anymore."
        }
      },
      "isOperator(address,address)": {
        "details": "Indicate whether the operator address is an operator of the tokenHolder address.",
        "params": {
          "operator": "Address which may be an operator of tokenHolder.",
          "tokenHolder": "Address of a token holder which may have the operator address as an operator."
        },
        "returns": {
          "_0": "'true' if operator is an operator of 'tokenHolder' and 'false' otherwise."
        }
      },
      "isOperatorForPartition(bytes32,address,address)": {
        "details": "Indicate whether the operator address is an operator of the tokenHolder address for the given partition.",
        "params": {
          "operator": "Address which may be an operator of tokenHolder for the given partition.",
          "partition": "Name of the partition.",
          "tokenHolder": "Address of a token holder which may have the operator address as an operator for the given partition."
        },
        "returns": {
          "_0": "'true' if 'operator' is an operator of 'tokenHolder' for partition 'partition' and 'false' otherwise."
        }
      },
      "issue(address,uint256,bytes)": {
        "details": "Issue tokens from default partition.",
        "params": {
          "data": "Information attached to the issuance, by the issuer.",
          "tokenHolder": "Address for which we want to issue tokens.",
          "value": "Number of tokens issued."
        }
      },
      "issueByPartition(bytes32,address,uint256,bytes)": {
        "details": "Issue tokens from a specific partition.",
        "params": {
          "data": "Information attached to the issuance, by the issuer.",
          "partition": "Name of the partition.",
          "tokenHolder": "Address for which we want to issue tokens.",
          "value": "Number of tokens issued."
        }
      },
      "migrate(address,bool)": {
        "details": "Migrate contract. ===> CAUTION: DEFINITIVE ACTION  This function shall be called once a new version of the smart contract has been created. Once this function is called:  - The address of the new smart contract is set in ERC1820 registry  - If the choice is definitive, the current smart contract is turned off and can never be used again",
        "params": {
          "definitive": "If set to 'true' the contract is turned off definitely.",
          "newContractAddress": "Address of the new version of the smart contract."
        }
      },
      "name()": {
        "details": "Get the name of the token, e.g., \"MyToken\".",
        "returns": {
          "_0": "Name of the token."
        }
      },
      "operatorRedeemByPartition(bytes32,address,uint256,bytes)": {
        "details": "Redeem tokens of a specific partition.",
        "params": {
          "operatorData": "Information attached to the redemption, by the operator.",
          "partition": "Name of the partition.",
          "tokenHolder": "Address for which we want to redeem tokens.",
          "value": "Number of tokens redeemed"
        }
      },
      "operatorTransferByPartition(bytes32,address,address,uint256,bytes,bytes)": {
        "details": "Transfer tokens from a specific partition through an operator.",
        "params": {
          "data": "Information attached to the transfer. [CAN CONTAIN THE DESTINATION PARTITION]",
          "from": "Token holder.",
          "operatorData": "Information attached to the transfer, by the operator.",
          "partition": "Name of the partition.",
          "to": "Token recipient.",
          "value": "Number of tokens to transfer."
        },
        "returns": {
          "_0": "Destination partition."
        }
      },
      "owner()": {
        "details": "Returns the address of the current owner."
      },
      "partitionsOf(address)": {
        "details": "Get partitions index of a tokenholder.",
        "params": {
          "tokenHolder": "Address for which the partitions index are returned."
        },
        "returns": {
          "_0": "Array of partitions index of 'tokenHolder'."
        }
      },
      "redeem(uint256,bytes)": {
        "details": "Redeem the amount of tokens from the address 'msg.sender'.",
        "params": {
          "data": "Information attached to the redemption, by the token holder.",
          "value": "Number of tokens to redeem."
        }
      },
      "redeemByPartition(bytes32,uint256,bytes)": {
        "details": "Redeem tokens of a specific partition.",
        "params": {
          "data": "Information attached to the redemption, by the redeemer.",
          "partition": "Name of the partition.",
          "value": "Number of tokens redeemed."
        }
      },
      "redeemFrom(address,uint256,bytes)": {
        "details": "Redeem the amount of tokens on behalf of the address from.",
        "params": {
          "data": "Information attached to the redemption.",
          "from": "Token holder whose tokens will be redeemed (or address(0) to set from to msg.sender).",
          "value": "Number of tokens to redeem."
        }
      },
      "renounceControl()": {
        "details": "Definitely renounce the possibility to control tokens on behalf of tokenHolders. Once set to false, '_isControllable' can never be set to 'true' again."
      },
      "renounceIssuance()": {
        "details": "Definitely renounce the possibility to issue new tokens. Once set to false, '_isIssuable' can never be set to 'true' again."
      },
      "renounceOwnership()": {
        "details": "Leaves the contract without owner. It will not be possible to call `onlyOwner` functions anymore. Can only be called by the current owner. NOTE: Renouncing ownership will leave the contract without an owner, thereby removing any functionality that is only available to the owner."
      },
      "revokeOperator(address)": {
        "details": "Remove the right of the operator address to be an operator for 'msg.sender' and to transfer and redeem tokens on its behalf.",
        "params": {
          "operator": "Address to rescind as an operator for 'msg.sender'."
        }
      },
      "revokeOperatorByPartition(bytes32,address)": {
        "details": "Remove the right of the operator address to be an operator on a given partition for 'msg.sender' and to transfer and redeem tokens on its behalf.",
        "params": {
          "operator": "Address to rescind as an operator on given partition for 'msg.sender'.",
          "partition": "Name of the partition."
        }
      },
      "setControllers(address[])": {
        "details": "Set list of token controllers.",
        "params": {
          "operators": "Controller addresses."
        }
      },
      "setDefaultPartitions(bytes32[])": {
        "details": "Set default partitions to transfer from. Function used for ERC20 retrocompatibility.",
        "params": {
          "partitions": "partitions to use by default when not specified."
        }
      },
      "setDocument(bytes32,string,bytes32)": {
        "details": "Associate a document with the token.",
        "params": {
          "documentHash": "Hash of the document [optional parameter].",
          "documentName": "Short name (represented as a bytes32) associated to the document.",
          "uri": "Document content."
        }
      },
      "setPartitionControllers(bytes32,address[])": {
        "details": "Set list of token partition controllers.",
        "params": {
          "operators": "Controller addresses.",
          "partition": "Name of the partition."
        }
      },
      "setTokenExtension(address,string,bool,bool,bool)": {
        "details": "Set token extension contract address. The extension contract can for example verify \"ERC1400TokensValidator\" or \"ERC1400TokensChecker\" interfaces. If the extension is an \"ERC1400TokensValidator\", it will be called everytime a transfer is executed.",
        "params": {
          "addControllerRoleForExtension": "If set to 'true', the extension contract will be added as controller.",
          "addMinterRoleForExtension": "If set to 'true', the extension contract will be added as minter.",
          "extension": "Address of the extension contract.",
          "interfaceLabel": "Interface label of extension contract.",
          "removeOldExtensionRoles": "If set to 'true', the roles of the old extension(minter, controller) will be removed extension."
        }
      },
      "symbol()": {
        "details": "Get the symbol of the token, e.g., \"MYT\".",
        "returns": {
          "_0": "Symbol of the token."
        }
      },
      "totalPartitions()": {
        "details": "Get list of existing partitions.",
        "returns": {
          "_0": "Array of all exisiting partitions."
        }
      },
      "totalSupply()": {
        "details": "Get the total number of issued tokens.",
        "returns": {
          "_0": "Total supply of tokens currently in circulation."
        }
      },
      "totalSupplyByPartition(bytes32)": {
        "details": "Get the total number of issued tokens for a given partition.",
        "params": {
          "partition": "Name of the partition."
        },
        "returns": {
          "_0": "Total supply of tokens currently in circulation, for a given partition."
        }
      },
      "transfer(address,uint256)": {
        "details": "Transfer token for a specified address.",
        "params": {
          "to": "The address to transfer to.",
          "value": "The value to be transferred."
        },
        "returns": {
          "_0": "A boolean that indicates if the operation was successful."
        }
      },
      "transferByPartition(bytes32,address,uint256,bytes)": {
        "details": "Transfer tokens from a specific partition.",
        "params": {
          "data": "Information attached to the transfer, by the token holder.",
          "partition": "Name of the partition.",
          "to": "Token recipient.",
          "value": "Number of tokens to transfer."
        },
        "returns": {
          "_0": "Destination partition."
        }
      },
      "transferFrom(address,address,uint256)": {
        "details": "Transfer tokens from one address to another.",
        "params": {
          "from": "The address which you want to transfer tokens from.",
          "to": "The address which you want to transfer to.",
          "value": "The amount of tokens to be transferred."
        },
        "returns": {
          "_0": "A boolean that indicates if the operation was successful."
        }
      },
      "transferFromWithData(address,address,uint256,bytes)": {
        "details": "Transfer the amount of tokens on behalf of the address 'from' to the address 'to'.",
        "params": {
          "data": "Information attached to the transfer, and intended for the token holder ('from').",
          "from": "Token holder (or 'address(0)' to set from to 'msg.sender').",
          "to": "Token recipient.",
          "value": "Number of tokens to transfer."
        }
      },
      "transferOwnership(address)": {
        "details": "Transfers ownership of the contract to a new account (`newOwner`). Can only be called by the current owner."
      },
      "transferWithData(address,uint256,bytes)": {
        "details": "Transfer the amount of tokens from the address 'msg.sender' to the address 'to'.",
        "params": {
          "data": "Information attached to the transfer, by the token holder.",
          "to": "Token recipient.",
          "value": "Number of tokens to transfer."
        }
      }
    },
    "version": 1
  },
  "userdoc": {
    "kind": "user",
    "methods": {},
    "version": 1
  }
}