{
  "contractName": "Swaps",
  "abi": [
    {
      "inputs": [
        {
          "internalType": "bool",
          "name": "owned",
          "type": "bool"
        }
      ],
      "stateMutability": "nonpayable",
      "type": "constructor"
    },
    {
      "anonymous": false,
      "inputs": [
        {
          "indexed": true,
          "internalType": "address",
          "name": "owner",
          "type": "address"
        },
        {
          "indexed": true,
          "internalType": "bytes32",
          "name": "noteHash",
          "type": "bytes32"
        },
        {
          "indexed": false,
          "internalType": "bytes",
          "name": "metadata",
          "type": "bytes"
        }
      ],
      "name": "CreateNote",
      "type": "event"
    },
    {
      "anonymous": false,
      "inputs": [
        {
          "indexed": true,
          "internalType": "address",
          "name": "owner",
          "type": "address"
        },
        {
          "indexed": true,
          "internalType": "bytes32",
          "name": "noteHash",
          "type": "bytes32"
        }
      ],
      "name": "DestroyNote",
      "type": "event"
    },
    {
      "anonymous": false,
      "inputs": [
        {
          "indexed": true,
          "internalType": "address",
          "name": "token",
          "type": "address"
        },
        {
          "indexed": true,
          "internalType": "bytes32",
          "name": "holdId",
          "type": "bytes32"
        },
        {
          "indexed": false,
          "internalType": "bytes32",
          "name": "lockPreimage",
          "type": "bytes32"
        },
        {
          "indexed": false,
          "internalType": "address",
          "name": "recipient",
          "type": "address"
        }
      ],
      "name": "ExecutedHold",
      "type": "event"
    },
    {
      "anonymous": false,
      "inputs": [
        {
          "indexed": true,
          "internalType": "address",
          "name": "previousOwner",
          "type": "address"
        },
        {
          "indexed": true,
          "internalType": "address",
          "name": "newOwner",
          "type": "address"
        }
      ],
      "name": "OwnershipTransferred",
      "type": "event"
    },
    {
      "anonymous": false,
      "inputs": [
        {
          "indexed": true,
          "internalType": "address",
          "name": "from",
          "type": "address"
        },
        {
          "indexed": true,
          "internalType": "address",
          "name": "to",
          "type": "address"
        },
        {
          "indexed": false,
          "internalType": "uint256",
          "name": "tokens",
          "type": "uint256"
        }
      ],
      "name": "Transfer",
      "type": "event"
    },
    {
      "anonymous": false,
      "inputs": [
        {
          "indexed": true,
          "internalType": "bytes32",
          "name": "fromPartition",
          "type": "bytes32"
        },
        {
          "indexed": false,
          "internalType": "address",
          "name": "operator",
          "type": "address"
        },
        {
          "indexed": true,
          "internalType": "address",
          "name": "from",
          "type": "address"
        },
        {
          "indexed": true,
          "internalType": "address",
          "name": "to",
          "type": "address"
        },
        {
          "indexed": false,
          "internalType": "uint256",
          "name": "value",
          "type": "uint256"
        },
        {
          "indexed": false,
          "internalType": "bytes",
          "name": "data",
          "type": "bytes"
        },
        {
          "indexed": false,
          "internalType": "bytes",
          "name": "operatorData",
          "type": "bytes"
        }
      ],
      "name": "TransferByPartition",
      "type": "event"
    },
    {
      "inputs": [
        {
          "internalType": "bytes32",
          "name": "interfaceHash",
          "type": "bytes32"
        },
        {
          "internalType": "address",
          "name": "",
          "type": "address"
        }
      ],
      "name": "canImplementInterfaceForAddress",
      "outputs": [
        {
          "internalType": "bytes32",
          "name": "",
          "type": "bytes32"
        }
      ],
      "stateMutability": "view",
      "type": "function"
    },
    {
      "inputs": [],
      "name": "owner",
      "outputs": [
        {
          "internalType": "address",
          "name": "",
          "type": "address"
        }
      ],
      "stateMutability": "view",
      "type": "function"
    },
    {
      "inputs": [
        {
          "internalType": "address",
          "name": "newOwner",
          "type": "address"
        }
      ],
      "name": "transferOwnership",
      "outputs": [],
      "stateMutability": "nonpayable",
      "type": "function"
    },
    {
      "inputs": [
        {
          "internalType": "bytes",
          "name": "",
          "type": "bytes"
        },
        {
          "internalType": "bytes32",
          "name": "",
          "type": "bytes32"
        },
        {
          "internalType": "address",
          "name": "",
          "type": "address"
        },
        {
          "internalType": "address",
          "name": "",
          "type": "address"
        },
        {
          "internalType": "address",
          "name": "",
          "type": "address"
        },
        {
          "internalType": "uint256",
          "name": "",
          "type": "uint256"
        },
        {
          "internalType": "bytes",
          "name": "data",
          "type": "bytes"
        },
        {
          "internalType": "bytes",
          "name": "operatorData",
          "type": "bytes"
        }
      ],
      "name": "canReceive",
      "outputs": [
        {
          "internalType": "bool",
          "name": "",
          "type": "bool"
        }
      ],
      "stateMutability": "pure",
      "type": "function"
    },
    {
      "inputs": [
        {
          "internalType": "bytes",
          "name": "",
          "type": "bytes"
        },
        {
          "internalType": "bytes32",
          "name": "partition",
          "type": "bytes32"
        },
        {
          "internalType": "address",
          "name": "",
          "type": "address"
        },
        {
          "internalType": "address",
          "name": "from",
          "type": "address"
        },
        {
          "internalType": "address",
          "name": "to",
          "type": "address"
        },
        {
          "internalType": "uint256",
          "name": "value",
          "type": "uint256"
        },
        {
          "internalType": "bytes",
          "name": "data",
          "type": "bytes"
        },
        {
          "internalType": "bytes",
          "name": "operatorData",
          "type": "bytes"
        }
      ],
      "name": "tokensReceived",
      "outputs": [],
      "stateMutability": "nonpayable",
      "type": "function"
    },
    {
      "inputs": [
        {
          "components": [
            {
              "internalType": "address",
              "name": "holder1",
              "type": "address"
            },
            {
              "internalType": "address",
              "name": "holder2",
              "type": "address"
            },
            {
              "internalType": "address",
              "name": "executer",
              "type": "address"
            },
            {
              "internalType": "uint256",
              "name": "expirationDate",
              "type": "uint256"
            },
            {
              "internalType": "address",
              "name": "tokenAddress1",
              "type": "address"
            },
            {
              "internalType": "uint256",
              "name": "tokenValue1",
              "type": "uint256"
            },
            {
              "internalType": "bytes32",
              "name": "tokenId1",
              "type": "bytes32"
            },
            {
              "internalType": "enum Swaps.Standard",
              "name": "tokenStandard1",
              "type": "uint8"
            },
            {
              "internalType": "address",
              "name": "tokenAddress2",
              "type": "address"
            },
            {
              "internalType": "uint256",
              "name": "tokenValue2",
              "type": "uint256"
            },
            {
              "internalType": "bytes32",
              "name": "tokenId2",
              "type": "bytes32"
            },
            {
              "internalType": "enum Swaps.Standard",
              "name": "tokenStandard2",
              "type": "uint8"
            },
            {
              "internalType": "enum Swaps.TradeType",
              "name": "tradeType1",
              "type": "uint8"
            },
            {
              "internalType": "enum Swaps.TradeType",
              "name": "tradeType2",
              "type": "uint8"
            },
            {
              "internalType": "uint256",
              "name": "settlementDate",
              "type": "uint256"
            }
          ],
          "internalType": "struct Swaps.TradeRequestInput",
          "name": "inputData",
          "type": "tuple"
        },
        {
          "internalType": "bytes32",
          "name": "preimage",
          "type": "bytes32"
        }
      ],
      "name": "requestTrade",
      "outputs": [],
      "stateMutability": "payable",
      "type": "function"
    },
    {
      "inputs": [
        {
          "internalType": "uint256",
          "name": "index",
          "type": "uint256"
        },
        {
          "internalType": "bytes32",
          "name": "preimage",
          "type": "bytes32"
        }
      ],
      "name": "acceptTrade",
      "outputs": [],
      "stateMutability": "payable",
      "type": "function"
    },
    {
      "inputs": [
        {
          "internalType": "uint256",
          "name": "index",
          "type": "uint256"
        }
      ],
      "name": "getTradeAcceptanceStatus",
      "outputs": [
        {
          "internalType": "bool",
          "name": "",
          "type": "bool"
        }
      ],
      "stateMutability": "view",
      "type": "function"
    },
    {
      "inputs": [
        {
          "internalType": "uint256",
          "name": "index",
          "type": "uint256"
        },
        {
          "internalType": "bool",
          "name": "approved",
          "type": "bool"
        }
      ],
      "name": "approveTrade",
      "outputs": [],
      "stateMutability": "nonpayable",
      "type": "function"
    },
    {
      "inputs": [
        {
          "internalType": "uint256",
          "name": "index",
          "type": "uint256"
        },
        {
          "internalType": "bool",
          "name": "approved",
          "type": "bool"
        },
        {
          "internalType": "bytes32",
          "name": "preimage",
          "type": "bytes32"
        }
      ],
      "name": "approveTradeWithPreimage",
      "outputs": [],
      "stateMutability": "nonpayable",
      "type": "function"
    },
    {
      "inputs": [
        {
          "internalType": "uint256",
          "name": "index",
          "type": "uint256"
        }
      ],
      "name": "getTradeApprovalStatus",
      "outputs": [
        {
          "internalType": "bool",
          "name": "",
          "type": "bool"
        }
      ],
      "stateMutability": "view",
      "type": "function"
    },
    {
      "inputs": [
        {
          "internalType": "uint256",
          "name": "index",
          "type": "uint256"
        }
      ],
      "name": "executeTrade",
      "outputs": [],
      "stateMutability": "nonpayable",
      "type": "function"
    },
    {
      "inputs": [
        {
          "internalType": "uint256",
          "name": "index",
          "type": "uint256"
        },
        {
          "internalType": "bytes32",
          "name": "preimage",
          "type": "bytes32"
        }
      ],
      "name": "executeTradeWithPreimage",
      "outputs": [],
      "stateMutability": "nonpayable",
      "type": "function"
    },
    {
      "inputs": [
        {
          "internalType": "uint256",
          "name": "index",
          "type": "uint256"
        }
      ],
      "name": "forceTrade",
      "outputs": [],
      "stateMutability": "nonpayable",
      "type": "function"
    },
    {
      "inputs": [
        {
          "internalType": "uint256",
          "name": "index",
          "type": "uint256"
        },
        {
          "internalType": "bytes32",
          "name": "preimage",
          "type": "bytes32"
        }
      ],
      "name": "forceTradeWithPreimage",
      "outputs": [],
      "stateMutability": "nonpayable",
      "type": "function"
    },
    {
      "inputs": [
        {
          "internalType": "uint256",
          "name": "index",
          "type": "uint256"
        }
      ],
      "name": "cancelTrade",
      "outputs": [],
      "stateMutability": "nonpayable",
      "type": "function"
    },
    {
      "inputs": [],
      "name": "renounceOwnership",
      "outputs": [],
      "stateMutability": "nonpayable",
      "type": "function"
    },
    {
      "inputs": [],
      "name": "tradeExecuters",
      "outputs": [
        {
          "internalType": "address[]",
          "name": "",
          "type": "address[]"
        }
      ],
      "stateMutability": "view",
      "type": "function"
    },
    {
      "inputs": [
        {
          "internalType": "address[]",
          "name": "operators",
          "type": "address[]"
        }
      ],
      "name": "setTradeExecuters",
      "outputs": [],
      "stateMutability": "nonpayable",
      "type": "function"
    },
    {
      "inputs": [
        {
          "internalType": "address",
          "name": "tokenAddress",
          "type": "address"
        }
      ],
      "name": "tokenControllers",
      "outputs": [
        {
          "internalType": "address[]",
          "name": "",
          "type": "address[]"
        }
      ],
      "stateMutability": "view",
      "type": "function"
    },
    {
      "inputs": [
        {
          "internalType": "address",
          "name": "tokenAddress",
          "type": "address"
        },
        {
          "internalType": "address[]",
          "name": "operators",
          "type": "address[]"
        }
      ],
      "name": "setTokenControllers",
      "outputs": [],
      "stateMutability": "nonpayable",
      "type": "function"
    },
    {
      "inputs": [
        {
          "internalType": "address",
          "name": "tokenAddress",
          "type": "address"
        }
      ],
      "name": "priceOracles",
      "outputs": [
        {
          "internalType": "address[]",
          "name": "",
          "type": "address[]"
        }
      ],
      "stateMutability": "view",
      "type": "function"
    },
    {
      "inputs": [
        {
          "internalType": "address",
          "name": "tokenAddress",
          "type": "address"
        },
        {
          "internalType": "address[]",
          "name": "oracles",
          "type": "address[]"
        }
      ],
      "name": "setPriceOracles",
      "outputs": [],
      "stateMutability": "nonpayable",
      "type": "function"
    },
    {
      "inputs": [
        {
          "internalType": "address",
          "name": "tokenAddress1",
          "type": "address"
        },
        {
          "internalType": "address",
          "name": "tokenAddress2",
          "type": "address"
        }
      ],
      "name": "getPriceOwnership",
      "outputs": [
        {
          "internalType": "bool",
          "name": "",
          "type": "bool"
        }
      ],
      "stateMutability": "view",
      "type": "function"
    },
    {
      "inputs": [
        {
          "internalType": "address",
          "name": "tokenAddress1",
          "type": "address"
        },
        {
          "internalType": "address",
          "name": "tokenAddress2",
          "type": "address"
        },
        {
          "internalType": "bool",
          "name": "priceOwnership",
          "type": "bool"
        }
      ],
      "name": "setPriceOwnership",
      "outputs": [],
      "stateMutability": "nonpayable",
      "type": "function"
    },
    {
      "inputs": [
        {
          "internalType": "address",
          "name": "tokenAddress",
          "type": "address"
        }
      ],
      "name": "variablePriceStartDate",
      "outputs": [
        {
          "internalType": "uint256",
          "name": "",
          "type": "uint256"
        }
      ],
      "stateMutability": "view",
      "type": "function"
    },
    {
      "inputs": [
        {
          "internalType": "address",
          "name": "tokenAddress",
          "type": "address"
        },
        {
          "internalType": "uint256",
          "name": "startDate",
          "type": "uint256"
        }
      ],
      "name": "setVariablePriceStartDate",
      "outputs": [],
      "stateMutability": "nonpayable",
      "type": "function"
    },
    {
      "inputs": [
        {
          "internalType": "address",
          "name": "tokenAddress1",
          "type": "address"
        },
        {
          "internalType": "address",
          "name": "tokenAddress2",
          "type": "address"
        },
        {
          "internalType": "bytes32",
          "name": "tokenId1",
          "type": "bytes32"
        },
        {
          "internalType": "bytes32",
          "name": "tokenId2",
          "type": "bytes32"
        }
      ],
      "name": "getTokenPrice",
      "outputs": [
        {
          "internalType": "uint256",
          "name": "",
          "type": "uint256"
        }
      ],
      "stateMutability": "view",
      "type": "function"
    },
    {
      "inputs": [
        {
          "internalType": "address",
          "name": "tokenAddress1",
          "type": "address"
        },
        {
          "internalType": "address",
          "name": "tokenAddress2",
          "type": "address"
        },
        {
          "internalType": "bytes32",
          "name": "tokenId1",
          "type": "bytes32"
        },
        {
          "internalType": "bytes32",
          "name": "tokenId2",
          "type": "bytes32"
        },
        {
          "internalType": "uint256",
          "name": "newPrice",
          "type": "uint256"
        }
      ],
      "name": "setTokenPrice",
      "outputs": [],
      "stateMutability": "nonpayable",
      "type": "function"
    },
    {
      "inputs": [
        {
          "internalType": "uint256",
          "name": "index",
          "type": "uint256"
        }
      ],
      "name": "getPrice",
      "outputs": [
        {
          "internalType": "uint256",
          "name": "",
          "type": "uint256"
        }
      ],
      "stateMutability": "view",
      "type": "function"
    },
    {
      "inputs": [
        {
          "internalType": "uint256",
          "name": "index",
          "type": "uint256"
        }
      ],
      "name": "getTrade",
      "outputs": [
        {
          "components": [
            {
              "internalType": "address",
              "name": "holder1",
              "type": "address"
            },
            {
              "internalType": "address",
              "name": "holder2",
              "type": "address"
            },
            {
              "internalType": "address",
              "name": "executer",
              "type": "address"
            },
            {
              "internalType": "uint256",
              "name": "expirationDate",
              "type": "uint256"
            },
            {
              "internalType": "uint256",
              "name": "settlementDate",
              "type": "uint256"
            },
            {
              "components": [
                {
                  "internalType": "address",
                  "name": "tokenAddress",
                  "type": "address"
                },
                {
                  "internalType": "uint256",
                  "name": "tokenValue",
                  "type": "uint256"
                },
                {
                  "internalType": "bytes32",
                  "name": "tokenId",
                  "type": "bytes32"
                },
                {
                  "internalType": "enum Swaps.Standard",
                  "name": "tokenStandard",
                  "type": "uint8"
                },
                {
                  "internalType": "bool",
                  "name": "accepted",
                  "type": "bool"
                },
                {
                  "internalType": "bool",
                  "name": "approved",
                  "type": "bool"
                },
                {
                  "internalType": "enum Swaps.TradeType",
                  "name": "tradeType",
                  "type": "uint8"
                }
              ],
              "internalType": "struct Swaps.UserTradeData",
              "name": "userTradeData1",
              "type": "tuple"
            },
            {
              "components": [
                {
                  "internalType": "address",
                  "name": "tokenAddress",
                  "type": "address"
                },
                {
                  "internalType": "uint256",
                  "name": "tokenValue",
                  "type": "uint256"
                },
                {
                  "internalType": "bytes32",
                  "name": "tokenId",
                  "type": "bytes32"
                },
                {
                  "internalType": "enum Swaps.Standard",
                  "name": "tokenStandard",
                  "type": "uint8"
                },
                {
                  "internalType": "bool",
                  "name": "accepted",
                  "type": "bool"
                },
                {
                  "internalType": "bool",
                  "name": "approved",
                  "type": "bool"
                },
                {
                  "internalType": "enum Swaps.TradeType",
                  "name": "tradeType",
                  "type": "uint8"
                }
              ],
              "internalType": "struct Swaps.UserTradeData",
              "name": "userTradeData2",
              "type": "tuple"
            },
            {
              "internalType": "enum Swaps.State",
              "name": "state",
              "type": "uint8"
            }
          ],
          "internalType": "struct Swaps.Trade",
          "name": "",
          "type": "tuple"
        }
      ],
      "stateMutability": "view",
      "type": "function"
    },
    {
      "inputs": [],
      "name": "getNbTrades",
      "outputs": [
        {
          "internalType": "uint256",
          "name": "",
          "type": "uint256"
        }
      ],
      "stateMutability": "view",
      "type": "function"
    }
  ],
  "bytecode": "0x608060405234801561000f575f80fd5b5060405161610438038061610483398101604081905261002e916103e0565b61003733610159565b60408051808201909152601181527011195b1a5d995c9e559cd4185e5b595b9d607a1b6020820152610068906101a8565b60408051808201909152601681527f45524331343030546f6b656e73526563697069656e740000000000000000000060208201526100a5906101a8565b60408051808201909152601681527f45524331343030546f6b656e73526563697069656e740000000000000000000060208201526100e390306101f3565b6008805460ff191682151590811790915560ff1615610153576040805160018082528183019092525f916020808301908036833701905050905033815f8151811061013057610130610406565b6001600160a01b039092166020928302919091019091015261015181610297565b505b50610430565b5f80546001600160a01b038381166001600160a01b0319831681178455604051919092169283917f8be0079c531659141344cd1fd0a4f28419497f9722a3daafe3b4186f6b6457e09190a35050565b6001805f836040516020016101bd919061041a565b60408051808303601f190181529181528151602092830120835290820192909252015f20805460ff191691151591909117905550565b5f82604051602001610205919061041a565b60408051808303601f190181529082905280516020909101206329965a1d60e01b8252306004830152602482018190526001600160a01b03841660448301529150731820a4b7618bde71dce8cdc73aab6c95905fad24906329965a1d906064015f604051808303815f87803b15801561027c575f80fd5b505af115801561028e573d5f803e3d5ffd5b50505050505050565b5f5b6009548110156102f5575f600a5f600984815481106102ba576102ba610406565b5f918252602080832091909101546001600160a01b031683528201929092526040019020805460ff1916911515919091179055600101610299565b505f5b8151811015610351576001600a5f84848151811061031857610318610406565b6020908102919091018101516001600160a01b031682528101919091526040015f20805460ff19169115159190911790556001016102f8565b508051610365906009906020840190610369565b5050565b828054828255905f5260205f209081019282156103bc579160200282015b828111156103bc57825182546001600160a01b0319166001600160a01b03909116178255602090920191600190910190610387565b506103c89291506103cc565b5090565b5b808211156103c8575f81556001016103cd565b5f602082840312156103f0575f80fd5b815180151581146103ff575f80fd5b9392505050565b634e487b7160e01b5f52603260045260245ffd5b5f82518060208501845e5f920191825250919050565b615cc78061043d5f395ff3fe608060405260043610610172575f3560e01c8063013745181461017657806301636f4e146101ab57806302d2838b146101cc57806309ec6cc7146101eb5780630baf41a61461020a5780631af6649f14610229578063249cb3fa146102585780632cb437d8146102855780632db25e05146102a457806330f97699146102d0578063353414641461030457806345a06cb21461032357806351965a8314610337578063582dcd131461034a578063587274671461036957806361108c06146103885780636775ce04146103a7578063715018a6146103c6578063759561fa146103da5780638595240b146103f957806389a0c9e71461044e5780638da5cb5b14610461578063935259a81461048d578063a22ae631146104ac578063c9adffe2146104cb578063d95b585e146104ea578063e757223014610509578063ebbca40714610528578063ec96dfb41461053c578063f2fde38b1461055b578063f464b5761461057a578063f55886df14610599575b5f80fd5b348015610181575f80fd5b50610195610190366004614fae565b6105b8565b6040516101a29190614fc9565b60405180910390f35b3480156101b6575f80fd5b506101ca6101c536600461505c565b61062b565b005b3480156101d7575f80fd5b506101ca6101e63660046150ac565b610792565b3480156101f6575f80fd5b506101ca6102053660046150ac565b61079f565b348015610215575f80fd5b506101ca6102243660046150d0565b610aff565b348015610234575f80fd5b50610248610243366004615118565b610b60565b60405190151581526020016101a2565b348015610263575f80fd5b5061027761027236600461514f565b610b8f565b6040519081526020016101a2565b348015610290575f80fd5b506101ca61029f366004615172565b610bec565b3480156102af575f80fd5b506102c36102be3660046150ac565b610dd0565b6040516101a29190615239565b3480156102db575f80fd5b506102776102ea366004614fae565b6001600160a01b03165f908152600d602052604090205490565b34801561030f575f80fd5b5061024861031e3660046150ac565b610ff4565b34801561032e575f80fd5b506101956111e5565b6101ca6103453660046152be565b611245565b348015610355575f80fd5b506101ca6103643660046152be565b611256565b348015610374575f80fd5b506101ca6103833660046152de565b61149c565b348015610393575f80fd5b506101ca6103a23660046150ac565b6116a1565b3480156103b2575f80fd5b506101ca6103c136600461532b565b6116ab565b3480156103d1575f80fd5b506101ca6116b6565b3480156103e5575f80fd5b506101956103f4366004614fae565b6116f9565b348015610404575f80fd5b5061027761041336600461534e565b6001600160a01b039384165f908152600760209081526040808320959096168252938452848120928152918352838220908252909152205490565b6101ca61045c366004615391565b61176a565b34801561046c575f80fd5b5061047561193f565b6040516001600160a01b0390911681526020016101a2565b348015610498575f80fd5b506102486104a73660046150ac565b61194d565b3480156104b7575f80fd5b506101ca6104c63660046153c0565b6119e6565b3480156104d6575f80fd5b506101ca6104e53660046153fe565b611aa0565b3480156104f5575f80fd5b506101ca6105043660046152be565b611b61565b348015610514575f80fd5b506102776105233660046150ac565b611eb4565b348015610533575f80fd5b50600254610277565b348015610547575f80fd5b506101ca61055636600461505c565b6123dd565b348015610566575f80fd5b506101ca610575366004614fae565b612605565b348015610585575f80fd5b506101ca610594366004615501565b6126a2565b3480156105a4575f80fd5b506102486105b33660046155d7565b612ad5565b6001600160a01b0381165f9081526004602090815260409182902080548351818402810184019094528084526060939283018282801561061f57602002820191905f5260205f20905b81546001600160a01b03168152600190910190602001808311610601575b50505050509050919050565b826106368133612b57565b61065b5760405162461bcd60e51b8152600401610652906156af565b60405180910390fd5b5f5b6001600160a01b0385165f908152600460205260409020548110156106ed576001600160a01b0385165f908152600560209081526040808320600490925282208054839190859081106106b2576106b26156e6565b5f918252602080832091909101546001600160a01b031683528201929092526040019020805460ff191691151591909117905560010161065d565b505f5b82811015610768576001600160a01b0385165f908152600560205260408120600191868685818110610724576107246156e6565b90506020020160208101906107399190614fae565b6001600160a01b0316815260208101919091526040015f20805460ff19169115159190911790556001016106f0565b506001600160a01b0384165f90815260046020526040902061078b908484614e22565b5050505050565b61079c815f611256565b50565b5f8181526003602052604090206001600d82015460ff1660048111156107c7576107c76151a7565b146107e45760405162461bcd60e51b8152600401610652906156fa565b60068101546008820154600a830154600c84015460ff61010093849004811693909104168280156108125750805b1561091a5760028501546001600160a01b0316331480610860575084600301544210158015610860575084546001600160a01b0316331480610860575060018501546001600160a01b031633145b6108ab5760405162461bcd60e51b815260206004820152602960248201525f80516020615c5283398151915260448201526874726164652028302960b81b6064820152608401610652565b600260088601546301000000900460ff1660028111156108cd576108cd6151a7565b036108e0576108e0865f86600182612c02565b6002600c8601546301000000900460ff166002811115610902576109026151a7565b036109155761091586600184815f612c02565b610ae0565b82156109d35760028501546001600160a01b0316331480610953575084600301544210158015610953575084546001600160a01b031633145b61099e5760405162461bcd60e51b815260206004820152602960248201525f80516020615c5283398151915260448201526874726164652028312960b81b6064820152608401610652565b600260088601546301000000900460ff1660028111156109c0576109c06151a7565b0361091557610915865f86600182612c02565b8015610a5a5760028501546001600160a01b0316331480610a0f575084600301544210158015610a0f575060018501546001600160a01b031633145b6108e05760405162461bcd60e51b815260206004820152602960248201525f80516020615c5283398151915260448201526874726164652028322960b81b6064820152608401610652565b60028501546001600160a01b0316331480610a7e575084546001600160a01b031633145b80610a95575060018501546001600160a01b031633145b610ae05760405162461bcd60e51b815260206004820152602960248201525f80516020615c5283398151915260448201526874726164652028332960b81b6064820152608401610652565b600d850180546004919060ff19166001835b0217905550505050505050565b82610b0a8133612b57565b610b265760405162461bcd60e51b8152600401610652906156af565b506001600160a01b039283165f90815260066020908152604080832094909516825292909252919020805460ff1916911515919091179055565b6001600160a01b038083165f9081526006602090815260408083209385168352929052205460ff165b92915050565b5f8281526001602052604081205460ff1615610be55760405173455243313832305f4143434550545f4d4147494360601b6020820152603401604051602081830303815290604052805190602001209050610b89565b505f610b89565b5f8381526003602052604090206001600d82015460ff166004811115610c1457610c146151a7565b14610c315760405162461bcd60e51b8152600401610652906156fa565b60058101546001600160a01b03165f908152600c6020908152604080832033845290915290205460ff1680610c8c575060098101546001600160a01b03165f908152600c6020908152604080832033845290915290205460ff165b610cfe5760405162461bcd60e51b815260206004820152603d60248201527f4f6e6c7920746f6b656e20636f6e74726f6c6c657273206f6620696e766f6c7660448201527f656420746f6b656e732063616e20617070726f766520612074726164650000006064820152608401610652565b60058101546001600160a01b03165f908152600c6020908152604080832033845290915290205460ff1615610d455760088101805462ff0000191662010000851515021790555b60098101546001600160a01b03165f908152600c6020908152604080832033845290915290205460ff1615610d8c57600c8101805462ff0000191662010000851515021790555b60028101546001600160a01b0316158015610dab5750610dab84610ff4565b8015610dbb5750610dbb8461194d565b15610dca57610dca8483612d38565b50505050565b610dd8614e83565b5f8281526003602081815260409283902083516101008101855281546001600160a01b03908116825260018301548116828501526002830154811682870152938201546060808301919091526004808401546080840152865160e0810188526005850180549097168152600685015495810195909552600784015496850196909652600883015492959194869460a08701949093919284019160ff90911690811115610e8657610e866151a7565b6004811115610e9757610e976151a7565b8152600382015460ff61010082048116151560208401526201000082048116151560408401526060909201916301000000909104166002811115610edd57610edd6151a7565b6002811115610eee57610eee6151a7565b90525081526040805160e0810182526009840180546001600160a01b03168252600a850154602083810191909152600b86015493830193909352600c85015492909301929091606083019060ff166004811115610f4d57610f4d6151a7565b6004811115610f5e57610f5e6151a7565b8152600382015460ff61010082048116151560208401526201000082048116151560408401526060909201916301000000909104166002811115610fa457610fa46151a7565b6002811115610fb557610fb56151a7565b9052508152600d82015460209091019060ff166004811115610fd957610fd96151a7565b6004811115610fea57610fea6151a7565b9052509392505050565b5f8181526003602052604081206001600d82015460ff16600481111561101c5761101c6151a7565b036111bc575f60088201546301000000900460ff166002811115611042576110426151a7565b148015611118575080546040805160e0810182526005840180546001600160a01b039081168352600686015460208401526007860154938301939093526008850154611116949390931692606083019060ff1660048111156110a6576110a66151a7565b60048111156110b7576110b76151a7565b8152600382015460ff610100820481161515602084015262010000820481161515604084015260609092019163010000009091041660028111156110fd576110fd6151a7565b600281111561110e5761110e6151a7565b905250612e88565b155b1561112557505f92915050565b5f600c8201546301000000900460ff166002811115611146576111466151a7565b1480156111af575060018101546040805160e0810182526009840180546001600160a01b039081168352600a8601546020840152600b86015493830193909352600c8501546111ad949390931692606083019060ff1660048111156110a6576110a66151a7565b155b156111bc57505f92915050565b6008810154610100900460ff1680156111de5750600c810154610100900460ff165b9392505050565b6060600980548060200260200160405190810160405280929190818152602001828054801561123b57602002820191905f5260205f20905b81546001600160a01b0316815260019091019060200180831161121d575b5050505050905090565b6112528233345f85613031565b5050565b5f8281526003602052604090206001600d82015460ff16600481111561127e5761127e6151a7565b1461129b5760405162461bcd60e51b8152600401610652906156fa565b60028101546001600160a01b0316156113325760028101546001600160a01b03163314611332576040805162461bcd60e51b81526020600482015260248101919091527f54726164652063616e206f6e6c7920626520657865637574656420627920657860448201527f65637574657220646566696e6564206174207472616465206372656174696f6e6064820152608401610652565b80600401544210156113a55760405162461bcd60e51b815260206004820152603660248201527f54726164652063616e206f6e6c79206265206578656375746564206f6e206f7260448201527520616674657220736574746c656d656e74206461746560501b6064820152608401610652565b6113ae83610ff4565b6114175760405162461bcd60e51b815260206004820152603460248201527f547261646520686173206e6f74206265656e20616363657074656420627920616044820152731b1b081d1bdad95b881a1bdb19195c9cc81e595d60621b6064820152608401610652565b6114208361194d565b61148d5760405162461bcd60e51b815260206004820152603860248201527f547261646520686173206e6f74206265656e20617070726f76656420627920616044820152771b1b081d1bdad95b8818dbdb9d1c9bdb1b195c9cc81e595d60421b6064820152608401610652565b6114978383612d38565b505050565b6001600160a01b038086165f9081526006602090815260408083209388168352929052205460ff1680156114f457506001600160a01b038085165f9081526006602090815260408083209389168352929052205460ff165b156115115760405162461bcd60e51b815260040161065290615728565b6001600160a01b038086165f9081526006602090815260408083209388168352929052205460ff161561159f576115488533612b57565b61159a5760405162461bcd60e51b815260206004820152603060248201525f80516020615c3283398151915260448201526f72207468697320746f6b656e2028312960801b6064820152608401610652565b611665565b6001600160a01b038085165f9081526006602090815260408083209389168352929052205460ff1615611628576115d68433612b57565b61159a5760405162461bcd60e51b815260206004820152603060248201525f80516020615c3283398151915260448201526f72207468697320746f6b656e2028322960801b6064820152608401610652565b60405162461bcd60e51b815260206004820152601260248201527104e6f207072696365206f776e6572736869760741b6044820152606401610652565b6001600160a01b039485165f90815260076020908152604080832096909716825294855285812093815292845284832091835292529190912055565b61079c815f611b61565b61125282825f610bec565b336116bf61193f565b6001600160a01b0316146116e55760405162461bcd60e51b81526004016106529061575f565b6116ed613915565b6008805460ff19169055565b6001600160a01b0381165f908152600b602090815260409182902080548351818402810184019094528084526060939283018282801561061f57602002820191905f5260205f209081546001600160a01b031681526001909101906020018083116106015750505050509050919050565b6118df61177a6020840184614fae565b61178a6040850160208601614fae565b61179a6060860160408701614fae565b8560600135866101c001356040518060e001604052808960800160208101906117c39190614fae565b6001600160a01b0316815260a08a0135602082015260c08a013560408201526060016117f66101008b0160e08c01615794565b6004811115611807576118076151a7565b81525f60208201819052604082015260600161182b6101a08b016101808c016157b2565b600281111561183c5761183c6151a7565b90526040805160e081019091528061185c6101208c016101008d01614fae565b6001600160a01b031681526101208b013560208201526101408b013560408201526060016118926101808c016101608d01615794565b60048111156118a3576118a36151a7565b81525f6020820181905260408201526060016118c76101c08c016101a08d016157b2565b60028111156118d8576118d86151a7565b905261394f565b6118ec6020830183614fae565b6001600160a01b0316336001600160a01b0316148061192b57506119166040830160208401614fae565b6001600160a01b0316336001600160a01b0316145b156112525761125260025433345f85613031565b5f546001600160a01b031690565b5f81815260036020908152604080832060058101546001600160a01b03168452600b9092528220541580159061198e5750600881015462010000900460ff16155b1561199b57505f92915050565b60098101546001600160a01b03165f908152600b6020526040902054158015906119d05750600c81015462010000900460ff16155b156119dd57505f92915050565b50600192915050565b336119ef61193f565b6001600160a01b031614611a155760405162461bcd60e51b81526004016106529061575f565b60085460ff16611a655760405162461bcd60e51b815260206004820152601b60248201527a14ddd85c1cc818dbdb9d1c9858dd081a5cc81b9bdd081bdddb9959602a1b6044820152606401610652565b6112528282808060200260200160405190810160405280939291908181526020018383602002808284375f92019190915250613ef792505050565b81611aab8133612b57565b611ac75760405162461bcd60e51b8152600401610652906156af565b611ad462093a80426157e4565b821180611adf575081155b611b455760405162461bcd60e51b815260206004820152603160248201527f53746172742064617465206e6565647320746f20626520736574206174206c656044820152706173742061207765656b206265666f726560781b6064820152608401610652565b506001600160a01b039091165f908152600d6020526040902055565b5f8281526003602052604090206001600d82015460ff166004811115611b8957611b896151a7565b14611ba65760405162461bcd60e51b8152600401610652906156fa565b6005810154600682015460088301546009840154600a850154600c8601546001600160a01b039586169560ff61010095869004811695949091169390910416838015611bef5750805b15611c395760405162461bcd60e51b815260206004820152601a602482015279195e1958dd5d19551c9859194818d85b8818994818d85b1b195960321b6044820152606401610652565b6001600160a01b0386165f908152600b6020526040902054158015611c7357506001600160a01b0383165f908152600b6020526040902054155b611cda5760405162461bcd60e51b815260206004820152603260248201527f54726164652063616e206e6f7420626520666f7263656420696620746f6b656e60448201527173206861766520636f6e74726f6c6c65727360701b6064820152608401610652565b60028701546001600160a01b031615611d4c5760028701546001600160a01b03163314611d475760405162461bcd60e51b815260206004820152602860248201525f80516020615c72833981519152604482015267726164652028302960c01b6064820152608401610652565b611e72565b8315611da95786546001600160a01b03163314611d475760405162461bcd60e51b815260206004820152602860248201525f80516020615c72833981519152604482015267726164652028312960c01b6064820152608401610652565b8015611e095760018701546001600160a01b03163314611d475760405162461bcd60e51b815260206004820152602860248201525f80516020615c72833981519152604482015267726164652028322960c01b6064820152608401610652565b60405162461bcd60e51b815260206004820152603860248201527f54726164652063616e277420626520666f7263656420617320746f6b656e732060448201527730b932903737ba1030bb30b4b630b136329039b7903330b960411b6064820152608401610652565b8315611e8557611e85895f875f8c612c02565b8015611e9957611e99896001845f8c612c02565b50505050600d92909201805460ff1916600317905550505050565b5f818152600360209081526040808320600581015460068083015460078401546009850154600a860154600b8701546001600160a01b03968716808c52958a52888b2096909216808b529590985295882054949692959194909392919060ff168015611f4457506001600160a01b038084165f908152600660209081526040808320938a168352929052205460ff165b15611f615760405162461bcd60e51b815260040161065290615728565b6001600160a01b0386165f908152600d60205260409020541580611f9b57506001600160a01b0386165f908152600d602052604090205442105b15611fac5750979650505050505050565b6001600160a01b038087165f9081526006602090815260408083209387168352929052205460ff168061200357506001600160a01b038084165f908152600660209081526040808320938a168352929052205460ff165b156123d1576001600160a01b038087165f90815260076020908152604080832093871683529281528282208783528152828220848352905220541561208e576001600160a01b038087165f908152600760209081526040808320938716835292815282822087835281528282208483529052205461208190866157f7565b9998505050505050505050565b6001600160a01b038084165f908152600760209081526040808320938a16835292815282822084835281528282208783529052205415612107576001600160a01b038084165f908152600760209081526040808320938a168352928152828220848352815282822087835290522054612081908661580e565b6001600160a01b038087165f908152600760209081526040808320938716835292815282822087835281528282208280529052205415612180576001600160a01b038087165f908152600760209081526040808320938716835292815282822087835281528282208280529052205461208190866157f7565b6001600160a01b038084165f908152600760209081526040808320938a168352928152828220828052815282822087835290522054156121f9576001600160a01b038084165f908152600760209081526040808320938a168352928152828220828052815282822087835290522054612081908661580e565b6001600160a01b038087165f908152600760209081526040808320938716835292815282822082805281528282208483529052205415612272576001600160a01b038087165f908152600760209081526040808320938716835292815282822082805281528282208483529052205461208190866157f7565b6001600160a01b038084165f908152600760209081526040808320938a168352928152828220848352815282822082805290522054156122eb576001600160a01b038084165f908152600760209081526040808320938a168352928152828220848352815282822082805290522054612081908661580e565b6001600160a01b038087165f90815260076020908152604080832093871683529281528282208280528152828220905220541561235e576001600160a01b038087165f908152600760209081526040808320938716835292815282822082805281528282209052205461208190866157f7565b6001600160a01b038084165f908152600760209081526040808320938a168352928152828220828052815282822090522054156123d1576001600160a01b038084165f908152600760209081526040808320938a168352928152828220828052815282822090522054612081908661580e565b50979650505050505050565b82806001600160a01b0316638da5cb5b6040518163ffffffff1660e01b8152600401602060405180830381865afa15801561241a573d5f803e3d5ffd5b505050506040513d601f19601f8201168201806040525081019061243e919061582d565b6001600160a01b0316336001600160a01b0316148061247f57506001600160a01b0381165f908152600c6020908152604080832033845290915290205460ff165b6124d55760405162461bcd60e51b815260206004820152602160248201527f53656e646572206973206e6f74206120746f6b656e20636f6e74726f6c6c65726044820152601760f91b6064820152608401610652565b5f5b6001600160a01b0385165f908152600b6020526040902054811015612567576001600160a01b0385165f908152600c60209081526040808320600b909252822080548391908590811061252c5761252c6156e6565b5f918252602080832091909101546001600160a01b031683528201929092526040019020805460ff19169115159190911790556001016124d7565b505f5b828110156125e2576001600160a01b0385165f908152600c6020526040812060019186868581811061259e5761259e6156e6565b90506020020160208101906125b39190614fae565b6001600160a01b0316815260208101919091526040015f20805460ff191691151591909117905560010161256a565b506001600160a01b0384165f908152600b6020526040902061078b908484614e22565b3361260e61193f565b6001600160a01b0316146126345760405162461bcd60e51b81526004016106529061575f565b6001600160a01b0381166126995760405162461bcd60e51b815260206004820152602660248201527f4f776e61626c653a206e6577206f776e657220697320746865207a65726f206160448201526564647265737360d01b6064820152608401610652565b61079c81613fc5565b336001600160a01b03166126da336040518060400160405280600c81526020016b22a921989a18182a37b5b2b760a11b815250614014565b6001600160a01b0316146127155760405162461bcd60e51b8152602060048201526002602482015261353560f01b6044820152606401610652565b6001600160a01b03851630146127525760405162461bcd60e51b8152602060048201526002602482015261035360f41b6044820152606401610652565b6127918383838080601f0160208091040260200160405190810160405280939291908181526020018383808284375f920191909152506140bf92505050565b6127c25760405162461bcd60e51b8152602060048201526002602482015261353760f01b6044820152606401610652565b5f6127ce846020015190565b90507f3333333333333333333333333333333333333333333333333333333333333334810161287157604084810151606080870151608088015160a0890151855160e081018752338152602081018c90529586018f905293949193909290915f91810160048152600160208201525f60408201526060016002905290505f6128558a61419d565b90506128668d87878787878761394f565b505050505050612ac8565b7f22222222222222222222222222222222222222222222222222222222222222238101612ac857604084015184515f906060036128af575060608501515b5f82815260036020526040812080549091906001600160a01b038c81169116146128dc57816009016128e1565b816005015b6040805160e08101825282546001600160a01b03168152600183015460208201526002830154918101919091526003820154909190606083019060ff16600481111561292f5761292f6151a7565b6004811115612940576129406151a7565b8152600382015460ff61010082048116151560208401526201000082048116151560408401526060909201916301000000909104166002811115612986576129866151a7565b6002811115612997576129976151a7565b90525080519091506001600160a01b031633146129e95760405162461bcd60e51b815260206004820152601060248201526f15dc9bdb99c81d1bdad95b881cd95b9d60821b6044820152606401610652565b80604001518d14612a475760405162461bcd60e51b815260206004820152602260248201527f546f6b656e73206f66207468652077726f6e6720706172746974696f6e2073656044820152611b9d60f21b6064820152608401610652565b80606001516004811115612a5d57612a5d6151a7565b600414612ab65760405162461bcd60e51b815260206004820152602160248201527f546f6b656e73206f66207468652077726f6e67207374616e646172642073656e6044820152601d60fa1b6064820152608401610652565b612ac3848c5f8c87613031565b505050505b5050505050505050505050565b5f612b4785858080601f0160208091040260200160405190810160405280939291908181526020018383808284375f9201919091525050604080516020601f890181900481028201810190925287815292508791508690819084018382808284375f920191909152506140bf92505050565b9c9b505050505050505050505050565b6001600160a01b038083165f90815260056020908152604080832093851683529290529081205460ff16806111de5750826001600160a01b0316638da5cb5b6040518163ffffffff1660e01b8152600401602060405180830381865afa158015612bc3573d5f803e3d5ffd5b505050506040513d601f19601f82011682018060405250810190612be7919061582d565b6001600160a01b0316826001600160a01b0316149392505050565b5f8581526003602052604081209080866001811115612c2357612c236151a7565b14612c315781600901612c36565b816005015b6040805160e08101825282546001600160a01b03168152600183015460208201526002830154918101919091526003820154909190606083019060ff166004811115612c8457612c846151a7565b6004811115612c9557612c956151a7565b8152600382015460ff61010082048116151560208401526201000082048116151560408401526060909201916301000000909104166002811115612cdb57612cdb6151a7565b6002811115612cec57612cec6151a7565b90525060c08101519091506001816002811115612d0b57612d0b6151a7565b03612d2257612d1d8888888888614230565b612d2e565b612d2e888888886144a5565b5050505050505050565b5f82815260036020526040812090612d4f84611eb4565b6006830154600a84015491925090808303612d8457612d71865f845f89612c02565b612d7f866001835f89612c02565b612e72565b808311158015612db457506001600c8501546301000000900460ff166002811115612db157612db16151a7565b14155b612e185760405162461bcd60e51b815260206004820152602f60248201527f507269636520697320686967686572207468616e20616d6f756e74206573637260448201526e1bddd9590bd85d5d1a1bdc9a5e9959608a1b6064820152608401610652565b612e25865f845f89612c02565b612e33866001855f89612c02565b6002600c8501546301000000900460ff166002811115612e5557612e556151a7565b03612e7257612e72866001612e6a8685615848565b600189612c02565b600d840180546002919060ff1916600183610af2565b80516020820151604083015160608401515f939291906002816004811115612eb257612eb26151a7565b03612f3657604051636eb1769f60e11b81526001600160a01b03888116600483015230602483015284919086169063dd62ed3e906044015b602060405180830381865afa158015612f05573d5f803e3d5ffd5b505050506040513d601f19601f82011682018060405250810190612f29919061585b565b1015945050505050610b89565b6003816004811115612f4a57612f4a6151a7565b03612fcd5760405163020604bf60e21b81526004810183905230906001600160a01b0386169063081812fc90602401602060405180830381865afa158015612f94573d5f803e3d5ffd5b505050506040513d601f19601f82011682018060405250810190612fb8919061582d565b6001600160a01b031614945050505050610b89565b6004816004811115612fe157612fe16151a7565b0361302457604051630bf641e560e11b8152600481018390526001600160a01b0388811660248301523060448301528491908616906317ec83ca90606401612eea565b5060019695505050505050565b5f8581526003602052604090206001600d82015460ff166004811115613059576130596151a7565b146130765760405162461bcd60e51b8152600401610652906156fa565b80545f906001600160a01b03908116908716036130a1575060018101546001600160a01b0316613162565b60018201546001600160a01b03908116908716036130ca575080546001600160a01b0316613162565b60018201546001600160a01b031661310757506001810180546001600160a01b0319166001600160a01b0387811691909117909155815416613162565b60405162461bcd60e51b815260206004820152602a60248201527f4f6e6c79207265676973746572656420686f6c646572732063616e20616363656044820152697074206120747261646560b01b6064820152608401610652565b81545f906001600160a01b038881169116146131815782600901613186565b826005015b6040805160e08101825282546001600160a01b03168152600183015460208201526002830154918101919091526003820154909190606083019060ff1660048111156131d4576131d46151a7565b60048111156131e5576131e56151a7565b8152600382015460ff6101008204811615156020840152620100008204811615156040840152606090920191630100000090910416600281111561322b5761322b6151a7565b600281111561323c5761323c6151a7565b8152505090508060800151156132a05760405162461bcd60e51b8152602060048201526024808201527f547261646520616c72656164792061636365707465642062792074686520686f604482015263363232b960e11b6064820152608401610652565b60028160c0015160028111156132b8576132b86151a7565b036135d8576001816060015160048111156132d5576132d56151a7565b03613331578060200151861461332c5760405162461bcd60e51b815260206004820152601c60248201527b105b5bdd5b9d081bd988115512081a5cc81b9bdd0818dbdc9c9958dd60221b6044820152606401610652565b6136e7565b600281606001516004811115613349576133496151a7565b036133ca57805160208201516040516323b872dd60e01b81526001600160a01b03909216916323b872dd91613384918b913091600401615872565b6020604051808303815f875af11580156133a0573d5f803e3d5ffd5b505050506040513d601f19601f820116820180604052508101906133c49190615896565b506136e7565b6003816060015160048111156133e2576133e26151a7565b0361344f57805160408083015190516323b872dd60e01b81526001600160a01b03909216916323b872dd9161341d918b913091600401615872565b5f604051808303815f87803b158015613434575f80fd5b505af1158015613446573d5f803e3d5ffd5b505050506136e7565b600481606001516004811115613467576134676151a7565b148015613472575084155b1561354c57805f01516001600160a01b0316638c0dee9c8260400151893085602001515f80516020615c128339815191525f1b6040516020016134b791815260200190565b60408051808303601f190181528282525f80516020615c12833981519152602084015291016040516020818303038152906040526040518763ffffffff1660e01b815260040161350c969594939291906158df565b6020604051808303815f875af1158015613528573d5f803e3d5ffd5b505050506040513d601f19601f820116820180604052508101906133c4919061585b565b600481606001516004811115613564576135646151a7565b14801561357057508415155b1561332c578060200151851461332c5760405162461bcd60e51b815260206004820152602760248201527f416d6f756e74206f66204552433134303020746f6b656e73206973206e6f742060448201526618dbdc9c9958dd60ca1b6064820152608401610652565b60018160c0015160028111156135f0576135f06151a7565b0361366c57613600878383614829565b61332c5760405162461bcd60e51b815260206004820152603760248201527f486f6c64206e6565647320746f2062652070726f766964656420696e20746f6b604482015276195b881cdb585c9d0818dbdb9d1c9858dd08199a5c9cdd604a1b6064820152608401610652565b6136768782612e88565b6136e75760405162461bcd60e51b815260206004820152603c60248201527f416c6c6f77616e6365206e6565647320746f2062652070726f7669646564206960448201527b1b881d1bdad95b881cdb585c9d0818dbdb9d1c9858dd08199a5c9cdd60221b6064820152608401610652565b82546001600160a01b03908116908816036137125760088301805461ff001916610100179055613724565b600c8301805461ff0019166101001790555b60048301544210155f6137368a61194d565b9050818015613750575060028501546001600160a01b0316155b801561377b5750600160088601546301000000900460ff166002811115613779576137796151a7565b145b80156137a657506001600c8601546301000000900460ff1660028111156137a4576137a46151a7565b145b80156137af5750805b156138c95784545f906001600160a01b038b81169116146137d357856005016137d8565b856009015b6040805160e08101825282546001600160a01b03168152600183015460208201526002830154918101919091526003820154909190606083019060ff166004811115613826576138266151a7565b6004811115613837576138376151a7565b8152600382015460ff6101008204811615156020840152620100008204811615156040840152606090920191630100000090910416600281111561387d5761387d6151a7565b600281111561388e5761388e6151a7565b905250905061389e858b83614829565b156138c75760088601805461010061ff00199182168117909255600c8801805490911690911790555b505b60028501546001600160a01b03161580156138e857506138e88a610ff4565b80156138f15750805b80156138fa5750815b15613909576139098a87612d38565b50505050505050505050565b3361391e61193f565b6001600160a01b0316146139445760405162461bcd60e51b81526004016106529061575f565b61394d5f613fc5565b565b600182606001516004811115613967576139676151a7565b036139a15760028260c001516002811115613984576139846151a7565b146139a15760405162461bcd60e51b815260040161065290615929565b6001816060015160048111156139b9576139b96151a7565b036139f35760028160c0015160028111156139d6576139d66151a7565b146139f35760405162461bcd60e51b815260040161065290615929565b60018260c001516002811115613a0b57613a0b6151a7565b03613a8657600282606001516004811115613a2857613a286151a7565b1480613a495750600482606001516004811115613a4757613a476151a7565b145b613a655760405162461bcd60e51b81526004016106529061596f565b6040820151613a865760405162461bcd60e51b8152600401610652906159b9565b60018160c001516002811115613a9e57613a9e6151a7565b03613b1957600281606001516004811115613abb57613abb6151a7565b1480613adc5750600481606001516004811115613ada57613ada6151a7565b145b613af85760405162461bcd60e51b81526004016106529061596f565b6040810151613b195760405162461bcd60e51b8152600401610652906159b9565b60085460ff1615613bbf576001600160a01b0385165f908152600a602052604090205460ff16613bbf5760405162461bcd60e51b815260206004820152604560248201527f5472616465206578656375746572206e6565647320746f2062656c6f6e67207460448201527f6f20746865206c697374206f6620616c6c6f7765642074726164652065786563606482015264757465727360d81b608482015260a401610652565b6001600160a01b038716613c2e5760405162461bcd60e51b815260206004820152603060248201527f412074726164652063616e206e6f74206265206372656174656420776974682060448201526f746865207a65726f206164647265737360801b6064820152608401610652565b60028054905f613c3d836159e6565b91905055505f428511613c5c57613c5762278d00426157e4565b613c5e565b845b9050604051806101000160405280896001600160a01b03168152602001886001600160a01b03168152602001876001600160a01b0316815260200182815260200185815260200184815260200183815260200160016004811115613cc457613cc46151a7565b9052600280545f90815260036020818152604092839020855181546001600160a01b039182166001600160a01b03199182161783558784015160018085018054928516928416929092179091558887015197840180549884169883169890981790975560608089015195840195909555608088015160048085019190915560a089015180516005860180549190951693169290921783559381015160068401559485015160078301559284015160088201805492969193909260ff191691908490811115613d9457613d946151a7565b0217905550608082015160038201805460a08501511515620100000262ff000019931515610100029390931662ffff0019909116179190911780825560c0840151919063ff00000019166301000000836002811115613df557613df56151a7565b0217905550505060c082015180516009830180546001600160a01b0319166001600160a01b039092169190911781556020820151600a8401556040820151600b8401556060820151600c8401805460ff19166001836004811115613e5b57613e5b6151a7565b0217905550608082015160038201805460a08501511515620100000262ff000019931515610100029390931662ffff0019909116179190911780825560c0840151919063ff00000019166301000000836002811115613ebc57613ebc6151a7565b0217905550505060e0820151600d8201805460ff19166001836004811115613ee657613ee66151a7565b021790555050505050505050505050565b5f5b600954811015613f55575f600a5f60098481548110613f1a57613f1a6156e6565b5f918252602080832091909101546001600160a01b031683528201929092526040019020805460ff1916911515919091179055600101613ef9565b505f5b8151811015613fb1576001600a5f848481518110613f7857613f786156e6565b6020908102919091018101516001600160a01b031682528101919091526040015f20805460ff1916911515919091179055600101613f58565b508051611252906009906020840190614ee8565b5f80546001600160a01b038381166001600160a01b0319831681178455604051919092169283917f8be0079c531659141344cd1fd0a4f28419497f9722a3daafe3b4186f6b6457e09190a35050565b5f808260405160200161402791906159fe565b60408051601f1981840301815290829052805160209091012063555ddc6560e11b82529150731820a4b7618bde71dce8cdc73aab6c95905fad249063aabbb8ca906140789087908590600401615a14565b602060405180830381865afa158015614093573d5f803e3d5ffd5b505050506040513d601f19601f820116820180604052508101906140b7919061582d565b949350505050565b5f81515f036140cf57505f610b89565b5f6140db846020015190565b9050835161014014801561410e57507fcccccccccccccccccccccccccccccccccccccccccccccccccccccccccccccccc81145b1561411d576001915050610b89565b83516040148061412e575083516060145b801561415957507fdddddddddddddddddddddddddddddddddddddddddddddddddddddddddddddddd81145b15614168576001915050610b89565b8351602014801561418557505f80516020615c1283398151915281145b15614194576001915050610b89565b5f915050610b89565b6141a5614f3b565b60c082015160e0808401516101008501516101208601516101408701516040805195860181526001600160a01b0387168652602086018590528501839052929391929091606081018360048111156141ff576141ff6151a7565b81525f602082018190526040820152606001826002811115614223576142236151a7565b9052979650505050505050565b5f8581526003602052604081209080866001811115614251576142516151a7565b146142695760018201546001600160a01b0316614275565b81546001600160a01b03165b90505f8087600181111561428b5761428b6151a7565b146142a05782546001600160a01b03166142af565b60018301546001600160a01b03165b90505f808860018111156142c5576142c56151a7565b146142d357836009016142d8565b836005015b6040805160e08101825282546001600160a01b03168152600183015460208201526002830154918101919091526003820154909190606083019060ff166004811115614326576143266151a7565b6004811115614337576143376151a7565b8152600382015460ff6101008204811615156020840152620100008204811615156040840152606090920191630100000090910416600281111561437d5761437d6151a7565b600281111561438e5761438e6151a7565b81525050905083600301544211156143b85760405162461bcd60e51b815260040161065290615a2d565b80516040820151606083015160028160048111156143d8576143d86151a7565b14806143f5575060048160048111156143f3576143f36151a7565b145b6144415760405162461bcd60e51b815260206004820152601f60248201527f546f6b656e207374616e64617264206d75737420626520686f6c6461626c65006044820152606401610652565b61444c868686614829565b61448a5760405162461bcd60e51b815260206004820152600f60248201526e121bdb19081b5d5cdd08195e1a5cdd608a1b6044820152606401610652565b6144978383838b89614b5b565b505050505050505050505050565b5f84815260036020526040812090808560018111156144c6576144c66151a7565b146144de5760018201546001600160a01b03166144ea565b81546001600160a01b03165b90505f80866001811115614500576145006151a7565b146145155782546001600160a01b0316614524565b60018301546001600160a01b03165b90505f8087600181111561453a5761453a6151a7565b14614548578360090161454d565b836005015b805460028083015460038401549394506001600160a01b039092169260ff1690869060038601546301000000900460ff16600281111561458f5761458f6151a7565b036145975750305b88156145a5578695506145c9565b87600301544211156145c95760405162461bcd60e51b815260040161065290615a2d565b60018260048111156145dd576145dd6151a7565b0361461e5760405186906001600160a01b038216908c156108fc02908d905f818181858888f19350505050158015614617573d5f803e3d5ffd5b5050614497565b6002826004811115614632576146326151a7565b036146eb57306001600160a01b038216036146bb5760405163a9059cbb60e01b81526001600160a01b0385169063a9059cbb906146759089908e90600401615a14565b6020604051808303815f875af1158015614691573d5f803e3d5ffd5b505050506040513d601f19601f820116820180604052508101906146b59190615896565b50614497565b6040516323b872dd60e01b81526001600160a01b038516906323b872dd906146759084908a908f90600401615872565b60038260048111156146ff576146ff6151a7565b03614766576040516323b872dd60e01b81526001600160a01b038516906323b872dd906147349084908a908890600401615872565b5f604051808303815f87803b15801561474b575f80fd5b505af115801561475d573d5f803e3d5ffd5b50505050614497565b600482600481111561477a5761477a6151a7565b03614497576040516323037ba760e21b8152600481018490526001600160a01b0382811660248301528781166044830152606482018c905260c060848301525f60c4830181905260e060a484015260e4830152851690638c0dee9c90610104016020604051808303815f875af11580156147f6573d5f803e3d5ffd5b505050506040513d601f19601f8201168201806040525081019061481a919061585b565b50505050505050505050505050565b8051604082015160608301515f929190600481600481111561484d5761484d6151a7565b036149df575f61488b846040518060400160405280601681526020017522a921989a18182a37b5b2b739ab30b634b230ba37b960511b815250614014565b90506001600160a01b0381166148b35760405162461bcd60e51b815260040161065290615a5e565b5f805f805f80866001600160a01b03166312da4de68b8b6040518363ffffffff1660e01b81526004016148e7929190615a14565b61012060405180830381865afa158015614903573d5f803e3d5ffd5b505050506040513d601f19601f820116820180604052508101906149279190615ab1565b9d50959b5093995090975090955090935060019250614944915050565b866006811115614956576149566151a7565b14801561496657508b6020015183145b801561499457508d6001600160a01b0316856001600160a01b0316148061499457506001600160a01b038516155b80156149b157508c6001600160a01b0316846001600160a01b0316145b80156149ce5750801515806149ce57506001600160a01b03821630145b9a50505050505050505050506111de565b60028160048111156149f3576149f36151a7565b03614b1357604051636d0f612360e11b8152600481018390525f906001600160a01b0385169063da1ec2469060240160e060405180830381865afa158015614a3d573d5f803e3d5ffd5b505050506040513d601f19601f82011682018060405250810190614a619190615b3a565b9050876001600160a01b0316815f01516001600160a01b03161480614a8e575080516001600160a01b0316155b8015614aaf5750866001600160a01b031681602001516001600160a01b0316145b8015614ac2575085602001518160600151145b8015614ae3575060018160c001516006811115614ae157614ae16151a7565b145b8015614b08575060a0810151151580614b08575060408101516001600160a01b031630145b9450505050506111de565b60405162461bcd60e51b815260206004820152601e60248201527f496e76616c696420746f6b656e5374616e646172642070726f766964656400006044820152606401610652565b6002836004811115614b6f57614b6f6151a7565b03614bfb576001600160a01b038516614b9a5760405162461bcd60e51b815260040161065290615bda565b60405163445850af60e01b815260048101859052602481018390526001600160a01b0386169063445850af906044015f604051808303815f87803b158015614be0575f80fd5b505af1158015614bf2573d5f803e3d5ffd5b50505050614dd3565b6004836004811115614c0f57614c0f6151a7565b03614d92576001600160a01b038516614c3a5760405162461bcd60e51b815260040161065290615bda565b5f614c73866040518060400160405280601681526020017522a921989a18182a37b5b2b739ab30b634b230ba37b960511b815250614014565b90506001600160a01b038116614c9b5760405162461bcd60e51b815260040161065290615a5e565b60405163096d26f360e11b81525f906001600160a01b038316906312da4de690614ccb908a908a90600401615a14565b61012060405180830381865afa158015614ce7573d5f803e3d5ffd5b505050506040513d601f19601f82011682018060405250810190614d0b9190615ab1565b5050604051631531bc2360e21b81526001600160a01b038f81166004830152602482018f905260448201859052606482018d905293985092891696506354c6f08c95505060849091019250614d5e915050565b5f604051808303815f87803b158015614d75575f80fd5b505af1158015614d87573d5f803e3d5ffd5b505050505050614dd3565b60405162461bcd60e51b81526020600482015260166024820152751a5b9d985b1a59081d1bdad95b881cdd185b99185c9960521b6044820152606401610652565b604080518381526001600160a01b0383811660208301528692908816917ff16e81ebbf4a87ccaa6230614a9d911f4d2a9e9274e2aaca49922f1779959489910160405180910390a35050505050565b828054828255905f5260205f20908101928215614e73579160200282015b82811115614e735781546001600160a01b0319166001600160a01b03843516178255602090920191600190910190614e40565b50614e7f929150614f76565b5090565b6040518061010001604052805f6001600160a01b031681526020015f6001600160a01b031681526020015f6001600160a01b031681526020015f81526020015f8152602001614ed0614f3b565b8152602001614edd614f3b565b81526020015f905290565b828054828255905f5260205f20908101928215614e73579160200282015b82811115614e7357825182546001600160a01b0319166001600160a01b03909116178255602090920191600190910190614f06565b6040805160e0810182525f8082526020820181905291810182905290606082019081525f602082018190526040820181905260609091015290565b5b80821115614e7f575f8155600101614f77565b6001600160a01b038116811461079c575f80fd5b8035614fa981614f8a565b919050565b5f60208284031215614fbe575f80fd5b81356111de81614f8a565b602080825282518282018190525f9190848201906040850190845b818110156150095783516001600160a01b031683529284019291840191600101614fe4565b50909695505050505050565b5f8083601f840112615025575f80fd5b5081356001600160401b0381111561503b575f80fd5b6020830191508360208260051b8501011115615055575f80fd5b9250929050565b5f805f6040848603121561506e575f80fd5b833561507981614f8a565b925060208401356001600160401b03811115615093575f80fd5b61509f86828701615015565b9497909650939450505050565b5f602082840312156150bc575f80fd5b5035919050565b801515811461079c575f80fd5b5f805f606084860312156150e2575f80fd5b83356150ed81614f8a565b925060208401356150fd81614f8a565b9150604084013561510d816150c3565b809150509250925092565b5f8060408385031215615129575f80fd5b823561513481614f8a565b9150602083013561514481614f8a565b809150509250929050565b5f8060408385031215615160575f80fd5b82359150602083013561514481614f8a565b5f805f60608486031215615184575f80fd5b833592506020840135615196816150c3565b929592945050506040919091013590565b634e487b7160e01b5f52602160045260245ffd5b6005811061079c5761079c6151a7565b80516001600160a01b03168252602080820151908301526040808201519083015260608101516151fa816151bb565b8060608401525060808101511515608083015260a0810151151560a083015260c08101516003811061522e5761522e6151a7565b8060c0840152505050565b5f6102808201905060018060a01b0380845116835280602085015116602084015280604085015116604084015250606083015160608301526080830151608083015260a083015161528d60a08401826151cb565b5060c08301516152a16101808401826151cb565b5060e08301516152b0816151bb565b806102608401525092915050565b5f80604083850312156152cf575f80fd5b50508035926020909101359150565b5f805f805f60a086880312156152f2575f80fd5b85356152fd81614f8a565b9450602086013561530d81614f8a565b94979496505050506040830135926060810135926080909101359150565b5f806040838503121561533c575f80fd5b823591506020830135615144816150c3565b5f805f8060808587031215615361575f80fd5b843561536c81614f8a565b9350602085013561537c81614f8a565b93969395505050506040820135916060013590565b5f808284036102008112156153a4575f80fd5b6101e0808212156153b3575f80fd5b9395938601359450505050565b5f80602083850312156153d1575f80fd5b82356001600160401b038111156153e6575f80fd5b6153f285828601615015565b90969095509350505050565b5f806040838503121561540f575f80fd5b823561541a81614f8a565b946020939093013593505050565b5f8083601f840112615438575f80fd5b5081356001600160401b0381111561544e575f80fd5b602083019150836020828501011115615055575f80fd5b634e487b7160e01b5f52604160045260245ffd5b5f82601f830112615488575f80fd5b81356001600160401b03808211156154a2576154a2615465565b604051601f8301601f19908116603f011681019082821181831017156154ca576154ca615465565b816040528381528660208588010111156154e2575f80fd5b836020870160208301375f602085830101528094505050505092915050565b5f805f805f805f805f806101008b8d03121561551b575f80fd5b8a356001600160401b0380821115615531575f80fd5b61553d8e838f01615428565b909c509a5060208d013599508a915061555860408e01614f9e565b985061556660608e01614f9e565b975061557460808e01614f9e565b965060a08d0135955060c08d0135915080821115615590575f80fd5b61559c8e838f01615479565b945060e08d01359150808211156155b1575f80fd5b506155be8d828e01615428565b915080935050809150509295989b9194979a5092959850565b5f805f805f805f805f805f6101008c8e0312156155f2575f80fd5b6001600160401b038c35811015615607575f80fd5b6156148e8e358f01615428565b909c509a5060208d0135995061562c60408e01614f9e565b985061563a60608e01614f9e565b975061564860808e01614f9e565b965060a08d013595508060c08e01351115615661575f80fd5b6156718e60c08f01358f01615428565b909550935060e08d0135811015615686575f80fd5b506156978d60e08e01358e01615428565b81935080925050509295989b509295989b9093969950565b6020808252601d908201527f53656e646572206973206e6f742061207072696365206f7261636c652e000000604082015260600190565b634e487b7160e01b5f52603260045260245ffd5b6020808252601490820152735472616465206973206e6f742070656e64696e6760601b604082015260600190565b6020808252601e908201527f436f6d7065746974696f6e206f6e207072696365206f776e6572736869700000604082015260600190565b6020808252818101527f4f776e61626c653a2063616c6c6572206973206e6f7420746865206f776e6572604082015260600190565b5f602082840312156157a4575f80fd5b8135600581106111de575f80fd5b5f602082840312156157c2575f80fd5b8135600381106111de575f80fd5b634e487b7160e01b5f52601160045260245ffd5b80820180821115610b8957610b896157d0565b8082028115828204841417610b8957610b896157d0565b5f8261582857634e487b7160e01b5f52601260045260245ffd5b500490565b5f6020828403121561583d575f80fd5b81516111de81614f8a565b81810381811115610b8957610b896157d0565b5f6020828403121561586b575f80fd5b5051919050565b6001600160a01b039384168152919092166020820152604081019190915260600190565b5f602082840312156158a6575f80fd5b81516111de816150c3565b5f81518084528060208401602086015e5f602082860101526020601f19601f83011685010191505092915050565b8681526001600160a01b038681166020830152851660408201526060810184905260c0608082018190525f90615917908301856158b1565b82810360a084015261208181856158b1565b60208082526026908201527f457468657220747261646573206e65656420746f206265206f66207479706520604082015265457363726f7760d01b606082015260800190565b6020808252602a908201527f496e76616c696420746f6b656e207374616e6461726420666f7220686f6c64206040820152697472616465207479706560b01b606082015260800190565b602080825260139082015272139bc81a1bdb191259081cdc1958da599a5959606a1b604082015260600190565b5f600182016159f7576159f76157d0565b5060010190565b5f82518060208501845e5f920191825250919050565b6001600160a01b03929092168252602082015260400190565b602080825260179082015276115e1c1a5c985d1a5bdb8819185d19481a5cc81c185cdd604a1b604082015260600190565b60208082526025908201527f746f6b656e20686173206e6f20686f6c6461626c6520746f6b656e20657874656040820152643739b4b7b760d91b606082015260800190565b805160078110614fa9575f80fd5b5f805f805f805f805f6101208a8c031215615aca575f80fd5b8951985060208a0151615adc81614f8a565b60408b0151909850615aed81614f8a565b60608b0151909750615afe81614f8a565b8096505060808a0151945060a08a0151935060c08a0151925060e08a01519150615b2b6101008b01615aa3565b90509295985092959850929598565b5f60e08284031215615b4a575f80fd5b60405160e081016001600160401b0381118282101715615b6c57615b6c615465565b6040528251615b7a81614f8a565b81526020830151615b8a81614f8a565b60208201526040830151615b9d81614f8a565b80604083015250606083015160608201526080830151608082015260a083015160a0820152615bce60c08401615aa3565b60c08201529392505050565b6020808252601f908201527f746f6b656e2063616e206e6f742062652061207a65726f20616464726573730060408201526060019056feaaaaaaaaaaaaaaaaaaaaaaaaaaaaaaaaaaaaaaaaaaaaaaaaaaaaaaaaaaaaaaaa507269636520736574746572206973206e6f7420616e206f7261636c6520666f53656e646572206973206e6f7420616c6c6f77656420746f2063616e63656c2053656e646572206973206e6f7420616c6c6f77656420746f20666f7263652074a2646970667358221220b9c1f2ed97ebb6a8d009fb3bcbf8a19114a8d66b355507310e0485a0afa3500964736f6c63430008190033",
  "immutableReferences": {},
  "source": "// SPDX-License-Identifier: Apache-2.0\n/*\n * This code has not been reviewed.\n * Do not use or deploy this code before reviewing it personally first.\n */\npragma solidity ^0.8.0;\n\nimport \"@openzeppelin/contracts/access/Ownable.sol\";\nimport \"@openzeppelin/contracts/token/ERC20/IERC20.sol\";\nimport \"@openzeppelin/contracts/token/ERC721/IERC721.sol\";\n\nimport \"./ERC1820Client.sol\";\nimport \"../interface/ERC1820Implementer.sol\";\n\nimport \"../extensions/userExtensions/IERC1400TokensRecipient.sol\";\nimport \"../interface/IERC20HoldableToken.sol\";\nimport \"../interface/IHoldableERC1400TokenExtension.sol\";\n\nimport \"../IERC1400.sol\";\n\n\n/**\n * @title Swaps\n * @dev Delivery-Vs-Payment contract for investor-to-investor token trades.\n * @dev Intended usage:\n * The purpose of the contract is to allow secure token transfers/exchanges between 2 stakeholders (called holder1 and holder2).\n * From now on, an operation in the Swaps smart contract (transfer/exchange) is called a trade.\n * Depending on the type of trade, one/multiple token transfers will be executed.\n *\n * The simplified workflow is the following:\n * 1) A trade request is created in the Swaps smart contract, it specifies:\n *  - The token holder(s) involved in the trade\n *  - The trade executer (optional)\n *  - An expiration date\n *  - Details on the first token (address, requested amount, standard)\n *  - Details on the second token (address, requested amount, standard)\n *  - Whether the tokens need to be escrowed in the Swaps contract or not\n *  - The current status of the trade (pending / executed / forced / cancelled)\n * 2) The trade is accepted by both token holders\n * 3) [OPTIONAL] The trade is approved by token controllers (only if requested by tokens controllers)\n * 4) The trade is executed (either by the executer in case the executer is specified, or by anyone)\n *\n * STANDARD-AGNOSTIC:\n * The Swaps smart contract is standard-agnostic, it supports ETH, ERC20, ERC721, ERC1400.\n * The advantage of using an ERC1400 token is to leverages its hook property, thus requiring ONE single\n * transaction (operatorTransferByPartition()) to send tokens to the Swaps smart contract instead of TWO\n * with the ERC20 token standard (approve() + transferFrom()).\n *\n * OFF-CHAIN PAYMENT:\n * The contract can be used as escrow contract while waiting for an off-chain payment.\n * Once payment is received off-chain, the token sender realeases the tokens escrowed in\n * the Swaps contract to deliver them to the recipient.\n *\n * ESCROW VS SWAP MODE:\n * In case escrow mode is selected, tokens need to be escrowed in Swaps smart contract\n * before the trade can occur.\n * In case swap mode is selected, tokens are not escrowed in the Swaps. Instead, the Swaps\n * contract is only allowed to transfer tokens ON BEHALF of their owners. When trade is\n * executed, an atomic token swap occurs.\n *\n * EXPIRATION DATE:\n * The trade can be cancelled by both parties in case expiration date is passed.\n *\n * CLAIMS:\n * The executer has the ability to force or cancel the trade.\n * In case of disagreement/missing payment, both parties can contact the \"executer\"\n * of the trade to deposit a claim and solve the issue.\n *\n * MARKETPLACE:\n * The contract can be used as a token marketplace. Indeed, when trades are created\n * without specifying the recipient address, anyone can purchase them by sending\n * the requested payment in exchange.\n *\n * PRICE ORACLES:\n * When price oracles are defined, those can define the price at which trades need to be executed.\n * This feature is particularly useful for assets with NAV (net asset value).\n *\n */\ncontract Swaps is Ownable, ERC1820Client, IERC1400TokensRecipient, ERC1820Implementer {\n  string constant internal DELIVERY_VS_PAYMENT = \"DeliveryVsPayment\";\n  string constant internal ERC1400_TOKENS_RECIPIENT = \"ERC1400TokensRecipient\";\n\n  uint256 constant internal SECONDS_IN_MONTH = 86400 * 30;\n  uint256 constant internal SECONDS_IN_WEEK = 86400 * 7;\n\n  bytes32 constant internal TRADE_PROPOSAL_FLAG = 0xcccccccccccccccccccccccccccccccccccccccccccccccccccccccccccccccc;\n  bytes32 constant internal TRADE_ACCEPTANCE_FLAG = 0xdddddddddddddddddddddddddddddddddddddddddddddddddddddddddddddddd;\n\n  bytes32 constant internal BYPASS_ACTION_FLAG = 0xaaaaaaaaaaaaaaaaaaaaaaaaaaaaaaaaaaaaaaaaaaaaaaaaaaaaaaaaaaaaaaaa;\n\n  bytes32 constant internal ALL_PARTITIONS = 0x0000000000000000000000000000000000000000000000000000000000000000;\n\n  enum Standard {OffChain, ETH, ERC20, ERC721, ERC1400}\n\n  enum State {Undefined, Pending, Executed, Forced, Cancelled}\n\n  enum TradeType {Allowance, Hold, Escrow}\n\n  enum Holder {Holder1, Holder2}\n    \n  string internal constant ERC1400_TOKENS_VALIDATOR = \"ERC1400TokensValidator\";\n\n  /**\n  @dev Include token events so they can be parsed by Ethereum clients from the settlement transactions.\n    */\n  // Holdable\n  event ExecutedHold(\n      address indexed token,\n      bytes32 indexed holdId,\n      bytes32 lockPreimage,\n      address recipient\n  );\n  // ERC20\n  event Transfer(address indexed from, address indexed to, uint256 tokens);\n  // ERC1400\n  event TransferByPartition(\n      bytes32 indexed fromPartition,\n      address operator,\n      address indexed from,\n      address indexed to,\n      uint256 value,\n      bytes data,\n      bytes operatorData\n  );\n  event CreateNote(\n      address indexed owner,\n      bytes32 indexed noteHash,\n      bytes metadata\n  );\n  event DestroyNote(address indexed owner, bytes32 indexed noteHash);\n\n  struct UserTradeData {\n    address tokenAddress;\n    uint256 tokenValue;\n    bytes32 tokenId;\n    Standard tokenStandard;\n    bool accepted;\n    bool approved;\n    TradeType tradeType;\n  }\n  \n  /**\n   * @dev Input data for the requestTrade function\n   * @param holder1 Address of the first token holder.\n   * @param holder2 Address of the second token holder.\n   * @param executer Executer of the trade.\n   * @param expirationDate Expiration date of the trade.\n   * @param tokenAddress1 Address of the first token smart contract.\n   * @param tokenValue1 Amount of tokens to send for the first token.\n   * @param tokenId1 ERC721ID/holdId/partition of the first token.\n   * @param tokenStandard1 Standard of the first token (ETH | ERC20 | ERC721 | ERC1400).\n   * @param tokenAddress2 Address of the second token smart contract.\n   * @param tokenValue2 Amount of tokens to send for the second token.\n   * @param tokenId2 ERC721ID/holdId/partition of the second token.\n   * @param tokenStandard2 Standard of the second token (ETH | ERC20 | ERC721 | ERC1400).\n   * @param tradeType Indicates whether or not tokens shall be escrowed in the Swaps contract before the trade.\n   */\n  struct TradeRequestInput {\n    address holder1;\n    address holder2;\n    address executer; // Set to address(0) if no executer is required for the trade\n    uint256 expirationDate;\n    address tokenAddress1;\n    uint256 tokenValue1;\n    bytes32 tokenId1;\n    Standard tokenStandard1;\n    address tokenAddress2; // Set to address(0) if no token is expected in return (for example in case of an off-chain payment)\n    uint256 tokenValue2;\n    bytes32 tokenId2;\n    Standard tokenStandard2;\n    TradeType tradeType1;\n    TradeType tradeType2;\n    uint256 settlementDate;\n  }\n\n  struct Trade {\n    address holder1;\n    address holder2;\n    address executer;\n    uint256 expirationDate;\n    uint256 settlementDate;\n    UserTradeData userTradeData1;\n    UserTradeData userTradeData2;\n    State state;\n  }\n\n  // Index of most recent trade request.\n  uint256 internal _index;\n\n  // Mapping from index to trade requests.\n  mapping(uint256 => Trade) internal _trades;\n\n  // Mapping from token to price oracles.\n  mapping(address => address[]) internal _priceOracles;\n\n  // Mapping from (token, operator) to price oracle status.\n  mapping(address => mapping(address => bool)) internal _isPriceOracle;\n\n  // Mapping from (token1, token2) to price ownership.\n  mapping(address => mapping(address => bool)) internal _priceOwnership;\n\n  // Mapping from (token1, token2, tokenId1, tokenId2) to price.\n  mapping(address => mapping (address => mapping (bytes32 =>  mapping (bytes32 => uint256)))) internal _tokenUnitPricesByPartition;\n\n  // Indicate whether Swaps smart contract is owned or not (for instance by an exchange, etc.).\n  bool internal _ownedContract;\n\n  // Array of trade execcuters.\n  address[] internal _tradeExecuters;\n\n  // Mapping from operator to trade executer status.\n  mapping(address => bool) internal _isTradeExecuter;\n\n  // Mapping from token to token controllers.\n  mapping(address => address[]) internal _tokenControllers;\n\n  // Mapping from (token, operator) to token controller status.\n  mapping(address => mapping(address => bool)) internal _isTokenController;\n\n  // Mapping from token to variable price start date.\n  mapping(address => uint256) internal _variablePriceStartDate;\n\n  /**\n   * @dev Modifier to verify if sender is a token controller.\n   */\n  modifier onlyTokenController(address tokenAddress) {\n    require(\n      msg.sender == Ownable(tokenAddress).owner() ||\n      _isTokenController[tokenAddress][msg.sender],\n      \"Sender is not a token controller.\"\n    );\n    _;\n  }\n\n  /**\n   * @dev Modifier to verify if sender is a price oracle.\n   */\n  modifier onlyPriceOracle(address tokenAddress) {\n    require(_checkPriceOracle(tokenAddress, msg.sender), \"Sender is not a price oracle.\");\n    _;\n  }\n\n  /**\n   * [Swaps CONSTRUCTOR]\n   * @dev Initialize Swaps + register\n   * the contract implementation in ERC1820Registry.\n   */\n  constructor(bool owned) {\n    ERC1820Implementer._setInterface(DELIVERY_VS_PAYMENT);\n    ERC1820Implementer._setInterface(ERC1400_TOKENS_RECIPIENT);\n    setInterfaceImplementation(ERC1400_TOKENS_RECIPIENT, address(this));\n\n    _ownedContract = owned;\n\n    if(_ownedContract) {\n      address[] memory initialTradeExecuters = new address[] (1);\n      initialTradeExecuters[0] = msg.sender;\n      _setTradeExecuters(initialTradeExecuters);\n    }\n  }\n\n  /**\n   * [ERC1400TokensRecipient INTERFACE (1/2)]\n   * @dev Indicate whether or not the Swaps contract can receive the tokens or not. [USED FOR ERC1400 TOKENS ONLY]\n   * @param data Information attached to the token transfer.\n   * @param operatorData Information attached to the Swaps transfer, by the operator.\n   * @return 'true' if the Swaps contract can receive the tokens, 'false' if not.\n   */\n  function canReceive(bytes calldata, bytes32, address, address, address, uint, bytes calldata  data, bytes calldata operatorData) external override pure returns(bool) {\n    return(_canReceive(data, operatorData));\n  }\n\n  /**\n   * [ERC1400TokensRecipient INTERFACE (2/2)]\n   * @dev Hook function executed when tokens are sent to the Swaps contract. [USED FOR ERC1400 TOKENS ONLY]\n   * @param partition Name of the partition.\n   * @param from Token holder.\n   * @param to Token recipient.\n   * @param value Number of tokens to transfer.\n   * @param data Information attached to the token transfer.\n   * @param operatorData Information attached to the Swaps transfer, by the operator.\n   */\n  function tokensReceived(bytes calldata, bytes32 partition, address, address from, address to, uint value, bytes memory data, bytes calldata operatorData) external override {\n    require(interfaceAddr(msg.sender, \"ERC1400Token\") == msg.sender, \"55\"); // funds locked (lockup period)\n\n    require(to == address(this), \"50\"); // 0x50\ttransfer failure\n    require(_canReceive(data, operatorData), \"57\"); // 0x57\tinvalid receiver\n\n    bytes32 flag = _getTradeFlag(data);\n    if(flag == TRADE_PROPOSAL_FLAG) {\n      address recipient;\n      address executor;\n      uint256 expirationDate;\n      uint256 settlementDate;\n      assembly {\n        recipient:= mload(add(data, 64))\n        executor:= mload(add(data, 96))\n        expirationDate:= mload(add(data, 128))\n        settlementDate:= mload(add(data, 160))\n      }\n      // Token data: < 1: address > < 2: amount > < 3: id/partition > < 4: standard > < 5: accepted > < 6: approved >\n      UserTradeData memory _tradeData1 = UserTradeData(msg.sender, value, partition, Standard.ERC1400, true, false, TradeType.Escrow);\n      UserTradeData memory _tokenData2 = _getTradeTokenData(data);\n\n      _requestTrade(\n        from,\n        recipient,\n        executor,\n        expirationDate,\n        settlementDate,\n        _tradeData1,\n        _tokenData2\n      );\n\n    } else if (flag == TRADE_ACCEPTANCE_FLAG) {\n      uint256 index;\n      bytes32 preimage = bytes32(0);\n      assembly {\n        index:= mload(add(data, 64))\n      }\n      if (data.length == 96) {\n        //This field is optional\n        //If the data's length does not include the preimage\n        //then return an empty preimage\n        //canReceive accepts both data lengths\n        assembly {\n          preimage:= mload(add(data, 96))\n        }\n      }\n      Trade storage trade = _trades[index];\n\n      UserTradeData memory selectedUserTradeData = (from == trade.holder1) ? trade.userTradeData1 : trade.userTradeData2;\n      require(msg.sender == selectedUserTradeData.tokenAddress, \"Wrong token sent\");\n      require(partition == selectedUserTradeData.tokenId, \"Tokens of the wrong partition sent\");\n      require(Standard.ERC1400 == selectedUserTradeData.tokenStandard, \"Tokens of the wrong standard sent\");\n\n      _acceptTrade(index, from, 0, value, preimage);         \n    }\n  }\n\n  /**\n   * @dev Create a new trade request in the Swaps smart contract.\n   * @param inputData The input for this function\n   */\n  function requestTrade(TradeRequestInput calldata inputData, bytes32 preimage)\n    external\n    payable\n  {\n    _requestTrade(\n      inputData.holder1,\n      inputData.holder2,\n      inputData.executer,\n      inputData.expirationDate,\n      inputData.settlementDate,\n      UserTradeData(inputData.tokenAddress1, inputData.tokenValue1, inputData.tokenId1, inputData.tokenStandard1, false, false, inputData.tradeType1),\n      UserTradeData(inputData.tokenAddress2, inputData.tokenValue2, inputData.tokenId2, inputData.tokenStandard2, false, false, inputData.tradeType2)\n    );\n\n    if(msg.sender == inputData.holder1 || msg.sender == inputData.holder2) {\n      _acceptTrade(_index, msg.sender, msg.value, 0, preimage);\n    }\n  }\n\n  /**\n   * @dev Create a new trade request in the Swaps smart contract.\n   * @param holder1 Address of the first token holder.\n   * @param holder2 Address of the second token holder.\n   * @param executer Executer of the trade.\n   * @param expirationDate Expiration date of the trade.\n   * @param userTradeData1 Encoded pack of variables for token1 (address, amount, id/partition, standard, accepted, approved).\n   * @param userTradeData2 Encoded pack of variables for token2 (address, amount, id/partition, standard, accepted, approved).\n   */\n  function _requestTrade(\n    address holder1,\n    address holder2,\n    address executer, // Set to address(0) if no executer is required for the trade\n    uint256 expirationDate,\n    uint256 settlementDate,\n    UserTradeData memory userTradeData1,\n    UserTradeData memory userTradeData2\n  ) \n    internal\n  {\n    if(userTradeData1.tokenStandard == Standard.ETH) {\n      require(userTradeData1.tradeType == TradeType.Escrow, \"Ether trades need to be of type Escrow\");\n    }\n\n    if(userTradeData2.tokenStandard == Standard.ETH) {\n      require(userTradeData2.tradeType == TradeType.Escrow, \"Ether trades need to be of type Escrow\");\n    }\n\n    if (userTradeData1.tradeType == TradeType.Hold) {\n      require(userTradeData1.tokenStandard == Standard.ERC20 || userTradeData1.tokenStandard == Standard.ERC1400, \"Invalid token standard for hold trade type\");\n      require(userTradeData1.tokenId != bytes32(0), \"No holdId specified\");\n    }\n    \n    if (userTradeData2.tradeType == TradeType.Hold) {\n      require(userTradeData2.tokenStandard == Standard.ERC20 || userTradeData2.tokenStandard == Standard.ERC1400, \"Invalid token standard for hold trade type\");\n      require(userTradeData2.tokenId != bytes32(0), \"No holdId specified\");\n    }\n\n    if(_ownedContract) {\n      require(_isTradeExecuter[executer], \"Trade executer needs to belong to the list of allowed trade executers\");\n    }\n\n    require(holder1 != address(0), \"A trade can not be created with the zero address\");\n    \n    _index++;\n\n    uint256 _expirationDate = (expirationDate > block.timestamp) ? expirationDate : (block.timestamp + SECONDS_IN_MONTH);\n\n    _trades[_index] = Trade({\n      holder1: holder1,\n      holder2: holder2,\n      executer: executer,\n      expirationDate: _expirationDate,\n      settlementDate: settlementDate,\n      userTradeData1: userTradeData1,\n      userTradeData2: userTradeData2,\n      state: State.Pending\n    });\n  }\n\n  /**\n   * @dev Accept a given trade (+ potentially escrow tokens).\n   * @param index Index of the trade to be accepted.\n   */\n  function acceptTrade(uint256 index, bytes32 preimage) external payable {\n    _acceptTrade(index, msg.sender, msg.value, 0, preimage);\n  }\n\n  /**\n   * @dev Accept a given trade (+ potentially escrow tokens).\n   * @param index Index of the trade to be accepted.\n   * @param sender Message sender\n   * @param ethValue Value sent (only used for ETH)\n   * @param erc1400TokenValue Value sent (only used for ERC1400)\n   */\n  function _acceptTrade(uint256 index, address sender, uint256 ethValue, uint256 erc1400TokenValue, bytes32 preimage) internal {\n    Trade storage trade = _trades[index];\n    require(trade.state == State.Pending, \"Trade is not pending\");\n\n    address recipientHolder;\n    if(sender == trade.holder1) {\n      recipientHolder = trade.holder2;\n    } else if(sender == trade.holder2) {\n      recipientHolder = trade.holder1;\n    } else if(trade.holder2 == address(0)) {\n      trade.holder2 = sender;\n      recipientHolder = trade.holder1;\n    } else {\n      revert(\"Only registered holders can accept a trade\");\n    }\n\n    UserTradeData memory selectedUserTradeData = (sender == trade.holder1) ? trade.userTradeData1 : trade.userTradeData2;\n\n    require(!selectedUserTradeData.accepted, \"Trade already accepted by the holder\");\n\n    if(selectedUserTradeData.tradeType == TradeType.Escrow) {\n      if(selectedUserTradeData.tokenStandard == Standard.ETH) {\n        require(ethValue == selectedUserTradeData.tokenValue, \"Amount of ETH is not correct\");\n      } else if(selectedUserTradeData.tokenStandard == Standard.ERC20) {        \n        IERC20(selectedUserTradeData.tokenAddress).transferFrom(sender, address(this), selectedUserTradeData.tokenValue);\n      } else if(selectedUserTradeData.tokenStandard == Standard.ERC721) {\n        IERC721(selectedUserTradeData.tokenAddress).transferFrom(sender, address(this), uint256(selectedUserTradeData.tokenId));\n      } else if((selectedUserTradeData.tokenStandard == Standard.ERC1400) && erc1400TokenValue == 0){\n        IERC1400(selectedUserTradeData.tokenAddress).operatorTransferByPartition(selectedUserTradeData.tokenId, sender, address(this), selectedUserTradeData.tokenValue, abi.encodePacked(BYPASS_ACTION_FLAG), abi.encodePacked(BYPASS_ACTION_FLAG));\n      } else if((selectedUserTradeData.tokenStandard == Standard.ERC1400) && erc1400TokenValue != 0){\n        require(erc1400TokenValue == selectedUserTradeData.tokenValue, \"Amount of ERC1400 tokens is not correct\");\n      }\n    } else if (selectedUserTradeData.tradeType == TradeType.Hold) {\n        require(_holdExists(sender, recipientHolder, selectedUserTradeData), \"Hold needs to be provided in token smart contract first\");\n    } else { // trade.tradeType == TradeType.Allowance\n        require(_allowanceIsProvided(sender, selectedUserTradeData), \"Allowance needs to be provided in token smart contract first\");\n    }\n\n    if(sender == trade.holder1) {\n      trade.userTradeData1.accepted = true;\n    } else {\n      trade.userTradeData2.accepted = true;\n    }\n\n    \n    bool settlementDatePassed = block.timestamp >= trade.settlementDate;\n    bool tradeApproved = getTradeApprovalStatus(index);\n    //Execute both holds of a trade if the following conditions are met\n    //* There is no executer set. Only the executer should execute transactions if one is defined\n    //* Both trade types are holds\n    //* The trade is approved. Token controllers must pre-approve this trade. This is also true if the token has no token controllers\n    //* If both holds exist according to _holdExists\n    //* If the current block timestamp is after the settlement date\n    if (settlementDatePassed && trade.executer == address(0) && trade.userTradeData1.tradeType == TradeType.Hold && trade.userTradeData2.tradeType == TradeType.Hold && tradeApproved) {\n      //we know selectedUserTradeData has a hold that exists, so check the other one\n      UserTradeData memory otherUserTradeData = (sender == trade.holder1) ? trade.userTradeData2 : trade.userTradeData1;\n      if (_holdExists(recipientHolder, sender, otherUserTradeData)) {\n        //If both holds exist, then mark both sides of trade as accepted\n        //Next if will execute trade\n        trade.userTradeData1.accepted = true;\n        trade.userTradeData2.accepted = true;\n      }\n    }\n\n    if(\n      trade.executer == address(0) && getTradeAcceptanceStatus(index) && tradeApproved && settlementDatePassed) {\n      _executeTrade(index, preimage);\n    }\n  }\n  /**\n   * @dev Verify if a trade has been accepted by the token holders.\n   *\n   * The trade needs to be accepted by both parties (token holders) before it gets executed.\n   *\n   * @param index Index of the trade to be accepted.\n   */\n  function getTradeAcceptanceStatus(uint256 index) public view returns(bool) {\n    Trade storage trade = _trades[index];\n\n    if(trade.state == State.Pending) {\n      if(trade.userTradeData1.tradeType == TradeType.Allowance && !_allowanceIsProvided(trade.holder1, trade.userTradeData1)) {\n        return false;\n      }\n      if(trade.userTradeData2.tradeType == TradeType.Allowance && !_allowanceIsProvided(trade.holder2, trade.userTradeData2)) {\n        return false;\n      }\n    }\n\n    return(trade.userTradeData1.accepted && trade.userTradeData2.accepted);\n  }\n\n  /**\n   * @dev Verify if a token allowance has been provided in token smart contract.\n   *\n   * @param sender Address of the sender.\n   * @param userTradeData Encoded pack of variables for the token (address, amount, id/partition, standard, accepted, approved).\n   */\n  function _allowanceIsProvided(address sender, UserTradeData memory userTradeData) internal view returns(bool) {\n    address tokenAddress = userTradeData.tokenAddress;\n    uint256 tokenValue = userTradeData.tokenValue;\n    bytes32 tokenId = userTradeData.tokenId;\n    Standard tokenStandard = userTradeData.tokenStandard;\n\n    if(tokenStandard == Standard.ERC20) {        \n      return(IERC20(tokenAddress).allowance(sender, address(this)) >= tokenValue);\n    } else if(tokenStandard == Standard.ERC721) {\n      return(IERC721(tokenAddress).getApproved(uint256(tokenId)) == address(this));\n    } else if(tokenStandard == Standard.ERC1400){\n      return(IERC1400(tokenAddress).allowanceByPartition(tokenId, sender, address(this)) >= tokenValue);\n    }\n\n    return true;\n  }\n\n  function approveTrade(uint256 index, bool approved) external {\n    approveTradeWithPreimage(index, approved, 0);\n  }\n\n  /**\n   * @dev Approve a trade (if the tokens involved in the trade are controlled)\n   *\n   * This function can only be called by a token controller of one of the tokens involved in the trade.\n   *\n   * Indeed, when a token smart contract is controlled by an owner, the owner can decide to open the\n   * secondary market by:\n   *  - Allowlisting the Swaps smart contract\n   *  - Setting \"token controllers\" in the Swaps smart contract, in order to approve all the trades made with his token\n   *\n   * @param index Index of the trade to be executed.\n   * @param approved 'true' if trade is approved, 'false' if not.\n   */\n  function approveTradeWithPreimage(uint256 index, bool approved, bytes32 preimage) public {\n    Trade storage trade = _trades[index];\n    require(trade.state == State.Pending, \"Trade is not pending\");\n\n    require(_isTokenController[trade.userTradeData1.tokenAddress][msg.sender] || _isTokenController[trade.userTradeData2.tokenAddress][msg.sender], \"Only token controllers of involved tokens can approve a trade\");\n\n    if(_isTokenController[trade.userTradeData1.tokenAddress][msg.sender]) {\n      trade.userTradeData1.approved = approved;\n    }\n    \n    if(_isTokenController[trade.userTradeData2.tokenAddress][msg.sender]) {\n      trade.userTradeData2.approved = approved;\n    }\n\n    if(trade.executer == address(0) && getTradeAcceptanceStatus(index) && getTradeApprovalStatus(index)) {\n      _executeTrade(index, preimage);\n    }\n  }\n\n  /**\n   * @dev Verify if a trade has been approved by the token controllers.\n   *\n   * In case a given token has token controllers, those need to validate the trade before it gets executed.\n   *\n   * @param index Index of the trade to be approved.\n   */\n  function getTradeApprovalStatus(uint256 index) public view returns(bool) {\n    Trade storage trade = _trades[index];\n\n    if(_tokenControllers[trade.userTradeData1.tokenAddress].length != 0 && !trade.userTradeData1.approved) {\n      return false;\n    }\n\n    if(_tokenControllers[trade.userTradeData2.tokenAddress].length != 0 && !trade.userTradeData2.approved) {\n      return false;\n    }\n\n    return true;\n  }\n\n  function executeTrade(uint256 index) external {\n    executeTradeWithPreimage(index, 0);\n  }\n\n  /**\n   * @dev Execute a trade in the Swaps contract if possible (e.g. if tokens have been esccrowed, in case it is required).\n   *\n   * This function can only be called by the executer specified at trade creation.\n   * If no executer is specified, the trade can be launched by anyone.\n   *\n   * @param index Index of the trade to be executed.\n   */\n  function executeTradeWithPreimage(uint256 index, bytes32 preimage) public {\n    Trade storage trade = _trades[index];\n    require(trade.state == State.Pending, \"Trade is not pending\");\n\n    if(trade.executer != address(0)) {\n      require(msg.sender == trade.executer, \"Trade can only be executed by executer defined at trade creation\");\n    }\n\n    require(block.timestamp >= trade.settlementDate, \"Trade can only be executed on or after settlement date\");\n\n    require(getTradeAcceptanceStatus(index), \"Trade has not been accepted by all token holders yet\");\n    \n    require(getTradeApprovalStatus(index), \"Trade has not been approved by all token controllers yet\");\n\n    _executeTrade(index, preimage);\n  }\n\n  /**\n   * @dev Execute a trade in the Swaps contract if possible (e.g. if tokens have been esccrowed, in case it is required).\n   * @param index Index of the trade to be executed.\n   */\n  function _executeTrade(uint256 index, bytes32 preimage) internal {\n    Trade storage trade = _trades[index];\n\n    uint256 price = getPrice(index);\n\n    uint256 tokenValue1 = trade.userTradeData1.tokenValue;\n    uint256 tokenValue2 = trade.userTradeData2.tokenValue;\n\n    if(price == tokenValue2) {\n      _transferUsersTokens(index, Holder.Holder1, tokenValue1, false, preimage);\n      _transferUsersTokens(index, Holder.Holder2, tokenValue2, false, preimage);\n    } else {\n      //Holds cannot move a specific amount of tokens\n      //So require that if the price is less than the value\n      //that the trade is not a hold trade\n      require(price <= tokenValue2 && trade.userTradeData2.tradeType != TradeType.Hold, \"Price is higher than amount escrowed/authorized\");\n      _transferUsersTokens(index, Holder.Holder1, tokenValue1, false, preimage);\n      _transferUsersTokens(index, Holder.Holder2, price, false, preimage);\n      if(trade.userTradeData2.tradeType == TradeType.Escrow) {\n        _transferUsersTokens(index, Holder.Holder2, tokenValue2 - price, true, preimage);\n      }\n    }\n    trade.state = State.Executed;\n\n  }\n\n  function forceTrade(uint256 index) external {\n    forceTradeWithPreimage(index, 0);\n  }\n\n  /**\n   * @dev Force a trade execution in the Swaps contract by transferring tokens back to their target recipients.\n   * @param index Index of the trade to be forced.\n   */\n  function forceTradeWithPreimage(uint256 index, bytes32 preimage) public {\n    Trade storage trade = _trades[index];\n    require(trade.state == State.Pending, \"Trade is not pending\");\n    \n    address tokenAddress1 = trade.userTradeData1.tokenAddress;\n    uint256 tokenValue1 = trade.userTradeData1.tokenValue;\n    bool accepted1 = trade.userTradeData1.accepted;\n\n    address tokenAddress2 = trade.userTradeData2.tokenAddress;\n    uint256 tokenValue2 = trade.userTradeData2.tokenValue;\n    bool accepted2 = trade.userTradeData2.accepted;\n\n    require(!(accepted1 && accepted2), \"executeTrade can be called\");\n    require(_tokenControllers[tokenAddress1].length == 0 && _tokenControllers[tokenAddress2].length == 0, \"Trade can not be forced if tokens have controllers\");\n\n    if(trade.executer != address(0)) {\n      require(msg.sender == trade.executer, \"Sender is not allowed to force trade (0)\");\n    } else if(accepted1) {\n      require(msg.sender == trade.holder1, \"Sender is not allowed to force trade (1)\");\n    } else if(accepted2) {\n      require(msg.sender == trade.holder2, \"Sender is not allowed to force trade (2)\");\n    } else {\n      revert(\"Trade can't be forced as tokens are not available so far\");\n    }\n\n    if(accepted1) {\n      _transferUsersTokens(index, Holder.Holder1, tokenValue1, false, preimage);\n    }\n\n    if(accepted2) {\n      _transferUsersTokens(index, Holder.Holder2, tokenValue2, false, preimage);\n    }\n\n    trade.state = State.Forced;\n  }\n\n  /**\n   * @dev Cancel a trade execution in the Swaps contract by transferring tokens back to their initial owners.\n   * @param index Index of the trade to be cancelled.\n   */\n  function cancelTrade(uint256 index) external {\n    Trade storage trade = _trades[index];\n    require(trade.state == State.Pending, \"Trade is not pending\");\n\n    uint256 tokenValue1 = trade.userTradeData1.tokenValue;\n    bool accepted1 = trade.userTradeData1.accepted;\n\n    uint256 tokenValue2 = trade.userTradeData2.tokenValue;\n    bool accepted2 = trade.userTradeData2.accepted;\n\n    if(accepted1 && accepted2) {\n      require(msg.sender == trade.executer || (block.timestamp >= trade.expirationDate && (msg.sender == trade.holder1 || msg.sender == trade.holder2) ), \"Sender is not allowed to cancel trade (0)\");\n      if(trade.userTradeData1.tradeType == TradeType.Escrow) {\n        _transferUsersTokens(index, Holder.Holder1, tokenValue1, true, bytes32(0));\n      }\n      if(trade.userTradeData2.tradeType == TradeType.Escrow) {\n        _transferUsersTokens(index, Holder.Holder2, tokenValue2, true, bytes32(0));\n      }\n    } else if(accepted1) {\n      require(msg.sender == trade.executer || (block.timestamp >= trade.expirationDate && msg.sender == trade.holder1), \"Sender is not allowed to cancel trade (1)\");\n      if(trade.userTradeData1.tradeType == TradeType.Escrow) {\n        _transferUsersTokens(index, Holder.Holder1, tokenValue1, true, bytes32(0));\n      }\n    } else if(accepted2) {\n      require(msg.sender == trade.executer || (block.timestamp >= trade.expirationDate && msg.sender == trade.holder2), \"Sender is not allowed to cancel trade (2)\");\n      if(trade.userTradeData2.tradeType == TradeType.Escrow) {\n        _transferUsersTokens(index, Holder.Holder2, tokenValue2, true, bytes32(0));\n      }\n    } else {\n      require(msg.sender == trade.executer || msg.sender == trade.holder1 || msg.sender == trade.holder2, \"Sender is not allowed to cancel trade (3)\");\n    }\n\n    trade.state = State.Cancelled;\n  }\n\n  function _transferUsersTokens(uint256 index, Holder holder, uint256 value, bool revertTransfer, bytes32 preimage) internal { \n    Trade storage trade = _trades[index];\n\n    UserTradeData memory senderUserTradeData = (holder == Holder.Holder1) ? trade.userTradeData1 : trade.userTradeData2;\n\n    TradeType tokenTradeType = senderUserTradeData.tradeType;\n\n    if (tokenTradeType == TradeType.Hold) {\n      _executeHoldOnUsersTokens(index, holder, value, revertTransfer, preimage);\n    } else {\n      _executeTransferOnUsersTokens(index, holder, value, revertTransfer);\n    }\n  }\n\n  function _executeHoldOnUsersTokens(uint256 index, Holder holder, uint256, bool, bytes32 preimage) internal { \n    Trade storage trade = _trades[index];\n\n    address sender = (holder == Holder.Holder1) ? trade.holder1 : trade.holder2;\n    address recipient = (holder == Holder.Holder1) ? trade.holder2 : trade.holder1;\n    UserTradeData memory senderUserTradeData = (holder == Holder.Holder1) ? trade.userTradeData1 : trade.userTradeData2;\n\n    require(block.timestamp <= trade.expirationDate, \"Expiration date is past\");\n\n    address tokenAddress = senderUserTradeData.tokenAddress;\n    bytes32 tokenId = senderUserTradeData.tokenId;\n    Standard tokenStandard = senderUserTradeData.tokenStandard;\n\n    require(tokenStandard == Standard.ERC20 || tokenStandard == Standard.ERC1400, \"Token standard must be holdable\");\n\n    require(_holdExists(sender, recipient, senderUserTradeData), \"Hold must exist\");\n\n    _executeHold(tokenAddress, tokenId, tokenStandard, preimage, recipient);\n  }\n\n  /**\n   * @dev Internal function to transfer tokens to their recipient by taking the token standard into account.\n   * @param index Index of the trade the token transfer is execcuted for.\n   * @param holder Sender of the tokens (currently owning the tokens).\n   * @param value Amount of tokens to send.\n   * @param revertTransfer If set to true + trade has been accepted, tokens need to be sent back to their initial owners instead of sent to the target recipient.\n   */\n  function _executeTransferOnUsersTokens(uint256 index, Holder holder, uint256 value, bool revertTransfer) internal {\n    Trade storage trade = _trades[index];\n\n    address sender = (holder == Holder.Holder1) ? trade.holder1 : trade.holder2;\n    address recipient = (holder == Holder.Holder1) ? trade.holder2 : trade.holder1;\n    UserTradeData storage senderUserTradeData = (holder == Holder.Holder1) ? trade.userTradeData1 : trade.userTradeData2;\n\n    address tokenAddress = senderUserTradeData.tokenAddress;\n    bytes32 tokenId = senderUserTradeData.tokenId;\n    Standard tokenStandard = senderUserTradeData.tokenStandard;\n\n    address currentHolder = sender;\n    if(senderUserTradeData.tradeType == TradeType.Escrow) {\n      currentHolder = address(this);\n    }\n\n    if(revertTransfer) {\n      recipient = sender;\n    } else {\n      require(block.timestamp <= trade.expirationDate, \"Expiration date is past\");\n    }\n\n    if(tokenStandard == Standard.ETH) {\n      address payable payableRecipient = payable(recipient);\n      payableRecipient.transfer(value);\n    } else if(tokenStandard == Standard.ERC20) {\n      if(currentHolder == address(this)) {\n        IERC20(tokenAddress).transfer(recipient, value);\n      } else {\n        IERC20(tokenAddress).transferFrom(currentHolder, recipient, value);\n      }\n    } else if(tokenStandard == Standard.ERC721) {\n      IERC721(tokenAddress).transferFrom(currentHolder, recipient, uint256(tokenId));\n    } else if(tokenStandard == Standard.ERC1400) {\n      IERC1400(tokenAddress).operatorTransferByPartition(tokenId, currentHolder, recipient, value, \"\", \"\");\n    }\n\n  }\n\n  function _executeHold(\n    address token,\n    bytes32 tokenHoldId,\n    Standard tokenStandard,\n    bytes32 preimage,\n    address tokenRecipient\n  ) internal {\n    // Token 1\n    if (tokenStandard == Standard.ERC20) {\n      require(token != address(0), \"token can not be a zero address\");\n\n      IERC20HoldableToken(token).executeHold(tokenHoldId, preimage);\n    } else if (tokenStandard == Standard.ERC1400) {\n      require(token != address(0), \"token can not be a zero address\");\n\n      address tokenExtension = interfaceAddr(token, ERC1400_TOKENS_VALIDATOR);\n      require(\n          tokenExtension != address(0),\n          \"token has no holdable token extension\"\n      );\n\n      uint256 holdValue;\n      (,,,,holdValue,,,,) = IHoldableERC1400TokenExtension(tokenExtension).retrieveHoldData(token, tokenHoldId);\n\n      IHoldableERC1400TokenExtension(tokenExtension).executeHold(\n          token,\n          tokenHoldId,\n          holdValue,\n          preimage\n      );\n    } else {\n        revert(\"invalid token standard\");\n    }\n\n    emit ExecutedHold(\n        token,\n        tokenHoldId,\n        preimage,\n        tokenRecipient\n    );\n  }\n\n  function _holdExists(address sender, address recipient, UserTradeData memory userTradeData) internal view returns(bool) {\n    address tokenAddress = userTradeData.tokenAddress;\n    bytes32 holdId = userTradeData.tokenId;\n    Standard tokenStandard = userTradeData.tokenStandard;\n    \n    if(tokenStandard == Standard.ERC1400) {\n      address tokenExtension = interfaceAddr(tokenAddress, ERC1400_TOKENS_VALIDATOR);\n      require(\n          tokenExtension != address(0),\n          \"token has no holdable token extension\"\n      );\n\n      HoldStatusCode holdStatus;\n      address holdSender;\n      address holdRecipient;\n      uint256 holdValue;\n      address notary;\n      bytes32 secretHash;\n      (,holdSender,holdRecipient,notary,holdValue,,secretHash,,holdStatus) = IHoldableERC1400TokenExtension(tokenExtension).retrieveHoldData(tokenAddress, holdId);\n      return holdStatus == HoldStatusCode.Ordered && holdValue == userTradeData.tokenValue && (holdSender == sender || holdSender == address(0)) && holdRecipient == recipient && (secretHash != bytes32(0) || notary == address(this));\n    } else if (tokenStandard == Standard.ERC20) {\n      ERC20HoldData memory data = IERC20HoldableToken(tokenAddress).retrieveHoldData(holdId);\n      return (data.sender == sender || data.sender == address(0)) && data.recipient == recipient && data.amount == userTradeData.tokenValue && data.status == HoldStatusCode.Ordered && (data.secretHash != bytes32(0) || data.notary == address(this));\n    } else {\n      revert(\"Invalid tokenStandard provided\");\n    }\n  }\n\n  /**\n   * @dev Indicate whether or not the Swaps contract can receive the tokens or not.\n   *\n   * By convention, the 32 first bytes of a token transfer to the Swaps smart contract contain a flag.\n   *\n   *  - When tokens are transferred to Swaps contract to propose a new trade. The 'data' field starts with the\n   *  following flag: 0xcccccccccccccccccccccccccccccccccccccccccccccccccccccccccccccccc\n   *  In this case the data structure is the the following:\n   *  <tradeFlag (32 bytes)><recipient address (32 bytes)><executer address (32 bytes)><expiration date (32 bytes)><requested token data (4 * 32 bytes)>\n   *\n   *  - When tokens are transferred to Swaps contract to accept an existing trade. The 'data' field starts with the\n   *  following flag: 0xdddddddddddddddddddddddddddddddddddddddddddddddddddddddddddddddd\n   *  In this case the data structure is the the following:\n   *  <tradeFlag (32 bytes)><request index (32 bytes)>\n   *\n   * If the 'data' doesn't start with one of those flags, the Swaps contract won't accept the token transfer.\n   *\n   * @param data Information attached to the Swaps transfer.\n   * @param operatorData Information attached to the Swaps transfer, by the operator.\n   * @return 'true' if the Swaps contract can receive the tokens, 'false' if not.\n   */\n  function _canReceive(bytes memory data, bytes memory operatorData) internal pure returns(bool) {\n    if(operatorData.length == 0) { // The reason for this check is to avoid a certificate gets interpreted as a flag by mistake\n      return false;\n    }\n    \n    bytes32 flag = _getTradeFlag(data);\n    if(data.length == 320 && flag == TRADE_PROPOSAL_FLAG) {\n      return true;\n    } else if ((data.length == 64 || data.length == 96) && flag == TRADE_ACCEPTANCE_FLAG) {\n      return true;\n    } else if (data.length == 32 && flag == BYPASS_ACTION_FLAG) {\n      return true;\n    } else {\n      return false;\n    }\n  }\n\n    /**\n   * @dev Retrieve the trade flag from the 'data' field.\n   *\n   * By convention, the 32 first bytes of a token transfer to the Swaps smart contract contain a flag.\n   *  - When tokens are transferred to Swaps contract to propose a new trade. The 'data' field starts with the\n   *  following flag: 0xcccccccccccccccccccccccccccccccccccccccccccccccccccccccccccccccc\n   *  - When tokens are transferred to Swaps contract to accept an existing trade. The 'data' field starts with the\n   *  following flag: 0xdddddddddddddddddddddddddddddddddddddddddddddddddddddddddddddddd\n   *\n   * @param data Concatenated information about the trade proposal.\n   * @return flag Trade flag.\n   */\n  function _getTradeFlag(bytes memory data) internal pure returns(bytes32 flag) {\n    assembly {\n      flag:= mload(add(data, 32))\n    }\n  }\n\n  /**\n   * By convention, when tokens are transferred to Swaps contract to propose a new trade, the 'data' of a token transfer has the following structure:\n   *  <tradeFlag (32 bytes)><recipient address (32 bytes)><executer address (32 bytes)><expiration date (32 bytes)><requested token data (5 * 32 bytes)>\n   *\n   * The first 32 bytes are the flag 0xcccccccccccccccccccccccccccccccccccccccccccccccccccccccccccccccc\n   *\n   * The next 32 bytes contain the trade recipient address (or the zero address if the recipient is not chosen).\n   *\n   * The next 32 bytes contain the trade executer address (or zero if the executer is not chosen).\n   *\n   * The next 32 bytes contain the trade expiration date (or zero if the expiration date is not chosen).\n   *\n   * The next 32 bytes contain the trade requested token address (or the zero address if the recipient is not chosen).\n   * The next 32 bytes contain the trade requested token amount.\n   * The next 32 bytes contain the trade requested token id/partition (used when token standard is ERC721 or ERC1400).\n   * The next 32 bytes contain the trade requested token standard (OffChain, ERC20, ERC721, ERC1400, ETH).\n   * The next 32 bytes contain a boolean precising wether trade has been accepted by token holder or not.\n   * The next 32 bytes contain a boolean precising wether trade has been approved by token controller or not.\n   *\n   * Example input for recipient address '0xb5747835141b46f7C472393B31F8F5A57F74A44f', expiration date '1576348418',\n   * trade executer address '0x32F54098916ceb5f57a117dA9554175Fe25611bA', requested token address '0xC6F0410A667a5BEA528d6bc9efBe10270089Bb11',\n   * requested token amount '5', requested token id/partition '37252', and requested token type 'ERC1400', accepted and approved:\n   * 0xcccccccccccccccccccccccccccccccccccccccccccccccccccccccccccccccc000000000000000000000000b5747835141b46f7C472393B31F8F5A57F74A44f\n   * 000000000000000000000000000000000000000000000000000000157634841800000000000000000000000032F54098916ceb5f57a117dA9554175Fe25611bA\n   * 000000000000000000000000C6F0410A667a5BEA528d6bc9efBe10270089Bb110000000000000000000000000000000000000000000000000000000000000005\n   * 000000000000000000000000000000000000000000000000000000000037252000000000000000000000000000000000000000000000000000000000000002\n   * 000000000000000000000000000000000000000000000000000000000000001000000000000000000000000000000000000000000000000000000000000001\n   */\n\n  /**\n   * @dev Retrieve the tokenData from the 'data' field.\n   *\n   * @param data Concatenated information about the trade proposal.\n   * @return tokenData Trade token data < 1: address > < 2: amount > < 3: id/partition > < 4: standard > < 5: accepted > < 6: approved >.\n   */\n  function _getTradeTokenData(bytes memory data) internal pure returns(UserTradeData memory tokenData) {\n    address tokenAddress;\n    uint256 tokenAmount;\n    bytes32 tokenId;\n    Standard tokenStandard;\n    TradeType tradeType;\n    assembly {\n      tokenAddress:= mload(add(data, 192))\n      tokenAmount:= mload(add(data, 224))\n      tokenId:= mload(add(data, 256))\n      tokenStandard:= mload(add(data, 288))\n      tradeType:= mload(add(data, 320))\n    }\n    tokenData = UserTradeData(\n      tokenAddress,\n      tokenAmount,\n      tokenId,\n      tokenStandard,\n      false,\n      false,\n      tradeType\n    );\n  }\n\n  /**\n   * @dev Retrieve the trade index from the 'data' field.\n   *\n   * By convention, when tokens are transferred to Swaps contract to accept an existing trade, the 'data' of a token transfer has the following structure:\n   *  <tradeFlag (32 bytes)><index uint256 (32 bytes)>\n   *\n   * The first 32 bytes are the flag 0xdddddddddddddddddddddddddddddddddddddddddddddddddddddddddddddddd\n   *\n   * The next 32 bytes contain the trade index.\n   *\n   * Example input for trade index #2985:\n   * 0xdddddddddddddddddddddddddddddddddddddddddddddddddddddddddddddddd0000000000000000000000000000000000000000000000000000000000002985\n   *\n   * @param data Concatenated information about the trade validation.\n   * @return index Trade index.\n   */\n\n  /**************************** TRADE EXECUTERS *******************************/\n\n  /**\n   * @dev Renounce ownership of the contract.\n   */\n  function renounceOwnership() public override onlyOwner {\n    Ownable.renounceOwnership();\n    _ownedContract = false;\n  }\n\n  /**\n   * @dev Get the list of trade executers as defined by the Swaps contract.\n   * @return List of addresses of all the trade executers.\n   */\n  function tradeExecuters() external view returns (address[] memory) {\n    return _tradeExecuters;\n  }\n\n  /**\n   * @dev Set list of trade executers for the Swaps contract.\n   * @param operators Trade executers addresses.\n   */\n  function setTradeExecuters(address[] calldata operators) external onlyOwner {\n    require(_ownedContract, \"Swaps contract is not owned\");\n    _setTradeExecuters(operators);\n  }\n\n  /**\n   * @dev Set list of trade executers for the Swaps contract.\n   * @param operators Trade executers addresses.\n   */\n  function _setTradeExecuters(address[] memory operators) internal {\n\n    for (uint i = 0; i<_tradeExecuters.length; i++){\n      _isTradeExecuter[_tradeExecuters[i]] = false;\n    }\n    for (uint j = 0; j<operators.length; j++){\n      _isTradeExecuter[operators[j]] = true;\n    }\n    _tradeExecuters = operators;\n  }\n\n  /************************** TOKEN CONTROLLERS *******************************/\n\n  /**\n   * @dev Get the list of token controllers for a given token.\n   * @param tokenAddress Token address.\n   * @return List of addresses of all the token controllers for a given token.\n   */\n  function tokenControllers(address tokenAddress) external view returns (address[] memory) {\n    return _tokenControllers[tokenAddress];\n  }\n\n  /**\n   * @dev Set list of token controllers for a given token.\n   * @param tokenAddress Token address.\n   * @param operators Operators addresses.\n   */\n  function setTokenControllers(address tokenAddress, address[] calldata operators) external onlyTokenController(tokenAddress) {\n    for (uint i = 0; i<_tokenControllers[tokenAddress].length; i++){\n      _isTokenController[tokenAddress][_tokenControllers[tokenAddress][i]] = false;\n    }\n    for (uint j = 0; j<operators.length; j++){\n      _isTokenController[tokenAddress][operators[j]] = true;\n    }\n    _tokenControllers[tokenAddress] = operators;\n  }\n\n  /************************** TOKEN PRICE ORACLES *******************************/\n\n  /**\n   * @dev Get the list of price oracles for a given token.\n   * @param tokenAddress Token address.\n   * @return List of addresses of all the price oracles for a given token.\n   */\n  function priceOracles(address tokenAddress) external view returns (address[] memory) {\n    return _priceOracles[tokenAddress];\n  }\n\n  /**\n   * @dev Set list of price oracles for a given token.\n   * @param tokenAddress Token address.\n   * @param oracles Oracles addresses.\n   */\n  function setPriceOracles(address tokenAddress, address[] calldata oracles) external onlyPriceOracle(tokenAddress) {\n    for (uint i = 0; i<_priceOracles[tokenAddress].length; i++){\n      _isPriceOracle[tokenAddress][_priceOracles[tokenAddress][i]] = false;\n    }\n    for (uint j = 0; j<oracles.length; j++){\n      _isPriceOracle[tokenAddress][oracles[j]] = true;\n    }\n    _priceOracles[tokenAddress] = oracles;\n  }\n\n  /**\n   * @dev Check if address is oracle of a given token.\n   * @param tokenAddress Token address.\n   * @param oracle Oracle address.\n   * @return 'true' if the address is oracle of the given token.\n   */\n  function _checkPriceOracle(address tokenAddress, address oracle) internal view returns(bool) {\n    return(_isPriceOracle[tokenAddress][oracle] || oracle == Ownable(tokenAddress).owner());\n  }\n\n  /****************************** Swaps PRICES *********************************/\n\n  /**\n   * @dev Get price of the token.\n   * @param tokenAddress1 Address of the token to be priced.\n   * @param tokenAddress2 Address of the token to pay for token1.\n   */\n  function getPriceOwnership(address tokenAddress1, address tokenAddress2) external view returns(bool) {\n    return _priceOwnership[tokenAddress1][tokenAddress2];\n  }\n\n  /**\n   * @dev Take ownership for setting the price of a token.\n   * @param tokenAddress1 Address of the token to be priced.\n   * @param tokenAddress2 Address of the token to pay for token1.\n   */\n  function setPriceOwnership(address tokenAddress1, address tokenAddress2, bool priceOwnership) external onlyPriceOracle(tokenAddress1) {\n    _priceOwnership[tokenAddress1][tokenAddress2] = priceOwnership;\n  }\n\n  /**\n   * @dev Get date after which the token price can potentially be set by an oracle (0 if price can not be set by an oracle).\n   * @param tokenAddress Token address.\n   */\n  function variablePriceStartDate(address tokenAddress) external view returns(uint256) {\n    return _variablePriceStartDate[tokenAddress];\n  }\n\n  /**\n   * @dev Set date after which the token price can potentially be set by an oracle (0 if price can not be set by an oracle).\n   * @param tokenAddress Token address.\n   * @param startDate Date after which token price can potentially be set by an oracle (0 if price can not be set by an oracle).\n   */\n  function setVariablePriceStartDate(address tokenAddress, uint256 startDate) external onlyPriceOracle(tokenAddress) {\n    require((startDate > block.timestamp + SECONDS_IN_WEEK) || startDate == 0, \"Start date needs to be set at least a week before\");\n    _variablePriceStartDate[tokenAddress] = startDate;\n  }\n\n  /**\n   * @dev Get price of the token.\n   * @param tokenAddress1 Address of the token to be priced.\n   * @param tokenAddress2 Address of the token to pay for token1.\n   * @param tokenId1 ID/partition of the token1 (set to 0 bytes32 if price is set for all IDs/partitions).\n   * @param tokenId1 ID/partition of the token2 (set to 0 bytes32 if price is set for all IDs/partitions).\n   */\n  function getTokenPrice(address tokenAddress1, address tokenAddress2, bytes32 tokenId1, bytes32 tokenId2) external view returns(uint256) {\n    return _tokenUnitPricesByPartition[tokenAddress1][tokenAddress2][tokenId1][tokenId2];\n  }\n\n  /**\n   * @dev Set price of a token.\n   * @param tokenAddress1 Address of the token to be priced.\n   * @param tokenAddress2 Address of the token to pay for token1.\n   * @param tokenId1 ID/partition of the token1 (set to 0 bytes32 if price is set for all IDs/partitions).\n   * @param tokenId2 ID/partition of the token2 (set to 0 bytes32 if price is set for all IDs/partitions).\n   * @param newPrice New price of the token.\n   */\n  function setTokenPrice(address tokenAddress1, address tokenAddress2, bytes32 tokenId1, bytes32 tokenId2, uint256 newPrice) external {\n    require(!(_priceOwnership[tokenAddress1][tokenAddress2] && _priceOwnership[tokenAddress2][tokenAddress1]), \"Competition on price ownership\");\n\n    if(_priceOwnership[tokenAddress1][tokenAddress2]) {\n      require(_checkPriceOracle(tokenAddress1, msg.sender), \"Price setter is not an oracle for this token (1)\");\n    } else if(_priceOwnership[tokenAddress2][tokenAddress1]) {\n      require(_checkPriceOracle(tokenAddress2, msg.sender), \"Price setter is not an oracle for this token (2)\");\n    } else {\n      revert(\"No price ownership\");\n    }\n\n    _tokenUnitPricesByPartition[tokenAddress1][tokenAddress2][tokenId1][tokenId2] = newPrice;\n  }\n\n  /**\n   * @dev Get amount of token2 to pay to acquire the token1.\n   * @param index Index of the Swaps request.\n   */\n  function getPrice(uint256 index) public view returns(uint256) {\n    Trade storage trade = _trades[index];\n\n    address tokenAddress1 = trade.userTradeData1.tokenAddress;\n    uint256 tokenValue1 = trade.userTradeData1.tokenValue;\n    bytes32 tokenId1 = trade.userTradeData1.tokenId;\n\n    address tokenAddress2 = trade.userTradeData2.tokenAddress;\n    uint256 tokenValue2 = trade.userTradeData2.tokenValue;\n    bytes32 tokenId2 = trade.userTradeData2.tokenId;\n\n    require(!(_priceOwnership[tokenAddress1][tokenAddress2] && _priceOwnership[tokenAddress2][tokenAddress1]), \"Competition on price ownership\");\n\n    if(_variablePriceStartDate[tokenAddress1] == 0 || block.timestamp < _variablePriceStartDate[tokenAddress1]) {\n      return tokenValue2;\n    }\n\n    if(_priceOwnership[tokenAddress1][tokenAddress2] || _priceOwnership[tokenAddress2][tokenAddress1]) {\n\n      if(_tokenUnitPricesByPartition[tokenAddress1][tokenAddress2][tokenId1][tokenId2] != 0) {\n        return tokenValue1 * (_tokenUnitPricesByPartition[tokenAddress1][tokenAddress2][tokenId1][tokenId2]);\n\n      } else if(_tokenUnitPricesByPartition[tokenAddress2][tokenAddress1][tokenId2][tokenId1] != 0) {\n        return tokenValue1 / (_tokenUnitPricesByPartition[tokenAddress2][tokenAddress1][tokenId2][tokenId1]);\n\n      } else if(_tokenUnitPricesByPartition[tokenAddress1][tokenAddress2][tokenId1][ALL_PARTITIONS] != 0) {\n        return tokenValue1 * (_tokenUnitPricesByPartition[tokenAddress1][tokenAddress2][tokenId1][ALL_PARTITIONS]);\n\n      } else if(_tokenUnitPricesByPartition[tokenAddress2][tokenAddress1][ALL_PARTITIONS][tokenId1] != 0) {\n        return tokenValue1 / (_tokenUnitPricesByPartition[tokenAddress2][tokenAddress1][ALL_PARTITIONS][tokenId1]);\n\n      } else if(_tokenUnitPricesByPartition[tokenAddress1][tokenAddress2][ALL_PARTITIONS][tokenId2] != 0) {\n        return tokenValue1 * (_tokenUnitPricesByPartition[tokenAddress1][tokenAddress2][ALL_PARTITIONS][tokenId2]);\n\n      } else if(_tokenUnitPricesByPartition[tokenAddress2][tokenAddress1][tokenId2][ALL_PARTITIONS] != 0) {\n        return tokenValue1 / (_tokenUnitPricesByPartition[tokenAddress2][tokenAddress1][tokenId2][ALL_PARTITIONS]);\n\n      } else if(_tokenUnitPricesByPartition[tokenAddress1][tokenAddress2][ALL_PARTITIONS][ALL_PARTITIONS] != 0) {\n        return tokenValue1 * (_tokenUnitPricesByPartition[tokenAddress1][tokenAddress2][ALL_PARTITIONS][ALL_PARTITIONS]);\n\n      } else if(_tokenUnitPricesByPartition[tokenAddress2][tokenAddress1][ALL_PARTITIONS][ALL_PARTITIONS] != 0) {\n        return tokenValue1 / (_tokenUnitPricesByPartition[tokenAddress2][tokenAddress1][ALL_PARTITIONS][ALL_PARTITIONS]);\n\n      } else {\n        return tokenValue2;\n      }\n\n    } else {\n      return tokenValue2;\n    }\n  }\n\n  /**************************** VIEW FUNCTIONS *******************************/\n\n  /**\n   * @dev Get the trade.\n   * @param index Index of the trade.\n   * @return Trade.\n   */\n  function getTrade(uint256 index) external view returns(Trade memory) {\n    Trade storage trade = _trades[index];\n    return trade;\n  }\n\n  /**\n   * @dev Get the total number of requests in the Swaps contract.\n   * @return Total number of requests in the Swaps contract.\n   */\n  function getNbTrades() external view returns(uint256) {\n    return _index;\n  }\n }\n",
  "sourcePath": "/Users/sergio/Library/Mobile Documents/com~apple~CloudDocs/Master-ciberseguridad-y-privacidad/2-Quatrimestre/TFM/project/truffle/contracts/ERC1400/tools/Swaps.sol",
  "compiler": {
    "name": "solc",
    "version": "0.8.25+commit.b61c2a91.Emscripten.clang"
  },
  "schemaVersion": "3.4.16",
  "updatedAt": "2024-05-02T18:15:11.108Z",
  "devdoc": {
    "details": "Delivery-Vs-Payment contract for investor-to-investor token trades.Intended usage: The purpose of the contract is to allow secure token transfers/exchanges between 2 stakeholders (called holder1 and holder2). From now on, an operation in the Swaps smart contract (transfer/exchange) is called a trade. Depending on the type of trade, one/multiple token transfers will be executed. The simplified workflow is the following: 1) A trade request is created in the Swaps smart contract, it specifies:  - The token holder(s) involved in the trade  - The trade executer (optional)  - An expiration date  - Details on the first token (address, requested amount, standard)  - Details on the second token (address, requested amount, standard)  - Whether the tokens need to be escrowed in the Swaps contract or not  - The current status of the trade (pending / executed / forced / cancelled) 2) The trade is accepted by both token holders 3) [OPTIONAL] The trade is approved by token controllers (only if requested by tokens controllers) 4) The trade is executed (either by the executer in case the executer is specified, or by anyone) STANDARD-AGNOSTIC: The Swaps smart contract is standard-agnostic, it supports ETH, ERC20, ERC721, ERC1400. The advantage of using an ERC1400 token is to leverages its hook property, thus requiring ONE single transaction (operatorTransferByPartition()) to send tokens to the Swaps smart contract instead of TWO with the ERC20 token standard (approve() + transferFrom()). OFF-CHAIN PAYMENT: The contract can be used as escrow contract while waiting for an off-chain payment. Once payment is received off-chain, the token sender realeases the tokens escrowed in the Swaps contract to deliver them to the recipient. ESCROW VS SWAP MODE: In case escrow mode is selected, tokens need to be escrowed in Swaps smart contract before the trade can occur. In case swap mode is selected, tokens are not escrowed in the Swaps. Instead, the Swaps contract is only allowed to transfer tokens ON BEHALF of their owners. When trade is executed, an atomic token swap occurs. EXPIRATION DATE: The trade can be cancelled by both parties in case expiration date is passed. CLAIMS: The executer has the ability to force or cancel the trade. In case of disagreement/missing payment, both parties can contact the \"executer\" of the trade to deposit a claim and solve the issue. MARKETPLACE: The contract can be used as a token marketplace. Indeed, when trades are created without specifying the recipient address, anyone can purchase them by sending the requested payment in exchange. PRICE ORACLES: When price oracles are defined, those can define the price at which trades need to be executed. This feature is particularly useful for assets with NAV (net asset value).",
    "events": {
      "ExecutedHold(address,bytes32,bytes32,address)": {
        "details": "Include token events so they can be parsed by Ethereum clients from the settlement transactions."
      }
    },
    "kind": "dev",
    "methods": {
      "acceptTrade(uint256,bytes32)": {
        "details": "Accept a given trade (+ potentially escrow tokens).",
        "params": {
          "index": "Index of the trade to be accepted."
        }
      },
      "approveTradeWithPreimage(uint256,bool,bytes32)": {
        "details": "Approve a trade (if the tokens involved in the trade are controlled) This function can only be called by a token controller of one of the tokens involved in the trade. Indeed, when a token smart contract is controlled by an owner, the owner can decide to open the secondary market by:  - Allowlisting the Swaps smart contract  - Setting \"token controllers\" in the Swaps smart contract, in order to approve all the trades made with his token",
        "params": {
          "approved": "'true' if trade is approved, 'false' if not.",
          "index": "Index of the trade to be executed."
        }
      },
      "canReceive(bytes,bytes32,address,address,address,uint256,bytes,bytes)": {
        "details": "Indicate whether or not the Swaps contract can receive the tokens or not. [USED FOR ERC1400 TOKENS ONLY]",
        "params": {
          "data": "Information attached to the token transfer.",
          "operatorData": "Information attached to the Swaps transfer, by the operator."
        },
        "returns": {
          "_0": "'true' if the Swaps contract can receive the tokens, 'false' if not."
        }
      },
      "cancelTrade(uint256)": {
        "details": "Cancel a trade execution in the Swaps contract by transferring tokens back to their initial owners.",
        "params": {
          "index": "Index of the trade to be cancelled."
        }
      },
      "constructor": {
        "details": "Initialize Swaps + register the contract implementation in ERC1820Registry."
      },
      "executeTradeWithPreimage(uint256,bytes32)": {
        "details": "Execute a trade in the Swaps contract if possible (e.g. if tokens have been esccrowed, in case it is required). This function can only be called by the executer specified at trade creation. If no executer is specified, the trade can be launched by anyone.",
        "params": {
          "index": "Index of the trade to be executed."
        }
      },
      "forceTradeWithPreimage(uint256,bytes32)": {
        "details": "Force a trade execution in the Swaps contract by transferring tokens back to their target recipients.",
        "params": {
          "index": "Index of the trade to be forced."
        }
      },
      "getNbTrades()": {
        "details": "Get the total number of requests in the Swaps contract.",
        "returns": {
          "_0": "Total number of requests in the Swaps contract."
        }
      },
      "getPrice(uint256)": {
        "details": "Get amount of token2 to pay to acquire the token1.",
        "params": {
          "index": "Index of the Swaps request."
        }
      },
      "getPriceOwnership(address,address)": {
        "details": "Get price of the token.",
        "params": {
          "tokenAddress1": "Address of the token to be priced.",
          "tokenAddress2": "Address of the token to pay for token1."
        }
      },
      "getTokenPrice(address,address,bytes32,bytes32)": {
        "details": "Get price of the token.",
        "params": {
          "tokenAddress1": "Address of the token to be priced.",
          "tokenAddress2": "Address of the token to pay for token1.",
          "tokenId1": "ID/partition of the token2 (set to 0 bytes32 if price is set for all IDs/partitions)."
        }
      },
      "getTrade(uint256)": {
        "details": "Get the trade.",
        "params": {
          "index": "Index of the trade."
        },
        "returns": {
          "_0": "Trade."
        }
      },
      "getTradeAcceptanceStatus(uint256)": {
        "details": "Verify if a trade has been accepted by the token holders. The trade needs to be accepted by both parties (token holders) before it gets executed.",
        "params": {
          "index": "Index of the trade to be accepted."
        }
      },
      "getTradeApprovalStatus(uint256)": {
        "details": "Verify if a trade has been approved by the token controllers. In case a given token has token controllers, those need to validate the trade before it gets executed.",
        "params": {
          "index": "Index of the trade to be approved."
        }
      },
      "owner()": {
        "details": "Returns the address of the current owner."
      },
      "priceOracles(address)": {
        "details": "Get the list of price oracles for a given token.",
        "params": {
          "tokenAddress": "Token address."
        },
        "returns": {
          "_0": "List of addresses of all the price oracles for a given token."
        }
      },
      "renounceOwnership()": {
        "details": "Renounce ownership of the contract."
      },
      "requestTrade((address,address,address,uint256,address,uint256,bytes32,uint8,address,uint256,bytes32,uint8,uint8,uint8,uint256),bytes32)": {
        "details": "Create a new trade request in the Swaps smart contract.",
        "params": {
          "inputData": "The input for this function"
        }
      },
      "setPriceOracles(address,address[])": {
        "details": "Set list of price oracles for a given token.",
        "params": {
          "oracles": "Oracles addresses.",
          "tokenAddress": "Token address."
        }
      },
      "setPriceOwnership(address,address,bool)": {
        "details": "Take ownership for setting the price of a token.",
        "params": {
          "tokenAddress1": "Address of the token to be priced.",
          "tokenAddress2": "Address of the token to pay for token1."
        }
      },
      "setTokenControllers(address,address[])": {
        "details": "Set list of token controllers for a given token.",
        "params": {
          "operators": "Operators addresses.",
          "tokenAddress": "Token address."
        }
      },
      "setTokenPrice(address,address,bytes32,bytes32,uint256)": {
        "details": "Set price of a token.",
        "params": {
          "newPrice": "New price of the token.",
          "tokenAddress1": "Address of the token to be priced.",
          "tokenAddress2": "Address of the token to pay for token1.",
          "tokenId1": "ID/partition of the token1 (set to 0 bytes32 if price is set for all IDs/partitions).",
          "tokenId2": "ID/partition of the token2 (set to 0 bytes32 if price is set for all IDs/partitions)."
        }
      },
      "setTradeExecuters(address[])": {
        "details": "Set list of trade executers for the Swaps contract.",
        "params": {
          "operators": "Trade executers addresses."
        }
      },
      "setVariablePriceStartDate(address,uint256)": {
        "details": "Set date after which the token price can potentially be set by an oracle (0 if price can not be set by an oracle).",
        "params": {
          "startDate": "Date after which token price can potentially be set by an oracle (0 if price can not be set by an oracle).",
          "tokenAddress": "Token address."
        }
      },
      "tokenControllers(address)": {
        "details": "Get the list of token controllers for a given token.",
        "params": {
          "tokenAddress": "Token address."
        },
        "returns": {
          "_0": "List of addresses of all the token controllers for a given token."
        }
      },
      "tokensReceived(bytes,bytes32,address,address,address,uint256,bytes,bytes)": {
        "details": "Hook function executed when tokens are sent to the Swaps contract. [USED FOR ERC1400 TOKENS ONLY]",
        "params": {
          "data": "Information attached to the token transfer.",
          "from": "Token holder.",
          "operatorData": "Information attached to the Swaps transfer, by the operator.",
          "partition": "Name of the partition.",
          "to": "Token recipient.",
          "value": "Number of tokens to transfer."
        }
      },
      "tradeExecuters()": {
        "details": "Get the list of trade executers as defined by the Swaps contract.",
        "returns": {
          "_0": "List of addresses of all the trade executers."
        }
      },
      "transferOwnership(address)": {
        "details": "Transfers ownership of the contract to a new account (`newOwner`). Can only be called by the current owner."
      },
      "variablePriceStartDate(address)": {
        "details": "Get date after which the token price can potentially be set by an oracle (0 if price can not be set by an oracle).",
        "params": {
          "tokenAddress": "Token address."
        }
      }
    },
    "title": "Swaps",
    "version": 1
  },
  "userdoc": {
    "kind": "user",
    "methods": {
      "canReceive(bytes,bytes32,address,address,address,uint256,bytes,bytes)": {
        "notice": "[ERC1400TokensRecipient INTERFACE (1/2)]"
      },
      "constructor": {
        "notice": "[Swaps CONSTRUCTOR]"
      },
      "tokensReceived(bytes,bytes32,address,address,address,uint256,bytes,bytes)": {
        "notice": "[ERC1400TokensRecipient INTERFACE (2/2)]"
      }
    },
    "version": 1
  }
}