{
  "_format": "hh-sol-artifact-1",
  "contractName": "MyContract",
  "sourceName": "contracts/MyContract.sol",
  "abi": [
    {
      "inputs": [],
      "stateMutability": "nonpayable",
      "type": "constructor"
    },
    {
      "inputs": [],
      "name": "getOracleData",
      "outputs": [
        {
          "internalType": "string",
          "name": "",
          "type": "string"
        }
      ],
      "stateMutability": "nonpayable",
      "type": "function"
    },
    {
      "inputs": [],
      "name": "oracleCallerAddress",
      "outputs": [
        {
          "internalType": "address",
          "name": "",
          "type": "address"
        }
      ],
      "stateMutability": "view",
      "type": "function"
    },
    {
      "inputs": [
        {
          "internalType": "address",
          "name": "_oracleCallerAddress",
          "type": "address"
        }
      ],
      "name": "setOracleCaller",
      "outputs": [],
      "stateMutability": "nonpayable",
      "type": "function"
    }
  ],
  "bytecode": "0x608060405234801561001057600080fd5b50610519806100206000396000f3fe608060405234801561001057600080fd5b50600436106100415760003560e01c80636481c5e614610046578063b43e732814610064578063c867689e14610080575b600080fd5b61004e61009e565b60405161005b9190610362565b60405180910390f35b61007e60048036038101906100799190610295565b610150565b005b6100886101f4565b6040516100959190610347565b60405180910390f35b60606000600160009054906101000a900473ffffffffffffffffffffffffffffffffffffffff1673ffffffffffffffffffffffffffffffffffffffff16633bc5de306040518163ffffffff1660e01b815260040160006040518083038186803b15801561010a57600080fd5b505afa15801561011e573d6000803e3d6000fd5b505050506040513d6000823e3d601f19601f8201168201806040525081019061014791906102be565b90508091505090565b806000806101000a81548173ffffffffffffffffffffffffffffffffffffffff021916908373ffffffffffffffffffffffffffffffffffffffff16021790555060008054906101000a900473ffffffffffffffffffffffffffffffffffffffff16600160006101000a81548173ffffffffffffffffffffffffffffffffffffffff021916908373ffffffffffffffffffffffffffffffffffffffff16021790555050565b60008054906101000a900473ffffffffffffffffffffffffffffffffffffffff1681565b600061022b610226846103a9565b610384565b90508281526020810184848401111561024357600080fd5b61024e848285610428565b509392505050565b600081359050610265816104cc565b92915050565b600082601f83011261027c57600080fd5b815161028c848260208601610218565b91505092915050565b6000602082840312156102a757600080fd5b60006102b584828501610256565b91505092915050565b6000602082840312156102d057600080fd5b600082015167ffffffffffffffff8111156102ea57600080fd5b6102f68482850161026b565b91505092915050565b610308816103f6565b82525050565b6000610319826103da565b61032381856103e5565b9350610333818560208601610428565b61033c816104bb565b840191505092915050565b600060208201905061035c60008301846102ff565b92915050565b6000602082019050818103600083015261037c818461030e565b905092915050565b600061038e61039f565b905061039a828261045b565b919050565b6000604051905090565b600067ffffffffffffffff8211156103c4576103c361048c565b5b6103cd826104bb565b9050602081019050919050565b600081519050919050565b600082825260208201905092915050565b600061040182610408565b9050919050565b600073ffffffffffffffffffffffffffffffffffffffff82169050919050565b60005b8381101561044657808201518184015260208101905061042b565b83811115610455576000848401525b50505050565b610464826104bb565b810181811067ffffffffffffffff821117156104835761048261048c565b5b80604052505050565b7f4e487b7100000000000000000000000000000000000000000000000000000000600052604160045260246000fd5b6000601f19601f8301169050919050565b6104d5816103f6565b81146104e057600080fd5b5056fea2646970667358221220b9f3d88a0f1bf2b25acdfef47df4f8f729d8ab94b0606983dbf493cc0312141464736f6c63430008040033",
  "linkReferences": {},
  "deployedLinkReferences": {}
}