{
  "_format": "hh-sol-artifact-1",
  "contractName": "HealthyToken",
  "sourceName": "contracts/HealthyToken.sol",
  "abi": [
    {
      "inputs": [
        {
          "internalType": "uint256",
          "name": "_initialSupply",
          "type": "uint256"
        }
      ],
      "stateMutability": "nonpayable",
      "type": "constructor"
    },
    {
      "anonymous": false,
      "inputs": [
        {
          "indexed": true,
          "internalType": "address",
          "name": "owner",
          "type": "address"
        },
        {
          "indexed": true,
          "internalType": "address",
          "name": "spender",
          "type": "address"
        },
        {
          "indexed": false,
          "internalType": "uint256",
          "name": "value",
          "type": "uint256"
        }
      ],
      "name": "Approval",
      "type": "event"
    },
    {
      "anonymous": false,
      "inputs": [
        {
          "indexed": true,
          "internalType": "address",
          "name": "previousOwner",
          "type": "address"
        },
        {
          "indexed": true,
          "internalType": "address",
          "name": "newOwner",
          "type": "address"
        }
      ],
      "name": "OwnershipTransferred",
      "type": "event"
    },
    {
      "anonymous": false,
      "inputs": [
        {
          "indexed": true,
          "internalType": "address",
          "name": "from",
          "type": "address"
        },
        {
          "indexed": true,
          "internalType": "address",
          "name": "to",
          "type": "address"
        },
        {
          "indexed": false,
          "internalType": "uint256",
          "name": "value",
          "type": "uint256"
        }
      ],
      "name": "Transfer",
      "type": "event"
    },
    {
      "anonymous": false,
      "inputs": [
        {
          "indexed": false,
          "internalType": "uint256",
          "name": "amount",
          "type": "uint256"
        }
      ],
      "name": "newMintDone",
      "type": "event"
    },
    {
      "anonymous": false,
      "inputs": [
        {
          "indexed": false,
          "internalType": "uint256",
          "name": "amount",
          "type": "uint256"
        },
        {
          "indexed": false,
          "internalType": "address",
          "name": "employeeAddres",
          "type": "address"
        }
      ],
      "name": "newTransferDone",
      "type": "event"
    },
    {
      "inputs": [
        {
          "internalType": "address",
          "name": "owner",
          "type": "address"
        },
        {
          "internalType": "address",
          "name": "spender",
          "type": "address"
        }
      ],
      "name": "allowance",
      "outputs": [
        {
          "internalType": "uint256",
          "name": "",
          "type": "uint256"
        }
      ],
      "stateMutability": "view",
      "type": "function"
    },
    {
      "inputs": [
        {
          "internalType": "address",
          "name": "spender",
          "type": "address"
        },
        {
          "internalType": "uint256",
          "name": "amount",
          "type": "uint256"
        }
      ],
      "name": "approve",
      "outputs": [
        {
          "internalType": "bool",
          "name": "",
          "type": "bool"
        }
      ],
      "stateMutability": "nonpayable",
      "type": "function"
    },
    {
      "inputs": [
        {
          "internalType": "address",
          "name": "account",
          "type": "address"
        }
      ],
      "name": "balanceOf",
      "outputs": [
        {
          "internalType": "uint256",
          "name": "",
          "type": "uint256"
        }
      ],
      "stateMutability": "view",
      "type": "function"
    },
    {
      "inputs": [],
      "name": "decimals",
      "outputs": [
        {
          "internalType": "uint8",
          "name": "",
          "type": "uint8"
        }
      ],
      "stateMutability": "pure",
      "type": "function"
    },
    {
      "inputs": [
        {
          "internalType": "address",
          "name": "spender",
          "type": "address"
        },
        {
          "internalType": "uint256",
          "name": "subtractedValue",
          "type": "uint256"
        }
      ],
      "name": "decreaseAllowance",
      "outputs": [
        {
          "internalType": "bool",
          "name": "",
          "type": "bool"
        }
      ],
      "stateMutability": "nonpayable",
      "type": "function"
    },
    {
      "inputs": [
        {
          "internalType": "address",
          "name": "spender",
          "type": "address"
        },
        {
          "internalType": "uint256",
          "name": "addedValue",
          "type": "uint256"
        }
      ],
      "name": "increaseAllowance",
      "outputs": [
        {
          "internalType": "bool",
          "name": "",
          "type": "bool"
        }
      ],
      "stateMutability": "nonpayable",
      "type": "function"
    },
    {
      "inputs": [
        {
          "internalType": "uint256",
          "name": "_tokens",
          "type": "uint256"
        },
        {
          "internalType": "address",
          "name": "_toApprove",
          "type": "address"
        }
      ],
      "name": "mint",
      "outputs": [],
      "stateMutability": "nonpayable",
      "type": "function"
    },
    {
      "inputs": [],
      "name": "name",
      "outputs": [
        {
          "internalType": "string",
          "name": "",
          "type": "string"
        }
      ],
      "stateMutability": "view",
      "type": "function"
    },
    {
      "inputs": [],
      "name": "owner",
      "outputs": [
        {
          "internalType": "address",
          "name": "",
          "type": "address"
        }
      ],
      "stateMutability": "view",
      "type": "function"
    },
    {
      "inputs": [],
      "name": "renounceOwnership",
      "outputs": [],
      "stateMutability": "nonpayable",
      "type": "function"
    },
    {
      "inputs": [],
      "name": "symbol",
      "outputs": [
        {
          "internalType": "string",
          "name": "",
          "type": "string"
        }
      ],
      "stateMutability": "view",
      "type": "function"
    },
    {
      "inputs": [],
      "name": "totalSupply",
      "outputs": [
        {
          "internalType": "uint256",
          "name": "",
          "type": "uint256"
        }
      ],
      "stateMutability": "view",
      "type": "function"
    },
    {
      "inputs": [
        {
          "internalType": "address",
          "name": "recipient",
          "type": "address"
        },
        {
          "internalType": "uint256",
          "name": "amount",
          "type": "uint256"
        }
      ],
      "name": "transfer",
      "outputs": [
        {
          "internalType": "bool",
          "name": "",
          "type": "bool"
        }
      ],
      "stateMutability": "nonpayable",
      "type": "function"
    },
    {
      "inputs": [
        {
          "internalType": "address",
          "name": "_sender",
          "type": "address"
        },
        {
          "internalType": "address",
          "name": "_employeeAddress",
          "type": "address"
        },
        {
          "internalType": "uint256",
          "name": "_amount",
          "type": "uint256"
        }
      ],
      "name": "transferFrom",
      "outputs": [
        {
          "internalType": "bool",
          "name": "",
          "type": "bool"
        }
      ],
      "stateMutability": "nonpayable",
      "type": "function"
    },
    {
      "inputs": [
        {
          "internalType": "address",
          "name": "newOwner",
          "type": "address"
        }
      ],
      "name": "transferOwnership",
      "outputs": [],
      "stateMutability": "nonpayable",
      "type": "function"
    }
  ],
  "bytecode": "0x60806040523480156200001157600080fd5b506040516200259838038062002598833981810160405281019062000037919062000490565b6040518060400160405280600c81526020017f4865616c746879546f6b656e00000000000000000000000000000000000000008152506040518060400160405280600281526020017f48540000000000000000000000000000000000000000000000000000000000008152508160039080519060200190620000bb929190620003c9565b508060049080519060200190620000d4929190620003c9565b505050620000f7620000eb6200017360201b60201c565b6200017b60201b60201c565b62000133336200010c6200024160201b60201c565b600a6200011a9190620005fc565b8362000127919062000739565b6200024660201b60201c565b7f49a8caaec78f30ef7aa27fa4fe6a9be9208a8d483c53db02897ed3e656762e0b8160405162000164919062000516565b60405180910390a15062000895565b600033905090565b6000600560009054906101000a900473ffffffffffffffffffffffffffffffffffffffff16905081600560006101000a81548173ffffffffffffffffffffffffffffffffffffffff021916908373ffffffffffffffffffffffffffffffffffffffff1602179055508173ffffffffffffffffffffffffffffffffffffffff168173ffffffffffffffffffffffffffffffffffffffff167f8be0079c531659141344cd1fd0a4f28419497f9722a3daafe3b4186f6b6457e060405160405180910390a35050565b600090565b600073ffffffffffffffffffffffffffffffffffffffff168273ffffffffffffffffffffffffffffffffffffffff161415620002b9576040517f08c379a0000000000000000000000000000000000000000000000000000000008152600401620002b090620004f4565b60405180910390fd5b620002cd60008383620003bf60201b60201c565b8060026000828254620002e1919062000544565b92505081905550806000808473ffffffffffffffffffffffffffffffffffffffff1673ffffffffffffffffffffffffffffffffffffffff168152602001908152602001600020600082825462000338919062000544565b925050819055508173ffffffffffffffffffffffffffffffffffffffff16600073ffffffffffffffffffffffffffffffffffffffff167fddf252ad1be2c89b69c2b068fc378daa952ba7f163c4a11628f55a4df523b3ef836040516200039f919062000516565b60405180910390a3620003bb60008383620003c460201b60201c565b5050565b505050565b505050565b828054620003d790620007b1565b90600052602060002090601f016020900481019282620003fb576000855562000447565b82601f106200041657805160ff191683800117855562000447565b8280016001018555821562000447579182015b828111156200044657825182559160200191906001019062000429565b5b5090506200045691906200045a565b5090565b5b80821115620004755760008160009055506001016200045b565b5090565b6000815190506200048a816200087b565b92915050565b600060208284031215620004a357600080fd5b6000620004b38482850162000479565b91505092915050565b6000620004cb601f8362000533565b9150620004d88262000852565b602082019050919050565b620004ee816200079a565b82525050565b600060208201905081810360008301526200050f81620004bc565b9050919050565b60006020820190506200052d6000830184620004e3565b92915050565b600082825260208201905092915050565b600062000551826200079a565b91506200055e836200079a565b9250827fffffffffffffffffffffffffffffffffffffffffffffffffffffffffffffffff03821115620005965762000595620007e7565b5b828201905092915050565b6000808291508390505b6001851115620005f357808604811115620005cb57620005ca620007e7565b5b6001851615620005db5780820291505b8081029050620005eb8562000845565b9450620005ab565b94509492505050565b600062000609826200079a565b91506200061683620007a4565b9250620006457fffffffffffffffffffffffffffffffffffffffffffffffffffffffffffffffff84846200064d565b905092915050565b6000826200065f576001905062000732565b816200066f576000905062000732565b81600181146200068857600281146200069357620006c9565b600191505062000732565b60ff841115620006a857620006a7620007e7565b5b8360020a915084821115620006c257620006c1620007e7565b5b5062000732565b5060208310610133831016604e8410600b8410161715620007035782820a905083811115620006fd57620006fc620007e7565b5b62000732565b620007128484846001620005a1565b925090508184048111156200072c576200072b620007e7565b5b81810290505b9392505050565b600062000746826200079a565b915062000753836200079a565b9250817fffffffffffffffffffffffffffffffffffffffffffffffffffffffffffffffff04831182151516156200078f576200078e620007e7565b5b828202905092915050565b6000819050919050565b600060ff82169050919050565b60006002820490506001821680620007ca57607f821691505b60208210811415620007e157620007e062000816565b5b50919050565b7f4e487b7100000000000000000000000000000000000000000000000000000000600052601160045260246000fd5b7f4e487b7100000000000000000000000000000000000000000000000000000000600052602260045260246000fd5b60008160011c9050919050565b7f45524332303a206d696e7420746f20746865207a65726f206164647265737300600082015250565b62000886816200079a565b81146200089257600080fd5b50565b611cf380620008a56000396000f3fe608060405234801561001057600080fd5b50600436106100f55760003560e01c8063715018a611610097578063a457c2d711610066578063a457c2d714610276578063a9059cbb146102a6578063dd62ed3e146102d6578063f2fde38b14610306576100f5565b8063715018a6146102145780638da5cb5b1461021e57806394bf804d1461023c57806395d89b4114610258576100f5565b806323b872dd116100d357806323b872dd14610166578063313ce5671461019657806339509351146101b457806370a08231146101e4576100f5565b806306fdde03146100fa578063095ea7b31461011857806318160ddd14610148575b600080fd5b610102610322565b60405161010f9190611491565b60405180910390f35b610132600480360381019061012d9190611210565b6103b4565b60405161013f9190611476565b60405180910390f35b6101506103d2565b60405161015d91906115f3565b60405180910390f35b610180600480360381019061017b91906111c1565b6103dc565b60405161018d9190611476565b60405180910390f35b61019e610437565b6040516101ab9190611637565b60405180910390f35b6101ce60048036038101906101c99190611210565b61043c565b6040516101db9190611476565b60405180910390f35b6101fe60048036038101906101f9919061115c565b6104e8565b60405161020b91906115f3565b60405180910390f35b61021c610530565b005b6102266105b8565b604051610233919061145b565b60405180910390f35b6102566004803603810190610251919061124c565b6105e2565b005b61026061069c565b60405161026d9190611491565b60405180910390f35b610290600480360381019061028b9190611210565b61072e565b60405161029d9190611476565b60405180910390f35b6102c060048036038101906102bb9190611210565b610819565b6040516102cd9190611476565b60405180910390f35b6102f060048036038101906102eb9190611185565b610837565b6040516102fd91906115f3565b60405180910390f35b610320600480360381019061031b919061115c565b6108be565b005b60606003805461033190611917565b80601f016020809104026020016040519081016040528092919081815260200182805461035d90611917565b80156103aa5780601f1061037f576101008083540402835291602001916103aa565b820191906000526020600020905b81548152906001019060200180831161038d57829003601f168201915b5050505050905090565b60006103c86103c16109b6565b84846109be565b6001905092915050565b6000600254905090565b6000806103ea858585610b89565b9050801561042c577ff2550c4aaee78d41147bd7d7e43ebe36ade8d240df0d8ba8e3a348dfa3060ae4838560405161042392919061160e565b60405180910390a15b809150509392505050565b600090565b60006104de6104496109b6565b8484600160006104576109b6565b73ffffffffffffffffffffffffffffffffffffffff1673ffffffffffffffffffffffffffffffffffffffff16815260200190815260200160002060008873ffffffffffffffffffffffffffffffffffffffff1673ffffffffffffffffffffffffffffffffffffffff168152602001908152602001600020546104d9919061166e565b6109be565b6001905092915050565b60008060008373ffffffffffffffffffffffffffffffffffffffff1673ffffffffffffffffffffffffffffffffffffffff168152602001908152602001600020549050919050565b6105386109b6565b73ffffffffffffffffffffffffffffffffffffffff166105566105b8565b73ffffffffffffffffffffffffffffffffffffffff16146105ac576040517f08c379a00000000000000000000000000000000000000000000000000000000081526004016105a390611553565b60405180910390fd5b6105b66000610c81565b565b6000600560009054906101000a900473ffffffffffffffffffffffffffffffffffffffff16905090565b6105ea6109b6565b73ffffffffffffffffffffffffffffffffffffffff166106086105b8565b73ffffffffffffffffffffffffffffffffffffffff161461065e576040517f08c379a000000000000000000000000000000000000000000000000000000000815260040161065590611553565b60405180910390fd5b61068d6106696105b8565b610671610437565b600a61067d9190611717565b846106889190611835565b610d47565b61069781836103b4565b505050565b6060600480546106ab90611917565b80601f01602080910402602001604051908101604052809291908181526020018280546106d790611917565b80156107245780601f106106f957610100808354040283529160200191610724565b820191906000526020600020905b81548152906001019060200180831161070757829003601f168201915b5050505050905090565b6000806001600061073d6109b6565b73ffffffffffffffffffffffffffffffffffffffff1673ffffffffffffffffffffffffffffffffffffffff16815260200190815260200160002060008573ffffffffffffffffffffffffffffffffffffffff1673ffffffffffffffffffffffffffffffffffffffff168152602001908152602001600020549050828110156107fa576040517f08c379a00000000000000000000000000000000000000000000000000000000081526004016107f1906115b3565b60405180910390fd5b61080e6108056109b6565b858584036109be565b600191505092915050565b600061082d6108266109b6565b8484610ea7565b6001905092915050565b6000600160008473ffffffffffffffffffffffffffffffffffffffff1673ffffffffffffffffffffffffffffffffffffffff16815260200190815260200160002060008373ffffffffffffffffffffffffffffffffffffffff1673ffffffffffffffffffffffffffffffffffffffff16815260200190815260200160002054905092915050565b6108c66109b6565b73ffffffffffffffffffffffffffffffffffffffff166108e46105b8565b73ffffffffffffffffffffffffffffffffffffffff161461093a576040517f08c379a000000000000000000000000000000000000000000000000000000000815260040161093190611553565b60405180910390fd5b600073ffffffffffffffffffffffffffffffffffffffff168173ffffffffffffffffffffffffffffffffffffffff1614156109aa576040517f08c379a00000000000000000000000000000000000000000000000000000000081526004016109a1906114d3565b60405180910390fd5b6109b381610c81565b50565b600033905090565b600073ffffffffffffffffffffffffffffffffffffffff168373ffffffffffffffffffffffffffffffffffffffff161415610a2e576040517f08c379a0000000000000000000000000000000000000000000000000000000008152600401610a2590611593565b60405180910390fd5b600073ffffffffffffffffffffffffffffffffffffffff168273ffffffffffffffffffffffffffffffffffffffff161415610a9e576040517f08c379a0000000000000000000000000000000000000000000000000000000008152600401610a95906114f3565b60405180910390fd5b80600160008573ffffffffffffffffffffffffffffffffffffffff1673ffffffffffffffffffffffffffffffffffffffff16815260200190815260200160002060008473ffffffffffffffffffffffffffffffffffffffff1673ffffffffffffffffffffffffffffffffffffffff168152602001908152602001600020819055508173ffffffffffffffffffffffffffffffffffffffff168373ffffffffffffffffffffffffffffffffffffffff167f8c5be1e5ebec7d5bd14f71427d1e84f3dd0314c0f7b2291e5b200ac8c7c3b92583604051610b7c91906115f3565b60405180910390a3505050565b6000610b96848484610ea7565b6000600160008673ffffffffffffffffffffffffffffffffffffffff1673ffffffffffffffffffffffffffffffffffffffff1681526020019081526020016000206000610be16109b6565b73ffffffffffffffffffffffffffffffffffffffff1673ffffffffffffffffffffffffffffffffffffffff16815260200190815260200160002054905082811015610c61576040517f08c379a0000000000000000000000000000000000000000000000000000000008152600401610c5890611533565b60405180910390fd5b610c7585610c6d6109b6565b8584036109be565b60019150509392505050565b6000600560009054906101000a900473ffffffffffffffffffffffffffffffffffffffff16905081600560006101000a81548173ffffffffffffffffffffffffffffffffffffffff021916908373ffffffffffffffffffffffffffffffffffffffff1602179055508173ffffffffffffffffffffffffffffffffffffffff168173ffffffffffffffffffffffffffffffffffffffff167f8be0079c531659141344cd1fd0a4f28419497f9722a3daafe3b4186f6b6457e060405160405180910390a35050565b600073ffffffffffffffffffffffffffffffffffffffff168273ffffffffffffffffffffffffffffffffffffffff161415610db7576040517f08c379a0000000000000000000000000000000000000000000000000000000008152600401610dae906115d3565b60405180910390fd5b610dc360008383611128565b8060026000828254610dd5919061166e565b92505081905550806000808473ffffffffffffffffffffffffffffffffffffffff1673ffffffffffffffffffffffffffffffffffffffff1681526020019081526020016000206000828254610e2a919061166e565b925050819055508173ffffffffffffffffffffffffffffffffffffffff16600073ffffffffffffffffffffffffffffffffffffffff167fddf252ad1be2c89b69c2b068fc378daa952ba7f163c4a11628f55a4df523b3ef83604051610e8f91906115f3565b60405180910390a3610ea36000838361112d565b5050565b600073ffffffffffffffffffffffffffffffffffffffff168373ffffffffffffffffffffffffffffffffffffffff161415610f17576040517f08c379a0000000000000000000000000000000000000000000000000000000008152600401610f0e90611573565b60405180910390fd5b600073ffffffffffffffffffffffffffffffffffffffff168273ffffffffffffffffffffffffffffffffffffffff161415610f87576040517f08c379a0000000000000000000000000000000000000000000000000000000008152600401610f7e906114b3565b60405180910390fd5b610f92838383611128565b60008060008573ffffffffffffffffffffffffffffffffffffffff1673ffffffffffffffffffffffffffffffffffffffff16815260200190815260200160002054905081811015611018576040517f08c379a000000000000000000000000000000000000000000000000000000000815260040161100f90611513565b60405180910390fd5b8181036000808673ffffffffffffffffffffffffffffffffffffffff1673ffffffffffffffffffffffffffffffffffffffff16815260200190815260200160002081905550816000808573ffffffffffffffffffffffffffffffffffffffff1673ffffffffffffffffffffffffffffffffffffffff16815260200190815260200160002060008282546110ab919061166e565b925050819055508273ffffffffffffffffffffffffffffffffffffffff168473ffffffffffffffffffffffffffffffffffffffff167fddf252ad1be2c89b69c2b068fc378daa952ba7f163c4a11628f55a4df523b3ef8460405161110f91906115f3565b60405180910390a361112284848461112d565b50505050565b505050565b505050565b60008135905061114181611c8f565b92915050565b60008135905061115681611ca6565b92915050565b60006020828403121561116e57600080fd5b600061117c84828501611132565b91505092915050565b6000806040838503121561119857600080fd5b60006111a685828601611132565b92505060206111b785828601611132565b9150509250929050565b6000806000606084860312156111d657600080fd5b60006111e486828701611132565b93505060206111f586828701611132565b925050604061120686828701611147565b9150509250925092565b6000806040838503121561122357600080fd5b600061123185828601611132565b925050602061124285828601611147565b9150509250929050565b6000806040838503121561125f57600080fd5b600061126d85828601611147565b925050602061127e85828601611132565b9150509250929050565b6112918161188f565b82525050565b6112a0816118a1565b82525050565b60006112b182611652565b6112bb818561165d565b93506112cb8185602086016118e4565b6112d4816119a7565b840191505092915050565b60006112ec60238361165d565b91506112f7826119c5565b604082019050919050565b600061130f60268361165d565b915061131a82611a14565b604082019050919050565b600061133260228361165d565b915061133d82611a63565b604082019050919050565b600061135560268361165d565b915061136082611ab2565b604082019050919050565b600061137860288361165d565b915061138382611b01565b604082019050919050565b600061139b60208361165d565b91506113a682611b50565b602082019050919050565b60006113be60258361165d565b91506113c982611b79565b604082019050919050565b60006113e160248361165d565b91506113ec82611bc8565b604082019050919050565b600061140460258361165d565b915061140f82611c17565b604082019050919050565b6000611427601f8361165d565b915061143282611c66565b602082019050919050565b611446816118cd565b82525050565b611455816118d7565b82525050565b60006020820190506114706000830184611288565b92915050565b600060208201905061148b6000830184611297565b92915050565b600060208201905081810360008301526114ab81846112a6565b905092915050565b600060208201905081810360008301526114cc816112df565b9050919050565b600060208201905081810360008301526114ec81611302565b9050919050565b6000602082019050818103600083015261150c81611325565b9050919050565b6000602082019050818103600083015261152c81611348565b9050919050565b6000602082019050818103600083015261154c8161136b565b9050919050565b6000602082019050818103600083015261156c8161138e565b9050919050565b6000602082019050818103600083015261158c816113b1565b9050919050565b600060208201905081810360008301526115ac816113d4565b9050919050565b600060208201905081810360008301526115cc816113f7565b9050919050565b600060208201905081810360008301526115ec8161141a565b9050919050565b6000602082019050611608600083018461143d565b92915050565b6000604082019050611623600083018561143d565b6116306020830184611288565b9392505050565b600060208201905061164c600083018461144c565b92915050565b600081519050919050565b600082825260208201905092915050565b6000611679826118cd565b9150611684836118cd565b9250827fffffffffffffffffffffffffffffffffffffffffffffffffffffffffffffffff038211156116b9576116b8611949565b5b828201905092915050565b6000808291508390505b600185111561170e578086048111156116ea576116e9611949565b5b60018516156116f95780820291505b8081029050611707856119b8565b94506116ce565b94509492505050565b6000611722826118cd565b915061172d836118d7565b925061175a7fffffffffffffffffffffffffffffffffffffffffffffffffffffffffffffffff8484611762565b905092915050565b600082611772576001905061182e565b81611780576000905061182e565b816001811461179657600281146117a0576117cf565b600191505061182e565b60ff8411156117b2576117b1611949565b5b8360020a9150848211156117c9576117c8611949565b5b5061182e565b5060208310610133831016604e8410600b84101617156118045782820a9050838111156117ff576117fe611949565b5b61182e565b61181184848460016116c4565b9250905081840481111561182857611827611949565b5b81810290505b9392505050565b6000611840826118cd565b915061184b836118cd565b9250817fffffffffffffffffffffffffffffffffffffffffffffffffffffffffffffffff048311821515161561188457611883611949565b5b828202905092915050565b600061189a826118ad565b9050919050565b60008115159050919050565b600073ffffffffffffffffffffffffffffffffffffffff82169050919050565b6000819050919050565b600060ff82169050919050565b60005b838110156119025780820151818401526020810190506118e7565b83811115611911576000848401525b50505050565b6000600282049050600182168061192f57607f821691505b6020821081141561194357611942611978565b5b50919050565b7f4e487b7100000000000000000000000000000000000000000000000000000000600052601160045260246000fd5b7f4e487b7100000000000000000000000000000000000000000000000000000000600052602260045260246000fd5b6000601f19601f8301169050919050565b60008160011c9050919050565b7f45524332303a207472616e7366657220746f20746865207a65726f206164647260008201527f6573730000000000000000000000000000000000000000000000000000000000602082015250565b7f4f776e61626c653a206e6577206f776e657220697320746865207a65726f206160008201527f6464726573730000000000000000000000000000000000000000000000000000602082015250565b7f45524332303a20617070726f766520746f20746865207a65726f20616464726560008201527f7373000000000000000000000000000000000000000000000000000000000000602082015250565b7f45524332303a207472616e7366657220616d6f756e742065786365656473206260008201527f616c616e63650000000000000000000000000000000000000000000000000000602082015250565b7f45524332303a207472616e7366657220616d6f756e742065786365656473206160008201527f6c6c6f77616e6365000000000000000000000000000000000000000000000000602082015250565b7f4f776e61626c653a2063616c6c6572206973206e6f7420746865206f776e6572600082015250565b7f45524332303a207472616e736665722066726f6d20746865207a65726f20616460008201527f6472657373000000000000000000000000000000000000000000000000000000602082015250565b7f45524332303a20617070726f76652066726f6d20746865207a65726f2061646460008201527f7265737300000000000000000000000000000000000000000000000000000000602082015250565b7f45524332303a2064656372656173656420616c6c6f77616e63652062656c6f7760008201527f207a65726f000000000000000000000000000000000000000000000000000000602082015250565b7f45524332303a206d696e7420746f20746865207a65726f206164647265737300600082015250565b611c988161188f565b8114611ca357600080fd5b50565b611caf816118cd565b8114611cba57600080fd5b5056fea2646970667358221220ed0c2aeeb4410afd99c36040ca39048767ba6a88c855eddbaa16462e24ffe33964736f6c63430008040033",
  "linkReferences": {},
  "deployedLinkReferences": {}
}