{
  "_format": "hh-sol-artifact-1",
  "contractName": "HealthyToken",
  "sourceName": "contracts/HealthyToken.sol",
  "abi": [
    {
      "inputs": [
        {
          "internalType": "uint256",
          "name": "_initialSupply",
          "type": "uint256"
        }
      ],
      "stateMutability": "nonpayable",
      "type": "constructor"
    },
    {
      "anonymous": false,
      "inputs": [
        {
          "indexed": true,
          "internalType": "address",
          "name": "owner",
          "type": "address"
        },
        {
          "indexed": true,
          "internalType": "address",
          "name": "spender",
          "type": "address"
        },
        {
          "indexed": false,
          "internalType": "uint256",
          "name": "value",
          "type": "uint256"
        }
      ],
      "name": "Approval",
      "type": "event"
    },
    {
      "anonymous": false,
      "inputs": [
        {
          "indexed": true,
          "internalType": "address",
          "name": "previousOwner",
          "type": "address"
        },
        {
          "indexed": true,
          "internalType": "address",
          "name": "newOwner",
          "type": "address"
        }
      ],
      "name": "OwnershipTransferred",
      "type": "event"
    },
    {
      "anonymous": false,
      "inputs": [
        {
          "indexed": true,
          "internalType": "address",
          "name": "from",
          "type": "address"
        },
        {
          "indexed": true,
          "internalType": "address",
          "name": "to",
          "type": "address"
        },
        {
          "indexed": false,
          "internalType": "uint256",
          "name": "value",
          "type": "uint256"
        }
      ],
      "name": "Transfer",
      "type": "event"
    },
    {
      "anonymous": false,
      "inputs": [
        {
          "indexed": false,
          "internalType": "uint256",
          "name": "amount",
          "type": "uint256"
        }
      ],
      "name": "newMintDone",
      "type": "event"
    },
    {
      "anonymous": false,
      "inputs": [
        {
          "indexed": false,
          "internalType": "uint256",
          "name": "amount",
          "type": "uint256"
        },
        {
          "indexed": false,
          "internalType": "address",
          "name": "employeeAddres",
          "type": "address"
        }
      ],
      "name": "newTransferDone",
      "type": "event"
    },
    {
      "inputs": [
        {
          "internalType": "address",
          "name": "owner",
          "type": "address"
        },
        {
          "internalType": "address",
          "name": "spender",
          "type": "address"
        }
      ],
      "name": "allowance",
      "outputs": [
        {
          "internalType": "uint256",
          "name": "",
          "type": "uint256"
        }
      ],
      "stateMutability": "view",
      "type": "function"
    },
    {
      "inputs": [
        {
          "internalType": "address",
          "name": "spender",
          "type": "address"
        },
        {
          "internalType": "uint256",
          "name": "amount",
          "type": "uint256"
        }
      ],
      "name": "approve",
      "outputs": [
        {
          "internalType": "bool",
          "name": "",
          "type": "bool"
        }
      ],
      "stateMutability": "nonpayable",
      "type": "function"
    },
    {
      "inputs": [
        {
          "internalType": "address",
          "name": "account",
          "type": "address"
        }
      ],
      "name": "balanceOf",
      "outputs": [
        {
          "internalType": "uint256",
          "name": "",
          "type": "uint256"
        }
      ],
      "stateMutability": "view",
      "type": "function"
    },
    {
      "inputs": [],
      "name": "decimals",
      "outputs": [
        {
          "internalType": "uint8",
          "name": "",
          "type": "uint8"
        }
      ],
      "stateMutability": "pure",
      "type": "function"
    },
    {
      "inputs": [
        {
          "internalType": "address",
          "name": "spender",
          "type": "address"
        },
        {
          "internalType": "uint256",
          "name": "subtractedValue",
          "type": "uint256"
        }
      ],
      "name": "decreaseAllowance",
      "outputs": [
        {
          "internalType": "bool",
          "name": "",
          "type": "bool"
        }
      ],
      "stateMutability": "nonpayable",
      "type": "function"
    },
    {
      "inputs": [
        {
          "internalType": "address",
          "name": "spender",
          "type": "address"
        },
        {
          "internalType": "uint256",
          "name": "addedValue",
          "type": "uint256"
        }
      ],
      "name": "increaseAllowance",
      "outputs": [
        {
          "internalType": "bool",
          "name": "",
          "type": "bool"
        }
      ],
      "stateMutability": "nonpayable",
      "type": "function"
    },
    {
      "inputs": [
        {
          "internalType": "uint256",
          "name": "_tokens",
          "type": "uint256"
        },
        {
          "internalType": "address",
          "name": "_toApprove",
          "type": "address"
        }
      ],
      "name": "mint",
      "outputs": [],
      "stateMutability": "nonpayable",
      "type": "function"
    },
    {
      "inputs": [],
      "name": "name",
      "outputs": [
        {
          "internalType": "string",
          "name": "",
          "type": "string"
        }
      ],
      "stateMutability": "view",
      "type": "function"
    },
    {
      "inputs": [],
      "name": "owner",
      "outputs": [
        {
          "internalType": "address",
          "name": "",
          "type": "address"
        }
      ],
      "stateMutability": "view",
      "type": "function"
    },
    {
      "inputs": [],
      "name": "renounceOwnership",
      "outputs": [],
      "stateMutability": "nonpayable",
      "type": "function"
    },
    {
      "inputs": [],
      "name": "symbol",
      "outputs": [
        {
          "internalType": "string",
          "name": "",
          "type": "string"
        }
      ],
      "stateMutability": "view",
      "type": "function"
    },
    {
      "inputs": [],
      "name": "totalSupply",
      "outputs": [
        {
          "internalType": "uint256",
          "name": "",
          "type": "uint256"
        }
      ],
      "stateMutability": "view",
      "type": "function"
    },
    {
      "inputs": [
        {
          "internalType": "address",
          "name": "recipient",
          "type": "address"
        },
        {
          "internalType": "uint256",
          "name": "amount",
          "type": "uint256"
        }
      ],
      "name": "transfer",
      "outputs": [
        {
          "internalType": "bool",
          "name": "",
          "type": "bool"
        }
      ],
      "stateMutability": "nonpayable",
      "type": "function"
    },
    {
      "inputs": [
        {
          "internalType": "address",
          "name": "_sender",
          "type": "address"
        },
        {
          "internalType": "address",
          "name": "_employeeAddress",
          "type": "address"
        },
        {
          "internalType": "uint256",
          "name": "_amount",
          "type": "uint256"
        }
      ],
      "name": "transferFrom",
      "outputs": [
        {
          "internalType": "bool",
          "name": "",
          "type": "bool"
        }
      ],
      "stateMutability": "nonpayable",
      "type": "function"
    },
    {
      "inputs": [
        {
          "internalType": "address",
          "name": "newOwner",
          "type": "address"
        }
      ],
      "name": "transferOwnership",
      "outputs": [],
      "stateMutability": "nonpayable",
      "type": "function"
    }
  ],
  "bytecode": "0x60806040523480156200001157600080fd5b50604051620025cf380380620025cf833981810160405281019062000037919062000490565b6040518060400160405280600c81526020017f4865616c746879546f6b656e00000000000000000000000000000000000000008152506040518060400160405280600281526020017f48540000000000000000000000000000000000000000000000000000000000008152508160039080519060200190620000bb929190620003c9565b508060049080519060200190620000d4929190620003c9565b505050620000f7620000eb6200017360201b60201c565b6200017b60201b60201c565b62000133336200010c6200024160201b60201c565b600a6200011a9190620005fc565b8362000127919062000739565b6200024660201b60201c565b7f49a8caaec78f30ef7aa27fa4fe6a9be9208a8d483c53db02897ed3e656762e0b8160405162000164919062000516565b60405180910390a15062000895565b600033905090565b6000600560009054906101000a900473ffffffffffffffffffffffffffffffffffffffff16905081600560006101000a81548173ffffffffffffffffffffffffffffffffffffffff021916908373ffffffffffffffffffffffffffffffffffffffff1602179055508173ffffffffffffffffffffffffffffffffffffffff168173ffffffffffffffffffffffffffffffffffffffff167f8be0079c531659141344cd1fd0a4f28419497f9722a3daafe3b4186f6b6457e060405160405180910390a35050565b600090565b600073ffffffffffffffffffffffffffffffffffffffff168273ffffffffffffffffffffffffffffffffffffffff161415620002b9576040517f08c379a0000000000000000000000000000000000000000000000000000000008152600401620002b090620004f4565b60405180910390fd5b620002cd60008383620003bf60201b60201c565b8060026000828254620002e1919062000544565b92505081905550806000808473ffffffffffffffffffffffffffffffffffffffff1673ffffffffffffffffffffffffffffffffffffffff168152602001908152602001600020600082825462000338919062000544565b925050819055508173ffffffffffffffffffffffffffffffffffffffff16600073ffffffffffffffffffffffffffffffffffffffff167fddf252ad1be2c89b69c2b068fc378daa952ba7f163c4a11628f55a4df523b3ef836040516200039f919062000516565b60405180910390a3620003bb60008383620003c460201b60201c565b5050565b505050565b505050565b828054620003d790620007b1565b90600052602060002090601f016020900481019282620003fb576000855562000447565b82601f106200041657805160ff191683800117855562000447565b8280016001018555821562000447579182015b828111156200044657825182559160200191906001019062000429565b5b5090506200045691906200045a565b5090565b5b80821115620004755760008160009055506001016200045b565b5090565b6000815190506200048a816200087b565b92915050565b600060208284031215620004a357600080fd5b6000620004b38482850162000479565b91505092915050565b6000620004cb601f8362000533565b9150620004d88262000852565b602082019050919050565b620004ee816200079a565b82525050565b600060208201905081810360008301526200050f81620004bc565b9050919050565b60006020820190506200052d6000830184620004e3565b92915050565b600082825260208201905092915050565b600062000551826200079a565b91506200055e836200079a565b9250827fffffffffffffffffffffffffffffffffffffffffffffffffffffffffffffffff03821115620005965762000595620007e7565b5b828201905092915050565b6000808291508390505b6001851115620005f357808604811115620005cb57620005ca620007e7565b5b6001851615620005db5780820291505b8081029050620005eb8562000845565b9450620005ab565b94509492505050565b600062000609826200079a565b91506200061683620007a4565b9250620006457fffffffffffffffffffffffffffffffffffffffffffffffffffffffffffffffff84846200064d565b905092915050565b6000826200065f576001905062000732565b816200066f576000905062000732565b81600181146200068857600281146200069357620006c9565b600191505062000732565b60ff841115620006a857620006a7620007e7565b5b8360020a915084821115620006c257620006c1620007e7565b5b5062000732565b5060208310610133831016604e8410600b8410161715620007035782820a905083811115620006fd57620006fc620007e7565b5b62000732565b620007128484846001620005a1565b925090508184048111156200072c576200072b620007e7565b5b81810290505b9392505050565b600062000746826200079a565b915062000753836200079a565b9250817fffffffffffffffffffffffffffffffffffffffffffffffffffffffffffffffff04831182151516156200078f576200078e620007e7565b5b828202905092915050565b6000819050919050565b600060ff82169050919050565b60006002820490506001821680620007ca57607f821691505b60208210811415620007e157620007e062000816565b5b50919050565b7f4e487b7100000000000000000000000000000000000000000000000000000000600052601160045260246000fd5b7f4e487b7100000000000000000000000000000000000000000000000000000000600052602260045260246000fd5b60008160011c9050919050565b7f45524332303a206d696e7420746f20746865207a65726f206164647265737300600082015250565b62000886816200079a565b81146200089257600080fd5b50565b611d2a80620008a56000396000f3fe608060405234801561001057600080fd5b50600436106100f55760003560e01c8063715018a611610097578063a457c2d711610066578063a457c2d714610276578063a9059cbb146102a6578063dd62ed3e146102d6578063f2fde38b14610306576100f5565b8063715018a6146102145780638da5cb5b1461021e57806394bf804d1461023c57806395d89b4114610258576100f5565b806323b872dd116100d357806323b872dd14610166578063313ce5671461019657806339509351146101b457806370a08231146101e4576100f5565b806306fdde03146100fa578063095ea7b31461011857806318160ddd14610148575b600080fd5b610102610322565b60405161010f91906114c8565b60405180910390f35b610132600480360381019061012d9190611247565b6103b4565b60405161013f91906114ad565b60405180910390f35b6101506103d2565b60405161015d919061162a565b60405180910390f35b610180600480360381019061017b91906111f8565b6103dc565b60405161018d91906114ad565b60405180910390f35b61019e610437565b6040516101ab919061166e565b60405180910390f35b6101ce60048036038101906101c99190611247565b61043c565b6040516101db91906114ad565b60405180910390f35b6101fe60048036038101906101f99190611193565b6104e8565b60405161020b919061162a565b60405180910390f35b61021c610530565b005b6102266105b8565b6040516102339190611492565b60405180910390f35b61025660048036038101906102519190611283565b6105e2565b005b6102606106d3565b60405161026d91906114c8565b60405180910390f35b610290600480360381019061028b9190611247565b610765565b60405161029d91906114ad565b60405180910390f35b6102c060048036038101906102bb9190611247565b610850565b6040516102cd91906114ad565b60405180910390f35b6102f060048036038101906102eb91906111bc565b61086e565b6040516102fd919061162a565b60405180910390f35b610320600480360381019061031b9190611193565b6108f5565b005b6060600380546103319061194e565b80601f016020809104026020016040519081016040528092919081815260200182805461035d9061194e565b80156103aa5780601f1061037f576101008083540402835291602001916103aa565b820191906000526020600020905b81548152906001019060200180831161038d57829003601f168201915b5050505050905090565b60006103c86103c16109ed565b84846109f5565b6001905092915050565b6000600254905090565b6000806103ea858585610bc0565b9050801561042c577ff2550c4aaee78d41147bd7d7e43ebe36ade8d240df0d8ba8e3a348dfa3060ae48385604051610423929190611645565b60405180910390a15b809150509392505050565b600090565b60006104de6104496109ed565b8484600160006104576109ed565b73ffffffffffffffffffffffffffffffffffffffff1673ffffffffffffffffffffffffffffffffffffffff16815260200190815260200160002060008873ffffffffffffffffffffffffffffffffffffffff1673ffffffffffffffffffffffffffffffffffffffff168152602001908152602001600020546104d991906116a5565b6109f5565b6001905092915050565b60008060008373ffffffffffffffffffffffffffffffffffffffff1673ffffffffffffffffffffffffffffffffffffffff168152602001908152602001600020549050919050565b6105386109ed565b73ffffffffffffffffffffffffffffffffffffffff166105566105b8565b73ffffffffffffffffffffffffffffffffffffffff16146105ac576040517f08c379a00000000000000000000000000000000000000000000000000000000081526004016105a39061158a565b60405180910390fd5b6105b66000610cb8565b565b6000600560009054906101000a900473ffffffffffffffffffffffffffffffffffffffff16905090565b6105ea6109ed565b73ffffffffffffffffffffffffffffffffffffffff166106086105b8565b73ffffffffffffffffffffffffffffffffffffffff161461065e576040517f08c379a00000000000000000000000000000000000000000000000000000000081526004016106559061158a565b60405180910390fd5b61068d6106696105b8565b610671610437565b600a61067d919061174e565b84610688919061186c565b610d7e565b61069781836103b4565b507f49a8caaec78f30ef7aa27fa4fe6a9be9208a8d483c53db02897ed3e656762e0b826040516106c7919061162a565b60405180910390a15050565b6060600480546106e29061194e565b80601f016020809104026020016040519081016040528092919081815260200182805461070e9061194e565b801561075b5780601f106107305761010080835404028352916020019161075b565b820191906000526020600020905b81548152906001019060200180831161073e57829003601f168201915b5050505050905090565b600080600160006107746109ed565b73ffffffffffffffffffffffffffffffffffffffff1673ffffffffffffffffffffffffffffffffffffffff16815260200190815260200160002060008573ffffffffffffffffffffffffffffffffffffffff1673ffffffffffffffffffffffffffffffffffffffff16815260200190815260200160002054905082811015610831576040517f08c379a0000000000000000000000000000000000000000000000000000000008152600401610828906115ea565b60405180910390fd5b61084561083c6109ed565b858584036109f5565b600191505092915050565b600061086461085d6109ed565b8484610ede565b6001905092915050565b6000600160008473ffffffffffffffffffffffffffffffffffffffff1673ffffffffffffffffffffffffffffffffffffffff16815260200190815260200160002060008373ffffffffffffffffffffffffffffffffffffffff1673ffffffffffffffffffffffffffffffffffffffff16815260200190815260200160002054905092915050565b6108fd6109ed565b73ffffffffffffffffffffffffffffffffffffffff1661091b6105b8565b73ffffffffffffffffffffffffffffffffffffffff1614610971576040517f08c379a00000000000000000000000000000000000000000000000000000000081526004016109689061158a565b60405180910390fd5b600073ffffffffffffffffffffffffffffffffffffffff168173ffffffffffffffffffffffffffffffffffffffff1614156109e1576040517f08c379a00000000000000000000000000000000000000000000000000000000081526004016109d89061150a565b60405180910390fd5b6109ea81610cb8565b50565b600033905090565b600073ffffffffffffffffffffffffffffffffffffffff168373ffffffffffffffffffffffffffffffffffffffff161415610a65576040517f08c379a0000000000000000000000000000000000000000000000000000000008152600401610a5c906115ca565b60405180910390fd5b600073ffffffffffffffffffffffffffffffffffffffff168273ffffffffffffffffffffffffffffffffffffffff161415610ad5576040517f08c379a0000000000000000000000000000000000000000000000000000000008152600401610acc9061152a565b60405180910390fd5b80600160008573ffffffffffffffffffffffffffffffffffffffff1673ffffffffffffffffffffffffffffffffffffffff16815260200190815260200160002060008473ffffffffffffffffffffffffffffffffffffffff1673ffffffffffffffffffffffffffffffffffffffff168152602001908152602001600020819055508173ffffffffffffffffffffffffffffffffffffffff168373ffffffffffffffffffffffffffffffffffffffff167f8c5be1e5ebec7d5bd14f71427d1e84f3dd0314c0f7b2291e5b200ac8c7c3b92583604051610bb3919061162a565b60405180910390a3505050565b6000610bcd848484610ede565b6000600160008673ffffffffffffffffffffffffffffffffffffffff1673ffffffffffffffffffffffffffffffffffffffff1681526020019081526020016000206000610c186109ed565b73ffffffffffffffffffffffffffffffffffffffff1673ffffffffffffffffffffffffffffffffffffffff16815260200190815260200160002054905082811015610c98576040517f08c379a0000000000000000000000000000000000000000000000000000000008152600401610c8f9061156a565b60405180910390fd5b610cac85610ca46109ed565b8584036109f5565b60019150509392505050565b6000600560009054906101000a900473ffffffffffffffffffffffffffffffffffffffff16905081600560006101000a81548173ffffffffffffffffffffffffffffffffffffffff021916908373ffffffffffffffffffffffffffffffffffffffff1602179055508173ffffffffffffffffffffffffffffffffffffffff168173ffffffffffffffffffffffffffffffffffffffff167f8be0079c531659141344cd1fd0a4f28419497f9722a3daafe3b4186f6b6457e060405160405180910390a35050565b600073ffffffffffffffffffffffffffffffffffffffff168273ffffffffffffffffffffffffffffffffffffffff161415610dee576040517f08c379a0000000000000000000000000000000000000000000000000000000008152600401610de59061160a565b60405180910390fd5b610dfa6000838361115f565b8060026000828254610e0c91906116a5565b92505081905550806000808473ffffffffffffffffffffffffffffffffffffffff1673ffffffffffffffffffffffffffffffffffffffff1681526020019081526020016000206000828254610e6191906116a5565b925050819055508173ffffffffffffffffffffffffffffffffffffffff16600073ffffffffffffffffffffffffffffffffffffffff167fddf252ad1be2c89b69c2b068fc378daa952ba7f163c4a11628f55a4df523b3ef83604051610ec6919061162a565b60405180910390a3610eda60008383611164565b5050565b600073ffffffffffffffffffffffffffffffffffffffff168373ffffffffffffffffffffffffffffffffffffffff161415610f4e576040517f08c379a0000000000000000000000000000000000000000000000000000000008152600401610f45906115aa565b60405180910390fd5b600073ffffffffffffffffffffffffffffffffffffffff168273ffffffffffffffffffffffffffffffffffffffff161415610fbe576040517f08c379a0000000000000000000000000000000000000000000000000000000008152600401610fb5906114ea565b60405180910390fd5b610fc983838361115f565b60008060008573ffffffffffffffffffffffffffffffffffffffff1673ffffffffffffffffffffffffffffffffffffffff1681526020019081526020016000205490508181101561104f576040517f08c379a00000000000000000000000000000000000000000000000000000000081526004016110469061154a565b60405180910390fd5b8181036000808673ffffffffffffffffffffffffffffffffffffffff1673ffffffffffffffffffffffffffffffffffffffff16815260200190815260200160002081905550816000808573ffffffffffffffffffffffffffffffffffffffff1673ffffffffffffffffffffffffffffffffffffffff16815260200190815260200160002060008282546110e291906116a5565b925050819055508273ffffffffffffffffffffffffffffffffffffffff168473ffffffffffffffffffffffffffffffffffffffff167fddf252ad1be2c89b69c2b068fc378daa952ba7f163c4a11628f55a4df523b3ef84604051611146919061162a565b60405180910390a3611159848484611164565b50505050565b505050565b505050565b60008135905061117881611cc6565b92915050565b60008135905061118d81611cdd565b92915050565b6000602082840312156111a557600080fd5b60006111b384828501611169565b91505092915050565b600080604083850312156111cf57600080fd5b60006111dd85828601611169565b92505060206111ee85828601611169565b9150509250929050565b60008060006060848603121561120d57600080fd5b600061121b86828701611169565b935050602061122c86828701611169565b925050604061123d8682870161117e565b9150509250925092565b6000806040838503121561125a57600080fd5b600061126885828601611169565b92505060206112798582860161117e565b9150509250929050565b6000806040838503121561129657600080fd5b60006112a48582860161117e565b92505060206112b585828601611169565b9150509250929050565b6112c8816118c6565b82525050565b6112d7816118d8565b82525050565b60006112e882611689565b6112f28185611694565b935061130281856020860161191b565b61130b816119de565b840191505092915050565b6000611323602383611694565b915061132e826119fc565b604082019050919050565b6000611346602683611694565b915061135182611a4b565b604082019050919050565b6000611369602283611694565b915061137482611a9a565b604082019050919050565b600061138c602683611694565b915061139782611ae9565b604082019050919050565b60006113af602883611694565b91506113ba82611b38565b604082019050919050565b60006113d2602083611694565b91506113dd82611b87565b602082019050919050565b60006113f5602583611694565b915061140082611bb0565b604082019050919050565b6000611418602483611694565b915061142382611bff565b604082019050919050565b600061143b602583611694565b915061144682611c4e565b604082019050919050565b600061145e601f83611694565b915061146982611c9d565b602082019050919050565b61147d81611904565b82525050565b61148c8161190e565b82525050565b60006020820190506114a760008301846112bf565b92915050565b60006020820190506114c260008301846112ce565b92915050565b600060208201905081810360008301526114e281846112dd565b905092915050565b6000602082019050818103600083015261150381611316565b9050919050565b6000602082019050818103600083015261152381611339565b9050919050565b600060208201905081810360008301526115438161135c565b9050919050565b600060208201905081810360008301526115638161137f565b9050919050565b60006020820190508181036000830152611583816113a2565b9050919050565b600060208201905081810360008301526115a3816113c5565b9050919050565b600060208201905081810360008301526115c3816113e8565b9050919050565b600060208201905081810360008301526115e38161140b565b9050919050565b600060208201905081810360008301526116038161142e565b9050919050565b6000602082019050818103600083015261162381611451565b9050919050565b600060208201905061163f6000830184611474565b92915050565b600060408201905061165a6000830185611474565b61166760208301846112bf565b9392505050565b60006020820190506116836000830184611483565b92915050565b600081519050919050565b600082825260208201905092915050565b60006116b082611904565b91506116bb83611904565b9250827fffffffffffffffffffffffffffffffffffffffffffffffffffffffffffffffff038211156116f0576116ef611980565b5b828201905092915050565b6000808291508390505b60018511156117455780860481111561172157611720611980565b5b60018516156117305780820291505b808102905061173e856119ef565b9450611705565b94509492505050565b600061175982611904565b91506117648361190e565b92506117917fffffffffffffffffffffffffffffffffffffffffffffffffffffffffffffffff8484611799565b905092915050565b6000826117a95760019050611865565b816117b75760009050611865565b81600181146117cd57600281146117d757611806565b6001915050611865565b60ff8411156117e9576117e8611980565b5b8360020a915084821115611800576117ff611980565b5b50611865565b5060208310610133831016604e8410600b841016171561183b5782820a90508381111561183657611835611980565b5b611865565b61184884848460016116fb565b9250905081840481111561185f5761185e611980565b5b81810290505b9392505050565b600061187782611904565b915061188283611904565b9250817fffffffffffffffffffffffffffffffffffffffffffffffffffffffffffffffff04831182151516156118bb576118ba611980565b5b828202905092915050565b60006118d1826118e4565b9050919050565b60008115159050919050565b600073ffffffffffffffffffffffffffffffffffffffff82169050919050565b6000819050919050565b600060ff82169050919050565b60005b8381101561193957808201518184015260208101905061191e565b83811115611948576000848401525b50505050565b6000600282049050600182168061196657607f821691505b6020821081141561197a576119796119af565b5b50919050565b7f4e487b7100000000000000000000000000000000000000000000000000000000600052601160045260246000fd5b7f4e487b7100000000000000000000000000000000000000000000000000000000600052602260045260246000fd5b6000601f19601f8301169050919050565b60008160011c9050919050565b7f45524332303a207472616e7366657220746f20746865207a65726f206164647260008201527f6573730000000000000000000000000000000000000000000000000000000000602082015250565b7f4f776e61626c653a206e6577206f776e657220697320746865207a65726f206160008201527f6464726573730000000000000000000000000000000000000000000000000000602082015250565b7f45524332303a20617070726f766520746f20746865207a65726f20616464726560008201527f7373000000000000000000000000000000000000000000000000000000000000602082015250565b7f45524332303a207472616e7366657220616d6f756e742065786365656473206260008201527f616c616e63650000000000000000000000000000000000000000000000000000602082015250565b7f45524332303a207472616e7366657220616d6f756e742065786365656473206160008201527f6c6c6f77616e6365000000000000000000000000000000000000000000000000602082015250565b7f4f776e61626c653a2063616c6c6572206973206e6f7420746865206f776e6572600082015250565b7f45524332303a207472616e736665722066726f6d20746865207a65726f20616460008201527f6472657373000000000000000000000000000000000000000000000000000000602082015250565b7f45524332303a20617070726f76652066726f6d20746865207a65726f2061646460008201527f7265737300000000000000000000000000000000000000000000000000000000602082015250565b7f45524332303a2064656372656173656420616c6c6f77616e63652062656c6f7760008201527f207a65726f000000000000000000000000000000000000000000000000000000602082015250565b7f45524332303a206d696e7420746f20746865207a65726f206164647265737300600082015250565b611ccf816118c6565b8114611cda57600080fd5b50565b611ce681611904565b8114611cf157600080fd5b5056fea26469706673582212209a0677b7cebba55745d882a6741c99ab4d1f36755f242c059fb4d32c15b875b164736f6c63430008040033",
  "linkReferences": {},
  "deployedLinkReferences": {}
}