{
  "_format": "hh-sol-artifact-1",
  "contractName": "AllowlistMock",
  "sourceName": "contracts/ERC1400/mocks/AllowlistMock.sol",
  "abi": [
    {
      "inputs": [
        {
          "internalType": "address",
          "name": "token",
          "type": "address"
        }
      ],
      "stateMutability": "nonpayable",
      "type": "constructor"
    },
    {
      "anonymous": false,
      "inputs": [
        {
          "indexed": true,
          "internalType": "address",
          "name": "token",
          "type": "address"
        },
        {
          "indexed": true,
          "internalType": "address",
          "name": "account",
          "type": "address"
        }
      ],
      "name": "AllowlistAdminAdded",
      "type": "event"
    },
    {
      "anonymous": false,
      "inputs": [
        {
          "indexed": true,
          "internalType": "address",
          "name": "token",
          "type": "address"
        },
        {
          "indexed": true,
          "internalType": "address",
          "name": "account",
          "type": "address"
        }
      ],
      "name": "AllowlistAdminRemoved",
      "type": "event"
    },
    {
      "anonymous": false,
      "inputs": [
        {
          "indexed": true,
          "internalType": "address",
          "name": "token",
          "type": "address"
        },
        {
          "indexed": true,
          "internalType": "address",
          "name": "account",
          "type": "address"
        }
      ],
      "name": "AllowlistedAdded",
      "type": "event"
    },
    {
      "anonymous": false,
      "inputs": [
        {
          "indexed": true,
          "internalType": "address",
          "name": "token",
          "type": "address"
        },
        {
          "indexed": true,
          "internalType": "address",
          "name": "account",
          "type": "address"
        }
      ],
      "name": "AllowlistedRemoved",
      "type": "event"
    },
    {
      "inputs": [
        {
          "internalType": "address",
          "name": "token",
          "type": "address"
        },
        {
          "internalType": "address",
          "name": "account",
          "type": "address"
        }
      ],
      "name": "addAllowlistAdmin",
      "outputs": [],
      "stateMutability": "nonpayable",
      "type": "function"
    },
    {
      "inputs": [
        {
          "internalType": "address",
          "name": "token",
          "type": "address"
        },
        {
          "internalType": "address",
          "name": "account",
          "type": "address"
        }
      ],
      "name": "addAllowlisted",
      "outputs": [],
      "stateMutability": "nonpayable",
      "type": "function"
    },
    {
      "inputs": [
        {
          "internalType": "address",
          "name": "token",
          "type": "address"
        },
        {
          "internalType": "address",
          "name": "account",
          "type": "address"
        }
      ],
      "name": "isAllowlistAdmin",
      "outputs": [
        {
          "internalType": "bool",
          "name": "",
          "type": "bool"
        }
      ],
      "stateMutability": "view",
      "type": "function"
    },
    {
      "inputs": [
        {
          "internalType": "address",
          "name": "token",
          "type": "address"
        },
        {
          "internalType": "address",
          "name": "account",
          "type": "address"
        }
      ],
      "name": "isAllowlisted",
      "outputs": [
        {
          "internalType": "bool",
          "name": "",
          "type": "bool"
        }
      ],
      "stateMutability": "view",
      "type": "function"
    },
    {
      "inputs": [
        {
          "internalType": "address",
          "name": "token",
          "type": "address"
        },
        {
          "internalType": "bool",
          "name": "mockActivated",
          "type": "bool"
        }
      ],
      "name": "mockFunction",
      "outputs": [],
      "stateMutability": "nonpayable",
      "type": "function"
    },
    {
      "inputs": [
        {
          "internalType": "address",
          "name": "token",
          "type": "address"
        },
        {
          "internalType": "address",
          "name": "account",
          "type": "address"
        }
      ],
      "name": "removeAllowlistAdmin",
      "outputs": [],
      "stateMutability": "nonpayable",
      "type": "function"
    },
    {
      "inputs": [
        {
          "internalType": "address",
          "name": "token",
          "type": "address"
        },
        {
          "internalType": "address",
          "name": "account",
          "type": "address"
        }
      ],
      "name": "removeAllowlisted",
      "outputs": [],
      "stateMutability": "nonpayable",
      "type": "function"
    },
    {
      "inputs": [
        {
          "internalType": "address",
          "name": "token",
          "type": "address"
        }
      ],
      "name": "renounceAllowlistAdmin",
      "outputs": [],
      "stateMutability": "nonpayable",
      "type": "function"
    }
  ],
  "bytecode": "0x608060405234801561001057600080fd5b5060405161085838038061085883398101604081905261002f9161014c565b610039813361003f565b506101f3565b6001600160a01b03821660009081526020818152604090912061006b91839061023c6100af821b17901c565b806001600160a01b0316826001600160a01b03167f7a247cc00caf875946bd4af440d6b1776fe6bb625e25cad7626bedf5e6a1c37060405160405180910390a35050565b6100b98282610104565b156100df5760405162461bcd60e51b81526004016100d69061017a565b60405180910390fd5b6001600160a01b0316600090815260209190915260409020805460ff19166001179055565b60006001600160a01b03821661012c5760405162461bcd60e51b81526004016100d6906101b1565b506001600160a01b03166000908152602091909152604090205460ff1690565b60006020828403121561015d578081fd5b81516001600160a01b0381168114610173578182fd5b9392505050565b6020808252601f908201527f526f6c65733a206163636f756e7420616c72656164792068617320726f6c6500604082015260600190565b60208082526022908201527f526f6c65733a206163636f756e7420697320746865207a65726f206164647265604082015261737360f01b606082015260800190565b610656806102026000396000f3fe608060405234801561001057600080fd5b50600436106100885760003560e01c8063685e25191161005b578063685e2519146100f15780636c41d4ea14610104578063dfe15da014610117578063fa061ca01461012a57610088565b80630d21cdd81461008d5780634261699f146100a257806342be5787146100b557806361c2e281146100de575b600080fd5b6100a061009b3660046104d5565b61013d565b005b6100a06100b03660046104ef565b61014a565b6100c86100c33660046104ef565b61016d565b6040516100d5919061055b565b60405180910390f35b6100c86100ec3660046104ef565b610196565b6100a06100ff3660046104ef565b6101b8565b6100a0610112366004610521565b6101d6565b6100a06101253660046104ef565b610200565b6100a06101383660046104ef565b61021e565b6101478133610291565b50565b81610155813361016d565b61015e57600080fd5b61016883836102f7565b505050565b6001600160a01b038216600090815260208190526040812061018f908361035d565b9392505050565b6001600160a01b038216600090815260016020526040812061018f908361035d565b816101c3813361016d565b6101cc57600080fd5b61016883836103a5565b816101e18133610196565b156101eb57600080fd5b506002805460ff191691151591909117905550565b8161020b813361016d565b61021457600080fd5b6101688383610291565b81610229813361016d565b61023257600080fd5b610168838361040b565b610246828261035d565b1561026c5760405162461bcd60e51b815260040161026390610566565b60405180910390fd5b6001600160a01b0316600090815260209190915260409020805460ff19166001179055565b6001600160a01b03821660009081526020819052604090206102b39082610471565b806001600160a01b0316826001600160a01b03167f84c618afa7439d9985b8c707a18637a9c6b0128399c0f5dee2ca90254d66fc3a60405160405180910390a35050565b6001600160a01b0382166000908152600160205260409020610319908261023c565b806001600160a01b0316826001600160a01b03167ff537a4c39a5575220902fda69b79909e02d44c8a7146b1a1c3b936f86aa71e3860405160405180910390a35050565b60006001600160a01b0382166103855760405162461bcd60e51b8152600401610263906105de565b506001600160a01b03166000908152602091909152604090205460ff1690565b6001600160a01b03821660009081526001602052604090206103c79082610471565b806001600160a01b0316826001600160a01b03167f99c45157365b22d82f22eea7bc8cff76cb53628113f4b52b10f83db3b404001660405160405180910390a35050565b6001600160a01b038216600090815260208190526040902061042d908261023c565b806001600160a01b0316826001600160a01b03167f7a247cc00caf875946bd4af440d6b1776fe6bb625e25cad7626bedf5e6a1c37060405160405180910390a35050565b61047b828261035d565b6104975760405162461bcd60e51b81526004016102639061059d565b6001600160a01b0316600090815260209190915260409020805460ff19169055565b80356001600160a01b03811681146104d057600080fd5b919050565b6000602082840312156104e6578081fd5b61018f826104b9565b60008060408385031215610501578081fd5b61050a836104b9565b9150610518602084016104b9565b90509250929050565b60008060408385031215610533578182fd5b61053c836104b9565b915060208301358015158114610550578182fd5b809150509250929050565b901515815260200190565b6020808252601f908201527f526f6c65733a206163636f756e7420616c72656164792068617320726f6c6500604082015260600190565b60208082526021908201527f526f6c65733a206163636f756e7420646f6573206e6f74206861766520726f6c6040820152606560f81b606082015260800190565b60208082526022908201527f526f6c65733a206163636f756e7420697320746865207a65726f206164647265604082015261737360f01b60608201526080019056fea26469706673582212201c75c140ed284802b077996885998e6a6c9dc46d1e54472e22d7be4fb135b43164736f6c63430008000033",
  "linkReferences": {},
  "deployedLinkReferences": {}
}