{
  "_format": "hh-sol-artifact-1",
  "contractName": "OracleCaller",
  "sourceName": "contracts/oracle/OracleCaller.sol",
  "abi": [
    {
      "anonymous": false,
      "inputs": [
        {
          "indexed": false,
          "internalType": "uint256",
          "name": "id",
          "type": "uint256"
        },
        {
          "indexed": false,
          "internalType": "uint256",
          "name": "tokens",
          "type": "uint256"
        },
        {
          "indexed": false,
          "internalType": "address",
          "name": "employeeAddress",
          "type": "address"
        }
      ],
      "name": "DataUpdatedEvent",
      "type": "event"
    },
    {
      "anonymous": false,
      "inputs": [
        {
          "indexed": true,
          "internalType": "address",
          "name": "previousOwner",
          "type": "address"
        },
        {
          "indexed": true,
          "internalType": "address",
          "name": "newOwner",
          "type": "address"
        }
      ],
      "name": "OwnershipTransferred",
      "type": "event"
    },
    {
      "anonymous": false,
      "inputs": [
        {
          "indexed": false,
          "internalType": "uint256",
          "name": "id",
          "type": "uint256"
        }
      ],
      "name": "ReceivedNewRequestIdEvent",
      "type": "event"
    },
    {
      "inputs": [
        {
          "internalType": "address",
          "name": "_owner",
          "type": "address"
        },
        {
          "internalType": "uint256",
          "name": "_id",
          "type": "uint256"
        },
        {
          "internalType": "uint256",
          "name": "_tokens",
          "type": "uint256"
        },
        {
          "internalType": "address",
          "name": "_employeeAddress",
          "type": "address"
        },
        {
          "internalType": "bool",
          "name": "_lastOne",
          "type": "bool"
        }
      ],
      "name": "callback",
      "outputs": [],
      "stateMutability": "nonpayable",
      "type": "function"
    },
    {
      "inputs": [],
      "name": "getHealthyTokenInstanceAddress",
      "outputs": [
        {
          "internalType": "address",
          "name": "",
          "type": "address"
        }
      ],
      "stateMutability": "view",
      "type": "function"
    },
    {
      "inputs": [],
      "name": "getOracleInstanceAddress",
      "outputs": [
        {
          "internalType": "address",
          "name": "",
          "type": "address"
        }
      ],
      "stateMutability": "view",
      "type": "function"
    },
    {
      "inputs": [],
      "name": "owner",
      "outputs": [
        {
          "internalType": "address",
          "name": "",
          "type": "address"
        }
      ],
      "stateMutability": "view",
      "type": "function"
    },
    {
      "inputs": [],
      "name": "renounceOwnership",
      "outputs": [],
      "stateMutability": "nonpayable",
      "type": "function"
    },
    {
      "inputs": [
        {
          "internalType": "address",
          "name": "_healthyToken",
          "type": "address"
        }
      ],
      "name": "setHealthyTokenInstanceAddress",
      "outputs": [],
      "stateMutability": "nonpayable",
      "type": "function"
    },
    {
      "inputs": [
        {
          "internalType": "address",
          "name": "_oracleInstanceAddress",
          "type": "address"
        }
      ],
      "name": "setOracleInstanceAddress",
      "outputs": [],
      "stateMutability": "nonpayable",
      "type": "function"
    },
    {
      "inputs": [
        {
          "internalType": "address",
          "name": "newOwner",
          "type": "address"
        }
      ],
      "name": "transferOwnership",
      "outputs": [],
      "stateMutability": "nonpayable",
      "type": "function"
    },
    {
      "inputs": [],
      "name": "updateData",
      "outputs": [],
      "stateMutability": "nonpayable",
      "type": "function"
    }
  ],
  "bytecode": "0x608060405234801561001057600080fd5b5061002d61002261003260201b60201c565b61003a60201b60201c565b6100fe565b600033905090565b60008060009054906101000a900473ffffffffffffffffffffffffffffffffffffffff169050816000806101000a81548173ffffffffffffffffffffffffffffffffffffffff021916908373ffffffffffffffffffffffffffffffffffffffff1602179055508173ffffffffffffffffffffffffffffffffffffffff168173ffffffffffffffffffffffffffffffffffffffff167f8be0079c531659141344cd1fd0a4f28419497f9722a3daafe3b4186f6b6457e060405160405180910390a35050565b610ed88061010d6000396000f3fe608060405234801561001057600080fd5b50600436106100935760003560e01c80638e00a2bb116100665780638e00a2bb146100fa578063a510553f14610104578063e97e4b1e14610122578063e9e17a9e1461013e578063f2fde38b1461015a57610093565b8063137f882e1461009857806342e16db9146100b4578063715018a6146100d25780638da5cb5b146100dc575b600080fd5b6100b260048036038101906100ad9190610a57565b610176565b005b6100bc6103cc565b6040516100c99190610bca565b60405180910390f35b6100da6103f6565b005b6100e461047e565b6040516100f19190610bca565b60405180910390f35b6101026104a7565b005b61010c6105b3565b6040516101199190610bca565b60405180910390f35b61013c60048036038101906101379190610a2e565b6105dd565b005b61015860048036038101906101539190610a2e565b6106de565b005b610174600480360381019061016f9190610a2e565b610801565b005b600460009054906101000a900473ffffffffffffffffffffffffffffffffffffffff1673ffffffffffffffffffffffffffffffffffffffff163373ffffffffffffffffffffffffffffffffffffffff1614610206576040517f08c379a00000000000000000000000000000000000000000000000000000000081526004016101fd90610c5c565b60405180910390fd5b6007600085815260200190815260200160002060009054906101000a900460ff16610266576040517f08c379a000000000000000000000000000000000000000000000000000000000815260040161025d90610c7c565b60405180910390fd5b8260018190555081600260006101000a81548173ffffffffffffffffffffffffffffffffffffffff021916908373ffffffffffffffffffffffffffffffffffffffff160217905550600560009054906101000a900473ffffffffffffffffffffffffffffffffffffffff1673ffffffffffffffffffffffffffffffffffffffff166323b872dd8684866040518463ffffffff1660e01b815260040161030d93929190610be5565b602060405180830381600087803b15801561032757600080fd5b505af115801561033b573d6000803e3d6000fd5b505050506040513d601f19601f8201168201806040525081019061035f9190610ace565b50801561038a576007600085815260200190815260200160002060006101000a81549060ff02191690555b7ff182ad9fe7397171f16694d13d75cf40e23880abdbd71b6f9b99a02ea20efa918484846040516103bd93929190610cb7565b60405180910390a15050505050565b6000600460009054906101000a900473ffffffffffffffffffffffffffffffffffffffff16905090565b6103fe6108f9565b73ffffffffffffffffffffffffffffffffffffffff1661041c61047e565b73ffffffffffffffffffffffffffffffffffffffff1614610472576040517f08c379a000000000000000000000000000000000000000000000000000000000815260040161046990610c3c565b60405180910390fd5b61047c6000610901565b565b60008060009054906101000a900473ffffffffffffffffffffffffffffffffffffffff16905090565b6000600360009054906101000a900473ffffffffffffffffffffffffffffffffffffffff1673ffffffffffffffffffffffffffffffffffffffff1663ab757d616040518163ffffffff1660e01b8152600401602060405180830381600087803b15801561051357600080fd5b505af1158015610527573d6000803e3d6000fd5b505050506040513d601f19601f8201168201806040525081019061054b9190610af7565b905060016007600083815260200190815260200160002060006101000a81548160ff0219169083151502179055507f3ed150819af981e387450beb90ec379b8b322150dbb299d492b108c59a623e4b816040516105a89190610c9c565b60405180910390a150565b6000600660009054906101000a900473ffffffffffffffffffffffffffffffffffffffff16905090565b6105e56108f9565b73ffffffffffffffffffffffffffffffffffffffff1661060361047e565b73ffffffffffffffffffffffffffffffffffffffff1614610659576040517f08c379a000000000000000000000000000000000000000000000000000000000815260040161065090610c3c565b60405180910390fd5b80600660006101000a81548173ffffffffffffffffffffffffffffffffffffffff021916908373ffffffffffffffffffffffffffffffffffffffff16021790555080600560006101000a81548173ffffffffffffffffffffffffffffffffffffffff021916908373ffffffffffffffffffffffffffffffffffffffff16021790555050565b6106e66108f9565b73ffffffffffffffffffffffffffffffffffffffff1661070461047e565b73ffffffffffffffffffffffffffffffffffffffff161461075a576040517f08c379a000000000000000000000000000000000000000000000000000000000815260040161075190610c3c565b60405180910390fd5b80600460006101000a81548173ffffffffffffffffffffffffffffffffffffffff021916908373ffffffffffffffffffffffffffffffffffffffff160217905550600460009054906101000a900473ffffffffffffffffffffffffffffffffffffffff16600360006101000a81548173ffffffffffffffffffffffffffffffffffffffff021916908373ffffffffffffffffffffffffffffffffffffffff16021790555050565b6108096108f9565b73ffffffffffffffffffffffffffffffffffffffff1661082761047e565b73ffffffffffffffffffffffffffffffffffffffff161461087d576040517f08c379a000000000000000000000000000000000000000000000000000000000815260040161087490610c3c565b60405180910390fd5b600073ffffffffffffffffffffffffffffffffffffffff168173ffffffffffffffffffffffffffffffffffffffff1614156108ed576040517f08c379a00000000000000000000000000000000000000000000000000000000081526004016108e490610c1c565b60405180910390fd5b6108f681610901565b50565b600033905090565b60008060009054906101000a900473ffffffffffffffffffffffffffffffffffffffff169050816000806101000a81548173ffffffffffffffffffffffffffffffffffffffff021916908373ffffffffffffffffffffffffffffffffffffffff1602179055508173ffffffffffffffffffffffffffffffffffffffff168173ffffffffffffffffffffffffffffffffffffffff167f8be0079c531659141344cd1fd0a4f28419497f9722a3daafe3b4186f6b6457e060405160405180910390a35050565b6000813590506109d481610e5d565b92915050565b6000813590506109e981610e74565b92915050565b6000815190506109fe81610e74565b92915050565b600081359050610a1381610e8b565b92915050565b600081519050610a2881610e8b565b92915050565b600060208284031215610a4057600080fd5b6000610a4e848285016109c5565b91505092915050565b600080600080600060a08688031215610a6f57600080fd5b6000610a7d888289016109c5565b9550506020610a8e88828901610a04565b9450506040610a9f88828901610a04565b9350506060610ab0888289016109c5565b9250506080610ac1888289016109da565b9150509295509295909350565b600060208284031215610ae057600080fd5b6000610aee848285016109ef565b91505092915050565b600060208284031215610b0957600080fd5b6000610b1784828501610a19565b91505092915050565b610b2981610cff565b82525050565b6000610b3c602683610cee565b9150610b4782610d47565b604082019050919050565b6000610b5f602083610cee565b9150610b6a82610d96565b602082019050919050565b6000610b82602d83610cee565b9150610b8d82610dbf565b604082019050919050565b6000610ba5602783610cee565b9150610bb082610e0e565b604082019050919050565b610bc481610d3d565b82525050565b6000602082019050610bdf6000830184610b20565b92915050565b6000606082019050610bfa6000830186610b20565b610c076020830185610b20565b610c146040830184610bbb565b949350505050565b60006020820190508181036000830152610c3581610b2f565b9050919050565b60006020820190508181036000830152610c5581610b52565b9050919050565b60006020820190508181036000830152610c7581610b75565b9050919050565b60006020820190508181036000830152610c9581610b98565b9050919050565b6000602082019050610cb16000830184610bbb565b92915050565b6000606082019050610ccc6000830186610bbb565b610cd96020830185610bbb565b610ce66040830184610b20565b949350505050565b600082825260208201905092915050565b6000610d0a82610d1d565b9050919050565b60008115159050919050565b600073ffffffffffffffffffffffffffffffffffffffff82169050919050565b6000819050919050565b7f4f776e61626c653a206e6577206f776e657220697320746865207a65726f206160008201527f6464726573730000000000000000000000000000000000000000000000000000602082015250565b7f4f776e61626c653a2063616c6c6572206973206e6f7420746865206f776e6572600082015250565b7f596f7520617265206e6f7420617574686f72697a656420746f2063616c6c207460008201527f6869732066756e6374696f6e2e00000000000000000000000000000000000000602082015250565b7f546869732072657175657374206973206e6f7420696e206d792070656e64696e60008201527f67206c6973742e00000000000000000000000000000000000000000000000000602082015250565b610e6681610cff565b8114610e7157600080fd5b50565b610e7d81610d11565b8114610e8857600080fd5b50565b610e9481610d3d565b8114610e9f57600080fd5b5056fea26469706673582212205ab0b81dcdcaec62b7dc9126e5eef8d63494561886b66e3aff74c685a40b3e7d64736f6c63430008040033",
  "linkReferences": {},
  "deployedLinkReferences": {}
}