{
  "_format": "hh-sol-artifact-1",
  "contractName": "OracleCaller",
  "sourceName": "contracts/oracle/OracleCaller.sol",
  "abi": [
    {
      "anonymous": false,
      "inputs": [
        {
          "indexed": false,
          "internalType": "uint256",
          "name": "id",
          "type": "uint256"
        },
        {
          "indexed": false,
          "internalType": "uint256",
          "name": "tokens",
          "type": "uint256"
        },
        {
          "indexed": false,
          "internalType": "address",
          "name": "employeeAddress",
          "type": "address"
        }
      ],
      "name": "DataUpdatedEvent",
      "type": "event"
    },
    {
      "anonymous": false,
      "inputs": [
        {
          "indexed": true,
          "internalType": "address",
          "name": "previousOwner",
          "type": "address"
        },
        {
          "indexed": true,
          "internalType": "address",
          "name": "newOwner",
          "type": "address"
        }
      ],
      "name": "OwnershipTransferred",
      "type": "event"
    },
    {
      "anonymous": false,
      "inputs": [
        {
          "indexed": false,
          "internalType": "uint256",
          "name": "id",
          "type": "uint256"
        }
      ],
      "name": "ReceivedNewRequestIdEvent",
      "type": "event"
    },
    {
      "anonymous": false,
      "inputs": [
        {
          "indexed": false,
          "internalType": "address",
          "name": "oracleAddress",
          "type": "address"
        }
      ],
      "name": "newOracleAddressEvent",
      "type": "event"
    },
    {
      "inputs": [
        {
          "internalType": "uint256",
          "name": "_id",
          "type": "uint256"
        },
        {
          "internalType": "uint256",
          "name": "_tokens",
          "type": "uint256"
        },
        {
          "internalType": "address",
          "name": "_employeeAddress",
          "type": "address"
        }
      ],
      "name": "callback",
      "outputs": [],
      "stateMutability": "nonpayable",
      "type": "function"
    },
    {
      "inputs": [],
      "name": "getData",
      "outputs": [
        {
          "internalType": "string",
          "name": "",
          "type": "string"
        }
      ],
      "stateMutability": "view",
      "type": "function"
    },
    {
      "inputs": [],
      "name": "getHealthyTokenInstanceAddress",
      "outputs": [
        {
          "internalType": "address",
          "name": "",
          "type": "address"
        }
      ],
      "stateMutability": "view",
      "type": "function"
    },
    {
      "inputs": [],
      "name": "getOracleInstanceAddress",
      "outputs": [
        {
          "internalType": "address",
          "name": "",
          "type": "address"
        }
      ],
      "stateMutability": "view",
      "type": "function"
    },
    {
      "inputs": [],
      "name": "owner",
      "outputs": [
        {
          "internalType": "address",
          "name": "",
          "type": "address"
        }
      ],
      "stateMutability": "view",
      "type": "function"
    },
    {
      "inputs": [],
      "name": "renounceOwnership",
      "outputs": [],
      "stateMutability": "nonpayable",
      "type": "function"
    },
    {
      "inputs": [
        {
          "internalType": "address",
          "name": "_healthyToken",
          "type": "address"
        }
      ],
      "name": "setHealthyTokenInstanceAddress",
      "outputs": [],
      "stateMutability": "nonpayable",
      "type": "function"
    },
    {
      "inputs": [
        {
          "internalType": "address",
          "name": "_oracleInstanceAddress",
          "type": "address"
        }
      ],
      "name": "setOracleInstanceAddress",
      "outputs": [],
      "stateMutability": "nonpayable",
      "type": "function"
    },
    {
      "inputs": [
        {
          "internalType": "address",
          "name": "newOwner",
          "type": "address"
        }
      ],
      "name": "transferOwnership",
      "outputs": [],
      "stateMutability": "nonpayable",
      "type": "function"
    },
    {
      "inputs": [],
      "name": "updateData",
      "outputs": [],
      "stateMutability": "nonpayable",
      "type": "function"
    }
  ],
  "bytecode": "0x608060405234801561001057600080fd5b5061002d61002261003260201b60201c565b61003a60201b60201c565b6100fe565b600033905090565b60008060009054906101000a900473ffffffffffffffffffffffffffffffffffffffff169050816000806101000a81548173ffffffffffffffffffffffffffffffffffffffff021916908373ffffffffffffffffffffffffffffffffffffffff1602179055508173ffffffffffffffffffffffffffffffffffffffff168173ffffffffffffffffffffffffffffffffffffffff167f8be0079c531659141344cd1fd0a4f28419497f9722a3daafe3b4186f6b6457e060405160405180910390a35050565b610fc38061010d6000396000f3fe608060405234801561001057600080fd5b506004361061009e5760003560e01c80638e00a2bb116100665780638e00a2bb14610123578063a510553f1461012d578063e97e4b1e1461014b578063e9e17a9e14610167578063f2fde38b146101835761009e565b80633bc5de30146100a357806342e16db9146100c1578063715018a6146100df5780638277e7e8146100e95780638da5cb5b14610105575b600080fd5b6100ab61019f565b6040516100b89190610c96565b60405180910390f35b6100c96101a4565b6040516100d69190610c44565b60405180910390f35b6100e76101ce565b005b61010360048036038101906100fe9190610b12565b610256565b005b61010d6104a3565b60405161011a9190610c44565b60405180910390f35b61012b6104cc565b005b6101356105d8565b6040516101429190610c44565b60405180910390f35b61016560048036038101906101609190610a97565b610602565b005b610181600480360381019061017c9190610a97565b610703565b005b61019d60048036038101906101989190610a97565b61087f565b005b606090565b6000600460009054906101000a900473ffffffffffffffffffffffffffffffffffffffff16905090565b6101d6610977565b73ffffffffffffffffffffffffffffffffffffffff166101f46104a3565b73ffffffffffffffffffffffffffffffffffffffff161461024a576040517f08c379a000000000000000000000000000000000000000000000000000000000815260040161024190610cd8565b60405180910390fd5b610254600061097f565b565b600460009054906101000a900473ffffffffffffffffffffffffffffffffffffffff1673ffffffffffffffffffffffffffffffffffffffff163373ffffffffffffffffffffffffffffffffffffffff16146102e6576040517f08c379a00000000000000000000000000000000000000000000000000000000081526004016102dd90610cf8565b60405180910390fd5b6007600084815260200190815260200160002060009054906101000a900460ff16610346576040517f08c379a000000000000000000000000000000000000000000000000000000000815260040161033d90610d18565b60405180910390fd5b8160018190555080600260006101000a81548173ffffffffffffffffffffffffffffffffffffffff021916908373ffffffffffffffffffffffffffffffffffffffff160217905550600560009054906101000a900473ffffffffffffffffffffffffffffffffffffffff1673ffffffffffffffffffffffffffffffffffffffff166323b872dd3383856040518463ffffffff1660e01b81526004016103ed93929190610c5f565b602060405180830381600087803b15801561040757600080fd5b505af115801561041b573d6000803e3d6000fd5b505050506040513d601f19601f8201168201806040525081019061043f9190610ac0565b506007600084815260200190815260200160002060006101000a81549060ff02191690557ff182ad9fe7397171f16694d13d75cf40e23880abdbd71b6f9b99a02ea20efa9183838360405161049693929190610d53565b60405180910390a1505050565b60008060009054906101000a900473ffffffffffffffffffffffffffffffffffffffff16905090565b6000600360009054906101000a900473ffffffffffffffffffffffffffffffffffffffff1673ffffffffffffffffffffffffffffffffffffffff1663ab757d616040518163ffffffff1660e01b8152600401602060405180830381600087803b15801561053857600080fd5b505af115801561054c573d6000803e3d6000fd5b505050506040513d601f19601f820116820180604052508101906105709190610ae9565b905060016007600083815260200190815260200160002060006101000a81548160ff0219169083151502179055507f3ed150819af981e387450beb90ec379b8b322150dbb299d492b108c59a623e4b816040516105cd9190610d38565b60405180910390a150565b6000600660009054906101000a900473ffffffffffffffffffffffffffffffffffffffff16905090565b61060a610977565b73ffffffffffffffffffffffffffffffffffffffff166106286104a3565b73ffffffffffffffffffffffffffffffffffffffff161461067e576040517f08c379a000000000000000000000000000000000000000000000000000000000815260040161067590610cd8565b60405180910390fd5b80600660006101000a81548173ffffffffffffffffffffffffffffffffffffffff021916908373ffffffffffffffffffffffffffffffffffffffff16021790555080600560006101000a81548173ffffffffffffffffffffffffffffffffffffffff021916908373ffffffffffffffffffffffffffffffffffffffff16021790555050565b61070b610977565b73ffffffffffffffffffffffffffffffffffffffff166107296104a3565b73ffffffffffffffffffffffffffffffffffffffff161461077f576040517f08c379a000000000000000000000000000000000000000000000000000000000815260040161077690610cd8565b60405180910390fd5b80600460006101000a81548173ffffffffffffffffffffffffffffffffffffffff021916908373ffffffffffffffffffffffffffffffffffffffff160217905550600460009054906101000a900473ffffffffffffffffffffffffffffffffffffffff16600360006101000a81548173ffffffffffffffffffffffffffffffffffffffff021916908373ffffffffffffffffffffffffffffffffffffffff1602179055507f441e3b056b114797955165bd03bb8393fc1658a713f09225de4745a8d068bf7d600460009054906101000a900473ffffffffffffffffffffffffffffffffffffffff166040516108749190610c44565b60405180910390a150565b610887610977565b73ffffffffffffffffffffffffffffffffffffffff166108a56104a3565b73ffffffffffffffffffffffffffffffffffffffff16146108fb576040517f08c379a00000000000000000000000000000000000000000000000000000000081526004016108f290610cd8565b60405180910390fd5b600073ffffffffffffffffffffffffffffffffffffffff168173ffffffffffffffffffffffffffffffffffffffff16141561096b576040517f08c379a000000000000000000000000000000000000000000000000000000000815260040161096290610cb8565b60405180910390fd5b6109748161097f565b50565b600033905090565b60008060009054906101000a900473ffffffffffffffffffffffffffffffffffffffff169050816000806101000a81548173ffffffffffffffffffffffffffffffffffffffff021916908373ffffffffffffffffffffffffffffffffffffffff1602179055508173ffffffffffffffffffffffffffffffffffffffff168173ffffffffffffffffffffffffffffffffffffffff167f8be0079c531659141344cd1fd0a4f28419497f9722a3daafe3b4186f6b6457e060405160405180910390a35050565b600081359050610a5281610f48565b92915050565b600081519050610a6781610f5f565b92915050565b600081359050610a7c81610f76565b92915050565b600081519050610a9181610f76565b92915050565b600060208284031215610aa957600080fd5b6000610ab784828501610a43565b91505092915050565b600060208284031215610ad257600080fd5b6000610ae084828501610a58565b91505092915050565b600060208284031215610afb57600080fd5b6000610b0984828501610a82565b91505092915050565b600080600060608486031215610b2757600080fd5b6000610b3586828701610a6d565b9350506020610b4686828701610a6d565b9250506040610b5786828701610a43565b9150509250925092565b610b6a81610da6565b82525050565b6000610b7b82610d8a565b610b858185610d95565b9350610b95818560208601610dee565b610b9e81610e21565b840191505092915050565b6000610bb6602683610d95565b9150610bc182610e32565b604082019050919050565b6000610bd9602083610d95565b9150610be482610e81565b602082019050919050565b6000610bfc602d83610d95565b9150610c0782610eaa565b604082019050919050565b6000610c1f602783610d95565b9150610c2a82610ef9565b604082019050919050565b610c3e81610de4565b82525050565b6000602082019050610c596000830184610b61565b92915050565b6000606082019050610c746000830186610b61565b610c816020830185610b61565b610c8e6040830184610c35565b949350505050565b60006020820190508181036000830152610cb08184610b70565b905092915050565b60006020820190508181036000830152610cd181610ba9565b9050919050565b60006020820190508181036000830152610cf181610bcc565b9050919050565b60006020820190508181036000830152610d1181610bef565b9050919050565b60006020820190508181036000830152610d3181610c12565b9050919050565b6000602082019050610d4d6000830184610c35565b92915050565b6000606082019050610d686000830186610c35565b610d756020830185610c35565b610d826040830184610b61565b949350505050565b600081519050919050565b600082825260208201905092915050565b6000610db182610dc4565b9050919050565b60008115159050919050565b600073ffffffffffffffffffffffffffffffffffffffff82169050919050565b6000819050919050565b60005b83811015610e0c578082015181840152602081019050610df1565b83811115610e1b576000848401525b50505050565b6000601f19601f8301169050919050565b7f4f776e61626c653a206e6577206f776e657220697320746865207a65726f206160008201527f6464726573730000000000000000000000000000000000000000000000000000602082015250565b7f4f776e61626c653a2063616c6c6572206973206e6f7420746865206f776e6572600082015250565b7f596f7520617265206e6f7420617574686f72697a656420746f2063616c6c207460008201527f6869732066756e6374696f6e2e00000000000000000000000000000000000000602082015250565b7f546869732072657175657374206973206e6f7420696e206d792070656e64696e60008201527f67206c6973742e00000000000000000000000000000000000000000000000000602082015250565b610f5181610da6565b8114610f5c57600080fd5b50565b610f6881610db8565b8114610f7357600080fd5b50565b610f7f81610de4565b8114610f8a57600080fd5b5056fea264697066735822122012e08ec6f7d5049bb5ebfc6318ba5fdd75ba923a9971ff92a7706eec803fe74d64736f6c63430008040033",
  "linkReferences": {},
  "deployedLinkReferences": {}
}