{
  "_format": "hh-sol-artifact-1",
  "contractName": "OracleCaller",
  "sourceName": "contracts/oracle/OracleCaller.sol",
  "abi": [
    {
      "anonymous": false,
      "inputs": [
        {
          "indexed": false,
          "internalType": "uint256",
          "name": "id",
          "type": "uint256"
        },
        {
          "indexed": false,
          "internalType": "string",
          "name": "data",
          "type": "string"
        }
      ],
      "name": "DataUpdatedEvent",
      "type": "event"
    },
    {
      "anonymous": false,
      "inputs": [
        {
          "indexed": true,
          "internalType": "address",
          "name": "previousOwner",
          "type": "address"
        },
        {
          "indexed": true,
          "internalType": "address",
          "name": "newOwner",
          "type": "address"
        }
      ],
      "name": "OwnershipTransferred",
      "type": "event"
    },
    {
      "anonymous": false,
      "inputs": [
        {
          "indexed": false,
          "internalType": "uint256",
          "name": "id",
          "type": "uint256"
        }
      ],
      "name": "ReceivedNewRequestIdEvent",
      "type": "event"
    },
    {
      "anonymous": false,
      "inputs": [
        {
          "indexed": false,
          "internalType": "address",
          "name": "oracleAddress",
          "type": "address"
        }
      ],
      "name": "newOracleAddressEvent",
      "type": "event"
    },
    {
      "inputs": [
        {
          "internalType": "uint256",
          "name": "_id",
          "type": "uint256"
        },
        {
          "internalType": "string",
          "name": "_data",
          "type": "string"
        }
      ],
      "name": "callback",
      "outputs": [],
      "stateMutability": "nonpayable",
      "type": "function"
    },
    {
      "inputs": [],
      "name": "getData",
      "outputs": [
        {
          "internalType": "string",
          "name": "",
          "type": "string"
        }
      ],
      "stateMutability": "view",
      "type": "function"
    },
    {
      "inputs": [],
      "name": "getOracleInstanceAddress",
      "outputs": [
        {
          "internalType": "address",
          "name": "",
          "type": "address"
        }
      ],
      "stateMutability": "view",
      "type": "function"
    },
    {
      "inputs": [],
      "name": "owner",
      "outputs": [
        {
          "internalType": "address",
          "name": "",
          "type": "address"
        }
      ],
      "stateMutability": "view",
      "type": "function"
    },
    {
      "inputs": [],
      "name": "renounceOwnership",
      "outputs": [],
      "stateMutability": "nonpayable",
      "type": "function"
    },
    {
      "inputs": [
        {
          "internalType": "address",
          "name": "_oracleInstanceAddress",
          "type": "address"
        }
      ],
      "name": "setOracleInstanceAddress",
      "outputs": [],
      "stateMutability": "nonpayable",
      "type": "function"
    },
    {
      "inputs": [
        {
          "internalType": "address",
          "name": "newOwner",
          "type": "address"
        }
      ],
      "name": "transferOwnership",
      "outputs": [],
      "stateMutability": "nonpayable",
      "type": "function"
    },
    {
      "inputs": [],
      "name": "updateData",
      "outputs": [],
      "stateMutability": "nonpayable",
      "type": "function"
    }
  ],
  "bytecode": "0x608060405234801561001057600080fd5b5061002d61002261003260201b60201c565b61003a60201b60201c565b6100fe565b600033905090565b60008060009054906101000a900473ffffffffffffffffffffffffffffffffffffffff169050816000806101000a81548173ffffffffffffffffffffffffffffffffffffffff021916908373ffffffffffffffffffffffffffffffffffffffff1602179055508173ffffffffffffffffffffffffffffffffffffffff168173ffffffffffffffffffffffffffffffffffffffff167f8be0079c531659141344cd1fd0a4f28419497f9722a3daafe3b4186f6b6457e060405160405180910390a35050565b610ee38061010d6000396000f3fe608060405234801561001057600080fd5b50600436106100885760003560e01c80638e00a2bb1161005b5780638e00a2bb146100f1578063b69a375d146100fb578063e9e17a9e14610117578063f2fde38b1461013357610088565b80633bc5de301461008d57806342e16db9146100ab578063715018a6146100c95780638da5cb5b146100d3575b600080fd5b61009561014f565b6040516100a29190610b6e565b60405180910390f35b6100b36101e1565b6040516100c09190610b53565b60405180910390f35b6100d161020b565b005b6100db610293565b6040516100e89190610b53565b60405180910390f35b6100f96102bc565b005b610115600480360381019061011091906109eb565b6103c8565b005b610131600480360381019061012c9190610999565b61052d565b005b61014d60048036038101906101489190610999565b6106a9565b005b60606001805461015e90610cf7565b80601f016020809104026020016040519081016040528092919081815260200182805461018a90610cf7565b80156101d75780601f106101ac576101008083540402835291602001916101d7565b820191906000526020600020905b8154815290600101906020018083116101ba57829003601f168201915b5050505050905090565b6000600360009054906101000a900473ffffffffffffffffffffffffffffffffffffffff16905090565b6102136107a1565b73ffffffffffffffffffffffffffffffffffffffff16610231610293565b73ffffffffffffffffffffffffffffffffffffffff1614610287576040517f08c379a000000000000000000000000000000000000000000000000000000000815260040161027e90610bb0565b60405180910390fd5b61029160006107a9565b565b60008060009054906101000a900473ffffffffffffffffffffffffffffffffffffffff16905090565b6000600260009054906101000a900473ffffffffffffffffffffffffffffffffffffffff1673ffffffffffffffffffffffffffffffffffffffff1663ab757d616040518163ffffffff1660e01b8152600401602060405180830381600087803b15801561032857600080fd5b505af115801561033c573d6000803e3d6000fd5b505050506040513d601f19601f8201168201806040525081019061036091906109c2565b905060016004600083815260200190815260200160002060006101000a81548160ff0219169083151502179055507f3ed150819af981e387450beb90ec379b8b322150dbb299d492b108c59a623e4b816040516103bd9190610c10565b60405180910390a150565b600360009054906101000a900473ffffffffffffffffffffffffffffffffffffffff1673ffffffffffffffffffffffffffffffffffffffff163373ffffffffffffffffffffffffffffffffffffffff1614610458576040517f08c379a000000000000000000000000000000000000000000000000000000000815260040161044f90610bd0565b60405180910390fd5b6004600084815260200190815260200160002060009054906101000a900460ff166104b8576040517f08c379a00000000000000000000000000000000000000000000000000000000081526004016104af90610bf0565b60405180910390fd5b8181600191906104c992919061086d565b506004600084815260200190815260200160002060006101000a81549060ff02191690557ffd0478ca7c0e489d6b1d5de21781ea8bbadc6e71c0e16190510a822dc046396083838360405161052093929190610c2b565b60405180910390a1505050565b6105356107a1565b73ffffffffffffffffffffffffffffffffffffffff16610553610293565b73ffffffffffffffffffffffffffffffffffffffff16146105a9576040517f08c379a00000000000000000000000000000000000000000000000000000000081526004016105a090610bb0565b60405180910390fd5b80600360006101000a81548173ffffffffffffffffffffffffffffffffffffffff021916908373ffffffffffffffffffffffffffffffffffffffff160217905550600360009054906101000a900473ffffffffffffffffffffffffffffffffffffffff16600260006101000a81548173ffffffffffffffffffffffffffffffffffffffff021916908373ffffffffffffffffffffffffffffffffffffffff1602179055507f441e3b056b114797955165bd03bb8393fc1658a713f09225de4745a8d068bf7d600360009054906101000a900473ffffffffffffffffffffffffffffffffffffffff1660405161069e9190610b53565b60405180910390a150565b6106b16107a1565b73ffffffffffffffffffffffffffffffffffffffff166106cf610293565b73ffffffffffffffffffffffffffffffffffffffff1614610725576040517f08c379a000000000000000000000000000000000000000000000000000000000815260040161071c90610bb0565b60405180910390fd5b600073ffffffffffffffffffffffffffffffffffffffff168173ffffffffffffffffffffffffffffffffffffffff161415610795576040517f08c379a000000000000000000000000000000000000000000000000000000000815260040161078c90610b90565b60405180910390fd5b61079e816107a9565b50565b600033905090565b60008060009054906101000a900473ffffffffffffffffffffffffffffffffffffffff169050816000806101000a81548173ffffffffffffffffffffffffffffffffffffffff021916908373ffffffffffffffffffffffffffffffffffffffff1602179055508173ffffffffffffffffffffffffffffffffffffffff168173ffffffffffffffffffffffffffffffffffffffff167f8be0079c531659141344cd1fd0a4f28419497f9722a3daafe3b4186f6b6457e060405160405180910390a35050565b82805461087990610cf7565b90600052602060002090601f01602090048101928261089b57600085556108e2565b82601f106108b457803560ff19168380011785556108e2565b828001600101855582156108e2579182015b828111156108e15782358255916020019190600101906108c6565b5b5090506108ef91906108f3565b5090565b5b8082111561090c5760008160009055506001016108f4565b5090565b60008135905061091f81610e7f565b92915050565b60008083601f84011261093757600080fd5b8235905067ffffffffffffffff81111561095057600080fd5b60208301915083600182028301111561096857600080fd5b9250929050565b60008135905061097e81610e96565b92915050565b60008151905061099381610e96565b92915050565b6000602082840312156109ab57600080fd5b60006109b984828501610910565b91505092915050565b6000602082840312156109d457600080fd5b60006109e284828501610984565b91505092915050565b600080600060408486031215610a0057600080fd5b6000610a0e8682870161096f565b935050602084013567ffffffffffffffff811115610a2b57600080fd5b610a3786828701610925565b92509250509250925092565b610a4c81610c79565b82525050565b6000610a5e8385610c68565b9350610a6b838584610cb5565b610a7483610d58565b840190509392505050565b6000610a8a82610c5d565b610a948185610c68565b9350610aa4818560208601610cc4565b610aad81610d58565b840191505092915050565b6000610ac5602683610c68565b9150610ad082610d69565b604082019050919050565b6000610ae8602083610c68565b9150610af382610db8565b602082019050919050565b6000610b0b602d83610c68565b9150610b1682610de1565b604082019050919050565b6000610b2e602783610c68565b9150610b3982610e30565b604082019050919050565b610b4d81610cab565b82525050565b6000602082019050610b686000830184610a43565b92915050565b60006020820190508181036000830152610b888184610a7f565b905092915050565b60006020820190508181036000830152610ba981610ab8565b9050919050565b60006020820190508181036000830152610bc981610adb565b9050919050565b60006020820190508181036000830152610be981610afe565b9050919050565b60006020820190508181036000830152610c0981610b21565b9050919050565b6000602082019050610c256000830184610b44565b92915050565b6000604082019050610c406000830186610b44565b8181036020830152610c53818486610a52565b9050949350505050565b600081519050919050565b600082825260208201905092915050565b6000610c8482610c8b565b9050919050565b600073ffffffffffffffffffffffffffffffffffffffff82169050919050565b6000819050919050565b82818337600083830152505050565b60005b83811015610ce2578082015181840152602081019050610cc7565b83811115610cf1576000848401525b50505050565b60006002820490506001821680610d0f57607f821691505b60208210811415610d2357610d22610d29565b5b50919050565b7f4e487b7100000000000000000000000000000000000000000000000000000000600052602260045260246000fd5b6000601f19601f8301169050919050565b7f4f776e61626c653a206e6577206f776e657220697320746865207a65726f206160008201527f6464726573730000000000000000000000000000000000000000000000000000602082015250565b7f4f776e61626c653a2063616c6c6572206973206e6f7420746865206f776e6572600082015250565b7f596f7520617265206e6f7420617574686f72697a656420746f2063616c6c207460008201527f6869732066756e6374696f6e2e00000000000000000000000000000000000000602082015250565b7f546869732072657175657374206973206e6f7420696e206d792070656e64696e60008201527f67206c6973742e00000000000000000000000000000000000000000000000000602082015250565b610e8881610c79565b8114610e9357600080fd5b50565b610e9f81610cab565b8114610eaa57600080fd5b5056fea2646970667358221220e3c9a8668e29c476f2dc91906de585ccc44fbf25fe5d6492261828f14bb84f3464736f6c63430008040033",
  "linkReferences": {},
  "deployedLinkReferences": {}
}