{
  "_format": "hh-sol-artifact-1",
  "contractName": "OracleCaller",
  "sourceName": "contracts/oracle/OracleCaller.sol",
  "abi": [
    {
      "anonymous": false,
      "inputs": [
        {
          "indexed": false,
          "internalType": "uint256",
          "name": "id",
          "type": "uint256"
        },
        {
          "indexed": false,
          "internalType": "uint256",
          "name": "tokens",
          "type": "uint256"
        },
        {
          "indexed": false,
          "internalType": "address",
          "name": "employeeAddress",
          "type": "address"
        }
      ],
      "name": "DataUpdatedEvent",
      "type": "event"
    },
    {
      "anonymous": false,
      "inputs": [
        {
          "indexed": true,
          "internalType": "address",
          "name": "previousOwner",
          "type": "address"
        },
        {
          "indexed": true,
          "internalType": "address",
          "name": "newOwner",
          "type": "address"
        }
      ],
      "name": "OwnershipTransferred",
      "type": "event"
    },
    {
      "anonymous": false,
      "inputs": [
        {
          "indexed": false,
          "internalType": "uint256",
          "name": "id",
          "type": "uint256"
        }
      ],
      "name": "ReceivedNewRequestIdEvent",
      "type": "event"
    },
    {
      "anonymous": false,
      "inputs": [
        {
          "indexed": false,
          "internalType": "address",
          "name": "oracleAddress",
          "type": "address"
        }
      ],
      "name": "newOracleAddressEvent",
      "type": "event"
    },
    {
      "inputs": [
        {
          "internalType": "address",
          "name": "_owner",
          "type": "address"
        },
        {
          "internalType": "uint256",
          "name": "_id",
          "type": "uint256"
        },
        {
          "internalType": "uint256",
          "name": "_tokens",
          "type": "uint256"
        },
        {
          "internalType": "address",
          "name": "_employeeAddress",
          "type": "address"
        },
        {
          "internalType": "bool",
          "name": "_lastOne",
          "type": "bool"
        }
      ],
      "name": "callback",
      "outputs": [],
      "stateMutability": "nonpayable",
      "type": "function"
    },
    {
      "inputs": [],
      "name": "getData",
      "outputs": [
        {
          "internalType": "string",
          "name": "",
          "type": "string"
        }
      ],
      "stateMutability": "view",
      "type": "function"
    },
    {
      "inputs": [],
      "name": "getHealthyTokenInstanceAddress",
      "outputs": [
        {
          "internalType": "address",
          "name": "",
          "type": "address"
        }
      ],
      "stateMutability": "view",
      "type": "function"
    },
    {
      "inputs": [],
      "name": "getOracleInstanceAddress",
      "outputs": [
        {
          "internalType": "address",
          "name": "",
          "type": "address"
        }
      ],
      "stateMutability": "view",
      "type": "function"
    },
    {
      "inputs": [],
      "name": "owner",
      "outputs": [
        {
          "internalType": "address",
          "name": "",
          "type": "address"
        }
      ],
      "stateMutability": "view",
      "type": "function"
    },
    {
      "inputs": [],
      "name": "renounceOwnership",
      "outputs": [],
      "stateMutability": "nonpayable",
      "type": "function"
    },
    {
      "inputs": [
        {
          "internalType": "address",
          "name": "_healthyToken",
          "type": "address"
        }
      ],
      "name": "setHealthyTokenInstanceAddress",
      "outputs": [],
      "stateMutability": "nonpayable",
      "type": "function"
    },
    {
      "inputs": [
        {
          "internalType": "address",
          "name": "_oracleInstanceAddress",
          "type": "address"
        }
      ],
      "name": "setOracleInstanceAddress",
      "outputs": [],
      "stateMutability": "nonpayable",
      "type": "function"
    },
    {
      "inputs": [
        {
          "internalType": "address",
          "name": "newOwner",
          "type": "address"
        }
      ],
      "name": "transferOwnership",
      "outputs": [],
      "stateMutability": "nonpayable",
      "type": "function"
    },
    {
      "inputs": [],
      "name": "updateData",
      "outputs": [],
      "stateMutability": "nonpayable",
      "type": "function"
    }
  ],
  "bytecode": "0x608060405234801561001057600080fd5b5061002d61002261003260201b60201c565b61003a60201b60201c565b6100fe565b600033905090565b60008060009054906101000a900473ffffffffffffffffffffffffffffffffffffffff169050816000806101000a81548173ffffffffffffffffffffffffffffffffffffffff021916908373ffffffffffffffffffffffffffffffffffffffff1602179055508173ffffffffffffffffffffffffffffffffffffffff168173ffffffffffffffffffffffffffffffffffffffff167f8be0079c531659141344cd1fd0a4f28419497f9722a3daafe3b4186f6b6457e060405160405180910390a35050565b6110098061010d6000396000f3fe608060405234801561001057600080fd5b506004361061009e5760003560e01c80638e00a2bb116100665780638e00a2bb14610123578063a510553f1461012d578063e97e4b1e1461014b578063e9e17a9e14610167578063f2fde38b146101835761009e565b8063137f882e146100a35780633bc5de30146100bf57806342e16db9146100dd578063715018a6146100fb5780638da5cb5b14610105575b600080fd5b6100bd60048036038101906100b89190610ade565b61019f565b005b6100c76103f5565b6040516100d49190610cdc565b60405180910390f35b6100e56103fa565b6040516100f29190610c8a565b60405180910390f35b610103610424565b005b61010d6104ac565b60405161011a9190610c8a565b60405180910390f35b61012b6104d5565b005b6101356105e1565b6040516101429190610c8a565b60405180910390f35b61016560048036038101906101609190610ab5565b61060b565b005b610181600480360381019061017c9190610ab5565b61070c565b005b61019d60048036038101906101989190610ab5565b610888565b005b600460009054906101000a900473ffffffffffffffffffffffffffffffffffffffff1673ffffffffffffffffffffffffffffffffffffffff163373ffffffffffffffffffffffffffffffffffffffff161461022f576040517f08c379a000000000000000000000000000000000000000000000000000000000815260040161022690610d3e565b60405180910390fd5b6007600085815260200190815260200160002060009054906101000a900460ff1661028f576040517f08c379a000000000000000000000000000000000000000000000000000000000815260040161028690610d5e565b60405180910390fd5b8260018190555081600260006101000a81548173ffffffffffffffffffffffffffffffffffffffff021916908373ffffffffffffffffffffffffffffffffffffffff160217905550600560009054906101000a900473ffffffffffffffffffffffffffffffffffffffff1673ffffffffffffffffffffffffffffffffffffffff166323b872dd8684866040518463ffffffff1660e01b815260040161033693929190610ca5565b602060405180830381600087803b15801561035057600080fd5b505af1158015610364573d6000803e3d6000fd5b505050506040513d601f19601f820116820180604052508101906103889190610b55565b5080156103b3576007600085815260200190815260200160002060006101000a81549060ff02191690555b7ff182ad9fe7397171f16694d13d75cf40e23880abdbd71b6f9b99a02ea20efa918484846040516103e693929190610d99565b60405180910390a15050505050565b606090565b6000600460009054906101000a900473ffffffffffffffffffffffffffffffffffffffff16905090565b61042c610980565b73ffffffffffffffffffffffffffffffffffffffff1661044a6104ac565b73ffffffffffffffffffffffffffffffffffffffff16146104a0576040517f08c379a000000000000000000000000000000000000000000000000000000000815260040161049790610d1e565b60405180910390fd5b6104aa6000610988565b565b60008060009054906101000a900473ffffffffffffffffffffffffffffffffffffffff16905090565b6000600360009054906101000a900473ffffffffffffffffffffffffffffffffffffffff1673ffffffffffffffffffffffffffffffffffffffff1663ab757d616040518163ffffffff1660e01b8152600401602060405180830381600087803b15801561054157600080fd5b505af1158015610555573d6000803e3d6000fd5b505050506040513d601f19601f820116820180604052508101906105799190610b7e565b905060016007600083815260200190815260200160002060006101000a81548160ff0219169083151502179055507f3ed150819af981e387450beb90ec379b8b322150dbb299d492b108c59a623e4b816040516105d69190610d7e565b60405180910390a150565b6000600660009054906101000a900473ffffffffffffffffffffffffffffffffffffffff16905090565b610613610980565b73ffffffffffffffffffffffffffffffffffffffff166106316104ac565b73ffffffffffffffffffffffffffffffffffffffff1614610687576040517f08c379a000000000000000000000000000000000000000000000000000000000815260040161067e90610d1e565b60405180910390fd5b80600660006101000a81548173ffffffffffffffffffffffffffffffffffffffff021916908373ffffffffffffffffffffffffffffffffffffffff16021790555080600560006101000a81548173ffffffffffffffffffffffffffffffffffffffff021916908373ffffffffffffffffffffffffffffffffffffffff16021790555050565b610714610980565b73ffffffffffffffffffffffffffffffffffffffff166107326104ac565b73ffffffffffffffffffffffffffffffffffffffff1614610788576040517f08c379a000000000000000000000000000000000000000000000000000000000815260040161077f90610d1e565b60405180910390fd5b80600460006101000a81548173ffffffffffffffffffffffffffffffffffffffff021916908373ffffffffffffffffffffffffffffffffffffffff160217905550600460009054906101000a900473ffffffffffffffffffffffffffffffffffffffff16600360006101000a81548173ffffffffffffffffffffffffffffffffffffffff021916908373ffffffffffffffffffffffffffffffffffffffff1602179055507f441e3b056b114797955165bd03bb8393fc1658a713f09225de4745a8d068bf7d600460009054906101000a900473ffffffffffffffffffffffffffffffffffffffff1660405161087d9190610c8a565b60405180910390a150565b610890610980565b73ffffffffffffffffffffffffffffffffffffffff166108ae6104ac565b73ffffffffffffffffffffffffffffffffffffffff1614610904576040517f08c379a00000000000000000000000000000000000000000000000000000000081526004016108fb90610d1e565b60405180910390fd5b600073ffffffffffffffffffffffffffffffffffffffff168173ffffffffffffffffffffffffffffffffffffffff161415610974576040517f08c379a000000000000000000000000000000000000000000000000000000000815260040161096b90610cfe565b60405180910390fd5b61097d81610988565b50565b600033905090565b60008060009054906101000a900473ffffffffffffffffffffffffffffffffffffffff169050816000806101000a81548173ffffffffffffffffffffffffffffffffffffffff021916908373ffffffffffffffffffffffffffffffffffffffff1602179055508173ffffffffffffffffffffffffffffffffffffffff168173ffffffffffffffffffffffffffffffffffffffff167f8be0079c531659141344cd1fd0a4f28419497f9722a3daafe3b4186f6b6457e060405160405180910390a35050565b600081359050610a5b81610f8e565b92915050565b600081359050610a7081610fa5565b92915050565b600081519050610a8581610fa5565b92915050565b600081359050610a9a81610fbc565b92915050565b600081519050610aaf81610fbc565b92915050565b600060208284031215610ac757600080fd5b6000610ad584828501610a4c565b91505092915050565b600080600080600060a08688031215610af657600080fd5b6000610b0488828901610a4c565b9550506020610b1588828901610a8b565b9450506040610b2688828901610a8b565b9350506060610b3788828901610a4c565b9250506080610b4888828901610a61565b9150509295509295909350565b600060208284031215610b6757600080fd5b6000610b7584828501610a76565b91505092915050565b600060208284031215610b9057600080fd5b6000610b9e84828501610aa0565b91505092915050565b610bb081610dec565b82525050565b6000610bc182610dd0565b610bcb8185610ddb565b9350610bdb818560208601610e34565b610be481610e67565b840191505092915050565b6000610bfc602683610ddb565b9150610c0782610e78565b604082019050919050565b6000610c1f602083610ddb565b9150610c2a82610ec7565b602082019050919050565b6000610c42602d83610ddb565b9150610c4d82610ef0565b604082019050919050565b6000610c65602783610ddb565b9150610c7082610f3f565b604082019050919050565b610c8481610e2a565b82525050565b6000602082019050610c9f6000830184610ba7565b92915050565b6000606082019050610cba6000830186610ba7565b610cc76020830185610ba7565b610cd46040830184610c7b565b949350505050565b60006020820190508181036000830152610cf68184610bb6565b905092915050565b60006020820190508181036000830152610d1781610bef565b9050919050565b60006020820190508181036000830152610d3781610c12565b9050919050565b60006020820190508181036000830152610d5781610c35565b9050919050565b60006020820190508181036000830152610d7781610c58565b9050919050565b6000602082019050610d936000830184610c7b565b92915050565b6000606082019050610dae6000830186610c7b565b610dbb6020830185610c7b565b610dc86040830184610ba7565b949350505050565b600081519050919050565b600082825260208201905092915050565b6000610df782610e0a565b9050919050565b60008115159050919050565b600073ffffffffffffffffffffffffffffffffffffffff82169050919050565b6000819050919050565b60005b83811015610e52578082015181840152602081019050610e37565b83811115610e61576000848401525b50505050565b6000601f19601f8301169050919050565b7f4f776e61626c653a206e6577206f776e657220697320746865207a65726f206160008201527f6464726573730000000000000000000000000000000000000000000000000000602082015250565b7f4f776e61626c653a2063616c6c6572206973206e6f7420746865206f776e6572600082015250565b7f596f7520617265206e6f7420617574686f72697a656420746f2063616c6c207460008201527f6869732066756e6374696f6e2e00000000000000000000000000000000000000602082015250565b7f546869732072657175657374206973206e6f7420696e206d792070656e64696e60008201527f67206c6973742e00000000000000000000000000000000000000000000000000602082015250565b610f9781610dec565b8114610fa257600080fd5b50565b610fae81610dfe565b8114610fb957600080fd5b50565b610fc581610e2a565b8114610fd057600080fd5b5056fea2646970667358221220031564ae575783e3de1201cc8c7b4166dc746df7585f953154d7b4940d770c1064736f6c63430008040033",
  "linkReferences": {},
  "deployedLinkReferences": {}
}