{
  "_format": "hh-sol-artifact-1",
  "contractName": "ERC1400TokensChecker",
  "sourceName": "contracts/ERC1400/extensions/tokenExtensions/ERC1400TokensChecker.sol",
  "abi": [
    {
      "inputs": [],
      "stateMutability": "nonpayable",
      "type": "constructor"
    },
    {
      "inputs": [
        {
          "internalType": "bytes32",
          "name": "interfaceHash",
          "type": "bytes32"
        },
        {
          "internalType": "address",
          "name": "",
          "type": "address"
        }
      ],
      "name": "canImplementInterfaceForAddress",
      "outputs": [
        {
          "internalType": "bytes32",
          "name": "",
          "type": "bytes32"
        }
      ],
      "stateMutability": "view",
      "type": "function"
    },
    {
      "inputs": [
        {
          "internalType": "bytes",
          "name": "payload",
          "type": "bytes"
        },
        {
          "internalType": "bytes32",
          "name": "partition",
          "type": "bytes32"
        },
        {
          "internalType": "address",
          "name": "operator",
          "type": "address"
        },
        {
          "internalType": "address",
          "name": "from",
          "type": "address"
        },
        {
          "internalType": "address",
          "name": "to",
          "type": "address"
        },
        {
          "internalType": "uint256",
          "name": "value",
          "type": "uint256"
        },
        {
          "internalType": "bytes",
          "name": "data",
          "type": "bytes"
        },
        {
          "internalType": "bytes",
          "name": "operatorData",
          "type": "bytes"
        }
      ],
      "name": "canTransferByPartition",
      "outputs": [
        {
          "internalType": "bytes1",
          "name": "",
          "type": "bytes1"
        },
        {
          "internalType": "bytes32",
          "name": "",
          "type": "bytes32"
        },
        {
          "internalType": "bytes32",
          "name": "",
          "type": "bytes32"
        }
      ],
      "stateMutability": "view",
      "type": "function"
    }
  ],
  "bytecode": "0x608060405234801561001057600080fd5b506100596040518060400160405280601481526020017f45524331343030546f6b656e73436865636b657200000000000000000000000081525061005e60201b6101bd1760201c565b6100e4565b60016000808360405160200161007491906100ab565b60408051808303601f19018152918152815160209283012083529082019290925201600020805460ff191691151591909117905550565b60008251815b818110156100cb57602081860181015185830152016100b1565b818111156100d95782828501525b509190910192915050565b610d40806100f36000396000f3fe608060405234801561001057600080fd5b50600436106100365760003560e01c8063249cb3fa1461003b578063c71ff52714610064575b600080fd5b61004e610049366004610913565b610086565b60405161005b9190610afd565b60405180910390f35b610077610072366004610942565b6100d3565b60405161005b93929190610adb565b60008281526020819052604081205460ff16156100c9576040516020016100ac90610a8e565b6040516020818303038152906040528051906020012090506100cd565b5060005b92915050565b60008060006101a68e8e8080601f016020809104026020016040519081016040528093929190818152602001838380828437600081840152601f19601f820116905080830192505050505050508d8d8d8d8d8d8d8080601f016020809104026020016040519081016040528093929190818152602001838380828437600081840152601f19601f820116905080830192505050505050508c8c8080601f01602080910402602001604051908101604052809392919081815260200183838082843760009201919091525061020a92505050565b9250925092509b509b509b98505050505050505050565b6001600080836040516020016101d39190610a72565b60408051808303601f19018152918152815160209283012083529082019290925201600020805460ff191691151591909117905550565b6040516336bbe56b60e11b8152600090819081903390636d77cad690610238908d908d908d90600401610b1d565b60206040518083038186803b15801561025057600080fd5b505afa158015610264573d6000803e3d6000fd5b505050506040513d601f19601f8201168201806040525081019061028891906108f3565b61029e5750600b60fb1b91506000905088610796565b6040516370a0823160e01b8152869033906370a08231906102c3908c90600401610aae565b60206040518083038186803b1580156102db57600080fd5b505afa1580156102ef573d6000803e3d6000fd5b505050506040513d601f19601f820116820180604052508101906103139190610a21565b108061039357506040516330e8280360e01b8152869033906330e8280390610341908e908d90600401610b06565b60206040518083038186803b15801561035957600080fd5b505afa15801561036d573d6000803e3d6000fd5b505050506040513d601f19601f820116820180604052508101906103919190610a21565b105b156103aa5750602960f91b91506000905088610796565b6001600160a01b0387166103ca5750605760f81b91506000905088610796565b6000610401896040518060400160405280601381526020017222a921989a18182a37b5b2b739a9b2b73232b960691b8152506107a4565b90506001600160a01b038116158015906104a25750604051637451263560e11b81526001600160a01b0382169063e8a24c6a90610450908f908f908f908f908f908f908f908f90600401610b3c565b60206040518083038186803b15801561046857600080fd5b505afa15801561047c573d6000803e3d6000fd5b505050506040513d601f19601f820116820180604052508101906104a091906108f3565b155b156104bb5750602b60f91b925060009150899050610796565b6104f38860405180604001604052806016815260200175115490cc4d0c0c151bdad95b9cd49958da5c1a595b9d60521b8152506107a4565b90506001600160a01b03811615801590610594575060405163f55886df60e01b81526001600160a01b0382169063f55886df90610542908f908f908f908f908f908f908f908f90600401610b3c565b60206040518083038186803b15801561055a57600080fd5b505afa15801561056e573d6000803e3d6000fd5b505050506040513d601f19601f8201168201806040525081019061059291906108f3565b155b156105ad5750605760f81b925060009150899050610796565b6105e5336040518060400160405280601681526020017522a921989a18182a37b5b2b739ab30b634b230ba37b960511b8152506107a4565b6040805161012081018252338152602081018f90529081018d90526001600160a01b038c811660608301528b811660808301528a811660a083015260c082018a905260e082018990526101008201889052919250908216158015906106c357506040516398a53ef560e01b81526001600160a01b038316906398a53ef590610671908490600401610bb4565b60206040518083038186803b15801561068957600080fd5b505afa15801561069d573d6000803e3d6000fd5b505050506040513d601f19601f820116820180604052508101906106c191906108f3565b155b156106de5750601560fa1b9350600092508a91506107969050565b6000336001600160a01b031663556f0dc76040518163ffffffff1660e01b815260040160206040518083038186803b15801561071957600080fd5b505afa15801561072d573d6000803e3d6000fd5b505050506040513d601f19601f820116820180604052508101906107519190610a21565b905088610768826107628382610861565b90610874565b146107845750600560fc1b9450600093508b9250610796915050565b50605160f81b9450600093508b925050505b985098509895505050505050565b600080826040516020016107b89190610a72565b60408051601f1981840301815290829052805160209091012063555ddc6560e11b82529150731820a4b7618bde71dce8cdc73aab6c95905fad249063aabbb8ca906108099087908590600401610ac2565b60206040518083038186803b15801561082157600080fd5b505afa158015610835573d6000803e3d6000fd5b505050506040513d601f19601f8201168201806040525081019061085991906108d7565b949350505050565b600061086d8284610c77565b9392505050565b600061086d8284610c97565b803561088b81610cf2565b919050565b60008083601f8401126108a1578182fd5b50813567ffffffffffffffff8111156108b8578182fd5b6020830191508360208285010111156108d057600080fd5b9250929050565b6000602082840312156108e8578081fd5b815161086d81610cf2565b600060208284031215610904578081fd5b8151801515811461086d578182fd5b60008060408385031215610925578081fd5b82359150602083013561093781610cf2565b809150509250929050565b60008060008060008060008060008060006101008c8e031215610963578687fd5b67ffffffffffffffff808d351115610979578788fd5b6109868e8e358f01610890565b909c509a5060208d0135995061099e60408e01610880565b98506109ac60608e01610880565b97506109ba60808e01610880565b965060a08d013595508060c08e013511156109d3578485fd5b6109e38e60c08f01358f01610890565b909550935060e08d01358110156109f8578283fd5b50610a098d60e08e01358e01610890565b81935080925050509295989b509295989b9093969950565b600060208284031215610a32578081fd5b5051919050565b6001600160a01b03169052565b60008151808452610a5e816020860160208601610cc2565b601f01601f19169290920160200192915050565b60008251610a84818460208701610cc2565b9190910192915050565b73455243313832305f4143434550545f4d4147494360601b815260140190565b6001600160a01b0391909116815260200190565b6001600160a01b03929092168252602082015260400190565b6001600160f81b03199390931683526020830191909152604082015260600190565b90815260200190565b9182526001600160a01b0316602082015260400190565b9283526001600160a01b03918216602084015216604082015260600190565b6000610100808352610b508184018c610a46565b602084018b90526001600160a01b038a8116604086015289811660608601528816608085015260a0840187905283810360c08501529050610b918186610a46565b905082810360e0840152610ba58185610a46565b9b9a5050505050505050505050565b600060208252610bc8602083018451610a39565b6020830151610120806040850152610be4610140850183610a46565b9150604085015160608501526060850151610c026080860182610a39565b506080850151610c1560a0860182610a39565b5060a0850151610c2860c0860182610a39565b5060c085015160e085015260e0850151601f19610100818786030181880152610c518584610a46565b908801518782039092018488015293509050610c6d8382610a46565b9695505050505050565b600082610c9257634e487b7160e01b81526012600452602481fd5b500490565b6000816000190483118215151615610cbd57634e487b7160e01b81526011600452602481fd5b500290565b60005b83811015610cdd578181015183820152602001610cc5565b83811115610cec576000848401525b50505050565b6001600160a01b0381168114610d0757600080fd5b5056fea2646970667358221220659727a855cb5f9130254c12c0836895ed4643891b9ab59637ac109ad0e7338b64736f6c63430008000033",
  "linkReferences": {},
  "deployedLinkReferences": {}
}