{
  "_format": "hh-sol-artifact-1",
  "contractName": "BlocklistMock",
  "sourceName": "contracts/ERC1400/mocks/BlocklistMock.sol",
  "abi": [
    {
      "inputs": [
        {
          "internalType": "address",
          "name": "token",
          "type": "address"
        }
      ],
      "stateMutability": "nonpayable",
      "type": "constructor"
    },
    {
      "anonymous": false,
      "inputs": [
        {
          "indexed": true,
          "internalType": "address",
          "name": "token",
          "type": "address"
        },
        {
          "indexed": true,
          "internalType": "address",
          "name": "account",
          "type": "address"
        }
      ],
      "name": "BlocklistAdminAdded",
      "type": "event"
    },
    {
      "anonymous": false,
      "inputs": [
        {
          "indexed": true,
          "internalType": "address",
          "name": "token",
          "type": "address"
        },
        {
          "indexed": true,
          "internalType": "address",
          "name": "account",
          "type": "address"
        }
      ],
      "name": "BlocklistAdminRemoved",
      "type": "event"
    },
    {
      "anonymous": false,
      "inputs": [
        {
          "indexed": true,
          "internalType": "address",
          "name": "token",
          "type": "address"
        },
        {
          "indexed": true,
          "internalType": "address",
          "name": "account",
          "type": "address"
        }
      ],
      "name": "BlocklistedAdded",
      "type": "event"
    },
    {
      "anonymous": false,
      "inputs": [
        {
          "indexed": true,
          "internalType": "address",
          "name": "token",
          "type": "address"
        },
        {
          "indexed": true,
          "internalType": "address",
          "name": "account",
          "type": "address"
        }
      ],
      "name": "BlocklistedRemoved",
      "type": "event"
    },
    {
      "inputs": [
        {
          "internalType": "address",
          "name": "token",
          "type": "address"
        },
        {
          "internalType": "address",
          "name": "account",
          "type": "address"
        }
      ],
      "name": "addBlocklistAdmin",
      "outputs": [],
      "stateMutability": "nonpayable",
      "type": "function"
    },
    {
      "inputs": [
        {
          "internalType": "address",
          "name": "token",
          "type": "address"
        },
        {
          "internalType": "address",
          "name": "account",
          "type": "address"
        }
      ],
      "name": "addBlocklisted",
      "outputs": [],
      "stateMutability": "nonpayable",
      "type": "function"
    },
    {
      "inputs": [
        {
          "internalType": "address",
          "name": "token",
          "type": "address"
        },
        {
          "internalType": "address",
          "name": "account",
          "type": "address"
        }
      ],
      "name": "isBlocklistAdmin",
      "outputs": [
        {
          "internalType": "bool",
          "name": "",
          "type": "bool"
        }
      ],
      "stateMutability": "view",
      "type": "function"
    },
    {
      "inputs": [
        {
          "internalType": "address",
          "name": "token",
          "type": "address"
        },
        {
          "internalType": "address",
          "name": "account",
          "type": "address"
        }
      ],
      "name": "isBlocklisted",
      "outputs": [
        {
          "internalType": "bool",
          "name": "",
          "type": "bool"
        }
      ],
      "stateMutability": "view",
      "type": "function"
    },
    {
      "inputs": [
        {
          "internalType": "address",
          "name": "token",
          "type": "address"
        },
        {
          "internalType": "bool",
          "name": "mockActivated",
          "type": "bool"
        }
      ],
      "name": "mockFunction",
      "outputs": [],
      "stateMutability": "nonpayable",
      "type": "function"
    },
    {
      "inputs": [
        {
          "internalType": "address",
          "name": "token",
          "type": "address"
        },
        {
          "internalType": "address",
          "name": "account",
          "type": "address"
        }
      ],
      "name": "removeBlocklistAdmin",
      "outputs": [],
      "stateMutability": "nonpayable",
      "type": "function"
    },
    {
      "inputs": [
        {
          "internalType": "address",
          "name": "token",
          "type": "address"
        },
        {
          "internalType": "address",
          "name": "account",
          "type": "address"
        }
      ],
      "name": "removeBlocklisted",
      "outputs": [],
      "stateMutability": "nonpayable",
      "type": "function"
    },
    {
      "inputs": [
        {
          "internalType": "address",
          "name": "token",
          "type": "address"
        }
      ],
      "name": "renounceBlocklistAdmin",
      "outputs": [],
      "stateMutability": "nonpayable",
      "type": "function"
    }
  ],
  "bytecode": "0x608060405234801561001057600080fd5b5060405161085838038061085883398101604081905261002f9161014c565b610039813361003f565b506101f3565b6001600160a01b03821660009081526020818152604090912061006b91839061023c6100af821b17901c565b806001600160a01b0316826001600160a01b03167fc52e3252244a1a2a298f7b5a9f8e964ab8737811b620a1426c0b95e3037bba9e60405160405180910390a35050565b6100b98282610104565b156100df5760405162461bcd60e51b81526004016100d69061017a565b60405180910390fd5b6001600160a01b0316600090815260209190915260409020805460ff19166001179055565b60006001600160a01b03821661012c5760405162461bcd60e51b81526004016100d6906101b1565b506001600160a01b03166000908152602091909152604090205460ff1690565b60006020828403121561015d578081fd5b81516001600160a01b0381168114610173578182fd5b9392505050565b6020808252601f908201527f526f6c65733a206163636f756e7420616c72656164792068617320726f6c6500604082015260600190565b60208082526022908201527f526f6c65733a206163636f756e7420697320746865207a65726f206164647265604082015261737360f01b606082015260800190565b610656806102026000396000f3fe608060405234801561001057600080fd5b50600436106100885760003560e01c8063a4aa023f1161005b578063a4aa023f146100f1578063c428b20214610104578063e323e67114610117578063ebf42f771461012a57610088565b80632c55b05f1461008d5780636c41d4ea146100a25780639bd483ec146100b5578063a28e7c02146100c8575b600080fd5b6100a061009b3660046104ef565b61013d565b005b6100a06100b0366004610521565b610160565b6100a06100c33660046104ef565b61018a565b6100db6100d63660046104ef565b6101a8565b6040516100e8919061055b565b60405180910390f35b6100db6100ff3660046104ef565b6101d1565b6100a06101123660046104ef565b6101f3565b6100a06101253660046104d5565b610211565b6100a06101383660046104ef565b61021e565b8161014881336101a8565b61015157600080fd5b61015b8383610291565b505050565b8161016b81336101d1565b1561017557600080fd5b506002805460ff191691151591909117905550565b8161019581336101a8565b61019e57600080fd5b61015b83836102f7565b6001600160a01b03821660009081526020819052604081206101ca908361035d565b9392505050565b6001600160a01b03821660009081526001602052604081206101ca908361035d565b816101fe81336101a8565b61020757600080fd5b61015b83836103a5565b61021b813361040b565b50565b8161022981336101a8565b61023257600080fd5b61015b838361040b565b610246828261035d565b1561026c5760405162461bcd60e51b815260040161026390610566565b60405180910390fd5b6001600160a01b0316600090815260209190915260409020805460ff19166001179055565b6001600160a01b03821660009081526001602052604090206102b3908261023c565b806001600160a01b0316826001600160a01b03167f4eef79dfdff8d6b9485c6a01d5caac6413488fc1036c03867dbf75558a3b3a3660405160405180910390a35050565b6001600160a01b03821660009081526001602052604090206103199082610471565b806001600160a01b0316826001600160a01b03167fd3e42d12ae7dae2e960401c63b158173cc9987f9ee213374eff6471eed4062e360405160405180910390a35050565b60006001600160a01b0382166103855760405162461bcd60e51b8152600401610263906105de565b506001600160a01b03166000908152602091909152604090205460ff1690565b6001600160a01b03821660009081526020819052604090206103c7908261023c565b806001600160a01b0316826001600160a01b03167fc52e3252244a1a2a298f7b5a9f8e964ab8737811b620a1426c0b95e3037bba9e60405160405180910390a35050565b6001600160a01b038216600090815260208190526040902061042d9082610471565b806001600160a01b0316826001600160a01b03167f2e4e5dc902da1dd9425aa2acf081cc51d589443784af4c3fd7d5fe60d5915cd060405160405180910390a35050565b61047b828261035d565b6104975760405162461bcd60e51b81526004016102639061059d565b6001600160a01b0316600090815260209190915260409020805460ff19169055565b80356001600160a01b03811681146104d057600080fd5b919050565b6000602082840312156104e6578081fd5b6101ca826104b9565b60008060408385031215610501578081fd5b61050a836104b9565b9150610518602084016104b9565b90509250929050565b60008060408385031215610533578182fd5b61053c836104b9565b915060208301358015158114610550578182fd5b809150509250929050565b901515815260200190565b6020808252601f908201527f526f6c65733a206163636f756e7420616c72656164792068617320726f6c6500604082015260600190565b60208082526021908201527f526f6c65733a206163636f756e7420646f6573206e6f74206861766520726f6c6040820152606560f81b606082015260800190565b60208082526022908201527f526f6c65733a206163636f756e7420697320746865207a65726f206164647265604082015261737360f01b60608201526080019056fea2646970667358221220c994cfde2d3a311ab296b5b7eac30de664294d6232b663a598cb85ed22a3a45f64736f6c63430008000033",
  "linkReferences": {},
  "deployedLinkReferences": {}
}