{
  "_format": "hh-sol-artifact-1",
  "contractName": "ERC1400HoldableToken",
  "sourceName": "contracts/ERC1400/tokens/ERC1400HoldableToken.sol",
  "abi": [
    {
      "inputs": [
        {
          "internalType": "string",
          "name": "name",
          "type": "string"
        },
        {
          "internalType": "string",
          "name": "symbol",
          "type": "string"
        },
        {
          "internalType": "uint256",
          "name": "granularity",
          "type": "uint256"
        },
        {
          "internalType": "address[]",
          "name": "controllers",
          "type": "address[]"
        },
        {
          "internalType": "bytes32[]",
          "name": "defaultPartitions",
          "type": "bytes32[]"
        },
        {
          "internalType": "address",
          "name": "extension",
          "type": "address"
        },
        {
          "internalType": "address",
          "name": "newOwner",
          "type": "address"
        }
      ],
      "stateMutability": "nonpayable",
      "type": "constructor"
    },
    {
      "anonymous": false,
      "inputs": [
        {
          "indexed": true,
          "internalType": "address",
          "name": "owner",
          "type": "address"
        },
        {
          "indexed": true,
          "internalType": "address",
          "name": "spender",
          "type": "address"
        },
        {
          "indexed": false,
          "internalType": "uint256",
          "name": "value",
          "type": "uint256"
        }
      ],
      "name": "Approval",
      "type": "event"
    },
    {
      "anonymous": false,
      "inputs": [
        {
          "indexed": true,
          "internalType": "bytes32",
          "name": "partition",
          "type": "bytes32"
        },
        {
          "indexed": true,
          "internalType": "address",
          "name": "owner",
          "type": "address"
        },
        {
          "indexed": true,
          "internalType": "address",
          "name": "spender",
          "type": "address"
        },
        {
          "indexed": false,
          "internalType": "uint256",
          "name": "value",
          "type": "uint256"
        }
      ],
      "name": "ApprovalByPartition",
      "type": "event"
    },
    {
      "anonymous": false,
      "inputs": [
        {
          "indexed": true,
          "internalType": "address",
          "name": "operator",
          "type": "address"
        },
        {
          "indexed": true,
          "internalType": "address",
          "name": "tokenHolder",
          "type": "address"
        }
      ],
      "name": "AuthorizedOperator",
      "type": "event"
    },
    {
      "anonymous": false,
      "inputs": [
        {
          "indexed": true,
          "internalType": "bytes32",
          "name": "partition",
          "type": "bytes32"
        },
        {
          "indexed": true,
          "internalType": "address",
          "name": "operator",
          "type": "address"
        },
        {
          "indexed": true,
          "internalType": "address",
          "name": "tokenHolder",
          "type": "address"
        }
      ],
      "name": "AuthorizedOperatorByPartition",
      "type": "event"
    },
    {
      "anonymous": false,
      "inputs": [
        {
          "indexed": true,
          "internalType": "bytes32",
          "name": "fromPartition",
          "type": "bytes32"
        },
        {
          "indexed": true,
          "internalType": "bytes32",
          "name": "toPartition",
          "type": "bytes32"
        },
        {
          "indexed": false,
          "internalType": "uint256",
          "name": "value",
          "type": "uint256"
        }
      ],
      "name": "ChangedPartition",
      "type": "event"
    },
    {
      "anonymous": false,
      "inputs": [
        {
          "indexed": true,
          "internalType": "bytes32",
          "name": "name",
          "type": "bytes32"
        },
        {
          "indexed": false,
          "internalType": "string",
          "name": "uri",
          "type": "string"
        },
        {
          "indexed": false,
          "internalType": "bytes32",
          "name": "documentHash",
          "type": "bytes32"
        }
      ],
      "name": "DocumentRemoved",
      "type": "event"
    },
    {
      "anonymous": false,
      "inputs": [
        {
          "indexed": true,
          "internalType": "bytes32",
          "name": "name",
          "type": "bytes32"
        },
        {
          "indexed": false,
          "internalType": "string",
          "name": "uri",
          "type": "string"
        },
        {
          "indexed": false,
          "internalType": "bytes32",
          "name": "documentHash",
          "type": "bytes32"
        }
      ],
      "name": "DocumentUpdated",
      "type": "event"
    },
    {
      "anonymous": false,
      "inputs": [
        {
          "indexed": true,
          "internalType": "address",
          "name": "operator",
          "type": "address"
        },
        {
          "indexed": true,
          "internalType": "address",
          "name": "to",
          "type": "address"
        },
        {
          "indexed": false,
          "internalType": "uint256",
          "name": "value",
          "type": "uint256"
        },
        {
          "indexed": false,
          "internalType": "bytes",
          "name": "data",
          "type": "bytes"
        }
      ],
      "name": "Issued",
      "type": "event"
    },
    {
      "anonymous": false,
      "inputs": [
        {
          "indexed": true,
          "internalType": "bytes32",
          "name": "partition",
          "type": "bytes32"
        },
        {
          "indexed": true,
          "internalType": "address",
          "name": "operator",
          "type": "address"
        },
        {
          "indexed": true,
          "internalType": "address",
          "name": "to",
          "type": "address"
        },
        {
          "indexed": false,
          "internalType": "uint256",
          "name": "value",
          "type": "uint256"
        },
        {
          "indexed": false,
          "internalType": "bytes",
          "name": "data",
          "type": "bytes"
        },
        {
          "indexed": false,
          "internalType": "bytes",
          "name": "operatorData",
          "type": "bytes"
        }
      ],
      "name": "IssuedByPartition",
      "type": "event"
    },
    {
      "anonymous": false,
      "inputs": [
        {
          "indexed": true,
          "internalType": "address",
          "name": "account",
          "type": "address"
        }
      ],
      "name": "MinterAdded",
      "type": "event"
    },
    {
      "anonymous": false,
      "inputs": [
        {
          "indexed": true,
          "internalType": "address",
          "name": "account",
          "type": "address"
        }
      ],
      "name": "MinterRemoved",
      "type": "event"
    },
    {
      "anonymous": false,
      "inputs": [
        {
          "indexed": true,
          "internalType": "address",
          "name": "previousOwner",
          "type": "address"
        },
        {
          "indexed": true,
          "internalType": "address",
          "name": "newOwner",
          "type": "address"
        }
      ],
      "name": "OwnershipTransferred",
      "type": "event"
    },
    {
      "anonymous": false,
      "inputs": [
        {
          "indexed": true,
          "internalType": "address",
          "name": "operator",
          "type": "address"
        },
        {
          "indexed": true,
          "internalType": "address",
          "name": "from",
          "type": "address"
        },
        {
          "indexed": false,
          "internalType": "uint256",
          "name": "value",
          "type": "uint256"
        },
        {
          "indexed": false,
          "internalType": "bytes",
          "name": "data",
          "type": "bytes"
        }
      ],
      "name": "Redeemed",
      "type": "event"
    },
    {
      "anonymous": false,
      "inputs": [
        {
          "indexed": true,
          "internalType": "bytes32",
          "name": "partition",
          "type": "bytes32"
        },
        {
          "indexed": true,
          "internalType": "address",
          "name": "operator",
          "type": "address"
        },
        {
          "indexed": true,
          "internalType": "address",
          "name": "from",
          "type": "address"
        },
        {
          "indexed": false,
          "internalType": "uint256",
          "name": "value",
          "type": "uint256"
        },
        {
          "indexed": false,
          "internalType": "bytes",
          "name": "operatorData",
          "type": "bytes"
        }
      ],
      "name": "RedeemedByPartition",
      "type": "event"
    },
    {
      "anonymous": false,
      "inputs": [
        {
          "indexed": true,
          "internalType": "address",
          "name": "operator",
          "type": "address"
        },
        {
          "indexed": true,
          "internalType": "address",
          "name": "tokenHolder",
          "type": "address"
        }
      ],
      "name": "RevokedOperator",
      "type": "event"
    },
    {
      "anonymous": false,
      "inputs": [
        {
          "indexed": true,
          "internalType": "bytes32",
          "name": "partition",
          "type": "bytes32"
        },
        {
          "indexed": true,
          "internalType": "address",
          "name": "operator",
          "type": "address"
        },
        {
          "indexed": true,
          "internalType": "address",
          "name": "tokenHolder",
          "type": "address"
        }
      ],
      "name": "RevokedOperatorByPartition",
      "type": "event"
    },
    {
      "anonymous": false,
      "inputs": [
        {
          "indexed": true,
          "internalType": "address",
          "name": "from",
          "type": "address"
        },
        {
          "indexed": true,
          "internalType": "address",
          "name": "to",
          "type": "address"
        },
        {
          "indexed": false,
          "internalType": "uint256",
          "name": "value",
          "type": "uint256"
        }
      ],
      "name": "Transfer",
      "type": "event"
    },
    {
      "anonymous": false,
      "inputs": [
        {
          "indexed": true,
          "internalType": "bytes32",
          "name": "fromPartition",
          "type": "bytes32"
        },
        {
          "indexed": false,
          "internalType": "address",
          "name": "operator",
          "type": "address"
        },
        {
          "indexed": true,
          "internalType": "address",
          "name": "from",
          "type": "address"
        },
        {
          "indexed": true,
          "internalType": "address",
          "name": "to",
          "type": "address"
        },
        {
          "indexed": false,
          "internalType": "uint256",
          "name": "value",
          "type": "uint256"
        },
        {
          "indexed": false,
          "internalType": "bytes",
          "name": "data",
          "type": "bytes"
        },
        {
          "indexed": false,
          "internalType": "bytes",
          "name": "operatorData",
          "type": "bytes"
        }
      ],
      "name": "TransferByPartition",
      "type": "event"
    },
    {
      "inputs": [
        {
          "internalType": "address",
          "name": "account",
          "type": "address"
        }
      ],
      "name": "addMinter",
      "outputs": [],
      "stateMutability": "nonpayable",
      "type": "function"
    },
    {
      "inputs": [
        {
          "internalType": "address",
          "name": "owner",
          "type": "address"
        },
        {
          "internalType": "address",
          "name": "spender",
          "type": "address"
        }
      ],
      "name": "allowance",
      "outputs": [
        {
          "internalType": "uint256",
          "name": "",
          "type": "uint256"
        }
      ],
      "stateMutability": "view",
      "type": "function"
    },
    {
      "inputs": [
        {
          "internalType": "bytes32",
          "name": "partition",
          "type": "bytes32"
        },
        {
          "internalType": "address",
          "name": "owner",
          "type": "address"
        },
        {
          "internalType": "address",
          "name": "spender",
          "type": "address"
        }
      ],
      "name": "allowanceByPartition",
      "outputs": [
        {
          "internalType": "uint256",
          "name": "",
          "type": "uint256"
        }
      ],
      "stateMutability": "view",
      "type": "function"
    },
    {
      "inputs": [
        {
          "internalType": "address",
          "name": "spender",
          "type": "address"
        },
        {
          "internalType": "uint256",
          "name": "value",
          "type": "uint256"
        }
      ],
      "name": "approve",
      "outputs": [
        {
          "internalType": "bool",
          "name": "",
          "type": "bool"
        }
      ],
      "stateMutability": "nonpayable",
      "type": "function"
    },
    {
      "inputs": [
        {
          "internalType": "bytes32",
          "name": "partition",
          "type": "bytes32"
        },
        {
          "internalType": "address",
          "name": "spender",
          "type": "address"
        },
        {
          "internalType": "uint256",
          "name": "value",
          "type": "uint256"
        }
      ],
      "name": "approveByPartition",
      "outputs": [
        {
          "internalType": "bool",
          "name": "",
          "type": "bool"
        }
      ],
      "stateMutability": "nonpayable",
      "type": "function"
    },
    {
      "inputs": [
        {
          "internalType": "address",
          "name": "operator",
          "type": "address"
        }
      ],
      "name": "authorizeOperator",
      "outputs": [],
      "stateMutability": "nonpayable",
      "type": "function"
    },
    {
      "inputs": [
        {
          "internalType": "bytes32",
          "name": "partition",
          "type": "bytes32"
        },
        {
          "internalType": "address",
          "name": "operator",
          "type": "address"
        }
      ],
      "name": "authorizeOperatorByPartition",
      "outputs": [],
      "stateMutability": "nonpayable",
      "type": "function"
    },
    {
      "inputs": [
        {
          "internalType": "address",
          "name": "tokenHolder",
          "type": "address"
        }
      ],
      "name": "balanceOf",
      "outputs": [
        {
          "internalType": "uint256",
          "name": "",
          "type": "uint256"
        }
      ],
      "stateMutability": "view",
      "type": "function"
    },
    {
      "inputs": [
        {
          "internalType": "bytes32",
          "name": "partition",
          "type": "bytes32"
        },
        {
          "internalType": "address",
          "name": "tokenHolder",
          "type": "address"
        }
      ],
      "name": "balanceOfByPartition",
      "outputs": [
        {
          "internalType": "uint256",
          "name": "",
          "type": "uint256"
        }
      ],
      "stateMutability": "view",
      "type": "function"
    },
    {
      "inputs": [
        {
          "internalType": "bytes32",
          "name": "interfaceHash",
          "type": "bytes32"
        },
        {
          "internalType": "address",
          "name": "",
          "type": "address"
        }
      ],
      "name": "canImplementInterfaceForAddress",
      "outputs": [
        {
          "internalType": "bytes32",
          "name": "",
          "type": "bytes32"
        }
      ],
      "stateMutability": "view",
      "type": "function"
    },
    {
      "inputs": [],
      "name": "controllers",
      "outputs": [
        {
          "internalType": "address[]",
          "name": "",
          "type": "address[]"
        }
      ],
      "stateMutability": "view",
      "type": "function"
    },
    {
      "inputs": [
        {
          "internalType": "bytes32",
          "name": "partition",
          "type": "bytes32"
        }
      ],
      "name": "controllersByPartition",
      "outputs": [
        {
          "internalType": "address[]",
          "name": "",
          "type": "address[]"
        }
      ],
      "stateMutability": "view",
      "type": "function"
    },
    {
      "inputs": [],
      "name": "decimals",
      "outputs": [
        {
          "internalType": "uint8",
          "name": "",
          "type": "uint8"
        }
      ],
      "stateMutability": "pure",
      "type": "function"
    },
    {
      "inputs": [],
      "name": "domainName",
      "outputs": [
        {
          "internalType": "string",
          "name": "",
          "type": "string"
        }
      ],
      "stateMutability": "view",
      "type": "function"
    },
    {
      "inputs": [],
      "name": "domainSeparator",
      "outputs": [
        {
          "internalType": "bytes32",
          "name": "",
          "type": "bytes32"
        }
      ],
      "stateMutability": "nonpayable",
      "type": "function"
    },
    {
      "inputs": [],
      "name": "domainVersion",
      "outputs": [
        {
          "internalType": "string",
          "name": "",
          "type": "string"
        }
      ],
      "stateMutability": "pure",
      "type": "function"
    },
    {
      "inputs": [],
      "name": "generateDomainSeparator",
      "outputs": [
        {
          "internalType": "bytes32",
          "name": "",
          "type": "bytes32"
        }
      ],
      "stateMutability": "view",
      "type": "function"
    },
    {
      "inputs": [],
      "name": "getAllDocuments",
      "outputs": [
        {
          "internalType": "bytes32[]",
          "name": "",
          "type": "bytes32[]"
        }
      ],
      "stateMutability": "view",
      "type": "function"
    },
    {
      "inputs": [],
      "name": "getDefaultPartitions",
      "outputs": [
        {
          "internalType": "bytes32[]",
          "name": "",
          "type": "bytes32[]"
        }
      ],
      "stateMutability": "view",
      "type": "function"
    },
    {
      "inputs": [
        {
          "internalType": "bytes32",
          "name": "documentName",
          "type": "bytes32"
        }
      ],
      "name": "getDocument",
      "outputs": [
        {
          "internalType": "string",
          "name": "",
          "type": "string"
        },
        {
          "internalType": "bytes32",
          "name": "",
          "type": "bytes32"
        },
        {
          "internalType": "uint256",
          "name": "",
          "type": "uint256"
        }
      ],
      "stateMutability": "view",
      "type": "function"
    },
    {
      "inputs": [],
      "name": "granularity",
      "outputs": [
        {
          "internalType": "uint256",
          "name": "",
          "type": "uint256"
        }
      ],
      "stateMutability": "view",
      "type": "function"
    },
    {
      "inputs": [],
      "name": "isControllable",
      "outputs": [
        {
          "internalType": "bool",
          "name": "",
          "type": "bool"
        }
      ],
      "stateMutability": "view",
      "type": "function"
    },
    {
      "inputs": [],
      "name": "isIssuable",
      "outputs": [
        {
          "internalType": "bool",
          "name": "",
          "type": "bool"
        }
      ],
      "stateMutability": "view",
      "type": "function"
    },
    {
      "inputs": [
        {
          "internalType": "address",
          "name": "account",
          "type": "address"
        }
      ],
      "name": "isMinter",
      "outputs": [
        {
          "internalType": "bool",
          "name": "",
          "type": "bool"
        }
      ],
      "stateMutability": "view",
      "type": "function"
    },
    {
      "inputs": [
        {
          "internalType": "address",
          "name": "operator",
          "type": "address"
        },
        {
          "internalType": "address",
          "name": "tokenHolder",
          "type": "address"
        }
      ],
      "name": "isOperator",
      "outputs": [
        {
          "internalType": "bool",
          "name": "",
          "type": "bool"
        }
      ],
      "stateMutability": "view",
      "type": "function"
    },
    {
      "inputs": [
        {
          "internalType": "bytes32",
          "name": "partition",
          "type": "bytes32"
        },
        {
          "internalType": "address",
          "name": "operator",
          "type": "address"
        },
        {
          "internalType": "address",
          "name": "tokenHolder",
          "type": "address"
        }
      ],
      "name": "isOperatorForPartition",
      "outputs": [
        {
          "internalType": "bool",
          "name": "",
          "type": "bool"
        }
      ],
      "stateMutability": "view",
      "type": "function"
    },
    {
      "inputs": [
        {
          "internalType": "address",
          "name": "tokenHolder",
          "type": "address"
        },
        {
          "internalType": "uint256",
          "name": "value",
          "type": "uint256"
        },
        {
          "internalType": "bytes",
          "name": "data",
          "type": "bytes"
        }
      ],
      "name": "issue",
      "outputs": [],
      "stateMutability": "nonpayable",
      "type": "function"
    },
    {
      "inputs": [
        {
          "internalType": "bytes32",
          "name": "partition",
          "type": "bytes32"
        },
        {
          "internalType": "address",
          "name": "tokenHolder",
          "type": "address"
        },
        {
          "internalType": "uint256",
          "name": "value",
          "type": "uint256"
        },
        {
          "internalType": "bytes",
          "name": "data",
          "type": "bytes"
        }
      ],
      "name": "issueByPartition",
      "outputs": [],
      "stateMutability": "nonpayable",
      "type": "function"
    },
    {
      "inputs": [
        {
          "internalType": "address",
          "name": "newContractAddress",
          "type": "address"
        },
        {
          "internalType": "bool",
          "name": "definitive",
          "type": "bool"
        }
      ],
      "name": "migrate",
      "outputs": [],
      "stateMutability": "nonpayable",
      "type": "function"
    },
    {
      "inputs": [],
      "name": "name",
      "outputs": [
        {
          "internalType": "string",
          "name": "",
          "type": "string"
        }
      ],
      "stateMutability": "view",
      "type": "function"
    },
    {
      "inputs": [
        {
          "internalType": "bytes32",
          "name": "partition",
          "type": "bytes32"
        },
        {
          "internalType": "address",
          "name": "tokenHolder",
          "type": "address"
        },
        {
          "internalType": "uint256",
          "name": "value",
          "type": "uint256"
        },
        {
          "internalType": "bytes",
          "name": "operatorData",
          "type": "bytes"
        }
      ],
      "name": "operatorRedeemByPartition",
      "outputs": [],
      "stateMutability": "nonpayable",
      "type": "function"
    },
    {
      "inputs": [
        {
          "internalType": "bytes32",
          "name": "partition",
          "type": "bytes32"
        },
        {
          "internalType": "address",
          "name": "from",
          "type": "address"
        },
        {
          "internalType": "address",
          "name": "to",
          "type": "address"
        },
        {
          "internalType": "uint256",
          "name": "value",
          "type": "uint256"
        },
        {
          "internalType": "bytes",
          "name": "data",
          "type": "bytes"
        },
        {
          "internalType": "bytes",
          "name": "operatorData",
          "type": "bytes"
        }
      ],
      "name": "operatorTransferByPartition",
      "outputs": [
        {
          "internalType": "bytes32",
          "name": "",
          "type": "bytes32"
        }
      ],
      "stateMutability": "nonpayable",
      "type": "function"
    },
    {
      "inputs": [],
      "name": "owner",
      "outputs": [
        {
          "internalType": "address",
          "name": "",
          "type": "address"
        }
      ],
      "stateMutability": "view",
      "type": "function"
    },
    {
      "inputs": [
        {
          "internalType": "address",
          "name": "tokenHolder",
          "type": "address"
        }
      ],
      "name": "partitionsOf",
      "outputs": [
        {
          "internalType": "bytes32[]",
          "name": "",
          "type": "bytes32[]"
        }
      ],
      "stateMutability": "view",
      "type": "function"
    },
    {
      "inputs": [
        {
          "internalType": "uint256",
          "name": "value",
          "type": "uint256"
        },
        {
          "internalType": "bytes",
          "name": "data",
          "type": "bytes"
        }
      ],
      "name": "redeem",
      "outputs": [],
      "stateMutability": "nonpayable",
      "type": "function"
    },
    {
      "inputs": [
        {
          "internalType": "bytes32",
          "name": "partition",
          "type": "bytes32"
        },
        {
          "internalType": "uint256",
          "name": "value",
          "type": "uint256"
        },
        {
          "internalType": "bytes",
          "name": "data",
          "type": "bytes"
        }
      ],
      "name": "redeemByPartition",
      "outputs": [],
      "stateMutability": "nonpayable",
      "type": "function"
    },
    {
      "inputs": [
        {
          "internalType": "address",
          "name": "from",
          "type": "address"
        },
        {
          "internalType": "uint256",
          "name": "value",
          "type": "uint256"
        },
        {
          "internalType": "bytes",
          "name": "data",
          "type": "bytes"
        }
      ],
      "name": "redeemFrom",
      "outputs": [],
      "stateMutability": "nonpayable",
      "type": "function"
    },
    {
      "inputs": [
        {
          "internalType": "bytes32",
          "name": "documentName",
          "type": "bytes32"
        }
      ],
      "name": "removeDocument",
      "outputs": [],
      "stateMutability": "nonpayable",
      "type": "function"
    },
    {
      "inputs": [
        {
          "internalType": "address",
          "name": "account",
          "type": "address"
        }
      ],
      "name": "removeMinter",
      "outputs": [],
      "stateMutability": "nonpayable",
      "type": "function"
    },
    {
      "inputs": [],
      "name": "renounceControl",
      "outputs": [],
      "stateMutability": "nonpayable",
      "type": "function"
    },
    {
      "inputs": [],
      "name": "renounceIssuance",
      "outputs": [],
      "stateMutability": "nonpayable",
      "type": "function"
    },
    {
      "inputs": [],
      "name": "renounceMinter",
      "outputs": [],
      "stateMutability": "nonpayable",
      "type": "function"
    },
    {
      "inputs": [],
      "name": "renounceOwnership",
      "outputs": [],
      "stateMutability": "nonpayable",
      "type": "function"
    },
    {
      "inputs": [
        {
          "internalType": "address",
          "name": "operator",
          "type": "address"
        }
      ],
      "name": "revokeOperator",
      "outputs": [],
      "stateMutability": "nonpayable",
      "type": "function"
    },
    {
      "inputs": [
        {
          "internalType": "bytes32",
          "name": "partition",
          "type": "bytes32"
        },
        {
          "internalType": "address",
          "name": "operator",
          "type": "address"
        }
      ],
      "name": "revokeOperatorByPartition",
      "outputs": [],
      "stateMutability": "nonpayable",
      "type": "function"
    },
    {
      "inputs": [
        {
          "internalType": "address[]",
          "name": "operators",
          "type": "address[]"
        }
      ],
      "name": "setControllers",
      "outputs": [],
      "stateMutability": "nonpayable",
      "type": "function"
    },
    {
      "inputs": [
        {
          "internalType": "bytes32[]",
          "name": "partitions",
          "type": "bytes32[]"
        }
      ],
      "name": "setDefaultPartitions",
      "outputs": [],
      "stateMutability": "nonpayable",
      "type": "function"
    },
    {
      "inputs": [
        {
          "internalType": "bytes32",
          "name": "documentName",
          "type": "bytes32"
        },
        {
          "internalType": "string",
          "name": "uri",
          "type": "string"
        },
        {
          "internalType": "bytes32",
          "name": "documentHash",
          "type": "bytes32"
        }
      ],
      "name": "setDocument",
      "outputs": [],
      "stateMutability": "nonpayable",
      "type": "function"
    },
    {
      "inputs": [
        {
          "internalType": "bytes32",
          "name": "partition",
          "type": "bytes32"
        },
        {
          "internalType": "address[]",
          "name": "operators",
          "type": "address[]"
        }
      ],
      "name": "setPartitionControllers",
      "outputs": [],
      "stateMutability": "nonpayable",
      "type": "function"
    },
    {
      "inputs": [
        {
          "internalType": "address",
          "name": "extension",
          "type": "address"
        },
        {
          "internalType": "string",
          "name": "interfaceLabel",
          "type": "string"
        },
        {
          "internalType": "bool",
          "name": "removeOldExtensionRoles",
          "type": "bool"
        },
        {
          "internalType": "bool",
          "name": "addMinterRoleForExtension",
          "type": "bool"
        },
        {
          "internalType": "bool",
          "name": "addControllerRoleForExtension",
          "type": "bool"
        }
      ],
      "name": "setTokenExtension",
      "outputs": [],
      "stateMutability": "nonpayable",
      "type": "function"
    },
    {
      "inputs": [],
      "name": "symbol",
      "outputs": [
        {
          "internalType": "string",
          "name": "",
          "type": "string"
        }
      ],
      "stateMutability": "view",
      "type": "function"
    },
    {
      "inputs": [],
      "name": "totalPartitions",
      "outputs": [
        {
          "internalType": "bytes32[]",
          "name": "",
          "type": "bytes32[]"
        }
      ],
      "stateMutability": "view",
      "type": "function"
    },
    {
      "inputs": [],
      "name": "totalSupply",
      "outputs": [
        {
          "internalType": "uint256",
          "name": "",
          "type": "uint256"
        }
      ],
      "stateMutability": "view",
      "type": "function"
    },
    {
      "inputs": [
        {
          "internalType": "bytes32",
          "name": "partition",
          "type": "bytes32"
        }
      ],
      "name": "totalSupplyByPartition",
      "outputs": [
        {
          "internalType": "uint256",
          "name": "",
          "type": "uint256"
        }
      ],
      "stateMutability": "view",
      "type": "function"
    },
    {
      "inputs": [
        {
          "internalType": "address",
          "name": "to",
          "type": "address"
        },
        {
          "internalType": "uint256",
          "name": "value",
          "type": "uint256"
        }
      ],
      "name": "transfer",
      "outputs": [
        {
          "internalType": "bool",
          "name": "",
          "type": "bool"
        }
      ],
      "stateMutability": "nonpayable",
      "type": "function"
    },
    {
      "inputs": [
        {
          "internalType": "bytes32",
          "name": "partition",
          "type": "bytes32"
        },
        {
          "internalType": "address",
          "name": "to",
          "type": "address"
        },
        {
          "internalType": "uint256",
          "name": "value",
          "type": "uint256"
        },
        {
          "internalType": "bytes",
          "name": "data",
          "type": "bytes"
        }
      ],
      "name": "transferByPartition",
      "outputs": [
        {
          "internalType": "bytes32",
          "name": "",
          "type": "bytes32"
        }
      ],
      "stateMutability": "nonpayable",
      "type": "function"
    },
    {
      "inputs": [
        {
          "internalType": "address",
          "name": "from",
          "type": "address"
        },
        {
          "internalType": "address",
          "name": "to",
          "type": "address"
        },
        {
          "internalType": "uint256",
          "name": "value",
          "type": "uint256"
        }
      ],
      "name": "transferFrom",
      "outputs": [
        {
          "internalType": "bool",
          "name": "",
          "type": "bool"
        }
      ],
      "stateMutability": "nonpayable",
      "type": "function"
    },
    {
      "inputs": [
        {
          "internalType": "address",
          "name": "from",
          "type": "address"
        },
        {
          "internalType": "address",
          "name": "to",
          "type": "address"
        },
        {
          "internalType": "uint256",
          "name": "value",
          "type": "uint256"
        },
        {
          "internalType": "bytes",
          "name": "data",
          "type": "bytes"
        }
      ],
      "name": "transferFromWithData",
      "outputs": [],
      "stateMutability": "nonpayable",
      "type": "function"
    },
    {
      "inputs": [
        {
          "internalType": "address",
          "name": "newOwner",
          "type": "address"
        }
      ],
      "name": "transferOwnership",
      "outputs": [],
      "stateMutability": "nonpayable",
      "type": "function"
    },
    {
      "inputs": [
        {
          "internalType": "address",
          "name": "to",
          "type": "address"
        },
        {
          "internalType": "uint256",
          "name": "value",
          "type": "uint256"
        },
        {
          "internalType": "bytes",
          "name": "data",
          "type": "bytes"
        }
      ],
      "name": "transferWithData",
      "outputs": [],
      "stateMutability": "nonpayable",
      "type": "function"
    }
  ],
  "bytecode": "0x60806040523480156200001157600080fd5b5060405162005a7638038062005a76833981016040819052620000349162000d3e565b86868686866200004d62000047620002c8565b620002cc565b62000058336200031c565b620000626200036e565b5084516200007890600490602088019062000a7f565b5083516200008e90600590602087019062000a7f565b5060006007556001831015620000a357600080fd5b6006839055620000b382620003a1565b8051620000c890601490602084019062000b0e565b506008805462ff00001961ff001990911661010017166201000017905560408051808201909152600c81526b22a921989a18182a37b5b2b760a11b6020808301919091526200012391903090620021e9620004b6821b17901c565b6200015c6040518060400160405280600a81526020016922a92199182a37b5b2b760b11b81525030620004b660201b620021e91760201c565b620001966040518060400160405280600c81526020016b22a921989a18182a37b5b2b760a11b8152506200055960201b620022861760201c565b620001ce6040518060400160405280600a81526020016922a92199182a37b5b2b760b11b8152506200055960201b620022861760201c565b505050506001600160a01b038316159050620002a05760405163118fa5db60e01b81526001600160a01b0383169063118fa5db90620002209030906000906001908190819081908d9060040162000ec0565b600060405180830381600087803b1580156200023b57600080fd5b505af115801562000250573d6000803e3d6000fd5b50505050620002a0826040518060400160405280601681526020017f45524331343030546f6b656e7356616c696461746f72000000000000000000008152506001806001620005a860201b60201c565b6001600160a01b03811615620002bb57620002bb8162000682565b5050505050505062001195565b3390565b600080546001600160a01b038381166001600160a01b0319831681178455604051919092169283917f8be0079c531659141344cd1fd0a4f28419497f9722a3daafe3b4186f6b6457e09190a35050565b620003378160026200070860201b620022d31790919060201c565b6040516001600160a01b038216907f6ae172837ea30b801fbfcdd4108aa1d5bf8ff775444fd70256b44e6bf3dfc3f690600090a250565b6000806200037b62000759565b90506000620003896200075d565b60009283526003602052604090922082905550905090565b60005b601654811015620004205760006017600060168481548110620003d757634e487b7160e01b600052603260045260246000fd5b6000918252602080832091909101546001600160a01b031683528201929092526040019020805460ff191691151591909117905580620004178162001157565b915050620003a4565b5060005b81518110156200049c576001601760008484815181106200045557634e487b7160e01b600052603260045260246000fd5b6020908102919091018101516001600160a01b03168252810191909152604001600020805460ff191691151591909117905580620004938162001157565b91505062000424565b508051620004b290601690602084019062000b4b565b5050565b600082604051602001620004cb919062000e66565b60408051601f198184030181529082905280516020909101206329965a1d60e01b82529150731820a4b7618bde71dce8cdc73aab6c95905fad24906329965a1d90620005209030908590879060040162000e9d565b600060405180830381600087803b1580156200053b57600080fd5b505af115801562000550573d6000803e3d6000fd5b50505050505050565b60018060008360405160200162000571919062000e66565b60408051808303601f19018152918152815160209283012083529082019290925201600020805460ff191691151591909117905550565b6000620005b63086620007e7565b90506001600160a01b03811615801590620005ce5750835b156200061157620005df81620008ac565b15620005f057620005f081620008d1565b6001600160a01b0381166000908152601760205260409020805460ff191690555b620006288587620004b660201b620021e91760201c565b8280156200063e57506200063c86620008ac565b155b156200064f576200064f866200031c565b81156200067a576001600160a01b0386166000908152601760205260409020805460ff191660011790555b505050505050565b6200068c620002c8565b6001600160a01b03166200069f62000923565b6001600160a01b031614620006d15760405162461bcd60e51b8152600401620006c8906200101e565b60405180910390fd5b6001600160a01b038116620006fa5760405162461bcd60e51b8152600401620006c89062000f97565b6200070581620002cc565b50565b62000714828262000932565b15620007345760405162461bcd60e51b8152600401620006c89062000f60565b6001600160a01b0316600090815260209190915260409020805460ff19166001179055565b4690565b6000806200076a62000759565b905060007f8b73c3c69bb8fe3d512ecc4cf759cc79239f7b179b0ffacaa9a75d522b39400f620007996200097d565b8051602090910120620007ab62000a17565b8051602091820120604051620007c8949392879130910162000f34565b60408051601f1981840301815291905280516020909101209250505090565b60008082604051602001620007fd919062000e66565b60408051601f1981840301815290829052805160209091012063555ddc6560e11b82529150731820a4b7618bde71dce8cdc73aab6c95905fad249063aabbb8ca9062000850908790859060040162000e84565b60206040518083038186803b1580156200086957600080fd5b505afa1580156200087e573d6000803e3d6000fd5b505050506040513d601f19601f82011682018060405250810190620008a4919062000d1a565b949350505050565b6000620008c98260026200093260201b6200231f1790919060201c565b90505b919050565b620008ec81600262000a3260201b620023671790919060201c565b6040516001600160a01b038216907fe94479a9f7e1952cc78f2d6baab678adc1b772d936c6583def489e524cb6669290600090a250565b6000546001600160a01b031690565b60006001600160a01b0382166200095d5760405162461bcd60e51b8152600401620006c89062001053565b506001600160a01b03166000908152602091909152604090205460ff1690565b6060600480546200098e906200111a565b80601f0160208091040260200160405190810160405280929190818152602001828054620009bc906200111a565b801562000a0d5780601f10620009e15761010080835404028352916020019162000a0d565b820191906000526020600020905b815481529060010190602001808311620009ef57829003601f168201915b5050505050905090565b6040805180820190915260018152603160f81b602082015290565b62000a3e828262000932565b62000a5d5760405162461bcd60e51b8152600401620006c89062000fdd565b6001600160a01b0316600090815260209190915260409020805460ff19169055565b82805462000a8d906200111a565b90600052602060002090601f01602090048101928262000ab1576000855562000afc565b82601f1062000acc57805160ff191683800117855562000afc565b8280016001018555821562000afc579182015b8281111562000afc57825182559160200191906001019062000adf565b5062000b0a92915062000ba3565b5090565b82805482825590600052602060002090810192821562000afc579160200282018281111562000afc57825182559160200191906001019062000adf565b82805482825590600052602060002090810192821562000afc579160200282015b8281111562000afc57825182546001600160a01b0319166001600160a01b0390911617825560209092019160019091019062000b6c565b5b8082111562000b0a576000815560010162000ba4565b80516001600160a01b0381168114620008cc57600080fd5b600082601f83011262000be3578081fd5b8151602062000bfc62000bf683620010c1565b62001095565b828152818101908583018385028701840188101562000c19578586fd5b855b8581101562000c425762000c2f8262000bba565b8452928401929084019060010162000c1b565b5090979650505050505050565b600082601f83011262000c60578081fd5b8151602062000c7362000bf683620010c1565b828152818101908583018385028701840188101562000c90578586fd5b855b8581101562000c425781518452928401929084019060010162000c92565b600082601f83011262000cc1578081fd5b81516001600160401b0381111562000cdd5762000cdd6200117f565b62000cf2601f8201601f191660200162001095565b81815284602083860101111562000d07578283fd5b620008a4826020830160208701620010e7565b60006020828403121562000d2c578081fd5b62000d378262000bba565b9392505050565b600080600080600080600060e0888a03121562000d59578283fd5b87516001600160401b038082111562000d70578485fd5b62000d7e8b838c0162000cb0565b985060208a015191508082111562000d94578485fd5b62000da28b838c0162000cb0565b975060408a0151965060608a015191508082111562000dbf578485fd5b62000dcd8b838c0162000bd2565b955060808a015191508082111562000de3578485fd5b5062000df28a828b0162000c4f565b93505062000e0360a0890162000bba565b915062000e1360c0890162000bba565b905092959891949750929550565b6000815180845260208085019450808401835b8381101562000e5b5781516001600160a01b03168752958201959082019060010162000e34565b509495945050505050565b6000825162000e7a818460208701620010e7565b9190910192915050565b6001600160a01b03929092168252602082015260400190565b6001600160a01b0393841681526020810192909252909116604082015260600190565b6001600160a01b038816815260006003881062000eeb57634e487b7160e01b81526021600452602481fd5b87602083015286151560408301528515156060830152841515608083015283151560a083015260e060c083015262000f2760e083018462000e21565b9998505050505050505050565b9485526020850193909352604084019190915260608301526001600160a01b0316608082015260a00190565b6020808252601f908201527f526f6c65733a206163636f756e7420616c72656164792068617320726f6c6500604082015260600190565b60208082526026908201527f4f776e61626c653a206e6577206f776e657220697320746865207a65726f206160408201526564647265737360d01b606082015260800190565b60208082526021908201527f526f6c65733a206163636f756e7420646f6573206e6f74206861766520726f6c6040820152606560f81b606082015260800190565b6020808252818101527f4f776e61626c653a2063616c6c6572206973206e6f7420746865206f776e6572604082015260600190565b60208082526022908201527f526f6c65733a206163636f756e7420697320746865207a65726f206164647265604082015261737360f01b606082015260800190565b6040518181016001600160401b0381118282101715620010b957620010b96200117f565b604052919050565b60006001600160401b03821115620010dd57620010dd6200117f565b5060209081020190565b60005b8381101562001104578181015183820152602001620010ea565b8381111562001114576000848401525b50505050565b6002810460018216806200112f57607f821691505b602082108114156200115157634e487b7160e01b600052602260045260246000fd5b50919050565b60006000198214156200117857634e487b7160e01b81526011600452602481fd5b5060010190565b634e487b7160e01b600052604160045260246000fd5b6148d180620011a56000396000f3fe608060405234801561001057600080fd5b50600436106103a45760003560e01c80638c0dee9c116101e9578063b10d6b411161010f578063e77c646d116100ad578063f2fde38b1161007c578063f2fde38b1461076d578063f3d490db14610780578063f698da2514610793578063fad8b32a1461079b576103a4565b8063e77c646d14610721578063ea74838a14610734578063ec9a6e8714610747578063ee532f311461075a576103a4565b8063bcfdc0cf116100e9578063bcfdc0cf146106eb578063c3501848146106f3578063ca281fd914610706578063dd62ed3e1461070e576103a4565b8063b10d6b41146106a3578063b6363cf2146106c5578063bb3acde9146106d8576103a4565b80639865027511610187578063a6f4f10511610156578063a6f4f10514610662578063a8082cb014610675578063a9059cbb1461067d578063aa271e1a14610690576103a4565b8063986502751461062c57806398ddcec7146106345780639fa5f50b14610647578063a26734dc1461064f576103a4565b8063959b8c3f116101c3578063959b8c3f146105eb57806395d89b41146105fe5780639675193c14610606578063983b2d5614610619576103a4565b80638c0dee9c146105b05780638da5cb5b146105c3578063933964c7146105d8576103a4565b806330e82803116102ce5780636c30d1701161026c578063740ab8f41161023b578063740ab8f4146105755780637cc0c3a714610588578063861ed3ea1461059d578063895d7386146103be576103a4565b80636c30d1701461053f5780636d77cad61461054757806370a082311461055a578063715018a61461056d576103a4565b8063556f0dc7116102a8578063556f0dc7146104fc57806362eb00681461050457806367c849191461051757806369598efe1461052a576103a4565b806330e82803146104cc578063313ce567146104df5780634c783bf5146104f4576103a4565b806317ec83ca11610346578063249cb3fa11610315578063249cb3fa1461048b5780632535f7621461049e5780632f1cae85146104b15780633092afd5146104b9576103a4565b806317ec83ca1461044857806318160ddd146104685780631d43e1c01461047057806323b872dd14610478576103a4565b8063103ef9e111610382578063103ef9e1146103fc57806314d1e62f1461040f578063168ecec51461042257806316e1aed414610435576103a4565b8063010648ca146103a957806306fdde03146103be578063095ea7b3146103dc575b600080fd5b6103bc6103b73660046140ee565b6107ae565b005b6103c66108e8565b6040516103d3919061443e565b60405180910390f35b6103ef6103ea366004613e6e565b61097b565b6040516103d39190614360565b6103bc61040a366004613f4b565b610a18565b6103ef61041d366004614055565b610a7c565b6103bc610430366004613f4b565b610b1a565b6103bc6104433660046140a4565b610b7b565b61045b610456366004613f6f565b610bfc565b6040516103d3919061436b565b61045b610c2c565b6103c6610c32565b6103ef610486366004613d04565b610c4d565b61045b610499366004613f4b565b610d6f565b6103bc6104ac366004613e99565b610dba565b6103ef610e03565b6103bc6104c7366004613c94565b610e12565b61045b6104da366004613f4b565b610e5a565b6104e7610e7f565b6040516103d39190614772565b6103ef610e84565b61045b610e92565b6103bc61051236600461413f565b610e98565b6103bc61052536600461407b565b610ee9565b610532610f97565b6040516103d39190614328565b6103bc610fee565b6103ef610555366004613f6f565b61103b565b61045b610568366004613c94565b611050565b6103bc61106f565b610532610583366004613c94565b6110ba565b610590611126565b6040516103d391906142db565b6105906105ab366004613f33565b611187565b61045b6105be366004613fb0565b6111f2565b6105cb611397565b6040516103d39190614247565b6103bc6105e6366004613db5565b6113a6565b6103bc6105f9366004613c94565b6113f3565b6103c6611462565b6103bc610614366004613e99565b611471565b6103bc610627366004613c94565b6115ad565b6103bc6115f2565b6103bc61064236600461407b565b6115fb565b61053261176c565b61045b61065d366004613f33565b6117c2565b6103bc610670366004613de9565b6117d4565b61045b611860565b6103ef61068b366004613e6e565b6118e1565b6103ef61069e366004613c94565b611908565b6106b66106b1366004613f33565b611915565b6040516103d393929190614473565b6103ef6106d3366004613ccc565b6119f3565b6103bc6106e6366004613e99565b611a06565b610532611af8565b6103bc610701366004613f33565b611b4e565b6103bc611de6565b61045b61071c366004613ccc565b611e32565b6103bc61072f366004614178565b611e5d565b6103bc610742366004613ef3565b611e9f565b6103bc610755366004613ef3565b611f1a565b6103bc610768366004613d44565b611f65565b6103bc61077b366004613c94565b6120a2565b61045b61078e36600461407b565b612110565b61045b61216e565b6103bc6107a9366004613c94565b61217d565b3360009081526017602052604090205460ff166107ca57600080fd5b604051806060016040528084848080601f0160208091040260200160405190810160405280939291908181526020018383808284376000920182905250938552505050602080830185905242604093840152878252600b815291902082518051919261083b92849290910190613a96565b5060208281015160018301556040928301516002909201919091556000838152600c90915220546108a657600d80546001810182557fd7b6990105719101dabeb77144f2a3385c8033acd3af97e9423a695e81ad1eb501829055546000828152600c60205260409020555b837fb4c22d60cd550a815744f04e3ff5278bf19684565ee00e2b084041b6024bd6f68484846040516108da9392919061441a565b60405180910390a250505050565b6060600480546108f79061481a565b80601f01602080910402602001604051908101604052809291908181526020018280546109239061481a565b80156109705780601f1061094557610100808354040283529160200191610970565b820191906000526020600020905b81548152906001019060200180831161095357829003601f168201915b505050505090505b90565b60006001600160a01b0383166109ac5760405162461bcd60e51b81526004016109a39061459a565b60405180910390fd5b336000818152600a602090815260408083206001600160a01b03881680855292529182902085905590519091907f8c5be1e5ebec7d5bd14f71427d1e84f3dd0314c0f7b2291e5b200ac8c7c3b92590610a0690869061436b565b60405180910390a35060015b92915050565b33600081815260196020908152604080832086845282528083206001600160a01b0386168085529252808320805460ff1916600117905551909185917f3646a897c70797ecc134b0adc32f471b07bf1d6f451133b0384badab531e3fd69190a45050565b60006001600160a01b038316610aa45760405162461bcd60e51b81526004016109a39061459a565b6000848152601860209081526040808320338085529083528184206001600160a01b0388168086529352928190208590555190919086907ff061499aa77c2f6f5e25e34955a06623705344a88256cc861a121ec0bce5cfec90610b0890879061436b565b60405180910390a45060019392505050565b33600081815260196020908152604080832086845282528083206001600160a01b0386168085529252808320805460ff1916905551909185917f3b287c4f1bab4df949b33bceacef984f544dc5d5479930d00e4ee8c9d8dd96f29190a45050565b610b836123af565b6001600160a01b0316610b94611397565b6001600160a01b031614610bba5760405162461bcd60e51b81526004016109a39061462f565b610bf7838383808060200260200160405190810160405280939291908181526020018383602002808284376000920191909152506123b392505050565b505050565b60009283526018602090815260408085206001600160a01b03948516865282528085209290931684525290205490565b60075490565b6040805180820190915260018152603160f81b602082015290565b6000610c5933856124f2565b80610c8757506001600160a01b0384166000908152600a602090815260408083203384529091529020548211155b610ca35760405162461bcd60e51b81526004016109a3906146a6565b6001600160a01b0384166000908152600a602090815260408083203384529091529020548211610d24576001600160a01b0384166000908152600a60209081526040808320338452909152902054610cfb9083612571565b6001600160a01b0385166000908152600a60209081526040808320338452909152902055610d49565b6001600160a01b0384166000908152600a602090815260408083203384529091528120555b610d65338585856040518060200160405280600081525061257d565b5060019392505050565b60008281526001602052604081205460ff1615610db257604051602001610d9590614227565b604051602081830303815290604052805190602001209050610a12565b506000610a12565b610dfd3333868686868080601f01602080910402602001604051908101604052809392919081815260200183838082843760009201919091525061257d92505050565b50505050565b60085462010000900460ff1690565b610e1b33611908565b80610e455750610e296123af565b6001600160a01b0316610e3a611397565b6001600160a01b0316145b610e4e57600080fd5b610e57816126ec565b50565b6001600160a01b03166000908152601360209081526040808320938352929052205490565b601290565b600854610100900460ff1690565b60065490565b610dfd8433338686868080601f01602080910402602001604051908101604052809392919081815260200183838082843760009201829052506040805160208101909152908152925061272e915050565b610ef233611908565b80610f1c5750610f006123af565b6001600160a01b0316610f11611397565b6001600160a01b0316145b610f2557600080fd5b60085462010000900460ff16610f4d5760405162461bcd60e51b81526004016109a3906145d2565b610f908533868686868080601f0160208091040260200160405190810160405280939291908181526020018383808284376000920191909152506127fe92505050565b5050505050565b6060600e80548060200260200160405190810160405280929190818152602001828054801561097057602002820191906000526020600020905b815481526020019060010190808311610fd1575050505050905090565b610ff66123af565b6001600160a01b0316611007611397565b6001600160a01b03161461102d5760405162461bcd60e51b81526004016109a39061462f565b6008805462ff000019169055565b60006110488484846128a8565b949350505050565b6001600160a01b0381166000908152600960205260409020545b919050565b6110776123af565b6001600160a01b0316611088611397565b6001600160a01b0316146110ae5760405162461bcd60e51b81526004016109a39061462f565b6110b86000612931565b565b6001600160a01b03811660009081526011602090815260409182902080548351818402810184019094528084526060939283018282801561111a57602002820191906000526020600020905b815481526020019060010190808311611106575b50505050509050919050565b6060601680548060200260200160405190810160405280929190818152602001828054801561097057602002820191906000526020600020905b81546001600160a01b03168152600190910190602001808311611160575050505050905090565b6000818152601a602090815260409182902080548351818402810184019094528084526060939283018282801561111a57602002820191906000526020600020905b81546001600160a01b031681526001909101906020018083116111c95750505050509050919050565b60006111ff89338a6128a8565b80611234575060008981526018602090815260408083206001600160a01b038c16845282528083203384529091529020548611155b6112505760405162461bcd60e51b81526004016109a3906146a6565b60008981526018602090815260408083206001600160a01b038c168452825280832033845290915290205486116112e65760008981526018602090815260408083206001600160a01b038c16845282528083203384529091529020546112b69087612571565b60008a81526018602090815260408083206001600160a01b038d1684528252808320338452909152902055611312565b60008981526018602090815260408083206001600160a01b038c16845282528083203384529091528120555b61138a89338a8a8a8a8a8080601f01602080910402602001604051908101604052809392919081815260200183838082843760009201919091525050604080516020601f8e018190048102820181019092528c815292508c91508b908190840183828082843760009201919091525061298192505050565b9998505050505050505050565b6000546001600160a01b031690565b6113ae6123af565b6001600160a01b03166113bf611397565b6001600160a01b0316146113e55760405162461bcd60e51b81526004016109a39061462f565b6113ef8282612ad7565b5050565b6001600160a01b03811633141561140957600080fd5b6001600160a01b0381166000818152601560209081526040808320338085529252808320805460ff19166001179055519092917ff4caeb2d6ca8932a215a353d0703c326ec2d81fc68170f320eb2ab49e9df61f991a350565b6060600580546108f79061481a565b61147b33856124f2565b806114a957506001600160a01b0384166000908152600a602090815260408083203384529091529020548311155b6114c55760405162461bcd60e51b81526004016109a3906146a6565b6001600160a01b0384166000908152600a602090815260408083203384529091529020548311611546576001600160a01b0384166000908152600a6020908152604080832033845290915290205461151d9084612571565b6001600160a01b0385166000908152600a6020908152604080832033845290915290205561156b565b6001600160a01b0384166000908152600a602090815260408083203384529091528120555b610dfd33858585858080601f016020809104026020016040519081016040528093929190818152602001838380828437600092019190915250612b4892505050565b6115b633611908565b806115e057506115c46123af565b6001600160a01b03166115d5611397565b6001600160a01b0316145b6115e957600080fd5b610e5781612cac565b6110b8336126ec565b6116068533866128a8565b8061163b575060008581526018602090815260408083206001600160a01b038816845282528083203384529091529020548311155b6116575760405162461bcd60e51b81526004016109a3906145b6565b60008581526018602090815260408083206001600160a01b0388168452825280832033845290915290205483116116ed5760008581526018602090815260408083206001600160a01b038816845282528083203384529091529020546116bd9084612571565b60008681526018602090815260408083206001600160a01b03891684528252808320338452909152902055611719565b60008581526018602090815260408083206001600160a01b038816845282528083203384529091528120555b610f90853386866040518060200160405280600081525087878080601f01602080910402602001604051908101604052809392919081815260200183838082843760009201919091525061272e92505050565b6060600d8054806020026020016040519081016040528092919081815260200182805480156109705760200282019190600052602060002090815481526020019060010190808311610fd1575050505050905090565b60009081526010602052604090205490565b6117dc6123af565b6001600160a01b03166117ed611397565b6001600160a01b0316146118135760405162461bcd60e51b81526004016109a39061462f565b6118588686868080601f016020809104026020016040519081016040528093929190818152602001838380828437600092019190915250889250879150869050612cee565b505050505050565b60008061186b612daa565b905060007f8b73c3c69bb8fe3d512ecc4cf759cc79239f7b179b0ffacaa9a75d522b39400f6118986108e8565b805190602001206118a7610c32565b80516020918201206040516118c29493928791309101614374565b60408051601f1981840301815291905280516020909101209250505090565b60006118ff333385856040518060200160405280600081525061257d565b50600192915050565b6000610a1260028361231f565b6000818152600b6020526040812080546060929182916119349061481a565b1515905061194157600080fd5b6000848152600b6020526040902060018101546002820154825483906119669061481a565b80601f01602080910402602001604051908101604052809291908181526020018280546119929061481a565b80156119df5780601f106119b4576101008083540402835291602001916119df565b820191906000526020600020905b8154815290600101906020018083116119c257829003601f168201915b505050505092509250925092509193909250565b60006119ff83836124f2565b9392505050565b611a0f33611908565b80611a395750611a1d6123af565b6001600160a01b0316611a2e611397565b6001600160a01b0316145b611a4257600080fd5b60085462010000900460ff16611a6a5760405162461bcd60e51b81526004016109a3906145d2565b601454611a895760405162461bcd60e51b81526004016109a3906145d2565b610dfd6014600081548110611aae57634e487b7160e01b600052603260045260246000fd5b906000526020600020015433868686868080601f0160208091040260200160405190810160405280939291908181526020018383808284376000920191909152506127fe92505050565b606060148054806020026020016040519081016040528092919081815260200182805480156109705760200282019190600052602060002090815481526020019060010190808311610fd1575050505050905090565b3360009081526017602052604090205460ff16611b7d5760405162461bcd60e51b81526004016109a3906144eb565b6000818152600b602052604090208054611b969061481a565b15159050611bb65760405162461bcd60e51b81526004016109a3906146fa565b6000818152600b6020526040808220815160608101909252805482908290611bdd9061481a565b80601f0160208091040260200160405190810160405280929190818152602001828054611c099061481a565b8015611c565780601f10611c2b57610100808354040283529160200191611c56565b820191906000526020600020905b815481529060010190602001808311611c3957829003601f168201915b505050505081526020016001820154815260200160028201548152505090506000600c60008360200151815260200190815260200160002054905060008111611cb15760405162461bcd60e51b81526004016109a390614573565b600d805460009190611cc5906001906147d7565b81548110611ce357634e487b7160e01b600052603260045260246000fd5b9060005260206000200154905080600d600184611d0091906147d7565b81548110611d1e57634e487b7160e01b600052603260045260246000fd5b6000918252602080832090910192909255828152600c90915260409020829055600d805480611d5d57634e487b7160e01b600052603160045260246000fd5b600082815260208082208301600019908101839055909201909255848101518252600c81526040808320839055868352600b909152812090611d9f8282613b1a565b506000600182018190556002909101558251602084015160405186927f3d9bba27d3e360d8c80645beed7e991454a8271bf6f269a24f7782be0f0d0654926108da92614451565b611dee6123af565b6001600160a01b0316611dff611397565b6001600160a01b031614611e255760405162461bcd60e51b81526004016109a39061462f565b6008805461ff0019169055565b6001600160a01b039182166000908152600a6020908152604080832093909416825291909152205490565b610bf733338585858080601f016020809104026020016040519081016040528093929190818152602001838380828437600092019190915250612b4892505050565b611ea76123af565b6001600160a01b0316611eb8611397565b6001600160a01b031614611ede5760405162461bcd60e51b81526004016109a39061462f565b6113ef828280806020026020016040519081016040528093929190818152602001838360200280828437600092019190915250612dae92505050565b611f226123af565b6001600160a01b0316611f33611397565b6001600160a01b031614611f595760405162461bcd60e51b81526004016109a39061462f565b610bf760148383613b56565b611f6f33866124f2565b80611f9d57506001600160a01b0385166000908152600a602090815260408083203384529091529020548311155b611fb95760405162461bcd60e51b81526004016109a3906146a6565b6001600160a01b0385166000908152600a60209081526040808320338452909152902054831161203a576001600160a01b0385166000908152600a602090815260408083203384529091529020546120119084612571565b6001600160a01b0386166000908152600a6020908152604080832033845290915290205561205f565b6001600160a01b0385166000908152600a602090815260408083203384529091528120555b610f903386868686868080601f01602080910402602001604051908101604052809392919081815260200183838082843760009201919091525061257d92505050565b6120aa6123af565b6001600160a01b03166120bb611397565b6001600160a01b0316146120e15760405162461bcd60e51b81526004016109a39061462f565b6001600160a01b0381166121075760405162461bcd60e51b81526004016109a39061452d565b610e5781612931565b6000612164863333888888888080601f016020809104026020016040519081016040528093929190818152602001838380828437600092018290525060408051602081019091529081529250612981915050565b9695505050505050565b6000612178612eb3565b905090565b6001600160a01b03811633141561219357600080fd5b6001600160a01b0381166000818152601560209081526040808320338085529252808320805460ff19169055519092917f50546e66e5f44d728365dc3908c63bc5cfeeab470722c1677e3073a6ac294aa191a350565b6000826040516020016121fc919061420b565b60408051601f198184030181529082905280516020909101206329965a1d60e01b82529150731820a4b7618bde71dce8cdc73aab6c95905fad24906329965a1d9061224f90309085908790600401614274565b600060405180830381600087803b15801561226957600080fd5b505af115801561227d573d6000803e3d6000fd5b50505050505050565b60018060008360405160200161229c919061420b565b60408051808303601f19018152918152815160209283012083529082019290925201600020805460ff191691151591909117905550565b6122dd828261231f565b156122fa5760405162461bcd60e51b81526004016109a3906144b4565b6001600160a01b0316600090815260209190915260409020805460ff19166001179055565b60006001600160a01b0382166123475760405162461bcd60e51b81526004016109a390614664565b506001600160a01b03166000908152602091909152604090205460ff1690565b612371828261231f565b61238d5760405162461bcd60e51b81526004016109a3906145ee565b6001600160a01b0316600090815260209190915260409020805460ff19169055565b3390565b60005b6000838152601a602052604090205481101561244d576000838152601b60209081526040808320601a909252822080548391908590811061240757634e487b7160e01b600052603260045260246000fd5b6000918252602080832091909101546001600160a01b031683528201929092526040019020805460ff19169115159190911790558061244581614855565b9150506123b6565b5060005b81518110156124d2576000838152601b6020526040812083516001929085908590811061248e57634e487b7160e01b600052603260045260246000fd5b6020908102919091018101516001600160a01b03168252810191909152604001600020805460ff1916911515919091179055806124ca81614855565b915050612451565b506000828152601a602090815260409091208251610bf792840190613b91565b6000816001600160a01b0316836001600160a01b0316148061253957506001600160a01b0380841660009081526015602090815260408083209386168352929052205460ff165b806119ff5750600854610100900460ff1680156119ff575050506001600160a01b031660009081526017602052604090205460ff1690565b60006119ff82846147d7565b60145461259c5760405162461bcd60e51b81526004016109a3906145d2565b816000805b6014548110156126cd576001600160a01b038716600090815260136020526040812060148054919291849081106125e857634e487b7160e01b600052603260045260246000fd5b9060005260206000200154815260200190815260200160002054915081831161265e576126546014828154811061262f57634e487b7160e01b600052603260045260246000fd5b9060005260206000200154898989878960405180602001604052806000815250612981565b50600092506126cd565b81156126bb576126ad6014828154811061268857634e487b7160e01b600052603260045260246000fd5b9060005260206000200154898989868960405180602001604052806000815250612981565b506126b882846147d7565b92505b806126c581614855565b9150506125a1565b50811561227d5760405162461bcd60e51b81526004016109a3906146c2565b6126f7600282612367565b6040516001600160a01b038216907fe94479a9f7e1952cc78f2d6baab678adc1b772d936c6583def489e524cb6669290600090a250565b6001600160a01b03841660009081526013602090815260408083208984529091529020548311156127715760405162461bcd60e51b81526004016109a3906146c2565b6127818686866000878787612ef0565b6127918686866000878787612fb2565b61279c84878561303a565b6127a88585858561334d565b836001600160a01b0316856001600160a01b0316877fce306c3dbc4a497124b5a4f2be8388b41084c1d74663da27ecee1186c00239bf86856040516127ee929190614729565b60405180910390a4505050505050565b61281d8585600086868660405180602001604052806000815250612fb2565b612829848484846134e1565b612834838684613622565b6128538585600086868660405180602001604052806000815250613760565b826001600160a01b0316846001600160a01b0316867ff0ded82afbb1bb3ff3fc48cb2a26584aa84e4af0bf309c804ecdb94d0f6a98bb8585604051612899929190614742565b60405180910390a45050505050565b60006128b483836124f2565b806128ec57506001600160a01b03808316600090815260196020908152604080832088845282528083209387168352929052205460ff165b806110485750600854610100900460ff168015611048575050506000918252601b602090815260408084206001600160a01b0393909316845291905290205460ff1690565b600080546001600160a01b038381166001600160a01b0319831681178455604051919092169283917f8be0079c531659141344cd1fd0a4f28419497f9722a3daafe3b4186f6b6457e09190a35050565b6001600160a01b03851660009081526013602090815260408083208a84529091528120548411156129c45760405162461bcd60e51b81526004016109a3906146c2565b81518890158015906129d857506040845110155b156129ea576129e789856137e8565b90505b6129f989898989898989612ef0565b612a0889898989898989612fb2565b612a13878a8761303a565b612a1e878787613814565b612a29868287613622565b612a3881898989898989613760565b856001600160a01b0316876001600160a01b03168a7fff4e9a26af4eb73b8bacfaa4abd4fea03d9448e7b912dc5ff4019048875aa2d48b898989604051612a829493929190614297565b60405180910390a4888114612acb5780897f67c8ba31d2dd11f1384577b3405b04ed91eed1231e408432ad2458cab37b2fa187604051612ac2919061436b565b60405180910390a35b98975050505050505050565b612b036040518060400160405280600a81526020016922a92199182a37b5b2b760b11b815250836121e9565b612b316040518060400160405280600c81526020016b22a921989a18182a37b5b2b760a11b815250836121e9565b80156113ef576008805460ff191660011790555050565b601454612b675760405162461bcd60e51b81526004016109a3906145d2565b816000805b601454811015612c8d576001600160a01b03861660009081526013602052604081206014805491929184908110612bb357634e487b7160e01b600052603260045260246000fd5b90600052602060002001548152602001908152602001600020549150818311612c2757612c1e60148281548110612bfa57634e487b7160e01b600052603260045260246000fd5b9060005260206000200154888886886040518060200160405280600081525061272e565b60009250612c8d565b612c6f60148281548110612c4b57634e487b7160e01b600052603260045260246000fd5b9060005260206000200154888885886040518060200160405280600081525061272e565b612c7982846147d7565b925080612c8581614855565b915050612b6c565b5081156118585760405162461bcd60e51b81526004016109a3906146c2565b612cb76002826122d3565b6040516001600160a01b038216907f6ae172837ea30b801fbfcdd4108aa1d5bf8ff775444fd70256b44e6bf3dfc3f690600090a250565b6000612cfa308661396b565b90506001600160a01b03811615801590612d115750835b15612d4e57612d1f81611908565b15612d2d57612d2d816126ec565b6001600160a01b0381166000908152601760205260409020805460ff191690555b612d5885876121e9565b828015612d6b5750612d6986611908565b155b15612d7957612d7986612cac565b8115611858576001600160a01b0386166000908152601760205260409020805460ff19166001179055505050505050565b4690565b60005b601654811015612e285760006017600060168481548110612de257634e487b7160e01b600052603260045260246000fd5b6000918252602080832091909101546001600160a01b031683528201929092526040019020805460ff191691151591909117905580612e2081614855565b915050612db1565b5060005b8151811015612e9f57600160176000848481518110612e5b57634e487b7160e01b600052603260045260246000fd5b6020908102919091018101516001600160a01b03168252810191909152604001600020805460ff191691151591909117905580612e9781614855565b915050612e2c565b5080516113ef906016906020840190613b91565b60008060036000612ec2612daa565b815260208101919091526040016000205490508015612ee2579050610978565b612eea613a20565b91505090565b6000612f27866040518060400160405280601381526020017222a921989a18182a37b5b2b739a9b2b73232b960691b81525061396b565b90506001600160a01b03811615612fa85760405163139d569560e21b81526001600160a01b03821690634e755a5490612f759060009036908d908d908d908d908d908d908d906004016143a0565b600060405180830381600087803b158015612f8f57600080fd5b505af1158015612fa3573d6000803e3d6000fd5b505050505b5050505050505050565b6000612fec306040518060400160405280601681526020017522a921989a18182a37b5b2b739ab30b634b230ba37b960511b81525061396b565b90506001600160a01b03811615612fa857604051632907d53b60e11b81526001600160a01b0382169063520faa7690612f759060009036908d908d908d908d908d908d908d906004016143a0565b6001600160a01b03831660009081526013602090815260408083208584529091529020546130689082612571565b6001600160a01b038416600090815260136020908152604080832086845282528083209390935560109052205461309f9082612571565b60008381526010602052604090208190556131b6576000828152600f6020526040902054806130e05760405162461bcd60e51b81526004016109a390614511565b600e8054600091906130f4906001906147d7565b8154811061311257634e487b7160e01b600052603260045260246000fd5b9060005260206000200154905080600e60018461312f91906147d7565b8154811061314d57634e487b7160e01b600052603260045260246000fd5b6000918252602080832090910192909255828152600f90915260409020829055600e80548061318c57634e487b7160e01b600052603160045260246000fd5b600082815260208082208301600019908101839055909201909255858252600f9052604081205550505b6001600160a01b0383166000908152601360209081526040808320858452909152902054610bf7576001600160a01b03831660009081526012602090815260408083208584529091529020548061321f5760405162461bcd60e51b81526004016109a390614511565b6001600160a01b03841660009081526011602052604081208054613245906001906147d7565b8154811061326357634e487b7160e01b600052603260045260246000fd5b60009182526020808320909101546001600160a01b03881683526011909152604090912090915081906132976001856147d7565b815481106132b557634e487b7160e01b600052603260045260246000fd5b60009182526020808320909101929092556001600160a01b038716808252601283526040808320858452845280832086905590825260119092522080548061330d57634e487b7160e01b600052603160045260246000fd5b6000828152602080822083016000199081018390559092019092556001600160a01b03871682526012815260408083208784529091528120555050505050565b60085460ff16156133705760405162461bcd60e51b81526004016109a390614498565b61337982613a4f565b6133955760405162461bcd60e51b81526004016109a390614511565b6001600160a01b0383166133bb5760405162461bcd60e51b81526004016109a39061459a565b6001600160a01b0383166000908152600960205260409020548211156133f35760405162461bcd60e51b81526004016109a3906146c2565b6001600160a01b0383166000908152600960205260409020546134169083612571565b6001600160a01b03841660009081526009602052604090205560075461343c9083612571565b600781905550826001600160a01b0316846001600160a01b03167fb7d0d6b60740753e9f16692a2f479472a1385aec2420fa43225b02f2ffa1afe78484604051613487929190614729565b60405180910390a360006001600160a01b0316836001600160a01b03167fddf252ad1be2c89b69c2b068fc378daa952ba7f163c4a11628f55a4df523b3ef846040516134d3919061436b565b60405180910390a350505050565b60085460ff16156135045760405162461bcd60e51b81526004016109a390614498565b61350d82613a4f565b6135295760405162461bcd60e51b81526004016109a390614511565b6001600160a01b03831661354f5760405162461bcd60e51b81526004016109a3906146de565b60075461355c9083613a72565b6007556001600160a01b0383166000908152600960205260409020546135829083613a72565b6001600160a01b0380851660008181526009602052604090819020939093559151908616907f0e9905d62635f049c2f4e11678ebf9dc3d1f8c4a653e290759b772e47ba00d00906135d69086908690614729565b60405180910390a3826001600160a01b031660006001600160a01b03167fddf252ad1be2c89b69c2b068fc378daa952ba7f163c4a11628f55a4df523b3ef846040516134d3919061436b565b8015610bf7576001600160a01b0383166000908152601260209081526040808320858452909152902054613694576001600160a01b0383166000818152601160209081526040808320805460018101825581855283852001879055938352925460128252838320868452909152919020555b6001600160a01b03831660009081526013602090815260408083208584529091529020546136c29082613a72565b6001600160a01b0384166000908152601360209081526040808320868452825280832093909355600f9052205461373357600e80546001810182557fbb7b4a454dc3493923482f07822329ed19e8244eff582cc204f8554c3620c3fd01839055546000838152600f60205260409020555b60008281526010602052604090205461374c9082613a72565b600083815260106020526040902055505050565b600061379a8560405180604001604052806016815260200175115490cc4d0c0c151bdad95b9cd49958da5c1a595b9d60521b81525061396b565b90506001600160a01b03811615612fa857604051637a325abb60e11b81526001600160a01b0382169063f464b57690612f759060009036908d908d908d908d908d908d908d906004016143a0565b60208101516000906000199080821415613808576040840151925061380c565b8492505b505092915050565b60085460ff16156138375760405162461bcd60e51b81526004016109a390614498565b61384081613a4f565b61385c5760405162461bcd60e51b81526004016109a390614511565b6001600160a01b0382166138825760405162461bcd60e51b81526004016109a3906146de565b6001600160a01b0383166000908152600960205260409020548111156138ba5760405162461bcd60e51b81526004016109a3906146c2565b6001600160a01b0383166000908152600960205260409020546138dd9082612571565b6001600160a01b03808516600090815260096020526040808220939093559084168152205461390c9082613a72565b6001600160a01b0380841660008181526009602052604090819020939093559151908516907fddf252ad1be2c89b69c2b068fc378daa952ba7f163c4a11628f55a4df523b3ef9061395e90859061436b565b60405180910390a3505050565b6000808260405160200161397f919061420b565b60408051601f1981840301815290829052805160209091012063555ddc6560e11b82529150731820a4b7618bde71dce8cdc73aab6c95905fad249063aabbb8ca906139d0908790859060040161425b565b60206040518083038186803b1580156139e857600080fd5b505afa1580156139fc573d6000803e3d6000fd5b505050506040513d601f19601f820116820180604052508101906110489190613cb0565b600080613a2b612daa565b90506000613a37611860565b60009283526003602052604090922082905550905090565b6006546000908290613a6b90613a658382613a7e565b90613a8a565b1492915050565b60006119ff8284614780565b60006119ff8284614798565b60006119ff82846147b8565b828054613aa29061481a565b90600052602060002090601f016020900481019282613ac45760008555613b0a565b82601f10613add57805160ff1916838001178555613b0a565b82800160010185558215613b0a579182015b82811115613b0a578251825591602001919060010190613aef565b50613b16929150613be6565b5090565b508054613b269061481a565b6000825580601f10613b385750610e57565b601f016020900490600052602060002090810190610e579190613be6565b828054828255906000526020600020908101928215613b0a579160200282015b82811115613b0a578235825591602001919060010190613b76565b828054828255906000526020600020908101928215613b0a579160200282015b82811115613b0a57825182546001600160a01b0319166001600160a01b03909116178255602090920191600190910190613bb1565b5b80821115613b165760008155600101613be7565b60008083601f840112613c0c578182fd5b50813567ffffffffffffffff811115613c23578182fd5b6020830191508360208083028501011115613c3d57600080fd5b9250929050565b8035801515811461106a57600080fd5b60008083601f840112613c65578182fd5b50813567ffffffffffffffff811115613c7c578182fd5b602083019150836020828501011115613c3d57600080fd5b600060208284031215613ca5578081fd5b81356119ff81614886565b600060208284031215613cc1578081fd5b81516119ff81614886565b60008060408385031215613cde578081fd5b8235613ce981614886565b91506020830135613cf981614886565b809150509250929050565b600080600060608486031215613d18578081fd5b8335613d2381614886565b92506020840135613d3381614886565b929592945050506040919091013590565b600080600080600060808688031215613d5b578081fd5b8535613d6681614886565b94506020860135613d7681614886565b935060408601359250606086013567ffffffffffffffff811115613d98578182fd5b613da488828901613c54565b969995985093965092949392505050565b60008060408385031215613dc7578182fd5b8235613dd281614886565b9150613de060208401613c44565b90509250929050565b60008060008060008060a08789031215613e01578081fd5b8635613e0c81614886565b9550602087013567ffffffffffffffff811115613e27578182fd5b613e3389828a01613c54565b9096509450613e46905060408801613c44565b9250613e5460608801613c44565b9150613e6260808801613c44565b90509295509295509295565b60008060408385031215613e80578182fd5b8235613e8b81614886565b946020939093013593505050565b60008060008060608587031215613eae578384fd5b8435613eb981614886565b935060208501359250604085013567ffffffffffffffff811115613edb578283fd5b613ee787828801613c54565b95989497509550505050565b60008060208385031215613f05578182fd5b823567ffffffffffffffff811115613f1b578283fd5b613f2785828601613bfb565b90969095509350505050565b600060208284031215613f44578081fd5b5035919050565b60008060408385031215613f5d578182fd5b823591506020830135613cf981614886565b600080600060608486031215613f83578081fd5b833592506020840135613f9581614886565b91506040840135613fa581614886565b809150509250925092565b60008060008060008060008060c0898b031215613fcb578586fd5b883597506020890135613fdd81614886565b96506040890135613fed81614886565b955060608901359450608089013567ffffffffffffffff80821115614010578384fd5b61401c8c838d01613c54565b909650945060a08b0135915080821115614034578384fd5b506140418b828c01613c54565b999c989b5096995094979396929594505050565b600080600060608486031215614069578081fd5b833592506020840135613d3381614886565b600080600080600060808688031215614092578283fd5b853594506020860135613d7681614886565b6000806000604084860312156140b8578081fd5b83359250602084013567ffffffffffffffff8111156140d5578182fd5b6140e186828701613bfb565b9497909650939450505050565b60008060008060608587031215614103578182fd5b84359350602085013567ffffffffffffffff811115614120578283fd5b61412c87828801613c54565b9598909750949560400135949350505050565b60008060008060608587031215614154578182fd5b8435935060208501359250604085013567ffffffffffffffff811115613edb578283fd5b60008060006040848603121561418c578081fd5b83359250602084013567ffffffffffffffff8111156141a9578182fd5b6140e186828701613c54565b60008284528282602086013780602084860101526020601f19601f85011685010190509392505050565b600081518084526141f78160208601602086016147ee565b601f01601f19169290920160200192915050565b6000825161421d8184602087016147ee565b9190910192915050565b73455243313832305f4143434550545f4d4147494360601b815260140190565b6001600160a01b0391909116815260200190565b6001600160a01b03929092168252602082015260400190565b6001600160a01b0393841681526020810192909252909116604082015260600190565b600060018060a01b0386168252846020830152608060408301526142be60808301856141df565b82810360608401526142d081856141df565b979650505050505050565b6020808252825182820181905260009190848201906040850190845b8181101561431c5783516001600160a01b0316835292840192918401916001016142f7565b50909695505050505050565b6020808252825182820181905260009190848201906040850190845b8181101561431c57835183529284019291840191600101614344565b901515815260200190565b90815260200190565b9485526020850193909352604084019190915260608301526001600160a01b0316608082015260a00190565b60006101008083526143b58184018c8e6141b5565b602084018b90526001600160a01b038a8116604086015289811660608601528816608085015260a0840187905283810360c085015290506143f681866141df565b905082810360e084015261440a81856141df565b9c9b505050505050505050505050565b60006040825261442e6040830185876141b5565b9050826020830152949350505050565b6000602082526119ff60208301846141df565b60006040825261446460408301856141df565b90508260208301529392505050565b60006060825261448660608301866141df565b60208301949094525060400152919050565b6020808252600290820152610d4d60f21b604082015260600190565b6020808252601f908201527f526f6c65733a206163636f756e7420616c72656164792068617320726f6c6500604082015260600190565b6020808252600c908201526b155b985d5d1a1bdc9a5e995960a21b604082015260600190565b602080825260029082015261035360f41b604082015260600190565b60208082526026908201527f4f776e61626c653a206e6577206f776e657220697320746865207a65726f206160408201526564647265737360d01b606082015260800190565b6020808252600d908201526c092dcecc2d8d2c840d2dcc8caf609b1b604082015260600190565b6020808252600290820152611a9b60f11b604082015260600190565b60208082526002908201526106a760f31b604082015260600190565b602080825260029082015261353560f01b604082015260600190565b60208082526021908201527f526f6c65733a206163636f756e7420646f6573206e6f74206861766520726f6c6040820152606560f81b606082015260800190565b6020808252818101527f4f776e61626c653a2063616c6c6572206973206e6f7420746865206f776e6572604082015260600190565b60208082526022908201527f526f6c65733a206163636f756e7420697320746865207a65726f206164647265604082015261737360f01b606082015260800190565b602080825260029082015261353360f01b604082015260600190565b6020808252600290820152611a9960f11b604082015260600190565b602080825260029082015261353760f01b604082015260600190565b602080825260159082015274111bd8dd5b595b9d08191bd95cdb9d08195e1a5cdd605a1b604082015260600190565b60008382526040602083015261104860408301846141df565b60008382526060602083015261475b60608301846141df565b828103604090930192909252815260200192915050565b60ff91909116815260200190565b6000821982111561479357614793614870565b500190565b6000826147b357634e487b7160e01b81526012600452602481fd5b500490565b60008160001904831182151516156147d2576147d2614870565b500290565b6000828210156147e9576147e9614870565b500390565b60005b838110156148095781810151838201526020016147f1565b83811115610dfd5750506000910152565b60028104600182168061482e57607f821691505b6020821081141561484f57634e487b7160e01b600052602260045260246000fd5b50919050565b600060001982141561486957614869614870565b5060010190565b634e487b7160e01b600052601160045260246000fd5b6001600160a01b0381168114610e5757600080fdfea26469706673582212208beb3f36a0ef0f4d764ab365e099b3542abfaa7ce216b206db3b6ccf38e5178b64736f6c63430008000033",
  "linkReferences": {},
  "deployedLinkReferences": {}
}