{
  "_format": "hh-sol-artifact-1",
  "contractName": "ERC1400HoldableCertificateToken",
  "sourceName": "contracts/ERC1400/certificate/ERC1400HoldableCertificateToken.sol",
  "abi": [
    {
      "inputs": [
        {
          "internalType": "string",
          "name": "name",
          "type": "string"
        },
        {
          "internalType": "string",
          "name": "symbol",
          "type": "string"
        },
        {
          "internalType": "uint256",
          "name": "granularity",
          "type": "uint256"
        },
        {
          "internalType": "address[]",
          "name": "controllers",
          "type": "address[]"
        },
        {
          "internalType": "bytes32[]",
          "name": "defaultPartitions",
          "type": "bytes32[]"
        },
        {
          "internalType": "address",
          "name": "extension",
          "type": "address"
        },
        {
          "internalType": "address",
          "name": "newOwner",
          "type": "address"
        },
        {
          "internalType": "address",
          "name": "certificateSigner",
          "type": "address"
        },
        {
          "internalType": "enum IExtensionTypes.CertificateValidation",
          "name": "certificateActivated",
          "type": "uint8"
        }
      ],
      "stateMutability": "nonpayable",
      "type": "constructor"
    },
    {
      "anonymous": false,
      "inputs": [
        {
          "indexed": true,
          "internalType": "address",
          "name": "owner",
          "type": "address"
        },
        {
          "indexed": true,
          "internalType": "address",
          "name": "spender",
          "type": "address"
        },
        {
          "indexed": false,
          "internalType": "uint256",
          "name": "value",
          "type": "uint256"
        }
      ],
      "name": "Approval",
      "type": "event"
    },
    {
      "anonymous": false,
      "inputs": [
        {
          "indexed": true,
          "internalType": "bytes32",
          "name": "partition",
          "type": "bytes32"
        },
        {
          "indexed": true,
          "internalType": "address",
          "name": "owner",
          "type": "address"
        },
        {
          "indexed": true,
          "internalType": "address",
          "name": "spender",
          "type": "address"
        },
        {
          "indexed": false,
          "internalType": "uint256",
          "name": "value",
          "type": "uint256"
        }
      ],
      "name": "ApprovalByPartition",
      "type": "event"
    },
    {
      "anonymous": false,
      "inputs": [
        {
          "indexed": true,
          "internalType": "address",
          "name": "operator",
          "type": "address"
        },
        {
          "indexed": true,
          "internalType": "address",
          "name": "tokenHolder",
          "type": "address"
        }
      ],
      "name": "AuthorizedOperator",
      "type": "event"
    },
    {
      "anonymous": false,
      "inputs": [
        {
          "indexed": true,
          "internalType": "bytes32",
          "name": "partition",
          "type": "bytes32"
        },
        {
          "indexed": true,
          "internalType": "address",
          "name": "operator",
          "type": "address"
        },
        {
          "indexed": true,
          "internalType": "address",
          "name": "tokenHolder",
          "type": "address"
        }
      ],
      "name": "AuthorizedOperatorByPartition",
      "type": "event"
    },
    {
      "anonymous": false,
      "inputs": [
        {
          "indexed": true,
          "internalType": "bytes32",
          "name": "fromPartition",
          "type": "bytes32"
        },
        {
          "indexed": true,
          "internalType": "bytes32",
          "name": "toPartition",
          "type": "bytes32"
        },
        {
          "indexed": false,
          "internalType": "uint256",
          "name": "value",
          "type": "uint256"
        }
      ],
      "name": "ChangedPartition",
      "type": "event"
    },
    {
      "anonymous": false,
      "inputs": [
        {
          "indexed": true,
          "internalType": "bytes32",
          "name": "name",
          "type": "bytes32"
        },
        {
          "indexed": false,
          "internalType": "string",
          "name": "uri",
          "type": "string"
        },
        {
          "indexed": false,
          "internalType": "bytes32",
          "name": "documentHash",
          "type": "bytes32"
        }
      ],
      "name": "DocumentRemoved",
      "type": "event"
    },
    {
      "anonymous": false,
      "inputs": [
        {
          "indexed": true,
          "internalType": "bytes32",
          "name": "name",
          "type": "bytes32"
        },
        {
          "indexed": false,
          "internalType": "string",
          "name": "uri",
          "type": "string"
        },
        {
          "indexed": false,
          "internalType": "bytes32",
          "name": "documentHash",
          "type": "bytes32"
        }
      ],
      "name": "DocumentUpdated",
      "type": "event"
    },
    {
      "anonymous": false,
      "inputs": [
        {
          "indexed": true,
          "internalType": "address",
          "name": "operator",
          "type": "address"
        },
        {
          "indexed": true,
          "internalType": "address",
          "name": "to",
          "type": "address"
        },
        {
          "indexed": false,
          "internalType": "uint256",
          "name": "value",
          "type": "uint256"
        },
        {
          "indexed": false,
          "internalType": "bytes",
          "name": "data",
          "type": "bytes"
        }
      ],
      "name": "Issued",
      "type": "event"
    },
    {
      "anonymous": false,
      "inputs": [
        {
          "indexed": true,
          "internalType": "bytes32",
          "name": "partition",
          "type": "bytes32"
        },
        {
          "indexed": true,
          "internalType": "address",
          "name": "operator",
          "type": "address"
        },
        {
          "indexed": true,
          "internalType": "address",
          "name": "to",
          "type": "address"
        },
        {
          "indexed": false,
          "internalType": "uint256",
          "name": "value",
          "type": "uint256"
        },
        {
          "indexed": false,
          "internalType": "bytes",
          "name": "data",
          "type": "bytes"
        },
        {
          "indexed": false,
          "internalType": "bytes",
          "name": "operatorData",
          "type": "bytes"
        }
      ],
      "name": "IssuedByPartition",
      "type": "event"
    },
    {
      "anonymous": false,
      "inputs": [
        {
          "indexed": true,
          "internalType": "address",
          "name": "account",
          "type": "address"
        }
      ],
      "name": "MinterAdded",
      "type": "event"
    },
    {
      "anonymous": false,
      "inputs": [
        {
          "indexed": true,
          "internalType": "address",
          "name": "account",
          "type": "address"
        }
      ],
      "name": "MinterRemoved",
      "type": "event"
    },
    {
      "anonymous": false,
      "inputs": [
        {
          "indexed": true,
          "internalType": "address",
          "name": "previousOwner",
          "type": "address"
        },
        {
          "indexed": true,
          "internalType": "address",
          "name": "newOwner",
          "type": "address"
        }
      ],
      "name": "OwnershipTransferred",
      "type": "event"
    },
    {
      "anonymous": false,
      "inputs": [
        {
          "indexed": true,
          "internalType": "address",
          "name": "operator",
          "type": "address"
        },
        {
          "indexed": true,
          "internalType": "address",
          "name": "from",
          "type": "address"
        },
        {
          "indexed": false,
          "internalType": "uint256",
          "name": "value",
          "type": "uint256"
        },
        {
          "indexed": false,
          "internalType": "bytes",
          "name": "data",
          "type": "bytes"
        }
      ],
      "name": "Redeemed",
      "type": "event"
    },
    {
      "anonymous": false,
      "inputs": [
        {
          "indexed": true,
          "internalType": "bytes32",
          "name": "partition",
          "type": "bytes32"
        },
        {
          "indexed": true,
          "internalType": "address",
          "name": "operator",
          "type": "address"
        },
        {
          "indexed": true,
          "internalType": "address",
          "name": "from",
          "type": "address"
        },
        {
          "indexed": false,
          "internalType": "uint256",
          "name": "value",
          "type": "uint256"
        },
        {
          "indexed": false,
          "internalType": "bytes",
          "name": "operatorData",
          "type": "bytes"
        }
      ],
      "name": "RedeemedByPartition",
      "type": "event"
    },
    {
      "anonymous": false,
      "inputs": [
        {
          "indexed": true,
          "internalType": "address",
          "name": "operator",
          "type": "address"
        },
        {
          "indexed": true,
          "internalType": "address",
          "name": "tokenHolder",
          "type": "address"
        }
      ],
      "name": "RevokedOperator",
      "type": "event"
    },
    {
      "anonymous": false,
      "inputs": [
        {
          "indexed": true,
          "internalType": "bytes32",
          "name": "partition",
          "type": "bytes32"
        },
        {
          "indexed": true,
          "internalType": "address",
          "name": "operator",
          "type": "address"
        },
        {
          "indexed": true,
          "internalType": "address",
          "name": "tokenHolder",
          "type": "address"
        }
      ],
      "name": "RevokedOperatorByPartition",
      "type": "event"
    },
    {
      "anonymous": false,
      "inputs": [
        {
          "indexed": true,
          "internalType": "address",
          "name": "from",
          "type": "address"
        },
        {
          "indexed": true,
          "internalType": "address",
          "name": "to",
          "type": "address"
        },
        {
          "indexed": false,
          "internalType": "uint256",
          "name": "value",
          "type": "uint256"
        }
      ],
      "name": "Transfer",
      "type": "event"
    },
    {
      "anonymous": false,
      "inputs": [
        {
          "indexed": true,
          "internalType": "bytes32",
          "name": "fromPartition",
          "type": "bytes32"
        },
        {
          "indexed": false,
          "internalType": "address",
          "name": "operator",
          "type": "address"
        },
        {
          "indexed": true,
          "internalType": "address",
          "name": "from",
          "type": "address"
        },
        {
          "indexed": true,
          "internalType": "address",
          "name": "to",
          "type": "address"
        },
        {
          "indexed": false,
          "internalType": "uint256",
          "name": "value",
          "type": "uint256"
        },
        {
          "indexed": false,
          "internalType": "bytes",
          "name": "data",
          "type": "bytes"
        },
        {
          "indexed": false,
          "internalType": "bytes",
          "name": "operatorData",
          "type": "bytes"
        }
      ],
      "name": "TransferByPartition",
      "type": "event"
    },
    {
      "inputs": [
        {
          "internalType": "address",
          "name": "account",
          "type": "address"
        }
      ],
      "name": "addMinter",
      "outputs": [],
      "stateMutability": "nonpayable",
      "type": "function"
    },
    {
      "inputs": [
        {
          "internalType": "address",
          "name": "owner",
          "type": "address"
        },
        {
          "internalType": "address",
          "name": "spender",
          "type": "address"
        }
      ],
      "name": "allowance",
      "outputs": [
        {
          "internalType": "uint256",
          "name": "",
          "type": "uint256"
        }
      ],
      "stateMutability": "view",
      "type": "function"
    },
    {
      "inputs": [
        {
          "internalType": "bytes32",
          "name": "partition",
          "type": "bytes32"
        },
        {
          "internalType": "address",
          "name": "owner",
          "type": "address"
        },
        {
          "internalType": "address",
          "name": "spender",
          "type": "address"
        }
      ],
      "name": "allowanceByPartition",
      "outputs": [
        {
          "internalType": "uint256",
          "name": "",
          "type": "uint256"
        }
      ],
      "stateMutability": "view",
      "type": "function"
    },
    {
      "inputs": [
        {
          "internalType": "address",
          "name": "spender",
          "type": "address"
        },
        {
          "internalType": "uint256",
          "name": "value",
          "type": "uint256"
        }
      ],
      "name": "approve",
      "outputs": [
        {
          "internalType": "bool",
          "name": "",
          "type": "bool"
        }
      ],
      "stateMutability": "nonpayable",
      "type": "function"
    },
    {
      "inputs": [
        {
          "internalType": "bytes32",
          "name": "partition",
          "type": "bytes32"
        },
        {
          "internalType": "address",
          "name": "spender",
          "type": "address"
        },
        {
          "internalType": "uint256",
          "name": "value",
          "type": "uint256"
        }
      ],
      "name": "approveByPartition",
      "outputs": [
        {
          "internalType": "bool",
          "name": "",
          "type": "bool"
        }
      ],
      "stateMutability": "nonpayable",
      "type": "function"
    },
    {
      "inputs": [
        {
          "internalType": "address",
          "name": "operator",
          "type": "address"
        }
      ],
      "name": "authorizeOperator",
      "outputs": [],
      "stateMutability": "nonpayable",
      "type": "function"
    },
    {
      "inputs": [
        {
          "internalType": "bytes32",
          "name": "partition",
          "type": "bytes32"
        },
        {
          "internalType": "address",
          "name": "operator",
          "type": "address"
        }
      ],
      "name": "authorizeOperatorByPartition",
      "outputs": [],
      "stateMutability": "nonpayable",
      "type": "function"
    },
    {
      "inputs": [
        {
          "internalType": "address",
          "name": "tokenHolder",
          "type": "address"
        }
      ],
      "name": "balanceOf",
      "outputs": [
        {
          "internalType": "uint256",
          "name": "",
          "type": "uint256"
        }
      ],
      "stateMutability": "view",
      "type": "function"
    },
    {
      "inputs": [
        {
          "internalType": "bytes32",
          "name": "partition",
          "type": "bytes32"
        },
        {
          "internalType": "address",
          "name": "tokenHolder",
          "type": "address"
        }
      ],
      "name": "balanceOfByPartition",
      "outputs": [
        {
          "internalType": "uint256",
          "name": "",
          "type": "uint256"
        }
      ],
      "stateMutability": "view",
      "type": "function"
    },
    {
      "inputs": [
        {
          "internalType": "bytes32",
          "name": "interfaceHash",
          "type": "bytes32"
        },
        {
          "internalType": "address",
          "name": "",
          "type": "address"
        }
      ],
      "name": "canImplementInterfaceForAddress",
      "outputs": [
        {
          "internalType": "bytes32",
          "name": "",
          "type": "bytes32"
        }
      ],
      "stateMutability": "view",
      "type": "function"
    },
    {
      "inputs": [
        {
          "internalType": "bytes32",
          "name": "partition",
          "type": "bytes32"
        },
        {
          "internalType": "address",
          "name": "from",
          "type": "address"
        },
        {
          "internalType": "address",
          "name": "to",
          "type": "address"
        },
        {
          "internalType": "uint256",
          "name": "value",
          "type": "uint256"
        },
        {
          "internalType": "bytes",
          "name": "data",
          "type": "bytes"
        },
        {
          "internalType": "bytes",
          "name": "operatorData",
          "type": "bytes"
        }
      ],
      "name": "canOperatorTransferByPartition",
      "outputs": [
        {
          "internalType": "bytes1",
          "name": "",
          "type": "bytes1"
        },
        {
          "internalType": "bytes32",
          "name": "",
          "type": "bytes32"
        },
        {
          "internalType": "bytes32",
          "name": "",
          "type": "bytes32"
        }
      ],
      "stateMutability": "view",
      "type": "function"
    },
    {
      "inputs": [
        {
          "internalType": "bytes32",
          "name": "partition",
          "type": "bytes32"
        },
        {
          "internalType": "address",
          "name": "to",
          "type": "address"
        },
        {
          "internalType": "uint256",
          "name": "value",
          "type": "uint256"
        },
        {
          "internalType": "bytes",
          "name": "data",
          "type": "bytes"
        }
      ],
      "name": "canTransferByPartition",
      "outputs": [
        {
          "internalType": "bytes1",
          "name": "",
          "type": "bytes1"
        },
        {
          "internalType": "bytes32",
          "name": "",
          "type": "bytes32"
        },
        {
          "internalType": "bytes32",
          "name": "",
          "type": "bytes32"
        }
      ],
      "stateMutability": "view",
      "type": "function"
    },
    {
      "inputs": [],
      "name": "controllers",
      "outputs": [
        {
          "internalType": "address[]",
          "name": "",
          "type": "address[]"
        }
      ],
      "stateMutability": "view",
      "type": "function"
    },
    {
      "inputs": [
        {
          "internalType": "bytes32",
          "name": "partition",
          "type": "bytes32"
        }
      ],
      "name": "controllersByPartition",
      "outputs": [
        {
          "internalType": "address[]",
          "name": "",
          "type": "address[]"
        }
      ],
      "stateMutability": "view",
      "type": "function"
    },
    {
      "inputs": [],
      "name": "decimals",
      "outputs": [
        {
          "internalType": "uint8",
          "name": "",
          "type": "uint8"
        }
      ],
      "stateMutability": "pure",
      "type": "function"
    },
    {
      "inputs": [],
      "name": "domainName",
      "outputs": [
        {
          "internalType": "string",
          "name": "",
          "type": "string"
        }
      ],
      "stateMutability": "view",
      "type": "function"
    },
    {
      "inputs": [],
      "name": "domainSeparator",
      "outputs": [
        {
          "internalType": "bytes32",
          "name": "",
          "type": "bytes32"
        }
      ],
      "stateMutability": "nonpayable",
      "type": "function"
    },
    {
      "inputs": [],
      "name": "domainVersion",
      "outputs": [
        {
          "internalType": "string",
          "name": "",
          "type": "string"
        }
      ],
      "stateMutability": "pure",
      "type": "function"
    },
    {
      "inputs": [],
      "name": "generateDomainSeparator",
      "outputs": [
        {
          "internalType": "bytes32",
          "name": "",
          "type": "bytes32"
        }
      ],
      "stateMutability": "view",
      "type": "function"
    },
    {
      "inputs": [],
      "name": "getAllDocuments",
      "outputs": [
        {
          "internalType": "bytes32[]",
          "name": "",
          "type": "bytes32[]"
        }
      ],
      "stateMutability": "view",
      "type": "function"
    },
    {
      "inputs": [],
      "name": "getDefaultPartitions",
      "outputs": [
        {
          "internalType": "bytes32[]",
          "name": "",
          "type": "bytes32[]"
        }
      ],
      "stateMutability": "view",
      "type": "function"
    },
    {
      "inputs": [
        {
          "internalType": "bytes32",
          "name": "documentName",
          "type": "bytes32"
        }
      ],
      "name": "getDocument",
      "outputs": [
        {
          "internalType": "string",
          "name": "",
          "type": "string"
        },
        {
          "internalType": "bytes32",
          "name": "",
          "type": "bytes32"
        },
        {
          "internalType": "uint256",
          "name": "",
          "type": "uint256"
        }
      ],
      "stateMutability": "view",
      "type": "function"
    },
    {
      "inputs": [],
      "name": "granularity",
      "outputs": [
        {
          "internalType": "uint256",
          "name": "",
          "type": "uint256"
        }
      ],
      "stateMutability": "view",
      "type": "function"
    },
    {
      "inputs": [],
      "name": "isControllable",
      "outputs": [
        {
          "internalType": "bool",
          "name": "",
          "type": "bool"
        }
      ],
      "stateMutability": "view",
      "type": "function"
    },
    {
      "inputs": [],
      "name": "isIssuable",
      "outputs": [
        {
          "internalType": "bool",
          "name": "",
          "type": "bool"
        }
      ],
      "stateMutability": "view",
      "type": "function"
    },
    {
      "inputs": [
        {
          "internalType": "address",
          "name": "account",
          "type": "address"
        }
      ],
      "name": "isMinter",
      "outputs": [
        {
          "internalType": "bool",
          "name": "",
          "type": "bool"
        }
      ],
      "stateMutability": "view",
      "type": "function"
    },
    {
      "inputs": [
        {
          "internalType": "address",
          "name": "operator",
          "type": "address"
        },
        {
          "internalType": "address",
          "name": "tokenHolder",
          "type": "address"
        }
      ],
      "name": "isOperator",
      "outputs": [
        {
          "internalType": "bool",
          "name": "",
          "type": "bool"
        }
      ],
      "stateMutability": "view",
      "type": "function"
    },
    {
      "inputs": [
        {
          "internalType": "bytes32",
          "name": "partition",
          "type": "bytes32"
        },
        {
          "internalType": "address",
          "name": "operator",
          "type": "address"
        },
        {
          "internalType": "address",
          "name": "tokenHolder",
          "type": "address"
        }
      ],
      "name": "isOperatorForPartition",
      "outputs": [
        {
          "internalType": "bool",
          "name": "",
          "type": "bool"
        }
      ],
      "stateMutability": "view",
      "type": "function"
    },
    {
      "inputs": [
        {
          "internalType": "address",
          "name": "tokenHolder",
          "type": "address"
        },
        {
          "internalType": "uint256",
          "name": "value",
          "type": "uint256"
        },
        {
          "internalType": "bytes",
          "name": "data",
          "type": "bytes"
        }
      ],
      "name": "issue",
      "outputs": [],
      "stateMutability": "nonpayable",
      "type": "function"
    },
    {
      "inputs": [
        {
          "internalType": "bytes32",
          "name": "partition",
          "type": "bytes32"
        },
        {
          "internalType": "address",
          "name": "tokenHolder",
          "type": "address"
        },
        {
          "internalType": "uint256",
          "name": "value",
          "type": "uint256"
        },
        {
          "internalType": "bytes",
          "name": "data",
          "type": "bytes"
        }
      ],
      "name": "issueByPartition",
      "outputs": [],
      "stateMutability": "nonpayable",
      "type": "function"
    },
    {
      "inputs": [
        {
          "internalType": "address",
          "name": "newContractAddress",
          "type": "address"
        },
        {
          "internalType": "bool",
          "name": "definitive",
          "type": "bool"
        }
      ],
      "name": "migrate",
      "outputs": [],
      "stateMutability": "nonpayable",
      "type": "function"
    },
    {
      "inputs": [],
      "name": "name",
      "outputs": [
        {
          "internalType": "string",
          "name": "",
          "type": "string"
        }
      ],
      "stateMutability": "view",
      "type": "function"
    },
    {
      "inputs": [
        {
          "internalType": "bytes32",
          "name": "partition",
          "type": "bytes32"
        },
        {
          "internalType": "address",
          "name": "tokenHolder",
          "type": "address"
        },
        {
          "internalType": "uint256",
          "name": "value",
          "type": "uint256"
        },
        {
          "internalType": "bytes",
          "name": "operatorData",
          "type": "bytes"
        }
      ],
      "name": "operatorRedeemByPartition",
      "outputs": [],
      "stateMutability": "nonpayable",
      "type": "function"
    },
    {
      "inputs": [
        {
          "internalType": "bytes32",
          "name": "partition",
          "type": "bytes32"
        },
        {
          "internalType": "address",
          "name": "from",
          "type": "address"
        },
        {
          "internalType": "address",
          "name": "to",
          "type": "address"
        },
        {
          "internalType": "uint256",
          "name": "value",
          "type": "uint256"
        },
        {
          "internalType": "bytes",
          "name": "data",
          "type": "bytes"
        },
        {
          "internalType": "bytes",
          "name": "operatorData",
          "type": "bytes"
        }
      ],
      "name": "operatorTransferByPartition",
      "outputs": [
        {
          "internalType": "bytes32",
          "name": "",
          "type": "bytes32"
        }
      ],
      "stateMutability": "nonpayable",
      "type": "function"
    },
    {
      "inputs": [],
      "name": "owner",
      "outputs": [
        {
          "internalType": "address",
          "name": "",
          "type": "address"
        }
      ],
      "stateMutability": "view",
      "type": "function"
    },
    {
      "inputs": [
        {
          "internalType": "address",
          "name": "tokenHolder",
          "type": "address"
        }
      ],
      "name": "partitionsOf",
      "outputs": [
        {
          "internalType": "bytes32[]",
          "name": "",
          "type": "bytes32[]"
        }
      ],
      "stateMutability": "view",
      "type": "function"
    },
    {
      "inputs": [
        {
          "internalType": "uint256",
          "name": "value",
          "type": "uint256"
        },
        {
          "internalType": "bytes",
          "name": "data",
          "type": "bytes"
        }
      ],
      "name": "redeem",
      "outputs": [],
      "stateMutability": "nonpayable",
      "type": "function"
    },
    {
      "inputs": [
        {
          "internalType": "bytes32",
          "name": "partition",
          "type": "bytes32"
        },
        {
          "internalType": "uint256",
          "name": "value",
          "type": "uint256"
        },
        {
          "internalType": "bytes",
          "name": "data",
          "type": "bytes"
        }
      ],
      "name": "redeemByPartition",
      "outputs": [],
      "stateMutability": "nonpayable",
      "type": "function"
    },
    {
      "inputs": [
        {
          "internalType": "address",
          "name": "from",
          "type": "address"
        },
        {
          "internalType": "uint256",
          "name": "value",
          "type": "uint256"
        },
        {
          "internalType": "bytes",
          "name": "data",
          "type": "bytes"
        }
      ],
      "name": "redeemFrom",
      "outputs": [],
      "stateMutability": "nonpayable",
      "type": "function"
    },
    {
      "inputs": [
        {
          "internalType": "bytes32",
          "name": "documentName",
          "type": "bytes32"
        }
      ],
      "name": "removeDocument",
      "outputs": [],
      "stateMutability": "nonpayable",
      "type": "function"
    },
    {
      "inputs": [
        {
          "internalType": "address",
          "name": "account",
          "type": "address"
        }
      ],
      "name": "removeMinter",
      "outputs": [],
      "stateMutability": "nonpayable",
      "type": "function"
    },
    {
      "inputs": [],
      "name": "renounceControl",
      "outputs": [],
      "stateMutability": "nonpayable",
      "type": "function"
    },
    {
      "inputs": [],
      "name": "renounceIssuance",
      "outputs": [],
      "stateMutability": "nonpayable",
      "type": "function"
    },
    {
      "inputs": [],
      "name": "renounceMinter",
      "outputs": [],
      "stateMutability": "nonpayable",
      "type": "function"
    },
    {
      "inputs": [],
      "name": "renounceOwnership",
      "outputs": [],
      "stateMutability": "nonpayable",
      "type": "function"
    },
    {
      "inputs": [
        {
          "internalType": "address",
          "name": "operator",
          "type": "address"
        }
      ],
      "name": "revokeOperator",
      "outputs": [],
      "stateMutability": "nonpayable",
      "type": "function"
    },
    {
      "inputs": [
        {
          "internalType": "bytes32",
          "name": "partition",
          "type": "bytes32"
        },
        {
          "internalType": "address",
          "name": "operator",
          "type": "address"
        }
      ],
      "name": "revokeOperatorByPartition",
      "outputs": [],
      "stateMutability": "nonpayable",
      "type": "function"
    },
    {
      "inputs": [
        {
          "internalType": "address[]",
          "name": "operators",
          "type": "address[]"
        }
      ],
      "name": "setControllers",
      "outputs": [],
      "stateMutability": "nonpayable",
      "type": "function"
    },
    {
      "inputs": [
        {
          "internalType": "bytes32[]",
          "name": "partitions",
          "type": "bytes32[]"
        }
      ],
      "name": "setDefaultPartitions",
      "outputs": [],
      "stateMutability": "nonpayable",
      "type": "function"
    },
    {
      "inputs": [
        {
          "internalType": "bytes32",
          "name": "documentName",
          "type": "bytes32"
        },
        {
          "internalType": "string",
          "name": "uri",
          "type": "string"
        },
        {
          "internalType": "bytes32",
          "name": "documentHash",
          "type": "bytes32"
        }
      ],
      "name": "setDocument",
      "outputs": [],
      "stateMutability": "nonpayable",
      "type": "function"
    },
    {
      "inputs": [
        {
          "internalType": "bytes32",
          "name": "partition",
          "type": "bytes32"
        },
        {
          "internalType": "address[]",
          "name": "operators",
          "type": "address[]"
        }
      ],
      "name": "setPartitionControllers",
      "outputs": [],
      "stateMutability": "nonpayable",
      "type": "function"
    },
    {
      "inputs": [
        {
          "internalType": "address",
          "name": "extension",
          "type": "address"
        },
        {
          "internalType": "string",
          "name": "interfaceLabel",
          "type": "string"
        },
        {
          "internalType": "bool",
          "name": "removeOldExtensionRoles",
          "type": "bool"
        },
        {
          "internalType": "bool",
          "name": "addMinterRoleForExtension",
          "type": "bool"
        },
        {
          "internalType": "bool",
          "name": "addControllerRoleForExtension",
          "type": "bool"
        }
      ],
      "name": "setTokenExtension",
      "outputs": [],
      "stateMutability": "nonpayable",
      "type": "function"
    },
    {
      "inputs": [],
      "name": "symbol",
      "outputs": [
        {
          "internalType": "string",
          "name": "",
          "type": "string"
        }
      ],
      "stateMutability": "view",
      "type": "function"
    },
    {
      "inputs": [],
      "name": "totalPartitions",
      "outputs": [
        {
          "internalType": "bytes32[]",
          "name": "",
          "type": "bytes32[]"
        }
      ],
      "stateMutability": "view",
      "type": "function"
    },
    {
      "inputs": [],
      "name": "totalSupply",
      "outputs": [
        {
          "internalType": "uint256",
          "name": "",
          "type": "uint256"
        }
      ],
      "stateMutability": "view",
      "type": "function"
    },
    {
      "inputs": [
        {
          "internalType": "bytes32",
          "name": "partition",
          "type": "bytes32"
        }
      ],
      "name": "totalSupplyByPartition",
      "outputs": [
        {
          "internalType": "uint256",
          "name": "",
          "type": "uint256"
        }
      ],
      "stateMutability": "view",
      "type": "function"
    },
    {
      "inputs": [
        {
          "internalType": "address",
          "name": "to",
          "type": "address"
        },
        {
          "internalType": "uint256",
          "name": "value",
          "type": "uint256"
        }
      ],
      "name": "transfer",
      "outputs": [
        {
          "internalType": "bool",
          "name": "",
          "type": "bool"
        }
      ],
      "stateMutability": "nonpayable",
      "type": "function"
    },
    {
      "inputs": [
        {
          "internalType": "bytes32",
          "name": "partition",
          "type": "bytes32"
        },
        {
          "internalType": "address",
          "name": "to",
          "type": "address"
        },
        {
          "internalType": "uint256",
          "name": "value",
          "type": "uint256"
        },
        {
          "internalType": "bytes",
          "name": "data",
          "type": "bytes"
        }
      ],
      "name": "transferByPartition",
      "outputs": [
        {
          "internalType": "bytes32",
          "name": "",
          "type": "bytes32"
        }
      ],
      "stateMutability": "nonpayable",
      "type": "function"
    },
    {
      "inputs": [
        {
          "internalType": "address",
          "name": "from",
          "type": "address"
        },
        {
          "internalType": "address",
          "name": "to",
          "type": "address"
        },
        {
          "internalType": "uint256",
          "name": "value",
          "type": "uint256"
        }
      ],
      "name": "transferFrom",
      "outputs": [
        {
          "internalType": "bool",
          "name": "",
          "type": "bool"
        }
      ],
      "stateMutability": "nonpayable",
      "type": "function"
    },
    {
      "inputs": [
        {
          "internalType": "address",
          "name": "from",
          "type": "address"
        },
        {
          "internalType": "address",
          "name": "to",
          "type": "address"
        },
        {
          "internalType": "uint256",
          "name": "value",
          "type": "uint256"
        },
        {
          "internalType": "bytes",
          "name": "data",
          "type": "bytes"
        }
      ],
      "name": "transferFromWithData",
      "outputs": [],
      "stateMutability": "nonpayable",
      "type": "function"
    },
    {
      "inputs": [
        {
          "internalType": "address",
          "name": "newOwner",
          "type": "address"
        }
      ],
      "name": "transferOwnership",
      "outputs": [],
      "stateMutability": "nonpayable",
      "type": "function"
    },
    {
      "inputs": [
        {
          "internalType": "address",
          "name": "to",
          "type": "address"
        },
        {
          "internalType": "uint256",
          "name": "value",
          "type": "uint256"
        },
        {
          "internalType": "bytes",
          "name": "data",
          "type": "bytes"
        }
      ],
      "name": "transferWithData",
      "outputs": [],
      "stateMutability": "nonpayable",
      "type": "function"
    }
  ],
  "bytecode": "0x60806040523480156200001157600080fd5b506040516200606738038062006067833981016040819052620000349162000dc4565b88888888886200004d620000476200033e565b62000342565b620000583362000392565b62000062620003e4565b5084516200007890600490602088019062000af5565b5083516200008e90600590602087019062000af5565b5060006007556001831015620000a357600080fd5b6006839055620000b38262000417565b8051620000c890601490602084019062000b84565b506008805462ff00001961ff001990911661010017166201000017905560408051808201909152600c81526b22a921989a18182a37b5b2b760a11b6020808301919091526200012391903090620023cf6200052c821b17901c565b6200015c6040518060400160405280600a81526020016922a92199182a37b5b2b760b11b815250306200052c60201b620023cf1760201c565b620001966040518060400160405280600c81526020016b22a921989a18182a37b5b2b760a11b815250620005cf60201b6200246c1760201c565b620001ce6040518060400160405280600a81526020016922a92199182a37b5b2b760b11b815250620005cf60201b6200246c1760201c565b505050506001600160a01b038516159050620003145760405163118fa5db60e01b81526001600160a01b0385169063118fa5db906200021f90309085906001908190819081908f9060040162000f86565b600060405180830381600087803b1580156200023a57600080fd5b505af11580156200024f573d6000803e3d6000fd5b505050506001600160a01b03821615620002c85760405163c69664bb60e01b81526001600160a01b0385169063c69664bb9062000293903090869060040162000f30565b600060405180830381600087803b158015620002ae57600080fd5b505af1158015620002c3573d6000803e3d6000fd5b505050505b62000314846040518060400160405280601681526020017f45524331343030546f6b656e7356616c696461746f720000000000000000000081525060018060016200061e60201b60201c565b6001600160a01b038316156200032f576200032f83620006f8565b5050505050505050506200125b565b3390565b600080546001600160a01b038381166001600160a01b0319831681178455604051919092169283917f8be0079c531659141344cd1fd0a4f28419497f9722a3daafe3b4186f6b6457e09190a35050565b620003ad8160026200077e60201b620024b91790919060201c565b6040516001600160a01b038216907f6ae172837ea30b801fbfcdd4108aa1d5bf8ff775444fd70256b44e6bf3dfc3f690600090a250565b600080620003f1620007cf565b90506000620003ff620007d3565b60009283526003602052604090922082905550905090565b60005b6016548110156200049657600060176000601684815481106200044d57634e487b7160e01b600052603260045260246000fd5b6000918252602080832091909101546001600160a01b031683528201929092526040019020805460ff1916911515919091179055806200048d816200121d565b9150506200041a565b5060005b81518110156200051257600160176000848481518110620004cb57634e487b7160e01b600052603260045260246000fd5b6020908102919091018101516001600160a01b03168252810191909152604001600020805460ff19169115159190911790558062000509816200121d565b9150506200049a565b5080516200052890601690602084019062000bc1565b5050565b60008260405160200162000541919062000f12565b60408051601f198184030181529082905280516020909101206329965a1d60e01b82529150731820a4b7618bde71dce8cdc73aab6c95905fad24906329965a1d90620005969030908590879060040162000f63565b600060405180830381600087803b158015620005b157600080fd5b505af1158015620005c6573d6000803e3d6000fd5b50505050505050565b600180600083604051602001620005e7919062000f12565b60408051808303601f19018152918152815160209283012083529082019290925201600020805460ff191691151591909117905550565b60006200062c30866200085d565b90506001600160a01b03811615801590620006445750835b156200068757620006558162000922565b156200066657620006668162000947565b6001600160a01b0381166000908152601760205260409020805460ff191690555b6200069e85876200052c60201b620023cf1760201c565b828015620006b45750620006b28662000922565b155b15620006c557620006c58662000392565b8115620006f0576001600160a01b0386166000908152601760205260409020805460ff191660011790555b505050505050565b620007026200033e565b6001600160a01b03166200071562000999565b6001600160a01b031614620007475760405162461bcd60e51b81526004016200073e90620010e4565b60405180910390fd5b6001600160a01b038116620007705760405162461bcd60e51b81526004016200073e906200105d565b6200077b8162000342565b50565b6200078a8282620009a8565b15620007aa5760405162461bcd60e51b81526004016200073e9062001026565b6001600160a01b0316600090815260209190915260409020805460ff19166001179055565b4690565b600080620007e0620007cf565b905060007f8b73c3c69bb8fe3d512ecc4cf759cc79239f7b179b0ffacaa9a75d522b39400f6200080f620009f3565b80516020909101206200082162000a8d565b80516020918201206040516200083e949392879130910162000ffa565b60408051601f1981840301815291905280516020909101209250505090565b6000808260405160200162000873919062000f12565b60408051601f1981840301815290829052805160209091012063555ddc6560e11b82529150731820a4b7618bde71dce8cdc73aab6c95905fad249063aabbb8ca90620008c6908790859060040162000f4a565b60206040518083038186803b158015620008df57600080fd5b505afa158015620008f4573d6000803e3d6000fd5b505050506040513d601f19601f820116820180604052508101906200091a919062000da0565b949350505050565b60006200093f826002620009a860201b620025051790919060201c565b90505b919050565b6200096281600262000aa860201b6200254d1790919060201c565b6040516001600160a01b038216907fe94479a9f7e1952cc78f2d6baab678adc1b772d936c6583def489e524cb6669290600090a250565b6000546001600160a01b031690565b60006001600160a01b038216620009d35760405162461bcd60e51b81526004016200073e9062001119565b506001600160a01b03166000908152602091909152604090205460ff1690565b60606004805462000a0490620011e0565b80601f016020809104026020016040519081016040528092919081815260200182805462000a3290620011e0565b801562000a835780601f1062000a575761010080835404028352916020019162000a83565b820191906000526020600020905b81548152906001019060200180831162000a6557829003601f168201915b5050505050905090565b6040805180820190915260018152603160f81b602082015290565b62000ab48282620009a8565b62000ad35760405162461bcd60e51b81526004016200073e90620010a3565b6001600160a01b0316600090815260209190915260409020805460ff19169055565b82805462000b0390620011e0565b90600052602060002090601f01602090048101928262000b27576000855562000b72565b82601f1062000b4257805160ff191683800117855562000b72565b8280016001018555821562000b72579182015b8281111562000b7257825182559160200191906001019062000b55565b5062000b8092915062000c19565b5090565b82805482825590600052602060002090810192821562000b72579160200282018281111562000b7257825182559160200191906001019062000b55565b82805482825590600052602060002090810192821562000b72579160200282015b8281111562000b7257825182546001600160a01b0319166001600160a01b0390911617825560209092019160019091019062000be2565b5b8082111562000b80576000815560010162000c1a565b80516001600160a01b03811681146200094257600080fd5b600082601f83011262000c59578081fd5b8151602062000c7262000c6c8362001187565b6200115b565b828152818101908583018385028701840188101562000c8f578586fd5b855b8581101562000cb85762000ca58262000c30565b8452928401929084019060010162000c91565b5090979650505050505050565b600082601f83011262000cd6578081fd5b8151602062000ce962000c6c8362001187565b828152818101908583018385028701840188101562000d06578586fd5b855b8581101562000cb85781518452928401929084019060010162000d08565b8051600381106200094257600080fd5b600082601f83011262000d47578081fd5b81516001600160401b0381111562000d635762000d6362001245565b62000d78601f8201601f19166020016200115b565b81815284602083860101111562000d8d578283fd5b6200091a826020830160208701620011ad565b60006020828403121562000db2578081fd5b62000dbd8262000c30565b9392505050565b60008060008060008060008060006101208a8c03121562000de3578485fd5b89516001600160401b038082111562000dfa578687fd5b62000e088d838e0162000d36565b9a5060208c015191508082111562000e1e578687fd5b62000e2c8d838e0162000d36565b995060408c0151985060608c015191508082111562000e49578687fd5b62000e578d838e0162000c48565b975060808c015191508082111562000e6d578687fd5b5062000e7c8c828d0162000cc5565b95505062000e8d60a08b0162000c30565b935062000e9d60c08b0162000c30565b925062000ead60e08b0162000c30565b915062000ebe6101008b0162000d26565b90509295985092959850929598565b6000815180845260208085019450808401835b8381101562000f075781516001600160a01b03168752958201959082019060010162000ee0565b509495945050505050565b6000825162000f26818460208701620011ad565b9190910192915050565b6001600160a01b0392831681529116602082015260400190565b6001600160a01b03929092168252602082015260400190565b6001600160a01b0393841681526020810192909252909116604082015260600190565b6001600160a01b038816815260006003881062000fb157634e487b7160e01b81526021600452602481fd5b87602083015286151560408301528515156060830152841515608083015283151560a083015260e060c083015262000fed60e083018462000ecd565b9998505050505050505050565b9485526020850193909352604084019190915260608301526001600160a01b0316608082015260a00190565b6020808252601f908201527f526f6c65733a206163636f756e7420616c72656164792068617320726f6c6500604082015260600190565b60208082526026908201527f4f776e61626c653a206e6577206f776e657220697320746865207a65726f206160408201526564647265737360d01b606082015260800190565b60208082526021908201527f526f6c65733a206163636f756e7420646f6573206e6f74206861766520726f6c6040820152606560f81b606082015260800190565b6020808252818101527f4f776e61626c653a2063616c6c6572206973206e6f7420746865206f776e6572604082015260600190565b60208082526022908201527f526f6c65733a206163636f756e7420697320746865207a65726f206164647265604082015261737360f01b606082015260800190565b6040518181016001600160401b03811182821017156200117f576200117f62001245565b604052919050565b60006001600160401b03821115620011a357620011a362001245565b5060209081020190565b60005b83811015620011ca578181015183820152602001620011b0565b83811115620011da576000848401525b50505050565b600281046001821680620011f557607f821691505b602082108114156200121757634e487b7160e01b600052602260045260246000fd5b50919050565b60006000198214156200123e57634e487b7160e01b81526011600452602481fd5b5060010190565b634e487b7160e01b600052604160045260246000fd5b614dfc806200126b6000396000f3fe608060405234801561001057600080fd5b50600436106103ba5760003560e01c80638c0dee9c116101f4578063aa271e1a1161011a578063e77c646d116100ad578063f2fde38b1161007c578063f2fde38b146107b8578063f3d490db146107cb578063f698da25146107de578063fad8b32a146107e6576103ba565b8063e77c646d1461076c578063ea74838a1461077f578063ec9a6e8714610792578063ee532f31146107a5576103ba565b8063bcfdc0cf116100e9578063bcfdc0cf14610736578063c35018481461073e578063ca281fd914610751578063dd62ed3e14610759576103ba565b8063aa271e1a146106db578063b10d6b41146106ee578063b6363cf214610710578063bb3acde914610723576103ba565b8063983b2d5611610192578063a26734dc11610161578063a26734dc1461069a578063a6f4f105146106ad578063a8082cb0146106c0578063a9059cbb146106c8576103ba565b8063983b2d5614610664578063986502751461067757806398ddcec71461067f5780639fa5f50b14610692576103ba565b8063933964c7116101ce578063933964c714610623578063959b8c3f1461063657806395d89b41146106495780639675193c14610651576103ba565b80638c0dee9c146105e85780638da5cb5b146105fb5780639212712614610610576103ba565b806330e82803116102e45780636c30d17011610277578063740ab8f411610246578063740ab8f4146105ad5780637cc0c3a7146105c0578063861ed3ea146105d5578063895d7386146103d4576103ba565b80636c30d170146105775780636d77cad61461057f57806370a0823114610592578063715018a6146105a5576103ba565b806362eb0068116102b357806362eb00681461051a57806367c849191461052d57806369598efe146105405780636c23c7b014610555576103ba565b806330e82803146104e2578063313ce567146104f55780634c783bf51461050a578063556f0dc714610512576103ba565b806317ec83ca1161035c578063249cb3fa1161032b578063249cb3fa146104a15780632535f762146104b45780632f1cae85146104c75780633092afd5146104cf576103ba565b806317ec83ca1461045e57806318160ddd1461047e5780631d43e1c01461048657806323b872dd1461048e576103ba565b8063103ef9e111610398578063103ef9e11461041257806314d1e62f14610425578063168ecec51461043857806316e1aed41461044b576103ba565b8063010648ca146103bf57806306fdde03146103d4578063095ea7b3146103f2575b600080fd5b6103d26103cd366004614582565b6107f9565b005b6103dc610933565b6040516103e99190614969565b60405180910390f35b61040561040036600461429d565b6109c6565b6040516103e991906147f1565b6103d26104203660046143e1565b610a63565b6104056104333660046144ea565b610ac7565b6103d26104463660046143e1565b610b65565b6103d2610459366004614539565b610bc6565b61047161046c366004614405565b610c47565b6040516103e9919061481e565b610471610c77565b6103dc610c7d565b61040561049c366004614135565b610c98565b6104716104af3660046143e1565b610dba565b6103d26104c23660046142c8565b610e05565b610405610e4e565b6103d26104dd3660046140c5565b610e5d565b6104716104f03660046143e1565b610ea5565b6104fd610eca565b6040516103e99190614c9d565b610405610ecf565b610471610edd565b6103d26105283660046145d2565b610ee3565b6103d261053b366004614510565b610f34565b610548610fe2565b6040516103e991906147b9565b610568610563366004614446565b611039565b6040516103e9939291906147fc565b6103d2611124565b61040561058d366004614405565b611171565b6104716105a03660046140c5565b611186565b6103d26111a5565b6105486105bb3660046140c5565b6111f0565b6105c861125c565b6040516103e9919061476c565b6105c86105e33660046143c9565b6112bd565b6104716105f6366004614446565b611328565b6106036114cd565b6040516103e991906146d8565b61056861061e366004614510565b6114dc565b6103d26106313660046141e5565b61158c565b6103d26106443660046140c5565b6115d9565b6103dc611648565b6103d261065f3660046142c8565b611657565b6103d26106723660046140c5565b611793565b6103d26117d8565b6103d261068d366004614510565b6117e1565b610548611952565b6104716106a83660046143c9565b6119a8565b6103d26106bb366004614219565b6119ba565b610471611a46565b6104056106d636600461429d565b611ac7565b6104056106e93660046140c5565b611aee565b6107016106fc3660046143c9565b611afb565b6040516103e99392919061499e565b61040561071e3660046140fd565b611bd9565b6103d26107313660046142c8565b611bec565b610548611cde565b6103d261074c3660046143c9565b611d34565b6103d2611fcc565b6104716107673660046140fd565b612018565b6103d261077a36600461460a565b612043565b6103d261078d366004614321565b612085565b6103d26107a0366004614360565b612100565b6103d26107b3366004614175565b61214b565b6103d26107c63660046140c5565b612288565b6104716107d9366004614510565b6122f6565b610471612354565b6103d26107f43660046140c5565b612363565b3360009081526017602052604090205460ff1661081557600080fd5b604051806060016040528084848080601f0160208091040260200160405190810160405280939291908181526020018383808284376000920182905250938552505050602080830185905242604093840152878252600b815291902082518051919261088692849290910190613ec9565b5060208281015160018301556040928301516002909201919091556000838152600c90915220546108f157600d80546001810182557fd7b6990105719101dabeb77144f2a3385c8033acd3af97e9423a695e81ad1eb501829055546000828152600c60205260409020555b837fb4c22d60cd550a815744f04e3ff5278bf19684565ee00e2b084041b6024bd6f684848460405161092593929190614945565b60405180910390a250505050565b60606004805461094290614d45565b80601f016020809104026020016040519081016040528092919081815260200182805461096e90614d45565b80156109bb5780601f10610990576101008083540402835291602001916109bb565b820191906000526020600020905b81548152906001019060200180831161099e57829003601f168201915b505050505090505b90565b60006001600160a01b0383166109f75760405162461bcd60e51b81526004016109ee90614ac5565b60405180910390fd5b336000818152600a602090815260408083206001600160a01b03881680855292529182902085905590519091907f8c5be1e5ebec7d5bd14f71427d1e84f3dd0314c0f7b2291e5b200ac8c7c3b92590610a5190869061481e565b60405180910390a35060015b92915050565b33600081815260196020908152604080832086845282528083206001600160a01b0386168085529252808320805460ff1916600117905551909185917f3646a897c70797ecc134b0adc32f471b07bf1d6f451133b0384badab531e3fd69190a45050565b60006001600160a01b038316610aef5760405162461bcd60e51b81526004016109ee90614ac5565b6000848152601860209081526040808320338085529083528184206001600160a01b0388168086529352928190208590555190919086907ff061499aa77c2f6f5e25e34955a06623705344a88256cc861a121ec0bce5cfec90610b5390879061481e565b60405180910390a45060019392505050565b33600081815260196020908152604080832086845282528083206001600160a01b0386168085529252808320805460ff1916905551909185917f3b287c4f1bab4df949b33bceacef984f544dc5d5479930d00e4ee8c9d8dd96f29190a45050565b610bce612595565b6001600160a01b0316610bdf6114cd565b6001600160a01b031614610c055760405162461bcd60e51b81526004016109ee90614b5a565b610c428383838080602002602001604051908101604052809392919081815260200183836020028082843760009201919091525061259992505050565b505050565b60009283526018602090815260408085206001600160a01b03948516865282528085209290931684525290205490565b60075490565b6040805180820190915260018152603160f81b602082015290565b6000610ca433856126d8565b80610cd257506001600160a01b0384166000908152600a602090815260408083203384529091529020548211155b610cee5760405162461bcd60e51b81526004016109ee90614bd1565b6001600160a01b0384166000908152600a602090815260408083203384529091529020548211610d6f576001600160a01b0384166000908152600a60209081526040808320338452909152902054610d469083612757565b6001600160a01b0385166000908152600a60209081526040808320338452909152902055610d94565b6001600160a01b0384166000908152600a602090815260408083203384529091528120555b610db03385858560405180602001604052806000815250612763565b5060019392505050565b60008281526001602052604081205460ff1615610dfd57604051602001610de0906146b8565b604051602081830303815290604052805190602001209050610a5d565b506000610a5d565b610e483333868686868080601f01602080910402602001604051908101604052809392919081815260200183838082843760009201919091525061276392505050565b50505050565b60085462010000900460ff1690565b610e6633611aee565b80610e905750610e74612595565b6001600160a01b0316610e856114cd565b6001600160a01b0316145b610e9957600080fd5b610ea2816128d2565b50565b6001600160a01b03166000908152601360209081526040808320938352929052205490565b601290565b600854610100900460ff1690565b60065490565b610e488433338686868080601f016020809104026020016040519081016040528093929190818152602001838380828437600092018290525060408051602081019091529081529250612914915050565b610f3d33611aee565b80610f675750610f4b612595565b6001600160a01b0316610f5c6114cd565b6001600160a01b0316145b610f7057600080fd5b60085462010000900460ff16610f985760405162461bcd60e51b81526004016109ee90614afd565b610fdb8533868686868080601f0160208091040260200160405190810160405280939291908181526020018383808284376000920191909152506129e492505050565b5050505050565b6060600e8054806020026020016040519081016040528092919081815260200182805480156109bb57602002820191906000526020600020905b81548152602001906001019080831161101c575050505050905090565b600080600061110f611089638c0dee9c60e01b6000368080601f016020809104026020016040519081016040528093929190818152602001838380828437600092019190915250612a8e92505050565b8c338d8d8d8d8d8080601f016020809104026020016040519081016040528093929190818152602001838380828437600081840152601f19601f820116905080830192505050505050508c8c8080601f016020809104026020016040519081016040528093929190818152602001838380828437600092019190915250612be892505050565b9250925092505b985098509895505050505050565b61112c612595565b6001600160a01b031661113d6114cd565b6001600160a01b0316146111635760405162461bcd60e51b81526004016109ee90614b5a565b6008805462ff000019169055565b600061117e848484612cdb565b949350505050565b6001600160a01b0381166000908152600960205260409020545b919050565b6111ad612595565b6001600160a01b03166111be6114cd565b6001600160a01b0316146111e45760405162461bcd60e51b81526004016109ee90614b5a565b6111ee6000612d64565b565b6001600160a01b03811660009081526011602090815260409182902080548351818402810184019094528084526060939283018282801561125057602002820191906000526020600020905b81548152602001906001019080831161123c575b50505050509050919050565b606060168054806020026020016040519081016040528092919081815260200182805480156109bb57602002820191906000526020600020905b81546001600160a01b03168152600190910190602001808311611296575050505050905090565b6000818152601a602090815260409182902080548351818402810184019094528084526060939283018282801561125057602002820191906000526020600020905b81546001600160a01b031681526001909101906020018083116112ff5750505050509050919050565b600061133589338a612cdb565b8061136a575060008981526018602090815260408083206001600160a01b038c16845282528083203384529091529020548611155b6113865760405162461bcd60e51b81526004016109ee90614bd1565b60008981526018602090815260408083206001600160a01b038c1684528252808320338452909152902054861161141c5760008981526018602090815260408083206001600160a01b038c16845282528083203384529091529020546113ec9087612757565b60008a81526018602090815260408083206001600160a01b038d1684528252808320338452909152902055611448565b60008981526018602090815260408083206001600160a01b038c16845282528083203384529091528120555b6114c089338a8a8a8a8a8080601f01602080910402602001604051908101604052809392919081815260200183838082843760009201919091525050604080516020601f8e018190048102820181019092528c815292508c91508b9081908401838280828437600092019190915250612db492505050565b9998505050505050505050565b6000546001600160a01b031690565b600080600061157b61152c63f3d490db60e01b6000368080601f016020809104026020016040519081016040528093929190818152602001838380828437600092019190915250612a8e92505050565b8933338b8b8b8b8080601f016020809104026020016040519081016040528093929190818152602001838380828437600092018290525060408051602081019091529081529250612be8915050565b925092509250955095509592505050565b611594612595565b6001600160a01b03166115a56114cd565b6001600160a01b0316146115cb5760405162461bcd60e51b81526004016109ee90614b5a565b6115d58282612f0a565b5050565b6001600160a01b0381163314156115ef57600080fd5b6001600160a01b0381166000818152601560209081526040808320338085529252808320805460ff19166001179055519092917ff4caeb2d6ca8932a215a353d0703c326ec2d81fc68170f320eb2ab49e9df61f991a350565b60606005805461094290614d45565b61166133856126d8565b8061168f57506001600160a01b0384166000908152600a602090815260408083203384529091529020548311155b6116ab5760405162461bcd60e51b81526004016109ee90614bd1565b6001600160a01b0384166000908152600a60209081526040808320338452909152902054831161172c576001600160a01b0384166000908152600a602090815260408083203384529091529020546117039084612757565b6001600160a01b0385166000908152600a60209081526040808320338452909152902055611751565b6001600160a01b0384166000908152600a602090815260408083203384529091528120555b610e4833858585858080601f016020809104026020016040519081016040528093929190818152602001838380828437600092019190915250612f7b92505050565b61179c33611aee565b806117c657506117aa612595565b6001600160a01b03166117bb6114cd565b6001600160a01b0316145b6117cf57600080fd5b610ea2816130df565b6111ee336128d2565b6117ec853386612cdb565b80611821575060008581526018602090815260408083206001600160a01b038816845282528083203384529091529020548311155b61183d5760405162461bcd60e51b81526004016109ee90614ae1565b60008581526018602090815260408083206001600160a01b0388168452825280832033845290915290205483116118d35760008581526018602090815260408083206001600160a01b038816845282528083203384529091529020546118a39084612757565b60008681526018602090815260408083206001600160a01b038916845282528083203384529091529020556118ff565b60008581526018602090815260408083206001600160a01b038816845282528083203384529091528120555b610fdb853386866040518060200160405280600081525087878080601f01602080910402602001604051908101604052809392919081815260200183838082843760009201919091525061291492505050565b6060600d8054806020026020016040519081016040528092919081815260200182805480156109bb576020028201919060005260206000209081548152602001906001019080831161101c575050505050905090565b60009081526010602052604090205490565b6119c2612595565b6001600160a01b03166119d36114cd565b6001600160a01b0316146119f95760405162461bcd60e51b81526004016109ee90614b5a565b611a3e8686868080601f016020809104026020016040519081016040528093929190818152602001838380828437600092019190915250889250879150869050613121565b505050505050565b600080611a516131dd565b905060007f8b73c3c69bb8fe3d512ecc4cf759cc79239f7b179b0ffacaa9a75d522b39400f611a7e610933565b80519060200120611a8d610c7d565b8051602091820120604051611aa89493928791309101614827565b60408051601f1981840301815291905280516020909101209250505090565b6000611ae53333858560405180602001604052806000815250612763565b50600192915050565b6000610a5d600283612505565b6000818152600b602052604081208054606092918291611b1a90614d45565b15159050611b2757600080fd5b6000848152600b602052604090206001810154600282015482548390611b4c90614d45565b80601f0160208091040260200160405190810160405280929190818152602001828054611b7890614d45565b8015611bc55780601f10611b9a57610100808354040283529160200191611bc5565b820191906000526020600020905b815481529060010190602001808311611ba857829003601f168201915b505050505092509250925092509193909250565b6000611be583836126d8565b9392505050565b611bf533611aee565b80611c1f5750611c03612595565b6001600160a01b0316611c146114cd565b6001600160a01b0316145b611c2857600080fd5b60085462010000900460ff16611c505760405162461bcd60e51b81526004016109ee90614afd565b601454611c6f5760405162461bcd60e51b81526004016109ee90614afd565b610e486014600081548110611c9457634e487b7160e01b600052603260045260246000fd5b906000526020600020015433868686868080601f0160208091040260200160405190810160405280939291908181526020018383808284376000920191909152506129e492505050565b606060148054806020026020016040519081016040528092919081815260200182805480156109bb576020028201919060005260206000209081548152602001906001019080831161101c575050505050905090565b3360009081526017602052604090205460ff16611d635760405162461bcd60e51b81526004016109ee90614a16565b6000818152600b602052604090208054611d7c90614d45565b15159050611d9c5760405162461bcd60e51b81526004016109ee90614c25565b6000818152600b6020526040808220815160608101909252805482908290611dc390614d45565b80601f0160208091040260200160405190810160405280929190818152602001828054611def90614d45565b8015611e3c5780601f10611e1157610100808354040283529160200191611e3c565b820191906000526020600020905b815481529060010190602001808311611e1f57829003601f168201915b505050505081526020016001820154815260200160028201548152505090506000600c60008360200151815260200190815260200160002054905060008111611e975760405162461bcd60e51b81526004016109ee90614a9e565b600d805460009190611eab90600190614d02565b81548110611ec957634e487b7160e01b600052603260045260246000fd5b9060005260206000200154905080600d600184611ee69190614d02565b81548110611f0457634e487b7160e01b600052603260045260246000fd5b6000918252602080832090910192909255828152600c90915260409020829055600d805480611f4357634e487b7160e01b600052603160045260246000fd5b600082815260208082208301600019908101839055909201909255848101518252600c81526040808320839055868352600b909152812090611f858282613f4d565b506000600182018190556002909101558251602084015160405186927f3d9bba27d3e360d8c80645beed7e991454a8271bf6f269a24f7782be0f0d0654926109259261497c565b611fd4612595565b6001600160a01b0316611fe56114cd565b6001600160a01b03161461200b5760405162461bcd60e51b81526004016109ee90614b5a565b6008805461ff0019169055565b6001600160a01b039182166000908152600a6020908152604080832093909416825291909152205490565b610c4233338585858080601f016020809104026020016040519081016040528093929190818152602001838380828437600092019190915250612f7b92505050565b61208d612595565b6001600160a01b031661209e6114cd565b6001600160a01b0316146120c45760405162461bcd60e51b81526004016109ee90614b5a565b6115d58282808060200260200160405190810160405280939291908181526020018383602002808284376000920191909152506131e192505050565b612108612595565b6001600160a01b03166121196114cd565b6001600160a01b03161461213f5760405162461bcd60e51b81526004016109ee90614b5a565b610c4260148383613f89565b61215533866126d8565b8061218357506001600160a01b0385166000908152600a602090815260408083203384529091529020548311155b61219f5760405162461bcd60e51b81526004016109ee90614bd1565b6001600160a01b0385166000908152600a602090815260408083203384529091529020548311612220576001600160a01b0385166000908152600a602090815260408083203384529091529020546121f79084612757565b6001600160a01b0386166000908152600a60209081526040808320338452909152902055612245565b6001600160a01b0385166000908152600a602090815260408083203384529091528120555b610fdb3386868686868080601f01602080910402602001604051908101604052809392919081815260200183838082843760009201919091525061276392505050565b612290612595565b6001600160a01b03166122a16114cd565b6001600160a01b0316146122c75760405162461bcd60e51b81526004016109ee90614b5a565b6001600160a01b0381166122ed5760405162461bcd60e51b81526004016109ee90614a58565b610ea281612d64565b600061234a863333888888888080601f016020809104026020016040519081016040528093929190818152602001838380828437600092018290525060408051602081019091529081529250612db4915050565b9695505050505050565b600061235e6132e6565b905090565b6001600160a01b03811633141561237957600080fd5b6001600160a01b0381166000818152601560209081526040808320338085529252808320805460ff19169055519092917f50546e66e5f44d728365dc3908c63bc5cfeeab470722c1677e3073a6ac294aa191a350565b6000826040516020016123e2919061469c565b60408051601f198184030181529082905280516020909101206329965a1d60e01b82529150731820a4b7618bde71dce8cdc73aab6c95905fad24906329965a1d9061243590309085908790600401614705565b600060405180830381600087803b15801561244f57600080fd5b505af1158015612463573d6000803e3d6000fd5b50505050505050565b600180600083604051602001612482919061469c565b60408051808303601f19018152918152815160209283012083529082019290925201600020805460ff191691151591909117905550565b6124c38282612505565b156124e05760405162461bcd60e51b81526004016109ee906149df565b6001600160a01b0316600090815260209190915260409020805460ff19166001179055565b60006001600160a01b03821661252d5760405162461bcd60e51b81526004016109ee90614b8f565b506001600160a01b03166000908152602091909152604090205460ff1690565b6125578282612505565b6125735760405162461bcd60e51b81526004016109ee90614b19565b6001600160a01b0316600090815260209190915260409020805460ff19169055565b3390565b60005b6000838152601a6020526040902054811015612633576000838152601b60209081526040808320601a90925282208054839190859081106125ed57634e487b7160e01b600052603260045260246000fd5b6000918252602080832091909101546001600160a01b031683528201929092526040019020805460ff19169115159190911790558061262b81614d80565b91505061259c565b5060005b81518110156126b8576000838152601b6020526040812083516001929085908590811061267457634e487b7160e01b600052603260045260246000fd5b6020908102919091018101516001600160a01b03168252810191909152604001600020805460ff1916911515919091179055806126b081614d80565b915050612637565b506000828152601a602090815260409091208251610c4292840190613fc4565b6000816001600160a01b0316836001600160a01b0316148061271f57506001600160a01b0380841660009081526015602090815260408083209386168352929052205460ff165b80611be55750600854610100900460ff168015611be5575050506001600160a01b031660009081526017602052604090205460ff1690565b6000611be58284614d02565b6014546127825760405162461bcd60e51b81526004016109ee90614afd565b816000805b6014548110156128b3576001600160a01b038716600090815260136020526040812060148054919291849081106127ce57634e487b7160e01b600052603260045260246000fd5b906000526020600020015481526020019081526020016000205491508183116128445761283a6014828154811061281557634e487b7160e01b600052603260045260246000fd5b9060005260206000200154898989878960405180602001604052806000815250612db4565b50600092506128b3565b81156128a1576128936014828154811061286e57634e487b7160e01b600052603260045260246000fd5b9060005260206000200154898989868960405180602001604052806000815250612db4565b5061289e8284614d02565b92505b806128ab81614d80565b915050612787565b5081156124635760405162461bcd60e51b81526004016109ee90614bed565b6128dd60028261254d565b6040516001600160a01b038216907fe94479a9f7e1952cc78f2d6baab678adc1b772d936c6583def489e524cb6669290600090a250565b6001600160a01b03841660009081526013602090815260408083208984529091529020548311156129575760405162461bcd60e51b81526004016109ee90614bed565b6129678686866000878787613323565b61297786868660008787876133e5565b61298284878561346d565b61298e85858585613780565b836001600160a01b0316856001600160a01b0316877fce306c3dbc4a497124b5a4f2be8388b41084c1d74663da27ecee1186c00239bf86856040516129d4929190614c54565b60405180910390a4505050505050565b612a0385856000868686604051806020016040528060008152506133e5565b612a0f84848484613914565b612a1a838684613a55565b612a398585600086868660405180602001604052806000815250613b93565b826001600160a01b0316846001600160a01b0316867ff0ded82afbb1bb3ff3fc48cb2a26584aa84e4af0bf309c804ecdb94d0f6a98bb8585604051612a7f929190614c6d565b60405180910390a45050505050565b6060600082516001600160401b03811115612ab957634e487b7160e01b600052604160045260246000fd5b6040519080825280601f01601f191660200182016040528015612ae3576020820181803683370190505b50905060005b6004811015612b5f57848160048110612b1257634e487b7160e01b600052603260045260246000fd5b1a60f81b828281518110612b3657634e487b7160e01b600052603260045260246000fd5b60200101906001600160f81b031916908160001a90535080612b5781614d80565b915050612ae9565b5060045b8351811015612be057838181518110612b8c57634e487b7160e01b600052603260045260246000fd5b602001015160f81c60f81b828281518110612bb757634e487b7160e01b600052603260045260246000fd5b60200101906001600160f81b031916908160001a90535080612bd881614d80565b915050612b63565b509392505050565b600080600080612c24306040518060400160405280601481526020017322a921989a18182a37b5b2b739a1b432b1b5b2b960611b815250613c1b565b90506001600160a01b03811615612ccb5760405163c71ff52760e01b81526001600160a01b0382169063c71ff52790612c6f908f908f908f908f908f908f908f908f906004016148cd565b60606040518083038186803b158015612c8757600080fd5b505afa158015612c9b573d6000803e3d6000fd5b505050506040513d601f19601f82011682018060405250810190612cbf9190614387565b93509350935050611116565b5060009250829150899050611116565b6000612ce783836126d8565b80612d1f57506001600160a01b03808316600090815260196020908152604080832088845282528083209387168352929052205460ff165b8061117e5750600854610100900460ff16801561117e575050506000918252601b602090815260408084206001600160a01b0393909316845291905290205460ff1690565b600080546001600160a01b038381166001600160a01b0319831681178455604051919092169283917f8be0079c531659141344cd1fd0a4f28419497f9722a3daafe3b4186f6b6457e09190a35050565b6001600160a01b03851660009081526013602090815260408083208a8452909152812054841115612df75760405162461bcd60e51b81526004016109ee90614bed565b8151889015801590612e0b57506040845110155b15612e1d57612e1a8985613cd0565b90505b612e2c89898989898989613323565b612e3b898989898989896133e5565b612e46878a8761346d565b612e51878787613cfc565b612e5c868287613a55565b612e6b81898989898989613b93565b856001600160a01b0316876001600160a01b03168a7fff4e9a26af4eb73b8bacfaa4abd4fea03d9448e7b912dc5ff4019048875aa2d48b898989604051612eb59493929190614728565b60405180910390a4888114612efe5780897f67c8ba31d2dd11f1384577b3405b04ed91eed1231e408432ad2458cab37b2fa187604051612ef5919061481e565b60405180910390a35b98975050505050505050565b612f366040518060400160405280600a81526020016922a92199182a37b5b2b760b11b815250836123cf565b612f646040518060400160405280600c81526020016b22a921989a18182a37b5b2b760a11b815250836123cf565b80156115d5576008805460ff191660011790555050565b601454612f9a5760405162461bcd60e51b81526004016109ee90614afd565b816000805b6014548110156130c0576001600160a01b03861660009081526013602052604081206014805491929184908110612fe657634e487b7160e01b600052603260045260246000fd5b9060005260206000200154815260200190815260200160002054915081831161305a576130516014828154811061302d57634e487b7160e01b600052603260045260246000fd5b90600052602060002001548888868860405180602001604052806000815250612914565b600092506130c0565b6130a26014828154811061307e57634e487b7160e01b600052603260045260246000fd5b90600052602060002001548888858860405180602001604052806000815250612914565b6130ac8284614d02565b9250806130b881614d80565b915050612f9f565b508115611a3e5760405162461bcd60e51b81526004016109ee90614bed565b6130ea6002826124b9565b6040516001600160a01b038216907f6ae172837ea30b801fbfcdd4108aa1d5bf8ff775444fd70256b44e6bf3dfc3f690600090a250565b600061312d3086613c1b565b90506001600160a01b038116158015906131445750835b156131815761315281611aee565b1561316057613160816128d2565b6001600160a01b0381166000908152601760205260409020805460ff191690555b61318b85876123cf565b82801561319e575061319c86611aee565b155b156131ac576131ac866130df565b8115611a3e576001600160a01b0386166000908152601760205260409020805460ff19166001179055505050505050565b4690565b60005b60165481101561325b576000601760006016848154811061321557634e487b7160e01b600052603260045260246000fd5b6000918252602080832091909101546001600160a01b031683528201929092526040019020805460ff19169115159190911790558061325381614d80565b9150506131e4565b5060005b81518110156132d25760016017600084848151811061328e57634e487b7160e01b600052603260045260246000fd5b6020908102919091018101516001600160a01b03168252810191909152604001600020805460ff1916911515919091179055806132ca81614d80565b91505061325f565b5080516115d5906016906020840190613fc4565b600080600360006132f56131dd565b8152602081019190915260400160002054905080156133155790506109c3565b61331d613e53565b91505090565b600061335a866040518060400160405280601381526020017222a921989a18182a37b5b2b739a9b2b73232b960691b815250613c1b565b90506001600160a01b038116156133db5760405163139d569560e21b81526001600160a01b03821690634e755a54906133a89060009036908d908d908d908d908d908d908d90600401614853565b600060405180830381600087803b1580156133c257600080fd5b505af11580156133d6573d6000803e3d6000fd5b505050505b5050505050505050565b600061341f306040518060400160405280601681526020017522a921989a18182a37b5b2b739ab30b634b230ba37b960511b815250613c1b565b90506001600160a01b038116156133db57604051632907d53b60e11b81526001600160a01b0382169063520faa76906133a89060009036908d908d908d908d908d908d908d90600401614853565b6001600160a01b038316600090815260136020908152604080832085845290915290205461349b9082612757565b6001600160a01b03841660009081526013602090815260408083208684528252808320939093556010905220546134d29082612757565b60008381526010602052604090208190556135e9576000828152600f6020526040902054806135135760405162461bcd60e51b81526004016109ee90614a3c565b600e80546000919061352790600190614d02565b8154811061354557634e487b7160e01b600052603260045260246000fd5b9060005260206000200154905080600e6001846135629190614d02565b8154811061358057634e487b7160e01b600052603260045260246000fd5b6000918252602080832090910192909255828152600f90915260409020829055600e8054806135bf57634e487b7160e01b600052603160045260246000fd5b600082815260208082208301600019908101839055909201909255858252600f9052604081205550505b6001600160a01b0383166000908152601360209081526040808320858452909152902054610c42576001600160a01b0383166000908152601260209081526040808320858452909152902054806136525760405162461bcd60e51b81526004016109ee90614a3c565b6001600160a01b0384166000908152601160205260408120805461367890600190614d02565b8154811061369657634e487b7160e01b600052603260045260246000fd5b60009182526020808320909101546001600160a01b03881683526011909152604090912090915081906136ca600185614d02565b815481106136e857634e487b7160e01b600052603260045260246000fd5b60009182526020808320909101929092556001600160a01b038716808252601283526040808320858452845280832086905590825260119092522080548061374057634e487b7160e01b600052603160045260246000fd5b6000828152602080822083016000199081018390559092019092556001600160a01b03871682526012815260408083208784529091528120555050505050565b60085460ff16156137a35760405162461bcd60e51b81526004016109ee906149c3565b6137ac82613e82565b6137c85760405162461bcd60e51b81526004016109ee90614a3c565b6001600160a01b0383166137ee5760405162461bcd60e51b81526004016109ee90614ac5565b6001600160a01b0383166000908152600960205260409020548211156138265760405162461bcd60e51b81526004016109ee90614bed565b6001600160a01b0383166000908152600960205260409020546138499083612757565b6001600160a01b03841660009081526009602052604090205560075461386f9083612757565b600781905550826001600160a01b0316846001600160a01b03167fb7d0d6b60740753e9f16692a2f479472a1385aec2420fa43225b02f2ffa1afe784846040516138ba929190614c54565b60405180910390a360006001600160a01b0316836001600160a01b03167fddf252ad1be2c89b69c2b068fc378daa952ba7f163c4a11628f55a4df523b3ef84604051613906919061481e565b60405180910390a350505050565b60085460ff16156139375760405162461bcd60e51b81526004016109ee906149c3565b61394082613e82565b61395c5760405162461bcd60e51b81526004016109ee90614a3c565b6001600160a01b0383166139825760405162461bcd60e51b81526004016109ee90614c09565b60075461398f9083613ea5565b6007556001600160a01b0383166000908152600960205260409020546139b59083613ea5565b6001600160a01b0380851660008181526009602052604090819020939093559151908616907f0e9905d62635f049c2f4e11678ebf9dc3d1f8c4a653e290759b772e47ba00d0090613a099086908690614c54565b60405180910390a3826001600160a01b031660006001600160a01b03167fddf252ad1be2c89b69c2b068fc378daa952ba7f163c4a11628f55a4df523b3ef84604051613906919061481e565b8015610c42576001600160a01b0383166000908152601260209081526040808320858452909152902054613ac7576001600160a01b0383166000818152601160209081526040808320805460018101825581855283852001879055938352925460128252838320868452909152919020555b6001600160a01b0383166000908152601360209081526040808320858452909152902054613af59082613ea5565b6001600160a01b0384166000908152601360209081526040808320868452825280832093909355600f90522054613b6657600e80546001810182557fbb7b4a454dc3493923482f07822329ed19e8244eff582cc204f8554c3620c3fd01839055546000838152600f60205260409020555b600082815260106020526040902054613b7f9082613ea5565b600083815260106020526040902055505050565b6000613bcd8560405180604001604052806016815260200175115490cc4d0c0c151bdad95b9cd49958da5c1a595b9d60521b815250613c1b565b90506001600160a01b038116156133db57604051637a325abb60e11b81526001600160a01b0382169063f464b576906133a89060009036908d908d908d908d908d908d908d90600401614853565b60008082604051602001613c2f919061469c565b60408051601f1981840301815290829052805160209091012063555ddc6560e11b82529150731820a4b7618bde71dce8cdc73aab6c95905fad249063aabbb8ca90613c8090879085906004016146ec565b60206040518083038186803b158015613c9857600080fd5b505afa158015613cac573d6000803e3d6000fd5b505050506040513d601f19601f8201168201806040525081019061117e91906140e1565b60208101516000906000199080821415613cf05760408401519250613cf4565b8492505b505092915050565b60085460ff1615613d1f5760405162461bcd60e51b81526004016109ee906149c3565b613d2881613e82565b613d445760405162461bcd60e51b81526004016109ee90614a3c565b6001600160a01b038216613d6a5760405162461bcd60e51b81526004016109ee90614c09565b6001600160a01b038316600090815260096020526040902054811115613da25760405162461bcd60e51b81526004016109ee90614bed565b6001600160a01b038316600090815260096020526040902054613dc59082612757565b6001600160a01b038085166000908152600960205260408082209390935590841681522054613df49082613ea5565b6001600160a01b0380841660008181526009602052604090819020939093559151908516907fddf252ad1be2c89b69c2b068fc378daa952ba7f163c4a11628f55a4df523b3ef90613e4690859061481e565b60405180910390a3505050565b600080613e5e6131dd565b90506000613e6a611a46565b60009283526003602052604090922082905550905090565b6006546000908290613e9e90613e988382613eb1565b90613ebd565b1492915050565b6000611be58284614cab565b6000611be58284614cc3565b6000611be58284614ce3565b828054613ed590614d45565b90600052602060002090601f016020900481019282613ef75760008555613f3d565b82601f10613f1057805160ff1916838001178555613f3d565b82800160010185558215613f3d579182015b82811115613f3d578251825591602001919060010190613f22565b50613f49929150614019565b5090565b508054613f5990614d45565b6000825580601f10613f6b5750610ea2565b601f016020900490600052602060002090810190610ea29190614019565b828054828255906000526020600020908101928215613f3d579160200282015b82811115613f3d578235825591602001919060010190613fa9565b828054828255906000526020600020908101928215613f3d579160200282015b82811115613f3d57825182546001600160a01b0319166001600160a01b03909116178255602090920191600190910190613fe4565b5b80821115613f49576000815560010161401a565b60008083601f84011261403f578182fd5b5081356001600160401b03811115614055578182fd5b602083019150836020808302850101111561406f57600080fd5b9250929050565b803580151581146111a057600080fd5b60008083601f840112614097578182fd5b5081356001600160401b038111156140ad578182fd5b60208301915083602082850101111561406f57600080fd5b6000602082840312156140d6578081fd5b8135611be581614db1565b6000602082840312156140f2578081fd5b8151611be581614db1565b6000806040838503121561410f578081fd5b823561411a81614db1565b9150602083013561412a81614db1565b809150509250929050565b600080600060608486031215614149578081fd5b833561415481614db1565b9250602084013561416481614db1565b929592945050506040919091013590565b60008060008060006080868803121561418c578081fd5b853561419781614db1565b945060208601356141a781614db1565b93506040860135925060608601356001600160401b038111156141c8578182fd5b6141d488828901614086565b969995985093965092949392505050565b600080604083850312156141f7578182fd5b823561420281614db1565b915061421060208401614076565b90509250929050565b60008060008060008060a08789031215614231578081fd5b863561423c81614db1565b955060208701356001600160401b03811115614256578182fd5b61426289828a01614086565b9096509450614275905060408801614076565b925061428360608801614076565b915061429160808801614076565b90509295509295509295565b600080604083850312156142af578182fd5b82356142ba81614db1565b946020939093013593505050565b600080600080606085870312156142dd578384fd5b84356142e881614db1565b93506020850135925060408501356001600160401b03811115614309578283fd5b61431587828801614086565b95989497509550505050565b60008060208385031215614333578182fd5b82356001600160401b03811115614348578283fd5b6143548582860161402e565b90969095509350505050565b60008060208385031215614372578081fd5b82356001600160401b03811115614348578182fd5b60008060006060848603121561439b578081fd5b83516001600160f81b0319811681146143b2578182fd5b602085015160409095015190969495509392505050565b6000602082840312156143da578081fd5b5035919050565b600080604083850312156143f3578182fd5b82359150602083013561412a81614db1565b600080600060608486031215614419578081fd5b83359250602084013561442b81614db1565b9150604084013561443b81614db1565b809150509250925092565b60008060008060008060008060c0898b031215614461578586fd5b88359750602089013561447381614db1565b9650604089013561448381614db1565b95506060890135945060808901356001600160401b03808211156144a5578384fd5b6144b18c838d01614086565b909650945060a08b01359150808211156144c9578384fd5b506144d68b828c01614086565b999c989b5096995094979396929594505050565b6000806000606084860312156144fe578081fd5b83359250602084013561416481614db1565b600080600080600060808688031215614527578283fd5b8535945060208601356141a781614db1565b60008060006040848603121561454d578081fd5b8335925060208401356001600160401b03811115614569578182fd5b6145758682870161402e565b9497909650939450505050565b60008060008060608587031215614597578182fd5b8435935060208501356001600160401b038111156145b3578283fd5b6145bf87828801614086565b9598909750949560400135949350505050565b600080600080606085870312156145e7578182fd5b843593506020850135925060408501356001600160401b03811115614309578283fd5b60008060006040848603121561461e578081fd5b8335925060208401356001600160401b0381111561463a578182fd5b61457586828701614086565b60008284528282602086013780602084860101526020601f19601f85011685010190509392505050565b60008151808452614688816020860160208601614d19565b601f01601f19169290920160200192915050565b600082516146ae818460208701614d19565b9190910192915050565b73455243313832305f4143434550545f4d4147494360601b815260140190565b6001600160a01b0391909116815260200190565b6001600160a01b03929092168252602082015260400190565b6001600160a01b0393841681526020810192909252909116604082015260600190565b600060018060a01b03861682528460208301526080604083015261474f6080830185614670565b82810360608401526147618185614670565b979650505050505050565b6020808252825182820181905260009190848201906040850190845b818110156147ad5783516001600160a01b031683529284019291840191600101614788565b50909695505050505050565b6020808252825182820181905260009190848201906040850190845b818110156147ad578351835292840192918401916001016147d5565b901515815260200190565b6001600160f81b03199390931683526020830191909152604082015260600190565b90815260200190565b9485526020850193909352604084019190915260608301526001600160a01b0316608082015260a00190565b60006101008083526148688184018c8e614646565b602084018b90526001600160a01b038a8116604086015289811660608601528816608085015260a0840187905283810360c085015290506148a98186614670565b905082810360e08401526148bd8185614670565b9c9b505050505050505050505050565b60006101008083526148e18184018c614670565b602084018b90526001600160a01b038a8116604086015289811660608601528816608085015260a0840187905283810360c085015290506149228186614670565b905082810360e08401526149368185614670565b9b9a5050505050505050505050565b600060408252614959604083018587614646565b9050826020830152949350505050565b600060208252611be56020830184614670565b60006040825261498f6040830185614670565b90508260208301529392505050565b6000606082526149b16060830186614670565b60208301949094525060400152919050565b6020808252600290820152610d4d60f21b604082015260600190565b6020808252601f908201527f526f6c65733a206163636f756e7420616c72656164792068617320726f6c6500604082015260600190565b6020808252600c908201526b155b985d5d1a1bdc9a5e995960a21b604082015260600190565b602080825260029082015261035360f41b604082015260600190565b60208082526026908201527f4f776e61626c653a206e6577206f776e657220697320746865207a65726f206160408201526564647265737360d01b606082015260800190565b6020808252600d908201526c092dcecc2d8d2c840d2dcc8caf609b1b604082015260600190565b6020808252600290820152611a9b60f11b604082015260600190565b60208082526002908201526106a760f31b604082015260600190565b602080825260029082015261353560f01b604082015260600190565b60208082526021908201527f526f6c65733a206163636f756e7420646f6573206e6f74206861766520726f6c6040820152606560f81b606082015260800190565b6020808252818101527f4f776e61626c653a2063616c6c6572206973206e6f7420746865206f776e6572604082015260600190565b60208082526022908201527f526f6c65733a206163636f756e7420697320746865207a65726f206164647265604082015261737360f01b606082015260800190565b602080825260029082015261353360f01b604082015260600190565b6020808252600290820152611a9960f11b604082015260600190565b602080825260029082015261353760f01b604082015260600190565b602080825260159082015274111bd8dd5b595b9d08191bd95cdb9d08195e1a5cdd605a1b604082015260600190565b60008382526040602083015261117e6040830184614670565b600083825260606020830152614c866060830184614670565b828103604090930192909252815260200192915050565b60ff91909116815260200190565b60008219821115614cbe57614cbe614d9b565b500190565b600082614cde57634e487b7160e01b81526012600452602481fd5b500490565b6000816000190483118215151615614cfd57614cfd614d9b565b500290565b600082821015614d1457614d14614d9b565b500390565b60005b83811015614d34578181015183820152602001614d1c565b83811115610e485750506000910152565b600281046001821680614d5957607f821691505b60208210811415614d7a57634e487b7160e01b600052602260045260246000fd5b50919050565b6000600019821415614d9457614d94614d9b565b5060010190565b634e487b7160e01b600052601160045260246000fd5b6001600160a01b0381168114610ea257600080fdfea2646970667358221220680258472b62dbcd9eaf637dbb8cc9a38c847c18173367f6195e8171d835241464736f6c63430008000033",
  "linkReferences": {},
  "deployedLinkReferences": {}
}