{
  "_format": "hh-sol-artifact-1",
  "contractName": "Swaps",
  "sourceName": "contracts/ERC1400/tools/Swaps.sol",
  "abi": [
    {
      "inputs": [
        {
          "internalType": "bool",
          "name": "owned",
          "type": "bool"
        }
      ],
      "stateMutability": "nonpayable",
      "type": "constructor"
    },
    {
      "anonymous": false,
      "inputs": [
        {
          "indexed": true,
          "internalType": "address",
          "name": "owner",
          "type": "address"
        },
        {
          "indexed": true,
          "internalType": "bytes32",
          "name": "noteHash",
          "type": "bytes32"
        },
        {
          "indexed": false,
          "internalType": "bytes",
          "name": "metadata",
          "type": "bytes"
        }
      ],
      "name": "CreateNote",
      "type": "event"
    },
    {
      "anonymous": false,
      "inputs": [
        {
          "indexed": true,
          "internalType": "address",
          "name": "owner",
          "type": "address"
        },
        {
          "indexed": true,
          "internalType": "bytes32",
          "name": "noteHash",
          "type": "bytes32"
        }
      ],
      "name": "DestroyNote",
      "type": "event"
    },
    {
      "anonymous": false,
      "inputs": [
        {
          "indexed": true,
          "internalType": "address",
          "name": "token",
          "type": "address"
        },
        {
          "indexed": true,
          "internalType": "bytes32",
          "name": "holdId",
          "type": "bytes32"
        },
        {
          "indexed": false,
          "internalType": "bytes32",
          "name": "lockPreimage",
          "type": "bytes32"
        },
        {
          "indexed": false,
          "internalType": "address",
          "name": "recipient",
          "type": "address"
        }
      ],
      "name": "ExecutedHold",
      "type": "event"
    },
    {
      "anonymous": false,
      "inputs": [
        {
          "indexed": true,
          "internalType": "address",
          "name": "previousOwner",
          "type": "address"
        },
        {
          "indexed": true,
          "internalType": "address",
          "name": "newOwner",
          "type": "address"
        }
      ],
      "name": "OwnershipTransferred",
      "type": "event"
    },
    {
      "anonymous": false,
      "inputs": [
        {
          "indexed": true,
          "internalType": "address",
          "name": "from",
          "type": "address"
        },
        {
          "indexed": true,
          "internalType": "address",
          "name": "to",
          "type": "address"
        },
        {
          "indexed": false,
          "internalType": "uint256",
          "name": "tokens",
          "type": "uint256"
        }
      ],
      "name": "Transfer",
      "type": "event"
    },
    {
      "anonymous": false,
      "inputs": [
        {
          "indexed": true,
          "internalType": "bytes32",
          "name": "fromPartition",
          "type": "bytes32"
        },
        {
          "indexed": false,
          "internalType": "address",
          "name": "operator",
          "type": "address"
        },
        {
          "indexed": true,
          "internalType": "address",
          "name": "from",
          "type": "address"
        },
        {
          "indexed": true,
          "internalType": "address",
          "name": "to",
          "type": "address"
        },
        {
          "indexed": false,
          "internalType": "uint256",
          "name": "value",
          "type": "uint256"
        },
        {
          "indexed": false,
          "internalType": "bytes",
          "name": "data",
          "type": "bytes"
        },
        {
          "indexed": false,
          "internalType": "bytes",
          "name": "operatorData",
          "type": "bytes"
        }
      ],
      "name": "TransferByPartition",
      "type": "event"
    },
    {
      "inputs": [
        {
          "internalType": "uint256",
          "name": "index",
          "type": "uint256"
        },
        {
          "internalType": "bytes32",
          "name": "preimage",
          "type": "bytes32"
        }
      ],
      "name": "acceptTrade",
      "outputs": [],
      "stateMutability": "payable",
      "type": "function"
    },
    {
      "inputs": [
        {
          "internalType": "uint256",
          "name": "index",
          "type": "uint256"
        },
        {
          "internalType": "bool",
          "name": "approved",
          "type": "bool"
        }
      ],
      "name": "approveTrade",
      "outputs": [],
      "stateMutability": "nonpayable",
      "type": "function"
    },
    {
      "inputs": [
        {
          "internalType": "uint256",
          "name": "index",
          "type": "uint256"
        },
        {
          "internalType": "bool",
          "name": "approved",
          "type": "bool"
        },
        {
          "internalType": "bytes32",
          "name": "preimage",
          "type": "bytes32"
        }
      ],
      "name": "approveTradeWithPreimage",
      "outputs": [],
      "stateMutability": "nonpayable",
      "type": "function"
    },
    {
      "inputs": [
        {
          "internalType": "bytes32",
          "name": "interfaceHash",
          "type": "bytes32"
        },
        {
          "internalType": "address",
          "name": "",
          "type": "address"
        }
      ],
      "name": "canImplementInterfaceForAddress",
      "outputs": [
        {
          "internalType": "bytes32",
          "name": "",
          "type": "bytes32"
        }
      ],
      "stateMutability": "view",
      "type": "function"
    },
    {
      "inputs": [
        {
          "internalType": "bytes",
          "name": "",
          "type": "bytes"
        },
        {
          "internalType": "bytes32",
          "name": "",
          "type": "bytes32"
        },
        {
          "internalType": "address",
          "name": "",
          "type": "address"
        },
        {
          "internalType": "address",
          "name": "",
          "type": "address"
        },
        {
          "internalType": "address",
          "name": "",
          "type": "address"
        },
        {
          "internalType": "uint256",
          "name": "",
          "type": "uint256"
        },
        {
          "internalType": "bytes",
          "name": "data",
          "type": "bytes"
        },
        {
          "internalType": "bytes",
          "name": "operatorData",
          "type": "bytes"
        }
      ],
      "name": "canReceive",
      "outputs": [
        {
          "internalType": "bool",
          "name": "",
          "type": "bool"
        }
      ],
      "stateMutability": "pure",
      "type": "function"
    },
    {
      "inputs": [
        {
          "internalType": "uint256",
          "name": "index",
          "type": "uint256"
        }
      ],
      "name": "cancelTrade",
      "outputs": [],
      "stateMutability": "nonpayable",
      "type": "function"
    },
    {
      "inputs": [
        {
          "internalType": "uint256",
          "name": "index",
          "type": "uint256"
        }
      ],
      "name": "executeTrade",
      "outputs": [],
      "stateMutability": "nonpayable",
      "type": "function"
    },
    {
      "inputs": [
        {
          "internalType": "uint256",
          "name": "index",
          "type": "uint256"
        },
        {
          "internalType": "bytes32",
          "name": "preimage",
          "type": "bytes32"
        }
      ],
      "name": "executeTradeWithPreimage",
      "outputs": [],
      "stateMutability": "nonpayable",
      "type": "function"
    },
    {
      "inputs": [
        {
          "internalType": "uint256",
          "name": "index",
          "type": "uint256"
        }
      ],
      "name": "forceTrade",
      "outputs": [],
      "stateMutability": "nonpayable",
      "type": "function"
    },
    {
      "inputs": [
        {
          "internalType": "uint256",
          "name": "index",
          "type": "uint256"
        },
        {
          "internalType": "bytes32",
          "name": "preimage",
          "type": "bytes32"
        }
      ],
      "name": "forceTradeWithPreimage",
      "outputs": [],
      "stateMutability": "nonpayable",
      "type": "function"
    },
    {
      "inputs": [],
      "name": "getNbTrades",
      "outputs": [
        {
          "internalType": "uint256",
          "name": "",
          "type": "uint256"
        }
      ],
      "stateMutability": "view",
      "type": "function"
    },
    {
      "inputs": [
        {
          "internalType": "uint256",
          "name": "index",
          "type": "uint256"
        }
      ],
      "name": "getPrice",
      "outputs": [
        {
          "internalType": "uint256",
          "name": "",
          "type": "uint256"
        }
      ],
      "stateMutability": "view",
      "type": "function"
    },
    {
      "inputs": [
        {
          "internalType": "address",
          "name": "tokenAddress1",
          "type": "address"
        },
        {
          "internalType": "address",
          "name": "tokenAddress2",
          "type": "address"
        }
      ],
      "name": "getPriceOwnership",
      "outputs": [
        {
          "internalType": "bool",
          "name": "",
          "type": "bool"
        }
      ],
      "stateMutability": "view",
      "type": "function"
    },
    {
      "inputs": [
        {
          "internalType": "address",
          "name": "tokenAddress1",
          "type": "address"
        },
        {
          "internalType": "address",
          "name": "tokenAddress2",
          "type": "address"
        },
        {
          "internalType": "bytes32",
          "name": "tokenId1",
          "type": "bytes32"
        },
        {
          "internalType": "bytes32",
          "name": "tokenId2",
          "type": "bytes32"
        }
      ],
      "name": "getTokenPrice",
      "outputs": [
        {
          "internalType": "uint256",
          "name": "",
          "type": "uint256"
        }
      ],
      "stateMutability": "view",
      "type": "function"
    },
    {
      "inputs": [
        {
          "internalType": "uint256",
          "name": "index",
          "type": "uint256"
        }
      ],
      "name": "getTrade",
      "outputs": [
        {
          "components": [
            {
              "internalType": "address",
              "name": "holder1",
              "type": "address"
            },
            {
              "internalType": "address",
              "name": "holder2",
              "type": "address"
            },
            {
              "internalType": "address",
              "name": "executer",
              "type": "address"
            },
            {
              "internalType": "uint256",
              "name": "expirationDate",
              "type": "uint256"
            },
            {
              "internalType": "uint256",
              "name": "settlementDate",
              "type": "uint256"
            },
            {
              "components": [
                {
                  "internalType": "address",
                  "name": "tokenAddress",
                  "type": "address"
                },
                {
                  "internalType": "uint256",
                  "name": "tokenValue",
                  "type": "uint256"
                },
                {
                  "internalType": "bytes32",
                  "name": "tokenId",
                  "type": "bytes32"
                },
                {
                  "internalType": "enum Swaps.Standard",
                  "name": "tokenStandard",
                  "type": "uint8"
                },
                {
                  "internalType": "bool",
                  "name": "accepted",
                  "type": "bool"
                },
                {
                  "internalType": "bool",
                  "name": "approved",
                  "type": "bool"
                },
                {
                  "internalType": "enum Swaps.TradeType",
                  "name": "tradeType",
                  "type": "uint8"
                }
              ],
              "internalType": "struct Swaps.UserTradeData",
              "name": "userTradeData1",
              "type": "tuple"
            },
            {
              "components": [
                {
                  "internalType": "address",
                  "name": "tokenAddress",
                  "type": "address"
                },
                {
                  "internalType": "uint256",
                  "name": "tokenValue",
                  "type": "uint256"
                },
                {
                  "internalType": "bytes32",
                  "name": "tokenId",
                  "type": "bytes32"
                },
                {
                  "internalType": "enum Swaps.Standard",
                  "name": "tokenStandard",
                  "type": "uint8"
                },
                {
                  "internalType": "bool",
                  "name": "accepted",
                  "type": "bool"
                },
                {
                  "internalType": "bool",
                  "name": "approved",
                  "type": "bool"
                },
                {
                  "internalType": "enum Swaps.TradeType",
                  "name": "tradeType",
                  "type": "uint8"
                }
              ],
              "internalType": "struct Swaps.UserTradeData",
              "name": "userTradeData2",
              "type": "tuple"
            },
            {
              "internalType": "enum Swaps.State",
              "name": "state",
              "type": "uint8"
            }
          ],
          "internalType": "struct Swaps.Trade",
          "name": "",
          "type": "tuple"
        }
      ],
      "stateMutability": "view",
      "type": "function"
    },
    {
      "inputs": [
        {
          "internalType": "uint256",
          "name": "index",
          "type": "uint256"
        }
      ],
      "name": "getTradeAcceptanceStatus",
      "outputs": [
        {
          "internalType": "bool",
          "name": "",
          "type": "bool"
        }
      ],
      "stateMutability": "view",
      "type": "function"
    },
    {
      "inputs": [
        {
          "internalType": "uint256",
          "name": "index",
          "type": "uint256"
        }
      ],
      "name": "getTradeApprovalStatus",
      "outputs": [
        {
          "internalType": "bool",
          "name": "",
          "type": "bool"
        }
      ],
      "stateMutability": "view",
      "type": "function"
    },
    {
      "inputs": [],
      "name": "owner",
      "outputs": [
        {
          "internalType": "address",
          "name": "",
          "type": "address"
        }
      ],
      "stateMutability": "view",
      "type": "function"
    },
    {
      "inputs": [
        {
          "internalType": "address",
          "name": "tokenAddress",
          "type": "address"
        }
      ],
      "name": "priceOracles",
      "outputs": [
        {
          "internalType": "address[]",
          "name": "",
          "type": "address[]"
        }
      ],
      "stateMutability": "view",
      "type": "function"
    },
    {
      "inputs": [],
      "name": "renounceOwnership",
      "outputs": [],
      "stateMutability": "nonpayable",
      "type": "function"
    },
    {
      "inputs": [
        {
          "components": [
            {
              "internalType": "address",
              "name": "holder1",
              "type": "address"
            },
            {
              "internalType": "address",
              "name": "holder2",
              "type": "address"
            },
            {
              "internalType": "address",
              "name": "executer",
              "type": "address"
            },
            {
              "internalType": "uint256",
              "name": "expirationDate",
              "type": "uint256"
            },
            {
              "internalType": "address",
              "name": "tokenAddress1",
              "type": "address"
            },
            {
              "internalType": "uint256",
              "name": "tokenValue1",
              "type": "uint256"
            },
            {
              "internalType": "bytes32",
              "name": "tokenId1",
              "type": "bytes32"
            },
            {
              "internalType": "enum Swaps.Standard",
              "name": "tokenStandard1",
              "type": "uint8"
            },
            {
              "internalType": "address",
              "name": "tokenAddress2",
              "type": "address"
            },
            {
              "internalType": "uint256",
              "name": "tokenValue2",
              "type": "uint256"
            },
            {
              "internalType": "bytes32",
              "name": "tokenId2",
              "type": "bytes32"
            },
            {
              "internalType": "enum Swaps.Standard",
              "name": "tokenStandard2",
              "type": "uint8"
            },
            {
              "internalType": "enum Swaps.TradeType",
              "name": "tradeType1",
              "type": "uint8"
            },
            {
              "internalType": "enum Swaps.TradeType",
              "name": "tradeType2",
              "type": "uint8"
            },
            {
              "internalType": "uint256",
              "name": "settlementDate",
              "type": "uint256"
            }
          ],
          "internalType": "struct Swaps.TradeRequestInput",
          "name": "inputData",
          "type": "tuple"
        },
        {
          "internalType": "bytes32",
          "name": "preimage",
          "type": "bytes32"
        }
      ],
      "name": "requestTrade",
      "outputs": [],
      "stateMutability": "payable",
      "type": "function"
    },
    {
      "inputs": [
        {
          "internalType": "address",
          "name": "tokenAddress",
          "type": "address"
        },
        {
          "internalType": "address[]",
          "name": "oracles",
          "type": "address[]"
        }
      ],
      "name": "setPriceOracles",
      "outputs": [],
      "stateMutability": "nonpayable",
      "type": "function"
    },
    {
      "inputs": [
        {
          "internalType": "address",
          "name": "tokenAddress1",
          "type": "address"
        },
        {
          "internalType": "address",
          "name": "tokenAddress2",
          "type": "address"
        },
        {
          "internalType": "bool",
          "name": "priceOwnership",
          "type": "bool"
        }
      ],
      "name": "setPriceOwnership",
      "outputs": [],
      "stateMutability": "nonpayable",
      "type": "function"
    },
    {
      "inputs": [
        {
          "internalType": "address",
          "name": "tokenAddress",
          "type": "address"
        },
        {
          "internalType": "address[]",
          "name": "operators",
          "type": "address[]"
        }
      ],
      "name": "setTokenControllers",
      "outputs": [],
      "stateMutability": "nonpayable",
      "type": "function"
    },
    {
      "inputs": [
        {
          "internalType": "address",
          "name": "tokenAddress1",
          "type": "address"
        },
        {
          "internalType": "address",
          "name": "tokenAddress2",
          "type": "address"
        },
        {
          "internalType": "bytes32",
          "name": "tokenId1",
          "type": "bytes32"
        },
        {
          "internalType": "bytes32",
          "name": "tokenId2",
          "type": "bytes32"
        },
        {
          "internalType": "uint256",
          "name": "newPrice",
          "type": "uint256"
        }
      ],
      "name": "setTokenPrice",
      "outputs": [],
      "stateMutability": "nonpayable",
      "type": "function"
    },
    {
      "inputs": [
        {
          "internalType": "address[]",
          "name": "operators",
          "type": "address[]"
        }
      ],
      "name": "setTradeExecuters",
      "outputs": [],
      "stateMutability": "nonpayable",
      "type": "function"
    },
    {
      "inputs": [
        {
          "internalType": "address",
          "name": "tokenAddress",
          "type": "address"
        },
        {
          "internalType": "uint256",
          "name": "startDate",
          "type": "uint256"
        }
      ],
      "name": "setVariablePriceStartDate",
      "outputs": [],
      "stateMutability": "nonpayable",
      "type": "function"
    },
    {
      "inputs": [
        {
          "internalType": "address",
          "name": "tokenAddress",
          "type": "address"
        }
      ],
      "name": "tokenControllers",
      "outputs": [
        {
          "internalType": "address[]",
          "name": "",
          "type": "address[]"
        }
      ],
      "stateMutability": "view",
      "type": "function"
    },
    {
      "inputs": [
        {
          "internalType": "bytes",
          "name": "",
          "type": "bytes"
        },
        {
          "internalType": "bytes32",
          "name": "partition",
          "type": "bytes32"
        },
        {
          "internalType": "address",
          "name": "",
          "type": "address"
        },
        {
          "internalType": "address",
          "name": "from",
          "type": "address"
        },
        {
          "internalType": "address",
          "name": "to",
          "type": "address"
        },
        {
          "internalType": "uint256",
          "name": "value",
          "type": "uint256"
        },
        {
          "internalType": "bytes",
          "name": "data",
          "type": "bytes"
        },
        {
          "internalType": "bytes",
          "name": "operatorData",
          "type": "bytes"
        }
      ],
      "name": "tokensReceived",
      "outputs": [],
      "stateMutability": "nonpayable",
      "type": "function"
    },
    {
      "inputs": [],
      "name": "tradeExecuters",
      "outputs": [
        {
          "internalType": "address[]",
          "name": "",
          "type": "address[]"
        }
      ],
      "stateMutability": "view",
      "type": "function"
    },
    {
      "inputs": [
        {
          "internalType": "address",
          "name": "newOwner",
          "type": "address"
        }
      ],
      "name": "transferOwnership",
      "outputs": [],
      "stateMutability": "nonpayable",
      "type": "function"
    },
    {
      "inputs": [
        {
          "internalType": "address",
          "name": "tokenAddress",
          "type": "address"
        }
      ],
      "name": "variablePriceStartDate",
      "outputs": [
        {
          "internalType": "uint256",
          "name": "",
          "type": "uint256"
        }
      ],
      "stateMutability": "view",
      "type": "function"
    }
  ],
  "bytecode": "0x60806040523480156200001157600080fd5b5060405162006e2538038062006e25833981016040819052620000349162000478565b62000048620000426200019c565b620001a0565b620000876040518060400160405280601181526020017011195b1a5d995c9e559cd4185e5b595b9d607a1b815250620001f060201b620028c61760201c565b620000d26040518060400160405280601681526020017f45524331343030546f6b656e73526563697069656e7400000000000000000000815250620001f060201b620028c61760201c565b60408051808201909152601681527f45524331343030546f6b656e73526563697069656e740000000000000000000060208201526200011290306200023f565b6008805460ff1916821515179081905560ff161562000195576040805160018082528183019092526000916020808301908036833701905050905033816000815181106200017057634e487b7160e01b600052603260045260246000fd5b6001600160a01b03909216602092830291909101909101526200019381620002e2565b505b5062000528565b3390565b600080546001600160a01b038381166001600160a01b0319831681178455604051919092169283917f8be0079c531659141344cd1fd0a4f28419497f9722a3daafe3b4186f6b6457e09190a35050565b600180600083604051602001620002089190620004a1565b60408051808303601f19018152918152815160209283012083529082019290925201600020805460ff191691151591909117905550565b600082604051602001620002549190620004a1565b60408051601f198184030181529082905280516020909101206329965a1d60e01b82529150731820a4b7618bde71dce8cdc73aab6c95905fad24906329965a1d90620002a990309085908790600401620004dd565b600060405180830381600087803b158015620002c457600080fd5b505af1158015620002d9573d6000803e3d6000fd5b50505050505050565b60005b60095481101562000361576000600a6000600984815481106200031857634e487b7160e01b600052603260045260246000fd5b6000918252602080832091909101546001600160a01b031683528201929092526040019020805460ff191691151591909117905580620003588162000500565b915050620002e5565b5060005b8151811015620003dd576001600a60008484815181106200039657634e487b7160e01b600052603260045260246000fd5b6020908102919091018101516001600160a01b03168252810191909152604001600020805460ff191691151591909117905580620003d48162000500565b91505062000365565b508051620003f3906009906020840190620003f7565b5050565b8280548282559060005260206000209081019282156200044f579160200282015b828111156200044f57825182546001600160a01b0319166001600160a01b0390911617825560209092019160019091019062000418565b506200045d92915062000461565b5090565b5b808211156200045d576000815560010162000462565b6000602082840312156200048a578081fd5b815180151581146200049a578182fd5b9392505050565b60008251815b81811015620004c35760208186018101518583015201620004a7565b81811115620004d25782828501525b509190910192915050565b6001600160a01b0393841681526020810192909252909116604082015260600190565b60006000198214156200052157634e487b7160e01b81526011600452602481fd5b5060010190565b6168ed80620005386000396000f3fe6080604052600436106101e35760003560e01c80636775ce0411610102578063c9adffe211610095578063ec96dfb411610064578063ec96dfb41461056e578063f2fde38b1461058e578063f464b576146105ae578063f55886df146105ce576101e3565b8063c9adffe2146104f9578063d95b585e14610519578063e757223014610539578063ebbca40714610559576101e3565b806389a0c9e7116100d157806389a0c9e7146104845780638da5cb5b14610497578063935259a8146104b9578063a22ae631146104d9576101e3565b80636775ce041461040f578063715018a61461042f578063759561fa146104445780638595240b14610464576101e3565b80632db25e051161017a57806351965a831161014957806351965a831461039c578063582dcd13146103af57806358727467146103cf57806361108c06146103ef576101e3565b80632db25e051461031a57806330f9769914610347578063353414641461036757806345a06cb214610387576101e3565b80630baf41a6116101b65780630baf41a6146102805780631af6649f146102a0578063249cb3fa146102cd5780632cb437d8146102fa576101e3565b806301374518146101e857806301636f4e1461021e57806302d2838b1461024057806309ec6cc714610260575b600080fd5b3480156101f457600080fd5b506102086102033660046150e6565b6105ee565b60405161021591906158a0565b60405180910390f35b34801561022a57600080fd5b5061023e610239366004615235565b610665565b005b34801561024c57600080fd5b5061023e61025b36600461569c565b610804565b34801561026c57600080fd5b5061023e61027b36600461569c565b610812565b34801561028c57600080fd5b5061023e61029b366004615156565b610af5565b3480156102ac57600080fd5b506102c06102bb36600461511e565b610b57565b60405161021591906158ed565b3480156102d957600080fd5b506102ed6102e8366004615327565b610b87565b60405161021591906157ca565b34801561030657600080fd5b5061023e6103153660046156d8565b610bd2565b34801561032657600080fd5b5061033a61033536600461569c565b610d73565b60405161021591906166e7565b34801561035357600080fd5b506102ed6103623660046150e6565b611024565b34801561037357600080fd5b506102c061038236600461569c565b61103f565b34801561039357600080fd5b506102086112a8565b61023e6103aa36600461570f565b61130a565b3480156103bb57600080fd5b5061023e6103ca36600461570f565b61131c565b3480156103db57600080fd5b5061023e6103ea3660046151e5565b61142c565b3480156103fb57600080fd5b5061023e61040a36600461569c565b6115a5565b34801561041b57600080fd5b5061023e61042a3660046156b4565b6115b0565b34801561043b57600080fd5b5061023e6115bc565b34801561045057600080fd5b5061020861045f3660046150e6565b61160f565b34801561047057600080fd5b506102ed61047f3660046151a0565b611683565b61023e61049236600461566c565b6116bf565b3480156104a357600080fd5b506104ac6118cf565b604051610215919061580f565b3480156104c557600080fd5b506102c06104d436600461569c565b6118de565b3480156104e557600080fd5b5061023e6104f43660046152b3565b61197d565b34801561050557600080fd5b5061023e610514366004615288565b611a1a565b34801561052557600080fd5b5061023e61053436600461570f565b611a92565b34801561054557600080fd5b506102ed61055436600461569c565b611ca6565b34801561056557600080fd5b506102ed6121ea565b34801561057a57600080fd5b5061023e610589366004615235565b6121f0565b34801561059a57600080fd5b5061023e6105a93660046150e6565b612428565b3480156105ba57600080fd5b5061023e6105c93660046154b8565b612496565b3480156105da57600080fd5b506102c06105e93660046153d9565b612841565b6001600160a01b03811660009081526004602090815260409182902080548351818402810184019094528084526060939283018282801561065857602002820191906000526020600020905b81546001600160a01b0316815260019091019060200180831161063a575b505050505090505b919050565b826106708133612913565b6106955760405162461bcd60e51b815260040161068c90616311565b60405180910390fd5b60005b6001600160a01b038516600090815260046020526040902054811015610743576001600160a01b0385166000908152600560209081526040808320600490925282208054839190859081106106fd57634e487b7160e01b600052603260045260246000fd5b6000918252602080832091909101546001600160a01b031683528201929092526040019020805460ff19169115159190911790558061073b81616807565b915050610698565b5060005b828110156107d9576001600160a01b038516600090815260056020526040812060019186868581811061078a57634e487b7160e01b600052603260045260246000fd5b905060200201602081019061079f91906150e6565b6001600160a01b031681526020810191909152604001600020805460ff1916911515919091179055806107d181616807565b915050610747565b506001600160a01b03841660009081526004602052604090206107fd908484614e42565b5050505050565b61080f81600061131c565b50565b60008181526003602052604090206001600d82015460ff16600481111561084957634e487b7160e01b600052602160045260246000fd5b146108665760405162461bcd60e51b815260040161068c906165b3565b60068101546008820154600a830154600c84015460ff61010093849004811693909104168280156108945750805b1561098d5760028501546001600160a01b03163314806108e25750846003015442101580156108e2575084546001600160a01b03163314806108e2575060018501546001600160a01b031633145b6108fe5760405162461bcd60e51b815260040161068c90615edc565b600260088601546301000000900460ff16600281111561092e57634e487b7160e01b600052602160045260246000fd5b141561094357610943866000866001826129d0565b6002600c8601546301000000900460ff16600281111561097357634e487b7160e01b600052602160045260246000fd5b141561098857610988866001848160006129d0565b610ad6565b8215610a275760028501546001600160a01b03163314806109c65750846003015442101580156109c6575084546001600160a01b031633145b6109e25760405162461bcd60e51b815260040161068c90615b7d565b600260088601546301000000900460ff166002811115610a1257634e487b7160e01b600052602160045260246000fd5b141561098857610988866000866001826129d0565b8015610a7f5760028501546001600160a01b0316331480610a63575084600301544210158015610a63575060018501546001600160a01b031633145b6109435760405162461bcd60e51b815260040161068c9061657c565b60028501546001600160a01b0316331480610aa3575084546001600160a01b031633145b80610aba575060018501546001600160a01b031633145b610ad65760405162461bcd60e51b815260040161068c90615f13565b600d850180546004919060ff19166001835b0217905550505050505050565b82610b008133612913565b610b1c5760405162461bcd60e51b815260040161068c90616311565b506001600160a01b03928316600090815260066020908152604080832094909516825292909252919020805460ff1916911515919091179055565b6001600160a01b0380831660009081526006602090815260408083209385168352929052205460ff165b92915050565b60008281526001602052604081205460ff1615610bca57604051602001610bad906157ef565b604051602081830303815290604052805190602001209050610b81565b506000610b81565b60008381526003602052604090206001600d82015460ff166004811115610c0957634e487b7160e01b600052602160045260246000fd5b14610c265760405162461bcd60e51b815260040161068c906165b3565b60058101546001600160a01b03166000908152600c6020908152604080832033845290915290205460ff1680610c83575060098101546001600160a01b03166000908152600c6020908152604080832033845290915290205460ff165b610c9f5760405162461bcd60e51b815260040161068c90615d37565b60058101546001600160a01b03166000908152600c6020908152604080832033845290915290205460ff1615610ce75760088101805462ff0000191662010000851515021790555b60098101546001600160a01b03166000908152600c6020908152604080832033845290915290205460ff1615610d2f57600c8101805462ff0000191662010000851515021790555b60028101546001600160a01b0316158015610d4e5750610d4e8461103f565b8015610d5e5750610d5e846118de565b15610d6d57610d6d8483612b5c565b50505050565b610d7b614ea5565b60008281526003602081815260409283902083516101008101855281546001600160a01b03908116825260018301548116828501526002830154811682870152938201546060808301919091526004808401546080840152865160e0810188526005850180549097168152600685015495810195909552600784015496850196909652600883015492959194869460a08701949093919284019160ff90911690811115610e3857634e487b7160e01b600052602160045260246000fd5b6004811115610e5757634e487b7160e01b600052602160045260246000fd5b8152600382015460ff61010082048116151560208401526201000082048116151560408401526060909201916301000000909104166002811115610eab57634e487b7160e01b600052602160045260246000fd5b6002811115610eca57634e487b7160e01b600052602160045260246000fd5b90525081526040805160e0810182526009840180546001600160a01b03168252600a850154602083810191909152600b86015493830193909352600c85015492909301929091606083019060ff166004811115610f3757634e487b7160e01b600052602160045260246000fd5b6004811115610f5657634e487b7160e01b600052602160045260246000fd5b8152600382015460ff61010082048116151560208401526201000082048116151560408401526060909201916301000000909104166002811115610faa57634e487b7160e01b600052602160045260246000fd5b6002811115610fc957634e487b7160e01b600052602160045260246000fd5b9052508152600d82015460209091019060ff166004811115610ffb57634e487b7160e01b600052602160045260246000fd5b600481111561101a57634e487b7160e01b600052602160045260246000fd5b9052509392505050565b6001600160a01b03166000908152600d602052604090205490565b60008181526003602052604081206001600d82015460ff16600481111561107657634e487b7160e01b600052602160045260246000fd5b141561127f57600060088201546301000000900460ff1660028111156110ac57634e487b7160e01b600052602160045260246000fd5b1480156111ba575080546040805160e0810182526005840180546001600160a01b0390811683526006860154602084015260078601549383019390935260088501546111b8949390931692606083019060ff16600481111561111e57634e487b7160e01b600052602160045260246000fd5b600481111561113d57634e487b7160e01b600052602160045260246000fd5b8152600382015460ff6101008204811615156020840152620100008204811615156040840152606090920191630100000090910416600281111561119157634e487b7160e01b600052602160045260246000fd5b60028111156111b057634e487b7160e01b600052602160045260246000fd5b905250612c89565b155b156111c9576000915050610660565b6000600c8201546301000000900460ff1660028111156111f957634e487b7160e01b600052602160045260246000fd5b148015611270575060018101546040805160e0810182526009840180546001600160a01b039081168352600a8601546020840152600b86015493830193909352600c85015461126e949390931692606083019060ff16600481111561111e57634e487b7160e01b600052602160045260246000fd5b155b1561127f576000915050610660565b6008810154610100900460ff1680156112a15750600c810154610100900460ff165b9392505050565b6060600980548060200260200160405190810160405280929190818152602001828054801561130057602002820191906000526020600020905b81546001600160a01b031681526001909101906020018083116112e2575b5050505050905090565b611318823334600085612e77565b5050565b60008281526003602052604090206001600d82015460ff16600481111561135357634e487b7160e01b600052602160045260246000fd5b146113705760405162461bcd60e51b815260040161068c906165b3565b60028101546001600160a01b0316156113af5760028101546001600160a01b031633146113af5760405162461bcd60e51b815260040161068c90615a28565b80600401544210156113d35760405162461bcd60e51b815260040161068c90616348565b6113dc8361103f565b6113f85760405162461bcd60e51b815260040161068c90615e88565b611401836118de565b61141d5760405162461bcd60e51b815260040161068c90615bb4565b6114278383612b5c565b505050565b6001600160a01b0380861660009081526006602090815260408083209388168352929052205460ff16801561148657506001600160a01b0380851660009081526006602090815260408083209389168352929052205460ff165b156114a35760405162461bcd60e51b815260040161068c90616116565b6001600160a01b0380861660009081526006602090815260408083209388168352929052205460ff16156114fc576114db8533612913565b6114f75760405162461bcd60e51b815260040161068c90615ce7565b611568565b6001600160a01b0380851660009081526006602090815260408083209389168352929052205460ff1615611550576115348433612913565b6114f75760405162461bcd60e51b815260040161068c906161c5565b60405162461bcd60e51b815260040161068c90615c2d565b6001600160a01b03948516600090815260076020908152604080832096909716825294855285812093815292845284832091835292529190912055565b61080f816000611a92565b61131882826000610bd2565b6115c461372a565b6001600160a01b03166115d56118cf565b6001600160a01b0316146115fb5760405162461bcd60e51b815260040161068c906160aa565b61160361372e565b6008805460ff19169055565b6001600160a01b0381166000908152600b6020908152604091829020805483518184028101840190945280845260609392830182828015610658576020028201919060005260206000209081546001600160a01b0316815260019091019060200180831161063a5750505050509050919050565b6001600160a01b039384166000908152600760209081526040808320959096168252938452848120928152918352838220908252909152205490565b61186e6116cf60208401846150e6565b6116df60408501602086016150e6565b6116ef60608601604087016150e6565b8560600135866101c001356040518060e0016040528089608001602081019061171891906150e6565b6001600160a01b0316815260a08a0135602082015260c08a0135604082015260600161174b6101008b0160e08c01615594565b600481111561176a57634e487b7160e01b600052602160045260246000fd5b8152600060208201819052604082015260600161178f6101a08b016101808c016155b3565b60028111156117ae57634e487b7160e01b600052602160045260246000fd5b90526040805160e08101909152806117ce6101208c016101008d016150e6565b6001600160a01b031681526101208b013560208201526101408b013560408201526060016118046101808c016101608d01615594565b600481111561182357634e487b7160e01b600052602160045260246000fd5b815260006020820181905260408201526060016118486101c08c016101a08d016155b3565b600281111561186757634e487b7160e01b600052602160045260246000fd5b9052613779565b61187b60208301836150e6565b6001600160a01b0316336001600160a01b031614806118ba57506118a560408301602084016150e6565b6001600160a01b0316336001600160a01b0316145b15611318576113186002543334600085612e77565b6000546001600160a01b031690565b600081815260036020908152604080832060058101546001600160a01b03168452600b909252822054158015906119205750600881015462010000900460ff16155b1561192f576000915050610660565b60098101546001600160a01b03166000908152600b6020526040902054158015906119655750600c81015462010000900460ff16155b15611974576000915050610660565b50600192915050565b61198561372a565b6001600160a01b03166119966118cf565b6001600160a01b0316146119bc5760405162461bcd60e51b815260040161068c906160aa565b60085460ff166119de5760405162461bcd60e51b815260040161068c906162da565b611318828280806020026020016040519081016040528093929190818152602001838360200280828437600092019190915250613d6092505050565b81611a258133612913565b611a415760405162461bcd60e51b815260040161068c90616311565b611a4e62093a804261676d565b821180611a59575081155b611a755760405162461bcd60e51b815260040161068c906159d7565b506001600160a01b039091166000908152600d6020526040902055565b60008281526003602052604090206001600d82015460ff166004811115611ac957634e487b7160e01b600052602160045260246000fd5b14611ae65760405162461bcd60e51b815260040161068c906165b3565b6005810154600682015460088301546009840154600a850154600c8601546001600160a01b039586169560ff61010095869004811695949091169390910416838015611b2f5750805b15611b4c5760405162461bcd60e51b815260040161068c9061618e565b6001600160a01b0386166000908152600b6020526040902054158015611b8857506001600160a01b0383166000908152600b6020526040902054155b611ba45760405162461bcd60e51b815260040161068c90615dff565b60028701546001600160a01b031615611be85760028701546001600160a01b03163314611be35760405162461bcd60e51b815260040161068c90616487565b611c61565b8315611c175786546001600160a01b03163314611be35760405162461bcd60e51b815260040161068c90615c9f565b8015611c495760018701546001600160a01b03163314611be35760405162461bcd60e51b815260040161068c9061669f565b60405162461bcd60e51b815260040161068c9061639e565b8315611c7657611c768960008760008c6129d0565b8015611c8b57611c8b8960018460008c6129d0565b50505050600d92909201805460ff1916600317905550505050565b6000818152600360209081526040808320600581015460068083015460078401546009850154600a860154600b8701546001600160a01b03968716808c52958a52888b2096909216808b529590985295882054949692959194909392919060ff168015611d3857506001600160a01b038084166000908152600660209081526040808320938a168352929052205460ff165b15611d555760405162461bcd60e51b815260040161068c90616116565b6001600160a01b0386166000908152600d60205260409020541580611d9157506001600160a01b0386166000908152600d602052604090205442105b15611da457509550610660945050505050565b6001600160a01b0380871660009081526006602090815260408083209387168352929052205460ff1680611dfd57506001600160a01b038084166000908152600660209081526040808320938a168352929052205460ff165b156121dc576001600160a01b038087166000908152600760209081526040808320938716835292815282822087835281528282208483529052205415611e8b576001600160a01b0380871660009081526007602090815260408083209387168352928152828220878352815282822084835290522054611e7d90866167a5565b975050505050505050610660565b6001600160a01b038084166000908152600760209081526040808320938a16835292815282822084835281528282208783529052205415611f06576001600160a01b038084166000908152600760209081526040808320938a168352928152828220848352815282822087835290522054611e7d9086616785565b6001600160a01b038087166000908152600760209081526040808320938716835292815282822087835281528282208280529052205415611f81576001600160a01b0380871660009081526007602090815260408083209387168352928152828220878352815282822082805290522054611e7d90866167a5565b6001600160a01b038084166000908152600760209081526040808320938a16835292815282822082805281528282208783529052205415611ffc576001600160a01b038084166000908152600760209081526040808320938a168352928152828220828052815282822087835290522054611e7d9086616785565b6001600160a01b038087166000908152600760209081526040808320938716835292815282822082805281528282208483529052205415612077576001600160a01b0380871660009081526007602090815260408083209387168352928152828220828052815282822084835290522054611e7d90866167a5565b6001600160a01b038084166000908152600760209081526040808320938a168352928152828220848352815282822082805290522054156120f2576001600160a01b038084166000908152600760209081526040808320938a168352928152828220848352815282822082805290522054611e7d9086616785565b6001600160a01b038087166000908152600760209081526040808320938716835292815282822082805281528282209052205415612167576001600160a01b0380871660009081526007602090815260408083209387168352928152828220828052815282822090522054611e7d90866167a5565b6001600160a01b038084166000908152600760209081526040808320938a168352928152828220828052815282822090522054156121dc576001600160a01b038084166000908152600760209081526040808320938a168352928152828220828052815282822090522054611e7d9086616785565b509550610660945050505050565b60025490565b82806001600160a01b0316638da5cb5b6040518163ffffffff1660e01b815260040160206040518083038186803b15801561222a57600080fd5b505afa15801561223e573d6000803e3d6000fd5b505050506040513d601f19601f820116820180604052508101906122629190615102565b6001600160a01b0316336001600160a01b031614806122a457506001600160a01b0381166000908152600c6020908152604080832033845290915290205460ff165b6122c05760405162461bcd60e51b815260040161068c9061614d565b60005b6001600160a01b0385166000908152600b602052604090205481101561236e576001600160a01b0385166000908152600c60209081526040808320600b909252822080548391908590811061232857634e487b7160e01b600052603260045260246000fd5b6000918252602080832091909101546001600160a01b031683528201929092526040019020805460ff19169115159190911790558061236681616807565b9150506122c3565b5060005b82811015612404576001600160a01b0385166000908152600c602052604081206001918686858181106123b557634e487b7160e01b600052603260045260246000fd5b90506020020160208101906123ca91906150e6565b6001600160a01b031681526020810191909152604001600020805460ff1916911515919091179055806123fc81616807565b915050612372565b506001600160a01b0384166000908152600b602052604090206107fd908484614e42565b61243061372a565b6001600160a01b03166124416118cf565b6001600160a01b0316146124675760405162461bcd60e51b815260040161068c906160aa565b6001600160a01b03811661248d5760405162461bcd60e51b815260040161068c90615c59565b61080f81613e65565b336001600160a01b03166124ce336040518060400160405280600c81526020016b22a921989a18182a37b5b2b760a11b815250613eb5565b6001600160a01b0316146124f45760405162461bcd60e51b815260040161068c90615f4a565b6001600160a01b038516301461251c5760405162461bcd60e51b815260040161068c90615c11565b61255c8383838080601f016020809104026020016040519081016040528093929190818152602001838380828437600092019190915250613f7292505050565b6125785760405162461bcd60e51b815260040161068c906165e1565b600061258384614067565b90507fcccccccccccccccccccccccccccccccccccccccccccccccccccccccccccccccc81141561262a57604084810151606080870151608088015160a0890151855160e081018752338152602081018c90529586018f905293949193909290916000918101600481526001602082015260006040820152606001600290529050600061260e8a61406e565b905061261f8d878787878787613779565b505050505050612834565b7fdddddddddddddddddddddddddddddddddddddddddddddddddddddddddddddddd81141561283457604084015184516000906060141561266b575060608501515b600082815260036020526040812080549091906001600160a01b038c8116911614612699578160090161269e565b816005015b6040805160e08101825282546001600160a01b03168152600183015460208201526002830154918101919091526003820154909190606083019060ff1660048111156126fa57634e487b7160e01b600052602160045260246000fd5b600481111561271957634e487b7160e01b600052602160045260246000fd5b8152600382015460ff6101008204811615156020840152620100008204811615156040840152606090920191630100000090910416600281111561276d57634e487b7160e01b600052602160045260246000fd5b600281111561278c57634e487b7160e01b600052602160045260246000fd5b90525080519091506001600160a01b031633146127bb5760405162461bcd60e51b815260040161068c90616049565b80604001518d146127de5760405162461bcd60e51b815260040161068c90616445565b8060600151600481111561280257634e487b7160e01b600052602160045260246000fd5b6004146128215760405162461bcd60e51b815260040161068c90615a86565b61282f848c60008c87612e77565b505050505b5050505050505050505050565b60006128b685858080601f01602080910402602001604051908101604052809392919081815260200183838082843760009201919091525050604080516020601f89018190048102820181019092528781529250879150869081908401838280828437600092019190915250613f7292505050565b9c9b505050505050505050505050565b6001806000836040516020016128dc91906157d3565b60408051808303601f19018152918152815160209283012083529082019290925201600020805460ff191691151591909117905550565b6001600160a01b03808316600090815260056020908152604080832093851683529290529081205460ff16806112a15750826001600160a01b0316638da5cb5b6040518163ffffffff1660e01b815260040160206040518083038186803b15801561297d57600080fd5b505afa158015612991573d6000803e3d6000fd5b505050506040513d601f19601f820116820180604052508101906129b59190615102565b6001600160a01b0316826001600160a01b0316149392505050565b60008581526003602052604081209080866001811115612a0057634e487b7160e01b600052602160045260246000fd5b14612a0e5781600901612a13565b816005015b6040805160e08101825282546001600160a01b03168152600183015460208201526002830154918101919091526003820154909190606083019060ff166004811115612a6f57634e487b7160e01b600052602160045260246000fd5b6004811115612a8e57634e487b7160e01b600052602160045260246000fd5b8152600382015460ff61010082048116151560208401526201000082048116151560408401526060909201916301000000909104166002811115612ae257634e487b7160e01b600052602160045260246000fd5b6002811115612b0157634e487b7160e01b600052602160045260246000fd5b90525060c08101519091506001816002811115612b2e57634e487b7160e01b600052602160045260246000fd5b1415612b4657612b41888888888861411e565b612b52565b612b52888888886143c2565b5050505050505050565b600082815260036020526040812090612b7484611ca6565b6006830154600a8401549192509080831415612bad57612b99866000846000896129d0565b612ba8866001836000896129d0565b612c73565b808311158015612beb57506001600c8501546301000000900460ff166002811115612be857634e487b7160e01b600052602160045260246000fd5b14155b612c075760405162461bcd60e51b815260040161068c90615f66565b612c16866000846000896129d0565b612c25866001856000896129d0565b6002600c8501546301000000900460ff166002811115612c5557634e487b7160e01b600052602160045260246000fd5b1415612c7357612c73866001612c6b86856167c4565b6001896129d0565b600d840180546002919060ff1916600183610ae8565b80516020820151604083015160608401516000939291906002816004811115612cc257634e487b7160e01b600052602160045260246000fd5b1415612d5557604051636eb1769f60e11b815283906001600160a01b0386169063dd62ed3e90612cf8908b903090600401615823565b60206040518083038186803b158015612d1057600080fd5b505afa158015612d24573d6000803e3d6000fd5b505050506040513d601f19601f82011682018060405250810190612d48919061530f565b1015945050505050610b81565b6003816004811115612d7757634e487b7160e01b600052602160045260246000fd5b1415612e105760405163020604bf60e21b815230906001600160a01b0386169063081812fc90612dab9086906004016157ca565b60206040518083038186803b158015612dc357600080fd5b505afa158015612dd7573d6000803e3d6000fd5b505050506040513d601f19601f82011682018060405250810190612dfb9190615102565b6001600160a01b031614945050505050610b81565b6004816004811115612e3257634e487b7160e01b600052602160045260246000fd5b1415612e6a57604051630bf641e560e11b815283906001600160a01b038616906317ec83ca90612cf89086908c90309060040161590f565b5060019695505050505050565b60008581526003602052604090206001600d82015460ff166004811115612eae57634e487b7160e01b600052602160045260246000fd5b14612ecb5760405162461bcd60e51b815260040161068c906165b3565b80546000906001600160a01b0387811691161415612ef7575060018101546001600160a01b0316612f75565b60018201546001600160a01b0387811691161415612f20575080546001600160a01b0316612f75565b60018201546001600160a01b0316612f5d57506001810180546001600160a01b0319166001600160a01b0387811691909117909155815416612f75565b60405162461bcd60e51b815260040161068c90616259565b81546000906001600160a01b03888116911614612f955782600901612f9a565b826005015b6040805160e08101825282546001600160a01b03168152600183015460208201526002830154918101919091526003820154909190606083019060ff166004811115612ff657634e487b7160e01b600052602160045260246000fd5b600481111561301557634e487b7160e01b600052602160045260246000fd5b8152600382015460ff6101008204811615156020840152620100008204811615156040840152606090920191630100000090910416600281111561306957634e487b7160e01b600052602160045260246000fd5b600281111561308857634e487b7160e01b600052602160045260246000fd5b8152505090508060800151156130b05760405162461bcd60e51b815260040161068c90616215565b60028160c0015160028111156130d657634e487b7160e01b600052602160045260246000fd5b141561342d5760018160600151600481111561310257634e487b7160e01b600052602160045260246000fd5b1415613130578060200151861461312b5760405162461bcd60e51b815260040161068c90615e51565b613428565b60028160600151600481111561315657634e487b7160e01b600052602160045260246000fd5b14156131ea57805160208201516040516323b872dd60e01b81526001600160a01b03909216916323b872dd91613192918b91309160040161583d565b602060405180830381600087803b1580156131ac57600080fd5b505af11580156131c0573d6000803e3d6000fd5b505050506040513d601f19601f820116820180604052508101906131e491906152f3565b50613428565b60038160600151600481111561321057634e487b7160e01b600052602160045260246000fd5b141561328357805160408083015190516323b872dd60e01b81526001600160a01b03909216916323b872dd9161324c918b91309160040161583d565b600060405180830381600087803b15801561326657600080fd5b505af115801561327a573d6000803e3d6000fd5b50505050613428565b6004816060015160048111156132a957634e487b7160e01b600052602160045260246000fd5b1480156132b4575084155b156133ce5780600001516001600160a01b0316638c0dee9c8260400151893085602001517faaaaaaaaaaaaaaaaaaaaaaaaaaaaaaaaaaaaaaaaaaaaaaaaaaaaaaaaaaaaaaaa60001b60405160200161330c91906157ca565b60408051601f19818403018152908290529061334c907faaaaaaaaaaaaaaaaaaaaaaaaaaaaaaaaaaaaaaaaaaaaaaaaaaaaaaaaaaaaaaaa906020016157ca565b6040516020818303038152906040526040518763ffffffff1660e01b815260040161337c9695949392919061592e565b602060405180830381600087803b15801561339657600080fd5b505af11580156133aa573d6000803e3d6000fd5b505050506040513d601f19601f820116820180604052508101906131e4919061530f565b6004816060015160048111156133f457634e487b7160e01b600052602160045260246000fd5b14801561340057508415155b1561342857806020015185146134285760405162461bcd60e51b815260040161068c90615b0d565b6134a6565b60018160c00151600281111561345357634e487b7160e01b600052602160045260246000fd5b14156134805761346487838361481b565b6134285760405162461bcd60e51b815260040161068c9061651f565b61348a8782612c89565b6134a65760405162461bcd60e51b815260040161068c90615fec565b82546001600160a01b03888116911614156134d15760088301805461ff0019166101001790556134e3565b600c8301805461ff0019166101001790555b600483015442101560006134f68a6118de565b9050818015613510575060028501546001600160a01b0316155b80156135495750600160088601546301000000900460ff16600281111561354757634e487b7160e01b600052602160045260246000fd5b145b801561358257506001600c8601546301000000900460ff16600281111561358057634e487b7160e01b600052602160045260246000fd5b145b801561358b5750805b156136de5784546000906001600160a01b038b81169116146135b057856005016135b5565b856009015b6040805160e08101825282546001600160a01b03168152600183015460208201526002830154918101919091526003820154909190606083019060ff16600481111561361157634e487b7160e01b600052602160045260246000fd5b600481111561363057634e487b7160e01b600052602160045260246000fd5b8152600382015460ff6101008204811615156020840152620100008204811615156040840152606090920191630100000090910416600281111561368457634e487b7160e01b600052602160045260246000fd5b60028111156136a357634e487b7160e01b600052602160045260246000fd5b90525090506136b3858b8361481b565b156136dc5760088601805461010061ff00199182168117909255600c8801805490911690911790555b505b60028501546001600160a01b03161580156136fd57506136fd8a61103f565b80156137065750805b801561370f5750815b1561371e5761371e8a87612b5c565b50505050505050505050565b3390565b61373661372a565b6001600160a01b03166137476118cf565b6001600160a01b03161461376d5760405162461bcd60e51b815260040161068c906160aa565b6137776000613e65565b565b60018260600151600481111561379f57634e487b7160e01b600052602160045260246000fd5b14156137e85760028260c0015160028111156137cb57634e487b7160e01b600052602160045260246000fd5b146137e85760405162461bcd60e51b815260040161068c90615ac7565b60018160600151600481111561380e57634e487b7160e01b600052602160045260246000fd5b14156138575760028160c00151600281111561383a57634e487b7160e01b600052602160045260246000fd5b146138575760405162461bcd60e51b815260040161068c90615ac7565b60018260c00151600281111561387d57634e487b7160e01b600052602160045260246000fd5b1415613915576002826060015160048111156138a957634e487b7160e01b600052602160045260246000fd5b14806138d857506004826060015160048111156138d657634e487b7160e01b600052602160045260246000fd5b145b6138f45760405162461bcd60e51b815260040161068c906163fb565b60408201516139155760405162461bcd60e51b815260040161068c90616672565b60018160c00151600281111561393b57634e487b7160e01b600052602160045260246000fd5b14156139d35760028160600151600481111561396757634e487b7160e01b600052602160045260246000fd5b1480613996575060048160600151600481111561399457634e487b7160e01b600052602160045260246000fd5b145b6139b25760405162461bcd60e51b815260040161068c906163fb565b60408101516139d35760405162461bcd60e51b815260040161068c90616672565b60085460ff1615613a16576001600160a01b0385166000908152600a602052604090205460ff16613a165760405162461bcd60e51b815260040161068c90615d94565b6001600160a01b038716613a3c5760405162461bcd60e51b815260040161068c906164cf565b60028054906000613a4c83616807565b91905055506000428511613a6c57613a6762278d004261676d565b613a6e565b845b9050604051806101000160405280896001600160a01b03168152602001886001600160a01b03168152602001876001600160a01b0316815260200182815260200185815260200184815260200183815260200160016004811115613ae257634e487b7160e01b600052602160045260246000fd5b905260028054600090815260036020818152604092839020855181546001600160a01b039182166001600160a01b03199182161783558784015160018085018054928516928416929092179091558887015197840180549884169883169890981790975560608089015195840195909555608088015160048085019190915560a089015180516005860180549190951693169290921783559381015160068401559485015160078301559284015160088201805492969193909260ff191691908490811115613bc157634e487b7160e01b600052602160045260246000fd5b0217905550608082015160038201805460a08501511515620100000262ff0000199315156101000261ff001990921691909117929092169190911780825560c0840151919063ff00000019166301000000836002811115613c3257634e487b7160e01b600052602160045260246000fd5b0217905550505060c082015180516009830180546001600160a01b0319166001600160a01b039092169190911781556020820151600a8401556040820151600b8401556060820151600c8401805460ff19166001836004811115613ca657634e487b7160e01b600052602160045260246000fd5b0217905550608082015160038201805460a08501511515620100000262ff0000199315156101000261ff001990921691909117929092169190911780825560c0840151919063ff00000019166301000000836002811115613d1757634e487b7160e01b600052602160045260246000fd5b0217905550505060e0820151600d8201805460ff19166001836004811115613d4f57634e487b7160e01b600052602160045260246000fd5b021790555050505050505050505050565b60005b600954811015613dda576000600a600060098481548110613d9457634e487b7160e01b600052603260045260246000fd5b6000918252602080832091909101546001600160a01b031683528201929092526040019020805460ff191691151591909117905580613dd281616807565b915050613d63565b5060005b8151811015613e51576001600a6000848481518110613e0d57634e487b7160e01b600052603260045260246000fd5b6020908102919091018101516001600160a01b03168252810191909152604001600020805460ff191691151591909117905580613e4981616807565b915050613dde565b508051611318906009906020840190614f11565b600080546001600160a01b038381166001600160a01b0319831681178455604051919092169283917f8be0079c531659141344cd1fd0a4f28419497f9722a3daafe3b4186f6b6457e09190a35050565b60008082604051602001613ec991906157d3565b60408051601f1981840301815290829052805160209091012063555ddc6560e11b82529150731820a4b7618bde71dce8cdc73aab6c95905fad249063aabbb8ca90613f1a9087908590600401615861565b60206040518083038186803b158015613f3257600080fd5b505afa158015613f46573d6000803e3d6000fd5b505050506040513d601f19601f82011682018060405250810190613f6a9190615102565b949350505050565b6000815160001415613f8657506000610b81565b6000613f9184614067565b90508351610140148015613fc457507fcccccccccccccccccccccccccccccccccccccccccccccccccccccccccccccccc81145b15613fd3576001915050610b81565b835160401480613fe4575083516060145b801561400f57507fdddddddddddddddddddddddddddddddddddddddddddddddddddddddddddddddd81145b1561401e576001915050610b81565b8351602014801561404e57507faaaaaaaaaaaaaaaaaaaaaaaaaaaaaaaaaaaaaaaaaaaaaaaaaaaaaaaaaaaaaaaa81145b1561405d576001915050610b81565b6000915050610b81565b6020015190565b614076614f66565b60c082015160e0808401516101008501516101208601516101408701516040805195860181526001600160a01b0387168652602086018590528501839052929391929091606081018360048111156140de57634e487b7160e01b600052602160045260246000fd5b8152600060208201819052604082015260600182600281111561411157634e487b7160e01b600052602160045260246000fd5b9052979650505050505050565b6000858152600360205260408120908086600181111561414e57634e487b7160e01b600052602160045260246000fd5b146141665760018201546001600160a01b0316614172565b81546001600160a01b03165b905060008087600181111561419757634e487b7160e01b600052602160045260246000fd5b146141ac5782546001600160a01b03166141bb565b60018301546001600160a01b03165b90506000808860018111156141e057634e487b7160e01b600052602160045260246000fd5b146141ee57836009016141f3565b836005015b6040805160e08101825282546001600160a01b03168152600183015460208201526002830154918101919091526003820154909190606083019060ff16600481111561424f57634e487b7160e01b600052602160045260246000fd5b600481111561426e57634e487b7160e01b600052602160045260246000fd5b8152600382015460ff610100820481161515602084015262010000820481161515604084015260609092019163010000009091041660028111156142c257634e487b7160e01b600052602160045260246000fd5b60028111156142e157634e487b7160e01b600052602160045260246000fd5b815250509050836003015442111561430b5760405162461bcd60e51b815260040161068c90615fb5565b805160408201516060830151600281600481111561433957634e487b7160e01b600052602160045260246000fd5b14806143645750600481600481111561436257634e487b7160e01b600052602160045260246000fd5b145b6143805760405162461bcd60e51b815260040161068c90616073565b61438b86868661481b565b6143a75760405162461bcd60e51b815260040161068c90615b54565b6143b48383838b89614b84565b505050505050505050505050565b600084815260036020526040812090808560018111156143f257634e487b7160e01b600052602160045260246000fd5b1461440a5760018201546001600160a01b0316614416565b81546001600160a01b03165b905060008086600181111561443b57634e487b7160e01b600052602160045260246000fd5b146144505782546001600160a01b031661445f565b60018301546001600160a01b03165b905060008087600181111561448457634e487b7160e01b600052602160045260246000fd5b146144925783600901614497565b836005015b805460028083015460038401549394506001600160a01b039092169260ff1690869060038601546301000000900460ff1660028111156144e757634e487b7160e01b600052602160045260246000fd5b14156144f05750305b88156144fe57869550614522565b87600301544211156145225760405162461bcd60e51b815260040161068c90615fb5565b600182600481111561454457634e487b7160e01b600052602160045260246000fd5b14156145895760405186906001600160a01b038216908c156108fc02908d906000818181858888f19350505050158015614582573d6000803e3d6000fd5b50506143b4565b60028260048111156145ab57634e487b7160e01b600052602160045260246000fd5b14156146d1576001600160a01b0381163014156146485760405163a9059cbb60e01b81526001600160a01b0385169063a9059cbb906145f09089908e90600401615861565b602060405180830381600087803b15801561460a57600080fd5b505af115801561461e573d6000803e3d6000fd5b505050506040513d601f19601f8201168201806040525081019061464291906152f3565b506146cc565b6040516323b872dd60e01b81526001600160a01b038516906323b872dd906146789084908a908f9060040161583d565b602060405180830381600087803b15801561469257600080fd5b505af11580156146a6573d6000803e3d6000fd5b505050506040513d601f19601f820116820180604052508101906146ca91906152f3565b505b6143b4565b60038260048111156146f357634e487b7160e01b600052602160045260246000fd5b1415614760576040516323b872dd60e01b81526001600160a01b038516906323b872dd906147299084908a90889060040161583d565b600060405180830381600087803b15801561474357600080fd5b505af1158015614757573d6000803e3d6000fd5b505050506143b4565b600482600481111561478257634e487b7160e01b600052602160045260246000fd5b14156143b457836001600160a01b0316638c0dee9c8483898e6040518563ffffffff1660e01b81526004016147ba9493929190615986565b602060405180830381600087803b1580156147d457600080fd5b505af11580156147e8573d6000803e3d6000fd5b505050506040513d601f19601f8201168201806040525081019061480c919061530f565b50505050505050505050505050565b8051604082015160608301516000929190600481600481111561484e57634e487b7160e01b600052602160045260246000fd5b1415614a0457600061488e846040518060400160405280601681526020017522a921989a18182a37b5b2b739ab30b634b230ba37b960511b815250613eb5565b90506001600160a01b0381166148b65760405162461bcd60e51b815260040161068c906165fd565b600080600080600080866001600160a01b03166312da4de68b8b6040518363ffffffff1660e01b81526004016148ed929190615861565b6101206040518083038186803b15801561490657600080fd5b505afa15801561491a573d6000803e3d6000fd5b505050506040513d601f19601f8201168201806040525081019061493e919061534b565b9d50959b509399509097509095509093506001925061495b915050565b86600681111561497b57634e487b7160e01b600052602160045260246000fd5b14801561498b57508b6020015183145b80156149b957508d6001600160a01b0316856001600160a01b031614806149b957506001600160a01b038516155b80156149d657508c6001600160a01b0316846001600160a01b0316145b80156149f35750801515806149f357506001600160a01b03821630145b9a50505050505050505050506112a1565b6002816004811115614a2657634e487b7160e01b600052602160045260246000fd5b1415614b6c57604051636d0f612360e11b81526000906001600160a01b0385169063da1ec24690614a5b9086906004016157ca565b60e06040518083038186803b158015614a7357600080fd5b505afa158015614a87573d6000803e3d6000fd5b505050506040513d601f19601f82011682018060405250810190614aab91906155d2565b9050876001600160a01b031681600001516001600160a01b03161480614ad9575080516001600160a01b0316155b8015614afa5750866001600160a01b031681602001516001600160a01b0316145b8015614b0d575085602001518160600151145b8015614b3c575060018160c001516006811115614b3a57634e487b7160e01b600052602160045260246000fd5b145b8015614b61575060a0810151151580614b61575060408101516001600160a01b031630145b9450505050506112a1565b60405162461bcd60e51b815260040161068c906162a3565b6002836004811115614ba657634e487b7160e01b600052602160045260246000fd5b1415614c37576001600160a01b038516614bd25760405162461bcd60e51b815260040161068c906160df565b60405163445850af60e01b81526001600160a01b0386169063445850af90614c0090879086906004016159c9565b600060405180830381600087803b158015614c1a57600080fd5b505af1158015614c2e573d6000803e3d6000fd5b50505050614df7565b6004836004811115614c5957634e487b7160e01b600052602160045260246000fd5b1415614ddf576001600160a01b038516614c855760405162461bcd60e51b815260040161068c906160df565b6000614cbf866040518060400160405280601681526020017522a921989a18182a37b5b2b739ab30b634b230ba37b960511b815250613eb5565b90506001600160a01b038116614ce75760405162461bcd60e51b815260040161068c906165fd565b60405163096d26f360e11b81526000906001600160a01b038316906312da4de690614d18908a908a90600401615861565b6101206040518083038186803b158015614d3157600080fd5b505afa158015614d45573d6000803e3d6000fd5b505050506040513d601f19601f82011682018060405250810190614d69919061534b565b5050604051631531bc2360e21b8152929750506001600160a01b03881695506354c6f08c9450614da693508c92508b918791508a9060040161587a565b600060405180830381600087803b158015614dc057600080fd5b505af1158015614dd4573d6000803e3d6000fd5b505050505050614df7565b60405162461bcd60e51b815260040161068c90616642565b83856001600160a01b03167ff16e81ebbf4a87ccaa6230614a9d911f4d2a9e9274e2aaca49922f17799594898484604051614e339291906158f8565b60405180910390a35050505050565b828054828255906000526020600020908101928215614e95579160200282015b82811115614e955781546001600160a01b0319166001600160a01b03843516178255602090920191600190910190614e62565b50614ea1929150614fa2565b5090565b60405180610100016040528060006001600160a01b0316815260200160006001600160a01b0316815260200160006001600160a01b031681526020016000815260200160008152602001614ef7614f66565b8152602001614f04614f66565b815260200160005b905290565b828054828255906000526020600020908101928215614e95579160200282015b82811115614e9557825182546001600160a01b0319166001600160a01b03909116178255602090920191600190910190614f31565b6040805160e081018252600080825260208201819052918101829052606081018290526080810182905260a081018290529060c0820190614f0c565b5b80821115614ea15760008155600101614fa3565b803561066081616874565b805161066081616874565b60008083601f840112614fde578081fd5b50813567ffffffffffffffff811115614ff5578182fd5b602083019150836020808302850101111561500f57600080fd5b9250929050565b60008083601f840112615027578182fd5b50813567ffffffffffffffff81111561503e578182fd5b60208301915083602082850101111561500f57600080fd5b600082601f830112615066578081fd5b813567ffffffffffffffff808211156150815761508161684e565b604051601f8301601f1916810160200182811182821017156150a5576150a561684e565b6040528281528483016020018610156150bc578384fd5b82602086016020830137918201602001929092529392505050565b80516007811061066057600080fd5b6000602082840312156150f7578081fd5b81356112a181616874565b600060208284031215615113578081fd5b81516112a181616874565b60008060408385031215615130578081fd5b823561513b81616874565b9150602083013561514b81616874565b809150509250929050565b60008060006060848603121561516a578081fd5b833561517581616874565b9250602084013561518581616874565b9150604084013561519581616889565b809150509250925092565b600080600080608085870312156151b5578081fd5b84356151c081616874565b935060208501356151d081616874565b93969395505050506040820135916060013590565b600080600080600060a086880312156151fc578081fd5b853561520781616874565b9450602086013561521781616874565b94979496505050506040830135926060810135926080909101359150565b600080600060408486031215615249578283fd5b833561525481616874565b9250602084013567ffffffffffffffff81111561526f578283fd5b61527b86828701614fcd565b9497909650939450505050565b6000806040838503121561529a578182fd5b82356152a581616874565b946020939093013593505050565b600080602083850312156152c5578182fd5b823567ffffffffffffffff8111156152db578283fd5b6152e785828601614fcd565b90969095509350505050565b600060208284031215615304578081fd5b81516112a181616889565b600060208284031215615320578081fd5b5051919050565b60008060408385031215615339578182fd5b82359150602083013561514b81616874565b60008060008060008060008060006101208a8c031215615369578687fd5b8951985060208a015161537b81616874565b60408b015190985061538c81616874565b60608b015190975061539d81616874565b8096505060808a0151945060a08a0151935060c08a0151925060e08a015191506153ca6101008b016150d7565b90509295985092959850929598565b60008060008060008060008060008060006101008c8e0312156153fa578485fd5b67ffffffffffffffff808d351115615410578586fd5b61541d8e8e358f01615016565b909c509a5060208d0135995061543560408e01614fb7565b985061544360608e01614fb7565b975061545160808e01614fb7565b965060a08d013595508060c08e0135111561546a578283fd5b61547a8e60c08f01358f01615016565b909550935060e08d013581101561548f578283fd5b506154a08d60e08e01358e01615016565b81935080925050509295989b509295989b9093969950565b6000806000806000806000806000806101008b8d0312156154d7578384fd5b8a3567ffffffffffffffff808211156154ee578586fd5b6154fa8e838f01615016565b909c509a5060208d013599508a915061551560408e01614fb7565b985061552360608e01614fb7565b975061553160808e01614fb7565b965060a08d0135955060c08d013591508082111561554d578485fd5b6155598e838f01615056565b945060e08d013591508082111561556e578384fd5b5061557b8d828e01615016565b915080935050809150509295989b9194979a5092959850565b6000602082840312156155a5578081fd5b8135600581106112a1578182fd5b6000602082840312156155c4578081fd5b8135600381106112a1578182fd5b600060e082840312156155e3578081fd5b60405160e0810181811067ffffffffffffffff821117156156065761560661684e565b60405261561283614fc2565b815261562060208401614fc2565b602082015261563160408401614fc2565b6040820152606083015160608201526080830151608082015260a083015160a082015261566060c084016150d7565b60c08201529392505050565b600080828403610200811215615680578283fd5b6101e08082121561568f578384fd5b9395938601359450505050565b6000602082840312156156ad578081fd5b5035919050565b600080604083850312156156c6578182fd5b82359150602083013561514b81616889565b6000806000606084860312156156ec578081fd5b8335925060208401356156fe81616889565b929592945050506040919091013590565b60008060408385031215615721578182fd5b50508035926020909101359150565b600081518084526157488160208601602086016167db565b601f01601f19169290920160200192915050565b80516001600160a01b031682526020808201519083015260408082015190830152606081015161578b81616864565b8060608401525060808101511515608083015260a0810151151560a083015260c0810151600381106157bf576157bf616838565b8060c0840152505050565b90815260200190565b600082516157e58184602087016167db565b9190910192915050565b73455243313832305f4143434550545f4d4147494360601b815260140190565b6001600160a01b0391909116815260200190565b6001600160a01b0392831681529116602082015260400190565b6001600160a01b039384168152919092166020820152604081019190915260600190565b6001600160a01b03929092168252602082015260400190565b6001600160a01b0394909416845260208401929092526040830152606082015260800190565b6020808252825182820181905260009190848201906040850190845b818110156158e15783516001600160a01b0316835292840192918401916001016158bc565b50909695505050505050565b901515815260200190565b9182526001600160a01b0316602082015260400190565b9283526001600160a01b03918216602084015216604082015260600190565b8681526001600160a01b038681166020830152851660408201526060810184905260c06080820181905260009061596790830185615730565b82810360a08401526159798185615730565b9998505050505050505050565b9384526001600160a01b03928316602085015291166040830152606082015260c060808201819052600090820181905260e060a083018190528201526101000190565b918252602082015260400190565b60208082526031908201527f53746172742064617465206e6565647320746f20626520736574206174206c656040820152706173742061207765656b206265666f726560781b606082015260800190565b602080825260409082018190527f54726164652063616e206f6e6c79206265206578656375746564206279206578908201527f65637574657220646566696e6564206174207472616465206372656174696f6e606082015260800190565b60208082526021908201527f546f6b656e73206f66207468652077726f6e67207374616e646172642073656e6040820152601d60fa1b606082015260800190565b60208082526026908201527f457468657220747261646573206e65656420746f206265206f66207479706520604082015265457363726f7760d01b606082015260800190565b60208082526027908201527f416d6f756e74206f66204552433134303020746f6b656e73206973206e6f742060408201526618dbdc9c9958dd60ca1b606082015260800190565b6020808252600f908201526e121bdb19081b5d5cdd08195e1a5cdd608a1b604082015260600190565b602080825260299082015260008051602061689883398151915260408201526874726164652028312960b81b606082015260800190565b60208082526038908201527f547261646520686173206e6f74206265656e20617070726f766564206279206160408201527f6c6c20746f6b656e20636f6e74726f6c6c657273207965740000000000000000606082015260800190565b602080825260029082015261035360f41b604082015260600190565b60208082526012908201527104e6f207072696365206f776e6572736869760741b604082015260600190565b60208082526026908201527f4f776e61626c653a206e6577206f776e657220697320746865207a65726f206160408201526564647265737360d01b606082015260800190565b60208082526028908201527f53656e646572206973206e6f7420616c6c6f77656420746f20666f7263652074604082015267726164652028312960c01b606082015260800190565b60208082526030908201527f507269636520736574746572206973206e6f7420616e206f7261636c6520666f60408201526f72207468697320746f6b656e2028312960801b606082015260800190565b6020808252603d908201527f4f6e6c7920746f6b656e20636f6e74726f6c6c657273206f6620696e766f6c7660408201527f656420746f6b656e732063616e20617070726f76652061207472616465000000606082015260800190565b60208082526045908201527f5472616465206578656375746572206e6565647320746f2062656c6f6e67207460408201527f6f20746865206c697374206f6620616c6c6f7765642074726164652065786563606082015264757465727360d81b608082015260a00190565b60208082526032908201527f54726164652063616e206e6f7420626520666f7263656420696620746f6b656e60408201527173206861766520636f6e74726f6c6c65727360701b606082015260800190565b6020808252601c908201527f416d6f756e74206f6620455448206973206e6f7420636f727265637400000000604082015260600190565b60208082526034908201527f547261646520686173206e6f74206265656e20616363657074656420627920616040820152731b1b081d1bdad95b881a1bdb19195c9cc81e595d60621b606082015260800190565b602080825260299082015260008051602061689883398151915260408201526874726164652028302960b81b606082015260800190565b602080825260299082015260008051602061689883398151915260408201526874726164652028332960b81b606082015260800190565b602080825260029082015261353560f01b604082015260600190565b6020808252602f908201527f507269636520697320686967686572207468616e20616d6f756e74206573637260408201526e1bddd9590bd85d5d1a1bdc9a5e9959608a1b606082015260800190565b60208082526017908201527f45787069726174696f6e20646174652069732070617374000000000000000000604082015260600190565b6020808252603c908201527f416c6c6f77616e6365206e6565647320746f2062652070726f7669646564206960408201527f6e20746f6b656e20736d61727420636f6e747261637420666972737400000000606082015260800190565b60208082526010908201526f15dc9bdb99c81d1bdad95b881cd95b9d60821b604082015260600190565b6020808252601f908201527f546f6b656e207374616e64617264206d75737420626520686f6c6461626c6500604082015260600190565b6020808252818101527f4f776e61626c653a2063616c6c6572206973206e6f7420746865206f776e6572604082015260600190565b6020808252601f908201527f746f6b656e2063616e206e6f742062652061207a65726f206164647265737300604082015260600190565b6020808252601e908201527f436f6d7065746974696f6e206f6e207072696365206f776e6572736869700000604082015260600190565b60208082526021908201527f53656e646572206973206e6f74206120746f6b656e20636f6e74726f6c6c65726040820152601760f91b606082015260800190565b6020808252601a908201527f6578656375746554726164652063616e2062652063616c6c6564000000000000604082015260600190565b60208082526030908201527f507269636520736574746572206973206e6f7420616e206f7261636c6520666f60408201526f72207468697320746f6b656e2028322960801b606082015260800190565b60208082526024908201527f547261646520616c72656164792061636365707465642062792074686520686f604082015263363232b960e11b606082015260800190565b6020808252602a908201527f4f6e6c79207265676973746572656420686f6c646572732063616e20616363656040820152697074206120747261646560b01b606082015260800190565b6020808252601e908201527f496e76616c696420746f6b656e5374616e646172642070726f76696465640000604082015260600190565b6020808252601b908201527f537761707320636f6e7472616374206973206e6f74206f776e65640000000000604082015260600190565b6020808252601d908201527f53656e646572206973206e6f742061207072696365206f7261636c652e000000604082015260600190565b60208082526036908201527f54726164652063616e206f6e6c79206265206578656375746564206f6e206f7260408201527520616674657220736574746c656d656e74206461746560501b606082015260800190565b60208082526038908201527f54726164652063616e277420626520666f7263656420617320746f6b656e732060408201527f617265206e6f7420617661696c61626c6520736f206661720000000000000000606082015260800190565b6020808252602a908201527f496e76616c696420746f6b656e207374616e6461726420666f7220686f6c64206040820152697472616465207479706560b01b606082015260800190565b60208082526022908201527f546f6b656e73206f66207468652077726f6e6720706172746974696f6e2073656040820152611b9d60f21b606082015260800190565b60208082526028908201527f53656e646572206973206e6f7420616c6c6f77656420746f20666f7263652074604082015267726164652028302960c01b606082015260800190565b60208082526030908201527f412074726164652063616e206e6f74206265206372656174656420776974682060408201526f746865207a65726f206164647265737360801b606082015260800190565b60208082526037908201527f486f6c64206e6565647320746f2062652070726f766964656420696e20746f6b60408201527f656e20736d61727420636f6e7472616374206669727374000000000000000000606082015260800190565b602080825260299082015260008051602061689883398151915260408201526874726164652028322960b81b606082015260800190565b6020808252601490820152735472616465206973206e6f742070656e64696e6760601b604082015260600190565b602080825260029082015261353760f01b604082015260600190565b60208082526025908201527f746f6b656e20686173206e6f20686f6c6461626c6520746f6b656e20657874656040820152643739b4b7b760d91b606082015260800190565b6020808252601690820152751a5b9d985b1a59081d1bdad95b881cdd185b99185c9960521b604082015260600190565b602080825260139082015272139bc81a1bdb191259081cdc1958da599a5959606a1b604082015260600190565b60208082526028908201527f53656e646572206973206e6f7420616c6c6f77656420746f20666f7263652074604082015267726164652028322960c01b606082015260800190565b60006102808201905060018060a01b0380845116835280602085015116602084015280604085015116604084015250606083015160608301526080830151608083015260a083015161673c60a084018261575c565b5060c083015161675061018084018261575c565b5060e083015161675f81616864565b806102608401525092915050565b6000821982111561678057616780616822565b500190565b6000826167a057634e487b7160e01b81526012600452602481fd5b500490565b60008160001904831182151516156167bf576167bf616822565b500290565b6000828210156167d6576167d6616822565b500390565b60005b838110156167f65781810151838201526020016167de565b83811115610d6d5750506000910152565b600060001982141561681b5761681b616822565b5060010190565b634e487b7160e01b600052601160045260246000fd5b634e487b7160e01b600052602160045260246000fd5b634e487b7160e01b600052604160045260246000fd5b6005811061080f5761080f616838565b6001600160a01b038116811461080f57600080fd5b801515811461080f57600080fdfe53656e646572206973206e6f7420616c6c6f77656420746f2063616e63656c20a26469706673582212201a2b0e8ca1d57b660c69786a98c60b6aa3afc4054e0b41f3c9de5221c19a309564736f6c63430008000033",
  "linkReferences": {},
  "deployedLinkReferences": {}
}