{
  "_format": "hh-sol-artifact-1",
  "contractName": "BatchReader",
  "sourceName": "contracts/ERC1400/tools/BatchReader.sol",
  "abi": [
    {
      "inputs": [],
      "stateMutability": "nonpayable",
      "type": "constructor"
    },
    {
      "inputs": [
        {
          "internalType": "address[]",
          "name": "tokens",
          "type": "address[]"
        },
        {
          "internalType": "address[]",
          "name": "tokenHolders",
          "type": "address[]"
        }
      ],
      "name": "batchAllowlisted",
      "outputs": [
        {
          "internalType": "bool[]",
          "name": "",
          "type": "bool[]"
        }
      ],
      "stateMutability": "view",
      "type": "function"
    },
    {
      "inputs": [
        {
          "internalType": "address[]",
          "name": "tokens",
          "type": "address[]"
        },
        {
          "internalType": "address[]",
          "name": "tokenHolders",
          "type": "address[]"
        }
      ],
      "name": "batchBalanceOf",
      "outputs": [
        {
          "internalType": "uint256[]",
          "name": "",
          "type": "uint256[]"
        }
      ],
      "stateMutability": "view",
      "type": "function"
    },
    {
      "inputs": [
        {
          "internalType": "address[]",
          "name": "tokens",
          "type": "address[]"
        },
        {
          "internalType": "address[]",
          "name": "tokenHolders",
          "type": "address[]"
        }
      ],
      "name": "batchBalanceOfByPartition",
      "outputs": [
        {
          "internalType": "uint256[]",
          "name": "",
          "type": "uint256[]"
        },
        {
          "internalType": "bytes32[]",
          "name": "",
          "type": "bytes32[]"
        },
        {
          "internalType": "uint256[]",
          "name": "",
          "type": "uint256[]"
        }
      ],
      "stateMutability": "view",
      "type": "function"
    },
    {
      "inputs": [
        {
          "internalType": "address[]",
          "name": "tokens",
          "type": "address[]"
        },
        {
          "internalType": "address[]",
          "name": "tokenHolders",
          "type": "address[]"
        }
      ],
      "name": "batchBlocklisted",
      "outputs": [
        {
          "internalType": "bool[]",
          "name": "",
          "type": "bool[]"
        }
      ],
      "stateMutability": "view",
      "type": "function"
    },
    {
      "inputs": [
        {
          "internalType": "address[]",
          "name": "tokens",
          "type": "address[]"
        }
      ],
      "name": "batchControllers",
      "outputs": [
        {
          "internalType": "uint256[]",
          "name": "",
          "type": "uint256[]"
        },
        {
          "internalType": "address[]",
          "name": "",
          "type": "address[]"
        }
      ],
      "stateMutability": "view",
      "type": "function"
    },
    {
      "inputs": [
        {
          "internalType": "address[]",
          "name": "tokens",
          "type": "address[]"
        }
      ],
      "name": "batchDefaultPartitions",
      "outputs": [
        {
          "internalType": "uint256[]",
          "name": "",
          "type": "uint256[]"
        },
        {
          "internalType": "bytes32[]",
          "name": "",
          "type": "bytes32[]"
        }
      ],
      "stateMutability": "view",
      "type": "function"
    },
    {
      "inputs": [
        {
          "internalType": "address[]",
          "name": "tokens",
          "type": "address[]"
        },
        {
          "internalType": "address[]",
          "name": "tokenHolders",
          "type": "address[]"
        }
      ],
      "name": "batchERC1400Balances",
      "outputs": [
        {
          "internalType": "uint256[]",
          "name": "",
          "type": "uint256[]"
        },
        {
          "internalType": "uint256[]",
          "name": "",
          "type": "uint256[]"
        },
        {
          "internalType": "uint256[]",
          "name": "",
          "type": "uint256[]"
        },
        {
          "internalType": "bytes32[]",
          "name": "",
          "type": "bytes32[]"
        },
        {
          "internalType": "uint256[]",
          "name": "",
          "type": "uint256[]"
        },
        {
          "internalType": "uint256[]",
          "name": "",
          "type": "uint256[]"
        }
      ],
      "stateMutability": "view",
      "type": "function"
    },
    {
      "inputs": [
        {
          "internalType": "address[]",
          "name": "tokens",
          "type": "address[]"
        },
        {
          "internalType": "address[]",
          "name": "tokenHolders",
          "type": "address[]"
        }
      ],
      "name": "batchERC20Balances",
      "outputs": [
        {
          "internalType": "uint256[]",
          "name": "",
          "type": "uint256[]"
        },
        {
          "internalType": "uint256[]",
          "name": "",
          "type": "uint256[]"
        }
      ],
      "stateMutability": "view",
      "type": "function"
    },
    {
      "inputs": [
        {
          "internalType": "address[]",
          "name": "tokens",
          "type": "address[]"
        },
        {
          "internalType": "address[]",
          "name": "tokenHolders",
          "type": "address[]"
        }
      ],
      "name": "batchERC721Balances",
      "outputs": [
        {
          "internalType": "uint256[]",
          "name": "",
          "type": "uint256[]"
        },
        {
          "internalType": "uint256[][][]",
          "name": "",
          "type": "uint256[][][]"
        }
      ],
      "stateMutability": "view",
      "type": "function"
    },
    {
      "inputs": [
        {
          "internalType": "address[]",
          "name": "tokenHolders",
          "type": "address[]"
        }
      ],
      "name": "batchEthBalance",
      "outputs": [
        {
          "internalType": "uint256[]",
          "name": "",
          "type": "uint256[]"
        }
      ],
      "stateMutability": "view",
      "type": "function"
    },
    {
      "inputs": [
        {
          "internalType": "address[]",
          "name": "tokens",
          "type": "address[]"
        }
      ],
      "name": "batchExtensionControllers",
      "outputs": [
        {
          "internalType": "uint256[]",
          "name": "",
          "type": "uint256[]"
        },
        {
          "internalType": "address[]",
          "name": "",
          "type": "address[]"
        }
      ],
      "stateMutability": "view",
      "type": "function"
    },
    {
      "inputs": [
        {
          "internalType": "address[]",
          "name": "tokens",
          "type": "address[]"
        },
        {
          "internalType": "address[]",
          "name": "tokenHolders",
          "type": "address[]"
        }
      ],
      "name": "batchSpendableBalanceOfByPartition",
      "outputs": [
        {
          "internalType": "uint256[]",
          "name": "",
          "type": "uint256[]"
        },
        {
          "internalType": "bytes32[]",
          "name": "",
          "type": "bytes32[]"
        },
        {
          "internalType": "uint256[]",
          "name": "",
          "type": "uint256[]"
        }
      ],
      "stateMutability": "view",
      "type": "function"
    },
    {
      "inputs": [
        {
          "internalType": "address[]",
          "name": "tokens",
          "type": "address[]"
        }
      ],
      "name": "batchTokenExtensionSetup",
      "outputs": [
        {
          "internalType": "address[]",
          "name": "",
          "type": "address[]"
        },
        {
          "internalType": "enum IExtensionTypes.CertificateValidation[]",
          "name": "",
          "type": "uint8[]"
        },
        {
          "internalType": "bool[]",
          "name": "",
          "type": "bool[]"
        },
        {
          "internalType": "bool[]",
          "name": "",
          "type": "bool[]"
        },
        {
          "internalType": "bool[]",
          "name": "",
          "type": "bool[]"
        },
        {
          "internalType": "bool[]",
          "name": "",
          "type": "bool[]"
        }
      ],
      "stateMutability": "view",
      "type": "function"
    },
    {
      "inputs": [
        {
          "internalType": "address[]",
          "name": "tokens",
          "type": "address[]"
        }
      ],
      "name": "batchTokenExtensionSetup1",
      "outputs": [
        {
          "internalType": "address[]",
          "name": "",
          "type": "address[]"
        },
        {
          "internalType": "enum IExtensionTypes.CertificateValidation[]",
          "name": "",
          "type": "uint8[]"
        },
        {
          "internalType": "bool[]",
          "name": "",
          "type": "bool[]"
        },
        {
          "internalType": "bool[]",
          "name": "",
          "type": "bool[]"
        }
      ],
      "stateMutability": "view",
      "type": "function"
    },
    {
      "inputs": [
        {
          "internalType": "address[]",
          "name": "tokens",
          "type": "address[]"
        }
      ],
      "name": "batchTokenExtensionSetup2",
      "outputs": [
        {
          "internalType": "bool[]",
          "name": "",
          "type": "bool[]"
        },
        {
          "internalType": "bool[]",
          "name": "",
          "type": "bool[]"
        }
      ],
      "stateMutability": "view",
      "type": "function"
    },
    {
      "inputs": [
        {
          "internalType": "address[]",
          "name": "tokens",
          "type": "address[]"
        }
      ],
      "name": "batchTokenRolesInfos",
      "outputs": [
        {
          "internalType": "address[]",
          "name": "",
          "type": "address[]"
        },
        {
          "internalType": "uint256[]",
          "name": "",
          "type": "uint256[]"
        },
        {
          "internalType": "address[]",
          "name": "",
          "type": "address[]"
        },
        {
          "internalType": "uint256[]",
          "name": "",
          "type": "uint256[]"
        },
        {
          "internalType": "address[]",
          "name": "",
          "type": "address[]"
        }
      ],
      "stateMutability": "view",
      "type": "function"
    },
    {
      "inputs": [
        {
          "internalType": "address[]",
          "name": "tokens",
          "type": "address[]"
        }
      ],
      "name": "batchTokenSuppliesInfos",
      "outputs": [
        {
          "internalType": "uint256[]",
          "name": "",
          "type": "uint256[]"
        },
        {
          "internalType": "uint256[]",
          "name": "",
          "type": "uint256[]"
        },
        {
          "internalType": "bytes32[]",
          "name": "",
          "type": "bytes32[]"
        },
        {
          "internalType": "uint256[]",
          "name": "",
          "type": "uint256[]"
        },
        {
          "internalType": "uint256[]",
          "name": "",
          "type": "uint256[]"
        },
        {
          "internalType": "bytes32[]",
          "name": "",
          "type": "bytes32[]"
        }
      ],
      "stateMutability": "view",
      "type": "function"
    },
    {
      "inputs": [
        {
          "internalType": "address[]",
          "name": "tokens",
          "type": "address[]"
        }
      ],
      "name": "batchTotalPartitions",
      "outputs": [
        {
          "internalType": "uint256[]",
          "name": "",
          "type": "uint256[]"
        },
        {
          "internalType": "bytes32[]",
          "name": "",
          "type": "bytes32[]"
        },
        {
          "internalType": "uint256[]",
          "name": "",
          "type": "uint256[]"
        }
      ],
      "stateMutability": "view",
      "type": "function"
    },
    {
      "inputs": [
        {
          "internalType": "address[]",
          "name": "tokens",
          "type": "address[]"
        },
        {
          "internalType": "address[]",
          "name": "tokenHolders",
          "type": "address[]"
        }
      ],
      "name": "batchValidations",
      "outputs": [
        {
          "internalType": "bool[]",
          "name": "",
          "type": "bool[]"
        },
        {
          "internalType": "bool[]",
          "name": "",
          "type": "bool[]"
        }
      ],
      "stateMutability": "view",
      "type": "function"
    },
    {
      "inputs": [
        {
          "internalType": "bytes32",
          "name": "interfaceHash",
          "type": "bytes32"
        },
        {
          "internalType": "address",
          "name": "",
          "type": "address"
        }
      ],
      "name": "canImplementInterfaceForAddress",
      "outputs": [
        {
          "internalType": "bytes32",
          "name": "",
          "type": "bytes32"
        }
      ],
      "stateMutability": "view",
      "type": "function"
    }
  ],
  "bytecode": "0x60806040523480156200001157600080fd5b506200004b6040518060400160405280600b81526020016a2130ba31b42932b0b232b960a91b8152506200005160201b620033211760201c565b620000dc565b600160008083604051602001620000699190620000a0565b60408051808303601f19018152918152815160209283012083529082019290925201600020805460ff191691151591909117905550565b60008251815b81811015620000c25760208186018101518583015201620000a6565b81811115620000d15782828501525b509190910192915050565b613ec080620000ec6000396000f3fe608060405234801561001057600080fd5b506004361061012c5760003560e01c806382037e44116100ad578063dbfedcac11610071578063dbfedcac146102fc578063eafb1b161461030f578063eb606fa114610322578063f43b176114610343578063fa587495146103565761012c565b806382037e44146102815780638af36a1e14610294578063b59b28ef146102a7578063c4b37e3d146102c7578063c6c3f08d146102e95761012c565b806358292aff116100f457806358292aff146101e7578063658a986a1461020857806369de4a86146102285780636e5e85691461024d5780637d5b6f35146102605761012c565b8063249cb3fa146101315780632bb1388e1461015a5780633ad156c81461017b5780633f55bc081461019e5780634d2ebea3146101c2575b600080fd5b61014461013f3660046137b3565b610369565b6040516101519190613d88565b60405180910390f35b61016d610168366004613646565b6103b6565b604051610151929190613bd7565b61018e610189366004613646565b6108d3565b6040516101519493929190613a3c565b6101b16101ac36600461359f565b610d8b565b604051610151959493929190613b16565b6101d56101d036600461359f565b610f7a565b60405161015196959493929190613a94565b6101fa6101f5366004613646565b611026565b604051610151929190613cab565b61021b6102163660046136aa565b61131e565b6040516101519190613b83565b61023b6102363660046135de565b61155f565b60405161015196959493929190613d13565b6101fa61025b3660046135de565b611742565b61027361026e3660046136aa565b611802565b604051610151929190613b96565b61021b61028f3660046136aa565b61182e565b6102736102a2366004613646565b611a67565b6102ba6102b53660046136aa565b611de4565b6040516101519190613bc4565b6102da6102d53660046136aa565b611f90565b60405161015193929190613cd0565b61023b6102f736600461359f565b612355565b61016d61030a366004613646565b612524565b6102ba61031d366004613646565b61281c565b6103356103303660046135de565b6128f7565b604051610151929190613bfc565b6102da6103513660046136aa565b612c9c565b6102da610364366004613646565b612edb565b60008281526020819052604081205460ff16156103ac5760405160200161038f906139b2565b6040516020818303038152906040528051906020012090506103b0565b5060005b92915050565b606080600083516001600160401b038111156103e257634e487b7160e01b600052604160045260246000fd5b60405190808252806020026020018201604052801561040b578160200160208202803683370190505b509050600084516001600160401b0381111561043757634e487b7160e01b600052604160045260246000fd5b604051908082528060200260200182016040528015610460578160200160208202803683370190505b5090506000805b86518110156106aa576104cf87828151811061049357634e487b7160e01b600052603260045260246000fd5b60200260200101516040518060400160405280601681526020017522a921989a18182a37b5b2b739ab30b634b230ba37b960511b81525061336e565b8482815181106104ef57634e487b7160e01b600052603260045260246000fd5b60200260200101906001600160a01b031690816001600160a01b03168152505060006001600160a01b031684828151811061053a57634e487b7160e01b600052603260045260246000fd5b60200260200101516001600160a01b03161461066957600084828151811061057257634e487b7160e01b600052603260045260246000fd5b60200260200101516001600160a01b031663accf61758984815181106105a857634e487b7160e01b600052603260045260246000fd5b60200260200101516040518263ffffffff1660e01b81526004016105cc91906139d2565b60006040518083038186803b1580156105e457600080fd5b505afa1580156105f8573d6000803e3d6000fd5b505050506040513d6000823e601f3d908101601f1916820160405261062091908101906137e2565b95505050505050805184838151811061064957634e487b7160e01b600052603260045260246000fd5b6020908102919091010152805161066190849061342b565b925050610698565b600083828151811061068b57634e487b7160e01b600052603260045260246000fd5b6020026020010181815250505b806106a281613e2b565b915050610467565b506000816001600160401b038111156106d357634e487b7160e01b600052604160045260246000fd5b6040519080825280602002602001820160405280156106fc578160200160208202803683370190505b5090506000805b88518110156108c55760006001600160a01b031686828151811061073757634e487b7160e01b600052603260045260246000fd5b60200260200101516001600160a01b0316146108b357600086828151811061076f57634e487b7160e01b600052603260045260246000fd5b60200260200101516001600160a01b031663accf61758b84815181106107a557634e487b7160e01b600052603260045260246000fd5b60200260200101516040518263ffffffff1660e01b81526004016107c991906139d2565b60006040518083038186803b1580156107e157600080fd5b505afa1580156107f5573d6000803e3d6000fd5b505050506040513d6000823e601f3d908101601f1916820160405261081d91908101906137e2565b9550505050505060005b81518110156108b05781818151811061085057634e487b7160e01b600052603260045260246000fd5b602002602001015185858151811061087857634e487b7160e01b600052603260045260246000fd5b6001600160a01b03909216602092830291909101909101528361089a81613e2b565b94505080806108a890613e2b565b915050610827565b50505b806108bd81613e2b565b915050610703565b509295509350505050915091565b606080606080600085516001600160401b0381111561090257634e487b7160e01b600052604160045260246000fd5b60405190808252806020026020018201604052801561092b578160200160208202803683370190505b509050600086516001600160401b0381111561095757634e487b7160e01b600052604160045260246000fd5b604051908082528060200260200182016040528015610980578160200160208202803683370190505b509050600087516001600160401b038111156109ac57634e487b7160e01b600052604160045260246000fd5b6040519080825280602002602001820160405280156109d5578160200160208202803683370190505b509050600088516001600160401b03811115610a0157634e487b7160e01b600052604160045260246000fd5b604051908082528060200260200182016040528015610a2a578160200160208202803683370190505b50905060005b8951811015610d7b57610a5c8a828151811061049357634e487b7160e01b600052603260045260246000fd5b858281518110610a7c57634e487b7160e01b600052603260045260246000fd5b60200260200101906001600160a01b031690816001600160a01b03168152505060006001600160a01b0316858281518110610ac757634e487b7160e01b600052603260045260246000fd5b60200260200101516001600160a01b031614610c94576000806000878481518110610b0257634e487b7160e01b600052603260045260246000fd5b60200260200101516001600160a01b031663accf61758e8681518110610b3857634e487b7160e01b600052603260045260246000fd5b60200260200101516040518263ffffffff1660e01b8152600401610b5c91906139d2565b60006040518083038186803b158015610b7457600080fd5b505afa158015610b88573d6000803e3d6000fd5b505050506040513d6000823e601f3d908101601f19168201604052610bb091908101906137e2565b50505092509250925082878581518110610bda57634e487b7160e01b600052603260045260246000fd5b60200260200101906002811115610c0157634e487b7160e01b600052602160045260246000fd5b90816002811115610c2257634e487b7160e01b600052602160045260246000fd5b8152505081868581518110610c4757634e487b7160e01b600052603260045260246000fd5b60200260200101901515908115158152505080858581518110610c7a57634e487b7160e01b600052603260045260246000fd5b602002602001019015159081151581525050505050610d69565b6000848281518110610cb657634e487b7160e01b600052603260045260246000fd5b60200260200101906002811115610cdd57634e487b7160e01b600052602160045260246000fd5b90816002811115610cfe57634e487b7160e01b600052602160045260246000fd5b815250506000838281518110610d2457634e487b7160e01b600052603260045260246000fd5b6020026020010190151590811515815250506000828281518110610d5857634e487b7160e01b600052603260045260246000fd5b911515602092830291909101909101525b80610d7381613e2b565b915050610a30565b5092989197509550909350915050565b6060806060806060600080610dd28989808060200260200160405190810160405280939291908181526020018383602002808284376000920191909152506103b692505050565b91509150600080610e158b8b8080602002602001604051908101604052809392919081815260200183836020028082843760009201919091525061252492505050565b909250905060008a6001600160401b03811115610e4257634e487b7160e01b600052604160045260246000fd5b604051908082528060200260200182016040528015610e6b578160200160208202803683370190505b50905060005b8b811015610f68578c8c82818110610e9957634e487b7160e01b600052603260045260246000fd5b9050602002016020810190610eae9190613567565b6001600160a01b0316638da5cb5b6040518163ffffffff1660e01b815260040160206040518083038186803b158015610ee657600080fd5b505afa158015610efa573d6000803e3d6000fd5b505050506040513d601f19601f82011682018060405250810190610f1e9190613583565b828281518110610f3e57634e487b7160e01b600052603260045260246000fd5b6001600160a01b039092166020928302919091019091015280610f6081613e2b565b915050610e71565b509b919a509850919650945092505050565b606080606080606080600080600080610fc58c8c808060200260200160405190810160405280939291908181526020018383602002808284376000920191909152506108d392505050565b935093509350935060008061100c8e8e80806020026020016040519081016040528093929190818152602001838360200280828437600092019190915250611a6792505050565b969f959e50939c50919a5091985092965090945050505050565b606080600083516001600160401b0381111561105257634e487b7160e01b600052604160045260246000fd5b60405190808252806020026020018201604052801561107b578160200160208202803683370190505b5090506000805b855181101561117b5760008682815181106110ad57634e487b7160e01b600052603260045260246000fd5b60200260200101516001600160a01b031663bcfdc0cf6040518163ffffffff1660e01b815260040160006040518083038186803b1580156110ed57600080fd5b505afa158015611101573d6000803e3d6000fd5b505050506040513d6000823e601f3d908101601f19168201604052611129919081019061370a565b9050805184838151811061114d57634e487b7160e01b600052603260045260246000fd5b6020908102919091010152805161116590849061342b565b925050808061117390613e2b565b915050611082565b506000816001600160401b038111156111a457634e487b7160e01b600052604160045260246000fd5b6040519080825280602002602001820160405280156111cd578160200160208202803683370190505b5090506000805b87518110156113115760008882815181106111ff57634e487b7160e01b600052603260045260246000fd5b60200260200101516001600160a01b031663bcfdc0cf6040518163ffffffff1660e01b815260040160006040518083038186803b15801561123f57600080fd5b505afa158015611253573d6000803e3d6000fd5b505050506040513d6000823e601f3d908101601f1916820160405261127b919081019061370a565b905060005b81518110156112fc578181815181106112a957634e487b7160e01b600052603260045260246000fd5b60200260200101518585815181106112d157634e487b7160e01b600052603260045260246000fd5b6020908102919091010152836112e681613e2b565b94505080806112f490613e2b565b915050611280565b5050808061130990613e2b565b9150506111d4565b5092945092505050915091565b60606000835183516113309190613e0c565b6001600160401b0381111561135557634e487b7160e01b600052604160045260246000fd5b60405190808252806020026020018201604052801561137e578160200160208202803683370190505b50905060005b83518110156115575760005b85518110156115445760006113be87838151811061049357634e487b7160e01b600052603260045260246000fd5b90506001600160a01b038116156114e757806001600160a01b031663a4aa023f8884815181106113fe57634e487b7160e01b600052603260045260246000fd5b602002602001015188868151811061142657634e487b7160e01b600052603260045260246000fd5b60200260200101516040518363ffffffff1660e01b815260040161144b9291906139e6565b60206040518083038186803b15801561146357600080fd5b505afa158015611477573d6000803e3d6000fd5b505050506040513d601f19601f8201168201806040525081019061149b9190613799565b84838951866114aa9190613e0c565b6114b49190613df4565b815181106114d257634e487b7160e01b600052603260045260246000fd5b91151560209283029190910190910152611531565b600084838951866114f89190613e0c565b6115029190613df4565b8151811061152057634e487b7160e01b600052603260045260246000fd5b911515602092830291909101909101525b508061153c81613e2b565b915050611390565b508061154f81613e2b565b915050611384565b509392505050565b60608060608060608060006115d78b8b8080602002602001604051908101604052809392919081815260200183836020028082843760009201919091525050604080516020808f0282810182019093528e82529093508e92508d918291850190849080828437600092019190915250611f9092505050565b92505050600080600061165e8e8e80806020026020016040519081016040528093929190818152602001838360200280828437600081840152601f19601f820116905080830192505050505050508d8d80806020026020016040519081016040528093929190818152602001838360200280828437600092019190915250612c9c92505050565b92509250925060006116e48f8f80806020026020016040519081016040528093929190818152602001838360200280828437600081840152601f19601f820116905080830192505050505050508e8e80806020026020016040519081016040528093929190818152602001838360200280828437600092019190915250611de492505050565b905060006117248e8e8080602002602001604051908101604052809392919081815260200183836020028082843760009201919091525061281c92505050565b9b509099509297509095509350909150509499939850945094509450565b60608060006117b487878080602002602001604051908101604052809392919081815260200183836020028082843760009201919091525050604080516020808b0282810182019093528a82529093508a925089918291850190849080828437600092019190915250611de492505050565b905060006117f486868080602002602001604051908101604052809392919081815260200183836020028082843760009201919091525061281c92505050565b989197509095505050505050565b6060806000611811858561182e565b9050600061181f868661131e565b919350909150505b9250929050565b60606000835183516118409190613e0c565b6001600160401b0381111561186557634e487b7160e01b600052604160045260246000fd5b60405190808252806020026020018201604052801561188e578160200160208202803683370190505b50905060005b83518110156115575760005b8551811015611a545760006118ce87838151811061049357634e487b7160e01b600052603260045260246000fd5b90506001600160a01b038116156119f757806001600160a01b03166361c2e28188848151811061190e57634e487b7160e01b600052603260045260246000fd5b602002602001015188868151811061193657634e487b7160e01b600052603260045260246000fd5b60200260200101516040518363ffffffff1660e01b815260040161195b9291906139e6565b60206040518083038186803b15801561197357600080fd5b505afa158015611987573d6000803e3d6000fd5b505050506040513d601f19601f820116820180604052508101906119ab9190613799565b84838951866119ba9190613e0c565b6119c49190613df4565b815181106119e257634e487b7160e01b600052603260045260246000fd5b91151560209283029190910190910152611a41565b60008483895186611a089190613e0c565b611a129190613df4565b81518110611a3057634e487b7160e01b600052603260045260246000fd5b911515602092830291909101909101525b5080611a4c81613e2b565b9150506118a0565b5080611a5f81613e2b565b915050611894565b606080600083516001600160401b03811115611a9357634e487b7160e01b600052604160045260246000fd5b604051908082528060200260200182016040528015611abc578160200160208202803683370190505b509050600084516001600160401b03811115611ae857634e487b7160e01b600052604160045260246000fd5b604051908082528060200260200182016040528015611b11578160200160208202803683370190505b509050600085516001600160401b03811115611b3d57634e487b7160e01b600052604160045260246000fd5b604051908082528060200260200182016040528015611b66578160200160208202803683370190505b50905060005b8651811015611dd857611b9887828151811061049357634e487b7160e01b600052603260045260246000fd5b848281518110611bb857634e487b7160e01b600052603260045260246000fd5b60200260200101906001600160a01b031690816001600160a01b03168152505060006001600160a01b0316848281518110611c0357634e487b7160e01b600052603260045260246000fd5b60200260200101516001600160a01b031614611d5f57600080858381518110611c3c57634e487b7160e01b600052603260045260246000fd5b60200260200101516001600160a01b031663accf61758a8581518110611c7257634e487b7160e01b600052603260045260246000fd5b60200260200101516040518263ffffffff1660e01b8152600401611c9691906139d2565b60006040518083038186803b158015611cae57600080fd5b505afa158015611cc2573d6000803e3d6000fd5b505050506040513d6000823e601f3d908101601f19168201604052611cea91908101906137e2565b509450945050505081858481518110611d1357634e487b7160e01b600052603260045260246000fd5b60200260200101901515908115158152505080848481518110611d4657634e487b7160e01b600052603260045260246000fd5b6020026020010190151590811515815250505050611dc6565b6000838281518110611d8157634e487b7160e01b600052603260045260246000fd5b6020026020010190151590811515815250506000828281518110611db557634e487b7160e01b600052603260045260246000fd5b911515602092830291909101909101525b80611dd081613e2b565b915050611b6c565b50909350915050915091565b6060600083518351611df69190613e0c565b6001600160401b03811115611e1b57634e487b7160e01b600052604160045260246000fd5b604051908082528060200260200182016040528015611e44578160200160208202803683370190505b50905060005b83518110156115575760005b8551811015611f7d57858181518110611e7f57634e487b7160e01b600052603260045260246000fd5b60200260200101516001600160a01b03166370a08231868481518110611eb557634e487b7160e01b600052603260045260246000fd5b60200260200101516040518263ffffffff1660e01b8152600401611ed991906139d2565b60206040518083038186803b158015611ef157600080fd5b505afa158015611f05573d6000803e3d6000fd5b505050506040513d601f19601f82011682018060405250810190611f299190613873565b8382885185611f389190613e0c565b611f429190613df4565b81518110611f6057634e487b7160e01b600052603260045260246000fd5b602090810291909101015280611f7581613e2b565b915050611e56565b5080611f8881613e2b565b915050611e4a565b6060806060600080611fa187612edb565b5091509150600081518751611fb69190613e0c565b6001600160401b03811115611fdb57634e487b7160e01b600052604160045260246000fd5b604051908082528060200260200182016040528015612004578160200160208202803683370190505b50905060005b8751811015612346576000805b8a518110156123315760006120458c838151811061049357634e487b7160e01b600052603260045260246000fd5b905060005b87838151811061206a57634e487b7160e01b600052603260045260246000fd5b602002602001015181101561231c576001600160a01b038216156121c557816001600160a01b031663732c916b8e85815181106120b757634e487b7160e01b600052603260045260246000fd5b60200260200101518987815181106120df57634e487b7160e01b600052603260045260246000fd5b60200260200101518f898151811061210757634e487b7160e01b600052603260045260246000fd5b60200260200101516040518463ffffffff1660e01b815260040161212d93929190613a19565b60206040518083038186803b15801561214557600080fd5b505afa158015612159573d6000803e3d6000fd5b505050506040513d601f19601f8201168201806040525081019061217d9190613873565b868589518861218c9190613e0c565b6121969190613df4565b815181106121b457634e487b7160e01b600052603260045260246000fd5b6020026020010181815250506122fc565b8c83815181106121e557634e487b7160e01b600052603260045260246000fd5b60200260200101516001600160a01b03166330e8280388868151811061221b57634e487b7160e01b600052603260045260246000fd5b60200260200101518e888151811061224357634e487b7160e01b600052603260045260246000fd5b60200260200101516040518363ffffffff1660e01b8152600401612268929190613d91565b60206040518083038186803b15801561228057600080fd5b505afa158015612294573d6000803e3d6000fd5b505050506040513d601f19601f820116820180604052508101906122b89190613873565b86858951886122c79190613e0c565b6122d19190613df4565b815181106122ef57634e487b7160e01b600052603260045260246000fd5b6020026020010181815250505b8361230681613e2b565b945050808061231490613e2b565b91505061204a565b5050808061232990613e2b565b915050612017565b5050808061233e90613e2b565b91505061200a565b50919450925090509250925092565b606080808080806000876001600160401b0381111561238457634e487b7160e01b600052604160045260246000fd5b6040519080825280602002602001820160405280156123ad578160200160208202803683370190505b50905060005b8881101561249d578989828181106123db57634e487b7160e01b600052603260045260246000fd5b90506020020160208101906123f09190613567565b6001600160a01b03166318160ddd6040518163ffffffff1660e01b815260040160206040518083038186803b15801561242857600080fd5b505afa15801561243c573d6000803e3d6000fd5b505050506040513d601f19601f820116820180604052508101906124609190613873565b82828151811061248057634e487b7160e01b600052603260045260246000fd5b60209081029190910101528061249581613e2b565b9150506123b3565b5060008060006124df8c8c80806020026020016040519081016040528093929190818152602001838360200280828437600092019190915250612edb92505050565b92509250925060008061100c8e8e8080602002602001604051908101604052809392919081815260200183836020028082843760009201919091525061102692505050565b606080600083516001600160401b0381111561255057634e487b7160e01b600052604160045260246000fd5b604051908082528060200260200182016040528015612579578160200160208202803683370190505b5090506000805b85518110156126795760008682815181106125ab57634e487b7160e01b600052603260045260246000fd5b60200260200101516001600160a01b0316637cc0c3a76040518163ffffffff1660e01b815260040160006040518083038186803b1580156125eb57600080fd5b505afa1580156125ff573d6000803e3d6000fd5b505050506040513d6000823e601f3d908101601f191682016040526126279190810190613678565b9050805184838151811061264b57634e487b7160e01b600052603260045260246000fd5b6020908102919091010152805161266390849061342b565b925050808061267190613e2b565b915050612580565b506000816001600160401b038111156126a257634e487b7160e01b600052604160045260246000fd5b6040519080825280602002602001820160405280156126cb578160200160208202803683370190505b5090506000805b87518110156113115760008882815181106126fd57634e487b7160e01b600052603260045260246000fd5b60200260200101516001600160a01b0316637cc0c3a76040518163ffffffff1660e01b815260040160006040518083038186803b15801561273d57600080fd5b505afa158015612751573d6000803e3d6000fd5b505050506040513d6000823e601f3d908101601f191682016040526127799190810190613678565b905060005b8151811015612807578181815181106127a757634e487b7160e01b600052603260045260246000fd5b60200260200101518585815181106127cf57634e487b7160e01b600052603260045260246000fd5b6001600160a01b0390921660209283029190910190910152836127f181613e2b565b94505080806127ff90613e2b565b91505061277e565b5050808061281490613e2b565b9150506126d2565b6060600082516001600160401b0381111561284757634e487b7160e01b600052604160045260246000fd5b604051908082528060200260200182016040528015612870578160200160208202803683370190505b50905060005b83518110156128ee5783818151811061289f57634e487b7160e01b600052603260045260246000fd5b60200260200101516001600160a01b0316318282815181106128d157634e487b7160e01b600052603260045260246000fd5b6020908102919091010152806128e681613e2b565b915050612876565b5090505b919050565b6060806000856001600160401b0381111561292257634e487b7160e01b600052604160045260246000fd5b60405190808252806020026020018201604052801561295557816020015b60608152602001906001900390816129405790505b50905060005b86811015612c5d57600088888381811061298557634e487b7160e01b600052603260045260246000fd5b905060200201602081019061299a9190613567565b90506000866001600160401b038111156129c457634e487b7160e01b600052604160045260246000fd5b6040519080825280602002602001820160405280156129f757816020015b60608152602001906001900390816129e25790505b50905060005b87811015612c1b576000898983818110612a2757634e487b7160e01b600052603260045260246000fd5b9050602002016020810190612a3c9190613567565b90506000846001600160a01b03166370a08231836040518263ffffffff1660e01b8152600401612a6c91906139d2565b60206040518083038186803b158015612a8457600080fd5b505afa158015612a98573d6000803e3d6000fd5b505050506040513d601f19601f82011682018060405250810190612abc9190613873565b90506000816001600160401b03811115612ae657634e487b7160e01b600052604160045260246000fd5b604051908082528060200260200182016040528015612b0f578160200160208202803683370190505b50905060005b82811015612bd857604051632f745c5960e01b81526001600160a01b03881690632f745c5990612b4b9087908590600401613a00565b60206040518083038186803b158015612b6357600080fd5b505afa158015612b77573d6000803e3d6000fd5b505050506040513d601f19601f82011682018060405250810190612b9b9190613873565b828281518110612bbb57634e487b7160e01b600052603260045260246000fd5b602090810291909101015280612bd081613e2b565b915050612b15565b5080858581518110612bfa57634e487b7160e01b600052603260045260246000fd5b60200260200101819052505050508080612c1390613e2b565b9150506129fd565b5080848481518110612c3d57634e487b7160e01b600052603260045260246000fd5b602002602001018190525050508080612c5590613e2b565b91505061295b565b5060006117f486868080602002602001604051908101604052809392919081815260200183836020028082843760009201919091525061281c92505050565b6060806060600080612cad87612edb565b5091509150600081518751612cc29190613e0c565b6001600160401b03811115612ce757634e487b7160e01b600052604160045260246000fd5b604051908082528060200260200182016040528015612d10578160200160208202803683370190505b50905060005b8751811015612346576000805b8a51811015612ec65760005b868281518110612d4f57634e487b7160e01b600052603260045260246000fd5b6020026020010151811015612eb3578b8281518110612d7e57634e487b7160e01b600052603260045260246000fd5b60200260200101516001600160a01b03166330e82803878581518110612db457634e487b7160e01b600052603260045260246000fd5b60200260200101518d8781518110612ddc57634e487b7160e01b600052603260045260246000fd5b60200260200101516040518363ffffffff1660e01b8152600401612e01929190613d91565b60206040518083038186803b158015612e1957600080fd5b505afa158015612e2d573d6000803e3d6000fd5b505050506040513d601f19601f82011682018060405250810190612e519190613873565b8584885187612e609190613e0c565b612e6a9190613df4565b81518110612e8857634e487b7160e01b600052603260045260246000fd5b602090810291909101015282612e9d81613e2b565b9350508080612eab90613e2b565b915050612d2f565b5080612ebe81613e2b565b915050612d23565b50508080612ed390613e2b565b915050612d16565b6060806060600084516001600160401b03811115612f0957634e487b7160e01b600052604160045260246000fd5b604051908082528060200260200182016040528015612f32578160200160208202803683370190505b5090506000805b8651811015613032576000878281518110612f6457634e487b7160e01b600052603260045260246000fd5b60200260200101516001600160a01b03166369598efe6040518163ffffffff1660e01b815260040160006040518083038186803b158015612fa457600080fd5b505afa158015612fb8573d6000803e3d6000fd5b505050506040513d6000823e601f3d908101601f19168201604052612fe0919081019061370a565b9050805184838151811061300457634e487b7160e01b600052603260045260246000fd5b6020908102919091010152805161301c90849061342b565b925050808061302a90613e2b565b915050612f39565b506000816001600160401b0381111561305b57634e487b7160e01b600052604160045260246000fd5b604051908082528060200260200182016040528015613084578160200160208202803683370190505b5090506000826001600160401b038111156130af57634e487b7160e01b600052604160045260246000fd5b6040519080825280602002602001820160405280156130d8578160200160208202803683370190505b5090506000805b89518110156133125760008a828151811061310a57634e487b7160e01b600052603260045260246000fd5b60200260200101516001600160a01b03166369598efe6040518163ffffffff1660e01b815260040160006040518083038186803b15801561314a57600080fd5b505afa15801561315e573d6000803e3d6000fd5b505050506040513d6000823e601f3d908101601f19168201604052613186919081019061370a565b905060005b81518110156132fd578181815181106131b457634e487b7160e01b600052603260045260246000fd5b60200260200101518685815181106131dc57634e487b7160e01b600052603260045260246000fd5b6020026020010181815250508b838151811061320857634e487b7160e01b600052603260045260246000fd5b60200260200101516001600160a01b031663a26734dc83838151811061323e57634e487b7160e01b600052603260045260246000fd5b60200260200101516040518263ffffffff1660e01b81526004016132629190613d88565b60206040518083038186803b15801561327a57600080fd5b505afa15801561328e573d6000803e3d6000fd5b505050506040513d601f19601f820116820180604052508101906132b29190613873565b8585815181106132d257634e487b7160e01b600052603260045260246000fd5b6020908102919091010152836132e781613e2b565b94505080806132f590613e2b565b91505061318b565b5050808061330a90613e2b565b9150506130df565b50939891975095509350505050565b6001600080836040516020016133379190613979565b60408051808303601f19018152918152815160209283012083529082019290925201600020805460ff191691151591909117905550565b600080826040516020016133829190613979565b60408051601f1981840301815290829052805160209091012063555ddc6560e11b82529150731820a4b7618bde71dce8cdc73aab6c95905fad249063aabbb8ca906133d39087908590600401613a00565b60206040518083038186803b1580156133eb57600080fd5b505afa1580156133ff573d6000803e3d6000fd5b505050506040513d601f19601f820116820180604052508101906134239190613583565b949350505050565b60006134378284613df4565b9392505050565b60008083601f84011261344f578182fd5b5081356001600160401b03811115613465578182fd5b602083019150836020808302850101111561182757600080fd5b600082601f83011261348f578081fd5b813560206134a461349f83613dd1565b613da8565b82815281810190858301838502870184018810156134c0578586fd5b855b858110156134e75781356134d581613e72565b845292840192908401906001016134c2565b5090979650505050505050565b600082601f830112613504578081fd5b8151602061351461349f83613dd1565b8281528181019085830183850287018401881015613530578586fd5b855b858110156134e757815161354581613e72565b84529284019290840190600101613532565b805180151581146128f257600080fd5b600060208284031215613578578081fd5b813561343781613e72565b600060208284031215613594578081fd5b815161343781613e72565b600080602083850312156135b1578081fd5b82356001600160401b038111156135c6578182fd5b6135d28582860161343e565b90969095509350505050565b600080600080604085870312156135f3578182fd5b84356001600160401b0380821115613609578384fd5b6136158883890161343e565b9096509450602087013591508082111561362d578384fd5b5061363a8782880161343e565b95989497509550505050565b600060208284031215613657578081fd5b81356001600160401b0381111561366c578182fd5b6134238482850161347f565b600060208284031215613689578081fd5b81516001600160401b0381111561369e578182fd5b613423848285016134f4565b600080604083850312156136bc578182fd5b82356001600160401b03808211156136d2578384fd5b6136de8683870161347f565b935060208501359150808211156136f3578283fd5b506137008582860161347f565b9150509250929050565b6000602080838503121561371c578182fd5b82516001600160401b03811115613731578283fd5b8301601f81018513613741578283fd5b805161374f61349f82613dd1565b818152838101908385018584028501860189101561376b578687fd5b8694505b8385101561378d57805183526001949094019391850191850161376f565b50979650505050505050565b6000602082840312156137aa578081fd5b61343782613557565b600080604083850312156137c5578182fd5b8235915060208301356137d781613e72565b809150509250929050565b60008060008060008060c087890312156137fa578182fd5b865160038110613808578283fd5b955061381660208801613557565b945061382460408801613557565b935061383260608801613557565b925061384060808801613557565b915060a08701516001600160401b0381111561385a578182fd5b61386689828a016134f4565b9150509295509295509295565b600060208284031215613884578081fd5b5051919050565b6000815180845260208085019450808401835b838110156138c35781516001600160a01b03168752958201959082019060010161389e565b509495945050505050565b6000815180845260208085019450808401835b838110156138c35781511515875295820195908201906001016138e1565b6000815180845260208085019450808401835b838110156138c357815187529582019590820190600101613912565b6000815180845260208085019450808401835b838110156138c35781516003811061396757634e487b7160e01b86526021600452602486fd5b87529582019590820190600101613941565b60008251815b81811015613999576020818601810151858301520161397f565b818111156139a75782828501525b509190910192915050565b73455243313832305f4143434550545f4d4147494360601b815260140190565b6001600160a01b0391909116815260200190565b6001600160a01b0392831681529116602082015260400190565b6001600160a01b03929092168252602082015260400190565b6001600160a01b0393841681526020810192909252909116604082015260600190565b600060808252613a4f608083018761388b565b8281036020840152613a61818761392e565b90508281036040840152613a7581866138ce565b90508281036060840152613a8981856138ce565b979650505050505050565b600060c08252613aa760c083018961388b565b8281036020840152613ab9818961392e565b90508281036040840152613acd81886138ce565b90508281036060840152613ae181876138ce565b90508281036080840152613af581866138ce565b905082810360a0840152613b0981856138ce565b9998505050505050505050565b600060a08252613b2960a083018861388b565b8281036020840152613b3b81886138ff565b90508281036040840152613b4f818761388b565b90508281036060840152613b6381866138ff565b90508281036080840152613b77818561388b565b98975050505050505050565b60006020825261343760208301846138ce565b600060408252613ba960408301856138ce565b8281036020840152613bbb81856138ce565b95945050505050565b60006020825261343760208301846138ff565b600060408252613bea60408301856138ff565b8281036020840152613bbb818561388b565b600060408252613c0f60408301856138ff565b602083820381850152818551808452828401915082838202850101838801865b83811015613c9c57601f198784038101865282518051808652908801908886019089810287018a018c5b82811015613c855785898303018452613c738286516138ff565b948c0194938c01939150600101613c59565b50988a019896505050928701925050600101613c2f565b50909998505050505050505050565b600060408252613cbe60408301856138ff565b8281036020840152613bbb81856138ff565b600060608252613ce360608301866138ff565b8281036020840152613cf581866138ff565b90508281036040840152613d0981856138ff565b9695505050505050565b600060c08252613d2660c08301896138ff565b8281036020840152613d3881896138ff565b90508281036040840152613d4c81886138ff565b90508281036060840152613d6081876138ff565b90508281036080840152613d7481866138ff565b905082810360a0840152613b0981856138ff565b90815260200190565b9182526001600160a01b0316602082015260400190565b6040518181016001600160401b0381118282101715613dc957613dc9613e5c565b604052919050565b60006001600160401b03821115613dea57613dea613e5c565b5060209081020190565b60008219821115613e0757613e07613e46565b500190565b6000816000190483118215151615613e2657613e26613e46565b500290565b6000600019821415613e3f57613e3f613e46565b5060010190565b634e487b7160e01b600052601160045260246000fd5b634e487b7160e01b600052604160045260246000fd5b6001600160a01b0381168114613e8757600080fd5b5056fea2646970667358221220f287988e9304e54fbe6f5abe27163ffdeb32616decb3bcc5c650044eddd9ade564736f6c63430008000033",
  "linkReferences": {},
  "deployedLinkReferences": {}
}