{
  "_format": "hh-sol-artifact-1",
  "contractName": "ERC721Token",
  "sourceName": "contracts/ERC1400/tokens/ERC721Token.sol",
  "abi": [
    {
      "inputs": [
        {
          "internalType": "string",
          "name": "name",
          "type": "string"
        },
        {
          "internalType": "string",
          "name": "symbol",
          "type": "string"
        },
        {
          "internalType": "string",
          "name": "baseUri",
          "type": "string"
        },
        {
          "internalType": "string",
          "name": "contractUri",
          "type": "string"
        }
      ],
      "stateMutability": "nonpayable",
      "type": "constructor"
    },
    {
      "anonymous": false,
      "inputs": [
        {
          "indexed": true,
          "internalType": "address",
          "name": "owner",
          "type": "address"
        },
        {
          "indexed": true,
          "internalType": "address",
          "name": "approved",
          "type": "address"
        },
        {
          "indexed": true,
          "internalType": "uint256",
          "name": "tokenId",
          "type": "uint256"
        }
      ],
      "name": "Approval",
      "type": "event"
    },
    {
      "anonymous": false,
      "inputs": [
        {
          "indexed": true,
          "internalType": "address",
          "name": "owner",
          "type": "address"
        },
        {
          "indexed": true,
          "internalType": "address",
          "name": "operator",
          "type": "address"
        },
        {
          "indexed": false,
          "internalType": "bool",
          "name": "approved",
          "type": "bool"
        }
      ],
      "name": "ApprovalForAll",
      "type": "event"
    },
    {
      "anonymous": false,
      "inputs": [
        {
          "indexed": true,
          "internalType": "address",
          "name": "account",
          "type": "address"
        }
      ],
      "name": "MinterAdded",
      "type": "event"
    },
    {
      "anonymous": false,
      "inputs": [
        {
          "indexed": true,
          "internalType": "address",
          "name": "account",
          "type": "address"
        }
      ],
      "name": "MinterRemoved",
      "type": "event"
    },
    {
      "anonymous": false,
      "inputs": [
        {
          "indexed": true,
          "internalType": "address",
          "name": "previousOwner",
          "type": "address"
        },
        {
          "indexed": true,
          "internalType": "address",
          "name": "newOwner",
          "type": "address"
        }
      ],
      "name": "OwnershipTransferred",
      "type": "event"
    },
    {
      "anonymous": false,
      "inputs": [
        {
          "indexed": false,
          "internalType": "address",
          "name": "account",
          "type": "address"
        }
      ],
      "name": "Paused",
      "type": "event"
    },
    {
      "anonymous": false,
      "inputs": [
        {
          "indexed": true,
          "internalType": "bytes32",
          "name": "role",
          "type": "bytes32"
        },
        {
          "indexed": true,
          "internalType": "bytes32",
          "name": "previousAdminRole",
          "type": "bytes32"
        },
        {
          "indexed": true,
          "internalType": "bytes32",
          "name": "newAdminRole",
          "type": "bytes32"
        }
      ],
      "name": "RoleAdminChanged",
      "type": "event"
    },
    {
      "anonymous": false,
      "inputs": [
        {
          "indexed": true,
          "internalType": "bytes32",
          "name": "role",
          "type": "bytes32"
        },
        {
          "indexed": true,
          "internalType": "address",
          "name": "account",
          "type": "address"
        },
        {
          "indexed": true,
          "internalType": "address",
          "name": "sender",
          "type": "address"
        }
      ],
      "name": "RoleGranted",
      "type": "event"
    },
    {
      "anonymous": false,
      "inputs": [
        {
          "indexed": true,
          "internalType": "bytes32",
          "name": "role",
          "type": "bytes32"
        },
        {
          "indexed": true,
          "internalType": "address",
          "name": "account",
          "type": "address"
        },
        {
          "indexed": true,
          "internalType": "address",
          "name": "sender",
          "type": "address"
        }
      ],
      "name": "RoleRevoked",
      "type": "event"
    },
    {
      "anonymous": false,
      "inputs": [
        {
          "indexed": true,
          "internalType": "address",
          "name": "from",
          "type": "address"
        },
        {
          "indexed": true,
          "internalType": "address",
          "name": "to",
          "type": "address"
        },
        {
          "indexed": true,
          "internalType": "uint256",
          "name": "tokenId",
          "type": "uint256"
        }
      ],
      "name": "Transfer",
      "type": "event"
    },
    {
      "anonymous": false,
      "inputs": [
        {
          "indexed": false,
          "internalType": "address",
          "name": "account",
          "type": "address"
        }
      ],
      "name": "Unpaused",
      "type": "event"
    },
    {
      "inputs": [],
      "name": "DEFAULT_ADMIN_ROLE",
      "outputs": [
        {
          "internalType": "bytes32",
          "name": "",
          "type": "bytes32"
        }
      ],
      "stateMutability": "view",
      "type": "function"
    },
    {
      "inputs": [
        {
          "internalType": "address",
          "name": "account",
          "type": "address"
        }
      ],
      "name": "addMinter",
      "outputs": [],
      "stateMutability": "nonpayable",
      "type": "function"
    },
    {
      "inputs": [
        {
          "internalType": "address",
          "name": "to",
          "type": "address"
        },
        {
          "internalType": "uint256",
          "name": "tokenId",
          "type": "uint256"
        }
      ],
      "name": "approve",
      "outputs": [],
      "stateMutability": "nonpayable",
      "type": "function"
    },
    {
      "inputs": [
        {
          "internalType": "address",
          "name": "owner",
          "type": "address"
        }
      ],
      "name": "balanceOf",
      "outputs": [
        {
          "internalType": "uint256",
          "name": "",
          "type": "uint256"
        }
      ],
      "stateMutability": "view",
      "type": "function"
    },
    {
      "inputs": [
        {
          "internalType": "uint256",
          "name": "tokenId",
          "type": "uint256"
        }
      ],
      "name": "burn",
      "outputs": [],
      "stateMutability": "nonpayable",
      "type": "function"
    },
    {
      "inputs": [
        {
          "internalType": "bytes32",
          "name": "interfaceHash",
          "type": "bytes32"
        },
        {
          "internalType": "address",
          "name": "",
          "type": "address"
        }
      ],
      "name": "canImplementInterfaceForAddress",
      "outputs": [
        {
          "internalType": "bytes32",
          "name": "",
          "type": "bytes32"
        }
      ],
      "stateMutability": "view",
      "type": "function"
    },
    {
      "inputs": [],
      "name": "contractURI",
      "outputs": [
        {
          "internalType": "string",
          "name": "",
          "type": "string"
        }
      ],
      "stateMutability": "view",
      "type": "function"
    },
    {
      "inputs": [
        {
          "internalType": "uint256",
          "name": "tokenId",
          "type": "uint256"
        }
      ],
      "name": "getApproved",
      "outputs": [
        {
          "internalType": "address",
          "name": "",
          "type": "address"
        }
      ],
      "stateMutability": "view",
      "type": "function"
    },
    {
      "inputs": [
        {
          "internalType": "bytes32",
          "name": "role",
          "type": "bytes32"
        }
      ],
      "name": "getRoleAdmin",
      "outputs": [
        {
          "internalType": "bytes32",
          "name": "",
          "type": "bytes32"
        }
      ],
      "stateMutability": "view",
      "type": "function"
    },
    {
      "inputs": [
        {
          "internalType": "bytes32",
          "name": "role",
          "type": "bytes32"
        },
        {
          "internalType": "uint256",
          "name": "index",
          "type": "uint256"
        }
      ],
      "name": "getRoleMember",
      "outputs": [
        {
          "internalType": "address",
          "name": "",
          "type": "address"
        }
      ],
      "stateMutability": "view",
      "type": "function"
    },
    {
      "inputs": [
        {
          "internalType": "bytes32",
          "name": "role",
          "type": "bytes32"
        }
      ],
      "name": "getRoleMemberCount",
      "outputs": [
        {
          "internalType": "uint256",
          "name": "",
          "type": "uint256"
        }
      ],
      "stateMutability": "view",
      "type": "function"
    },
    {
      "inputs": [
        {
          "internalType": "bytes32",
          "name": "role",
          "type": "bytes32"
        },
        {
          "internalType": "address",
          "name": "account",
          "type": "address"
        }
      ],
      "name": "grantRole",
      "outputs": [],
      "stateMutability": "nonpayable",
      "type": "function"
    },
    {
      "inputs": [
        {
          "internalType": "bytes32",
          "name": "role",
          "type": "bytes32"
        },
        {
          "internalType": "address",
          "name": "account",
          "type": "address"
        }
      ],
      "name": "hasRole",
      "outputs": [
        {
          "internalType": "bool",
          "name": "",
          "type": "bool"
        }
      ],
      "stateMutability": "view",
      "type": "function"
    },
    {
      "inputs": [
        {
          "internalType": "address",
          "name": "owner",
          "type": "address"
        },
        {
          "internalType": "address",
          "name": "operator",
          "type": "address"
        }
      ],
      "name": "isApprovedForAll",
      "outputs": [
        {
          "internalType": "bool",
          "name": "",
          "type": "bool"
        }
      ],
      "stateMutability": "view",
      "type": "function"
    },
    {
      "inputs": [
        {
          "internalType": "address",
          "name": "account",
          "type": "address"
        }
      ],
      "name": "isMinter",
      "outputs": [
        {
          "internalType": "bool",
          "name": "",
          "type": "bool"
        }
      ],
      "stateMutability": "view",
      "type": "function"
    },
    {
      "inputs": [
        {
          "internalType": "address",
          "name": "to",
          "type": "address"
        },
        {
          "internalType": "uint256",
          "name": "tokenId",
          "type": "uint256"
        }
      ],
      "name": "mint",
      "outputs": [
        {
          "internalType": "bool",
          "name": "",
          "type": "bool"
        }
      ],
      "stateMutability": "nonpayable",
      "type": "function"
    },
    {
      "inputs": [
        {
          "internalType": "address",
          "name": "to",
          "type": "address"
        },
        {
          "internalType": "uint256",
          "name": "tokenId",
          "type": "uint256"
        },
        {
          "internalType": "string",
          "name": "uri",
          "type": "string"
        }
      ],
      "name": "mintAndSetTokenURI",
      "outputs": [
        {
          "internalType": "bool",
          "name": "",
          "type": "bool"
        }
      ],
      "stateMutability": "nonpayable",
      "type": "function"
    },
    {
      "inputs": [],
      "name": "name",
      "outputs": [
        {
          "internalType": "string",
          "name": "",
          "type": "string"
        }
      ],
      "stateMutability": "view",
      "type": "function"
    },
    {
      "inputs": [],
      "name": "owner",
      "outputs": [
        {
          "internalType": "address",
          "name": "",
          "type": "address"
        }
      ],
      "stateMutability": "view",
      "type": "function"
    },
    {
      "inputs": [
        {
          "internalType": "uint256",
          "name": "tokenId",
          "type": "uint256"
        }
      ],
      "name": "ownerOf",
      "outputs": [
        {
          "internalType": "address",
          "name": "",
          "type": "address"
        }
      ],
      "stateMutability": "view",
      "type": "function"
    },
    {
      "inputs": [],
      "name": "paused",
      "outputs": [
        {
          "internalType": "bool",
          "name": "",
          "type": "bool"
        }
      ],
      "stateMutability": "view",
      "type": "function"
    },
    {
      "inputs": [
        {
          "internalType": "address",
          "name": "account",
          "type": "address"
        }
      ],
      "name": "removeMinter",
      "outputs": [],
      "stateMutability": "nonpayable",
      "type": "function"
    },
    {
      "inputs": [],
      "name": "renounceMinter",
      "outputs": [],
      "stateMutability": "nonpayable",
      "type": "function"
    },
    {
      "inputs": [],
      "name": "renounceOwnership",
      "outputs": [],
      "stateMutability": "nonpayable",
      "type": "function"
    },
    {
      "inputs": [
        {
          "internalType": "bytes32",
          "name": "role",
          "type": "bytes32"
        },
        {
          "internalType": "address",
          "name": "account",
          "type": "address"
        }
      ],
      "name": "renounceRole",
      "outputs": [],
      "stateMutability": "nonpayable",
      "type": "function"
    },
    {
      "inputs": [
        {
          "internalType": "bytes32",
          "name": "role",
          "type": "bytes32"
        },
        {
          "internalType": "address",
          "name": "account",
          "type": "address"
        }
      ],
      "name": "revokeRole",
      "outputs": [],
      "stateMutability": "nonpayable",
      "type": "function"
    },
    {
      "inputs": [
        {
          "internalType": "address",
          "name": "from",
          "type": "address"
        },
        {
          "internalType": "address",
          "name": "to",
          "type": "address"
        },
        {
          "internalType": "uint256",
          "name": "tokenId",
          "type": "uint256"
        }
      ],
      "name": "safeTransferFrom",
      "outputs": [],
      "stateMutability": "nonpayable",
      "type": "function"
    },
    {
      "inputs": [
        {
          "internalType": "address",
          "name": "from",
          "type": "address"
        },
        {
          "internalType": "address",
          "name": "to",
          "type": "address"
        },
        {
          "internalType": "uint256",
          "name": "tokenId",
          "type": "uint256"
        },
        {
          "internalType": "bytes",
          "name": "_data",
          "type": "bytes"
        }
      ],
      "name": "safeTransferFrom",
      "outputs": [],
      "stateMutability": "nonpayable",
      "type": "function"
    },
    {
      "inputs": [
        {
          "internalType": "address",
          "name": "operator",
          "type": "address"
        },
        {
          "internalType": "bool",
          "name": "approved",
          "type": "bool"
        }
      ],
      "name": "setApprovalForAll",
      "outputs": [],
      "stateMutability": "nonpayable",
      "type": "function"
    },
    {
      "inputs": [
        {
          "internalType": "string",
          "name": "uri",
          "type": "string"
        }
      ],
      "name": "setContractURI",
      "outputs": [],
      "stateMutability": "nonpayable",
      "type": "function"
    },
    {
      "inputs": [
        {
          "internalType": "uint256",
          "name": "tokenId",
          "type": "uint256"
        },
        {
          "internalType": "string",
          "name": "uri",
          "type": "string"
        }
      ],
      "name": "setTokenURI",
      "outputs": [],
      "stateMutability": "nonpayable",
      "type": "function"
    },
    {
      "inputs": [
        {
          "internalType": "bytes4",
          "name": "interfaceId",
          "type": "bytes4"
        }
      ],
      "name": "supportsInterface",
      "outputs": [
        {
          "internalType": "bool",
          "name": "",
          "type": "bool"
        }
      ],
      "stateMutability": "view",
      "type": "function"
    },
    {
      "inputs": [],
      "name": "symbol",
      "outputs": [
        {
          "internalType": "string",
          "name": "",
          "type": "string"
        }
      ],
      "stateMutability": "view",
      "type": "function"
    },
    {
      "inputs": [
        {
          "internalType": "uint256",
          "name": "index",
          "type": "uint256"
        }
      ],
      "name": "tokenByIndex",
      "outputs": [
        {
          "internalType": "uint256",
          "name": "",
          "type": "uint256"
        }
      ],
      "stateMutability": "view",
      "type": "function"
    },
    {
      "inputs": [
        {
          "internalType": "address",
          "name": "owner",
          "type": "address"
        },
        {
          "internalType": "uint256",
          "name": "index",
          "type": "uint256"
        }
      ],
      "name": "tokenOfOwnerByIndex",
      "outputs": [
        {
          "internalType": "uint256",
          "name": "",
          "type": "uint256"
        }
      ],
      "stateMutability": "view",
      "type": "function"
    },
    {
      "inputs": [
        {
          "internalType": "uint256",
          "name": "tokenId",
          "type": "uint256"
        }
      ],
      "name": "tokenURI",
      "outputs": [
        {
          "internalType": "string",
          "name": "",
          "type": "string"
        }
      ],
      "stateMutability": "view",
      "type": "function"
    },
    {
      "inputs": [],
      "name": "totalSupply",
      "outputs": [
        {
          "internalType": "uint256",
          "name": "",
          "type": "uint256"
        }
      ],
      "stateMutability": "view",
      "type": "function"
    },
    {
      "inputs": [
        {
          "internalType": "address",
          "name": "from",
          "type": "address"
        },
        {
          "internalType": "address",
          "name": "to",
          "type": "address"
        },
        {
          "internalType": "uint256",
          "name": "tokenId",
          "type": "uint256"
        }
      ],
      "name": "transferFrom",
      "outputs": [],
      "stateMutability": "nonpayable",
      "type": "function"
    },
    {
      "inputs": [
        {
          "internalType": "address",
          "name": "newOwner",
          "type": "address"
        }
      ],
      "name": "transferOwnership",
      "outputs": [],
      "stateMutability": "nonpayable",
      "type": "function"
    }
  ],
  "bytecode": "0x60806040523480156200001157600080fd5b50604051620034a7380380620034a78339810160408190526200003491620003c6565b83836200004a62000044620000fc565b62000100565b81516200005f90600190602085019062000297565b5080516200007590600290602084019062000297565b5050600c805460ff19169055506200008d3362000150565b620000c66040518060400160405280600b81526020016a22a9219b9918aa37b5b2b760a91b815250620001a260201b62000ca01760201c565b8151620000db90601190602085019062000297565b508051620000f190601290602084019062000297565b505050505062000597565b3390565b600080546001600160a01b038381166001600160a01b0319831681178455604051919092169283917f8be0079c531659141344cd1fd0a4f28419497f9722a3daafe3b4186f6b6457e09190a35050565b6200016b81600d620001f260201b62000cee1790919060201c565b6040516001600160a01b038216907f6ae172837ea30b801fbfcdd4108aa1d5bf8ff775444fd70256b44e6bf3dfc3f690600090a250565b6001600e600083604051602001620001bb91906200047a565b60408051808303601f19018152918152815160209283012083529082019290925201600020805460ff191691151591909117905550565b620001fe82826200024c565b15620002275760405162461bcd60e51b81526004016200021e9062000498565b60405180910390fd5b6001600160a01b0316600090815260209190915260409020805460ff19166001179055565b60006001600160a01b038216620002775760405162461bcd60e51b81526004016200021e90620004cf565b506001600160a01b03166000908152602091909152604090205460ff1690565b828054620002a59062000544565b90600052602060002090601f016020900481019282620002c9576000855562000314565b82601f10620002e457805160ff191683800117855562000314565b8280016001018555821562000314579182015b8281111562000314578251825591602001919060010190620002f7565b506200032292915062000326565b5090565b5b8082111562000322576000815560010162000327565b600082601f8301126200034e578081fd5b81516001600160401b03808211156200036b576200036b62000581565b604051601f8301601f19168101602001828111828210171562000392576200039262000581565b604052828152848301602001861015620003aa578384fd5b620003bd83602083016020880162000511565b95945050505050565b60008060008060808587031215620003dc578384fd5b84516001600160401b0380821115620003f3578586fd5b62000401888389016200033d565b9550602087015191508082111562000417578485fd5b62000425888389016200033d565b945060408701519150808211156200043b578384fd5b62000449888389016200033d565b935060608701519150808211156200045f578283fd5b506200046e878288016200033d565b91505092959194509250565b600082516200048e81846020870162000511565b9190910192915050565b6020808252601f908201527f526f6c65733a206163636f756e7420616c72656164792068617320726f6c6500604082015260600190565b60208082526022908201527f526f6c65733a206163636f756e7420697320746865207a65726f206164647265604082015261737360f01b606082015260800190565b60005b838110156200052e57818101518382015260200162000514565b838111156200053e576000848401525b50505050565b6002810460018216806200055957607f821691505b602082108114156200057b57634e487b7160e01b600052602260045260246000fd5b50919050565b634e487b7160e01b600052604160045260246000fd5b612f0080620005a76000396000f3fe608060405234801561001057600080fd5b506004361061023d5760003560e01c80636352211e1161013b578063a217fddf116100b8578063ca15c8731161007c578063ca15c873146104af578063d547741f146104c2578063e8a3d485146104d5578063e985e9c5146104dd578063f2fde38b146104f05761023d565b8063a217fddf1461045b578063a22cb46514610463578063aa271e1a14610476578063b88d4fde14610489578063c87b56dd1461049c5761023d565b806391d14854116100ff57806391d1485414610412578063938e3d7b1461042557806395d89b4114610438578063983b2d561461044057806398650275146104535761023d565b80636352211e146103c957806370a08231146103dc578063715018a6146103ef5780638da5cb5b146103f75780639010d07c146103ff5761023d565b80632e917b2f116101c957806340c10f191161018d57806340c10f191461037557806342842e0e1461038857806342966c681461039b5780634f6ccce7146103ae5780635c975abb146103c15761023d565b80632e917b2f146103165780632f2ff15d146103295780632f745c591461033c5780633092afd51461034f57806336568abe146103625761023d565b8063162094c411610210578063162094c4146102b557806318160ddd146102c857806323b872dd146102dd578063248a9ca3146102f0578063249cb3fa146103035761023d565b806301ffc9a71461024257806306fdde031461026b578063081812fc14610280578063095ea7b3146102a0575b600080fd5b6102556102503660046123ba565b610503565b60405161026291906125c7565b60405180910390f35b610273610516565b60405161026291906125db565b61029361028e36600461235f565b6105a8565b6040516102629190612576565b6102b36102ae3660046122e1565b6105f4565b005b6102b36102c3366004612425565b61068c565b6102d06106ac565b60405161026291906125d2565b6102b36102eb3660046121f3565b6106b2565b6102d06102fe36600461235f565b6106ea565b6102d0610311366004612377565b6106ff565b61025561032436600461230a565b61074c565b6102b3610337366004612377565b61077e565b6102d061034a3660046122e1565b6107a0565b6102b361035d3660046121a7565b6107f2565b6102b3610370366004612377565b610810565b6102556103833660046122e1565b610832565b6102b36103963660046121f3565b610859565b6102b36103a936600461235f565b610874565b6102d06103bc36600461235f565b6108a4565b6102556108ff565b6102936103d736600461235f565b610908565b6102d06103ea3660046121a7565b61093d565b6102b3610981565b6102936109cc565b61029361040d366004612399565b6109db565b610255610420366004612377565b6109fa565b6102b36104333660046123f2565b610a25565b610273610a77565b6102b361044e3660046121a7565b610a86565b6102b3610aa1565b6102d0610aaa565b6102b36104713660046122a7565b610aaf565b6102556104843660046121a7565b610b7d565b6102b361049736600461222e565b610b8a565b6102736104aa36600461235f565b610bc9565b6102d06104bd36600461235f565b610bd4565b6102b36104d0366004612377565b610beb565b610273610bf5565b6102556104eb3660046121c1565b610c04565b6102b36104fe3660046121a7565b610c32565b600061050e82610d3a565b90505b919050565b60606001805461052590612e08565b80601f016020809104026020016040519081016040528092919081815260200182805461055190612e08565b801561059e5780601f106105735761010080835404028352916020019161059e565b820191906000526020600020905b81548152906001019060200180831161058157829003601f168201915b5050505050905090565b60006105b382610d5f565b6105d85760405162461bcd60e51b81526004016105cf90612a8b565b60405180910390fd5b506000908152600560205260409020546001600160a01b031690565b60006105ff82610908565b9050806001600160a01b0316836001600160a01b031614156106335760405162461bcd60e51b81526004016105cf90612be6565b806001600160a01b0316610645610d7c565b6001600160a01b031614806106615750610661816104eb610d7c565b61067d5760405162461bcd60e51b81526004016105cf90612886565b6106878383610d80565b505050565b61069533610b7d565b61069e57600080fd5b6106a88282610dee565b5050565b600a5490565b6106c36106bd610d7c565b82610e32565b6106df5760405162461bcd60e51b81526004016105cf90612c27565b610687838383610eb7565b6000908152600f602052604090206001015490565b6000828152600e602052604081205460ff161561074257604051602001610725906124e1565b604051602081830303815290604052805190602001209050610746565b5060005b92915050565b600061075733610b7d565b61076057600080fd5b61076a8484610fe4565b6107748383610dee565b5060019392505050565b61078882826110c3565b600082815260106020526040902061068790826110e7565b60006107ab8361093d565b82106107c95760405162461bcd60e51b81526004016105cf906126a5565b506001600160a01b03919091166000908152600860209081526040808320938352929052205490565b6107fb33610b7d565b61080457600080fd5b61080d816110fc565b50565b61081a828261113e565b60008281526010602052604090206106879082611180565b600061083d33610b7d565b61084657600080fd5b6108508383610fe4565b50600192915050565b61068783838360405180602001604052806000815250610b8a565b61087f6106bd610d7c565b61089b5760405162461bcd60e51b81526004016105cf90612cc4565b61080d81611195565b60006108ae6106ac565b82106108cc5760405162461bcd60e51b81526004016105cf90612c78565b600a82815481106108ed57634e487b7160e01b600052603260045260246000fd5b90600052602060002001549050919050565b600c5460ff1690565b6000818152600360205260408120546001600160a01b03168061050e5760405162461bcd60e51b81526004016105cf9061292d565b60006001600160a01b0382166109655760405162461bcd60e51b81526004016105cf906128e3565b506001600160a01b031660009081526004602052604090205490565b610989610d7c565b6001600160a01b031661099a6109cc565b6001600160a01b0316146109c05760405162461bcd60e51b81526004016105cf90612ad7565b6109ca600061119e565b565b6000546001600160a01b031690565b60008281526010602052604081206109f390836111ee565b9392505050565b6000918252600f602090815260408084206001600160a01b0393909316845291905290205460ff1690565b610a2d610d7c565b6001600160a01b0316610a3e6109cc565b6001600160a01b031614610a645760405162461bcd60e51b81526004016105cf90612ad7565b80516106a8906012906020840190612030565b60606002805461052590612e08565b610a8f33610b7d565b610a9857600080fd5b61080d816111fa565b6109ca336110fc565b600081565b610ab7610d7c565b6001600160a01b0316826001600160a01b03161415610ae85760405162461bcd60e51b81526004016105cf90612803565b8060066000610af5610d7c565b6001600160a01b03908116825260208083019390935260409182016000908120918716808252919093529120805460ff191692151592909217909155610b39610d7c565b6001600160a01b03167f17307eab39ab6107e8899845ad3d59bd9653f200f220920489ca2b5937696c3183604051610b7191906125c7565b60405180910390a35050565b600061050e600d8361123c565b610b9b610b95610d7c565b83610e32565b610bb75760405162461bcd60e51b81526004016105cf90612c27565b610bc384848484611284565b50505050565b606061050e826112b7565b600081815260106020526040812061050e906113d0565b61081a82826113db565b60606012805461052590612e08565b6001600160a01b03918216600090815260066020908152604080832093909416825291909152205460ff1690565b610c3a610d7c565b6001600160a01b0316610c4b6109cc565b6001600160a01b031614610c715760405162461bcd60e51b81526004016105cf90612ad7565b6001600160a01b038116610c975760405162461bcd60e51b81526004016105cf90612742565b61080d8161119e565b6001600e600083604051602001610cb79190612496565b60408051808303601f19018152918152815160209283012083529082019290925201600020805460ff191691151591909117905550565b610cf8828261123c565b15610d155760405162461bcd60e51b81526004016105cf9061266e565b6001600160a01b0316600090815260209190915260409020805460ff19166001179055565b60006001600160e01b03198216635a05180f60e01b148061050e575061050e826113fa565b6000908152600360205260409020546001600160a01b0316151590565b3390565b600081815260056020526040902080546001600160a01b0319166001600160a01b0384169081179091558190610db582610908565b6001600160a01b03167f8c5be1e5ebec7d5bd14f71427d1e84f3dd0314c0f7b2291e5b200ac8c7c3b92560405160405180910390a45050565b610df782610d5f565b610e135760405162461bcd60e51b81526004016105cf90612976565b6000828152600760209081526040909120825161068792840190612030565b6000610e3d82610d5f565b610e595760405162461bcd60e51b81526004016105cf9061283a565b6000610e6483610908565b9050806001600160a01b0316846001600160a01b03161480610e9f5750836001600160a01b0316610e94846105a8565b6001600160a01b0316145b80610eaf5750610eaf8185610c04565b949350505050565b826001600160a01b0316610eca82610908565b6001600160a01b031614610ef05760405162461bcd60e51b81526004016105cf90612b4e565b6001600160a01b038216610f165760405162461bcd60e51b81526004016105cf906127bf565b610f2183838361141f565b610f2c600082610d80565b6001600160a01b0383166000908152600460205260408120805460019290610f55908490612dae565b90915550506001600160a01b0382166000908152600460205260408120805460019290610f83908490612d63565b909155505060008181526003602052604080822080546001600160a01b0319166001600160a01b0386811691821790925591518493918716917fddf252ad1be2c89b69c2b068fc378daa952ba7f163c4a11628f55a4df523b3ef91a4505050565b6001600160a01b03821661100a5760405162461bcd60e51b81526004016105cf90612a05565b61101381610d5f565b156110305760405162461bcd60e51b81526004016105cf90612788565b61103c6000838361141f565b6001600160a01b0382166000908152600460205260408120805460019290611065908490612d63565b909155505060008181526003602052604080822080546001600160a01b0319166001600160a01b03861690811790915590518392907fddf252ad1be2c89b69c2b068fc378daa952ba7f163c4a11628f55a4df523b3ef908290a45050565b6110cc826106ea565b6110dd816110d8610d7c565b61142a565b610687838361148e565b60006109f3836001600160a01b038416611515565b611107600d82611557565b6040516001600160a01b038216907fe94479a9f7e1952cc78f2d6baab678adc1b772d936c6583def489e524cb6669290600090a250565b611146610d7c565b6001600160a01b0316816001600160a01b0316146111765760405162461bcd60e51b81526004016105cf90612d14565b6106a8828261159f565b60006109f3836001600160a01b038416611624565b61080d81611741565b600080546001600160a01b038381166001600160a01b0319831681178455604051919092169283917f8be0079c531659141344cd1fd0a4f28419497f9722a3daafe3b4186f6b6457e09190a35050565b60006109f38383611781565b611205600d82610cee565b6040516001600160a01b038216907f6ae172837ea30b801fbfcdd4108aa1d5bf8ff775444fd70256b44e6bf3dfc3f690600090a250565b60006001600160a01b0382166112645760405162461bcd60e51b81526004016105cf90612b0c565b506001600160a01b03166000908152602091909152604090205460ff1690565b61128f848484610eb7565b61129b848484846117b9565b610bc35760405162461bcd60e51b81526004016105cf906126f0565b60606112c282610d5f565b6112de5760405162461bcd60e51b81526004016105cf90612a3a565b600082815260076020526040812080546112f790612e08565b80601f016020809104026020016040519081016040528092919081815260200182805461132390612e08565b80156113705780601f1061134557610100808354040283529160200191611370565b820191906000526020600020905b81548152906001019060200180831161135357829003601f168201915b5050505050905060006113816118d4565b905080516000141561139557509050610511565b8151156113c75780826040516020016113af9291906124b2565b60405160208183030381529060405292505050610511565b610eaf846118e3565b600061050e82611965565b6113e4826106ea565b6113f0816110d8610d7c565b610687838361159f565b60006001600160e01b03198216637965db0b60e01b148061050e575061050e82611969565b61068783838361198e565b61143482826109fa565b6106a85761144c816001600160a01b031660146119be565b6114578360206119be565b604051602001611468929190612501565b60408051601f198184030181529082905262461bcd60e51b82526105cf916004016125db565b61149882826109fa565b6106a8576000828152600f602090815260408083206001600160a01b03851684529091529020805460ff191660011790556114d1610d7c565b6001600160a01b0316816001600160a01b0316837f2f8788117e7eff1d82e926ec794901d17c78024a50270940304540a733656f0d60405160405180910390a45050565b60006115218383611b70565b61074257508154600181810184556000848152602080822090930184905584548482528286019093526040902091909155610746565b611561828261123c565b61157d5760405162461bcd60e51b81526004016105cf906129c4565b6001600160a01b0316600090815260209190915260409020805460ff19169055565b6115a982826109fa565b156106a8576000828152600f602090815260408083206001600160a01b03851684529091529020805460ff191690556115e0610d7c565b6001600160a01b0316816001600160a01b0316837ff6391f5c32d9c69d2a47ea670b442974b53935d1edc7fd64eb21e047a839171b60405160405180910390a45050565b60008181526001830160205260408120548015611737576000611648600183612dae565b855490915060009061165c90600190612dae565b90508181146116dd57600086600001828154811061168a57634e487b7160e01b600052603260045260246000fd5b90600052602060002001549050808760000184815481106116bb57634e487b7160e01b600052603260045260246000fd5b6000918252602080832090910192909255918252600188019052604090208390555b85548690806116fc57634e487b7160e01b600052603160045260246000fd5b600190038181906000526020600020016000905590558560010160008681526020019081526020016000206000905560019350505050610746565b6000915050610746565b61174a81611b88565b6000818152600760205260409020805461176390612e08565b15905061080d57600081815260076020526040812061080d916120b4565b60008260000182815481106117a657634e487b7160e01b600052603260045260246000fd5b9060005260206000200154905092915050565b60006117cd846001600160a01b0316611c2f565b156118c957836001600160a01b031663150b7a026117e9610d7c565b8786866040518563ffffffff1660e01b815260040161180b949392919061258a565b602060405180830381600087803b15801561182557600080fd5b505af1925050508015611855575060408051601f3d908101601f19168201909252611852918101906123d6565b60015b6118af573d808015611883576040519150601f19603f3d011682016040523d82523d6000602084013e611888565b606091505b5080516118a75760405162461bcd60e51b81526004016105cf906126f0565b805181602001fd5b6001600160e01b031916630a85bd0160e11b149050610eaf565b506001949350505050565b60606011805461052590612e08565b60606118ee82610d5f565b61190a5760405162461bcd60e51b81526004016105cf90612b97565b60006119146118d4565b9050600081511161193457604051806020016040528060008152506109f3565b8061193e84611c35565b60405160200161194f9291906124b2565b6040516020818303038152906040529392505050565b5490565b60006001600160e01b0319821663780e9d6360e01b148061050e575061050e82611d50565b611999838383611d90565b6119a16108ff565b156106875760405162461bcd60e51b81526004016105cf90612623565b606060006119cd836002612d8f565b6119d8906002612d63565b67ffffffffffffffff8111156119fe57634e487b7160e01b600052604160045260246000fd5b6040519080825280601f01601f191660200182016040528015611a28576020820181803683370190505b509050600360fc1b81600081518110611a5157634e487b7160e01b600052603260045260246000fd5b60200101906001600160f81b031916908160001a905350600f60fb1b81600181518110611a8e57634e487b7160e01b600052603260045260246000fd5b60200101906001600160f81b031916908160001a9053506000611ab2846002612d8f565b611abd906001612d63565b90505b6001811115611b51576f181899199a1a9b1b9c1cb0b131b232b360811b85600f1660108110611aff57634e487b7160e01b600052603260045260246000fd5b1a60f81b828281518110611b2357634e487b7160e01b600052603260045260246000fd5b60200101906001600160f81b031916908160001a90535060049490941c93611b4a81612df1565b9050611ac0565b5083156109f35760405162461bcd60e51b81526004016105cf906125ee565b60009081526001919091016020526040902054151590565b6000611b9382610908565b9050611ba18160008461141f565b611bac600083610d80565b6001600160a01b0381166000908152600460205260408120805460019290611bd5908490612dae565b909155505060008281526003602052604080822080546001600160a01b0319169055518391906001600160a01b038416907fddf252ad1be2c89b69c2b068fc378daa952ba7f163c4a11628f55a4df523b3ef908390a45050565b3b151590565b606081611c5a57506040805180820190915260018152600360fc1b6020820152610511565b8160005b8115611c845780611c6e81612e43565b9150611c7d9050600a83612d7b565b9150611c5e565b60008167ffffffffffffffff811115611cad57634e487b7160e01b600052604160045260246000fd5b6040519080825280601f01601f191660200182016040528015611cd7576020820181803683370190505b5090505b8415610eaf57611cec600183612dae565b9150611cf9600a86612e5e565b611d04906030612d63565b60f81b818381518110611d2757634e487b7160e01b600052603260045260246000fd5b60200101906001600160f81b031916908160001a905350611d49600a86612d7b565b9450611cdb565b60006001600160e01b031982166380ac58cd60e01b1480611d8157506001600160e01b03198216635b5e139f60e01b145b8061050e575061050e82611e19565b611d9b838383610687565b6001600160a01b038316611db757611db281611e32565b611dda565b816001600160a01b0316836001600160a01b031614611dda57611dda8382611e76565b6001600160a01b038216611df657611df181611f13565b610687565b826001600160a01b0316826001600160a01b031614610687576106878282611fec565b6001600160e01b031981166301ffc9a760e01b14919050565b600a80546000838152600b60205260408120829055600182018355919091527fc65a7bb8d6351c1cf70c95a316cc6a92839c986682d98bc35f958f4883f9d2a80155565b60006001611e838461093d565b611e8d9190612dae565b600083815260096020526040902054909150808214611ee0576001600160a01b03841660009081526008602090815260408083208584528252808320548484528184208190558352600990915290208190555b5060009182526009602090815260408084208490556001600160a01b039094168352600881528383209183525290812055565b600a54600090611f2590600190612dae565b6000838152600b6020526040812054600a8054939450909284908110611f5b57634e487b7160e01b600052603260045260246000fd5b9060005260206000200154905080600a8381548110611f8a57634e487b7160e01b600052603260045260246000fd5b6000918252602080832090910192909255828152600b9091526040808220849055858252812055600a805480611fd057634e487b7160e01b600052603160045260246000fd5b6001900381819060005260206000200160009055905550505050565b6000611ff78361093d565b6001600160a01b039093166000908152600860209081526040808320868452825280832085905593825260099052919091209190915550565b82805461203c90612e08565b90600052602060002090601f01602090048101928261205e57600085556120a4565b82601f1061207757805160ff19168380011785556120a4565b828001600101855582156120a4579182015b828111156120a4578251825591602001919060010190612089565b506120b09291506120ec565b5090565b5080546120c090612e08565b6000825580601f106120d2575061080d565b601f01602090049060005260206000209081019061080d91905b5b808211156120b057600081556001016120ed565b600067ffffffffffffffff8084111561211c5761211c612e9e565b604051601f8501601f19168101602001828111828210171561214057612140612e9e565b60405284815291508183850186101561215857600080fd5b8484602083013760006020868301015250509392505050565b80356001600160a01b038116811461051157600080fd5b600082601f830112612198578081fd5b6109f383833560208501612101565b6000602082840312156121b8578081fd5b6109f382612171565b600080604083850312156121d3578081fd5b6121dc83612171565b91506121ea60208401612171565b90509250929050565b600080600060608486031215612207578081fd5b61221084612171565b925061221e60208501612171565b9150604084013590509250925092565b60008060008060808587031215612243578081fd5b61224c85612171565b935061225a60208601612171565b925060408501359150606085013567ffffffffffffffff81111561227c578182fd5b8501601f8101871361228c578182fd5b61229b87823560208401612101565b91505092959194509250565b600080604083850312156122b9578182fd5b6122c283612171565b9150602083013580151581146122d6578182fd5b809150509250929050565b600080604083850312156122f3578182fd5b6122fc83612171565b946020939093013593505050565b60008060006060848603121561231e578283fd5b61232784612171565b925060208401359150604084013567ffffffffffffffff811115612349578182fd5b61235586828701612188565b9150509250925092565b600060208284031215612370578081fd5b5035919050565b60008060408385031215612389578182fd5b823591506121ea60208401612171565b600080604083850312156123ab578182fd5b50508035926020909101359150565b6000602082840312156123cb578081fd5b81356109f381612eb4565b6000602082840312156123e7578081fd5b81516109f381612eb4565b600060208284031215612403578081fd5b813567ffffffffffffffff811115612419578182fd5b610eaf84828501612188565b60008060408385031215612437578182fd5b82359150602083013567ffffffffffffffff811115612454578182fd5b61246085828601612188565b9150509250929050565b60008151808452612482816020860160208601612dc5565b601f01601f19169290920160200192915050565b600082516124a8818460208701612dc5565b9190910192915050565b600083516124c4818460208801612dc5565b8351908301906124d8818360208801612dc5565b01949350505050565b73455243313832305f4143434550545f4d4147494360601b815260140190565b60007f416363657373436f6e74726f6c3a206163636f756e742000000000000000000082528351612539816017850160208801612dc5565b7001034b99036b4b9b9b4b733903937b6329607d1b601791840191820152835161256a816028840160208801612dc5565b01602801949350505050565b6001600160a01b0391909116815260200190565b6001600160a01b03858116825284166020820152604081018390526080606082018190526000906125bd9083018461246a565b9695505050505050565b901515815260200190565b90815260200190565b6000602082526109f3602083018461246a565b6020808252818101527f537472696e67733a20686578206c656e67746820696e73756666696369656e74604082015260600190565b6020808252602b908201527f4552433732315061757361626c653a20746f6b656e207472616e73666572207760408201526a1a1a5b19481c185d5cd95960aa1b606082015260800190565b6020808252601f908201527f526f6c65733a206163636f756e7420616c72656164792068617320726f6c6500604082015260600190565b6020808252602b908201527f455243373231456e756d657261626c653a206f776e657220696e646578206f7560408201526a74206f6620626f756e647360a81b606082015260800190565b60208082526032908201527f4552433732313a207472616e7366657220746f206e6f6e20455243373231526560408201527131b2b4bb32b91034b6b83632b6b2b73a32b960711b606082015260800190565b60208082526026908201527f4f776e61626c653a206e6577206f776e657220697320746865207a65726f206160408201526564647265737360d01b606082015260800190565b6020808252601c908201527f4552433732313a20746f6b656e20616c7265616479206d696e74656400000000604082015260600190565b60208082526024908201527f4552433732313a207472616e7366657220746f20746865207a65726f206164646040820152637265737360e01b606082015260800190565b60208082526019908201527f4552433732313a20617070726f766520746f2063616c6c657200000000000000604082015260600190565b6020808252602c908201527f4552433732313a206f70657261746f7220717565727920666f72206e6f6e657860408201526b34b9ba32b73a103a37b5b2b760a11b606082015260800190565b60208082526038908201527f4552433732313a20617070726f76652063616c6c6572206973206e6f74206f7760408201527f6e6572206e6f7220617070726f76656420666f7220616c6c0000000000000000606082015260800190565b6020808252602a908201527f4552433732313a2062616c616e636520717565727920666f7220746865207a65604082015269726f206164647265737360b01b606082015260800190565b60208082526029908201527f4552433732313a206f776e657220717565727920666f72206e6f6e657869737460408201526832b73a103a37b5b2b760b91b606082015260800190565b6020808252602e908201527f45524337323155524953746f726167653a2055524920736574206f66206e6f6e60408201526d32bc34b9ba32b73a103a37b5b2b760911b606082015260800190565b60208082526021908201527f526f6c65733a206163636f756e7420646f6573206e6f74206861766520726f6c6040820152606560f81b606082015260800190565b6020808252818101527f4552433732313a206d696e7420746f20746865207a65726f2061646472657373604082015260600190565b60208082526031908201527f45524337323155524953746f726167653a2055524920717565727920666f72206040820152703737b732bc34b9ba32b73a103a37b5b2b760791b606082015260800190565b6020808252602c908201527f4552433732313a20617070726f76656420717565727920666f72206e6f6e657860408201526b34b9ba32b73a103a37b5b2b760a11b606082015260800190565b6020808252818101527f4f776e61626c653a2063616c6c6572206973206e6f7420746865206f776e6572604082015260600190565b60208082526022908201527f526f6c65733a206163636f756e7420697320746865207a65726f206164647265604082015261737360f01b606082015260800190565b60208082526029908201527f4552433732313a207472616e73666572206f6620746f6b656e2074686174206960408201526839903737ba1037bbb760b91b606082015260800190565b6020808252602f908201527f4552433732314d657461646174613a2055524920717565727920666f72206e6f60408201526e3732bc34b9ba32b73a103a37b5b2b760891b606082015260800190565b60208082526021908201527f4552433732313a20617070726f76616c20746f2063757272656e74206f776e656040820152603960f91b606082015260800190565b60208082526031908201527f4552433732313a207472616e736665722063616c6c6572206973206e6f74206f6040820152701ddb995c881b9bdc88185c1c1c9bdd9959607a1b606082015260800190565b6020808252602c908201527f455243373231456e756d657261626c653a20676c6f62616c20696e646578206f60408201526b7574206f6620626f756e647360a01b606082015260800190565b60208082526030908201527f4552433732314275726e61626c653a2063616c6c6572206973206e6f74206f7760408201526f1b995c881b9bdc88185c1c1c9bdd995960821b606082015260800190565b6020808252602f908201527f416363657373436f6e74726f6c3a2063616e206f6e6c792072656e6f756e636560408201526e103937b632b9903337b91039b2b63360891b606082015260800190565b60008219821115612d7657612d76612e72565b500190565b600082612d8a57612d8a612e88565b500490565b6000816000190483118215151615612da957612da9612e72565b500290565b600082821015612dc057612dc0612e72565b500390565b60005b83811015612de0578181015183820152602001612dc8565b83811115610bc35750506000910152565b600081612e0057612e00612e72565b506000190190565b600281046001821680612e1c57607f821691505b60208210811415612e3d57634e487b7160e01b600052602260045260246000fd5b50919050565b6000600019821415612e5757612e57612e72565b5060010190565b600082612e6d57612e6d612e88565b500690565b634e487b7160e01b600052601160045260246000fd5b634e487b7160e01b600052601260045260246000fd5b634e487b7160e01b600052604160045260246000fd5b6001600160e01b03198116811461080d57600080fdfea264697066735822122038ea3a55534be3e0981da6f5ef95a0cf5b172a5f30a61361ea663627355eaa4064736f6c63430008000033",
  "linkReferences": {},
  "deployedLinkReferences": {}
}