{
  "_format": "hh-sol-artifact-1",
  "contractName": "BatchBalanceReader",
  "sourceName": "contracts/ERC1400/tools/BatchBalanceReader.sol",
  "abi": [
    {
      "inputs": [],
      "stateMutability": "nonpayable",
      "type": "constructor"
    },
    {
      "inputs": [
        {
          "internalType": "address[]",
          "name": "tokenHolders",
          "type": "address[]"
        },
        {
          "internalType": "address[]",
          "name": "tokenAddresses",
          "type": "address[]"
        }
      ],
      "name": "balancesOf",
      "outputs": [
        {
          "internalType": "uint256[]",
          "name": "",
          "type": "uint256[]"
        }
      ],
      "stateMutability": "view",
      "type": "function"
    },
    {
      "inputs": [
        {
          "internalType": "address[]",
          "name": "tokenHolders",
          "type": "address[]"
        },
        {
          "internalType": "address[]",
          "name": "tokenAddresses",
          "type": "address[]"
        },
        {
          "internalType": "bytes32[]",
          "name": "partitions",
          "type": "bytes32[]"
        }
      ],
      "name": "balancesOfByPartition",
      "outputs": [
        {
          "internalType": "uint256[]",
          "name": "",
          "type": "uint256[]"
        }
      ],
      "stateMutability": "view",
      "type": "function"
    },
    {
      "inputs": [
        {
          "internalType": "bytes32",
          "name": "interfaceHash",
          "type": "bytes32"
        },
        {
          "internalType": "address",
          "name": "",
          "type": "address"
        }
      ],
      "name": "canImplementInterfaceForAddress",
      "outputs": [
        {
          "internalType": "bytes32",
          "name": "",
          "type": "bytes32"
        }
      ],
      "stateMutability": "view",
      "type": "function"
    },
    {
      "inputs": [
        {
          "internalType": "address[]",
          "name": "tokenAddresses",
          "type": "address[]"
        }
      ],
      "name": "totalSupplies",
      "outputs": [
        {
          "internalType": "uint256[]",
          "name": "",
          "type": "uint256[]"
        }
      ],
      "stateMutability": "view",
      "type": "function"
    },
    {
      "inputs": [
        {
          "internalType": "bytes32[]",
          "name": "partitions",
          "type": "bytes32[]"
        },
        {
          "internalType": "address[]",
          "name": "tokenAddresses",
          "type": "address[]"
        }
      ],
      "name": "totalSuppliesByPartition",
      "outputs": [
        {
          "internalType": "uint256[]",
          "name": "",
          "type": "uint256[]"
        }
      ],
      "stateMutability": "view",
      "type": "function"
    }
  ],
  "bytecode": "0x608060405234801561001057600080fd5b5061004e604051806040016040528060128152602001712130ba31b42130b630b731b2a932b0b232b960711b81525061005360201b6108381760201c565b6100d9565b60016000808360405160200161006991906100a0565b60408051808303601f19018152918152815160209283012083529082019290925201600020805460ff191691151591909117905550565b60008251815b818110156100c057602081860181015185830152016100a6565b818111156100ce5782828501525b509190910192915050565b610c1c806100e86000396000f3fe608060405234801561001057600080fd5b50600436106100575760003560e01c80631929e0091461005c578063249cb3fa14610085578063a09640ec146100a5578063dd2e4bb5146100b8578063feeef1e6146100cb575b600080fd5b61006f61006a366004610a4a565b6100de565b60405161007c9190610b26565b60405180910390f35b610098610093366004610a76565b61029e565b60405161007c9190610b5e565b61006f6100b336600461094b565b6102eb565b61006f6100c636600461090b565b6104ad565b61006f6100d93660046109b4565b6105f9565b606060006100ec8386610b96565b67ffffffffffffffff81111561011257634e487b7160e01b600052604160045260246000fd5b60405190808252806020026020018201604052801561013b578160200160208202803683370190505b5090506000805b848110156102925760005b8781101561027f57806101608984610b96565b61016a9190610b7e565b925086868381811061018c57634e487b7160e01b600052603260045260246000fd5b90506020020160208101906101a191906108ea565b6001600160a01b031663a26734dc8a8a848181106101cf57634e487b7160e01b600052603260045260246000fd5b905060200201356040518263ffffffff1660e01b81526004016101f29190610b5e565b60206040518083038186803b15801561020a57600080fd5b505afa15801561021e573d6000803e3d6000fd5b505050506040513d601f19601f820116820180604052508101906102429190610aa1565b84848151811061026257634e487b7160e01b600052603260045260246000fd5b60209081029190910101528061027781610bb5565b91505061014d565b508061028a81610bb5565b915050610142565b50909695505050505050565b60008281526020819052604081205460ff16156102e1576040516020016102c490610af2565b6040516020818303038152906040528051906020012090506102e5565b5060005b92915050565b606060006102f98386610b96565b67ffffffffffffffff81111561031f57634e487b7160e01b600052604160045260246000fd5b604051908082528060200260200182016040528015610348578160200160208202803683370190505b5090506000805b868110156102925760005b8581101561049a578061036d8784610b96565b6103779190610b7e565b925086868281811061039957634e487b7160e01b600052603260045260246000fd5b90506020020160208101906103ae91906108ea565b6001600160a01b03166370a082318a8a858181106103dc57634e487b7160e01b600052603260045260246000fd5b90506020020160208101906103f191906108ea565b6040518263ffffffff1660e01b815260040161040d9190610b12565b60206040518083038186803b15801561042557600080fd5b505afa158015610439573d6000803e3d6000fd5b505050506040513d601f19601f8201168201806040525081019061045d9190610aa1565b84848151811061047d57634e487b7160e01b600052603260045260246000fd5b60209081029190910101528061049281610bb5565b91505061035a565b50806104a581610bb5565b91505061034f565b606060008267ffffffffffffffff8111156104d857634e487b7160e01b600052604160045260246000fd5b604051908082528060200260200182016040528015610501578160200160208202803683370190505b50905060005b838110156105f15784848281811061052f57634e487b7160e01b600052603260045260246000fd5b905060200201602081019061054491906108ea565b6001600160a01b03166318160ddd6040518163ffffffff1660e01b815260040160206040518083038186803b15801561057c57600080fd5b505afa158015610590573d6000803e3d6000fd5b505050506040513d601f19601f820116820180604052508101906105b49190610aa1565b8282815181106105d457634e487b7160e01b600052603260045260246000fd5b6020908102919091010152806105e981610bb5565b915050610507565b509392505050565b60606000866106088487610b96565b6106129190610b96565b67ffffffffffffffff81111561063857634e487b7160e01b600052604160045260246000fd5b604051908082528060200260200182016040528015610661578160200160208202803683370190505b5090506000805b8881101561082a5760005b878110156108175760005b8681101561080457806106918884610b96565b61069b898c610b96565b6106a59086610b96565b6106af9190610b7e565b6106b99190610b7e565b93508989838181106106db57634e487b7160e01b600052603260045260246000fd5b90506020020160208101906106f091906108ea565b6001600160a01b03166330e8280389898481811061071e57634e487b7160e01b600052603260045260246000fd5b905060200201358e8e8781811061074557634e487b7160e01b600052603260045260246000fd5b905060200201602081019061075a91906108ea565b6040518363ffffffff1660e01b8152600401610777929190610b67565b60206040518083038186803b15801561078f57600080fd5b505afa1580156107a3573d6000803e3d6000fd5b505050506040513d601f19601f820116820180604052508101906107c79190610aa1565b8585815181106107e757634e487b7160e01b600052603260045260246000fd5b6020908102919091010152806107fc81610bb5565b91505061067e565b508061080f81610bb5565b915050610673565b508061082281610bb5565b915050610668565b509098975050505050505050565b60016000808360405160200161084e9190610ab9565b60408051808303601f19018152918152815160209283012083529082019290925201600020805460ff191691151591909117905550565b80356001600160a01b038116811461089c57600080fd5b919050565b60008083601f8401126108b2578182fd5b50813567ffffffffffffffff8111156108c9578182fd5b60208301915083602080830285010111156108e357600080fd5b9250929050565b6000602082840312156108fb578081fd5b61090482610885565b9392505050565b6000806020838503121561091d578081fd5b823567ffffffffffffffff811115610933578182fd5b61093f858286016108a1565b90969095509350505050565b60008060008060408587031215610960578182fd5b843567ffffffffffffffff80821115610977578384fd5b610983888389016108a1565b9096509450602087013591508082111561099b578384fd5b506109a8878288016108a1565b95989497509550505050565b600080600080600080606087890312156109cc578182fd5b863567ffffffffffffffff808211156109e3578384fd5b6109ef8a838b016108a1565b90985096506020890135915080821115610a07578384fd5b610a138a838b016108a1565b90965094506040890135915080821115610a2b578384fd5b50610a3889828a016108a1565b979a9699509497509295939492505050565b60008060008060408587031215610a5f578384fd5b843567ffffffffffffffff80821115610977578586fd5b60008060408385031215610a88578182fd5b82359150610a9860208401610885565b90509250929050565b600060208284031215610ab2578081fd5b5051919050565b60008251815b81811015610ad95760208186018101518583015201610abf565b81811115610ae75782828501525b509190910192915050565b73455243313832305f4143434550545f4d4147494360601b815260140190565b6001600160a01b0391909116815260200190565b6020808252825182820181905260009190848201906040850190845b8181101561029257835183529284019291840191600101610b42565b90815260200190565b9182526001600160a01b0316602082015260400190565b60008219821115610b9157610b91610bd0565b500190565b6000816000190483118215151615610bb057610bb0610bd0565b500290565b6000600019821415610bc957610bc9610bd0565b5060010190565b634e487b7160e01b600052601160045260246000fdfea2646970667358221220bd24c550bb18c5875fe45ad27b45d5c3dc51c65a4af03455bf1916e353ad0a3764736f6c63430008000033",
  "linkReferences": {},
  "deployedLinkReferences": {}
}