{
  "_format": "hh-sol-artifact-1",
  "contractName": "PauserMock",
  "sourceName": "contracts/ERC1400/mocks/PauserMock.sol",
  "abi": [
    {
      "inputs": [
        {
          "internalType": "address",
          "name": "token",
          "type": "address"
        }
      ],
      "stateMutability": "nonpayable",
      "type": "constructor"
    },
    {
      "anonymous": false,
      "inputs": [
        {
          "indexed": true,
          "internalType": "address",
          "name": "token",
          "type": "address"
        },
        {
          "indexed": true,
          "internalType": "address",
          "name": "account",
          "type": "address"
        }
      ],
      "name": "PauserAdded",
      "type": "event"
    },
    {
      "anonymous": false,
      "inputs": [
        {
          "indexed": true,
          "internalType": "address",
          "name": "token",
          "type": "address"
        },
        {
          "indexed": true,
          "internalType": "address",
          "name": "account",
          "type": "address"
        }
      ],
      "name": "PauserRemoved",
      "type": "event"
    },
    {
      "inputs": [
        {
          "internalType": "address",
          "name": "token",
          "type": "address"
        },
        {
          "internalType": "address",
          "name": "account",
          "type": "address"
        }
      ],
      "name": "addPauser",
      "outputs": [],
      "stateMutability": "nonpayable",
      "type": "function"
    },
    {
      "inputs": [
        {
          "internalType": "address",
          "name": "token",
          "type": "address"
        },
        {
          "internalType": "address",
          "name": "account",
          "type": "address"
        }
      ],
      "name": "isPauser",
      "outputs": [
        {
          "internalType": "bool",
          "name": "",
          "type": "bool"
        }
      ],
      "stateMutability": "view",
      "type": "function"
    },
    {
      "inputs": [
        {
          "internalType": "address",
          "name": "token",
          "type": "address"
        },
        {
          "internalType": "bool",
          "name": "mockActivated",
          "type": "bool"
        }
      ],
      "name": "mockFunction",
      "outputs": [],
      "stateMutability": "nonpayable",
      "type": "function"
    },
    {
      "inputs": [
        {
          "internalType": "address",
          "name": "token",
          "type": "address"
        },
        {
          "internalType": "address",
          "name": "account",
          "type": "address"
        }
      ],
      "name": "removePauser",
      "outputs": [],
      "stateMutability": "nonpayable",
      "type": "function"
    },
    {
      "inputs": [
        {
          "internalType": "address",
          "name": "token",
          "type": "address"
        }
      ],
      "name": "renouncePauser",
      "outputs": [],
      "stateMutability": "nonpayable",
      "type": "function"
    }
  ],
  "bytecode": "0x608060405234801561001057600080fd5b506040516106c33803806106c383398101604081905261002f9161014c565b610039813361003f565b506101f3565b6001600160a01b03821660009081526020818152604090912061006b9183906101736100af821b17901c565b806001600160a01b0316826001600160a01b03167fe0953c403a52f9dc1fef4202a8d33975c958b727bee0d7b5b328965ddad98d8160405160405180910390a35050565b6100b98282610104565b156100df5760405162461bcd60e51b81526004016100d69061017a565b60405180910390fd5b6001600160a01b0316600090815260209190915260409020805460ff19166001179055565b60006001600160a01b03821661012c5760405162461bcd60e51b81526004016100d6906101b1565b506001600160a01b03166000908152602091909152604090205460ff1690565b60006020828403121561015d578081fd5b81516001600160a01b0381168114610173578182fd5b9392505050565b6020808252601f908201527f526f6c65733a206163636f756e7420616c72656164792068617320726f6c6500604082015260600190565b60208082526022908201527f526f6c65733a206163636f756e7420697320746865207a65726f206164647265604082015261737360f01b606082015260800190565b6104c1806102026000396000f3fe608060405234801561001057600080fd5b50600436106100575760003560e01c80632fd333981461005c57806341eb24bb146100855780636c41d4ea1461009a578063eb5314bd146100ad578063ed2f9095146100c0575b600080fd5b61006f61006a36600461035a565b6100d3565b60405161007c91906103c6565b60405180910390f35b610098610093366004610340565b6100fc565b005b6100986100a836600461038c565b610109565b6100986100bb36600461035a565b610132565b6100986100ce36600461035a565b610155565b6001600160a01b03821660009081526020819052604081206100f590836101c8565b9392505050565b6101068133610210565b50565b8161011481336100d3565b61011d57600080fd5b506001805460ff191691151591909117905550565b8161013d81336100d3565b61014657600080fd5b6101508383610276565b505050565b8161016081336100d3565b61016957600080fd5b6101508383610210565b61017d82826101c8565b156101a35760405162461bcd60e51b815260040161019a906103d1565b60405180910390fd5b6001600160a01b0316600090815260209190915260409020805460ff19166001179055565b60006001600160a01b0382166101f05760405162461bcd60e51b815260040161019a90610449565b506001600160a01b03166000908152602091909152604090205460ff1690565b6001600160a01b038216600090815260208190526040902061023290826102dc565b806001600160a01b0316826001600160a01b03167fb75903ade4a0fdb07d60c882c22c779e2e1c751883c37aecdcc92a8ec72b046e60405160405180910390a35050565b6001600160a01b03821660009081526020819052604090206102989082610173565b806001600160a01b0316826001600160a01b03167fe0953c403a52f9dc1fef4202a8d33975c958b727bee0d7b5b328965ddad98d8160405160405180910390a35050565b6102e682826101c8565b6103025760405162461bcd60e51b815260040161019a90610408565b6001600160a01b0316600090815260209190915260409020805460ff19169055565b80356001600160a01b038116811461033b57600080fd5b919050565b600060208284031215610351578081fd5b6100f582610324565b6000806040838503121561036c578081fd5b61037583610324565b915061038360208401610324565b90509250929050565b6000806040838503121561039e578182fd5b6103a783610324565b9150602083013580151581146103bb578182fd5b809150509250929050565b901515815260200190565b6020808252601f908201527f526f6c65733a206163636f756e7420616c72656164792068617320726f6c6500604082015260600190565b60208082526021908201527f526f6c65733a206163636f756e7420646f6573206e6f74206861766520726f6c6040820152606560f81b606082015260800190565b60208082526022908201527f526f6c65733a206163636f756e7420697320746865207a65726f206164647265604082015261737360f01b60608201526080019056fea2646970667358221220ff4e9637411225d02520623d70c09dfeace2e65715291abe27476f995b42d72064736f6c63430008000033",
  "linkReferences": {},
  "deployedLinkReferences": {}
}