{
  "contractName": "BatchReader",
  "abi": [
    {
      "inputs": [],
      "stateMutability": "nonpayable",
      "type": "constructor"
    },
    {
      "inputs": [
        {
          "internalType": "bytes32",
          "name": "interfaceHash",
          "type": "bytes32"
        },
        {
          "internalType": "address",
          "name": "",
          "type": "address"
        }
      ],
      "name": "canImplementInterfaceForAddress",
      "outputs": [
        {
          "internalType": "bytes32",
          "name": "",
          "type": "bytes32"
        }
      ],
      "stateMutability": "view",
      "type": "function",
      "constant": true
    },
    {
      "inputs": [
        {
          "internalType": "address[]",
          "name": "tokens",
          "type": "address[]"
        }
      ],
      "name": "batchTokenSuppliesInfos",
      "outputs": [
        {
          "internalType": "uint256[]",
          "name": "",
          "type": "uint256[]"
        },
        {
          "internalType": "uint256[]",
          "name": "",
          "type": "uint256[]"
        },
        {
          "internalType": "bytes32[]",
          "name": "",
          "type": "bytes32[]"
        },
        {
          "internalType": "uint256[]",
          "name": "",
          "type": "uint256[]"
        },
        {
          "internalType": "uint256[]",
          "name": "",
          "type": "uint256[]"
        },
        {
          "internalType": "bytes32[]",
          "name": "",
          "type": "bytes32[]"
        }
      ],
      "stateMutability": "view",
      "type": "function",
      "constant": true
    },
    {
      "inputs": [
        {
          "internalType": "address[]",
          "name": "tokens",
          "type": "address[]"
        }
      ],
      "name": "batchTokenRolesInfos",
      "outputs": [
        {
          "internalType": "address[]",
          "name": "",
          "type": "address[]"
        },
        {
          "internalType": "uint256[]",
          "name": "",
          "type": "uint256[]"
        },
        {
          "internalType": "address[]",
          "name": "",
          "type": "address[]"
        },
        {
          "internalType": "uint256[]",
          "name": "",
          "type": "uint256[]"
        },
        {
          "internalType": "address[]",
          "name": "",
          "type": "address[]"
        }
      ],
      "stateMutability": "view",
      "type": "function",
      "constant": true
    },
    {
      "inputs": [
        {
          "internalType": "address[]",
          "name": "tokens",
          "type": "address[]"
        }
      ],
      "name": "batchControllers",
      "outputs": [
        {
          "internalType": "uint256[]",
          "name": "",
          "type": "uint256[]"
        },
        {
          "internalType": "address[]",
          "name": "",
          "type": "address[]"
        }
      ],
      "stateMutability": "view",
      "type": "function",
      "constant": true
    },
    {
      "inputs": [
        {
          "internalType": "address[]",
          "name": "tokens",
          "type": "address[]"
        }
      ],
      "name": "batchExtensionControllers",
      "outputs": [
        {
          "internalType": "uint256[]",
          "name": "",
          "type": "uint256[]"
        },
        {
          "internalType": "address[]",
          "name": "",
          "type": "address[]"
        }
      ],
      "stateMutability": "view",
      "type": "function",
      "constant": true
    },
    {
      "inputs": [
        {
          "internalType": "address[]",
          "name": "tokens",
          "type": "address[]"
        }
      ],
      "name": "batchTokenExtensionSetup",
      "outputs": [
        {
          "internalType": "address[]",
          "name": "",
          "type": "address[]"
        },
        {
          "internalType": "enum IExtensionTypes.CertificateValidation[]",
          "name": "",
          "type": "uint8[]"
        },
        {
          "internalType": "bool[]",
          "name": "",
          "type": "bool[]"
        },
        {
          "internalType": "bool[]",
          "name": "",
          "type": "bool[]"
        },
        {
          "internalType": "bool[]",
          "name": "",
          "type": "bool[]"
        },
        {
          "internalType": "bool[]",
          "name": "",
          "type": "bool[]"
        }
      ],
      "stateMutability": "view",
      "type": "function",
      "constant": true
    },
    {
      "inputs": [
        {
          "internalType": "address[]",
          "name": "tokens",
          "type": "address[]"
        }
      ],
      "name": "batchTokenExtensionSetup1",
      "outputs": [
        {
          "internalType": "address[]",
          "name": "",
          "type": "address[]"
        },
        {
          "internalType": "enum IExtensionTypes.CertificateValidation[]",
          "name": "",
          "type": "uint8[]"
        },
        {
          "internalType": "bool[]",
          "name": "",
          "type": "bool[]"
        },
        {
          "internalType": "bool[]",
          "name": "",
          "type": "bool[]"
        }
      ],
      "stateMutability": "view",
      "type": "function",
      "constant": true
    },
    {
      "inputs": [
        {
          "internalType": "address[]",
          "name": "tokens",
          "type": "address[]"
        }
      ],
      "name": "batchTokenExtensionSetup2",
      "outputs": [
        {
          "internalType": "bool[]",
          "name": "",
          "type": "bool[]"
        },
        {
          "internalType": "bool[]",
          "name": "",
          "type": "bool[]"
        }
      ],
      "stateMutability": "view",
      "type": "function",
      "constant": true
    },
    {
      "inputs": [
        {
          "internalType": "address[]",
          "name": "tokens",
          "type": "address[]"
        },
        {
          "internalType": "address[]",
          "name": "tokenHolders",
          "type": "address[]"
        }
      ],
      "name": "batchERC1400Balances",
      "outputs": [
        {
          "internalType": "uint256[]",
          "name": "",
          "type": "uint256[]"
        },
        {
          "internalType": "uint256[]",
          "name": "",
          "type": "uint256[]"
        },
        {
          "internalType": "uint256[]",
          "name": "",
          "type": "uint256[]"
        },
        {
          "internalType": "bytes32[]",
          "name": "",
          "type": "bytes32[]"
        },
        {
          "internalType": "uint256[]",
          "name": "",
          "type": "uint256[]"
        },
        {
          "internalType": "uint256[]",
          "name": "",
          "type": "uint256[]"
        }
      ],
      "stateMutability": "view",
      "type": "function",
      "constant": true
    },
    {
      "inputs": [
        {
          "internalType": "address[]",
          "name": "tokens",
          "type": "address[]"
        },
        {
          "internalType": "address[]",
          "name": "tokenHolders",
          "type": "address[]"
        }
      ],
      "name": "batchERC20Balances",
      "outputs": [
        {
          "internalType": "uint256[]",
          "name": "",
          "type": "uint256[]"
        },
        {
          "internalType": "uint256[]",
          "name": "",
          "type": "uint256[]"
        }
      ],
      "stateMutability": "view",
      "type": "function",
      "constant": true
    },
    {
      "inputs": [
        {
          "internalType": "address[]",
          "name": "tokenHolders",
          "type": "address[]"
        }
      ],
      "name": "batchEthBalance",
      "outputs": [
        {
          "internalType": "uint256[]",
          "name": "",
          "type": "uint256[]"
        }
      ],
      "stateMutability": "view",
      "type": "function",
      "constant": true
    },
    {
      "inputs": [
        {
          "internalType": "address[]",
          "name": "tokens",
          "type": "address[]"
        },
        {
          "internalType": "address[]",
          "name": "tokenHolders",
          "type": "address[]"
        }
      ],
      "name": "batchERC721Balances",
      "outputs": [
        {
          "internalType": "uint256[]",
          "name": "",
          "type": "uint256[]"
        },
        {
          "internalType": "uint256[][][]",
          "name": "",
          "type": "uint256[][][]"
        }
      ],
      "stateMutability": "view",
      "type": "function",
      "constant": true
    },
    {
      "inputs": [
        {
          "internalType": "address[]",
          "name": "tokens",
          "type": "address[]"
        },
        {
          "internalType": "address[]",
          "name": "tokenHolders",
          "type": "address[]"
        }
      ],
      "name": "batchBalanceOf",
      "outputs": [
        {
          "internalType": "uint256[]",
          "name": "",
          "type": "uint256[]"
        }
      ],
      "stateMutability": "view",
      "type": "function",
      "constant": true
    },
    {
      "inputs": [
        {
          "internalType": "address[]",
          "name": "tokens",
          "type": "address[]"
        },
        {
          "internalType": "address[]",
          "name": "tokenHolders",
          "type": "address[]"
        }
      ],
      "name": "batchBalanceOfByPartition",
      "outputs": [
        {
          "internalType": "uint256[]",
          "name": "",
          "type": "uint256[]"
        },
        {
          "internalType": "bytes32[]",
          "name": "",
          "type": "bytes32[]"
        },
        {
          "internalType": "uint256[]",
          "name": "",
          "type": "uint256[]"
        }
      ],
      "stateMutability": "view",
      "type": "function",
      "constant": true
    },
    {
      "inputs": [
        {
          "internalType": "address[]",
          "name": "tokens",
          "type": "address[]"
        },
        {
          "internalType": "address[]",
          "name": "tokenHolders",
          "type": "address[]"
        }
      ],
      "name": "batchSpendableBalanceOfByPartition",
      "outputs": [
        {
          "internalType": "uint256[]",
          "name": "",
          "type": "uint256[]"
        },
        {
          "internalType": "bytes32[]",
          "name": "",
          "type": "bytes32[]"
        },
        {
          "internalType": "uint256[]",
          "name": "",
          "type": "uint256[]"
        }
      ],
      "stateMutability": "view",
      "type": "function",
      "constant": true
    },
    {
      "inputs": [
        {
          "internalType": "address[]",
          "name": "tokens",
          "type": "address[]"
        }
      ],
      "name": "batchTotalPartitions",
      "outputs": [
        {
          "internalType": "uint256[]",
          "name": "",
          "type": "uint256[]"
        },
        {
          "internalType": "bytes32[]",
          "name": "",
          "type": "bytes32[]"
        },
        {
          "internalType": "uint256[]",
          "name": "",
          "type": "uint256[]"
        }
      ],
      "stateMutability": "view",
      "type": "function",
      "constant": true
    },
    {
      "inputs": [
        {
          "internalType": "address[]",
          "name": "tokens",
          "type": "address[]"
        }
      ],
      "name": "batchDefaultPartitions",
      "outputs": [
        {
          "internalType": "uint256[]",
          "name": "",
          "type": "uint256[]"
        },
        {
          "internalType": "bytes32[]",
          "name": "",
          "type": "bytes32[]"
        }
      ],
      "stateMutability": "view",
      "type": "function",
      "constant": true
    },
    {
      "inputs": [
        {
          "internalType": "address[]",
          "name": "tokens",
          "type": "address[]"
        },
        {
          "internalType": "address[]",
          "name": "tokenHolders",
          "type": "address[]"
        }
      ],
      "name": "batchValidations",
      "outputs": [
        {
          "internalType": "bool[]",
          "name": "",
          "type": "bool[]"
        },
        {
          "internalType": "bool[]",
          "name": "",
          "type": "bool[]"
        }
      ],
      "stateMutability": "view",
      "type": "function",
      "constant": true
    },
    {
      "inputs": [
        {
          "internalType": "address[]",
          "name": "tokens",
          "type": "address[]"
        },
        {
          "internalType": "address[]",
          "name": "tokenHolders",
          "type": "address[]"
        }
      ],
      "name": "batchAllowlisted",
      "outputs": [
        {
          "internalType": "bool[]",
          "name": "",
          "type": "bool[]"
        }
      ],
      "stateMutability": "view",
      "type": "function",
      "constant": true
    },
    {
      "inputs": [
        {
          "internalType": "address[]",
          "name": "tokens",
          "type": "address[]"
        },
        {
          "internalType": "address[]",
          "name": "tokenHolders",
          "type": "address[]"
        }
      ],
      "name": "batchBlocklisted",
      "outputs": [
        {
          "internalType": "bool[]",
          "name": "",
          "type": "bool[]"
        }
      ],
      "stateMutability": "view",
      "type": "function",
      "constant": true
    }
  ],
  "bytecode": "0x60806040523480156200001157600080fd5b506200004b6040518060400160405280600b81526020016a2130ba31b42932b0b232b960a91b8152506200005160201b62002c821760201c565b620000de565b600160008083604051602001620000699190620000a0565b60408051808303601f19018152918152815160209283012083529082019290925201600020805460ff191691151591909117905550565b6000825160005b81811015620000c35760208186018101518583015201620000a7565b81811115620000d3576000828501525b509190910192915050565b61385280620000ee6000396000f3fe608060405234801561001057600080fd5b50600436106100fc5760003560e01c8063249cb3fa146101015780632bb1388e146101275780633ad156c8146101485780633f55bc081461016b5780634d2ebea31461018f57806358292aff146101b4578063658a986a146101d557806369de4a86146101f55780636e5e85691461021a5780637d5b6f351461022d57806382037e441461024e5780638af36a1e14610261578063b59b28ef14610274578063c4b37e3d14610294578063c6c3f08d146102b6578063dbfedcac146102c9578063eafb1b16146102dc578063eb606fa1146102ef578063f43b176114610310578063fa58749514610323575b600080fd5b61011461010f36600461313f565b610336565b6040519081526020015b60405180910390f35b61013a610135366004612fc2565b610397565b60405161011e929190613539565b61015b610156366004612fc2565b6107e2565b60405161011e949392919061339e565b61017e610179366004612f16565b610b90565b60405161011e959493929190613478565b6101a261019d366004612f16565b610d55565b60405161011e969594939291906133f6565b6101c76101c2366004612fc2565b610e01565b60405161011e929190613613565b6101e86101e336600461302a565b611097565b60405161011e91906134e5565b610208610203366004612f57565b611284565b60405161011e9695949392919061367b565b6101c7610228366004612f57565b611467565b61024061023b36600461302a565b611527565b60405161011e9291906134f8565b6101e861025c36600461302a565b611553565b61024061026f366004612fc2565b611738565b61028761028236600461302a565b611a0d565b60405161011e9190613526565b6102a76102a236600461302a565b611b81565b60405161011e93929190613638565b6102086102c4366004612f16565b611eca565b61013a6102d7366004612fc2565b61206f565b6102876102ea366004612fc2565b612305565b6103026102fd366004612f57565b6123b4565b60405161011e92919061355e565b6102a761031e36600461302a565b6126e9565b6102a7610331366004612fc2565b6128d4565b60008281526020819052604081205460ff161561038d5760405173455243313832305f4143434550545f4d4147494360601b6020820152603401604051602081830303815290604052805190602001209050610391565b5060005b92915050565b606080600083516001600160401b038111156103b5576103b56137ee565b6040519080825280602002602001820160405280156103de578160200160208202803683370190505b509050600084516001600160401b038111156103fc576103fc6137ee565b604051908082528060200260200182016040528015610425578160200160208202803683370190505b5090506000805b865181101561060d5761048687828151811061044a5761044a6137d8565b60200260200101516040518060400160405280601681526020017522a921989a18182a37b5b2b739ab30b634b230ba37b960511b815250612ccf565b848281518110610498576104986137d8565b60200260200101906001600160a01b031690816001600160a01b03168152505060006001600160a01b03168482815181106104d5576104d56137d8565b60200260200101516001600160a01b0316146105da5760008482815181106104ff576104ff6137d8565b60200260200101516001600160a01b031663accf6175898481518110610527576105276137d8565b60200260200101516040518263ffffffff1660e01b815260040161054b9190613357565b60006040518083038186803b15801561056357600080fd5b505afa158015610577573d6000803e3d6000fd5b505050506040513d6000823e601f3d908101601f1916820160405261059f919081019061316f565b9550505050505080518483815181106105ba576105ba6137d8565b602090810291909101015280516105d2908490612d8c565b9250506105fb565b60008382815181106105ee576105ee6137d8565b6020026020010181815250505b8061060581613791565b91505061042c565b506000816001600160401b03811115610628576106286137ee565b604051908082528060200260200182016040528015610651578160200160208202803683370190505b5090506000805b88518110156107d45760006001600160a01b031686828151811061067e5761067e6137d8565b60200260200101516001600160a01b0316146107c25760008682815181106106a8576106a86137d8565b60200260200101516001600160a01b031663accf61758b84815181106106d0576106d06137d8565b60200260200101516040518263ffffffff1660e01b81526004016106f49190613357565b60006040518083038186803b15801561070c57600080fd5b505afa158015610720573d6000803e3d6000fd5b505050506040513d6000823e601f3d908101601f19168201604052610748919081019061316f565b9550505050505060005b81518110156107bf5781818151811061076d5761076d6137d8565b6020026020010151858581518110610787576107876137d8565b6001600160a01b0390921660209283029190910190910152836107a981613791565b94505080806107b790613791565b915050610752565b50505b806107cc81613791565b915050610658565b509297909650945050505050565b606080606080600085516001600160401b03811115610803576108036137ee565b60405190808252806020026020018201604052801561082c578160200160208202803683370190505b509050600086516001600160401b0381111561084a5761084a6137ee565b604051908082528060200260200182016040528015610873578160200160208202803683370190505b509050600087516001600160401b03811115610891576108916137ee565b6040519080825280602002602001820160405280156108ba578160200160208202803683370190505b509050600088516001600160401b038111156108d8576108d86137ee565b604051908082528060200260200182016040528015610901578160200160208202803683370190505b50905060005b8951811015610b80576109258a828151811061044a5761044a6137d8565b858281518110610937576109376137d8565b60200260200101906001600160a01b031690816001600160a01b03168152505060006001600160a01b0316858281518110610974576109746137d8565b60200260200101516001600160a01b031614610adf5760008060008784815181106109a1576109a16137d8565b60200260200101516001600160a01b031663accf61758e86815181106109c9576109c96137d8565b60200260200101516040518263ffffffff1660e01b81526004016109ed9190613357565b60006040518083038186803b158015610a0557600080fd5b505afa158015610a19573d6000803e3d6000fd5b505050506040513d6000823e601f3d908101601f19168201604052610a41919081019061316f565b50505092509250925082878581518110610a5d57610a5d6137d8565b60200260200101906002811115610a7657610a766137c2565b90816002811115610a8957610a896137c2565b8152505081868581518110610aa057610aa06137d8565b60200260200101901515908115158152505080858581518110610ac557610ac56137d8565b602002602001019015159081151581525050505050610b6e565b6000848281518110610af357610af36137d8565b60200260200101906002811115610b0c57610b0c6137c2565b90816002811115610b1f57610b1f6137c2565b815250506000838281518110610b3757610b376137d8565b6020026020010190151590811515815250506000828281518110610b5d57610b5d6137d8565b911515602092830291909101909101525b80610b7881613791565b915050610907565b5092989197509550909350915050565b6060806060806060600080610bd789898080602002602001604051908101604052809392919081815260200183836020028082843760009201919091525061039792505050565b91509150600080610c1a8b8b8080602002602001604051908101604052809392919081815260200183836020028082843760009201919091525061206f92505050565b909250905060008a6001600160401b03811115610c3957610c396137ee565b604051908082528060200260200182016040528015610c62578160200160208202803683370190505b50905060005b8b811015610d43578c8c82818110610c8257610c826137d8565b9050602002016020810190610c979190612edc565b6001600160a01b0316638da5cb5b6040518163ffffffff1660e01b815260040160206040518083038186803b158015610ccf57600080fd5b505afa158015610ce3573d6000803e3d6000fd5b505050506040513d601f19601f82011682018060405250810190610d079190612ef9565b828281518110610d1957610d196137d8565b6001600160a01b039092166020928302919091019091015280610d3b81613791565b915050610c68565b509b919a509850919650945092505050565b606080606080606080600080600080610da08c8c808060200260200160405190810160405280939291908181526020018383602002808284376000920191909152506107e292505050565b9350935093509350600080610de78e8e8080602002602001604051908101604052809392919081815260200183836020028082843760009201919091525061173892505050565b969f959e50939c50919a5091985092965090945050505050565b606080600083516001600160401b03811115610e1f57610e1f6137ee565b604051908082528060200260200182016040528015610e48578160200160208202803683370190505b5090506000805b8551811015610f2c576000868281518110610e6c57610e6c6137d8565b60200260200101516001600160a01b031663bcfdc0cf6040518163ffffffff1660e01b815260040160006040518083038186803b158015610eac57600080fd5b505afa158015610ec0573d6000803e3d6000fd5b505050506040513d6000823e601f3d908101601f19168201604052610ee8919081019061308d565b90508051848381518110610efe57610efe6137d8565b60209081029190910101528051610f16908490612d8c565b9250508080610f2490613791565b915050610e4f565b506000816001600160401b03811115610f4757610f476137ee565b604051908082528060200260200182016040528015610f70578160200160208202803683370190505b5090506000805b875181101561108a576000888281518110610f9457610f946137d8565b60200260200101516001600160a01b031663bcfdc0cf6040518163ffffffff1660e01b815260040160006040518083038186803b158015610fd457600080fd5b505afa158015610fe8573d6000803e3d6000fd5b505050506040513d6000823e601f3d908101601f19168201604052611010919081019061308d565b905060005b815181101561107557818181518110611030576110306137d8565b602002602001015185858151811061104a5761104a6137d8565b60209081029190910101528361105f81613791565b945050808061106d90613791565b915050611015565b5050808061108290613791565b915050610f77565b5092969095509350505050565b60606000835183516110a99190613772565b6001600160401b038111156110c0576110c06137ee565b6040519080825280602002602001820160405280156110e9578160200160208202803683370190505b50905060005b835181101561127c5760005b855181101561126957600061111b87838151811061044a5761044a6137d8565b90506001600160a01b0381161561121a57806001600160a01b031663a4aa023f88848151811061114d5761114d6137d8565b6020026020010151888681518110611167576111676137d8565b60200260200101516040518363ffffffff1660e01b815260040161118c92919061336b565b60206040518083038186803b1580156111a457600080fd5b505afa1580156111b8573d6000803e3d6000fd5b505050506040513d601f19601f820116820180604052508101906111dc9190613124565b84838951866111eb9190613772565b6111f5919061375a565b81518110611205576112056137d8565b91151560209283029190910190910152611256565b6000848389518661122b9190613772565b611235919061375a565b81518110611245576112456137d8565b911515602092830291909101909101525b508061126181613791565b9150506110fb565b508061127481613791565b9150506110ef565b509392505050565b60608060608060608060006112fc8b8b8080602002602001604051908101604052809392919081815260200183836020028082843760009201919091525050604080516020808f0282810182019093528e82529093508e92508d918291850190849080828437600092019190915250611b8192505050565b9250505060008060006113838e8e80806020026020016040519081016040528093929190818152602001838360200280828437600081840152601f19601f820116905080830192505050505050508d8d808060200260200160405190810160405280939291908181526020018383602002808284376000920191909152506126e992505050565b92509250925060006114098f8f80806020026020016040519081016040528093929190818152602001838360200280828437600081840152601f19601f820116905080830192505050505050508e8e80806020026020016040519081016040528093929190818152602001838360200280828437600092019190915250611a0d92505050565b905060006114498e8e8080602002602001604051908101604052809392919081815260200183836020028082843760009201919091525061230592505050565b9b509099509297509095509350909150509499939850945094509450565b60608060006114d987878080602002602001604051908101604052809392919081815260200183836020028082843760009201919091525050604080516020808b0282810182019093528a82529093508a925089918291850190849080828437600092019190915250611a0d92505050565b9050600061151986868080602002602001604051908101604052809392919081815260200183836020028082843760009201919091525061230592505050565b989197509095505050505050565b60608060006115368585611553565b905060006115448686611097565b919350909150505b9250929050565b60606000835183516115659190613772565b6001600160401b0381111561157c5761157c6137ee565b6040519080825280602002602001820160405280156115a5578160200160208202803683370190505b50905060005b835181101561127c5760005b85518110156117255760006115d787838151811061044a5761044a6137d8565b90506001600160a01b038116156116d657806001600160a01b03166361c2e281888481518110611609576116096137d8565b6020026020010151888681518110611623576116236137d8565b60200260200101516040518363ffffffff1660e01b815260040161164892919061336b565b60206040518083038186803b15801561166057600080fd5b505afa158015611674573d6000803e3d6000fd5b505050506040513d601f19601f820116820180604052508101906116989190613124565b84838951866116a79190613772565b6116b1919061375a565b815181106116c1576116c16137d8565b91151560209283029190910190910152611712565b600084838951866116e79190613772565b6116f1919061375a565b81518110611701576117016137d8565b911515602092830291909101909101525b508061171d81613791565b9150506115b7565b508061173081613791565b9150506115ab565b606080600083516001600160401b03811115611756576117566137ee565b60405190808252806020026020018201604052801561177f578160200160208202803683370190505b509050600084516001600160401b0381111561179d5761179d6137ee565b6040519080825280602002602001820160405280156117c6578160200160208202803683370190505b509050600085516001600160401b038111156117e4576117e46137ee565b60405190808252806020026020018201604052801561180d578160200160208202803683370190505b50905060005b8651811015611a015761183187828151811061044a5761044a6137d8565b848281518110611843576118436137d8565b60200260200101906001600160a01b031690816001600160a01b03168152505060006001600160a01b0316848281518110611880576118806137d8565b60200260200101516001600160a01b0316146119a4576000808583815181106118ab576118ab6137d8565b60200260200101516001600160a01b031663accf61758a85815181106118d3576118d36137d8565b60200260200101516040518263ffffffff1660e01b81526004016118f79190613357565b60006040518083038186803b15801561190f57600080fd5b505afa158015611923573d6000803e3d6000fd5b505050506040513d6000823e601f3d908101601f1916820160405261194b919081019061316f565b509450945050505081858481518110611966576119666137d8565b6020026020010190151590811515815250508084848151811061198b5761198b6137d8565b60200260200101901515908115158152505050506119ef565b60008382815181106119b8576119b86137d8565b60200260200101901515908115158152505060008282815181106119de576119de6137d8565b911515602092830291909101909101525b806119f981613791565b915050611813565b50909590945092505050565b6060600083518351611a1f9190613772565b6001600160401b03811115611a3657611a366137ee565b604051908082528060200260200182016040528015611a5f578160200160208202803683370190505b50905060005b835181101561127c5760005b8551811015611b6e57858181518110611a8c57611a8c6137d8565b60200260200101516001600160a01b03166370a08231868481518110611ab457611ab46137d8565b60200260200101516040518263ffffffff1660e01b8152600401611ad89190613357565b60206040518083038186803b158015611af057600080fd5b505afa158015611b04573d6000803e3d6000fd5b505050506040513d601f19601f82011682018060405250810190611b289190613204565b8382885185611b379190613772565b611b41919061375a565b81518110611b5157611b516137d8565b602090810291909101015280611b6681613791565b915050611a71565b5080611b7981613791565b915050611a65565b6060806060600080611b92876128d4565b5091509150600081518751611ba79190613772565b6001600160401b03811115611bbe57611bbe6137ee565b604051908082528060200260200182016040528015611be7578160200160208202803683370190505b50905060005b8751811015611ebb576000805b8a51811015611ea6576000611c1a8c838151811061044a5761044a6137d8565b905060005b878381518110611c3157611c316137d8565b6020026020010151811015611e91576001600160a01b03821615611d7257816001600160a01b031663732c916b8e8581518110611c7057611c706137d8565b6020026020010151898781518110611c8a57611c8a6137d8565b60200260200101518f8981518110611ca457611ca46137d8565b60200260200101516040518463ffffffff1660e01b8152600401611ce8939291906001600160a01b0393841681526020810192909252909116604082015260600190565b60206040518083038186803b158015611d0057600080fd5b505afa158015611d14573d6000803e3d6000fd5b505050506040513d601f19601f82011682018060405250810190611d389190613204565b8685895188611d479190613772565b611d51919061375a565b81518110611d6157611d616137d8565b602002602001018181525050611e71565b8c8381518110611d8457611d846137d8565b60200260200101516001600160a01b03166330e82803888681518110611dac57611dac6137d8565b60200260200101518e8881518110611dc657611dc66137d8565b60200260200101516040518363ffffffff1660e01b8152600401611deb9291906136f0565b60206040518083038186803b158015611e0357600080fd5b505afa158015611e17573d6000803e3d6000fd5b505050506040513d601f19601f82011682018060405250810190611e3b9190613204565b8685895188611e4a9190613772565b611e54919061375a565b81518110611e6457611e646137d8565b6020026020010181815250505b83611e7b81613791565b9450508080611e8990613791565b915050611c1f565b50508080611e9e90613791565b915050611bfa565b50508080611eb390613791565b915050611bed565b50919450925090509250925092565b606080808080806000876001600160401b03811115611eeb57611eeb6137ee565b604051908082528060200260200182016040528015611f14578160200160208202803683370190505b50905060005b88811015611fe857898982818110611f3457611f346137d8565b9050602002016020810190611f499190612edc565b6001600160a01b03166318160ddd6040518163ffffffff1660e01b815260040160206040518083038186803b158015611f8157600080fd5b505afa158015611f95573d6000803e3d6000fd5b505050506040513d601f19601f82011682018060405250810190611fb99190613204565b828281518110611fcb57611fcb6137d8565b602090810291909101015280611fe081613791565b915050611f1a565b50600080600061202a8c8c808060200260200160405190810160405280939291908181526020018383602002808284376000920191909152506128d492505050565b925092509250600080610de78e8e80806020026020016040519081016040528093929190818152602001838360200280828437600092019190915250610e0192505050565b606080600083516001600160401b0381111561208d5761208d6137ee565b6040519080825280602002602001820160405280156120b6578160200160208202803683370190505b5090506000805b855181101561219a5760008682815181106120da576120da6137d8565b60200260200101516001600160a01b0316637cc0c3a76040518163ffffffff1660e01b815260040160006040518083038186803b15801561211a57600080fd5b505afa15801561212e573d6000803e3d6000fd5b505050506040513d6000823e601f3d908101601f191682016040526121569190810190612ff6565b9050805184838151811061216c5761216c6137d8565b60209081029190910101528051612184908490612d8c565b925050808061219290613791565b9150506120bd565b506000816001600160401b038111156121b5576121b56137ee565b6040519080825280602002602001820160405280156121de578160200160208202803683370190505b5090506000805b875181101561108a576000888281518110612202576122026137d8565b60200260200101516001600160a01b0316637cc0c3a76040518163ffffffff1660e01b815260040160006040518083038186803b15801561224257600080fd5b505afa158015612256573d6000803e3d6000fd5b505050506040513d6000823e601f3d908101601f1916820160405261227e9190810190612ff6565b905060005b81518110156122f05781818151811061229e5761229e6137d8565b60200260200101518585815181106122b8576122b86137d8565b6001600160a01b0390921660209283029190910190910152836122da81613791565b94505080806122e890613791565b915050612283565b505080806122fd90613791565b9150506121e5565b6060600082516001600160401b03811115612322576123226137ee565b60405190808252806020026020018201604052801561234b578160200160208202803683370190505b50905060005b83518110156123ad5783818151811061236c5761236c6137d8565b60200260200101516001600160a01b031631828281518110612390576123906137d8565b6020908102919091010152806123a581613791565b915050612351565b5092915050565b6060806000856001600160401b038111156123d1576123d16137ee565b60405190808252806020026020018201604052801561240457816020015b60608152602001906001900390816123ef5790505b50905060005b868110156126aa576000888883818110612426576124266137d8565b905060200201602081019061243b9190612edc565b90506000866001600160401b03811115612457576124576137ee565b60405190808252806020026020018201604052801561248a57816020015b60608152602001906001900390816124755790505b50905060005b878110156126765760008989838181106124ac576124ac6137d8565b90506020020160208101906124c19190612edc565b90506000846001600160a01b03166370a08231836040518263ffffffff1660e01b81526004016124f19190613357565b60206040518083038186803b15801561250957600080fd5b505afa15801561251d573d6000803e3d6000fd5b505050506040513d601f19601f820116820180604052508101906125419190613204565b90506000816001600160401b0381111561255d5761255d6137ee565b604051908082528060200260200182016040528015612586578160200160208202803683370190505b50905060005b8281101561264157604051632f745c5960e01b81526001600160a01b03881690632f745c59906125c29087908590600401613385565b60206040518083038186803b1580156125da57600080fd5b505afa1580156125ee573d6000803e3d6000fd5b505050506040513d601f19601f820116820180604052508101906126129190613204565b828281518110612624576126246137d8565b60209081029190910101528061263981613791565b91505061258c565b5080858581518110612655576126556137d8565b6020026020010181905250505050808061266e90613791565b915050612490565b508084848151811061268a5761268a6137d8565b6020026020010181905250505080806126a290613791565b91505061240a565b50600061151986868080602002602001604051908101604052809392919081815260200183836020028082843760009201919091525061230592505050565b60608060606000806126fa876128d4565b509150915060008151875161270f9190613772565b6001600160401b03811115612726576127266137ee565b60405190808252806020026020018201604052801561274f578160200160208202803683370190505b50905060005b8751811015611ebb576000805b8a518110156128bf5760005b868281518110612780576127806137d8565b60200260200101518110156128ac578b82815181106127a1576127a16137d8565b60200260200101516001600160a01b03166330e828038785815181106127c9576127c96137d8565b60200260200101518d87815181106127e3576127e36137d8565b60200260200101516040518363ffffffff1660e01b81526004016128089291906136f0565b60206040518083038186803b15801561282057600080fd5b505afa158015612834573d6000803e3d6000fd5b505050506040513d601f19601f820116820180604052508101906128589190613204565b85848851876128679190613772565b612871919061375a565b81518110612881576128816137d8565b60209081029190910101528261289681613791565b93505080806128a490613791565b91505061276e565b50806128b781613791565b915050612762565b505080806128cc90613791565b915050612755565b6060806060600084516001600160401b038111156128f4576128f46137ee565b60405190808252806020026020018201604052801561291d578160200160208202803683370190505b5090506000805b8651811015612a01576000878281518110612941576129416137d8565b60200260200101516001600160a01b03166369598efe6040518163ffffffff1660e01b815260040160006040518083038186803b15801561298157600080fd5b505afa158015612995573d6000803e3d6000fd5b505050506040513d6000823e601f3d908101601f191682016040526129bd919081019061308d565b905080518483815181106129d3576129d36137d8565b602090810291909101015280516129eb908490612d8c565b92505080806129f990613791565b915050612924565b506000816001600160401b03811115612a1c57612a1c6137ee565b604051908082528060200260200182016040528015612a45578160200160208202803683370190505b5090506000826001600160401b03811115612a6257612a626137ee565b604051908082528060200260200182016040528015612a8b578160200160208202803683370190505b5090506000805b8951811015612c735760008a8281518110612aaf57612aaf6137d8565b60200260200101516001600160a01b03166369598efe6040518163ffffffff1660e01b815260040160006040518083038186803b158015612aef57600080fd5b505afa158015612b03573d6000803e3d6000fd5b505050506040513d6000823e601f3d908101601f19168201604052612b2b919081019061308d565b905060005b8151811015612c5e57818181518110612b4b57612b4b6137d8565b6020026020010151868581518110612b6557612b656137d8565b6020026020010181815250508b8381518110612b8357612b836137d8565b60200260200101516001600160a01b031663a26734dc838381518110612bab57612bab6137d8565b60200260200101516040518263ffffffff1660e01b8152600401612bd191815260200190565b60206040518083038186803b158015612be957600080fd5b505afa158015612bfd573d6000803e3d6000fd5b505050506040513d601f19601f82011682018060405250810190612c219190613204565b858581518110612c3357612c336137d8565b602090810291909101015283612c4881613791565b9450508080612c5690613791565b915050612b30565b50508080612c6b90613791565b915050612a92565b50939891975095509350505050565b600160008083604051602001612c98919061331c565b60408051808303601f19018152918152815160209283012083529082019290925201600020805460ff191691151591909117905550565b60008082604051602001612ce3919061331c565b60408051601f1981840301815290829052805160209091012063555ddc6560e11b82529150731820a4b7618bde71dce8cdc73aab6c95905fad249063aabbb8ca90612d349087908590600401613385565b60206040518083038186803b158015612d4c57600080fd5b505afa158015612d60573d6000803e3d6000fd5b505050506040513d601f19601f82011682018060405250810190612d849190612ef9565b949350505050565b6000612d98828461375a565b9392505050565b60008083601f840112612db157600080fd5b5081356001600160401b03811115612dc857600080fd5b6020830191508360208260051b850101111561154c57600080fd5b600082601f830112612df457600080fd5b81356020612e09612e0483613737565b613707565b80838252828201915082860187848660051b8901011115612e2957600080fd5b60005b85811015612e51578135612e3f81613804565b84529284019290840190600101612e2c565b5090979650505050505050565b600082601f830112612e6f57600080fd5b81516020612e7f612e0483613737565b80838252828201915082860187848660051b8901011115612e9f57600080fd5b60005b85811015612e51578151612eb581613804565b84529284019290840190600101612ea2565b80518015158114612ed757600080fd5b919050565b600060208284031215612eee57600080fd5b8135612d9881613804565b600060208284031215612f0b57600080fd5b8151612d9881613804565b60008060208385031215612f2957600080fd5b82356001600160401b03811115612f3f57600080fd5b612f4b85828601612d9f565b90969095509350505050565b60008060008060408587031215612f6d57600080fd5b84356001600160401b0380821115612f8457600080fd5b612f9088838901612d9f565b90965094506020870135915080821115612fa957600080fd5b50612fb687828801612d9f565b95989497509550505050565b600060208284031215612fd457600080fd5b81356001600160401b03811115612fea57600080fd5b612d8484828501612de3565b60006020828403121561300857600080fd5b81516001600160401b0381111561301e57600080fd5b612d8484828501612e5e565b6000806040838503121561303d57600080fd5b82356001600160401b038082111561305457600080fd5b61306086838701612de3565b9350602085013591508082111561307657600080fd5b5061308385828601612de3565b9150509250929050565b600060208083850312156130a057600080fd5b82516001600160401b038111156130b657600080fd5b8301601f810185136130c757600080fd5b80516130d5612e0482613737565b80828252848201915084840188868560051b87010111156130f557600080fd5b600094505b838510156131185780518352600194909401939185019185016130fa565b50979650505050505050565b60006020828403121561313657600080fd5b612d9882612ec7565b6000806040838503121561315257600080fd5b82359150602083013561316481613804565b809150509250929050565b60008060008060008060c0878903121561318857600080fd5b86516003811061319757600080fd5b95506131a560208801612ec7565b94506131b360408801612ec7565b93506131c160608801612ec7565b92506131cf60808801612ec7565b60a08801519092506001600160401b038111156131eb57600080fd5b6131f789828a01612e5e565b9150509295509295509295565b60006020828403121561321657600080fd5b5051919050565b600081518084526020808501945080840160005b838110156132565781516001600160a01b031687529582019590820190600101613231565b509495945050505050565b600081518084526020808501945080840160005b83811015613256578151151587529582019590820190600101613275565b600081518084526020808501945080840160005b83811015613256578151875295820195908201906001016132a7565b60008151808452602080850194508084016000805b84811015613310578251600381106132fe57634e487b7160e01b83526021600452602483fd5b885296830196918301916001016132d8565b50959695505050505050565b6000825160005b8181101561333d5760208186018101518583015201613323565b8181111561334c576000828501525b509190910192915050565b6001600160a01b0391909116815260200190565b6001600160a01b0392831681529116602082015260400190565b6001600160a01b03929092168252602082015260400190565b6080815260006133b1608083018761321d565b82810360208401526133c381876132c3565b905082810360408401526133d78186613261565b905082810360608401526133eb8185613261565b979650505050505050565b60c08152600061340960c083018961321d565b828103602084015261341b81896132c3565b9050828103604084015261342f8188613261565b905082810360608401526134438187613261565b905082810360808401526134578186613261565b905082810360a084015261346b8185613261565b9998505050505050505050565b60a08152600061348b60a083018861321d565b828103602084015261349d8188613293565b905082810360408401526134b1818761321d565b905082810360608401526134c58186613293565b905082810360808401526134d9818561321d565b98975050505050505050565b602081526000612d986020830184613261565b60408152600061350b6040830185613261565b828103602084015261351d8185613261565b95945050505050565b602081526000612d986020830184613293565b60408152600061354c6040830185613293565b828103602084015261351d818561321d565b6040815260006135716040830185613293565b602083820381850152818551808452828401915060058382821b8601018489016000805b8581101561360257601f198985038101885283518051808752908a01908a87019080891b88018c01865b828110156135eb57858a83030184526135d9828651613293565b948e0194938e019391506001016135bf565b509a8c019a97505050938901935050600101613595565b50919b9a5050505050505050505050565b6040815260006136266040830185613293565b828103602084015261351d8185613293565b60608152600061364b6060830186613293565b828103602084015261365d8186613293565b905082810360408401526136718185613293565b9695505050505050565b60c08152600061368e60c0830189613293565b82810360208401526136a08189613293565b905082810360408401526136b48188613293565b905082810360608401526136c88187613293565b905082810360808401526136dc8186613293565b905082810360a084015261346b8185613293565b9182526001600160a01b0316602082015260400190565b604051601f8201601f191681016001600160401b038111828210171561372f5761372f6137ee565b604052919050565b60006001600160401b03821115613750576137506137ee565b5060051b60200190565b6000821982111561376d5761376d6137ac565b500190565b600081600019048311821515161561378c5761378c6137ac565b500290565b60006000198214156137a5576137a56137ac565b5060010190565b634e487b7160e01b600052601160045260246000fd5b634e487b7160e01b600052602160045260246000fd5b634e487b7160e01b600052603260045260246000fd5b634e487b7160e01b600052604160045260246000fd5b6001600160a01b038116811461381957600080fd5b5056fea2646970667358221220c12428bd6c783e7b7d0c3063dd81556754f938630c0ec7231666fa4e391f8a2164736f6c63430008070033",
  "immutableReferences": {},
  "source": "// SPDX-License-Identifier: Apache-2.0\n/*\n * This code has not been reviewed.\n * Do not use or deploy this code before reviewing it personally first.\n */\npragma solidity ^0.8.0;\n\nimport \"@openzeppelin/contracts/utils/math/SafeMath.sol\";\n\nimport \"@openzeppelin/contracts/token/ERC20/IERC20.sol\";\n\nimport \"./ERC1820Client.sol\";\n\nimport \"@openzeppelin/contracts/token/ERC721/extensions/IERC721Enumerable.sol\";\n\n\nimport \"../interface/ERC1820Implementer.sol\";\n\nimport \"../IERC1400.sol\";\n\n/**\n * @notice Interface to the extension types\n */\ninterface IExtensionTypes {\n  enum CertificateValidation {\n    None,\n    NonceBased,\n    SaltBased\n  }\n}\n\ninterface IERC1400Extended {\n    // Not a real interface but added here for functions which don't belong to IERC1400\n\n    function owner() external view returns (address);\n\n    function controllers() external view returns (address[] memory);\n\n    function totalPartitions() external view returns (bytes32[] memory);\n\n    function getDefaultPartitions() external view returns (bytes32[] memory);\n\n    function totalSupplyByPartition(bytes32 partition) external view returns (uint256);\n}\n\nabstract contract IERC1400TokensValidatorExtended is IExtensionTypes {\n    // Not a real interface but added here for functions which don't belong to IERC1400TokensValidator\n\n    function retrieveTokenSetup(address token) external virtual view returns (CertificateValidation, bool, bool, bool, bool, address[] memory);\n\n    function spendableBalanceOfByPartition(address token, bytes32 partition, address account) external virtual view returns (uint256);\n\n    function isAllowlisted(address token, address account) public virtual view returns (bool);\n\n    function isBlocklisted(address token, address account) public virtual view returns (bool);\n}\n\n/**\n * @title BatchReader\n * @dev Proxy contract to read multiple information from the smart contract in a single contract call.\n */\ncontract BatchReader is IExtensionTypes, ERC1820Client, ERC1820Implementer {\n    using SafeMath for uint256;\n\n    string internal constant BALANCE_READER = \"BatchReader\";\n\n    string constant internal ERC1400_TOKENS_VALIDATOR = \"ERC1400TokensValidator\";\n\n    // Mapping from token to token extension address\n    mapping(address => address) internal _extension;\n\n    constructor() {\n        ERC1820Implementer._setInterface(BALANCE_READER);\n    }\n\n    /**\n     * @dev Get batch of token supplies.\n     * @return Batch of token supplies.\n     */\n    function batchTokenSuppliesInfos(address[] calldata tokens) external view returns (uint256[] memory, uint256[] memory, bytes32[] memory, uint256[] memory, uint256[] memory, bytes32[] memory) {\n        uint256[] memory batchTotalSupplies = new uint256[](tokens.length);\n        for (uint256 j = 0; j < tokens.length; j++) {\n            batchTotalSupplies[j] = IERC20(tokens[j]).totalSupply();\n        }\n\n        (uint256[] memory totalPartitionsLengths, bytes32[] memory batchTotalPartitions_, uint256[] memory batchPartitionSupplies) = batchTotalPartitions(tokens);\n\n        (uint256[] memory defaultPartitionsLengths, bytes32[] memory batchDefaultPartitions_) = batchDefaultPartitions(tokens);\n\n        return (batchTotalSupplies, totalPartitionsLengths, batchTotalPartitions_, batchPartitionSupplies, defaultPartitionsLengths, batchDefaultPartitions_);\n    }\n\n    /**\n     * @dev Get batch of token roles.\n     * @return Batch of token roles.\n     */\n    function batchTokenRolesInfos(address[] calldata tokens) external view returns (address[] memory, uint256[] memory, address[] memory, uint256[] memory, address[] memory) {\n        (uint256[] memory batchExtensionControllersLength, address[] memory batchExtensionControllers_) = batchExtensionControllers(tokens);\n\n        (uint256[] memory batchControllersLength, address[] memory batchControllers_) = batchControllers(tokens);\n\n        address[] memory batchOwners = new address[](tokens.length);\n        for (uint256 i = 0; i < tokens.length; i++) {\n            batchOwners[i] = IERC1400Extended(tokens[i]).owner();\n        }\n        return (batchOwners, batchControllersLength, batchControllers_, batchExtensionControllersLength, batchExtensionControllers_);\n    }\n\n    /**\n     * @dev Get batch of token controllers.\n     * @return Batch of token controllers.\n     */\n    function batchControllers(address[] memory tokens) public view returns (uint256[] memory, address[] memory) {\n        uint256[] memory batchControllersLength = new uint256[](tokens.length);\n        uint256 controllersLength=0;\n\n        for (uint256 i = 0; i < tokens.length; i++) {\n            address[] memory controllers = IERC1400Extended(tokens[i]).controllers();\n            batchControllersLength[i] = controllers.length;\n            controllersLength = controllersLength.add(controllers.length);\n        }\n\n        address[] memory batchControllersResponse = new address[](controllersLength);\n\n        uint256 counter = 0;\n        for (uint256 j = 0; j < tokens.length; j++) {\n            address[] memory controllers = IERC1400Extended(tokens[j]).controllers();\n\n            for (uint256 k = 0; k < controllers.length; k++) {\n                batchControllersResponse[counter] = controllers[k];\n                counter++;\n            }\n        }\n\n        return (batchControllersLength, batchControllersResponse);\n    }\n\n    /**\n     * @dev Get batch of token extension controllers.\n     * @return Batch of token extension controllers.\n     */\n    function batchExtensionControllers(address[] memory tokens) public view returns (uint256[] memory, address[] memory) {\n        address[] memory batchTokenExtension = new address[](tokens.length);\n\n        uint256[] memory batchExtensionControllersLength = new uint256[](tokens.length);\n        uint256 extensionControllersLength=0;\n\n        for (uint256 i = 0; i < tokens.length; i++) {\n            batchTokenExtension[i] = interfaceAddr(tokens[i], ERC1400_TOKENS_VALIDATOR);\n\n            if (batchTokenExtension[i] != address(0)) {\n                (,,,,,address[] memory extensionControllers) = IERC1400TokensValidatorExtended(batchTokenExtension[i]).retrieveTokenSetup(tokens[i]);\n                batchExtensionControllersLength[i] = extensionControllers.length;\n                extensionControllersLength = extensionControllersLength.add(extensionControllers.length);\n            } else {\n                batchExtensionControllersLength[i] = 0;\n            }\n        }\n\n        address[] memory batchExtensionControllersResponse = new address[](extensionControllersLength);\n\n        uint256 counter = 0;\n        for (uint256 j = 0; j < tokens.length; j++) {\n            if (batchTokenExtension[j] != address(0)) {\n                (,,,,,address[] memory extensionControllers) = IERC1400TokensValidatorExtended(batchTokenExtension[j]).retrieveTokenSetup(tokens[j]);\n\n                for (uint256 k = 0; k < extensionControllers.length; k++) {\n                    batchExtensionControllersResponse[counter] = extensionControllers[k];\n                    counter++;\n                }\n            }\n        }\n\n        return (batchExtensionControllersLength, batchExtensionControllersResponse);\n    }\n\n    /**\n     * @dev Get batch of token extension setup.\n     * @return Batch of token extension setup.\n     */\n    function batchTokenExtensionSetup(address[] calldata tokens) external view returns (address[] memory, CertificateValidation[] memory, bool[] memory, bool[] memory, bool[] memory, bool[] memory) {\n        (address[] memory batchTokenExtension, CertificateValidation[] memory batchCertificateActivated, bool[] memory batchAllowlistActivated, bool[] memory batchBlocklistActivated) = batchTokenExtensionSetup1(tokens);\n\n        (bool[] memory batchGranularityByPartitionActivated, bool[] memory batchHoldsActivated) = batchTokenExtensionSetup2(tokens);\n        return (batchTokenExtension, batchCertificateActivated, batchAllowlistActivated, batchBlocklistActivated, batchGranularityByPartitionActivated, batchHoldsActivated);\n    }\n\n    /**\n     * @dev Get batch of token extension setup (part 1).\n     * @return Batch of token extension setup (part 1).\n     */\n    function batchTokenExtensionSetup1(address[] memory tokens) public view returns (address[] memory, CertificateValidation[] memory, bool[] memory, bool[] memory) {\n        address[] memory batchTokenExtension = new address[](tokens.length);\n        CertificateValidation[] memory batchCertificateActivated = new CertificateValidation[](tokens.length);\n        bool[] memory batchAllowlistActivated = new bool[](tokens.length);\n        bool[] memory batchBlocklistActivated = new bool[](tokens.length);\n\n        for (uint256 i = 0; i < tokens.length; i++) {\n            batchTokenExtension[i] = interfaceAddr(tokens[i], ERC1400_TOKENS_VALIDATOR);\n\n            if (batchTokenExtension[i] != address(0)) {\n                (CertificateValidation certificateActivated, bool allowlistActivated, bool blocklistActivated,,,) = IERC1400TokensValidatorExtended(batchTokenExtension[i]).retrieveTokenSetup(tokens[i]);\n                batchCertificateActivated[i] = certificateActivated;\n                batchAllowlistActivated[i] = allowlistActivated;\n                batchBlocklistActivated[i] = blocklistActivated;\n            } else {\n                batchCertificateActivated[i] = CertificateValidation.None;\n                batchAllowlistActivated[i] = false;\n                batchBlocklistActivated[i] = false;\n            }\n        }\n\n        return (batchTokenExtension, batchCertificateActivated, batchAllowlistActivated, batchBlocklistActivated);\n    }\n\n    /**\n     * @dev Get batch of token extension setup (part 2).\n     * @return Batch of token extension setup (part 2).\n     */\n    function batchTokenExtensionSetup2(address[] memory tokens) public view returns (bool[] memory, bool[] memory) {\n        address[] memory batchTokenExtension = new address[](tokens.length);\n        bool[] memory batchGranularityByPartitionActivated = new bool[](tokens.length);\n        bool[] memory batchHoldsActivated = new bool[](tokens.length);\n\n        for (uint256 i = 0; i < tokens.length; i++) {\n            batchTokenExtension[i] = interfaceAddr(tokens[i], ERC1400_TOKENS_VALIDATOR);\n\n            if (batchTokenExtension[i] != address(0)) {\n                (,,, bool granularityByPartitionActivated, bool holdsActivated,) = IERC1400TokensValidatorExtended(batchTokenExtension[i]).retrieveTokenSetup(tokens[i]);\n                batchGranularityByPartitionActivated[i] = granularityByPartitionActivated;\n                batchHoldsActivated[i] = holdsActivated;\n            } else {\n                batchGranularityByPartitionActivated[i] = false;\n                batchHoldsActivated[i] = false;\n            }\n        }\n\n        return (batchGranularityByPartitionActivated, batchHoldsActivated);\n    }\n\n    /**\n     * @dev Get batch of ERC1400 balances.\n     * @return Batch of ERC1400 balances.\n     */\n    function batchERC1400Balances(address[] calldata tokens, address[] calldata tokenHolders) external view returns (uint256[] memory, uint256[] memory, uint256[] memory, bytes32[] memory, uint256[] memory, uint256[] memory) {\n        (,, uint256[] memory batchSpendableBalancesOfByPartition) = batchSpendableBalanceOfByPartition(tokens, tokenHolders);\n\n        (uint256[] memory totalPartitionsLengths, bytes32[] memory batchTotalPartitions_, uint256[] memory batchBalancesOfByPartition) = batchBalanceOfByPartition(tokens, tokenHolders);\n\n        uint256[] memory batchBalancesOf = batchBalanceOf(tokens, tokenHolders);\n\n        uint256[] memory batchEthBalances = batchEthBalance(tokenHolders);\n\n        return (batchEthBalances, batchBalancesOf, totalPartitionsLengths, batchTotalPartitions_, batchBalancesOfByPartition, batchSpendableBalancesOfByPartition);\n    }\n\n    /**\n     * @dev Get batch of ERC20 balances.\n     * @return Batch of ERC20 balances.\n     */\n    function batchERC20Balances(address[] calldata tokens, address[] calldata tokenHolders) external view returns (uint256[] memory, uint256[] memory) {\n        uint256[] memory batchBalancesOf = batchBalanceOf(tokens, tokenHolders);\n\n        uint256[] memory batchEthBalances = batchEthBalance(tokenHolders);\n\n        return (batchEthBalances, batchBalancesOf);\n    }\n\n    /**\n     * @dev Get batch of ETH balances.\n     * @return Batch of token ETH balances.\n     */\n    function batchEthBalance(address[] memory tokenHolders) public view returns (uint256[] memory) {\n        uint256[] memory batchEthBalanceResponse = new uint256[](tokenHolders.length);\n\n        for (uint256 i = 0; i < tokenHolders.length; i++) {\n            batchEthBalanceResponse[i] = tokenHolders[i].balance;\n        }\n\n        return batchEthBalanceResponse;\n    }\n\n    /**\n     * @dev Get batch of ERC721 balances.\n     * @return Batch of ERC721 balances.\n     */\n    function batchERC721Balances(address[] calldata tokens, address[] calldata tokenHolders) external view returns (uint256[] memory, uint256[][][] memory) {\n        uint256[][][] memory batchBalanceOfResponse = new uint256[][][](tokens.length);\n\n        for (uint256 j = 0; j < tokens.length; j++) {\n            IERC721Enumerable token = IERC721Enumerable(tokens[j]);\n            uint256[][] memory batchBalance = new uint256[][](tokenHolders.length);\n            \n            for (uint256 i = 0; i < tokenHolders.length; i++) {\n                address holder = tokenHolders[i];\n                uint256 tokenCount = token.balanceOf(holder);\n\n                uint256[] memory balance = new uint256[](tokenCount);\n\n                for (uint256 k = 0; k < tokenCount; k++) {\n                    balance[k] = token.tokenOfOwnerByIndex(holder, k);\n                }\n\n                batchBalance[i] = balance;\n            }\n\n            batchBalanceOfResponse[j] = batchBalance;\n        }\n\n        uint256[] memory batchEthBalances = batchEthBalance(tokenHolders);\n\n        return (batchEthBalances, batchBalanceOfResponse);\n    }\n\n    /**\n     * @dev Get batch of token balances.\n     * @return Batch of token balances.\n     */\n    function batchBalanceOf(address[] memory tokens, address[] memory tokenHolders) public view returns (uint256[] memory) {\n        uint256[] memory batchBalanceOfResponse = new uint256[](tokenHolders.length * tokens.length);\n\n        for (uint256 i = 0; i < tokenHolders.length; i++) {\n            for (uint256 j = 0; j < tokens.length; j++) {\n                batchBalanceOfResponse[i*tokens.length + j] = IERC20(tokens[j]).balanceOf(tokenHolders[i]);\n            }\n        }\n\n        return batchBalanceOfResponse;\n    }\n\n    /**\n     * @dev Get batch of partition balances.\n     * @return Batch of token partition balances.\n     */\n    function batchBalanceOfByPartition(address[] memory tokens, address[] memory tokenHolders) public view returns (uint256[] memory, bytes32[] memory, uint256[] memory) {\n        (uint256[] memory totalPartitionsLengths, bytes32[] memory batchTotalPartitions_,) = batchTotalPartitions(tokens);\n        \n        uint256[] memory batchBalanceOfByPartitionResponse = new uint256[](tokenHolders.length * batchTotalPartitions_.length);\n\n        for (uint256 i = 0; i < tokenHolders.length; i++) {\n            uint256 counter = 0;\n            for (uint256 j = 0; j < tokens.length; j++) {\n                for (uint256 k = 0; k < totalPartitionsLengths[j]; k++) {\n                    batchBalanceOfByPartitionResponse[i*batchTotalPartitions_.length + counter] = IERC1400(tokens[j]).balanceOfByPartition(batchTotalPartitions_[counter], tokenHolders[i]);\n                    counter++;\n                }\n            }\n        }\n\n        return (totalPartitionsLengths, batchTotalPartitions_, batchBalanceOfByPartitionResponse);\n    }\n\n    /**\n     * @dev Get batch of spendable partition balances.\n     * @return Batch of token spendable partition balances.\n     */\n    function batchSpendableBalanceOfByPartition(address[] memory tokens, address[] memory tokenHolders) public view returns (uint256[] memory, bytes32[] memory, uint256[] memory) {\n        (uint256[] memory totalPartitionsLengths, bytes32[] memory batchTotalPartitions_,) = batchTotalPartitions(tokens);\n        \n        uint256[] memory batchSpendableBalanceOfByPartitionResponse = new uint256[](tokenHolders.length * batchTotalPartitions_.length);\n\n        for (uint256 i = 0; i < tokenHolders.length; i++) {\n            uint256 counter = 0;\n            for (uint256 j = 0; j < tokens.length; j++) {\n                address tokenExtension = interfaceAddr(tokens[j], ERC1400_TOKENS_VALIDATOR);\n\n                for (uint256 k = 0; k < totalPartitionsLengths[j]; k++) {\n                    if (tokenExtension != address(0)) {\n                        batchSpendableBalanceOfByPartitionResponse[i*batchTotalPartitions_.length + counter] = IERC1400TokensValidatorExtended(tokenExtension).spendableBalanceOfByPartition(tokens[j], batchTotalPartitions_[counter], tokenHolders[i]);\n                    } else {\n                        batchSpendableBalanceOfByPartitionResponse[i*batchTotalPartitions_.length + counter] = IERC1400(tokens[j]).balanceOfByPartition(batchTotalPartitions_[counter], tokenHolders[i]);\n                    }\n                    counter++;\n                }\n            }\n        }\n\n        return (totalPartitionsLengths, batchTotalPartitions_, batchSpendableBalanceOfByPartitionResponse);\n    }\n\n    /**\n     * @dev Get batch of token partitions.\n     * @return Batch of token partitions.\n     */\n    function batchTotalPartitions(address[] memory tokens) public view returns (uint256[] memory, bytes32[] memory, uint256[] memory) {\n        uint256[] memory batchTotalPartitionsLength = new uint256[](tokens.length);\n        uint256 totalPartitionsLength=0;\n\n        for (uint256 i = 0; i < tokens.length; i++) {\n            bytes32[] memory totalPartitions = IERC1400Extended(tokens[i]).totalPartitions();\n            batchTotalPartitionsLength[i] = totalPartitions.length;\n            totalPartitionsLength = totalPartitionsLength.add(totalPartitions.length);\n        }\n\n        bytes32[] memory batchTotalPartitionsResponse = new bytes32[](totalPartitionsLength);\n        uint256[] memory batchPartitionSupplies = new uint256[](totalPartitionsLength);\n\n        uint256 counter = 0;\n        for (uint256 j = 0; j < tokens.length; j++) {\n            bytes32[] memory totalPartitions = IERC1400Extended(tokens[j]).totalPartitions();\n\n            for (uint256 k = 0; k < totalPartitions.length; k++) {\n                batchTotalPartitionsResponse[counter] = totalPartitions[k];\n                batchPartitionSupplies[counter] = IERC1400Extended(tokens[j]).totalSupplyByPartition(totalPartitions[k]);\n                counter++;\n            }\n        }\n\n        return (batchTotalPartitionsLength, batchTotalPartitionsResponse, batchPartitionSupplies);\n    }\n\n    /**\n     * @dev Get batch of token default partitions.\n     * @return Batch of token default partitions.\n     */\n    function batchDefaultPartitions(address[] memory tokens) public view returns (uint256[] memory, bytes32[] memory) {\n        uint256[] memory batchDefaultPartitionsLength = new uint256[](tokens.length);\n        uint256 defaultPartitionsLength=0;\n\n        for (uint256 i = 0; i < tokens.length; i++) {\n            bytes32[] memory defaultPartitions = IERC1400Extended(tokens[i]).getDefaultPartitions();\n            batchDefaultPartitionsLength[i] = defaultPartitions.length;\n            defaultPartitionsLength = defaultPartitionsLength.add(defaultPartitions.length);\n        }\n\n        bytes32[] memory batchDefaultPartitionsResponse = new bytes32[](defaultPartitionsLength);\n\n        uint256 counter = 0;\n        for (uint256 j = 0; j < tokens.length; j++) {\n            bytes32[] memory defaultPartitions = IERC1400Extended(tokens[j]).getDefaultPartitions();\n\n            for (uint256 k = 0; k < defaultPartitions.length; k++) {\n                batchDefaultPartitionsResponse[counter] = defaultPartitions[k];\n                counter++;\n            }\n        }\n\n        return (batchDefaultPartitionsLength, batchDefaultPartitionsResponse);\n    }\n\n    /**\n     * @dev Get batch of validation status.\n     * @return Batch of validation status.\n     */\n    function batchValidations(address[] memory tokens, address[] memory tokenHolders) public view returns (bool[] memory, bool[] memory) {\n        bool[] memory batchAllowlisted_ = batchAllowlisted(tokens, tokenHolders);\n        bool[] memory batchBlocklisted_ = batchBlocklisted(tokens, tokenHolders);\n\n        return (batchAllowlisted_, batchBlocklisted_);\n    }\n\n    /**\n     * @dev Get batch of allowlisted status.\n     * @return Batch of allowlisted status.\n     */\n    function batchAllowlisted(address[] memory tokens, address[] memory tokenHolders) public view returns (bool[] memory) {\n        bool[] memory batchAllowlistedResponse = new bool[](tokenHolders.length * tokens.length);\n\n        for (uint256 i = 0; i < tokenHolders.length; i++) {\n            for (uint256 j = 0; j < tokens.length; j++) {\n                address tokenExtension = interfaceAddr(tokens[j], ERC1400_TOKENS_VALIDATOR);\n                if (tokenExtension != address(0)) {\n                    batchAllowlistedResponse[i*tokens.length + j] = IERC1400TokensValidatorExtended(tokenExtension).isAllowlisted(tokens[j], tokenHolders[i]);\n                } else {\n                    batchAllowlistedResponse[i*tokens.length + j] = false;\n                }\n            }\n        }\n        return batchAllowlistedResponse;\n    }\n\n    /**\n     * @dev Get batch of blocklisted status.\n     * @return Batch of blocklisted status.\n     */\n    function batchBlocklisted(address[] memory tokens, address[] memory tokenHolders) public view returns (bool[] memory) {\n        bool[] memory batchBlocklistedResponse = new bool[](tokenHolders.length * tokens.length);\n\n        for (uint256 i = 0; i < tokenHolders.length; i++) {\n            for (uint256 j = 0; j < tokens.length; j++) {\n                address tokenExtension = interfaceAddr(tokens[j], ERC1400_TOKENS_VALIDATOR);\n                if (tokenExtension != address(0)) {\n                    batchBlocklistedResponse[i*tokens.length + j] = IERC1400TokensValidatorExtended(tokenExtension).isBlocklisted(tokens[j], tokenHolders[i]);\n                } else {\n                    batchBlocklistedResponse[i*tokens.length + j] = false;\n                }\n            }\n        }\n        return batchBlocklistedResponse;\n    }\n\n}\n",
  "sourcePath": "/Users/sergio/Downloads/UniversalToken-master/contracts/tools/BatchReader.sol",
  "compiler": {
    "name": "solc",
    "version": "0.8.7+commit.e28d00a7.Emscripten.clang"
  },
  "schemaVersion": "3.4.16",
  "updatedAt": "2024-05-07T16:56:28.212Z",
  "networkType": "ethereum",
  "devdoc": {
    "details": "Proxy contract to read multiple information from the smart contract in a single contract call.",
    "kind": "dev",
    "methods": {
      "batchAllowlisted(address[],address[])": {
        "details": "Get batch of allowlisted status.",
        "returns": {
          "_0": "Batch of allowlisted status."
        }
      },
      "batchBalanceOf(address[],address[])": {
        "details": "Get batch of token balances.",
        "returns": {
          "_0": "Batch of token balances."
        }
      },
      "batchBalanceOfByPartition(address[],address[])": {
        "details": "Get batch of partition balances.",
        "returns": {
          "_0": "Batch of token partition balances."
        }
      },
      "batchBlocklisted(address[],address[])": {
        "details": "Get batch of blocklisted status.",
        "returns": {
          "_0": "Batch of blocklisted status."
        }
      },
      "batchControllers(address[])": {
        "details": "Get batch of token controllers.",
        "returns": {
          "_0": "Batch of token controllers."
        }
      },
      "batchDefaultPartitions(address[])": {
        "details": "Get batch of token default partitions.",
        "returns": {
          "_0": "Batch of token default partitions."
        }
      },
      "batchERC1400Balances(address[],address[])": {
        "details": "Get batch of ERC1400 balances.",
        "returns": {
          "_0": "Batch of ERC1400 balances."
        }
      },
      "batchERC20Balances(address[],address[])": {
        "details": "Get batch of ERC20 balances.",
        "returns": {
          "_0": "Batch of ERC20 balances."
        }
      },
      "batchERC721Balances(address[],address[])": {
        "details": "Get batch of ERC721 balances.",
        "returns": {
          "_0": "Batch of ERC721 balances."
        }
      },
      "batchEthBalance(address[])": {
        "details": "Get batch of ETH balances.",
        "returns": {
          "_0": "Batch of token ETH balances."
        }
      },
      "batchExtensionControllers(address[])": {
        "details": "Get batch of token extension controllers.",
        "returns": {
          "_0": "Batch of token extension controllers."
        }
      },
      "batchSpendableBalanceOfByPartition(address[],address[])": {
        "details": "Get batch of spendable partition balances.",
        "returns": {
          "_0": "Batch of token spendable partition balances."
        }
      },
      "batchTokenExtensionSetup(address[])": {
        "details": "Get batch of token extension setup.",
        "returns": {
          "_0": "Batch of token extension setup."
        }
      },
      "batchTokenExtensionSetup1(address[])": {
        "details": "Get batch of token extension setup (part 1).",
        "returns": {
          "_0": "Batch of token extension setup (part 1)."
        }
      },
      "batchTokenExtensionSetup2(address[])": {
        "details": "Get batch of token extension setup (part 2).",
        "returns": {
          "_0": "Batch of token extension setup (part 2)."
        }
      },
      "batchTokenRolesInfos(address[])": {
        "details": "Get batch of token roles.",
        "returns": {
          "_0": "Batch of token roles."
        }
      },
      "batchTokenSuppliesInfos(address[])": {
        "details": "Get batch of token supplies.",
        "returns": {
          "_0": "Batch of token supplies."
        }
      },
      "batchTotalPartitions(address[])": {
        "details": "Get batch of token partitions.",
        "returns": {
          "_0": "Batch of token partitions."
        }
      },
      "batchValidations(address[],address[])": {
        "details": "Get batch of validation status.",
        "returns": {
          "_0": "Batch of validation status."
        }
      }
    },
    "title": "BatchReader",
    "version": 1
  },
  "userdoc": {
    "kind": "user",
    "methods": {},
    "version": 1
  }
}