{
  "contractName": "ERC20HoldableToken",
  "abi": [
    {
      "inputs": [
        {
          "internalType": "string",
          "name": "name",
          "type": "string"
        },
        {
          "internalType": "string",
          "name": "symbol",
          "type": "string"
        },
        {
          "internalType": "uint8",
          "name": "decimals",
          "type": "uint8"
        }
      ],
      "stateMutability": "nonpayable",
      "type": "constructor"
    },
    {
      "anonymous": false,
      "inputs": [
        {
          "indexed": true,
          "internalType": "address",
          "name": "owner",
          "type": "address"
        },
        {
          "indexed": true,
          "internalType": "address",
          "name": "spender",
          "type": "address"
        },
        {
          "indexed": false,
          "internalType": "uint256",
          "name": "value",
          "type": "uint256"
        }
      ],
      "name": "Approval",
      "type": "event"
    },
    {
      "anonymous": false,
      "inputs": [
        {
          "indexed": true,
          "internalType": "bytes32",
          "name": "holdId",
          "type": "bytes32"
        },
        {
          "indexed": false,
          "internalType": "bytes32",
          "name": "lockPreimage",
          "type": "bytes32"
        },
        {
          "indexed": false,
          "internalType": "address",
          "name": "recipient",
          "type": "address"
        }
      ],
      "name": "ExecutedHold",
      "type": "event"
    },
    {
      "anonymous": false,
      "inputs": [
        {
          "indexed": true,
          "internalType": "address",
          "name": "account",
          "type": "address"
        }
      ],
      "name": "MinterAdded",
      "type": "event"
    },
    {
      "anonymous": false,
      "inputs": [
        {
          "indexed": true,
          "internalType": "address",
          "name": "account",
          "type": "address"
        }
      ],
      "name": "MinterRemoved",
      "type": "event"
    },
    {
      "anonymous": false,
      "inputs": [
        {
          "indexed": true,
          "internalType": "bytes32",
          "name": "holdId",
          "type": "bytes32"
        },
        {
          "indexed": true,
          "internalType": "address",
          "name": "recipient",
          "type": "address"
        },
        {
          "indexed": true,
          "internalType": "address",
          "name": "notary",
          "type": "address"
        },
        {
          "indexed": false,
          "internalType": "uint256",
          "name": "amount",
          "type": "uint256"
        },
        {
          "indexed": false,
          "internalType": "uint256",
          "name": "expirationDateTime",
          "type": "uint256"
        },
        {
          "indexed": false,
          "internalType": "bytes32",
          "name": "lockHash",
          "type": "bytes32"
        }
      ],
      "name": "NewHold",
      "type": "event"
    },
    {
      "anonymous": false,
      "inputs": [
        {
          "indexed": true,
          "internalType": "address",
          "name": "previousOwner",
          "type": "address"
        },
        {
          "indexed": true,
          "internalType": "address",
          "name": "newOwner",
          "type": "address"
        }
      ],
      "name": "OwnershipTransferred",
      "type": "event"
    },
    {
      "anonymous": false,
      "inputs": [
        {
          "indexed": false,
          "internalType": "address",
          "name": "account",
          "type": "address"
        }
      ],
      "name": "Paused",
      "type": "event"
    },
    {
      "anonymous": false,
      "inputs": [
        {
          "indexed": true,
          "internalType": "bytes32",
          "name": "holdId",
          "type": "bytes32"
        },
        {
          "indexed": false,
          "internalType": "address",
          "name": "sender",
          "type": "address"
        }
      ],
      "name": "ReleaseHold",
      "type": "event"
    },
    {
      "anonymous": false,
      "inputs": [
        {
          "indexed": true,
          "internalType": "address",
          "name": "from",
          "type": "address"
        },
        {
          "indexed": true,
          "internalType": "address",
          "name": "to",
          "type": "address"
        },
        {
          "indexed": false,
          "internalType": "uint256",
          "name": "value",
          "type": "uint256"
        }
      ],
      "name": "Transfer",
      "type": "event"
    },
    {
      "anonymous": false,
      "inputs": [
        {
          "indexed": false,
          "internalType": "address",
          "name": "account",
          "type": "address"
        }
      ],
      "name": "Unpaused",
      "type": "event"
    },
    {
      "inputs": [
        {
          "internalType": "address",
          "name": "account",
          "type": "address"
        }
      ],
      "name": "addMinter",
      "outputs": [],
      "stateMutability": "nonpayable",
      "type": "function"
    },
    {
      "inputs": [
        {
          "internalType": "address",
          "name": "owner",
          "type": "address"
        },
        {
          "internalType": "address",
          "name": "spender",
          "type": "address"
        }
      ],
      "name": "allowance",
      "outputs": [
        {
          "internalType": "uint256",
          "name": "",
          "type": "uint256"
        }
      ],
      "stateMutability": "view",
      "type": "function"
    },
    {
      "inputs": [
        {
          "internalType": "bytes32",
          "name": "interfaceHash",
          "type": "bytes32"
        },
        {
          "internalType": "address",
          "name": "",
          "type": "address"
        }
      ],
      "name": "canImplementInterfaceForAddress",
      "outputs": [
        {
          "internalType": "bytes32",
          "name": "",
          "type": "bytes32"
        }
      ],
      "stateMutability": "view",
      "type": "function"
    },
    {
      "inputs": [],
      "name": "decimals",
      "outputs": [
        {
          "internalType": "uint8",
          "name": "",
          "type": "uint8"
        }
      ],
      "stateMutability": "view",
      "type": "function"
    },
    {
      "inputs": [
        {
          "internalType": "address",
          "name": "spender",
          "type": "address"
        },
        {
          "internalType": "uint256",
          "name": "subtractedValue",
          "type": "uint256"
        }
      ],
      "name": "decreaseAllowance",
      "outputs": [
        {
          "internalType": "bool",
          "name": "",
          "type": "bool"
        }
      ],
      "stateMutability": "nonpayable",
      "type": "function"
    },
    {
      "inputs": [
        {
          "internalType": "address",
          "name": "spender",
          "type": "address"
        },
        {
          "internalType": "uint256",
          "name": "addedValue",
          "type": "uint256"
        }
      ],
      "name": "increaseAllowance",
      "outputs": [
        {
          "internalType": "bool",
          "name": "",
          "type": "bool"
        }
      ],
      "stateMutability": "nonpayable",
      "type": "function"
    },
    {
      "inputs": [
        {
          "internalType": "address",
          "name": "account",
          "type": "address"
        }
      ],
      "name": "isMinter",
      "outputs": [
        {
          "internalType": "bool",
          "name": "",
          "type": "bool"
        }
      ],
      "stateMutability": "view",
      "type": "function"
    },
    {
      "inputs": [
        {
          "internalType": "address",
          "name": "to",
          "type": "address"
        },
        {
          "internalType": "uint256",
          "name": "value",
          "type": "uint256"
        }
      ],
      "name": "mint",
      "outputs": [
        {
          "internalType": "bool",
          "name": "",
          "type": "bool"
        }
      ],
      "stateMutability": "nonpayable",
      "type": "function"
    },
    {
      "inputs": [],
      "name": "name",
      "outputs": [
        {
          "internalType": "string",
          "name": "",
          "type": "string"
        }
      ],
      "stateMutability": "view",
      "type": "function"
    },
    {
      "inputs": [],
      "name": "owner",
      "outputs": [
        {
          "internalType": "address",
          "name": "",
          "type": "address"
        }
      ],
      "stateMutability": "view",
      "type": "function"
    },
    {
      "inputs": [],
      "name": "paused",
      "outputs": [
        {
          "internalType": "bool",
          "name": "",
          "type": "bool"
        }
      ],
      "stateMutability": "view",
      "type": "function"
    },
    {
      "inputs": [
        {
          "internalType": "address",
          "name": "account",
          "type": "address"
        }
      ],
      "name": "removeMinter",
      "outputs": [],
      "stateMutability": "nonpayable",
      "type": "function"
    },
    {
      "inputs": [],
      "name": "renounceMinter",
      "outputs": [],
      "stateMutability": "nonpayable",
      "type": "function"
    },
    {
      "inputs": [],
      "name": "renounceOwnership",
      "outputs": [],
      "stateMutability": "nonpayable",
      "type": "function"
    },
    {
      "inputs": [],
      "name": "symbol",
      "outputs": [
        {
          "internalType": "string",
          "name": "",
          "type": "string"
        }
      ],
      "stateMutability": "view",
      "type": "function"
    },
    {
      "inputs": [],
      "name": "totalSupply",
      "outputs": [
        {
          "internalType": "uint256",
          "name": "",
          "type": "uint256"
        }
      ],
      "stateMutability": "view",
      "type": "function"
    },
    {
      "inputs": [],
      "name": "totalSupplyOnHold",
      "outputs": [
        {
          "internalType": "uint256",
          "name": "",
          "type": "uint256"
        }
      ],
      "stateMutability": "view",
      "type": "function"
    },
    {
      "inputs": [
        {
          "internalType": "address",
          "name": "newOwner",
          "type": "address"
        }
      ],
      "name": "transferOwnership",
      "outputs": [],
      "stateMutability": "nonpayable",
      "type": "function"
    },
    {
      "inputs": [
        {
          "internalType": "address",
          "name": "recipient",
          "type": "address"
        },
        {
          "internalType": "address",
          "name": "notary",
          "type": "address"
        },
        {
          "internalType": "uint256",
          "name": "amount",
          "type": "uint256"
        },
        {
          "internalType": "uint256",
          "name": "expirationDateTime",
          "type": "uint256"
        },
        {
          "internalType": "bytes32",
          "name": "lockHash",
          "type": "bytes32"
        }
      ],
      "name": "generateHoldId",
      "outputs": [
        {
          "internalType": "bytes32",
          "name": "holdId",
          "type": "bytes32"
        }
      ],
      "stateMutability": "pure",
      "type": "function"
    },
    {
      "inputs": [
        {
          "internalType": "address",
          "name": "notary",
          "type": "address"
        },
        {
          "internalType": "address",
          "name": "sender",
          "type": "address"
        },
        {
          "internalType": "address",
          "name": "recipient",
          "type": "address"
        },
        {
          "internalType": "uint256",
          "name": "value",
          "type": "uint256"
        }
      ],
      "name": "retrieveHoldHashId",
      "outputs": [
        {
          "internalType": "bytes32",
          "name": "",
          "type": "bytes32"
        },
        {
          "internalType": "bytes32",
          "name": "",
          "type": "bytes32"
        }
      ],
      "stateMutability": "view",
      "type": "function"
    },
    {
      "inputs": [
        {
          "internalType": "bytes32",
          "name": "holdId",
          "type": "bytes32"
        },
        {
          "internalType": "address",
          "name": "recipient",
          "type": "address"
        },
        {
          "internalType": "address",
          "name": "notary",
          "type": "address"
        },
        {
          "internalType": "uint256",
          "name": "amount",
          "type": "uint256"
        },
        {
          "internalType": "uint256",
          "name": "expirationDateTime",
          "type": "uint256"
        },
        {
          "internalType": "bytes32",
          "name": "lockHash",
          "type": "bytes32"
        }
      ],
      "name": "hold",
      "outputs": [],
      "stateMutability": "nonpayable",
      "type": "function"
    },
    {
      "inputs": [
        {
          "internalType": "bytes32",
          "name": "holdId",
          "type": "bytes32"
        }
      ],
      "name": "retrieveHoldData",
      "outputs": [
        {
          "components": [
            {
              "internalType": "address",
              "name": "sender",
              "type": "address"
            },
            {
              "internalType": "address",
              "name": "recipient",
              "type": "address"
            },
            {
              "internalType": "address",
              "name": "notary",
              "type": "address"
            },
            {
              "internalType": "uint256",
              "name": "amount",
              "type": "uint256"
            },
            {
              "internalType": "uint256",
              "name": "expirationDateTime",
              "type": "uint256"
            },
            {
              "internalType": "bytes32",
              "name": "secretHash",
              "type": "bytes32"
            },
            {
              "internalType": "enum HoldStatusCode",
              "name": "status",
              "type": "uint8"
            }
          ],
          "internalType": "struct ERC20HoldData",
          "name": "",
          "type": "tuple"
        }
      ],
      "stateMutability": "view",
      "type": "function"
    },
    {
      "inputs": [
        {
          "internalType": "bytes32",
          "name": "holdId",
          "type": "bytes32"
        },
        {
          "internalType": "bytes32",
          "name": "lockPreimage",
          "type": "bytes32"
        }
      ],
      "name": "executeHold",
      "outputs": [],
      "stateMutability": "nonpayable",
      "type": "function"
    },
    {
      "inputs": [
        {
          "internalType": "bytes32",
          "name": "holdId",
          "type": "bytes32"
        },
        {
          "internalType": "bytes32",
          "name": "lockPreimage",
          "type": "bytes32"
        },
        {
          "internalType": "address",
          "name": "recipient",
          "type": "address"
        }
      ],
      "name": "executeHold",
      "outputs": [],
      "stateMutability": "nonpayable",
      "type": "function"
    },
    {
      "inputs": [
        {
          "internalType": "bytes32",
          "name": "holdId",
          "type": "bytes32"
        }
      ],
      "name": "executeHold",
      "outputs": [],
      "stateMutability": "nonpayable",
      "type": "function"
    },
    {
      "inputs": [
        {
          "internalType": "bytes32",
          "name": "holdId",
          "type": "bytes32"
        }
      ],
      "name": "releaseHold",
      "outputs": [],
      "stateMutability": "nonpayable",
      "type": "function"
    },
    {
      "inputs": [
        {
          "internalType": "address",
          "name": "account",
          "type": "address"
        }
      ],
      "name": "balanceOf",
      "outputs": [
        {
          "internalType": "uint256",
          "name": "",
          "type": "uint256"
        }
      ],
      "stateMutability": "view",
      "type": "function"
    },
    {
      "inputs": [
        {
          "internalType": "address",
          "name": "account",
          "type": "address"
        }
      ],
      "name": "balanceOnHold",
      "outputs": [
        {
          "internalType": "uint256",
          "name": "",
          "type": "uint256"
        }
      ],
      "stateMutability": "view",
      "type": "function"
    },
    {
      "inputs": [
        {
          "internalType": "address",
          "name": "account",
          "type": "address"
        }
      ],
      "name": "spendableBalanceOf",
      "outputs": [
        {
          "internalType": "uint256",
          "name": "",
          "type": "uint256"
        }
      ],
      "stateMutability": "view",
      "type": "function"
    },
    {
      "inputs": [
        {
          "internalType": "bytes32",
          "name": "holdId",
          "type": "bytes32"
        }
      ],
      "name": "holdStatus",
      "outputs": [
        {
          "internalType": "enum HoldStatusCode",
          "name": "",
          "type": "uint8"
        }
      ],
      "stateMutability": "view",
      "type": "function"
    },
    {
      "inputs": [
        {
          "internalType": "address",
          "name": "recipient",
          "type": "address"
        },
        {
          "internalType": "uint256",
          "name": "amount",
          "type": "uint256"
        }
      ],
      "name": "transfer",
      "outputs": [
        {
          "internalType": "bool",
          "name": "",
          "type": "bool"
        }
      ],
      "stateMutability": "nonpayable",
      "type": "function"
    },
    {
      "inputs": [
        {
          "internalType": "address",
          "name": "sender",
          "type": "address"
        },
        {
          "internalType": "address",
          "name": "recipient",
          "type": "address"
        },
        {
          "internalType": "uint256",
          "name": "amount",
          "type": "uint256"
        }
      ],
      "name": "transferFrom",
      "outputs": [
        {
          "internalType": "bool",
          "name": "",
          "type": "bool"
        }
      ],
      "stateMutability": "nonpayable",
      "type": "function"
    },
    {
      "inputs": [
        {
          "internalType": "address",
          "name": "spender",
          "type": "address"
        },
        {
          "internalType": "uint256",
          "name": "amount",
          "type": "uint256"
        }
      ],
      "name": "approve",
      "outputs": [
        {
          "internalType": "bool",
          "name": "",
          "type": "bool"
        }
      ],
      "stateMutability": "nonpayable",
      "type": "function"
    },
    {
      "inputs": [
        {
          "internalType": "uint256",
          "name": "amount",
          "type": "uint256"
        }
      ],
      "name": "burn",
      "outputs": [],
      "stateMutability": "nonpayable",
      "type": "function"
    },
    {
      "inputs": [
        {
          "internalType": "address",
          "name": "account",
          "type": "address"
        },
        {
          "internalType": "uint256",
          "name": "amount",
          "type": "uint256"
        }
      ],
      "name": "burnFrom",
      "outputs": [],
      "stateMutability": "nonpayable",
      "type": "function"
    }
  ],
  "bytecode": "0x60a06040523480156200001157600080fd5b5060405162002eba38038062002eba833981016040819052620000349162000425565b82828282826200004433620000f3565b815162000059906004906020850190620002ee565b5080516200006f906005906020840190620002ee565b50506006805460ff1916905550620000873362000143565b620000bf6040518060400160405280600a81526020016922a92199182a37b5b2b760b11b8152506200019560201b620017551760201c565b60f81b7fff0000000000000000000000000000000000000000000000000000000000000016608052506200054e9350505050565b600080546001600160a01b038381166001600160a01b0319831681178455604051919092169283917f8be0079c531659141344cd1fd0a4f28419497f9722a3daafe3b4186f6b6457e09190a35050565b6200015e816008620001e560201b620017a31790919060201c565b6040516001600160a01b038216907f6ae172837ea30b801fbfcdd4108aa1d5bf8ff775444fd70256b44e6bf3dfc3f690600090a250565b60016007600083604051602001620001ae9190620004aa565b60408051808303601f19018152918152815160209283012083529082019290925201600020805460ff191691151591909117905550565b620001f1828262000269565b15620002445760405162461bcd60e51b815260206004820152601f60248201527f526f6c65733a206163636f756e7420616c72656164792068617320726f6c650060448201526064015b60405180910390fd5b6001600160a01b0316600090815260209190915260409020805460ff19166001179055565b60006001600160a01b038216620002ce5760405162461bcd60e51b815260206004820152602260248201527f526f6c65733a206163636f756e7420697320746865207a65726f206164647265604482015261737360f01b60648201526084016200023b565b506001600160a01b03166000908152602091909152604090205460ff1690565b828054620002fc90620004fb565b90600052602060002090601f0160209004810192826200032057600085556200036b565b82601f106200033b57805160ff19168380011785556200036b565b828001600101855582156200036b579182015b828111156200036b5782518255916020019190600101906200034e565b50620003799291506200037d565b5090565b5b808211156200037957600081556001016200037e565b600082601f830112620003a657600080fd5b81516001600160401b0380821115620003c357620003c362000538565b604051601f8301601f19908116603f01168101908282118183101715620003ee57620003ee62000538565b816040528381528660208588010111156200040857600080fd5b6200041b846020830160208901620004c8565b9695505050505050565b6000806000606084860312156200043b57600080fd5b83516001600160401b03808211156200045357600080fd5b620004618783880162000394565b945060208601519150808211156200047857600080fd5b50620004878682870162000394565b925050604084015160ff811681146200049f57600080fd5b809150509250925092565b60008251620004be818460208701620004c8565b9190910192915050565b60005b83811015620004e5578181015183820152602001620004cb565b83811115620004f5576000848401525b50505050565b600181811c908216806200051057607f821691505b602082108114156200053257634e487b7160e01b600052602260045260246000fd5b50919050565b634e487b7160e01b600052604160045260246000fd5b60805160f81c61294d6200056d6000396000610252015261294d6000f3fe608060405234801561001057600080fd5b50600436106101a15760003560e01c806306fdde03146101a6578063095ea7b3146101c45780630f8f8b83146101e757806318160ddd1461020857806323b872dd14610210578063249cb3fa146102235780633092afd514610236578063313ce5671461024b578063395093511461027c57806340c10f191461028f57806342966c68146102a2578063445850af146102b557806351bfb961146102c85780635c975abb146102d1578063603dfcb5146102dc57806370a08231146102ef578063715018a61461030257806379cc67901461030a5780638da5cb5b1461031d5780639335c28f1461033257806395d89b4114610345578063983b2d561461034d57806398650275146103605780639d22091514610368578063a457c2d714610390578063a9059cbb146103a3578063aa271e1a146103b6578063b67f7bd4146103c9578063c0e8330e146103fc578063c5a468c61461040f578063da1ec24614610438578063dd62ed3e14610458578063f2fde38b14610491578063f8abd4bc146104a4578063fdec4c21146104b7575b600080fd5b6101ae610522565b6040516101bb9190612613565b60405180910390f35b6101d76101d2366004612485565b6105b4565b60405190151581526020016101bb565b6101fa6101f5366004612363565b610666565b6040519081526020016101bb565b6003546101fa565b6101d761021e3660046123fc565b610692565b6101fa6102313660046124e1565b61073b565b610249610244366004612363565b61079a565b005b60405160ff7f00000000000000000000000000000000000000000000000000000000000000001681526020016101bb565b6101d761028a366004612485565b6107b8565b6101d761029d366004612485565b6107fd565b6102496102b03660046124af565b61081b565b6102496102c336600461255c565b6108b7565b6101fa600c5481565b60065460ff166101d7565b6102496102ea36600461257e565b6109cf565b6101fa6102fd366004612363565b610bcc565b610249610bd7565b610249610318366004612485565b610c12565b610325610caf565b6040516101bb91906125f1565b6102496103403660046124af565b610cbe565b6101ae610f53565b61024961035b366004612363565b610f62565b610249610f7d565b61037b6103763660046123b1565b610f86565b604080519283526020830191909152016101bb565b6101d761039e366004612485565b610ff6565b6101d76103b1366004612485565b61108f565b6101d76103c4366004612363565b61112f565b6103ef6103d73660046124af565b60009081526009602052604090206006015460ff1690565b6040516101bb9190612605565b61024961040a366004612504565b61113c565b6101fa61041d366004612363565b6001600160a01b03166000908152600a602052604090205490565b61044b6104463660046124af565b6114ff565b6040516101bb91906127d0565b6101fa61046636600461237e565b6001600160a01b03918216600090815260026020908152604080832093909416825291909152205490565b61024961049f366004612363565b6115dd565b6102496104b23660046124af565b61167a565b6101fa6104c5366004612438565b6040516001600160601b0319606087811b8216602084015286901b16603482015260488101849052606881018390526088810182905260009060a80160405160208183030381529060405280519060200120905095945050505050565b60606004805461053190612890565b80601f016020809104026020016040519081016040528092919081815260200182805461055d90612890565b80156105aa5780601f1061057f576101008083540402835291602001916105aa565b820191906000526020600020905b81548152906001019060200180831161058d57829003601f168201915b5050505050905090565b604051630f8f8b8360e01b815260009082903090630f8f8b83906105dc9033906004016125f1565b60206040518083038186803b1580156105f457600080fd5b505afa158015610608573d6000803e3d6000fd5b505050506040513d601f19601f8201168201806040525081019061062c91906124c8565b10156106535760405162461bcd60e51b815260040161064a90612705565b60405180910390fd5b61065d838361181f565b90505b92915050565b6001600160a01b0381166000908152600a60205260408120546106609061068c8461182c565b90611847565b604051630f8f8b8360e01b815260009082903090630f8f8b83906106ba9088906004016125f1565b60206040518083038186803b1580156106d257600080fd5b505afa1580156106e6573d6000803e3d6000fd5b505050506040513d601f19601f8201168201806040525081019061070a91906124c8565b10156107285760405162461bcd60e51b815260040161064a90612705565b610733848484611853565b949350505050565b60008281526007602052604081205460ff16156107925760405173455243313832305f4143434550545f4d4147494360601b6020820152603401604051602081830303815290604052805190602001209050610660565b506000610660565b6107a33361112f565b6107ac57600080fd5b6107b5816118fd565b50565b3360008181526002602090815260408083206001600160a01b038716845290915281205490916107f49185906107ef908690612835565b61193f565b50600192915050565b60006108083361112f565b61081157600080fd5b6107f48383611a63565b604051630f8f8b8360e01b815281903090630f8f8b83906108409033906004016125f1565b60206040518083038186803b15801561085857600080fd5b505afa15801561086c573d6000803e3d6000fd5b505050506040513d601f19601f8201168201806040525081019061089091906124c8565b10156108ae5760405162461bcd60e51b815260040161064a90612705565b6107b581611b3c565b6000828152600960205260409020600101546001600160a01b03166108ee5760405162461bcd60e51b815260040161064a90612754565b600082815260096020526040902060050154156109a35760028160405160200161091a91815260200190565b60408051601f1981840301815290829052610934916125d5565b602060405180830381855afa158015610951573d6000803e3d6000fd5b5050506040513d601f19601f8201168201806040525081019061097491906124c8565b600083815260096020526040902060050154146109a35760405162461bcd60e51b815260040161064a9061267d565b6000828152600960205260409020600101546109cb90839083906001600160a01b0316611b46565b5050565b6000838152600960205260409020600101546001600160a01b031615610a6d5760405162461bcd60e51b815260206004820152604760248201527f65786563757465486f6c643a2063616e206e6f7420736574206120726563697060448201527f69656e74206f6e20657865637574696f6e2061732069742077617320736574206064820152661bdb881a1bdb1960ca1b608482015260a40161064a565b6001600160a01b038116610add5760405162461bcd60e51b815260206004820152603160248201527f65786563757465486f6c643a20726563697069656e74206d757374206e6f742060448201527062652061207a65726f206164647265737360781b606482015260840161064a565b60008381526009602052604090206005015415610b9257600282604051602001610b0991815260200190565b60408051601f1981840301815290829052610b23916125d5565b602060405180830381855afa158015610b40573d6000803e3d6000fd5b5050506040513d601f19601f82011682018060405250810190610b6391906124c8565b60008481526009602052604090206005015414610b925760405162461bcd60e51b815260040161064a9061267d565b600083815260096020526040902060010180546001600160a01b0319166001600160a01b038316179055610bc7838383611b46565b505050565b60006106608261182c565b33610be0610caf565b6001600160a01b031614610c065760405162461bcd60e51b815260040161064a906126d0565b610c106000611d94565b565b604051630f8f8b8360e01b815281903090630f8f8b8390610c379033906004016125f1565b60206040518083038186803b158015610c4f57600080fd5b505afa158015610c63573d6000803e3d6000fd5b505050506040513d601f19601f82011682018060405250810190610c8791906124c8565b1015610ca55760405162461bcd60e51b815260040161064a90612705565b6109cb8282611de4565b6000546001600160a01b031690565b806001600082815260096020526040902060069081015460ff1690811115610ce857610ce86128e1565b1480610d1a57506003600082815260096020526040902060069081015460ff1690811115610d1857610d186128e1565b145b610d365760405162461bcd60e51b815260040161064a90612646565b6000828152600960205260409020546001600160a01b0316331415610df9576000828152600960205260409020600401544211610dd65760405162461bcd60e51b815260206004820152603860248201527f72656c65617365486f6c643a2063616e206f6e6c792072656c656173652061666044820152773a32b9103a34329032bc3834b930ba34b7b7103230ba329760411b606482015260840161064a565b60008281526009602052604090206006908101805460ff19169091179055610e9e565b6000828152600960205260409020600201546001600160a01b03163314610e815760405162461bcd60e51b815260206004820152603660248201527f72656c65617365486f6c643a2063616c6c6572206d75737420626520746865206044820152753437b6321039b2b73232b91037b9103737ba30b93c9760511b606482015260840161064a565b6000828152600960205260409020600601805460ff191660041790555b6000828152600960209081526040808320600381015490546001600160a01b03168452600a90925290912054610ed391611847565b600083815260096020818152604080842080546001600160a01b03168552600a83529084209490945591859052905260030154600c54610f1291611847565b600c5560405182907f67493c41cf2a398ecd74af2c26b3ad6114f9a0b0532ea06fc327adec6015110290610f479033906125f1565b60405180910390a25050565b60606005805461053190612890565b610f6b3361112f565b610f7457600080fd5b6107b581611e65565b610c10336118fd565b604080516001600160601b031930606090811b821660208085019190915296811b8216603484015294851b811660488301529590931b909416605c83015260708083019190915283518083039091018152609090910183528051908201206000818152600b909252919020549091565b3360009081526002602090815260408083206001600160a01b0386168452909152812054828110156110785760405162461bcd60e51b815260206004820152602560248201527f45524332303a2064656372656173656420616c6c6f77616e63652062656c6f77604482015264207a65726f60d81b606482015260840161064a565b611085338585840361193f565b5060019392505050565b604051630f8f8b8360e01b815260009082903090630f8f8b83906110b79033906004016125f1565b60206040518083038186803b1580156110cf57600080fd5b505afa1580156110e3573d6000803e3d6000fd5b505050506040513d601f19601f8201168201806040525081019061110791906124c8565b10156111255760405162461bcd60e51b815260040161064a90612705565b61065d8383611ea7565b6000610660600883611eb4565b6001600160a01b0384166111a25760405162461bcd60e51b815260206004820152602760248201527f686f6c643a206e6f74617279206d757374206e6f742062652061207a65726f206044820152666164647265737360c81b606482015260840161064a565b826111fe5760405162461bcd60e51b815260206004820152602660248201527f686f6c643a20616d6f756e74206d7573742062652067726561746572207468616044820152656e207a65726f60d01b606482015260840161064a565b604051630f8f8b8360e01b815283903090630f8f8b83906112239033906004016125f1565b60206040518083038186803b15801561123b57600080fd5b505afa15801561124f573d6000803e3d6000fd5b505050506040513d601f19601f8201168201806040525081019061127391906124c8565b10156112d05760405162461bcd60e51b815260206004820152602660248201527f686f6c643a20616d6f756e74206578636565647320617661696c61626c652062604482015265616c616e636560d01b606482015260840161064a565b60006112de85338887610f86565b506000818152600b60205260408120899055909150600088815260096020526040902060069081015460ff169081111561131a5761131a6128e1565b146113615760405162461bcd60e51b8152602060048201526017602482015276686f6c643a20696420616c72656164792065786973747360481b604482015260640161064a565b6040518060e00160405280336001600160a01b03168152602001876001600160a01b03168152602001866001600160a01b03168152602001858152602001848152602001838152602001600160068111156113be576113be6128e1565b9052600088815260096020908152604091829020835181546001600160a01b03199081166001600160a01b03928316178355928501516001808401805486169284169290921790915593850151600283018054909416911617909155606083015160038201556080830151600482015560a0830151600582015560c08301516006808301805493949293909260ff19909116918490811115611462576114626128e1565b021790555050336000908152600a6020526040902054611483915085611f37565b336000908152600a6020526040902055600c546114a09085611f37565b600c5560408051858152602081018590529081018390526001600160a01b03808716919088169089907fe978043d2c2c19e698dfa9c4c7d635cd7a872597314f9f0b7979dae393c6da7c9060600160405180910390a450505050505050565b61153c6040805160e081018252600080825260208201819052918101829052606081018290526080810182905260a081018290529060c082015290565b600082815260096020908152604091829020825160e08101845281546001600160a01b03908116825260018301548116938201939093526002820154909216928201929092526003820154606082015260048201546080820152600582015460a082015260068083015491929160c084019160ff909116908111156115c3576115c36128e1565b60068111156115d4576115d46128e1565b90525092915050565b336115e6610caf565b6001600160a01b03161461160c5760405162461bcd60e51b815260040161064a906126d0565b6001600160a01b0381166116715760405162461bcd60e51b815260206004820152602660248201527f4f776e61626c653a206e6577206f776e657220697320746865207a65726f206160448201526564647265737360d01b606482015260840161064a565b6107b581611d94565b6000818152600960205260409020600101546001600160a01b03166116b15760405162461bcd60e51b815260040161064a90612754565b6000818152600960205260409020600501541561172f5760405162461bcd60e51b815260206004820152603660248201527f65786563757465486f6c643a206e65656420707265696d6167652069662074686044820152750ca40d0ded8c840d0c2e640c240d8dec6d640d0c2e6d60531b606482015260840161064a565b6000818152600960205260408120600101546107b59183916001600160a01b0316611b46565b6001600760008360405160200161176c91906125d5565b60408051808303601f19018152918152815160209283012083529082019290925201600020805460ff191691151591909117905550565b6117ad8282611eb4565b156117fa5760405162461bcd60e51b815260206004820152601f60248201527f526f6c65733a206163636f756e7420616c72656164792068617320726f6c6500604482015260640161064a565b6001600160a01b0316600090815260209190915260409020805460ff19166001179055565b60006107f433848461193f565b6001600160a01b031660009081526001602052604090205490565b600061065d828461284d565b6000611860848484611f43565b6001600160a01b0384166000908152600260209081526040808320338452909152902054828110156118e55760405162461bcd60e51b815260206004820152602860248201527f45524332303a207472616e7366657220616d6f756e74206578636565647320616044820152676c6c6f77616e636560c01b606482015260840161064a565b6118f2853385840361193f565b506001949350505050565b61190860088261210c565b6040516001600160a01b038216907fe94479a9f7e1952cc78f2d6baab678adc1b772d936c6583def489e524cb6669290600090a250565b6001600160a01b0383166119a15760405162461bcd60e51b8152602060048201526024808201527f45524332303a20617070726f76652066726f6d20746865207a65726f206164646044820152637265737360e01b606482015260840161064a565b6001600160a01b038216611a025760405162461bcd60e51b815260206004820152602260248201527f45524332303a20617070726f766520746f20746865207a65726f206164647265604482015261737360f01b606482015260840161064a565b6001600160a01b0383811660008181526002602090815260408083209487168084529482529182902085905590518481527f8c5be1e5ebec7d5bd14f71427d1e84f3dd0314c0f7b2291e5b200ac8c7c3b925910160405180910390a3505050565b6001600160a01b038216611ab95760405162461bcd60e51b815260206004820152601f60248201527f45524332303a206d696e7420746f20746865207a65726f206164647265737300604482015260640161064a565b611ac56000838361218e565b8060036000828254611ad79190612835565b90915550506001600160a01b03821660009081526001602052604081208054839290611b04908490612835565b90915550506040518181526001600160a01b038316906000906000805160206128f88339815191529060200160405180910390a35050565b6107b53382612199565b826001600082815260096020526040902060069081015460ff1690811115611b7057611b706128e1565b1480611ba257506003600082815260096020526040902060069081015460ff1690811115611ba057611ba06128e1565b145b611bbe5760405162461bcd60e51b815260040161064a90612646565b6000848152600960205260409020600201546001600160a01b03163314611c3b5760405162461bcd60e51b815260206004820152602b60248201527f65786563757465486f6c643a2063616c6c6572206d757374206265207468652060448201526a686f6c64206e6f7461727960a81b606482015260840161064a565b60008481526009602052604090208054600390910154611c66916001600160a01b0316908490611f43565b600084815260096020908152604080832060068101805460ff19166002179055600381015490546001600160a01b03168452600a90925290912054611caa91611847565b600085815260096020818152604080842080546001600160a01b03168552600a83529084209490945591879052905260030154600c54611ce991611847565b600c556000848152600960205260408120600281015481546001830154600390930154611d27936001600160a01b0393841693928316921690610f86565b509050600b600082815260200190815260200160002060009055847fc6d1a93a7a047b3f030e0a63b85e07ff5741659917295090572c23834d53281d8585604051611d859291909182526001600160a01b0316602082015260400190565b60405180910390a25050505050565b600080546001600160a01b038381166001600160a01b0319831681178455604051919092169283917f8be0079c531659141344cd1fd0a4f28419497f9722a3daafe3b4186f6b6457e09190a35050565b6000611df08333610466565b905081811015611e4e5760405162461bcd60e51b8152602060048201526024808201527f45524332303a206275726e20616d6f756e74206578636565647320616c6c6f77604482015263616e636560e01b606482015260840161064a565b611e5b833384840361193f565b610bc78383612199565b611e706008826117a3565b6040516001600160a01b038216907f6ae172837ea30b801fbfcdd4108aa1d5bf8ff775444fd70256b44e6bf3dfc3f690600090a250565b60006107f4338484611f43565b60006001600160a01b038216611f175760405162461bcd60e51b815260206004820152602260248201527f526f6c65733a206163636f756e7420697320746865207a65726f206164647265604482015261737360f01b606482015260840161064a565b506001600160a01b03166000908152602091909152604090205460ff1690565b600061065d8284612835565b6001600160a01b038316611fa75760405162461bcd60e51b815260206004820152602560248201527f45524332303a207472616e736665722066726f6d20746865207a65726f206164604482015264647265737360d81b606482015260840161064a565b6001600160a01b0382166120095760405162461bcd60e51b815260206004820152602360248201527f45524332303a207472616e7366657220746f20746865207a65726f206164647260448201526265737360e81b606482015260840161064a565b61201483838361218e565b6001600160a01b0383166000908152600160205260409020548181101561208c5760405162461bcd60e51b815260206004820152602660248201527f45524332303a207472616e7366657220616d6f756e7420657863656564732062604482015265616c616e636560d01b606482015260840161064a565b6001600160a01b038085166000908152600160205260408082208585039055918516815290812080548492906120c3908490612835565b92505081905550826001600160a01b0316846001600160a01b03166000805160206128f8833981519152846040516120fd91815260200190565b60405180910390a35b50505050565b6121168282611eb4565b61216c5760405162461bcd60e51b815260206004820152602160248201527f526f6c65733a206163636f756e7420646f6573206e6f74206861766520726f6c6044820152606560f81b606482015260840161064a565b6001600160a01b0316600090815260209190915260409020805460ff19169055565b610bc78383836122e1565b6001600160a01b0382166121f95760405162461bcd60e51b815260206004820152602160248201527f45524332303a206275726e2066726f6d20746865207a65726f206164647265736044820152607360f81b606482015260840161064a565b6122058260008361218e565b6001600160a01b038216600090815260016020526040902054818110156122795760405162461bcd60e51b815260206004820152602260248201527f45524332303a206275726e20616d6f756e7420657863656564732062616c616e604482015261636560f01b606482015260840161064a565b6001600160a01b03831660009081526001602052604081208383039055600380548492906122a890849061284d565b90915550506040518281526000906001600160a01b038516906000805160206128f88339815191529060200160405180910390a3505050565b60065460ff1615610bc75760405162461bcd60e51b815260206004820152602a60248201527f45524332305061757361626c653a20746f6b656e207472616e736665722077686044820152691a5b19481c185d5cd95960b21b606482015260840161064a565b80356001600160a01b038116811461235e57600080fd5b919050565b60006020828403121561237557600080fd5b61065d82612347565b6000806040838503121561239157600080fd5b61239a83612347565b91506123a860208401612347565b90509250929050565b600080600080608085870312156123c757600080fd5b6123d085612347565b93506123de60208601612347565b92506123ec60408601612347565b9396929550929360600135925050565b60008060006060848603121561241157600080fd5b61241a84612347565b925061242860208501612347565b9150604084013590509250925092565b600080600080600060a0868803121561245057600080fd5b61245986612347565b945061246760208701612347565b94979496505050506040830135926060810135926080909101359150565b6000806040838503121561249857600080fd5b6124a183612347565b946020939093013593505050565b6000602082840312156124c157600080fd5b5035919050565b6000602082840312156124da57600080fd5b5051919050565b600080604083850312156124f457600080fd5b823591506123a860208401612347565b60008060008060008060c0878903121561251d57600080fd5b8635955061252d60208801612347565b945061253b60408801612347565b9350606087013592506080870135915060a087013590509295509295509295565b6000806040838503121561256f57600080fd5b50508035926020909101359150565b60008060006060848603121561259357600080fd5b83359250602084013591506125aa60408501612347565b90509250925092565b600781106125d157634e487b7160e01b600052602160045260246000fd5b9052565b600082516125e7818460208701612864565b9190910192915050565b6001600160a01b0391909116815260200190565b6020810161066082846125b3565b6020815260008251806020840152612632816040850160208701612864565b601f01601f19169190910160400192915050565b6020808252601d908201527f486f6c64206973206e6f7420696e204f72646572656420737461747573000000604082015260600190565b60208082526033908201527f65786563757465486f6c643a20707265696d616765206861736820646f6573206040820152720dcdee840dac2e8c6d040d8dec6d640d0c2e6d606b1b606082015260800190565b6020808252818101527f4f776e61626c653a2063616c6c6572206973206e6f7420746865206f776e6572604082015260600190565b6020808252602f908201527f486f6c6461626c65546f6b656e3a20616d6f756e74206578636565647320617660408201526e61696c61626c652062616c616e636560881b606082015260800190565b60208082526056908201527f65786563757465486f6c643a206d75737420706173732074686520726563697060408201527f69656e74206f6e20657865637574696f6e2061732074686520726563697069656060820152751b9d081dd85cc81b9bdd081cd95d081bdb881a1bdb1960521b608082015260a00190565b600060e08201905060018060a01b0380845116835280602085015116602084015280604085015116604084015250606083015160608301526080830151608083015260a083015160a083015260c083015161282e60c08401826125b3565b5092915050565b60008219821115612848576128486128cb565b500190565b60008282101561285f5761285f6128cb565b500390565b60005b8381101561287f578181015183820152602001612867565b838111156121065750506000910152565b600181811c908216806128a457607f821691505b602082108114156128c557634e487b7160e01b600052602260045260246000fd5b50919050565b634e487b7160e01b600052601160045260246000fd5b634e487b7160e01b600052602160045260246000fdfeddf252ad1be2c89b69c2b068fc378daa952ba7f163c4a11628f55a4df523b3efa26469706673582212204036f3c436cb6ab646cbabd5e414172343db81d6b9aed818e4b76c473c9d88e064736f6c63430008070033",
  "immutableReferences": {
    "7578": [
      {
        "length": 32,
        "start": 594
      }
    ]
  },
  "source": "// SPDX-License-Identifier: Apache-2.0\n/*\n * This code has not been reviewed.\n * Do not use or deploy this code before reviewing it personally first.\n */\npragma solidity ^0.8.0;\n\nimport \"@openzeppelin/contracts/utils/math/SafeMath.sol\";\nimport \"./ERC20Token.sol\";\nimport \"../interface/IERC20HoldableToken.sol\";\n\n/**\n * @title ERC20HoldableToken\n * @notice A hold is like an approve where held tokens can not be spent by the token holder until after an hold expiration period.\n    The hold can be executed by a notary, which can be the recipient of the tokens, a third party or a smart contract.\n    The notary can execute the hold before or after the expiration period.\n    Additionally, a hash lock at be applied which requires the notary of the hold to present the hash preimage to execute the hold.\n    Held tokens can be released by the notary at any time or by the token holder after the expiration period.\n    A recipient does not have to get set at the time of the hold, which means it will have to be specified when the hold is executed.\n */\ncontract ERC20HoldableToken is ERC20Token, IERC20HoldableToken {\n    using SafeMath for uint256;\n\n    // mapping of accounts to hold data\n    mapping(bytes32 => ERC20HoldData) internal holds;\n    // mapping of accounts and their total amount on hold\n    mapping(address => uint256) internal accountHoldBalances;\n\n    mapping(bytes32 => bytes32) internal _holdHashToId;\n\n    uint256 override public totalSupplyOnHold;\n\n    modifier isHeld(bytes32 holdId) {\n        require(\n            holds[holdId].status == HoldStatusCode.Ordered ||\n            holds[holdId].status == HoldStatusCode.ExecutedAndKeptOpen,\n            \"Hold is not in Ordered status\"\n        );\n        _;\n    }\n\n    constructor(string memory name, string memory symbol, uint8 decimals) ERC20Token(name, symbol, decimals) {}\n\n    function generateHoldId(\n        address recipient,\n        address notary,\n        uint256 amount,\n        uint256 expirationDateTime,\n        bytes32 lockHash\n    ) external pure returns (bytes32 holdId) {\n        holdId = keccak256(\n            abi.encodePacked(\n                recipient,\n                notary,\n                amount,\n                expirationDateTime,\n                lockHash\n            )\n        );\n    }\n\n    /**\n    * @dev Retrieve hold hash, and ID for given parameters\n    */\n    function retrieveHoldHashId(address notary, address sender, address recipient, uint value) public view returns (bytes32, bytes32) {\n        // Pack and hash hold parameters\n        bytes32 holdHash = keccak256(abi.encodePacked(\n            address(this), //Include the token address to indicate domain\n            sender,\n            recipient,\n            notary,\n            value\n        ));\n        bytes32 holdId = _holdHashToId[holdHash];\n\n        return (holdHash, holdId);\n    }  \n\n    /**\n     @notice Called by the sender to hold some tokens for a recipient that the sender can not release back to themself until after the expiration date.\n     @param holdId a unique identifier for the hold.\n     @param recipient optional account the tokens will be transferred to on execution. If a zero address, the recipient must be specified on execution of the hold.\n     @param notary account that can execute the hold. Typically the recipient but can be a third party or a smart contact.\n     @param amount of tokens to be transferred to the recipient on execution. Must be a non zero amount.\n     @param expirationDateTime UNIX epoch seconds the held amount can be released back to the sender by the sender. Past dates are allowed.\n     @param lockHash optional keccak256 hash of a lock preimage. An empty hash will not enforce the hash lock when the hold is executed.\n     */\n    function hold(\n        bytes32 holdId,\n        address recipient,\n        address notary,\n        uint256 amount,\n        uint256 expirationDateTime,\n        bytes32 lockHash\n    ) public override {\n        require(\n            notary != address(0),\n            \"hold: notary must not be a zero address\"\n        );\n        require(amount != 0, \"hold: amount must be greater than zero\");\n        require(\n            this.spendableBalanceOf(msg.sender) >= amount,\n            \"hold: amount exceeds available balance\"\n        );\n\n        (bytes32 holdHash,) = retrieveHoldHashId(\n            notary,\n            _msgSender(),\n            recipient,\n            amount\n        );\n\n        _holdHashToId[holdHash] = holdId;\n\n        require(\n            holds[holdId].status == HoldStatusCode.Nonexistent,\n            \"hold: id already exists\"\n        );\n        holds[holdId] = ERC20HoldData(\n            msg.sender,\n            recipient,\n            notary,\n            amount,\n            expirationDateTime,\n            lockHash,\n            HoldStatusCode.Ordered\n        );\n        accountHoldBalances[msg.sender] = accountHoldBalances[msg.sender].add(\n            amount\n        );\n        totalSupplyOnHold = totalSupplyOnHold.add(amount);\n\n        emit NewHold(\n            holdId,\n            recipient,\n            notary,\n            amount,\n            expirationDateTime,\n            lockHash\n        );\n    }\n\n    function retrieveHoldData(bytes32 holdId) external override view returns (ERC20HoldData memory) {\n        return holds[holdId];\n    }\n\n    /**\n     @notice Called by the notary to transfer the held tokens to the set at the hold recipient if there is no hash lock.\n     @param holdId a unique identifier for the hold.\n     */\n    function executeHold(bytes32 holdId) public override {\n        require(\n            holds[holdId].recipient != address(0),\n            \"executeHold: must pass the recipient on execution as the recipient was not set on hold\"\n        );\n        require(\n            holds[holdId].secretHash == bytes32(0),\n            \"executeHold: need preimage if the hold has a lock hash\"\n        );\n\n        _executeHold(holdId, \"\", holds[holdId].recipient);\n    }\n\n    /**\n     @notice Called by the notary to transfer the held tokens to the recipient that was set at the hold.\n     @param holdId a unique identifier for the hold.\n     @param lockPreimage the image used to generate the lock hash with a sha256 hash\n     */\n    function executeHold(bytes32 holdId, bytes32 lockPreimage) public override {\n        require(\n            holds[holdId].recipient != address(0),\n            \"executeHold: must pass the recipient on execution as the recipient was not set on hold\"\n        );\n        if (holds[holdId].secretHash != bytes32(0)) {\n            require(\n                holds[holdId].secretHash ==\n                    sha256(abi.encodePacked(lockPreimage)),\n                \"executeHold: preimage hash does not match lock hash\"\n            );\n        }\n\n        _executeHold(holdId, lockPreimage, holds[holdId].recipient);\n    }\n\n    /**\n     @notice Called by the notary to transfer the held tokens to the recipient if no recipient was specified at the hold.\n     @param holdId a unique identifier for the hold.\n     @param lockPreimage the image used to generate the lock hash with a keccak256 hash\n     @param recipient the account the tokens will be transferred to on execution.\n     */\n    function executeHold(\n        bytes32 holdId,\n        bytes32 lockPreimage,\n        address recipient\n    ) public override {\n        require(\n            holds[holdId].recipient == address(0),\n            \"executeHold: can not set a recipient on execution as it was set on hold\"\n        );\n        require(\n            recipient != address(0),\n            \"executeHold: recipient must not be a zero address\"\n        );\n        if (holds[holdId].secretHash != bytes32(0)) {\n            require(\n                holds[holdId].secretHash ==\n                    sha256(abi.encodePacked(lockPreimage)),\n                \"executeHold: preimage hash does not match lock hash\"\n            );\n        }\n\n        holds[holdId].recipient = recipient;\n\n        _executeHold(holdId, lockPreimage, recipient);\n    }\n\n    function _executeHold(\n        bytes32 holdId,\n        bytes32 lockPreimage,\n        address recipient\n    ) internal isHeld(holdId) {\n        require(\n            holds[holdId].notary == msg.sender,\n            \"executeHold: caller must be the hold notary\"\n        );\n\n        super._transfer(holds[holdId].sender, recipient, holds[holdId].amount);\n\n        holds[holdId].status = HoldStatusCode.Executed;\n        accountHoldBalances[holds[holdId]\n            .sender] = accountHoldBalances[holds[holdId].sender].sub(\n            holds[holdId].amount\n        );\n        totalSupplyOnHold = totalSupplyOnHold.sub(holds[holdId].amount);\n\n        (bytes32 holdHash,) = retrieveHoldHashId(\n            holds[holdId].notary,\n            holds[holdId].sender,\n            holds[holdId].recipient,\n            holds[holdId].amount\n        );\n\n        delete _holdHashToId[holdHash];\n\n        emit ExecutedHold(holdId, lockPreimage, recipient);\n    }\n\n    /**\n     @notice Called by the notary at any time or the sender after the expiration date to release the held tokens back to the sender.\n     @param holdId a unique identifier for the hold.\n     */\n    function releaseHold(bytes32 holdId) public override isHeld(holdId) {\n        if (holds[holdId].sender == msg.sender) {\n            require(\n                block.timestamp > holds[holdId].expirationDateTime,\n                \"releaseHold: can only release after the expiration date.\"\n            );\n            holds[holdId].status = HoldStatusCode.ReleasedOnExpiration;\n        } else if (holds[holdId].notary != msg.sender) {\n            revert(\"releaseHold: caller must be the hold sender or notary.\");\n        } else {\n            holds[holdId].status = HoldStatusCode.ReleasedByNotary;\n        }\n\n        accountHoldBalances[holds[holdId]\n            .sender] = accountHoldBalances[holds[holdId].sender].sub(\n            holds[holdId].amount\n        );\n        totalSupplyOnHold = totalSupplyOnHold.sub(holds[holdId].amount);\n\n        emit ReleaseHold(holdId, msg.sender);\n    }\n\n    /**\n     @notice Amount of tokens owned by an account that are available for transfer. That is, the gross balance less any held tokens.\n     @param account owner of the tokens\n     */\n    function balanceOf(address account) public override(ERC20, IERC20) view returns (uint256) {\n        return super.balanceOf(account);\n        \n    }\n\n    /**\n     @notice Amount of tokens owned by an account that are held pending execution or release.\n     @param account owner of the tokens\n     */\n    function balanceOnHold(address account) public override view returns (uint256) {\n        return accountHoldBalances[account];\n    }\n\n    /**\n     @notice Total amount of tokens owned by an account including all the held tokens pending execution or release.\n     @param account owner of the tokens\n     */\n    function spendableBalanceOf(address account) public override view returns (uint256) {\n        return super.balanceOf(account).sub(accountHoldBalances[account]);\n    }\n\n    /**\n     @param holdId a unique identifier for the hold.\n     @return hold status code.\n     */\n    function holdStatus(bytes32 holdId) public override view returns (HoldStatusCode) {\n        return holds[holdId].status;\n    }\n\n    /**\n     @notice ERC20 transfer that checks on hold tokens can not be transferred.\n     */\n    function transfer(address recipient, uint256 amount) public override(ERC20, IERC20) returns (bool) {\n        require(\n            this.spendableBalanceOf(msg.sender) >= amount,\n            \"HoldableToken: amount exceeds available balance\"\n        );\n        return super.transfer(recipient, amount);\n    }\n\n    /**\n     @notice ERC20 transferFrom that checks on hold tokens can not be transferred.\n     */\n    function transferFrom(\n        address sender,\n        address recipient,\n        uint256 amount\n    ) public override(ERC20, IERC20) returns (bool) {\n        require(\n            this.spendableBalanceOf(sender) >= amount,\n            \"HoldableToken: amount exceeds available balance\"\n        );\n        return super.transferFrom(sender, recipient, amount);\n    }\n\n    /**\n     @notice ERC20 approve that checks on hold tokens can not be approved for spending by another account.\n     */\n    function approve(address spender, uint256 amount) public override(ERC20, IERC20) returns (bool) {\n        require(\n            this.spendableBalanceOf(msg.sender) >= amount,\n            \"HoldableToken: amount exceeds available balance\"\n        );\n        return super.approve(spender, amount);\n    }\n\n    /**\n     @notice ERC20 burn that checks on hold tokens can not be burnt.\n     */\n    function burn(uint256 amount) public override {\n        require(\n            this.spendableBalanceOf(msg.sender) >= amount,\n            \"HoldableToken: amount exceeds available balance\"\n        );\n        super.burn(amount);\n    }\n\n    /**\n     @notice ERC20 burnFrom that checks on hold tokens can not be burnt.\n     */\n    function burnFrom(address account, uint256 amount) public override {\n        require(\n            this.spendableBalanceOf(msg.sender) >= amount,\n            \"HoldableToken: amount exceeds available balance\"\n        );\n        super.burnFrom(account, amount);\n    }\n}\n",
  "sourcePath": "/Users/sergio/Downloads/UniversalToken-master/contracts/tokens/ERC20HoldableToken.sol",
  "compiler": {
    "name": "solc",
    "version": "0.8.7+commit.e28d00a7.Emscripten.clang"
  },
  "schemaVersion": "3.4.16",
  "updatedAt": "2024-05-07T16:50:54.400Z",
  "devdoc": {
    "kind": "dev",
    "methods": {
      "allowance(address,address)": {
        "details": "See {IERC20-allowance}."
      },
      "balanceOf(address)": {
        "params": {
          "account": "owner of the tokens"
        }
      },
      "balanceOnHold(address)": {
        "params": {
          "account": "owner of the tokens"
        }
      },
      "decimals()": {
        "details": "Returns the number of decimals used to get its user representation. For example, if `decimals` equals `2`, a balance of `505` tokens should be displayed to a user as `5,05` (`505 / 10 ** 2`). Tokens usually opt for a value of 18, imitating the relationship between Ether and Wei. This is the value {ERC20} uses, unless this function is overridden; NOTE: This information is only used for _display_ purposes: it in no way affects any of the arithmetic of the contract, including {IERC20-balanceOf} and {IERC20-transfer}."
      },
      "decreaseAllowance(address,uint256)": {
        "details": "Atomically decreases the allowance granted to `spender` by the caller. This is an alternative to {approve} that can be used as a mitigation for problems described in {IERC20-approve}. Emits an {Approval} event indicating the updated allowance. Requirements: - `spender` cannot be the zero address. - `spender` must have allowance for the caller of at least `subtractedValue`."
      },
      "executeHold(bytes32)": {
        "params": {
          "holdId": "a unique identifier for the hold."
        }
      },
      "executeHold(bytes32,bytes32)": {
        "params": {
          "holdId": "a unique identifier for the hold.",
          "lockPreimage": "the image used to generate the lock hash with a sha256 hash"
        }
      },
      "executeHold(bytes32,bytes32,address)": {
        "params": {
          "holdId": "a unique identifier for the hold.",
          "lockPreimage": "the image used to generate the lock hash with a keccak256 hash",
          "recipient": "the account the tokens will be transferred to on execution."
        }
      },
      "hold(bytes32,address,address,uint256,uint256,bytes32)": {
        "params": {
          "amount": "of tokens to be transferred to the recipient on execution. Must be a non zero amount.",
          "expirationDateTime": "UNIX epoch seconds the held amount can be released back to the sender by the sender. Past dates are allowed.",
          "holdId": "a unique identifier for the hold.",
          "lockHash": "optional keccak256 hash of a lock preimage. An empty hash will not enforce the hash lock when the hold is executed.",
          "notary": "account that can execute the hold. Typically the recipient but can be a third party or a smart contact.",
          "recipient": "optional account the tokens will be transferred to on execution. If a zero address, the recipient must be specified on execution of the hold."
        }
      },
      "holdStatus(bytes32)": {
        "params": {
          "holdId": "a unique identifier for the hold."
        },
        "returns": {
          "_0": "hold status code."
        }
      },
      "increaseAllowance(address,uint256)": {
        "details": "Atomically increases the allowance granted to `spender` by the caller. This is an alternative to {approve} that can be used as a mitigation for problems described in {IERC20-approve}. Emits an {Approval} event indicating the updated allowance. Requirements: - `spender` cannot be the zero address."
      },
      "mint(address,uint256)": {
        "details": "Function to mint tokens",
        "params": {
          "to": "The address that will receive the minted tokens.",
          "value": "The amount of tokens to mint."
        },
        "returns": {
          "_0": "A boolean that indicates if the operation was successful."
        }
      },
      "name()": {
        "details": "Returns the name of the token."
      },
      "owner()": {
        "details": "Returns the address of the current owner."
      },
      "paused()": {
        "details": "Returns true if the contract is paused, and false otherwise."
      },
      "releaseHold(bytes32)": {
        "params": {
          "holdId": "a unique identifier for the hold."
        }
      },
      "renounceOwnership()": {
        "details": "Leaves the contract without owner. It will not be possible to call `onlyOwner` functions anymore. Can only be called by the current owner. NOTE: Renouncing ownership will leave the contract without an owner, thereby removing any functionality that is only available to the owner."
      },
      "retrieveHoldHashId(address,address,address,uint256)": {
        "details": "Retrieve hold hash, and ID for given parameters"
      },
      "spendableBalanceOf(address)": {
        "params": {
          "account": "owner of the tokens"
        }
      },
      "symbol()": {
        "details": "Returns the symbol of the token, usually a shorter version of the name."
      },
      "totalSupply()": {
        "details": "See {IERC20-totalSupply}."
      },
      "transferOwnership(address)": {
        "details": "Transfers ownership of the contract to a new account (`newOwner`). Can only be called by the current owner."
      }
    },
    "title": "ERC20HoldableToken",
    "version": 1
  },
  "userdoc": {
    "kind": "user",
    "methods": {
      "approve(address,uint256)": {
        "notice": "ERC20 approve that checks on hold tokens can not be approved for spending by another account."
      },
      "balanceOf(address)": {
        "notice": "Amount of tokens owned by an account that are available for transfer. That is, the gross balance less any held tokens."
      },
      "balanceOnHold(address)": {
        "notice": "Amount of tokens owned by an account that are held pending execution or release."
      },
      "burn(uint256)": {
        "notice": "ERC20 burn that checks on hold tokens can not be burnt."
      },
      "burnFrom(address,uint256)": {
        "notice": "ERC20 burnFrom that checks on hold tokens can not be burnt."
      },
      "executeHold(bytes32)": {
        "notice": "Called by the notary to transfer the held tokens to the set at the hold recipient if there is no hash lock."
      },
      "executeHold(bytes32,bytes32)": {
        "notice": "Called by the notary to transfer the held tokens to the recipient that was set at the hold."
      },
      "executeHold(bytes32,bytes32,address)": {
        "notice": "Called by the notary to transfer the held tokens to the recipient if no recipient was specified at the hold."
      },
      "hold(bytes32,address,address,uint256,uint256,bytes32)": {
        "notice": "Called by the sender to hold some tokens for a recipient that the sender can not release back to themself until after the expiration date."
      },
      "releaseHold(bytes32)": {
        "notice": "Called by the notary at any time or the sender after the expiration date to release the held tokens back to the sender."
      },
      "spendableBalanceOf(address)": {
        "notice": "Total amount of tokens owned by an account including all the held tokens pending execution or release."
      },
      "transfer(address,uint256)": {
        "notice": "ERC20 transfer that checks on hold tokens can not be transferred."
      },
      "transferFrom(address,address,uint256)": {
        "notice": "ERC20 transferFrom that checks on hold tokens can not be transferred."
      }
    },
    "notice": "A hold is like an approve where held tokens can not be spent by the token holder until after an hold expiration period. The hold can be executed by a notary, which can be the recipient of the tokens, a third party or a smart contract. The notary can execute the hold before or after the expiration period. Additionally, a hash lock at be applied which requires the notary of the hold to present the hash preimage to execute the hold. Held tokens can be released by the notary at any time or by the token holder after the expiration period. A recipient does not have to get set at the time of the hold, which means it will have to be specified when the hold is executed.",
    "version": 1
  }
}